{
	"data": {
		"bytecode": {
			"linkReferences": {},
			"object": "6080604052348015600e575f80fd5b506102718061001c5f395ff3fe608060405234801561000f575f80fd5b5060043610610055575f3560e01c806303df179c1461005957806306661abd146100755780632baeceb714610093578063d09de08a1461009d578063f7164d75146100a7575b5f80fd5b610073600480360381019061006e9190610155565b6100b1565b005b61007d6100cb565b60405161008a919061018f565b60405180910390f35b61009b6100d0565b005b6100a56100ea565b005b6100af610104565b005b805f808282546100c191906101d5565b9250508190555050565b5f5481565b60015f808282546100e19190610208565b92505081905550565b60015f808282546100fb91906101d5565b92505081905550565b600a5f8082825461011591906101d5565b92505081905550565b5f80fd5b5f819050919050565b61013481610122565b811461013e575f80fd5b50565b5f8135905061014f8161012b565b92915050565b5f6020828403121561016a5761016961011e565b5b5f61017784828501610141565b91505092915050565b61018981610122565b82525050565b5f6020820190506101a25f830184610180565b92915050565b7f4e487b71000000000000000000000000000000000000000000000000000000005f52601160045260245ffd5b5f6101df82610122565b91506101ea83610122565b9250828201905080821115610202576102016101a8565b5b92915050565b5f61021282610122565b915061021d83610122565b9250828203905081811115610235576102346101a8565b5b9291505056fea2646970667358221220980f308c828b3bf314699b532666c0039c691d476b5566743d5509dc3eafdf1364736f6c634300081a0033",
			"opcodes": "PUSH1 0x80 PUSH1 0x40 MSTORE CALLVALUE DUP1 ISZERO PUSH1 0xE JUMPI PUSH0 DUP1 REVERT JUMPDEST POP PUSH2 0x271 DUP1 PUSH2 0x1C PUSH0 CODECOPY PUSH0 RETURN INVALID PUSH1 0x80 PUSH1 0x40 MSTORE CALLVALUE DUP1 ISZERO PUSH2 0xF JUMPI PUSH0 DUP1 REVERT JUMPDEST POP PUSH1 0x4 CALLDATASIZE LT PUSH2 0x55 JUMPI PUSH0 CALLDATALOAD PUSH1 0xE0 SHR DUP1 PUSH4 0x3DF179C EQ PUSH2 0x59 JUMPI DUP1 PUSH4 0x6661ABD EQ PUSH2 0x75 JUMPI DUP1 PUSH4 0x2BAECEB7 EQ PUSH2 0x93 JUMPI DUP1 PUSH4 0xD09DE08A EQ PUSH2 0x9D JUMPI DUP1 PUSH4 0xF7164D75 EQ PUSH2 0xA7 JUMPI JUMPDEST PUSH0 DUP1 REVERT JUMPDEST PUSH2 0x73 PUSH1 0x4 DUP1 CALLDATASIZE SUB DUP2 ADD SWAP1 PUSH2 0x6E SWAP2 SWAP1 PUSH2 0x155 JUMP JUMPDEST PUSH2 0xB1 JUMP JUMPDEST STOP JUMPDEST PUSH2 0x7D PUSH2 0xCB JUMP JUMPDEST PUSH1 0x40 MLOAD PUSH2 0x8A SWAP2 SWAP1 PUSH2 0x18F JUMP JUMPDEST PUSH1 0x40 MLOAD DUP1 SWAP2 SUB SWAP1 RETURN JUMPDEST PUSH2 0x9B PUSH2 0xD0 JUMP JUMPDEST STOP JUMPDEST PUSH2 0xA5 PUSH2 0xEA JUMP JUMPDEST STOP JUMPDEST PUSH2 0xAF PUSH2 0x104 JUMP JUMPDEST STOP JUMPDEST DUP1 PUSH0 DUP1 DUP3 DUP3 SLOAD PUSH2 0xC1 SWAP2 SWAP1 PUSH2 0x1D5 JUMP JUMPDEST SWAP3 POP POP DUP2 SWAP1 SSTORE POP POP JUMP JUMPDEST PUSH0 SLOAD DUP2 JUMP JUMPDEST PUSH1 0x1 PUSH0 DUP1 DUP3 DUP3 SLOAD PUSH2 0xE1 SWAP2 SWAP1 PUSH2 0x208 JUMP JUMPDEST SWAP3 POP POP DUP2 SWAP1 SSTORE POP JUMP JUMPDEST PUSH1 0x1 PUSH0 DUP1 DUP3 DUP3 SLOAD PUSH2 0xFB SWAP2 SWAP1 PUSH2 0x1D5 JUMP JUMPDEST SWAP3 POP POP DUP2 SWAP1 SSTORE POP JUMP JUMPDEST PUSH1 0xA PUSH0 DUP1 DUP3 DUP3 SLOAD PUSH2 0x115 SWAP2 SWAP1 PUSH2 0x1D5 JUMP JUMPDEST SWAP3 POP POP DUP2 SWAP1 SSTORE POP JUMP JUMPDEST PUSH0 DUP1 REVERT JUMPDEST PUSH0 DUP2 SWAP1 POP SWAP2 SWAP1 POP JUMP JUMPDEST PUSH2 0x134 DUP2 PUSH2 0x122 JUMP JUMPDEST DUP2 EQ PUSH2 0x13E JUMPI PUSH0 DUP1 REVERT JUMPDEST POP JUMP JUMPDEST PUSH0 DUP2 CALLDATALOAD SWAP1 POP PUSH2 0x14F DUP2 PUSH2 0x12B JUMP JUMPDEST SWAP3 SWAP2 POP POP JUMP JUMPDEST PUSH0 PUSH1 0x20 DUP3 DUP5 SUB SLT ISZERO PUSH2 0x16A JUMPI PUSH2 0x169 PUSH2 0x11E JUMP JUMPDEST JUMPDEST PUSH0 PUSH2 0x177 DUP5 DUP3 DUP6 ADD PUSH2 0x141 JUMP JUMPDEST SWAP2 POP POP SWAP3 SWAP2 POP POP JUMP JUMPDEST PUSH2 0x189 DUP2 PUSH2 0x122 JUMP JUMPDEST DUP3 MSTORE POP POP JUMP JUMPDEST PUSH0 PUSH1 0x20 DUP3 ADD SWAP1 POP PUSH2 0x1A2 PUSH0 DUP4 ADD DUP5 PUSH2 0x180 JUMP JUMPDEST SWAP3 SWAP2 POP POP JUMP JUMPDEST PUSH32 0x4E487B7100000000000000000000000000000000000000000000000000000000 PUSH0 MSTORE PUSH1 0x11 PUSH1 0x4 MSTORE PUSH1 0x24 PUSH0 REVERT JUMPDEST PUSH0 PUSH2 0x1DF DUP3 PUSH2 0x122 JUMP JUMPDEST SWAP2 POP PUSH2 0x1EA DUP4 PUSH2 0x122 JUMP JUMPDEST SWAP3 POP DUP3 DUP3 ADD SWAP1 POP DUP1 DUP3 GT ISZERO PUSH2 0x202 JUMPI PUSH2 0x201 PUSH2 0x1A8 JUMP JUMPDEST JUMPDEST SWAP3 SWAP2 POP POP JUMP JUMPDEST PUSH0 PUSH2 0x212 DUP3 PUSH2 0x122 JUMP JUMPDEST SWAP2 POP PUSH2 0x21D DUP4 PUSH2 0x122 JUMP JUMPDEST SWAP3 POP DUP3 DUP3 SUB SWAP1 POP DUP2 DUP2 GT ISZERO PUSH2 0x235 JUMPI PUSH2 0x234 PUSH2 0x1A8 JUMP JUMPDEST JUMPDEST SWAP3 SWAP2 POP POP JUMP INVALID LOG2 PUSH5 0x6970667358 0x22 SLT KECCAK256 SWAP9 0xF ADDRESS DUP13 DUP3 DUP12 EXTCODESIZE RETURN EQ PUSH10 0x9B532666C0039C691D47 PUSH12 0x5566743D5509DC3EAFDF1364 PUSH20 0x6F6C634300081A00330000000000000000000000 "
		},
		"gasEstimates": {
			"creation": {
				"codeDepositCost": "125000",
				"executionCost": "169",
				"totalCost": "125169"
			},
			"external": {
				"count()": "2424",
				"decrement()": "infinite",
				"increment()": "infinite",
				"incrementBy(uint256)": "infinite",
				"incrementBy10()": "infinite"
			}
		},
		"methodIdentifiers": {
			"count()": "06661abd",
			"decrement()": "2baeceb7",
			"increment()": "d09de08a",
			"incrementBy(uint256)": "03df179c",
			"incrementBy10()": "f7164d75"
		}
	},
	"abi": [
		{
			"anonymous": false,
			"inputs": [
				{
					"indexed": false,
					"internalType": "uint256",
					"name": "newAmount",
					"type": "uint256"
				}
			],
			"name": "IncrementedTo",
			"type": "event"
		},
		{
			"inputs": [],
			"name": "count",
			"outputs": [
				{
					"internalType": "uint256",
					"name": "",
					"type": "uint256"
				}
			],
			"stateMutability": "view",
			"type": "function"
		},
		{
			"inputs": [],
			"name": "decrement",
			"outputs": [],
			"stateMutability": "nonpayable",
			"type": "function"
		},
		{
			"inputs": [],
			"name": "increment",
			"outputs": [],
			"stateMutability": "nonpayable",
			"type": "function"
		},
		{
			"inputs": [
				{
					"internalType": "uint256",
					"name": "amount",
					"type": "uint256"
				}
			],
			"name": "incrementBy",
			"outputs": [],
			"stateMutability": "nonpayable",
			"type": "function"
		},
		{
			"inputs": [],
			"name": "incrementBy10",
			"outputs": [],
			"stateMutability": "nonpayable",
			"type": "function"
		}
	]
}