{
	"data": {
		"bytecode": {
			"linkReferences": {},
			"object": "6080604052348015600e575f80fd5b50610a2e8061001c5f395ff3fe608060405234801561000f575f80fd5b5060043610610034575f3560e01c806331064b54146100385780636585755914610068575b5f80fd5b610052600480360381019061004d91906104de565b610098565b60405161005f9190610579565b60405180910390f35b610082600480360381019061007d91906104de565b610236565b60405161008f91906105b1565b60405180910390f35b60603073ffffffffffffffffffffffffffffffffffffffff166365857559836040518263ffffffff1660e01b81526004016100d391906105d9565b602060405180830381865afa92505050801561010d57506040513d601f19601f8201168201806040525081019061010a919061061c565b60015b61020557610119610653565b806308c379a003610160575061012d6106d0565b8061013857506101ad565b8060405160200161014991906107e3565b604051602081830303815290604052915050610231565b634e487b71036101ad57610172610804565b9061017d57506101ad565b61018681610281565b604051602001610196919061086c565b604051602081830303815290604052915050610231565b3d805f81146101d7576040519150601f19603f3d011682016040523d82523d5f602084013e6101dc565b606091505b50806040516020016101ee91906108d7565b604051602081830303815290604052915050610231565b61020e81610281565b60405160200161021e9190610942565b6040516020818303038152906040529150505b919050565b5f8115610278576040517f08c379a000000000000000000000000000000000000000000000000000000000815260040161026f906109ad565b60405180910390fd5b602a9050919050565b60605f600161028f8461034b565b0190505f8167ffffffffffffffff8111156102ad576102ac610672565b5b6040519080825280601f01601f1916602001820160405280156102df5781602001600182028036833780820191505090505b5090505f82602001820190505b600115610340578080600190039150507f3031323334353637383961626364656600000000000000000000000000000000600a86061a8153600a8581610335576103346109cb565b5b0494505f85036102ec575b819350505050919050565b5f805f90507a184f03e93ff9f4daa797ed6e38ed64bf6a1f01000000000000000083106103a7577a184f03e93ff9f4daa797ed6e38ed64bf6a1f010000000000000000838161039d5761039c6109cb565b5b0492506040810190505b6d04ee2d6d415b85acef810000000083106103e4576d04ee2d6d415b85acef810000000083816103da576103d96109cb565b5b0492506020810190505b662386f26fc10000831061041357662386f26fc100008381610409576104086109cb565b5b0492506010810190505b6305f5e100831061043c576305f5e1008381610432576104316109cb565b5b0492506008810190505b6127108310610461576127108381610457576104566109cb565b5b0492506004810190505b60648310610484576064838161047a576104796109cb565b5b0492506002810190505b600a8310610493576001810190505b80915050919050565b5f604051905090565b5f80fd5b5f8115159050919050565b6104bd816104a9565b81146104c7575f80fd5b50565b5f813590506104d8816104b4565b92915050565b5f602082840312156104f3576104f26104a5565b5b5f610500848285016104ca565b91505092915050565b5f81519050919050565b5f82825260208201905092915050565b8281835e5f83830152505050565b5f601f19601f8301169050919050565b5f61054b82610509565b6105558185610513565b9350610565818560208601610523565b61056e81610531565b840191505092915050565b5f6020820190508181035f8301526105918184610541565b905092915050565b5f819050919050565b6105ab81610599565b82525050565b5f6020820190506105c45f8301846105a2565b92915050565b6105d3816104a9565b82525050565b5f6020820190506105ec5f8301846105ca565b92915050565b6105fb81610599565b8114610605575f80fd5b50565b5f81519050610616816105f2565b92915050565b5f60208284031215610631576106306104a5565b5b5f61063e84828501610608565b91505092915050565b5f8160e01c9050919050565b5f60033d111561066f5760045f803e61066c5f51610647565b90505b90565b7f4e487b71000000000000000000000000000000000000000000000000000000005f52604160045260245ffd5b6106a882610531565b810181811067ffffffffffffffff821117156106c7576106c6610672565b5b80604052505050565b5f60443d1061075c576106e161049c565b60043d036004823e80513d602482011167ffffffffffffffff8211171561070957505061075c565b808201805167ffffffffffffffff811115610727575050505061075c565b80602083010160043d03850181111561074457505050505061075c565b6107538260200185018661069f565b82955050505050505b90565b5f81905092915050565b7f436175676874204572726f723a200000000000000000000000000000000000005f82015250565b5f61079d600e8361075f565b91506107a882610769565b600e82019050919050565b5f6107bd82610509565b6107c7818561075f565b93506107d7818560208601610523565b80840191505092915050565b5f6107ed82610791565b91506107f982846107b3565b915081905092915050565b5f8060233d111561081e57602060045f3e600191505f5190505b9091565b7f4361756768742050616e69633a200000000000000000000000000000000000005f82015250565b5f610856600e8361075f565b915061086182610822565b600e82019050919050565b5f6108768261084a565b915061088282846107b3565b915081905092915050565b7f43617567687420556e6b6e6f776e204572726f722100000000000000000000005f82015250565b5f6108c160158361075f565b91506108cc8261088d565b601582019050919050565b5f6108e1826108b5565b91506108ed82846107b3565b915081905092915050565b7f4f7065726174696f6e20776173206120737563636573733a20000000000000005f82015250565b5f61092c60198361075f565b9150610937826108f8565b601982019050919050565b5f61094c82610920565b915061095882846107b3565b915081905092915050565b7f54686973206f7065726174696f6e206973207269736b790000000000000000005f82015250565b5f610997601783610513565b91506109a282610963565b602082019050919050565b5f6020820190508181035f8301526109c48161098b565b9050919050565b7f4e487b71000000000000000000000000000000000000000000000000000000005f52601260045260245ffdfea264697066735822122085c3ce9c3a2a17165f6a241eaccb345df5fd29ce42ad34ee90441f0a047bc2a664736f6c634300081a0033",
			"opcodes": "PUSH1 0x80 PUSH1 0x40 MSTORE CALLVALUE DUP1 ISZERO PUSH1 0xE JUMPI PUSH0 DUP1 REVERT JUMPDEST POP PUSH2 0xA2E DUP1 PUSH2 0x1C PUSH0 CODECOPY PUSH0 RETURN INVALID PUSH1 0x80 PUSH1 0x40 MSTORE CALLVALUE DUP1 ISZERO PUSH2 0xF JUMPI PUSH0 DUP1 REVERT JUMPDEST POP PUSH1 0x4 CALLDATASIZE LT PUSH2 0x34 JUMPI PUSH0 CALLDATALOAD PUSH1 0xE0 SHR DUP1 PUSH4 0x31064B54 EQ PUSH2 0x38 JUMPI DUP1 PUSH4 0x65857559 EQ PUSH2 0x68 JUMPI JUMPDEST PUSH0 DUP1 REVERT JUMPDEST PUSH2 0x52 PUSH1 0x4 DUP1 CALLDATASIZE SUB DUP2 ADD SWAP1 PUSH2 0x4D SWAP2 SWAP1 PUSH2 0x4DE JUMP JUMPDEST PUSH2 0x98 JUMP JUMPDEST PUSH1 0x40 MLOAD PUSH2 0x5F SWAP2 SWAP1 PUSH2 0x579 JUMP JUMPDEST PUSH1 0x40 MLOAD DUP1 SWAP2 SUB SWAP1 RETURN JUMPDEST PUSH2 0x82 PUSH1 0x4 DUP1 CALLDATASIZE SUB DUP2 ADD SWAP1 PUSH2 0x7D SWAP2 SWAP1 PUSH2 0x4DE JUMP JUMPDEST PUSH2 0x236 JUMP JUMPDEST PUSH1 0x40 MLOAD PUSH2 0x8F SWAP2 SWAP1 PUSH2 0x5B1 JUMP JUMPDEST PUSH1 0x40 MLOAD DUP1 SWAP2 SUB SWAP1 RETURN JUMPDEST PUSH1 0x60 ADDRESS PUSH20 0xFFFFFFFFFFFFFFFFFFFFFFFFFFFFFFFFFFFFFFFF AND PUSH4 0x65857559 DUP4 PUSH1 0x40 MLOAD DUP3 PUSH4 0xFFFFFFFF AND PUSH1 0xE0 SHL DUP2 MSTORE PUSH1 0x4 ADD PUSH2 0xD3 SWAP2 SWAP1 PUSH2 0x5D9 JUMP JUMPDEST PUSH1 0x20 PUSH1 0x40 MLOAD DUP1 DUP4 SUB DUP2 DUP7 GAS STATICCALL SWAP3 POP POP POP DUP1 ISZERO PUSH2 0x10D JUMPI POP PUSH1 0x40 MLOAD RETURNDATASIZE PUSH1 0x1F NOT PUSH1 0x1F DUP3 ADD AND DUP3 ADD DUP1 PUSH1 0x40 MSTORE POP DUP2 ADD SWAP1 PUSH2 0x10A SWAP2 SWAP1 PUSH2 0x61C JUMP JUMPDEST PUSH1 0x1 JUMPDEST PUSH2 0x205 JUMPI PUSH2 0x119 PUSH2 0x653 JUMP JUMPDEST DUP1 PUSH4 0x8C379A0 SUB PUSH2 0x160 JUMPI POP PUSH2 0x12D PUSH2 0x6D0 JUMP JUMPDEST DUP1 PUSH2 0x138 JUMPI POP PUSH2 0x1AD JUMP JUMPDEST DUP1 PUSH1 0x40 MLOAD PUSH1 0x20 ADD PUSH2 0x149 SWAP2 SWAP1 PUSH2 0x7E3 JUMP JUMPDEST PUSH1 0x40 MLOAD PUSH1 0x20 DUP2 DUP4 SUB SUB DUP2 MSTORE SWAP1 PUSH1 0x40 MSTORE SWAP2 POP POP PUSH2 0x231 JUMP JUMPDEST PUSH4 0x4E487B71 SUB PUSH2 0x1AD JUMPI PUSH2 0x172 PUSH2 0x804 JUMP JUMPDEST SWAP1 PUSH2 0x17D JUMPI POP PUSH2 0x1AD JUMP JUMPDEST PUSH2 0x186 DUP2 PUSH2 0x281 JUMP JUMPDEST PUSH1 0x40 MLOAD PUSH1 0x20 ADD PUSH2 0x196 SWAP2 SWAP1 PUSH2 0x86C JUMP JUMPDEST PUSH1 0x40 MLOAD PUSH1 0x20 DUP2 DUP4 SUB SUB DUP2 MSTORE SWAP1 PUSH1 0x40 MSTORE SWAP2 POP POP PUSH2 0x231 JUMP JUMPDEST RETURNDATASIZE DUP1 PUSH0 DUP2 EQ PUSH2 0x1D7 JUMPI PUSH1 0x40 MLOAD SWAP2 POP PUSH1 0x1F NOT PUSH1 0x3F RETURNDATASIZE ADD AND DUP3 ADD PUSH1 0x40 MSTORE RETURNDATASIZE DUP3 MSTORE RETURNDATASIZE PUSH0 PUSH1 0x20 DUP5 ADD RETURNDATACOPY PUSH2 0x1DC JUMP JUMPDEST PUSH1 0x60 SWAP2 POP JUMPDEST POP DUP1 PUSH1 0x40 MLOAD PUSH1 0x20 ADD PUSH2 0x1EE SWAP2 SWAP1 PUSH2 0x8D7 JUMP JUMPDEST PUSH1 0x40 MLOAD PUSH1 0x20 DUP2 DUP4 SUB SUB DUP2 MSTORE SWAP1 PUSH1 0x40 MSTORE SWAP2 POP POP PUSH2 0x231 JUMP JUMPDEST PUSH2 0x20E DUP2 PUSH2 0x281 JUMP JUMPDEST PUSH1 0x40 MLOAD PUSH1 0x20 ADD PUSH2 0x21E SWAP2 SWAP1 PUSH2 0x942 JUMP JUMPDEST PUSH1 0x40 MLOAD PUSH1 0x20 DUP2 DUP4 SUB SUB DUP2 MSTORE SWAP1 PUSH1 0x40 MSTORE SWAP2 POP POP JUMPDEST SWAP2 SWAP1 POP JUMP JUMPDEST PUSH0 DUP2 ISZERO PUSH2 0x278 JUMPI PUSH1 0x40 MLOAD PUSH32 0x8C379A000000000000000000000000000000000000000000000000000000000 DUP2 MSTORE PUSH1 0x4 ADD PUSH2 0x26F SWAP1 PUSH2 0x9AD JUMP JUMPDEST PUSH1 0x40 MLOAD DUP1 SWAP2 SUB SWAP1 REVERT JUMPDEST PUSH1 0x2A SWAP1 POP SWAP2 SWAP1 POP JUMP JUMPDEST PUSH1 0x60 PUSH0 PUSH1 0x1 PUSH2 0x28F DUP5 PUSH2 0x34B JUMP JUMPDEST ADD SWAP1 POP PUSH0 DUP2 PUSH8 0xFFFFFFFFFFFFFFFF DUP2 GT ISZERO PUSH2 0x2AD JUMPI PUSH2 0x2AC PUSH2 0x672 JUMP JUMPDEST JUMPDEST PUSH1 0x40 MLOAD SWAP1 DUP1 DUP3 MSTORE DUP1 PUSH1 0x1F ADD PUSH1 0x1F NOT AND PUSH1 0x20 ADD DUP3 ADD PUSH1 0x40 MSTORE DUP1 ISZERO PUSH2 0x2DF JUMPI DUP2 PUSH1 0x20 ADD PUSH1 0x1 DUP3 MUL DUP1 CALLDATASIZE DUP4 CALLDATACOPY DUP1 DUP3 ADD SWAP2 POP POP SWAP1 POP JUMPDEST POP SWAP1 POP PUSH0 DUP3 PUSH1 0x20 ADD DUP3 ADD SWAP1 POP JUMPDEST PUSH1 0x1 ISZERO PUSH2 0x340 JUMPI DUP1 DUP1 PUSH1 0x1 SWAP1 SUB SWAP2 POP POP PUSH32 0x3031323334353637383961626364656600000000000000000000000000000000 PUSH1 0xA DUP7 MOD BYTE DUP2 MSTORE8 PUSH1 0xA DUP6 DUP2 PUSH2 0x335 JUMPI PUSH2 0x334 PUSH2 0x9CB JUMP JUMPDEST JUMPDEST DIV SWAP5 POP PUSH0 DUP6 SUB PUSH2 0x2EC JUMPI JUMPDEST DUP2 SWAP4 POP POP POP POP SWAP2 SWAP1 POP JUMP JUMPDEST PUSH0 DUP1 PUSH0 SWAP1 POP PUSH27 0x184F03E93FF9F4DAA797ED6E38ED64BF6A1F010000000000000000 DUP4 LT PUSH2 0x3A7 JUMPI PUSH27 0x184F03E93FF9F4DAA797ED6E38ED64BF6A1F010000000000000000 DUP4 DUP2 PUSH2 0x39D JUMPI PUSH2 0x39C PUSH2 0x9CB JUMP JUMPDEST JUMPDEST DIV SWAP3 POP PUSH1 0x40 DUP2 ADD SWAP1 POP JUMPDEST PUSH14 0x4EE2D6D415B85ACEF8100000000 DUP4 LT PUSH2 0x3E4 JUMPI PUSH14 0x4EE2D6D415B85ACEF8100000000 DUP4 DUP2 PUSH2 0x3DA JUMPI PUSH2 0x3D9 PUSH2 0x9CB JUMP JUMPDEST JUMPDEST DIV SWAP3 POP PUSH1 0x20 DUP2 ADD SWAP1 POP JUMPDEST PUSH7 0x2386F26FC10000 DUP4 LT PUSH2 0x413 JUMPI PUSH7 0x2386F26FC10000 DUP4 DUP2 PUSH2 0x409 JUMPI PUSH2 0x408 PUSH2 0x9CB JUMP JUMPDEST JUMPDEST DIV SWAP3 POP PUSH1 0x10 DUP2 ADD SWAP1 POP JUMPDEST PUSH4 0x5F5E100 DUP4 LT PUSH2 0x43C JUMPI PUSH4 0x5F5E100 DUP4 DUP2 PUSH2 0x432 JUMPI PUSH2 0x431 PUSH2 0x9CB JUMP JUMPDEST JUMPDEST DIV SWAP3 POP PUSH1 0x8 DUP2 ADD SWAP1 POP JUMPDEST PUSH2 0x2710 DUP4 LT PUSH2 0x461 JUMPI PUSH2 0x2710 DUP4 DUP2 PUSH2 0x457 JUMPI PUSH2 0x456 PUSH2 0x9CB JUMP JUMPDEST JUMPDEST DIV SWAP3 POP PUSH1 0x4 DUP2 ADD SWAP1 POP JUMPDEST PUSH1 0x64 DUP4 LT PUSH2 0x484 JUMPI PUSH1 0x64 DUP4 DUP2 PUSH2 0x47A JUMPI PUSH2 0x479 PUSH2 0x9CB JUMP JUMPDEST JUMPDEST DIV SWAP3 POP PUSH1 0x2 DUP2 ADD SWAP1 POP JUMPDEST PUSH1 0xA DUP4 LT PUSH2 0x493 JUMPI PUSH1 0x1 DUP2 ADD SWAP1 POP JUMPDEST DUP1 SWAP2 POP POP SWAP2 SWAP1 POP JUMP JUMPDEST PUSH0 PUSH1 0x40 MLOAD SWAP1 POP SWAP1 JUMP JUMPDEST PUSH0 DUP1 REVERT JUMPDEST PUSH0 DUP2 ISZERO ISZERO SWAP1 POP SWAP2 SWAP1 POP JUMP JUMPDEST PUSH2 0x4BD DUP2 PUSH2 0x4A9 JUMP JUMPDEST DUP2 EQ PUSH2 0x4C7 JUMPI PUSH0 DUP1 REVERT JUMPDEST POP JUMP JUMPDEST PUSH0 DUP2 CALLDATALOAD SWAP1 POP PUSH2 0x4D8 DUP2 PUSH2 0x4B4 JUMP JUMPDEST SWAP3 SWAP2 POP POP JUMP JUMPDEST PUSH0 PUSH1 0x20 DUP3 DUP5 SUB SLT ISZERO PUSH2 0x4F3 JUMPI PUSH2 0x4F2 PUSH2 0x4A5 JUMP JUMPDEST JUMPDEST PUSH0 PUSH2 0x500 DUP5 DUP3 DUP6 ADD PUSH2 0x4CA JUMP JUMPDEST SWAP2 POP POP SWAP3 SWAP2 POP POP JUMP JUMPDEST PUSH0 DUP2 MLOAD SWAP1 POP SWAP2 SWAP1 POP JUMP JUMPDEST PUSH0 DUP3 DUP3 MSTORE PUSH1 0x20 DUP3 ADD SWAP1 POP SWAP3 SWAP2 POP POP JUMP JUMPDEST DUP3 DUP2 DUP4 MCOPY PUSH0 DUP4 DUP4 ADD MSTORE POP POP POP JUMP JUMPDEST PUSH0 PUSH1 0x1F NOT PUSH1 0x1F DUP4 ADD AND SWAP1 POP SWAP2 SWAP1 POP JUMP JUMPDEST PUSH0 PUSH2 0x54B DUP3 PUSH2 0x509 JUMP JUMPDEST PUSH2 0x555 DUP2 DUP6 PUSH2 0x513 JUMP JUMPDEST SWAP4 POP PUSH2 0x565 DUP2 DUP6 PUSH1 0x20 DUP7 ADD PUSH2 0x523 JUMP JUMPDEST PUSH2 0x56E DUP2 PUSH2 0x531 JUMP JUMPDEST DUP5 ADD SWAP2 POP POP SWAP3 SWAP2 POP POP JUMP JUMPDEST PUSH0 PUSH1 0x20 DUP3 ADD SWAP1 POP DUP2 DUP2 SUB PUSH0 DUP4 ADD MSTORE PUSH2 0x591 DUP2 DUP5 PUSH2 0x541 JUMP JUMPDEST SWAP1 POP SWAP3 SWAP2 POP POP JUMP JUMPDEST PUSH0 DUP2 SWAP1 POP SWAP2 SWAP1 POP JUMP JUMPDEST PUSH2 0x5AB DUP2 PUSH2 0x599 JUMP JUMPDEST DUP3 MSTORE POP POP JUMP JUMPDEST PUSH0 PUSH1 0x20 DUP3 ADD SWAP1 POP PUSH2 0x5C4 PUSH0 DUP4 ADD DUP5 PUSH2 0x5A2 JUMP JUMPDEST SWAP3 SWAP2 POP POP JUMP JUMPDEST PUSH2 0x5D3 DUP2 PUSH2 0x4A9 JUMP JUMPDEST DUP3 MSTORE POP POP JUMP JUMPDEST PUSH0 PUSH1 0x20 DUP3 ADD SWAP1 POP PUSH2 0x5EC PUSH0 DUP4 ADD DUP5 PUSH2 0x5CA JUMP JUMPDEST SWAP3 SWAP2 POP POP JUMP JUMPDEST PUSH2 0x5FB DUP2 PUSH2 0x599 JUMP JUMPDEST DUP2 EQ PUSH2 0x605 JUMPI PUSH0 DUP1 REVERT JUMPDEST POP JUMP JUMPDEST PUSH0 DUP2 MLOAD SWAP1 POP PUSH2 0x616 DUP2 PUSH2 0x5F2 JUMP JUMPDEST SWAP3 SWAP2 POP POP JUMP JUMPDEST PUSH0 PUSH1 0x20 DUP3 DUP5 SUB SLT ISZERO PUSH2 0x631 JUMPI PUSH2 0x630 PUSH2 0x4A5 JUMP JUMPDEST JUMPDEST PUSH0 PUSH2 0x63E DUP5 DUP3 DUP6 ADD PUSH2 0x608 JUMP JUMPDEST SWAP2 POP POP SWAP3 SWAP2 POP POP JUMP JUMPDEST PUSH0 DUP2 PUSH1 0xE0 SHR SWAP1 POP SWAP2 SWAP1 POP JUMP JUMPDEST PUSH0 PUSH1 0x3 RETURNDATASIZE GT ISZERO PUSH2 0x66F JUMPI PUSH1 0x4 PUSH0 DUP1 RETURNDATACOPY PUSH2 0x66C PUSH0 MLOAD PUSH2 0x647 JUMP JUMPDEST SWAP1 POP JUMPDEST SWAP1 JUMP JUMPDEST PUSH32 0x4E487B7100000000000000000000000000000000000000000000000000000000 PUSH0 MSTORE PUSH1 0x41 PUSH1 0x4 MSTORE PUSH1 0x24 PUSH0 REVERT JUMPDEST PUSH2 0x6A8 DUP3 PUSH2 0x531 JUMP JUMPDEST DUP2 ADD DUP2 DUP2 LT PUSH8 0xFFFFFFFFFFFFFFFF DUP3 GT OR ISZERO PUSH2 0x6C7 JUMPI PUSH2 0x6C6 PUSH2 0x672 JUMP JUMPDEST JUMPDEST DUP1 PUSH1 0x40 MSTORE POP POP POP JUMP JUMPDEST PUSH0 PUSH1 0x44 RETURNDATASIZE LT PUSH2 0x75C JUMPI PUSH2 0x6E1 PUSH2 0x49C JUMP JUMPDEST PUSH1 0x4 RETURNDATASIZE SUB PUSH1 0x4 DUP3 RETURNDATACOPY DUP1 MLOAD RETURNDATASIZE PUSH1 0x24 DUP3 ADD GT PUSH8 0xFFFFFFFFFFFFFFFF DUP3 GT OR ISZERO PUSH2 0x709 JUMPI POP POP PUSH2 0x75C JUMP JUMPDEST DUP1 DUP3 ADD DUP1 MLOAD PUSH8 0xFFFFFFFFFFFFFFFF DUP2 GT ISZERO PUSH2 0x727 JUMPI POP POP POP POP PUSH2 0x75C JUMP JUMPDEST DUP1 PUSH1 0x20 DUP4 ADD ADD PUSH1 0x4 RETURNDATASIZE SUB DUP6 ADD DUP2 GT ISZERO PUSH2 0x744 JUMPI POP POP POP POP POP PUSH2 0x75C JUMP JUMPDEST PUSH2 0x753 DUP3 PUSH1 0x20 ADD DUP6 ADD DUP7 PUSH2 0x69F JUMP JUMPDEST DUP3 SWAP6 POP POP POP POP POP POP JUMPDEST SWAP1 JUMP JUMPDEST PUSH0 DUP2 SWAP1 POP SWAP3 SWAP2 POP POP JUMP JUMPDEST PUSH32 0x436175676874204572726F723A20000000000000000000000000000000000000 PUSH0 DUP3 ADD MSTORE POP JUMP JUMPDEST PUSH0 PUSH2 0x79D PUSH1 0xE DUP4 PUSH2 0x75F JUMP JUMPDEST SWAP2 POP PUSH2 0x7A8 DUP3 PUSH2 0x769 JUMP JUMPDEST PUSH1 0xE DUP3 ADD SWAP1 POP SWAP2 SWAP1 POP JUMP JUMPDEST PUSH0 PUSH2 0x7BD DUP3 PUSH2 0x509 JUMP JUMPDEST PUSH2 0x7C7 DUP2 DUP6 PUSH2 0x75F JUMP JUMPDEST SWAP4 POP PUSH2 0x7D7 DUP2 DUP6 PUSH1 0x20 DUP7 ADD PUSH2 0x523 JUMP JUMPDEST DUP1 DUP5 ADD SWAP2 POP POP SWAP3 SWAP2 POP POP JUMP JUMPDEST PUSH0 PUSH2 0x7ED DUP3 PUSH2 0x791 JUMP JUMPDEST SWAP2 POP PUSH2 0x7F9 DUP3 DUP5 PUSH2 0x7B3 JUMP JUMPDEST SWAP2 POP DUP2 SWAP1 POP SWAP3 SWAP2 POP POP JUMP JUMPDEST PUSH0 DUP1 PUSH1 0x23 RETURNDATASIZE GT ISZERO PUSH2 0x81E JUMPI PUSH1 0x20 PUSH1 0x4 PUSH0 RETURNDATACOPY PUSH1 0x1 SWAP2 POP PUSH0 MLOAD SWAP1 POP JUMPDEST SWAP1 SWAP2 JUMP JUMPDEST PUSH32 0x4361756768742050616E69633A20000000000000000000000000000000000000 PUSH0 DUP3 ADD MSTORE POP JUMP JUMPDEST PUSH0 PUSH2 0x856 PUSH1 0xE DUP4 PUSH2 0x75F JUMP JUMPDEST SWAP2 POP PUSH2 0x861 DUP3 PUSH2 0x822 JUMP JUMPDEST PUSH1 0xE DUP3 ADD SWAP1 POP SWAP2 SWAP1 POP JUMP JUMPDEST PUSH0 PUSH2 0x876 DUP3 PUSH2 0x84A JUMP JUMPDEST SWAP2 POP PUSH2 0x882 DUP3 DUP5 PUSH2 0x7B3 JUMP JUMPDEST SWAP2 POP DUP2 SWAP1 POP SWAP3 SWAP2 POP POP JUMP JUMPDEST PUSH32 0x43617567687420556E6B6E6F776E204572726F72210000000000000000000000 PUSH0 DUP3 ADD MSTORE POP JUMP JUMPDEST PUSH0 PUSH2 0x8C1 PUSH1 0x15 DUP4 PUSH2 0x75F JUMP JUMPDEST SWAP2 POP PUSH2 0x8CC DUP3 PUSH2 0x88D JUMP JUMPDEST PUSH1 0x15 DUP3 ADD SWAP1 POP SWAP2 SWAP1 POP JUMP JUMPDEST PUSH0 PUSH2 0x8E1 DUP3 PUSH2 0x8B5 JUMP JUMPDEST SWAP2 POP PUSH2 0x8ED DUP3 DUP5 PUSH2 0x7B3 JUMP JUMPDEST SWAP2 POP DUP2 SWAP1 POP SWAP3 SWAP2 POP POP JUMP JUMPDEST PUSH32 0x4F7065726174696F6E20776173206120737563636573733A2000000000000000 PUSH0 DUP3 ADD MSTORE POP JUMP JUMPDEST PUSH0 PUSH2 0x92C PUSH1 0x19 DUP4 PUSH2 0x75F JUMP JUMPDEST SWAP2 POP PUSH2 0x937 DUP3 PUSH2 0x8F8 JUMP JUMPDEST PUSH1 0x19 DUP3 ADD SWAP1 POP SWAP2 SWAP1 POP JUMP JUMPDEST PUSH0 PUSH2 0x94C DUP3 PUSH2 0x920 JUMP JUMPDEST SWAP2 POP PUSH2 0x958 DUP3 DUP5 PUSH2 0x7B3 JUMP JUMPDEST SWAP2 POP DUP2 SWAP1 POP SWAP3 SWAP2 POP POP JUMP JUMPDEST PUSH32 0x54686973206F7065726174696F6E206973207269736B79000000000000000000 PUSH0 DUP3 ADD MSTORE POP JUMP JUMPDEST PUSH0 PUSH2 0x997 PUSH1 0x17 DUP4 PUSH2 0x513 JUMP JUMPDEST SWAP2 POP PUSH2 0x9A2 DUP3 PUSH2 0x963 JUMP JUMPDEST PUSH1 0x20 DUP3 ADD SWAP1 POP SWAP2 SWAP1 POP JUMP JUMPDEST PUSH0 PUSH1 0x20 DUP3 ADD SWAP1 POP DUP2 DUP2 SUB PUSH0 DUP4 ADD MSTORE PUSH2 0x9C4 DUP2 PUSH2 0x98B JUMP JUMPDEST SWAP1 POP SWAP2 SWAP1 POP JUMP JUMPDEST PUSH32 0x4E487B7100000000000000000000000000000000000000000000000000000000 PUSH0 MSTORE PUSH1 0x12 PUSH1 0x4 MSTORE PUSH1 0x24 PUSH0 REVERT INVALID LOG2 PUSH5 0x6970667358 0x22 SLT KECCAK256 DUP6 0xC3 0xCE SWAP13 GASPRICE 0x2A OR AND PUSH0 PUSH11 0x241EACCB345DF5FD29CE42 0xAD CALLVALUE 0xEE SWAP1 PREVRANDAO 0x1F EXP DIV PUSH28 0xC2A664736F6C634300081A0033000000000000000000000000000000 "
		},
		"gasEstimates": {
			"creation": {
				"codeDepositCost": "521200",
				"executionCost": "554",
				"totalCost": "521754"
			},
			"external": {
				"demo(bool)": "infinite",
				"riskyOperation(bool)": "711"
			}
		},
		"methodIdentifiers": {
			"demo(bool)": "31064b54",
			"riskyOperation(bool)": "65857559"
		}
	},
	"abi": [
		{
			"inputs": [
				{
					"internalType": "bool",
					"name": "triggerError",
					"type": "bool"
				}
			],
			"name": "demo",
			"outputs": [
				{
					"internalType": "string",
					"name": "",
					"type": "string"
				}
			],
			"stateMutability": "view",
			"type": "function"
		},
		{
			"inputs": [
				{
					"internalType": "bool",
					"name": "shouldfail",
					"type": "bool"
				}
			],
			"name": "riskyOperation",
			"outputs": [
				{
					"internalType": "uint256",
					"name": "",
					"type": "uint256"
				}
			],
			"stateMutability": "pure",
			"type": "function"
		}
	]
}