{
	"contracts/BookStore.sol": {
		"BookStore": {
			"abi": [
				{
					"inputs": [],
					"stateMutability": "nonpayable",
					"type": "constructor"
				},
				{
					"inputs": [
						{
							"internalType": "address",
							"name": "owner",
							"type": "address"
						}
					],
					"name": "OwnableInvalidOwner",
					"type": "error"
				},
				{
					"inputs": [
						{
							"internalType": "address",
							"name": "account",
							"type": "address"
						}
					],
					"name": "OwnableUnauthorizedAccount",
					"type": "error"
				},
				{
					"anonymous": false,
					"inputs": [
						{
							"indexed": true,
							"internalType": "uint256",
							"name": "bookId",
							"type": "uint256"
						},
						{
							"indexed": false,
							"internalType": "string",
							"name": "title",
							"type": "string"
						},
						{
							"indexed": false,
							"internalType": "string",
							"name": "author",
							"type": "string"
						},
						{
							"indexed": false,
							"internalType": "uint96",
							"name": "price",
							"type": "uint96"
						},
						{
							"indexed": false,
							"internalType": "uint96",
							"name": "stock",
							"type": "uint96"
						}
					],
					"name": "BookAdded",
					"type": "event"
				},
				{
					"anonymous": false,
					"inputs": [
						{
							"indexed": false,
							"internalType": "uint256[]",
							"name": "bookIds",
							"type": "uint256[]"
						}
					],
					"name": "BookBatchRemoved",
					"type": "event"
				},
				{
					"anonymous": false,
					"inputs": [
						{
							"indexed": true,
							"internalType": "uint256",
							"name": "bookId",
							"type": "uint256"
						},
						{
							"indexed": true,
							"internalType": "address",
							"name": "buyer",
							"type": "address"
						},
						{
							"indexed": false,
							"internalType": "uint96",
							"name": "quantity",
							"type": "uint96"
						}
					],
					"name": "BookPurchased",
					"type": "event"
				},
				{
					"anonymous": false,
					"inputs": [
						{
							"indexed": true,
							"internalType": "uint256",
							"name": "bookId",
							"type": "uint256"
						}
					],
					"name": "BookRemoved",
					"type": "event"
				},
				{
					"anonymous": false,
					"inputs": [
						{
							"indexed": true,
							"internalType": "address",
							"name": "previousOwner",
							"type": "address"
						},
						{
							"indexed": true,
							"internalType": "address",
							"name": "newOwner",
							"type": "address"
						}
					],
					"name": "OwnershipTransferred",
					"type": "event"
				},
				{
					"anonymous": false,
					"inputs": [
						{
							"indexed": true,
							"internalType": "address",
							"name": "subscriber",
							"type": "address"
						}
					],
					"name": "SubscriptionAdded",
					"type": "event"
				},
				{
					"anonymous": false,
					"inputs": [
						{
							"indexed": true,
							"internalType": "address",
							"name": "subscriber",
							"type": "address"
						}
					],
					"name": "SubscriptionRemoved",
					"type": "event"
				},
				{
					"inputs": [
						{
							"internalType": "address",
							"name": "_customer",
							"type": "address"
						}
					],
					"name": "Subscribe",
					"outputs": [],
					"stateMutability": "nonpayable",
					"type": "function"
				},
				{
					"inputs": [
						{
							"internalType": "address",
							"name": "_customer",
							"type": "address"
						}
					],
					"name": "Unsubcribe",
					"outputs": [],
					"stateMutability": "nonpayable",
					"type": "function"
				},
				{
					"inputs": [
						{
							"internalType": "uint256",
							"name": "_bookId",
							"type": "uint256"
						},
						{
							"internalType": "string",
							"name": "_title",
							"type": "string"
						},
						{
							"internalType": "string",
							"name": "_author",
							"type": "string"
						},
						{
							"internalType": "uint96",
							"name": "_stock",
							"type": "uint96"
						},
						{
							"internalType": "uint96",
							"name": "_price",
							"type": "uint96"
						}
					],
					"name": "addBook",
					"outputs": [],
					"stateMutability": "nonpayable",
					"type": "function"
				},
				{
					"inputs": [
						{
							"internalType": "uint256",
							"name": "",
							"type": "uint256"
						}
					],
					"name": "books",
					"outputs": [
						{
							"internalType": "uint96",
							"name": "stock",
							"type": "uint96"
						},
						{
							"internalType": "uint96",
							"name": "price",
							"type": "uint96"
						},
						{
							"internalType": "bool",
							"name": "isAvailable",
							"type": "bool"
						},
						{
							"internalType": "string",
							"name": "title",
							"type": "string"
						},
						{
							"internalType": "string",
							"name": "author",
							"type": "string"
						}
					],
					"stateMutability": "view",
					"type": "function"
				},
				{
					"inputs": [
						{
							"internalType": "uint256",
							"name": "_bookId",
							"type": "uint256"
						},
						{
							"internalType": "uint96",
							"name": "_quantity",
							"type": "uint96"
						}
					],
					"name": "buyBook",
					"outputs": [],
					"stateMutability": "payable",
					"type": "function"
				},
				{
					"inputs": [
						{
							"internalType": "address",
							"name": "_customer",
							"type": "address"
						}
					],
					"name": "checkIfSubscribed",
					"outputs": [
						{
							"internalType": "bool",
							"name": "",
							"type": "bool"
						}
					],
					"stateMutability": "view",
					"type": "function"
				},
				{
					"inputs": [],
					"name": "getAllBooks",
					"outputs": [
						{
							"internalType": "string[]",
							"name": "",
							"type": "string[]"
						}
					],
					"stateMutability": "view",
					"type": "function"
				},
				{
					"inputs": [
						{
							"internalType": "uint256",
							"name": "_bookId",
							"type": "uint256"
						}
					],
					"name": "getBooks",
					"outputs": [
						{
							"internalType": "string",
							"name": "title",
							"type": "string"
						},
						{
							"internalType": "string",
							"name": "author",
							"type": "string"
						},
						{
							"internalType": "uint96",
							"name": "price",
							"type": "uint96"
						},
						{
							"internalType": "uint96",
							"name": "stock",
							"type": "uint96"
						},
						{
							"internalType": "bool",
							"name": "isAvailable",
							"type": "bool"
						}
					],
					"stateMutability": "view",
					"type": "function"
				},
				{
					"inputs": [],
					"name": "getOwnerBalance",
					"outputs": [
						{
							"internalType": "uint256",
							"name": "",
							"type": "uint256"
						}
					],
					"stateMutability": "view",
					"type": "function"
				},
				{
					"inputs": [],
					"name": "getTotalBooksSold",
					"outputs": [
						{
							"internalType": "uint96",
							"name": "",
							"type": "uint96"
						}
					],
					"stateMutability": "view",
					"type": "function"
				},
				{
					"inputs": [],
					"name": "owner",
					"outputs": [
						{
							"internalType": "address",
							"name": "",
							"type": "address"
						}
					],
					"stateMutability": "view",
					"type": "function"
				},
				{
					"inputs": [
						{
							"internalType": "uint256",
							"name": "_bookId",
							"type": "uint256"
						}
					],
					"name": "removeBook",
					"outputs": [],
					"stateMutability": "nonpayable",
					"type": "function"
				},
				{
					"inputs": [
						{
							"internalType": "uint256[]",
							"name": "_bookIds",
							"type": "uint256[]"
						}
					],
					"name": "removeBooks",
					"outputs": [],
					"stateMutability": "nonpayable",
					"type": "function"
				},
				{
					"inputs": [],
					"name": "renounceOwnership",
					"outputs": [],
					"stateMutability": "nonpayable",
					"type": "function"
				},
				{
					"inputs": [
						{
							"internalType": "address",
							"name": "",
							"type": "address"
						}
					],
					"name": "subscribers",
					"outputs": [
						{
							"internalType": "bool",
							"name": "",
							"type": "bool"
						}
					],
					"stateMutability": "view",
					"type": "function"
				},
				{
					"inputs": [
						{
							"internalType": "address",
							"name": "newOwner",
							"type": "address"
						}
					],
					"name": "transferOwnership",
					"outputs": [],
					"stateMutability": "nonpayable",
					"type": "function"
				}
			],
			"devdoc": {
				"errors": {
					"OwnableInvalidOwner(address)": [
						{
							"details": "The owner is not a valid owner account. (eg. `address(0)`)"
						}
					],
					"OwnableUnauthorizedAccount(address)": [
						{
							"details": "The caller account is not authorized to perform an operation."
						}
					]
				},
				"kind": "dev",
				"methods": {
					"owner()": {
						"details": "Returns the address of the current owner."
					},
					"renounceOwnership()": {
						"details": "Leaves the contract without owner. It will not be possible to call `onlyOwner` functions. Can only be called by the current owner. NOTE: Renouncing ownership will leave the contract without an owner, thereby disabling any functionality that is only available to the owner."
					},
					"transferOwnership(address)": {
						"details": "Transfers ownership of the contract to a new account (`newOwner`). Can only be called by the current owner."
					}
				},
				"version": 1
			},
			"evm": {
				"assembly": "    /* \"contracts/BookStore.sol\":117:5094  contract BookStore is Ownable {... */\n  mstore(0x40, 0x80)\n    /* \"contracts/BookStore.sol\":925:961  constructor() Ownable(msg.sender) {} */\n  callvalue\n  dup1\n  iszero\n  tag_1\n  jumpi\n  0x00\n  dup1\n  revert\ntag_1:\n  pop\n    /* \"contracts/BookStore.sol\":947:957  msg.sender */\n  caller\n    /* \"@openzeppelin/contracts/access/Ownable.sol\":1297:1298  0 */\n  0x00\n    /* \"@openzeppelin/contracts/access/Ownable.sol\":1273:1299  initialOwner == address(0) */\n  0xffffffffffffffffffffffffffffffffffffffff\n  and\n    /* \"@openzeppelin/contracts/access/Ownable.sol\":1273:1285  initialOwner */\n  dup2\n    /* \"@openzeppelin/contracts/access/Ownable.sol\":1273:1299  initialOwner == address(0) */\n  0xffffffffffffffffffffffffffffffffffffffff\n  and\n  sub\n    /* \"@openzeppelin/contracts/access/Ownable.sol\":1269:1364  if (initialOwner == address(0)) {... */\n  tag_5\n  jumpi\n    /* \"@openzeppelin/contracts/access/Ownable.sol\":1350:1351  0 */\n  0x00\n    /* \"@openzeppelin/contracts/access/Ownable.sol\":1322:1353  OwnableInvalidOwner(address(0)) */\n  mload(0x40)\n  0x1e4fbdf700000000000000000000000000000000000000000000000000000000\n  dup2\n  mstore\n  0x04\n  add\n  tag_6\n  swap2\n  swap1\n  tag_7\n  jump\t// in\ntag_6:\n  mload(0x40)\n  dup1\n  swap2\n  sub\n  swap1\n  revert\n    /* \"@openzeppelin/contracts/access/Ownable.sol\":1269:1364  if (initialOwner == address(0)) {... */\ntag_5:\n    /* \"@openzeppelin/contracts/access/Ownable.sol\":1373:1405  _transferOwnership(initialOwner) */\n  tag_8\n    /* \"@openzeppelin/contracts/access/Ownable.sol\":1392:1404  initialOwner */\n  dup2\n    /* \"@openzeppelin/contracts/access/Ownable.sol\":1373:1391  _transferOwnership */\n  shl(0x20, tag_9)\n    /* \"@openzeppelin/contracts/access/Ownable.sol\":1373:1405  _transferOwnership(initialOwner) */\n  0x20\n  shr\n  jump\t// in\ntag_8:\n    /* \"@openzeppelin/contracts/access/Ownable.sol\":1225:1412  constructor(address initialOwner) {... */\n  pop\n    /* \"contracts/BookStore.sol\":117:5094  contract BookStore is Ownable {... */\n  jump(tag_11)\n    /* \"@openzeppelin/contracts/access/Ownable.sol\":2912:3099  function _transferOwnership(address newOwner) internal virtual {... */\ntag_9:\n    /* \"@openzeppelin/contracts/access/Ownable.sol\":2985:3001  address oldOwner */\n  0x00\n    /* \"@openzeppelin/contracts/access/Ownable.sol\":3004:3010  _owner */\n  dup1\n  0x00\n  swap1\n  sload\n  swap1\n  0x0100\n  exp\n  swap1\n  div\n  0xffffffffffffffffffffffffffffffffffffffff\n  and\n    /* \"@openzeppelin/contracts/access/Ownable.sol\":2985:3010  address oldOwner = _owner */\n  swap1\n  pop\n    /* \"@openzeppelin/contracts/access/Ownable.sol\":3029:3037  newOwner */\n  dup2\n    /* \"@openzeppelin/contracts/access/Ownable.sol\":3020:3026  _owner */\n  0x00\n  dup1\n    /* \"@openzeppelin/contracts/access/Ownable.sol\":3020:3037  _owner = newOwner */\n  0x0100\n  exp\n  dup2\n  sload\n  dup2\n  0xffffffffffffffffffffffffffffffffffffffff\n  mul\n  not\n  and\n  swap1\n  dup4\n  0xffffffffffffffffffffffffffffffffffffffff\n  and\n  mul\n  or\n  swap1\n  sstore\n  pop\n    /* \"@openzeppelin/contracts/access/Ownable.sol\":3083:3091  newOwner */\n  dup2\n    /* \"@openzeppelin/contracts/access/Ownable.sol\":3052:3092  OwnershipTransferred(oldOwner, newOwner) */\n  0xffffffffffffffffffffffffffffffffffffffff\n  and\n    /* \"@openzeppelin/contracts/access/Ownable.sol\":3073:3081  oldOwner */\n  dup2\n    /* \"@openzeppelin/contracts/access/Ownable.sol\":3052:3092  OwnershipTransferred(oldOwner, newOwner) */\n  0xffffffffffffffffffffffffffffffffffffffff\n  and\n  0x8be0079c531659141344cd1fd0a4f28419497f9722a3daafe3b4186f6b6457e0\n  mload(0x40)\n  mload(0x40)\n  dup1\n  swap2\n  sub\n  swap1\n  log3\n    /* \"@openzeppelin/contracts/access/Ownable.sol\":2975:3099  {... */\n  pop\n    /* \"@openzeppelin/contracts/access/Ownable.sol\":2912:3099  function _transferOwnership(address newOwner) internal virtual {... */\n  pop\n  jump\t// out\n    /* \"#utility.yul\":7:133   */\ntag_13:\n    /* \"#utility.yul\":44:51   */\n  0x00\n    /* \"#utility.yul\":84:126   */\n  0xffffffffffffffffffffffffffffffffffffffff\n    /* \"#utility.yul\":77:82   */\n  dup3\n    /* \"#utility.yul\":73:127   */\n  and\n    /* \"#utility.yul\":62:127   */\n  swap1\n  pop\n    /* \"#utility.yul\":7:133   */\n  swap2\n  swap1\n  pop\n  jump\t// out\n    /* \"#utility.yul\":139:235   */\ntag_14:\n    /* \"#utility.yul\":176:183   */\n  0x00\n    /* \"#utility.yul\":205:229   */\n  tag_19\n    /* \"#utility.yul\":223:228   */\n  dup3\n    /* \"#utility.yul\":205:229   */\n  tag_13\n  jump\t// in\ntag_19:\n    /* \"#utility.yul\":194:229   */\n  swap1\n  pop\n    /* \"#utility.yul\":139:235   */\n  swap2\n  swap1\n  pop\n  jump\t// out\n    /* \"#utility.yul\":241:359   */\ntag_15:\n    /* \"#utility.yul\":328:352   */\n  tag_21\n    /* \"#utility.yul\":346:351   */\n  dup2\n    /* \"#utility.yul\":328:352   */\n  tag_14\n  jump\t// in\ntag_21:\n    /* \"#utility.yul\":323:326   */\n  dup3\n    /* \"#utility.yul\":316:353   */\n  mstore\n    /* \"#utility.yul\":241:359   */\n  pop\n  pop\n  jump\t// out\n    /* \"#utility.yul\":365:587   */\ntag_7:\n    /* \"#utility.yul\":458:462   */\n  0x00\n    /* \"#utility.yul\":496:498   */\n  0x20\n    /* \"#utility.yul\":485:494   */\n  dup3\n    /* \"#utility.yul\":481:499   */\n  add\n    /* \"#utility.yul\":473:499   */\n  swap1\n  pop\n    /* \"#utility.yul\":509:580   */\n  tag_23\n    /* \"#utility.yul\":577:578   */\n  0x00\n    /* \"#utility.yul\":566:575   */\n  dup4\n    /* \"#utility.yul\":562:579   */\n  add\n    /* \"#utility.yul\":553:559   */\n  dup5\n    /* \"#utility.yul\":509:580   */\n  tag_15\n  jump\t// in\ntag_23:\n    /* \"#utility.yul\":365:587   */\n  swap3\n  swap2\n  pop\n  pop\n  jump\t// out\n    /* \"contracts/BookStore.sol\":117:5094  contract BookStore is Ownable {... */\ntag_11:\n  dataSize(sub_0)\n  dup1\n  dataOffset(sub_0)\n  0x00\n  codecopy\n  0x00\n  return\nstop\n\nsub_0: assembly {\n        /* \"contracts/BookStore.sol\":117:5094  contract BookStore is Ownable {... */\n      mstore(0x40, 0x80)\n      jumpi(tag_1, lt(calldatasize, 0x04))\n      shr(0xe0, calldataload(0x00))\n      dup1\n      0x715018a6\n      gt\n      tag_18\n      jumpi\n      dup1\n      0xe5ca5302\n      gt\n      tag_19\n      jumpi\n      dup1\n      0xe5ca5302\n      eq\n      tag_14\n      jumpi\n      dup1\n      0xf2fde38b\n      eq\n      tag_15\n      jumpi\n      dup1\n      0xf46de7d4\n      eq\n      tag_16\n      jumpi\n      dup1\n      0xf98520de\n      eq\n      tag_17\n      jumpi\n      jump(tag_1)\n    tag_19:\n      dup1\n      0x715018a6\n      eq\n      tag_10\n      jumpi\n      dup1\n      0x8da5cb5b\n      eq\n      tag_11\n      jumpi\n      dup1\n      0x9bd30883\n      eq\n      tag_12\n      jumpi\n      dup1\n      0xbec0d799\n      eq\n      tag_13\n      jumpi\n      jump(tag_1)\n    tag_18:\n      dup1\n      0x590791f2\n      gt\n      tag_20\n      jumpi\n      dup1\n      0x590791f2\n      eq\n      tag_6\n      jumpi\n      dup1\n      0x59c75898\n      eq\n      tag_7\n      jumpi\n      dup1\n      0x5ac3e19e\n      eq\n      tag_8\n      jumpi\n      dup1\n      0x68744046\n      eq\n      tag_9\n      jumpi\n      jump(tag_1)\n    tag_20:\n      dup1\n      0x1aec2cf9\n      eq\n      tag_2\n      jumpi\n      dup1\n      0x21e6de9d\n      eq\n      tag_3\n      jumpi\n      dup1\n      0x354528e8\n      eq\n      tag_4\n      jumpi\n      dup1\n      0x5745ae28\n      eq\n      tag_5\n      jumpi\n    tag_1:\n      0x00\n      dup1\n      revert\n        /* \"contracts/BookStore.sol\":4453:4667  function Subscribe(address _customer) public {... */\n    tag_2:\n      callvalue\n      dup1\n      iszero\n      tag_21\n      jumpi\n      0x00\n      dup1\n      revert\n    tag_21:\n      pop\n      tag_22\n      0x04\n      dup1\n      calldatasize\n      sub\n      dup2\n      add\n      swap1\n      tag_23\n      swap2\n      swap1\n      tag_24\n      jump\t// in\n    tag_23:\n      tag_25\n      jump\t// in\n    tag_22:\n      stop\n        /* \"contracts/BookStore.sol\":969:1465  function addBook(uint256 _bookId, string calldata _title, string calldata _author, uint96 _stock, uint96 _price) external {... */\n    tag_3:\n      callvalue\n      dup1\n      iszero\n      tag_26\n      jumpi\n      0x00\n      dup1\n      revert\n    tag_26:\n      pop\n      tag_27\n      0x04\n      dup1\n      calldatasize\n      sub\n      dup2\n      add\n      swap1\n      tag_28\n      swap2\n      swap1\n      tag_29\n      jump\t// in\n    tag_28:\n      tag_30\n      jump\t// in\n    tag_27:\n      stop\n        /* \"contracts/BookStore.sol\":1511:1849  function getAllBooks() external view returns (string[] memory) {... */\n    tag_4:\n      callvalue\n      dup1\n      iszero\n      tag_31\n      jumpi\n      0x00\n      dup1\n      revert\n    tag_31:\n      pop\n      tag_32\n      tag_33\n      jump\t// in\n    tag_32:\n      mload(0x40)\n      tag_34\n      swap2\n      swap1\n      tag_35\n      jump\t// in\n    tag_34:\n      mload(0x40)\n      dup1\n      swap2\n      sub\n      swap1\n      return\n        /* \"contracts/BookStore.sol\":360:403  mapping(address => bool) public subscribers */\n    tag_5:\n      callvalue\n      dup1\n      iszero\n      tag_36\n      jumpi\n      0x00\n      dup1\n      revert\n    tag_36:\n      pop\n      tag_37\n      0x04\n      dup1\n      calldatasize\n      sub\n      dup2\n      add\n      swap1\n      tag_38\n      swap2\n      swap1\n      tag_24\n      jump\t// in\n    tag_38:\n      tag_39\n      jump\t// in\n    tag_37:\n      mload(0x40)\n      tag_40\n      swap2\n      swap1\n      tag_41\n      jump\t// in\n    tag_40:\n      mload(0x40)\n      dup1\n      swap2\n      sub\n      swap1\n      return\n        /* \"contracts/BookStore.sol\":3250:3359  function getOwnerBalance() external view returns (uint256) {... */\n    tag_6:\n      callvalue\n      dup1\n      iszero\n      tag_42\n      jumpi\n      0x00\n      dup1\n      revert\n    tag_42:\n      pop\n      tag_43\n      tag_44\n      jump\t// in\n    tag_43:\n      mload(0x40)\n      tag_45\n      swap2\n      swap1\n      tag_46\n      jump\t// in\n    tag_45:\n      mload(0x40)\n      dup1\n      swap2\n      sub\n      swap1\n      return\n        /* \"contracts/BookStore.sol\":4896:5091  function checkIfSubscribed(address _customer) public view returns (bool) {... */\n    tag_7:\n      callvalue\n      dup1\n      iszero\n      tag_47\n      jumpi\n      0x00\n      dup1\n      revert\n    tag_47:\n      pop\n      tag_48\n      0x04\n      dup1\n      calldatasize\n      sub\n      dup2\n      add\n      swap1\n      tag_49\n      swap2\n      swap1\n      tag_24\n      jump\t// in\n    tag_49:\n      tag_50\n      jump\t// in\n    tag_48:\n      mload(0x40)\n      tag_51\n      swap2\n      swap1\n      tag_41\n      jump\t// in\n    tag_51:\n      mload(0x40)\n      dup1\n      swap2\n      sub\n      swap1\n      return\n        /* \"contracts/BookStore.sol\":3517:3802  function getBooks(uint256 _bookId) external view returns (string memory title, string memory author, uint96 price, uint96 stock, bool isAvailable) {... */\n    tag_8:\n      callvalue\n      dup1\n      iszero\n      tag_52\n      jumpi\n      0x00\n      dup1\n      revert\n    tag_52:\n      pop\n      tag_53\n      0x04\n      dup1\n      calldatasize\n      sub\n      dup2\n      add\n      swap1\n      tag_54\n      swap2\n      swap1\n      tag_55\n      jump\t// in\n    tag_54:\n      tag_56\n      jump\t// in\n    tag_53:\n      mload(0x40)\n      tag_57\n      swap6\n      swap5\n      swap4\n      swap3\n      swap2\n      swap1\n      tag_58\n      jump\t// in\n    tag_57:\n      mload(0x40)\n      dup1\n      swap2\n      sub\n      swap1\n      return\n        /* \"contracts/BookStore.sol\":316:353  mapping(uint256 => Book) public books */\n    tag_9:\n      callvalue\n      dup1\n      iszero\n      tag_59\n      jumpi\n      0x00\n      dup1\n      revert\n    tag_59:\n      pop\n      tag_60\n      0x04\n      dup1\n      calldatasize\n      sub\n      dup2\n      add\n      swap1\n      tag_61\n      swap2\n      swap1\n      tag_55\n      jump\t// in\n    tag_61:\n      tag_62\n      jump\t// in\n    tag_60:\n      mload(0x40)\n      tag_63\n      swap6\n      swap5\n      swap4\n      swap3\n      swap2\n      swap1\n      tag_64\n      jump\t// in\n    tag_63:\n      mload(0x40)\n      dup1\n      swap2\n      sub\n      swap1\n      return\n        /* \"@openzeppelin/contracts/access/Ownable.sol\":2293:2394  function renounceOwnership() public virtual onlyOwner {... */\n    tag_10:\n      callvalue\n      dup1\n      iszero\n      tag_65\n      jumpi\n      0x00\n      dup1\n      revert\n    tag_65:\n      pop\n      tag_66\n      tag_67\n      jump\t// in\n    tag_66:\n      stop\n        /* \"@openzeppelin/contracts/access/Ownable.sol\":1638:1723  function owner() public view virtual returns (address) {... */\n    tag_11:\n      callvalue\n      dup1\n      iszero\n      tag_68\n      jumpi\n      0x00\n      dup1\n      revert\n    tag_68:\n      pop\n      tag_69\n      tag_70\n      jump\t// in\n    tag_69:\n      mload(0x40)\n      tag_71\n      swap2\n      swap1\n      tag_72\n      jump\t// in\n    tag_71:\n      mload(0x40)\n      dup1\n      swap2\n      sub\n      swap1\n      return\n        /* \"contracts/BookStore.sol\":3409:3509  function getTotalBooksSold() external view returns (uint96) {... */\n    tag_12:\n      callvalue\n      dup1\n      iszero\n      tag_73\n      jumpi\n      0x00\n      dup1\n      revert\n    tag_73:\n      pop\n      tag_74\n      tag_75\n      jump\t// in\n    tag_74:\n      mload(0x40)\n      tag_76\n      swap2\n      swap1\n      tag_77\n      jump\t// in\n    tag_76:\n      mload(0x40)\n      dup1\n      swap2\n      sub\n      swap1\n      return\n        /* \"contracts/BookStore.sol\":2739:3207  function removeBook(uint256 _bookId) external onlyOwner {... */\n    tag_13:\n      callvalue\n      dup1\n      iszero\n      tag_78\n      jumpi\n      0x00\n      dup1\n      revert\n    tag_78:\n      pop\n      tag_79\n      0x04\n      dup1\n      calldatasize\n      sub\n      dup2\n      add\n      swap1\n      tag_80\n      swap2\n      swap1\n      tag_55\n      jump\t// in\n    tag_80:\n      tag_81\n      jump\t// in\n    tag_79:\n      stop\n        /* \"contracts/BookStore.sol\":4675:4888  function Unsubcribe(address _customer) public {... */\n    tag_14:\n      callvalue\n      dup1\n      iszero\n      tag_82\n      jumpi\n      0x00\n      dup1\n      revert\n    tag_82:\n      pop\n      tag_83\n      0x04\n      dup1\n      calldatasize\n      sub\n      dup2\n      add\n      swap1\n      tag_84\n      swap2\n      swap1\n      tag_24\n      jump\t// in\n    tag_84:\n      tag_85\n      jump\t// in\n    tag_83:\n      stop\n        /* \"@openzeppelin/contracts/access/Ownable.sol\":2543:2758  function transferOwnership(address newOwner) public virtual onlyOwner {... */\n    tag_15:\n      callvalue\n      dup1\n      iszero\n      tag_86\n      jumpi\n      0x00\n      dup1\n      revert\n    tag_86:\n      pop\n      tag_87\n      0x04\n      dup1\n      calldatasize\n      sub\n      dup2\n      add\n      swap1\n      tag_88\n      swap2\n      swap1\n      tag_24\n      jump\t// in\n    tag_88:\n      tag_89\n      jump\t// in\n    tag_87:\n      stop\n        /* \"contracts/BookStore.sol\":3810:4412  function buyBook(uint256 _bookId, uint96 _quantity) public  virtual  payable {... */\n    tag_16:\n      tag_90\n      0x04\n      dup1\n      calldatasize\n      sub\n      dup2\n      add\n      swap1\n      tag_91\n      swap2\n      swap1\n      tag_92\n      jump\t// in\n    tag_91:\n      tag_93\n      jump\t// in\n    tag_90:\n      stop\n        /* \"contracts/BookStore.sol\":1903:2690  function removeBooks(uint256[] calldata _bookIds) external onlyOwner {... */\n    tag_17:\n      callvalue\n      dup1\n      iszero\n      tag_94\n      jumpi\n      0x00\n      dup1\n      revert\n    tag_94:\n      pop\n      tag_95\n      0x04\n      dup1\n      calldatasize\n      sub\n      dup2\n      add\n      swap1\n      tag_96\n      swap2\n      swap1\n      tag_97\n      jump\t// in\n    tag_96:\n      tag_98\n      jump\t// in\n    tag_95:\n      stop\n        /* \"contracts/BookStore.sol\":4453:4667  function Subscribe(address _customer) public {... */\n    tag_25:\n        /* \"contracts/BookStore.sol\":4518:4529  subscribers */\n      0x02\n        /* \"contracts/BookStore.sol\":4518:4540  subscribers[_customer] */\n      0x00\n        /* \"contracts/BookStore.sol\":4530:4539  _customer */\n      dup3\n        /* \"contracts/BookStore.sol\":4518:4540  subscribers[_customer] */\n      0xffffffffffffffffffffffffffffffffffffffff\n      and\n      0xffffffffffffffffffffffffffffffffffffffff\n      and\n      dup2\n      mstore\n      0x20\n      add\n      swap1\n      dup2\n      mstore\n      0x20\n      add\n      0x00\n      keccak256\n      0x00\n      swap1\n      sload\n      swap1\n      0x0100\n      exp\n      swap1\n      div\n      0xff\n      and\n        /* \"contracts/BookStore.sol\":4517:4540  !subscribers[_customer] */\n      iszero\n        /* \"contracts/BookStore.sol\":4509:4575  require(!subscribers[_customer],\"Customer Is Already Subscribed!\") */\n      tag_100\n      jumpi\n      mload(0x40)\n      0x08c379a000000000000000000000000000000000000000000000000000000000\n      dup2\n      mstore\n      0x04\n      add\n      tag_101\n      swap1\n      tag_102\n      jump\t// in\n    tag_101:\n      mload(0x40)\n      dup1\n      swap2\n      sub\n      swap1\n      revert\n    tag_100:\n        /* \"contracts/BookStore.sol\":4611:4615  true */\n      0x01\n        /* \"contracts/BookStore.sol\":4586:4597  subscribers */\n      0x02\n        /* \"contracts/BookStore.sol\":4586:4608  subscribers[_customer] */\n      0x00\n        /* \"contracts/BookStore.sol\":4598:4607  _customer */\n      dup4\n        /* \"contracts/BookStore.sol\":4586:4608  subscribers[_customer] */\n      0xffffffffffffffffffffffffffffffffffffffff\n      and\n      0xffffffffffffffffffffffffffffffffffffffff\n      and\n      dup2\n      mstore\n      0x20\n      add\n      swap1\n      dup2\n      mstore\n      0x20\n      add\n      0x00\n      keccak256\n      0x00\n        /* \"contracts/BookStore.sol\":4586:4615  subscribers[_customer] = true */\n      0x0100\n      exp\n      dup2\n      sload\n      dup2\n      0xff\n      mul\n      not\n      and\n      swap1\n      dup4\n      iszero\n      iszero\n      mul\n      or\n      swap1\n      sstore\n      pop\n        /* \"contracts/BookStore.sol\":4649:4658  _customer */\n      dup1\n        /* \"contracts/BookStore.sol\":4631:4659  SubscriptionAdded(_customer) */\n      0xffffffffffffffffffffffffffffffffffffffff\n      and\n      0x64814cf4dee184dc70c8d41b259875da94b26650e5dd3955eb0741764d1b4455\n      mload(0x40)\n      mload(0x40)\n      dup1\n      swap2\n      sub\n      swap1\n      log2\n        /* \"contracts/BookStore.sol\":4453:4667  function Subscribe(address _customer) public {... */\n      pop\n      jump\t// out\n        /* \"contracts/BookStore.sol\":969:1465  function addBook(uint256 _bookId, string calldata _title, string calldata _author, uint96 _stock, uint96 _price) external {... */\n    tag_30:\n        /* \"contracts/BookStore.sol\":1134:1135  0 */\n      0x00\n        /* \"contracts/BookStore.sol\":1110:1115  books */\n      0x01\n        /* \"contracts/BookStore.sol\":1110:1124  books[_bookId] */\n      0x00\n        /* \"contracts/BookStore.sol\":1116:1123  _bookId */\n      dup10\n        /* \"contracts/BookStore.sol\":1110:1124  books[_bookId] */\n      dup2\n      mstore\n      0x20\n      add\n      swap1\n      dup2\n      mstore\n      0x20\n      add\n      0x00\n      keccak256\n        /* \"contracts/BookStore.sol\":1110:1130  books[_bookId].price */\n      0x00\n      add\n      0x0c\n      swap1\n      sload\n      swap1\n      0x0100\n      exp\n      swap1\n      div\n      0xffffffffffffffffffffffff\n      and\n        /* \"contracts/BookStore.sol\":1110:1135  books[_bookId].price == 0 */\n      0xffffffffffffffffffffffff\n      and\n      eq\n        /* \"contracts/BookStore.sol\":1102:1151  require(books[_bookId].price == 0, \"Book exists\") */\n      tag_104\n      jumpi\n      mload(0x40)\n      0x08c379a000000000000000000000000000000000000000000000000000000000\n      dup2\n      mstore\n      0x04\n      add\n      tag_105\n      swap1\n      tag_106\n      jump\t// in\n    tag_105:\n      mload(0x40)\n      dup1\n      swap2\n      sub\n      swap1\n      revert\n    tag_104:\n        /* \"contracts/BookStore.sol\":1179:1358  Book({... */\n      mload(0x40)\n      dup1\n      0xa0\n      add\n      0x40\n      mstore\n      dup1\n        /* \"contracts/BookStore.sol\":1206:1212  _stock */\n      dup4\n        /* \"contracts/BookStore.sol\":1179:1358  Book({... */\n      0xffffffffffffffffffffffff\n      and\n      dup2\n      mstore\n      0x20\n      add\n        /* \"contracts/BookStore.sol\":1243:1250  1 ether */\n      0x0de0b6b3a7640000\n        /* \"contracts/BookStore.sol\":1234:1240  _price */\n      dup4\n        /* \"contracts/BookStore.sol\":1234:1250  _price * 1 ether */\n      tag_107\n      swap2\n      swap1\n      tag_108\n      jump\t// in\n    tag_107:\n        /* \"contracts/BookStore.sol\":1179:1358  Book({... */\n      0xffffffffffffffffffffffff\n      and\n      dup2\n      mstore\n      0x20\n      add\n        /* \"contracts/BookStore.sol\":1287:1288  0 */\n      0x00\n        /* \"contracts/BookStore.sol\":1278:1284  _stock */\n      dup5\n        /* \"contracts/BookStore.sol\":1278:1288  _stock > 0 */\n      0xffffffffffffffffffffffff\n      and\n      gt\n        /* \"contracts/BookStore.sol\":1179:1358  Book({... */\n      iszero\n      iszero\n      dup2\n      mstore\n      0x20\n      add\n        /* \"contracts/BookStore.sol\":1310:1316  _title */\n      dup8\n      dup8\n        /* \"contracts/BookStore.sol\":1179:1358  Book({... */\n      dup1\n      dup1\n      0x1f\n      add\n      0x20\n      dup1\n      swap2\n      div\n      mul\n      0x20\n      add\n      mload(0x40)\n      swap1\n      dup2\n      add\n      0x40\n      mstore\n      dup1\n      swap4\n      swap3\n      swap2\n      swap1\n      dup2\n      dup2\n      mstore\n      0x20\n      add\n      dup4\n      dup4\n      dup1\n      dup3\n      dup5\n      calldatacopy\n      0x00\n      dup2\n      dup5\n      add\n      mstore\n      not(0x1f)\n      0x1f\n      dup3\n      add\n      and\n      swap1\n      pop\n      dup1\n      dup4\n      add\n      swap3\n      pop\n      pop\n      pop\n      pop\n      pop\n      pop\n      pop\n      dup2\n      mstore\n      0x20\n      add\n        /* \"contracts/BookStore.sol\":1339:1346  _author */\n      dup6\n      dup6\n        /* \"contracts/BookStore.sol\":1179:1358  Book({... */\n      dup1\n      dup1\n      0x1f\n      add\n      0x20\n      dup1\n      swap2\n      div\n      mul\n      0x20\n      add\n      mload(0x40)\n      swap1\n      dup2\n      add\n      0x40\n      mstore\n      dup1\n      swap4\n      swap3\n      swap2\n      swap1\n      dup2\n      dup2\n      mstore\n      0x20\n      add\n      dup4\n      dup4\n      dup1\n      dup3\n      dup5\n      calldatacopy\n      0x00\n      dup2\n      dup5\n      add\n      mstore\n      not(0x1f)\n      0x1f\n      dup3\n      add\n      and\n      swap1\n      pop\n      dup1\n      dup4\n      add\n      swap3\n      pop\n      pop\n      pop\n      pop\n      pop\n      pop\n      pop\n      dup2\n      mstore\n      pop\n        /* \"contracts/BookStore.sol\":1162:1167  books */\n      0x01\n        /* \"contracts/BookStore.sol\":1162:1176  books[_bookId] */\n      0x00\n        /* \"contracts/BookStore.sol\":1168:1175  _bookId */\n      dup10\n        /* \"contracts/BookStore.sol\":1162:1176  books[_bookId] */\n      dup2\n      mstore\n      0x20\n      add\n      swap1\n      dup2\n      mstore\n      0x20\n      add\n      0x00\n      keccak256\n        /* \"contracts/BookStore.sol\":1162:1358  books[_bookId] = Book({... */\n      0x00\n      dup3\n      add\n      mload\n      dup2\n      0x00\n      add\n      exp(0x0100, 0x00)\n      dup2\n      sload\n      dup2\n      0xffffffffffffffffffffffff\n      mul\n      not\n      and\n      swap1\n      dup4\n      0xffffffffffffffffffffffff\n      and\n      mul\n      or\n      swap1\n      sstore\n      pop\n      0x20\n      dup3\n      add\n      mload\n      dup2\n      0x00\n      add\n      exp(0x0100, 0x0c)\n      dup2\n      sload\n      dup2\n      0xffffffffffffffffffffffff\n      mul\n      not\n      and\n      swap1\n      dup4\n      0xffffffffffffffffffffffff\n      and\n      mul\n      or\n      swap1\n      sstore\n      pop\n      0x40\n      dup3\n      add\n      mload\n      dup2\n      0x00\n      add\n      exp(0x0100, 0x18)\n      dup2\n      sload\n      dup2\n      0xff\n      mul\n      not\n      and\n      swap1\n      dup4\n      iszero\n      iszero\n      mul\n      or\n      swap1\n      sstore\n      pop\n      0x60\n      dup3\n      add\n      mload\n      dup2\n      0x01\n      add\n      swap1\n      dup2\n      tag_109\n      swap2\n      swap1\n      tag_110\n      jump\t// in\n    tag_109:\n      pop\n      0x80\n      dup3\n      add\n      mload\n      dup2\n      0x02\n      add\n      swap1\n      dup2\n      tag_111\n      swap2\n      swap1\n      tag_110\n      jump\t// in\n    tag_111:\n      pop\n      swap1\n      pop\n      pop\n        /* \"contracts/BookStore.sol\":1369:1376  bookIds */\n      0x03\n        /* \"contracts/BookStore.sol\":1382:1389  _bookId */\n      dup8\n        /* \"contracts/BookStore.sol\":1369:1390  bookIds.push(_bookId) */\n      swap1\n      dup1\n      0x01\n      dup2\n      sload\n      add\n      dup1\n      dup3\n      sstore\n      dup1\n      swap2\n      pop\n      pop\n      0x01\n      swap1\n      sub\n      swap1\n      0x00\n      mstore\n      keccak256(0x00, 0x20)\n      add\n      0x00\n      swap1\n      swap2\n      swap1\n      swap2\n      swap1\n      swap2\n      pop\n      sstore\n        /* \"contracts/BookStore.sol\":1416:1423  _bookId */\n      dup7\n        /* \"contracts/BookStore.sol\":1406:1457  BookAdded(_bookId, _title, _author, _price, _stock) */\n      0x907463480edcb1016ad34b5c752a56e18c2aea6ed1dd0e18ec287d63d670d88f\n        /* \"contracts/BookStore.sol\":1425:1431  _title */\n      dup8\n      dup8\n        /* \"contracts/BookStore.sol\":1433:1440  _author */\n      dup8\n      dup8\n        /* \"contracts/BookStore.sol\":1442:1448  _price */\n      dup7\n        /* \"contracts/BookStore.sol\":1450:1456  _stock */\n      dup9\n        /* \"contracts/BookStore.sol\":1406:1457  BookAdded(_bookId, _title, _author, _price, _stock) */\n      mload(0x40)\n      tag_113\n      swap7\n      swap6\n      swap5\n      swap4\n      swap3\n      swap2\n      swap1\n      tag_114\n      jump\t// in\n    tag_113:\n      mload(0x40)\n      dup1\n      swap2\n      sub\n      swap1\n      log2\n        /* \"contracts/BookStore.sol\":969:1465  function addBook(uint256 _bookId, string calldata _title, string calldata _author, uint96 _stock, uint96 _price) external {... */\n      pop\n      pop\n      pop\n      pop\n      pop\n      pop\n      pop\n      jump\t// out\n        /* \"contracts/BookStore.sol\":1511:1849  function getAllBooks() external view returns (string[] memory) {... */\n    tag_33:\n        /* \"contracts/BookStore.sol\":1557:1572  string[] memory */\n      0x60\n        /* \"contracts/BookStore.sol\":1585:1607  string[] memory titles */\n      0x00\n        /* \"contracts/BookStore.sol\":1623:1630  bookIds */\n      0x03\n        /* \"contracts/BookStore.sol\":1623:1637  bookIds.length */\n      dup1\n      sload\n      swap1\n      pop\n        /* \"contracts/BookStore.sol\":1610:1638  new string[](bookIds.length) */\n      0xffffffffffffffff\n      dup2\n      gt\n      iszero\n      tag_116\n      jumpi\n      tag_117\n      tag_118\n      jump\t// in\n    tag_117:\n    tag_116:\n      mload(0x40)\n      swap1\n      dup1\n      dup3\n      mstore\n      dup1\n      0x20\n      mul\n      0x20\n      add\n      dup3\n      add\n      0x40\n      mstore\n      dup1\n      iszero\n      tag_119\n      jumpi\n      dup2\n      0x20\n      add\n    tag_120:\n      0x60\n      dup2\n      mstore\n      0x20\n      add\n      swap1\n      0x01\n      swap1\n      sub\n      swap1\n      dup2\n      tag_120\n      jumpi\n      swap1\n      pop\n    tag_119:\n      pop\n        /* \"contracts/BookStore.sol\":1585:1638  string[] memory titles = new string[](bookIds.length) */\n      swap1\n      pop\n        /* \"contracts/BookStore.sol\":1654:1663  uint256 i */\n      0x00\n        /* \"contracts/BookStore.sol\":1649:1818  for (uint256 i; i < bookIds.length;){... */\n    tag_121:\n        /* \"contracts/BookStore.sol\":1669:1676  bookIds */\n      0x03\n        /* \"contracts/BookStore.sol\":1669:1683  bookIds.length */\n      dup1\n      sload\n      swap1\n      pop\n        /* \"contracts/BookStore.sol\":1665:1666  i */\n      dup2\n        /* \"contracts/BookStore.sol\":1665:1683  i < bookIds.length */\n      lt\n        /* \"contracts/BookStore.sol\":1649:1818  for (uint256 i; i < bookIds.length;){... */\n      iszero\n      tag_122\n      jumpi\n        /* \"contracts/BookStore.sol\":1700:1717  Book storage book */\n      0x00\n        /* \"contracts/BookStore.sol\":1720:1725  books */\n      0x01\n        /* \"contracts/BookStore.sol\":1720:1737  books[bookIds[i]] */\n      0x00\n        /* \"contracts/BookStore.sol\":1726:1733  bookIds */\n      0x03\n        /* \"contracts/BookStore.sol\":1734:1735  i */\n      dup5\n        /* \"contracts/BookStore.sol\":1726:1736  bookIds[i] */\n      dup2\n      sload\n      dup2\n      lt\n      tag_124\n      jumpi\n      tag_125\n      tag_126\n      jump\t// in\n    tag_125:\n    tag_124:\n      swap1\n      0x00\n      mstore\n      keccak256(0x00, 0x20)\n      add\n      sload\n        /* \"contracts/BookStore.sol\":1720:1737  books[bookIds[i]] */\n      dup2\n      mstore\n      0x20\n      add\n      swap1\n      dup2\n      mstore\n      0x20\n      add\n      0x00\n      keccak256\n        /* \"contracts/BookStore.sol\":1700:1737  Book storage book = books[bookIds[i]] */\n      swap1\n      pop\n        /* \"contracts/BookStore.sol\":1764:1768  book */\n      dup1\n        /* \"contracts/BookStore.sol\":1764:1774  book.title */\n      0x01\n      add\n        /* \"contracts/BookStore.sol\":1752:1774  titles[i] = book.title */\n      dup1\n      sload\n      tag_128\n      swap1\n      tag_129\n      jump\t// in\n    tag_128:\n      dup1\n      0x1f\n      add\n      0x20\n      dup1\n      swap2\n      div\n      mul\n      0x20\n      add\n      mload(0x40)\n      swap1\n      dup2\n      add\n      0x40\n      mstore\n      dup1\n      swap3\n      swap2\n      swap1\n      dup2\n      dup2\n      mstore\n      0x20\n      add\n      dup3\n      dup1\n      sload\n      tag_130\n      swap1\n      tag_129\n      jump\t// in\n    tag_130:\n      dup1\n      iszero\n      tag_131\n      jumpi\n      dup1\n      0x1f\n      lt\n      tag_132\n      jumpi\n      0x0100\n      dup1\n      dup4\n      sload\n      div\n      mul\n      dup4\n      mstore\n      swap2\n      0x20\n      add\n      swap2\n      jump(tag_131)\n    tag_132:\n      dup3\n      add\n      swap2\n      swap1\n      0x00\n      mstore\n      keccak256(0x00, 0x20)\n      swap1\n    tag_133:\n      dup2\n      sload\n      dup2\n      mstore\n      swap1\n      0x01\n      add\n      swap1\n      0x20\n      add\n      dup1\n      dup4\n      gt\n      tag_133\n      jumpi\n      dup3\n      swap1\n      sub\n      0x1f\n      and\n      dup3\n      add\n      swap2\n    tag_131:\n      pop\n      pop\n      pop\n      pop\n      pop\n        /* \"contracts/BookStore.sol\":1752:1758  titles */\n      dup4\n        /* \"contracts/BookStore.sol\":1759:1760  i */\n      dup4\n        /* \"contracts/BookStore.sol\":1752:1761  titles[i] */\n      dup2\n      mload\n      dup2\n      lt\n      tag_134\n      jumpi\n      tag_135\n      tag_126\n      jump\t// in\n    tag_135:\n    tag_134:\n      0x20\n      mul\n      0x20\n      add\n      add\n        /* \"contracts/BookStore.sol\":1752:1774  titles[i] = book.title */\n      dup2\n      swap1\n      mstore\n      pop\n        /* \"contracts/BookStore.sol\":1801:1804  i++ */\n      dup2\n      dup1\n      0x01\n      add\n      swap3\n      pop\n      pop\n        /* \"contracts/BookStore.sol\":1685:1818  {... */\n      pop\n        /* \"contracts/BookStore.sol\":1649:1818  for (uint256 i; i < bookIds.length;){... */\n      jump(tag_121)\n    tag_122:\n      pop\n        /* \"contracts/BookStore.sol\":1835:1841  titles */\n      dup1\n        /* \"contracts/BookStore.sol\":1828:1841  return titles */\n      swap2\n      pop\n      pop\n        /* \"contracts/BookStore.sol\":1511:1849  function getAllBooks() external view returns (string[] memory) {... */\n      swap1\n      jump\t// out\n        /* \"contracts/BookStore.sol\":360:403  mapping(address => bool) public subscribers */\n    tag_39:\n      mstore(0x20, 0x02)\n      dup1\n      0x00\n      mstore\n      keccak256(0x00, 0x40)\n      0x00\n      swap2\n      pop\n      sload\n      swap1\n      0x0100\n      exp\n      swap1\n      div\n      0xff\n      and\n      dup2\n      jump\t// out\n        /* \"contracts/BookStore.sol\":3250:3359  function getOwnerBalance() external view returns (uint256) {... */\n    tag_44:\n        /* \"contracts/BookStore.sol\":3300:3307  uint256 */\n      0x00\n        /* \"contracts/BookStore.sol\":3335:3342  owner() */\n      tag_137\n        /* \"contracts/BookStore.sol\":3335:3340  owner */\n      tag_70\n        /* \"contracts/BookStore.sol\":3335:3342  owner() */\n      jump\t// in\n    tag_137:\n        /* \"contracts/BookStore.sol\":3327:3351  address(owner()).balance */\n      0xffffffffffffffffffffffffffffffffffffffff\n      and\n      balance\n        /* \"contracts/BookStore.sol\":3320:3351  return address(owner()).balance */\n      swap1\n      pop\n        /* \"contracts/BookStore.sol\":3250:3359  function getOwnerBalance() external view returns (uint256) {... */\n      swap1\n      jump\t// out\n        /* \"contracts/BookStore.sol\":4896:5091  function checkIfSubscribed(address _customer) public view returns (bool) {... */\n    tag_50:\n        /* \"contracts/BookStore.sol\":4963:4967  bool */\n      0x00\n        /* \"contracts/BookStore.sol\":4988:4999  subscribers */\n      0x02\n        /* \"contracts/BookStore.sol\":4988:5010  subscribers[_customer] */\n      0x00\n        /* \"contracts/BookStore.sol\":5000:5009  _customer */\n      dup4\n        /* \"contracts/BookStore.sol\":4988:5010  subscribers[_customer] */\n      0xffffffffffffffffffffffffffffffffffffffff\n      and\n      0xffffffffffffffffffffffffffffffffffffffff\n      and\n      dup2\n      mstore\n      0x20\n      add\n      swap1\n      dup2\n      mstore\n      0x20\n      add\n      0x00\n      keccak256\n      0x00\n      swap1\n      sload\n      swap1\n      0x0100\n      exp\n      swap1\n      div\n      0xff\n      and\n        /* \"contracts/BookStore.sol\":4980:5042  require(subscribers[_customer], \"Customer Is Not Subscribed!\") */\n      tag_139\n      jumpi\n      mload(0x40)\n      0x08c379a000000000000000000000000000000000000000000000000000000000\n      dup2\n      mstore\n      0x04\n      add\n      tag_140\n      swap1\n      tag_141\n      jump\t// in\n    tag_140:\n      mload(0x40)\n      dup1\n      swap2\n      sub\n      swap1\n      revert\n    tag_139:\n        /* \"contracts/BookStore.sol\":5061:5072  subscribers */\n      0x02\n        /* \"contracts/BookStore.sol\":5061:5083  subscribers[_customer] */\n      0x00\n        /* \"contracts/BookStore.sol\":5073:5082  _customer */\n      dup4\n        /* \"contracts/BookStore.sol\":5061:5083  subscribers[_customer] */\n      0xffffffffffffffffffffffffffffffffffffffff\n      and\n      0xffffffffffffffffffffffffffffffffffffffff\n      and\n      dup2\n      mstore\n      0x20\n      add\n      swap1\n      dup2\n      mstore\n      0x20\n      add\n      0x00\n      keccak256\n      0x00\n      swap1\n      sload\n      swap1\n      0x0100\n      exp\n      swap1\n      div\n      0xff\n      and\n        /* \"contracts/BookStore.sol\":5053:5083  return  subscribers[_customer] */\n      swap1\n      pop\n        /* \"contracts/BookStore.sol\":4896:5091  function checkIfSubscribed(address _customer) public view returns (bool) {... */\n      swap2\n      swap1\n      pop\n      jump\t// out\n        /* \"contracts/BookStore.sol\":3517:3802  function getBooks(uint256 _bookId) external view returns (string memory title, string memory author, uint96 price, uint96 stock, bool isAvailable) {... */\n    tag_56:\n        /* \"contracts/BookStore.sol\":3575:3594  string memory title */\n      0x60\n        /* \"contracts/BookStore.sol\":3596:3616  string memory author */\n      dup1\n        /* \"contracts/BookStore.sol\":3618:3630  uint96 price */\n      0x00\n        /* \"contracts/BookStore.sol\":3632:3644  uint96 stock */\n      dup1\n        /* \"contracts/BookStore.sol\":3646:3662  bool isAvailable */\n      0x00\n        /* \"contracts/BookStore.sol\":3675:3692  Book storage book */\n      dup1\n        /* \"contracts/BookStore.sol\":3695:3700  books */\n      0x01\n        /* \"contracts/BookStore.sol\":3695:3709  books[_bookId] */\n      0x00\n        /* \"contracts/BookStore.sol\":3701:3708  _bookId */\n      dup9\n        /* \"contracts/BookStore.sol\":3695:3709  books[_bookId] */\n      dup2\n      mstore\n      0x20\n      add\n      swap1\n      dup2\n      mstore\n      0x20\n      add\n      0x00\n      keccak256\n        /* \"contracts/BookStore.sol\":3675:3709  Book storage book = books[_bookId] */\n      swap1\n      pop\n        /* \"contracts/BookStore.sol\":3728:3732  book */\n      dup1\n        /* \"contracts/BookStore.sol\":3728:3738  book.title */\n      0x01\n      add\n        /* \"contracts/BookStore.sol\":3740:3744  book */\n      dup2\n        /* \"contracts/BookStore.sol\":3740:3751  book.author */\n      0x02\n      add\n        /* \"contracts/BookStore.sol\":3753:3757  book */\n      dup3\n        /* \"contracts/BookStore.sol\":3753:3763  book.price */\n      0x00\n      add\n      0x0c\n      swap1\n      sload\n      swap1\n      0x0100\n      exp\n      swap1\n      div\n      0xffffffffffffffffffffffff\n      and\n        /* \"contracts/BookStore.sol\":3765:3769  book */\n      dup4\n        /* \"contracts/BookStore.sol\":3765:3775  book.stock */\n      0x00\n      add\n      0x00\n      swap1\n      sload\n      swap1\n      0x0100\n      exp\n      swap1\n      div\n      0xffffffffffffffffffffffff\n      and\n        /* \"contracts/BookStore.sol\":3777:3781  book */\n      dup5\n        /* \"contracts/BookStore.sol\":3777:3793  book.isAvailable */\n      0x00\n      add\n      0x18\n      swap1\n      sload\n      swap1\n      0x0100\n      exp\n      swap1\n      div\n      0xff\n      and\n        /* \"contracts/BookStore.sol\":3720:3794  return (book.title, book.author, book.price, book.stock, book.isAvailable) */\n      dup5\n      dup1\n      sload\n      tag_143\n      swap1\n      tag_129\n      jump\t// in\n    tag_143:\n      dup1\n      0x1f\n      add\n      0x20\n      dup1\n      swap2\n      div\n      mul\n      0x20\n      add\n      mload(0x40)\n      swap1\n      dup2\n      add\n      0x40\n      mstore\n      dup1\n      swap3\n      swap2\n      swap1\n      dup2\n      dup2\n      mstore\n      0x20\n      add\n      dup3\n      dup1\n      sload\n      tag_144\n      swap1\n      tag_129\n      jump\t// in\n    tag_144:\n      dup1\n      iszero\n      tag_145\n      jumpi\n      dup1\n      0x1f\n      lt\n      tag_146\n      jumpi\n      0x0100\n      dup1\n      dup4\n      sload\n      div\n      mul\n      dup4\n      mstore\n      swap2\n      0x20\n      add\n      swap2\n      jump(tag_145)\n    tag_146:\n      dup3\n      add\n      swap2\n      swap1\n      0x00\n      mstore\n      keccak256(0x00, 0x20)\n      swap1\n    tag_147:\n      dup2\n      sload\n      dup2\n      mstore\n      swap1\n      0x01\n      add\n      swap1\n      0x20\n      add\n      dup1\n      dup4\n      gt\n      tag_147\n      jumpi\n      dup3\n      swap1\n      sub\n      0x1f\n      and\n      dup3\n      add\n      swap2\n    tag_145:\n      pop\n      pop\n      pop\n      pop\n      pop\n      swap5\n      pop\n      dup4\n      dup1\n      sload\n      tag_148\n      swap1\n      tag_129\n      jump\t// in\n    tag_148:\n      dup1\n      0x1f\n      add\n      0x20\n      dup1\n      swap2\n      div\n      mul\n      0x20\n      add\n      mload(0x40)\n      swap1\n      dup2\n      add\n      0x40\n      mstore\n      dup1\n      swap3\n      swap2\n      swap1\n      dup2\n      dup2\n      mstore\n      0x20\n      add\n      dup3\n      dup1\n      sload\n      tag_149\n      swap1\n      tag_129\n      jump\t// in\n    tag_149:\n      dup1\n      iszero\n      tag_150\n      jumpi\n      dup1\n      0x1f\n      lt\n      tag_151\n      jumpi\n      0x0100\n      dup1\n      dup4\n      sload\n      div\n      mul\n      dup4\n      mstore\n      swap2\n      0x20\n      add\n      swap2\n      jump(tag_150)\n    tag_151:\n      dup3\n      add\n      swap2\n      swap1\n      0x00\n      mstore\n      keccak256(0x00, 0x20)\n      swap1\n    tag_152:\n      dup2\n      sload\n      dup2\n      mstore\n      swap1\n      0x01\n      add\n      swap1\n      0x20\n      add\n      dup1\n      dup4\n      gt\n      tag_152\n      jumpi\n      dup3\n      swap1\n      sub\n      0x1f\n      and\n      dup3\n      add\n      swap2\n    tag_150:\n      pop\n      pop\n      pop\n      pop\n      pop\n      swap4\n      pop\n      swap6\n      pop\n      swap6\n      pop\n      swap6\n      pop\n      swap6\n      pop\n      swap6\n      pop\n      pop\n        /* \"contracts/BookStore.sol\":3517:3802  function getBooks(uint256 _bookId) external view returns (string memory title, string memory author, uint96 price, uint96 stock, bool isAvailable) {... */\n      swap2\n      swap4\n      swap6\n      swap1\n      swap3\n      swap5\n      pop\n      jump\t// out\n        /* \"contracts/BookStore.sol\":316:353  mapping(uint256 => Book) public books */\n    tag_62:\n      mstore(0x20, 0x01)\n      dup1\n      0x00\n      mstore\n      keccak256(0x00, 0x40)\n      0x00\n      swap2\n      pop\n      swap1\n      pop\n      dup1\n      0x00\n      add\n      0x00\n      swap1\n      sload\n      swap1\n      0x0100\n      exp\n      swap1\n      div\n      0xffffffffffffffffffffffff\n      and\n      swap1\n      dup1\n      0x00\n      add\n      0x0c\n      swap1\n      sload\n      swap1\n      0x0100\n      exp\n      swap1\n      div\n      0xffffffffffffffffffffffff\n      and\n      swap1\n      dup1\n      0x00\n      add\n      0x18\n      swap1\n      sload\n      swap1\n      0x0100\n      exp\n      swap1\n      div\n      0xff\n      and\n      swap1\n      dup1\n      0x01\n      add\n      dup1\n      sload\n      tag_153\n      swap1\n      tag_129\n      jump\t// in\n    tag_153:\n      dup1\n      0x1f\n      add\n      0x20\n      dup1\n      swap2\n      div\n      mul\n      0x20\n      add\n      mload(0x40)\n      swap1\n      dup2\n      add\n      0x40\n      mstore\n      dup1\n      swap3\n      swap2\n      swap1\n      dup2\n      dup2\n      mstore\n      0x20\n      add\n      dup3\n      dup1\n      sload\n      tag_154\n      swap1\n      tag_129\n      jump\t// in\n    tag_154:\n      dup1\n      iszero\n      tag_155\n      jumpi\n      dup1\n      0x1f\n      lt\n      tag_156\n      jumpi\n      0x0100\n      dup1\n      dup4\n      sload\n      div\n      mul\n      dup4\n      mstore\n      swap2\n      0x20\n      add\n      swap2\n      jump(tag_155)\n    tag_156:\n      dup3\n      add\n      swap2\n      swap1\n      0x00\n      mstore\n      keccak256(0x00, 0x20)\n      swap1\n    tag_157:\n      dup2\n      sload\n      dup2\n      mstore\n      swap1\n      0x01\n      add\n      swap1\n      0x20\n      add\n      dup1\n      dup4\n      gt\n      tag_157\n      jumpi\n      dup3\n      swap1\n      sub\n      0x1f\n      and\n      dup3\n      add\n      swap2\n    tag_155:\n      pop\n      pop\n      pop\n      pop\n      pop\n      swap1\n      dup1\n      0x02\n      add\n      dup1\n      sload\n      tag_158\n      swap1\n      tag_129\n      jump\t// in\n    tag_158:\n      dup1\n      0x1f\n      add\n      0x20\n      dup1\n      swap2\n      div\n      mul\n      0x20\n      add\n      mload(0x40)\n      swap1\n      dup2\n      add\n      0x40\n      mstore\n      dup1\n      swap3\n      swap2\n      swap1\n      dup2\n      dup2\n      mstore\n      0x20\n      add\n      dup3\n      dup1\n      sload\n      tag_159\n      swap1\n      tag_129\n      jump\t// in\n    tag_159:\n      dup1\n      iszero\n      tag_160\n      jumpi\n      dup1\n      0x1f\n      lt\n      tag_161\n      jumpi\n      0x0100\n      dup1\n      dup4\n      sload\n      div\n      mul\n      dup4\n      mstore\n      swap2\n      0x20\n      add\n      swap2\n      jump(tag_160)\n    tag_161:\n      dup3\n      add\n      swap2\n      swap1\n      0x00\n      mstore\n      keccak256(0x00, 0x20)\n      swap1\n    tag_162:\n      dup2\n      sload\n      dup2\n      mstore\n      swap1\n      0x01\n      add\n      swap1\n      0x20\n      add\n      dup1\n      dup4\n      gt\n      tag_162\n      jumpi\n      dup3\n      swap1\n      sub\n      0x1f\n      and\n      dup3\n      add\n      swap2\n    tag_160:\n      pop\n      pop\n      pop\n      pop\n      pop\n      swap1\n      pop\n      dup6\n      jump\t// out\n        /* \"@openzeppelin/contracts/access/Ownable.sol\":2293:2394  function renounceOwnership() public virtual onlyOwner {... */\n    tag_67:\n        /* \"@openzeppelin/contracts/access/Ownable.sol\":1531:1544  _checkOwner() */\n      tag_164\n        /* \"@openzeppelin/contracts/access/Ownable.sol\":1531:1542  _checkOwner */\n      tag_165\n        /* \"@openzeppelin/contracts/access/Ownable.sol\":1531:1544  _checkOwner() */\n      jump\t// in\n    tag_164:\n        /* \"@openzeppelin/contracts/access/Ownable.sol\":2357:2387  _transferOwnership(address(0)) */\n      tag_167\n        /* \"@openzeppelin/contracts/access/Ownable.sol\":2384:2385  0 */\n      0x00\n        /* \"@openzeppelin/contracts/access/Ownable.sol\":2357:2375  _transferOwnership */\n      tag_168\n        /* \"@openzeppelin/contracts/access/Ownable.sol\":2357:2387  _transferOwnership(address(0)) */\n      jump\t// in\n    tag_167:\n        /* \"@openzeppelin/contracts/access/Ownable.sol\":2293:2394  function renounceOwnership() public virtual onlyOwner {... */\n      jump\t// out\n        /* \"@openzeppelin/contracts/access/Ownable.sol\":1638:1723  function owner() public view virtual returns (address) {... */\n    tag_70:\n        /* \"@openzeppelin/contracts/access/Ownable.sol\":1684:1691  address */\n      0x00\n        /* \"@openzeppelin/contracts/access/Ownable.sol\":1710:1716  _owner */\n      dup1\n      0x00\n      swap1\n      sload\n      swap1\n      0x0100\n      exp\n      swap1\n      div\n      0xffffffffffffffffffffffffffffffffffffffff\n      and\n        /* \"@openzeppelin/contracts/access/Ownable.sol\":1703:1716  return _owner */\n      swap1\n      pop\n        /* \"@openzeppelin/contracts/access/Ownable.sol\":1638:1723  function owner() public view virtual returns (address) {... */\n      swap1\n      jump\t// out\n        /* \"contracts/BookStore.sol\":3409:3509  function getTotalBooksSold() external view returns (uint96) {... */\n    tag_75:\n        /* \"contracts/BookStore.sol\":3461:3467  uint96 */\n      0x00\n        /* \"contracts/BookStore.sol\":3487:3501  totalBooksSold */\n      0x04\n      0x00\n      swap1\n      sload\n      swap1\n      0x0100\n      exp\n      swap1\n      div\n      0xffffffffffffffffffffffff\n      and\n        /* \"contracts/BookStore.sol\":3480:3501  return totalBooksSold */\n      swap1\n      pop\n        /* \"contracts/BookStore.sol\":3409:3509  function getTotalBooksSold() external view returns (uint96) {... */\n      swap1\n      jump\t// out\n        /* \"contracts/BookStore.sol\":2739:3207  function removeBook(uint256 _bookId) external onlyOwner {... */\n    tag_81:\n        /* \"@openzeppelin/contracts/access/Ownable.sol\":1531:1544  _checkOwner() */\n      tag_172\n        /* \"@openzeppelin/contracts/access/Ownable.sol\":1531:1542  _checkOwner */\n      tag_165\n        /* \"@openzeppelin/contracts/access/Ownable.sol\":1531:1544  _checkOwner() */\n      jump\t// in\n    tag_172:\n        /* \"contracts/BookStore.sol\":2838:2839  0 */\n      0x00\n        /* \"contracts/BookStore.sol\":2814:2819  books */\n      0x01\n        /* \"contracts/BookStore.sol\":2814:2828  books[_bookId] */\n      0x00\n        /* \"contracts/BookStore.sol\":2820:2827  _bookId */\n      dup4\n        /* \"contracts/BookStore.sol\":2814:2828  books[_bookId] */\n      dup2\n      mstore\n      0x20\n      add\n      swap1\n      dup2\n      mstore\n      0x20\n      add\n      0x00\n      keccak256\n        /* \"contracts/BookStore.sol\":2814:2834  books[_bookId].price */\n      0x00\n      add\n      0x0c\n      swap1\n      sload\n      swap1\n      0x0100\n      exp\n      swap1\n      div\n      0xffffffffffffffffffffffff\n      and\n        /* \"contracts/BookStore.sol\":2814:2839  books[_bookId].price != 0 */\n      0xffffffffffffffffffffffff\n      and\n      sub\n        /* \"contracts/BookStore.sol\":2806:2858  require(books[_bookId].price != 0, \"Book not exist\") */\n      tag_174\n      jumpi\n      mload(0x40)\n      0x08c379a000000000000000000000000000000000000000000000000000000000\n      dup2\n      mstore\n      0x04\n      add\n      tag_175\n      swap1\n      tag_176\n      jump\t// in\n    tag_175:\n      mload(0x40)\n      dup1\n      swap2\n      sub\n      swap1\n      revert\n    tag_174:\n        /* \"contracts/BookStore.sol\":2876:2881  books */\n      0x01\n        /* \"contracts/BookStore.sol\":2876:2890  books[_bookId] */\n      0x00\n        /* \"contracts/BookStore.sol\":2882:2889  _bookId */\n      dup3\n        /* \"contracts/BookStore.sol\":2876:2890  books[_bookId] */\n      dup2\n      mstore\n      0x20\n      add\n      swap1\n      dup2\n      mstore\n      0x20\n      add\n      0x00\n      keccak256\n      0x00\n        /* \"contracts/BookStore.sol\":2869:2890  delete books[_bookId] */\n      dup1\n      dup3\n      add\n      exp(0x0100, 0x00)\n      dup2\n      sload\n      swap1\n      0xffffffffffffffffffffffff\n      mul\n      not\n      and\n      swap1\n      sstore\n      0x00\n      dup3\n      add\n      exp(0x0100, 0x0c)\n      dup2\n      sload\n      swap1\n      0xffffffffffffffffffffffff\n      mul\n      not\n      and\n      swap1\n      sstore\n      0x00\n      dup3\n      add\n      exp(0x0100, 0x18)\n      dup2\n      sload\n      swap1\n      0xff\n      mul\n      not\n      and\n      swap1\n      sstore\n      0x01\n      dup3\n      add\n      0x00\n      tag_177\n      swap2\n      swap1\n      tag_178\n      jump\t// in\n    tag_177:\n      0x02\n      dup3\n      add\n      0x00\n      tag_179\n      swap2\n      swap1\n      tag_178\n      jump\t// in\n    tag_179:\n      pop\n      pop\n        /* \"contracts/BookStore.sol\":2916:2925  uint256 i */\n      0x00\n        /* \"contracts/BookStore.sol\":2911:3164  for (uint256 i; i < bookIds.length;) {... */\n    tag_180:\n        /* \"contracts/BookStore.sol\":2931:2938  bookIds */\n      0x03\n        /* \"contracts/BookStore.sol\":2931:2945  bookIds.length */\n      dup1\n      sload\n      swap1\n      pop\n        /* \"contracts/BookStore.sol\":2927:2928  i */\n      dup2\n        /* \"contracts/BookStore.sol\":2927:2945  i < bookIds.length */\n      lt\n        /* \"contracts/BookStore.sol\":2911:3164  for (uint256 i; i < bookIds.length;) {... */\n      iszero\n      tag_181\n      jumpi\n        /* \"contracts/BookStore.sol\":2981:2988  _bookId */\n      dup2\n        /* \"contracts/BookStore.sol\":2967:2974  bookIds */\n      0x03\n        /* \"contracts/BookStore.sol\":2975:2976  i */\n      dup3\n        /* \"contracts/BookStore.sol\":2967:2977  bookIds[i] */\n      dup2\n      sload\n      dup2\n      lt\n      tag_183\n      jumpi\n      tag_184\n      tag_126\n      jump\t// in\n    tag_184:\n    tag_183:\n      swap1\n      0x00\n      mstore\n      keccak256(0x00, 0x20)\n      add\n      sload\n        /* \"contracts/BookStore.sol\":2967:2988  bookIds[i] == _bookId */\n      sub\n        /* \"contracts/BookStore.sol\":2963:3121  if (bookIds[i] == _bookId) {... */\n      tag_186\n      jumpi\n        /* \"contracts/BookStore.sol\":3022:3029  bookIds */\n      0x03\n        /* \"contracts/BookStore.sol\":3047:3048  1 */\n      0x01\n        /* \"contracts/BookStore.sol\":3030:3037  bookIds */\n      0x03\n        /* \"contracts/BookStore.sol\":3030:3044  bookIds.length */\n      dup1\n      sload\n      swap1\n      pop\n        /* \"contracts/BookStore.sol\":3030:3048  bookIds.length - 1 */\n      tag_187\n      swap2\n      swap1\n      tag_188\n      jump\t// in\n    tag_187:\n        /* \"contracts/BookStore.sol\":3022:3049  bookIds[bookIds.length - 1] */\n      dup2\n      sload\n      dup2\n      lt\n      tag_189\n      jumpi\n      tag_190\n      tag_126\n      jump\t// in\n    tag_190:\n    tag_189:\n      swap1\n      0x00\n      mstore\n      keccak256(0x00, 0x20)\n      add\n      sload\n        /* \"contracts/BookStore.sol\":3009:3016  bookIds */\n      0x03\n        /* \"contracts/BookStore.sol\":3017:3018  i */\n      dup3\n        /* \"contracts/BookStore.sol\":3009:3019  bookIds[i] */\n      dup2\n      sload\n      dup2\n      lt\n      tag_192\n      jumpi\n      tag_193\n      tag_126\n      jump\t// in\n    tag_193:\n    tag_192:\n      swap1\n      0x00\n      mstore\n      keccak256(0x00, 0x20)\n      add\n        /* \"contracts/BookStore.sol\":3009:3049  bookIds[i] = bookIds[bookIds.length - 1] */\n      dup2\n      swap1\n      sstore\n      pop\n        /* \"contracts/BookStore.sol\":3068:3075  bookIds */\n      0x03\n        /* \"contracts/BookStore.sol\":3068:3081  bookIds.pop() */\n      dup1\n      sload\n      dup1\n      tag_195\n      jumpi\n      tag_196\n      tag_197\n      jump\t// in\n    tag_196:\n    tag_195:\n      0x01\n      swap1\n      sub\n      dup2\n      dup2\n      swap1\n      0x00\n      mstore\n      keccak256(0x00, 0x20)\n      add\n      0x00\n      swap1\n      sstore\n      swap1\n      sstore\n        /* \"contracts/BookStore.sol\":3100:3105  break */\n      jump(tag_181)\n        /* \"contracts/BookStore.sol\":2963:3121  if (bookIds[i] == _bookId) {... */\n    tag_186:\n        /* \"contracts/BookStore.sol\":3147:3150  ++i */\n      dup1\n      0x01\n      add\n      swap1\n      pop\n        /* \"contracts/BookStore.sol\":2911:3164  for (uint256 i; i < bookIds.length;) {... */\n      jump(tag_180)\n    tag_181:\n      pop\n        /* \"contracts/BookStore.sol\":3191:3198  _bookId */\n      dup1\n        /* \"contracts/BookStore.sol\":3179:3199  BookRemoved(_bookId) */\n      0x3c5ce13264433bcf97e5d53c97af4fc33800e8c9dd927f965b116d0018d7cddf\n      mload(0x40)\n      mload(0x40)\n      dup1\n      swap2\n      sub\n      swap1\n      log2\n        /* \"contracts/BookStore.sol\":2739:3207  function removeBook(uint256 _bookId) external onlyOwner {... */\n      pop\n      jump\t// out\n        /* \"contracts/BookStore.sol\":4675:4888  function Unsubcribe(address _customer) public {... */\n    tag_85:\n        /* \"contracts/BookStore.sol\":4740:4751  subscribers */\n      0x02\n        /* \"contracts/BookStore.sol\":4740:4762  subscribers[_customer] */\n      0x00\n        /* \"contracts/BookStore.sol\":4752:4761  _customer */\n      dup3\n        /* \"contracts/BookStore.sol\":4740:4762  subscribers[_customer] */\n      0xffffffffffffffffffffffffffffffffffffffff\n      and\n      0xffffffffffffffffffffffffffffffffffffffff\n      and\n      dup2\n      mstore\n      0x20\n      add\n      swap1\n      dup2\n      mstore\n      0x20\n      add\n      0x00\n      keccak256\n      0x00\n      swap1\n      sload\n      swap1\n      0x0100\n      exp\n      swap1\n      div\n      0xff\n      and\n        /* \"contracts/BookStore.sol\":4732:4794  require(subscribers[_customer], \"Customer Is Not Subscribed!\") */\n      tag_200\n      jumpi\n      mload(0x40)\n      0x08c379a000000000000000000000000000000000000000000000000000000000\n      dup2\n      mstore\n      0x04\n      add\n      tag_201\n      swap1\n      tag_141\n      jump\t// in\n    tag_201:\n      mload(0x40)\n      dup1\n      swap2\n      sub\n      swap1\n      revert\n    tag_200:\n        /* \"contracts/BookStore.sol\":4812:4823  subscribers */\n      0x02\n        /* \"contracts/BookStore.sol\":4812:4834  subscribers[_customer] */\n      0x00\n        /* \"contracts/BookStore.sol\":4824:4833  _customer */\n      dup3\n        /* \"contracts/BookStore.sol\":4812:4834  subscribers[_customer] */\n      0xffffffffffffffffffffffffffffffffffffffff\n      and\n      0xffffffffffffffffffffffffffffffffffffffff\n      and\n      dup2\n      mstore\n      0x20\n      add\n      swap1\n      dup2\n      mstore\n      0x20\n      add\n      0x00\n      keccak256\n      0x00\n        /* \"contracts/BookStore.sol\":4805:4834  delete subscribers[_customer] */\n      0x0100\n      exp\n      dup2\n      sload\n      swap1\n      0xff\n      mul\n      not\n      and\n      swap1\n      sstore\n        /* \"contracts/BookStore.sol\":4870:4879  _customer */\n      dup1\n        /* \"contracts/BookStore.sol\":4850:4880  SubscriptionRemoved(_customer) */\n      0xffffffffffffffffffffffffffffffffffffffff\n      and\n      0x5aaa4a885fe8afe482f8bb71a9c6e47dfcd1598f5f7eeee4a57f0ccb9e2b76b5\n      mload(0x40)\n      mload(0x40)\n      dup1\n      swap2\n      sub\n      swap1\n      log2\n        /* \"contracts/BookStore.sol\":4675:4888  function Unsubcribe(address _customer) public {... */\n      pop\n      jump\t// out\n        /* \"@openzeppelin/contracts/access/Ownable.sol\":2543:2758  function transferOwnership(address newOwner) public virtual onlyOwner {... */\n    tag_89:\n        /* \"@openzeppelin/contracts/access/Ownable.sol\":1531:1544  _checkOwner() */\n      tag_203\n        /* \"@openzeppelin/contracts/access/Ownable.sol\":1531:1542  _checkOwner */\n      tag_165\n        /* \"@openzeppelin/contracts/access/Ownable.sol\":1531:1544  _checkOwner() */\n      jump\t// in\n    tag_203:\n        /* \"@openzeppelin/contracts/access/Ownable.sol\":2647:2648  0 */\n      0x00\n        /* \"@openzeppelin/contracts/access/Ownable.sol\":2627:2649  newOwner == address(0) */\n      0xffffffffffffffffffffffffffffffffffffffff\n      and\n        /* \"@openzeppelin/contracts/access/Ownable.sol\":2627:2635  newOwner */\n      dup2\n        /* \"@openzeppelin/contracts/access/Ownable.sol\":2627:2649  newOwner == address(0) */\n      0xffffffffffffffffffffffffffffffffffffffff\n      and\n      sub\n        /* \"@openzeppelin/contracts/access/Ownable.sol\":2623:2714  if (newOwner == address(0)) {... */\n      tag_205\n      jumpi\n        /* \"@openzeppelin/contracts/access/Ownable.sol\":2700:2701  0 */\n      0x00\n        /* \"@openzeppelin/contracts/access/Ownable.sol\":2672:2703  OwnableInvalidOwner(address(0)) */\n      mload(0x40)\n      0x1e4fbdf700000000000000000000000000000000000000000000000000000000\n      dup2\n      mstore\n      0x04\n      add\n      tag_206\n      swap2\n      swap1\n      tag_72\n      jump\t// in\n    tag_206:\n      mload(0x40)\n      dup1\n      swap2\n      sub\n      swap1\n      revert\n        /* \"@openzeppelin/contracts/access/Ownable.sol\":2623:2714  if (newOwner == address(0)) {... */\n    tag_205:\n        /* \"@openzeppelin/contracts/access/Ownable.sol\":2723:2751  _transferOwnership(newOwner) */\n      tag_207\n        /* \"@openzeppelin/contracts/access/Ownable.sol\":2742:2750  newOwner */\n      dup2\n        /* \"@openzeppelin/contracts/access/Ownable.sol\":2723:2741  _transferOwnership */\n      tag_168\n        /* \"@openzeppelin/contracts/access/Ownable.sol\":2723:2751  _transferOwnership(newOwner) */\n      jump\t// in\n    tag_207:\n        /* \"@openzeppelin/contracts/access/Ownable.sol\":2543:2758  function transferOwnership(address newOwner) public virtual onlyOwner {... */\n      pop\n      jump\t// out\n        /* \"contracts/BookStore.sol\":3810:4412  function buyBook(uint256 _bookId, uint96 _quantity) public  virtual  payable {... */\n    tag_93:\n        /* \"contracts/BookStore.sol\":3898:3915  Book storage book */\n      0x00\n        /* \"contracts/BookStore.sol\":3918:3923  books */\n      0x01\n        /* \"contracts/BookStore.sol\":3918:3932  books[_bookId] */\n      0x00\n        /* \"contracts/BookStore.sol\":3924:3931  _bookId */\n      dup5\n        /* \"contracts/BookStore.sol\":3918:3932  books[_bookId] */\n      dup2\n      mstore\n      0x20\n      add\n      swap1\n      dup2\n      mstore\n      0x20\n      add\n      0x00\n      keccak256\n        /* \"contracts/BookStore.sol\":3898:3932  Book storage book = books[_bookId] */\n      swap1\n      pop\n        /* \"contracts/BookStore.sol\":3951:3955  book */\n      dup1\n        /* \"contracts/BookStore.sol\":3951:3967  book.isAvailable */\n      0x00\n      add\n      0x18\n      swap1\n      sload\n      swap1\n      0x0100\n      exp\n      swap1\n      div\n      0xff\n      and\n        /* \"contracts/BookStore.sol\":3943:3985  require(book.isAvailable, \"Not available\") */\n      tag_209\n      jumpi\n      mload(0x40)\n      0x08c379a000000000000000000000000000000000000000000000000000000000\n      dup2\n      mstore\n      0x04\n      add\n      tag_210\n      swap1\n      tag_211\n      jump\t// in\n    tag_210:\n      mload(0x40)\n      dup1\n      swap2\n      sub\n      swap1\n      revert\n    tag_209:\n        /* \"contracts/BookStore.sol\":4018:4027  _quantity */\n      dup2\n        /* \"contracts/BookStore.sol\":4004:4027  book.stock >= _quantity */\n      0xffffffffffffffffffffffff\n      and\n        /* \"contracts/BookStore.sol\":4004:4008  book */\n      dup2\n        /* \"contracts/BookStore.sol\":4004:4014  book.stock */\n      0x00\n      add\n      0x00\n      swap1\n      sload\n      swap1\n      0x0100\n      exp\n      swap1\n      div\n      0xffffffffffffffffffffffff\n      and\n        /* \"contracts/BookStore.sol\":4004:4027  book.stock >= _quantity */\n      0xffffffffffffffffffffffff\n      and\n      lt\n      iszero\n        /* \"contracts/BookStore.sol\":3996:4048  require(book.stock >= _quantity, \"Not enough stock\") */\n      tag_212\n      jumpi\n      mload(0x40)\n      0x08c379a000000000000000000000000000000000000000000000000000000000\n      dup2\n      mstore\n      0x04\n      add\n      tag_213\n      swap1\n      tag_214\n      jump\t// in\n    tag_213:\n      mload(0x40)\n      dup1\n      swap2\n      sub\n      swap1\n      revert\n    tag_212:\n        /* \"contracts/BookStore.sol\":4093:4102  _quantity */\n      dup2\n        /* \"contracts/BookStore.sol\":4080:4084  book */\n      dup2\n        /* \"contracts/BookStore.sol\":4080:4090  book.price */\n      0x00\n      add\n      0x0c\n      swap1\n      sload\n      swap1\n      0x0100\n      exp\n      swap1\n      div\n      0xffffffffffffffffffffffff\n      and\n        /* \"contracts/BookStore.sol\":4080:4102  book.price * _quantity */\n      tag_215\n      swap2\n      swap1\n      tag_108\n      jump\t// in\n    tag_215:\n        /* \"contracts/BookStore.sol\":4067:4102  msg.value == book.price * _quantity */\n      0xffffffffffffffffffffffff\n      and\n        /* \"contracts/BookStore.sol\":4067:4076  msg.value */\n      callvalue\n        /* \"contracts/BookStore.sol\":4067:4102  msg.value == book.price * _quantity */\n      eq\n        /* \"contracts/BookStore.sol\":4059:4120  require(msg.value == book.price * _quantity, \"Wrong payment\") */\n      tag_216\n      jumpi\n      mload(0x40)\n      0x08c379a000000000000000000000000000000000000000000000000000000000\n      dup2\n      mstore\n      0x04\n      add\n      tag_217\n      swap1\n      tag_218\n      jump\t// in\n    tag_217:\n      mload(0x40)\n      dup1\n      swap2\n      sub\n      swap1\n      revert\n    tag_216:\n        /* \"contracts/BookStore.sol\":4180:4189  _quantity */\n      dup2\n        /* \"contracts/BookStore.sol\":4166:4170  book */\n      dup2\n        /* \"contracts/BookStore.sol\":4166:4176  book.stock */\n      0x00\n      add\n      0x00\n        /* \"contracts/BookStore.sol\":4166:4189  book.stock -= _quantity */\n      dup3\n      dup3\n      dup3\n      swap1\n      sload\n      swap1\n      0x0100\n      exp\n      swap1\n      div\n      0xffffffffffffffffffffffff\n      and\n      sub\n      swap3\n      pop\n      0x0100\n      exp\n      dup2\n      sload\n      dup2\n      0xffffffffffffffffffffffff\n      mul\n      not\n      and\n      swap1\n      dup4\n      0xffffffffffffffffffffffff\n      and\n      mul\n      or\n      swap1\n      sstore\n      pop\n        /* \"contracts/BookStore.sol\":4222:4231  _quantity */\n      dup2\n        /* \"contracts/BookStore.sol\":4204:4218  totalBooksSold */\n      0x04\n      0x00\n        /* \"contracts/BookStore.sol\":4204:4231  totalBooksSold += _quantity */\n      dup3\n      dup3\n      dup3\n      swap1\n      sload\n      swap1\n      0x0100\n      exp\n      swap1\n      div\n      0xffffffffffffffffffffffff\n      and\n      add\n      swap3\n      pop\n      0x0100\n      exp\n      dup2\n      sload\n      dup2\n      0xffffffffffffffffffffffff\n      mul\n      not\n      and\n      swap1\n      dup4\n      0xffffffffffffffffffffffff\n      and\n      mul\n      or\n      swap1\n      sstore\n      pop\n        /* \"contracts/BookStore.sol\":4295:4296  0 */\n      0x00\n        /* \"contracts/BookStore.sol\":4282:4286  book */\n      dup2\n        /* \"contracts/BookStore.sol\":4282:4292  book.stock */\n      0x00\n      add\n      0x00\n      swap1\n      sload\n      swap1\n      0x0100\n      exp\n      swap1\n      div\n      0xffffffffffffffffffffffff\n      and\n        /* \"contracts/BookStore.sol\":4282:4296  book.stock > 0 */\n      0xffffffffffffffffffffffff\n      and\n      gt\n        /* \"contracts/BookStore.sol\":4263:4267  book */\n      dup2\n        /* \"contracts/BookStore.sol\":4263:4279  book.isAvailable */\n      0x00\n      add\n      0x18\n        /* \"contracts/BookStore.sol\":4263:4296  book.isAvailable = book.stock > 0 */\n      0x0100\n      exp\n      dup2\n      sload\n      dup2\n      0xff\n      mul\n      not\n      and\n      swap1\n      dup4\n      iszero\n      iszero\n      mul\n      or\n      swap1\n      sstore\n      pop\n        /* \"contracts/BookStore.sol\":4315:4322  owner() */\n      tag_219\n        /* \"contracts/BookStore.sol\":4315:4320  owner */\n      tag_70\n        /* \"contracts/BookStore.sol\":4315:4322  owner() */\n      jump\t// in\n    tag_219:\n        /* \"contracts/BookStore.sol\":4307:4332  payable(owner()).transfer */\n      0xffffffffffffffffffffffffffffffffffffffff\n      and\n        /* \"contracts/BookStore.sol\":4307:4343  payable(owner()).transfer(msg.value) */\n      0x08fc\n        /* \"contracts/BookStore.sol\":4333:4342  msg.value */\n      callvalue\n        /* \"contracts/BookStore.sol\":4307:4343  payable(owner()).transfer(msg.value) */\n      swap1\n      dup2\n      iszero\n      mul\n      swap1\n      mload(0x40)\n      0x00\n      mload(0x40)\n      dup1\n      dup4\n      sub\n      dup2\n      dup6\n      dup9\n      dup9\n      call\n      swap4\n      pop\n      pop\n      pop\n      pop\n      iszero\n      dup1\n      iszero\n      tag_221\n      jumpi\n      returndatasize\n      0x00\n      dup1\n      returndatacopy\n      revert(0x00, returndatasize)\n    tag_221:\n      pop\n        /* \"contracts/BookStore.sol\":4382:4392  msg.sender */\n      caller\n        /* \"contracts/BookStore.sol\":4359:4404  BookPurchased(_bookId, msg.sender, _quantity) */\n      0xffffffffffffffffffffffffffffffffffffffff\n      and\n        /* \"contracts/BookStore.sol\":4373:4380  _bookId */\n      dup4\n        /* \"contracts/BookStore.sol\":4359:4404  BookPurchased(_bookId, msg.sender, _quantity) */\n      0x4e8e9bc53224dd7f5549d1a97fe174d12e6ff0064e2ccb78d886fc515c98859d\n        /* \"contracts/BookStore.sol\":4394:4403  _quantity */\n      dup5\n        /* \"contracts/BookStore.sol\":4359:4404  BookPurchased(_bookId, msg.sender, _quantity) */\n      mload(0x40)\n      tag_222\n      swap2\n      swap1\n      tag_77\n      jump\t// in\n    tag_222:\n      mload(0x40)\n      dup1\n      swap2\n      sub\n      swap1\n      log3\n        /* \"contracts/BookStore.sol\":3887:4412  {... */\n      pop\n        /* \"contracts/BookStore.sol\":3810:4412  function buyBook(uint256 _bookId, uint96 _quantity) public  virtual  payable {... */\n      pop\n      pop\n      jump\t// out\n        /* \"contracts/BookStore.sol\":1903:2690  function removeBooks(uint256[] calldata _bookIds) external onlyOwner {... */\n    tag_98:\n        /* \"@openzeppelin/contracts/access/Ownable.sol\":1531:1544  _checkOwner() */\n      tag_224\n        /* \"@openzeppelin/contracts/access/Ownable.sol\":1531:1542  _checkOwner */\n      tag_165\n        /* \"@openzeppelin/contracts/access/Ownable.sol\":1531:1544  _checkOwner() */\n      jump\t// in\n    tag_224:\n        /* \"contracts/BookStore.sol\":1983:1997  uint256 length */\n      0x00\n        /* \"contracts/BookStore.sol\":2000:2008  _bookIds */\n      dup3\n      dup3\n        /* \"contracts/BookStore.sol\":2000:2015  _bookIds.length */\n      swap1\n      pop\n        /* \"contracts/BookStore.sol\":1983:2015  uint256 length = _bookIds.length */\n      swap1\n      pop\n        /* \"contracts/BookStore.sol\":2031:2040  uint256 i */\n      0x00\n        /* \"contracts/BookStore.sol\":2026:2641  for (uint256 i; i < length;) {... */\n    tag_226:\n        /* \"contracts/BookStore.sol\":2046:2052  length */\n      dup2\n        /* \"contracts/BookStore.sol\":2042:2043  i */\n      dup2\n        /* \"contracts/BookStore.sol\":2042:2052  i < length */\n      lt\n        /* \"contracts/BookStore.sol\":2026:2641  for (uint256 i; i < length;) {... */\n      iszero\n      tag_227\n      jumpi\n        /* \"contracts/BookStore.sol\":2110:2124  uint256 bookId */\n      0x00\n        /* \"contracts/BookStore.sol\":2127:2135  _bookIds */\n      dup5\n      dup5\n        /* \"contracts/BookStore.sol\":2136:2137  i */\n      dup4\n        /* \"contracts/BookStore.sol\":2127:2138  _bookIds[i] */\n      dup2\n      dup2\n      lt\n      tag_229\n      jumpi\n      tag_230\n      tag_126\n      jump\t// in\n    tag_230:\n    tag_229:\n      swap1\n      pop\n      0x20\n      mul\n      add\n      calldataload\n        /* \"contracts/BookStore.sol\":2110:2138  uint256 bookId = _bookIds[i] */\n      swap1\n      pop\n        /* \"contracts/BookStore.sol\":2184:2185  0 */\n      0x00\n        /* \"contracts/BookStore.sol\":2161:2166  books */\n      0x01\n        /* \"contracts/BookStore.sol\":2161:2174  books[bookId] */\n      0x00\n        /* \"contracts/BookStore.sol\":2167:2173  bookId */\n      dup4\n        /* \"contracts/BookStore.sol\":2161:2174  books[bookId] */\n      dup2\n      mstore\n      0x20\n      add\n      swap1\n      dup2\n      mstore\n      0x20\n      add\n      0x00\n      keccak256\n        /* \"contracts/BookStore.sol\":2161:2180  books[bookId].price */\n      0x00\n      add\n      0x0c\n      swap1\n      sload\n      swap1\n      0x0100\n      exp\n      swap1\n      div\n      0xffffffffffffffffffffffff\n      and\n        /* \"contracts/BookStore.sol\":2161:2185  books[bookId].price != 0 */\n      0xffffffffffffffffffffffff\n      and\n      sub\n        /* \"contracts/BookStore.sol\":2153:2204  require(books[bookId].price != 0, \"Book not exist\") */\n      tag_231\n      jumpi\n      mload(0x40)\n      0x08c379a000000000000000000000000000000000000000000000000000000000\n      dup2\n      mstore\n      0x04\n      add\n      tag_232\n      swap1\n      tag_176\n      jump\t// in\n    tag_232:\n      mload(0x40)\n      dup1\n      swap2\n      sub\n      swap1\n      revert\n    tag_231:\n        /* \"contracts/BookStore.sol\":2226:2231  books */\n      0x01\n        /* \"contracts/BookStore.sol\":2226:2239  books[bookId] */\n      0x00\n        /* \"contracts/BookStore.sol\":2232:2238  bookId */\n      dup3\n        /* \"contracts/BookStore.sol\":2226:2239  books[bookId] */\n      dup2\n      mstore\n      0x20\n      add\n      swap1\n      dup2\n      mstore\n      0x20\n      add\n      0x00\n      keccak256\n      0x00\n        /* \"contracts/BookStore.sol\":2219:2239  delete books[bookId] */\n      dup1\n      dup3\n      add\n      exp(0x0100, 0x00)\n      dup2\n      sload\n      swap1\n      0xffffffffffffffffffffffff\n      mul\n      not\n      and\n      swap1\n      sstore\n      0x00\n      dup3\n      add\n      exp(0x0100, 0x0c)\n      dup2\n      sload\n      swap1\n      0xffffffffffffffffffffffff\n      mul\n      not\n      and\n      swap1\n      sstore\n      0x00\n      dup3\n      add\n      exp(0x0100, 0x18)\n      dup2\n      sload\n      swap1\n      0xff\n      mul\n      not\n      and\n      swap1\n      sstore\n      0x01\n      dup3\n      add\n      0x00\n      tag_233\n      swap2\n      swap1\n      tag_178\n      jump\t// in\n    tag_233:\n      0x02\n      dup3\n      add\n      0x00\n      tag_234\n      swap2\n      swap1\n      tag_178\n      jump\t// in\n    tag_234:\n      pop\n      pop\n        /* \"contracts/BookStore.sol\":2323:2332  uint256 j */\n      0x00\n        /* \"contracts/BookStore.sol\":2318:2598  for (uint256 j; j < bookIds.length;) {... */\n    tag_235:\n        /* \"contracts/BookStore.sol\":2338:2345  bookIds */\n      0x03\n        /* \"contracts/BookStore.sol\":2338:2352  bookIds.length */\n      dup1\n      sload\n      swap1\n      pop\n        /* \"contracts/BookStore.sol\":2334:2335  j */\n      dup2\n        /* \"contracts/BookStore.sol\":2334:2352  j < bookIds.length */\n      lt\n        /* \"contracts/BookStore.sol\":2318:2598  for (uint256 j; j < bookIds.length;) {... */\n      iszero\n      tag_236\n      jumpi\n        /* \"contracts/BookStore.sol\":2392:2398  bookId */\n      dup2\n        /* \"contracts/BookStore.sol\":2378:2385  bookIds */\n      0x03\n        /* \"contracts/BookStore.sol\":2386:2387  j */\n      dup3\n        /* \"contracts/BookStore.sol\":2378:2388  bookIds[j] */\n      dup2\n      sload\n      dup2\n      lt\n      tag_238\n      jumpi\n      tag_239\n      tag_126\n      jump\t// in\n    tag_239:\n    tag_238:\n      swap1\n      0x00\n      mstore\n      keccak256(0x00, 0x20)\n      add\n      sload\n        /* \"contracts/BookStore.sol\":2378:2398  bookIds[j] == bookId */\n      sub\n        /* \"contracts/BookStore.sol\":2374:2547  if (bookIds[j] == bookId) {... */\n      tag_241\n      jumpi\n        /* \"contracts/BookStore.sol\":2436:2443  bookIds */\n      0x03\n        /* \"contracts/BookStore.sol\":2461:2462  1 */\n      0x01\n        /* \"contracts/BookStore.sol\":2444:2451  bookIds */\n      0x03\n        /* \"contracts/BookStore.sol\":2444:2458  bookIds.length */\n      dup1\n      sload\n      swap1\n      pop\n        /* \"contracts/BookStore.sol\":2444:2462  bookIds.length - 1 */\n      tag_242\n      swap2\n      swap1\n      tag_188\n      jump\t// in\n    tag_242:\n        /* \"contracts/BookStore.sol\":2436:2463  bookIds[bookIds.length - 1] */\n      dup2\n      sload\n      dup2\n      lt\n      tag_243\n      jumpi\n      tag_244\n      tag_126\n      jump\t// in\n    tag_244:\n    tag_243:\n      swap1\n      0x00\n      mstore\n      keccak256(0x00, 0x20)\n      add\n      sload\n        /* \"contracts/BookStore.sol\":2423:2430  bookIds */\n      0x03\n        /* \"contracts/BookStore.sol\":2431:2432  j */\n      dup3\n        /* \"contracts/BookStore.sol\":2423:2433  bookIds[j] */\n      dup2\n      sload\n      dup2\n      lt\n      tag_246\n      jumpi\n      tag_247\n      tag_126\n      jump\t// in\n    tag_247:\n    tag_246:\n      swap1\n      0x00\n      mstore\n      keccak256(0x00, 0x20)\n      add\n        /* \"contracts/BookStore.sol\":2423:2463  bookIds[j] = bookIds[bookIds.length - 1] */\n      dup2\n      swap1\n      sstore\n      pop\n        /* \"contracts/BookStore.sol\":2486:2493  bookIds */\n      0x03\n        /* \"contracts/BookStore.sol\":2486:2499  bookIds.pop() */\n      dup1\n      sload\n      dup1\n      tag_249\n      jumpi\n      tag_250\n      tag_197\n      jump\t// in\n    tag_250:\n    tag_249:\n      0x01\n      swap1\n      sub\n      dup2\n      dup2\n      swap1\n      0x00\n      mstore\n      keccak256(0x00, 0x20)\n      add\n      0x00\n      swap1\n      sstore\n      swap1\n      sstore\n        /* \"contracts/BookStore.sol\":2522:2527  break */\n      jump(tag_236)\n        /* \"contracts/BookStore.sol\":2374:2547  if (bookIds[j] == bookId) {... */\n    tag_241:\n        /* \"contracts/BookStore.sol\":2577:2580  ++j */\n      dup1\n      0x01\n      add\n      swap1\n      pop\n        /* \"contracts/BookStore.sol\":2318:2598  for (uint256 j; j < bookIds.length;) {... */\n      jump(tag_235)\n    tag_236:\n      pop\n        /* \"contracts/BookStore.sol\":2624:2627  ++i */\n      dup2\n      0x01\n      add\n      swap2\n      pop\n        /* \"contracts/BookStore.sol\":2055:2641  {... */\n      pop\n        /* \"contracts/BookStore.sol\":2026:2641  for (uint256 i; i < length;) {... */\n      jump(tag_226)\n    tag_227:\n      pop\n        /* \"contracts/BookStore.sol\":2656:2682  BookBatchRemoved(_bookIds) */\n      0x7262be1e48c30c363173fcb2fbf2dc2cb38d076dee42cc37cdfbdf62af5c3bed\n        /* \"contracts/BookStore.sol\":2673:2681  _bookIds */\n      dup4\n      dup4\n        /* \"contracts/BookStore.sol\":2656:2682  BookBatchRemoved(_bookIds) */\n      mload(0x40)\n      tag_252\n      swap3\n      swap2\n      swap1\n      tag_253\n      jump\t// in\n    tag_252:\n      mload(0x40)\n      dup1\n      swap2\n      sub\n      swap1\n      log1\n        /* \"contracts/BookStore.sol\":1972:2690  {... */\n      pop\n        /* \"contracts/BookStore.sol\":1903:2690  function removeBooks(uint256[] calldata _bookIds) external onlyOwner {... */\n      pop\n      pop\n      jump\t// out\n        /* \"@openzeppelin/contracts/access/Ownable.sol\":1796:1958  function _checkOwner() internal view virtual {... */\n    tag_165:\n        /* \"@openzeppelin/contracts/access/Ownable.sol\":1866:1878  _msgSender() */\n      tag_255\n        /* \"@openzeppelin/contracts/access/Ownable.sol\":1866:1876  _msgSender */\n      tag_256\n        /* \"@openzeppelin/contracts/access/Ownable.sol\":1866:1878  _msgSender() */\n      jump\t// in\n    tag_255:\n        /* \"@openzeppelin/contracts/access/Ownable.sol\":1855:1878  owner() != _msgSender() */\n      0xffffffffffffffffffffffffffffffffffffffff\n      and\n        /* \"@openzeppelin/contracts/access/Ownable.sol\":1855:1862  owner() */\n      tag_257\n        /* \"@openzeppelin/contracts/access/Ownable.sol\":1855:1860  owner */\n      tag_70\n        /* \"@openzeppelin/contracts/access/Ownable.sol\":1855:1862  owner() */\n      jump\t// in\n    tag_257:\n        /* \"@openzeppelin/contracts/access/Ownable.sol\":1855:1878  owner() != _msgSender() */\n      0xffffffffffffffffffffffffffffffffffffffff\n      and\n      eq\n        /* \"@openzeppelin/contracts/access/Ownable.sol\":1851:1952  if (owner() != _msgSender()) {... */\n      tag_258\n      jumpi\n        /* \"@openzeppelin/contracts/access/Ownable.sol\":1928:1940  _msgSender() */\n      tag_259\n        /* \"@openzeppelin/contracts/access/Ownable.sol\":1928:1938  _msgSender */\n      tag_256\n        /* \"@openzeppelin/contracts/access/Ownable.sol\":1928:1940  _msgSender() */\n      jump\t// in\n    tag_259:\n        /* \"@openzeppelin/contracts/access/Ownable.sol\":1901:1941  OwnableUnauthorizedAccount(_msgSender()) */\n      mload(0x40)\n      0x118cdaa700000000000000000000000000000000000000000000000000000000\n      dup2\n      mstore\n      0x04\n      add\n      tag_260\n      swap2\n      swap1\n      tag_72\n      jump\t// in\n    tag_260:\n      mload(0x40)\n      dup1\n      swap2\n      sub\n      swap1\n      revert\n        /* \"@openzeppelin/contracts/access/Ownable.sol\":1851:1952  if (owner() != _msgSender()) {... */\n    tag_258:\n        /* \"@openzeppelin/contracts/access/Ownable.sol\":1796:1958  function _checkOwner() internal view virtual {... */\n      jump\t// out\n        /* \"@openzeppelin/contracts/access/Ownable.sol\":2912:3099  function _transferOwnership(address newOwner) internal virtual {... */\n    tag_168:\n        /* \"@openzeppelin/contracts/access/Ownable.sol\":2985:3001  address oldOwner */\n      0x00\n        /* \"@openzeppelin/contracts/access/Ownable.sol\":3004:3010  _owner */\n      dup1\n      0x00\n      swap1\n      sload\n      swap1\n      0x0100\n      exp\n      swap1\n      div\n      0xffffffffffffffffffffffffffffffffffffffff\n      and\n        /* \"@openzeppelin/contracts/access/Ownable.sol\":2985:3010  address oldOwner = _owner */\n      swap1\n      pop\n        /* \"@openzeppelin/contracts/access/Ownable.sol\":3029:3037  newOwner */\n      dup2\n        /* \"@openzeppelin/contracts/access/Ownable.sol\":3020:3026  _owner */\n      0x00\n      dup1\n        /* \"@openzeppelin/contracts/access/Ownable.sol\":3020:3037  _owner = newOwner */\n      0x0100\n      exp\n      dup2\n      sload\n      dup2\n      0xffffffffffffffffffffffffffffffffffffffff\n      mul\n      not\n      and\n      swap1\n      dup4\n      0xffffffffffffffffffffffffffffffffffffffff\n      and\n      mul\n      or\n      swap1\n      sstore\n      pop\n        /* \"@openzeppelin/contracts/access/Ownable.sol\":3083:3091  newOwner */\n      dup2\n        /* \"@openzeppelin/contracts/access/Ownable.sol\":3052:3092  OwnershipTransferred(oldOwner, newOwner) */\n      0xffffffffffffffffffffffffffffffffffffffff\n      and\n        /* \"@openzeppelin/contracts/access/Ownable.sol\":3073:3081  oldOwner */\n      dup2\n        /* \"@openzeppelin/contracts/access/Ownable.sol\":3052:3092  OwnershipTransferred(oldOwner, newOwner) */\n      0xffffffffffffffffffffffffffffffffffffffff\n      and\n      0x8be0079c531659141344cd1fd0a4f28419497f9722a3daafe3b4186f6b6457e0\n      mload(0x40)\n      mload(0x40)\n      dup1\n      swap2\n      sub\n      swap1\n      log3\n        /* \"@openzeppelin/contracts/access/Ownable.sol\":2975:3099  {... */\n      pop\n        /* \"@openzeppelin/contracts/access/Ownable.sol\":2912:3099  function _transferOwnership(address newOwner) internal virtual {... */\n      pop\n      jump\t// out\n        /* \"@openzeppelin/contracts/utils/Context.sol\":656:752  function _msgSender() internal view virtual returns (address) {... */\n    tag_256:\n        /* \"@openzeppelin/contracts/utils/Context.sol\":709:716  address */\n      0x00\n        /* \"@openzeppelin/contracts/utils/Context.sol\":735:745  msg.sender */\n      caller\n        /* \"@openzeppelin/contracts/utils/Context.sol\":728:745  return msg.sender */\n      swap1\n      pop\n        /* \"@openzeppelin/contracts/utils/Context.sol\":656:752  function _msgSender() internal view virtual returns (address) {... */\n      swap1\n      jump\t// out\n    tag_178:\n      pop\n      dup1\n      sload\n      tag_263\n      swap1\n      tag_129\n      jump\t// in\n    tag_263:\n      0x00\n      dup3\n      sstore\n      dup1\n      0x1f\n      lt\n      tag_265\n      jumpi\n      pop\n      jump(tag_264)\n    tag_265:\n      0x1f\n      add\n      0x20\n      swap1\n      div\n      swap1\n      0x00\n      mstore\n      keccak256(0x00, 0x20)\n      swap1\n      dup2\n      add\n      swap1\n      tag_266\n      swap2\n      swap1\n      tag_267\n      jump\t// in\n    tag_266:\n    tag_264:\n      pop\n      jump\t// out\n    tag_267:\n    tag_268:\n      dup1\n      dup3\n      gt\n      iszero\n      tag_269\n      jumpi\n      0x00\n      dup2\n      0x00\n      swap1\n      sstore\n      pop\n      0x01\n      add\n      jump(tag_268)\n    tag_269:\n      pop\n      swap1\n      jump\t// out\n        /* \"#utility.yul\":88:205   */\n    tag_271:\n        /* \"#utility.yul\":197:198   */\n      0x00\n        /* \"#utility.yul\":194:195   */\n      dup1\n        /* \"#utility.yul\":187:199   */\n      revert\n        /* \"#utility.yul\":211:328   */\n    tag_272:\n        /* \"#utility.yul\":320:321   */\n      0x00\n        /* \"#utility.yul\":317:318   */\n      dup1\n        /* \"#utility.yul\":310:322   */\n      revert\n        /* \"#utility.yul\":334:460   */\n    tag_273:\n        /* \"#utility.yul\":371:378   */\n      0x00\n        /* \"#utility.yul\":411:453   */\n      0xffffffffffffffffffffffffffffffffffffffff\n        /* \"#utility.yul\":404:409   */\n      dup3\n        /* \"#utility.yul\":400:454   */\n      and\n        /* \"#utility.yul\":389:454   */\n      swap1\n      pop\n        /* \"#utility.yul\":334:460   */\n      swap2\n      swap1\n      pop\n      jump\t// out\n        /* \"#utility.yul\":466:562   */\n    tag_274:\n        /* \"#utility.yul\":503:510   */\n      0x00\n        /* \"#utility.yul\":532:556   */\n      tag_349\n        /* \"#utility.yul\":550:555   */\n      dup3\n        /* \"#utility.yul\":532:556   */\n      tag_273\n      jump\t// in\n    tag_349:\n        /* \"#utility.yul\":521:556   */\n      swap1\n      pop\n        /* \"#utility.yul\":466:562   */\n      swap2\n      swap1\n      pop\n      jump\t// out\n        /* \"#utility.yul\":568:690   */\n    tag_275:\n        /* \"#utility.yul\":641:665   */\n      tag_351\n        /* \"#utility.yul\":659:664   */\n      dup2\n        /* \"#utility.yul\":641:665   */\n      tag_274\n      jump\t// in\n    tag_351:\n        /* \"#utility.yul\":634:639   */\n      dup2\n        /* \"#utility.yul\":631:666   */\n      eq\n        /* \"#utility.yul\":621:684   */\n      tag_352\n      jumpi\n        /* \"#utility.yul\":680:681   */\n      0x00\n        /* \"#utility.yul\":677:678   */\n      dup1\n        /* \"#utility.yul\":670:682   */\n      revert\n        /* \"#utility.yul\":621:684   */\n    tag_352:\n        /* \"#utility.yul\":568:690   */\n      pop\n      jump\t// out\n        /* \"#utility.yul\":696:835   */\n    tag_276:\n        /* \"#utility.yul\":742:747   */\n      0x00\n        /* \"#utility.yul\":780:786   */\n      dup2\n        /* \"#utility.yul\":767:787   */\n      calldataload\n        /* \"#utility.yul\":758:787   */\n      swap1\n      pop\n        /* \"#utility.yul\":796:829   */\n      tag_354\n        /* \"#utility.yul\":823:828   */\n      dup2\n        /* \"#utility.yul\":796:829   */\n      tag_275\n      jump\t// in\n    tag_354:\n        /* \"#utility.yul\":696:835   */\n      swap3\n      swap2\n      pop\n      pop\n      jump\t// out\n        /* \"#utility.yul\":841:1170   */\n    tag_24:\n        /* \"#utility.yul\":900:906   */\n      0x00\n        /* \"#utility.yul\":949:951   */\n      0x20\n        /* \"#utility.yul\":937:946   */\n      dup3\n        /* \"#utility.yul\":928:935   */\n      dup5\n        /* \"#utility.yul\":924:947   */\n      sub\n        /* \"#utility.yul\":920:952   */\n      slt\n        /* \"#utility.yul\":917:1036   */\n      iszero\n      tag_356\n      jumpi\n        /* \"#utility.yul\":955:1034   */\n      tag_357\n      tag_271\n      jump\t// in\n    tag_357:\n        /* \"#utility.yul\":917:1036   */\n    tag_356:\n        /* \"#utility.yul\":1075:1076   */\n      0x00\n        /* \"#utility.yul\":1100:1153   */\n      tag_358\n        /* \"#utility.yul\":1145:1152   */\n      dup5\n        /* \"#utility.yul\":1136:1142   */\n      dup3\n        /* \"#utility.yul\":1125:1134   */\n      dup6\n        /* \"#utility.yul\":1121:1143   */\n      add\n        /* \"#utility.yul\":1100:1153   */\n      tag_276\n      jump\t// in\n    tag_358:\n        /* \"#utility.yul\":1090:1153   */\n      swap2\n      pop\n        /* \"#utility.yul\":1046:1163   */\n      pop\n        /* \"#utility.yul\":841:1170   */\n      swap3\n      swap2\n      pop\n      pop\n      jump\t// out\n        /* \"#utility.yul\":1176:1253   */\n    tag_277:\n        /* \"#utility.yul\":1213:1220   */\n      0x00\n        /* \"#utility.yul\":1242:1247   */\n      dup2\n        /* \"#utility.yul\":1231:1247   */\n      swap1\n      pop\n        /* \"#utility.yul\":1176:1253   */\n      swap2\n      swap1\n      pop\n      jump\t// out\n        /* \"#utility.yul\":1259:1381   */\n    tag_278:\n        /* \"#utility.yul\":1332:1356   */\n      tag_361\n        /* \"#utility.yul\":1350:1355   */\n      dup2\n        /* \"#utility.yul\":1332:1356   */\n      tag_277\n      jump\t// in\n    tag_361:\n        /* \"#utility.yul\":1325:1330   */\n      dup2\n        /* \"#utility.yul\":1322:1357   */\n      eq\n        /* \"#utility.yul\":1312:1375   */\n      tag_362\n      jumpi\n        /* \"#utility.yul\":1371:1372   */\n      0x00\n        /* \"#utility.yul\":1368:1369   */\n      dup1\n        /* \"#utility.yul\":1361:1373   */\n      revert\n        /* \"#utility.yul\":1312:1375   */\n    tag_362:\n        /* \"#utility.yul\":1259:1381   */\n      pop\n      jump\t// out\n        /* \"#utility.yul\":1387:1526   */\n    tag_279:\n        /* \"#utility.yul\":1433:1438   */\n      0x00\n        /* \"#utility.yul\":1471:1477   */\n      dup2\n        /* \"#utility.yul\":1458:1478   */\n      calldataload\n        /* \"#utility.yul\":1449:1478   */\n      swap1\n      pop\n        /* \"#utility.yul\":1487:1520   */\n      tag_364\n        /* \"#utility.yul\":1514:1519   */\n      dup2\n        /* \"#utility.yul\":1487:1520   */\n      tag_278\n      jump\t// in\n    tag_364:\n        /* \"#utility.yul\":1387:1526   */\n      swap3\n      swap2\n      pop\n      pop\n      jump\t// out\n        /* \"#utility.yul\":1532:1649   */\n    tag_280:\n        /* \"#utility.yul\":1641:1642   */\n      0x00\n        /* \"#utility.yul\":1638:1639   */\n      dup1\n        /* \"#utility.yul\":1631:1643   */\n      revert\n        /* \"#utility.yul\":1655:1772   */\n    tag_281:\n        /* \"#utility.yul\":1764:1765   */\n      0x00\n        /* \"#utility.yul\":1761:1762   */\n      dup1\n        /* \"#utility.yul\":1754:1766   */\n      revert\n        /* \"#utility.yul\":1778:1895   */\n    tag_282:\n        /* \"#utility.yul\":1887:1888   */\n      0x00\n        /* \"#utility.yul\":1884:1885   */\n      dup1\n        /* \"#utility.yul\":1877:1889   */\n      revert\n        /* \"#utility.yul\":1915:2468   */\n    tag_283:\n        /* \"#utility.yul\":1973:1981   */\n      0x00\n        /* \"#utility.yul\":1983:1989   */\n      dup1\n        /* \"#utility.yul\":2033:2036   */\n      dup4\n        /* \"#utility.yul\":2026:2030   */\n      0x1f\n        /* \"#utility.yul\":2018:2024   */\n      dup5\n        /* \"#utility.yul\":2014:2031   */\n      add\n        /* \"#utility.yul\":2010:2037   */\n      slt\n        /* \"#utility.yul\":2000:2122   */\n      tag_369\n      jumpi\n        /* \"#utility.yul\":2041:2120   */\n      tag_370\n      tag_280\n      jump\t// in\n    tag_370:\n        /* \"#utility.yul\":2000:2122   */\n    tag_369:\n        /* \"#utility.yul\":2154:2160   */\n      dup3\n        /* \"#utility.yul\":2141:2161   */\n      calldataload\n        /* \"#utility.yul\":2131:2161   */\n      swap1\n      pop\n        /* \"#utility.yul\":2184:2202   */\n      0xffffffffffffffff\n        /* \"#utility.yul\":2176:2182   */\n      dup2\n        /* \"#utility.yul\":2173:2203   */\n      gt\n        /* \"#utility.yul\":2170:2287   */\n      iszero\n      tag_371\n      jumpi\n        /* \"#utility.yul\":2206:2285   */\n      tag_372\n      tag_281\n      jump\t// in\n    tag_372:\n        /* \"#utility.yul\":2170:2287   */\n    tag_371:\n        /* \"#utility.yul\":2320:2324   */\n      0x20\n        /* \"#utility.yul\":2312:2318   */\n      dup4\n        /* \"#utility.yul\":2308:2325   */\n      add\n        /* \"#utility.yul\":2296:2325   */\n      swap2\n      pop\n        /* \"#utility.yul\":2374:2377   */\n      dup4\n        /* \"#utility.yul\":2366:2370   */\n      0x01\n        /* \"#utility.yul\":2358:2364   */\n      dup3\n        /* \"#utility.yul\":2354:2371   */\n      mul\n        /* \"#utility.yul\":2344:2352   */\n      dup4\n        /* \"#utility.yul\":2340:2372   */\n      add\n        /* \"#utility.yul\":2337:2378   */\n      gt\n        /* \"#utility.yul\":2334:2462   */\n      iszero\n      tag_373\n      jumpi\n        /* \"#utility.yul\":2381:2460   */\n      tag_374\n      tag_282\n      jump\t// in\n    tag_374:\n        /* \"#utility.yul\":2334:2462   */\n    tag_373:\n        /* \"#utility.yul\":1915:2468   */\n      swap3\n      pop\n      swap3\n      swap1\n      pop\n      jump\t// out\n        /* \"#utility.yul\":2474:2583   */\n    tag_284:\n        /* \"#utility.yul\":2510:2517   */\n      0x00\n        /* \"#utility.yul\":2550:2576   */\n      0xffffffffffffffffffffffff\n        /* \"#utility.yul\":2543:2548   */\n      dup3\n        /* \"#utility.yul\":2539:2577   */\n      and\n        /* \"#utility.yul\":2528:2577   */\n      swap1\n      pop\n        /* \"#utility.yul\":2474:2583   */\n      swap2\n      swap1\n      pop\n      jump\t// out\n        /* \"#utility.yul\":2589:2709   */\n    tag_285:\n        /* \"#utility.yul\":2661:2684   */\n      tag_377\n        /* \"#utility.yul\":2678:2683   */\n      dup2\n        /* \"#utility.yul\":2661:2684   */\n      tag_284\n      jump\t// in\n    tag_377:\n        /* \"#utility.yul\":2654:2659   */\n      dup2\n        /* \"#utility.yul\":2651:2685   */\n      eq\n        /* \"#utility.yul\":2641:2703   */\n      tag_378\n      jumpi\n        /* \"#utility.yul\":2699:2700   */\n      0x00\n        /* \"#utility.yul\":2696:2697   */\n      dup1\n        /* \"#utility.yul\":2689:2701   */\n      revert\n        /* \"#utility.yul\":2641:2703   */\n    tag_378:\n        /* \"#utility.yul\":2589:2709   */\n      pop\n      jump\t// out\n        /* \"#utility.yul\":2715:2852   */\n    tag_286:\n        /* \"#utility.yul\":2760:2765   */\n      0x00\n        /* \"#utility.yul\":2798:2804   */\n      dup2\n        /* \"#utility.yul\":2785:2805   */\n      calldataload\n        /* \"#utility.yul\":2776:2805   */\n      swap1\n      pop\n        /* \"#utility.yul\":2814:2846   */\n      tag_380\n        /* \"#utility.yul\":2840:2845   */\n      dup2\n        /* \"#utility.yul\":2814:2846   */\n      tag_285\n      jump\t// in\n    tag_380:\n        /* \"#utility.yul\":2715:2852   */\n      swap3\n      swap2\n      pop\n      pop\n      jump\t// out\n        /* \"#utility.yul\":2858:4165   */\n    tag_29:\n        /* \"#utility.yul\":2975:2981   */\n      0x00\n        /* \"#utility.yul\":2983:2989   */\n      dup1\n        /* \"#utility.yul\":2991:2997   */\n      0x00\n        /* \"#utility.yul\":2999:3005   */\n      dup1\n        /* \"#utility.yul\":3007:3013   */\n      0x00\n        /* \"#utility.yul\":3015:3021   */\n      dup1\n        /* \"#utility.yul\":3023:3029   */\n      0x00\n        /* \"#utility.yul\":3072:3075   */\n      0xa0\n        /* \"#utility.yul\":3060:3069   */\n      dup9\n        /* \"#utility.yul\":3051:3058   */\n      dup11\n        /* \"#utility.yul\":3047:3070   */\n      sub\n        /* \"#utility.yul\":3043:3076   */\n      slt\n        /* \"#utility.yul\":3040:3160   */\n      iszero\n      tag_382\n      jumpi\n        /* \"#utility.yul\":3079:3158   */\n      tag_383\n      tag_271\n      jump\t// in\n    tag_383:\n        /* \"#utility.yul\":3040:3160   */\n    tag_382:\n        /* \"#utility.yul\":3199:3200   */\n      0x00\n        /* \"#utility.yul\":3224:3277   */\n      tag_384\n        /* \"#utility.yul\":3269:3276   */\n      dup11\n        /* \"#utility.yul\":3260:3266   */\n      dup3\n        /* \"#utility.yul\":3249:3258   */\n      dup12\n        /* \"#utility.yul\":3245:3267   */\n      add\n        /* \"#utility.yul\":3224:3277   */\n      tag_279\n      jump\t// in\n    tag_384:\n        /* \"#utility.yul\":3214:3277   */\n      swap8\n      pop\n        /* \"#utility.yul\":3170:3287   */\n      pop\n        /* \"#utility.yul\":3354:3356   */\n      0x20\n        /* \"#utility.yul\":3343:3352   */\n      dup9\n        /* \"#utility.yul\":3339:3357   */\n      add\n        /* \"#utility.yul\":3326:3358   */\n      calldataload\n        /* \"#utility.yul\":3385:3403   */\n      0xffffffffffffffff\n        /* \"#utility.yul\":3377:3383   */\n      dup2\n        /* \"#utility.yul\":3374:3404   */\n      gt\n        /* \"#utility.yul\":3371:3488   */\n      iszero\n      tag_385\n      jumpi\n        /* \"#utility.yul\":3407:3486   */\n      tag_386\n      tag_272\n      jump\t// in\n    tag_386:\n        /* \"#utility.yul\":3371:3488   */\n    tag_385:\n        /* \"#utility.yul\":3520:3585   */\n      tag_387\n        /* \"#utility.yul\":3577:3584   */\n      dup11\n        /* \"#utility.yul\":3568:3574   */\n      dup3\n        /* \"#utility.yul\":3557:3566   */\n      dup12\n        /* \"#utility.yul\":3553:3575   */\n      add\n        /* \"#utility.yul\":3520:3585   */\n      tag_283\n      jump\t// in\n    tag_387:\n        /* \"#utility.yul\":3502:3585   */\n      swap7\n      pop\n      swap7\n      pop\n        /* \"#utility.yul\":3297:3595   */\n      pop\n        /* \"#utility.yul\":3662:3664   */\n      0x40\n        /* \"#utility.yul\":3651:3660   */\n      dup9\n        /* \"#utility.yul\":3647:3665   */\n      add\n        /* \"#utility.yul\":3634:3666   */\n      calldataload\n        /* \"#utility.yul\":3693:3711   */\n      0xffffffffffffffff\n        /* \"#utility.yul\":3685:3691   */\n      dup2\n        /* \"#utility.yul\":3682:3712   */\n      gt\n        /* \"#utility.yul\":3679:3796   */\n      iszero\n      tag_388\n      jumpi\n        /* \"#utility.yul\":3715:3794   */\n      tag_389\n      tag_272\n      jump\t// in\n    tag_389:\n        /* \"#utility.yul\":3679:3796   */\n    tag_388:\n        /* \"#utility.yul\":3828:3893   */\n      tag_390\n        /* \"#utility.yul\":3885:3892   */\n      dup11\n        /* \"#utility.yul\":3876:3882   */\n      dup3\n        /* \"#utility.yul\":3865:3874   */\n      dup12\n        /* \"#utility.yul\":3861:3883   */\n      add\n        /* \"#utility.yul\":3828:3893   */\n      tag_283\n      jump\t// in\n    tag_390:\n        /* \"#utility.yul\":3810:3893   */\n      swap5\n      pop\n      swap5\n      pop\n        /* \"#utility.yul\":3605:3903   */\n      pop\n        /* \"#utility.yul\":3942:3944   */\n      0x60\n        /* \"#utility.yul\":3968:4020   */\n      tag_391\n        /* \"#utility.yul\":4012:4019   */\n      dup11\n        /* \"#utility.yul\":4003:4009   */\n      dup3\n        /* \"#utility.yul\":3992:4001   */\n      dup12\n        /* \"#utility.yul\":3988:4010   */\n      add\n        /* \"#utility.yul\":3968:4020   */\n      tag_286\n      jump\t// in\n    tag_391:\n        /* \"#utility.yul\":3958:4020   */\n      swap3\n      pop\n        /* \"#utility.yul\":3913:4030   */\n      pop\n        /* \"#utility.yul\":4069:4072   */\n      0x80\n        /* \"#utility.yul\":4096:4148   */\n      tag_392\n        /* \"#utility.yul\":4140:4147   */\n      dup11\n        /* \"#utility.yul\":4131:4137   */\n      dup3\n        /* \"#utility.yul\":4120:4129   */\n      dup12\n        /* \"#utility.yul\":4116:4138   */\n      add\n        /* \"#utility.yul\":4096:4148   */\n      tag_286\n      jump\t// in\n    tag_392:\n        /* \"#utility.yul\":4086:4148   */\n      swap2\n      pop\n        /* \"#utility.yul\":4040:4158   */\n      pop\n        /* \"#utility.yul\":2858:4165   */\n      swap3\n      swap6\n      swap9\n      swap2\n      swap5\n      swap8\n      pop\n      swap3\n      swap6\n      pop\n      jump\t// out\n        /* \"#utility.yul\":4171:4295   */\n    tag_287:\n        /* \"#utility.yul\":4248:4254   */\n      0x00\n        /* \"#utility.yul\":4282:4287   */\n      dup2\n        /* \"#utility.yul\":4276:4288   */\n      mload\n        /* \"#utility.yul\":4266:4288   */\n      swap1\n      pop\n        /* \"#utility.yul\":4171:4295   */\n      swap2\n      swap1\n      pop\n      jump\t// out\n        /* \"#utility.yul\":4301:4495   */\n    tag_288:\n        /* \"#utility.yul\":4410:4421   */\n      0x00\n        /* \"#utility.yul\":4444:4450   */\n      dup3\n        /* \"#utility.yul\":4439:4442   */\n      dup3\n        /* \"#utility.yul\":4432:4451   */\n      mstore\n        /* \"#utility.yul\":4484:4488   */\n      0x20\n        /* \"#utility.yul\":4479:4482   */\n      dup3\n        /* \"#utility.yul\":4475:4489   */\n      add\n        /* \"#utility.yul\":4460:4489   */\n      swap1\n      pop\n        /* \"#utility.yul\":4301:4495   */\n      swap3\n      swap2\n      pop\n      pop\n      jump\t// out\n        /* \"#utility.yul\":4501:4643   */\n    tag_289:\n        /* \"#utility.yul\":4578:4582   */\n      0x00\n        /* \"#utility.yul\":4601:4604   */\n      dup2\n        /* \"#utility.yul\":4593:4604   */\n      swap1\n      pop\n        /* \"#utility.yul\":4631:4635   */\n      0x20\n        /* \"#utility.yul\":4626:4629   */\n      dup3\n        /* \"#utility.yul\":4622:4636   */\n      add\n        /* \"#utility.yul\":4614:4636   */\n      swap1\n      pop\n        /* \"#utility.yul\":4501:4643   */\n      swap2\n      swap1\n      pop\n      jump\t// out\n        /* \"#utility.yul\":4649:4748   */\n    tag_290:\n        /* \"#utility.yul\":4701:4707   */\n      0x00\n        /* \"#utility.yul\":4735:4740   */\n      dup2\n        /* \"#utility.yul\":4729:4741   */\n      mload\n        /* \"#utility.yul\":4719:4741   */\n      swap1\n      pop\n        /* \"#utility.yul\":4649:4748   */\n      swap2\n      swap1\n      pop\n      jump\t// out\n        /* \"#utility.yul\":4754:4913   */\n    tag_291:\n        /* \"#utility.yul\":4828:4839   */\n      0x00\n        /* \"#utility.yul\":4862:4868   */\n      dup3\n        /* \"#utility.yul\":4857:4860   */\n      dup3\n        /* \"#utility.yul\":4850:4869   */\n      mstore\n        /* \"#utility.yul\":4902:4906   */\n      0x20\n        /* \"#utility.yul\":4897:4900   */\n      dup3\n        /* \"#utility.yul\":4893:4907   */\n      add\n        /* \"#utility.yul\":4878:4907   */\n      swap1\n      pop\n        /* \"#utility.yul\":4754:4913   */\n      swap3\n      swap2\n      pop\n      pop\n      jump\t// out\n        /* \"#utility.yul\":4919:5058   */\n    tag_292:\n        /* \"#utility.yul\":5008:5014   */\n      dup3\n        /* \"#utility.yul\":5003:5006   */\n      dup2\n        /* \"#utility.yul\":4998:5001   */\n      dup4\n        /* \"#utility.yul\":4992:5015   */\n      mcopy\n        /* \"#utility.yul\":5049:5050   */\n      0x00\n        /* \"#utility.yul\":5040:5046   */\n      dup4\n        /* \"#utility.yul\":5035:5038   */\n      dup4\n        /* \"#utility.yul\":5031:5047   */\n      add\n        /* \"#utility.yul\":5024:5051   */\n      mstore\n        /* \"#utility.yul\":4919:5058   */\n      pop\n      pop\n      pop\n      jump\t// out\n        /* \"#utility.yul\":5064:5166   */\n    tag_293:\n        /* \"#utility.yul\":5105:5111   */\n      0x00\n        /* \"#utility.yul\":5156:5158   */\n      0x1f\n        /* \"#utility.yul\":5152:5159   */\n      not\n        /* \"#utility.yul\":5147:5149   */\n      0x1f\n        /* \"#utility.yul\":5140:5145   */\n      dup4\n        /* \"#utility.yul\":5136:5150   */\n      add\n        /* \"#utility.yul\":5132:5160   */\n      and\n        /* \"#utility.yul\":5122:5160   */\n      swap1\n      pop\n        /* \"#utility.yul\":5064:5166   */\n      swap2\n      swap1\n      pop\n      jump\t// out\n        /* \"#utility.yul\":5172:5529   */\n    tag_294:\n        /* \"#utility.yul\":5250:5253   */\n      0x00\n        /* \"#utility.yul\":5278:5317   */\n      tag_401\n        /* \"#utility.yul\":5311:5316   */\n      dup3\n        /* \"#utility.yul\":5278:5317   */\n      tag_290\n      jump\t// in\n    tag_401:\n        /* \"#utility.yul\":5333:5394   */\n      tag_402\n        /* \"#utility.yul\":5387:5393   */\n      dup2\n        /* \"#utility.yul\":5382:5385   */\n      dup6\n        /* \"#utility.yul\":5333:5394   */\n      tag_291\n      jump\t// in\n    tag_402:\n        /* \"#utility.yul\":5326:5394   */\n      swap4\n      pop\n        /* \"#utility.yul\":5403:5468   */\n      tag_403\n        /* \"#utility.yul\":5461:5467   */\n      dup2\n        /* \"#utility.yul\":5456:5459   */\n      dup6\n        /* \"#utility.yul\":5449:5453   */\n      0x20\n        /* \"#utility.yul\":5442:5447   */\n      dup7\n        /* \"#utility.yul\":5438:5454   */\n      add\n        /* \"#utility.yul\":5403:5468   */\n      tag_292\n      jump\t// in\n    tag_403:\n        /* \"#utility.yul\":5493:5522   */\n      tag_404\n        /* \"#utility.yul\":5515:5521   */\n      dup2\n        /* \"#utility.yul\":5493:5522   */\n      tag_293\n      jump\t// in\n    tag_404:\n        /* \"#utility.yul\":5488:5491   */\n      dup5\n        /* \"#utility.yul\":5484:5523   */\n      add\n        /* \"#utility.yul\":5477:5523   */\n      swap2\n      pop\n        /* \"#utility.yul\":5254:5529   */\n      pop\n        /* \"#utility.yul\":5172:5529   */\n      swap3\n      swap2\n      pop\n      pop\n      jump\t// out\n        /* \"#utility.yul\":5535:5731   */\n    tag_295:\n        /* \"#utility.yul\":5624:5634   */\n      0x00\n        /* \"#utility.yul\":5659:5725   */\n      tag_406\n        /* \"#utility.yul\":5721:5724   */\n      dup4\n        /* \"#utility.yul\":5713:5719   */\n      dup4\n        /* \"#utility.yul\":5659:5725   */\n      tag_294\n      jump\t// in\n    tag_406:\n        /* \"#utility.yul\":5645:5725   */\n      swap1\n      pop\n        /* \"#utility.yul\":5535:5731   */\n      swap3\n      swap2\n      pop\n      pop\n      jump\t// out\n        /* \"#utility.yul\":5737:5860   */\n    tag_296:\n        /* \"#utility.yul\":5817:5821   */\n      0x00\n        /* \"#utility.yul\":5849:5853   */\n      0x20\n        /* \"#utility.yul\":5844:5847   */\n      dup3\n        /* \"#utility.yul\":5840:5854   */\n      add\n        /* \"#utility.yul\":5832:5854   */\n      swap1\n      pop\n        /* \"#utility.yul\":5737:5860   */\n      swap2\n      swap1\n      pop\n      jump\t// out\n        /* \"#utility.yul\":5894:6885   */\n    tag_297:\n        /* \"#utility.yul\":6033:6036   */\n      0x00\n        /* \"#utility.yul\":6062:6126   */\n      tag_409\n        /* \"#utility.yul\":6120:6125   */\n      dup3\n        /* \"#utility.yul\":6062:6126   */\n      tag_287\n      jump\t// in\n    tag_409:\n        /* \"#utility.yul\":6142:6238   */\n      tag_410\n        /* \"#utility.yul\":6231:6237   */\n      dup2\n        /* \"#utility.yul\":6226:6229   */\n      dup6\n        /* \"#utility.yul\":6142:6238   */\n      tag_288\n      jump\t// in\n    tag_410:\n        /* \"#utility.yul\":6135:6238   */\n      swap4\n      pop\n        /* \"#utility.yul\":6264:6267   */\n      dup4\n        /* \"#utility.yul\":6309:6313   */\n      0x20\n        /* \"#utility.yul\":6301:6307   */\n      dup3\n        /* \"#utility.yul\":6297:6314   */\n      mul\n        /* \"#utility.yul\":6292:6295   */\n      dup6\n        /* \"#utility.yul\":6288:6315   */\n      add\n        /* \"#utility.yul\":6339:6405   */\n      tag_411\n        /* \"#utility.yul\":6399:6404   */\n      dup6\n        /* \"#utility.yul\":6339:6405   */\n      tag_289\n      jump\t// in\n    tag_411:\n        /* \"#utility.yul\":6428:6435   */\n      dup1\n        /* \"#utility.yul\":6459:6460   */\n      0x00\n        /* \"#utility.yul\":6444:6840   */\n    tag_412:\n        /* \"#utility.yul\":6469:6475   */\n      dup6\n        /* \"#utility.yul\":6466:6467   */\n      dup2\n        /* \"#utility.yul\":6463:6476   */\n      lt\n        /* \"#utility.yul\":6444:6840   */\n      iszero\n      tag_414\n      jumpi\n        /* \"#utility.yul\":6540:6549   */\n      dup5\n        /* \"#utility.yul\":6534:6538   */\n      dup5\n        /* \"#utility.yul\":6530:6550   */\n      sub\n        /* \"#utility.yul\":6525:6528   */\n      dup10\n        /* \"#utility.yul\":6518:6551   */\n      mstore\n        /* \"#utility.yul\":6591:6597   */\n      dup2\n        /* \"#utility.yul\":6585:6598   */\n      mload\n        /* \"#utility.yul\":6619:6703   */\n      tag_415\n        /* \"#utility.yul\":6698:6702   */\n      dup6\n        /* \"#utility.yul\":6683:6696   */\n      dup3\n        /* \"#utility.yul\":6619:6703   */\n      tag_295\n      jump\t// in\n    tag_415:\n        /* \"#utility.yul\":6611:6703   */\n      swap5\n      pop\n        /* \"#utility.yul\":6726:6796   */\n      tag_416\n        /* \"#utility.yul\":6789:6795   */\n      dup4\n        /* \"#utility.yul\":6726:6796   */\n      tag_296\n      jump\t// in\n    tag_416:\n        /* \"#utility.yul\":6716:6796   */\n      swap3\n      pop\n        /* \"#utility.yul\":6825:6829   */\n      0x20\n        /* \"#utility.yul\":6820:6823   */\n      dup11\n        /* \"#utility.yul\":6816:6830   */\n      add\n        /* \"#utility.yul\":6809:6830   */\n      swap10\n      pop\n        /* \"#utility.yul\":6504:6840   */\n      pop\n        /* \"#utility.yul\":6491:6492   */\n      0x01\n        /* \"#utility.yul\":6488:6489   */\n      dup2\n        /* \"#utility.yul\":6484:6493   */\n      add\n        /* \"#utility.yul\":6479:6493   */\n      swap1\n      pop\n        /* \"#utility.yul\":6444:6840   */\n      jump(tag_412)\n    tag_414:\n        /* \"#utility.yul\":6448:6462   */\n      pop\n        /* \"#utility.yul\":6856:6860   */\n      dup3\n        /* \"#utility.yul\":6849:6860   */\n      swap8\n      pop\n        /* \"#utility.yul\":6876:6879   */\n      dup8\n        /* \"#utility.yul\":6869:6879   */\n      swap6\n      pop\n        /* \"#utility.yul\":6038:6885   */\n      pop\n      pop\n      pop\n      pop\n      pop\n        /* \"#utility.yul\":5894:6885   */\n      swap3\n      swap2\n      pop\n      pop\n      jump\t// out\n        /* \"#utility.yul\":6891:7304   */\n    tag_35:\n        /* \"#utility.yul\":7054:7058   */\n      0x00\n        /* \"#utility.yul\":7092:7094   */\n      0x20\n        /* \"#utility.yul\":7081:7090   */\n      dup3\n        /* \"#utility.yul\":7077:7095   */\n      add\n        /* \"#utility.yul\":7069:7095   */\n      swap1\n      pop\n        /* \"#utility.yul\":7141:7150   */\n      dup2\n        /* \"#utility.yul\":7135:7139   */\n      dup2\n        /* \"#utility.yul\":7131:7151   */\n      sub\n        /* \"#utility.yul\":7127:7128   */\n      0x00\n        /* \"#utility.yul\":7116:7125   */\n      dup4\n        /* \"#utility.yul\":7112:7129   */\n      add\n        /* \"#utility.yul\":7105:7152   */\n      mstore\n        /* \"#utility.yul\":7169:7297   */\n      tag_418\n        /* \"#utility.yul\":7292:7296   */\n      dup2\n        /* \"#utility.yul\":7283:7289   */\n      dup5\n        /* \"#utility.yul\":7169:7297   */\n      tag_297\n      jump\t// in\n    tag_418:\n        /* \"#utility.yul\":7161:7297   */\n      swap1\n      pop\n        /* \"#utility.yul\":6891:7304   */\n      swap3\n      swap2\n      pop\n      pop\n      jump\t// out\n        /* \"#utility.yul\":7310:7400   */\n    tag_298:\n        /* \"#utility.yul\":7344:7351   */\n      0x00\n        /* \"#utility.yul\":7387:7392   */\n      dup2\n        /* \"#utility.yul\":7380:7393   */\n      iszero\n        /* \"#utility.yul\":7373:7394   */\n      iszero\n        /* \"#utility.yul\":7362:7394   */\n      swap1\n      pop\n        /* \"#utility.yul\":7310:7400   */\n      swap2\n      swap1\n      pop\n      jump\t// out\n        /* \"#utility.yul\":7406:7515   */\n    tag_299:\n        /* \"#utility.yul\":7487:7508   */\n      tag_421\n        /* \"#utility.yul\":7502:7507   */\n      dup2\n        /* \"#utility.yul\":7487:7508   */\n      tag_298\n      jump\t// in\n    tag_421:\n        /* \"#utility.yul\":7482:7485   */\n      dup3\n        /* \"#utility.yul\":7475:7509   */\n      mstore\n        /* \"#utility.yul\":7406:7515   */\n      pop\n      pop\n      jump\t// out\n        /* \"#utility.yul\":7521:7731   */\n    tag_41:\n        /* \"#utility.yul\":7608:7612   */\n      0x00\n        /* \"#utility.yul\":7646:7648   */\n      0x20\n        /* \"#utility.yul\":7635:7644   */\n      dup3\n        /* \"#utility.yul\":7631:7649   */\n      add\n        /* \"#utility.yul\":7623:7649   */\n      swap1\n      pop\n        /* \"#utility.yul\":7659:7724   */\n      tag_423\n        /* \"#utility.yul\":7721:7722   */\n      0x00\n        /* \"#utility.yul\":7710:7719   */\n      dup4\n        /* \"#utility.yul\":7706:7723   */\n      add\n        /* \"#utility.yul\":7697:7703   */\n      dup5\n        /* \"#utility.yul\":7659:7724   */\n      tag_299\n      jump\t// in\n    tag_423:\n        /* \"#utility.yul\":7521:7731   */\n      swap3\n      swap2\n      pop\n      pop\n      jump\t// out\n        /* \"#utility.yul\":7737:7855   */\n    tag_300:\n        /* \"#utility.yul\":7824:7848   */\n      tag_425\n        /* \"#utility.yul\":7842:7847   */\n      dup2\n        /* \"#utility.yul\":7824:7848   */\n      tag_277\n      jump\t// in\n    tag_425:\n        /* \"#utility.yul\":7819:7822   */\n      dup3\n        /* \"#utility.yul\":7812:7849   */\n      mstore\n        /* \"#utility.yul\":7737:7855   */\n      pop\n      pop\n      jump\t// out\n        /* \"#utility.yul\":7861:8083   */\n    tag_46:\n        /* \"#utility.yul\":7954:7958   */\n      0x00\n        /* \"#utility.yul\":7992:7994   */\n      0x20\n        /* \"#utility.yul\":7981:7990   */\n      dup3\n        /* \"#utility.yul\":7977:7995   */\n      add\n        /* \"#utility.yul\":7969:7995   */\n      swap1\n      pop\n        /* \"#utility.yul\":8005:8076   */\n      tag_427\n        /* \"#utility.yul\":8073:8074   */\n      0x00\n        /* \"#utility.yul\":8062:8071   */\n      dup4\n        /* \"#utility.yul\":8058:8075   */\n      add\n        /* \"#utility.yul\":8049:8055   */\n      dup5\n        /* \"#utility.yul\":8005:8076   */\n      tag_300\n      jump\t// in\n    tag_427:\n        /* \"#utility.yul\":7861:8083   */\n      swap3\n      swap2\n      pop\n      pop\n      jump\t// out\n        /* \"#utility.yul\":8089:8418   */\n    tag_55:\n        /* \"#utility.yul\":8148:8154   */\n      0x00\n        /* \"#utility.yul\":8197:8199   */\n      0x20\n        /* \"#utility.yul\":8185:8194   */\n      dup3\n        /* \"#utility.yul\":8176:8183   */\n      dup5\n        /* \"#utility.yul\":8172:8195   */\n      sub\n        /* \"#utility.yul\":8168:8200   */\n      slt\n        /* \"#utility.yul\":8165:8284   */\n      iszero\n      tag_429\n      jumpi\n        /* \"#utility.yul\":8203:8282   */\n      tag_430\n      tag_271\n      jump\t// in\n    tag_430:\n        /* \"#utility.yul\":8165:8284   */\n    tag_429:\n        /* \"#utility.yul\":8323:8324   */\n      0x00\n        /* \"#utility.yul\":8348:8401   */\n      tag_431\n        /* \"#utility.yul\":8393:8400   */\n      dup5\n        /* \"#utility.yul\":8384:8390   */\n      dup3\n        /* \"#utility.yul\":8373:8382   */\n      dup6\n        /* \"#utility.yul\":8369:8391   */\n      add\n        /* \"#utility.yul\":8348:8401   */\n      tag_279\n      jump\t// in\n    tag_431:\n        /* \"#utility.yul\":8338:8401   */\n      swap2\n      pop\n        /* \"#utility.yul\":8294:8411   */\n      pop\n        /* \"#utility.yul\":8089:8418   */\n      swap3\n      swap2\n      pop\n      pop\n      jump\t// out\n        /* \"#utility.yul\":8424:8593   */\n    tag_301:\n        /* \"#utility.yul\":8508:8519   */\n      0x00\n        /* \"#utility.yul\":8542:8548   */\n      dup3\n        /* \"#utility.yul\":8537:8540   */\n      dup3\n        /* \"#utility.yul\":8530:8549   */\n      mstore\n        /* \"#utility.yul\":8582:8586   */\n      0x20\n        /* \"#utility.yul\":8577:8580   */\n      dup3\n        /* \"#utility.yul\":8573:8587   */\n      add\n        /* \"#utility.yul\":8558:8587   */\n      swap1\n      pop\n        /* \"#utility.yul\":8424:8593   */\n      swap3\n      swap2\n      pop\n      pop\n      jump\t// out\n        /* \"#utility.yul\":8599:8976   */\n    tag_302:\n        /* \"#utility.yul\":8687:8690   */\n      0x00\n        /* \"#utility.yul\":8715:8754   */\n      tag_434\n        /* \"#utility.yul\":8748:8753   */\n      dup3\n        /* \"#utility.yul\":8715:8754   */\n      tag_290\n      jump\t// in\n    tag_434:\n        /* \"#utility.yul\":8770:8841   */\n      tag_435\n        /* \"#utility.yul\":8834:8840   */\n      dup2\n        /* \"#utility.yul\":8829:8832   */\n      dup6\n        /* \"#utility.yul\":8770:8841   */\n      tag_301\n      jump\t// in\n    tag_435:\n        /* \"#utility.yul\":8763:8841   */\n      swap4\n      pop\n        /* \"#utility.yul\":8850:8915   */\n      tag_436\n        /* \"#utility.yul\":8908:8914   */\n      dup2\n        /* \"#utility.yul\":8903:8906   */\n      dup6\n        /* \"#utility.yul\":8896:8900   */\n      0x20\n        /* \"#utility.yul\":8889:8894   */\n      dup7\n        /* \"#utility.yul\":8885:8901   */\n      add\n        /* \"#utility.yul\":8850:8915   */\n      tag_292\n      jump\t// in\n    tag_436:\n        /* \"#utility.yul\":8940:8969   */\n      tag_437\n        /* \"#utility.yul\":8962:8968   */\n      dup2\n        /* \"#utility.yul\":8940:8969   */\n      tag_293\n      jump\t// in\n    tag_437:\n        /* \"#utility.yul\":8935:8938   */\n      dup5\n        /* \"#utility.yul\":8931:8970   */\n      add\n        /* \"#utility.yul\":8924:8970   */\n      swap2\n      pop\n        /* \"#utility.yul\":8691:8976   */\n      pop\n        /* \"#utility.yul\":8599:8976   */\n      swap3\n      swap2\n      pop\n      pop\n      jump\t// out\n        /* \"#utility.yul\":8982:9097   */\n    tag_303:\n        /* \"#utility.yul\":9067:9090   */\n      tag_439\n        /* \"#utility.yul\":9084:9089   */\n      dup2\n        /* \"#utility.yul\":9067:9090   */\n      tag_284\n      jump\t// in\n    tag_439:\n        /* \"#utility.yul\":9062:9065   */\n      dup3\n        /* \"#utility.yul\":9055:9091   */\n      mstore\n        /* \"#utility.yul\":8982:9097   */\n      pop\n      pop\n      jump\t// out\n        /* \"#utility.yul\":9103:9929   */\n    tag_58:\n        /* \"#utility.yul\":9338:9342   */\n      0x00\n        /* \"#utility.yul\":9376:9379   */\n      0xa0\n        /* \"#utility.yul\":9365:9374   */\n      dup3\n        /* \"#utility.yul\":9361:9380   */\n      add\n        /* \"#utility.yul\":9353:9380   */\n      swap1\n      pop\n        /* \"#utility.yul\":9426:9435   */\n      dup2\n        /* \"#utility.yul\":9420:9424   */\n      dup2\n        /* \"#utility.yul\":9416:9436   */\n      sub\n        /* \"#utility.yul\":9412:9413   */\n      0x00\n        /* \"#utility.yul\":9401:9410   */\n      dup4\n        /* \"#utility.yul\":9397:9414   */\n      add\n        /* \"#utility.yul\":9390:9437   */\n      mstore\n        /* \"#utility.yul\":9454:9532   */\n      tag_441\n        /* \"#utility.yul\":9527:9531   */\n      dup2\n        /* \"#utility.yul\":9518:9524   */\n      dup9\n        /* \"#utility.yul\":9454:9532   */\n      tag_302\n      jump\t// in\n    tag_441:\n        /* \"#utility.yul\":9446:9532   */\n      swap1\n      pop\n        /* \"#utility.yul\":9579:9588   */\n      dup2\n        /* \"#utility.yul\":9573:9577   */\n      dup2\n        /* \"#utility.yul\":9569:9589   */\n      sub\n        /* \"#utility.yul\":9564:9566   */\n      0x20\n        /* \"#utility.yul\":9553:9562   */\n      dup4\n        /* \"#utility.yul\":9549:9567   */\n      add\n        /* \"#utility.yul\":9542:9590   */\n      mstore\n        /* \"#utility.yul\":9607:9685   */\n      tag_442\n        /* \"#utility.yul\":9680:9684   */\n      dup2\n        /* \"#utility.yul\":9671:9677   */\n      dup8\n        /* \"#utility.yul\":9607:9685   */\n      tag_302\n      jump\t// in\n    tag_442:\n        /* \"#utility.yul\":9599:9685   */\n      swap1\n      pop\n        /* \"#utility.yul\":9695:9765   */\n      tag_443\n        /* \"#utility.yul\":9761:9763   */\n      0x40\n        /* \"#utility.yul\":9750:9759   */\n      dup4\n        /* \"#utility.yul\":9746:9764   */\n      add\n        /* \"#utility.yul\":9737:9743   */\n      dup7\n        /* \"#utility.yul\":9695:9765   */\n      tag_303\n      jump\t// in\n    tag_443:\n        /* \"#utility.yul\":9775:9845   */\n      tag_444\n        /* \"#utility.yul\":9841:9843   */\n      0x60\n        /* \"#utility.yul\":9830:9839   */\n      dup4\n        /* \"#utility.yul\":9826:9844   */\n      add\n        /* \"#utility.yul\":9817:9823   */\n      dup6\n        /* \"#utility.yul\":9775:9845   */\n      tag_303\n      jump\t// in\n    tag_444:\n        /* \"#utility.yul\":9855:9922   */\n      tag_445\n        /* \"#utility.yul\":9917:9920   */\n      0x80\n        /* \"#utility.yul\":9906:9915   */\n      dup4\n        /* \"#utility.yul\":9902:9921   */\n      add\n        /* \"#utility.yul\":9893:9899   */\n      dup5\n        /* \"#utility.yul\":9855:9922   */\n      tag_299\n      jump\t// in\n    tag_445:\n        /* \"#utility.yul\":9103:9929   */\n      swap7\n      swap6\n      pop\n      pop\n      pop\n      pop\n      pop\n      pop\n      jump\t// out\n        /* \"#utility.yul\":9935:10761   */\n    tag_64:\n        /* \"#utility.yul\":10170:10174   */\n      0x00\n        /* \"#utility.yul\":10208:10211   */\n      0xa0\n        /* \"#utility.yul\":10197:10206   */\n      dup3\n        /* \"#utility.yul\":10193:10212   */\n      add\n        /* \"#utility.yul\":10185:10212   */\n      swap1\n      pop\n        /* \"#utility.yul\":10222:10291   */\n      tag_447\n        /* \"#utility.yul\":10288:10289   */\n      0x00\n        /* \"#utility.yul\":10277:10286   */\n      dup4\n        /* \"#utility.yul\":10273:10290   */\n      add\n        /* \"#utility.yul\":10264:10270   */\n      dup9\n        /* \"#utility.yul\":10222:10291   */\n      tag_303\n      jump\t// in\n    tag_447:\n        /* \"#utility.yul\":10301:10371   */\n      tag_448\n        /* \"#utility.yul\":10367:10369   */\n      0x20\n        /* \"#utility.yul\":10356:10365   */\n      dup4\n        /* \"#utility.yul\":10352:10370   */\n      add\n        /* \"#utility.yul\":10343:10349   */\n      dup8\n        /* \"#utility.yul\":10301:10371   */\n      tag_303\n      jump\t// in\n    tag_448:\n        /* \"#utility.yul\":10381:10447   */\n      tag_449\n        /* \"#utility.yul\":10443:10445   */\n      0x40\n        /* \"#utility.yul\":10432:10441   */\n      dup4\n        /* \"#utility.yul\":10428:10446   */\n      add\n        /* \"#utility.yul\":10419:10425   */\n      dup7\n        /* \"#utility.yul\":10381:10447   */\n      tag_299\n      jump\t// in\n    tag_449:\n        /* \"#utility.yul\":10494:10503   */\n      dup2\n        /* \"#utility.yul\":10488:10492   */\n      dup2\n        /* \"#utility.yul\":10484:10504   */\n      sub\n        /* \"#utility.yul\":10479:10481   */\n      0x60\n        /* \"#utility.yul\":10468:10477   */\n      dup4\n        /* \"#utility.yul\":10464:10482   */\n      add\n        /* \"#utility.yul\":10457:10505   */\n      mstore\n        /* \"#utility.yul\":10522:10600   */\n      tag_450\n        /* \"#utility.yul\":10595:10599   */\n      dup2\n        /* \"#utility.yul\":10586:10592   */\n      dup6\n        /* \"#utility.yul\":10522:10600   */\n      tag_302\n      jump\t// in\n    tag_450:\n        /* \"#utility.yul\":10514:10600   */\n      swap1\n      pop\n        /* \"#utility.yul\":10648:10657   */\n      dup2\n        /* \"#utility.yul\":10642:10646   */\n      dup2\n        /* \"#utility.yul\":10638:10658   */\n      sub\n        /* \"#utility.yul\":10632:10635   */\n      0x80\n        /* \"#utility.yul\":10621:10630   */\n      dup4\n        /* \"#utility.yul\":10617:10636   */\n      add\n        /* \"#utility.yul\":10610:10659   */\n      mstore\n        /* \"#utility.yul\":10676:10754   */\n      tag_451\n        /* \"#utility.yul\":10749:10753   */\n      dup2\n        /* \"#utility.yul\":10740:10746   */\n      dup5\n        /* \"#utility.yul\":10676:10754   */\n      tag_302\n      jump\t// in\n    tag_451:\n        /* \"#utility.yul\":10668:10754   */\n      swap1\n      pop\n        /* \"#utility.yul\":9935:10761   */\n      swap7\n      swap6\n      pop\n      pop\n      pop\n      pop\n      pop\n      pop\n      jump\t// out\n        /* \"#utility.yul\":10767:10885   */\n    tag_304:\n        /* \"#utility.yul\":10854:10878   */\n      tag_453\n        /* \"#utility.yul\":10872:10877   */\n      dup2\n        /* \"#utility.yul\":10854:10878   */\n      tag_274\n      jump\t// in\n    tag_453:\n        /* \"#utility.yul\":10849:10852   */\n      dup3\n        /* \"#utility.yul\":10842:10879   */\n      mstore\n        /* \"#utility.yul\":10767:10885   */\n      pop\n      pop\n      jump\t// out\n        /* \"#utility.yul\":10891:11113   */\n    tag_72:\n        /* \"#utility.yul\":10984:10988   */\n      0x00\n        /* \"#utility.yul\":11022:11024   */\n      0x20\n        /* \"#utility.yul\":11011:11020   */\n      dup3\n        /* \"#utility.yul\":11007:11025   */\n      add\n        /* \"#utility.yul\":10999:11025   */\n      swap1\n      pop\n        /* \"#utility.yul\":11035:11106   */\n      tag_455\n        /* \"#utility.yul\":11103:11104   */\n      0x00\n        /* \"#utility.yul\":11092:11101   */\n      dup4\n        /* \"#utility.yul\":11088:11105   */\n      add\n        /* \"#utility.yul\":11079:11085   */\n      dup5\n        /* \"#utility.yul\":11035:11106   */\n      tag_304\n      jump\t// in\n    tag_455:\n        /* \"#utility.yul\":10891:11113   */\n      swap3\n      swap2\n      pop\n      pop\n      jump\t// out\n        /* \"#utility.yul\":11119:11337   */\n    tag_77:\n        /* \"#utility.yul\":11210:11214   */\n      0x00\n        /* \"#utility.yul\":11248:11250   */\n      0x20\n        /* \"#utility.yul\":11237:11246   */\n      dup3\n        /* \"#utility.yul\":11233:11251   */\n      add\n        /* \"#utility.yul\":11225:11251   */\n      swap1\n      pop\n        /* \"#utility.yul\":11261:11330   */\n      tag_457\n        /* \"#utility.yul\":11327:11328   */\n      0x00\n        /* \"#utility.yul\":11316:11325   */\n      dup4\n        /* \"#utility.yul\":11312:11329   */\n      add\n        /* \"#utility.yul\":11303:11309   */\n      dup5\n        /* \"#utility.yul\":11261:11330   */\n      tag_303\n      jump\t// in\n    tag_457:\n        /* \"#utility.yul\":11119:11337   */\n      swap3\n      swap2\n      pop\n      pop\n      jump\t// out\n        /* \"#utility.yul\":11343:11815   */\n    tag_92:\n        /* \"#utility.yul\":11410:11416   */\n      0x00\n        /* \"#utility.yul\":11418:11424   */\n      dup1\n        /* \"#utility.yul\":11467:11469   */\n      0x40\n        /* \"#utility.yul\":11455:11464   */\n      dup4\n        /* \"#utility.yul\":11446:11453   */\n      dup6\n        /* \"#utility.yul\":11442:11465   */\n      sub\n        /* \"#utility.yul\":11438:11470   */\n      slt\n        /* \"#utility.yul\":11435:11554   */\n      iszero\n      tag_459\n      jumpi\n        /* \"#utility.yul\":11473:11552   */\n      tag_460\n      tag_271\n      jump\t// in\n    tag_460:\n        /* \"#utility.yul\":11435:11554   */\n    tag_459:\n        /* \"#utility.yul\":11593:11594   */\n      0x00\n        /* \"#utility.yul\":11618:11671   */\n      tag_461\n        /* \"#utility.yul\":11663:11670   */\n      dup6\n        /* \"#utility.yul\":11654:11660   */\n      dup3\n        /* \"#utility.yul\":11643:11652   */\n      dup7\n        /* \"#utility.yul\":11639:11661   */\n      add\n        /* \"#utility.yul\":11618:11671   */\n      tag_279\n      jump\t// in\n    tag_461:\n        /* \"#utility.yul\":11608:11671   */\n      swap3\n      pop\n        /* \"#utility.yul\":11564:11681   */\n      pop\n        /* \"#utility.yul\":11720:11722   */\n      0x20\n        /* \"#utility.yul\":11746:11798   */\n      tag_462\n        /* \"#utility.yul\":11790:11797   */\n      dup6\n        /* \"#utility.yul\":11781:11787   */\n      dup3\n        /* \"#utility.yul\":11770:11779   */\n      dup7\n        /* \"#utility.yul\":11766:11788   */\n      add\n        /* \"#utility.yul\":11746:11798   */\n      tag_286\n      jump\t// in\n    tag_462:\n        /* \"#utility.yul\":11736:11798   */\n      swap2\n      pop\n        /* \"#utility.yul\":11691:11808   */\n      pop\n        /* \"#utility.yul\":11343:11815   */\n      swap3\n      pop\n      swap3\n      swap1\n      pop\n      jump\t// out\n        /* \"#utility.yul\":11838:12406   */\n    tag_305:\n        /* \"#utility.yul\":11911:11919   */\n      0x00\n        /* \"#utility.yul\":11921:11927   */\n      dup1\n        /* \"#utility.yul\":11971:11974   */\n      dup4\n        /* \"#utility.yul\":11964:11968   */\n      0x1f\n        /* \"#utility.yul\":11956:11962   */\n      dup5\n        /* \"#utility.yul\":11952:11969   */\n      add\n        /* \"#utility.yul\":11948:11975   */\n      slt\n        /* \"#utility.yul\":11938:12060   */\n      tag_464\n      jumpi\n        /* \"#utility.yul\":11979:12058   */\n      tag_465\n      tag_280\n      jump\t// in\n    tag_465:\n        /* \"#utility.yul\":11938:12060   */\n    tag_464:\n        /* \"#utility.yul\":12092:12098   */\n      dup3\n        /* \"#utility.yul\":12079:12099   */\n      calldataload\n        /* \"#utility.yul\":12069:12099   */\n      swap1\n      pop\n        /* \"#utility.yul\":12122:12140   */\n      0xffffffffffffffff\n        /* \"#utility.yul\":12114:12120   */\n      dup2\n        /* \"#utility.yul\":12111:12141   */\n      gt\n        /* \"#utility.yul\":12108:12225   */\n      iszero\n      tag_466\n      jumpi\n        /* \"#utility.yul\":12144:12223   */\n      tag_467\n      tag_281\n      jump\t// in\n    tag_467:\n        /* \"#utility.yul\":12108:12225   */\n    tag_466:\n        /* \"#utility.yul\":12258:12262   */\n      0x20\n        /* \"#utility.yul\":12250:12256   */\n      dup4\n        /* \"#utility.yul\":12246:12263   */\n      add\n        /* \"#utility.yul\":12234:12263   */\n      swap2\n      pop\n        /* \"#utility.yul\":12312:12315   */\n      dup4\n        /* \"#utility.yul\":12304:12308   */\n      0x20\n        /* \"#utility.yul\":12296:12302   */\n      dup3\n        /* \"#utility.yul\":12292:12309   */\n      mul\n        /* \"#utility.yul\":12282:12290   */\n      dup4\n        /* \"#utility.yul\":12278:12310   */\n      add\n        /* \"#utility.yul\":12275:12316   */\n      gt\n        /* \"#utility.yul\":12272:12400   */\n      iszero\n      tag_468\n      jumpi\n        /* \"#utility.yul\":12319:12398   */\n      tag_469\n      tag_282\n      jump\t// in\n    tag_469:\n        /* \"#utility.yul\":12272:12400   */\n    tag_468:\n        /* \"#utility.yul\":11838:12406   */\n      swap3\n      pop\n      swap3\n      swap1\n      pop\n      jump\t// out\n        /* \"#utility.yul\":12412:12971   */\n    tag_97:\n        /* \"#utility.yul\":12498:12504   */\n      0x00\n        /* \"#utility.yul\":12506:12512   */\n      dup1\n        /* \"#utility.yul\":12555:12557   */\n      0x20\n        /* \"#utility.yul\":12543:12552   */\n      dup4\n        /* \"#utility.yul\":12534:12541   */\n      dup6\n        /* \"#utility.yul\":12530:12553   */\n      sub\n        /* \"#utility.yul\":12526:12558   */\n      slt\n        /* \"#utility.yul\":12523:12642   */\n      iszero\n      tag_471\n      jumpi\n        /* \"#utility.yul\":12561:12640   */\n      tag_472\n      tag_271\n      jump\t// in\n    tag_472:\n        /* \"#utility.yul\":12523:12642   */\n    tag_471:\n        /* \"#utility.yul\":12709:12710   */\n      0x00\n        /* \"#utility.yul\":12698:12707   */\n      dup4\n        /* \"#utility.yul\":12694:12711   */\n      add\n        /* \"#utility.yul\":12681:12712   */\n      calldataload\n        /* \"#utility.yul\":12739:12757   */\n      0xffffffffffffffff\n        /* \"#utility.yul\":12731:12737   */\n      dup2\n        /* \"#utility.yul\":12728:12758   */\n      gt\n        /* \"#utility.yul\":12725:12842   */\n      iszero\n      tag_473\n      jumpi\n        /* \"#utility.yul\":12761:12840   */\n      tag_474\n      tag_272\n      jump\t// in\n    tag_474:\n        /* \"#utility.yul\":12725:12842   */\n    tag_473:\n        /* \"#utility.yul\":12874:12954   */\n      tag_475\n        /* \"#utility.yul\":12946:12953   */\n      dup6\n        /* \"#utility.yul\":12937:12943   */\n      dup3\n        /* \"#utility.yul\":12926:12935   */\n      dup7\n        /* \"#utility.yul\":12922:12944   */\n      add\n        /* \"#utility.yul\":12874:12954   */\n      tag_305\n      jump\t// in\n    tag_475:\n        /* \"#utility.yul\":12856:12954   */\n      swap3\n      pop\n      swap3\n      pop\n        /* \"#utility.yul\":12652:12964   */\n      pop\n        /* \"#utility.yul\":12412:12971   */\n      swap3\n      pop\n      swap3\n      swap1\n      pop\n      jump\t// out\n        /* \"#utility.yul\":12977:13158   */\n    tag_306:\n        /* \"#utility.yul\":13117:13150   */\n      0x437573746f6d657220497320416c726561647920537562736372696265642100\n        /* \"#utility.yul\":13113:13114   */\n      0x00\n        /* \"#utility.yul\":13105:13111   */\n      dup3\n        /* \"#utility.yul\":13101:13115   */\n      add\n        /* \"#utility.yul\":13094:13151   */\n      mstore\n        /* \"#utility.yul\":12977:13158   */\n      pop\n      jump\t// out\n        /* \"#utility.yul\":13164:13530   */\n    tag_307:\n        /* \"#utility.yul\":13306:13309   */\n      0x00\n        /* \"#utility.yul\":13327:13394   */\n      tag_478\n        /* \"#utility.yul\":13391:13393   */\n      0x1f\n        /* \"#utility.yul\":13386:13389   */\n      dup4\n        /* \"#utility.yul\":13327:13394   */\n      tag_301\n      jump\t// in\n    tag_478:\n        /* \"#utility.yul\":13320:13394   */\n      swap2\n      pop\n        /* \"#utility.yul\":13403:13496   */\n      tag_479\n        /* \"#utility.yul\":13492:13495   */\n      dup3\n        /* \"#utility.yul\":13403:13496   */\n      tag_306\n      jump\t// in\n    tag_479:\n        /* \"#utility.yul\":13521:13523   */\n      0x20\n        /* \"#utility.yul\":13516:13519   */\n      dup3\n        /* \"#utility.yul\":13512:13524   */\n      add\n        /* \"#utility.yul\":13505:13524   */\n      swap1\n      pop\n        /* \"#utility.yul\":13164:13530   */\n      swap2\n      swap1\n      pop\n      jump\t// out\n        /* \"#utility.yul\":13536:13955   */\n    tag_102:\n        /* \"#utility.yul\":13702:13706   */\n      0x00\n        /* \"#utility.yul\":13740:13742   */\n      0x20\n        /* \"#utility.yul\":13729:13738   */\n      dup3\n        /* \"#utility.yul\":13725:13743   */\n      add\n        /* \"#utility.yul\":13717:13743   */\n      swap1\n      pop\n        /* \"#utility.yul\":13789:13798   */\n      dup2\n        /* \"#utility.yul\":13783:13787   */\n      dup2\n        /* \"#utility.yul\":13779:13799   */\n      sub\n        /* \"#utility.yul\":13775:13776   */\n      0x00\n        /* \"#utility.yul\":13764:13773   */\n      dup4\n        /* \"#utility.yul\":13760:13777   */\n      add\n        /* \"#utility.yul\":13753:13800   */\n      mstore\n        /* \"#utility.yul\":13817:13948   */\n      tag_481\n        /* \"#utility.yul\":13943:13947   */\n      dup2\n        /* \"#utility.yul\":13817:13948   */\n      tag_307\n      jump\t// in\n    tag_481:\n        /* \"#utility.yul\":13809:13948   */\n      swap1\n      pop\n        /* \"#utility.yul\":13536:13955   */\n      swap2\n      swap1\n      pop\n      jump\t// out\n        /* \"#utility.yul\":13961:14122   */\n    tag_308:\n        /* \"#utility.yul\":14101:14114   */\n      0x426f6f6b20657869737473000000000000000000000000000000000000000000\n        /* \"#utility.yul\":14097:14098   */\n      0x00\n        /* \"#utility.yul\":14089:14095   */\n      dup3\n        /* \"#utility.yul\":14085:14099   */\n      add\n        /* \"#utility.yul\":14078:14115   */\n      mstore\n        /* \"#utility.yul\":13961:14122   */\n      pop\n      jump\t// out\n        /* \"#utility.yul\":14128:14494   */\n    tag_309:\n        /* \"#utility.yul\":14270:14273   */\n      0x00\n        /* \"#utility.yul\":14291:14358   */\n      tag_484\n        /* \"#utility.yul\":14355:14357   */\n      0x0b\n        /* \"#utility.yul\":14350:14353   */\n      dup4\n        /* \"#utility.yul\":14291:14358   */\n      tag_301\n      jump\t// in\n    tag_484:\n        /* \"#utility.yul\":14284:14358   */\n      swap2\n      pop\n        /* \"#utility.yul\":14367:14460   */\n      tag_485\n        /* \"#utility.yul\":14456:14459   */\n      dup3\n        /* \"#utility.yul\":14367:14460   */\n      tag_308\n      jump\t// in\n    tag_485:\n        /* \"#utility.yul\":14485:14487   */\n      0x20\n        /* \"#utility.yul\":14480:14483   */\n      dup3\n        /* \"#utility.yul\":14476:14488   */\n      add\n        /* \"#utility.yul\":14469:14488   */\n      swap1\n      pop\n        /* \"#utility.yul\":14128:14494   */\n      swap2\n      swap1\n      pop\n      jump\t// out\n        /* \"#utility.yul\":14500:14919   */\n    tag_106:\n        /* \"#utility.yul\":14666:14670   */\n      0x00\n        /* \"#utility.yul\":14704:14706   */\n      0x20\n        /* \"#utility.yul\":14693:14702   */\n      dup3\n        /* \"#utility.yul\":14689:14707   */\n      add\n        /* \"#utility.yul\":14681:14707   */\n      swap1\n      pop\n        /* \"#utility.yul\":14753:14762   */\n      dup2\n        /* \"#utility.yul\":14747:14751   */\n      dup2\n        /* \"#utility.yul\":14743:14763   */\n      sub\n        /* \"#utility.yul\":14739:14740   */\n      0x00\n        /* \"#utility.yul\":14728:14737   */\n      dup4\n        /* \"#utility.yul\":14724:14741   */\n      add\n        /* \"#utility.yul\":14717:14764   */\n      mstore\n        /* \"#utility.yul\":14781:14912   */\n      tag_487\n        /* \"#utility.yul\":14907:14911   */\n      dup2\n        /* \"#utility.yul\":14781:14912   */\n      tag_309\n      jump\t// in\n    tag_487:\n        /* \"#utility.yul\":14773:14912   */\n      swap1\n      pop\n        /* \"#utility.yul\":14500:14919   */\n      swap2\n      swap1\n      pop\n      jump\t// out\n        /* \"#utility.yul\":14925:15105   */\n    tag_310:\n        /* \"#utility.yul\":14973:15050   */\n      0x4e487b7100000000000000000000000000000000000000000000000000000000\n        /* \"#utility.yul\":14970:14971   */\n      0x00\n        /* \"#utility.yul\":14963:15051   */\n      mstore\n        /* \"#utility.yul\":15070:15074   */\n      0x11\n        /* \"#utility.yul\":15067:15068   */\n      0x04\n        /* \"#utility.yul\":15060:15075   */\n      mstore\n        /* \"#utility.yul\":15094:15098   */\n      0x24\n        /* \"#utility.yul\":15091:15092   */\n      0x00\n        /* \"#utility.yul\":15084:15099   */\n      revert\n        /* \"#utility.yul\":15111:15386   */\n    tag_108:\n        /* \"#utility.yul\":15150:15157   */\n      0x00\n        /* \"#utility.yul\":15173:15192   */\n      tag_490\n        /* \"#utility.yul\":15190:15191   */\n      dup3\n        /* \"#utility.yul\":15173:15192   */\n      tag_284\n      jump\t// in\n    tag_490:\n        /* \"#utility.yul\":15168:15192   */\n      swap2\n      pop\n        /* \"#utility.yul\":15206:15225   */\n      tag_491\n        /* \"#utility.yul\":15223:15224   */\n      dup4\n        /* \"#utility.yul\":15206:15225   */\n      tag_284\n      jump\t// in\n    tag_491:\n        /* \"#utility.yul\":15201:15225   */\n      swap3\n      pop\n        /* \"#utility.yul\":15260:15261   */\n      dup3\n        /* \"#utility.yul\":15257:15258   */\n      dup3\n        /* \"#utility.yul\":15253:15262   */\n      mul\n        /* \"#utility.yul\":15282:15311   */\n      tag_492\n        /* \"#utility.yul\":15299:15310   */\n      dup2\n        /* \"#utility.yul\":15282:15311   */\n      tag_284\n      jump\t// in\n    tag_492:\n        /* \"#utility.yul\":15271:15311   */\n      swap2\n      pop\n        /* \"#utility.yul\":15343:15354   */\n      dup1\n        /* \"#utility.yul\":15334:15341   */\n      dup3\n        /* \"#utility.yul\":15331:15355   */\n      eq\n        /* \"#utility.yul\":15321:15379   */\n      tag_493\n      jumpi\n        /* \"#utility.yul\":15359:15377   */\n      tag_494\n      tag_310\n      jump\t// in\n    tag_494:\n        /* \"#utility.yul\":15321:15379   */\n    tag_493:\n        /* \"#utility.yul\":15158:15386   */\n      pop\n        /* \"#utility.yul\":15111:15386   */\n      swap3\n      swap2\n      pop\n      pop\n      jump\t// out\n        /* \"#utility.yul\":15392:15572   */\n    tag_118:\n        /* \"#utility.yul\":15440:15517   */\n      0x4e487b7100000000000000000000000000000000000000000000000000000000\n        /* \"#utility.yul\":15437:15438   */\n      0x00\n        /* \"#utility.yul\":15430:15518   */\n      mstore\n        /* \"#utility.yul\":15537:15541   */\n      0x41\n        /* \"#utility.yul\":15534:15535   */\n      0x04\n        /* \"#utility.yul\":15527:15542   */\n      mstore\n        /* \"#utility.yul\":15561:15565   */\n      0x24\n        /* \"#utility.yul\":15558:15559   */\n      0x00\n        /* \"#utility.yul\":15551:15566   */\n      revert\n        /* \"#utility.yul\":15578:15758   */\n    tag_311:\n        /* \"#utility.yul\":15626:15703   */\n      0x4e487b7100000000000000000000000000000000000000000000000000000000\n        /* \"#utility.yul\":15623:15624   */\n      0x00\n        /* \"#utility.yul\":15616:15704   */\n      mstore\n        /* \"#utility.yul\":15723:15727   */\n      0x22\n        /* \"#utility.yul\":15720:15721   */\n      0x04\n        /* \"#utility.yul\":15713:15728   */\n      mstore\n        /* \"#utility.yul\":15747:15751   */\n      0x24\n        /* \"#utility.yul\":15744:15745   */\n      0x00\n        /* \"#utility.yul\":15737:15752   */\n      revert\n        /* \"#utility.yul\":15764:16084   */\n    tag_129:\n        /* \"#utility.yul\":15808:15814   */\n      0x00\n        /* \"#utility.yul\":15845:15846   */\n      0x02\n        /* \"#utility.yul\":15839:15843   */\n      dup3\n        /* \"#utility.yul\":15835:15847   */\n      div\n        /* \"#utility.yul\":15825:15847   */\n      swap1\n      pop\n        /* \"#utility.yul\":15892:15893   */\n      0x01\n        /* \"#utility.yul\":15886:15890   */\n      dup3\n        /* \"#utility.yul\":15882:15894   */\n      and\n        /* \"#utility.yul\":15913:15931   */\n      dup1\n        /* \"#utility.yul\":15903:15984   */\n      tag_498\n      jumpi\n        /* \"#utility.yul\":15969:15973   */\n      0x7f\n        /* \"#utility.yul\":15961:15967   */\n      dup3\n        /* \"#utility.yul\":15957:15974   */\n      and\n        /* \"#utility.yul\":15947:15974   */\n      swap2\n      pop\n        /* \"#utility.yul\":15903:15984   */\n    tag_498:\n        /* \"#utility.yul\":16031:16033   */\n      0x20\n        /* \"#utility.yul\":16023:16029   */\n      dup3\n        /* \"#utility.yul\":16020:16034   */\n      lt\n        /* \"#utility.yul\":16000:16018   */\n      dup2\n        /* \"#utility.yul\":15997:16035   */\n      sub\n        /* \"#utility.yul\":15994:16078   */\n      tag_499\n      jumpi\n        /* \"#utility.yul\":16050:16068   */\n      tag_500\n      tag_311\n      jump\t// in\n    tag_500:\n        /* \"#utility.yul\":15994:16078   */\n    tag_499:\n        /* \"#utility.yul\":15815:16084   */\n      pop\n        /* \"#utility.yul\":15764:16084   */\n      swap2\n      swap1\n      pop\n      jump\t// out\n        /* \"#utility.yul\":16090:16231   */\n    tag_312:\n        /* \"#utility.yul\":16139:16143   */\n      0x00\n        /* \"#utility.yul\":16162:16165   */\n      dup2\n        /* \"#utility.yul\":16154:16165   */\n      swap1\n      pop\n        /* \"#utility.yul\":16185:16188   */\n      dup2\n        /* \"#utility.yul\":16182:16183   */\n      0x00\n        /* \"#utility.yul\":16175:16189   */\n      mstore\n        /* \"#utility.yul\":16219:16223   */\n      0x20\n        /* \"#utility.yul\":16216:16217   */\n      0x00\n        /* \"#utility.yul\":16206:16224   */\n      keccak256\n        /* \"#utility.yul\":16198:16224   */\n      swap1\n      pop\n        /* \"#utility.yul\":16090:16231   */\n      swap2\n      swap1\n      pop\n      jump\t// out\n        /* \"#utility.yul\":16237:16330   */\n    tag_313:\n        /* \"#utility.yul\":16274:16280   */\n      0x00\n        /* \"#utility.yul\":16321:16323   */\n      0x20\n        /* \"#utility.yul\":16316:16318   */\n      0x1f\n        /* \"#utility.yul\":16309:16314   */\n      dup4\n        /* \"#utility.yul\":16305:16319   */\n      add\n        /* \"#utility.yul\":16301:16324   */\n      div\n        /* \"#utility.yul\":16291:16324   */\n      swap1\n      pop\n        /* \"#utility.yul\":16237:16330   */\n      swap2\n      swap1\n      pop\n      jump\t// out\n        /* \"#utility.yul\":16336:16443   */\n    tag_314:\n        /* \"#utility.yul\":16380:16388   */\n      0x00\n        /* \"#utility.yul\":16430:16435   */\n      dup3\n        /* \"#utility.yul\":16424:16428   */\n      dup3\n        /* \"#utility.yul\":16420:16436   */\n      shl\n        /* \"#utility.yul\":16399:16436   */\n      swap1\n      pop\n        /* \"#utility.yul\":16336:16443   */\n      swap3\n      swap2\n      pop\n      pop\n      jump\t// out\n        /* \"#utility.yul\":16449:16842   */\n    tag_315:\n        /* \"#utility.yul\":16518:16524   */\n      0x00\n        /* \"#utility.yul\":16568:16569   */\n      0x08\n        /* \"#utility.yul\":16556:16566   */\n      dup4\n        /* \"#utility.yul\":16552:16570   */\n      mul\n        /* \"#utility.yul\":16591:16688   */\n      tag_505\n        /* \"#utility.yul\":16621:16687   */\n      0xffffffffffffffffffffffffffffffffffffffffffffffffffffffffffffffff\n        /* \"#utility.yul\":16610:16619   */\n      dup3\n        /* \"#utility.yul\":16591:16688   */\n      tag_314\n      jump\t// in\n    tag_505:\n        /* \"#utility.yul\":16709:16748   */\n      tag_506\n        /* \"#utility.yul\":16739:16747   */\n      dup7\n        /* \"#utility.yul\":16728:16737   */\n      dup4\n        /* \"#utility.yul\":16709:16748   */\n      tag_314\n      jump\t// in\n    tag_506:\n        /* \"#utility.yul\":16697:16748   */\n      swap6\n      pop\n        /* \"#utility.yul\":16781:16785   */\n      dup1\n        /* \"#utility.yul\":16777:16786   */\n      not\n        /* \"#utility.yul\":16770:16775   */\n      dup5\n        /* \"#utility.yul\":16766:16787   */\n      and\n        /* \"#utility.yul\":16757:16787   */\n      swap4\n      pop\n        /* \"#utility.yul\":16830:16834   */\n      dup1\n        /* \"#utility.yul\":16820:16828   */\n      dup7\n        /* \"#utility.yul\":16816:16835   */\n      and\n        /* \"#utility.yul\":16809:16814   */\n      dup5\n        /* \"#utility.yul\":16806:16836   */\n      or\n        /* \"#utility.yul\":16796:16836   */\n      swap3\n      pop\n        /* \"#utility.yul\":16525:16842   */\n      pop\n      pop\n        /* \"#utility.yul\":16449:16842   */\n      swap4\n      swap3\n      pop\n      pop\n      pop\n      jump\t// out\n        /* \"#utility.yul\":16848:16908   */\n    tag_316:\n        /* \"#utility.yul\":16876:16879   */\n      0x00\n        /* \"#utility.yul\":16897:16902   */\n      dup2\n        /* \"#utility.yul\":16890:16902   */\n      swap1\n      pop\n        /* \"#utility.yul\":16848:16908   */\n      swap2\n      swap1\n      pop\n      jump\t// out\n        /* \"#utility.yul\":16914:17056   */\n    tag_317:\n        /* \"#utility.yul\":16964:16973   */\n      0x00\n        /* \"#utility.yul\":16997:17050   */\n      tag_509\n        /* \"#utility.yul\":17015:17049   */\n      tag_510\n        /* \"#utility.yul\":17024:17048   */\n      tag_511\n        /* \"#utility.yul\":17042:17047   */\n      dup5\n        /* \"#utility.yul\":17024:17048   */\n      tag_277\n      jump\t// in\n    tag_511:\n        /* \"#utility.yul\":17015:17049   */\n      tag_316\n      jump\t// in\n    tag_510:\n        /* \"#utility.yul\":16997:17050   */\n      tag_277\n      jump\t// in\n    tag_509:\n        /* \"#utility.yul\":16984:17050   */\n      swap1\n      pop\n        /* \"#utility.yul\":16914:17056   */\n      swap2\n      swap1\n      pop\n      jump\t// out\n        /* \"#utility.yul\":17062:17137   */\n    tag_318:\n        /* \"#utility.yul\":17105:17108   */\n      0x00\n        /* \"#utility.yul\":17126:17131   */\n      dup2\n        /* \"#utility.yul\":17119:17131   */\n      swap1\n      pop\n        /* \"#utility.yul\":17062:17137   */\n      swap2\n      swap1\n      pop\n      jump\t// out\n        /* \"#utility.yul\":17143:17412   */\n    tag_319:\n        /* \"#utility.yul\":17253:17292   */\n      tag_514\n        /* \"#utility.yul\":17284:17291   */\n      dup4\n        /* \"#utility.yul\":17253:17292   */\n      tag_317\n      jump\t// in\n    tag_514:\n        /* \"#utility.yul\":17314:17405   */\n      tag_515\n        /* \"#utility.yul\":17363:17404   */\n      tag_516\n        /* \"#utility.yul\":17387:17403   */\n      dup3\n        /* \"#utility.yul\":17363:17404   */\n      tag_318\n      jump\t// in\n    tag_516:\n        /* \"#utility.yul\":17355:17361   */\n      dup5\n        /* \"#utility.yul\":17348:17352   */\n      dup5\n        /* \"#utility.yul\":17342:17353   */\n      sload\n        /* \"#utility.yul\":17314:17405   */\n      tag_315\n      jump\t// in\n    tag_515:\n        /* \"#utility.yul\":17308:17312   */\n      dup3\n        /* \"#utility.yul\":17301:17406   */\n      sstore\n        /* \"#utility.yul\":17219:17412   */\n      pop\n        /* \"#utility.yul\":17143:17412   */\n      pop\n      pop\n      pop\n      jump\t// out\n        /* \"#utility.yul\":17418:17491   */\n    tag_320:\n        /* \"#utility.yul\":17463:17466   */\n      0x00\n        /* \"#utility.yul\":17418:17491   */\n      swap1\n      jump\t// out\n        /* \"#utility.yul\":17497:17686   */\n    tag_321:\n        /* \"#utility.yul\":17574:17606   */\n      tag_519\n      tag_320\n      jump\t// in\n    tag_519:\n        /* \"#utility.yul\":17615:17680   */\n      tag_520\n        /* \"#utility.yul\":17673:17679   */\n      dup2\n        /* \"#utility.yul\":17665:17671   */\n      dup5\n        /* \"#utility.yul\":17659:17663   */\n      dup5\n        /* \"#utility.yul\":17615:17680   */\n      tag_319\n      jump\t// in\n    tag_520:\n        /* \"#utility.yul\":17550:17686   */\n      pop\n        /* \"#utility.yul\":17497:17686   */\n      pop\n      pop\n      jump\t// out\n        /* \"#utility.yul\":17692:17878   */\n    tag_322:\n        /* \"#utility.yul\":17752:17872   */\n    tag_522:\n        /* \"#utility.yul\":17769:17772   */\n      dup2\n        /* \"#utility.yul\":17762:17767   */\n      dup2\n        /* \"#utility.yul\":17759:17773   */\n      lt\n        /* \"#utility.yul\":17752:17872   */\n      iszero\n      tag_524\n      jumpi\n        /* \"#utility.yul\":17823:17862   */\n      tag_525\n        /* \"#utility.yul\":17860:17861   */\n      0x00\n        /* \"#utility.yul\":17853:17858   */\n      dup3\n        /* \"#utility.yul\":17823:17862   */\n      tag_321\n      jump\t// in\n    tag_525:\n        /* \"#utility.yul\":17796:17797   */\n      0x01\n        /* \"#utility.yul\":17789:17794   */\n      dup2\n        /* \"#utility.yul\":17785:17798   */\n      add\n        /* \"#utility.yul\":17776:17798   */\n      swap1\n      pop\n        /* \"#utility.yul\":17752:17872   */\n      jump(tag_522)\n    tag_524:\n        /* \"#utility.yul\":17692:17878   */\n      pop\n      pop\n      jump\t// out\n        /* \"#utility.yul\":17884:18427   */\n    tag_323:\n        /* \"#utility.yul\":17985:17987   */\n      0x1f\n        /* \"#utility.yul\":17980:17983   */\n      dup3\n        /* \"#utility.yul\":17977:17988   */\n      gt\n        /* \"#utility.yul\":17974:18420   */\n      iszero\n      tag_527\n      jumpi\n        /* \"#utility.yul\":18019:18057   */\n      tag_528\n        /* \"#utility.yul\":18051:18056   */\n      dup2\n        /* \"#utility.yul\":18019:18057   */\n      tag_312\n      jump\t// in\n    tag_528:\n        /* \"#utility.yul\":18103:18132   */\n      tag_529\n        /* \"#utility.yul\":18121:18131   */\n      dup5\n        /* \"#utility.yul\":18103:18132   */\n      tag_313\n      jump\t// in\n    tag_529:\n        /* \"#utility.yul\":18093:18101   */\n      dup2\n        /* \"#utility.yul\":18089:18133   */\n      add\n        /* \"#utility.yul\":18286:18288   */\n      0x20\n        /* \"#utility.yul\":18274:18284   */\n      dup6\n        /* \"#utility.yul\":18271:18289   */\n      lt\n        /* \"#utility.yul\":18268:18317   */\n      iszero\n      tag_530\n      jumpi\n        /* \"#utility.yul\":18307:18315   */\n      dup2\n        /* \"#utility.yul\":18292:18315   */\n      swap1\n      pop\n        /* \"#utility.yul\":18268:18317   */\n    tag_530:\n        /* \"#utility.yul\":18330:18410   */\n      tag_531\n        /* \"#utility.yul\":18386:18408   */\n      tag_532\n        /* \"#utility.yul\":18404:18407   */\n      dup6\n        /* \"#utility.yul\":18386:18408   */\n      tag_313\n      jump\t// in\n    tag_532:\n        /* \"#utility.yul\":18376:18384   */\n      dup4\n        /* \"#utility.yul\":18372:18409   */\n      add\n        /* \"#utility.yul\":18359:18370   */\n      dup3\n        /* \"#utility.yul\":18330:18410   */\n      tag_322\n      jump\t// in\n    tag_531:\n        /* \"#utility.yul\":17989:18420   */\n      pop\n      pop\n        /* \"#utility.yul\":17974:18420   */\n    tag_527:\n        /* \"#utility.yul\":17884:18427   */\n      pop\n      pop\n      pop\n      jump\t// out\n        /* \"#utility.yul\":18433:18550   */\n    tag_324:\n        /* \"#utility.yul\":18487:18495   */\n      0x00\n        /* \"#utility.yul\":18537:18542   */\n      dup3\n        /* \"#utility.yul\":18531:18535   */\n      dup3\n        /* \"#utility.yul\":18527:18543   */\n      shr\n        /* \"#utility.yul\":18506:18543   */\n      swap1\n      pop\n        /* \"#utility.yul\":18433:18550   */\n      swap3\n      swap2\n      pop\n      pop\n      jump\t// out\n        /* \"#utility.yul\":18556:18725   */\n    tag_325:\n        /* \"#utility.yul\":18600:18606   */\n      0x00\n        /* \"#utility.yul\":18633:18684   */\n      tag_535\n        /* \"#utility.yul\":18681:18682   */\n      0x00\n        /* \"#utility.yul\":18677:18683   */\n      not\n        /* \"#utility.yul\":18669:18674   */\n      dup5\n        /* \"#utility.yul\":18666:18667   */\n      0x08\n        /* \"#utility.yul\":18662:18675   */\n      mul\n        /* \"#utility.yul\":18633:18684   */\n      tag_324\n      jump\t// in\n    tag_535:\n        /* \"#utility.yul\":18629:18685   */\n      not\n        /* \"#utility.yul\":18714:18718   */\n      dup1\n        /* \"#utility.yul\":18708:18712   */\n      dup4\n        /* \"#utility.yul\":18704:18719   */\n      and\n        /* \"#utility.yul\":18694:18719   */\n      swap2\n      pop\n        /* \"#utility.yul\":18607:18725   */\n      pop\n        /* \"#utility.yul\":18556:18725   */\n      swap3\n      swap2\n      pop\n      pop\n      jump\t// out\n        /* \"#utility.yul\":18730:19025   */\n    tag_326:\n        /* \"#utility.yul\":18806:18810   */\n      0x00\n        /* \"#utility.yul\":18952:18981   */\n      tag_537\n        /* \"#utility.yul\":18977:18980   */\n      dup4\n        /* \"#utility.yul\":18971:18975   */\n      dup4\n        /* \"#utility.yul\":18952:18981   */\n      tag_325\n      jump\t// in\n    tag_537:\n        /* \"#utility.yul\":18944:18981   */\n      swap2\n      pop\n        /* \"#utility.yul\":19014:19017   */\n      dup3\n        /* \"#utility.yul\":19011:19012   */\n      0x02\n        /* \"#utility.yul\":19007:19018   */\n      mul\n        /* \"#utility.yul\":19001:19005   */\n      dup3\n        /* \"#utility.yul\":18998:19019   */\n      or\n        /* \"#utility.yul\":18990:19019   */\n      swap1\n      pop\n        /* \"#utility.yul\":18730:19025   */\n      swap3\n      swap2\n      pop\n      pop\n      jump\t// out\n        /* \"#utility.yul\":19030:20425   */\n    tag_110:\n        /* \"#utility.yul\":19147:19184   */\n      tag_539\n        /* \"#utility.yul\":19180:19183   */\n      dup3\n        /* \"#utility.yul\":19147:19184   */\n      tag_290\n      jump\t// in\n    tag_539:\n        /* \"#utility.yul\":19249:19267   */\n      0xffffffffffffffff\n        /* \"#utility.yul\":19241:19247   */\n      dup2\n        /* \"#utility.yul\":19238:19268   */\n      gt\n        /* \"#utility.yul\":19235:19291   */\n      iszero\n      tag_540\n      jumpi\n        /* \"#utility.yul\":19271:19289   */\n      tag_541\n      tag_118\n      jump\t// in\n    tag_541:\n        /* \"#utility.yul\":19235:19291   */\n    tag_540:\n        /* \"#utility.yul\":19315:19353   */\n      tag_542\n        /* \"#utility.yul\":19347:19351   */\n      dup3\n        /* \"#utility.yul\":19341:19352   */\n      sload\n        /* \"#utility.yul\":19315:19353   */\n      tag_129\n      jump\t// in\n    tag_542:\n        /* \"#utility.yul\":19400:19467   */\n      tag_543\n        /* \"#utility.yul\":19460:19466   */\n      dup3\n        /* \"#utility.yul\":19452:19458   */\n      dup3\n        /* \"#utility.yul\":19446:19450   */\n      dup6\n        /* \"#utility.yul\":19400:19467   */\n      tag_323\n      jump\t// in\n    tag_543:\n        /* \"#utility.yul\":19494:19495   */\n      0x00\n        /* \"#utility.yul\":19518:19522   */\n      0x20\n        /* \"#utility.yul\":19505:19522   */\n      swap1\n      pop\n        /* \"#utility.yul\":19550:19552   */\n      0x1f\n        /* \"#utility.yul\":19542:19548   */\n      dup4\n        /* \"#utility.yul\":19539:19553   */\n      gt\n        /* \"#utility.yul\":19567:19568   */\n      0x01\n        /* \"#utility.yul\":19562:20180   */\n      dup2\n      eq\n      tag_545\n      jumpi\n        /* \"#utility.yul\":20224:20225   */\n      0x00\n        /* \"#utility.yul\":20241:20247   */\n      dup5\n        /* \"#utility.yul\":20238:20315   */\n      iszero\n      tag_546\n      jumpi\n        /* \"#utility.yul\":20290:20299   */\n      dup3\n        /* \"#utility.yul\":20285:20288   */\n      dup8\n        /* \"#utility.yul\":20281:20300   */\n      add\n        /* \"#utility.yul\":20275:20301   */\n      mload\n        /* \"#utility.yul\":20266:20301   */\n      swap1\n      pop\n        /* \"#utility.yul\":20238:20315   */\n    tag_546:\n        /* \"#utility.yul\":20341:20408   */\n      tag_547\n        /* \"#utility.yul\":20401:20407   */\n      dup6\n        /* \"#utility.yul\":20394:20399   */\n      dup3\n        /* \"#utility.yul\":20341:20408   */\n      tag_326\n      jump\t// in\n    tag_547:\n        /* \"#utility.yul\":20335:20339   */\n      dup7\n        /* \"#utility.yul\":20328:20409   */\n      sstore\n        /* \"#utility.yul\":20197:20419   */\n      pop\n        /* \"#utility.yul\":19532:20419   */\n      jump(tag_544)\n        /* \"#utility.yul\":19562:20180   */\n    tag_545:\n        /* \"#utility.yul\":19614:19618   */\n      0x1f\n        /* \"#utility.yul\":19610:19619   */\n      not\n        /* \"#utility.yul\":19602:19608   */\n      dup5\n        /* \"#utility.yul\":19598:19620   */\n      and\n        /* \"#utility.yul\":19648:19685   */\n      tag_548\n        /* \"#utility.yul\":19680:19684   */\n      dup7\n        /* \"#utility.yul\":19648:19685   */\n      tag_312\n      jump\t// in\n    tag_548:\n        /* \"#utility.yul\":19707:19708   */\n      0x00\n        /* \"#utility.yul\":19721:19929   */\n    tag_549:\n        /* \"#utility.yul\":19735:19742   */\n      dup3\n        /* \"#utility.yul\":19732:19733   */\n      dup2\n        /* \"#utility.yul\":19729:19743   */\n      lt\n        /* \"#utility.yul\":19721:19929   */\n      iszero\n      tag_551\n      jumpi\n        /* \"#utility.yul\":19814:19823   */\n      dup5\n        /* \"#utility.yul\":19809:19812   */\n      dup10\n        /* \"#utility.yul\":19805:19824   */\n      add\n        /* \"#utility.yul\":19799:19825   */\n      mload\n        /* \"#utility.yul\":19791:19797   */\n      dup3\n        /* \"#utility.yul\":19784:19826   */\n      sstore\n        /* \"#utility.yul\":19865:19866   */\n      0x01\n        /* \"#utility.yul\":19857:19863   */\n      dup3\n        /* \"#utility.yul\":19853:19867   */\n      add\n        /* \"#utility.yul\":19843:19867   */\n      swap2\n      pop\n        /* \"#utility.yul\":19912:19914   */\n      0x20\n        /* \"#utility.yul\":19901:19910   */\n      dup6\n        /* \"#utility.yul\":19897:19915   */\n      add\n        /* \"#utility.yul\":19884:19915   */\n      swap5\n      pop\n        /* \"#utility.yul\":19758:19762   */\n      0x20\n        /* \"#utility.yul\":19755:19756   */\n      dup2\n        /* \"#utility.yul\":19751:19763   */\n      add\n        /* \"#utility.yul\":19746:19763   */\n      swap1\n      pop\n        /* \"#utility.yul\":19721:19929   */\n      jump(tag_549)\n    tag_551:\n        /* \"#utility.yul\":19957:19963   */\n      dup7\n        /* \"#utility.yul\":19948:19955   */\n      dup4\n        /* \"#utility.yul\":19945:19964   */\n      lt\n        /* \"#utility.yul\":19942:20121   */\n      iszero\n      tag_552\n      jumpi\n        /* \"#utility.yul\":20015:20024   */\n      dup5\n        /* \"#utility.yul\":20010:20013   */\n      dup10\n        /* \"#utility.yul\":20006:20025   */\n      add\n        /* \"#utility.yul\":20000:20026   */\n      mload\n        /* \"#utility.yul\":20058:20106   */\n      tag_553\n        /* \"#utility.yul\":20100:20104   */\n      0x1f\n        /* \"#utility.yul\":20092:20098   */\n      dup10\n        /* \"#utility.yul\":20088:20105   */\n      and\n        /* \"#utility.yul\":20077:20086   */\n      dup3\n        /* \"#utility.yul\":20058:20106   */\n      tag_325\n      jump\t// in\n    tag_553:\n        /* \"#utility.yul\":20050:20056   */\n      dup4\n        /* \"#utility.yul\":20043:20107   */\n      sstore\n        /* \"#utility.yul\":19965:20121   */\n      pop\n        /* \"#utility.yul\":19942:20121   */\n    tag_552:\n        /* \"#utility.yul\":20167:20168   */\n      0x01\n        /* \"#utility.yul\":20163:20164   */\n      0x02\n        /* \"#utility.yul\":20155:20161   */\n      dup9\n        /* \"#utility.yul\":20151:20165   */\n      mul\n        /* \"#utility.yul\":20147:20169   */\n      add\n        /* \"#utility.yul\":20141:20145   */\n      dup9\n        /* \"#utility.yul\":20134:20170   */\n      sstore\n        /* \"#utility.yul\":19569:20180   */\n      pop\n      pop\n      pop\n        /* \"#utility.yul\":19532:20419   */\n    tag_544:\n      pop\n        /* \"#utility.yul\":19122:20425   */\n      pop\n      pop\n      pop\n        /* \"#utility.yul\":19030:20425   */\n      pop\n      pop\n      jump\t// out\n        /* \"#utility.yul\":20431:20579   */\n    tag_327:\n        /* \"#utility.yul\":20529:20535   */\n      dup3\n        /* \"#utility.yul\":20524:20527   */\n      dup2\n        /* \"#utility.yul\":20519:20522   */\n      dup4\n        /* \"#utility.yul\":20506:20536   */\n      calldatacopy\n        /* \"#utility.yul\":20570:20571   */\n      0x00\n        /* \"#utility.yul\":20561:20567   */\n      dup4\n        /* \"#utility.yul\":20556:20559   */\n      dup4\n        /* \"#utility.yul\":20552:20568   */\n      add\n        /* \"#utility.yul\":20545:20572   */\n      mstore\n        /* \"#utility.yul\":20431:20579   */\n      pop\n      pop\n      pop\n      jump\t// out\n        /* \"#utility.yul\":20609:20926   */\n    tag_328:\n        /* \"#utility.yul\":20707:20710   */\n      0x00\n        /* \"#utility.yul\":20728:20799   */\n      tag_556\n        /* \"#utility.yul\":20792:20798   */\n      dup4\n        /* \"#utility.yul\":20787:20790   */\n      dup6\n        /* \"#utility.yul\":20728:20799   */\n      tag_301\n      jump\t// in\n    tag_556:\n        /* \"#utility.yul\":20721:20799   */\n      swap4\n      pop\n        /* \"#utility.yul\":20809:20865   */\n      tag_557\n        /* \"#utility.yul\":20858:20864   */\n      dup4\n        /* \"#utility.yul\":20853:20856   */\n      dup6\n        /* \"#utility.yul\":20846:20851   */\n      dup5\n        /* \"#utility.yul\":20809:20865   */\n      tag_327\n      jump\t// in\n    tag_557:\n        /* \"#utility.yul\":20890:20919   */\n      tag_558\n        /* \"#utility.yul\":20912:20918   */\n      dup4\n        /* \"#utility.yul\":20890:20919   */\n      tag_293\n      jump\t// in\n    tag_558:\n        /* \"#utility.yul\":20885:20888   */\n      dup5\n        /* \"#utility.yul\":20881:20920   */\n      add\n        /* \"#utility.yul\":20874:20920   */\n      swap1\n      pop\n        /* \"#utility.yul\":20609:20926   */\n      swap4\n      swap3\n      pop\n      pop\n      pop\n      jump\t// out\n        /* \"#utility.yul\":20932:21699   */\n    tag_114:\n        /* \"#utility.yul\":21165:21169   */\n      0x00\n        /* \"#utility.yul\":21203:21206   */\n      0x80\n        /* \"#utility.yul\":21192:21201   */\n      dup3\n        /* \"#utility.yul\":21188:21207   */\n      add\n        /* \"#utility.yul\":21180:21207   */\n      swap1\n      pop\n        /* \"#utility.yul\":21253:21262   */\n      dup2\n        /* \"#utility.yul\":21247:21251   */\n      dup2\n        /* \"#utility.yul\":21243:21263   */\n      sub\n        /* \"#utility.yul\":21239:21240   */\n      0x00\n        /* \"#utility.yul\":21228:21237   */\n      dup4\n        /* \"#utility.yul\":21224:21241   */\n      add\n        /* \"#utility.yul\":21217:21264   */\n      mstore\n        /* \"#utility.yul\":21281:21369   */\n      tag_560\n        /* \"#utility.yul\":21364:21368   */\n      dup2\n        /* \"#utility.yul\":21355:21361   */\n      dup9\n        /* \"#utility.yul\":21347:21353   */\n      dup11\n        /* \"#utility.yul\":21281:21369   */\n      tag_328\n      jump\t// in\n    tag_560:\n        /* \"#utility.yul\":21273:21369   */\n      swap1\n      pop\n        /* \"#utility.yul\":21416:21425   */\n      dup2\n        /* \"#utility.yul\":21410:21414   */\n      dup2\n        /* \"#utility.yul\":21406:21426   */\n      sub\n        /* \"#utility.yul\":21401:21403   */\n      0x20\n        /* \"#utility.yul\":21390:21399   */\n      dup4\n        /* \"#utility.yul\":21386:21404   */\n      add\n        /* \"#utility.yul\":21379:21427   */\n      mstore\n        /* \"#utility.yul\":21444:21532   */\n      tag_561\n        /* \"#utility.yul\":21527:21531   */\n      dup2\n        /* \"#utility.yul\":21518:21524   */\n      dup7\n        /* \"#utility.yul\":21510:21516   */\n      dup9\n        /* \"#utility.yul\":21444:21532   */\n      tag_328\n      jump\t// in\n    tag_561:\n        /* \"#utility.yul\":21436:21532   */\n      swap1\n      pop\n        /* \"#utility.yul\":21542:21612   */\n      tag_562\n        /* \"#utility.yul\":21608:21610   */\n      0x40\n        /* \"#utility.yul\":21597:21606   */\n      dup4\n        /* \"#utility.yul\":21593:21611   */\n      add\n        /* \"#utility.yul\":21584:21590   */\n      dup6\n        /* \"#utility.yul\":21542:21612   */\n      tag_303\n      jump\t// in\n    tag_562:\n        /* \"#utility.yul\":21622:21692   */\n      tag_563\n        /* \"#utility.yul\":21688:21690   */\n      0x60\n        /* \"#utility.yul\":21677:21686   */\n      dup4\n        /* \"#utility.yul\":21673:21691   */\n      add\n        /* \"#utility.yul\":21664:21670   */\n      dup5\n        /* \"#utility.yul\":21622:21692   */\n      tag_303\n      jump\t// in\n    tag_563:\n        /* \"#utility.yul\":20932:21699   */\n      swap8\n      swap7\n      pop\n      pop\n      pop\n      pop\n      pop\n      pop\n      pop\n      jump\t// out\n        /* \"#utility.yul\":21705:21885   */\n    tag_126:\n        /* \"#utility.yul\":21753:21830   */\n      0x4e487b7100000000000000000000000000000000000000000000000000000000\n        /* \"#utility.yul\":21750:21751   */\n      0x00\n        /* \"#utility.yul\":21743:21831   */\n      mstore\n        /* \"#utility.yul\":21850:21854   */\n      0x32\n        /* \"#utility.yul\":21847:21848   */\n      0x04\n        /* \"#utility.yul\":21840:21855   */\n      mstore\n        /* \"#utility.yul\":21874:21878   */\n      0x24\n        /* \"#utility.yul\":21871:21872   */\n      0x00\n        /* \"#utility.yul\":21864:21879   */\n      revert\n        /* \"#utility.yul\":21891:22068   */\n    tag_329:\n        /* \"#utility.yul\":22031:22060   */\n      0x437573746f6d6572204973204e6f742053756273637269626564210000000000\n        /* \"#utility.yul\":22027:22028   */\n      0x00\n        /* \"#utility.yul\":22019:22025   */\n      dup3\n        /* \"#utility.yul\":22015:22029   */\n      add\n        /* \"#utility.yul\":22008:22061   */\n      mstore\n        /* \"#utility.yul\":21891:22068   */\n      pop\n      jump\t// out\n        /* \"#utility.yul\":22074:22440   */\n    tag_330:\n        /* \"#utility.yul\":22216:22219   */\n      0x00\n        /* \"#utility.yul\":22237:22304   */\n      tag_567\n        /* \"#utility.yul\":22301:22303   */\n      0x1b\n        /* \"#utility.yul\":22296:22299   */\n      dup4\n        /* \"#utility.yul\":22237:22304   */\n      tag_301\n      jump\t// in\n    tag_567:\n        /* \"#utility.yul\":22230:22304   */\n      swap2\n      pop\n        /* \"#utility.yul\":22313:22406   */\n      tag_568\n        /* \"#utility.yul\":22402:22405   */\n      dup3\n        /* \"#utility.yul\":22313:22406   */\n      tag_329\n      jump\t// in\n    tag_568:\n        /* \"#utility.yul\":22431:22433   */\n      0x20\n        /* \"#utility.yul\":22426:22429   */\n      dup3\n        /* \"#utility.yul\":22422:22434   */\n      add\n        /* \"#utility.yul\":22415:22434   */\n      swap1\n      pop\n        /* \"#utility.yul\":22074:22440   */\n      swap2\n      swap1\n      pop\n      jump\t// out\n        /* \"#utility.yul\":22446:22865   */\n    tag_141:\n        /* \"#utility.yul\":22612:22616   */\n      0x00\n        /* \"#utility.yul\":22650:22652   */\n      0x20\n        /* \"#utility.yul\":22639:22648   */\n      dup3\n        /* \"#utility.yul\":22635:22653   */\n      add\n        /* \"#utility.yul\":22627:22653   */\n      swap1\n      pop\n        /* \"#utility.yul\":22699:22708   */\n      dup2\n        /* \"#utility.yul\":22693:22697   */\n      dup2\n        /* \"#utility.yul\":22689:22709   */\n      sub\n        /* \"#utility.yul\":22685:22686   */\n      0x00\n        /* \"#utility.yul\":22674:22683   */\n      dup4\n        /* \"#utility.yul\":22670:22687   */\n      add\n        /* \"#utility.yul\":22663:22710   */\n      mstore\n        /* \"#utility.yul\":22727:22858   */\n      tag_570\n        /* \"#utility.yul\":22853:22857   */\n      dup2\n        /* \"#utility.yul\":22727:22858   */\n      tag_330\n      jump\t// in\n    tag_570:\n        /* \"#utility.yul\":22719:22858   */\n      swap1\n      pop\n        /* \"#utility.yul\":22446:22865   */\n      swap2\n      swap1\n      pop\n      jump\t// out\n        /* \"#utility.yul\":22871:23035   */\n    tag_331:\n        /* \"#utility.yul\":23011:23027   */\n      0x426f6f6b206e6f74206578697374000000000000000000000000000000000000\n        /* \"#utility.yul\":23007:23008   */\n      0x00\n        /* \"#utility.yul\":22999:23005   */\n      dup3\n        /* \"#utility.yul\":22995:23009   */\n      add\n        /* \"#utility.yul\":22988:23028   */\n      mstore\n        /* \"#utility.yul\":22871:23035   */\n      pop\n      jump\t// out\n        /* \"#utility.yul\":23041:23407   */\n    tag_332:\n        /* \"#utility.yul\":23183:23186   */\n      0x00\n        /* \"#utility.yul\":23204:23271   */\n      tag_573\n        /* \"#utility.yul\":23268:23270   */\n      0x0e\n        /* \"#utility.yul\":23263:23266   */\n      dup4\n        /* \"#utility.yul\":23204:23271   */\n      tag_301\n      jump\t// in\n    tag_573:\n        /* \"#utility.yul\":23197:23271   */\n      swap2\n      pop\n        /* \"#utility.yul\":23280:23373   */\n      tag_574\n        /* \"#utility.yul\":23369:23372   */\n      dup3\n        /* \"#utility.yul\":23280:23373   */\n      tag_331\n      jump\t// in\n    tag_574:\n        /* \"#utility.yul\":23398:23400   */\n      0x20\n        /* \"#utility.yul\":23393:23396   */\n      dup3\n        /* \"#utility.yul\":23389:23401   */\n      add\n        /* \"#utility.yul\":23382:23401   */\n      swap1\n      pop\n        /* \"#utility.yul\":23041:23407   */\n      swap2\n      swap1\n      pop\n      jump\t// out\n        /* \"#utility.yul\":23413:23832   */\n    tag_176:\n        /* \"#utility.yul\":23579:23583   */\n      0x00\n        /* \"#utility.yul\":23617:23619   */\n      0x20\n        /* \"#utility.yul\":23606:23615   */\n      dup3\n        /* \"#utility.yul\":23602:23620   */\n      add\n        /* \"#utility.yul\":23594:23620   */\n      swap1\n      pop\n        /* \"#utility.yul\":23666:23675   */\n      dup2\n        /* \"#utility.yul\":23660:23664   */\n      dup2\n        /* \"#utility.yul\":23656:23676   */\n      sub\n        /* \"#utility.yul\":23652:23653   */\n      0x00\n        /* \"#utility.yul\":23641:23650   */\n      dup4\n        /* \"#utility.yul\":23637:23654   */\n      add\n        /* \"#utility.yul\":23630:23677   */\n      mstore\n        /* \"#utility.yul\":23694:23825   */\n      tag_576\n        /* \"#utility.yul\":23820:23824   */\n      dup2\n        /* \"#utility.yul\":23694:23825   */\n      tag_332\n      jump\t// in\n    tag_576:\n        /* \"#utility.yul\":23686:23825   */\n      swap1\n      pop\n        /* \"#utility.yul\":23413:23832   */\n      swap2\n      swap1\n      pop\n      jump\t// out\n        /* \"#utility.yul\":23838:24032   */\n    tag_188:\n        /* \"#utility.yul\":23878:23882   */\n      0x00\n        /* \"#utility.yul\":23898:23918   */\n      tag_578\n        /* \"#utility.yul\":23916:23917   */\n      dup3\n        /* \"#utility.yul\":23898:23918   */\n      tag_277\n      jump\t// in\n    tag_578:\n        /* \"#utility.yul\":23893:23918   */\n      swap2\n      pop\n        /* \"#utility.yul\":23932:23952   */\n      tag_579\n        /* \"#utility.yul\":23950:23951   */\n      dup4\n        /* \"#utility.yul\":23932:23952   */\n      tag_277\n      jump\t// in\n    tag_579:\n        /* \"#utility.yul\":23927:23952   */\n      swap3\n      pop\n        /* \"#utility.yul\":23976:23977   */\n      dup3\n        /* \"#utility.yul\":23973:23974   */\n      dup3\n        /* \"#utility.yul\":23969:23978   */\n      sub\n        /* \"#utility.yul\":23961:23978   */\n      swap1\n      pop\n        /* \"#utility.yul\":24000:24001   */\n      dup2\n        /* \"#utility.yul\":23994:23998   */\n      dup2\n        /* \"#utility.yul\":23991:24002   */\n      gt\n        /* \"#utility.yul\":23988:24025   */\n      iszero\n      tag_580\n      jumpi\n        /* \"#utility.yul\":24005:24023   */\n      tag_581\n      tag_310\n      jump\t// in\n    tag_581:\n        /* \"#utility.yul\":23988:24025   */\n    tag_580:\n        /* \"#utility.yul\":23838:24032   */\n      swap3\n      swap2\n      pop\n      pop\n      jump\t// out\n        /* \"#utility.yul\":24038:24218   */\n    tag_197:\n        /* \"#utility.yul\":24086:24163   */\n      0x4e487b7100000000000000000000000000000000000000000000000000000000\n        /* \"#utility.yul\":24083:24084   */\n      0x00\n        /* \"#utility.yul\":24076:24164   */\n      mstore\n        /* \"#utility.yul\":24183:24187   */\n      0x31\n        /* \"#utility.yul\":24180:24181   */\n      0x04\n        /* \"#utility.yul\":24173:24188   */\n      mstore\n        /* \"#utility.yul\":24207:24211   */\n      0x24\n        /* \"#utility.yul\":24204:24205   */\n      0x00\n        /* \"#utility.yul\":24197:24212   */\n      revert\n        /* \"#utility.yul\":24224:24387   */\n    tag_333:\n        /* \"#utility.yul\":24364:24379   */\n      0x4e6f7420617661696c61626c6500000000000000000000000000000000000000\n        /* \"#utility.yul\":24360:24361   */\n      0x00\n        /* \"#utility.yul\":24352:24358   */\n      dup3\n        /* \"#utility.yul\":24348:24362   */\n      add\n        /* \"#utility.yul\":24341:24380   */\n      mstore\n        /* \"#utility.yul\":24224:24387   */\n      pop\n      jump\t// out\n        /* \"#utility.yul\":24393:24759   */\n    tag_334:\n        /* \"#utility.yul\":24535:24538   */\n      0x00\n        /* \"#utility.yul\":24556:24623   */\n      tag_585\n        /* \"#utility.yul\":24620:24622   */\n      0x0d\n        /* \"#utility.yul\":24615:24618   */\n      dup4\n        /* \"#utility.yul\":24556:24623   */\n      tag_301\n      jump\t// in\n    tag_585:\n        /* \"#utility.yul\":24549:24623   */\n      swap2\n      pop\n        /* \"#utility.yul\":24632:24725   */\n      tag_586\n        /* \"#utility.yul\":24721:24724   */\n      dup3\n        /* \"#utility.yul\":24632:24725   */\n      tag_333\n      jump\t// in\n    tag_586:\n        /* \"#utility.yul\":24750:24752   */\n      0x20\n        /* \"#utility.yul\":24745:24748   */\n      dup3\n        /* \"#utility.yul\":24741:24753   */\n      add\n        /* \"#utility.yul\":24734:24753   */\n      swap1\n      pop\n        /* \"#utility.yul\":24393:24759   */\n      swap2\n      swap1\n      pop\n      jump\t// out\n        /* \"#utility.yul\":24765:25184   */\n    tag_211:\n        /* \"#utility.yul\":24931:24935   */\n      0x00\n        /* \"#utility.yul\":24969:24971   */\n      0x20\n        /* \"#utility.yul\":24958:24967   */\n      dup3\n        /* \"#utility.yul\":24954:24972   */\n      add\n        /* \"#utility.yul\":24946:24972   */\n      swap1\n      pop\n        /* \"#utility.yul\":25018:25027   */\n      dup2\n        /* \"#utility.yul\":25012:25016   */\n      dup2\n        /* \"#utility.yul\":25008:25028   */\n      sub\n        /* \"#utility.yul\":25004:25005   */\n      0x00\n        /* \"#utility.yul\":24993:25002   */\n      dup4\n        /* \"#utility.yul\":24989:25006   */\n      add\n        /* \"#utility.yul\":24982:25029   */\n      mstore\n        /* \"#utility.yul\":25046:25177   */\n      tag_588\n        /* \"#utility.yul\":25172:25176   */\n      dup2\n        /* \"#utility.yul\":25046:25177   */\n      tag_334\n      jump\t// in\n    tag_588:\n        /* \"#utility.yul\":25038:25177   */\n      swap1\n      pop\n        /* \"#utility.yul\":24765:25184   */\n      swap2\n      swap1\n      pop\n      jump\t// out\n        /* \"#utility.yul\":25190:25356   */\n    tag_335:\n        /* \"#utility.yul\":25330:25348   */\n      0x4e6f7420656e6f7567682073746f636b00000000000000000000000000000000\n        /* \"#utility.yul\":25326:25327   */\n      0x00\n        /* \"#utility.yul\":25318:25324   */\n      dup3\n        /* \"#utility.yul\":25314:25328   */\n      add\n        /* \"#utility.yul\":25307:25349   */\n      mstore\n        /* \"#utility.yul\":25190:25356   */\n      pop\n      jump\t// out\n        /* \"#utility.yul\":25362:25728   */\n    tag_336:\n        /* \"#utility.yul\":25504:25507   */\n      0x00\n        /* \"#utility.yul\":25525:25592   */\n      tag_591\n        /* \"#utility.yul\":25589:25591   */\n      0x10\n        /* \"#utility.yul\":25584:25587   */\n      dup4\n        /* \"#utility.yul\":25525:25592   */\n      tag_301\n      jump\t// in\n    tag_591:\n        /* \"#utility.yul\":25518:25592   */\n      swap2\n      pop\n        /* \"#utility.yul\":25601:25694   */\n      tag_592\n        /* \"#utility.yul\":25690:25693   */\n      dup3\n        /* \"#utility.yul\":25601:25694   */\n      tag_335\n      jump\t// in\n    tag_592:\n        /* \"#utility.yul\":25719:25721   */\n      0x20\n        /* \"#utility.yul\":25714:25717   */\n      dup3\n        /* \"#utility.yul\":25710:25722   */\n      add\n        /* \"#utility.yul\":25703:25722   */\n      swap1\n      pop\n        /* \"#utility.yul\":25362:25728   */\n      swap2\n      swap1\n      pop\n      jump\t// out\n        /* \"#utility.yul\":25734:26153   */\n    tag_214:\n        /* \"#utility.yul\":25900:25904   */\n      0x00\n        /* \"#utility.yul\":25938:25940   */\n      0x20\n        /* \"#utility.yul\":25927:25936   */\n      dup3\n        /* \"#utility.yul\":25923:25941   */\n      add\n        /* \"#utility.yul\":25915:25941   */\n      swap1\n      pop\n        /* \"#utility.yul\":25987:25996   */\n      dup2\n        /* \"#utility.yul\":25981:25985   */\n      dup2\n        /* \"#utility.yul\":25977:25997   */\n      sub\n        /* \"#utility.yul\":25973:25974   */\n      0x00\n        /* \"#utility.yul\":25962:25971   */\n      dup4\n        /* \"#utility.yul\":25958:25975   */\n      add\n        /* \"#utility.yul\":25951:25998   */\n      mstore\n        /* \"#utility.yul\":26015:26146   */\n      tag_594\n        /* \"#utility.yul\":26141:26145   */\n      dup2\n        /* \"#utility.yul\":26015:26146   */\n      tag_336\n      jump\t// in\n    tag_594:\n        /* \"#utility.yul\":26007:26146   */\n      swap1\n      pop\n        /* \"#utility.yul\":25734:26153   */\n      swap2\n      swap1\n      pop\n      jump\t// out\n        /* \"#utility.yul\":26159:26322   */\n    tag_337:\n        /* \"#utility.yul\":26299:26314   */\n      0x57726f6e67207061796d656e7400000000000000000000000000000000000000\n        /* \"#utility.yul\":26295:26296   */\n      0x00\n        /* \"#utility.yul\":26287:26293   */\n      dup3\n        /* \"#utility.yul\":26283:26297   */\n      add\n        /* \"#utility.yul\":26276:26315   */\n      mstore\n        /* \"#utility.yul\":26159:26322   */\n      pop\n      jump\t// out\n        /* \"#utility.yul\":26328:26694   */\n    tag_338:\n        /* \"#utility.yul\":26470:26473   */\n      0x00\n        /* \"#utility.yul\":26491:26558   */\n      tag_597\n        /* \"#utility.yul\":26555:26557   */\n      0x0d\n        /* \"#utility.yul\":26550:26553   */\n      dup4\n        /* \"#utility.yul\":26491:26558   */\n      tag_301\n      jump\t// in\n    tag_597:\n        /* \"#utility.yul\":26484:26558   */\n      swap2\n      pop\n        /* \"#utility.yul\":26567:26660   */\n      tag_598\n        /* \"#utility.yul\":26656:26659   */\n      dup3\n        /* \"#utility.yul\":26567:26660   */\n      tag_337\n      jump\t// in\n    tag_598:\n        /* \"#utility.yul\":26685:26687   */\n      0x20\n        /* \"#utility.yul\":26680:26683   */\n      dup3\n        /* \"#utility.yul\":26676:26688   */\n      add\n        /* \"#utility.yul\":26669:26688   */\n      swap1\n      pop\n        /* \"#utility.yul\":26328:26694   */\n      swap2\n      swap1\n      pop\n      jump\t// out\n        /* \"#utility.yul\":26700:27119   */\n    tag_218:\n        /* \"#utility.yul\":26866:26870   */\n      0x00\n        /* \"#utility.yul\":26904:26906   */\n      0x20\n        /* \"#utility.yul\":26893:26902   */\n      dup3\n        /* \"#utility.yul\":26889:26907   */\n      add\n        /* \"#utility.yul\":26881:26907   */\n      swap1\n      pop\n        /* \"#utility.yul\":26953:26962   */\n      dup2\n        /* \"#utility.yul\":26947:26951   */\n      dup2\n        /* \"#utility.yul\":26943:26963   */\n      sub\n        /* \"#utility.yul\":26939:26940   */\n      0x00\n        /* \"#utility.yul\":26928:26937   */\n      dup4\n        /* \"#utility.yul\":26924:26941   */\n      add\n        /* \"#utility.yul\":26917:26964   */\n      mstore\n        /* \"#utility.yul\":26981:27112   */\n      tag_600\n        /* \"#utility.yul\":27107:27111   */\n      dup2\n        /* \"#utility.yul\":26981:27112   */\n      tag_338\n      jump\t// in\n    tag_600:\n        /* \"#utility.yul\":26973:27112   */\n      swap1\n      pop\n        /* \"#utility.yul\":26700:27119   */\n      swap2\n      swap1\n      pop\n      jump\t// out\n        /* \"#utility.yul\":27125:27309   */\n    tag_339:\n        /* \"#utility.yul\":27224:27235   */\n      0x00\n        /* \"#utility.yul\":27258:27264   */\n      dup3\n        /* \"#utility.yul\":27253:27256   */\n      dup3\n        /* \"#utility.yul\":27246:27265   */\n      mstore\n        /* \"#utility.yul\":27298:27302   */\n      0x20\n        /* \"#utility.yul\":27293:27296   */\n      dup3\n        /* \"#utility.yul\":27289:27303   */\n      add\n        /* \"#utility.yul\":27274:27303   */\n      swap1\n      pop\n        /* \"#utility.yul\":27125:27309   */\n      swap3\n      swap2\n      pop\n      pop\n      jump\t// out\n        /* \"#utility.yul\":27315:27432   */\n    tag_340:\n        /* \"#utility.yul\":27424:27425   */\n      0x00\n        /* \"#utility.yul\":27421:27422   */\n      dup1\n        /* \"#utility.yul\":27414:27426   */\n      revert\n        /* \"#utility.yul\":27438:27537   */\n    tag_341:\n        /* \"#utility.yul\":27523:27529   */\n      dup3\n        /* \"#utility.yul\":27518:27521   */\n      dup2\n        /* \"#utility.yul\":27513:27516   */\n      dup4\n        /* \"#utility.yul\":27500:27530   */\n      calldatacopy\n        /* \"#utility.yul\":27438:27537   */\n      pop\n      pop\n      pop\n      jump\t// out\n        /* \"#utility.yul\":27573:28110   */\n    tag_342:\n        /* \"#utility.yul\":27701:27704   */\n      0x00\n        /* \"#utility.yul\":27722:27808   */\n      tag_605\n        /* \"#utility.yul\":27801:27807   */\n      dup4\n        /* \"#utility.yul\":27796:27799   */\n      dup6\n        /* \"#utility.yul\":27722:27808   */\n      tag_339\n      jump\t// in\n    tag_605:\n        /* \"#utility.yul\":27715:27808   */\n      swap4\n      pop\n        /* \"#utility.yul\":27832:27898   */\n      0x07ffffffffffffffffffffffffffffffffffffffffffffffffffffffffffffff\n        /* \"#utility.yul\":27824:27830   */\n      dup4\n        /* \"#utility.yul\":27821:27899   */\n      gt\n        /* \"#utility.yul\":27818:27983   */\n      iszero\n      tag_606\n      jumpi\n        /* \"#utility.yul\":27902:27981   */\n      tag_607\n      tag_340\n      jump\t// in\n    tag_607:\n        /* \"#utility.yul\":27818:27983   */\n    tag_606:\n        /* \"#utility.yul\":28014:28018   */\n      0x20\n        /* \"#utility.yul\":28006:28012   */\n      dup4\n        /* \"#utility.yul\":28002:28019   */\n      mul\n        /* \"#utility.yul\":27992:28019   */\n      swap3\n      pop\n        /* \"#utility.yul\":28029:28072   */\n      tag_608\n        /* \"#utility.yul\":28065:28071   */\n      dup4\n        /* \"#utility.yul\":28060:28063   */\n      dup6\n        /* \"#utility.yul\":28053:28058   */\n      dup5\n        /* \"#utility.yul\":28029:28072   */\n      tag_341\n      jump\t// in\n    tag_608:\n        /* \"#utility.yul\":28097:28103   */\n      dup3\n        /* \"#utility.yul\":28092:28095   */\n      dup5\n        /* \"#utility.yul\":28088:28104   */\n      add\n        /* \"#utility.yul\":28081:28104   */\n      swap1\n      pop\n        /* \"#utility.yul\":27573:28110   */\n      swap4\n      swap3\n      pop\n      pop\n      pop\n      jump\t// out\n        /* \"#utility.yul\":28116:28509   */\n    tag_253:\n        /* \"#utility.yul\":28269:28273   */\n      0x00\n        /* \"#utility.yul\":28307:28309   */\n      0x20\n        /* \"#utility.yul\":28296:28305   */\n      dup3\n        /* \"#utility.yul\":28292:28310   */\n      add\n        /* \"#utility.yul\":28284:28310   */\n      swap1\n      pop\n        /* \"#utility.yul\":28356:28365   */\n      dup2\n        /* \"#utility.yul\":28350:28354   */\n      dup2\n        /* \"#utility.yul\":28346:28366   */\n      sub\n        /* \"#utility.yul\":28342:28343   */\n      0x00\n        /* \"#utility.yul\":28331:28340   */\n      dup4\n        /* \"#utility.yul\":28327:28344   */\n      add\n        /* \"#utility.yul\":28320:28367   */\n      mstore\n        /* \"#utility.yul\":28384:28502   */\n      tag_610\n        /* \"#utility.yul\":28497:28501   */\n      dup2\n        /* \"#utility.yul\":28488:28494   */\n      dup5\n        /* \"#utility.yul\":28480:28486   */\n      dup7\n        /* \"#utility.yul\":28384:28502   */\n      tag_342\n      jump\t// in\n    tag_610:\n        /* \"#utility.yul\":28376:28502   */\n      swap1\n      pop\n        /* \"#utility.yul\":28116:28509   */\n      swap4\n      swap3\n      pop\n      pop\n      pop\n      jump\t// out\n\n    auxdata: 0xa26469706673582212202ac92ed949d21d6980d3843a1a14b12b477eca8bc3b156fa60d71ec6988950cd64736f6c634300081a0033\n}\n",
				"bytecode": {
					"linkReferences": {},
					"object": "608060405234801561000f575f80fd5b50335f73ffffffffffffffffffffffffffffffffffffffff168173ffffffffffffffffffffffffffffffffffffffff1603610081575f6040517f1e4fbdf70000000000000000000000000000000000000000000000000000000081526004016100789190610196565b60405180910390fd5b6100908161009660201b60201c565b506101af565b5f805f9054906101000a900473ffffffffffffffffffffffffffffffffffffffff169050815f806101000a81548173ffffffffffffffffffffffffffffffffffffffff021916908373ffffffffffffffffffffffffffffffffffffffff1602179055508173ffffffffffffffffffffffffffffffffffffffff168173ffffffffffffffffffffffffffffffffffffffff167f8be0079c531659141344cd1fd0a4f28419497f9722a3daafe3b4186f6b6457e060405160405180910390a35050565b5f73ffffffffffffffffffffffffffffffffffffffff82169050919050565b5f61018082610157565b9050919050565b61019081610176565b82525050565b5f6020820190506101a95f830184610187565b92915050565b6125cb806101bc5f395ff3fe6080604052600436106100f2575f3560e01c8063715018a611610089578063e5ca530211610058578063e5ca530214610324578063f2fde38b1461034c578063f46de7d414610374578063f98520de14610390576100f2565b8063715018a6146102925780638da5cb5b146102a85780639bd30883146102d2578063bec0d799146102fc576100f2565b8063590791f2116100c5578063590791f2146101ac57806359c75898146101d65780635ac3e19e146102125780636874404614610252576100f2565b80631aec2cf9146100f657806321e6de9d1461011e578063354528e8146101465780635745ae2814610170575b5f80fd5b348015610101575f80fd5b5061011c600480360381019061011791906117ec565b6103b8565b005b348015610129575f80fd5b50610144600480360381019061013f91906118ec565b6104dd565b005b348015610151575f80fd5b5061015a610780565b6040516101679190611ace565b60405180910390f35b34801561017b575f80fd5b50610196600480360381019061019191906117ec565b6108d6565b6040516101a39190611b08565b60405180910390f35b3480156101b7575f80fd5b506101c06108f3565b6040516101cd9190611b30565b60405180910390f35b3480156101e1575f80fd5b506101fc60048036038101906101f791906117ec565b610918565b6040516102099190611b08565b60405180910390f35b34801561021d575f80fd5b5061023860048036038101906102339190611b49565b6109f3565b604051610249959493929190611bcb565b60405180910390f35b34801561025d575f80fd5b5061027860048036038101906102739190611b49565b610b85565b604051610289959493929190611c2a565b60405180910390f35b34801561029d575f80fd5b506102a6610cfd565b005b3480156102b3575f80fd5b506102bc610d10565b6040516102c99190611c98565b60405180910390f35b3480156102dd575f80fd5b506102e6610d37565b6040516102f39190611cb1565b60405180910390f35b348015610307575f80fd5b50610322600480360381019061031d9190611b49565b610d57565b005b34801561032f575f80fd5b5061034a600480360381019061034591906117ec565b610f40565b005b348015610357575f80fd5b50610372600480360381019061036d91906117ec565b61105b565b005b61038e60048036038101906103899190611cca565b6110df565b005b34801561039b575f80fd5b506103b660048036038101906103b19190611d5d565b6113b1565b005b60025f8273ffffffffffffffffffffffffffffffffffffffff1673ffffffffffffffffffffffffffffffffffffffff1681526020019081526020015f205f9054906101000a900460ff1615610442576040517f08c379a000000000000000000000000000000000000000000000000000000000815260040161043990611df2565b60405180910390fd5b600160025f8373ffffffffffffffffffffffffffffffffffffffff1673ffffffffffffffffffffffffffffffffffffffff1681526020019081526020015f205f6101000a81548160ff0219169083151502179055508073ffffffffffffffffffffffffffffffffffffffff167f64814cf4dee184dc70c8d41b259875da94b26650e5dd3955eb0741764d1b445560405160405180910390a250565b5f60015f8981526020019081526020015f205f01600c9054906101000a90046bffffffffffffffffffffffff166bffffffffffffffffffffffff1614610558576040517f08c379a000000000000000000000000000000000000000000000000000000000815260040161054f90611e5a565b60405180910390fd5b6040518060a00160405280836bffffffffffffffffffffffff168152602001670de0b6b3a76400008361058b9190611ea5565b6bffffffffffffffffffffffff1681526020015f846bffffffffffffffffffffffff16111515815260200187878080601f0160208091040260200160405190810160405280939291908181526020018383808284375f81840152601f19601f82011690508083019250505050505050815260200185858080601f0160208091040260200160405190810160405280939291908181526020018383808284375f81840152601f19601f8201169050808301925050505050505081525060015f8981526020019081526020015f205f820151815f015f6101000a8154816bffffffffffffffffffffffff02191690836bffffffffffffffffffffffff1602179055506020820151815f01600c6101000a8154816bffffffffffffffffffffffff02191690836bffffffffffffffffffffffff1602179055506040820151815f0160186101000a81548160ff02191690831515021790555060608201518160010190816106f59190612108565b50608082015181600201908161070b9190612108565b50905050600387908060018154018082558091505060019003905f5260205f20015f9091909190915055867f907463480edcb1016ad34b5c752a56e18c2aea6ed1dd0e18ec287d63d670d88f87878787868860405161076f96959493929190612211565b60405180910390a250505050505050565b60605f60038054905067ffffffffffffffff8111156107a2576107a1611ee1565b5b6040519080825280602002602001820160405280156107d557816020015b60608152602001906001900390816107c05790505b5090505f5b6003805490508110156108ce575f60015f600384815481106107ff576107fe612266565b5b905f5260205f20015481526020019081526020015f20905080600101805461082690611f3b565b80601f016020809104026020016040519081016040528092919081815260200182805461085290611f3b565b801561089d5780601f106108745761010080835404028352916020019161089d565b820191905f5260205f20905b81548152906001019060200180831161088057829003601f168201915b50505050508383815181106108b5576108b4612266565b5b60200260200101819052508180600101925050506107da565b508091505090565b6002602052805f5260405f205f915054906101000a900460ff1681565b5f6108fc610d10565b73ffffffffffffffffffffffffffffffffffffffff1631905090565b5f60025f8373ffffffffffffffffffffffffffffffffffffffff1673ffffffffffffffffffffffffffffffffffffffff1681526020019081526020015f205f9054906101000a900460ff166109a2576040517f08c379a0000000000000000000000000000000000000000000000000000000008152600401610999906122dd565b60405180910390fd5b60025f8373ffffffffffffffffffffffffffffffffffffffff1673ffffffffffffffffffffffffffffffffffffffff1681526020019081526020015f205f9054906101000a900460ff169050919050565b6060805f805f8060015f8881526020019081526020015f2090508060010181600201825f01600c9054906101000a90046bffffffffffffffffffffffff16835f015f9054906101000a90046bffffffffffffffffffffffff16845f0160189054906101000a900460ff16848054610a6990611f3b565b80601f0160208091040260200160405190810160405280929190818152602001828054610a9590611f3b565b8015610ae05780601f10610ab757610100808354040283529160200191610ae0565b820191905f5260205f20905b815481529060010190602001808311610ac357829003601f168201915b50505050509450838054610af390611f3b565b80601f0160208091040260200160405190810160405280929190818152602001828054610b1f90611f3b565b8015610b6a5780601f10610b4157610100808354040283529160200191610b6a565b820191905f5260205f20905b815481529060010190602001808311610b4d57829003601f168201915b50505050509350955095509550955095505091939590929450565b6001602052805f5260405f205f91509050805f015f9054906101000a90046bffffffffffffffffffffffff1690805f01600c9054906101000a90046bffffffffffffffffffffffff1690805f0160189054906101000a900460ff1690806001018054610bf090611f3b565b80601f0160208091040260200160405190810160405280929190818152602001828054610c1c90611f3b565b8015610c675780601f10610c3e57610100808354040283529160200191610c67565b820191905f5260205f20905b815481529060010190602001808311610c4a57829003601f168201915b505050505090806002018054610c7c90611f3b565b80601f0160208091040260200160405190810160405280929190818152602001828054610ca890611f3b565b8015610cf35780601f10610cca57610100808354040283529160200191610cf3565b820191905f5260205f20905b815481529060010190602001808311610cd657829003601f168201915b5050505050905085565b610d056115e3565b610d0e5f61166a565b565b5f805f9054906101000a900473ffffffffffffffffffffffffffffffffffffffff16905090565b5f60045f9054906101000a90046bffffffffffffffffffffffff16905090565b610d5f6115e3565b5f60015f8381526020019081526020015f205f01600c9054906101000a90046bffffffffffffffffffffffff166bffffffffffffffffffffffff1603610dda576040517f08c379a0000000000000000000000000000000000000000000000000000000008152600401610dd190612345565b60405180910390fd5b60015f8281526020019081526020015f205f8082015f6101000a8154906bffffffffffffffffffffffff02191690555f8201600c6101000a8154906bffffffffffffffffffffffff02191690555f820160186101000a81549060ff0219169055600182015f610e499190611732565b600282015f610e589190611732565b50505f5b600380549050811015610f0f578160038281548110610e7e57610e7d612266565b5b905f5260205f20015403610f045760036001600380549050610ea09190612363565b81548110610eb157610eb0612266565b5b905f5260205f20015460038281548110610ece57610ecd612266565b5b905f5260205f2001819055506003805480610eec57610eeb612396565b5b600190038181905f5260205f20015f90559055610f0f565b806001019050610e5c565b50807f3c5ce13264433bcf97e5d53c97af4fc33800e8c9dd927f965b116d0018d7cddf60405160405180910390a250565b60025f8273ffffffffffffffffffffffffffffffffffffffff1673ffffffffffffffffffffffffffffffffffffffff1681526020019081526020015f205f9054906101000a900460ff16610fc9576040517f08c379a0000000000000000000000000000000000000000000000000000000008152600401610fc0906122dd565b60405180910390fd5b60025f8273ffffffffffffffffffffffffffffffffffffffff1673ffffffffffffffffffffffffffffffffffffffff1681526020019081526020015f205f6101000a81549060ff02191690558073ffffffffffffffffffffffffffffffffffffffff167f5aaa4a885fe8afe482f8bb71a9c6e47dfcd1598f5f7eeee4a57f0ccb9e2b76b560405160405180910390a250565b6110636115e3565b5f73ffffffffffffffffffffffffffffffffffffffff168173ffffffffffffffffffffffffffffffffffffffff16036110d3575f6040517f1e4fbdf70000000000000000000000000000000000000000000000000000000081526004016110ca9190611c98565b60405180910390fd5b6110dc8161166a565b50565b5f60015f8481526020019081526020015f209050805f0160189054906101000a900460ff16611143576040517f08c379a000000000000000000000000000000000000000000000000000000000815260040161113a9061240d565b60405180910390fd5b816bffffffffffffffffffffffff16815f015f9054906101000a90046bffffffffffffffffffffffff166bffffffffffffffffffffffff1610156111bc576040517f08c379a00000000000000000000000000000000000000000000000000000000081526004016111b390612475565b60405180910390fd5b81815f01600c9054906101000a90046bffffffffffffffffffffffff166111e39190611ea5565b6bffffffffffffffffffffffff163414611232576040517f08c379a0000000000000000000000000000000000000000000000000000000008152600401611229906124dd565b60405180910390fd5b81815f015f8282829054906101000a90046bffffffffffffffffffffffff160392506101000a8154816bffffffffffffffffffffffff02191690836bffffffffffffffffffffffff1602179055508160045f8282829054906101000a90046bffffffffffffffffffffffff160192506101000a8154816bffffffffffffffffffffffff02191690836bffffffffffffffffffffffff1602179055505f815f015f9054906101000a90046bffffffffffffffffffffffff166bffffffffffffffffffffffff1611815f0160186101000a81548160ff02191690831515021790555061131a610d10565b73ffffffffffffffffffffffffffffffffffffffff166108fc3490811502906040515f60405180830381858888f1935050505015801561135c573d5f803e3d5ffd5b503373ffffffffffffffffffffffffffffffffffffffff16837f4e8e9bc53224dd7f5549d1a97fe174d12e6ff0064e2ccb78d886fc515c98859d846040516113a49190611cb1565b60405180910390a3505050565b6113b96115e3565b5f8282905090505f5b818110156115a4575f8484838181106113de576113dd612266565b5b9050602002013590505f60015f8381526020019081526020015f205f01600c9054906101000a90046bffffffffffffffffffffffff166bffffffffffffffffffffffff1603611462576040517f08c379a000000000000000000000000000000000000000000000000000000000815260040161145990612345565b60405180910390fd5b60015f8281526020019081526020015f205f8082015f6101000a8154906bffffffffffffffffffffffff02191690555f8201600c6101000a8154906bffffffffffffffffffffffff02191690555f820160186101000a81549060ff0219169055600182015f6114d19190611732565b600282015f6114e09190611732565b50505f5b60038054905081101561159757816003828154811061150657611505612266565b5b905f5260205f2001540361158c57600360016003805490506115289190612363565b8154811061153957611538612266565b5b905f5260205f2001546003828154811061155657611555612266565b5b905f5260205f200181905550600380548061157457611573612396565b5b600190038181905f5260205f20015f90559055611597565b8060010190506114e4565b50816001019150506113c2565b507f7262be1e48c30c363173fcb2fbf2dc2cb38d076dee42cc37cdfbdf62af5c3bed83836040516115d6929190612573565b60405180910390a1505050565b6115eb61172b565b73ffffffffffffffffffffffffffffffffffffffff16611609610d10565b73ffffffffffffffffffffffffffffffffffffffff16146116685761162c61172b565b6040517f118cdaa700000000000000000000000000000000000000000000000000000000815260040161165f9190611c98565b60405180910390fd5b565b5f805f9054906101000a900473ffffffffffffffffffffffffffffffffffffffff169050815f806101000a81548173ffffffffffffffffffffffffffffffffffffffff021916908373ffffffffffffffffffffffffffffffffffffffff1602179055508173ffffffffffffffffffffffffffffffffffffffff168173ffffffffffffffffffffffffffffffffffffffff167f8be0079c531659141344cd1fd0a4f28419497f9722a3daafe3b4186f6b6457e060405160405180910390a35050565b5f33905090565b50805461173e90611f3b565b5f825580601f1061174f575061176c565b601f0160209004905f5260205f209081019061176b919061176f565b5b50565b5b80821115611786575f815f905550600101611770565b5090565b5f80fd5b5f80fd5b5f73ffffffffffffffffffffffffffffffffffffffff82169050919050565b5f6117bb82611792565b9050919050565b6117cb816117b1565b81146117d5575f80fd5b50565b5f813590506117e6816117c2565b92915050565b5f602082840312156118015761180061178a565b5b5f61180e848285016117d8565b91505092915050565b5f819050919050565b61182981611817565b8114611833575f80fd5b50565b5f8135905061184481611820565b92915050565b5f80fd5b5f80fd5b5f80fd5b5f8083601f84011261186b5761186a61184a565b5b8235905067ffffffffffffffff8111156118885761188761184e565b5b6020830191508360018202830111156118a4576118a3611852565b5b9250929050565b5f6bffffffffffffffffffffffff82169050919050565b6118cb816118ab565b81146118d5575f80fd5b50565b5f813590506118e6816118c2565b92915050565b5f805f805f805f60a0888a0312156119075761190661178a565b5b5f6119148a828b01611836565b975050602088013567ffffffffffffffff8111156119355761193461178e565b5b6119418a828b01611856565b9650965050604088013567ffffffffffffffff8111156119645761196361178e565b5b6119708a828b01611856565b945094505060606119838a828b016118d8565b92505060806119948a828b016118d8565b91505092959891949750929550565b5f81519050919050565b5f82825260208201905092915050565b5f819050602082019050919050565b5f81519050919050565b5f82825260208201905092915050565b8281835e5f83830152505050565b5f601f19601f8301169050919050565b5f611a0e826119cc565b611a1881856119d6565b9350611a288185602086016119e6565b611a31816119f4565b840191505092915050565b5f611a478383611a04565b905092915050565b5f602082019050919050565b5f611a65826119a3565b611a6f81856119ad565b935083602082028501611a81856119bd565b805f5b85811015611abc5784840389528151611a9d8582611a3c565b9450611aa883611a4f565b925060208a01995050600181019050611a84565b50829750879550505050505092915050565b5f6020820190508181035f830152611ae68184611a5b565b905092915050565b5f8115159050919050565b611b0281611aee565b82525050565b5f602082019050611b1b5f830184611af9565b92915050565b611b2a81611817565b82525050565b5f602082019050611b435f830184611b21565b92915050565b5f60208284031215611b5e57611b5d61178a565b5b5f611b6b84828501611836565b91505092915050565b5f82825260208201905092915050565b5f611b8e826119cc565b611b988185611b74565b9350611ba88185602086016119e6565b611bb1816119f4565b840191505092915050565b611bc5816118ab565b82525050565b5f60a0820190508181035f830152611be38188611b84565b90508181036020830152611bf78187611b84565b9050611c066040830186611bbc565b611c136060830185611bbc565b611c206080830184611af9565b9695505050505050565b5f60a082019050611c3d5f830188611bbc565b611c4a6020830187611bbc565b611c576040830186611af9565b8181036060830152611c698185611b84565b90508181036080830152611c7d8184611b84565b90509695505050505050565b611c92816117b1565b82525050565b5f602082019050611cab5f830184611c89565b92915050565b5f602082019050611cc45f830184611bbc565b92915050565b5f8060408385031215611ce057611cdf61178a565b5b5f611ced85828601611836565b9250506020611cfe858286016118d8565b9150509250929050565b5f8083601f840112611d1d57611d1c61184a565b5b8235905067ffffffffffffffff811115611d3a57611d3961184e565b5b602083019150836020820283011115611d5657611d55611852565b5b9250929050565b5f8060208385031215611d7357611d7261178a565b5b5f83013567ffffffffffffffff811115611d9057611d8f61178e565b5b611d9c85828601611d08565b92509250509250929050565b7f437573746f6d657220497320416c7265616479205375627363726962656421005f82015250565b5f611ddc601f83611b74565b9150611de782611da8565b602082019050919050565b5f6020820190508181035f830152611e0981611dd0565b9050919050565b7f426f6f6b206578697374730000000000000000000000000000000000000000005f82015250565b5f611e44600b83611b74565b9150611e4f82611e10565b602082019050919050565b5f6020820190508181035f830152611e7181611e38565b9050919050565b7f4e487b71000000000000000000000000000000000000000000000000000000005f52601160045260245ffd5b5f611eaf826118ab565b9150611eba836118ab565b9250828202611ec8816118ab565b9150808214611eda57611ed9611e78565b5b5092915050565b7f4e487b71000000000000000000000000000000000000000000000000000000005f52604160045260245ffd5b7f4e487b71000000000000000000000000000000000000000000000000000000005f52602260045260245ffd5b5f6002820490506001821680611f5257607f821691505b602082108103611f6557611f64611f0e565b5b50919050565b5f819050815f5260205f209050919050565b5f6020601f8301049050919050565b5f82821b905092915050565b5f60088302611fc77fffffffffffffffffffffffffffffffffffffffffffffffffffffffffffffffff82611f8c565b611fd18683611f8c565b95508019841693508086168417925050509392505050565b5f819050919050565b5f61200c61200761200284611817565b611fe9565b611817565b9050919050565b5f819050919050565b61202583611ff2565b61203961203182612013565b848454611f98565b825550505050565b5f90565b61204d612041565b61205881848461201c565b505050565b5b8181101561207b576120705f82612045565b60018101905061205e565b5050565b601f8211156120c05761209181611f6b565b61209a84611f7d565b810160208510156120a9578190505b6120bd6120b585611f7d565b83018261205d565b50505b505050565b5f82821c905092915050565b5f6120e05f19846008026120c5565b1980831691505092915050565b5f6120f883836120d1565b9150826002028217905092915050565b612111826119cc565b67ffffffffffffffff81111561212a57612129611ee1565b5b6121348254611f3b565b61213f82828561207f565b5f60209050601f831160018114612170575f841561215e578287015190505b61216885826120ed565b8655506121cf565b601f19841661217e86611f6b565b5f5b828110156121a557848901518255600182019150602085019450602081019050612180565b868310156121c257848901516121be601f8916826120d1565b8355505b6001600288020188555050505b505050505050565b828183375f83830152505050565b5f6121f08385611b74565b93506121fd8385846121d7565b612206836119f4565b840190509392505050565b5f6080820190508181035f83015261222a81888a6121e5565b9050818103602083015261223f8186886121e5565b905061224e6040830185611bbc565b61225b6060830184611bbc565b979650505050505050565b7f4e487b71000000000000000000000000000000000000000000000000000000005f52603260045260245ffd5b7f437573746f6d6572204973204e6f7420537562736372696265642100000000005f82015250565b5f6122c7601b83611b74565b91506122d282612293565b602082019050919050565b5f6020820190508181035f8301526122f4816122bb565b9050919050565b7f426f6f6b206e6f742065786973740000000000000000000000000000000000005f82015250565b5f61232f600e83611b74565b915061233a826122fb565b602082019050919050565b5f6020820190508181035f83015261235c81612323565b9050919050565b5f61236d82611817565b915061237883611817565b92508282039050818111156123905761238f611e78565b5b92915050565b7f4e487b71000000000000000000000000000000000000000000000000000000005f52603160045260245ffd5b7f4e6f7420617661696c61626c65000000000000000000000000000000000000005f82015250565b5f6123f7600d83611b74565b9150612402826123c3565b602082019050919050565b5f6020820190508181035f830152612424816123eb565b9050919050565b7f4e6f7420656e6f7567682073746f636b000000000000000000000000000000005f82015250565b5f61245f601083611b74565b915061246a8261242b565b602082019050919050565b5f6020820190508181035f83015261248c81612453565b9050919050565b7f57726f6e67207061796d656e74000000000000000000000000000000000000005f82015250565b5f6124c7600d83611b74565b91506124d282612493565b602082019050919050565b5f6020820190508181035f8301526124f4816124bb565b9050919050565b5f82825260208201905092915050565b5f80fd5b82818337505050565b5f61252383856124fb565b93507f07ffffffffffffffffffffffffffffffffffffffffffffffffffffffffffffff8311156125565761255561250b565b5b60208302925061256783858461250f565b82840190509392505050565b5f6020820190508181035f83015261258c818486612518565b9050939250505056fea26469706673582212202ac92ed949d21d6980d3843a1a14b12b477eca8bc3b156fa60d71ec6988950cd64736f6c634300081a0033",
					"opcodes": "PUSH1 0x80 PUSH1 0x40 MSTORE CALLVALUE DUP1 ISZERO PUSH2 0xF JUMPI PUSH0 DUP1 REVERT JUMPDEST POP CALLER PUSH0 PUSH20 0xFFFFFFFFFFFFFFFFFFFFFFFFFFFFFFFFFFFFFFFF AND DUP2 PUSH20 0xFFFFFFFFFFFFFFFFFFFFFFFFFFFFFFFFFFFFFFFF AND SUB PUSH2 0x81 JUMPI PUSH0 PUSH1 0x40 MLOAD PUSH32 0x1E4FBDF700000000000000000000000000000000000000000000000000000000 DUP2 MSTORE PUSH1 0x4 ADD PUSH2 0x78 SWAP2 SWAP1 PUSH2 0x196 JUMP JUMPDEST PUSH1 0x40 MLOAD DUP1 SWAP2 SUB SWAP1 REVERT JUMPDEST PUSH2 0x90 DUP2 PUSH2 0x96 PUSH1 0x20 SHL PUSH1 0x20 SHR JUMP JUMPDEST POP PUSH2 0x1AF JUMP JUMPDEST PUSH0 DUP1 PUSH0 SWAP1 SLOAD SWAP1 PUSH2 0x100 EXP SWAP1 DIV PUSH20 0xFFFFFFFFFFFFFFFFFFFFFFFFFFFFFFFFFFFFFFFF AND SWAP1 POP DUP2 PUSH0 DUP1 PUSH2 0x100 EXP DUP2 SLOAD DUP2 PUSH20 0xFFFFFFFFFFFFFFFFFFFFFFFFFFFFFFFFFFFFFFFF MUL NOT AND SWAP1 DUP4 PUSH20 0xFFFFFFFFFFFFFFFFFFFFFFFFFFFFFFFFFFFFFFFF AND MUL OR SWAP1 SSTORE POP DUP2 PUSH20 0xFFFFFFFFFFFFFFFFFFFFFFFFFFFFFFFFFFFFFFFF AND DUP2 PUSH20 0xFFFFFFFFFFFFFFFFFFFFFFFFFFFFFFFFFFFFFFFF AND PUSH32 0x8BE0079C531659141344CD1FD0A4F28419497F9722A3DAAFE3B4186F6B6457E0 PUSH1 0x40 MLOAD PUSH1 0x40 MLOAD DUP1 SWAP2 SUB SWAP1 LOG3 POP POP JUMP JUMPDEST PUSH0 PUSH20 0xFFFFFFFFFFFFFFFFFFFFFFFFFFFFFFFFFFFFFFFF DUP3 AND SWAP1 POP SWAP2 SWAP1 POP JUMP JUMPDEST PUSH0 PUSH2 0x180 DUP3 PUSH2 0x157 JUMP JUMPDEST SWAP1 POP SWAP2 SWAP1 POP JUMP JUMPDEST PUSH2 0x190 DUP2 PUSH2 0x176 JUMP JUMPDEST DUP3 MSTORE POP POP JUMP JUMPDEST PUSH0 PUSH1 0x20 DUP3 ADD SWAP1 POP PUSH2 0x1A9 PUSH0 DUP4 ADD DUP5 PUSH2 0x187 JUMP JUMPDEST SWAP3 SWAP2 POP POP JUMP JUMPDEST PUSH2 0x25CB DUP1 PUSH2 0x1BC PUSH0 CODECOPY PUSH0 RETURN INVALID PUSH1 0x80 PUSH1 0x40 MSTORE PUSH1 0x4 CALLDATASIZE LT PUSH2 0xF2 JUMPI PUSH0 CALLDATALOAD PUSH1 0xE0 SHR DUP1 PUSH4 0x715018A6 GT PUSH2 0x89 JUMPI DUP1 PUSH4 0xE5CA5302 GT PUSH2 0x58 JUMPI DUP1 PUSH4 0xE5CA5302 EQ PUSH2 0x324 JUMPI DUP1 PUSH4 0xF2FDE38B EQ PUSH2 0x34C JUMPI DUP1 PUSH4 0xF46DE7D4 EQ PUSH2 0x374 JUMPI DUP1 PUSH4 0xF98520DE EQ PUSH2 0x390 JUMPI PUSH2 0xF2 JUMP JUMPDEST DUP1 PUSH4 0x715018A6 EQ PUSH2 0x292 JUMPI DUP1 PUSH4 0x8DA5CB5B EQ PUSH2 0x2A8 JUMPI DUP1 PUSH4 0x9BD30883 EQ PUSH2 0x2D2 JUMPI DUP1 PUSH4 0xBEC0D799 EQ PUSH2 0x2FC JUMPI PUSH2 0xF2 JUMP JUMPDEST DUP1 PUSH4 0x590791F2 GT PUSH2 0xC5 JUMPI DUP1 PUSH4 0x590791F2 EQ PUSH2 0x1AC JUMPI DUP1 PUSH4 0x59C75898 EQ PUSH2 0x1D6 JUMPI DUP1 PUSH4 0x5AC3E19E EQ PUSH2 0x212 JUMPI DUP1 PUSH4 0x68744046 EQ PUSH2 0x252 JUMPI PUSH2 0xF2 JUMP JUMPDEST DUP1 PUSH4 0x1AEC2CF9 EQ PUSH2 0xF6 JUMPI DUP1 PUSH4 0x21E6DE9D EQ PUSH2 0x11E JUMPI DUP1 PUSH4 0x354528E8 EQ PUSH2 0x146 JUMPI DUP1 PUSH4 0x5745AE28 EQ PUSH2 0x170 JUMPI JUMPDEST PUSH0 DUP1 REVERT JUMPDEST CALLVALUE DUP1 ISZERO PUSH2 0x101 JUMPI PUSH0 DUP1 REVERT JUMPDEST POP PUSH2 0x11C PUSH1 0x4 DUP1 CALLDATASIZE SUB DUP2 ADD SWAP1 PUSH2 0x117 SWAP2 SWAP1 PUSH2 0x17EC JUMP JUMPDEST PUSH2 0x3B8 JUMP JUMPDEST STOP JUMPDEST CALLVALUE DUP1 ISZERO PUSH2 0x129 JUMPI PUSH0 DUP1 REVERT JUMPDEST POP PUSH2 0x144 PUSH1 0x4 DUP1 CALLDATASIZE SUB DUP2 ADD SWAP1 PUSH2 0x13F SWAP2 SWAP1 PUSH2 0x18EC JUMP JUMPDEST PUSH2 0x4DD JUMP JUMPDEST STOP JUMPDEST CALLVALUE DUP1 ISZERO PUSH2 0x151 JUMPI PUSH0 DUP1 REVERT JUMPDEST POP PUSH2 0x15A PUSH2 0x780 JUMP JUMPDEST PUSH1 0x40 MLOAD PUSH2 0x167 SWAP2 SWAP1 PUSH2 0x1ACE JUMP JUMPDEST PUSH1 0x40 MLOAD DUP1 SWAP2 SUB SWAP1 RETURN JUMPDEST CALLVALUE DUP1 ISZERO PUSH2 0x17B JUMPI PUSH0 DUP1 REVERT JUMPDEST POP PUSH2 0x196 PUSH1 0x4 DUP1 CALLDATASIZE SUB DUP2 ADD SWAP1 PUSH2 0x191 SWAP2 SWAP1 PUSH2 0x17EC JUMP JUMPDEST PUSH2 0x8D6 JUMP JUMPDEST PUSH1 0x40 MLOAD PUSH2 0x1A3 SWAP2 SWAP1 PUSH2 0x1B08 JUMP JUMPDEST PUSH1 0x40 MLOAD DUP1 SWAP2 SUB SWAP1 RETURN JUMPDEST CALLVALUE DUP1 ISZERO PUSH2 0x1B7 JUMPI PUSH0 DUP1 REVERT JUMPDEST POP PUSH2 0x1C0 PUSH2 0x8F3 JUMP JUMPDEST PUSH1 0x40 MLOAD PUSH2 0x1CD SWAP2 SWAP1 PUSH2 0x1B30 JUMP JUMPDEST PUSH1 0x40 MLOAD DUP1 SWAP2 SUB SWAP1 RETURN JUMPDEST CALLVALUE DUP1 ISZERO PUSH2 0x1E1 JUMPI PUSH0 DUP1 REVERT JUMPDEST POP PUSH2 0x1FC PUSH1 0x4 DUP1 CALLDATASIZE SUB DUP2 ADD SWAP1 PUSH2 0x1F7 SWAP2 SWAP1 PUSH2 0x17EC JUMP JUMPDEST PUSH2 0x918 JUMP JUMPDEST PUSH1 0x40 MLOAD PUSH2 0x209 SWAP2 SWAP1 PUSH2 0x1B08 JUMP JUMPDEST PUSH1 0x40 MLOAD DUP1 SWAP2 SUB SWAP1 RETURN JUMPDEST CALLVALUE DUP1 ISZERO PUSH2 0x21D JUMPI PUSH0 DUP1 REVERT JUMPDEST POP PUSH2 0x238 PUSH1 0x4 DUP1 CALLDATASIZE SUB DUP2 ADD SWAP1 PUSH2 0x233 SWAP2 SWAP1 PUSH2 0x1B49 JUMP JUMPDEST PUSH2 0x9F3 JUMP JUMPDEST PUSH1 0x40 MLOAD PUSH2 0x249 SWAP6 SWAP5 SWAP4 SWAP3 SWAP2 SWAP1 PUSH2 0x1BCB JUMP JUMPDEST PUSH1 0x40 MLOAD DUP1 SWAP2 SUB SWAP1 RETURN JUMPDEST CALLVALUE DUP1 ISZERO PUSH2 0x25D JUMPI PUSH0 DUP1 REVERT JUMPDEST POP PUSH2 0x278 PUSH1 0x4 DUP1 CALLDATASIZE SUB DUP2 ADD SWAP1 PUSH2 0x273 SWAP2 SWAP1 PUSH2 0x1B49 JUMP JUMPDEST PUSH2 0xB85 JUMP JUMPDEST PUSH1 0x40 MLOAD PUSH2 0x289 SWAP6 SWAP5 SWAP4 SWAP3 SWAP2 SWAP1 PUSH2 0x1C2A JUMP JUMPDEST PUSH1 0x40 MLOAD DUP1 SWAP2 SUB SWAP1 RETURN JUMPDEST CALLVALUE DUP1 ISZERO PUSH2 0x29D JUMPI PUSH0 DUP1 REVERT JUMPDEST POP PUSH2 0x2A6 PUSH2 0xCFD JUMP JUMPDEST STOP JUMPDEST CALLVALUE DUP1 ISZERO PUSH2 0x2B3 JUMPI PUSH0 DUP1 REVERT JUMPDEST POP PUSH2 0x2BC PUSH2 0xD10 JUMP JUMPDEST PUSH1 0x40 MLOAD PUSH2 0x2C9 SWAP2 SWAP1 PUSH2 0x1C98 JUMP JUMPDEST PUSH1 0x40 MLOAD DUP1 SWAP2 SUB SWAP1 RETURN JUMPDEST CALLVALUE DUP1 ISZERO PUSH2 0x2DD JUMPI PUSH0 DUP1 REVERT JUMPDEST POP PUSH2 0x2E6 PUSH2 0xD37 JUMP JUMPDEST PUSH1 0x40 MLOAD PUSH2 0x2F3 SWAP2 SWAP1 PUSH2 0x1CB1 JUMP JUMPDEST PUSH1 0x40 MLOAD DUP1 SWAP2 SUB SWAP1 RETURN JUMPDEST CALLVALUE DUP1 ISZERO PUSH2 0x307 JUMPI PUSH0 DUP1 REVERT JUMPDEST POP PUSH2 0x322 PUSH1 0x4 DUP1 CALLDATASIZE SUB DUP2 ADD SWAP1 PUSH2 0x31D SWAP2 SWAP1 PUSH2 0x1B49 JUMP JUMPDEST PUSH2 0xD57 JUMP JUMPDEST STOP JUMPDEST CALLVALUE DUP1 ISZERO PUSH2 0x32F JUMPI PUSH0 DUP1 REVERT JUMPDEST POP PUSH2 0x34A PUSH1 0x4 DUP1 CALLDATASIZE SUB DUP2 ADD SWAP1 PUSH2 0x345 SWAP2 SWAP1 PUSH2 0x17EC JUMP JUMPDEST PUSH2 0xF40 JUMP JUMPDEST STOP JUMPDEST CALLVALUE DUP1 ISZERO PUSH2 0x357 JUMPI PUSH0 DUP1 REVERT JUMPDEST POP PUSH2 0x372 PUSH1 0x4 DUP1 CALLDATASIZE SUB DUP2 ADD SWAP1 PUSH2 0x36D SWAP2 SWAP1 PUSH2 0x17EC JUMP JUMPDEST PUSH2 0x105B JUMP JUMPDEST STOP JUMPDEST PUSH2 0x38E PUSH1 0x4 DUP1 CALLDATASIZE SUB DUP2 ADD SWAP1 PUSH2 0x389 SWAP2 SWAP1 PUSH2 0x1CCA JUMP JUMPDEST PUSH2 0x10DF JUMP JUMPDEST STOP JUMPDEST CALLVALUE DUP1 ISZERO PUSH2 0x39B JUMPI PUSH0 DUP1 REVERT JUMPDEST POP PUSH2 0x3B6 PUSH1 0x4 DUP1 CALLDATASIZE SUB DUP2 ADD SWAP1 PUSH2 0x3B1 SWAP2 SWAP1 PUSH2 0x1D5D JUMP JUMPDEST PUSH2 0x13B1 JUMP JUMPDEST STOP JUMPDEST PUSH1 0x2 PUSH0 DUP3 PUSH20 0xFFFFFFFFFFFFFFFFFFFFFFFFFFFFFFFFFFFFFFFF AND PUSH20 0xFFFFFFFFFFFFFFFFFFFFFFFFFFFFFFFFFFFFFFFF AND DUP2 MSTORE PUSH1 0x20 ADD SWAP1 DUP2 MSTORE PUSH1 0x20 ADD PUSH0 KECCAK256 PUSH0 SWAP1 SLOAD SWAP1 PUSH2 0x100 EXP SWAP1 DIV PUSH1 0xFF AND ISZERO PUSH2 0x442 JUMPI PUSH1 0x40 MLOAD PUSH32 0x8C379A000000000000000000000000000000000000000000000000000000000 DUP2 MSTORE PUSH1 0x4 ADD PUSH2 0x439 SWAP1 PUSH2 0x1DF2 JUMP JUMPDEST PUSH1 0x40 MLOAD DUP1 SWAP2 SUB SWAP1 REVERT JUMPDEST PUSH1 0x1 PUSH1 0x2 PUSH0 DUP4 PUSH20 0xFFFFFFFFFFFFFFFFFFFFFFFFFFFFFFFFFFFFFFFF AND PUSH20 0xFFFFFFFFFFFFFFFFFFFFFFFFFFFFFFFFFFFFFFFF AND DUP2 MSTORE PUSH1 0x20 ADD SWAP1 DUP2 MSTORE PUSH1 0x20 ADD PUSH0 KECCAK256 PUSH0 PUSH2 0x100 EXP DUP2 SLOAD DUP2 PUSH1 0xFF MUL NOT AND SWAP1 DUP4 ISZERO ISZERO MUL OR SWAP1 SSTORE POP DUP1 PUSH20 0xFFFFFFFFFFFFFFFFFFFFFFFFFFFFFFFFFFFFFFFF AND PUSH32 0x64814CF4DEE184DC70C8D41B259875DA94B26650E5DD3955EB0741764D1B4455 PUSH1 0x40 MLOAD PUSH1 0x40 MLOAD DUP1 SWAP2 SUB SWAP1 LOG2 POP JUMP JUMPDEST PUSH0 PUSH1 0x1 PUSH0 DUP10 DUP2 MSTORE PUSH1 0x20 ADD SWAP1 DUP2 MSTORE PUSH1 0x20 ADD PUSH0 KECCAK256 PUSH0 ADD PUSH1 0xC SWAP1 SLOAD SWAP1 PUSH2 0x100 EXP SWAP1 DIV PUSH12 0xFFFFFFFFFFFFFFFFFFFFFFFF AND PUSH12 0xFFFFFFFFFFFFFFFFFFFFFFFF AND EQ PUSH2 0x558 JUMPI PUSH1 0x40 MLOAD PUSH32 0x8C379A000000000000000000000000000000000000000000000000000000000 DUP2 MSTORE PUSH1 0x4 ADD PUSH2 0x54F SWAP1 PUSH2 0x1E5A JUMP JUMPDEST PUSH1 0x40 MLOAD DUP1 SWAP2 SUB SWAP1 REVERT JUMPDEST PUSH1 0x40 MLOAD DUP1 PUSH1 0xA0 ADD PUSH1 0x40 MSTORE DUP1 DUP4 PUSH12 0xFFFFFFFFFFFFFFFFFFFFFFFF AND DUP2 MSTORE PUSH1 0x20 ADD PUSH8 0xDE0B6B3A7640000 DUP4 PUSH2 0x58B SWAP2 SWAP1 PUSH2 0x1EA5 JUMP JUMPDEST PUSH12 0xFFFFFFFFFFFFFFFFFFFFFFFF AND DUP2 MSTORE PUSH1 0x20 ADD PUSH0 DUP5 PUSH12 0xFFFFFFFFFFFFFFFFFFFFFFFF AND GT ISZERO ISZERO DUP2 MSTORE PUSH1 0x20 ADD DUP8 DUP8 DUP1 DUP1 PUSH1 0x1F ADD PUSH1 0x20 DUP1 SWAP2 DIV MUL PUSH1 0x20 ADD PUSH1 0x40 MLOAD SWAP1 DUP2 ADD PUSH1 0x40 MSTORE DUP1 SWAP4 SWAP3 SWAP2 SWAP1 DUP2 DUP2 MSTORE PUSH1 0x20 ADD DUP4 DUP4 DUP1 DUP3 DUP5 CALLDATACOPY PUSH0 DUP2 DUP5 ADD MSTORE PUSH1 0x1F NOT PUSH1 0x1F DUP3 ADD AND SWAP1 POP DUP1 DUP4 ADD SWAP3 POP POP POP POP POP POP POP DUP2 MSTORE PUSH1 0x20 ADD DUP6 DUP6 DUP1 DUP1 PUSH1 0x1F ADD PUSH1 0x20 DUP1 SWAP2 DIV MUL PUSH1 0x20 ADD PUSH1 0x40 MLOAD SWAP1 DUP2 ADD PUSH1 0x40 MSTORE DUP1 SWAP4 SWAP3 SWAP2 SWAP1 DUP2 DUP2 MSTORE PUSH1 0x20 ADD DUP4 DUP4 DUP1 DUP3 DUP5 CALLDATACOPY PUSH0 DUP2 DUP5 ADD MSTORE PUSH1 0x1F NOT PUSH1 0x1F DUP3 ADD AND SWAP1 POP DUP1 DUP4 ADD SWAP3 POP POP POP POP POP POP POP DUP2 MSTORE POP PUSH1 0x1 PUSH0 DUP10 DUP2 MSTORE PUSH1 0x20 ADD SWAP1 DUP2 MSTORE PUSH1 0x20 ADD PUSH0 KECCAK256 PUSH0 DUP3 ADD MLOAD DUP2 PUSH0 ADD PUSH0 PUSH2 0x100 EXP DUP2 SLOAD DUP2 PUSH12 0xFFFFFFFFFFFFFFFFFFFFFFFF MUL NOT AND SWAP1 DUP4 PUSH12 0xFFFFFFFFFFFFFFFFFFFFFFFF AND MUL OR SWAP1 SSTORE POP PUSH1 0x20 DUP3 ADD MLOAD DUP2 PUSH0 ADD PUSH1 0xC PUSH2 0x100 EXP DUP2 SLOAD DUP2 PUSH12 0xFFFFFFFFFFFFFFFFFFFFFFFF MUL NOT AND SWAP1 DUP4 PUSH12 0xFFFFFFFFFFFFFFFFFFFFFFFF AND MUL OR SWAP1 SSTORE POP PUSH1 0x40 DUP3 ADD MLOAD DUP2 PUSH0 ADD PUSH1 0x18 PUSH2 0x100 EXP DUP2 SLOAD DUP2 PUSH1 0xFF MUL NOT AND SWAP1 DUP4 ISZERO ISZERO MUL OR SWAP1 SSTORE POP PUSH1 0x60 DUP3 ADD MLOAD DUP2 PUSH1 0x1 ADD SWAP1 DUP2 PUSH2 0x6F5 SWAP2 SWAP1 PUSH2 0x2108 JUMP JUMPDEST POP PUSH1 0x80 DUP3 ADD MLOAD DUP2 PUSH1 0x2 ADD SWAP1 DUP2 PUSH2 0x70B SWAP2 SWAP1 PUSH2 0x2108 JUMP JUMPDEST POP SWAP1 POP POP PUSH1 0x3 DUP8 SWAP1 DUP1 PUSH1 0x1 DUP2 SLOAD ADD DUP1 DUP3 SSTORE DUP1 SWAP2 POP POP PUSH1 0x1 SWAP1 SUB SWAP1 PUSH0 MSTORE PUSH1 0x20 PUSH0 KECCAK256 ADD PUSH0 SWAP1 SWAP2 SWAP1 SWAP2 SWAP1 SWAP2 POP SSTORE DUP7 PUSH32 0x907463480EDCB1016AD34B5C752A56E18C2AEA6ED1DD0E18EC287D63D670D88F DUP8 DUP8 DUP8 DUP8 DUP7 DUP9 PUSH1 0x40 MLOAD PUSH2 0x76F SWAP7 SWAP6 SWAP5 SWAP4 SWAP3 SWAP2 SWAP1 PUSH2 0x2211 JUMP JUMPDEST PUSH1 0x40 MLOAD DUP1 SWAP2 SUB SWAP1 LOG2 POP POP POP POP POP POP POP JUMP JUMPDEST PUSH1 0x60 PUSH0 PUSH1 0x3 DUP1 SLOAD SWAP1 POP PUSH8 0xFFFFFFFFFFFFFFFF DUP2 GT ISZERO PUSH2 0x7A2 JUMPI PUSH2 0x7A1 PUSH2 0x1EE1 JUMP JUMPDEST JUMPDEST PUSH1 0x40 MLOAD SWAP1 DUP1 DUP3 MSTORE DUP1 PUSH1 0x20 MUL PUSH1 0x20 ADD DUP3 ADD PUSH1 0x40 MSTORE DUP1 ISZERO PUSH2 0x7D5 JUMPI DUP2 PUSH1 0x20 ADD JUMPDEST PUSH1 0x60 DUP2 MSTORE PUSH1 0x20 ADD SWAP1 PUSH1 0x1 SWAP1 SUB SWAP1 DUP2 PUSH2 0x7C0 JUMPI SWAP1 POP JUMPDEST POP SWAP1 POP PUSH0 JUMPDEST PUSH1 0x3 DUP1 SLOAD SWAP1 POP DUP2 LT ISZERO PUSH2 0x8CE JUMPI PUSH0 PUSH1 0x1 PUSH0 PUSH1 0x3 DUP5 DUP2 SLOAD DUP2 LT PUSH2 0x7FF JUMPI PUSH2 0x7FE PUSH2 0x2266 JUMP JUMPDEST JUMPDEST SWAP1 PUSH0 MSTORE PUSH1 0x20 PUSH0 KECCAK256 ADD SLOAD DUP2 MSTORE PUSH1 0x20 ADD SWAP1 DUP2 MSTORE PUSH1 0x20 ADD PUSH0 KECCAK256 SWAP1 POP DUP1 PUSH1 0x1 ADD DUP1 SLOAD PUSH2 0x826 SWAP1 PUSH2 0x1F3B JUMP JUMPDEST DUP1 PUSH1 0x1F ADD PUSH1 0x20 DUP1 SWAP2 DIV MUL PUSH1 0x20 ADD PUSH1 0x40 MLOAD SWAP1 DUP2 ADD PUSH1 0x40 MSTORE DUP1 SWAP3 SWAP2 SWAP1 DUP2 DUP2 MSTORE PUSH1 0x20 ADD DUP3 DUP1 SLOAD PUSH2 0x852 SWAP1 PUSH2 0x1F3B JUMP JUMPDEST DUP1 ISZERO PUSH2 0x89D JUMPI DUP1 PUSH1 0x1F LT PUSH2 0x874 JUMPI PUSH2 0x100 DUP1 DUP4 SLOAD DIV MUL DUP4 MSTORE SWAP2 PUSH1 0x20 ADD SWAP2 PUSH2 0x89D JUMP JUMPDEST DUP3 ADD SWAP2 SWAP1 PUSH0 MSTORE PUSH1 0x20 PUSH0 KECCAK256 SWAP1 JUMPDEST DUP2 SLOAD DUP2 MSTORE SWAP1 PUSH1 0x1 ADD SWAP1 PUSH1 0x20 ADD DUP1 DUP4 GT PUSH2 0x880 JUMPI DUP3 SWAP1 SUB PUSH1 0x1F AND DUP3 ADD SWAP2 JUMPDEST POP POP POP POP POP DUP4 DUP4 DUP2 MLOAD DUP2 LT PUSH2 0x8B5 JUMPI PUSH2 0x8B4 PUSH2 0x2266 JUMP JUMPDEST JUMPDEST PUSH1 0x20 MUL PUSH1 0x20 ADD ADD DUP2 SWAP1 MSTORE POP DUP2 DUP1 PUSH1 0x1 ADD SWAP3 POP POP POP PUSH2 0x7DA JUMP JUMPDEST POP DUP1 SWAP2 POP POP SWAP1 JUMP JUMPDEST PUSH1 0x2 PUSH1 0x20 MSTORE DUP1 PUSH0 MSTORE PUSH1 0x40 PUSH0 KECCAK256 PUSH0 SWAP2 POP SLOAD SWAP1 PUSH2 0x100 EXP SWAP1 DIV PUSH1 0xFF AND DUP2 JUMP JUMPDEST PUSH0 PUSH2 0x8FC PUSH2 0xD10 JUMP JUMPDEST PUSH20 0xFFFFFFFFFFFFFFFFFFFFFFFFFFFFFFFFFFFFFFFF AND BALANCE SWAP1 POP SWAP1 JUMP JUMPDEST PUSH0 PUSH1 0x2 PUSH0 DUP4 PUSH20 0xFFFFFFFFFFFFFFFFFFFFFFFFFFFFFFFFFFFFFFFF AND PUSH20 0xFFFFFFFFFFFFFFFFFFFFFFFFFFFFFFFFFFFFFFFF AND DUP2 MSTORE PUSH1 0x20 ADD SWAP1 DUP2 MSTORE PUSH1 0x20 ADD PUSH0 KECCAK256 PUSH0 SWAP1 SLOAD SWAP1 PUSH2 0x100 EXP SWAP1 DIV PUSH1 0xFF AND PUSH2 0x9A2 JUMPI PUSH1 0x40 MLOAD PUSH32 0x8C379A000000000000000000000000000000000000000000000000000000000 DUP2 MSTORE PUSH1 0x4 ADD PUSH2 0x999 SWAP1 PUSH2 0x22DD JUMP JUMPDEST PUSH1 0x40 MLOAD DUP1 SWAP2 SUB SWAP1 REVERT JUMPDEST PUSH1 0x2 PUSH0 DUP4 PUSH20 0xFFFFFFFFFFFFFFFFFFFFFFFFFFFFFFFFFFFFFFFF AND PUSH20 0xFFFFFFFFFFFFFFFFFFFFFFFFFFFFFFFFFFFFFFFF AND DUP2 MSTORE PUSH1 0x20 ADD SWAP1 DUP2 MSTORE PUSH1 0x20 ADD PUSH0 KECCAK256 PUSH0 SWAP1 SLOAD SWAP1 PUSH2 0x100 EXP SWAP1 DIV PUSH1 0xFF AND SWAP1 POP SWAP2 SWAP1 POP JUMP JUMPDEST PUSH1 0x60 DUP1 PUSH0 DUP1 PUSH0 DUP1 PUSH1 0x1 PUSH0 DUP9 DUP2 MSTORE PUSH1 0x20 ADD SWAP1 DUP2 MSTORE PUSH1 0x20 ADD PUSH0 KECCAK256 SWAP1 POP DUP1 PUSH1 0x1 ADD DUP2 PUSH1 0x2 ADD DUP3 PUSH0 ADD PUSH1 0xC SWAP1 SLOAD SWAP1 PUSH2 0x100 EXP SWAP1 DIV PUSH12 0xFFFFFFFFFFFFFFFFFFFFFFFF AND DUP4 PUSH0 ADD PUSH0 SWAP1 SLOAD SWAP1 PUSH2 0x100 EXP SWAP1 DIV PUSH12 0xFFFFFFFFFFFFFFFFFFFFFFFF AND DUP5 PUSH0 ADD PUSH1 0x18 SWAP1 SLOAD SWAP1 PUSH2 0x100 EXP SWAP1 DIV PUSH1 0xFF AND DUP5 DUP1 SLOAD PUSH2 0xA69 SWAP1 PUSH2 0x1F3B JUMP JUMPDEST DUP1 PUSH1 0x1F ADD PUSH1 0x20 DUP1 SWAP2 DIV MUL PUSH1 0x20 ADD PUSH1 0x40 MLOAD SWAP1 DUP2 ADD PUSH1 0x40 MSTORE DUP1 SWAP3 SWAP2 SWAP1 DUP2 DUP2 MSTORE PUSH1 0x20 ADD DUP3 DUP1 SLOAD PUSH2 0xA95 SWAP1 PUSH2 0x1F3B JUMP JUMPDEST DUP1 ISZERO PUSH2 0xAE0 JUMPI DUP1 PUSH1 0x1F LT PUSH2 0xAB7 JUMPI PUSH2 0x100 DUP1 DUP4 SLOAD DIV MUL DUP4 MSTORE SWAP2 PUSH1 0x20 ADD SWAP2 PUSH2 0xAE0 JUMP JUMPDEST DUP3 ADD SWAP2 SWAP1 PUSH0 MSTORE PUSH1 0x20 PUSH0 KECCAK256 SWAP1 JUMPDEST DUP2 SLOAD DUP2 MSTORE SWAP1 PUSH1 0x1 ADD SWAP1 PUSH1 0x20 ADD DUP1 DUP4 GT PUSH2 0xAC3 JUMPI DUP3 SWAP1 SUB PUSH1 0x1F AND DUP3 ADD SWAP2 JUMPDEST POP POP POP POP POP SWAP5 POP DUP4 DUP1 SLOAD PUSH2 0xAF3 SWAP1 PUSH2 0x1F3B JUMP JUMPDEST DUP1 PUSH1 0x1F ADD PUSH1 0x20 DUP1 SWAP2 DIV MUL PUSH1 0x20 ADD PUSH1 0x40 MLOAD SWAP1 DUP2 ADD PUSH1 0x40 MSTORE DUP1 SWAP3 SWAP2 SWAP1 DUP2 DUP2 MSTORE PUSH1 0x20 ADD DUP3 DUP1 SLOAD PUSH2 0xB1F SWAP1 PUSH2 0x1F3B JUMP JUMPDEST DUP1 ISZERO PUSH2 0xB6A JUMPI DUP1 PUSH1 0x1F LT PUSH2 0xB41 JUMPI PUSH2 0x100 DUP1 DUP4 SLOAD DIV MUL DUP4 MSTORE SWAP2 PUSH1 0x20 ADD SWAP2 PUSH2 0xB6A JUMP JUMPDEST DUP3 ADD SWAP2 SWAP1 PUSH0 MSTORE PUSH1 0x20 PUSH0 KECCAK256 SWAP1 JUMPDEST DUP2 SLOAD DUP2 MSTORE SWAP1 PUSH1 0x1 ADD SWAP1 PUSH1 0x20 ADD DUP1 DUP4 GT PUSH2 0xB4D JUMPI DUP3 SWAP1 SUB PUSH1 0x1F AND DUP3 ADD SWAP2 JUMPDEST POP POP POP POP POP SWAP4 POP SWAP6 POP SWAP6 POP SWAP6 POP SWAP6 POP SWAP6 POP POP SWAP2 SWAP4 SWAP6 SWAP1 SWAP3 SWAP5 POP JUMP JUMPDEST PUSH1 0x1 PUSH1 0x20 MSTORE DUP1 PUSH0 MSTORE PUSH1 0x40 PUSH0 KECCAK256 PUSH0 SWAP2 POP SWAP1 POP DUP1 PUSH0 ADD PUSH0 SWAP1 SLOAD SWAP1 PUSH2 0x100 EXP SWAP1 DIV PUSH12 0xFFFFFFFFFFFFFFFFFFFFFFFF AND SWAP1 DUP1 PUSH0 ADD PUSH1 0xC SWAP1 SLOAD SWAP1 PUSH2 0x100 EXP SWAP1 DIV PUSH12 0xFFFFFFFFFFFFFFFFFFFFFFFF AND SWAP1 DUP1 PUSH0 ADD PUSH1 0x18 SWAP1 SLOAD SWAP1 PUSH2 0x100 EXP SWAP1 DIV PUSH1 0xFF AND SWAP1 DUP1 PUSH1 0x1 ADD DUP1 SLOAD PUSH2 0xBF0 SWAP1 PUSH2 0x1F3B JUMP JUMPDEST DUP1 PUSH1 0x1F ADD PUSH1 0x20 DUP1 SWAP2 DIV MUL PUSH1 0x20 ADD PUSH1 0x40 MLOAD SWAP1 DUP2 ADD PUSH1 0x40 MSTORE DUP1 SWAP3 SWAP2 SWAP1 DUP2 DUP2 MSTORE PUSH1 0x20 ADD DUP3 DUP1 SLOAD PUSH2 0xC1C SWAP1 PUSH2 0x1F3B JUMP JUMPDEST DUP1 ISZERO PUSH2 0xC67 JUMPI DUP1 PUSH1 0x1F LT PUSH2 0xC3E JUMPI PUSH2 0x100 DUP1 DUP4 SLOAD DIV MUL DUP4 MSTORE SWAP2 PUSH1 0x20 ADD SWAP2 PUSH2 0xC67 JUMP JUMPDEST DUP3 ADD SWAP2 SWAP1 PUSH0 MSTORE PUSH1 0x20 PUSH0 KECCAK256 SWAP1 JUMPDEST DUP2 SLOAD DUP2 MSTORE SWAP1 PUSH1 0x1 ADD SWAP1 PUSH1 0x20 ADD DUP1 DUP4 GT PUSH2 0xC4A JUMPI DUP3 SWAP1 SUB PUSH1 0x1F AND DUP3 ADD SWAP2 JUMPDEST POP POP POP POP POP SWAP1 DUP1 PUSH1 0x2 ADD DUP1 SLOAD PUSH2 0xC7C SWAP1 PUSH2 0x1F3B JUMP JUMPDEST DUP1 PUSH1 0x1F ADD PUSH1 0x20 DUP1 SWAP2 DIV MUL PUSH1 0x20 ADD PUSH1 0x40 MLOAD SWAP1 DUP2 ADD PUSH1 0x40 MSTORE DUP1 SWAP3 SWAP2 SWAP1 DUP2 DUP2 MSTORE PUSH1 0x20 ADD DUP3 DUP1 SLOAD PUSH2 0xCA8 SWAP1 PUSH2 0x1F3B JUMP JUMPDEST DUP1 ISZERO PUSH2 0xCF3 JUMPI DUP1 PUSH1 0x1F LT PUSH2 0xCCA JUMPI PUSH2 0x100 DUP1 DUP4 SLOAD DIV MUL DUP4 MSTORE SWAP2 PUSH1 0x20 ADD SWAP2 PUSH2 0xCF3 JUMP JUMPDEST DUP3 ADD SWAP2 SWAP1 PUSH0 MSTORE PUSH1 0x20 PUSH0 KECCAK256 SWAP1 JUMPDEST DUP2 SLOAD DUP2 MSTORE SWAP1 PUSH1 0x1 ADD SWAP1 PUSH1 0x20 ADD DUP1 DUP4 GT PUSH2 0xCD6 JUMPI DUP3 SWAP1 SUB PUSH1 0x1F AND DUP3 ADD SWAP2 JUMPDEST POP POP POP POP POP SWAP1 POP DUP6 JUMP JUMPDEST PUSH2 0xD05 PUSH2 0x15E3 JUMP JUMPDEST PUSH2 0xD0E PUSH0 PUSH2 0x166A JUMP JUMPDEST JUMP JUMPDEST PUSH0 DUP1 PUSH0 SWAP1 SLOAD SWAP1 PUSH2 0x100 EXP SWAP1 DIV PUSH20 0xFFFFFFFFFFFFFFFFFFFFFFFFFFFFFFFFFFFFFFFF AND SWAP1 POP SWAP1 JUMP JUMPDEST PUSH0 PUSH1 0x4 PUSH0 SWAP1 SLOAD SWAP1 PUSH2 0x100 EXP SWAP1 DIV PUSH12 0xFFFFFFFFFFFFFFFFFFFFFFFF AND SWAP1 POP SWAP1 JUMP JUMPDEST PUSH2 0xD5F PUSH2 0x15E3 JUMP JUMPDEST PUSH0 PUSH1 0x1 PUSH0 DUP4 DUP2 MSTORE PUSH1 0x20 ADD SWAP1 DUP2 MSTORE PUSH1 0x20 ADD PUSH0 KECCAK256 PUSH0 ADD PUSH1 0xC SWAP1 SLOAD SWAP1 PUSH2 0x100 EXP SWAP1 DIV PUSH12 0xFFFFFFFFFFFFFFFFFFFFFFFF AND PUSH12 0xFFFFFFFFFFFFFFFFFFFFFFFF AND SUB PUSH2 0xDDA JUMPI PUSH1 0x40 MLOAD PUSH32 0x8C379A000000000000000000000000000000000000000000000000000000000 DUP2 MSTORE PUSH1 0x4 ADD PUSH2 0xDD1 SWAP1 PUSH2 0x2345 JUMP JUMPDEST PUSH1 0x40 MLOAD DUP1 SWAP2 SUB SWAP1 REVERT JUMPDEST PUSH1 0x1 PUSH0 DUP3 DUP2 MSTORE PUSH1 0x20 ADD SWAP1 DUP2 MSTORE PUSH1 0x20 ADD PUSH0 KECCAK256 PUSH0 DUP1 DUP3 ADD PUSH0 PUSH2 0x100 EXP DUP2 SLOAD SWAP1 PUSH12 0xFFFFFFFFFFFFFFFFFFFFFFFF MUL NOT AND SWAP1 SSTORE PUSH0 DUP3 ADD PUSH1 0xC PUSH2 0x100 EXP DUP2 SLOAD SWAP1 PUSH12 0xFFFFFFFFFFFFFFFFFFFFFFFF MUL NOT AND SWAP1 SSTORE PUSH0 DUP3 ADD PUSH1 0x18 PUSH2 0x100 EXP DUP2 SLOAD SWAP1 PUSH1 0xFF MUL NOT AND SWAP1 SSTORE PUSH1 0x1 DUP3 ADD PUSH0 PUSH2 0xE49 SWAP2 SWAP1 PUSH2 0x1732 JUMP JUMPDEST PUSH1 0x2 DUP3 ADD PUSH0 PUSH2 0xE58 SWAP2 SWAP1 PUSH2 0x1732 JUMP JUMPDEST POP POP PUSH0 JUMPDEST PUSH1 0x3 DUP1 SLOAD SWAP1 POP DUP2 LT ISZERO PUSH2 0xF0F JUMPI DUP2 PUSH1 0x3 DUP3 DUP2 SLOAD DUP2 LT PUSH2 0xE7E JUMPI PUSH2 0xE7D PUSH2 0x2266 JUMP JUMPDEST JUMPDEST SWAP1 PUSH0 MSTORE PUSH1 0x20 PUSH0 KECCAK256 ADD SLOAD SUB PUSH2 0xF04 JUMPI PUSH1 0x3 PUSH1 0x1 PUSH1 0x3 DUP1 SLOAD SWAP1 POP PUSH2 0xEA0 SWAP2 SWAP1 PUSH2 0x2363 JUMP JUMPDEST DUP2 SLOAD DUP2 LT PUSH2 0xEB1 JUMPI PUSH2 0xEB0 PUSH2 0x2266 JUMP JUMPDEST JUMPDEST SWAP1 PUSH0 MSTORE PUSH1 0x20 PUSH0 KECCAK256 ADD SLOAD PUSH1 0x3 DUP3 DUP2 SLOAD DUP2 LT PUSH2 0xECE JUMPI PUSH2 0xECD PUSH2 0x2266 JUMP JUMPDEST JUMPDEST SWAP1 PUSH0 MSTORE PUSH1 0x20 PUSH0 KECCAK256 ADD DUP2 SWAP1 SSTORE POP PUSH1 0x3 DUP1 SLOAD DUP1 PUSH2 0xEEC JUMPI PUSH2 0xEEB PUSH2 0x2396 JUMP JUMPDEST JUMPDEST PUSH1 0x1 SWAP1 SUB DUP2 DUP2 SWAP1 PUSH0 MSTORE PUSH1 0x20 PUSH0 KECCAK256 ADD PUSH0 SWAP1 SSTORE SWAP1 SSTORE PUSH2 0xF0F JUMP JUMPDEST DUP1 PUSH1 0x1 ADD SWAP1 POP PUSH2 0xE5C JUMP JUMPDEST POP DUP1 PUSH32 0x3C5CE13264433BCF97E5D53C97AF4FC33800E8C9DD927F965B116D0018D7CDDF PUSH1 0x40 MLOAD PUSH1 0x40 MLOAD DUP1 SWAP2 SUB SWAP1 LOG2 POP JUMP JUMPDEST PUSH1 0x2 PUSH0 DUP3 PUSH20 0xFFFFFFFFFFFFFFFFFFFFFFFFFFFFFFFFFFFFFFFF AND PUSH20 0xFFFFFFFFFFFFFFFFFFFFFFFFFFFFFFFFFFFFFFFF AND DUP2 MSTORE PUSH1 0x20 ADD SWAP1 DUP2 MSTORE PUSH1 0x20 ADD PUSH0 KECCAK256 PUSH0 SWAP1 SLOAD SWAP1 PUSH2 0x100 EXP SWAP1 DIV PUSH1 0xFF AND PUSH2 0xFC9 JUMPI PUSH1 0x40 MLOAD PUSH32 0x8C379A000000000000000000000000000000000000000000000000000000000 DUP2 MSTORE PUSH1 0x4 ADD PUSH2 0xFC0 SWAP1 PUSH2 0x22DD JUMP JUMPDEST PUSH1 0x40 MLOAD DUP1 SWAP2 SUB SWAP1 REVERT JUMPDEST PUSH1 0x2 PUSH0 DUP3 PUSH20 0xFFFFFFFFFFFFFFFFFFFFFFFFFFFFFFFFFFFFFFFF AND PUSH20 0xFFFFFFFFFFFFFFFFFFFFFFFFFFFFFFFFFFFFFFFF AND DUP2 MSTORE PUSH1 0x20 ADD SWAP1 DUP2 MSTORE PUSH1 0x20 ADD PUSH0 KECCAK256 PUSH0 PUSH2 0x100 EXP DUP2 SLOAD SWAP1 PUSH1 0xFF MUL NOT AND SWAP1 SSTORE DUP1 PUSH20 0xFFFFFFFFFFFFFFFFFFFFFFFFFFFFFFFFFFFFFFFF AND PUSH32 0x5AAA4A885FE8AFE482F8BB71A9C6E47DFCD1598F5F7EEEE4A57F0CCB9E2B76B5 PUSH1 0x40 MLOAD PUSH1 0x40 MLOAD DUP1 SWAP2 SUB SWAP1 LOG2 POP JUMP JUMPDEST PUSH2 0x1063 PUSH2 0x15E3 JUMP JUMPDEST PUSH0 PUSH20 0xFFFFFFFFFFFFFFFFFFFFFFFFFFFFFFFFFFFFFFFF AND DUP2 PUSH20 0xFFFFFFFFFFFFFFFFFFFFFFFFFFFFFFFFFFFFFFFF AND SUB PUSH2 0x10D3 JUMPI PUSH0 PUSH1 0x40 MLOAD PUSH32 0x1E4FBDF700000000000000000000000000000000000000000000000000000000 DUP2 MSTORE PUSH1 0x4 ADD PUSH2 0x10CA SWAP2 SWAP1 PUSH2 0x1C98 JUMP JUMPDEST PUSH1 0x40 MLOAD DUP1 SWAP2 SUB SWAP1 REVERT JUMPDEST PUSH2 0x10DC DUP2 PUSH2 0x166A JUMP JUMPDEST POP JUMP JUMPDEST PUSH0 PUSH1 0x1 PUSH0 DUP5 DUP2 MSTORE PUSH1 0x20 ADD SWAP1 DUP2 MSTORE PUSH1 0x20 ADD PUSH0 KECCAK256 SWAP1 POP DUP1 PUSH0 ADD PUSH1 0x18 SWAP1 SLOAD SWAP1 PUSH2 0x100 EXP SWAP1 DIV PUSH1 0xFF AND PUSH2 0x1143 JUMPI PUSH1 0x40 MLOAD PUSH32 0x8C379A000000000000000000000000000000000000000000000000000000000 DUP2 MSTORE PUSH1 0x4 ADD PUSH2 0x113A SWAP1 PUSH2 0x240D JUMP JUMPDEST PUSH1 0x40 MLOAD DUP1 SWAP2 SUB SWAP1 REVERT JUMPDEST DUP2 PUSH12 0xFFFFFFFFFFFFFFFFFFFFFFFF AND DUP2 PUSH0 ADD PUSH0 SWAP1 SLOAD SWAP1 PUSH2 0x100 EXP SWAP1 DIV PUSH12 0xFFFFFFFFFFFFFFFFFFFFFFFF AND PUSH12 0xFFFFFFFFFFFFFFFFFFFFFFFF AND LT ISZERO PUSH2 0x11BC JUMPI PUSH1 0x40 MLOAD PUSH32 0x8C379A000000000000000000000000000000000000000000000000000000000 DUP2 MSTORE PUSH1 0x4 ADD PUSH2 0x11B3 SWAP1 PUSH2 0x2475 JUMP JUMPDEST PUSH1 0x40 MLOAD DUP1 SWAP2 SUB SWAP1 REVERT JUMPDEST DUP2 DUP2 PUSH0 ADD PUSH1 0xC SWAP1 SLOAD SWAP1 PUSH2 0x100 EXP SWAP1 DIV PUSH12 0xFFFFFFFFFFFFFFFFFFFFFFFF AND PUSH2 0x11E3 SWAP2 SWAP1 PUSH2 0x1EA5 JUMP JUMPDEST PUSH12 0xFFFFFFFFFFFFFFFFFFFFFFFF AND CALLVALUE EQ PUSH2 0x1232 JUMPI PUSH1 0x40 MLOAD PUSH32 0x8C379A000000000000000000000000000000000000000000000000000000000 DUP2 MSTORE PUSH1 0x4 ADD PUSH2 0x1229 SWAP1 PUSH2 0x24DD JUMP JUMPDEST PUSH1 0x40 MLOAD DUP1 SWAP2 SUB SWAP1 REVERT JUMPDEST DUP2 DUP2 PUSH0 ADD PUSH0 DUP3 DUP3 DUP3 SWAP1 SLOAD SWAP1 PUSH2 0x100 EXP SWAP1 DIV PUSH12 0xFFFFFFFFFFFFFFFFFFFFFFFF AND SUB SWAP3 POP PUSH2 0x100 EXP DUP2 SLOAD DUP2 PUSH12 0xFFFFFFFFFFFFFFFFFFFFFFFF MUL NOT AND SWAP1 DUP4 PUSH12 0xFFFFFFFFFFFFFFFFFFFFFFFF AND MUL OR SWAP1 SSTORE POP DUP2 PUSH1 0x4 PUSH0 DUP3 DUP3 DUP3 SWAP1 SLOAD SWAP1 PUSH2 0x100 EXP SWAP1 DIV PUSH12 0xFFFFFFFFFFFFFFFFFFFFFFFF AND ADD SWAP3 POP PUSH2 0x100 EXP DUP2 SLOAD DUP2 PUSH12 0xFFFFFFFFFFFFFFFFFFFFFFFF MUL NOT AND SWAP1 DUP4 PUSH12 0xFFFFFFFFFFFFFFFFFFFFFFFF AND MUL OR SWAP1 SSTORE POP PUSH0 DUP2 PUSH0 ADD PUSH0 SWAP1 SLOAD SWAP1 PUSH2 0x100 EXP SWAP1 DIV PUSH12 0xFFFFFFFFFFFFFFFFFFFFFFFF AND PUSH12 0xFFFFFFFFFFFFFFFFFFFFFFFF AND GT DUP2 PUSH0 ADD PUSH1 0x18 PUSH2 0x100 EXP DUP2 SLOAD DUP2 PUSH1 0xFF MUL NOT AND SWAP1 DUP4 ISZERO ISZERO MUL OR SWAP1 SSTORE POP PUSH2 0x131A PUSH2 0xD10 JUMP JUMPDEST PUSH20 0xFFFFFFFFFFFFFFFFFFFFFFFFFFFFFFFFFFFFFFFF AND PUSH2 0x8FC CALLVALUE SWAP1 DUP2 ISZERO MUL SWAP1 PUSH1 0x40 MLOAD PUSH0 PUSH1 0x40 MLOAD DUP1 DUP4 SUB DUP2 DUP6 DUP9 DUP9 CALL SWAP4 POP POP POP POP ISZERO DUP1 ISZERO PUSH2 0x135C JUMPI RETURNDATASIZE PUSH0 DUP1 RETURNDATACOPY RETURNDATASIZE PUSH0 REVERT JUMPDEST POP CALLER PUSH20 0xFFFFFFFFFFFFFFFFFFFFFFFFFFFFFFFFFFFFFFFF AND DUP4 PUSH32 0x4E8E9BC53224DD7F5549D1A97FE174D12E6FF0064E2CCB78D886FC515C98859D DUP5 PUSH1 0x40 MLOAD PUSH2 0x13A4 SWAP2 SWAP1 PUSH2 0x1CB1 JUMP JUMPDEST PUSH1 0x40 MLOAD DUP1 SWAP2 SUB SWAP1 LOG3 POP POP POP JUMP JUMPDEST PUSH2 0x13B9 PUSH2 0x15E3 JUMP JUMPDEST PUSH0 DUP3 DUP3 SWAP1 POP SWAP1 POP PUSH0 JUMPDEST DUP2 DUP2 LT ISZERO PUSH2 0x15A4 JUMPI PUSH0 DUP5 DUP5 DUP4 DUP2 DUP2 LT PUSH2 0x13DE JUMPI PUSH2 0x13DD PUSH2 0x2266 JUMP JUMPDEST JUMPDEST SWAP1 POP PUSH1 0x20 MUL ADD CALLDATALOAD SWAP1 POP PUSH0 PUSH1 0x1 PUSH0 DUP4 DUP2 MSTORE PUSH1 0x20 ADD SWAP1 DUP2 MSTORE PUSH1 0x20 ADD PUSH0 KECCAK256 PUSH0 ADD PUSH1 0xC SWAP1 SLOAD SWAP1 PUSH2 0x100 EXP SWAP1 DIV PUSH12 0xFFFFFFFFFFFFFFFFFFFFFFFF AND PUSH12 0xFFFFFFFFFFFFFFFFFFFFFFFF AND SUB PUSH2 0x1462 JUMPI PUSH1 0x40 MLOAD PUSH32 0x8C379A000000000000000000000000000000000000000000000000000000000 DUP2 MSTORE PUSH1 0x4 ADD PUSH2 0x1459 SWAP1 PUSH2 0x2345 JUMP JUMPDEST PUSH1 0x40 MLOAD DUP1 SWAP2 SUB SWAP1 REVERT JUMPDEST PUSH1 0x1 PUSH0 DUP3 DUP2 MSTORE PUSH1 0x20 ADD SWAP1 DUP2 MSTORE PUSH1 0x20 ADD PUSH0 KECCAK256 PUSH0 DUP1 DUP3 ADD PUSH0 PUSH2 0x100 EXP DUP2 SLOAD SWAP1 PUSH12 0xFFFFFFFFFFFFFFFFFFFFFFFF MUL NOT AND SWAP1 SSTORE PUSH0 DUP3 ADD PUSH1 0xC PUSH2 0x100 EXP DUP2 SLOAD SWAP1 PUSH12 0xFFFFFFFFFFFFFFFFFFFFFFFF MUL NOT AND SWAP1 SSTORE PUSH0 DUP3 ADD PUSH1 0x18 PUSH2 0x100 EXP DUP2 SLOAD SWAP1 PUSH1 0xFF MUL NOT AND SWAP1 SSTORE PUSH1 0x1 DUP3 ADD PUSH0 PUSH2 0x14D1 SWAP2 SWAP1 PUSH2 0x1732 JUMP JUMPDEST PUSH1 0x2 DUP3 ADD PUSH0 PUSH2 0x14E0 SWAP2 SWAP1 PUSH2 0x1732 JUMP JUMPDEST POP POP PUSH0 JUMPDEST PUSH1 0x3 DUP1 SLOAD SWAP1 POP DUP2 LT ISZERO PUSH2 0x1597 JUMPI DUP2 PUSH1 0x3 DUP3 DUP2 SLOAD DUP2 LT PUSH2 0x1506 JUMPI PUSH2 0x1505 PUSH2 0x2266 JUMP JUMPDEST JUMPDEST SWAP1 PUSH0 MSTORE PUSH1 0x20 PUSH0 KECCAK256 ADD SLOAD SUB PUSH2 0x158C JUMPI PUSH1 0x3 PUSH1 0x1 PUSH1 0x3 DUP1 SLOAD SWAP1 POP PUSH2 0x1528 SWAP2 SWAP1 PUSH2 0x2363 JUMP JUMPDEST DUP2 SLOAD DUP2 LT PUSH2 0x1539 JUMPI PUSH2 0x1538 PUSH2 0x2266 JUMP JUMPDEST JUMPDEST SWAP1 PUSH0 MSTORE PUSH1 0x20 PUSH0 KECCAK256 ADD SLOAD PUSH1 0x3 DUP3 DUP2 SLOAD DUP2 LT PUSH2 0x1556 JUMPI PUSH2 0x1555 PUSH2 0x2266 JUMP JUMPDEST JUMPDEST SWAP1 PUSH0 MSTORE PUSH1 0x20 PUSH0 KECCAK256 ADD DUP2 SWAP1 SSTORE POP PUSH1 0x3 DUP1 SLOAD DUP1 PUSH2 0x1574 JUMPI PUSH2 0x1573 PUSH2 0x2396 JUMP JUMPDEST JUMPDEST PUSH1 0x1 SWAP1 SUB DUP2 DUP2 SWAP1 PUSH0 MSTORE PUSH1 0x20 PUSH0 KECCAK256 ADD PUSH0 SWAP1 SSTORE SWAP1 SSTORE PUSH2 0x1597 JUMP JUMPDEST DUP1 PUSH1 0x1 ADD SWAP1 POP PUSH2 0x14E4 JUMP JUMPDEST POP DUP2 PUSH1 0x1 ADD SWAP2 POP POP PUSH2 0x13C2 JUMP JUMPDEST POP PUSH32 0x7262BE1E48C30C363173FCB2FBF2DC2CB38D076DEE42CC37CDFBDF62AF5C3BED DUP4 DUP4 PUSH1 0x40 MLOAD PUSH2 0x15D6 SWAP3 SWAP2 SWAP1 PUSH2 0x2573 JUMP JUMPDEST PUSH1 0x40 MLOAD DUP1 SWAP2 SUB SWAP1 LOG1 POP POP POP JUMP JUMPDEST PUSH2 0x15EB PUSH2 0x172B JUMP JUMPDEST PUSH20 0xFFFFFFFFFFFFFFFFFFFFFFFFFFFFFFFFFFFFFFFF AND PUSH2 0x1609 PUSH2 0xD10 JUMP JUMPDEST PUSH20 0xFFFFFFFFFFFFFFFFFFFFFFFFFFFFFFFFFFFFFFFF AND EQ PUSH2 0x1668 JUMPI PUSH2 0x162C PUSH2 0x172B JUMP JUMPDEST PUSH1 0x40 MLOAD PUSH32 0x118CDAA700000000000000000000000000000000000000000000000000000000 DUP2 MSTORE PUSH1 0x4 ADD PUSH2 0x165F SWAP2 SWAP1 PUSH2 0x1C98 JUMP JUMPDEST PUSH1 0x40 MLOAD DUP1 SWAP2 SUB SWAP1 REVERT JUMPDEST JUMP JUMPDEST PUSH0 DUP1 PUSH0 SWAP1 SLOAD SWAP1 PUSH2 0x100 EXP SWAP1 DIV PUSH20 0xFFFFFFFFFFFFFFFFFFFFFFFFFFFFFFFFFFFFFFFF AND SWAP1 POP DUP2 PUSH0 DUP1 PUSH2 0x100 EXP DUP2 SLOAD DUP2 PUSH20 0xFFFFFFFFFFFFFFFFFFFFFFFFFFFFFFFFFFFFFFFF MUL NOT AND SWAP1 DUP4 PUSH20 0xFFFFFFFFFFFFFFFFFFFFFFFFFFFFFFFFFFFFFFFF AND MUL OR SWAP1 SSTORE POP DUP2 PUSH20 0xFFFFFFFFFFFFFFFFFFFFFFFFFFFFFFFFFFFFFFFF AND DUP2 PUSH20 0xFFFFFFFFFFFFFFFFFFFFFFFFFFFFFFFFFFFFFFFF AND PUSH32 0x8BE0079C531659141344CD1FD0A4F28419497F9722A3DAAFE3B4186F6B6457E0 PUSH1 0x40 MLOAD PUSH1 0x40 MLOAD DUP1 SWAP2 SUB SWAP1 LOG3 POP POP JUMP JUMPDEST PUSH0 CALLER SWAP1 POP SWAP1 JUMP JUMPDEST POP DUP1 SLOAD PUSH2 0x173E SWAP1 PUSH2 0x1F3B JUMP JUMPDEST PUSH0 DUP3 SSTORE DUP1 PUSH1 0x1F LT PUSH2 0x174F JUMPI POP PUSH2 0x176C JUMP JUMPDEST PUSH1 0x1F ADD PUSH1 0x20 SWAP1 DIV SWAP1 PUSH0 MSTORE PUSH1 0x20 PUSH0 KECCAK256 SWAP1 DUP2 ADD SWAP1 PUSH2 0x176B SWAP2 SWAP1 PUSH2 0x176F JUMP JUMPDEST JUMPDEST POP JUMP JUMPDEST JUMPDEST DUP1 DUP3 GT ISZERO PUSH2 0x1786 JUMPI PUSH0 DUP2 PUSH0 SWAP1 SSTORE POP PUSH1 0x1 ADD PUSH2 0x1770 JUMP JUMPDEST POP SWAP1 JUMP JUMPDEST PUSH0 DUP1 REVERT JUMPDEST PUSH0 DUP1 REVERT JUMPDEST PUSH0 PUSH20 0xFFFFFFFFFFFFFFFFFFFFFFFFFFFFFFFFFFFFFFFF DUP3 AND SWAP1 POP SWAP2 SWAP1 POP JUMP JUMPDEST PUSH0 PUSH2 0x17BB DUP3 PUSH2 0x1792 JUMP JUMPDEST SWAP1 POP SWAP2 SWAP1 POP JUMP JUMPDEST PUSH2 0x17CB DUP2 PUSH2 0x17B1 JUMP JUMPDEST DUP2 EQ PUSH2 0x17D5 JUMPI PUSH0 DUP1 REVERT JUMPDEST POP JUMP JUMPDEST PUSH0 DUP2 CALLDATALOAD SWAP1 POP PUSH2 0x17E6 DUP2 PUSH2 0x17C2 JUMP JUMPDEST SWAP3 SWAP2 POP POP JUMP JUMPDEST PUSH0 PUSH1 0x20 DUP3 DUP5 SUB SLT ISZERO PUSH2 0x1801 JUMPI PUSH2 0x1800 PUSH2 0x178A JUMP JUMPDEST JUMPDEST PUSH0 PUSH2 0x180E DUP5 DUP3 DUP6 ADD PUSH2 0x17D8 JUMP JUMPDEST SWAP2 POP POP SWAP3 SWAP2 POP POP JUMP JUMPDEST PUSH0 DUP2 SWAP1 POP SWAP2 SWAP1 POP JUMP JUMPDEST PUSH2 0x1829 DUP2 PUSH2 0x1817 JUMP JUMPDEST DUP2 EQ PUSH2 0x1833 JUMPI PUSH0 DUP1 REVERT JUMPDEST POP JUMP JUMPDEST PUSH0 DUP2 CALLDATALOAD SWAP1 POP PUSH2 0x1844 DUP2 PUSH2 0x1820 JUMP JUMPDEST SWAP3 SWAP2 POP POP JUMP JUMPDEST PUSH0 DUP1 REVERT JUMPDEST PUSH0 DUP1 REVERT JUMPDEST PUSH0 DUP1 REVERT JUMPDEST PUSH0 DUP1 DUP4 PUSH1 0x1F DUP5 ADD SLT PUSH2 0x186B JUMPI PUSH2 0x186A PUSH2 0x184A JUMP JUMPDEST JUMPDEST DUP3 CALLDATALOAD SWAP1 POP PUSH8 0xFFFFFFFFFFFFFFFF DUP2 GT ISZERO PUSH2 0x1888 JUMPI PUSH2 0x1887 PUSH2 0x184E JUMP JUMPDEST JUMPDEST PUSH1 0x20 DUP4 ADD SWAP2 POP DUP4 PUSH1 0x1 DUP3 MUL DUP4 ADD GT ISZERO PUSH2 0x18A4 JUMPI PUSH2 0x18A3 PUSH2 0x1852 JUMP JUMPDEST JUMPDEST SWAP3 POP SWAP3 SWAP1 POP JUMP JUMPDEST PUSH0 PUSH12 0xFFFFFFFFFFFFFFFFFFFFFFFF DUP3 AND SWAP1 POP SWAP2 SWAP1 POP JUMP JUMPDEST PUSH2 0x18CB DUP2 PUSH2 0x18AB JUMP JUMPDEST DUP2 EQ PUSH2 0x18D5 JUMPI PUSH0 DUP1 REVERT JUMPDEST POP JUMP JUMPDEST PUSH0 DUP2 CALLDATALOAD SWAP1 POP PUSH2 0x18E6 DUP2 PUSH2 0x18C2 JUMP JUMPDEST SWAP3 SWAP2 POP POP JUMP JUMPDEST PUSH0 DUP1 PUSH0 DUP1 PUSH0 DUP1 PUSH0 PUSH1 0xA0 DUP9 DUP11 SUB SLT ISZERO PUSH2 0x1907 JUMPI PUSH2 0x1906 PUSH2 0x178A JUMP JUMPDEST JUMPDEST PUSH0 PUSH2 0x1914 DUP11 DUP3 DUP12 ADD PUSH2 0x1836 JUMP JUMPDEST SWAP8 POP POP PUSH1 0x20 DUP9 ADD CALLDATALOAD PUSH8 0xFFFFFFFFFFFFFFFF DUP2 GT ISZERO PUSH2 0x1935 JUMPI PUSH2 0x1934 PUSH2 0x178E JUMP JUMPDEST JUMPDEST PUSH2 0x1941 DUP11 DUP3 DUP12 ADD PUSH2 0x1856 JUMP JUMPDEST SWAP7 POP SWAP7 POP POP PUSH1 0x40 DUP9 ADD CALLDATALOAD PUSH8 0xFFFFFFFFFFFFFFFF DUP2 GT ISZERO PUSH2 0x1964 JUMPI PUSH2 0x1963 PUSH2 0x178E JUMP JUMPDEST JUMPDEST PUSH2 0x1970 DUP11 DUP3 DUP12 ADD PUSH2 0x1856 JUMP JUMPDEST SWAP5 POP SWAP5 POP POP PUSH1 0x60 PUSH2 0x1983 DUP11 DUP3 DUP12 ADD PUSH2 0x18D8 JUMP JUMPDEST SWAP3 POP POP PUSH1 0x80 PUSH2 0x1994 DUP11 DUP3 DUP12 ADD PUSH2 0x18D8 JUMP JUMPDEST SWAP2 POP POP SWAP3 SWAP6 SWAP9 SWAP2 SWAP5 SWAP8 POP SWAP3 SWAP6 POP JUMP JUMPDEST PUSH0 DUP2 MLOAD SWAP1 POP SWAP2 SWAP1 POP JUMP JUMPDEST PUSH0 DUP3 DUP3 MSTORE PUSH1 0x20 DUP3 ADD SWAP1 POP SWAP3 SWAP2 POP POP JUMP JUMPDEST PUSH0 DUP2 SWAP1 POP PUSH1 0x20 DUP3 ADD SWAP1 POP SWAP2 SWAP1 POP JUMP JUMPDEST PUSH0 DUP2 MLOAD SWAP1 POP SWAP2 SWAP1 POP JUMP JUMPDEST PUSH0 DUP3 DUP3 MSTORE PUSH1 0x20 DUP3 ADD SWAP1 POP SWAP3 SWAP2 POP POP JUMP JUMPDEST DUP3 DUP2 DUP4 MCOPY PUSH0 DUP4 DUP4 ADD MSTORE POP POP POP JUMP JUMPDEST PUSH0 PUSH1 0x1F NOT PUSH1 0x1F DUP4 ADD AND SWAP1 POP SWAP2 SWAP1 POP JUMP JUMPDEST PUSH0 PUSH2 0x1A0E DUP3 PUSH2 0x19CC JUMP JUMPDEST PUSH2 0x1A18 DUP2 DUP6 PUSH2 0x19D6 JUMP JUMPDEST SWAP4 POP PUSH2 0x1A28 DUP2 DUP6 PUSH1 0x20 DUP7 ADD PUSH2 0x19E6 JUMP JUMPDEST PUSH2 0x1A31 DUP2 PUSH2 0x19F4 JUMP JUMPDEST DUP5 ADD SWAP2 POP POP SWAP3 SWAP2 POP POP JUMP JUMPDEST PUSH0 PUSH2 0x1A47 DUP4 DUP4 PUSH2 0x1A04 JUMP JUMPDEST SWAP1 POP SWAP3 SWAP2 POP POP JUMP JUMPDEST PUSH0 PUSH1 0x20 DUP3 ADD SWAP1 POP SWAP2 SWAP1 POP JUMP JUMPDEST PUSH0 PUSH2 0x1A65 DUP3 PUSH2 0x19A3 JUMP JUMPDEST PUSH2 0x1A6F DUP2 DUP6 PUSH2 0x19AD JUMP JUMPDEST SWAP4 POP DUP4 PUSH1 0x20 DUP3 MUL DUP6 ADD PUSH2 0x1A81 DUP6 PUSH2 0x19BD JUMP JUMPDEST DUP1 PUSH0 JUMPDEST DUP6 DUP2 LT ISZERO PUSH2 0x1ABC JUMPI DUP5 DUP5 SUB DUP10 MSTORE DUP2 MLOAD PUSH2 0x1A9D DUP6 DUP3 PUSH2 0x1A3C JUMP JUMPDEST SWAP5 POP PUSH2 0x1AA8 DUP4 PUSH2 0x1A4F JUMP JUMPDEST SWAP3 POP PUSH1 0x20 DUP11 ADD SWAP10 POP POP PUSH1 0x1 DUP2 ADD SWAP1 POP PUSH2 0x1A84 JUMP JUMPDEST POP DUP3 SWAP8 POP DUP8 SWAP6 POP POP POP POP POP POP SWAP3 SWAP2 POP POP JUMP JUMPDEST PUSH0 PUSH1 0x20 DUP3 ADD SWAP1 POP DUP2 DUP2 SUB PUSH0 DUP4 ADD MSTORE PUSH2 0x1AE6 DUP2 DUP5 PUSH2 0x1A5B JUMP JUMPDEST SWAP1 POP SWAP3 SWAP2 POP POP JUMP JUMPDEST PUSH0 DUP2 ISZERO ISZERO SWAP1 POP SWAP2 SWAP1 POP JUMP JUMPDEST PUSH2 0x1B02 DUP2 PUSH2 0x1AEE JUMP JUMPDEST DUP3 MSTORE POP POP JUMP JUMPDEST PUSH0 PUSH1 0x20 DUP3 ADD SWAP1 POP PUSH2 0x1B1B PUSH0 DUP4 ADD DUP5 PUSH2 0x1AF9 JUMP JUMPDEST SWAP3 SWAP2 POP POP JUMP JUMPDEST PUSH2 0x1B2A DUP2 PUSH2 0x1817 JUMP JUMPDEST DUP3 MSTORE POP POP JUMP JUMPDEST PUSH0 PUSH1 0x20 DUP3 ADD SWAP1 POP PUSH2 0x1B43 PUSH0 DUP4 ADD DUP5 PUSH2 0x1B21 JUMP JUMPDEST SWAP3 SWAP2 POP POP JUMP JUMPDEST PUSH0 PUSH1 0x20 DUP3 DUP5 SUB SLT ISZERO PUSH2 0x1B5E JUMPI PUSH2 0x1B5D PUSH2 0x178A JUMP JUMPDEST JUMPDEST PUSH0 PUSH2 0x1B6B DUP5 DUP3 DUP6 ADD PUSH2 0x1836 JUMP JUMPDEST SWAP2 POP POP SWAP3 SWAP2 POP POP JUMP JUMPDEST PUSH0 DUP3 DUP3 MSTORE PUSH1 0x20 DUP3 ADD SWAP1 POP SWAP3 SWAP2 POP POP JUMP JUMPDEST PUSH0 PUSH2 0x1B8E DUP3 PUSH2 0x19CC JUMP JUMPDEST PUSH2 0x1B98 DUP2 DUP6 PUSH2 0x1B74 JUMP JUMPDEST SWAP4 POP PUSH2 0x1BA8 DUP2 DUP6 PUSH1 0x20 DUP7 ADD PUSH2 0x19E6 JUMP JUMPDEST PUSH2 0x1BB1 DUP2 PUSH2 0x19F4 JUMP JUMPDEST DUP5 ADD SWAP2 POP POP SWAP3 SWAP2 POP POP JUMP JUMPDEST PUSH2 0x1BC5 DUP2 PUSH2 0x18AB JUMP JUMPDEST DUP3 MSTORE POP POP JUMP JUMPDEST PUSH0 PUSH1 0xA0 DUP3 ADD SWAP1 POP DUP2 DUP2 SUB PUSH0 DUP4 ADD MSTORE PUSH2 0x1BE3 DUP2 DUP9 PUSH2 0x1B84 JUMP JUMPDEST SWAP1 POP DUP2 DUP2 SUB PUSH1 0x20 DUP4 ADD MSTORE PUSH2 0x1BF7 DUP2 DUP8 PUSH2 0x1B84 JUMP JUMPDEST SWAP1 POP PUSH2 0x1C06 PUSH1 0x40 DUP4 ADD DUP7 PUSH2 0x1BBC JUMP JUMPDEST PUSH2 0x1C13 PUSH1 0x60 DUP4 ADD DUP6 PUSH2 0x1BBC JUMP JUMPDEST PUSH2 0x1C20 PUSH1 0x80 DUP4 ADD DUP5 PUSH2 0x1AF9 JUMP JUMPDEST SWAP7 SWAP6 POP POP POP POP POP POP JUMP JUMPDEST PUSH0 PUSH1 0xA0 DUP3 ADD SWAP1 POP PUSH2 0x1C3D PUSH0 DUP4 ADD DUP9 PUSH2 0x1BBC JUMP JUMPDEST PUSH2 0x1C4A PUSH1 0x20 DUP4 ADD DUP8 PUSH2 0x1BBC JUMP JUMPDEST PUSH2 0x1C57 PUSH1 0x40 DUP4 ADD DUP7 PUSH2 0x1AF9 JUMP JUMPDEST DUP2 DUP2 SUB PUSH1 0x60 DUP4 ADD MSTORE PUSH2 0x1C69 DUP2 DUP6 PUSH2 0x1B84 JUMP JUMPDEST SWAP1 POP DUP2 DUP2 SUB PUSH1 0x80 DUP4 ADD MSTORE PUSH2 0x1C7D DUP2 DUP5 PUSH2 0x1B84 JUMP JUMPDEST SWAP1 POP SWAP7 SWAP6 POP POP POP POP POP POP JUMP JUMPDEST PUSH2 0x1C92 DUP2 PUSH2 0x17B1 JUMP JUMPDEST DUP3 MSTORE POP POP JUMP JUMPDEST PUSH0 PUSH1 0x20 DUP3 ADD SWAP1 POP PUSH2 0x1CAB PUSH0 DUP4 ADD DUP5 PUSH2 0x1C89 JUMP JUMPDEST SWAP3 SWAP2 POP POP JUMP JUMPDEST PUSH0 PUSH1 0x20 DUP3 ADD SWAP1 POP PUSH2 0x1CC4 PUSH0 DUP4 ADD DUP5 PUSH2 0x1BBC JUMP JUMPDEST SWAP3 SWAP2 POP POP JUMP JUMPDEST PUSH0 DUP1 PUSH1 0x40 DUP4 DUP6 SUB SLT ISZERO PUSH2 0x1CE0 JUMPI PUSH2 0x1CDF PUSH2 0x178A JUMP JUMPDEST JUMPDEST PUSH0 PUSH2 0x1CED DUP6 DUP3 DUP7 ADD PUSH2 0x1836 JUMP JUMPDEST SWAP3 POP POP PUSH1 0x20 PUSH2 0x1CFE DUP6 DUP3 DUP7 ADD PUSH2 0x18D8 JUMP JUMPDEST SWAP2 POP POP SWAP3 POP SWAP3 SWAP1 POP JUMP JUMPDEST PUSH0 DUP1 DUP4 PUSH1 0x1F DUP5 ADD SLT PUSH2 0x1D1D JUMPI PUSH2 0x1D1C PUSH2 0x184A JUMP JUMPDEST JUMPDEST DUP3 CALLDATALOAD SWAP1 POP PUSH8 0xFFFFFFFFFFFFFFFF DUP2 GT ISZERO PUSH2 0x1D3A JUMPI PUSH2 0x1D39 PUSH2 0x184E JUMP JUMPDEST JUMPDEST PUSH1 0x20 DUP4 ADD SWAP2 POP DUP4 PUSH1 0x20 DUP3 MUL DUP4 ADD GT ISZERO PUSH2 0x1D56 JUMPI PUSH2 0x1D55 PUSH2 0x1852 JUMP JUMPDEST JUMPDEST SWAP3 POP SWAP3 SWAP1 POP JUMP JUMPDEST PUSH0 DUP1 PUSH1 0x20 DUP4 DUP6 SUB SLT ISZERO PUSH2 0x1D73 JUMPI PUSH2 0x1D72 PUSH2 0x178A JUMP JUMPDEST JUMPDEST PUSH0 DUP4 ADD CALLDATALOAD PUSH8 0xFFFFFFFFFFFFFFFF DUP2 GT ISZERO PUSH2 0x1D90 JUMPI PUSH2 0x1D8F PUSH2 0x178E JUMP JUMPDEST JUMPDEST PUSH2 0x1D9C DUP6 DUP3 DUP7 ADD PUSH2 0x1D08 JUMP JUMPDEST SWAP3 POP SWAP3 POP POP SWAP3 POP SWAP3 SWAP1 POP JUMP JUMPDEST PUSH32 0x437573746F6D657220497320416C726561647920537562736372696265642100 PUSH0 DUP3 ADD MSTORE POP JUMP JUMPDEST PUSH0 PUSH2 0x1DDC PUSH1 0x1F DUP4 PUSH2 0x1B74 JUMP JUMPDEST SWAP2 POP PUSH2 0x1DE7 DUP3 PUSH2 0x1DA8 JUMP JUMPDEST PUSH1 0x20 DUP3 ADD SWAP1 POP SWAP2 SWAP1 POP JUMP JUMPDEST PUSH0 PUSH1 0x20 DUP3 ADD SWAP1 POP DUP2 DUP2 SUB PUSH0 DUP4 ADD MSTORE PUSH2 0x1E09 DUP2 PUSH2 0x1DD0 JUMP JUMPDEST SWAP1 POP SWAP2 SWAP1 POP JUMP JUMPDEST PUSH32 0x426F6F6B20657869737473000000000000000000000000000000000000000000 PUSH0 DUP3 ADD MSTORE POP JUMP JUMPDEST PUSH0 PUSH2 0x1E44 PUSH1 0xB DUP4 PUSH2 0x1B74 JUMP JUMPDEST SWAP2 POP PUSH2 0x1E4F DUP3 PUSH2 0x1E10 JUMP JUMPDEST PUSH1 0x20 DUP3 ADD SWAP1 POP SWAP2 SWAP1 POP JUMP JUMPDEST PUSH0 PUSH1 0x20 DUP3 ADD SWAP1 POP DUP2 DUP2 SUB PUSH0 DUP4 ADD MSTORE PUSH2 0x1E71 DUP2 PUSH2 0x1E38 JUMP JUMPDEST SWAP1 POP SWAP2 SWAP1 POP JUMP JUMPDEST PUSH32 0x4E487B7100000000000000000000000000000000000000000000000000000000 PUSH0 MSTORE PUSH1 0x11 PUSH1 0x4 MSTORE PUSH1 0x24 PUSH0 REVERT JUMPDEST PUSH0 PUSH2 0x1EAF DUP3 PUSH2 0x18AB JUMP JUMPDEST SWAP2 POP PUSH2 0x1EBA DUP4 PUSH2 0x18AB JUMP JUMPDEST SWAP3 POP DUP3 DUP3 MUL PUSH2 0x1EC8 DUP2 PUSH2 0x18AB JUMP JUMPDEST SWAP2 POP DUP1 DUP3 EQ PUSH2 0x1EDA JUMPI PUSH2 0x1ED9 PUSH2 0x1E78 JUMP JUMPDEST JUMPDEST POP SWAP3 SWAP2 POP POP JUMP JUMPDEST PUSH32 0x4E487B7100000000000000000000000000000000000000000000000000000000 PUSH0 MSTORE PUSH1 0x41 PUSH1 0x4 MSTORE PUSH1 0x24 PUSH0 REVERT JUMPDEST PUSH32 0x4E487B7100000000000000000000000000000000000000000000000000000000 PUSH0 MSTORE PUSH1 0x22 PUSH1 0x4 MSTORE PUSH1 0x24 PUSH0 REVERT JUMPDEST PUSH0 PUSH1 0x2 DUP3 DIV SWAP1 POP PUSH1 0x1 DUP3 AND DUP1 PUSH2 0x1F52 JUMPI PUSH1 0x7F DUP3 AND SWAP2 POP JUMPDEST PUSH1 0x20 DUP3 LT DUP2 SUB PUSH2 0x1F65 JUMPI PUSH2 0x1F64 PUSH2 0x1F0E JUMP JUMPDEST JUMPDEST POP SWAP2 SWAP1 POP JUMP JUMPDEST PUSH0 DUP2 SWAP1 POP DUP2 PUSH0 MSTORE PUSH1 0x20 PUSH0 KECCAK256 SWAP1 POP SWAP2 SWAP1 POP JUMP JUMPDEST PUSH0 PUSH1 0x20 PUSH1 0x1F DUP4 ADD DIV SWAP1 POP SWAP2 SWAP1 POP JUMP JUMPDEST PUSH0 DUP3 DUP3 SHL SWAP1 POP SWAP3 SWAP2 POP POP JUMP JUMPDEST PUSH0 PUSH1 0x8 DUP4 MUL PUSH2 0x1FC7 PUSH32 0xFFFFFFFFFFFFFFFFFFFFFFFFFFFFFFFFFFFFFFFFFFFFFFFFFFFFFFFFFFFFFFFF DUP3 PUSH2 0x1F8C JUMP JUMPDEST PUSH2 0x1FD1 DUP7 DUP4 PUSH2 0x1F8C JUMP JUMPDEST SWAP6 POP DUP1 NOT DUP5 AND SWAP4 POP DUP1 DUP7 AND DUP5 OR SWAP3 POP POP POP SWAP4 SWAP3 POP POP POP JUMP JUMPDEST PUSH0 DUP2 SWAP1 POP SWAP2 SWAP1 POP JUMP JUMPDEST PUSH0 PUSH2 0x200C PUSH2 0x2007 PUSH2 0x2002 DUP5 PUSH2 0x1817 JUMP JUMPDEST PUSH2 0x1FE9 JUMP JUMPDEST PUSH2 0x1817 JUMP JUMPDEST SWAP1 POP SWAP2 SWAP1 POP JUMP JUMPDEST PUSH0 DUP2 SWAP1 POP SWAP2 SWAP1 POP JUMP JUMPDEST PUSH2 0x2025 DUP4 PUSH2 0x1FF2 JUMP JUMPDEST PUSH2 0x2039 PUSH2 0x2031 DUP3 PUSH2 0x2013 JUMP JUMPDEST DUP5 DUP5 SLOAD PUSH2 0x1F98 JUMP JUMPDEST DUP3 SSTORE POP POP POP POP JUMP JUMPDEST PUSH0 SWAP1 JUMP JUMPDEST PUSH2 0x204D PUSH2 0x2041 JUMP JUMPDEST PUSH2 0x2058 DUP2 DUP5 DUP5 PUSH2 0x201C JUMP JUMPDEST POP POP POP JUMP JUMPDEST JUMPDEST DUP2 DUP2 LT ISZERO PUSH2 0x207B JUMPI PUSH2 0x2070 PUSH0 DUP3 PUSH2 0x2045 JUMP JUMPDEST PUSH1 0x1 DUP2 ADD SWAP1 POP PUSH2 0x205E JUMP JUMPDEST POP POP JUMP JUMPDEST PUSH1 0x1F DUP3 GT ISZERO PUSH2 0x20C0 JUMPI PUSH2 0x2091 DUP2 PUSH2 0x1F6B JUMP JUMPDEST PUSH2 0x209A DUP5 PUSH2 0x1F7D JUMP JUMPDEST DUP2 ADD PUSH1 0x20 DUP6 LT ISZERO PUSH2 0x20A9 JUMPI DUP2 SWAP1 POP JUMPDEST PUSH2 0x20BD PUSH2 0x20B5 DUP6 PUSH2 0x1F7D JUMP JUMPDEST DUP4 ADD DUP3 PUSH2 0x205D JUMP JUMPDEST POP POP JUMPDEST POP POP POP JUMP JUMPDEST PUSH0 DUP3 DUP3 SHR SWAP1 POP SWAP3 SWAP2 POP POP JUMP JUMPDEST PUSH0 PUSH2 0x20E0 PUSH0 NOT DUP5 PUSH1 0x8 MUL PUSH2 0x20C5 JUMP JUMPDEST NOT DUP1 DUP4 AND SWAP2 POP POP SWAP3 SWAP2 POP POP JUMP JUMPDEST PUSH0 PUSH2 0x20F8 DUP4 DUP4 PUSH2 0x20D1 JUMP JUMPDEST SWAP2 POP DUP3 PUSH1 0x2 MUL DUP3 OR SWAP1 POP SWAP3 SWAP2 POP POP JUMP JUMPDEST PUSH2 0x2111 DUP3 PUSH2 0x19CC JUMP JUMPDEST PUSH8 0xFFFFFFFFFFFFFFFF DUP2 GT ISZERO PUSH2 0x212A JUMPI PUSH2 0x2129 PUSH2 0x1EE1 JUMP JUMPDEST JUMPDEST PUSH2 0x2134 DUP3 SLOAD PUSH2 0x1F3B JUMP JUMPDEST PUSH2 0x213F DUP3 DUP3 DUP6 PUSH2 0x207F JUMP JUMPDEST PUSH0 PUSH1 0x20 SWAP1 POP PUSH1 0x1F DUP4 GT PUSH1 0x1 DUP2 EQ PUSH2 0x2170 JUMPI PUSH0 DUP5 ISZERO PUSH2 0x215E JUMPI DUP3 DUP8 ADD MLOAD SWAP1 POP JUMPDEST PUSH2 0x2168 DUP6 DUP3 PUSH2 0x20ED JUMP JUMPDEST DUP7 SSTORE POP PUSH2 0x21CF JUMP JUMPDEST PUSH1 0x1F NOT DUP5 AND PUSH2 0x217E DUP7 PUSH2 0x1F6B JUMP JUMPDEST PUSH0 JUMPDEST DUP3 DUP2 LT ISZERO PUSH2 0x21A5 JUMPI DUP5 DUP10 ADD MLOAD DUP3 SSTORE PUSH1 0x1 DUP3 ADD SWAP2 POP PUSH1 0x20 DUP6 ADD SWAP5 POP PUSH1 0x20 DUP2 ADD SWAP1 POP PUSH2 0x2180 JUMP JUMPDEST DUP7 DUP4 LT ISZERO PUSH2 0x21C2 JUMPI DUP5 DUP10 ADD MLOAD PUSH2 0x21BE PUSH1 0x1F DUP10 AND DUP3 PUSH2 0x20D1 JUMP JUMPDEST DUP4 SSTORE POP JUMPDEST PUSH1 0x1 PUSH1 0x2 DUP9 MUL ADD DUP9 SSTORE POP POP POP JUMPDEST POP POP POP POP POP POP JUMP JUMPDEST DUP3 DUP2 DUP4 CALLDATACOPY PUSH0 DUP4 DUP4 ADD MSTORE POP POP POP JUMP JUMPDEST PUSH0 PUSH2 0x21F0 DUP4 DUP6 PUSH2 0x1B74 JUMP JUMPDEST SWAP4 POP PUSH2 0x21FD DUP4 DUP6 DUP5 PUSH2 0x21D7 JUMP JUMPDEST PUSH2 0x2206 DUP4 PUSH2 0x19F4 JUMP JUMPDEST DUP5 ADD SWAP1 POP SWAP4 SWAP3 POP POP POP JUMP JUMPDEST PUSH0 PUSH1 0x80 DUP3 ADD SWAP1 POP DUP2 DUP2 SUB PUSH0 DUP4 ADD MSTORE PUSH2 0x222A DUP2 DUP9 DUP11 PUSH2 0x21E5 JUMP JUMPDEST SWAP1 POP DUP2 DUP2 SUB PUSH1 0x20 DUP4 ADD MSTORE PUSH2 0x223F DUP2 DUP7 DUP9 PUSH2 0x21E5 JUMP JUMPDEST SWAP1 POP PUSH2 0x224E PUSH1 0x40 DUP4 ADD DUP6 PUSH2 0x1BBC JUMP JUMPDEST PUSH2 0x225B PUSH1 0x60 DUP4 ADD DUP5 PUSH2 0x1BBC JUMP JUMPDEST SWAP8 SWAP7 POP POP POP POP POP POP POP JUMP JUMPDEST PUSH32 0x4E487B7100000000000000000000000000000000000000000000000000000000 PUSH0 MSTORE PUSH1 0x32 PUSH1 0x4 MSTORE PUSH1 0x24 PUSH0 REVERT JUMPDEST PUSH32 0x437573746F6D6572204973204E6F742053756273637269626564210000000000 PUSH0 DUP3 ADD MSTORE POP JUMP JUMPDEST PUSH0 PUSH2 0x22C7 PUSH1 0x1B DUP4 PUSH2 0x1B74 JUMP JUMPDEST SWAP2 POP PUSH2 0x22D2 DUP3 PUSH2 0x2293 JUMP JUMPDEST PUSH1 0x20 DUP3 ADD SWAP1 POP SWAP2 SWAP1 POP JUMP JUMPDEST PUSH0 PUSH1 0x20 DUP3 ADD SWAP1 POP DUP2 DUP2 SUB PUSH0 DUP4 ADD MSTORE PUSH2 0x22F4 DUP2 PUSH2 0x22BB JUMP JUMPDEST SWAP1 POP SWAP2 SWAP1 POP JUMP JUMPDEST PUSH32 0x426F6F6B206E6F74206578697374000000000000000000000000000000000000 PUSH0 DUP3 ADD MSTORE POP JUMP JUMPDEST PUSH0 PUSH2 0x232F PUSH1 0xE DUP4 PUSH2 0x1B74 JUMP JUMPDEST SWAP2 POP PUSH2 0x233A DUP3 PUSH2 0x22FB JUMP JUMPDEST PUSH1 0x20 DUP3 ADD SWAP1 POP SWAP2 SWAP1 POP JUMP JUMPDEST PUSH0 PUSH1 0x20 DUP3 ADD SWAP1 POP DUP2 DUP2 SUB PUSH0 DUP4 ADD MSTORE PUSH2 0x235C DUP2 PUSH2 0x2323 JUMP JUMPDEST SWAP1 POP SWAP2 SWAP1 POP JUMP JUMPDEST PUSH0 PUSH2 0x236D DUP3 PUSH2 0x1817 JUMP JUMPDEST SWAP2 POP PUSH2 0x2378 DUP4 PUSH2 0x1817 JUMP JUMPDEST SWAP3 POP DUP3 DUP3 SUB SWAP1 POP DUP2 DUP2 GT ISZERO PUSH2 0x2390 JUMPI PUSH2 0x238F PUSH2 0x1E78 JUMP JUMPDEST JUMPDEST SWAP3 SWAP2 POP POP JUMP JUMPDEST PUSH32 0x4E487B7100000000000000000000000000000000000000000000000000000000 PUSH0 MSTORE PUSH1 0x31 PUSH1 0x4 MSTORE PUSH1 0x24 PUSH0 REVERT JUMPDEST PUSH32 0x4E6F7420617661696C61626C6500000000000000000000000000000000000000 PUSH0 DUP3 ADD MSTORE POP JUMP JUMPDEST PUSH0 PUSH2 0x23F7 PUSH1 0xD DUP4 PUSH2 0x1B74 JUMP JUMPDEST SWAP2 POP PUSH2 0x2402 DUP3 PUSH2 0x23C3 JUMP JUMPDEST PUSH1 0x20 DUP3 ADD SWAP1 POP SWAP2 SWAP1 POP JUMP JUMPDEST PUSH0 PUSH1 0x20 DUP3 ADD SWAP1 POP DUP2 DUP2 SUB PUSH0 DUP4 ADD MSTORE PUSH2 0x2424 DUP2 PUSH2 0x23EB JUMP JUMPDEST SWAP1 POP SWAP2 SWAP1 POP JUMP JUMPDEST PUSH32 0x4E6F7420656E6F7567682073746F636B00000000000000000000000000000000 PUSH0 DUP3 ADD MSTORE POP JUMP JUMPDEST PUSH0 PUSH2 0x245F PUSH1 0x10 DUP4 PUSH2 0x1B74 JUMP JUMPDEST SWAP2 POP PUSH2 0x246A DUP3 PUSH2 0x242B JUMP JUMPDEST PUSH1 0x20 DUP3 ADD SWAP1 POP SWAP2 SWAP1 POP JUMP JUMPDEST PUSH0 PUSH1 0x20 DUP3 ADD SWAP1 POP DUP2 DUP2 SUB PUSH0 DUP4 ADD MSTORE PUSH2 0x248C DUP2 PUSH2 0x2453 JUMP JUMPDEST SWAP1 POP SWAP2 SWAP1 POP JUMP JUMPDEST PUSH32 0x57726F6E67207061796D656E7400000000000000000000000000000000000000 PUSH0 DUP3 ADD MSTORE POP JUMP JUMPDEST PUSH0 PUSH2 0x24C7 PUSH1 0xD DUP4 PUSH2 0x1B74 JUMP JUMPDEST SWAP2 POP PUSH2 0x24D2 DUP3 PUSH2 0x2493 JUMP JUMPDEST PUSH1 0x20 DUP3 ADD SWAP1 POP SWAP2 SWAP1 POP JUMP JUMPDEST PUSH0 PUSH1 0x20 DUP3 ADD SWAP1 POP DUP2 DUP2 SUB PUSH0 DUP4 ADD MSTORE PUSH2 0x24F4 DUP2 PUSH2 0x24BB JUMP JUMPDEST SWAP1 POP SWAP2 SWAP1 POP JUMP JUMPDEST PUSH0 DUP3 DUP3 MSTORE PUSH1 0x20 DUP3 ADD SWAP1 POP SWAP3 SWAP2 POP POP JUMP JUMPDEST PUSH0 DUP1 REVERT JUMPDEST DUP3 DUP2 DUP4 CALLDATACOPY POP POP POP JUMP JUMPDEST PUSH0 PUSH2 0x2523 DUP4 DUP6 PUSH2 0x24FB JUMP JUMPDEST SWAP4 POP PUSH32 0x7FFFFFFFFFFFFFFFFFFFFFFFFFFFFFFFFFFFFFFFFFFFFFFFFFFFFFFFFFFFFFF DUP4 GT ISZERO PUSH2 0x2556 JUMPI PUSH2 0x2555 PUSH2 0x250B JUMP JUMPDEST JUMPDEST PUSH1 0x20 DUP4 MUL SWAP3 POP PUSH2 0x2567 DUP4 DUP6 DUP5 PUSH2 0x250F JUMP JUMPDEST DUP3 DUP5 ADD SWAP1 POP SWAP4 SWAP3 POP POP POP JUMP JUMPDEST PUSH0 PUSH1 0x20 DUP3 ADD SWAP1 POP DUP2 DUP2 SUB PUSH0 DUP4 ADD MSTORE PUSH2 0x258C DUP2 DUP5 DUP7 PUSH2 0x2518 JUMP JUMPDEST SWAP1 POP SWAP4 SWAP3 POP POP POP JUMP INVALID LOG2 PUSH5 0x6970667358 0x22 SLT KECCAK256 0x2A 0xC9 0x2E 0xD9 BLOBHASH 0xD2 SAR PUSH10 0x80D3843A1A14B12B477E 0xCA DUP12 0xC3 0xB1 JUMP STATICCALL PUSH1 0xD7 0x1E 0xC6 SWAP9 DUP10 POP 0xCD PUSH5 0x736F6C6343 STOP ADDMOD BYTE STOP CALLER "
				},
				"gasEstimates": {
					"creation": {
						"codeDepositCost": "1935000",
						"executionCost": "infinite",
						"totalCost": "infinite"
					},
					"external": {
						"Subscribe(address)": "28231",
						"Unsubcribe(address)": "28201",
						"addBook(uint256,string,string,uint96,uint96)": "infinite",
						"books(uint256)": "infinite",
						"buyBook(uint256,uint96)": "infinite",
						"checkIfSubscribed(address)": "5155",
						"getAllBooks()": "infinite",
						"getBooks(uint256)": "infinite",
						"getOwnerBalance()": "5130",
						"getTotalBooksSold()": "2540",
						"owner()": "2560",
						"removeBook(uint256)": "infinite",
						"removeBooks(uint256[])": "infinite",
						"renounceOwnership()": "infinite",
						"subscribers(address)": "2923",
						"transferOwnership(address)": "infinite"
					}
				},
				"methodIdentifiers": {
					"Subscribe(address)": "1aec2cf9",
					"Unsubcribe(address)": "e5ca5302",
					"addBook(uint256,string,string,uint96,uint96)": "21e6de9d",
					"books(uint256)": "68744046",
					"buyBook(uint256,uint96)": "f46de7d4",
					"checkIfSubscribed(address)": "59c75898",
					"getAllBooks()": "354528e8",
					"getBooks(uint256)": "5ac3e19e",
					"getOwnerBalance()": "590791f2",
					"getTotalBooksSold()": "9bd30883",
					"owner()": "8da5cb5b",
					"removeBook(uint256)": "bec0d799",
					"removeBooks(uint256[])": "f98520de",
					"renounceOwnership()": "715018a6",
					"subscribers(address)": "5745ae28",
					"transferOwnership(address)": "f2fde38b"
				}
			},
			"storageLayout": {
				"storage": [
					{
						"astId": 8,
						"contract": "contracts/BookStore.sol:BookStore",
						"label": "_owner",
						"offset": 0,
						"slot": "0",
						"type": "t_address"
					},
					{
						"astId": 198,
						"contract": "contracts/BookStore.sol:BookStore",
						"label": "books",
						"offset": 0,
						"slot": "1",
						"type": "t_mapping(t_uint256,t_struct(Book)193_storage)"
					},
					{
						"astId": 202,
						"contract": "contracts/BookStore.sol:BookStore",
						"label": "subscribers",
						"offset": 0,
						"slot": "2",
						"type": "t_mapping(t_address,t_bool)"
					},
					{
						"astId": 205,
						"contract": "contracts/BookStore.sol:BookStore",
						"label": "bookIds",
						"offset": 0,
						"slot": "3",
						"type": "t_array(t_uint256)dyn_storage"
					},
					{
						"astId": 207,
						"contract": "contracts/BookStore.sol:BookStore",
						"label": "totalBooksSold",
						"offset": 0,
						"slot": "4",
						"type": "t_uint96"
					}
				],
				"types": {
					"t_address": {
						"encoding": "inplace",
						"label": "address",
						"numberOfBytes": "20"
					},
					"t_array(t_uint256)dyn_storage": {
						"base": "t_uint256",
						"encoding": "dynamic_array",
						"label": "uint256[]",
						"numberOfBytes": "32"
					},
					"t_bool": {
						"encoding": "inplace",
						"label": "bool",
						"numberOfBytes": "1"
					},
					"t_mapping(t_address,t_bool)": {
						"encoding": "mapping",
						"key": "t_address",
						"label": "mapping(address => bool)",
						"numberOfBytes": "32",
						"value": "t_bool"
					},
					"t_mapping(t_uint256,t_struct(Book)193_storage)": {
						"encoding": "mapping",
						"key": "t_uint256",
						"label": "mapping(uint256 => struct BookStore.Book)",
						"numberOfBytes": "32",
						"value": "t_struct(Book)193_storage"
					},
					"t_string_storage": {
						"encoding": "bytes",
						"label": "string",
						"numberOfBytes": "32"
					},
					"t_struct(Book)193_storage": {
						"encoding": "inplace",
						"label": "struct BookStore.Book",
						"members": [
							{
								"astId": 184,
								"contract": "contracts/BookStore.sol:BookStore",
								"label": "stock",
								"offset": 0,
								"slot": "0",
								"type": "t_uint96"
							},
							{
								"astId": 186,
								"contract": "contracts/BookStore.sol:BookStore",
								"label": "price",
								"offset": 12,
								"slot": "0",
								"type": "t_uint96"
							},
							{
								"astId": 188,
								"contract": "contracts/BookStore.sol:BookStore",
								"label": "isAvailable",
								"offset": 24,
								"slot": "0",
								"type": "t_bool"
							},
							{
								"astId": 190,
								"contract": "contracts/BookStore.sol:BookStore",
								"label": "title",
								"offset": 0,
								"slot": "1",
								"type": "t_string_storage"
							},
							{
								"astId": 192,
								"contract": "contracts/BookStore.sol:BookStore",
								"label": "author",
								"offset": 0,
								"slot": "2",
								"type": "t_string_storage"
							}
						],
						"numberOfBytes": "96"
					},
					"t_uint256": {
						"encoding": "inplace",
						"label": "uint256",
						"numberOfBytes": "32"
					},
					"t_uint96": {
						"encoding": "inplace",
						"label": "uint96",
						"numberOfBytes": "12"
					}
				}
			},
			"userdoc": {
				"kind": "user",
				"methods": {},
				"version": 1
			}
		}
	}
}