{
	"contracts/LoyaltyProgram.sol": {
		"CustomerPoint": {
			"abi": [
				{
					"inputs": [],
					"stateMutability": "nonpayable",
					"type": "constructor"
				},
				{
					"inputs": [
						{
							"internalType": "address",
							"name": "owner",
							"type": "address"
						}
					],
					"name": "OwnableInvalidOwner",
					"type": "error"
				},
				{
					"inputs": [
						{
							"internalType": "address",
							"name": "account",
							"type": "address"
						}
					],
					"name": "OwnableUnauthorizedAccount",
					"type": "error"
				},
				{
					"anonymous": false,
					"inputs": [
						{
							"indexed": true,
							"internalType": "uint256",
							"name": "bookId",
							"type": "uint256"
						},
						{
							"indexed": false,
							"internalType": "string",
							"name": "title",
							"type": "string"
						},
						{
							"indexed": false,
							"internalType": "string",
							"name": "author",
							"type": "string"
						},
						{
							"indexed": false,
							"internalType": "uint96",
							"name": "price",
							"type": "uint96"
						},
						{
							"indexed": false,
							"internalType": "uint96",
							"name": "stock",
							"type": "uint96"
						}
					],
					"name": "BookAdded",
					"type": "event"
				},
				{
					"anonymous": false,
					"inputs": [
						{
							"indexed": false,
							"internalType": "uint256[]",
							"name": "bookIds",
							"type": "uint256[]"
						}
					],
					"name": "BookBatchRemoved",
					"type": "event"
				},
				{
					"anonymous": false,
					"inputs": [
						{
							"indexed": true,
							"internalType": "uint256",
							"name": "bookId",
							"type": "uint256"
						},
						{
							"indexed": true,
							"internalType": "address",
							"name": "buyer",
							"type": "address"
						},
						{
							"indexed": false,
							"internalType": "uint96",
							"name": "quantity",
							"type": "uint96"
						}
					],
					"name": "BookPurchased",
					"type": "event"
				},
				{
					"anonymous": false,
					"inputs": [
						{
							"indexed": true,
							"internalType": "uint256",
							"name": "bookId",
							"type": "uint256"
						}
					],
					"name": "BookRemoved",
					"type": "event"
				},
				{
					"anonymous": false,
					"inputs": [
						{
							"indexed": true,
							"internalType": "address",
							"name": "previousOwner",
							"type": "address"
						},
						{
							"indexed": true,
							"internalType": "address",
							"name": "newOwner",
							"type": "address"
						}
					],
					"name": "OwnershipTransferred",
					"type": "event"
				},
				{
					"anonymous": false,
					"inputs": [
						{
							"indexed": true,
							"internalType": "address",
							"name": "customer",
							"type": "address"
						},
						{
							"indexed": false,
							"internalType": "uint256",
							"name": "points",
							"type": "uint256"
						}
					],
					"name": "pointsAdded",
					"type": "event"
				},
				{
					"inputs": [
						{
							"internalType": "uint256",
							"name": "_bookId",
							"type": "uint256"
						},
						{
							"internalType": "string",
							"name": "_title",
							"type": "string"
						},
						{
							"internalType": "string",
							"name": "_author",
							"type": "string"
						},
						{
							"internalType": "uint96",
							"name": "_stock",
							"type": "uint96"
						},
						{
							"internalType": "uint96",
							"name": "_price",
							"type": "uint96"
						}
					],
					"name": "addBook",
					"outputs": [],
					"stateMutability": "nonpayable",
					"type": "function"
				},
				{
					"inputs": [
						{
							"internalType": "address",
							"name": "_customer",
							"type": "address"
						},
						{
							"internalType": "uint256",
							"name": "_amount",
							"type": "uint256"
						}
					],
					"name": "addCustomerPoints",
					"outputs": [],
					"stateMutability": "nonpayable",
					"type": "function"
				},
				{
					"inputs": [
						{
							"internalType": "uint256",
							"name": "",
							"type": "uint256"
						}
					],
					"name": "books",
					"outputs": [
						{
							"internalType": "uint96",
							"name": "stock",
							"type": "uint96"
						},
						{
							"internalType": "uint96",
							"name": "price",
							"type": "uint96"
						},
						{
							"internalType": "bool",
							"name": "isAvailable",
							"type": "bool"
						},
						{
							"internalType": "string",
							"name": "title",
							"type": "string"
						},
						{
							"internalType": "string",
							"name": "author",
							"type": "string"
						}
					],
					"stateMutability": "view",
					"type": "function"
				},
				{
					"inputs": [
						{
							"internalType": "uint256",
							"name": "_bookId",
							"type": "uint256"
						},
						{
							"internalType": "uint96",
							"name": "_quantity",
							"type": "uint96"
						}
					],
					"name": "buyBook",
					"outputs": [],
					"stateMutability": "payable",
					"type": "function"
				},
				{
					"inputs": [
						{
							"internalType": "address",
							"name": "",
							"type": "address"
						}
					],
					"name": "customerewards",
					"outputs": [
						{
							"internalType": "uint256",
							"name": "points",
							"type": "uint256"
						}
					],
					"stateMutability": "view",
					"type": "function"
				},
				{
					"inputs": [],
					"name": "getAllBooks",
					"outputs": [
						{
							"internalType": "string[]",
							"name": "",
							"type": "string[]"
						}
					],
					"stateMutability": "view",
					"type": "function"
				},
				{
					"inputs": [
						{
							"internalType": "uint256",
							"name": "_bookId",
							"type": "uint256"
						}
					],
					"name": "getBooks",
					"outputs": [
						{
							"internalType": "string",
							"name": "title",
							"type": "string"
						},
						{
							"internalType": "string",
							"name": "author",
							"type": "string"
						},
						{
							"internalType": "uint96",
							"name": "price",
							"type": "uint96"
						},
						{
							"internalType": "uint96",
							"name": "stock",
							"type": "uint96"
						},
						{
							"internalType": "bool",
							"name": "isAvailable",
							"type": "bool"
						}
					],
					"stateMutability": "view",
					"type": "function"
				},
				{
					"inputs": [
						{
							"internalType": "address",
							"name": "_customer",
							"type": "address"
						}
					],
					"name": "getCustomerPoints",
					"outputs": [
						{
							"internalType": "uint256",
							"name": "",
							"type": "uint256"
						}
					],
					"stateMutability": "view",
					"type": "function"
				},
				{
					"inputs": [],
					"name": "getOwnerBalance",
					"outputs": [
						{
							"internalType": "uint256",
							"name": "",
							"type": "uint256"
						}
					],
					"stateMutability": "view",
					"type": "function"
				},
				{
					"inputs": [],
					"name": "getTotalBooksSold",
					"outputs": [
						{
							"internalType": "uint96",
							"name": "",
							"type": "uint96"
						}
					],
					"stateMutability": "view",
					"type": "function"
				},
				{
					"inputs": [],
					"name": "owner",
					"outputs": [
						{
							"internalType": "address",
							"name": "",
							"type": "address"
						}
					],
					"stateMutability": "view",
					"type": "function"
				},
				{
					"inputs": [
						{
							"internalType": "uint256",
							"name": "_bookId",
							"type": "uint256"
						}
					],
					"name": "removeBook",
					"outputs": [],
					"stateMutability": "nonpayable",
					"type": "function"
				},
				{
					"inputs": [
						{
							"internalType": "uint256[]",
							"name": "_bookIds",
							"type": "uint256[]"
						}
					],
					"name": "removeBooks",
					"outputs": [],
					"stateMutability": "nonpayable",
					"type": "function"
				},
				{
					"inputs": [],
					"name": "renounceOwnership",
					"outputs": [],
					"stateMutability": "nonpayable",
					"type": "function"
				},
				{
					"inputs": [
						{
							"internalType": "address",
							"name": "newOwner",
							"type": "address"
						}
					],
					"name": "transferOwnership",
					"outputs": [],
					"stateMutability": "nonpayable",
					"type": "function"
				}
			],
			"devdoc": {
				"errors": {
					"OwnableInvalidOwner(address)": [
						{
							"details": "The owner is not a valid owner account. (eg. `address(0)`)"
						}
					],
					"OwnableUnauthorizedAccount(address)": [
						{
							"details": "The caller account is not authorized to perform an operation."
						}
					]
				},
				"kind": "dev",
				"methods": {
					"owner()": {
						"details": "Returns the address of the current owner."
					},
					"renounceOwnership()": {
						"details": "Leaves the contract without owner. It will not be possible to call `onlyOwner` functions. Can only be called by the current owner. NOTE: Renouncing ownership will leave the contract without an owner, thereby disabling any functionality that is only available to the owner."
					},
					"transferOwnership(address)": {
						"details": "Transfers ownership of the contract to a new account (`newOwner`). Can only be called by the current owner."
					}
				},
				"version": 1
			},
			"evm": {
				"assembly": "    /* \"contracts/LoyaltyProgram.sol\":122:1846  contract  CustomerPoint is BookStore {... */\n  mstore(0x40, 0x80)\n    /* \"contracts/LoyaltyProgram.sol\":368:397  constructor () BookStore() {} */\n  callvalue\n  dup1\n  iszero\n  tag_1\n  jumpi\n  0x00\n  dup1\n  revert\ntag_1:\n  pop\n    /* \"contracts/BookStore.sol\":745:755  msg.sender */\n  caller\n    /* \"@openzeppelin/contracts/access/Ownable.sol\":1297:1298  0 */\n  0x00\n    /* \"@openzeppelin/contracts/access/Ownable.sol\":1273:1299  initialOwner == address(0) */\n  0xffffffffffffffffffffffffffffffffffffffff\n  and\n    /* \"@openzeppelin/contracts/access/Ownable.sol\":1273:1285  initialOwner */\n  dup2\n    /* \"@openzeppelin/contracts/access/Ownable.sol\":1273:1299  initialOwner == address(0) */\n  0xffffffffffffffffffffffffffffffffffffffff\n  and\n  sub\n    /* \"@openzeppelin/contracts/access/Ownable.sol\":1269:1364  if (initialOwner == address(0)) {... */\n  tag_6\n  jumpi\n    /* \"@openzeppelin/contracts/access/Ownable.sol\":1350:1351  0 */\n  0x00\n    /* \"@openzeppelin/contracts/access/Ownable.sol\":1322:1353  OwnableInvalidOwner(address(0)) */\n  mload(0x40)\n  0x1e4fbdf700000000000000000000000000000000000000000000000000000000\n  dup2\n  mstore\n  0x04\n  add\n  tag_7\n  swap2\n  swap1\n  tag_8\n  jump\t// in\ntag_7:\n  mload(0x40)\n  dup1\n  swap2\n  sub\n  swap1\n  revert\n    /* \"@openzeppelin/contracts/access/Ownable.sol\":1269:1364  if (initialOwner == address(0)) {... */\ntag_6:\n    /* \"@openzeppelin/contracts/access/Ownable.sol\":1373:1405  _transferOwnership(initialOwner) */\n  tag_9\n    /* \"@openzeppelin/contracts/access/Ownable.sol\":1392:1404  initialOwner */\n  dup2\n    /* \"@openzeppelin/contracts/access/Ownable.sol\":1373:1391  _transferOwnership */\n  shl(0x20, tag_10)\n    /* \"@openzeppelin/contracts/access/Ownable.sol\":1373:1405  _transferOwnership(initialOwner) */\n  0x20\n  shr\n  jump\t// in\ntag_9:\n    /* \"@openzeppelin/contracts/access/Ownable.sol\":1225:1412  constructor(address initialOwner) {... */\n  pop\n    /* \"contracts/LoyaltyProgram.sol\":122:1846  contract  CustomerPoint is BookStore {... */\n  jump(tag_13)\n    /* \"@openzeppelin/contracts/access/Ownable.sol\":2912:3099  function _transferOwnership(address newOwner) internal virtual {... */\ntag_10:\n    /* \"@openzeppelin/contracts/access/Ownable.sol\":2985:3001  address oldOwner */\n  0x00\n    /* \"@openzeppelin/contracts/access/Ownable.sol\":3004:3010  _owner */\n  dup1\n  0x00\n  swap1\n  sload\n  swap1\n  0x0100\n  exp\n  swap1\n  div\n  0xffffffffffffffffffffffffffffffffffffffff\n  and\n    /* \"@openzeppelin/contracts/access/Ownable.sol\":2985:3010  address oldOwner = _owner */\n  swap1\n  pop\n    /* \"@openzeppelin/contracts/access/Ownable.sol\":3029:3037  newOwner */\n  dup2\n    /* \"@openzeppelin/contracts/access/Ownable.sol\":3020:3026  _owner */\n  0x00\n  dup1\n    /* \"@openzeppelin/contracts/access/Ownable.sol\":3020:3037  _owner = newOwner */\n  0x0100\n  exp\n  dup2\n  sload\n  dup2\n  0xffffffffffffffffffffffffffffffffffffffff\n  mul\n  not\n  and\n  swap1\n  dup4\n  0xffffffffffffffffffffffffffffffffffffffff\n  and\n  mul\n  or\n  swap1\n  sstore\n  pop\n    /* \"@openzeppelin/contracts/access/Ownable.sol\":3083:3091  newOwner */\n  dup2\n    /* \"@openzeppelin/contracts/access/Ownable.sol\":3052:3092  OwnershipTransferred(oldOwner, newOwner) */\n  0xffffffffffffffffffffffffffffffffffffffff\n  and\n    /* \"@openzeppelin/contracts/access/Ownable.sol\":3073:3081  oldOwner */\n  dup2\n    /* \"@openzeppelin/contracts/access/Ownable.sol\":3052:3092  OwnershipTransferred(oldOwner, newOwner) */\n  0xffffffffffffffffffffffffffffffffffffffff\n  and\n  0x8be0079c531659141344cd1fd0a4f28419497f9722a3daafe3b4186f6b6457e0\n  mload(0x40)\n  mload(0x40)\n  dup1\n  swap2\n  sub\n  swap1\n  log3\n    /* \"@openzeppelin/contracts/access/Ownable.sol\":2975:3099  {... */\n  pop\n    /* \"@openzeppelin/contracts/access/Ownable.sol\":2912:3099  function _transferOwnership(address newOwner) internal virtual {... */\n  pop\n  jump\t// out\n    /* \"#utility.yul\":7:133   */\ntag_15:\n    /* \"#utility.yul\":44:51   */\n  0x00\n    /* \"#utility.yul\":84:126   */\n  0xffffffffffffffffffffffffffffffffffffffff\n    /* \"#utility.yul\":77:82   */\n  dup3\n    /* \"#utility.yul\":73:127   */\n  and\n    /* \"#utility.yul\":62:127   */\n  swap1\n  pop\n    /* \"#utility.yul\":7:133   */\n  swap2\n  swap1\n  pop\n  jump\t// out\n    /* \"#utility.yul\":139:235   */\ntag_16:\n    /* \"#utility.yul\":176:183   */\n  0x00\n    /* \"#utility.yul\":205:229   */\n  tag_21\n    /* \"#utility.yul\":223:228   */\n  dup3\n    /* \"#utility.yul\":205:229   */\n  tag_15\n  jump\t// in\ntag_21:\n    /* \"#utility.yul\":194:229   */\n  swap1\n  pop\n    /* \"#utility.yul\":139:235   */\n  swap2\n  swap1\n  pop\n  jump\t// out\n    /* \"#utility.yul\":241:359   */\ntag_17:\n    /* \"#utility.yul\":328:352   */\n  tag_23\n    /* \"#utility.yul\":346:351   */\n  dup2\n    /* \"#utility.yul\":328:352   */\n  tag_16\n  jump\t// in\ntag_23:\n    /* \"#utility.yul\":323:326   */\n  dup3\n    /* \"#utility.yul\":316:353   */\n  mstore\n    /* \"#utility.yul\":241:359   */\n  pop\n  pop\n  jump\t// out\n    /* \"#utility.yul\":365:587   */\ntag_8:\n    /* \"#utility.yul\":458:462   */\n  0x00\n    /* \"#utility.yul\":496:498   */\n  0x20\n    /* \"#utility.yul\":485:494   */\n  dup3\n    /* \"#utility.yul\":481:499   */\n  add\n    /* \"#utility.yul\":473:499   */\n  swap1\n  pop\n    /* \"#utility.yul\":509:580   */\n  tag_25\n    /* \"#utility.yul\":577:578   */\n  0x00\n    /* \"#utility.yul\":566:575   */\n  dup4\n    /* \"#utility.yul\":562:579   */\n  add\n    /* \"#utility.yul\":553:559   */\n  dup5\n    /* \"#utility.yul\":509:580   */\n  tag_17\n  jump\t// in\ntag_25:\n    /* \"#utility.yul\":365:587   */\n  swap3\n  swap2\n  pop\n  pop\n  jump\t// out\n    /* \"contracts/LoyaltyProgram.sol\":122:1846  contract  CustomerPoint is BookStore {... */\ntag_13:\n  dataSize(sub_0)\n  dup1\n  dataOffset(sub_0)\n  0x00\n  codecopy\n  0x00\n  return\nstop\n\nsub_0: assembly {\n        /* \"contracts/LoyaltyProgram.sol\":122:1846  contract  CustomerPoint is BookStore {... */\n      mstore(0x40, 0x80)\n      jumpi(tag_1, lt(calldatasize, 0x04))\n      shr(0xe0, calldataload(0x00))\n      dup1\n      0x8da5cb5b\n      gt\n      tag_17\n      jumpi\n      dup1\n      0xe06ec384\n      gt\n      tag_18\n      jumpi\n      dup1\n      0xe06ec384\n      eq\n      tag_13\n      jumpi\n      dup1\n      0xf2fde38b\n      eq\n      tag_14\n      jumpi\n      dup1\n      0xf46de7d4\n      eq\n      tag_15\n      jumpi\n      dup1\n      0xf98520de\n      eq\n      tag_16\n      jumpi\n      jump(tag_1)\n    tag_18:\n      dup1\n      0x8da5cb5b\n      eq\n      tag_9\n      jumpi\n      dup1\n      0x9bd30883\n      eq\n      tag_10\n      jumpi\n      dup1\n      0xa33c5132\n      eq\n      tag_11\n      jumpi\n      dup1\n      0xbec0d799\n      eq\n      tag_12\n      jumpi\n      jump(tag_1)\n    tag_17:\n      dup1\n      0x5ac3e19e\n      gt\n      tag_19\n      jumpi\n      dup1\n      0x5ac3e19e\n      eq\n      tag_5\n      jumpi\n      dup1\n      0x68744046\n      eq\n      tag_6\n      jumpi\n      dup1\n      0x6c42b8cd\n      eq\n      tag_7\n      jumpi\n      dup1\n      0x715018a6\n      eq\n      tag_8\n      jumpi\n      jump(tag_1)\n    tag_19:\n      dup1\n      0x21e6de9d\n      eq\n      tag_2\n      jumpi\n      dup1\n      0x354528e8\n      eq\n      tag_3\n      jumpi\n      dup1\n      0x590791f2\n      eq\n      tag_4\n      jumpi\n    tag_1:\n      0x00\n      dup1\n      revert\n        /* \"contracts/BookStore.sol\":767:1263  function addBook(uint256 _bookId, string calldata _title, string calldata _author, uint96 _stock, uint96 _price) external {... */\n    tag_2:\n      callvalue\n      dup1\n      iszero\n      tag_20\n      jumpi\n      0x00\n      dup1\n      revert\n    tag_20:\n      pop\n      tag_21\n      0x04\n      dup1\n      calldatasize\n      sub\n      dup2\n      add\n      swap1\n      tag_22\n      swap2\n      swap1\n      tag_23\n      jump\t// in\n    tag_22:\n      tag_24\n      jump\t// in\n    tag_21:\n      stop\n        /* \"contracts/BookStore.sol\":1309:1647  function getAllBooks() external view returns (string[] memory) {... */\n    tag_3:\n      callvalue\n      dup1\n      iszero\n      tag_25\n      jumpi\n      0x00\n      dup1\n      revert\n    tag_25:\n      pop\n      tag_26\n      tag_27\n      jump\t// in\n    tag_26:\n      mload(0x40)\n      tag_28\n      swap2\n      swap1\n      tag_29\n      jump\t// in\n    tag_28:\n      mload(0x40)\n      dup1\n      swap2\n      sub\n      swap1\n      return\n        /* \"contracts/BookStore.sol\":3048:3157  function getOwnerBalance() external view returns (uint256) {... */\n    tag_4:\n      callvalue\n      dup1\n      iszero\n      tag_30\n      jumpi\n      0x00\n      dup1\n      revert\n    tag_30:\n      pop\n      tag_31\n      tag_32\n      jump\t// in\n    tag_31:\n      mload(0x40)\n      tag_33\n      swap2\n      swap1\n      tag_34\n      jump\t// in\n    tag_33:\n      mload(0x40)\n      dup1\n      swap2\n      sub\n      swap1\n      return\n        /* \"contracts/BookStore.sol\":3315:3600  function getBooks(uint256 _bookId) external view returns (string memory title, string memory author, uint96 price, uint96 stock, bool isAvailable) {... */\n    tag_5:\n      callvalue\n      dup1\n      iszero\n      tag_35\n      jumpi\n      0x00\n      dup1\n      revert\n    tag_35:\n      pop\n      tag_36\n      0x04\n      dup1\n      calldatasize\n      sub\n      dup2\n      add\n      swap1\n      tag_37\n      swap2\n      swap1\n      tag_38\n      jump\t// in\n    tag_37:\n      tag_39\n      jump\t// in\n    tag_36:\n      mload(0x40)\n      tag_40\n      swap6\n      swap5\n      swap4\n      swap3\n      swap2\n      swap1\n      tag_41\n      jump\t// in\n    tag_40:\n      mload(0x40)\n      dup1\n      swap2\n      sub\n      swap1\n      return\n        /* \"contracts/BookStore.sol\":354:391  mapping(uint256 => Book) public books */\n    tag_6:\n      callvalue\n      dup1\n      iszero\n      tag_42\n      jumpi\n      0x00\n      dup1\n      revert\n    tag_42:\n      pop\n      tag_43\n      0x04\n      dup1\n      calldatasize\n      sub\n      dup2\n      add\n      swap1\n      tag_44\n      swap2\n      swap1\n      tag_38\n      jump\t// in\n    tag_44:\n      tag_45\n      jump\t// in\n    tag_43:\n      mload(0x40)\n      tag_46\n      swap6\n      swap5\n      swap4\n      swap3\n      swap2\n      swap1\n      tag_47\n      jump\t// in\n    tag_46:\n      mload(0x40)\n      dup1\n      swap2\n      sub\n      swap1\n      return\n        /* \"contracts/LoyaltyProgram.sol\":605:1595  function addCustomerPoints (address _customer, uint256 _amount) public {... */\n    tag_7:\n      callvalue\n      dup1\n      iszero\n      tag_48\n      jumpi\n      0x00\n      dup1\n      revert\n    tag_48:\n      pop\n      tag_49\n      0x04\n      dup1\n      calldatasize\n      sub\n      dup2\n      add\n      swap1\n      tag_50\n      swap2\n      swap1\n      tag_51\n      jump\t// in\n    tag_50:\n      tag_52\n      jump\t// in\n    tag_49:\n      stop\n        /* \"@openzeppelin/contracts/access/Ownable.sol\":2293:2394  function renounceOwnership() public virtual onlyOwner {... */\n    tag_8:\n      callvalue\n      dup1\n      iszero\n      tag_53\n      jumpi\n      0x00\n      dup1\n      revert\n    tag_53:\n      pop\n      tag_54\n      tag_55\n      jump\t// in\n    tag_54:\n      stop\n        /* \"@openzeppelin/contracts/access/Ownable.sol\":1638:1723  function owner() public view virtual returns (address) {... */\n    tag_9:\n      callvalue\n      dup1\n      iszero\n      tag_56\n      jumpi\n      0x00\n      dup1\n      revert\n    tag_56:\n      pop\n      tag_57\n      tag_58\n      jump\t// in\n    tag_57:\n      mload(0x40)\n      tag_59\n      swap2\n      swap1\n      tag_60\n      jump\t// in\n    tag_59:\n      mload(0x40)\n      dup1\n      swap2\n      sub\n      swap1\n      return\n        /* \"contracts/BookStore.sol\":3207:3307  function getTotalBooksSold() external view returns (uint96) {... */\n    tag_10:\n      callvalue\n      dup1\n      iszero\n      tag_61\n      jumpi\n      0x00\n      dup1\n      revert\n    tag_61:\n      pop\n      tag_62\n      tag_63\n      jump\t// in\n    tag_62:\n      mload(0x40)\n      tag_64\n      swap2\n      swap1\n      tag_65\n      jump\t// in\n    tag_64:\n      mload(0x40)\n      dup1\n      swap2\n      sub\n      swap1\n      return\n        /* \"contracts/LoyaltyProgram.sol\":301:359  mapping (address => CustomerPoints) public  customerewards */\n    tag_11:\n      callvalue\n      dup1\n      iszero\n      tag_66\n      jumpi\n      0x00\n      dup1\n      revert\n    tag_66:\n      pop\n      tag_67\n      0x04\n      dup1\n      calldatasize\n      sub\n      dup2\n      add\n      swap1\n      tag_68\n      swap2\n      swap1\n      tag_69\n      jump\t// in\n    tag_68:\n      tag_70\n      jump\t// in\n    tag_67:\n      mload(0x40)\n      tag_71\n      swap2\n      swap1\n      tag_34\n      jump\t// in\n    tag_71:\n      mload(0x40)\n      dup1\n      swap2\n      sub\n      swap1\n      return\n        /* \"contracts/BookStore.sol\":2537:3005  function removeBook(uint256 _bookId) external onlyOwner {... */\n    tag_12:\n      callvalue\n      dup1\n      iszero\n      tag_72\n      jumpi\n      0x00\n      dup1\n      revert\n    tag_72:\n      pop\n      tag_73\n      0x04\n      dup1\n      calldatasize\n      sub\n      dup2\n      add\n      swap1\n      tag_74\n      swap2\n      swap1\n      tag_38\n      jump\t// in\n    tag_74:\n      tag_75\n      jump\t// in\n    tag_73:\n      stop\n        /* \"contracts/LoyaltyProgram.sol\":1604:1843  function getCustomerPoints (address _customer) public view returns (uint256) {... */\n    tag_13:\n      callvalue\n      dup1\n      iszero\n      tag_76\n      jumpi\n      0x00\n      dup1\n      revert\n    tag_76:\n      pop\n      tag_77\n      0x04\n      dup1\n      calldatasize\n      sub\n      dup2\n      add\n      swap1\n      tag_78\n      swap2\n      swap1\n      tag_69\n      jump\t// in\n    tag_78:\n      tag_79\n      jump\t// in\n    tag_77:\n      mload(0x40)\n      tag_80\n      swap2\n      swap1\n      tag_34\n      jump\t// in\n    tag_80:\n      mload(0x40)\n      dup1\n      swap2\n      sub\n      swap1\n      return\n        /* \"@openzeppelin/contracts/access/Ownable.sol\":2543:2758  function transferOwnership(address newOwner) public virtual onlyOwner {... */\n    tag_14:\n      callvalue\n      dup1\n      iszero\n      tag_81\n      jumpi\n      0x00\n      dup1\n      revert\n    tag_81:\n      pop\n      tag_82\n      0x04\n      dup1\n      calldatasize\n      sub\n      dup2\n      add\n      swap1\n      tag_83\n      swap2\n      swap1\n      tag_69\n      jump\t// in\n    tag_83:\n      tag_84\n      jump\t// in\n    tag_82:\n      stop\n        /* \"contracts/LoyaltyProgram.sol\":405:593  function buyBook(uint256 _bookId, uint96 _quantity) public virtual  override payable {... */\n    tag_15:\n      tag_85\n      0x04\n      dup1\n      calldatasize\n      sub\n      dup2\n      add\n      swap1\n      tag_86\n      swap2\n      swap1\n      tag_87\n      jump\t// in\n    tag_86:\n      tag_88\n      jump\t// in\n    tag_85:\n      stop\n        /* \"contracts/BookStore.sol\":1701:2488  function removeBooks(uint256[] calldata _bookIds) external onlyOwner {... */\n    tag_16:\n      callvalue\n      dup1\n      iszero\n      tag_89\n      jumpi\n      0x00\n      dup1\n      revert\n    tag_89:\n      pop\n      tag_90\n      0x04\n      dup1\n      calldatasize\n      sub\n      dup2\n      add\n      swap1\n      tag_91\n      swap2\n      swap1\n      tag_92\n      jump\t// in\n    tag_91:\n      tag_93\n      jump\t// in\n    tag_90:\n      stop\n        /* \"contracts/BookStore.sol\":767:1263  function addBook(uint256 _bookId, string calldata _title, string calldata _author, uint96 _stock, uint96 _price) external {... */\n    tag_24:\n        /* \"contracts/BookStore.sol\":932:933  0 */\n      0x00\n        /* \"contracts/BookStore.sol\":908:913  books */\n      0x01\n        /* \"contracts/BookStore.sol\":908:922  books[_bookId] */\n      0x00\n        /* \"contracts/BookStore.sol\":914:921  _bookId */\n      dup10\n        /* \"contracts/BookStore.sol\":908:922  books[_bookId] */\n      dup2\n      mstore\n      0x20\n      add\n      swap1\n      dup2\n      mstore\n      0x20\n      add\n      0x00\n      keccak256\n        /* \"contracts/BookStore.sol\":908:928  books[_bookId].price */\n      0x00\n      add\n      0x0c\n      swap1\n      sload\n      swap1\n      0x0100\n      exp\n      swap1\n      div\n      0xffffffffffffffffffffffff\n      and\n        /* \"contracts/BookStore.sol\":908:933  books[_bookId].price == 0 */\n      0xffffffffffffffffffffffff\n      and\n      eq\n        /* \"contracts/BookStore.sol\":900:949  require(books[_bookId].price == 0, \"Book exists\") */\n      tag_95\n      jumpi\n      mload(0x40)\n      0x08c379a000000000000000000000000000000000000000000000000000000000\n      dup2\n      mstore\n      0x04\n      add\n      tag_96\n      swap1\n      tag_97\n      jump\t// in\n    tag_96:\n      mload(0x40)\n      dup1\n      swap2\n      sub\n      swap1\n      revert\n    tag_95:\n        /* \"contracts/BookStore.sol\":977:1156  Book({... */\n      mload(0x40)\n      dup1\n      0xa0\n      add\n      0x40\n      mstore\n      dup1\n        /* \"contracts/BookStore.sol\":1004:1010  _stock */\n      dup4\n        /* \"contracts/BookStore.sol\":977:1156  Book({... */\n      0xffffffffffffffffffffffff\n      and\n      dup2\n      mstore\n      0x20\n      add\n        /* \"contracts/BookStore.sol\":1041:1048  1 ether */\n      0x0de0b6b3a7640000\n        /* \"contracts/BookStore.sol\":1032:1038  _price */\n      dup4\n        /* \"contracts/BookStore.sol\":1032:1048  _price * 1 ether */\n      tag_98\n      swap2\n      swap1\n      tag_99\n      jump\t// in\n    tag_98:\n        /* \"contracts/BookStore.sol\":977:1156  Book({... */\n      0xffffffffffffffffffffffff\n      and\n      dup2\n      mstore\n      0x20\n      add\n        /* \"contracts/BookStore.sol\":1085:1086  0 */\n      0x00\n        /* \"contracts/BookStore.sol\":1076:1082  _stock */\n      dup5\n        /* \"contracts/BookStore.sol\":1076:1086  _stock > 0 */\n      0xffffffffffffffffffffffff\n      and\n      gt\n        /* \"contracts/BookStore.sol\":977:1156  Book({... */\n      iszero\n      iszero\n      dup2\n      mstore\n      0x20\n      add\n        /* \"contracts/BookStore.sol\":1108:1114  _title */\n      dup8\n      dup8\n        /* \"contracts/BookStore.sol\":977:1156  Book({... */\n      dup1\n      dup1\n      0x1f\n      add\n      0x20\n      dup1\n      swap2\n      div\n      mul\n      0x20\n      add\n      mload(0x40)\n      swap1\n      dup2\n      add\n      0x40\n      mstore\n      dup1\n      swap4\n      swap3\n      swap2\n      swap1\n      dup2\n      dup2\n      mstore\n      0x20\n      add\n      dup4\n      dup4\n      dup1\n      dup3\n      dup5\n      calldatacopy\n      0x00\n      dup2\n      dup5\n      add\n      mstore\n      not(0x1f)\n      0x1f\n      dup3\n      add\n      and\n      swap1\n      pop\n      dup1\n      dup4\n      add\n      swap3\n      pop\n      pop\n      pop\n      pop\n      pop\n      pop\n      pop\n      dup2\n      mstore\n      0x20\n      add\n        /* \"contracts/BookStore.sol\":1137:1144  _author */\n      dup6\n      dup6\n        /* \"contracts/BookStore.sol\":977:1156  Book({... */\n      dup1\n      dup1\n      0x1f\n      add\n      0x20\n      dup1\n      swap2\n      div\n      mul\n      0x20\n      add\n      mload(0x40)\n      swap1\n      dup2\n      add\n      0x40\n      mstore\n      dup1\n      swap4\n      swap3\n      swap2\n      swap1\n      dup2\n      dup2\n      mstore\n      0x20\n      add\n      dup4\n      dup4\n      dup1\n      dup3\n      dup5\n      calldatacopy\n      0x00\n      dup2\n      dup5\n      add\n      mstore\n      not(0x1f)\n      0x1f\n      dup3\n      add\n      and\n      swap1\n      pop\n      dup1\n      dup4\n      add\n      swap3\n      pop\n      pop\n      pop\n      pop\n      pop\n      pop\n      pop\n      dup2\n      mstore\n      pop\n        /* \"contracts/BookStore.sol\":960:965  books */\n      0x01\n        /* \"contracts/BookStore.sol\":960:974  books[_bookId] */\n      0x00\n        /* \"contracts/BookStore.sol\":966:973  _bookId */\n      dup10\n        /* \"contracts/BookStore.sol\":960:974  books[_bookId] */\n      dup2\n      mstore\n      0x20\n      add\n      swap1\n      dup2\n      mstore\n      0x20\n      add\n      0x00\n      keccak256\n        /* \"contracts/BookStore.sol\":960:1156  books[_bookId] = Book({... */\n      0x00\n      dup3\n      add\n      mload\n      dup2\n      0x00\n      add\n      exp(0x0100, 0x00)\n      dup2\n      sload\n      dup2\n      0xffffffffffffffffffffffff\n      mul\n      not\n      and\n      swap1\n      dup4\n      0xffffffffffffffffffffffff\n      and\n      mul\n      or\n      swap1\n      sstore\n      pop\n      0x20\n      dup3\n      add\n      mload\n      dup2\n      0x00\n      add\n      exp(0x0100, 0x0c)\n      dup2\n      sload\n      dup2\n      0xffffffffffffffffffffffff\n      mul\n      not\n      and\n      swap1\n      dup4\n      0xffffffffffffffffffffffff\n      and\n      mul\n      or\n      swap1\n      sstore\n      pop\n      0x40\n      dup3\n      add\n      mload\n      dup2\n      0x00\n      add\n      exp(0x0100, 0x18)\n      dup2\n      sload\n      dup2\n      0xff\n      mul\n      not\n      and\n      swap1\n      dup4\n      iszero\n      iszero\n      mul\n      or\n      swap1\n      sstore\n      pop\n      0x60\n      dup3\n      add\n      mload\n      dup2\n      0x01\n      add\n      swap1\n      dup2\n      tag_100\n      swap2\n      swap1\n      tag_101\n      jump\t// in\n    tag_100:\n      pop\n      0x80\n      dup3\n      add\n      mload\n      dup2\n      0x02\n      add\n      swap1\n      dup2\n      tag_102\n      swap2\n      swap1\n      tag_101\n      jump\t// in\n    tag_102:\n      pop\n      swap1\n      pop\n      pop\n        /* \"contracts/BookStore.sol\":1167:1174  bookIds */\n      0x02\n        /* \"contracts/BookStore.sol\":1180:1187  _bookId */\n      dup8\n        /* \"contracts/BookStore.sol\":1167:1188  bookIds.push(_bookId) */\n      swap1\n      dup1\n      0x01\n      dup2\n      sload\n      add\n      dup1\n      dup3\n      sstore\n      dup1\n      swap2\n      pop\n      pop\n      0x01\n      swap1\n      sub\n      swap1\n      0x00\n      mstore\n      keccak256(0x00, 0x20)\n      add\n      0x00\n      swap1\n      swap2\n      swap1\n      swap2\n      swap1\n      swap2\n      pop\n      sstore\n        /* \"contracts/BookStore.sol\":1214:1221  _bookId */\n      dup7\n        /* \"contracts/BookStore.sol\":1204:1255  BookAdded(_bookId, _title, _author, _price, _stock) */\n      0x907463480edcb1016ad34b5c752a56e18c2aea6ed1dd0e18ec287d63d670d88f\n        /* \"contracts/BookStore.sol\":1223:1229  _title */\n      dup8\n      dup8\n        /* \"contracts/BookStore.sol\":1231:1238  _author */\n      dup8\n      dup8\n        /* \"contracts/BookStore.sol\":1240:1246  _price */\n      dup7\n        /* \"contracts/BookStore.sol\":1248:1254  _stock */\n      dup9\n        /* \"contracts/BookStore.sol\":1204:1255  BookAdded(_bookId, _title, _author, _price, _stock) */\n      mload(0x40)\n      tag_104\n      swap7\n      swap6\n      swap5\n      swap4\n      swap3\n      swap2\n      swap1\n      tag_105\n      jump\t// in\n    tag_104:\n      mload(0x40)\n      dup1\n      swap2\n      sub\n      swap1\n      log2\n        /* \"contracts/BookStore.sol\":767:1263  function addBook(uint256 _bookId, string calldata _title, string calldata _author, uint96 _stock, uint96 _price) external {... */\n      pop\n      pop\n      pop\n      pop\n      pop\n      pop\n      pop\n      jump\t// out\n        /* \"contracts/BookStore.sol\":1309:1647  function getAllBooks() external view returns (string[] memory) {... */\n    tag_27:\n        /* \"contracts/BookStore.sol\":1355:1370  string[] memory */\n      0x60\n        /* \"contracts/BookStore.sol\":1383:1405  string[] memory titles */\n      0x00\n        /* \"contracts/BookStore.sol\":1421:1428  bookIds */\n      0x02\n        /* \"contracts/BookStore.sol\":1421:1435  bookIds.length */\n      dup1\n      sload\n      swap1\n      pop\n        /* \"contracts/BookStore.sol\":1408:1436  new string[](bookIds.length) */\n      0xffffffffffffffff\n      dup2\n      gt\n      iszero\n      tag_107\n      jumpi\n      tag_108\n      tag_109\n      jump\t// in\n    tag_108:\n    tag_107:\n      mload(0x40)\n      swap1\n      dup1\n      dup3\n      mstore\n      dup1\n      0x20\n      mul\n      0x20\n      add\n      dup3\n      add\n      0x40\n      mstore\n      dup1\n      iszero\n      tag_110\n      jumpi\n      dup2\n      0x20\n      add\n    tag_111:\n      0x60\n      dup2\n      mstore\n      0x20\n      add\n      swap1\n      0x01\n      swap1\n      sub\n      swap1\n      dup2\n      tag_111\n      jumpi\n      swap1\n      pop\n    tag_110:\n      pop\n        /* \"contracts/BookStore.sol\":1383:1436  string[] memory titles = new string[](bookIds.length) */\n      swap1\n      pop\n        /* \"contracts/BookStore.sol\":1452:1461  uint256 i */\n      0x00\n        /* \"contracts/BookStore.sol\":1447:1616  for (uint256 i; i < bookIds.length;){... */\n    tag_112:\n        /* \"contracts/BookStore.sol\":1467:1474  bookIds */\n      0x02\n        /* \"contracts/BookStore.sol\":1467:1481  bookIds.length */\n      dup1\n      sload\n      swap1\n      pop\n        /* \"contracts/BookStore.sol\":1463:1464  i */\n      dup2\n        /* \"contracts/BookStore.sol\":1463:1481  i < bookIds.length */\n      lt\n        /* \"contracts/BookStore.sol\":1447:1616  for (uint256 i; i < bookIds.length;){... */\n      iszero\n      tag_113\n      jumpi\n        /* \"contracts/BookStore.sol\":1498:1515  Book storage book */\n      0x00\n        /* \"contracts/BookStore.sol\":1518:1523  books */\n      0x01\n        /* \"contracts/BookStore.sol\":1518:1535  books[bookIds[i]] */\n      0x00\n        /* \"contracts/BookStore.sol\":1524:1531  bookIds */\n      0x02\n        /* \"contracts/BookStore.sol\":1532:1533  i */\n      dup5\n        /* \"contracts/BookStore.sol\":1524:1534  bookIds[i] */\n      dup2\n      sload\n      dup2\n      lt\n      tag_115\n      jumpi\n      tag_116\n      tag_117\n      jump\t// in\n    tag_116:\n    tag_115:\n      swap1\n      0x00\n      mstore\n      keccak256(0x00, 0x20)\n      add\n      sload\n        /* \"contracts/BookStore.sol\":1518:1535  books[bookIds[i]] */\n      dup2\n      mstore\n      0x20\n      add\n      swap1\n      dup2\n      mstore\n      0x20\n      add\n      0x00\n      keccak256\n        /* \"contracts/BookStore.sol\":1498:1535  Book storage book = books[bookIds[i]] */\n      swap1\n      pop\n        /* \"contracts/BookStore.sol\":1562:1566  book */\n      dup1\n        /* \"contracts/BookStore.sol\":1562:1572  book.title */\n      0x01\n      add\n        /* \"contracts/BookStore.sol\":1550:1572  titles[i] = book.title */\n      dup1\n      sload\n      tag_119\n      swap1\n      tag_120\n      jump\t// in\n    tag_119:\n      dup1\n      0x1f\n      add\n      0x20\n      dup1\n      swap2\n      div\n      mul\n      0x20\n      add\n      mload(0x40)\n      swap1\n      dup2\n      add\n      0x40\n      mstore\n      dup1\n      swap3\n      swap2\n      swap1\n      dup2\n      dup2\n      mstore\n      0x20\n      add\n      dup3\n      dup1\n      sload\n      tag_121\n      swap1\n      tag_120\n      jump\t// in\n    tag_121:\n      dup1\n      iszero\n      tag_122\n      jumpi\n      dup1\n      0x1f\n      lt\n      tag_123\n      jumpi\n      0x0100\n      dup1\n      dup4\n      sload\n      div\n      mul\n      dup4\n      mstore\n      swap2\n      0x20\n      add\n      swap2\n      jump(tag_122)\n    tag_123:\n      dup3\n      add\n      swap2\n      swap1\n      0x00\n      mstore\n      keccak256(0x00, 0x20)\n      swap1\n    tag_124:\n      dup2\n      sload\n      dup2\n      mstore\n      swap1\n      0x01\n      add\n      swap1\n      0x20\n      add\n      dup1\n      dup4\n      gt\n      tag_124\n      jumpi\n      dup3\n      swap1\n      sub\n      0x1f\n      and\n      dup3\n      add\n      swap2\n    tag_122:\n      pop\n      pop\n      pop\n      pop\n      pop\n        /* \"contracts/BookStore.sol\":1550:1556  titles */\n      dup4\n        /* \"contracts/BookStore.sol\":1557:1558  i */\n      dup4\n        /* \"contracts/BookStore.sol\":1550:1559  titles[i] */\n      dup2\n      mload\n      dup2\n      lt\n      tag_125\n      jumpi\n      tag_126\n      tag_117\n      jump\t// in\n    tag_126:\n    tag_125:\n      0x20\n      mul\n      0x20\n      add\n      add\n        /* \"contracts/BookStore.sol\":1550:1572  titles[i] = book.title */\n      dup2\n      swap1\n      mstore\n      pop\n        /* \"contracts/BookStore.sol\":1599:1602  i++ */\n      dup2\n      dup1\n      0x01\n      add\n      swap3\n      pop\n      pop\n        /* \"contracts/BookStore.sol\":1483:1616  {... */\n      pop\n        /* \"contracts/BookStore.sol\":1447:1616  for (uint256 i; i < bookIds.length;){... */\n      jump(tag_112)\n    tag_113:\n      pop\n        /* \"contracts/BookStore.sol\":1633:1639  titles */\n      dup1\n        /* \"contracts/BookStore.sol\":1626:1639  return titles */\n      swap2\n      pop\n      pop\n        /* \"contracts/BookStore.sol\":1309:1647  function getAllBooks() external view returns (string[] memory) {... */\n      swap1\n      jump\t// out\n        /* \"contracts/BookStore.sol\":3048:3157  function getOwnerBalance() external view returns (uint256) {... */\n    tag_32:\n        /* \"contracts/BookStore.sol\":3098:3105  uint256 */\n      0x00\n        /* \"contracts/BookStore.sol\":3133:3140  owner() */\n      tag_128\n        /* \"contracts/BookStore.sol\":3133:3138  owner */\n      tag_58\n        /* \"contracts/BookStore.sol\":3133:3140  owner() */\n      jump\t// in\n    tag_128:\n        /* \"contracts/BookStore.sol\":3125:3149  address(owner()).balance */\n      0xffffffffffffffffffffffffffffffffffffffff\n      and\n      balance\n        /* \"contracts/BookStore.sol\":3118:3149  return address(owner()).balance */\n      swap1\n      pop\n        /* \"contracts/BookStore.sol\":3048:3157  function getOwnerBalance() external view returns (uint256) {... */\n      swap1\n      jump\t// out\n        /* \"contracts/BookStore.sol\":3315:3600  function getBooks(uint256 _bookId) external view returns (string memory title, string memory author, uint96 price, uint96 stock, bool isAvailable) {... */\n    tag_39:\n        /* \"contracts/BookStore.sol\":3373:3392  string memory title */\n      0x60\n        /* \"contracts/BookStore.sol\":3394:3414  string memory author */\n      dup1\n        /* \"contracts/BookStore.sol\":3416:3428  uint96 price */\n      0x00\n        /* \"contracts/BookStore.sol\":3430:3442  uint96 stock */\n      dup1\n        /* \"contracts/BookStore.sol\":3444:3460  bool isAvailable */\n      0x00\n        /* \"contracts/BookStore.sol\":3473:3490  Book storage book */\n      dup1\n        /* \"contracts/BookStore.sol\":3493:3498  books */\n      0x01\n        /* \"contracts/BookStore.sol\":3493:3507  books[_bookId] */\n      0x00\n        /* \"contracts/BookStore.sol\":3499:3506  _bookId */\n      dup9\n        /* \"contracts/BookStore.sol\":3493:3507  books[_bookId] */\n      dup2\n      mstore\n      0x20\n      add\n      swap1\n      dup2\n      mstore\n      0x20\n      add\n      0x00\n      keccak256\n        /* \"contracts/BookStore.sol\":3473:3507  Book storage book = books[_bookId] */\n      swap1\n      pop\n        /* \"contracts/BookStore.sol\":3526:3530  book */\n      dup1\n        /* \"contracts/BookStore.sol\":3526:3536  book.title */\n      0x01\n      add\n        /* \"contracts/BookStore.sol\":3538:3542  book */\n      dup2\n        /* \"contracts/BookStore.sol\":3538:3549  book.author */\n      0x02\n      add\n        /* \"contracts/BookStore.sol\":3551:3555  book */\n      dup3\n        /* \"contracts/BookStore.sol\":3551:3561  book.price */\n      0x00\n      add\n      0x0c\n      swap1\n      sload\n      swap1\n      0x0100\n      exp\n      swap1\n      div\n      0xffffffffffffffffffffffff\n      and\n        /* \"contracts/BookStore.sol\":3563:3567  book */\n      dup4\n        /* \"contracts/BookStore.sol\":3563:3573  book.stock */\n      0x00\n      add\n      0x00\n      swap1\n      sload\n      swap1\n      0x0100\n      exp\n      swap1\n      div\n      0xffffffffffffffffffffffff\n      and\n        /* \"contracts/BookStore.sol\":3575:3579  book */\n      dup5\n        /* \"contracts/BookStore.sol\":3575:3591  book.isAvailable */\n      0x00\n      add\n      0x18\n      swap1\n      sload\n      swap1\n      0x0100\n      exp\n      swap1\n      div\n      0xff\n      and\n        /* \"contracts/BookStore.sol\":3518:3592  return (book.title, book.author, book.price, book.stock, book.isAvailable) */\n      dup5\n      dup1\n      sload\n      tag_130\n      swap1\n      tag_120\n      jump\t// in\n    tag_130:\n      dup1\n      0x1f\n      add\n      0x20\n      dup1\n      swap2\n      div\n      mul\n      0x20\n      add\n      mload(0x40)\n      swap1\n      dup2\n      add\n      0x40\n      mstore\n      dup1\n      swap3\n      swap2\n      swap1\n      dup2\n      dup2\n      mstore\n      0x20\n      add\n      dup3\n      dup1\n      sload\n      tag_131\n      swap1\n      tag_120\n      jump\t// in\n    tag_131:\n      dup1\n      iszero\n      tag_132\n      jumpi\n      dup1\n      0x1f\n      lt\n      tag_133\n      jumpi\n      0x0100\n      dup1\n      dup4\n      sload\n      div\n      mul\n      dup4\n      mstore\n      swap2\n      0x20\n      add\n      swap2\n      jump(tag_132)\n    tag_133:\n      dup3\n      add\n      swap2\n      swap1\n      0x00\n      mstore\n      keccak256(0x00, 0x20)\n      swap1\n    tag_134:\n      dup2\n      sload\n      dup2\n      mstore\n      swap1\n      0x01\n      add\n      swap1\n      0x20\n      add\n      dup1\n      dup4\n      gt\n      tag_134\n      jumpi\n      dup3\n      swap1\n      sub\n      0x1f\n      and\n      dup3\n      add\n      swap2\n    tag_132:\n      pop\n      pop\n      pop\n      pop\n      pop\n      swap5\n      pop\n      dup4\n      dup1\n      sload\n      tag_135\n      swap1\n      tag_120\n      jump\t// in\n    tag_135:\n      dup1\n      0x1f\n      add\n      0x20\n      dup1\n      swap2\n      div\n      mul\n      0x20\n      add\n      mload(0x40)\n      swap1\n      dup2\n      add\n      0x40\n      mstore\n      dup1\n      swap3\n      swap2\n      swap1\n      dup2\n      dup2\n      mstore\n      0x20\n      add\n      dup3\n      dup1\n      sload\n      tag_136\n      swap1\n      tag_120\n      jump\t// in\n    tag_136:\n      dup1\n      iszero\n      tag_137\n      jumpi\n      dup1\n      0x1f\n      lt\n      tag_138\n      jumpi\n      0x0100\n      dup1\n      dup4\n      sload\n      div\n      mul\n      dup4\n      mstore\n      swap2\n      0x20\n      add\n      swap2\n      jump(tag_137)\n    tag_138:\n      dup3\n      add\n      swap2\n      swap1\n      0x00\n      mstore\n      keccak256(0x00, 0x20)\n      swap1\n    tag_139:\n      dup2\n      sload\n      dup2\n      mstore\n      swap1\n      0x01\n      add\n      swap1\n      0x20\n      add\n      dup1\n      dup4\n      gt\n      tag_139\n      jumpi\n      dup3\n      swap1\n      sub\n      0x1f\n      and\n      dup3\n      add\n      swap2\n    tag_137:\n      pop\n      pop\n      pop\n      pop\n      pop\n      swap4\n      pop\n      swap6\n      pop\n      swap6\n      pop\n      swap6\n      pop\n      swap6\n      pop\n      swap6\n      pop\n      pop\n        /* \"contracts/BookStore.sol\":3315:3600  function getBooks(uint256 _bookId) external view returns (string memory title, string memory author, uint96 price, uint96 stock, bool isAvailable) {... */\n      swap2\n      swap4\n      swap6\n      swap1\n      swap3\n      swap5\n      pop\n      jump\t// out\n        /* \"contracts/BookStore.sol\":354:391  mapping(uint256 => Book) public books */\n    tag_45:\n      mstore(0x20, 0x01)\n      dup1\n      0x00\n      mstore\n      keccak256(0x00, 0x40)\n      0x00\n      swap2\n      pop\n      swap1\n      pop\n      dup1\n      0x00\n      add\n      0x00\n      swap1\n      sload\n      swap1\n      0x0100\n      exp\n      swap1\n      div\n      0xffffffffffffffffffffffff\n      and\n      swap1\n      dup1\n      0x00\n      add\n      0x0c\n      swap1\n      sload\n      swap1\n      0x0100\n      exp\n      swap1\n      div\n      0xffffffffffffffffffffffff\n      and\n      swap1\n      dup1\n      0x00\n      add\n      0x18\n      swap1\n      sload\n      swap1\n      0x0100\n      exp\n      swap1\n      div\n      0xff\n      and\n      swap1\n      dup1\n      0x01\n      add\n      dup1\n      sload\n      tag_140\n      swap1\n      tag_120\n      jump\t// in\n    tag_140:\n      dup1\n      0x1f\n      add\n      0x20\n      dup1\n      swap2\n      div\n      mul\n      0x20\n      add\n      mload(0x40)\n      swap1\n      dup2\n      add\n      0x40\n      mstore\n      dup1\n      swap3\n      swap2\n      swap1\n      dup2\n      dup2\n      mstore\n      0x20\n      add\n      dup3\n      dup1\n      sload\n      tag_141\n      swap1\n      tag_120\n      jump\t// in\n    tag_141:\n      dup1\n      iszero\n      tag_142\n      jumpi\n      dup1\n      0x1f\n      lt\n      tag_143\n      jumpi\n      0x0100\n      dup1\n      dup4\n      sload\n      div\n      mul\n      dup4\n      mstore\n      swap2\n      0x20\n      add\n      swap2\n      jump(tag_142)\n    tag_143:\n      dup3\n      add\n      swap2\n      swap1\n      0x00\n      mstore\n      keccak256(0x00, 0x20)\n      swap1\n    tag_144:\n      dup2\n      sload\n      dup2\n      mstore\n      swap1\n      0x01\n      add\n      swap1\n      0x20\n      add\n      dup1\n      dup4\n      gt\n      tag_144\n      jumpi\n      dup3\n      swap1\n      sub\n      0x1f\n      and\n      dup3\n      add\n      swap2\n    tag_142:\n      pop\n      pop\n      pop\n      pop\n      pop\n      swap1\n      dup1\n      0x02\n      add\n      dup1\n      sload\n      tag_145\n      swap1\n      tag_120\n      jump\t// in\n    tag_145:\n      dup1\n      0x1f\n      add\n      0x20\n      dup1\n      swap2\n      div\n      mul\n      0x20\n      add\n      mload(0x40)\n      swap1\n      dup2\n      add\n      0x40\n      mstore\n      dup1\n      swap3\n      swap2\n      swap1\n      dup2\n      dup2\n      mstore\n      0x20\n      add\n      dup3\n      dup1\n      sload\n      tag_146\n      swap1\n      tag_120\n      jump\t// in\n    tag_146:\n      dup1\n      iszero\n      tag_147\n      jumpi\n      dup1\n      0x1f\n      lt\n      tag_148\n      jumpi\n      0x0100\n      dup1\n      dup4\n      sload\n      div\n      mul\n      dup4\n      mstore\n      swap2\n      0x20\n      add\n      swap2\n      jump(tag_147)\n    tag_148:\n      dup3\n      add\n      swap2\n      swap1\n      0x00\n      mstore\n      keccak256(0x00, 0x20)\n      swap1\n    tag_149:\n      dup2\n      sload\n      dup2\n      mstore\n      swap1\n      0x01\n      add\n      swap1\n      0x20\n      add\n      dup1\n      dup4\n      gt\n      tag_149\n      jumpi\n      dup3\n      swap1\n      sub\n      0x1f\n      and\n      dup3\n      add\n      swap2\n    tag_147:\n      pop\n      pop\n      pop\n      pop\n      pop\n      swap1\n      pop\n      dup6\n      jump\t// out\n        /* \"contracts/LoyaltyProgram.sol\":605:1595  function addCustomerPoints (address _customer, uint256 _amount) public {... */\n    tag_52:\n        /* \"contracts/LoyaltyProgram.sol\":687:702  uint256 _points */\n      0x00\n        /* \"contracts/LoyaltyProgram.sol\":713:726  uint256 value */\n      dup1\n        /* \"contracts/LoyaltyProgram.sol\":729:733  1e18 */\n      0x0de0b6b3a7640000\n        /* \"contracts/LoyaltyProgram.sol\":713:733  uint256 value = 1e18 */\n      swap1\n      pop\n        /* \"contracts/LoyaltyProgram.sol\":759:764  value */\n      dup1\n        /* \"contracts/LoyaltyProgram.sol\":749:756  _amount */\n      dup4\n        /* \"contracts/LoyaltyProgram.sol\":749:764  _amount < value */\n      lt\n        /* \"contracts/LoyaltyProgram.sol\":746:1200  if(_amount < value) {... */\n      iszero\n      tag_151\n      jumpi\n        /* \"contracts/LoyaltyProgram.sol\":791:793  10 */\n      0x0a\n        /* \"contracts/LoyaltyProgram.sol\":781:793  _points = 10 */\n      swap2\n      pop\n        /* \"contracts/LoyaltyProgram.sol\":746:1200  if(_amount < value) {... */\n      jump(tag_152)\n    tag_151:\n        /* \"contracts/LoyaltyProgram.sol\":835:840  value */\n      dup1\n        /* \"contracts/LoyaltyProgram.sol\":824:831  _amount */\n      dup4\n        /* \"contracts/LoyaltyProgram.sol\":824:840  _amount >= value */\n      lt\n      iszero\n        /* \"contracts/LoyaltyProgram.sol\":824:861  _amount >= value && _amount < 3*value */\n      dup1\n      iszero\n      tag_153\n      jumpi\n      pop\n        /* \"contracts/LoyaltyProgram.sol\":856:861  value */\n      dup1\n        /* \"contracts/LoyaltyProgram.sol\":854:855  3 */\n      0x03\n        /* \"contracts/LoyaltyProgram.sol\":854:861  3*value */\n      tag_154\n      swap2\n      swap1\n      tag_155\n      jump\t// in\n    tag_154:\n        /* \"contracts/LoyaltyProgram.sol\":844:851  _amount */\n      dup4\n        /* \"contracts/LoyaltyProgram.sol\":844:861  _amount < 3*value */\n      lt\n        /* \"contracts/LoyaltyProgram.sol\":824:861  _amount >= value && _amount < 3*value */\n    tag_153:\n        /* \"contracts/LoyaltyProgram.sol\":820:1200  if (_amount >= value && _amount < 3*value ){... */\n      iszero\n      tag_156\n      jumpi\n        /* \"contracts/LoyaltyProgram.sol\":888:890  15 */\n      0x0f\n        /* \"contracts/LoyaltyProgram.sol\":878:890  _points = 15 */\n      swap2\n      pop\n        /* \"contracts/LoyaltyProgram.sol\":820:1200  if (_amount >= value && _amount < 3*value ){... */\n      jump(tag_157)\n    tag_156:\n        /* \"contracts/LoyaltyProgram.sol\":934:939  value */\n      dup1\n        /* \"contracts/LoyaltyProgram.sol\":932:933  3 */\n      0x03\n        /* \"contracts/LoyaltyProgram.sol\":932:939  3*value */\n      tag_158\n      swap2\n      swap1\n      tag_155\n      jump\t// in\n    tag_158:\n        /* \"contracts/LoyaltyProgram.sol\":921:928  _amount */\n      dup4\n        /* \"contracts/LoyaltyProgram.sol\":921:939  _amount >= 3*value */\n      lt\n      iszero\n        /* \"contracts/LoyaltyProgram.sol\":921:960  _amount >= 3*value && _amount < 5*value */\n      dup1\n      iszero\n      tag_159\n      jumpi\n      pop\n        /* \"contracts/LoyaltyProgram.sol\":955:960  value */\n      dup1\n        /* \"contracts/LoyaltyProgram.sol\":953:954  5 */\n      0x05\n        /* \"contracts/LoyaltyProgram.sol\":953:960  5*value */\n      tag_160\n      swap2\n      swap1\n      tag_155\n      jump\t// in\n    tag_160:\n        /* \"contracts/LoyaltyProgram.sol\":943:950  _amount */\n      dup4\n        /* \"contracts/LoyaltyProgram.sol\":943:960  _amount < 5*value */\n      lt\n        /* \"contracts/LoyaltyProgram.sol\":921:960  _amount >= 3*value && _amount < 5*value */\n    tag_159:\n        /* \"contracts/LoyaltyProgram.sol\":917:1200  if (_amount >= 3*value && _amount < 5*value ){... */\n      iszero\n      tag_161\n      jumpi\n        /* \"contracts/LoyaltyProgram.sol\":987:989  20 */\n      0x14\n        /* \"contracts/LoyaltyProgram.sol\":977:989  _points = 20 */\n      swap2\n      pop\n        /* \"contracts/LoyaltyProgram.sol\":917:1200  if (_amount >= 3*value && _amount < 5*value ){... */\n      jump(tag_162)\n    tag_161:\n        /* \"contracts/LoyaltyProgram.sol\":1033:1038  value */\n      dup1\n        /* \"contracts/LoyaltyProgram.sol\":1031:1032  5 */\n      0x05\n        /* \"contracts/LoyaltyProgram.sol\":1031:1038  5*value */\n      tag_163\n      swap2\n      swap1\n      tag_155\n      jump\t// in\n    tag_163:\n        /* \"contracts/LoyaltyProgram.sol\":1020:1027  _amount */\n      dup4\n        /* \"contracts/LoyaltyProgram.sol\":1020:1038  _amount >= 5*value */\n      lt\n      iszero\n        /* \"contracts/LoyaltyProgram.sol\":1020:1059  _amount >= 5*value && _amount < 8*value */\n      dup1\n      iszero\n      tag_164\n      jumpi\n      pop\n        /* \"contracts/LoyaltyProgram.sol\":1054:1059  value */\n      dup1\n        /* \"contracts/LoyaltyProgram.sol\":1052:1053  8 */\n      0x08\n        /* \"contracts/LoyaltyProgram.sol\":1052:1059  8*value */\n      tag_165\n      swap2\n      swap1\n      tag_155\n      jump\t// in\n    tag_165:\n        /* \"contracts/LoyaltyProgram.sol\":1042:1049  _amount */\n      dup4\n        /* \"contracts/LoyaltyProgram.sol\":1042:1059  _amount < 8*value */\n      lt\n        /* \"contracts/LoyaltyProgram.sol\":1020:1059  _amount >= 5*value && _amount < 8*value */\n    tag_164:\n        /* \"contracts/LoyaltyProgram.sol\":1016:1200  if (_amount >= 5*value && _amount < 8*value ){... */\n      iszero\n      tag_166\n      jumpi\n        /* \"contracts/LoyaltyProgram.sol\":1086:1088  25 */\n      0x19\n        /* \"contracts/LoyaltyProgram.sol\":1076:1088  _points = 25 */\n      swap2\n      pop\n        /* \"contracts/LoyaltyProgram.sol\":1016:1200  if (_amount >= 5*value && _amount < 8*value ){... */\n      jump(tag_167)\n    tag_166:\n        /* \"contracts/LoyaltyProgram.sol\":1132:1137  value */\n      dup1\n        /* \"contracts/LoyaltyProgram.sol\":1130:1131  8 */\n      0x08\n        /* \"contracts/LoyaltyProgram.sol\":1130:1137  8*value */\n      tag_168\n      swap2\n      swap1\n      tag_155\n      jump\t// in\n    tag_168:\n        /* \"contracts/LoyaltyProgram.sol\":1119:1126  _amount */\n      dup4\n        /* \"contracts/LoyaltyProgram.sol\":1119:1137  _amount >= 8*value */\n      lt\n      iszero\n        /* \"contracts/LoyaltyProgram.sol\":1119:1159  _amount >= 8*value && _amount < 10*value */\n      dup1\n      iszero\n      tag_169\n      jumpi\n      pop\n        /* \"contracts/LoyaltyProgram.sol\":1154:1159  value */\n      dup1\n        /* \"contracts/LoyaltyProgram.sol\":1151:1153  10 */\n      0x0a\n        /* \"contracts/LoyaltyProgram.sol\":1151:1159  10*value */\n      tag_170\n      swap2\n      swap1\n      tag_155\n      jump\t// in\n    tag_170:\n        /* \"contracts/LoyaltyProgram.sol\":1141:1148  _amount */\n      dup4\n        /* \"contracts/LoyaltyProgram.sol\":1141:1159  _amount < 10*value */\n      lt\n        /* \"contracts/LoyaltyProgram.sol\":1119:1159  _amount >= 8*value && _amount < 10*value */\n    tag_169:\n        /* \"contracts/LoyaltyProgram.sol\":1115:1200  if (_amount >= 8*value && _amount < 10*value ){... */\n      iszero\n      tag_171\n      jumpi\n        /* \"contracts/LoyaltyProgram.sol\":1186:1188  30 */\n      0x1e\n        /* \"contracts/LoyaltyProgram.sol\":1176:1188  _points = 30 */\n      swap2\n      pop\n        /* \"contracts/LoyaltyProgram.sol\":1115:1200  if (_amount >= 8*value && _amount < 10*value ){... */\n    tag_171:\n        /* \"contracts/LoyaltyProgram.sol\":1016:1200  if (_amount >= 5*value && _amount < 8*value ){... */\n    tag_167:\n        /* \"contracts/LoyaltyProgram.sol\":917:1200  if (_amount >= 3*value && _amount < 5*value ){... */\n    tag_162:\n        /* \"contracts/LoyaltyProgram.sol\":820:1200  if (_amount >= value && _amount < 3*value ){... */\n    tag_157:\n        /* \"contracts/LoyaltyProgram.sol\":746:1200  if(_amount < value) {... */\n    tag_152:\n        /* \"contracts/LoyaltyProgram.sol\":1212:1242  CustomerPoints memory customer */\n      0x00\n        /* \"contracts/LoyaltyProgram.sol\":1245:1259  customerewards */\n      0x03\n        /* \"contracts/LoyaltyProgram.sol\":1245:1270  customerewards[_customer] */\n      0x00\n        /* \"contracts/LoyaltyProgram.sol\":1260:1269  _customer */\n      dup7\n        /* \"contracts/LoyaltyProgram.sol\":1245:1270  customerewards[_customer] */\n      0xffffffffffffffffffffffffffffffffffffffff\n      and\n      0xffffffffffffffffffffffffffffffffffffffff\n      and\n      dup2\n      mstore\n      0x20\n      add\n      swap1\n      dup2\n      mstore\n      0x20\n      add\n      0x00\n      keccak256\n        /* \"contracts/LoyaltyProgram.sol\":1212:1270  CustomerPoints memory customer = customerewards[_customer] */\n      mload(0x40)\n      dup1\n      0x20\n      add\n      0x40\n      mstore\n      swap1\n      dup2\n      0x00\n      dup3\n      add\n      sload\n      dup2\n      mstore\n      pop\n      pop\n      swap1\n      pop\n        /* \"contracts/LoyaltyProgram.sol\":1305:1306  0 */\n      0x00\n        /* \"contracts/LoyaltyProgram.sol\":1287:1295  customer */\n      dup2\n        /* \"contracts/LoyaltyProgram.sol\":1287:1302  customer.points */\n      0x00\n      add\n      mload\n        /* \"contracts/LoyaltyProgram.sol\":1287:1306  customer.points > 0 */\n      gt\n        /* \"contracts/LoyaltyProgram.sol\":1283:1515  if (customer.points > 0) {... */\n      iszero\n      tag_172\n      jumpi\n        /* \"contracts/LoyaltyProgram.sol\":1359:1366  _points */\n      dup3\n        /* \"contracts/LoyaltyProgram.sol\":1323:1337  customerewards */\n      0x03\n        /* \"contracts/LoyaltyProgram.sol\":1323:1348  customerewards[_customer] */\n      0x00\n        /* \"contracts/LoyaltyProgram.sol\":1338:1347  _customer */\n      dup8\n        /* \"contracts/LoyaltyProgram.sol\":1323:1348  customerewards[_customer] */\n      0xffffffffffffffffffffffffffffffffffffffff\n      and\n      0xffffffffffffffffffffffffffffffffffffffff\n      and\n      dup2\n      mstore\n      0x20\n      add\n      swap1\n      dup2\n      mstore\n      0x20\n      add\n      0x00\n      keccak256\n        /* \"contracts/LoyaltyProgram.sol\":1323:1355  customerewards[_customer].points */\n      0x00\n      add\n      0x00\n        /* \"contracts/LoyaltyProgram.sol\":1323:1366  customerewards[_customer].points += _points */\n      dup3\n      dup3\n      sload\n      tag_173\n      swap2\n      swap1\n      tag_174\n      jump\t// in\n    tag_173:\n      swap3\n      pop\n      pop\n      dup2\n      swap1\n      sstore\n      pop\n        /* \"contracts/LoyaltyProgram.sol\":1283:1515  if (customer.points > 0) {... */\n      jump(tag_175)\n    tag_172:\n        /* \"contracts/LoyaltyProgram.sol\":1437:1503  CustomerPoints({... */\n      mload(0x40)\n      dup1\n      0x20\n      add\n      0x40\n      mstore\n      dup1\n        /* \"contracts/LoyaltyProgram.sol\":1480:1487  _points */\n      dup5\n        /* \"contracts/LoyaltyProgram.sol\":1437:1503  CustomerPoints({... */\n      dup2\n      mstore\n      pop\n        /* \"contracts/LoyaltyProgram.sol\":1409:1423  customerewards */\n      0x03\n        /* \"contracts/LoyaltyProgram.sol\":1409:1434  customerewards[_customer] */\n      0x00\n        /* \"contracts/LoyaltyProgram.sol\":1424:1433  _customer */\n      dup8\n        /* \"contracts/LoyaltyProgram.sol\":1409:1434  customerewards[_customer] */\n      0xffffffffffffffffffffffffffffffffffffffff\n      and\n      0xffffffffffffffffffffffffffffffffffffffff\n      and\n      dup2\n      mstore\n      0x20\n      add\n      swap1\n      dup2\n      mstore\n      0x20\n      add\n      0x00\n      keccak256\n        /* \"contracts/LoyaltyProgram.sol\":1409:1503  customerewards[_customer] = CustomerPoints({... */\n      0x00\n      dup3\n      add\n      mload\n      dup2\n      0x00\n      add\n      sstore\n      swap1\n      pop\n      pop\n        /* \"contracts/LoyaltyProgram.sol\":1283:1515  if (customer.points > 0) {... */\n    tag_175:\n        /* \"contracts/LoyaltyProgram.sol\":1544:1553  _customer */\n      dup5\n        /* \"contracts/LoyaltyProgram.sol\":1532:1587  pointsAdded(_customer,customerewards[_customer].points) */\n      0xffffffffffffffffffffffffffffffffffffffff\n      and\n      0x2e09d9493c8a88b72578fd23604d9b5425c9be0fa86f8b58c76e2be94bcee6a9\n        /* \"contracts/LoyaltyProgram.sol\":1554:1568  customerewards */\n      0x03\n        /* \"contracts/LoyaltyProgram.sol\":1554:1579  customerewards[_customer] */\n      0x00\n        /* \"contracts/LoyaltyProgram.sol\":1569:1578  _customer */\n      dup9\n        /* \"contracts/LoyaltyProgram.sol\":1554:1579  customerewards[_customer] */\n      0xffffffffffffffffffffffffffffffffffffffff\n      and\n      0xffffffffffffffffffffffffffffffffffffffff\n      and\n      dup2\n      mstore\n      0x20\n      add\n      swap1\n      dup2\n      mstore\n      0x20\n      add\n      0x00\n      keccak256\n        /* \"contracts/LoyaltyProgram.sol\":1554:1586  customerewards[_customer].points */\n      0x00\n      add\n      sload\n        /* \"contracts/LoyaltyProgram.sol\":1532:1587  pointsAdded(_customer,customerewards[_customer].points) */\n      mload(0x40)\n      tag_176\n      swap2\n      swap1\n      tag_34\n      jump\t// in\n    tag_176:\n      mload(0x40)\n      dup1\n      swap2\n      sub\n      swap1\n      log2\n        /* \"contracts/LoyaltyProgram.sol\":676:1595  {... */\n      pop\n      pop\n      pop\n        /* \"contracts/LoyaltyProgram.sol\":605:1595  function addCustomerPoints (address _customer, uint256 _amount) public {... */\n      pop\n      pop\n      jump\t// out\n        /* \"@openzeppelin/contracts/access/Ownable.sol\":2293:2394  function renounceOwnership() public virtual onlyOwner {... */\n    tag_55:\n        /* \"@openzeppelin/contracts/access/Ownable.sol\":1531:1544  _checkOwner() */\n      tag_178\n        /* \"@openzeppelin/contracts/access/Ownable.sol\":1531:1542  _checkOwner */\n      tag_179\n        /* \"@openzeppelin/contracts/access/Ownable.sol\":1531:1544  _checkOwner() */\n      jump\t// in\n    tag_178:\n        /* \"@openzeppelin/contracts/access/Ownable.sol\":2357:2387  _transferOwnership(address(0)) */\n      tag_181\n        /* \"@openzeppelin/contracts/access/Ownable.sol\":2384:2385  0 */\n      0x00\n        /* \"@openzeppelin/contracts/access/Ownable.sol\":2357:2375  _transferOwnership */\n      tag_182\n        /* \"@openzeppelin/contracts/access/Ownable.sol\":2357:2387  _transferOwnership(address(0)) */\n      jump\t// in\n    tag_181:\n        /* \"@openzeppelin/contracts/access/Ownable.sol\":2293:2394  function renounceOwnership() public virtual onlyOwner {... */\n      jump\t// out\n        /* \"@openzeppelin/contracts/access/Ownable.sol\":1638:1723  function owner() public view virtual returns (address) {... */\n    tag_58:\n        /* \"@openzeppelin/contracts/access/Ownable.sol\":1684:1691  address */\n      0x00\n        /* \"@openzeppelin/contracts/access/Ownable.sol\":1710:1716  _owner */\n      dup1\n      0x00\n      swap1\n      sload\n      swap1\n      0x0100\n      exp\n      swap1\n      div\n      0xffffffffffffffffffffffffffffffffffffffff\n      and\n        /* \"@openzeppelin/contracts/access/Ownable.sol\":1703:1716  return _owner */\n      swap1\n      pop\n        /* \"@openzeppelin/contracts/access/Ownable.sol\":1638:1723  function owner() public view virtual returns (address) {... */\n      swap1\n      jump\t// out\n        /* \"contracts/BookStore.sol\":3207:3307  function getTotalBooksSold() external view returns (uint96) {... */\n    tag_63:\n        /* \"contracts/BookStore.sol\":3259:3265  uint96 */\n      0x00\n        /* \"contracts/BookStore.sol\":3285:3299  totalBooksSold */\n      dup1\n      0x14\n      swap1\n      sload\n      swap1\n      0x0100\n      exp\n      swap1\n      div\n      0xffffffffffffffffffffffff\n      and\n        /* \"contracts/BookStore.sol\":3278:3299  return totalBooksSold */\n      swap1\n      pop\n        /* \"contracts/BookStore.sol\":3207:3307  function getTotalBooksSold() external view returns (uint96) {... */\n      swap1\n      jump\t// out\n        /* \"contracts/LoyaltyProgram.sol\":301:359  mapping (address => CustomerPoints) public  customerewards */\n    tag_70:\n      mstore(0x20, 0x03)\n      dup1\n      0x00\n      mstore\n      keccak256(0x00, 0x40)\n      0x00\n      swap2\n      pop\n      swap1\n      pop\n      dup1\n      0x00\n      add\n      sload\n      swap1\n      pop\n      dup2\n      jump\t// out\n        /* \"contracts/BookStore.sol\":2537:3005  function removeBook(uint256 _bookId) external onlyOwner {... */\n    tag_75:\n        /* \"@openzeppelin/contracts/access/Ownable.sol\":1531:1544  _checkOwner() */\n      tag_186\n        /* \"@openzeppelin/contracts/access/Ownable.sol\":1531:1542  _checkOwner */\n      tag_179\n        /* \"@openzeppelin/contracts/access/Ownable.sol\":1531:1544  _checkOwner() */\n      jump\t// in\n    tag_186:\n        /* \"contracts/BookStore.sol\":2636:2637  0 */\n      0x00\n        /* \"contracts/BookStore.sol\":2612:2617  books */\n      0x01\n        /* \"contracts/BookStore.sol\":2612:2626  books[_bookId] */\n      0x00\n        /* \"contracts/BookStore.sol\":2618:2625  _bookId */\n      dup4\n        /* \"contracts/BookStore.sol\":2612:2626  books[_bookId] */\n      dup2\n      mstore\n      0x20\n      add\n      swap1\n      dup2\n      mstore\n      0x20\n      add\n      0x00\n      keccak256\n        /* \"contracts/BookStore.sol\":2612:2632  books[_bookId].price */\n      0x00\n      add\n      0x0c\n      swap1\n      sload\n      swap1\n      0x0100\n      exp\n      swap1\n      div\n      0xffffffffffffffffffffffff\n      and\n        /* \"contracts/BookStore.sol\":2612:2637  books[_bookId].price != 0 */\n      0xffffffffffffffffffffffff\n      and\n      sub\n        /* \"contracts/BookStore.sol\":2604:2656  require(books[_bookId].price != 0, \"Book not exist\") */\n      tag_188\n      jumpi\n      mload(0x40)\n      0x08c379a000000000000000000000000000000000000000000000000000000000\n      dup2\n      mstore\n      0x04\n      add\n      tag_189\n      swap1\n      tag_190\n      jump\t// in\n    tag_189:\n      mload(0x40)\n      dup1\n      swap2\n      sub\n      swap1\n      revert\n    tag_188:\n        /* \"contracts/BookStore.sol\":2674:2679  books */\n      0x01\n        /* \"contracts/BookStore.sol\":2674:2688  books[_bookId] */\n      0x00\n        /* \"contracts/BookStore.sol\":2680:2687  _bookId */\n      dup3\n        /* \"contracts/BookStore.sol\":2674:2688  books[_bookId] */\n      dup2\n      mstore\n      0x20\n      add\n      swap1\n      dup2\n      mstore\n      0x20\n      add\n      0x00\n      keccak256\n      0x00\n        /* \"contracts/BookStore.sol\":2667:2688  delete books[_bookId] */\n      dup1\n      dup3\n      add\n      exp(0x0100, 0x00)\n      dup2\n      sload\n      swap1\n      0xffffffffffffffffffffffff\n      mul\n      not\n      and\n      swap1\n      sstore\n      0x00\n      dup3\n      add\n      exp(0x0100, 0x0c)\n      dup2\n      sload\n      swap1\n      0xffffffffffffffffffffffff\n      mul\n      not\n      and\n      swap1\n      sstore\n      0x00\n      dup3\n      add\n      exp(0x0100, 0x18)\n      dup2\n      sload\n      swap1\n      0xff\n      mul\n      not\n      and\n      swap1\n      sstore\n      0x01\n      dup3\n      add\n      0x00\n      tag_191\n      swap2\n      swap1\n      tag_192\n      jump\t// in\n    tag_191:\n      0x02\n      dup3\n      add\n      0x00\n      tag_193\n      swap2\n      swap1\n      tag_192\n      jump\t// in\n    tag_193:\n      pop\n      pop\n        /* \"contracts/BookStore.sol\":2714:2723  uint256 i */\n      0x00\n        /* \"contracts/BookStore.sol\":2709:2962  for (uint256 i; i < bookIds.length;) {... */\n    tag_194:\n        /* \"contracts/BookStore.sol\":2729:2736  bookIds */\n      0x02\n        /* \"contracts/BookStore.sol\":2729:2743  bookIds.length */\n      dup1\n      sload\n      swap1\n      pop\n        /* \"contracts/BookStore.sol\":2725:2726  i */\n      dup2\n        /* \"contracts/BookStore.sol\":2725:2743  i < bookIds.length */\n      lt\n        /* \"contracts/BookStore.sol\":2709:2962  for (uint256 i; i < bookIds.length;) {... */\n      iszero\n      tag_195\n      jumpi\n        /* \"contracts/BookStore.sol\":2779:2786  _bookId */\n      dup2\n        /* \"contracts/BookStore.sol\":2765:2772  bookIds */\n      0x02\n        /* \"contracts/BookStore.sol\":2773:2774  i */\n      dup3\n        /* \"contracts/BookStore.sol\":2765:2775  bookIds[i] */\n      dup2\n      sload\n      dup2\n      lt\n      tag_197\n      jumpi\n      tag_198\n      tag_117\n      jump\t// in\n    tag_198:\n    tag_197:\n      swap1\n      0x00\n      mstore\n      keccak256(0x00, 0x20)\n      add\n      sload\n        /* \"contracts/BookStore.sol\":2765:2786  bookIds[i] == _bookId */\n      sub\n        /* \"contracts/BookStore.sol\":2761:2919  if (bookIds[i] == _bookId) {... */\n      tag_200\n      jumpi\n        /* \"contracts/BookStore.sol\":2820:2827  bookIds */\n      0x02\n        /* \"contracts/BookStore.sol\":2845:2846  1 */\n      0x01\n        /* \"contracts/BookStore.sol\":2828:2835  bookIds */\n      0x02\n        /* \"contracts/BookStore.sol\":2828:2842  bookIds.length */\n      dup1\n      sload\n      swap1\n      pop\n        /* \"contracts/BookStore.sol\":2828:2846  bookIds.length - 1 */\n      tag_201\n      swap2\n      swap1\n      tag_202\n      jump\t// in\n    tag_201:\n        /* \"contracts/BookStore.sol\":2820:2847  bookIds[bookIds.length - 1] */\n      dup2\n      sload\n      dup2\n      lt\n      tag_203\n      jumpi\n      tag_204\n      tag_117\n      jump\t// in\n    tag_204:\n    tag_203:\n      swap1\n      0x00\n      mstore\n      keccak256(0x00, 0x20)\n      add\n      sload\n        /* \"contracts/BookStore.sol\":2807:2814  bookIds */\n      0x02\n        /* \"contracts/BookStore.sol\":2815:2816  i */\n      dup3\n        /* \"contracts/BookStore.sol\":2807:2817  bookIds[i] */\n      dup2\n      sload\n      dup2\n      lt\n      tag_206\n      jumpi\n      tag_207\n      tag_117\n      jump\t// in\n    tag_207:\n    tag_206:\n      swap1\n      0x00\n      mstore\n      keccak256(0x00, 0x20)\n      add\n        /* \"contracts/BookStore.sol\":2807:2847  bookIds[i] = bookIds[bookIds.length - 1] */\n      dup2\n      swap1\n      sstore\n      pop\n        /* \"contracts/BookStore.sol\":2866:2873  bookIds */\n      0x02\n        /* \"contracts/BookStore.sol\":2866:2879  bookIds.pop() */\n      dup1\n      sload\n      dup1\n      tag_209\n      jumpi\n      tag_210\n      tag_211\n      jump\t// in\n    tag_210:\n    tag_209:\n      0x01\n      swap1\n      sub\n      dup2\n      dup2\n      swap1\n      0x00\n      mstore\n      keccak256(0x00, 0x20)\n      add\n      0x00\n      swap1\n      sstore\n      swap1\n      sstore\n        /* \"contracts/BookStore.sol\":2898:2903  break */\n      jump(tag_195)\n        /* \"contracts/BookStore.sol\":2761:2919  if (bookIds[i] == _bookId) {... */\n    tag_200:\n        /* \"contracts/BookStore.sol\":2945:2948  ++i */\n      dup1\n      0x01\n      add\n      swap1\n      pop\n        /* \"contracts/BookStore.sol\":2709:2962  for (uint256 i; i < bookIds.length;) {... */\n      jump(tag_194)\n    tag_195:\n      pop\n        /* \"contracts/BookStore.sol\":2989:2996  _bookId */\n      dup1\n        /* \"contracts/BookStore.sol\":2977:2997  BookRemoved(_bookId) */\n      0x3c5ce13264433bcf97e5d53c97af4fc33800e8c9dd927f965b116d0018d7cddf\n      mload(0x40)\n      mload(0x40)\n      dup1\n      swap2\n      sub\n      swap1\n      log2\n        /* \"contracts/BookStore.sol\":2537:3005  function removeBook(uint256 _bookId) external onlyOwner {... */\n      pop\n      jump\t// out\n        /* \"contracts/LoyaltyProgram.sol\":1604:1843  function getCustomerPoints (address _customer) public view returns (uint256) {... */\n    tag_79:\n        /* \"contracts/LoyaltyProgram.sol\":1672:1679  uint256 */\n      0x00\n        /* \"contracts/LoyaltyProgram.sol\":1735:1736  0 */\n      dup1\n        /* \"contracts/LoyaltyProgram.sol\":1700:1714  customerewards */\n      0x03\n        /* \"contracts/LoyaltyProgram.sol\":1700:1725  customerewards[_customer] */\n      0x00\n        /* \"contracts/LoyaltyProgram.sol\":1715:1724  _customer */\n      dup5\n        /* \"contracts/LoyaltyProgram.sol\":1700:1725  customerewards[_customer] */\n      0xffffffffffffffffffffffffffffffffffffffff\n      and\n      0xffffffffffffffffffffffffffffffffffffffff\n      and\n      dup2\n      mstore\n      0x20\n      add\n      swap1\n      dup2\n      mstore\n      0x20\n      add\n      0x00\n      keccak256\n        /* \"contracts/LoyaltyProgram.sol\":1700:1732  customerewards[_customer].points */\n      0x00\n      add\n      sload\n        /* \"contracts/LoyaltyProgram.sol\":1700:1736  customerewards[_customer].points > 0 */\n      gt\n        /* \"contracts/LoyaltyProgram.sol\":1692:1784  require(customerewards[_customer].points > 0,\"Customer Has Not Joined The Loyalty Program!\") */\n      tag_214\n      jumpi\n      mload(0x40)\n      0x08c379a000000000000000000000000000000000000000000000000000000000\n      dup2\n      mstore\n      0x04\n      add\n      tag_215\n      swap1\n      tag_216\n      jump\t// in\n    tag_215:\n      mload(0x40)\n      dup1\n      swap2\n      sub\n      swap1\n      revert\n    tag_214:\n        /* \"contracts/LoyaltyProgram.sol\":1803:1817  customerewards */\n      0x03\n        /* \"contracts/LoyaltyProgram.sol\":1803:1828  customerewards[_customer] */\n      0x00\n        /* \"contracts/LoyaltyProgram.sol\":1818:1827  _customer */\n      dup4\n        /* \"contracts/LoyaltyProgram.sol\":1803:1828  customerewards[_customer] */\n      0xffffffffffffffffffffffffffffffffffffffff\n      and\n      0xffffffffffffffffffffffffffffffffffffffff\n      and\n      dup2\n      mstore\n      0x20\n      add\n      swap1\n      dup2\n      mstore\n      0x20\n      add\n      0x00\n      keccak256\n        /* \"contracts/LoyaltyProgram.sol\":1803:1835  customerewards[_customer].points */\n      0x00\n      add\n      sload\n        /* \"contracts/LoyaltyProgram.sol\":1795:1835  return  customerewards[_customer].points */\n      swap1\n      pop\n        /* \"contracts/LoyaltyProgram.sol\":1604:1843  function getCustomerPoints (address _customer) public view returns (uint256) {... */\n      swap2\n      swap1\n      pop\n      jump\t// out\n        /* \"@openzeppelin/contracts/access/Ownable.sol\":2543:2758  function transferOwnership(address newOwner) public virtual onlyOwner {... */\n    tag_84:\n        /* \"@openzeppelin/contracts/access/Ownable.sol\":1531:1544  _checkOwner() */\n      tag_218\n        /* \"@openzeppelin/contracts/access/Ownable.sol\":1531:1542  _checkOwner */\n      tag_179\n        /* \"@openzeppelin/contracts/access/Ownable.sol\":1531:1544  _checkOwner() */\n      jump\t// in\n    tag_218:\n        /* \"@openzeppelin/contracts/access/Ownable.sol\":2647:2648  0 */\n      0x00\n        /* \"@openzeppelin/contracts/access/Ownable.sol\":2627:2649  newOwner == address(0) */\n      0xffffffffffffffffffffffffffffffffffffffff\n      and\n        /* \"@openzeppelin/contracts/access/Ownable.sol\":2627:2635  newOwner */\n      dup2\n        /* \"@openzeppelin/contracts/access/Ownable.sol\":2627:2649  newOwner == address(0) */\n      0xffffffffffffffffffffffffffffffffffffffff\n      and\n      sub\n        /* \"@openzeppelin/contracts/access/Ownable.sol\":2623:2714  if (newOwner == address(0)) {... */\n      tag_220\n      jumpi\n        /* \"@openzeppelin/contracts/access/Ownable.sol\":2700:2701  0 */\n      0x00\n        /* \"@openzeppelin/contracts/access/Ownable.sol\":2672:2703  OwnableInvalidOwner(address(0)) */\n      mload(0x40)\n      0x1e4fbdf700000000000000000000000000000000000000000000000000000000\n      dup2\n      mstore\n      0x04\n      add\n      tag_221\n      swap2\n      swap1\n      tag_60\n      jump\t// in\n    tag_221:\n      mload(0x40)\n      dup1\n      swap2\n      sub\n      swap1\n      revert\n        /* \"@openzeppelin/contracts/access/Ownable.sol\":2623:2714  if (newOwner == address(0)) {... */\n    tag_220:\n        /* \"@openzeppelin/contracts/access/Ownable.sol\":2723:2751  _transferOwnership(newOwner) */\n      tag_222\n        /* \"@openzeppelin/contracts/access/Ownable.sol\":2742:2750  newOwner */\n      dup2\n        /* \"@openzeppelin/contracts/access/Ownable.sol\":2723:2741  _transferOwnership */\n      tag_182\n        /* \"@openzeppelin/contracts/access/Ownable.sol\":2723:2751  _transferOwnership(newOwner) */\n      jump\t// in\n    tag_222:\n        /* \"@openzeppelin/contracts/access/Ownable.sol\":2543:2758  function transferOwnership(address newOwner) public virtual onlyOwner {... */\n      pop\n      jump\t// out\n        /* \"contracts/LoyaltyProgram.sol\":405:593  function buyBook(uint256 _bookId, uint96 _quantity) public virtual  override payable {... */\n    tag_88:\n        /* \"contracts/LoyaltyProgram.sol\":501:534  super.buyBook(_bookId, _quantity) */\n      tag_224\n        /* \"contracts/LoyaltyProgram.sol\":515:522  _bookId */\n      dup3\n        /* \"contracts/LoyaltyProgram.sol\":524:533  _quantity */\n      dup3\n        /* \"contracts/LoyaltyProgram.sol\":501:514  super.buyBook */\n      tag_225\n        /* \"contracts/LoyaltyProgram.sol\":501:534  super.buyBook(_bookId, _quantity) */\n      jump\t// in\n    tag_224:\n        /* \"contracts/LoyaltyProgram.sol\":545:585  addCustomerPoints(msg.sender, msg.value) */\n      tag_226\n        /* \"contracts/LoyaltyProgram.sol\":563:573  msg.sender */\n      caller\n        /* \"contracts/LoyaltyProgram.sol\":575:584  msg.value */\n      callvalue\n        /* \"contracts/LoyaltyProgram.sol\":545:562  addCustomerPoints */\n      tag_52\n        /* \"contracts/LoyaltyProgram.sol\":545:585  addCustomerPoints(msg.sender, msg.value) */\n      jump\t// in\n    tag_226:\n        /* \"contracts/LoyaltyProgram.sol\":405:593  function buyBook(uint256 _bookId, uint96 _quantity) public virtual  override payable {... */\n      pop\n      pop\n      jump\t// out\n        /* \"contracts/BookStore.sol\":1701:2488  function removeBooks(uint256[] calldata _bookIds) external onlyOwner {... */\n    tag_93:\n        /* \"@openzeppelin/contracts/access/Ownable.sol\":1531:1544  _checkOwner() */\n      tag_228\n        /* \"@openzeppelin/contracts/access/Ownable.sol\":1531:1542  _checkOwner */\n      tag_179\n        /* \"@openzeppelin/contracts/access/Ownable.sol\":1531:1544  _checkOwner() */\n      jump\t// in\n    tag_228:\n        /* \"contracts/BookStore.sol\":1781:1795  uint256 length */\n      0x00\n        /* \"contracts/BookStore.sol\":1798:1806  _bookIds */\n      dup3\n      dup3\n        /* \"contracts/BookStore.sol\":1798:1813  _bookIds.length */\n      swap1\n      pop\n        /* \"contracts/BookStore.sol\":1781:1813  uint256 length = _bookIds.length */\n      swap1\n      pop\n        /* \"contracts/BookStore.sol\":1829:1838  uint256 i */\n      0x00\n        /* \"contracts/BookStore.sol\":1824:2439  for (uint256 i; i < length;) {... */\n    tag_230:\n        /* \"contracts/BookStore.sol\":1844:1850  length */\n      dup2\n        /* \"contracts/BookStore.sol\":1840:1841  i */\n      dup2\n        /* \"contracts/BookStore.sol\":1840:1850  i < length */\n      lt\n        /* \"contracts/BookStore.sol\":1824:2439  for (uint256 i; i < length;) {... */\n      iszero\n      tag_231\n      jumpi\n        /* \"contracts/BookStore.sol\":1908:1922  uint256 bookId */\n      0x00\n        /* \"contracts/BookStore.sol\":1925:1933  _bookIds */\n      dup5\n      dup5\n        /* \"contracts/BookStore.sol\":1934:1935  i */\n      dup4\n        /* \"contracts/BookStore.sol\":1925:1936  _bookIds[i] */\n      dup2\n      dup2\n      lt\n      tag_233\n      jumpi\n      tag_234\n      tag_117\n      jump\t// in\n    tag_234:\n    tag_233:\n      swap1\n      pop\n      0x20\n      mul\n      add\n      calldataload\n        /* \"contracts/BookStore.sol\":1908:1936  uint256 bookId = _bookIds[i] */\n      swap1\n      pop\n        /* \"contracts/BookStore.sol\":1982:1983  0 */\n      0x00\n        /* \"contracts/BookStore.sol\":1959:1964  books */\n      0x01\n        /* \"contracts/BookStore.sol\":1959:1972  books[bookId] */\n      0x00\n        /* \"contracts/BookStore.sol\":1965:1971  bookId */\n      dup4\n        /* \"contracts/BookStore.sol\":1959:1972  books[bookId] */\n      dup2\n      mstore\n      0x20\n      add\n      swap1\n      dup2\n      mstore\n      0x20\n      add\n      0x00\n      keccak256\n        /* \"contracts/BookStore.sol\":1959:1978  books[bookId].price */\n      0x00\n      add\n      0x0c\n      swap1\n      sload\n      swap1\n      0x0100\n      exp\n      swap1\n      div\n      0xffffffffffffffffffffffff\n      and\n        /* \"contracts/BookStore.sol\":1959:1983  books[bookId].price != 0 */\n      0xffffffffffffffffffffffff\n      and\n      sub\n        /* \"contracts/BookStore.sol\":1951:2002  require(books[bookId].price != 0, \"Book not exist\") */\n      tag_235\n      jumpi\n      mload(0x40)\n      0x08c379a000000000000000000000000000000000000000000000000000000000\n      dup2\n      mstore\n      0x04\n      add\n      tag_236\n      swap1\n      tag_190\n      jump\t// in\n    tag_236:\n      mload(0x40)\n      dup1\n      swap2\n      sub\n      swap1\n      revert\n    tag_235:\n        /* \"contracts/BookStore.sol\":2024:2029  books */\n      0x01\n        /* \"contracts/BookStore.sol\":2024:2037  books[bookId] */\n      0x00\n        /* \"contracts/BookStore.sol\":2030:2036  bookId */\n      dup3\n        /* \"contracts/BookStore.sol\":2024:2037  books[bookId] */\n      dup2\n      mstore\n      0x20\n      add\n      swap1\n      dup2\n      mstore\n      0x20\n      add\n      0x00\n      keccak256\n      0x00\n        /* \"contracts/BookStore.sol\":2017:2037  delete books[bookId] */\n      dup1\n      dup3\n      add\n      exp(0x0100, 0x00)\n      dup2\n      sload\n      swap1\n      0xffffffffffffffffffffffff\n      mul\n      not\n      and\n      swap1\n      sstore\n      0x00\n      dup3\n      add\n      exp(0x0100, 0x0c)\n      dup2\n      sload\n      swap1\n      0xffffffffffffffffffffffff\n      mul\n      not\n      and\n      swap1\n      sstore\n      0x00\n      dup3\n      add\n      exp(0x0100, 0x18)\n      dup2\n      sload\n      swap1\n      0xff\n      mul\n      not\n      and\n      swap1\n      sstore\n      0x01\n      dup3\n      add\n      0x00\n      tag_237\n      swap2\n      swap1\n      tag_192\n      jump\t// in\n    tag_237:\n      0x02\n      dup3\n      add\n      0x00\n      tag_238\n      swap2\n      swap1\n      tag_192\n      jump\t// in\n    tag_238:\n      pop\n      pop\n        /* \"contracts/BookStore.sol\":2121:2130  uint256 j */\n      0x00\n        /* \"contracts/BookStore.sol\":2116:2396  for (uint256 j; j < bookIds.length;) {... */\n    tag_239:\n        /* \"contracts/BookStore.sol\":2136:2143  bookIds */\n      0x02\n        /* \"contracts/BookStore.sol\":2136:2150  bookIds.length */\n      dup1\n      sload\n      swap1\n      pop\n        /* \"contracts/BookStore.sol\":2132:2133  j */\n      dup2\n        /* \"contracts/BookStore.sol\":2132:2150  j < bookIds.length */\n      lt\n        /* \"contracts/BookStore.sol\":2116:2396  for (uint256 j; j < bookIds.length;) {... */\n      iszero\n      tag_240\n      jumpi\n        /* \"contracts/BookStore.sol\":2190:2196  bookId */\n      dup2\n        /* \"contracts/BookStore.sol\":2176:2183  bookIds */\n      0x02\n        /* \"contracts/BookStore.sol\":2184:2185  j */\n      dup3\n        /* \"contracts/BookStore.sol\":2176:2186  bookIds[j] */\n      dup2\n      sload\n      dup2\n      lt\n      tag_242\n      jumpi\n      tag_243\n      tag_117\n      jump\t// in\n    tag_243:\n    tag_242:\n      swap1\n      0x00\n      mstore\n      keccak256(0x00, 0x20)\n      add\n      sload\n        /* \"contracts/BookStore.sol\":2176:2196  bookIds[j] == bookId */\n      sub\n        /* \"contracts/BookStore.sol\":2172:2345  if (bookIds[j] == bookId) {... */\n      tag_245\n      jumpi\n        /* \"contracts/BookStore.sol\":2234:2241  bookIds */\n      0x02\n        /* \"contracts/BookStore.sol\":2259:2260  1 */\n      0x01\n        /* \"contracts/BookStore.sol\":2242:2249  bookIds */\n      0x02\n        /* \"contracts/BookStore.sol\":2242:2256  bookIds.length */\n      dup1\n      sload\n      swap1\n      pop\n        /* \"contracts/BookStore.sol\":2242:2260  bookIds.length - 1 */\n      tag_246\n      swap2\n      swap1\n      tag_202\n      jump\t// in\n    tag_246:\n        /* \"contracts/BookStore.sol\":2234:2261  bookIds[bookIds.length - 1] */\n      dup2\n      sload\n      dup2\n      lt\n      tag_247\n      jumpi\n      tag_248\n      tag_117\n      jump\t// in\n    tag_248:\n    tag_247:\n      swap1\n      0x00\n      mstore\n      keccak256(0x00, 0x20)\n      add\n      sload\n        /* \"contracts/BookStore.sol\":2221:2228  bookIds */\n      0x02\n        /* \"contracts/BookStore.sol\":2229:2230  j */\n      dup3\n        /* \"contracts/BookStore.sol\":2221:2231  bookIds[j] */\n      dup2\n      sload\n      dup2\n      lt\n      tag_250\n      jumpi\n      tag_251\n      tag_117\n      jump\t// in\n    tag_251:\n    tag_250:\n      swap1\n      0x00\n      mstore\n      keccak256(0x00, 0x20)\n      add\n        /* \"contracts/BookStore.sol\":2221:2261  bookIds[j] = bookIds[bookIds.length - 1] */\n      dup2\n      swap1\n      sstore\n      pop\n        /* \"contracts/BookStore.sol\":2284:2291  bookIds */\n      0x02\n        /* \"contracts/BookStore.sol\":2284:2297  bookIds.pop() */\n      dup1\n      sload\n      dup1\n      tag_253\n      jumpi\n      tag_254\n      tag_211\n      jump\t// in\n    tag_254:\n    tag_253:\n      0x01\n      swap1\n      sub\n      dup2\n      dup2\n      swap1\n      0x00\n      mstore\n      keccak256(0x00, 0x20)\n      add\n      0x00\n      swap1\n      sstore\n      swap1\n      sstore\n        /* \"contracts/BookStore.sol\":2320:2325  break */\n      jump(tag_240)\n        /* \"contracts/BookStore.sol\":2172:2345  if (bookIds[j] == bookId) {... */\n    tag_245:\n        /* \"contracts/BookStore.sol\":2375:2378  ++j */\n      dup1\n      0x01\n      add\n      swap1\n      pop\n        /* \"contracts/BookStore.sol\":2116:2396  for (uint256 j; j < bookIds.length;) {... */\n      jump(tag_239)\n    tag_240:\n      pop\n        /* \"contracts/BookStore.sol\":2422:2425  ++i */\n      dup2\n      0x01\n      add\n      swap2\n      pop\n        /* \"contracts/BookStore.sol\":1853:2439  {... */\n      pop\n        /* \"contracts/BookStore.sol\":1824:2439  for (uint256 i; i < length;) {... */\n      jump(tag_230)\n    tag_231:\n      pop\n        /* \"contracts/BookStore.sol\":2454:2480  BookBatchRemoved(_bookIds) */\n      0x7262be1e48c30c363173fcb2fbf2dc2cb38d076dee42cc37cdfbdf62af5c3bed\n        /* \"contracts/BookStore.sol\":2471:2479  _bookIds */\n      dup4\n      dup4\n        /* \"contracts/BookStore.sol\":2454:2480  BookBatchRemoved(_bookIds) */\n      mload(0x40)\n      tag_256\n      swap3\n      swap2\n      swap1\n      tag_257\n      jump\t// in\n    tag_256:\n      mload(0x40)\n      dup1\n      swap2\n      sub\n      swap1\n      log1\n        /* \"contracts/BookStore.sol\":1770:2488  {... */\n      pop\n        /* \"contracts/BookStore.sol\":1701:2488  function removeBooks(uint256[] calldata _bookIds) external onlyOwner {... */\n      pop\n      pop\n      jump\t// out\n        /* \"@openzeppelin/contracts/access/Ownable.sol\":1796:1958  function _checkOwner() internal view virtual {... */\n    tag_179:\n        /* \"@openzeppelin/contracts/access/Ownable.sol\":1866:1878  _msgSender() */\n      tag_259\n        /* \"@openzeppelin/contracts/access/Ownable.sol\":1866:1876  _msgSender */\n      tag_260\n        /* \"@openzeppelin/contracts/access/Ownable.sol\":1866:1878  _msgSender() */\n      jump\t// in\n    tag_259:\n        /* \"@openzeppelin/contracts/access/Ownable.sol\":1855:1878  owner() != _msgSender() */\n      0xffffffffffffffffffffffffffffffffffffffff\n      and\n        /* \"@openzeppelin/contracts/access/Ownable.sol\":1855:1862  owner() */\n      tag_261\n        /* \"@openzeppelin/contracts/access/Ownable.sol\":1855:1860  owner */\n      tag_58\n        /* \"@openzeppelin/contracts/access/Ownable.sol\":1855:1862  owner() */\n      jump\t// in\n    tag_261:\n        /* \"@openzeppelin/contracts/access/Ownable.sol\":1855:1878  owner() != _msgSender() */\n      0xffffffffffffffffffffffffffffffffffffffff\n      and\n      eq\n        /* \"@openzeppelin/contracts/access/Ownable.sol\":1851:1952  if (owner() != _msgSender()) {... */\n      tag_262\n      jumpi\n        /* \"@openzeppelin/contracts/access/Ownable.sol\":1928:1940  _msgSender() */\n      tag_263\n        /* \"@openzeppelin/contracts/access/Ownable.sol\":1928:1938  _msgSender */\n      tag_260\n        /* \"@openzeppelin/contracts/access/Ownable.sol\":1928:1940  _msgSender() */\n      jump\t// in\n    tag_263:\n        /* \"@openzeppelin/contracts/access/Ownable.sol\":1901:1941  OwnableUnauthorizedAccount(_msgSender()) */\n      mload(0x40)\n      0x118cdaa700000000000000000000000000000000000000000000000000000000\n      dup2\n      mstore\n      0x04\n      add\n      tag_264\n      swap2\n      swap1\n      tag_60\n      jump\t// in\n    tag_264:\n      mload(0x40)\n      dup1\n      swap2\n      sub\n      swap1\n      revert\n        /* \"@openzeppelin/contracts/access/Ownable.sol\":1851:1952  if (owner() != _msgSender()) {... */\n    tag_262:\n        /* \"@openzeppelin/contracts/access/Ownable.sol\":1796:1958  function _checkOwner() internal view virtual {... */\n      jump\t// out\n        /* \"@openzeppelin/contracts/access/Ownable.sol\":2912:3099  function _transferOwnership(address newOwner) internal virtual {... */\n    tag_182:\n        /* \"@openzeppelin/contracts/access/Ownable.sol\":2985:3001  address oldOwner */\n      0x00\n        /* \"@openzeppelin/contracts/access/Ownable.sol\":3004:3010  _owner */\n      dup1\n      0x00\n      swap1\n      sload\n      swap1\n      0x0100\n      exp\n      swap1\n      div\n      0xffffffffffffffffffffffffffffffffffffffff\n      and\n        /* \"@openzeppelin/contracts/access/Ownable.sol\":2985:3010  address oldOwner = _owner */\n      swap1\n      pop\n        /* \"@openzeppelin/contracts/access/Ownable.sol\":3029:3037  newOwner */\n      dup2\n        /* \"@openzeppelin/contracts/access/Ownable.sol\":3020:3026  _owner */\n      0x00\n      dup1\n        /* \"@openzeppelin/contracts/access/Ownable.sol\":3020:3037  _owner = newOwner */\n      0x0100\n      exp\n      dup2\n      sload\n      dup2\n      0xffffffffffffffffffffffffffffffffffffffff\n      mul\n      not\n      and\n      swap1\n      dup4\n      0xffffffffffffffffffffffffffffffffffffffff\n      and\n      mul\n      or\n      swap1\n      sstore\n      pop\n        /* \"@openzeppelin/contracts/access/Ownable.sol\":3083:3091  newOwner */\n      dup2\n        /* \"@openzeppelin/contracts/access/Ownable.sol\":3052:3092  OwnershipTransferred(oldOwner, newOwner) */\n      0xffffffffffffffffffffffffffffffffffffffff\n      and\n        /* \"@openzeppelin/contracts/access/Ownable.sol\":3073:3081  oldOwner */\n      dup2\n        /* \"@openzeppelin/contracts/access/Ownable.sol\":3052:3092  OwnershipTransferred(oldOwner, newOwner) */\n      0xffffffffffffffffffffffffffffffffffffffff\n      and\n      0x8be0079c531659141344cd1fd0a4f28419497f9722a3daafe3b4186f6b6457e0\n      mload(0x40)\n      mload(0x40)\n      dup1\n      swap2\n      sub\n      swap1\n      log3\n        /* \"@openzeppelin/contracts/access/Ownable.sol\":2975:3099  {... */\n      pop\n        /* \"@openzeppelin/contracts/access/Ownable.sol\":2912:3099  function _transferOwnership(address newOwner) internal virtual {... */\n      pop\n      jump\t// out\n        /* \"contracts/BookStore.sol\":3608:4210  function buyBook(uint256 _bookId, uint96 _quantity) public  virtual  payable {... */\n    tag_225:\n        /* \"contracts/BookStore.sol\":3696:3713  Book storage book */\n      0x00\n        /* \"contracts/BookStore.sol\":3716:3721  books */\n      0x01\n        /* \"contracts/BookStore.sol\":3716:3730  books[_bookId] */\n      0x00\n        /* \"contracts/BookStore.sol\":3722:3729  _bookId */\n      dup5\n        /* \"contracts/BookStore.sol\":3716:3730  books[_bookId] */\n      dup2\n      mstore\n      0x20\n      add\n      swap1\n      dup2\n      mstore\n      0x20\n      add\n      0x00\n      keccak256\n        /* \"contracts/BookStore.sol\":3696:3730  Book storage book = books[_bookId] */\n      swap1\n      pop\n        /* \"contracts/BookStore.sol\":3749:3753  book */\n      dup1\n        /* \"contracts/BookStore.sol\":3749:3765  book.isAvailable */\n      0x00\n      add\n      0x18\n      swap1\n      sload\n      swap1\n      0x0100\n      exp\n      swap1\n      div\n      0xff\n      and\n        /* \"contracts/BookStore.sol\":3741:3783  require(book.isAvailable, \"Not available\") */\n      tag_267\n      jumpi\n      mload(0x40)\n      0x08c379a000000000000000000000000000000000000000000000000000000000\n      dup2\n      mstore\n      0x04\n      add\n      tag_268\n      swap1\n      tag_269\n      jump\t// in\n    tag_268:\n      mload(0x40)\n      dup1\n      swap2\n      sub\n      swap1\n      revert\n    tag_267:\n        /* \"contracts/BookStore.sol\":3816:3825  _quantity */\n      dup2\n        /* \"contracts/BookStore.sol\":3802:3825  book.stock >= _quantity */\n      0xffffffffffffffffffffffff\n      and\n        /* \"contracts/BookStore.sol\":3802:3806  book */\n      dup2\n        /* \"contracts/BookStore.sol\":3802:3812  book.stock */\n      0x00\n      add\n      0x00\n      swap1\n      sload\n      swap1\n      0x0100\n      exp\n      swap1\n      div\n      0xffffffffffffffffffffffff\n      and\n        /* \"contracts/BookStore.sol\":3802:3825  book.stock >= _quantity */\n      0xffffffffffffffffffffffff\n      and\n      lt\n      iszero\n        /* \"contracts/BookStore.sol\":3794:3846  require(book.stock >= _quantity, \"Not enough stock\") */\n      tag_270\n      jumpi\n      mload(0x40)\n      0x08c379a000000000000000000000000000000000000000000000000000000000\n      dup2\n      mstore\n      0x04\n      add\n      tag_271\n      swap1\n      tag_272\n      jump\t// in\n    tag_271:\n      mload(0x40)\n      dup1\n      swap2\n      sub\n      swap1\n      revert\n    tag_270:\n        /* \"contracts/BookStore.sol\":3891:3900  _quantity */\n      dup2\n        /* \"contracts/BookStore.sol\":3878:3882  book */\n      dup2\n        /* \"contracts/BookStore.sol\":3878:3888  book.price */\n      0x00\n      add\n      0x0c\n      swap1\n      sload\n      swap1\n      0x0100\n      exp\n      swap1\n      div\n      0xffffffffffffffffffffffff\n      and\n        /* \"contracts/BookStore.sol\":3878:3900  book.price * _quantity */\n      tag_273\n      swap2\n      swap1\n      tag_99\n      jump\t// in\n    tag_273:\n        /* \"contracts/BookStore.sol\":3865:3900  msg.value == book.price * _quantity */\n      0xffffffffffffffffffffffff\n      and\n        /* \"contracts/BookStore.sol\":3865:3874  msg.value */\n      callvalue\n        /* \"contracts/BookStore.sol\":3865:3900  msg.value == book.price * _quantity */\n      eq\n        /* \"contracts/BookStore.sol\":3857:3918  require(msg.value == book.price * _quantity, \"Wrong payment\") */\n      tag_274\n      jumpi\n      mload(0x40)\n      0x08c379a000000000000000000000000000000000000000000000000000000000\n      dup2\n      mstore\n      0x04\n      add\n      tag_275\n      swap1\n      tag_276\n      jump\t// in\n    tag_275:\n      mload(0x40)\n      dup1\n      swap2\n      sub\n      swap1\n      revert\n    tag_274:\n        /* \"contracts/BookStore.sol\":3978:3987  _quantity */\n      dup2\n        /* \"contracts/BookStore.sol\":3964:3968  book */\n      dup2\n        /* \"contracts/BookStore.sol\":3964:3974  book.stock */\n      0x00\n      add\n      0x00\n        /* \"contracts/BookStore.sol\":3964:3987  book.stock -= _quantity */\n      dup3\n      dup3\n      dup3\n      swap1\n      sload\n      swap1\n      0x0100\n      exp\n      swap1\n      div\n      0xffffffffffffffffffffffff\n      and\n      sub\n      swap3\n      pop\n      0x0100\n      exp\n      dup2\n      sload\n      dup2\n      0xffffffffffffffffffffffff\n      mul\n      not\n      and\n      swap1\n      dup4\n      0xffffffffffffffffffffffff\n      and\n      mul\n      or\n      swap1\n      sstore\n      pop\n        /* \"contracts/BookStore.sol\":4020:4029  _quantity */\n      dup2\n        /* \"contracts/BookStore.sol\":4002:4016  totalBooksSold */\n      0x00\n      0x14\n        /* \"contracts/BookStore.sol\":4002:4029  totalBooksSold += _quantity */\n      dup3\n      dup3\n      dup3\n      swap1\n      sload\n      swap1\n      0x0100\n      exp\n      swap1\n      div\n      0xffffffffffffffffffffffff\n      and\n      add\n      swap3\n      pop\n      0x0100\n      exp\n      dup2\n      sload\n      dup2\n      0xffffffffffffffffffffffff\n      mul\n      not\n      and\n      swap1\n      dup4\n      0xffffffffffffffffffffffff\n      and\n      mul\n      or\n      swap1\n      sstore\n      pop\n        /* \"contracts/BookStore.sol\":4093:4094  0 */\n      0x00\n        /* \"contracts/BookStore.sol\":4080:4084  book */\n      dup2\n        /* \"contracts/BookStore.sol\":4080:4090  book.stock */\n      0x00\n      add\n      0x00\n      swap1\n      sload\n      swap1\n      0x0100\n      exp\n      swap1\n      div\n      0xffffffffffffffffffffffff\n      and\n        /* \"contracts/BookStore.sol\":4080:4094  book.stock > 0 */\n      0xffffffffffffffffffffffff\n      and\n      gt\n        /* \"contracts/BookStore.sol\":4061:4065  book */\n      dup2\n        /* \"contracts/BookStore.sol\":4061:4077  book.isAvailable */\n      0x00\n      add\n      0x18\n        /* \"contracts/BookStore.sol\":4061:4094  book.isAvailable = book.stock > 0 */\n      0x0100\n      exp\n      dup2\n      sload\n      dup2\n      0xff\n      mul\n      not\n      and\n      swap1\n      dup4\n      iszero\n      iszero\n      mul\n      or\n      swap1\n      sstore\n      pop\n        /* \"contracts/BookStore.sol\":4113:4120  owner() */\n      tag_277\n        /* \"contracts/BookStore.sol\":4113:4118  owner */\n      tag_58\n        /* \"contracts/BookStore.sol\":4113:4120  owner() */\n      jump\t// in\n    tag_277:\n        /* \"contracts/BookStore.sol\":4105:4130  payable(owner()).transfer */\n      0xffffffffffffffffffffffffffffffffffffffff\n      and\n        /* \"contracts/BookStore.sol\":4105:4141  payable(owner()).transfer(msg.value) */\n      0x08fc\n        /* \"contracts/BookStore.sol\":4131:4140  msg.value */\n      callvalue\n        /* \"contracts/BookStore.sol\":4105:4141  payable(owner()).transfer(msg.value) */\n      swap1\n      dup2\n      iszero\n      mul\n      swap1\n      mload(0x40)\n      0x00\n      mload(0x40)\n      dup1\n      dup4\n      sub\n      dup2\n      dup6\n      dup9\n      dup9\n      call\n      swap4\n      pop\n      pop\n      pop\n      pop\n      iszero\n      dup1\n      iszero\n      tag_279\n      jumpi\n      returndatasize\n      0x00\n      dup1\n      returndatacopy\n      revert(0x00, returndatasize)\n    tag_279:\n      pop\n        /* \"contracts/BookStore.sol\":4180:4190  msg.sender */\n      caller\n        /* \"contracts/BookStore.sol\":4157:4202  BookPurchased(_bookId, msg.sender, _quantity) */\n      0xffffffffffffffffffffffffffffffffffffffff\n      and\n        /* \"contracts/BookStore.sol\":4171:4178  _bookId */\n      dup4\n        /* \"contracts/BookStore.sol\":4157:4202  BookPurchased(_bookId, msg.sender, _quantity) */\n      0x4e8e9bc53224dd7f5549d1a97fe174d12e6ff0064e2ccb78d886fc515c98859d\n        /* \"contracts/BookStore.sol\":4192:4201  _quantity */\n      dup5\n        /* \"contracts/BookStore.sol\":4157:4202  BookPurchased(_bookId, msg.sender, _quantity) */\n      mload(0x40)\n      tag_280\n      swap2\n      swap1\n      tag_65\n      jump\t// in\n    tag_280:\n      mload(0x40)\n      dup1\n      swap2\n      sub\n      swap1\n      log3\n        /* \"contracts/BookStore.sol\":3685:4210  {... */\n      pop\n        /* \"contracts/BookStore.sol\":3608:4210  function buyBook(uint256 _bookId, uint96 _quantity) public  virtual  payable {... */\n      pop\n      pop\n      jump\t// out\n        /* \"@openzeppelin/contracts/utils/Context.sol\":656:752  function _msgSender() internal view virtual returns (address) {... */\n    tag_260:\n        /* \"@openzeppelin/contracts/utils/Context.sol\":709:716  address */\n      0x00\n        /* \"@openzeppelin/contracts/utils/Context.sol\":735:745  msg.sender */\n      caller\n        /* \"@openzeppelin/contracts/utils/Context.sol\":728:745  return msg.sender */\n      swap1\n      pop\n        /* \"@openzeppelin/contracts/utils/Context.sol\":656:752  function _msgSender() internal view virtual returns (address) {... */\n      swap1\n      jump\t// out\n    tag_192:\n      pop\n      dup1\n      sload\n      tag_282\n      swap1\n      tag_120\n      jump\t// in\n    tag_282:\n      0x00\n      dup3\n      sstore\n      dup1\n      0x1f\n      lt\n      tag_284\n      jumpi\n      pop\n      jump(tag_283)\n    tag_284:\n      0x1f\n      add\n      0x20\n      swap1\n      div\n      swap1\n      0x00\n      mstore\n      keccak256(0x00, 0x20)\n      swap1\n      dup2\n      add\n      swap1\n      tag_285\n      swap2\n      swap1\n      tag_286\n      jump\t// in\n    tag_285:\n    tag_283:\n      pop\n      jump\t// out\n    tag_286:\n    tag_287:\n      dup1\n      dup3\n      gt\n      iszero\n      tag_288\n      jumpi\n      0x00\n      dup2\n      0x00\n      swap1\n      sstore\n      pop\n      0x01\n      add\n      jump(tag_287)\n    tag_288:\n      pop\n      swap1\n      jump\t// out\n        /* \"#utility.yul\":88:205   */\n    tag_290:\n        /* \"#utility.yul\":197:198   */\n      0x00\n        /* \"#utility.yul\":194:195   */\n      dup1\n        /* \"#utility.yul\":187:199   */\n      revert\n        /* \"#utility.yul\":211:328   */\n    tag_291:\n        /* \"#utility.yul\":320:321   */\n      0x00\n        /* \"#utility.yul\":317:318   */\n      dup1\n        /* \"#utility.yul\":310:322   */\n      revert\n        /* \"#utility.yul\":334:411   */\n    tag_292:\n        /* \"#utility.yul\":371:378   */\n      0x00\n        /* \"#utility.yul\":400:405   */\n      dup2\n        /* \"#utility.yul\":389:405   */\n      swap1\n      pop\n        /* \"#utility.yul\":334:411   */\n      swap2\n      swap1\n      pop\n      jump\t// out\n        /* \"#utility.yul\":417:539   */\n    tag_293:\n        /* \"#utility.yul\":490:514   */\n      tag_366\n        /* \"#utility.yul\":508:513   */\n      dup2\n        /* \"#utility.yul\":490:514   */\n      tag_292\n      jump\t// in\n    tag_366:\n        /* \"#utility.yul\":483:488   */\n      dup2\n        /* \"#utility.yul\":480:515   */\n      eq\n        /* \"#utility.yul\":470:533   */\n      tag_367\n      jumpi\n        /* \"#utility.yul\":529:530   */\n      0x00\n        /* \"#utility.yul\":526:527   */\n      dup1\n        /* \"#utility.yul\":519:531   */\n      revert\n        /* \"#utility.yul\":470:533   */\n    tag_367:\n        /* \"#utility.yul\":417:539   */\n      pop\n      jump\t// out\n        /* \"#utility.yul\":545:684   */\n    tag_294:\n        /* \"#utility.yul\":591:596   */\n      0x00\n        /* \"#utility.yul\":629:635   */\n      dup2\n        /* \"#utility.yul\":616:636   */\n      calldataload\n        /* \"#utility.yul\":607:636   */\n      swap1\n      pop\n        /* \"#utility.yul\":645:678   */\n      tag_369\n        /* \"#utility.yul\":672:677   */\n      dup2\n        /* \"#utility.yul\":645:678   */\n      tag_293\n      jump\t// in\n    tag_369:\n        /* \"#utility.yul\":545:684   */\n      swap3\n      swap2\n      pop\n      pop\n      jump\t// out\n        /* \"#utility.yul\":690:807   */\n    tag_295:\n        /* \"#utility.yul\":799:800   */\n      0x00\n        /* \"#utility.yul\":796:797   */\n      dup1\n        /* \"#utility.yul\":789:801   */\n      revert\n        /* \"#utility.yul\":813:930   */\n    tag_296:\n        /* \"#utility.yul\":922:923   */\n      0x00\n        /* \"#utility.yul\":919:920   */\n      dup1\n        /* \"#utility.yul\":912:924   */\n      revert\n        /* \"#utility.yul\":936:1053   */\n    tag_297:\n        /* \"#utility.yul\":1045:1046   */\n      0x00\n        /* \"#utility.yul\":1042:1043   */\n      dup1\n        /* \"#utility.yul\":1035:1047   */\n      revert\n        /* \"#utility.yul\":1073:1626   */\n    tag_298:\n        /* \"#utility.yul\":1131:1139   */\n      0x00\n        /* \"#utility.yul\":1141:1147   */\n      dup1\n        /* \"#utility.yul\":1191:1194   */\n      dup4\n        /* \"#utility.yul\":1184:1188   */\n      0x1f\n        /* \"#utility.yul\":1176:1182   */\n      dup5\n        /* \"#utility.yul\":1172:1189   */\n      add\n        /* \"#utility.yul\":1168:1195   */\n      slt\n        /* \"#utility.yul\":1158:1280   */\n      tag_374\n      jumpi\n        /* \"#utility.yul\":1199:1278   */\n      tag_375\n      tag_295\n      jump\t// in\n    tag_375:\n        /* \"#utility.yul\":1158:1280   */\n    tag_374:\n        /* \"#utility.yul\":1312:1318   */\n      dup3\n        /* \"#utility.yul\":1299:1319   */\n      calldataload\n        /* \"#utility.yul\":1289:1319   */\n      swap1\n      pop\n        /* \"#utility.yul\":1342:1360   */\n      0xffffffffffffffff\n        /* \"#utility.yul\":1334:1340   */\n      dup2\n        /* \"#utility.yul\":1331:1361   */\n      gt\n        /* \"#utility.yul\":1328:1445   */\n      iszero\n      tag_376\n      jumpi\n        /* \"#utility.yul\":1364:1443   */\n      tag_377\n      tag_296\n      jump\t// in\n    tag_377:\n        /* \"#utility.yul\":1328:1445   */\n    tag_376:\n        /* \"#utility.yul\":1478:1482   */\n      0x20\n        /* \"#utility.yul\":1470:1476   */\n      dup4\n        /* \"#utility.yul\":1466:1483   */\n      add\n        /* \"#utility.yul\":1454:1483   */\n      swap2\n      pop\n        /* \"#utility.yul\":1532:1535   */\n      dup4\n        /* \"#utility.yul\":1524:1528   */\n      0x01\n        /* \"#utility.yul\":1516:1522   */\n      dup3\n        /* \"#utility.yul\":1512:1529   */\n      mul\n        /* \"#utility.yul\":1502:1510   */\n      dup4\n        /* \"#utility.yul\":1498:1530   */\n      add\n        /* \"#utility.yul\":1495:1536   */\n      gt\n        /* \"#utility.yul\":1492:1620   */\n      iszero\n      tag_378\n      jumpi\n        /* \"#utility.yul\":1539:1618   */\n      tag_379\n      tag_297\n      jump\t// in\n    tag_379:\n        /* \"#utility.yul\":1492:1620   */\n    tag_378:\n        /* \"#utility.yul\":1073:1626   */\n      swap3\n      pop\n      swap3\n      swap1\n      pop\n      jump\t// out\n        /* \"#utility.yul\":1632:1741   */\n    tag_299:\n        /* \"#utility.yul\":1668:1675   */\n      0x00\n        /* \"#utility.yul\":1708:1734   */\n      0xffffffffffffffffffffffff\n        /* \"#utility.yul\":1701:1706   */\n      dup3\n        /* \"#utility.yul\":1697:1735   */\n      and\n        /* \"#utility.yul\":1686:1735   */\n      swap1\n      pop\n        /* \"#utility.yul\":1632:1741   */\n      swap2\n      swap1\n      pop\n      jump\t// out\n        /* \"#utility.yul\":1747:1867   */\n    tag_300:\n        /* \"#utility.yul\":1819:1842   */\n      tag_382\n        /* \"#utility.yul\":1836:1841   */\n      dup2\n        /* \"#utility.yul\":1819:1842   */\n      tag_299\n      jump\t// in\n    tag_382:\n        /* \"#utility.yul\":1812:1817   */\n      dup2\n        /* \"#utility.yul\":1809:1843   */\n      eq\n        /* \"#utility.yul\":1799:1861   */\n      tag_383\n      jumpi\n        /* \"#utility.yul\":1857:1858   */\n      0x00\n        /* \"#utility.yul\":1854:1855   */\n      dup1\n        /* \"#utility.yul\":1847:1859   */\n      revert\n        /* \"#utility.yul\":1799:1861   */\n    tag_383:\n        /* \"#utility.yul\":1747:1867   */\n      pop\n      jump\t// out\n        /* \"#utility.yul\":1873:2010   */\n    tag_301:\n        /* \"#utility.yul\":1918:1923   */\n      0x00\n        /* \"#utility.yul\":1956:1962   */\n      dup2\n        /* \"#utility.yul\":1943:1963   */\n      calldataload\n        /* \"#utility.yul\":1934:1963   */\n      swap1\n      pop\n        /* \"#utility.yul\":1972:2004   */\n      tag_385\n        /* \"#utility.yul\":1998:2003   */\n      dup2\n        /* \"#utility.yul\":1972:2004   */\n      tag_300\n      jump\t// in\n    tag_385:\n        /* \"#utility.yul\":1873:2010   */\n      swap3\n      swap2\n      pop\n      pop\n      jump\t// out\n        /* \"#utility.yul\":2016:3323   */\n    tag_23:\n        /* \"#utility.yul\":2133:2139   */\n      0x00\n        /* \"#utility.yul\":2141:2147   */\n      dup1\n        /* \"#utility.yul\":2149:2155   */\n      0x00\n        /* \"#utility.yul\":2157:2163   */\n      dup1\n        /* \"#utility.yul\":2165:2171   */\n      0x00\n        /* \"#utility.yul\":2173:2179   */\n      dup1\n        /* \"#utility.yul\":2181:2187   */\n      0x00\n        /* \"#utility.yul\":2230:2233   */\n      0xa0\n        /* \"#utility.yul\":2218:2227   */\n      dup9\n        /* \"#utility.yul\":2209:2216   */\n      dup11\n        /* \"#utility.yul\":2205:2228   */\n      sub\n        /* \"#utility.yul\":2201:2234   */\n      slt\n        /* \"#utility.yul\":2198:2318   */\n      iszero\n      tag_387\n      jumpi\n        /* \"#utility.yul\":2237:2316   */\n      tag_388\n      tag_290\n      jump\t// in\n    tag_388:\n        /* \"#utility.yul\":2198:2318   */\n    tag_387:\n        /* \"#utility.yul\":2357:2358   */\n      0x00\n        /* \"#utility.yul\":2382:2435   */\n      tag_389\n        /* \"#utility.yul\":2427:2434   */\n      dup11\n        /* \"#utility.yul\":2418:2424   */\n      dup3\n        /* \"#utility.yul\":2407:2416   */\n      dup12\n        /* \"#utility.yul\":2403:2425   */\n      add\n        /* \"#utility.yul\":2382:2435   */\n      tag_294\n      jump\t// in\n    tag_389:\n        /* \"#utility.yul\":2372:2435   */\n      swap8\n      pop\n        /* \"#utility.yul\":2328:2445   */\n      pop\n        /* \"#utility.yul\":2512:2514   */\n      0x20\n        /* \"#utility.yul\":2501:2510   */\n      dup9\n        /* \"#utility.yul\":2497:2515   */\n      add\n        /* \"#utility.yul\":2484:2516   */\n      calldataload\n        /* \"#utility.yul\":2543:2561   */\n      0xffffffffffffffff\n        /* \"#utility.yul\":2535:2541   */\n      dup2\n        /* \"#utility.yul\":2532:2562   */\n      gt\n        /* \"#utility.yul\":2529:2646   */\n      iszero\n      tag_390\n      jumpi\n        /* \"#utility.yul\":2565:2644   */\n      tag_391\n      tag_291\n      jump\t// in\n    tag_391:\n        /* \"#utility.yul\":2529:2646   */\n    tag_390:\n        /* \"#utility.yul\":2678:2743   */\n      tag_392\n        /* \"#utility.yul\":2735:2742   */\n      dup11\n        /* \"#utility.yul\":2726:2732   */\n      dup3\n        /* \"#utility.yul\":2715:2724   */\n      dup12\n        /* \"#utility.yul\":2711:2733   */\n      add\n        /* \"#utility.yul\":2678:2743   */\n      tag_298\n      jump\t// in\n    tag_392:\n        /* \"#utility.yul\":2660:2743   */\n      swap7\n      pop\n      swap7\n      pop\n        /* \"#utility.yul\":2455:2753   */\n      pop\n        /* \"#utility.yul\":2820:2822   */\n      0x40\n        /* \"#utility.yul\":2809:2818   */\n      dup9\n        /* \"#utility.yul\":2805:2823   */\n      add\n        /* \"#utility.yul\":2792:2824   */\n      calldataload\n        /* \"#utility.yul\":2851:2869   */\n      0xffffffffffffffff\n        /* \"#utility.yul\":2843:2849   */\n      dup2\n        /* \"#utility.yul\":2840:2870   */\n      gt\n        /* \"#utility.yul\":2837:2954   */\n      iszero\n      tag_393\n      jumpi\n        /* \"#utility.yul\":2873:2952   */\n      tag_394\n      tag_291\n      jump\t// in\n    tag_394:\n        /* \"#utility.yul\":2837:2954   */\n    tag_393:\n        /* \"#utility.yul\":2986:3051   */\n      tag_395\n        /* \"#utility.yul\":3043:3050   */\n      dup11\n        /* \"#utility.yul\":3034:3040   */\n      dup3\n        /* \"#utility.yul\":3023:3032   */\n      dup12\n        /* \"#utility.yul\":3019:3041   */\n      add\n        /* \"#utility.yul\":2986:3051   */\n      tag_298\n      jump\t// in\n    tag_395:\n        /* \"#utility.yul\":2968:3051   */\n      swap5\n      pop\n      swap5\n      pop\n        /* \"#utility.yul\":2763:3061   */\n      pop\n        /* \"#utility.yul\":3100:3102   */\n      0x60\n        /* \"#utility.yul\":3126:3178   */\n      tag_396\n        /* \"#utility.yul\":3170:3177   */\n      dup11\n        /* \"#utility.yul\":3161:3167   */\n      dup3\n        /* \"#utility.yul\":3150:3159   */\n      dup12\n        /* \"#utility.yul\":3146:3168   */\n      add\n        /* \"#utility.yul\":3126:3178   */\n      tag_301\n      jump\t// in\n    tag_396:\n        /* \"#utility.yul\":3116:3178   */\n      swap3\n      pop\n        /* \"#utility.yul\":3071:3188   */\n      pop\n        /* \"#utility.yul\":3227:3230   */\n      0x80\n        /* \"#utility.yul\":3254:3306   */\n      tag_397\n        /* \"#utility.yul\":3298:3305   */\n      dup11\n        /* \"#utility.yul\":3289:3295   */\n      dup3\n        /* \"#utility.yul\":3278:3287   */\n      dup12\n        /* \"#utility.yul\":3274:3296   */\n      add\n        /* \"#utility.yul\":3254:3306   */\n      tag_301\n      jump\t// in\n    tag_397:\n        /* \"#utility.yul\":3244:3306   */\n      swap2\n      pop\n        /* \"#utility.yul\":3198:3316   */\n      pop\n        /* \"#utility.yul\":2016:3323   */\n      swap3\n      swap6\n      swap9\n      swap2\n      swap5\n      swap8\n      pop\n      swap3\n      swap6\n      pop\n      jump\t// out\n        /* \"#utility.yul\":3329:3453   */\n    tag_302:\n        /* \"#utility.yul\":3406:3412   */\n      0x00\n        /* \"#utility.yul\":3440:3445   */\n      dup2\n        /* \"#utility.yul\":3434:3446   */\n      mload\n        /* \"#utility.yul\":3424:3446   */\n      swap1\n      pop\n        /* \"#utility.yul\":3329:3453   */\n      swap2\n      swap1\n      pop\n      jump\t// out\n        /* \"#utility.yul\":3459:3653   */\n    tag_303:\n        /* \"#utility.yul\":3568:3579   */\n      0x00\n        /* \"#utility.yul\":3602:3608   */\n      dup3\n        /* \"#utility.yul\":3597:3600   */\n      dup3\n        /* \"#utility.yul\":3590:3609   */\n      mstore\n        /* \"#utility.yul\":3642:3646   */\n      0x20\n        /* \"#utility.yul\":3637:3640   */\n      dup3\n        /* \"#utility.yul\":3633:3647   */\n      add\n        /* \"#utility.yul\":3618:3647   */\n      swap1\n      pop\n        /* \"#utility.yul\":3459:3653   */\n      swap3\n      swap2\n      pop\n      pop\n      jump\t// out\n        /* \"#utility.yul\":3659:3801   */\n    tag_304:\n        /* \"#utility.yul\":3736:3740   */\n      0x00\n        /* \"#utility.yul\":3759:3762   */\n      dup2\n        /* \"#utility.yul\":3751:3762   */\n      swap1\n      pop\n        /* \"#utility.yul\":3789:3793   */\n      0x20\n        /* \"#utility.yul\":3784:3787   */\n      dup3\n        /* \"#utility.yul\":3780:3794   */\n      add\n        /* \"#utility.yul\":3772:3794   */\n      swap1\n      pop\n        /* \"#utility.yul\":3659:3801   */\n      swap2\n      swap1\n      pop\n      jump\t// out\n        /* \"#utility.yul\":3807:3906   */\n    tag_305:\n        /* \"#utility.yul\":3859:3865   */\n      0x00\n        /* \"#utility.yul\":3893:3898   */\n      dup2\n        /* \"#utility.yul\":3887:3899   */\n      mload\n        /* \"#utility.yul\":3877:3899   */\n      swap1\n      pop\n        /* \"#utility.yul\":3807:3906   */\n      swap2\n      swap1\n      pop\n      jump\t// out\n        /* \"#utility.yul\":3912:4071   */\n    tag_306:\n        /* \"#utility.yul\":3986:3997   */\n      0x00\n        /* \"#utility.yul\":4020:4026   */\n      dup3\n        /* \"#utility.yul\":4015:4018   */\n      dup3\n        /* \"#utility.yul\":4008:4027   */\n      mstore\n        /* \"#utility.yul\":4060:4064   */\n      0x20\n        /* \"#utility.yul\":4055:4058   */\n      dup3\n        /* \"#utility.yul\":4051:4065   */\n      add\n        /* \"#utility.yul\":4036:4065   */\n      swap1\n      pop\n        /* \"#utility.yul\":3912:4071   */\n      swap3\n      swap2\n      pop\n      pop\n      jump\t// out\n        /* \"#utility.yul\":4077:4216   */\n    tag_307:\n        /* \"#utility.yul\":4166:4172   */\n      dup3\n        /* \"#utility.yul\":4161:4164   */\n      dup2\n        /* \"#utility.yul\":4156:4159   */\n      dup4\n        /* \"#utility.yul\":4150:4173   */\n      mcopy\n        /* \"#utility.yul\":4207:4208   */\n      0x00\n        /* \"#utility.yul\":4198:4204   */\n      dup4\n        /* \"#utility.yul\":4193:4196   */\n      dup4\n        /* \"#utility.yul\":4189:4205   */\n      add\n        /* \"#utility.yul\":4182:4209   */\n      mstore\n        /* \"#utility.yul\":4077:4216   */\n      pop\n      pop\n      pop\n      jump\t// out\n        /* \"#utility.yul\":4222:4324   */\n    tag_308:\n        /* \"#utility.yul\":4263:4269   */\n      0x00\n        /* \"#utility.yul\":4314:4316   */\n      0x1f\n        /* \"#utility.yul\":4310:4317   */\n      not\n        /* \"#utility.yul\":4305:4307   */\n      0x1f\n        /* \"#utility.yul\":4298:4303   */\n      dup4\n        /* \"#utility.yul\":4294:4308   */\n      add\n        /* \"#utility.yul\":4290:4318   */\n      and\n        /* \"#utility.yul\":4280:4318   */\n      swap1\n      pop\n        /* \"#utility.yul\":4222:4324   */\n      swap2\n      swap1\n      pop\n      jump\t// out\n        /* \"#utility.yul\":4330:4687   */\n    tag_309:\n        /* \"#utility.yul\":4408:4411   */\n      0x00\n        /* \"#utility.yul\":4436:4475   */\n      tag_406\n        /* \"#utility.yul\":4469:4474   */\n      dup3\n        /* \"#utility.yul\":4436:4475   */\n      tag_305\n      jump\t// in\n    tag_406:\n        /* \"#utility.yul\":4491:4552   */\n      tag_407\n        /* \"#utility.yul\":4545:4551   */\n      dup2\n        /* \"#utility.yul\":4540:4543   */\n      dup6\n        /* \"#utility.yul\":4491:4552   */\n      tag_306\n      jump\t// in\n    tag_407:\n        /* \"#utility.yul\":4484:4552   */\n      swap4\n      pop\n        /* \"#utility.yul\":4561:4626   */\n      tag_408\n        /* \"#utility.yul\":4619:4625   */\n      dup2\n        /* \"#utility.yul\":4614:4617   */\n      dup6\n        /* \"#utility.yul\":4607:4611   */\n      0x20\n        /* \"#utility.yul\":4600:4605   */\n      dup7\n        /* \"#utility.yul\":4596:4612   */\n      add\n        /* \"#utility.yul\":4561:4626   */\n      tag_307\n      jump\t// in\n    tag_408:\n        /* \"#utility.yul\":4651:4680   */\n      tag_409\n        /* \"#utility.yul\":4673:4679   */\n      dup2\n        /* \"#utility.yul\":4651:4680   */\n      tag_308\n      jump\t// in\n    tag_409:\n        /* \"#utility.yul\":4646:4649   */\n      dup5\n        /* \"#utility.yul\":4642:4681   */\n      add\n        /* \"#utility.yul\":4635:4681   */\n      swap2\n      pop\n        /* \"#utility.yul\":4412:4687   */\n      pop\n        /* \"#utility.yul\":4330:4687   */\n      swap3\n      swap2\n      pop\n      pop\n      jump\t// out\n        /* \"#utility.yul\":4693:4889   */\n    tag_310:\n        /* \"#utility.yul\":4782:4792   */\n      0x00\n        /* \"#utility.yul\":4817:4883   */\n      tag_411\n        /* \"#utility.yul\":4879:4882   */\n      dup4\n        /* \"#utility.yul\":4871:4877   */\n      dup4\n        /* \"#utility.yul\":4817:4883   */\n      tag_309\n      jump\t// in\n    tag_411:\n        /* \"#utility.yul\":4803:4883   */\n      swap1\n      pop\n        /* \"#utility.yul\":4693:4889   */\n      swap3\n      swap2\n      pop\n      pop\n      jump\t// out\n        /* \"#utility.yul\":4895:5018   */\n    tag_311:\n        /* \"#utility.yul\":4975:4979   */\n      0x00\n        /* \"#utility.yul\":5007:5011   */\n      0x20\n        /* \"#utility.yul\":5002:5005   */\n      dup3\n        /* \"#utility.yul\":4998:5012   */\n      add\n        /* \"#utility.yul\":4990:5012   */\n      swap1\n      pop\n        /* \"#utility.yul\":4895:5018   */\n      swap2\n      swap1\n      pop\n      jump\t// out\n        /* \"#utility.yul\":5052:6043   */\n    tag_312:\n        /* \"#utility.yul\":5191:5194   */\n      0x00\n        /* \"#utility.yul\":5220:5284   */\n      tag_414\n        /* \"#utility.yul\":5278:5283   */\n      dup3\n        /* \"#utility.yul\":5220:5284   */\n      tag_302\n      jump\t// in\n    tag_414:\n        /* \"#utility.yul\":5300:5396   */\n      tag_415\n        /* \"#utility.yul\":5389:5395   */\n      dup2\n        /* \"#utility.yul\":5384:5387   */\n      dup6\n        /* \"#utility.yul\":5300:5396   */\n      tag_303\n      jump\t// in\n    tag_415:\n        /* \"#utility.yul\":5293:5396   */\n      swap4\n      pop\n        /* \"#utility.yul\":5422:5425   */\n      dup4\n        /* \"#utility.yul\":5467:5471   */\n      0x20\n        /* \"#utility.yul\":5459:5465   */\n      dup3\n        /* \"#utility.yul\":5455:5472   */\n      mul\n        /* \"#utility.yul\":5450:5453   */\n      dup6\n        /* \"#utility.yul\":5446:5473   */\n      add\n        /* \"#utility.yul\":5497:5563   */\n      tag_416\n        /* \"#utility.yul\":5557:5562   */\n      dup6\n        /* \"#utility.yul\":5497:5563   */\n      tag_304\n      jump\t// in\n    tag_416:\n        /* \"#utility.yul\":5586:5593   */\n      dup1\n        /* \"#utility.yul\":5617:5618   */\n      0x00\n        /* \"#utility.yul\":5602:5998   */\n    tag_417:\n        /* \"#utility.yul\":5627:5633   */\n      dup6\n        /* \"#utility.yul\":5624:5625   */\n      dup2\n        /* \"#utility.yul\":5621:5634   */\n      lt\n        /* \"#utility.yul\":5602:5998   */\n      iszero\n      tag_419\n      jumpi\n        /* \"#utility.yul\":5698:5707   */\n      dup5\n        /* \"#utility.yul\":5692:5696   */\n      dup5\n        /* \"#utility.yul\":5688:5708   */\n      sub\n        /* \"#utility.yul\":5683:5686   */\n      dup10\n        /* \"#utility.yul\":5676:5709   */\n      mstore\n        /* \"#utility.yul\":5749:5755   */\n      dup2\n        /* \"#utility.yul\":5743:5756   */\n      mload\n        /* \"#utility.yul\":5777:5861   */\n      tag_420\n        /* \"#utility.yul\":5856:5860   */\n      dup6\n        /* \"#utility.yul\":5841:5854   */\n      dup3\n        /* \"#utility.yul\":5777:5861   */\n      tag_310\n      jump\t// in\n    tag_420:\n        /* \"#utility.yul\":5769:5861   */\n      swap5\n      pop\n        /* \"#utility.yul\":5884:5954   */\n      tag_421\n        /* \"#utility.yul\":5947:5953   */\n      dup4\n        /* \"#utility.yul\":5884:5954   */\n      tag_311\n      jump\t// in\n    tag_421:\n        /* \"#utility.yul\":5874:5954   */\n      swap3\n      pop\n        /* \"#utility.yul\":5983:5987   */\n      0x20\n        /* \"#utility.yul\":5978:5981   */\n      dup11\n        /* \"#utility.yul\":5974:5988   */\n      add\n        /* \"#utility.yul\":5967:5988   */\n      swap10\n      pop\n        /* \"#utility.yul\":5662:5998   */\n      pop\n        /* \"#utility.yul\":5649:5650   */\n      0x01\n        /* \"#utility.yul\":5646:5647   */\n      dup2\n        /* \"#utility.yul\":5642:5651   */\n      add\n        /* \"#utility.yul\":5637:5651   */\n      swap1\n      pop\n        /* \"#utility.yul\":5602:5998   */\n      jump(tag_417)\n    tag_419:\n        /* \"#utility.yul\":5606:5620   */\n      pop\n        /* \"#utility.yul\":6014:6018   */\n      dup3\n        /* \"#utility.yul\":6007:6018   */\n      swap8\n      pop\n        /* \"#utility.yul\":6034:6037   */\n      dup8\n        /* \"#utility.yul\":6027:6037   */\n      swap6\n      pop\n        /* \"#utility.yul\":5196:6043   */\n      pop\n      pop\n      pop\n      pop\n      pop\n        /* \"#utility.yul\":5052:6043   */\n      swap3\n      swap2\n      pop\n      pop\n      jump\t// out\n        /* \"#utility.yul\":6049:6462   */\n    tag_29:\n        /* \"#utility.yul\":6212:6216   */\n      0x00\n        /* \"#utility.yul\":6250:6252   */\n      0x20\n        /* \"#utility.yul\":6239:6248   */\n      dup3\n        /* \"#utility.yul\":6235:6253   */\n      add\n        /* \"#utility.yul\":6227:6253   */\n      swap1\n      pop\n        /* \"#utility.yul\":6299:6308   */\n      dup2\n        /* \"#utility.yul\":6293:6297   */\n      dup2\n        /* \"#utility.yul\":6289:6309   */\n      sub\n        /* \"#utility.yul\":6285:6286   */\n      0x00\n        /* \"#utility.yul\":6274:6283   */\n      dup4\n        /* \"#utility.yul\":6270:6287   */\n      add\n        /* \"#utility.yul\":6263:6310   */\n      mstore\n        /* \"#utility.yul\":6327:6455   */\n      tag_423\n        /* \"#utility.yul\":6450:6454   */\n      dup2\n        /* \"#utility.yul\":6441:6447   */\n      dup5\n        /* \"#utility.yul\":6327:6455   */\n      tag_312\n      jump\t// in\n    tag_423:\n        /* \"#utility.yul\":6319:6455   */\n      swap1\n      pop\n        /* \"#utility.yul\":6049:6462   */\n      swap3\n      swap2\n      pop\n      pop\n      jump\t// out\n        /* \"#utility.yul\":6468:6586   */\n    tag_313:\n        /* \"#utility.yul\":6555:6579   */\n      tag_425\n        /* \"#utility.yul\":6573:6578   */\n      dup2\n        /* \"#utility.yul\":6555:6579   */\n      tag_292\n      jump\t// in\n    tag_425:\n        /* \"#utility.yul\":6550:6553   */\n      dup3\n        /* \"#utility.yul\":6543:6580   */\n      mstore\n        /* \"#utility.yul\":6468:6586   */\n      pop\n      pop\n      jump\t// out\n        /* \"#utility.yul\":6592:6814   */\n    tag_34:\n        /* \"#utility.yul\":6685:6689   */\n      0x00\n        /* \"#utility.yul\":6723:6725   */\n      0x20\n        /* \"#utility.yul\":6712:6721   */\n      dup3\n        /* \"#utility.yul\":6708:6726   */\n      add\n        /* \"#utility.yul\":6700:6726   */\n      swap1\n      pop\n        /* \"#utility.yul\":6736:6807   */\n      tag_427\n        /* \"#utility.yul\":6804:6805   */\n      0x00\n        /* \"#utility.yul\":6793:6802   */\n      dup4\n        /* \"#utility.yul\":6789:6806   */\n      add\n        /* \"#utility.yul\":6780:6786   */\n      dup5\n        /* \"#utility.yul\":6736:6807   */\n      tag_313\n      jump\t// in\n    tag_427:\n        /* \"#utility.yul\":6592:6814   */\n      swap3\n      swap2\n      pop\n      pop\n      jump\t// out\n        /* \"#utility.yul\":6820:7149   */\n    tag_38:\n        /* \"#utility.yul\":6879:6885   */\n      0x00\n        /* \"#utility.yul\":6928:6930   */\n      0x20\n        /* \"#utility.yul\":6916:6925   */\n      dup3\n        /* \"#utility.yul\":6907:6914   */\n      dup5\n        /* \"#utility.yul\":6903:6926   */\n      sub\n        /* \"#utility.yul\":6899:6931   */\n      slt\n        /* \"#utility.yul\":6896:7015   */\n      iszero\n      tag_429\n      jumpi\n        /* \"#utility.yul\":6934:7013   */\n      tag_430\n      tag_290\n      jump\t// in\n    tag_430:\n        /* \"#utility.yul\":6896:7015   */\n    tag_429:\n        /* \"#utility.yul\":7054:7055   */\n      0x00\n        /* \"#utility.yul\":7079:7132   */\n      tag_431\n        /* \"#utility.yul\":7124:7131   */\n      dup5\n        /* \"#utility.yul\":7115:7121   */\n      dup3\n        /* \"#utility.yul\":7104:7113   */\n      dup6\n        /* \"#utility.yul\":7100:7122   */\n      add\n        /* \"#utility.yul\":7079:7132   */\n      tag_294\n      jump\t// in\n    tag_431:\n        /* \"#utility.yul\":7069:7132   */\n      swap2\n      pop\n        /* \"#utility.yul\":7025:7142   */\n      pop\n        /* \"#utility.yul\":6820:7149   */\n      swap3\n      swap2\n      pop\n      pop\n      jump\t// out\n        /* \"#utility.yul\":7155:7324   */\n    tag_314:\n        /* \"#utility.yul\":7239:7250   */\n      0x00\n        /* \"#utility.yul\":7273:7279   */\n      dup3\n        /* \"#utility.yul\":7268:7271   */\n      dup3\n        /* \"#utility.yul\":7261:7280   */\n      mstore\n        /* \"#utility.yul\":7313:7317   */\n      0x20\n        /* \"#utility.yul\":7308:7311   */\n      dup3\n        /* \"#utility.yul\":7304:7318   */\n      add\n        /* \"#utility.yul\":7289:7318   */\n      swap1\n      pop\n        /* \"#utility.yul\":7155:7324   */\n      swap3\n      swap2\n      pop\n      pop\n      jump\t// out\n        /* \"#utility.yul\":7330:7707   */\n    tag_315:\n        /* \"#utility.yul\":7418:7421   */\n      0x00\n        /* \"#utility.yul\":7446:7485   */\n      tag_434\n        /* \"#utility.yul\":7479:7484   */\n      dup3\n        /* \"#utility.yul\":7446:7485   */\n      tag_305\n      jump\t// in\n    tag_434:\n        /* \"#utility.yul\":7501:7572   */\n      tag_435\n        /* \"#utility.yul\":7565:7571   */\n      dup2\n        /* \"#utility.yul\":7560:7563   */\n      dup6\n        /* \"#utility.yul\":7501:7572   */\n      tag_314\n      jump\t// in\n    tag_435:\n        /* \"#utility.yul\":7494:7572   */\n      swap4\n      pop\n        /* \"#utility.yul\":7581:7646   */\n      tag_436\n        /* \"#utility.yul\":7639:7645   */\n      dup2\n        /* \"#utility.yul\":7634:7637   */\n      dup6\n        /* \"#utility.yul\":7627:7631   */\n      0x20\n        /* \"#utility.yul\":7620:7625   */\n      dup7\n        /* \"#utility.yul\":7616:7632   */\n      add\n        /* \"#utility.yul\":7581:7646   */\n      tag_307\n      jump\t// in\n    tag_436:\n        /* \"#utility.yul\":7671:7700   */\n      tag_437\n        /* \"#utility.yul\":7693:7699   */\n      dup2\n        /* \"#utility.yul\":7671:7700   */\n      tag_308\n      jump\t// in\n    tag_437:\n        /* \"#utility.yul\":7666:7669   */\n      dup5\n        /* \"#utility.yul\":7662:7701   */\n      add\n        /* \"#utility.yul\":7655:7701   */\n      swap2\n      pop\n        /* \"#utility.yul\":7422:7707   */\n      pop\n        /* \"#utility.yul\":7330:7707   */\n      swap3\n      swap2\n      pop\n      pop\n      jump\t// out\n        /* \"#utility.yul\":7713:7828   */\n    tag_316:\n        /* \"#utility.yul\":7798:7821   */\n      tag_439\n        /* \"#utility.yul\":7815:7820   */\n      dup2\n        /* \"#utility.yul\":7798:7821   */\n      tag_299\n      jump\t// in\n    tag_439:\n        /* \"#utility.yul\":7793:7796   */\n      dup3\n        /* \"#utility.yul\":7786:7822   */\n      mstore\n        /* \"#utility.yul\":7713:7828   */\n      pop\n      pop\n      jump\t// out\n        /* \"#utility.yul\":7834:7924   */\n    tag_317:\n        /* \"#utility.yul\":7868:7875   */\n      0x00\n        /* \"#utility.yul\":7911:7916   */\n      dup2\n        /* \"#utility.yul\":7904:7917   */\n      iszero\n        /* \"#utility.yul\":7897:7918   */\n      iszero\n        /* \"#utility.yul\":7886:7918   */\n      swap1\n      pop\n        /* \"#utility.yul\":7834:7924   */\n      swap2\n      swap1\n      pop\n      jump\t// out\n        /* \"#utility.yul\":7930:8039   */\n    tag_318:\n        /* \"#utility.yul\":8011:8032   */\n      tag_442\n        /* \"#utility.yul\":8026:8031   */\n      dup2\n        /* \"#utility.yul\":8011:8032   */\n      tag_317\n      jump\t// in\n    tag_442:\n        /* \"#utility.yul\":8006:8009   */\n      dup3\n        /* \"#utility.yul\":7999:8033   */\n      mstore\n        /* \"#utility.yul\":7930:8039   */\n      pop\n      pop\n      jump\t// out\n        /* \"#utility.yul\":8045:8871   */\n    tag_41:\n        /* \"#utility.yul\":8280:8284   */\n      0x00\n        /* \"#utility.yul\":8318:8321   */\n      0xa0\n        /* \"#utility.yul\":8307:8316   */\n      dup3\n        /* \"#utility.yul\":8303:8322   */\n      add\n        /* \"#utility.yul\":8295:8322   */\n      swap1\n      pop\n        /* \"#utility.yul\":8368:8377   */\n      dup2\n        /* \"#utility.yul\":8362:8366   */\n      dup2\n        /* \"#utility.yul\":8358:8378   */\n      sub\n        /* \"#utility.yul\":8354:8355   */\n      0x00\n        /* \"#utility.yul\":8343:8352   */\n      dup4\n        /* \"#utility.yul\":8339:8356   */\n      add\n        /* \"#utility.yul\":8332:8379   */\n      mstore\n        /* \"#utility.yul\":8396:8474   */\n      tag_444\n        /* \"#utility.yul\":8469:8473   */\n      dup2\n        /* \"#utility.yul\":8460:8466   */\n      dup9\n        /* \"#utility.yul\":8396:8474   */\n      tag_315\n      jump\t// in\n    tag_444:\n        /* \"#utility.yul\":8388:8474   */\n      swap1\n      pop\n        /* \"#utility.yul\":8521:8530   */\n      dup2\n        /* \"#utility.yul\":8515:8519   */\n      dup2\n        /* \"#utility.yul\":8511:8531   */\n      sub\n        /* \"#utility.yul\":8506:8508   */\n      0x20\n        /* \"#utility.yul\":8495:8504   */\n      dup4\n        /* \"#utility.yul\":8491:8509   */\n      add\n        /* \"#utility.yul\":8484:8532   */\n      mstore\n        /* \"#utility.yul\":8549:8627   */\n      tag_445\n        /* \"#utility.yul\":8622:8626   */\n      dup2\n        /* \"#utility.yul\":8613:8619   */\n      dup8\n        /* \"#utility.yul\":8549:8627   */\n      tag_315\n      jump\t// in\n    tag_445:\n        /* \"#utility.yul\":8541:8627   */\n      swap1\n      pop\n        /* \"#utility.yul\":8637:8707   */\n      tag_446\n        /* \"#utility.yul\":8703:8705   */\n      0x40\n        /* \"#utility.yul\":8692:8701   */\n      dup4\n        /* \"#utility.yul\":8688:8706   */\n      add\n        /* \"#utility.yul\":8679:8685   */\n      dup7\n        /* \"#utility.yul\":8637:8707   */\n      tag_316\n      jump\t// in\n    tag_446:\n        /* \"#utility.yul\":8717:8787   */\n      tag_447\n        /* \"#utility.yul\":8783:8785   */\n      0x60\n        /* \"#utility.yul\":8772:8781   */\n      dup4\n        /* \"#utility.yul\":8768:8786   */\n      add\n        /* \"#utility.yul\":8759:8765   */\n      dup6\n        /* \"#utility.yul\":8717:8787   */\n      tag_316\n      jump\t// in\n    tag_447:\n        /* \"#utility.yul\":8797:8864   */\n      tag_448\n        /* \"#utility.yul\":8859:8862   */\n      0x80\n        /* \"#utility.yul\":8848:8857   */\n      dup4\n        /* \"#utility.yul\":8844:8863   */\n      add\n        /* \"#utility.yul\":8835:8841   */\n      dup5\n        /* \"#utility.yul\":8797:8864   */\n      tag_318\n      jump\t// in\n    tag_448:\n        /* \"#utility.yul\":8045:8871   */\n      swap7\n      swap6\n      pop\n      pop\n      pop\n      pop\n      pop\n      pop\n      jump\t// out\n        /* \"#utility.yul\":8877:9703   */\n    tag_47:\n        /* \"#utility.yul\":9112:9116   */\n      0x00\n        /* \"#utility.yul\":9150:9153   */\n      0xa0\n        /* \"#utility.yul\":9139:9148   */\n      dup3\n        /* \"#utility.yul\":9135:9154   */\n      add\n        /* \"#utility.yul\":9127:9154   */\n      swap1\n      pop\n        /* \"#utility.yul\":9164:9233   */\n      tag_450\n        /* \"#utility.yul\":9230:9231   */\n      0x00\n        /* \"#utility.yul\":9219:9228   */\n      dup4\n        /* \"#utility.yul\":9215:9232   */\n      add\n        /* \"#utility.yul\":9206:9212   */\n      dup9\n        /* \"#utility.yul\":9164:9233   */\n      tag_316\n      jump\t// in\n    tag_450:\n        /* \"#utility.yul\":9243:9313   */\n      tag_451\n        /* \"#utility.yul\":9309:9311   */\n      0x20\n        /* \"#utility.yul\":9298:9307   */\n      dup4\n        /* \"#utility.yul\":9294:9312   */\n      add\n        /* \"#utility.yul\":9285:9291   */\n      dup8\n        /* \"#utility.yul\":9243:9313   */\n      tag_316\n      jump\t// in\n    tag_451:\n        /* \"#utility.yul\":9323:9389   */\n      tag_452\n        /* \"#utility.yul\":9385:9387   */\n      0x40\n        /* \"#utility.yul\":9374:9383   */\n      dup4\n        /* \"#utility.yul\":9370:9388   */\n      add\n        /* \"#utility.yul\":9361:9367   */\n      dup7\n        /* \"#utility.yul\":9323:9389   */\n      tag_318\n      jump\t// in\n    tag_452:\n        /* \"#utility.yul\":9436:9445   */\n      dup2\n        /* \"#utility.yul\":9430:9434   */\n      dup2\n        /* \"#utility.yul\":9426:9446   */\n      sub\n        /* \"#utility.yul\":9421:9423   */\n      0x60\n        /* \"#utility.yul\":9410:9419   */\n      dup4\n        /* \"#utility.yul\":9406:9424   */\n      add\n        /* \"#utility.yul\":9399:9447   */\n      mstore\n        /* \"#utility.yul\":9464:9542   */\n      tag_453\n        /* \"#utility.yul\":9537:9541   */\n      dup2\n        /* \"#utility.yul\":9528:9534   */\n      dup6\n        /* \"#utility.yul\":9464:9542   */\n      tag_315\n      jump\t// in\n    tag_453:\n        /* \"#utility.yul\":9456:9542   */\n      swap1\n      pop\n        /* \"#utility.yul\":9590:9599   */\n      dup2\n        /* \"#utility.yul\":9584:9588   */\n      dup2\n        /* \"#utility.yul\":9580:9600   */\n      sub\n        /* \"#utility.yul\":9574:9577   */\n      0x80\n        /* \"#utility.yul\":9563:9572   */\n      dup4\n        /* \"#utility.yul\":9559:9578   */\n      add\n        /* \"#utility.yul\":9552:9601   */\n      mstore\n        /* \"#utility.yul\":9618:9696   */\n      tag_454\n        /* \"#utility.yul\":9691:9695   */\n      dup2\n        /* \"#utility.yul\":9682:9688   */\n      dup5\n        /* \"#utility.yul\":9618:9696   */\n      tag_315\n      jump\t// in\n    tag_454:\n        /* \"#utility.yul\":9610:9696   */\n      swap1\n      pop\n        /* \"#utility.yul\":8877:9703   */\n      swap7\n      swap6\n      pop\n      pop\n      pop\n      pop\n      pop\n      pop\n      jump\t// out\n        /* \"#utility.yul\":9709:9835   */\n    tag_319:\n        /* \"#utility.yul\":9746:9753   */\n      0x00\n        /* \"#utility.yul\":9786:9828   */\n      0xffffffffffffffffffffffffffffffffffffffff\n        /* \"#utility.yul\":9779:9784   */\n      dup3\n        /* \"#utility.yul\":9775:9829   */\n      and\n        /* \"#utility.yul\":9764:9829   */\n      swap1\n      pop\n        /* \"#utility.yul\":9709:9835   */\n      swap2\n      swap1\n      pop\n      jump\t// out\n        /* \"#utility.yul\":9841:9937   */\n    tag_320:\n        /* \"#utility.yul\":9878:9885   */\n      0x00\n        /* \"#utility.yul\":9907:9931   */\n      tag_457\n        /* \"#utility.yul\":9925:9930   */\n      dup3\n        /* \"#utility.yul\":9907:9931   */\n      tag_319\n      jump\t// in\n    tag_457:\n        /* \"#utility.yul\":9896:9931   */\n      swap1\n      pop\n        /* \"#utility.yul\":9841:9937   */\n      swap2\n      swap1\n      pop\n      jump\t// out\n        /* \"#utility.yul\":9943:10065   */\n    tag_321:\n        /* \"#utility.yul\":10016:10040   */\n      tag_459\n        /* \"#utility.yul\":10034:10039   */\n      dup2\n        /* \"#utility.yul\":10016:10040   */\n      tag_320\n      jump\t// in\n    tag_459:\n        /* \"#utility.yul\":10009:10014   */\n      dup2\n        /* \"#utility.yul\":10006:10041   */\n      eq\n        /* \"#utility.yul\":9996:10059   */\n      tag_460\n      jumpi\n        /* \"#utility.yul\":10055:10056   */\n      0x00\n        /* \"#utility.yul\":10052:10053   */\n      dup1\n        /* \"#utility.yul\":10045:10057   */\n      revert\n        /* \"#utility.yul\":9996:10059   */\n    tag_460:\n        /* \"#utility.yul\":9943:10065   */\n      pop\n      jump\t// out\n        /* \"#utility.yul\":10071:10210   */\n    tag_322:\n        /* \"#utility.yul\":10117:10122   */\n      0x00\n        /* \"#utility.yul\":10155:10161   */\n      dup2\n        /* \"#utility.yul\":10142:10162   */\n      calldataload\n        /* \"#utility.yul\":10133:10162   */\n      swap1\n      pop\n        /* \"#utility.yul\":10171:10204   */\n      tag_462\n        /* \"#utility.yul\":10198:10203   */\n      dup2\n        /* \"#utility.yul\":10171:10204   */\n      tag_321\n      jump\t// in\n    tag_462:\n        /* \"#utility.yul\":10071:10210   */\n      swap3\n      swap2\n      pop\n      pop\n      jump\t// out\n        /* \"#utility.yul\":10216:10690   */\n    tag_51:\n        /* \"#utility.yul\":10284:10290   */\n      0x00\n        /* \"#utility.yul\":10292:10298   */\n      dup1\n        /* \"#utility.yul\":10341:10343   */\n      0x40\n        /* \"#utility.yul\":10329:10338   */\n      dup4\n        /* \"#utility.yul\":10320:10327   */\n      dup6\n        /* \"#utility.yul\":10316:10339   */\n      sub\n        /* \"#utility.yul\":10312:10344   */\n      slt\n        /* \"#utility.yul\":10309:10428   */\n      iszero\n      tag_464\n      jumpi\n        /* \"#utility.yul\":10347:10426   */\n      tag_465\n      tag_290\n      jump\t// in\n    tag_465:\n        /* \"#utility.yul\":10309:10428   */\n    tag_464:\n        /* \"#utility.yul\":10467:10468   */\n      0x00\n        /* \"#utility.yul\":10492:10545   */\n      tag_466\n        /* \"#utility.yul\":10537:10544   */\n      dup6\n        /* \"#utility.yul\":10528:10534   */\n      dup3\n        /* \"#utility.yul\":10517:10526   */\n      dup7\n        /* \"#utility.yul\":10513:10535   */\n      add\n        /* \"#utility.yul\":10492:10545   */\n      tag_322\n      jump\t// in\n    tag_466:\n        /* \"#utility.yul\":10482:10545   */\n      swap3\n      pop\n        /* \"#utility.yul\":10438:10555   */\n      pop\n        /* \"#utility.yul\":10594:10596   */\n      0x20\n        /* \"#utility.yul\":10620:10673   */\n      tag_467\n        /* \"#utility.yul\":10665:10672   */\n      dup6\n        /* \"#utility.yul\":10656:10662   */\n      dup3\n        /* \"#utility.yul\":10645:10654   */\n      dup7\n        /* \"#utility.yul\":10641:10663   */\n      add\n        /* \"#utility.yul\":10620:10673   */\n      tag_294\n      jump\t// in\n    tag_467:\n        /* \"#utility.yul\":10610:10673   */\n      swap2\n      pop\n        /* \"#utility.yul\":10565:10683   */\n      pop\n        /* \"#utility.yul\":10216:10690   */\n      swap3\n      pop\n      swap3\n      swap1\n      pop\n      jump\t// out\n        /* \"#utility.yul\":10696:10814   */\n    tag_323:\n        /* \"#utility.yul\":10783:10807   */\n      tag_469\n        /* \"#utility.yul\":10801:10806   */\n      dup2\n        /* \"#utility.yul\":10783:10807   */\n      tag_320\n      jump\t// in\n    tag_469:\n        /* \"#utility.yul\":10778:10781   */\n      dup3\n        /* \"#utility.yul\":10771:10808   */\n      mstore\n        /* \"#utility.yul\":10696:10814   */\n      pop\n      pop\n      jump\t// out\n        /* \"#utility.yul\":10820:11042   */\n    tag_60:\n        /* \"#utility.yul\":10913:10917   */\n      0x00\n        /* \"#utility.yul\":10951:10953   */\n      0x20\n        /* \"#utility.yul\":10940:10949   */\n      dup3\n        /* \"#utility.yul\":10936:10954   */\n      add\n        /* \"#utility.yul\":10928:10954   */\n      swap1\n      pop\n        /* \"#utility.yul\":10964:11035   */\n      tag_471\n        /* \"#utility.yul\":11032:11033   */\n      0x00\n        /* \"#utility.yul\":11021:11030   */\n      dup4\n        /* \"#utility.yul\":11017:11034   */\n      add\n        /* \"#utility.yul\":11008:11014   */\n      dup5\n        /* \"#utility.yul\":10964:11035   */\n      tag_323\n      jump\t// in\n    tag_471:\n        /* \"#utility.yul\":10820:11042   */\n      swap3\n      swap2\n      pop\n      pop\n      jump\t// out\n        /* \"#utility.yul\":11048:11266   */\n    tag_65:\n        /* \"#utility.yul\":11139:11143   */\n      0x00\n        /* \"#utility.yul\":11177:11179   */\n      0x20\n        /* \"#utility.yul\":11166:11175   */\n      dup3\n        /* \"#utility.yul\":11162:11180   */\n      add\n        /* \"#utility.yul\":11154:11180   */\n      swap1\n      pop\n        /* \"#utility.yul\":11190:11259   */\n      tag_473\n        /* \"#utility.yul\":11256:11257   */\n      0x00\n        /* \"#utility.yul\":11245:11254   */\n      dup4\n        /* \"#utility.yul\":11241:11258   */\n      add\n        /* \"#utility.yul\":11232:11238   */\n      dup5\n        /* \"#utility.yul\":11190:11259   */\n      tag_316\n      jump\t// in\n    tag_473:\n        /* \"#utility.yul\":11048:11266   */\n      swap3\n      swap2\n      pop\n      pop\n      jump\t// out\n        /* \"#utility.yul\":11272:11601   */\n    tag_69:\n        /* \"#utility.yul\":11331:11337   */\n      0x00\n        /* \"#utility.yul\":11380:11382   */\n      0x20\n        /* \"#utility.yul\":11368:11377   */\n      dup3\n        /* \"#utility.yul\":11359:11366   */\n      dup5\n        /* \"#utility.yul\":11355:11378   */\n      sub\n        /* \"#utility.yul\":11351:11383   */\n      slt\n        /* \"#utility.yul\":11348:11467   */\n      iszero\n      tag_475\n      jumpi\n        /* \"#utility.yul\":11386:11465   */\n      tag_476\n      tag_290\n      jump\t// in\n    tag_476:\n        /* \"#utility.yul\":11348:11467   */\n    tag_475:\n        /* \"#utility.yul\":11506:11507   */\n      0x00\n        /* \"#utility.yul\":11531:11584   */\n      tag_477\n        /* \"#utility.yul\":11576:11583   */\n      dup5\n        /* \"#utility.yul\":11567:11573   */\n      dup3\n        /* \"#utility.yul\":11556:11565   */\n      dup6\n        /* \"#utility.yul\":11552:11574   */\n      add\n        /* \"#utility.yul\":11531:11584   */\n      tag_322\n      jump\t// in\n    tag_477:\n        /* \"#utility.yul\":11521:11584   */\n      swap2\n      pop\n        /* \"#utility.yul\":11477:11594   */\n      pop\n        /* \"#utility.yul\":11272:11601   */\n      swap3\n      swap2\n      pop\n      pop\n      jump\t// out\n        /* \"#utility.yul\":11607:12079   */\n    tag_87:\n        /* \"#utility.yul\":11674:11680   */\n      0x00\n        /* \"#utility.yul\":11682:11688   */\n      dup1\n        /* \"#utility.yul\":11731:11733   */\n      0x40\n        /* \"#utility.yul\":11719:11728   */\n      dup4\n        /* \"#utility.yul\":11710:11717   */\n      dup6\n        /* \"#utility.yul\":11706:11729   */\n      sub\n        /* \"#utility.yul\":11702:11734   */\n      slt\n        /* \"#utility.yul\":11699:11818   */\n      iszero\n      tag_479\n      jumpi\n        /* \"#utility.yul\":11737:11816   */\n      tag_480\n      tag_290\n      jump\t// in\n    tag_480:\n        /* \"#utility.yul\":11699:11818   */\n    tag_479:\n        /* \"#utility.yul\":11857:11858   */\n      0x00\n        /* \"#utility.yul\":11882:11935   */\n      tag_481\n        /* \"#utility.yul\":11927:11934   */\n      dup6\n        /* \"#utility.yul\":11918:11924   */\n      dup3\n        /* \"#utility.yul\":11907:11916   */\n      dup7\n        /* \"#utility.yul\":11903:11925   */\n      add\n        /* \"#utility.yul\":11882:11935   */\n      tag_294\n      jump\t// in\n    tag_481:\n        /* \"#utility.yul\":11872:11935   */\n      swap3\n      pop\n        /* \"#utility.yul\":11828:11945   */\n      pop\n        /* \"#utility.yul\":11984:11986   */\n      0x20\n        /* \"#utility.yul\":12010:12062   */\n      tag_482\n        /* \"#utility.yul\":12054:12061   */\n      dup6\n        /* \"#utility.yul\":12045:12051   */\n      dup3\n        /* \"#utility.yul\":12034:12043   */\n      dup7\n        /* \"#utility.yul\":12030:12052   */\n      add\n        /* \"#utility.yul\":12010:12062   */\n      tag_301\n      jump\t// in\n    tag_482:\n        /* \"#utility.yul\":12000:12062   */\n      swap2\n      pop\n        /* \"#utility.yul\":11955:12072   */\n      pop\n        /* \"#utility.yul\":11607:12079   */\n      swap3\n      pop\n      swap3\n      swap1\n      pop\n      jump\t// out\n        /* \"#utility.yul\":12102:12670   */\n    tag_324:\n        /* \"#utility.yul\":12175:12183   */\n      0x00\n        /* \"#utility.yul\":12185:12191   */\n      dup1\n        /* \"#utility.yul\":12235:12238   */\n      dup4\n        /* \"#utility.yul\":12228:12232   */\n      0x1f\n        /* \"#utility.yul\":12220:12226   */\n      dup5\n        /* \"#utility.yul\":12216:12233   */\n      add\n        /* \"#utility.yul\":12212:12239   */\n      slt\n        /* \"#utility.yul\":12202:12324   */\n      tag_484\n      jumpi\n        /* \"#utility.yul\":12243:12322   */\n      tag_485\n      tag_295\n      jump\t// in\n    tag_485:\n        /* \"#utility.yul\":12202:12324   */\n    tag_484:\n        /* \"#utility.yul\":12356:12362   */\n      dup3\n        /* \"#utility.yul\":12343:12363   */\n      calldataload\n        /* \"#utility.yul\":12333:12363   */\n      swap1\n      pop\n        /* \"#utility.yul\":12386:12404   */\n      0xffffffffffffffff\n        /* \"#utility.yul\":12378:12384   */\n      dup2\n        /* \"#utility.yul\":12375:12405   */\n      gt\n        /* \"#utility.yul\":12372:12489   */\n      iszero\n      tag_486\n      jumpi\n        /* \"#utility.yul\":12408:12487   */\n      tag_487\n      tag_296\n      jump\t// in\n    tag_487:\n        /* \"#utility.yul\":12372:12489   */\n    tag_486:\n        /* \"#utility.yul\":12522:12526   */\n      0x20\n        /* \"#utility.yul\":12514:12520   */\n      dup4\n        /* \"#utility.yul\":12510:12527   */\n      add\n        /* \"#utility.yul\":12498:12527   */\n      swap2\n      pop\n        /* \"#utility.yul\":12576:12579   */\n      dup4\n        /* \"#utility.yul\":12568:12572   */\n      0x20\n        /* \"#utility.yul\":12560:12566   */\n      dup3\n        /* \"#utility.yul\":12556:12573   */\n      mul\n        /* \"#utility.yul\":12546:12554   */\n      dup4\n        /* \"#utility.yul\":12542:12574   */\n      add\n        /* \"#utility.yul\":12539:12580   */\n      gt\n        /* \"#utility.yul\":12536:12664   */\n      iszero\n      tag_488\n      jumpi\n        /* \"#utility.yul\":12583:12662   */\n      tag_489\n      tag_297\n      jump\t// in\n    tag_489:\n        /* \"#utility.yul\":12536:12664   */\n    tag_488:\n        /* \"#utility.yul\":12102:12670   */\n      swap3\n      pop\n      swap3\n      swap1\n      pop\n      jump\t// out\n        /* \"#utility.yul\":12676:13235   */\n    tag_92:\n        /* \"#utility.yul\":12762:12768   */\n      0x00\n        /* \"#utility.yul\":12770:12776   */\n      dup1\n        /* \"#utility.yul\":12819:12821   */\n      0x20\n        /* \"#utility.yul\":12807:12816   */\n      dup4\n        /* \"#utility.yul\":12798:12805   */\n      dup6\n        /* \"#utility.yul\":12794:12817   */\n      sub\n        /* \"#utility.yul\":12790:12822   */\n      slt\n        /* \"#utility.yul\":12787:12906   */\n      iszero\n      tag_491\n      jumpi\n        /* \"#utility.yul\":12825:12904   */\n      tag_492\n      tag_290\n      jump\t// in\n    tag_492:\n        /* \"#utility.yul\":12787:12906   */\n    tag_491:\n        /* \"#utility.yul\":12973:12974   */\n      0x00\n        /* \"#utility.yul\":12962:12971   */\n      dup4\n        /* \"#utility.yul\":12958:12975   */\n      add\n        /* \"#utility.yul\":12945:12976   */\n      calldataload\n        /* \"#utility.yul\":13003:13021   */\n      0xffffffffffffffff\n        /* \"#utility.yul\":12995:13001   */\n      dup2\n        /* \"#utility.yul\":12992:13022   */\n      gt\n        /* \"#utility.yul\":12989:13106   */\n      iszero\n      tag_493\n      jumpi\n        /* \"#utility.yul\":13025:13104   */\n      tag_494\n      tag_291\n      jump\t// in\n    tag_494:\n        /* \"#utility.yul\":12989:13106   */\n    tag_493:\n        /* \"#utility.yul\":13138:13218   */\n      tag_495\n        /* \"#utility.yul\":13210:13217   */\n      dup6\n        /* \"#utility.yul\":13201:13207   */\n      dup3\n        /* \"#utility.yul\":13190:13199   */\n      dup7\n        /* \"#utility.yul\":13186:13208   */\n      add\n        /* \"#utility.yul\":13138:13218   */\n      tag_324\n      jump\t// in\n    tag_495:\n        /* \"#utility.yul\":13120:13218   */\n      swap3\n      pop\n      swap3\n      pop\n        /* \"#utility.yul\":12916:13228   */\n      pop\n        /* \"#utility.yul\":12676:13235   */\n      swap3\n      pop\n      swap3\n      swap1\n      pop\n      jump\t// out\n        /* \"#utility.yul\":13241:13402   */\n    tag_325:\n        /* \"#utility.yul\":13381:13394   */\n      0x426f6f6b20657869737473000000000000000000000000000000000000000000\n        /* \"#utility.yul\":13377:13378   */\n      0x00\n        /* \"#utility.yul\":13369:13375   */\n      dup3\n        /* \"#utility.yul\":13365:13379   */\n      add\n        /* \"#utility.yul\":13358:13395   */\n      mstore\n        /* \"#utility.yul\":13241:13402   */\n      pop\n      jump\t// out\n        /* \"#utility.yul\":13408:13774   */\n    tag_326:\n        /* \"#utility.yul\":13550:13553   */\n      0x00\n        /* \"#utility.yul\":13571:13638   */\n      tag_498\n        /* \"#utility.yul\":13635:13637   */\n      0x0b\n        /* \"#utility.yul\":13630:13633   */\n      dup4\n        /* \"#utility.yul\":13571:13638   */\n      tag_314\n      jump\t// in\n    tag_498:\n        /* \"#utility.yul\":13564:13638   */\n      swap2\n      pop\n        /* \"#utility.yul\":13647:13740   */\n      tag_499\n        /* \"#utility.yul\":13736:13739   */\n      dup3\n        /* \"#utility.yul\":13647:13740   */\n      tag_325\n      jump\t// in\n    tag_499:\n        /* \"#utility.yul\":13765:13767   */\n      0x20\n        /* \"#utility.yul\":13760:13763   */\n      dup3\n        /* \"#utility.yul\":13756:13768   */\n      add\n        /* \"#utility.yul\":13749:13768   */\n      swap1\n      pop\n        /* \"#utility.yul\":13408:13774   */\n      swap2\n      swap1\n      pop\n      jump\t// out\n        /* \"#utility.yul\":13780:14199   */\n    tag_97:\n        /* \"#utility.yul\":13946:13950   */\n      0x00\n        /* \"#utility.yul\":13984:13986   */\n      0x20\n        /* \"#utility.yul\":13973:13982   */\n      dup3\n        /* \"#utility.yul\":13969:13987   */\n      add\n        /* \"#utility.yul\":13961:13987   */\n      swap1\n      pop\n        /* \"#utility.yul\":14033:14042   */\n      dup2\n        /* \"#utility.yul\":14027:14031   */\n      dup2\n        /* \"#utility.yul\":14023:14043   */\n      sub\n        /* \"#utility.yul\":14019:14020   */\n      0x00\n        /* \"#utility.yul\":14008:14017   */\n      dup4\n        /* \"#utility.yul\":14004:14021   */\n      add\n        /* \"#utility.yul\":13997:14044   */\n      mstore\n        /* \"#utility.yul\":14061:14192   */\n      tag_501\n        /* \"#utility.yul\":14187:14191   */\n      dup2\n        /* \"#utility.yul\":14061:14192   */\n      tag_326\n      jump\t// in\n    tag_501:\n        /* \"#utility.yul\":14053:14192   */\n      swap1\n      pop\n        /* \"#utility.yul\":13780:14199   */\n      swap2\n      swap1\n      pop\n      jump\t// out\n        /* \"#utility.yul\":14205:14385   */\n    tag_327:\n        /* \"#utility.yul\":14253:14330   */\n      0x4e487b7100000000000000000000000000000000000000000000000000000000\n        /* \"#utility.yul\":14250:14251   */\n      0x00\n        /* \"#utility.yul\":14243:14331   */\n      mstore\n        /* \"#utility.yul\":14350:14354   */\n      0x11\n        /* \"#utility.yul\":14347:14348   */\n      0x04\n        /* \"#utility.yul\":14340:14355   */\n      mstore\n        /* \"#utility.yul\":14374:14378   */\n      0x24\n        /* \"#utility.yul\":14371:14372   */\n      0x00\n        /* \"#utility.yul\":14364:14379   */\n      revert\n        /* \"#utility.yul\":14391:14666   */\n    tag_99:\n        /* \"#utility.yul\":14430:14437   */\n      0x00\n        /* \"#utility.yul\":14453:14472   */\n      tag_504\n        /* \"#utility.yul\":14470:14471   */\n      dup3\n        /* \"#utility.yul\":14453:14472   */\n      tag_299\n      jump\t// in\n    tag_504:\n        /* \"#utility.yul\":14448:14472   */\n      swap2\n      pop\n        /* \"#utility.yul\":14486:14505   */\n      tag_505\n        /* \"#utility.yul\":14503:14504   */\n      dup4\n        /* \"#utility.yul\":14486:14505   */\n      tag_299\n      jump\t// in\n    tag_505:\n        /* \"#utility.yul\":14481:14505   */\n      swap3\n      pop\n        /* \"#utility.yul\":14540:14541   */\n      dup3\n        /* \"#utility.yul\":14537:14538   */\n      dup3\n        /* \"#utility.yul\":14533:14542   */\n      mul\n        /* \"#utility.yul\":14562:14591   */\n      tag_506\n        /* \"#utility.yul\":14579:14590   */\n      dup2\n        /* \"#utility.yul\":14562:14591   */\n      tag_299\n      jump\t// in\n    tag_506:\n        /* \"#utility.yul\":14551:14591   */\n      swap2\n      pop\n        /* \"#utility.yul\":14623:14634   */\n      dup1\n        /* \"#utility.yul\":14614:14621   */\n      dup3\n        /* \"#utility.yul\":14611:14635   */\n      eq\n        /* \"#utility.yul\":14601:14659   */\n      tag_507\n      jumpi\n        /* \"#utility.yul\":14639:14657   */\n      tag_508\n      tag_327\n      jump\t// in\n    tag_508:\n        /* \"#utility.yul\":14601:14659   */\n    tag_507:\n        /* \"#utility.yul\":14438:14666   */\n      pop\n        /* \"#utility.yul\":14391:14666   */\n      swap3\n      swap2\n      pop\n      pop\n      jump\t// out\n        /* \"#utility.yul\":14672:14852   */\n    tag_109:\n        /* \"#utility.yul\":14720:14797   */\n      0x4e487b7100000000000000000000000000000000000000000000000000000000\n        /* \"#utility.yul\":14717:14718   */\n      0x00\n        /* \"#utility.yul\":14710:14798   */\n      mstore\n        /* \"#utility.yul\":14817:14821   */\n      0x41\n        /* \"#utility.yul\":14814:14815   */\n      0x04\n        /* \"#utility.yul\":14807:14822   */\n      mstore\n        /* \"#utility.yul\":14841:14845   */\n      0x24\n        /* \"#utility.yul\":14838:14839   */\n      0x00\n        /* \"#utility.yul\":14831:14846   */\n      revert\n        /* \"#utility.yul\":14858:15038   */\n    tag_328:\n        /* \"#utility.yul\":14906:14983   */\n      0x4e487b7100000000000000000000000000000000000000000000000000000000\n        /* \"#utility.yul\":14903:14904   */\n      0x00\n        /* \"#utility.yul\":14896:14984   */\n      mstore\n        /* \"#utility.yul\":15003:15007   */\n      0x22\n        /* \"#utility.yul\":15000:15001   */\n      0x04\n        /* \"#utility.yul\":14993:15008   */\n      mstore\n        /* \"#utility.yul\":15027:15031   */\n      0x24\n        /* \"#utility.yul\":15024:15025   */\n      0x00\n        /* \"#utility.yul\":15017:15032   */\n      revert\n        /* \"#utility.yul\":15044:15364   */\n    tag_120:\n        /* \"#utility.yul\":15088:15094   */\n      0x00\n        /* \"#utility.yul\":15125:15126   */\n      0x02\n        /* \"#utility.yul\":15119:15123   */\n      dup3\n        /* \"#utility.yul\":15115:15127   */\n      div\n        /* \"#utility.yul\":15105:15127   */\n      swap1\n      pop\n        /* \"#utility.yul\":15172:15173   */\n      0x01\n        /* \"#utility.yul\":15166:15170   */\n      dup3\n        /* \"#utility.yul\":15162:15174   */\n      and\n        /* \"#utility.yul\":15193:15211   */\n      dup1\n        /* \"#utility.yul\":15183:15264   */\n      tag_512\n      jumpi\n        /* \"#utility.yul\":15249:15253   */\n      0x7f\n        /* \"#utility.yul\":15241:15247   */\n      dup3\n        /* \"#utility.yul\":15237:15254   */\n      and\n        /* \"#utility.yul\":15227:15254   */\n      swap2\n      pop\n        /* \"#utility.yul\":15183:15264   */\n    tag_512:\n        /* \"#utility.yul\":15311:15313   */\n      0x20\n        /* \"#utility.yul\":15303:15309   */\n      dup3\n        /* \"#utility.yul\":15300:15314   */\n      lt\n        /* \"#utility.yul\":15280:15298   */\n      dup2\n        /* \"#utility.yul\":15277:15315   */\n      sub\n        /* \"#utility.yul\":15274:15358   */\n      tag_513\n      jumpi\n        /* \"#utility.yul\":15330:15348   */\n      tag_514\n      tag_328\n      jump\t// in\n    tag_514:\n        /* \"#utility.yul\":15274:15358   */\n    tag_513:\n        /* \"#utility.yul\":15095:15364   */\n      pop\n        /* \"#utility.yul\":15044:15364   */\n      swap2\n      swap1\n      pop\n      jump\t// out\n        /* \"#utility.yul\":15370:15511   */\n    tag_329:\n        /* \"#utility.yul\":15419:15423   */\n      0x00\n        /* \"#utility.yul\":15442:15445   */\n      dup2\n        /* \"#utility.yul\":15434:15445   */\n      swap1\n      pop\n        /* \"#utility.yul\":15465:15468   */\n      dup2\n        /* \"#utility.yul\":15462:15463   */\n      0x00\n        /* \"#utility.yul\":15455:15469   */\n      mstore\n        /* \"#utility.yul\":15499:15503   */\n      0x20\n        /* \"#utility.yul\":15496:15497   */\n      0x00\n        /* \"#utility.yul\":15486:15504   */\n      keccak256\n        /* \"#utility.yul\":15478:15504   */\n      swap1\n      pop\n        /* \"#utility.yul\":15370:15511   */\n      swap2\n      swap1\n      pop\n      jump\t// out\n        /* \"#utility.yul\":15517:15610   */\n    tag_330:\n        /* \"#utility.yul\":15554:15560   */\n      0x00\n        /* \"#utility.yul\":15601:15603   */\n      0x20\n        /* \"#utility.yul\":15596:15598   */\n      0x1f\n        /* \"#utility.yul\":15589:15594   */\n      dup4\n        /* \"#utility.yul\":15585:15599   */\n      add\n        /* \"#utility.yul\":15581:15604   */\n      div\n        /* \"#utility.yul\":15571:15604   */\n      swap1\n      pop\n        /* \"#utility.yul\":15517:15610   */\n      swap2\n      swap1\n      pop\n      jump\t// out\n        /* \"#utility.yul\":15616:15723   */\n    tag_331:\n        /* \"#utility.yul\":15660:15668   */\n      0x00\n        /* \"#utility.yul\":15710:15715   */\n      dup3\n        /* \"#utility.yul\":15704:15708   */\n      dup3\n        /* \"#utility.yul\":15700:15716   */\n      shl\n        /* \"#utility.yul\":15679:15716   */\n      swap1\n      pop\n        /* \"#utility.yul\":15616:15723   */\n      swap3\n      swap2\n      pop\n      pop\n      jump\t// out\n        /* \"#utility.yul\":15729:16122   */\n    tag_332:\n        /* \"#utility.yul\":15798:15804   */\n      0x00\n        /* \"#utility.yul\":15848:15849   */\n      0x08\n        /* \"#utility.yul\":15836:15846   */\n      dup4\n        /* \"#utility.yul\":15832:15850   */\n      mul\n        /* \"#utility.yul\":15871:15968   */\n      tag_519\n        /* \"#utility.yul\":15901:15967   */\n      0xffffffffffffffffffffffffffffffffffffffffffffffffffffffffffffffff\n        /* \"#utility.yul\":15890:15899   */\n      dup3\n        /* \"#utility.yul\":15871:15968   */\n      tag_331\n      jump\t// in\n    tag_519:\n        /* \"#utility.yul\":15989:16028   */\n      tag_520\n        /* \"#utility.yul\":16019:16027   */\n      dup7\n        /* \"#utility.yul\":16008:16017   */\n      dup4\n        /* \"#utility.yul\":15989:16028   */\n      tag_331\n      jump\t// in\n    tag_520:\n        /* \"#utility.yul\":15977:16028   */\n      swap6\n      pop\n        /* \"#utility.yul\":16061:16065   */\n      dup1\n        /* \"#utility.yul\":16057:16066   */\n      not\n        /* \"#utility.yul\":16050:16055   */\n      dup5\n        /* \"#utility.yul\":16046:16067   */\n      and\n        /* \"#utility.yul\":16037:16067   */\n      swap4\n      pop\n        /* \"#utility.yul\":16110:16114   */\n      dup1\n        /* \"#utility.yul\":16100:16108   */\n      dup7\n        /* \"#utility.yul\":16096:16115   */\n      and\n        /* \"#utility.yul\":16089:16094   */\n      dup5\n        /* \"#utility.yul\":16086:16116   */\n      or\n        /* \"#utility.yul\":16076:16116   */\n      swap3\n      pop\n        /* \"#utility.yul\":15805:16122   */\n      pop\n      pop\n        /* \"#utility.yul\":15729:16122   */\n      swap4\n      swap3\n      pop\n      pop\n      pop\n      jump\t// out\n        /* \"#utility.yul\":16128:16188   */\n    tag_333:\n        /* \"#utility.yul\":16156:16159   */\n      0x00\n        /* \"#utility.yul\":16177:16182   */\n      dup2\n        /* \"#utility.yul\":16170:16182   */\n      swap1\n      pop\n        /* \"#utility.yul\":16128:16188   */\n      swap2\n      swap1\n      pop\n      jump\t// out\n        /* \"#utility.yul\":16194:16336   */\n    tag_334:\n        /* \"#utility.yul\":16244:16253   */\n      0x00\n        /* \"#utility.yul\":16277:16330   */\n      tag_523\n        /* \"#utility.yul\":16295:16329   */\n      tag_524\n        /* \"#utility.yul\":16304:16328   */\n      tag_525\n        /* \"#utility.yul\":16322:16327   */\n      dup5\n        /* \"#utility.yul\":16304:16328   */\n      tag_292\n      jump\t// in\n    tag_525:\n        /* \"#utility.yul\":16295:16329   */\n      tag_333\n      jump\t// in\n    tag_524:\n        /* \"#utility.yul\":16277:16330   */\n      tag_292\n      jump\t// in\n    tag_523:\n        /* \"#utility.yul\":16264:16330   */\n      swap1\n      pop\n        /* \"#utility.yul\":16194:16336   */\n      swap2\n      swap1\n      pop\n      jump\t// out\n        /* \"#utility.yul\":16342:16417   */\n    tag_335:\n        /* \"#utility.yul\":16385:16388   */\n      0x00\n        /* \"#utility.yul\":16406:16411   */\n      dup2\n        /* \"#utility.yul\":16399:16411   */\n      swap1\n      pop\n        /* \"#utility.yul\":16342:16417   */\n      swap2\n      swap1\n      pop\n      jump\t// out\n        /* \"#utility.yul\":16423:16692   */\n    tag_336:\n        /* \"#utility.yul\":16533:16572   */\n      tag_528\n        /* \"#utility.yul\":16564:16571   */\n      dup4\n        /* \"#utility.yul\":16533:16572   */\n      tag_334\n      jump\t// in\n    tag_528:\n        /* \"#utility.yul\":16594:16685   */\n      tag_529\n        /* \"#utility.yul\":16643:16684   */\n      tag_530\n        /* \"#utility.yul\":16667:16683   */\n      dup3\n        /* \"#utility.yul\":16643:16684   */\n      tag_335\n      jump\t// in\n    tag_530:\n        /* \"#utility.yul\":16635:16641   */\n      dup5\n        /* \"#utility.yul\":16628:16632   */\n      dup5\n        /* \"#utility.yul\":16622:16633   */\n      sload\n        /* \"#utility.yul\":16594:16685   */\n      tag_332\n      jump\t// in\n    tag_529:\n        /* \"#utility.yul\":16588:16592   */\n      dup3\n        /* \"#utility.yul\":16581:16686   */\n      sstore\n        /* \"#utility.yul\":16499:16692   */\n      pop\n        /* \"#utility.yul\":16423:16692   */\n      pop\n      pop\n      pop\n      jump\t// out\n        /* \"#utility.yul\":16698:16771   */\n    tag_337:\n        /* \"#utility.yul\":16743:16746   */\n      0x00\n        /* \"#utility.yul\":16698:16771   */\n      swap1\n      jump\t// out\n        /* \"#utility.yul\":16777:16966   */\n    tag_338:\n        /* \"#utility.yul\":16854:16886   */\n      tag_533\n      tag_337\n      jump\t// in\n    tag_533:\n        /* \"#utility.yul\":16895:16960   */\n      tag_534\n        /* \"#utility.yul\":16953:16959   */\n      dup2\n        /* \"#utility.yul\":16945:16951   */\n      dup5\n        /* \"#utility.yul\":16939:16943   */\n      dup5\n        /* \"#utility.yul\":16895:16960   */\n      tag_336\n      jump\t// in\n    tag_534:\n        /* \"#utility.yul\":16830:16966   */\n      pop\n        /* \"#utility.yul\":16777:16966   */\n      pop\n      pop\n      jump\t// out\n        /* \"#utility.yul\":16972:17158   */\n    tag_339:\n        /* \"#utility.yul\":17032:17152   */\n    tag_536:\n        /* \"#utility.yul\":17049:17052   */\n      dup2\n        /* \"#utility.yul\":17042:17047   */\n      dup2\n        /* \"#utility.yul\":17039:17053   */\n      lt\n        /* \"#utility.yul\":17032:17152   */\n      iszero\n      tag_538\n      jumpi\n        /* \"#utility.yul\":17103:17142   */\n      tag_539\n        /* \"#utility.yul\":17140:17141   */\n      0x00\n        /* \"#utility.yul\":17133:17138   */\n      dup3\n        /* \"#utility.yul\":17103:17142   */\n      tag_338\n      jump\t// in\n    tag_539:\n        /* \"#utility.yul\":17076:17077   */\n      0x01\n        /* \"#utility.yul\":17069:17074   */\n      dup2\n        /* \"#utility.yul\":17065:17078   */\n      add\n        /* \"#utility.yul\":17056:17078   */\n      swap1\n      pop\n        /* \"#utility.yul\":17032:17152   */\n      jump(tag_536)\n    tag_538:\n        /* \"#utility.yul\":16972:17158   */\n      pop\n      pop\n      jump\t// out\n        /* \"#utility.yul\":17164:17707   */\n    tag_340:\n        /* \"#utility.yul\":17265:17267   */\n      0x1f\n        /* \"#utility.yul\":17260:17263   */\n      dup3\n        /* \"#utility.yul\":17257:17268   */\n      gt\n        /* \"#utility.yul\":17254:17700   */\n      iszero\n      tag_541\n      jumpi\n        /* \"#utility.yul\":17299:17337   */\n      tag_542\n        /* \"#utility.yul\":17331:17336   */\n      dup2\n        /* \"#utility.yul\":17299:17337   */\n      tag_329\n      jump\t// in\n    tag_542:\n        /* \"#utility.yul\":17383:17412   */\n      tag_543\n        /* \"#utility.yul\":17401:17411   */\n      dup5\n        /* \"#utility.yul\":17383:17412   */\n      tag_330\n      jump\t// in\n    tag_543:\n        /* \"#utility.yul\":17373:17381   */\n      dup2\n        /* \"#utility.yul\":17369:17413   */\n      add\n        /* \"#utility.yul\":17566:17568   */\n      0x20\n        /* \"#utility.yul\":17554:17564   */\n      dup6\n        /* \"#utility.yul\":17551:17569   */\n      lt\n        /* \"#utility.yul\":17548:17597   */\n      iszero\n      tag_544\n      jumpi\n        /* \"#utility.yul\":17587:17595   */\n      dup2\n        /* \"#utility.yul\":17572:17595   */\n      swap1\n      pop\n        /* \"#utility.yul\":17548:17597   */\n    tag_544:\n        /* \"#utility.yul\":17610:17690   */\n      tag_545\n        /* \"#utility.yul\":17666:17688   */\n      tag_546\n        /* \"#utility.yul\":17684:17687   */\n      dup6\n        /* \"#utility.yul\":17666:17688   */\n      tag_330\n      jump\t// in\n    tag_546:\n        /* \"#utility.yul\":17656:17664   */\n      dup4\n        /* \"#utility.yul\":17652:17689   */\n      add\n        /* \"#utility.yul\":17639:17650   */\n      dup3\n        /* \"#utility.yul\":17610:17690   */\n      tag_339\n      jump\t// in\n    tag_545:\n        /* \"#utility.yul\":17269:17700   */\n      pop\n      pop\n        /* \"#utility.yul\":17254:17700   */\n    tag_541:\n        /* \"#utility.yul\":17164:17707   */\n      pop\n      pop\n      pop\n      jump\t// out\n        /* \"#utility.yul\":17713:17830   */\n    tag_341:\n        /* \"#utility.yul\":17767:17775   */\n      0x00\n        /* \"#utility.yul\":17817:17822   */\n      dup3\n        /* \"#utility.yul\":17811:17815   */\n      dup3\n        /* \"#utility.yul\":17807:17823   */\n      shr\n        /* \"#utility.yul\":17786:17823   */\n      swap1\n      pop\n        /* \"#utility.yul\":17713:17830   */\n      swap3\n      swap2\n      pop\n      pop\n      jump\t// out\n        /* \"#utility.yul\":17836:18005   */\n    tag_342:\n        /* \"#utility.yul\":17880:17886   */\n      0x00\n        /* \"#utility.yul\":17913:17964   */\n      tag_549\n        /* \"#utility.yul\":17961:17962   */\n      0x00\n        /* \"#utility.yul\":17957:17963   */\n      not\n        /* \"#utility.yul\":17949:17954   */\n      dup5\n        /* \"#utility.yul\":17946:17947   */\n      0x08\n        /* \"#utility.yul\":17942:17955   */\n      mul\n        /* \"#utility.yul\":17913:17964   */\n      tag_341\n      jump\t// in\n    tag_549:\n        /* \"#utility.yul\":17909:17965   */\n      not\n        /* \"#utility.yul\":17994:17998   */\n      dup1\n        /* \"#utility.yul\":17988:17992   */\n      dup4\n        /* \"#utility.yul\":17984:17999   */\n      and\n        /* \"#utility.yul\":17974:17999   */\n      swap2\n      pop\n        /* \"#utility.yul\":17887:18005   */\n      pop\n        /* \"#utility.yul\":17836:18005   */\n      swap3\n      swap2\n      pop\n      pop\n      jump\t// out\n        /* \"#utility.yul\":18010:18305   */\n    tag_343:\n        /* \"#utility.yul\":18086:18090   */\n      0x00\n        /* \"#utility.yul\":18232:18261   */\n      tag_551\n        /* \"#utility.yul\":18257:18260   */\n      dup4\n        /* \"#utility.yul\":18251:18255   */\n      dup4\n        /* \"#utility.yul\":18232:18261   */\n      tag_342\n      jump\t// in\n    tag_551:\n        /* \"#utility.yul\":18224:18261   */\n      swap2\n      pop\n        /* \"#utility.yul\":18294:18297   */\n      dup3\n        /* \"#utility.yul\":18291:18292   */\n      0x02\n        /* \"#utility.yul\":18287:18298   */\n      mul\n        /* \"#utility.yul\":18281:18285   */\n      dup3\n        /* \"#utility.yul\":18278:18299   */\n      or\n        /* \"#utility.yul\":18270:18299   */\n      swap1\n      pop\n        /* \"#utility.yul\":18010:18305   */\n      swap3\n      swap2\n      pop\n      pop\n      jump\t// out\n        /* \"#utility.yul\":18310:19705   */\n    tag_101:\n        /* \"#utility.yul\":18427:18464   */\n      tag_553\n        /* \"#utility.yul\":18460:18463   */\n      dup3\n        /* \"#utility.yul\":18427:18464   */\n      tag_305\n      jump\t// in\n    tag_553:\n        /* \"#utility.yul\":18529:18547   */\n      0xffffffffffffffff\n        /* \"#utility.yul\":18521:18527   */\n      dup2\n        /* \"#utility.yul\":18518:18548   */\n      gt\n        /* \"#utility.yul\":18515:18571   */\n      iszero\n      tag_554\n      jumpi\n        /* \"#utility.yul\":18551:18569   */\n      tag_555\n      tag_109\n      jump\t// in\n    tag_555:\n        /* \"#utility.yul\":18515:18571   */\n    tag_554:\n        /* \"#utility.yul\":18595:18633   */\n      tag_556\n        /* \"#utility.yul\":18627:18631   */\n      dup3\n        /* \"#utility.yul\":18621:18632   */\n      sload\n        /* \"#utility.yul\":18595:18633   */\n      tag_120\n      jump\t// in\n    tag_556:\n        /* \"#utility.yul\":18680:18747   */\n      tag_557\n        /* \"#utility.yul\":18740:18746   */\n      dup3\n        /* \"#utility.yul\":18732:18738   */\n      dup3\n        /* \"#utility.yul\":18726:18730   */\n      dup6\n        /* \"#utility.yul\":18680:18747   */\n      tag_340\n      jump\t// in\n    tag_557:\n        /* \"#utility.yul\":18774:18775   */\n      0x00\n        /* \"#utility.yul\":18798:18802   */\n      0x20\n        /* \"#utility.yul\":18785:18802   */\n      swap1\n      pop\n        /* \"#utility.yul\":18830:18832   */\n      0x1f\n        /* \"#utility.yul\":18822:18828   */\n      dup4\n        /* \"#utility.yul\":18819:18833   */\n      gt\n        /* \"#utility.yul\":18847:18848   */\n      0x01\n        /* \"#utility.yul\":18842:19460   */\n      dup2\n      eq\n      tag_559\n      jumpi\n        /* \"#utility.yul\":19504:19505   */\n      0x00\n        /* \"#utility.yul\":19521:19527   */\n      dup5\n        /* \"#utility.yul\":19518:19595   */\n      iszero\n      tag_560\n      jumpi\n        /* \"#utility.yul\":19570:19579   */\n      dup3\n        /* \"#utility.yul\":19565:19568   */\n      dup8\n        /* \"#utility.yul\":19561:19580   */\n      add\n        /* \"#utility.yul\":19555:19581   */\n      mload\n        /* \"#utility.yul\":19546:19581   */\n      swap1\n      pop\n        /* \"#utility.yul\":19518:19595   */\n    tag_560:\n        /* \"#utility.yul\":19621:19688   */\n      tag_561\n        /* \"#utility.yul\":19681:19687   */\n      dup6\n        /* \"#utility.yul\":19674:19679   */\n      dup3\n        /* \"#utility.yul\":19621:19688   */\n      tag_343\n      jump\t// in\n    tag_561:\n        /* \"#utility.yul\":19615:19619   */\n      dup7\n        /* \"#utility.yul\":19608:19689   */\n      sstore\n        /* \"#utility.yul\":19477:19699   */\n      pop\n        /* \"#utility.yul\":18812:19699   */\n      jump(tag_558)\n        /* \"#utility.yul\":18842:19460   */\n    tag_559:\n        /* \"#utility.yul\":18894:18898   */\n      0x1f\n        /* \"#utility.yul\":18890:18899   */\n      not\n        /* \"#utility.yul\":18882:18888   */\n      dup5\n        /* \"#utility.yul\":18878:18900   */\n      and\n        /* \"#utility.yul\":18928:18965   */\n      tag_562\n        /* \"#utility.yul\":18960:18964   */\n      dup7\n        /* \"#utility.yul\":18928:18965   */\n      tag_329\n      jump\t// in\n    tag_562:\n        /* \"#utility.yul\":18987:18988   */\n      0x00\n        /* \"#utility.yul\":19001:19209   */\n    tag_563:\n        /* \"#utility.yul\":19015:19022   */\n      dup3\n        /* \"#utility.yul\":19012:19013   */\n      dup2\n        /* \"#utility.yul\":19009:19023   */\n      lt\n        /* \"#utility.yul\":19001:19209   */\n      iszero\n      tag_565\n      jumpi\n        /* \"#utility.yul\":19094:19103   */\n      dup5\n        /* \"#utility.yul\":19089:19092   */\n      dup10\n        /* \"#utility.yul\":19085:19104   */\n      add\n        /* \"#utility.yul\":19079:19105   */\n      mload\n        /* \"#utility.yul\":19071:19077   */\n      dup3\n        /* \"#utility.yul\":19064:19106   */\n      sstore\n        /* \"#utility.yul\":19145:19146   */\n      0x01\n        /* \"#utility.yul\":19137:19143   */\n      dup3\n        /* \"#utility.yul\":19133:19147   */\n      add\n        /* \"#utility.yul\":19123:19147   */\n      swap2\n      pop\n        /* \"#utility.yul\":19192:19194   */\n      0x20\n        /* \"#utility.yul\":19181:19190   */\n      dup6\n        /* \"#utility.yul\":19177:19195   */\n      add\n        /* \"#utility.yul\":19164:19195   */\n      swap5\n      pop\n        /* \"#utility.yul\":19038:19042   */\n      0x20\n        /* \"#utility.yul\":19035:19036   */\n      dup2\n        /* \"#utility.yul\":19031:19043   */\n      add\n        /* \"#utility.yul\":19026:19043   */\n      swap1\n      pop\n        /* \"#utility.yul\":19001:19209   */\n      jump(tag_563)\n    tag_565:\n        /* \"#utility.yul\":19237:19243   */\n      dup7\n        /* \"#utility.yul\":19228:19235   */\n      dup4\n        /* \"#utility.yul\":19225:19244   */\n      lt\n        /* \"#utility.yul\":19222:19401   */\n      iszero\n      tag_566\n      jumpi\n        /* \"#utility.yul\":19295:19304   */\n      dup5\n        /* \"#utility.yul\":19290:19293   */\n      dup10\n        /* \"#utility.yul\":19286:19305   */\n      add\n        /* \"#utility.yul\":19280:19306   */\n      mload\n        /* \"#utility.yul\":19338:19386   */\n      tag_567\n        /* \"#utility.yul\":19380:19384   */\n      0x1f\n        /* \"#utility.yul\":19372:19378   */\n      dup10\n        /* \"#utility.yul\":19368:19385   */\n      and\n        /* \"#utility.yul\":19357:19366   */\n      dup3\n        /* \"#utility.yul\":19338:19386   */\n      tag_342\n      jump\t// in\n    tag_567:\n        /* \"#utility.yul\":19330:19336   */\n      dup4\n        /* \"#utility.yul\":19323:19387   */\n      sstore\n        /* \"#utility.yul\":19245:19401   */\n      pop\n        /* \"#utility.yul\":19222:19401   */\n    tag_566:\n        /* \"#utility.yul\":19447:19448   */\n      0x01\n        /* \"#utility.yul\":19443:19444   */\n      0x02\n        /* \"#utility.yul\":19435:19441   */\n      dup9\n        /* \"#utility.yul\":19431:19445   */\n      mul\n        /* \"#utility.yul\":19427:19449   */\n      add\n        /* \"#utility.yul\":19421:19425   */\n      dup9\n        /* \"#utility.yul\":19414:19450   */\n      sstore\n        /* \"#utility.yul\":18849:19460   */\n      pop\n      pop\n      pop\n        /* \"#utility.yul\":18812:19699   */\n    tag_558:\n      pop\n        /* \"#utility.yul\":18402:19705   */\n      pop\n      pop\n      pop\n        /* \"#utility.yul\":18310:19705   */\n      pop\n      pop\n      jump\t// out\n        /* \"#utility.yul\":19711:19859   */\n    tag_344:\n        /* \"#utility.yul\":19809:19815   */\n      dup3\n        /* \"#utility.yul\":19804:19807   */\n      dup2\n        /* \"#utility.yul\":19799:19802   */\n      dup4\n        /* \"#utility.yul\":19786:19816   */\n      calldatacopy\n        /* \"#utility.yul\":19850:19851   */\n      0x00\n        /* \"#utility.yul\":19841:19847   */\n      dup4\n        /* \"#utility.yul\":19836:19839   */\n      dup4\n        /* \"#utility.yul\":19832:19848   */\n      add\n        /* \"#utility.yul\":19825:19852   */\n      mstore\n        /* \"#utility.yul\":19711:19859   */\n      pop\n      pop\n      pop\n      jump\t// out\n        /* \"#utility.yul\":19889:20206   */\n    tag_345:\n        /* \"#utility.yul\":19987:19990   */\n      0x00\n        /* \"#utility.yul\":20008:20079   */\n      tag_570\n        /* \"#utility.yul\":20072:20078   */\n      dup4\n        /* \"#utility.yul\":20067:20070   */\n      dup6\n        /* \"#utility.yul\":20008:20079   */\n      tag_314\n      jump\t// in\n    tag_570:\n        /* \"#utility.yul\":20001:20079   */\n      swap4\n      pop\n        /* \"#utility.yul\":20089:20145   */\n      tag_571\n        /* \"#utility.yul\":20138:20144   */\n      dup4\n        /* \"#utility.yul\":20133:20136   */\n      dup6\n        /* \"#utility.yul\":20126:20131   */\n      dup5\n        /* \"#utility.yul\":20089:20145   */\n      tag_344\n      jump\t// in\n    tag_571:\n        /* \"#utility.yul\":20170:20199   */\n      tag_572\n        /* \"#utility.yul\":20192:20198   */\n      dup4\n        /* \"#utility.yul\":20170:20199   */\n      tag_308\n      jump\t// in\n    tag_572:\n        /* \"#utility.yul\":20165:20168   */\n      dup5\n        /* \"#utility.yul\":20161:20200   */\n      add\n        /* \"#utility.yul\":20154:20200   */\n      swap1\n      pop\n        /* \"#utility.yul\":19889:20206   */\n      swap4\n      swap3\n      pop\n      pop\n      pop\n      jump\t// out\n        /* \"#utility.yul\":20212:20979   */\n    tag_105:\n        /* \"#utility.yul\":20445:20449   */\n      0x00\n        /* \"#utility.yul\":20483:20486   */\n      0x80\n        /* \"#utility.yul\":20472:20481   */\n      dup3\n        /* \"#utility.yul\":20468:20487   */\n      add\n        /* \"#utility.yul\":20460:20487   */\n      swap1\n      pop\n        /* \"#utility.yul\":20533:20542   */\n      dup2\n        /* \"#utility.yul\":20527:20531   */\n      dup2\n        /* \"#utility.yul\":20523:20543   */\n      sub\n        /* \"#utility.yul\":20519:20520   */\n      0x00\n        /* \"#utility.yul\":20508:20517   */\n      dup4\n        /* \"#utility.yul\":20504:20521   */\n      add\n        /* \"#utility.yul\":20497:20544   */\n      mstore\n        /* \"#utility.yul\":20561:20649   */\n      tag_574\n        /* \"#utility.yul\":20644:20648   */\n      dup2\n        /* \"#utility.yul\":20635:20641   */\n      dup9\n        /* \"#utility.yul\":20627:20633   */\n      dup11\n        /* \"#utility.yul\":20561:20649   */\n      tag_345\n      jump\t// in\n    tag_574:\n        /* \"#utility.yul\":20553:20649   */\n      swap1\n      pop\n        /* \"#utility.yul\":20696:20705   */\n      dup2\n        /* \"#utility.yul\":20690:20694   */\n      dup2\n        /* \"#utility.yul\":20686:20706   */\n      sub\n        /* \"#utility.yul\":20681:20683   */\n      0x20\n        /* \"#utility.yul\":20670:20679   */\n      dup4\n        /* \"#utility.yul\":20666:20684   */\n      add\n        /* \"#utility.yul\":20659:20707   */\n      mstore\n        /* \"#utility.yul\":20724:20812   */\n      tag_575\n        /* \"#utility.yul\":20807:20811   */\n      dup2\n        /* \"#utility.yul\":20798:20804   */\n      dup7\n        /* \"#utility.yul\":20790:20796   */\n      dup9\n        /* \"#utility.yul\":20724:20812   */\n      tag_345\n      jump\t// in\n    tag_575:\n        /* \"#utility.yul\":20716:20812   */\n      swap1\n      pop\n        /* \"#utility.yul\":20822:20892   */\n      tag_576\n        /* \"#utility.yul\":20888:20890   */\n      0x40\n        /* \"#utility.yul\":20877:20886   */\n      dup4\n        /* \"#utility.yul\":20873:20891   */\n      add\n        /* \"#utility.yul\":20864:20870   */\n      dup6\n        /* \"#utility.yul\":20822:20892   */\n      tag_316\n      jump\t// in\n    tag_576:\n        /* \"#utility.yul\":20902:20972   */\n      tag_577\n        /* \"#utility.yul\":20968:20970   */\n      0x60\n        /* \"#utility.yul\":20957:20966   */\n      dup4\n        /* \"#utility.yul\":20953:20971   */\n      add\n        /* \"#utility.yul\":20944:20950   */\n      dup5\n        /* \"#utility.yul\":20902:20972   */\n      tag_316\n      jump\t// in\n    tag_577:\n        /* \"#utility.yul\":20212:20979   */\n      swap8\n      swap7\n      pop\n      pop\n      pop\n      pop\n      pop\n      pop\n      pop\n      jump\t// out\n        /* \"#utility.yul\":20985:21165   */\n    tag_117:\n        /* \"#utility.yul\":21033:21110   */\n      0x4e487b7100000000000000000000000000000000000000000000000000000000\n        /* \"#utility.yul\":21030:21031   */\n      0x00\n        /* \"#utility.yul\":21023:21111   */\n      mstore\n        /* \"#utility.yul\":21130:21134   */\n      0x32\n        /* \"#utility.yul\":21127:21128   */\n      0x04\n        /* \"#utility.yul\":21120:21135   */\n      mstore\n        /* \"#utility.yul\":21154:21158   */\n      0x24\n        /* \"#utility.yul\":21151:21152   */\n      0x00\n        /* \"#utility.yul\":21144:21159   */\n      revert\n        /* \"#utility.yul\":21171:21581   */\n    tag_155:\n        /* \"#utility.yul\":21211:21218   */\n      0x00\n        /* \"#utility.yul\":21234:21254   */\n      tag_580\n        /* \"#utility.yul\":21252:21253   */\n      dup3\n        /* \"#utility.yul\":21234:21254   */\n      tag_292\n      jump\t// in\n    tag_580:\n        /* \"#utility.yul\":21229:21254   */\n      swap2\n      pop\n        /* \"#utility.yul\":21268:21288   */\n      tag_581\n        /* \"#utility.yul\":21286:21287   */\n      dup4\n        /* \"#utility.yul\":21268:21288   */\n      tag_292\n      jump\t// in\n    tag_581:\n        /* \"#utility.yul\":21263:21288   */\n      swap3\n      pop\n        /* \"#utility.yul\":21323:21324   */\n      dup3\n        /* \"#utility.yul\":21320:21321   */\n      dup3\n        /* \"#utility.yul\":21316:21325   */\n      mul\n        /* \"#utility.yul\":21345:21375   */\n      tag_582\n        /* \"#utility.yul\":21363:21374   */\n      dup2\n        /* \"#utility.yul\":21345:21375   */\n      tag_292\n      jump\t// in\n    tag_582:\n        /* \"#utility.yul\":21334:21375   */\n      swap2\n      pop\n        /* \"#utility.yul\":21524:21525   */\n      dup3\n        /* \"#utility.yul\":21515:21522   */\n      dup3\n        /* \"#utility.yul\":21511:21526   */\n      div\n        /* \"#utility.yul\":21508:21509   */\n      dup5\n        /* \"#utility.yul\":21505:21527   */\n      eq\n        /* \"#utility.yul\":21485:21486   */\n      dup4\n        /* \"#utility.yul\":21478:21487   */\n      iszero\n        /* \"#utility.yul\":21458:21541   */\n      or\n        /* \"#utility.yul\":21435:21574   */\n      tag_583\n      jumpi\n        /* \"#utility.yul\":21554:21572   */\n      tag_584\n      tag_327\n      jump\t// in\n    tag_584:\n        /* \"#utility.yul\":21435:21574   */\n    tag_583:\n        /* \"#utility.yul\":21219:21581   */\n      pop\n        /* \"#utility.yul\":21171:21581   */\n      swap3\n      swap2\n      pop\n      pop\n      jump\t// out\n        /* \"#utility.yul\":21587:21778   */\n    tag_174:\n        /* \"#utility.yul\":21627:21630   */\n      0x00\n        /* \"#utility.yul\":21646:21666   */\n      tag_586\n        /* \"#utility.yul\":21664:21665   */\n      dup3\n        /* \"#utility.yul\":21646:21666   */\n      tag_292\n      jump\t// in\n    tag_586:\n        /* \"#utility.yul\":21641:21666   */\n      swap2\n      pop\n        /* \"#utility.yul\":21680:21700   */\n      tag_587\n        /* \"#utility.yul\":21698:21699   */\n      dup4\n        /* \"#utility.yul\":21680:21700   */\n      tag_292\n      jump\t// in\n    tag_587:\n        /* \"#utility.yul\":21675:21700   */\n      swap3\n      pop\n        /* \"#utility.yul\":21723:21724   */\n      dup3\n        /* \"#utility.yul\":21720:21721   */\n      dup3\n        /* \"#utility.yul\":21716:21725   */\n      add\n        /* \"#utility.yul\":21709:21725   */\n      swap1\n      pop\n        /* \"#utility.yul\":21744:21747   */\n      dup1\n        /* \"#utility.yul\":21741:21742   */\n      dup3\n        /* \"#utility.yul\":21738:21748   */\n      gt\n        /* \"#utility.yul\":21735:21771   */\n      iszero\n      tag_588\n      jumpi\n        /* \"#utility.yul\":21751:21769   */\n      tag_589\n      tag_327\n      jump\t// in\n    tag_589:\n        /* \"#utility.yul\":21735:21771   */\n    tag_588:\n        /* \"#utility.yul\":21587:21778   */\n      swap3\n      swap2\n      pop\n      pop\n      jump\t// out\n        /* \"#utility.yul\":21784:21948   */\n    tag_346:\n        /* \"#utility.yul\":21924:21940   */\n      0x426f6f6b206e6f74206578697374000000000000000000000000000000000000\n        /* \"#utility.yul\":21920:21921   */\n      0x00\n        /* \"#utility.yul\":21912:21918   */\n      dup3\n        /* \"#utility.yul\":21908:21922   */\n      add\n        /* \"#utility.yul\":21901:21941   */\n      mstore\n        /* \"#utility.yul\":21784:21948   */\n      pop\n      jump\t// out\n        /* \"#utility.yul\":21954:22320   */\n    tag_347:\n        /* \"#utility.yul\":22096:22099   */\n      0x00\n        /* \"#utility.yul\":22117:22184   */\n      tag_592\n        /* \"#utility.yul\":22181:22183   */\n      0x0e\n        /* \"#utility.yul\":22176:22179   */\n      dup4\n        /* \"#utility.yul\":22117:22184   */\n      tag_314\n      jump\t// in\n    tag_592:\n        /* \"#utility.yul\":22110:22184   */\n      swap2\n      pop\n        /* \"#utility.yul\":22193:22286   */\n      tag_593\n        /* \"#utility.yul\":22282:22285   */\n      dup3\n        /* \"#utility.yul\":22193:22286   */\n      tag_346\n      jump\t// in\n    tag_593:\n        /* \"#utility.yul\":22311:22313   */\n      0x20\n        /* \"#utility.yul\":22306:22309   */\n      dup3\n        /* \"#utility.yul\":22302:22314   */\n      add\n        /* \"#utility.yul\":22295:22314   */\n      swap1\n      pop\n        /* \"#utility.yul\":21954:22320   */\n      swap2\n      swap1\n      pop\n      jump\t// out\n        /* \"#utility.yul\":22326:22745   */\n    tag_190:\n        /* \"#utility.yul\":22492:22496   */\n      0x00\n        /* \"#utility.yul\":22530:22532   */\n      0x20\n        /* \"#utility.yul\":22519:22528   */\n      dup3\n        /* \"#utility.yul\":22515:22533   */\n      add\n        /* \"#utility.yul\":22507:22533   */\n      swap1\n      pop\n        /* \"#utility.yul\":22579:22588   */\n      dup2\n        /* \"#utility.yul\":22573:22577   */\n      dup2\n        /* \"#utility.yul\":22569:22589   */\n      sub\n        /* \"#utility.yul\":22565:22566   */\n      0x00\n        /* \"#utility.yul\":22554:22563   */\n      dup4\n        /* \"#utility.yul\":22550:22567   */\n      add\n        /* \"#utility.yul\":22543:22590   */\n      mstore\n        /* \"#utility.yul\":22607:22738   */\n      tag_595\n        /* \"#utility.yul\":22733:22737   */\n      dup2\n        /* \"#utility.yul\":22607:22738   */\n      tag_347\n      jump\t// in\n    tag_595:\n        /* \"#utility.yul\":22599:22738   */\n      swap1\n      pop\n        /* \"#utility.yul\":22326:22745   */\n      swap2\n      swap1\n      pop\n      jump\t// out\n        /* \"#utility.yul\":22751:22945   */\n    tag_202:\n        /* \"#utility.yul\":22791:22795   */\n      0x00\n        /* \"#utility.yul\":22811:22831   */\n      tag_597\n        /* \"#utility.yul\":22829:22830   */\n      dup3\n        /* \"#utility.yul\":22811:22831   */\n      tag_292\n      jump\t// in\n    tag_597:\n        /* \"#utility.yul\":22806:22831   */\n      swap2\n      pop\n        /* \"#utility.yul\":22845:22865   */\n      tag_598\n        /* \"#utility.yul\":22863:22864   */\n      dup4\n        /* \"#utility.yul\":22845:22865   */\n      tag_292\n      jump\t// in\n    tag_598:\n        /* \"#utility.yul\":22840:22865   */\n      swap3\n      pop\n        /* \"#utility.yul\":22889:22890   */\n      dup3\n        /* \"#utility.yul\":22886:22887   */\n      dup3\n        /* \"#utility.yul\":22882:22891   */\n      sub\n        /* \"#utility.yul\":22874:22891   */\n      swap1\n      pop\n        /* \"#utility.yul\":22913:22914   */\n      dup2\n        /* \"#utility.yul\":22907:22911   */\n      dup2\n        /* \"#utility.yul\":22904:22915   */\n      gt\n        /* \"#utility.yul\":22901:22938   */\n      iszero\n      tag_599\n      jumpi\n        /* \"#utility.yul\":22918:22936   */\n      tag_600\n      tag_327\n      jump\t// in\n    tag_600:\n        /* \"#utility.yul\":22901:22938   */\n    tag_599:\n        /* \"#utility.yul\":22751:22945   */\n      swap3\n      swap2\n      pop\n      pop\n      jump\t// out\n        /* \"#utility.yul\":22951:23131   */\n    tag_211:\n        /* \"#utility.yul\":22999:23076   */\n      0x4e487b7100000000000000000000000000000000000000000000000000000000\n        /* \"#utility.yul\":22996:22997   */\n      0x00\n        /* \"#utility.yul\":22989:23077   */\n      mstore\n        /* \"#utility.yul\":23096:23100   */\n      0x31\n        /* \"#utility.yul\":23093:23094   */\n      0x04\n        /* \"#utility.yul\":23086:23101   */\n      mstore\n        /* \"#utility.yul\":23120:23124   */\n      0x24\n        /* \"#utility.yul\":23117:23118   */\n      0x00\n        /* \"#utility.yul\":23110:23125   */\n      revert\n        /* \"#utility.yul\":23137:23368   */\n    tag_348:\n        /* \"#utility.yul\":23277:23311   */\n      0x437573746f6d657220486173204e6f74204a6f696e656420546865204c6f7961\n        /* \"#utility.yul\":23273:23274   */\n      0x00\n        /* \"#utility.yul\":23265:23271   */\n      dup3\n        /* \"#utility.yul\":23261:23275   */\n      add\n        /* \"#utility.yul\":23254:23312   */\n      mstore\n        /* \"#utility.yul\":23346:23360   */\n      0x6c74792050726f6772616d210000000000000000000000000000000000000000\n        /* \"#utility.yul\":23341:23343   */\n      0x20\n        /* \"#utility.yul\":23333:23339   */\n      dup3\n        /* \"#utility.yul\":23329:23344   */\n      add\n        /* \"#utility.yul\":23322:23361   */\n      mstore\n        /* \"#utility.yul\":23137:23368   */\n      pop\n      jump\t// out\n        /* \"#utility.yul\":23374:23740   */\n    tag_349:\n        /* \"#utility.yul\":23516:23519   */\n      0x00\n        /* \"#utility.yul\":23537:23604   */\n      tag_604\n        /* \"#utility.yul\":23601:23603   */\n      0x2c\n        /* \"#utility.yul\":23596:23599   */\n      dup4\n        /* \"#utility.yul\":23537:23604   */\n      tag_314\n      jump\t// in\n    tag_604:\n        /* \"#utility.yul\":23530:23604   */\n      swap2\n      pop\n        /* \"#utility.yul\":23613:23706   */\n      tag_605\n        /* \"#utility.yul\":23702:23705   */\n      dup3\n        /* \"#utility.yul\":23613:23706   */\n      tag_348\n      jump\t// in\n    tag_605:\n        /* \"#utility.yul\":23731:23733   */\n      0x40\n        /* \"#utility.yul\":23726:23729   */\n      dup3\n        /* \"#utility.yul\":23722:23734   */\n      add\n        /* \"#utility.yul\":23715:23734   */\n      swap1\n      pop\n        /* \"#utility.yul\":23374:23740   */\n      swap2\n      swap1\n      pop\n      jump\t// out\n        /* \"#utility.yul\":23746:24165   */\n    tag_216:\n        /* \"#utility.yul\":23912:23916   */\n      0x00\n        /* \"#utility.yul\":23950:23952   */\n      0x20\n        /* \"#utility.yul\":23939:23948   */\n      dup3\n        /* \"#utility.yul\":23935:23953   */\n      add\n        /* \"#utility.yul\":23927:23953   */\n      swap1\n      pop\n        /* \"#utility.yul\":23999:24008   */\n      dup2\n        /* \"#utility.yul\":23993:23997   */\n      dup2\n        /* \"#utility.yul\":23989:24009   */\n      sub\n        /* \"#utility.yul\":23985:23986   */\n      0x00\n        /* \"#utility.yul\":23974:23983   */\n      dup4\n        /* \"#utility.yul\":23970:23987   */\n      add\n        /* \"#utility.yul\":23963:24010   */\n      mstore\n        /* \"#utility.yul\":24027:24158   */\n      tag_607\n        /* \"#utility.yul\":24153:24157   */\n      dup2\n        /* \"#utility.yul\":24027:24158   */\n      tag_349\n      jump\t// in\n    tag_607:\n        /* \"#utility.yul\":24019:24158   */\n      swap1\n      pop\n        /* \"#utility.yul\":23746:24165   */\n      swap2\n      swap1\n      pop\n      jump\t// out\n        /* \"#utility.yul\":24171:24355   */\n    tag_350:\n        /* \"#utility.yul\":24270:24281   */\n      0x00\n        /* \"#utility.yul\":24304:24310   */\n      dup3\n        /* \"#utility.yul\":24299:24302   */\n      dup3\n        /* \"#utility.yul\":24292:24311   */\n      mstore\n        /* \"#utility.yul\":24344:24348   */\n      0x20\n        /* \"#utility.yul\":24339:24342   */\n      dup3\n        /* \"#utility.yul\":24335:24349   */\n      add\n        /* \"#utility.yul\":24320:24349   */\n      swap1\n      pop\n        /* \"#utility.yul\":24171:24355   */\n      swap3\n      swap2\n      pop\n      pop\n      jump\t// out\n        /* \"#utility.yul\":24361:24478   */\n    tag_351:\n        /* \"#utility.yul\":24470:24471   */\n      0x00\n        /* \"#utility.yul\":24467:24468   */\n      dup1\n        /* \"#utility.yul\":24460:24472   */\n      revert\n        /* \"#utility.yul\":24484:24583   */\n    tag_352:\n        /* \"#utility.yul\":24569:24575   */\n      dup3\n        /* \"#utility.yul\":24564:24567   */\n      dup2\n        /* \"#utility.yul\":24559:24562   */\n      dup4\n        /* \"#utility.yul\":24546:24576   */\n      calldatacopy\n        /* \"#utility.yul\":24484:24583   */\n      pop\n      pop\n      pop\n      jump\t// out\n        /* \"#utility.yul\":24619:25156   */\n    tag_353:\n        /* \"#utility.yul\":24747:24750   */\n      0x00\n        /* \"#utility.yul\":24768:24854   */\n      tag_612\n        /* \"#utility.yul\":24847:24853   */\n      dup4\n        /* \"#utility.yul\":24842:24845   */\n      dup6\n        /* \"#utility.yul\":24768:24854   */\n      tag_350\n      jump\t// in\n    tag_612:\n        /* \"#utility.yul\":24761:24854   */\n      swap4\n      pop\n        /* \"#utility.yul\":24878:24944   */\n      0x07ffffffffffffffffffffffffffffffffffffffffffffffffffffffffffffff\n        /* \"#utility.yul\":24870:24876   */\n      dup4\n        /* \"#utility.yul\":24867:24945   */\n      gt\n        /* \"#utility.yul\":24864:25029   */\n      iszero\n      tag_613\n      jumpi\n        /* \"#utility.yul\":24948:25027   */\n      tag_614\n      tag_351\n      jump\t// in\n    tag_614:\n        /* \"#utility.yul\":24864:25029   */\n    tag_613:\n        /* \"#utility.yul\":25060:25064   */\n      0x20\n        /* \"#utility.yul\":25052:25058   */\n      dup4\n        /* \"#utility.yul\":25048:25065   */\n      mul\n        /* \"#utility.yul\":25038:25065   */\n      swap3\n      pop\n        /* \"#utility.yul\":25075:25118   */\n      tag_615\n        /* \"#utility.yul\":25111:25117   */\n      dup4\n        /* \"#utility.yul\":25106:25109   */\n      dup6\n        /* \"#utility.yul\":25099:25104   */\n      dup5\n        /* \"#utility.yul\":25075:25118   */\n      tag_352\n      jump\t// in\n    tag_615:\n        /* \"#utility.yul\":25143:25149   */\n      dup3\n        /* \"#utility.yul\":25138:25141   */\n      dup5\n        /* \"#utility.yul\":25134:25150   */\n      add\n        /* \"#utility.yul\":25127:25150   */\n      swap1\n      pop\n        /* \"#utility.yul\":24619:25156   */\n      swap4\n      swap3\n      pop\n      pop\n      pop\n      jump\t// out\n        /* \"#utility.yul\":25162:25555   */\n    tag_257:\n        /* \"#utility.yul\":25315:25319   */\n      0x00\n        /* \"#utility.yul\":25353:25355   */\n      0x20\n        /* \"#utility.yul\":25342:25351   */\n      dup3\n        /* \"#utility.yul\":25338:25356   */\n      add\n        /* \"#utility.yul\":25330:25356   */\n      swap1\n      pop\n        /* \"#utility.yul\":25402:25411   */\n      dup2\n        /* \"#utility.yul\":25396:25400   */\n      dup2\n        /* \"#utility.yul\":25392:25412   */\n      sub\n        /* \"#utility.yul\":25388:25389   */\n      0x00\n        /* \"#utility.yul\":25377:25386   */\n      dup4\n        /* \"#utility.yul\":25373:25390   */\n      add\n        /* \"#utility.yul\":25366:25413   */\n      mstore\n        /* \"#utility.yul\":25430:25548   */\n      tag_617\n        /* \"#utility.yul\":25543:25547   */\n      dup2\n        /* \"#utility.yul\":25534:25540   */\n      dup5\n        /* \"#utility.yul\":25526:25532   */\n      dup7\n        /* \"#utility.yul\":25430:25548   */\n      tag_353\n      jump\t// in\n    tag_617:\n        /* \"#utility.yul\":25422:25548   */\n      swap1\n      pop\n        /* \"#utility.yul\":25162:25555   */\n      swap4\n      swap3\n      pop\n      pop\n      pop\n      jump\t// out\n        /* \"#utility.yul\":25561:25724   */\n    tag_354:\n        /* \"#utility.yul\":25701:25716   */\n      0x4e6f7420617661696c61626c6500000000000000000000000000000000000000\n        /* \"#utility.yul\":25697:25698   */\n      0x00\n        /* \"#utility.yul\":25689:25695   */\n      dup3\n        /* \"#utility.yul\":25685:25699   */\n      add\n        /* \"#utility.yul\":25678:25717   */\n      mstore\n        /* \"#utility.yul\":25561:25724   */\n      pop\n      jump\t// out\n        /* \"#utility.yul\":25730:26096   */\n    tag_355:\n        /* \"#utility.yul\":25872:25875   */\n      0x00\n        /* \"#utility.yul\":25893:25960   */\n      tag_620\n        /* \"#utility.yul\":25957:25959   */\n      0x0d\n        /* \"#utility.yul\":25952:25955   */\n      dup4\n        /* \"#utility.yul\":25893:25960   */\n      tag_314\n      jump\t// in\n    tag_620:\n        /* \"#utility.yul\":25886:25960   */\n      swap2\n      pop\n        /* \"#utility.yul\":25969:26062   */\n      tag_621\n        /* \"#utility.yul\":26058:26061   */\n      dup3\n        /* \"#utility.yul\":25969:26062   */\n      tag_354\n      jump\t// in\n    tag_621:\n        /* \"#utility.yul\":26087:26089   */\n      0x20\n        /* \"#utility.yul\":26082:26085   */\n      dup3\n        /* \"#utility.yul\":26078:26090   */\n      add\n        /* \"#utility.yul\":26071:26090   */\n      swap1\n      pop\n        /* \"#utility.yul\":25730:26096   */\n      swap2\n      swap1\n      pop\n      jump\t// out\n        /* \"#utility.yul\":26102:26521   */\n    tag_269:\n        /* \"#utility.yul\":26268:26272   */\n      0x00\n        /* \"#utility.yul\":26306:26308   */\n      0x20\n        /* \"#utility.yul\":26295:26304   */\n      dup3\n        /* \"#utility.yul\":26291:26309   */\n      add\n        /* \"#utility.yul\":26283:26309   */\n      swap1\n      pop\n        /* \"#utility.yul\":26355:26364   */\n      dup2\n        /* \"#utility.yul\":26349:26353   */\n      dup2\n        /* \"#utility.yul\":26345:26365   */\n      sub\n        /* \"#utility.yul\":26341:26342   */\n      0x00\n        /* \"#utility.yul\":26330:26339   */\n      dup4\n        /* \"#utility.yul\":26326:26343   */\n      add\n        /* \"#utility.yul\":26319:26366   */\n      mstore\n        /* \"#utility.yul\":26383:26514   */\n      tag_623\n        /* \"#utility.yul\":26509:26513   */\n      dup2\n        /* \"#utility.yul\":26383:26514   */\n      tag_355\n      jump\t// in\n    tag_623:\n        /* \"#utility.yul\":26375:26514   */\n      swap1\n      pop\n        /* \"#utility.yul\":26102:26521   */\n      swap2\n      swap1\n      pop\n      jump\t// out\n        /* \"#utility.yul\":26527:26693   */\n    tag_356:\n        /* \"#utility.yul\":26667:26685   */\n      0x4e6f7420656e6f7567682073746f636b00000000000000000000000000000000\n        /* \"#utility.yul\":26663:26664   */\n      0x00\n        /* \"#utility.yul\":26655:26661   */\n      dup3\n        /* \"#utility.yul\":26651:26665   */\n      add\n        /* \"#utility.yul\":26644:26686   */\n      mstore\n        /* \"#utility.yul\":26527:26693   */\n      pop\n      jump\t// out\n        /* \"#utility.yul\":26699:27065   */\n    tag_357:\n        /* \"#utility.yul\":26841:26844   */\n      0x00\n        /* \"#utility.yul\":26862:26929   */\n      tag_626\n        /* \"#utility.yul\":26926:26928   */\n      0x10\n        /* \"#utility.yul\":26921:26924   */\n      dup4\n        /* \"#utility.yul\":26862:26929   */\n      tag_314\n      jump\t// in\n    tag_626:\n        /* \"#utility.yul\":26855:26929   */\n      swap2\n      pop\n        /* \"#utility.yul\":26938:27031   */\n      tag_627\n        /* \"#utility.yul\":27027:27030   */\n      dup3\n        /* \"#utility.yul\":26938:27031   */\n      tag_356\n      jump\t// in\n    tag_627:\n        /* \"#utility.yul\":27056:27058   */\n      0x20\n        /* \"#utility.yul\":27051:27054   */\n      dup3\n        /* \"#utility.yul\":27047:27059   */\n      add\n        /* \"#utility.yul\":27040:27059   */\n      swap1\n      pop\n        /* \"#utility.yul\":26699:27065   */\n      swap2\n      swap1\n      pop\n      jump\t// out\n        /* \"#utility.yul\":27071:27490   */\n    tag_272:\n        /* \"#utility.yul\":27237:27241   */\n      0x00\n        /* \"#utility.yul\":27275:27277   */\n      0x20\n        /* \"#utility.yul\":27264:27273   */\n      dup3\n        /* \"#utility.yul\":27260:27278   */\n      add\n        /* \"#utility.yul\":27252:27278   */\n      swap1\n      pop\n        /* \"#utility.yul\":27324:27333   */\n      dup2\n        /* \"#utility.yul\":27318:27322   */\n      dup2\n        /* \"#utility.yul\":27314:27334   */\n      sub\n        /* \"#utility.yul\":27310:27311   */\n      0x00\n        /* \"#utility.yul\":27299:27308   */\n      dup4\n        /* \"#utility.yul\":27295:27312   */\n      add\n        /* \"#utility.yul\":27288:27335   */\n      mstore\n        /* \"#utility.yul\":27352:27483   */\n      tag_629\n        /* \"#utility.yul\":27478:27482   */\n      dup2\n        /* \"#utility.yul\":27352:27483   */\n      tag_357\n      jump\t// in\n    tag_629:\n        /* \"#utility.yul\":27344:27483   */\n      swap1\n      pop\n        /* \"#utility.yul\":27071:27490   */\n      swap2\n      swap1\n      pop\n      jump\t// out\n        /* \"#utility.yul\":27496:27659   */\n    tag_358:\n        /* \"#utility.yul\":27636:27651   */\n      0x57726f6e67207061796d656e7400000000000000000000000000000000000000\n        /* \"#utility.yul\":27632:27633   */\n      0x00\n        /* \"#utility.yul\":27624:27630   */\n      dup3\n        /* \"#utility.yul\":27620:27634   */\n      add\n        /* \"#utility.yul\":27613:27652   */\n      mstore\n        /* \"#utility.yul\":27496:27659   */\n      pop\n      jump\t// out\n        /* \"#utility.yul\":27665:28031   */\n    tag_359:\n        /* \"#utility.yul\":27807:27810   */\n      0x00\n        /* \"#utility.yul\":27828:27895   */\n      tag_632\n        /* \"#utility.yul\":27892:27894   */\n      0x0d\n        /* \"#utility.yul\":27887:27890   */\n      dup4\n        /* \"#utility.yul\":27828:27895   */\n      tag_314\n      jump\t// in\n    tag_632:\n        /* \"#utility.yul\":27821:27895   */\n      swap2\n      pop\n        /* \"#utility.yul\":27904:27997   */\n      tag_633\n        /* \"#utility.yul\":27993:27996   */\n      dup3\n        /* \"#utility.yul\":27904:27997   */\n      tag_358\n      jump\t// in\n    tag_633:\n        /* \"#utility.yul\":28022:28024   */\n      0x20\n        /* \"#utility.yul\":28017:28020   */\n      dup3\n        /* \"#utility.yul\":28013:28025   */\n      add\n        /* \"#utility.yul\":28006:28025   */\n      swap1\n      pop\n        /* \"#utility.yul\":27665:28031   */\n      swap2\n      swap1\n      pop\n      jump\t// out\n        /* \"#utility.yul\":28037:28456   */\n    tag_276:\n        /* \"#utility.yul\":28203:28207   */\n      0x00\n        /* \"#utility.yul\":28241:28243   */\n      0x20\n        /* \"#utility.yul\":28230:28239   */\n      dup3\n        /* \"#utility.yul\":28226:28244   */\n      add\n        /* \"#utility.yul\":28218:28244   */\n      swap1\n      pop\n        /* \"#utility.yul\":28290:28299   */\n      dup2\n        /* \"#utility.yul\":28284:28288   */\n      dup2\n        /* \"#utility.yul\":28280:28300   */\n      sub\n        /* \"#utility.yul\":28276:28277   */\n      0x00\n        /* \"#utility.yul\":28265:28274   */\n      dup4\n        /* \"#utility.yul\":28261:28278   */\n      add\n        /* \"#utility.yul\":28254:28301   */\n      mstore\n        /* \"#utility.yul\":28318:28449   */\n      tag_635\n        /* \"#utility.yul\":28444:28448   */\n      dup2\n        /* \"#utility.yul\":28318:28449   */\n      tag_359\n      jump\t// in\n    tag_635:\n        /* \"#utility.yul\":28310:28449   */\n      swap1\n      pop\n        /* \"#utility.yul\":28037:28456   */\n      swap2\n      swap1\n      pop\n      jump\t// out\n\n    auxdata: 0xa2646970667358221220fd17517692ff8a8629fd26bd4dee9d9f5e64b0164324f5387ad88646cf12343064736f6c634300081a0033\n}\n",
				"bytecode": {
					"linkReferences": {},
					"object": "608060405234801561000f575f80fd5b50335f73ffffffffffffffffffffffffffffffffffffffff168173ffffffffffffffffffffffffffffffffffffffff1603610081575f6040517f1e4fbdf70000000000000000000000000000000000000000000000000000000081526004016100789190610196565b60405180910390fd5b6100908161009660201b60201c565b506101af565b5f805f9054906101000a900473ffffffffffffffffffffffffffffffffffffffff169050815f806101000a81548173ffffffffffffffffffffffffffffffffffffffff021916908373ffffffffffffffffffffffffffffffffffffffff1602179055508173ffffffffffffffffffffffffffffffffffffffff168173ffffffffffffffffffffffffffffffffffffffff167f8be0079c531659141344cd1fd0a4f28419497f9722a3daafe3b4186f6b6457e060405160405180910390a35050565b5f73ffffffffffffffffffffffffffffffffffffffff82169050919050565b5f61018082610157565b9050919050565b61019081610176565b82525050565b5f6020820190506101a95f830184610187565b92915050565b61263d806101bc5f395ff3fe6080604052600436106100e7575f3560e01c80638da5cb5b11610089578063e06ec38411610058578063e06ec384146102dd578063f2fde38b14610319578063f46de7d414610341578063f98520de1461035d576100e7565b80638da5cb5b146102255780639bd308831461024f578063a33c513214610279578063bec0d799146102b5576100e7565b80635ac3e19e116100c55780635ac3e19e1461016757806368744046146101a75780636c42b8cd146101e7578063715018a61461020f576100e7565b806321e6de9d146100eb578063354528e814610113578063590791f21461013d575b5f80fd5b3480156100f6575f80fd5b50610111600480360381019061010c9190611882565b610385565b005b34801561011e575f80fd5b50610127610628565b6040516101349190611a64565b60405180910390f35b348015610148575f80fd5b5061015161077e565b60405161015e9190611a93565b60405180910390f35b348015610172575f80fd5b5061018d60048036038101906101889190611aac565b6107a3565b60405161019e959493929190611b48565b60405180910390f35b3480156101b2575f80fd5b506101cd60048036038101906101c89190611aac565b610935565b6040516101de959493929190611ba7565b60405180910390f35b3480156101f2575f80fd5b5061020d60048036038101906102089190611c60565b610aad565b005b34801561021a575f80fd5b50610223610d38565b005b348015610230575f80fd5b50610239610d4b565b6040516102469190611cad565b60405180910390f35b34801561025a575f80fd5b50610263610d72565b6040516102709190611cc6565b60405180910390f35b348015610284575f80fd5b5061029f600480360381019061029a9190611cdf565b610d92565b6040516102ac9190611a93565b60405180910390f35b3480156102c0575f80fd5b506102db60048036038101906102d69190611aac565b610dac565b005b3480156102e8575f80fd5b5061030360048036038101906102fe9190611cdf565b610f95565b6040516103109190611a93565b60405180910390f35b348015610324575f80fd5b5061033f600480360381019061033a9190611cdf565b61105e565b005b61035b60048036038101906103569190611d0a565b6110e2565b005b348015610368575f80fd5b50610383600480360381019061037e9190611d9d565b6110fa565b005b5f60015f8981526020019081526020015f205f01600c9054906101000a90046bffffffffffffffffffffffff166bffffffffffffffffffffffff1614610400576040517f08c379a00000000000000000000000000000000000000000000000000000000081526004016103f790611e32565b60405180910390fd5b6040518060a00160405280836bffffffffffffffffffffffff168152602001670de0b6b3a7640000836104339190611e7d565b6bffffffffffffffffffffffff1681526020015f846bffffffffffffffffffffffff16111515815260200187878080601f0160208091040260200160405190810160405280939291908181526020018383808284375f81840152601f19601f82011690508083019250505050505050815260200185858080601f0160208091040260200160405190810160405280939291908181526020018383808284375f81840152601f19601f8201169050808301925050505050505081525060015f8981526020019081526020015f205f820151815f015f6101000a8154816bffffffffffffffffffffffff02191690836bffffffffffffffffffffffff1602179055506020820151815f01600c6101000a8154816bffffffffffffffffffffffff02191690836bffffffffffffffffffffffff1602179055506040820151815f0160186101000a81548160ff021916908315150217905550606082015181600101908161059d91906120e0565b5060808201518160020190816105b391906120e0565b50905050600287908060018154018082558091505060019003905f5260205f20015f9091909190915055867f907463480edcb1016ad34b5c752a56e18c2aea6ed1dd0e18ec287d63d670d88f878787878688604051610617969594939291906121e9565b60405180910390a250505050505050565b60605f60028054905067ffffffffffffffff81111561064a57610649611eb9565b5b60405190808252806020026020018201604052801561067d57816020015b60608152602001906001900390816106685790505b5090505f5b600280549050811015610776575f60015f600284815481106106a7576106a661223e565b5b905f5260205f20015481526020019081526020015f2090508060010180546106ce90611f13565b80601f01602080910402602001604051908101604052809291908181526020018280546106fa90611f13565b80156107455780601f1061071c57610100808354040283529160200191610745565b820191905f5260205f20905b81548152906001019060200180831161072857829003601f168201915b505050505083838151811061075d5761075c61223e565b5b6020026020010181905250818060010192505050610682565b508091505090565b5f610787610d4b565b73ffffffffffffffffffffffffffffffffffffffff1631905090565b6060805f805f8060015f8881526020019081526020015f2090508060010181600201825f01600c9054906101000a90046bffffffffffffffffffffffff16835f015f9054906101000a90046bffffffffffffffffffffffff16845f0160189054906101000a900460ff1684805461081990611f13565b80601f016020809104026020016040519081016040528092919081815260200182805461084590611f13565b80156108905780601f1061086757610100808354040283529160200191610890565b820191905f5260205f20905b81548152906001019060200180831161087357829003601f168201915b505050505094508380546108a390611f13565b80601f01602080910402602001604051908101604052809291908181526020018280546108cf90611f13565b801561091a5780601f106108f15761010080835404028352916020019161091a565b820191905f5260205f20905b8154815290600101906020018083116108fd57829003601f168201915b50505050509350955095509550955095505091939590929450565b6001602052805f5260405f205f91509050805f015f9054906101000a90046bffffffffffffffffffffffff1690805f01600c9054906101000a90046bffffffffffffffffffffffff1690805f0160189054906101000a900460ff16908060010180546109a090611f13565b80601f01602080910402602001604051908101604052809291908181526020018280546109cc90611f13565b8015610a175780601f106109ee57610100808354040283529160200191610a17565b820191905f5260205f20905b8154815290600101906020018083116109fa57829003601f168201915b505050505090806002018054610a2c90611f13565b80601f0160208091040260200160405190810160405280929190818152602001828054610a5890611f13565b8015610aa35780601f10610a7a57610100808354040283529160200191610aa3565b820191905f5260205f20905b815481529060010190602001808311610a8657829003601f168201915b5050505050905085565b5f80670de0b6b3a7640000905080831015610acb57600a9150610b93565b808310158015610ae65750806003610ae3919061226b565b83105b15610af457600f9150610b92565b806003610b01919061226b565b8310158015610b1b5750806005610b18919061226b565b83105b15610b295760149150610b91565b806005610b36919061226b565b8310158015610b505750806008610b4d919061226b565b83105b15610b5e5760199150610b90565b806008610b6b919061226b565b8310158015610b85575080600a610b82919061226b565b83105b15610b8f57601e91505b5b5b5b5b5f60035f8673ffffffffffffffffffffffffffffffffffffffff1673ffffffffffffffffffffffffffffffffffffffff1681526020019081526020015f206040518060200160405290815f8201548152505090505f815f01511115610c4c578260035f8773ffffffffffffffffffffffffffffffffffffffff1673ffffffffffffffffffffffffffffffffffffffff1681526020019081526020015f205f015f828254610c4091906122ac565b92505081905550610ca4565b60405180602001604052808481525060035f8773ffffffffffffffffffffffffffffffffffffffff1673ffffffffffffffffffffffffffffffffffffffff1681526020019081526020015f205f820151815f01559050505b8473ffffffffffffffffffffffffffffffffffffffff167f2e09d9493c8a88b72578fd23604d9b5425c9be0fa86f8b58c76e2be94bcee6a960035f8873ffffffffffffffffffffffffffffffffffffffff1673ffffffffffffffffffffffffffffffffffffffff1681526020019081526020015f205f0154604051610d299190611a93565b60405180910390a25050505050565b610d4061132c565b610d495f6113b3565b565b5f805f9054906101000a900473ffffffffffffffffffffffffffffffffffffffff16905090565b5f8060149054906101000a90046bffffffffffffffffffffffff16905090565b6003602052805f5260405f205f91509050805f0154905081565b610db461132c565b5f60015f8381526020019081526020015f205f01600c9054906101000a90046bffffffffffffffffffffffff166bffffffffffffffffffffffff1603610e2f576040517f08c379a0000000000000000000000000000000000000000000000000000000008152600401610e2690612329565b60405180910390fd5b60015f8281526020019081526020015f205f8082015f6101000a8154906bffffffffffffffffffffffff02191690555f8201600c6101000a8154906bffffffffffffffffffffffff02191690555f820160186101000a81549060ff0219169055600182015f610e9e919061174d565b600282015f610ead919061174d565b50505f5b600280549050811015610f64578160028281548110610ed357610ed261223e565b5b905f5260205f20015403610f595760026001600280549050610ef59190612347565b81548110610f0657610f0561223e565b5b905f5260205f20015460028281548110610f2357610f2261223e565b5b905f5260205f2001819055506002805480610f4157610f4061237a565b5b600190038181905f5260205f20015f90559055610f64565b806001019050610eb1565b50807f3c5ce13264433bcf97e5d53c97af4fc33800e8c9dd927f965b116d0018d7cddf60405160405180910390a250565b5f8060035f8473ffffffffffffffffffffffffffffffffffffffff1673ffffffffffffffffffffffffffffffffffffffff1681526020019081526020015f205f015411611017576040517f08c379a000000000000000000000000000000000000000000000000000000000815260040161100e90612417565b60405180910390fd5b60035f8373ffffffffffffffffffffffffffffffffffffffff1673ffffffffffffffffffffffffffffffffffffffff1681526020019081526020015f205f01549050919050565b61106661132c565b5f73ffffffffffffffffffffffffffffffffffffffff168173ffffffffffffffffffffffffffffffffffffffff16036110d6575f6040517f1e4fbdf70000000000000000000000000000000000000000000000000000000081526004016110cd9190611cad565b60405180910390fd5b6110df816113b3565b50565b6110ec8282611474565b6110f63334610aad565b5050565b61110261132c565b5f8282905090505f5b818110156112ed575f8484838181106111275761112661223e565b5b9050602002013590505f60015f8381526020019081526020015f205f01600c9054906101000a90046bffffffffffffffffffffffff166bffffffffffffffffffffffff16036111ab576040517f08c379a00000000000000000000000000000000000000000000000000000000081526004016111a290612329565b60405180910390fd5b60015f8281526020019081526020015f205f8082015f6101000a8154906bffffffffffffffffffffffff02191690555f8201600c6101000a8154906bffffffffffffffffffffffff02191690555f820160186101000a81549060ff0219169055600182015f61121a919061174d565b600282015f611229919061174d565b50505f5b6002805490508110156112e057816002828154811061124f5761124e61223e565b5b905f5260205f200154036112d557600260016002805490506112719190612347565b815481106112825761128161223e565b5b905f5260205f2001546002828154811061129f5761129e61223e565b5b905f5260205f20018190555060028054806112bd576112bc61237a565b5b600190038181905f5260205f20015f905590556112e0565b80600101905061122d565b508160010191505061110b565b507f7262be1e48c30c363173fcb2fbf2dc2cb38d076dee42cc37cdfbdf62af5c3bed838360405161131f9291906124ad565b60405180910390a1505050565b611334611746565b73ffffffffffffffffffffffffffffffffffffffff16611352610d4b565b73ffffffffffffffffffffffffffffffffffffffff16146113b157611375611746565b6040517f118cdaa70000000000000000000000000000000000000000000000000000000081526004016113a89190611cad565b60405180910390fd5b565b5f805f9054906101000a900473ffffffffffffffffffffffffffffffffffffffff169050815f806101000a81548173ffffffffffffffffffffffffffffffffffffffff021916908373ffffffffffffffffffffffffffffffffffffffff1602179055508173ffffffffffffffffffffffffffffffffffffffff168173ffffffffffffffffffffffffffffffffffffffff167f8be0079c531659141344cd1fd0a4f28419497f9722a3daafe3b4186f6b6457e060405160405180910390a35050565b5f60015f8481526020019081526020015f209050805f0160189054906101000a900460ff166114d8576040517f08c379a00000000000000000000000000000000000000000000000000000000081526004016114cf90612519565b60405180910390fd5b816bffffffffffffffffffffffff16815f015f9054906101000a90046bffffffffffffffffffffffff166bffffffffffffffffffffffff161015611551576040517f08c379a000000000000000000000000000000000000000000000000000000000815260040161154890612581565b60405180910390fd5b81815f01600c9054906101000a90046bffffffffffffffffffffffff166115789190611e7d565b6bffffffffffffffffffffffff1634146115c7576040517f08c379a00000000000000000000000000000000000000000000000000000000081526004016115be906125e9565b60405180910390fd5b81815f015f8282829054906101000a90046bffffffffffffffffffffffff160392506101000a8154816bffffffffffffffffffffffff02191690836bffffffffffffffffffffffff160217905550815f60148282829054906101000a90046bffffffffffffffffffffffff160192506101000a8154816bffffffffffffffffffffffff02191690836bffffffffffffffffffffffff1602179055505f815f015f9054906101000a90046bffffffffffffffffffffffff166bffffffffffffffffffffffff1611815f0160186101000a81548160ff0219169083151502179055506116af610d4b565b73ffffffffffffffffffffffffffffffffffffffff166108fc3490811502906040515f60405180830381858888f193505050501580156116f1573d5f803e3d5ffd5b503373ffffffffffffffffffffffffffffffffffffffff16837f4e8e9bc53224dd7f5549d1a97fe174d12e6ff0064e2ccb78d886fc515c98859d846040516117399190611cc6565b60405180910390a3505050565b5f33905090565b50805461175990611f13565b5f825580601f1061176a5750611787565b601f0160209004905f5260205f2090810190611786919061178a565b5b50565b5b808211156117a1575f815f90555060010161178b565b5090565b5f80fd5b5f80fd5b5f819050919050565b6117bf816117ad565b81146117c9575f80fd5b50565b5f813590506117da816117b6565b92915050565b5f80fd5b5f80fd5b5f80fd5b5f8083601f840112611801576118006117e0565b5b8235905067ffffffffffffffff81111561181e5761181d6117e4565b5b60208301915083600182028301111561183a576118396117e8565b5b9250929050565b5f6bffffffffffffffffffffffff82169050919050565b61186181611841565b811461186b575f80fd5b50565b5f8135905061187c81611858565b92915050565b5f805f805f805f60a0888a03121561189d5761189c6117a5565b5b5f6118aa8a828b016117cc565b975050602088013567ffffffffffffffff8111156118cb576118ca6117a9565b5b6118d78a828b016117ec565b9650965050604088013567ffffffffffffffff8111156118fa576118f96117a9565b5b6119068a828b016117ec565b945094505060606119198a828b0161186e565b925050608061192a8a828b0161186e565b91505092959891949750929550565b5f81519050919050565b5f82825260208201905092915050565b5f819050602082019050919050565b5f81519050919050565b5f82825260208201905092915050565b8281835e5f83830152505050565b5f601f19601f8301169050919050565b5f6119a482611962565b6119ae818561196c565b93506119be81856020860161197c565b6119c78161198a565b840191505092915050565b5f6119dd838361199a565b905092915050565b5f602082019050919050565b5f6119fb82611939565b611a058185611943565b935083602082028501611a1785611953565b805f5b85811015611a525784840389528151611a3385826119d2565b9450611a3e836119e5565b925060208a01995050600181019050611a1a565b50829750879550505050505092915050565b5f6020820190508181035f830152611a7c81846119f1565b905092915050565b611a8d816117ad565b82525050565b5f602082019050611aa65f830184611a84565b92915050565b5f60208284031215611ac157611ac06117a5565b5b5f611ace848285016117cc565b91505092915050565b5f82825260208201905092915050565b5f611af182611962565b611afb8185611ad7565b9350611b0b81856020860161197c565b611b148161198a565b840191505092915050565b611b2881611841565b82525050565b5f8115159050919050565b611b4281611b2e565b82525050565b5f60a0820190508181035f830152611b608188611ae7565b90508181036020830152611b748187611ae7565b9050611b836040830186611b1f565b611b906060830185611b1f565b611b9d6080830184611b39565b9695505050505050565b5f60a082019050611bba5f830188611b1f565b611bc76020830187611b1f565b611bd46040830186611b39565b8181036060830152611be68185611ae7565b90508181036080830152611bfa8184611ae7565b90509695505050505050565b5f73ffffffffffffffffffffffffffffffffffffffff82169050919050565b5f611c2f82611c06565b9050919050565b611c3f81611c25565b8114611c49575f80fd5b50565b5f81359050611c5a81611c36565b92915050565b5f8060408385031215611c7657611c756117a5565b5b5f611c8385828601611c4c565b9250506020611c94858286016117cc565b9150509250929050565b611ca781611c25565b82525050565b5f602082019050611cc05f830184611c9e565b92915050565b5f602082019050611cd95f830184611b1f565b92915050565b5f60208284031215611cf457611cf36117a5565b5b5f611d0184828501611c4c565b91505092915050565b5f8060408385031215611d2057611d1f6117a5565b5b5f611d2d858286016117cc565b9250506020611d3e8582860161186e565b9150509250929050565b5f8083601f840112611d5d57611d5c6117e0565b5b8235905067ffffffffffffffff811115611d7a57611d796117e4565b5b602083019150836020820283011115611d9657611d956117e8565b5b9250929050565b5f8060208385031215611db357611db26117a5565b5b5f83013567ffffffffffffffff811115611dd057611dcf6117a9565b5b611ddc85828601611d48565b92509250509250929050565b7f426f6f6b206578697374730000000000000000000000000000000000000000005f82015250565b5f611e1c600b83611ad7565b9150611e2782611de8565b602082019050919050565b5f6020820190508181035f830152611e4981611e10565b9050919050565b7f4e487b71000000000000000000000000000000000000000000000000000000005f52601160045260245ffd5b5f611e8782611841565b9150611e9283611841565b9250828202611ea081611841565b9150808214611eb257611eb1611e50565b5b5092915050565b7f4e487b71000000000000000000000000000000000000000000000000000000005f52604160045260245ffd5b7f4e487b71000000000000000000000000000000000000000000000000000000005f52602260045260245ffd5b5f6002820490506001821680611f2a57607f821691505b602082108103611f3d57611f3c611ee6565b5b50919050565b5f819050815f5260205f209050919050565b5f6020601f8301049050919050565b5f82821b905092915050565b5f60088302611f9f7fffffffffffffffffffffffffffffffffffffffffffffffffffffffffffffffff82611f64565b611fa98683611f64565b95508019841693508086168417925050509392505050565b5f819050919050565b5f611fe4611fdf611fda846117ad565b611fc1565b6117ad565b9050919050565b5f819050919050565b611ffd83611fca565b61201161200982611feb565b848454611f70565b825550505050565b5f90565b612025612019565b612030818484611ff4565b505050565b5b81811015612053576120485f8261201d565b600181019050612036565b5050565b601f8211156120985761206981611f43565b61207284611f55565b81016020851015612081578190505b61209561208d85611f55565b830182612035565b50505b505050565b5f82821c905092915050565b5f6120b85f198460080261209d565b1980831691505092915050565b5f6120d083836120a9565b9150826002028217905092915050565b6120e982611962565b67ffffffffffffffff81111561210257612101611eb9565b5b61210c8254611f13565b612117828285612057565b5f60209050601f831160018114612148575f8415612136578287015190505b61214085826120c5565b8655506121a7565b601f19841661215686611f43565b5f5b8281101561217d57848901518255600182019150602085019450602081019050612158565b8683101561219a5784890151612196601f8916826120a9565b8355505b6001600288020188555050505b505050505050565b828183375f83830152505050565b5f6121c88385611ad7565b93506121d58385846121af565b6121de8361198a565b840190509392505050565b5f6080820190508181035f83015261220281888a6121bd565b905081810360208301526122178186886121bd565b90506122266040830185611b1f565b6122336060830184611b1f565b979650505050505050565b7f4e487b71000000000000000000000000000000000000000000000000000000005f52603260045260245ffd5b5f612275826117ad565b9150612280836117ad565b925082820261228e816117ad565b915082820484148315176122a5576122a4611e50565b5b5092915050565b5f6122b6826117ad565b91506122c1836117ad565b92508282019050808211156122d9576122d8611e50565b5b92915050565b7f426f6f6b206e6f742065786973740000000000000000000000000000000000005f82015250565b5f612313600e83611ad7565b915061231e826122df565b602082019050919050565b5f6020820190508181035f83015261234081612307565b9050919050565b5f612351826117ad565b915061235c836117ad565b925082820390508181111561237457612373611e50565b5b92915050565b7f4e487b71000000000000000000000000000000000000000000000000000000005f52603160045260245ffd5b7f437573746f6d657220486173204e6f74204a6f696e656420546865204c6f79615f8201527f6c74792050726f6772616d210000000000000000000000000000000000000000602082015250565b5f612401602c83611ad7565b915061240c826123a7565b604082019050919050565b5f6020820190508181035f83015261242e816123f5565b9050919050565b5f82825260208201905092915050565b5f80fd5b82818337505050565b5f61245d8385612435565b93507f07ffffffffffffffffffffffffffffffffffffffffffffffffffffffffffffff8311156124905761248f612445565b5b6020830292506124a1838584612449565b82840190509392505050565b5f6020820190508181035f8301526124c6818486612452565b90509392505050565b7f4e6f7420617661696c61626c65000000000000000000000000000000000000005f82015250565b5f612503600d83611ad7565b915061250e826124cf565b602082019050919050565b5f6020820190508181035f830152612530816124f7565b9050919050565b7f4e6f7420656e6f7567682073746f636b000000000000000000000000000000005f82015250565b5f61256b601083611ad7565b915061257682612537565b602082019050919050565b5f6020820190508181035f8301526125988161255f565b9050919050565b7f57726f6e67207061796d656e74000000000000000000000000000000000000005f82015250565b5f6125d3600d83611ad7565b91506125de8261259f565b602082019050919050565b5f6020820190508181035f830152612600816125c7565b905091905056fea2646970667358221220fd17517692ff8a8629fd26bd4dee9d9f5e64b0164324f5387ad88646cf12343064736f6c634300081a0033",
					"opcodes": "PUSH1 0x80 PUSH1 0x40 MSTORE CALLVALUE DUP1 ISZERO PUSH2 0xF JUMPI PUSH0 DUP1 REVERT JUMPDEST POP CALLER PUSH0 PUSH20 0xFFFFFFFFFFFFFFFFFFFFFFFFFFFFFFFFFFFFFFFF AND DUP2 PUSH20 0xFFFFFFFFFFFFFFFFFFFFFFFFFFFFFFFFFFFFFFFF AND SUB PUSH2 0x81 JUMPI PUSH0 PUSH1 0x40 MLOAD PUSH32 0x1E4FBDF700000000000000000000000000000000000000000000000000000000 DUP2 MSTORE PUSH1 0x4 ADD PUSH2 0x78 SWAP2 SWAP1 PUSH2 0x196 JUMP JUMPDEST PUSH1 0x40 MLOAD DUP1 SWAP2 SUB SWAP1 REVERT JUMPDEST PUSH2 0x90 DUP2 PUSH2 0x96 PUSH1 0x20 SHL PUSH1 0x20 SHR JUMP JUMPDEST POP PUSH2 0x1AF JUMP JUMPDEST PUSH0 DUP1 PUSH0 SWAP1 SLOAD SWAP1 PUSH2 0x100 EXP SWAP1 DIV PUSH20 0xFFFFFFFFFFFFFFFFFFFFFFFFFFFFFFFFFFFFFFFF AND SWAP1 POP DUP2 PUSH0 DUP1 PUSH2 0x100 EXP DUP2 SLOAD DUP2 PUSH20 0xFFFFFFFFFFFFFFFFFFFFFFFFFFFFFFFFFFFFFFFF MUL NOT AND SWAP1 DUP4 PUSH20 0xFFFFFFFFFFFFFFFFFFFFFFFFFFFFFFFFFFFFFFFF AND MUL OR SWAP1 SSTORE POP DUP2 PUSH20 0xFFFFFFFFFFFFFFFFFFFFFFFFFFFFFFFFFFFFFFFF AND DUP2 PUSH20 0xFFFFFFFFFFFFFFFFFFFFFFFFFFFFFFFFFFFFFFFF AND PUSH32 0x8BE0079C531659141344CD1FD0A4F28419497F9722A3DAAFE3B4186F6B6457E0 PUSH1 0x40 MLOAD PUSH1 0x40 MLOAD DUP1 SWAP2 SUB SWAP1 LOG3 POP POP JUMP JUMPDEST PUSH0 PUSH20 0xFFFFFFFFFFFFFFFFFFFFFFFFFFFFFFFFFFFFFFFF DUP3 AND SWAP1 POP SWAP2 SWAP1 POP JUMP JUMPDEST PUSH0 PUSH2 0x180 DUP3 PUSH2 0x157 JUMP JUMPDEST SWAP1 POP SWAP2 SWAP1 POP JUMP JUMPDEST PUSH2 0x190 DUP2 PUSH2 0x176 JUMP JUMPDEST DUP3 MSTORE POP POP JUMP JUMPDEST PUSH0 PUSH1 0x20 DUP3 ADD SWAP1 POP PUSH2 0x1A9 PUSH0 DUP4 ADD DUP5 PUSH2 0x187 JUMP JUMPDEST SWAP3 SWAP2 POP POP JUMP JUMPDEST PUSH2 0x263D DUP1 PUSH2 0x1BC PUSH0 CODECOPY PUSH0 RETURN INVALID PUSH1 0x80 PUSH1 0x40 MSTORE PUSH1 0x4 CALLDATASIZE LT PUSH2 0xE7 JUMPI PUSH0 CALLDATALOAD PUSH1 0xE0 SHR DUP1 PUSH4 0x8DA5CB5B GT PUSH2 0x89 JUMPI DUP1 PUSH4 0xE06EC384 GT PUSH2 0x58 JUMPI DUP1 PUSH4 0xE06EC384 EQ PUSH2 0x2DD JUMPI DUP1 PUSH4 0xF2FDE38B EQ PUSH2 0x319 JUMPI DUP1 PUSH4 0xF46DE7D4 EQ PUSH2 0x341 JUMPI DUP1 PUSH4 0xF98520DE EQ PUSH2 0x35D JUMPI PUSH2 0xE7 JUMP JUMPDEST DUP1 PUSH4 0x8DA5CB5B EQ PUSH2 0x225 JUMPI DUP1 PUSH4 0x9BD30883 EQ PUSH2 0x24F JUMPI DUP1 PUSH4 0xA33C5132 EQ PUSH2 0x279 JUMPI DUP1 PUSH4 0xBEC0D799 EQ PUSH2 0x2B5 JUMPI PUSH2 0xE7 JUMP JUMPDEST DUP1 PUSH4 0x5AC3E19E GT PUSH2 0xC5 JUMPI DUP1 PUSH4 0x5AC3E19E EQ PUSH2 0x167 JUMPI DUP1 PUSH4 0x68744046 EQ PUSH2 0x1A7 JUMPI DUP1 PUSH4 0x6C42B8CD EQ PUSH2 0x1E7 JUMPI DUP1 PUSH4 0x715018A6 EQ PUSH2 0x20F JUMPI PUSH2 0xE7 JUMP JUMPDEST DUP1 PUSH4 0x21E6DE9D EQ PUSH2 0xEB JUMPI DUP1 PUSH4 0x354528E8 EQ PUSH2 0x113 JUMPI DUP1 PUSH4 0x590791F2 EQ PUSH2 0x13D JUMPI JUMPDEST PUSH0 DUP1 REVERT JUMPDEST CALLVALUE DUP1 ISZERO PUSH2 0xF6 JUMPI PUSH0 DUP1 REVERT JUMPDEST POP PUSH2 0x111 PUSH1 0x4 DUP1 CALLDATASIZE SUB DUP2 ADD SWAP1 PUSH2 0x10C SWAP2 SWAP1 PUSH2 0x1882 JUMP JUMPDEST PUSH2 0x385 JUMP JUMPDEST STOP JUMPDEST CALLVALUE DUP1 ISZERO PUSH2 0x11E JUMPI PUSH0 DUP1 REVERT JUMPDEST POP PUSH2 0x127 PUSH2 0x628 JUMP JUMPDEST PUSH1 0x40 MLOAD PUSH2 0x134 SWAP2 SWAP1 PUSH2 0x1A64 JUMP JUMPDEST PUSH1 0x40 MLOAD DUP1 SWAP2 SUB SWAP1 RETURN JUMPDEST CALLVALUE DUP1 ISZERO PUSH2 0x148 JUMPI PUSH0 DUP1 REVERT JUMPDEST POP PUSH2 0x151 PUSH2 0x77E JUMP JUMPDEST PUSH1 0x40 MLOAD PUSH2 0x15E SWAP2 SWAP1 PUSH2 0x1A93 JUMP JUMPDEST PUSH1 0x40 MLOAD DUP1 SWAP2 SUB SWAP1 RETURN JUMPDEST CALLVALUE DUP1 ISZERO PUSH2 0x172 JUMPI PUSH0 DUP1 REVERT JUMPDEST POP PUSH2 0x18D PUSH1 0x4 DUP1 CALLDATASIZE SUB DUP2 ADD SWAP1 PUSH2 0x188 SWAP2 SWAP1 PUSH2 0x1AAC JUMP JUMPDEST PUSH2 0x7A3 JUMP JUMPDEST PUSH1 0x40 MLOAD PUSH2 0x19E SWAP6 SWAP5 SWAP4 SWAP3 SWAP2 SWAP1 PUSH2 0x1B48 JUMP JUMPDEST PUSH1 0x40 MLOAD DUP1 SWAP2 SUB SWAP1 RETURN JUMPDEST CALLVALUE DUP1 ISZERO PUSH2 0x1B2 JUMPI PUSH0 DUP1 REVERT JUMPDEST POP PUSH2 0x1CD PUSH1 0x4 DUP1 CALLDATASIZE SUB DUP2 ADD SWAP1 PUSH2 0x1C8 SWAP2 SWAP1 PUSH2 0x1AAC JUMP JUMPDEST PUSH2 0x935 JUMP JUMPDEST PUSH1 0x40 MLOAD PUSH2 0x1DE SWAP6 SWAP5 SWAP4 SWAP3 SWAP2 SWAP1 PUSH2 0x1BA7 JUMP JUMPDEST PUSH1 0x40 MLOAD DUP1 SWAP2 SUB SWAP1 RETURN JUMPDEST CALLVALUE DUP1 ISZERO PUSH2 0x1F2 JUMPI PUSH0 DUP1 REVERT JUMPDEST POP PUSH2 0x20D PUSH1 0x4 DUP1 CALLDATASIZE SUB DUP2 ADD SWAP1 PUSH2 0x208 SWAP2 SWAP1 PUSH2 0x1C60 JUMP JUMPDEST PUSH2 0xAAD JUMP JUMPDEST STOP JUMPDEST CALLVALUE DUP1 ISZERO PUSH2 0x21A JUMPI PUSH0 DUP1 REVERT JUMPDEST POP PUSH2 0x223 PUSH2 0xD38 JUMP JUMPDEST STOP JUMPDEST CALLVALUE DUP1 ISZERO PUSH2 0x230 JUMPI PUSH0 DUP1 REVERT JUMPDEST POP PUSH2 0x239 PUSH2 0xD4B JUMP JUMPDEST PUSH1 0x40 MLOAD PUSH2 0x246 SWAP2 SWAP1 PUSH2 0x1CAD JUMP JUMPDEST PUSH1 0x40 MLOAD DUP1 SWAP2 SUB SWAP1 RETURN JUMPDEST CALLVALUE DUP1 ISZERO PUSH2 0x25A JUMPI PUSH0 DUP1 REVERT JUMPDEST POP PUSH2 0x263 PUSH2 0xD72 JUMP JUMPDEST PUSH1 0x40 MLOAD PUSH2 0x270 SWAP2 SWAP1 PUSH2 0x1CC6 JUMP JUMPDEST PUSH1 0x40 MLOAD DUP1 SWAP2 SUB SWAP1 RETURN JUMPDEST CALLVALUE DUP1 ISZERO PUSH2 0x284 JUMPI PUSH0 DUP1 REVERT JUMPDEST POP PUSH2 0x29F PUSH1 0x4 DUP1 CALLDATASIZE SUB DUP2 ADD SWAP1 PUSH2 0x29A SWAP2 SWAP1 PUSH2 0x1CDF JUMP JUMPDEST PUSH2 0xD92 JUMP JUMPDEST PUSH1 0x40 MLOAD PUSH2 0x2AC SWAP2 SWAP1 PUSH2 0x1A93 JUMP JUMPDEST PUSH1 0x40 MLOAD DUP1 SWAP2 SUB SWAP1 RETURN JUMPDEST CALLVALUE DUP1 ISZERO PUSH2 0x2C0 JUMPI PUSH0 DUP1 REVERT JUMPDEST POP PUSH2 0x2DB PUSH1 0x4 DUP1 CALLDATASIZE SUB DUP2 ADD SWAP1 PUSH2 0x2D6 SWAP2 SWAP1 PUSH2 0x1AAC JUMP JUMPDEST PUSH2 0xDAC JUMP JUMPDEST STOP JUMPDEST CALLVALUE DUP1 ISZERO PUSH2 0x2E8 JUMPI PUSH0 DUP1 REVERT JUMPDEST POP PUSH2 0x303 PUSH1 0x4 DUP1 CALLDATASIZE SUB DUP2 ADD SWAP1 PUSH2 0x2FE SWAP2 SWAP1 PUSH2 0x1CDF JUMP JUMPDEST PUSH2 0xF95 JUMP JUMPDEST PUSH1 0x40 MLOAD PUSH2 0x310 SWAP2 SWAP1 PUSH2 0x1A93 JUMP JUMPDEST PUSH1 0x40 MLOAD DUP1 SWAP2 SUB SWAP1 RETURN JUMPDEST CALLVALUE DUP1 ISZERO PUSH2 0x324 JUMPI PUSH0 DUP1 REVERT JUMPDEST POP PUSH2 0x33F PUSH1 0x4 DUP1 CALLDATASIZE SUB DUP2 ADD SWAP1 PUSH2 0x33A SWAP2 SWAP1 PUSH2 0x1CDF JUMP JUMPDEST PUSH2 0x105E JUMP JUMPDEST STOP JUMPDEST PUSH2 0x35B PUSH1 0x4 DUP1 CALLDATASIZE SUB DUP2 ADD SWAP1 PUSH2 0x356 SWAP2 SWAP1 PUSH2 0x1D0A JUMP JUMPDEST PUSH2 0x10E2 JUMP JUMPDEST STOP JUMPDEST CALLVALUE DUP1 ISZERO PUSH2 0x368 JUMPI PUSH0 DUP1 REVERT JUMPDEST POP PUSH2 0x383 PUSH1 0x4 DUP1 CALLDATASIZE SUB DUP2 ADD SWAP1 PUSH2 0x37E SWAP2 SWAP1 PUSH2 0x1D9D JUMP JUMPDEST PUSH2 0x10FA JUMP JUMPDEST STOP JUMPDEST PUSH0 PUSH1 0x1 PUSH0 DUP10 DUP2 MSTORE PUSH1 0x20 ADD SWAP1 DUP2 MSTORE PUSH1 0x20 ADD PUSH0 KECCAK256 PUSH0 ADD PUSH1 0xC SWAP1 SLOAD SWAP1 PUSH2 0x100 EXP SWAP1 DIV PUSH12 0xFFFFFFFFFFFFFFFFFFFFFFFF AND PUSH12 0xFFFFFFFFFFFFFFFFFFFFFFFF AND EQ PUSH2 0x400 JUMPI PUSH1 0x40 MLOAD PUSH32 0x8C379A000000000000000000000000000000000000000000000000000000000 DUP2 MSTORE PUSH1 0x4 ADD PUSH2 0x3F7 SWAP1 PUSH2 0x1E32 JUMP JUMPDEST PUSH1 0x40 MLOAD DUP1 SWAP2 SUB SWAP1 REVERT JUMPDEST PUSH1 0x40 MLOAD DUP1 PUSH1 0xA0 ADD PUSH1 0x40 MSTORE DUP1 DUP4 PUSH12 0xFFFFFFFFFFFFFFFFFFFFFFFF AND DUP2 MSTORE PUSH1 0x20 ADD PUSH8 0xDE0B6B3A7640000 DUP4 PUSH2 0x433 SWAP2 SWAP1 PUSH2 0x1E7D JUMP JUMPDEST PUSH12 0xFFFFFFFFFFFFFFFFFFFFFFFF AND DUP2 MSTORE PUSH1 0x20 ADD PUSH0 DUP5 PUSH12 0xFFFFFFFFFFFFFFFFFFFFFFFF AND GT ISZERO ISZERO DUP2 MSTORE PUSH1 0x20 ADD DUP8 DUP8 DUP1 DUP1 PUSH1 0x1F ADD PUSH1 0x20 DUP1 SWAP2 DIV MUL PUSH1 0x20 ADD PUSH1 0x40 MLOAD SWAP1 DUP2 ADD PUSH1 0x40 MSTORE DUP1 SWAP4 SWAP3 SWAP2 SWAP1 DUP2 DUP2 MSTORE PUSH1 0x20 ADD DUP4 DUP4 DUP1 DUP3 DUP5 CALLDATACOPY PUSH0 DUP2 DUP5 ADD MSTORE PUSH1 0x1F NOT PUSH1 0x1F DUP3 ADD AND SWAP1 POP DUP1 DUP4 ADD SWAP3 POP POP POP POP POP POP POP DUP2 MSTORE PUSH1 0x20 ADD DUP6 DUP6 DUP1 DUP1 PUSH1 0x1F ADD PUSH1 0x20 DUP1 SWAP2 DIV MUL PUSH1 0x20 ADD PUSH1 0x40 MLOAD SWAP1 DUP2 ADD PUSH1 0x40 MSTORE DUP1 SWAP4 SWAP3 SWAP2 SWAP1 DUP2 DUP2 MSTORE PUSH1 0x20 ADD DUP4 DUP4 DUP1 DUP3 DUP5 CALLDATACOPY PUSH0 DUP2 DUP5 ADD MSTORE PUSH1 0x1F NOT PUSH1 0x1F DUP3 ADD AND SWAP1 POP DUP1 DUP4 ADD SWAP3 POP POP POP POP POP POP POP DUP2 MSTORE POP PUSH1 0x1 PUSH0 DUP10 DUP2 MSTORE PUSH1 0x20 ADD SWAP1 DUP2 MSTORE PUSH1 0x20 ADD PUSH0 KECCAK256 PUSH0 DUP3 ADD MLOAD DUP2 PUSH0 ADD PUSH0 PUSH2 0x100 EXP DUP2 SLOAD DUP2 PUSH12 0xFFFFFFFFFFFFFFFFFFFFFFFF MUL NOT AND SWAP1 DUP4 PUSH12 0xFFFFFFFFFFFFFFFFFFFFFFFF AND MUL OR SWAP1 SSTORE POP PUSH1 0x20 DUP3 ADD MLOAD DUP2 PUSH0 ADD PUSH1 0xC PUSH2 0x100 EXP DUP2 SLOAD DUP2 PUSH12 0xFFFFFFFFFFFFFFFFFFFFFFFF MUL NOT AND SWAP1 DUP4 PUSH12 0xFFFFFFFFFFFFFFFFFFFFFFFF AND MUL OR SWAP1 SSTORE POP PUSH1 0x40 DUP3 ADD MLOAD DUP2 PUSH0 ADD PUSH1 0x18 PUSH2 0x100 EXP DUP2 SLOAD DUP2 PUSH1 0xFF MUL NOT AND SWAP1 DUP4 ISZERO ISZERO MUL OR SWAP1 SSTORE POP PUSH1 0x60 DUP3 ADD MLOAD DUP2 PUSH1 0x1 ADD SWAP1 DUP2 PUSH2 0x59D SWAP2 SWAP1 PUSH2 0x20E0 JUMP JUMPDEST POP PUSH1 0x80 DUP3 ADD MLOAD DUP2 PUSH1 0x2 ADD SWAP1 DUP2 PUSH2 0x5B3 SWAP2 SWAP1 PUSH2 0x20E0 JUMP JUMPDEST POP SWAP1 POP POP PUSH1 0x2 DUP8 SWAP1 DUP1 PUSH1 0x1 DUP2 SLOAD ADD DUP1 DUP3 SSTORE DUP1 SWAP2 POP POP PUSH1 0x1 SWAP1 SUB SWAP1 PUSH0 MSTORE PUSH1 0x20 PUSH0 KECCAK256 ADD PUSH0 SWAP1 SWAP2 SWAP1 SWAP2 SWAP1 SWAP2 POP SSTORE DUP7 PUSH32 0x907463480EDCB1016AD34B5C752A56E18C2AEA6ED1DD0E18EC287D63D670D88F DUP8 DUP8 DUP8 DUP8 DUP7 DUP9 PUSH1 0x40 MLOAD PUSH2 0x617 SWAP7 SWAP6 SWAP5 SWAP4 SWAP3 SWAP2 SWAP1 PUSH2 0x21E9 JUMP JUMPDEST PUSH1 0x40 MLOAD DUP1 SWAP2 SUB SWAP1 LOG2 POP POP POP POP POP POP POP JUMP JUMPDEST PUSH1 0x60 PUSH0 PUSH1 0x2 DUP1 SLOAD SWAP1 POP PUSH8 0xFFFFFFFFFFFFFFFF DUP2 GT ISZERO PUSH2 0x64A JUMPI PUSH2 0x649 PUSH2 0x1EB9 JUMP JUMPDEST JUMPDEST PUSH1 0x40 MLOAD SWAP1 DUP1 DUP3 MSTORE DUP1 PUSH1 0x20 MUL PUSH1 0x20 ADD DUP3 ADD PUSH1 0x40 MSTORE DUP1 ISZERO PUSH2 0x67D JUMPI DUP2 PUSH1 0x20 ADD JUMPDEST PUSH1 0x60 DUP2 MSTORE PUSH1 0x20 ADD SWAP1 PUSH1 0x1 SWAP1 SUB SWAP1 DUP2 PUSH2 0x668 JUMPI SWAP1 POP JUMPDEST POP SWAP1 POP PUSH0 JUMPDEST PUSH1 0x2 DUP1 SLOAD SWAP1 POP DUP2 LT ISZERO PUSH2 0x776 JUMPI PUSH0 PUSH1 0x1 PUSH0 PUSH1 0x2 DUP5 DUP2 SLOAD DUP2 LT PUSH2 0x6A7 JUMPI PUSH2 0x6A6 PUSH2 0x223E JUMP JUMPDEST JUMPDEST SWAP1 PUSH0 MSTORE PUSH1 0x20 PUSH0 KECCAK256 ADD SLOAD DUP2 MSTORE PUSH1 0x20 ADD SWAP1 DUP2 MSTORE PUSH1 0x20 ADD PUSH0 KECCAK256 SWAP1 POP DUP1 PUSH1 0x1 ADD DUP1 SLOAD PUSH2 0x6CE SWAP1 PUSH2 0x1F13 JUMP JUMPDEST DUP1 PUSH1 0x1F ADD PUSH1 0x20 DUP1 SWAP2 DIV MUL PUSH1 0x20 ADD PUSH1 0x40 MLOAD SWAP1 DUP2 ADD PUSH1 0x40 MSTORE DUP1 SWAP3 SWAP2 SWAP1 DUP2 DUP2 MSTORE PUSH1 0x20 ADD DUP3 DUP1 SLOAD PUSH2 0x6FA SWAP1 PUSH2 0x1F13 JUMP JUMPDEST DUP1 ISZERO PUSH2 0x745 JUMPI DUP1 PUSH1 0x1F LT PUSH2 0x71C JUMPI PUSH2 0x100 DUP1 DUP4 SLOAD DIV MUL DUP4 MSTORE SWAP2 PUSH1 0x20 ADD SWAP2 PUSH2 0x745 JUMP JUMPDEST DUP3 ADD SWAP2 SWAP1 PUSH0 MSTORE PUSH1 0x20 PUSH0 KECCAK256 SWAP1 JUMPDEST DUP2 SLOAD DUP2 MSTORE SWAP1 PUSH1 0x1 ADD SWAP1 PUSH1 0x20 ADD DUP1 DUP4 GT PUSH2 0x728 JUMPI DUP3 SWAP1 SUB PUSH1 0x1F AND DUP3 ADD SWAP2 JUMPDEST POP POP POP POP POP DUP4 DUP4 DUP2 MLOAD DUP2 LT PUSH2 0x75D JUMPI PUSH2 0x75C PUSH2 0x223E JUMP JUMPDEST JUMPDEST PUSH1 0x20 MUL PUSH1 0x20 ADD ADD DUP2 SWAP1 MSTORE POP DUP2 DUP1 PUSH1 0x1 ADD SWAP3 POP POP POP PUSH2 0x682 JUMP JUMPDEST POP DUP1 SWAP2 POP POP SWAP1 JUMP JUMPDEST PUSH0 PUSH2 0x787 PUSH2 0xD4B JUMP JUMPDEST PUSH20 0xFFFFFFFFFFFFFFFFFFFFFFFFFFFFFFFFFFFFFFFF AND BALANCE SWAP1 POP SWAP1 JUMP JUMPDEST PUSH1 0x60 DUP1 PUSH0 DUP1 PUSH0 DUP1 PUSH1 0x1 PUSH0 DUP9 DUP2 MSTORE PUSH1 0x20 ADD SWAP1 DUP2 MSTORE PUSH1 0x20 ADD PUSH0 KECCAK256 SWAP1 POP DUP1 PUSH1 0x1 ADD DUP2 PUSH1 0x2 ADD DUP3 PUSH0 ADD PUSH1 0xC SWAP1 SLOAD SWAP1 PUSH2 0x100 EXP SWAP1 DIV PUSH12 0xFFFFFFFFFFFFFFFFFFFFFFFF AND DUP4 PUSH0 ADD PUSH0 SWAP1 SLOAD SWAP1 PUSH2 0x100 EXP SWAP1 DIV PUSH12 0xFFFFFFFFFFFFFFFFFFFFFFFF AND DUP5 PUSH0 ADD PUSH1 0x18 SWAP1 SLOAD SWAP1 PUSH2 0x100 EXP SWAP1 DIV PUSH1 0xFF AND DUP5 DUP1 SLOAD PUSH2 0x819 SWAP1 PUSH2 0x1F13 JUMP JUMPDEST DUP1 PUSH1 0x1F ADD PUSH1 0x20 DUP1 SWAP2 DIV MUL PUSH1 0x20 ADD PUSH1 0x40 MLOAD SWAP1 DUP2 ADD PUSH1 0x40 MSTORE DUP1 SWAP3 SWAP2 SWAP1 DUP2 DUP2 MSTORE PUSH1 0x20 ADD DUP3 DUP1 SLOAD PUSH2 0x845 SWAP1 PUSH2 0x1F13 JUMP JUMPDEST DUP1 ISZERO PUSH2 0x890 JUMPI DUP1 PUSH1 0x1F LT PUSH2 0x867 JUMPI PUSH2 0x100 DUP1 DUP4 SLOAD DIV MUL DUP4 MSTORE SWAP2 PUSH1 0x20 ADD SWAP2 PUSH2 0x890 JUMP JUMPDEST DUP3 ADD SWAP2 SWAP1 PUSH0 MSTORE PUSH1 0x20 PUSH0 KECCAK256 SWAP1 JUMPDEST DUP2 SLOAD DUP2 MSTORE SWAP1 PUSH1 0x1 ADD SWAP1 PUSH1 0x20 ADD DUP1 DUP4 GT PUSH2 0x873 JUMPI DUP3 SWAP1 SUB PUSH1 0x1F AND DUP3 ADD SWAP2 JUMPDEST POP POP POP POP POP SWAP5 POP DUP4 DUP1 SLOAD PUSH2 0x8A3 SWAP1 PUSH2 0x1F13 JUMP JUMPDEST DUP1 PUSH1 0x1F ADD PUSH1 0x20 DUP1 SWAP2 DIV MUL PUSH1 0x20 ADD PUSH1 0x40 MLOAD SWAP1 DUP2 ADD PUSH1 0x40 MSTORE DUP1 SWAP3 SWAP2 SWAP1 DUP2 DUP2 MSTORE PUSH1 0x20 ADD DUP3 DUP1 SLOAD PUSH2 0x8CF SWAP1 PUSH2 0x1F13 JUMP JUMPDEST DUP1 ISZERO PUSH2 0x91A JUMPI DUP1 PUSH1 0x1F LT PUSH2 0x8F1 JUMPI PUSH2 0x100 DUP1 DUP4 SLOAD DIV MUL DUP4 MSTORE SWAP2 PUSH1 0x20 ADD SWAP2 PUSH2 0x91A JUMP JUMPDEST DUP3 ADD SWAP2 SWAP1 PUSH0 MSTORE PUSH1 0x20 PUSH0 KECCAK256 SWAP1 JUMPDEST DUP2 SLOAD DUP2 MSTORE SWAP1 PUSH1 0x1 ADD SWAP1 PUSH1 0x20 ADD DUP1 DUP4 GT PUSH2 0x8FD JUMPI DUP3 SWAP1 SUB PUSH1 0x1F AND DUP3 ADD SWAP2 JUMPDEST POP POP POP POP POP SWAP4 POP SWAP6 POP SWAP6 POP SWAP6 POP SWAP6 POP SWAP6 POP POP SWAP2 SWAP4 SWAP6 SWAP1 SWAP3 SWAP5 POP JUMP JUMPDEST PUSH1 0x1 PUSH1 0x20 MSTORE DUP1 PUSH0 MSTORE PUSH1 0x40 PUSH0 KECCAK256 PUSH0 SWAP2 POP SWAP1 POP DUP1 PUSH0 ADD PUSH0 SWAP1 SLOAD SWAP1 PUSH2 0x100 EXP SWAP1 DIV PUSH12 0xFFFFFFFFFFFFFFFFFFFFFFFF AND SWAP1 DUP1 PUSH0 ADD PUSH1 0xC SWAP1 SLOAD SWAP1 PUSH2 0x100 EXP SWAP1 DIV PUSH12 0xFFFFFFFFFFFFFFFFFFFFFFFF AND SWAP1 DUP1 PUSH0 ADD PUSH1 0x18 SWAP1 SLOAD SWAP1 PUSH2 0x100 EXP SWAP1 DIV PUSH1 0xFF AND SWAP1 DUP1 PUSH1 0x1 ADD DUP1 SLOAD PUSH2 0x9A0 SWAP1 PUSH2 0x1F13 JUMP JUMPDEST DUP1 PUSH1 0x1F ADD PUSH1 0x20 DUP1 SWAP2 DIV MUL PUSH1 0x20 ADD PUSH1 0x40 MLOAD SWAP1 DUP2 ADD PUSH1 0x40 MSTORE DUP1 SWAP3 SWAP2 SWAP1 DUP2 DUP2 MSTORE PUSH1 0x20 ADD DUP3 DUP1 SLOAD PUSH2 0x9CC SWAP1 PUSH2 0x1F13 JUMP JUMPDEST DUP1 ISZERO PUSH2 0xA17 JUMPI DUP1 PUSH1 0x1F LT PUSH2 0x9EE JUMPI PUSH2 0x100 DUP1 DUP4 SLOAD DIV MUL DUP4 MSTORE SWAP2 PUSH1 0x20 ADD SWAP2 PUSH2 0xA17 JUMP JUMPDEST DUP3 ADD SWAP2 SWAP1 PUSH0 MSTORE PUSH1 0x20 PUSH0 KECCAK256 SWAP1 JUMPDEST DUP2 SLOAD DUP2 MSTORE SWAP1 PUSH1 0x1 ADD SWAP1 PUSH1 0x20 ADD DUP1 DUP4 GT PUSH2 0x9FA JUMPI DUP3 SWAP1 SUB PUSH1 0x1F AND DUP3 ADD SWAP2 JUMPDEST POP POP POP POP POP SWAP1 DUP1 PUSH1 0x2 ADD DUP1 SLOAD PUSH2 0xA2C SWAP1 PUSH2 0x1F13 JUMP JUMPDEST DUP1 PUSH1 0x1F ADD PUSH1 0x20 DUP1 SWAP2 DIV MUL PUSH1 0x20 ADD PUSH1 0x40 MLOAD SWAP1 DUP2 ADD PUSH1 0x40 MSTORE DUP1 SWAP3 SWAP2 SWAP1 DUP2 DUP2 MSTORE PUSH1 0x20 ADD DUP3 DUP1 SLOAD PUSH2 0xA58 SWAP1 PUSH2 0x1F13 JUMP JUMPDEST DUP1 ISZERO PUSH2 0xAA3 JUMPI DUP1 PUSH1 0x1F LT PUSH2 0xA7A JUMPI PUSH2 0x100 DUP1 DUP4 SLOAD DIV MUL DUP4 MSTORE SWAP2 PUSH1 0x20 ADD SWAP2 PUSH2 0xAA3 JUMP JUMPDEST DUP3 ADD SWAP2 SWAP1 PUSH0 MSTORE PUSH1 0x20 PUSH0 KECCAK256 SWAP1 JUMPDEST DUP2 SLOAD DUP2 MSTORE SWAP1 PUSH1 0x1 ADD SWAP1 PUSH1 0x20 ADD DUP1 DUP4 GT PUSH2 0xA86 JUMPI DUP3 SWAP1 SUB PUSH1 0x1F AND DUP3 ADD SWAP2 JUMPDEST POP POP POP POP POP SWAP1 POP DUP6 JUMP JUMPDEST PUSH0 DUP1 PUSH8 0xDE0B6B3A7640000 SWAP1 POP DUP1 DUP4 LT ISZERO PUSH2 0xACB JUMPI PUSH1 0xA SWAP2 POP PUSH2 0xB93 JUMP JUMPDEST DUP1 DUP4 LT ISZERO DUP1 ISZERO PUSH2 0xAE6 JUMPI POP DUP1 PUSH1 0x3 PUSH2 0xAE3 SWAP2 SWAP1 PUSH2 0x226B JUMP JUMPDEST DUP4 LT JUMPDEST ISZERO PUSH2 0xAF4 JUMPI PUSH1 0xF SWAP2 POP PUSH2 0xB92 JUMP JUMPDEST DUP1 PUSH1 0x3 PUSH2 0xB01 SWAP2 SWAP1 PUSH2 0x226B JUMP JUMPDEST DUP4 LT ISZERO DUP1 ISZERO PUSH2 0xB1B JUMPI POP DUP1 PUSH1 0x5 PUSH2 0xB18 SWAP2 SWAP1 PUSH2 0x226B JUMP JUMPDEST DUP4 LT JUMPDEST ISZERO PUSH2 0xB29 JUMPI PUSH1 0x14 SWAP2 POP PUSH2 0xB91 JUMP JUMPDEST DUP1 PUSH1 0x5 PUSH2 0xB36 SWAP2 SWAP1 PUSH2 0x226B JUMP JUMPDEST DUP4 LT ISZERO DUP1 ISZERO PUSH2 0xB50 JUMPI POP DUP1 PUSH1 0x8 PUSH2 0xB4D SWAP2 SWAP1 PUSH2 0x226B JUMP JUMPDEST DUP4 LT JUMPDEST ISZERO PUSH2 0xB5E JUMPI PUSH1 0x19 SWAP2 POP PUSH2 0xB90 JUMP JUMPDEST DUP1 PUSH1 0x8 PUSH2 0xB6B SWAP2 SWAP1 PUSH2 0x226B JUMP JUMPDEST DUP4 LT ISZERO DUP1 ISZERO PUSH2 0xB85 JUMPI POP DUP1 PUSH1 0xA PUSH2 0xB82 SWAP2 SWAP1 PUSH2 0x226B JUMP JUMPDEST DUP4 LT JUMPDEST ISZERO PUSH2 0xB8F JUMPI PUSH1 0x1E SWAP2 POP JUMPDEST JUMPDEST JUMPDEST JUMPDEST JUMPDEST PUSH0 PUSH1 0x3 PUSH0 DUP7 PUSH20 0xFFFFFFFFFFFFFFFFFFFFFFFFFFFFFFFFFFFFFFFF AND PUSH20 0xFFFFFFFFFFFFFFFFFFFFFFFFFFFFFFFFFFFFFFFF AND DUP2 MSTORE PUSH1 0x20 ADD SWAP1 DUP2 MSTORE PUSH1 0x20 ADD PUSH0 KECCAK256 PUSH1 0x40 MLOAD DUP1 PUSH1 0x20 ADD PUSH1 0x40 MSTORE SWAP1 DUP2 PUSH0 DUP3 ADD SLOAD DUP2 MSTORE POP POP SWAP1 POP PUSH0 DUP2 PUSH0 ADD MLOAD GT ISZERO PUSH2 0xC4C JUMPI DUP3 PUSH1 0x3 PUSH0 DUP8 PUSH20 0xFFFFFFFFFFFFFFFFFFFFFFFFFFFFFFFFFFFFFFFF AND PUSH20 0xFFFFFFFFFFFFFFFFFFFFFFFFFFFFFFFFFFFFFFFF AND DUP2 MSTORE PUSH1 0x20 ADD SWAP1 DUP2 MSTORE PUSH1 0x20 ADD PUSH0 KECCAK256 PUSH0 ADD PUSH0 DUP3 DUP3 SLOAD PUSH2 0xC40 SWAP2 SWAP1 PUSH2 0x22AC JUMP JUMPDEST SWAP3 POP POP DUP2 SWAP1 SSTORE POP PUSH2 0xCA4 JUMP JUMPDEST PUSH1 0x40 MLOAD DUP1 PUSH1 0x20 ADD PUSH1 0x40 MSTORE DUP1 DUP5 DUP2 MSTORE POP PUSH1 0x3 PUSH0 DUP8 PUSH20 0xFFFFFFFFFFFFFFFFFFFFFFFFFFFFFFFFFFFFFFFF AND PUSH20 0xFFFFFFFFFFFFFFFFFFFFFFFFFFFFFFFFFFFFFFFF AND DUP2 MSTORE PUSH1 0x20 ADD SWAP1 DUP2 MSTORE PUSH1 0x20 ADD PUSH0 KECCAK256 PUSH0 DUP3 ADD MLOAD DUP2 PUSH0 ADD SSTORE SWAP1 POP POP JUMPDEST DUP5 PUSH20 0xFFFFFFFFFFFFFFFFFFFFFFFFFFFFFFFFFFFFFFFF AND PUSH32 0x2E09D9493C8A88B72578FD23604D9B5425C9BE0FA86F8B58C76E2BE94BCEE6A9 PUSH1 0x3 PUSH0 DUP9 PUSH20 0xFFFFFFFFFFFFFFFFFFFFFFFFFFFFFFFFFFFFFFFF AND PUSH20 0xFFFFFFFFFFFFFFFFFFFFFFFFFFFFFFFFFFFFFFFF AND DUP2 MSTORE PUSH1 0x20 ADD SWAP1 DUP2 MSTORE PUSH1 0x20 ADD PUSH0 KECCAK256 PUSH0 ADD SLOAD PUSH1 0x40 MLOAD PUSH2 0xD29 SWAP2 SWAP1 PUSH2 0x1A93 JUMP JUMPDEST PUSH1 0x40 MLOAD DUP1 SWAP2 SUB SWAP1 LOG2 POP POP POP POP POP JUMP JUMPDEST PUSH2 0xD40 PUSH2 0x132C JUMP JUMPDEST PUSH2 0xD49 PUSH0 PUSH2 0x13B3 JUMP JUMPDEST JUMP JUMPDEST PUSH0 DUP1 PUSH0 SWAP1 SLOAD SWAP1 PUSH2 0x100 EXP SWAP1 DIV PUSH20 0xFFFFFFFFFFFFFFFFFFFFFFFFFFFFFFFFFFFFFFFF AND SWAP1 POP SWAP1 JUMP JUMPDEST PUSH0 DUP1 PUSH1 0x14 SWAP1 SLOAD SWAP1 PUSH2 0x100 EXP SWAP1 DIV PUSH12 0xFFFFFFFFFFFFFFFFFFFFFFFF AND SWAP1 POP SWAP1 JUMP JUMPDEST PUSH1 0x3 PUSH1 0x20 MSTORE DUP1 PUSH0 MSTORE PUSH1 0x40 PUSH0 KECCAK256 PUSH0 SWAP2 POP SWAP1 POP DUP1 PUSH0 ADD SLOAD SWAP1 POP DUP2 JUMP JUMPDEST PUSH2 0xDB4 PUSH2 0x132C JUMP JUMPDEST PUSH0 PUSH1 0x1 PUSH0 DUP4 DUP2 MSTORE PUSH1 0x20 ADD SWAP1 DUP2 MSTORE PUSH1 0x20 ADD PUSH0 KECCAK256 PUSH0 ADD PUSH1 0xC SWAP1 SLOAD SWAP1 PUSH2 0x100 EXP SWAP1 DIV PUSH12 0xFFFFFFFFFFFFFFFFFFFFFFFF AND PUSH12 0xFFFFFFFFFFFFFFFFFFFFFFFF AND SUB PUSH2 0xE2F JUMPI PUSH1 0x40 MLOAD PUSH32 0x8C379A000000000000000000000000000000000000000000000000000000000 DUP2 MSTORE PUSH1 0x4 ADD PUSH2 0xE26 SWAP1 PUSH2 0x2329 JUMP JUMPDEST PUSH1 0x40 MLOAD DUP1 SWAP2 SUB SWAP1 REVERT JUMPDEST PUSH1 0x1 PUSH0 DUP3 DUP2 MSTORE PUSH1 0x20 ADD SWAP1 DUP2 MSTORE PUSH1 0x20 ADD PUSH0 KECCAK256 PUSH0 DUP1 DUP3 ADD PUSH0 PUSH2 0x100 EXP DUP2 SLOAD SWAP1 PUSH12 0xFFFFFFFFFFFFFFFFFFFFFFFF MUL NOT AND SWAP1 SSTORE PUSH0 DUP3 ADD PUSH1 0xC PUSH2 0x100 EXP DUP2 SLOAD SWAP1 PUSH12 0xFFFFFFFFFFFFFFFFFFFFFFFF MUL NOT AND SWAP1 SSTORE PUSH0 DUP3 ADD PUSH1 0x18 PUSH2 0x100 EXP DUP2 SLOAD SWAP1 PUSH1 0xFF MUL NOT AND SWAP1 SSTORE PUSH1 0x1 DUP3 ADD PUSH0 PUSH2 0xE9E SWAP2 SWAP1 PUSH2 0x174D JUMP JUMPDEST PUSH1 0x2 DUP3 ADD PUSH0 PUSH2 0xEAD SWAP2 SWAP1 PUSH2 0x174D JUMP JUMPDEST POP POP PUSH0 JUMPDEST PUSH1 0x2 DUP1 SLOAD SWAP1 POP DUP2 LT ISZERO PUSH2 0xF64 JUMPI DUP2 PUSH1 0x2 DUP3 DUP2 SLOAD DUP2 LT PUSH2 0xED3 JUMPI PUSH2 0xED2 PUSH2 0x223E JUMP JUMPDEST JUMPDEST SWAP1 PUSH0 MSTORE PUSH1 0x20 PUSH0 KECCAK256 ADD SLOAD SUB PUSH2 0xF59 JUMPI PUSH1 0x2 PUSH1 0x1 PUSH1 0x2 DUP1 SLOAD SWAP1 POP PUSH2 0xEF5 SWAP2 SWAP1 PUSH2 0x2347 JUMP JUMPDEST DUP2 SLOAD DUP2 LT PUSH2 0xF06 JUMPI PUSH2 0xF05 PUSH2 0x223E JUMP JUMPDEST JUMPDEST SWAP1 PUSH0 MSTORE PUSH1 0x20 PUSH0 KECCAK256 ADD SLOAD PUSH1 0x2 DUP3 DUP2 SLOAD DUP2 LT PUSH2 0xF23 JUMPI PUSH2 0xF22 PUSH2 0x223E JUMP JUMPDEST JUMPDEST SWAP1 PUSH0 MSTORE PUSH1 0x20 PUSH0 KECCAK256 ADD DUP2 SWAP1 SSTORE POP PUSH1 0x2 DUP1 SLOAD DUP1 PUSH2 0xF41 JUMPI PUSH2 0xF40 PUSH2 0x237A JUMP JUMPDEST JUMPDEST PUSH1 0x1 SWAP1 SUB DUP2 DUP2 SWAP1 PUSH0 MSTORE PUSH1 0x20 PUSH0 KECCAK256 ADD PUSH0 SWAP1 SSTORE SWAP1 SSTORE PUSH2 0xF64 JUMP JUMPDEST DUP1 PUSH1 0x1 ADD SWAP1 POP PUSH2 0xEB1 JUMP JUMPDEST POP DUP1 PUSH32 0x3C5CE13264433BCF97E5D53C97AF4FC33800E8C9DD927F965B116D0018D7CDDF PUSH1 0x40 MLOAD PUSH1 0x40 MLOAD DUP1 SWAP2 SUB SWAP1 LOG2 POP JUMP JUMPDEST PUSH0 DUP1 PUSH1 0x3 PUSH0 DUP5 PUSH20 0xFFFFFFFFFFFFFFFFFFFFFFFFFFFFFFFFFFFFFFFF AND PUSH20 0xFFFFFFFFFFFFFFFFFFFFFFFFFFFFFFFFFFFFFFFF AND DUP2 MSTORE PUSH1 0x20 ADD SWAP1 DUP2 MSTORE PUSH1 0x20 ADD PUSH0 KECCAK256 PUSH0 ADD SLOAD GT PUSH2 0x1017 JUMPI PUSH1 0x40 MLOAD PUSH32 0x8C379A000000000000000000000000000000000000000000000000000000000 DUP2 MSTORE PUSH1 0x4 ADD PUSH2 0x100E SWAP1 PUSH2 0x2417 JUMP JUMPDEST PUSH1 0x40 MLOAD DUP1 SWAP2 SUB SWAP1 REVERT JUMPDEST PUSH1 0x3 PUSH0 DUP4 PUSH20 0xFFFFFFFFFFFFFFFFFFFFFFFFFFFFFFFFFFFFFFFF AND PUSH20 0xFFFFFFFFFFFFFFFFFFFFFFFFFFFFFFFFFFFFFFFF AND DUP2 MSTORE PUSH1 0x20 ADD SWAP1 DUP2 MSTORE PUSH1 0x20 ADD PUSH0 KECCAK256 PUSH0 ADD SLOAD SWAP1 POP SWAP2 SWAP1 POP JUMP JUMPDEST PUSH2 0x1066 PUSH2 0x132C JUMP JUMPDEST PUSH0 PUSH20 0xFFFFFFFFFFFFFFFFFFFFFFFFFFFFFFFFFFFFFFFF AND DUP2 PUSH20 0xFFFFFFFFFFFFFFFFFFFFFFFFFFFFFFFFFFFFFFFF AND SUB PUSH2 0x10D6 JUMPI PUSH0 PUSH1 0x40 MLOAD PUSH32 0x1E4FBDF700000000000000000000000000000000000000000000000000000000 DUP2 MSTORE PUSH1 0x4 ADD PUSH2 0x10CD SWAP2 SWAP1 PUSH2 0x1CAD JUMP JUMPDEST PUSH1 0x40 MLOAD DUP1 SWAP2 SUB SWAP1 REVERT JUMPDEST PUSH2 0x10DF DUP2 PUSH2 0x13B3 JUMP JUMPDEST POP JUMP JUMPDEST PUSH2 0x10EC DUP3 DUP3 PUSH2 0x1474 JUMP JUMPDEST PUSH2 0x10F6 CALLER CALLVALUE PUSH2 0xAAD JUMP JUMPDEST POP POP JUMP JUMPDEST PUSH2 0x1102 PUSH2 0x132C JUMP JUMPDEST PUSH0 DUP3 DUP3 SWAP1 POP SWAP1 POP PUSH0 JUMPDEST DUP2 DUP2 LT ISZERO PUSH2 0x12ED JUMPI PUSH0 DUP5 DUP5 DUP4 DUP2 DUP2 LT PUSH2 0x1127 JUMPI PUSH2 0x1126 PUSH2 0x223E JUMP JUMPDEST JUMPDEST SWAP1 POP PUSH1 0x20 MUL ADD CALLDATALOAD SWAP1 POP PUSH0 PUSH1 0x1 PUSH0 DUP4 DUP2 MSTORE PUSH1 0x20 ADD SWAP1 DUP2 MSTORE PUSH1 0x20 ADD PUSH0 KECCAK256 PUSH0 ADD PUSH1 0xC SWAP1 SLOAD SWAP1 PUSH2 0x100 EXP SWAP1 DIV PUSH12 0xFFFFFFFFFFFFFFFFFFFFFFFF AND PUSH12 0xFFFFFFFFFFFFFFFFFFFFFFFF AND SUB PUSH2 0x11AB JUMPI PUSH1 0x40 MLOAD PUSH32 0x8C379A000000000000000000000000000000000000000000000000000000000 DUP2 MSTORE PUSH1 0x4 ADD PUSH2 0x11A2 SWAP1 PUSH2 0x2329 JUMP JUMPDEST PUSH1 0x40 MLOAD DUP1 SWAP2 SUB SWAP1 REVERT JUMPDEST PUSH1 0x1 PUSH0 DUP3 DUP2 MSTORE PUSH1 0x20 ADD SWAP1 DUP2 MSTORE PUSH1 0x20 ADD PUSH0 KECCAK256 PUSH0 DUP1 DUP3 ADD PUSH0 PUSH2 0x100 EXP DUP2 SLOAD SWAP1 PUSH12 0xFFFFFFFFFFFFFFFFFFFFFFFF MUL NOT AND SWAP1 SSTORE PUSH0 DUP3 ADD PUSH1 0xC PUSH2 0x100 EXP DUP2 SLOAD SWAP1 PUSH12 0xFFFFFFFFFFFFFFFFFFFFFFFF MUL NOT AND SWAP1 SSTORE PUSH0 DUP3 ADD PUSH1 0x18 PUSH2 0x100 EXP DUP2 SLOAD SWAP1 PUSH1 0xFF MUL NOT AND SWAP1 SSTORE PUSH1 0x1 DUP3 ADD PUSH0 PUSH2 0x121A SWAP2 SWAP1 PUSH2 0x174D JUMP JUMPDEST PUSH1 0x2 DUP3 ADD PUSH0 PUSH2 0x1229 SWAP2 SWAP1 PUSH2 0x174D JUMP JUMPDEST POP POP PUSH0 JUMPDEST PUSH1 0x2 DUP1 SLOAD SWAP1 POP DUP2 LT ISZERO PUSH2 0x12E0 JUMPI DUP2 PUSH1 0x2 DUP3 DUP2 SLOAD DUP2 LT PUSH2 0x124F JUMPI PUSH2 0x124E PUSH2 0x223E JUMP JUMPDEST JUMPDEST SWAP1 PUSH0 MSTORE PUSH1 0x20 PUSH0 KECCAK256 ADD SLOAD SUB PUSH2 0x12D5 JUMPI PUSH1 0x2 PUSH1 0x1 PUSH1 0x2 DUP1 SLOAD SWAP1 POP PUSH2 0x1271 SWAP2 SWAP1 PUSH2 0x2347 JUMP JUMPDEST DUP2 SLOAD DUP2 LT PUSH2 0x1282 JUMPI PUSH2 0x1281 PUSH2 0x223E JUMP JUMPDEST JUMPDEST SWAP1 PUSH0 MSTORE PUSH1 0x20 PUSH0 KECCAK256 ADD SLOAD PUSH1 0x2 DUP3 DUP2 SLOAD DUP2 LT PUSH2 0x129F JUMPI PUSH2 0x129E PUSH2 0x223E JUMP JUMPDEST JUMPDEST SWAP1 PUSH0 MSTORE PUSH1 0x20 PUSH0 KECCAK256 ADD DUP2 SWAP1 SSTORE POP PUSH1 0x2 DUP1 SLOAD DUP1 PUSH2 0x12BD JUMPI PUSH2 0x12BC PUSH2 0x237A JUMP JUMPDEST JUMPDEST PUSH1 0x1 SWAP1 SUB DUP2 DUP2 SWAP1 PUSH0 MSTORE PUSH1 0x20 PUSH0 KECCAK256 ADD PUSH0 SWAP1 SSTORE SWAP1 SSTORE PUSH2 0x12E0 JUMP JUMPDEST DUP1 PUSH1 0x1 ADD SWAP1 POP PUSH2 0x122D JUMP JUMPDEST POP DUP2 PUSH1 0x1 ADD SWAP2 POP POP PUSH2 0x110B JUMP JUMPDEST POP PUSH32 0x7262BE1E48C30C363173FCB2FBF2DC2CB38D076DEE42CC37CDFBDF62AF5C3BED DUP4 DUP4 PUSH1 0x40 MLOAD PUSH2 0x131F SWAP3 SWAP2 SWAP1 PUSH2 0x24AD JUMP JUMPDEST PUSH1 0x40 MLOAD DUP1 SWAP2 SUB SWAP1 LOG1 POP POP POP JUMP JUMPDEST PUSH2 0x1334 PUSH2 0x1746 JUMP JUMPDEST PUSH20 0xFFFFFFFFFFFFFFFFFFFFFFFFFFFFFFFFFFFFFFFF AND PUSH2 0x1352 PUSH2 0xD4B JUMP JUMPDEST PUSH20 0xFFFFFFFFFFFFFFFFFFFFFFFFFFFFFFFFFFFFFFFF AND EQ PUSH2 0x13B1 JUMPI PUSH2 0x1375 PUSH2 0x1746 JUMP JUMPDEST PUSH1 0x40 MLOAD PUSH32 0x118CDAA700000000000000000000000000000000000000000000000000000000 DUP2 MSTORE PUSH1 0x4 ADD PUSH2 0x13A8 SWAP2 SWAP1 PUSH2 0x1CAD JUMP JUMPDEST PUSH1 0x40 MLOAD DUP1 SWAP2 SUB SWAP1 REVERT JUMPDEST JUMP JUMPDEST PUSH0 DUP1 PUSH0 SWAP1 SLOAD SWAP1 PUSH2 0x100 EXP SWAP1 DIV PUSH20 0xFFFFFFFFFFFFFFFFFFFFFFFFFFFFFFFFFFFFFFFF AND SWAP1 POP DUP2 PUSH0 DUP1 PUSH2 0x100 EXP DUP2 SLOAD DUP2 PUSH20 0xFFFFFFFFFFFFFFFFFFFFFFFFFFFFFFFFFFFFFFFF MUL NOT AND SWAP1 DUP4 PUSH20 0xFFFFFFFFFFFFFFFFFFFFFFFFFFFFFFFFFFFFFFFF AND MUL OR SWAP1 SSTORE POP DUP2 PUSH20 0xFFFFFFFFFFFFFFFFFFFFFFFFFFFFFFFFFFFFFFFF AND DUP2 PUSH20 0xFFFFFFFFFFFFFFFFFFFFFFFFFFFFFFFFFFFFFFFF AND PUSH32 0x8BE0079C531659141344CD1FD0A4F28419497F9722A3DAAFE3B4186F6B6457E0 PUSH1 0x40 MLOAD PUSH1 0x40 MLOAD DUP1 SWAP2 SUB SWAP1 LOG3 POP POP JUMP JUMPDEST PUSH0 PUSH1 0x1 PUSH0 DUP5 DUP2 MSTORE PUSH1 0x20 ADD SWAP1 DUP2 MSTORE PUSH1 0x20 ADD PUSH0 KECCAK256 SWAP1 POP DUP1 PUSH0 ADD PUSH1 0x18 SWAP1 SLOAD SWAP1 PUSH2 0x100 EXP SWAP1 DIV PUSH1 0xFF AND PUSH2 0x14D8 JUMPI PUSH1 0x40 MLOAD PUSH32 0x8C379A000000000000000000000000000000000000000000000000000000000 DUP2 MSTORE PUSH1 0x4 ADD PUSH2 0x14CF SWAP1 PUSH2 0x2519 JUMP JUMPDEST PUSH1 0x40 MLOAD DUP1 SWAP2 SUB SWAP1 REVERT JUMPDEST DUP2 PUSH12 0xFFFFFFFFFFFFFFFFFFFFFFFF AND DUP2 PUSH0 ADD PUSH0 SWAP1 SLOAD SWAP1 PUSH2 0x100 EXP SWAP1 DIV PUSH12 0xFFFFFFFFFFFFFFFFFFFFFFFF AND PUSH12 0xFFFFFFFFFFFFFFFFFFFFFFFF AND LT ISZERO PUSH2 0x1551 JUMPI PUSH1 0x40 MLOAD PUSH32 0x8C379A000000000000000000000000000000000000000000000000000000000 DUP2 MSTORE PUSH1 0x4 ADD PUSH2 0x1548 SWAP1 PUSH2 0x2581 JUMP JUMPDEST PUSH1 0x40 MLOAD DUP1 SWAP2 SUB SWAP1 REVERT JUMPDEST DUP2 DUP2 PUSH0 ADD PUSH1 0xC SWAP1 SLOAD SWAP1 PUSH2 0x100 EXP SWAP1 DIV PUSH12 0xFFFFFFFFFFFFFFFFFFFFFFFF AND PUSH2 0x1578 SWAP2 SWAP1 PUSH2 0x1E7D JUMP JUMPDEST PUSH12 0xFFFFFFFFFFFFFFFFFFFFFFFF AND CALLVALUE EQ PUSH2 0x15C7 JUMPI PUSH1 0x40 MLOAD PUSH32 0x8C379A000000000000000000000000000000000000000000000000000000000 DUP2 MSTORE PUSH1 0x4 ADD PUSH2 0x15BE SWAP1 PUSH2 0x25E9 JUMP JUMPDEST PUSH1 0x40 MLOAD DUP1 SWAP2 SUB SWAP1 REVERT JUMPDEST DUP2 DUP2 PUSH0 ADD PUSH0 DUP3 DUP3 DUP3 SWAP1 SLOAD SWAP1 PUSH2 0x100 EXP SWAP1 DIV PUSH12 0xFFFFFFFFFFFFFFFFFFFFFFFF AND SUB SWAP3 POP PUSH2 0x100 EXP DUP2 SLOAD DUP2 PUSH12 0xFFFFFFFFFFFFFFFFFFFFFFFF MUL NOT AND SWAP1 DUP4 PUSH12 0xFFFFFFFFFFFFFFFFFFFFFFFF AND MUL OR SWAP1 SSTORE POP DUP2 PUSH0 PUSH1 0x14 DUP3 DUP3 DUP3 SWAP1 SLOAD SWAP1 PUSH2 0x100 EXP SWAP1 DIV PUSH12 0xFFFFFFFFFFFFFFFFFFFFFFFF AND ADD SWAP3 POP PUSH2 0x100 EXP DUP2 SLOAD DUP2 PUSH12 0xFFFFFFFFFFFFFFFFFFFFFFFF MUL NOT AND SWAP1 DUP4 PUSH12 0xFFFFFFFFFFFFFFFFFFFFFFFF AND MUL OR SWAP1 SSTORE POP PUSH0 DUP2 PUSH0 ADD PUSH0 SWAP1 SLOAD SWAP1 PUSH2 0x100 EXP SWAP1 DIV PUSH12 0xFFFFFFFFFFFFFFFFFFFFFFFF AND PUSH12 0xFFFFFFFFFFFFFFFFFFFFFFFF AND GT DUP2 PUSH0 ADD PUSH1 0x18 PUSH2 0x100 EXP DUP2 SLOAD DUP2 PUSH1 0xFF MUL NOT AND SWAP1 DUP4 ISZERO ISZERO MUL OR SWAP1 SSTORE POP PUSH2 0x16AF PUSH2 0xD4B JUMP JUMPDEST PUSH20 0xFFFFFFFFFFFFFFFFFFFFFFFFFFFFFFFFFFFFFFFF AND PUSH2 0x8FC CALLVALUE SWAP1 DUP2 ISZERO MUL SWAP1 PUSH1 0x40 MLOAD PUSH0 PUSH1 0x40 MLOAD DUP1 DUP4 SUB DUP2 DUP6 DUP9 DUP9 CALL SWAP4 POP POP POP POP ISZERO DUP1 ISZERO PUSH2 0x16F1 JUMPI RETURNDATASIZE PUSH0 DUP1 RETURNDATACOPY RETURNDATASIZE PUSH0 REVERT JUMPDEST POP CALLER PUSH20 0xFFFFFFFFFFFFFFFFFFFFFFFFFFFFFFFFFFFFFFFF AND DUP4 PUSH32 0x4E8E9BC53224DD7F5549D1A97FE174D12E6FF0064E2CCB78D886FC515C98859D DUP5 PUSH1 0x40 MLOAD PUSH2 0x1739 SWAP2 SWAP1 PUSH2 0x1CC6 JUMP JUMPDEST PUSH1 0x40 MLOAD DUP1 SWAP2 SUB SWAP1 LOG3 POP POP POP JUMP JUMPDEST PUSH0 CALLER SWAP1 POP SWAP1 JUMP JUMPDEST POP DUP1 SLOAD PUSH2 0x1759 SWAP1 PUSH2 0x1F13 JUMP JUMPDEST PUSH0 DUP3 SSTORE DUP1 PUSH1 0x1F LT PUSH2 0x176A JUMPI POP PUSH2 0x1787 JUMP JUMPDEST PUSH1 0x1F ADD PUSH1 0x20 SWAP1 DIV SWAP1 PUSH0 MSTORE PUSH1 0x20 PUSH0 KECCAK256 SWAP1 DUP2 ADD SWAP1 PUSH2 0x1786 SWAP2 SWAP1 PUSH2 0x178A JUMP JUMPDEST JUMPDEST POP JUMP JUMPDEST JUMPDEST DUP1 DUP3 GT ISZERO PUSH2 0x17A1 JUMPI PUSH0 DUP2 PUSH0 SWAP1 SSTORE POP PUSH1 0x1 ADD PUSH2 0x178B JUMP JUMPDEST POP SWAP1 JUMP JUMPDEST PUSH0 DUP1 REVERT JUMPDEST PUSH0 DUP1 REVERT JUMPDEST PUSH0 DUP2 SWAP1 POP SWAP2 SWAP1 POP JUMP JUMPDEST PUSH2 0x17BF DUP2 PUSH2 0x17AD JUMP JUMPDEST DUP2 EQ PUSH2 0x17C9 JUMPI PUSH0 DUP1 REVERT JUMPDEST POP JUMP JUMPDEST PUSH0 DUP2 CALLDATALOAD SWAP1 POP PUSH2 0x17DA DUP2 PUSH2 0x17B6 JUMP JUMPDEST SWAP3 SWAP2 POP POP JUMP JUMPDEST PUSH0 DUP1 REVERT JUMPDEST PUSH0 DUP1 REVERT JUMPDEST PUSH0 DUP1 REVERT JUMPDEST PUSH0 DUP1 DUP4 PUSH1 0x1F DUP5 ADD SLT PUSH2 0x1801 JUMPI PUSH2 0x1800 PUSH2 0x17E0 JUMP JUMPDEST JUMPDEST DUP3 CALLDATALOAD SWAP1 POP PUSH8 0xFFFFFFFFFFFFFFFF DUP2 GT ISZERO PUSH2 0x181E JUMPI PUSH2 0x181D PUSH2 0x17E4 JUMP JUMPDEST JUMPDEST PUSH1 0x20 DUP4 ADD SWAP2 POP DUP4 PUSH1 0x1 DUP3 MUL DUP4 ADD GT ISZERO PUSH2 0x183A JUMPI PUSH2 0x1839 PUSH2 0x17E8 JUMP JUMPDEST JUMPDEST SWAP3 POP SWAP3 SWAP1 POP JUMP JUMPDEST PUSH0 PUSH12 0xFFFFFFFFFFFFFFFFFFFFFFFF DUP3 AND SWAP1 POP SWAP2 SWAP1 POP JUMP JUMPDEST PUSH2 0x1861 DUP2 PUSH2 0x1841 JUMP JUMPDEST DUP2 EQ PUSH2 0x186B JUMPI PUSH0 DUP1 REVERT JUMPDEST POP JUMP JUMPDEST PUSH0 DUP2 CALLDATALOAD SWAP1 POP PUSH2 0x187C DUP2 PUSH2 0x1858 JUMP JUMPDEST SWAP3 SWAP2 POP POP JUMP JUMPDEST PUSH0 DUP1 PUSH0 DUP1 PUSH0 DUP1 PUSH0 PUSH1 0xA0 DUP9 DUP11 SUB SLT ISZERO PUSH2 0x189D JUMPI PUSH2 0x189C PUSH2 0x17A5 JUMP JUMPDEST JUMPDEST PUSH0 PUSH2 0x18AA DUP11 DUP3 DUP12 ADD PUSH2 0x17CC JUMP JUMPDEST SWAP8 POP POP PUSH1 0x20 DUP9 ADD CALLDATALOAD PUSH8 0xFFFFFFFFFFFFFFFF DUP2 GT ISZERO PUSH2 0x18CB JUMPI PUSH2 0x18CA PUSH2 0x17A9 JUMP JUMPDEST JUMPDEST PUSH2 0x18D7 DUP11 DUP3 DUP12 ADD PUSH2 0x17EC JUMP JUMPDEST SWAP7 POP SWAP7 POP POP PUSH1 0x40 DUP9 ADD CALLDATALOAD PUSH8 0xFFFFFFFFFFFFFFFF DUP2 GT ISZERO PUSH2 0x18FA JUMPI PUSH2 0x18F9 PUSH2 0x17A9 JUMP JUMPDEST JUMPDEST PUSH2 0x1906 DUP11 DUP3 DUP12 ADD PUSH2 0x17EC JUMP JUMPDEST SWAP5 POP SWAP5 POP POP PUSH1 0x60 PUSH2 0x1919 DUP11 DUP3 DUP12 ADD PUSH2 0x186E JUMP JUMPDEST SWAP3 POP POP PUSH1 0x80 PUSH2 0x192A DUP11 DUP3 DUP12 ADD PUSH2 0x186E JUMP JUMPDEST SWAP2 POP POP SWAP3 SWAP6 SWAP9 SWAP2 SWAP5 SWAP8 POP SWAP3 SWAP6 POP JUMP JUMPDEST PUSH0 DUP2 MLOAD SWAP1 POP SWAP2 SWAP1 POP JUMP JUMPDEST PUSH0 DUP3 DUP3 MSTORE PUSH1 0x20 DUP3 ADD SWAP1 POP SWAP3 SWAP2 POP POP JUMP JUMPDEST PUSH0 DUP2 SWAP1 POP PUSH1 0x20 DUP3 ADD SWAP1 POP SWAP2 SWAP1 POP JUMP JUMPDEST PUSH0 DUP2 MLOAD SWAP1 POP SWAP2 SWAP1 POP JUMP JUMPDEST PUSH0 DUP3 DUP3 MSTORE PUSH1 0x20 DUP3 ADD SWAP1 POP SWAP3 SWAP2 POP POP JUMP JUMPDEST DUP3 DUP2 DUP4 MCOPY PUSH0 DUP4 DUP4 ADD MSTORE POP POP POP JUMP JUMPDEST PUSH0 PUSH1 0x1F NOT PUSH1 0x1F DUP4 ADD AND SWAP1 POP SWAP2 SWAP1 POP JUMP JUMPDEST PUSH0 PUSH2 0x19A4 DUP3 PUSH2 0x1962 JUMP JUMPDEST PUSH2 0x19AE DUP2 DUP6 PUSH2 0x196C JUMP JUMPDEST SWAP4 POP PUSH2 0x19BE DUP2 DUP6 PUSH1 0x20 DUP7 ADD PUSH2 0x197C JUMP JUMPDEST PUSH2 0x19C7 DUP2 PUSH2 0x198A JUMP JUMPDEST DUP5 ADD SWAP2 POP POP SWAP3 SWAP2 POP POP JUMP JUMPDEST PUSH0 PUSH2 0x19DD DUP4 DUP4 PUSH2 0x199A JUMP JUMPDEST SWAP1 POP SWAP3 SWAP2 POP POP JUMP JUMPDEST PUSH0 PUSH1 0x20 DUP3 ADD SWAP1 POP SWAP2 SWAP1 POP JUMP JUMPDEST PUSH0 PUSH2 0x19FB DUP3 PUSH2 0x1939 JUMP JUMPDEST PUSH2 0x1A05 DUP2 DUP6 PUSH2 0x1943 JUMP JUMPDEST SWAP4 POP DUP4 PUSH1 0x20 DUP3 MUL DUP6 ADD PUSH2 0x1A17 DUP6 PUSH2 0x1953 JUMP JUMPDEST DUP1 PUSH0 JUMPDEST DUP6 DUP2 LT ISZERO PUSH2 0x1A52 JUMPI DUP5 DUP5 SUB DUP10 MSTORE DUP2 MLOAD PUSH2 0x1A33 DUP6 DUP3 PUSH2 0x19D2 JUMP JUMPDEST SWAP5 POP PUSH2 0x1A3E DUP4 PUSH2 0x19E5 JUMP JUMPDEST SWAP3 POP PUSH1 0x20 DUP11 ADD SWAP10 POP POP PUSH1 0x1 DUP2 ADD SWAP1 POP PUSH2 0x1A1A JUMP JUMPDEST POP DUP3 SWAP8 POP DUP8 SWAP6 POP POP POP POP POP POP SWAP3 SWAP2 POP POP JUMP JUMPDEST PUSH0 PUSH1 0x20 DUP3 ADD SWAP1 POP DUP2 DUP2 SUB PUSH0 DUP4 ADD MSTORE PUSH2 0x1A7C DUP2 DUP5 PUSH2 0x19F1 JUMP JUMPDEST SWAP1 POP SWAP3 SWAP2 POP POP JUMP JUMPDEST PUSH2 0x1A8D DUP2 PUSH2 0x17AD JUMP JUMPDEST DUP3 MSTORE POP POP JUMP JUMPDEST PUSH0 PUSH1 0x20 DUP3 ADD SWAP1 POP PUSH2 0x1AA6 PUSH0 DUP4 ADD DUP5 PUSH2 0x1A84 JUMP JUMPDEST SWAP3 SWAP2 POP POP JUMP JUMPDEST PUSH0 PUSH1 0x20 DUP3 DUP5 SUB SLT ISZERO PUSH2 0x1AC1 JUMPI PUSH2 0x1AC0 PUSH2 0x17A5 JUMP JUMPDEST JUMPDEST PUSH0 PUSH2 0x1ACE DUP5 DUP3 DUP6 ADD PUSH2 0x17CC JUMP JUMPDEST SWAP2 POP POP SWAP3 SWAP2 POP POP JUMP JUMPDEST PUSH0 DUP3 DUP3 MSTORE PUSH1 0x20 DUP3 ADD SWAP1 POP SWAP3 SWAP2 POP POP JUMP JUMPDEST PUSH0 PUSH2 0x1AF1 DUP3 PUSH2 0x1962 JUMP JUMPDEST PUSH2 0x1AFB DUP2 DUP6 PUSH2 0x1AD7 JUMP JUMPDEST SWAP4 POP PUSH2 0x1B0B DUP2 DUP6 PUSH1 0x20 DUP7 ADD PUSH2 0x197C JUMP JUMPDEST PUSH2 0x1B14 DUP2 PUSH2 0x198A JUMP JUMPDEST DUP5 ADD SWAP2 POP POP SWAP3 SWAP2 POP POP JUMP JUMPDEST PUSH2 0x1B28 DUP2 PUSH2 0x1841 JUMP JUMPDEST DUP3 MSTORE POP POP JUMP JUMPDEST PUSH0 DUP2 ISZERO ISZERO SWAP1 POP SWAP2 SWAP1 POP JUMP JUMPDEST PUSH2 0x1B42 DUP2 PUSH2 0x1B2E JUMP JUMPDEST DUP3 MSTORE POP POP JUMP JUMPDEST PUSH0 PUSH1 0xA0 DUP3 ADD SWAP1 POP DUP2 DUP2 SUB PUSH0 DUP4 ADD MSTORE PUSH2 0x1B60 DUP2 DUP9 PUSH2 0x1AE7 JUMP JUMPDEST SWAP1 POP DUP2 DUP2 SUB PUSH1 0x20 DUP4 ADD MSTORE PUSH2 0x1B74 DUP2 DUP8 PUSH2 0x1AE7 JUMP JUMPDEST SWAP1 POP PUSH2 0x1B83 PUSH1 0x40 DUP4 ADD DUP7 PUSH2 0x1B1F JUMP JUMPDEST PUSH2 0x1B90 PUSH1 0x60 DUP4 ADD DUP6 PUSH2 0x1B1F JUMP JUMPDEST PUSH2 0x1B9D PUSH1 0x80 DUP4 ADD DUP5 PUSH2 0x1B39 JUMP JUMPDEST SWAP7 SWAP6 POP POP POP POP POP POP JUMP JUMPDEST PUSH0 PUSH1 0xA0 DUP3 ADD SWAP1 POP PUSH2 0x1BBA PUSH0 DUP4 ADD DUP9 PUSH2 0x1B1F JUMP JUMPDEST PUSH2 0x1BC7 PUSH1 0x20 DUP4 ADD DUP8 PUSH2 0x1B1F JUMP JUMPDEST PUSH2 0x1BD4 PUSH1 0x40 DUP4 ADD DUP7 PUSH2 0x1B39 JUMP JUMPDEST DUP2 DUP2 SUB PUSH1 0x60 DUP4 ADD MSTORE PUSH2 0x1BE6 DUP2 DUP6 PUSH2 0x1AE7 JUMP JUMPDEST SWAP1 POP DUP2 DUP2 SUB PUSH1 0x80 DUP4 ADD MSTORE PUSH2 0x1BFA DUP2 DUP5 PUSH2 0x1AE7 JUMP JUMPDEST SWAP1 POP SWAP7 SWAP6 POP POP POP POP POP POP JUMP JUMPDEST PUSH0 PUSH20 0xFFFFFFFFFFFFFFFFFFFFFFFFFFFFFFFFFFFFFFFF DUP3 AND SWAP1 POP SWAP2 SWAP1 POP JUMP JUMPDEST PUSH0 PUSH2 0x1C2F DUP3 PUSH2 0x1C06 JUMP JUMPDEST SWAP1 POP SWAP2 SWAP1 POP JUMP JUMPDEST PUSH2 0x1C3F DUP2 PUSH2 0x1C25 JUMP JUMPDEST DUP2 EQ PUSH2 0x1C49 JUMPI PUSH0 DUP1 REVERT JUMPDEST POP JUMP JUMPDEST PUSH0 DUP2 CALLDATALOAD SWAP1 POP PUSH2 0x1C5A DUP2 PUSH2 0x1C36 JUMP JUMPDEST SWAP3 SWAP2 POP POP JUMP JUMPDEST PUSH0 DUP1 PUSH1 0x40 DUP4 DUP6 SUB SLT ISZERO PUSH2 0x1C76 JUMPI PUSH2 0x1C75 PUSH2 0x17A5 JUMP JUMPDEST JUMPDEST PUSH0 PUSH2 0x1C83 DUP6 DUP3 DUP7 ADD PUSH2 0x1C4C JUMP JUMPDEST SWAP3 POP POP PUSH1 0x20 PUSH2 0x1C94 DUP6 DUP3 DUP7 ADD PUSH2 0x17CC JUMP JUMPDEST SWAP2 POP POP SWAP3 POP SWAP3 SWAP1 POP JUMP JUMPDEST PUSH2 0x1CA7 DUP2 PUSH2 0x1C25 JUMP JUMPDEST DUP3 MSTORE POP POP JUMP JUMPDEST PUSH0 PUSH1 0x20 DUP3 ADD SWAP1 POP PUSH2 0x1CC0 PUSH0 DUP4 ADD DUP5 PUSH2 0x1C9E JUMP JUMPDEST SWAP3 SWAP2 POP POP JUMP JUMPDEST PUSH0 PUSH1 0x20 DUP3 ADD SWAP1 POP PUSH2 0x1CD9 PUSH0 DUP4 ADD DUP5 PUSH2 0x1B1F JUMP JUMPDEST SWAP3 SWAP2 POP POP JUMP JUMPDEST PUSH0 PUSH1 0x20 DUP3 DUP5 SUB SLT ISZERO PUSH2 0x1CF4 JUMPI PUSH2 0x1CF3 PUSH2 0x17A5 JUMP JUMPDEST JUMPDEST PUSH0 PUSH2 0x1D01 DUP5 DUP3 DUP6 ADD PUSH2 0x1C4C JUMP JUMPDEST SWAP2 POP POP SWAP3 SWAP2 POP POP JUMP JUMPDEST PUSH0 DUP1 PUSH1 0x40 DUP4 DUP6 SUB SLT ISZERO PUSH2 0x1D20 JUMPI PUSH2 0x1D1F PUSH2 0x17A5 JUMP JUMPDEST JUMPDEST PUSH0 PUSH2 0x1D2D DUP6 DUP3 DUP7 ADD PUSH2 0x17CC JUMP JUMPDEST SWAP3 POP POP PUSH1 0x20 PUSH2 0x1D3E DUP6 DUP3 DUP7 ADD PUSH2 0x186E JUMP JUMPDEST SWAP2 POP POP SWAP3 POP SWAP3 SWAP1 POP JUMP JUMPDEST PUSH0 DUP1 DUP4 PUSH1 0x1F DUP5 ADD SLT PUSH2 0x1D5D JUMPI PUSH2 0x1D5C PUSH2 0x17E0 JUMP JUMPDEST JUMPDEST DUP3 CALLDATALOAD SWAP1 POP PUSH8 0xFFFFFFFFFFFFFFFF DUP2 GT ISZERO PUSH2 0x1D7A JUMPI PUSH2 0x1D79 PUSH2 0x17E4 JUMP JUMPDEST JUMPDEST PUSH1 0x20 DUP4 ADD SWAP2 POP DUP4 PUSH1 0x20 DUP3 MUL DUP4 ADD GT ISZERO PUSH2 0x1D96 JUMPI PUSH2 0x1D95 PUSH2 0x17E8 JUMP JUMPDEST JUMPDEST SWAP3 POP SWAP3 SWAP1 POP JUMP JUMPDEST PUSH0 DUP1 PUSH1 0x20 DUP4 DUP6 SUB SLT ISZERO PUSH2 0x1DB3 JUMPI PUSH2 0x1DB2 PUSH2 0x17A5 JUMP JUMPDEST JUMPDEST PUSH0 DUP4 ADD CALLDATALOAD PUSH8 0xFFFFFFFFFFFFFFFF DUP2 GT ISZERO PUSH2 0x1DD0 JUMPI PUSH2 0x1DCF PUSH2 0x17A9 JUMP JUMPDEST JUMPDEST PUSH2 0x1DDC DUP6 DUP3 DUP7 ADD PUSH2 0x1D48 JUMP JUMPDEST SWAP3 POP SWAP3 POP POP SWAP3 POP SWAP3 SWAP1 POP JUMP JUMPDEST PUSH32 0x426F6F6B20657869737473000000000000000000000000000000000000000000 PUSH0 DUP3 ADD MSTORE POP JUMP JUMPDEST PUSH0 PUSH2 0x1E1C PUSH1 0xB DUP4 PUSH2 0x1AD7 JUMP JUMPDEST SWAP2 POP PUSH2 0x1E27 DUP3 PUSH2 0x1DE8 JUMP JUMPDEST PUSH1 0x20 DUP3 ADD SWAP1 POP SWAP2 SWAP1 POP JUMP JUMPDEST PUSH0 PUSH1 0x20 DUP3 ADD SWAP1 POP DUP2 DUP2 SUB PUSH0 DUP4 ADD MSTORE PUSH2 0x1E49 DUP2 PUSH2 0x1E10 JUMP JUMPDEST SWAP1 POP SWAP2 SWAP1 POP JUMP JUMPDEST PUSH32 0x4E487B7100000000000000000000000000000000000000000000000000000000 PUSH0 MSTORE PUSH1 0x11 PUSH1 0x4 MSTORE PUSH1 0x24 PUSH0 REVERT JUMPDEST PUSH0 PUSH2 0x1E87 DUP3 PUSH2 0x1841 JUMP JUMPDEST SWAP2 POP PUSH2 0x1E92 DUP4 PUSH2 0x1841 JUMP JUMPDEST SWAP3 POP DUP3 DUP3 MUL PUSH2 0x1EA0 DUP2 PUSH2 0x1841 JUMP JUMPDEST SWAP2 POP DUP1 DUP3 EQ PUSH2 0x1EB2 JUMPI PUSH2 0x1EB1 PUSH2 0x1E50 JUMP JUMPDEST JUMPDEST POP SWAP3 SWAP2 POP POP JUMP JUMPDEST PUSH32 0x4E487B7100000000000000000000000000000000000000000000000000000000 PUSH0 MSTORE PUSH1 0x41 PUSH1 0x4 MSTORE PUSH1 0x24 PUSH0 REVERT JUMPDEST PUSH32 0x4E487B7100000000000000000000000000000000000000000000000000000000 PUSH0 MSTORE PUSH1 0x22 PUSH1 0x4 MSTORE PUSH1 0x24 PUSH0 REVERT JUMPDEST PUSH0 PUSH1 0x2 DUP3 DIV SWAP1 POP PUSH1 0x1 DUP3 AND DUP1 PUSH2 0x1F2A JUMPI PUSH1 0x7F DUP3 AND SWAP2 POP JUMPDEST PUSH1 0x20 DUP3 LT DUP2 SUB PUSH2 0x1F3D JUMPI PUSH2 0x1F3C PUSH2 0x1EE6 JUMP JUMPDEST JUMPDEST POP SWAP2 SWAP1 POP JUMP JUMPDEST PUSH0 DUP2 SWAP1 POP DUP2 PUSH0 MSTORE PUSH1 0x20 PUSH0 KECCAK256 SWAP1 POP SWAP2 SWAP1 POP JUMP JUMPDEST PUSH0 PUSH1 0x20 PUSH1 0x1F DUP4 ADD DIV SWAP1 POP SWAP2 SWAP1 POP JUMP JUMPDEST PUSH0 DUP3 DUP3 SHL SWAP1 POP SWAP3 SWAP2 POP POP JUMP JUMPDEST PUSH0 PUSH1 0x8 DUP4 MUL PUSH2 0x1F9F PUSH32 0xFFFFFFFFFFFFFFFFFFFFFFFFFFFFFFFFFFFFFFFFFFFFFFFFFFFFFFFFFFFFFFFF DUP3 PUSH2 0x1F64 JUMP JUMPDEST PUSH2 0x1FA9 DUP7 DUP4 PUSH2 0x1F64 JUMP JUMPDEST SWAP6 POP DUP1 NOT DUP5 AND SWAP4 POP DUP1 DUP7 AND DUP5 OR SWAP3 POP POP POP SWAP4 SWAP3 POP POP POP JUMP JUMPDEST PUSH0 DUP2 SWAP1 POP SWAP2 SWAP1 POP JUMP JUMPDEST PUSH0 PUSH2 0x1FE4 PUSH2 0x1FDF PUSH2 0x1FDA DUP5 PUSH2 0x17AD JUMP JUMPDEST PUSH2 0x1FC1 JUMP JUMPDEST PUSH2 0x17AD JUMP JUMPDEST SWAP1 POP SWAP2 SWAP1 POP JUMP JUMPDEST PUSH0 DUP2 SWAP1 POP SWAP2 SWAP1 POP JUMP JUMPDEST PUSH2 0x1FFD DUP4 PUSH2 0x1FCA JUMP JUMPDEST PUSH2 0x2011 PUSH2 0x2009 DUP3 PUSH2 0x1FEB JUMP JUMPDEST DUP5 DUP5 SLOAD PUSH2 0x1F70 JUMP JUMPDEST DUP3 SSTORE POP POP POP POP JUMP JUMPDEST PUSH0 SWAP1 JUMP JUMPDEST PUSH2 0x2025 PUSH2 0x2019 JUMP JUMPDEST PUSH2 0x2030 DUP2 DUP5 DUP5 PUSH2 0x1FF4 JUMP JUMPDEST POP POP POP JUMP JUMPDEST JUMPDEST DUP2 DUP2 LT ISZERO PUSH2 0x2053 JUMPI PUSH2 0x2048 PUSH0 DUP3 PUSH2 0x201D JUMP JUMPDEST PUSH1 0x1 DUP2 ADD SWAP1 POP PUSH2 0x2036 JUMP JUMPDEST POP POP JUMP JUMPDEST PUSH1 0x1F DUP3 GT ISZERO PUSH2 0x2098 JUMPI PUSH2 0x2069 DUP2 PUSH2 0x1F43 JUMP JUMPDEST PUSH2 0x2072 DUP5 PUSH2 0x1F55 JUMP JUMPDEST DUP2 ADD PUSH1 0x20 DUP6 LT ISZERO PUSH2 0x2081 JUMPI DUP2 SWAP1 POP JUMPDEST PUSH2 0x2095 PUSH2 0x208D DUP6 PUSH2 0x1F55 JUMP JUMPDEST DUP4 ADD DUP3 PUSH2 0x2035 JUMP JUMPDEST POP POP JUMPDEST POP POP POP JUMP JUMPDEST PUSH0 DUP3 DUP3 SHR SWAP1 POP SWAP3 SWAP2 POP POP JUMP JUMPDEST PUSH0 PUSH2 0x20B8 PUSH0 NOT DUP5 PUSH1 0x8 MUL PUSH2 0x209D JUMP JUMPDEST NOT DUP1 DUP4 AND SWAP2 POP POP SWAP3 SWAP2 POP POP JUMP JUMPDEST PUSH0 PUSH2 0x20D0 DUP4 DUP4 PUSH2 0x20A9 JUMP JUMPDEST SWAP2 POP DUP3 PUSH1 0x2 MUL DUP3 OR SWAP1 POP SWAP3 SWAP2 POP POP JUMP JUMPDEST PUSH2 0x20E9 DUP3 PUSH2 0x1962 JUMP JUMPDEST PUSH8 0xFFFFFFFFFFFFFFFF DUP2 GT ISZERO PUSH2 0x2102 JUMPI PUSH2 0x2101 PUSH2 0x1EB9 JUMP JUMPDEST JUMPDEST PUSH2 0x210C DUP3 SLOAD PUSH2 0x1F13 JUMP JUMPDEST PUSH2 0x2117 DUP3 DUP3 DUP6 PUSH2 0x2057 JUMP JUMPDEST PUSH0 PUSH1 0x20 SWAP1 POP PUSH1 0x1F DUP4 GT PUSH1 0x1 DUP2 EQ PUSH2 0x2148 JUMPI PUSH0 DUP5 ISZERO PUSH2 0x2136 JUMPI DUP3 DUP8 ADD MLOAD SWAP1 POP JUMPDEST PUSH2 0x2140 DUP6 DUP3 PUSH2 0x20C5 JUMP JUMPDEST DUP7 SSTORE POP PUSH2 0x21A7 JUMP JUMPDEST PUSH1 0x1F NOT DUP5 AND PUSH2 0x2156 DUP7 PUSH2 0x1F43 JUMP JUMPDEST PUSH0 JUMPDEST DUP3 DUP2 LT ISZERO PUSH2 0x217D JUMPI DUP5 DUP10 ADD MLOAD DUP3 SSTORE PUSH1 0x1 DUP3 ADD SWAP2 POP PUSH1 0x20 DUP6 ADD SWAP5 POP PUSH1 0x20 DUP2 ADD SWAP1 POP PUSH2 0x2158 JUMP JUMPDEST DUP7 DUP4 LT ISZERO PUSH2 0x219A JUMPI DUP5 DUP10 ADD MLOAD PUSH2 0x2196 PUSH1 0x1F DUP10 AND DUP3 PUSH2 0x20A9 JUMP JUMPDEST DUP4 SSTORE POP JUMPDEST PUSH1 0x1 PUSH1 0x2 DUP9 MUL ADD DUP9 SSTORE POP POP POP JUMPDEST POP POP POP POP POP POP JUMP JUMPDEST DUP3 DUP2 DUP4 CALLDATACOPY PUSH0 DUP4 DUP4 ADD MSTORE POP POP POP JUMP JUMPDEST PUSH0 PUSH2 0x21C8 DUP4 DUP6 PUSH2 0x1AD7 JUMP JUMPDEST SWAP4 POP PUSH2 0x21D5 DUP4 DUP6 DUP5 PUSH2 0x21AF JUMP JUMPDEST PUSH2 0x21DE DUP4 PUSH2 0x198A JUMP JUMPDEST DUP5 ADD SWAP1 POP SWAP4 SWAP3 POP POP POP JUMP JUMPDEST PUSH0 PUSH1 0x80 DUP3 ADD SWAP1 POP DUP2 DUP2 SUB PUSH0 DUP4 ADD MSTORE PUSH2 0x2202 DUP2 DUP9 DUP11 PUSH2 0x21BD JUMP JUMPDEST SWAP1 POP DUP2 DUP2 SUB PUSH1 0x20 DUP4 ADD MSTORE PUSH2 0x2217 DUP2 DUP7 DUP9 PUSH2 0x21BD JUMP JUMPDEST SWAP1 POP PUSH2 0x2226 PUSH1 0x40 DUP4 ADD DUP6 PUSH2 0x1B1F JUMP JUMPDEST PUSH2 0x2233 PUSH1 0x60 DUP4 ADD DUP5 PUSH2 0x1B1F JUMP JUMPDEST SWAP8 SWAP7 POP POP POP POP POP POP POP JUMP JUMPDEST PUSH32 0x4E487B7100000000000000000000000000000000000000000000000000000000 PUSH0 MSTORE PUSH1 0x32 PUSH1 0x4 MSTORE PUSH1 0x24 PUSH0 REVERT JUMPDEST PUSH0 PUSH2 0x2275 DUP3 PUSH2 0x17AD JUMP JUMPDEST SWAP2 POP PUSH2 0x2280 DUP4 PUSH2 0x17AD JUMP JUMPDEST SWAP3 POP DUP3 DUP3 MUL PUSH2 0x228E DUP2 PUSH2 0x17AD JUMP JUMPDEST SWAP2 POP DUP3 DUP3 DIV DUP5 EQ DUP4 ISZERO OR PUSH2 0x22A5 JUMPI PUSH2 0x22A4 PUSH2 0x1E50 JUMP JUMPDEST JUMPDEST POP SWAP3 SWAP2 POP POP JUMP JUMPDEST PUSH0 PUSH2 0x22B6 DUP3 PUSH2 0x17AD JUMP JUMPDEST SWAP2 POP PUSH2 0x22C1 DUP4 PUSH2 0x17AD JUMP JUMPDEST SWAP3 POP DUP3 DUP3 ADD SWAP1 POP DUP1 DUP3 GT ISZERO PUSH2 0x22D9 JUMPI PUSH2 0x22D8 PUSH2 0x1E50 JUMP JUMPDEST JUMPDEST SWAP3 SWAP2 POP POP JUMP JUMPDEST PUSH32 0x426F6F6B206E6F74206578697374000000000000000000000000000000000000 PUSH0 DUP3 ADD MSTORE POP JUMP JUMPDEST PUSH0 PUSH2 0x2313 PUSH1 0xE DUP4 PUSH2 0x1AD7 JUMP JUMPDEST SWAP2 POP PUSH2 0x231E DUP3 PUSH2 0x22DF JUMP JUMPDEST PUSH1 0x20 DUP3 ADD SWAP1 POP SWAP2 SWAP1 POP JUMP JUMPDEST PUSH0 PUSH1 0x20 DUP3 ADD SWAP1 POP DUP2 DUP2 SUB PUSH0 DUP4 ADD MSTORE PUSH2 0x2340 DUP2 PUSH2 0x2307 JUMP JUMPDEST SWAP1 POP SWAP2 SWAP1 POP JUMP JUMPDEST PUSH0 PUSH2 0x2351 DUP3 PUSH2 0x17AD JUMP JUMPDEST SWAP2 POP PUSH2 0x235C DUP4 PUSH2 0x17AD JUMP JUMPDEST SWAP3 POP DUP3 DUP3 SUB SWAP1 POP DUP2 DUP2 GT ISZERO PUSH2 0x2374 JUMPI PUSH2 0x2373 PUSH2 0x1E50 JUMP JUMPDEST JUMPDEST SWAP3 SWAP2 POP POP JUMP JUMPDEST PUSH32 0x4E487B7100000000000000000000000000000000000000000000000000000000 PUSH0 MSTORE PUSH1 0x31 PUSH1 0x4 MSTORE PUSH1 0x24 PUSH0 REVERT JUMPDEST PUSH32 0x437573746F6D657220486173204E6F74204A6F696E656420546865204C6F7961 PUSH0 DUP3 ADD MSTORE PUSH32 0x6C74792050726F6772616D210000000000000000000000000000000000000000 PUSH1 0x20 DUP3 ADD MSTORE POP JUMP JUMPDEST PUSH0 PUSH2 0x2401 PUSH1 0x2C DUP4 PUSH2 0x1AD7 JUMP JUMPDEST SWAP2 POP PUSH2 0x240C DUP3 PUSH2 0x23A7 JUMP JUMPDEST PUSH1 0x40 DUP3 ADD SWAP1 POP SWAP2 SWAP1 POP JUMP JUMPDEST PUSH0 PUSH1 0x20 DUP3 ADD SWAP1 POP DUP2 DUP2 SUB PUSH0 DUP4 ADD MSTORE PUSH2 0x242E DUP2 PUSH2 0x23F5 JUMP JUMPDEST SWAP1 POP SWAP2 SWAP1 POP JUMP JUMPDEST PUSH0 DUP3 DUP3 MSTORE PUSH1 0x20 DUP3 ADD SWAP1 POP SWAP3 SWAP2 POP POP JUMP JUMPDEST PUSH0 DUP1 REVERT JUMPDEST DUP3 DUP2 DUP4 CALLDATACOPY POP POP POP JUMP JUMPDEST PUSH0 PUSH2 0x245D DUP4 DUP6 PUSH2 0x2435 JUMP JUMPDEST SWAP4 POP PUSH32 0x7FFFFFFFFFFFFFFFFFFFFFFFFFFFFFFFFFFFFFFFFFFFFFFFFFFFFFFFFFFFFFF DUP4 GT ISZERO PUSH2 0x2490 JUMPI PUSH2 0x248F PUSH2 0x2445 JUMP JUMPDEST JUMPDEST PUSH1 0x20 DUP4 MUL SWAP3 POP PUSH2 0x24A1 DUP4 DUP6 DUP5 PUSH2 0x2449 JUMP JUMPDEST DUP3 DUP5 ADD SWAP1 POP SWAP4 SWAP3 POP POP POP JUMP JUMPDEST PUSH0 PUSH1 0x20 DUP3 ADD SWAP1 POP DUP2 DUP2 SUB PUSH0 DUP4 ADD MSTORE PUSH2 0x24C6 DUP2 DUP5 DUP7 PUSH2 0x2452 JUMP JUMPDEST SWAP1 POP SWAP4 SWAP3 POP POP POP JUMP JUMPDEST PUSH32 0x4E6F7420617661696C61626C6500000000000000000000000000000000000000 PUSH0 DUP3 ADD MSTORE POP JUMP JUMPDEST PUSH0 PUSH2 0x2503 PUSH1 0xD DUP4 PUSH2 0x1AD7 JUMP JUMPDEST SWAP2 POP PUSH2 0x250E DUP3 PUSH2 0x24CF JUMP JUMPDEST PUSH1 0x20 DUP3 ADD SWAP1 POP SWAP2 SWAP1 POP JUMP JUMPDEST PUSH0 PUSH1 0x20 DUP3 ADD SWAP1 POP DUP2 DUP2 SUB PUSH0 DUP4 ADD MSTORE PUSH2 0x2530 DUP2 PUSH2 0x24F7 JUMP JUMPDEST SWAP1 POP SWAP2 SWAP1 POP JUMP JUMPDEST PUSH32 0x4E6F7420656E6F7567682073746F636B00000000000000000000000000000000 PUSH0 DUP3 ADD MSTORE POP JUMP JUMPDEST PUSH0 PUSH2 0x256B PUSH1 0x10 DUP4 PUSH2 0x1AD7 JUMP JUMPDEST SWAP2 POP PUSH2 0x2576 DUP3 PUSH2 0x2537 JUMP JUMPDEST PUSH1 0x20 DUP3 ADD SWAP1 POP SWAP2 SWAP1 POP JUMP JUMPDEST PUSH0 PUSH1 0x20 DUP3 ADD SWAP1 POP DUP2 DUP2 SUB PUSH0 DUP4 ADD MSTORE PUSH2 0x2598 DUP2 PUSH2 0x255F JUMP JUMPDEST SWAP1 POP SWAP2 SWAP1 POP JUMP JUMPDEST PUSH32 0x57726F6E67207061796D656E7400000000000000000000000000000000000000 PUSH0 DUP3 ADD MSTORE POP JUMP JUMPDEST PUSH0 PUSH2 0x25D3 PUSH1 0xD DUP4 PUSH2 0x1AD7 JUMP JUMPDEST SWAP2 POP PUSH2 0x25DE DUP3 PUSH2 0x259F JUMP JUMPDEST PUSH1 0x20 DUP3 ADD SWAP1 POP SWAP2 SWAP1 POP JUMP JUMPDEST PUSH0 PUSH1 0x20 DUP3 ADD SWAP1 POP DUP2 DUP2 SUB PUSH0 DUP4 ADD MSTORE PUSH2 0x2600 DUP2 PUSH2 0x25C7 JUMP JUMPDEST SWAP1 POP SWAP2 SWAP1 POP JUMP INVALID LOG2 PUSH5 0x6970667358 0x22 SLT KECCAK256 REVERT OR MLOAD PUSH23 0x92FF8A8629FD26BD4DEE9D9F5E64B0164324F5387AD886 CHAINID 0xCF SLT CALLVALUE ADDRESS PUSH5 0x736F6C6343 STOP ADDMOD BYTE STOP CALLER "
				},
				"gasEstimates": {
					"creation": {
						"codeDepositCost": "1957800",
						"executionCost": "infinite",
						"totalCost": "infinite"
					},
					"external": {
						"addBook(uint256,string,string,uint96,uint96)": "infinite",
						"addCustomerPoints(address,uint256)": "infinite",
						"books(uint256)": "infinite",
						"buyBook(uint256,uint96)": "infinite",
						"customerewards(address)": "2882",
						"getAllBooks()": "infinite",
						"getBooks(uint256)": "infinite",
						"getCustomerPoints(address)": "5072",
						"getOwnerBalance()": "5175",
						"getTotalBooksSold()": "2569",
						"owner()": "2538",
						"removeBook(uint256)": "infinite",
						"removeBooks(uint256[])": "infinite",
						"renounceOwnership()": "infinite",
						"transferOwnership(address)": "infinite"
					}
				},
				"methodIdentifiers": {
					"addBook(uint256,string,string,uint96,uint96)": "21e6de9d",
					"addCustomerPoints(address,uint256)": "6c42b8cd",
					"books(uint256)": "68744046",
					"buyBook(uint256,uint96)": "f46de7d4",
					"customerewards(address)": "a33c5132",
					"getAllBooks()": "354528e8",
					"getBooks(uint256)": "5ac3e19e",
					"getCustomerPoints(address)": "e06ec384",
					"getOwnerBalance()": "590791f2",
					"getTotalBooksSold()": "9bd30883",
					"owner()": "8da5cb5b",
					"removeBook(uint256)": "bec0d799",
					"removeBooks(uint256[])": "f98520de",
					"renounceOwnership()": "715018a6",
					"transferOwnership(address)": "f2fde38b"
				}
			},
			"storageLayout": {
				"storage": [
					{
						"astId": 8,
						"contract": "contracts/LoyaltyProgram.sol:CustomerPoint",
						"label": "_owner",
						"offset": 0,
						"slot": "0",
						"type": "t_address"
					},
					{
						"astId": 195,
						"contract": "contracts/LoyaltyProgram.sol:CustomerPoint",
						"label": "totalBooksSold",
						"offset": 20,
						"slot": "0",
						"type": "t_uint96"
					},
					{
						"astId": 200,
						"contract": "contracts/LoyaltyProgram.sol:CustomerPoint",
						"label": "books",
						"offset": 0,
						"slot": "1",
						"type": "t_mapping(t_uint256,t_struct(Book)193_storage)"
					},
					{
						"astId": 203,
						"contract": "contracts/LoyaltyProgram.sol:CustomerPoint",
						"label": "bookIds",
						"offset": 0,
						"slot": "2",
						"type": "t_array(t_uint256)dyn_storage"
					},
					{
						"astId": 649,
						"contract": "contracts/LoyaltyProgram.sol:CustomerPoint",
						"label": "customerewards",
						"offset": 0,
						"slot": "3",
						"type": "t_mapping(t_address,t_struct(CustomerPoints)638_storage)"
					}
				],
				"types": {
					"t_address": {
						"encoding": "inplace",
						"label": "address",
						"numberOfBytes": "20"
					},
					"t_array(t_uint256)dyn_storage": {
						"base": "t_uint256",
						"encoding": "dynamic_array",
						"label": "uint256[]",
						"numberOfBytes": "32"
					},
					"t_bool": {
						"encoding": "inplace",
						"label": "bool",
						"numberOfBytes": "1"
					},
					"t_mapping(t_address,t_struct(CustomerPoints)638_storage)": {
						"encoding": "mapping",
						"key": "t_address",
						"label": "mapping(address => struct CustomerPoint.CustomerPoints)",
						"numberOfBytes": "32",
						"value": "t_struct(CustomerPoints)638_storage"
					},
					"t_mapping(t_uint256,t_struct(Book)193_storage)": {
						"encoding": "mapping",
						"key": "t_uint256",
						"label": "mapping(uint256 => struct BookStore.Book)",
						"numberOfBytes": "32",
						"value": "t_struct(Book)193_storage"
					},
					"t_string_storage": {
						"encoding": "bytes",
						"label": "string",
						"numberOfBytes": "32"
					},
					"t_struct(Book)193_storage": {
						"encoding": "inplace",
						"label": "struct BookStore.Book",
						"members": [
							{
								"astId": 184,
								"contract": "contracts/LoyaltyProgram.sol:CustomerPoint",
								"label": "stock",
								"offset": 0,
								"slot": "0",
								"type": "t_uint96"
							},
							{
								"astId": 186,
								"contract": "contracts/LoyaltyProgram.sol:CustomerPoint",
								"label": "price",
								"offset": 12,
								"slot": "0",
								"type": "t_uint96"
							},
							{
								"astId": 188,
								"contract": "contracts/LoyaltyProgram.sol:CustomerPoint",
								"label": "isAvailable",
								"offset": 24,
								"slot": "0",
								"type": "t_bool"
							},
							{
								"astId": 190,
								"contract": "contracts/LoyaltyProgram.sol:CustomerPoint",
								"label": "title",
								"offset": 0,
								"slot": "1",
								"type": "t_string_storage"
							},
							{
								"astId": 192,
								"contract": "contracts/LoyaltyProgram.sol:CustomerPoint",
								"label": "author",
								"offset": 0,
								"slot": "2",
								"type": "t_string_storage"
							}
						],
						"numberOfBytes": "96"
					},
					"t_struct(CustomerPoints)638_storage": {
						"encoding": "inplace",
						"label": "struct CustomerPoint.CustomerPoints",
						"members": [
							{
								"astId": 637,
								"contract": "contracts/LoyaltyProgram.sol:CustomerPoint",
								"label": "points",
								"offset": 0,
								"slot": "0",
								"type": "t_uint256"
							}
						],
						"numberOfBytes": "32"
					},
					"t_uint256": {
						"encoding": "inplace",
						"label": "uint256",
						"numberOfBytes": "32"
					},
					"t_uint96": {
						"encoding": "inplace",
						"label": "uint96",
						"numberOfBytes": "12"
					}
				}
			},
			"userdoc": {
				"kind": "user",
				"methods": {},
				"version": 1
			}
		}
	}
}