{
	"contracts/BookStore.sol": {
		"BookStore": {
			"abi": [
				{
					"inputs": [],
					"stateMutability": "nonpayable",
					"type": "constructor"
				},
				{
					"inputs": [
						{
							"internalType": "address",
							"name": "owner",
							"type": "address"
						}
					],
					"name": "OwnableInvalidOwner",
					"type": "error"
				},
				{
					"inputs": [
						{
							"internalType": "address",
							"name": "account",
							"type": "address"
						}
					],
					"name": "OwnableUnauthorizedAccount",
					"type": "error"
				},
				{
					"anonymous": false,
					"inputs": [
						{
							"indexed": true,
							"internalType": "uint256",
							"name": "bookId",
							"type": "uint256"
						},
						{
							"indexed": false,
							"internalType": "string",
							"name": "title",
							"type": "string"
						},
						{
							"indexed": false,
							"internalType": "string",
							"name": "author",
							"type": "string"
						},
						{
							"indexed": false,
							"internalType": "uint96",
							"name": "price",
							"type": "uint96"
						},
						{
							"indexed": false,
							"internalType": "uint96",
							"name": "stock",
							"type": "uint96"
						}
					],
					"name": "BookAdded",
					"type": "event"
				},
				{
					"anonymous": false,
					"inputs": [
						{
							"indexed": false,
							"internalType": "uint256[]",
							"name": "bookIds",
							"type": "uint256[]"
						}
					],
					"name": "BookBatchRemoved",
					"type": "event"
				},
				{
					"anonymous": false,
					"inputs": [
						{
							"indexed": true,
							"internalType": "uint256",
							"name": "bookId",
							"type": "uint256"
						},
						{
							"indexed": true,
							"internalType": "address",
							"name": "buyer",
							"type": "address"
						},
						{
							"indexed": false,
							"internalType": "uint96",
							"name": "quantity",
							"type": "uint96"
						}
					],
					"name": "BookPurchased",
					"type": "event"
				},
				{
					"anonymous": false,
					"inputs": [
						{
							"indexed": true,
							"internalType": "uint256",
							"name": "bookId",
							"type": "uint256"
						}
					],
					"name": "BookRemoved",
					"type": "event"
				},
				{
					"anonymous": false,
					"inputs": [
						{
							"indexed": true,
							"internalType": "address",
							"name": "previousOwner",
							"type": "address"
						},
						{
							"indexed": true,
							"internalType": "address",
							"name": "newOwner",
							"type": "address"
						}
					],
					"name": "OwnershipTransferred",
					"type": "event"
				},
				{
					"inputs": [
						{
							"internalType": "uint256",
							"name": "_bookId",
							"type": "uint256"
						},
						{
							"internalType": "string",
							"name": "_title",
							"type": "string"
						},
						{
							"internalType": "string",
							"name": "_author",
							"type": "string"
						},
						{
							"internalType": "uint96",
							"name": "_stock",
							"type": "uint96"
						},
						{
							"internalType": "uint96",
							"name": "_price",
							"type": "uint96"
						}
					],
					"name": "addBook",
					"outputs": [],
					"stateMutability": "nonpayable",
					"type": "function"
				},
				{
					"inputs": [
						{
							"internalType": "uint256",
							"name": "",
							"type": "uint256"
						}
					],
					"name": "books",
					"outputs": [
						{
							"internalType": "uint96",
							"name": "stock",
							"type": "uint96"
						},
						{
							"internalType": "uint96",
							"name": "price",
							"type": "uint96"
						},
						{
							"internalType": "bool",
							"name": "isAvailable",
							"type": "bool"
						},
						{
							"internalType": "string",
							"name": "title",
							"type": "string"
						},
						{
							"internalType": "string",
							"name": "author",
							"type": "string"
						}
					],
					"stateMutability": "view",
					"type": "function"
				},
				{
					"inputs": [
						{
							"internalType": "uint256",
							"name": "_bookId",
							"type": "uint256"
						},
						{
							"internalType": "uint96",
							"name": "_quantity",
							"type": "uint96"
						}
					],
					"name": "buyBook",
					"outputs": [],
					"stateMutability": "payable",
					"type": "function"
				},
				{
					"inputs": [],
					"name": "getAllBooks",
					"outputs": [
						{
							"internalType": "string[]",
							"name": "",
							"type": "string[]"
						}
					],
					"stateMutability": "view",
					"type": "function"
				},
				{
					"inputs": [
						{
							"internalType": "uint256",
							"name": "_bookId",
							"type": "uint256"
						}
					],
					"name": "getBooks",
					"outputs": [
						{
							"internalType": "string",
							"name": "title",
							"type": "string"
						},
						{
							"internalType": "string",
							"name": "author",
							"type": "string"
						},
						{
							"internalType": "uint96",
							"name": "price",
							"type": "uint96"
						},
						{
							"internalType": "uint96",
							"name": "stock",
							"type": "uint96"
						},
						{
							"internalType": "bool",
							"name": "isAvailable",
							"type": "bool"
						}
					],
					"stateMutability": "view",
					"type": "function"
				},
				{
					"inputs": [],
					"name": "getOwnerBalance",
					"outputs": [
						{
							"internalType": "uint256",
							"name": "",
							"type": "uint256"
						}
					],
					"stateMutability": "view",
					"type": "function"
				},
				{
					"inputs": [],
					"name": "getTotalBooksSold",
					"outputs": [
						{
							"internalType": "uint96",
							"name": "",
							"type": "uint96"
						}
					],
					"stateMutability": "view",
					"type": "function"
				},
				{
					"inputs": [],
					"name": "owner",
					"outputs": [
						{
							"internalType": "address",
							"name": "",
							"type": "address"
						}
					],
					"stateMutability": "view",
					"type": "function"
				},
				{
					"inputs": [
						{
							"internalType": "uint256",
							"name": "_bookId",
							"type": "uint256"
						}
					],
					"name": "removeBook",
					"outputs": [],
					"stateMutability": "nonpayable",
					"type": "function"
				},
				{
					"inputs": [
						{
							"internalType": "uint256[]",
							"name": "_bookIds",
							"type": "uint256[]"
						}
					],
					"name": "removeBooks",
					"outputs": [],
					"stateMutability": "nonpayable",
					"type": "function"
				},
				{
					"inputs": [],
					"name": "renounceOwnership",
					"outputs": [],
					"stateMutability": "nonpayable",
					"type": "function"
				},
				{
					"inputs": [
						{
							"internalType": "address",
							"name": "newOwner",
							"type": "address"
						}
					],
					"name": "transferOwnership",
					"outputs": [],
					"stateMutability": "nonpayable",
					"type": "function"
				}
			],
			"devdoc": {
				"errors": {
					"OwnableInvalidOwner(address)": [
						{
							"details": "The owner is not a valid owner account. (eg. `address(0)`)"
						}
					],
					"OwnableUnauthorizedAccount(address)": [
						{
							"details": "The caller account is not authorized to perform an operation."
						}
					]
				},
				"kind": "dev",
				"methods": {
					"owner()": {
						"details": "Returns the address of the current owner."
					},
					"renounceOwnership()": {
						"details": "Leaves the contract without owner. It will not be possible to call `onlyOwner` functions. Can only be called by the current owner. NOTE: Renouncing ownership will leave the contract without an owner, thereby disabling any functionality that is only available to the owner."
					},
					"transferOwnership(address)": {
						"details": "Transfers ownership of the contract to a new account (`newOwner`). Can only be called by the current owner."
					}
				},
				"version": 1
			},
			"evm": {
				"assembly": "    /* \"contracts/BookStore.sol\":117:4214  contract BookStore is Ownable {... */\n  mstore(0x40, 0x80)\n    /* \"contracts/BookStore.sol\":723:759  constructor() Ownable(msg.sender) {} */\n  callvalue\n  dup1\n  iszero\n  tag_1\n  jumpi\n  0x00\n  dup1\n  revert\ntag_1:\n  pop\n    /* \"contracts/BookStore.sol\":745:755  msg.sender */\n  caller\n    /* \"@openzeppelin/contracts/access/Ownable.sol\":1297:1298  0 */\n  0x00\n    /* \"@openzeppelin/contracts/access/Ownable.sol\":1273:1299  initialOwner == address(0) */\n  0xffffffffffffffffffffffffffffffffffffffff\n  and\n    /* \"@openzeppelin/contracts/access/Ownable.sol\":1273:1285  initialOwner */\n  dup2\n    /* \"@openzeppelin/contracts/access/Ownable.sol\":1273:1299  initialOwner == address(0) */\n  0xffffffffffffffffffffffffffffffffffffffff\n  and\n  sub\n    /* \"@openzeppelin/contracts/access/Ownable.sol\":1269:1364  if (initialOwner == address(0)) {... */\n  tag_5\n  jumpi\n    /* \"@openzeppelin/contracts/access/Ownable.sol\":1350:1351  0 */\n  0x00\n    /* \"@openzeppelin/contracts/access/Ownable.sol\":1322:1353  OwnableInvalidOwner(address(0)) */\n  mload(0x40)\n  0x1e4fbdf700000000000000000000000000000000000000000000000000000000\n  dup2\n  mstore\n  0x04\n  add\n  tag_6\n  swap2\n  swap1\n  tag_7\n  jump\t// in\ntag_6:\n  mload(0x40)\n  dup1\n  swap2\n  sub\n  swap1\n  revert\n    /* \"@openzeppelin/contracts/access/Ownable.sol\":1269:1364  if (initialOwner == address(0)) {... */\ntag_5:\n    /* \"@openzeppelin/contracts/access/Ownable.sol\":1373:1405  _transferOwnership(initialOwner) */\n  tag_8\n    /* \"@openzeppelin/contracts/access/Ownable.sol\":1392:1404  initialOwner */\n  dup2\n    /* \"@openzeppelin/contracts/access/Ownable.sol\":1373:1391  _transferOwnership */\n  shl(0x20, tag_9)\n    /* \"@openzeppelin/contracts/access/Ownable.sol\":1373:1405  _transferOwnership(initialOwner) */\n  0x20\n  shr\n  jump\t// in\ntag_8:\n    /* \"@openzeppelin/contracts/access/Ownable.sol\":1225:1412  constructor(address initialOwner) {... */\n  pop\n    /* \"contracts/BookStore.sol\":117:4214  contract BookStore is Ownable {... */\n  jump(tag_11)\n    /* \"@openzeppelin/contracts/access/Ownable.sol\":2912:3099  function _transferOwnership(address newOwner) internal virtual {... */\ntag_9:\n    /* \"@openzeppelin/contracts/access/Ownable.sol\":2985:3001  address oldOwner */\n  0x00\n    /* \"@openzeppelin/contracts/access/Ownable.sol\":3004:3010  _owner */\n  dup1\n  0x00\n  swap1\n  sload\n  swap1\n  0x0100\n  exp\n  swap1\n  div\n  0xffffffffffffffffffffffffffffffffffffffff\n  and\n    /* \"@openzeppelin/contracts/access/Ownable.sol\":2985:3010  address oldOwner = _owner */\n  swap1\n  pop\n    /* \"@openzeppelin/contracts/access/Ownable.sol\":3029:3037  newOwner */\n  dup2\n    /* \"@openzeppelin/contracts/access/Ownable.sol\":3020:3026  _owner */\n  0x00\n  dup1\n    /* \"@openzeppelin/contracts/access/Ownable.sol\":3020:3037  _owner = newOwner */\n  0x0100\n  exp\n  dup2\n  sload\n  dup2\n  0xffffffffffffffffffffffffffffffffffffffff\n  mul\n  not\n  and\n  swap1\n  dup4\n  0xffffffffffffffffffffffffffffffffffffffff\n  and\n  mul\n  or\n  swap1\n  sstore\n  pop\n    /* \"@openzeppelin/contracts/access/Ownable.sol\":3083:3091  newOwner */\n  dup2\n    /* \"@openzeppelin/contracts/access/Ownable.sol\":3052:3092  OwnershipTransferred(oldOwner, newOwner) */\n  0xffffffffffffffffffffffffffffffffffffffff\n  and\n    /* \"@openzeppelin/contracts/access/Ownable.sol\":3073:3081  oldOwner */\n  dup2\n    /* \"@openzeppelin/contracts/access/Ownable.sol\":3052:3092  OwnershipTransferred(oldOwner, newOwner) */\n  0xffffffffffffffffffffffffffffffffffffffff\n  and\n  0x8be0079c531659141344cd1fd0a4f28419497f9722a3daafe3b4186f6b6457e0\n  mload(0x40)\n  mload(0x40)\n  dup1\n  swap2\n  sub\n  swap1\n  log3\n    /* \"@openzeppelin/contracts/access/Ownable.sol\":2975:3099  {... */\n  pop\n    /* \"@openzeppelin/contracts/access/Ownable.sol\":2912:3099  function _transferOwnership(address newOwner) internal virtual {... */\n  pop\n  jump\t// out\n    /* \"#utility.yul\":7:133   */\ntag_13:\n    /* \"#utility.yul\":44:51   */\n  0x00\n    /* \"#utility.yul\":84:126   */\n  0xffffffffffffffffffffffffffffffffffffffff\n    /* \"#utility.yul\":77:82   */\n  dup3\n    /* \"#utility.yul\":73:127   */\n  and\n    /* \"#utility.yul\":62:127   */\n  swap1\n  pop\n    /* \"#utility.yul\":7:133   */\n  swap2\n  swap1\n  pop\n  jump\t// out\n    /* \"#utility.yul\":139:235   */\ntag_14:\n    /* \"#utility.yul\":176:183   */\n  0x00\n    /* \"#utility.yul\":205:229   */\n  tag_19\n    /* \"#utility.yul\":223:228   */\n  dup3\n    /* \"#utility.yul\":205:229   */\n  tag_13\n  jump\t// in\ntag_19:\n    /* \"#utility.yul\":194:229   */\n  swap1\n  pop\n    /* \"#utility.yul\":139:235   */\n  swap2\n  swap1\n  pop\n  jump\t// out\n    /* \"#utility.yul\":241:359   */\ntag_15:\n    /* \"#utility.yul\":328:352   */\n  tag_21\n    /* \"#utility.yul\":346:351   */\n  dup2\n    /* \"#utility.yul\":328:352   */\n  tag_14\n  jump\t// in\ntag_21:\n    /* \"#utility.yul\":323:326   */\n  dup3\n    /* \"#utility.yul\":316:353   */\n  mstore\n    /* \"#utility.yul\":241:359   */\n  pop\n  pop\n  jump\t// out\n    /* \"#utility.yul\":365:587   */\ntag_7:\n    /* \"#utility.yul\":458:462   */\n  0x00\n    /* \"#utility.yul\":496:498   */\n  0x20\n    /* \"#utility.yul\":485:494   */\n  dup3\n    /* \"#utility.yul\":481:499   */\n  add\n    /* \"#utility.yul\":473:499   */\n  swap1\n  pop\n    /* \"#utility.yul\":509:580   */\n  tag_23\n    /* \"#utility.yul\":577:578   */\n  0x00\n    /* \"#utility.yul\":566:575   */\n  dup4\n    /* \"#utility.yul\":562:579   */\n  add\n    /* \"#utility.yul\":553:559   */\n  dup5\n    /* \"#utility.yul\":509:580   */\n  tag_15\n  jump\t// in\ntag_23:\n    /* \"#utility.yul\":365:587   */\n  swap3\n  swap2\n  pop\n  pop\n  jump\t// out\n    /* \"contracts/BookStore.sol\":117:4214  contract BookStore is Ownable {... */\ntag_11:\n  dataSize(sub_0)\n  dup1\n  dataOffset(sub_0)\n  0x00\n  codecopy\n  0x00\n  return\nstop\n\nsub_0: assembly {\n        /* \"contracts/BookStore.sol\":117:4214  contract BookStore is Ownable {... */\n      mstore(0x40, 0x80)\n      jumpi(tag_1, lt(calldatasize, 0x04))\n      shr(0xe0, calldataload(0x00))\n      dup1\n      0x8da5cb5b\n      gt\n      tag_14\n      jumpi\n      dup1\n      0x8da5cb5b\n      eq\n      tag_8\n      jumpi\n      dup1\n      0x9bd30883\n      eq\n      tag_9\n      jumpi\n      dup1\n      0xbec0d799\n      eq\n      tag_10\n      jumpi\n      dup1\n      0xf2fde38b\n      eq\n      tag_11\n      jumpi\n      dup1\n      0xf46de7d4\n      eq\n      tag_12\n      jumpi\n      dup1\n      0xf98520de\n      eq\n      tag_13\n      jumpi\n      jump(tag_1)\n    tag_14:\n      dup1\n      0x21e6de9d\n      eq\n      tag_2\n      jumpi\n      dup1\n      0x354528e8\n      eq\n      tag_3\n      jumpi\n      dup1\n      0x590791f2\n      eq\n      tag_4\n      jumpi\n      dup1\n      0x5ac3e19e\n      eq\n      tag_5\n      jumpi\n      dup1\n      0x68744046\n      eq\n      tag_6\n      jumpi\n      dup1\n      0x715018a6\n      eq\n      tag_7\n      jumpi\n    tag_1:\n      0x00\n      dup1\n      revert\n        /* \"contracts/BookStore.sol\":767:1263  function addBook(uint256 _bookId, string calldata _title, string calldata _author, uint96 _stock, uint96 _price) external {... */\n    tag_2:\n      callvalue\n      dup1\n      iszero\n      tag_15\n      jumpi\n      0x00\n      dup1\n      revert\n    tag_15:\n      pop\n      tag_16\n      0x04\n      dup1\n      calldatasize\n      sub\n      dup2\n      add\n      swap1\n      tag_17\n      swap2\n      swap1\n      tag_18\n      jump\t// in\n    tag_17:\n      tag_19\n      jump\t// in\n    tag_16:\n      stop\n        /* \"contracts/BookStore.sol\":1309:1647  function getAllBooks() external view returns (string[] memory) {... */\n    tag_3:\n      callvalue\n      dup1\n      iszero\n      tag_20\n      jumpi\n      0x00\n      dup1\n      revert\n    tag_20:\n      pop\n      tag_21\n      tag_22\n      jump\t// in\n    tag_21:\n      mload(0x40)\n      tag_23\n      swap2\n      swap1\n      tag_24\n      jump\t// in\n    tag_23:\n      mload(0x40)\n      dup1\n      swap2\n      sub\n      swap1\n      return\n        /* \"contracts/BookStore.sol\":3048:3157  function getOwnerBalance() external view returns (uint256) {... */\n    tag_4:\n      callvalue\n      dup1\n      iszero\n      tag_25\n      jumpi\n      0x00\n      dup1\n      revert\n    tag_25:\n      pop\n      tag_26\n      tag_27\n      jump\t// in\n    tag_26:\n      mload(0x40)\n      tag_28\n      swap2\n      swap1\n      tag_29\n      jump\t// in\n    tag_28:\n      mload(0x40)\n      dup1\n      swap2\n      sub\n      swap1\n      return\n        /* \"contracts/BookStore.sol\":3315:3600  function getBooks(uint256 _bookId) external view returns (string memory title, string memory author, uint96 price, uint96 stock, bool isAvailable) {... */\n    tag_5:\n      callvalue\n      dup1\n      iszero\n      tag_30\n      jumpi\n      0x00\n      dup1\n      revert\n    tag_30:\n      pop\n      tag_31\n      0x04\n      dup1\n      calldatasize\n      sub\n      dup2\n      add\n      swap1\n      tag_32\n      swap2\n      swap1\n      tag_33\n      jump\t// in\n    tag_32:\n      tag_34\n      jump\t// in\n    tag_31:\n      mload(0x40)\n      tag_35\n      swap6\n      swap5\n      swap4\n      swap3\n      swap2\n      swap1\n      tag_36\n      jump\t// in\n    tag_35:\n      mload(0x40)\n      dup1\n      swap2\n      sub\n      swap1\n      return\n        /* \"contracts/BookStore.sol\":354:391  mapping(uint256 => Book) public books */\n    tag_6:\n      callvalue\n      dup1\n      iszero\n      tag_37\n      jumpi\n      0x00\n      dup1\n      revert\n    tag_37:\n      pop\n      tag_38\n      0x04\n      dup1\n      calldatasize\n      sub\n      dup2\n      add\n      swap1\n      tag_39\n      swap2\n      swap1\n      tag_33\n      jump\t// in\n    tag_39:\n      tag_40\n      jump\t// in\n    tag_38:\n      mload(0x40)\n      tag_41\n      swap6\n      swap5\n      swap4\n      swap3\n      swap2\n      swap1\n      tag_42\n      jump\t// in\n    tag_41:\n      mload(0x40)\n      dup1\n      swap2\n      sub\n      swap1\n      return\n        /* \"@openzeppelin/contracts/access/Ownable.sol\":2293:2394  function renounceOwnership() public virtual onlyOwner {... */\n    tag_7:\n      callvalue\n      dup1\n      iszero\n      tag_43\n      jumpi\n      0x00\n      dup1\n      revert\n    tag_43:\n      pop\n      tag_44\n      tag_45\n      jump\t// in\n    tag_44:\n      stop\n        /* \"@openzeppelin/contracts/access/Ownable.sol\":1638:1723  function owner() public view virtual returns (address) {... */\n    tag_8:\n      callvalue\n      dup1\n      iszero\n      tag_46\n      jumpi\n      0x00\n      dup1\n      revert\n    tag_46:\n      pop\n      tag_47\n      tag_48\n      jump\t// in\n    tag_47:\n      mload(0x40)\n      tag_49\n      swap2\n      swap1\n      tag_50\n      jump\t// in\n    tag_49:\n      mload(0x40)\n      dup1\n      swap2\n      sub\n      swap1\n      return\n        /* \"contracts/BookStore.sol\":3207:3307  function getTotalBooksSold() external view returns (uint96) {... */\n    tag_9:\n      callvalue\n      dup1\n      iszero\n      tag_51\n      jumpi\n      0x00\n      dup1\n      revert\n    tag_51:\n      pop\n      tag_52\n      tag_53\n      jump\t// in\n    tag_52:\n      mload(0x40)\n      tag_54\n      swap2\n      swap1\n      tag_55\n      jump\t// in\n    tag_54:\n      mload(0x40)\n      dup1\n      swap2\n      sub\n      swap1\n      return\n        /* \"contracts/BookStore.sol\":2537:3005  function removeBook(uint256 _bookId) external onlyOwner {... */\n    tag_10:\n      callvalue\n      dup1\n      iszero\n      tag_56\n      jumpi\n      0x00\n      dup1\n      revert\n    tag_56:\n      pop\n      tag_57\n      0x04\n      dup1\n      calldatasize\n      sub\n      dup2\n      add\n      swap1\n      tag_58\n      swap2\n      swap1\n      tag_33\n      jump\t// in\n    tag_58:\n      tag_59\n      jump\t// in\n    tag_57:\n      stop\n        /* \"@openzeppelin/contracts/access/Ownable.sol\":2543:2758  function transferOwnership(address newOwner) public virtual onlyOwner {... */\n    tag_11:\n      callvalue\n      dup1\n      iszero\n      tag_60\n      jumpi\n      0x00\n      dup1\n      revert\n    tag_60:\n      pop\n      tag_61\n      0x04\n      dup1\n      calldatasize\n      sub\n      dup2\n      add\n      swap1\n      tag_62\n      swap2\n      swap1\n      tag_63\n      jump\t// in\n    tag_62:\n      tag_64\n      jump\t// in\n    tag_61:\n      stop\n        /* \"contracts/BookStore.sol\":3608:4211  function buyBook(uint256 _bookId, uint96 _quantity) external virtual  payable {... */\n    tag_12:\n      tag_65\n      0x04\n      dup1\n      calldatasize\n      sub\n      dup2\n      add\n      swap1\n      tag_66\n      swap2\n      swap1\n      tag_67\n      jump\t// in\n    tag_66:\n      tag_68\n      jump\t// in\n    tag_65:\n      stop\n        /* \"contracts/BookStore.sol\":1701:2488  function removeBooks(uint256[] calldata _bookIds) external onlyOwner {... */\n    tag_13:\n      callvalue\n      dup1\n      iszero\n      tag_69\n      jumpi\n      0x00\n      dup1\n      revert\n    tag_69:\n      pop\n      tag_70\n      0x04\n      dup1\n      calldatasize\n      sub\n      dup2\n      add\n      swap1\n      tag_71\n      swap2\n      swap1\n      tag_72\n      jump\t// in\n    tag_71:\n      tag_73\n      jump\t// in\n    tag_70:\n      stop\n        /* \"contracts/BookStore.sol\":767:1263  function addBook(uint256 _bookId, string calldata _title, string calldata _author, uint96 _stock, uint96 _price) external {... */\n    tag_19:\n        /* \"contracts/BookStore.sol\":932:933  0 */\n      0x00\n        /* \"contracts/BookStore.sol\":908:913  books */\n      0x01\n        /* \"contracts/BookStore.sol\":908:922  books[_bookId] */\n      0x00\n        /* \"contracts/BookStore.sol\":914:921  _bookId */\n      dup10\n        /* \"contracts/BookStore.sol\":908:922  books[_bookId] */\n      dup2\n      mstore\n      0x20\n      add\n      swap1\n      dup2\n      mstore\n      0x20\n      add\n      0x00\n      keccak256\n        /* \"contracts/BookStore.sol\":908:928  books[_bookId].price */\n      0x00\n      add\n      0x0c\n      swap1\n      sload\n      swap1\n      0x0100\n      exp\n      swap1\n      div\n      0xffffffffffffffffffffffff\n      and\n        /* \"contracts/BookStore.sol\":908:933  books[_bookId].price == 0 */\n      0xffffffffffffffffffffffff\n      and\n      eq\n        /* \"contracts/BookStore.sol\":900:949  require(books[_bookId].price == 0, \"Book exists\") */\n      tag_75\n      jumpi\n      mload(0x40)\n      0x08c379a000000000000000000000000000000000000000000000000000000000\n      dup2\n      mstore\n      0x04\n      add\n      tag_76\n      swap1\n      tag_77\n      jump\t// in\n    tag_76:\n      mload(0x40)\n      dup1\n      swap2\n      sub\n      swap1\n      revert\n    tag_75:\n        /* \"contracts/BookStore.sol\":977:1156  Book({... */\n      mload(0x40)\n      dup1\n      0xa0\n      add\n      0x40\n      mstore\n      dup1\n        /* \"contracts/BookStore.sol\":1004:1010  _stock */\n      dup4\n        /* \"contracts/BookStore.sol\":977:1156  Book({... */\n      0xffffffffffffffffffffffff\n      and\n      dup2\n      mstore\n      0x20\n      add\n        /* \"contracts/BookStore.sol\":1041:1048  1 ether */\n      0x0de0b6b3a7640000\n        /* \"contracts/BookStore.sol\":1032:1038  _price */\n      dup4\n        /* \"contracts/BookStore.sol\":1032:1048  _price * 1 ether */\n      tag_78\n      swap2\n      swap1\n      tag_79\n      jump\t// in\n    tag_78:\n        /* \"contracts/BookStore.sol\":977:1156  Book({... */\n      0xffffffffffffffffffffffff\n      and\n      dup2\n      mstore\n      0x20\n      add\n        /* \"contracts/BookStore.sol\":1085:1086  0 */\n      0x00\n        /* \"contracts/BookStore.sol\":1076:1082  _stock */\n      dup5\n        /* \"contracts/BookStore.sol\":1076:1086  _stock > 0 */\n      0xffffffffffffffffffffffff\n      and\n      gt\n        /* \"contracts/BookStore.sol\":977:1156  Book({... */\n      iszero\n      iszero\n      dup2\n      mstore\n      0x20\n      add\n        /* \"contracts/BookStore.sol\":1108:1114  _title */\n      dup8\n      dup8\n        /* \"contracts/BookStore.sol\":977:1156  Book({... */\n      dup1\n      dup1\n      0x1f\n      add\n      0x20\n      dup1\n      swap2\n      div\n      mul\n      0x20\n      add\n      mload(0x40)\n      swap1\n      dup2\n      add\n      0x40\n      mstore\n      dup1\n      swap4\n      swap3\n      swap2\n      swap1\n      dup2\n      dup2\n      mstore\n      0x20\n      add\n      dup4\n      dup4\n      dup1\n      dup3\n      dup5\n      calldatacopy\n      0x00\n      dup2\n      dup5\n      add\n      mstore\n      not(0x1f)\n      0x1f\n      dup3\n      add\n      and\n      swap1\n      pop\n      dup1\n      dup4\n      add\n      swap3\n      pop\n      pop\n      pop\n      pop\n      pop\n      pop\n      pop\n      dup2\n      mstore\n      0x20\n      add\n        /* \"contracts/BookStore.sol\":1137:1144  _author */\n      dup6\n      dup6\n        /* \"contracts/BookStore.sol\":977:1156  Book({... */\n      dup1\n      dup1\n      0x1f\n      add\n      0x20\n      dup1\n      swap2\n      div\n      mul\n      0x20\n      add\n      mload(0x40)\n      swap1\n      dup2\n      add\n      0x40\n      mstore\n      dup1\n      swap4\n      swap3\n      swap2\n      swap1\n      dup2\n      dup2\n      mstore\n      0x20\n      add\n      dup4\n      dup4\n      dup1\n      dup3\n      dup5\n      calldatacopy\n      0x00\n      dup2\n      dup5\n      add\n      mstore\n      not(0x1f)\n      0x1f\n      dup3\n      add\n      and\n      swap1\n      pop\n      dup1\n      dup4\n      add\n      swap3\n      pop\n      pop\n      pop\n      pop\n      pop\n      pop\n      pop\n      dup2\n      mstore\n      pop\n        /* \"contracts/BookStore.sol\":960:965  books */\n      0x01\n        /* \"contracts/BookStore.sol\":960:974  books[_bookId] */\n      0x00\n        /* \"contracts/BookStore.sol\":966:973  _bookId */\n      dup10\n        /* \"contracts/BookStore.sol\":960:974  books[_bookId] */\n      dup2\n      mstore\n      0x20\n      add\n      swap1\n      dup2\n      mstore\n      0x20\n      add\n      0x00\n      keccak256\n        /* \"contracts/BookStore.sol\":960:1156  books[_bookId] = Book({... */\n      0x00\n      dup3\n      add\n      mload\n      dup2\n      0x00\n      add\n      exp(0x0100, 0x00)\n      dup2\n      sload\n      dup2\n      0xffffffffffffffffffffffff\n      mul\n      not\n      and\n      swap1\n      dup4\n      0xffffffffffffffffffffffff\n      and\n      mul\n      or\n      swap1\n      sstore\n      pop\n      0x20\n      dup3\n      add\n      mload\n      dup2\n      0x00\n      add\n      exp(0x0100, 0x0c)\n      dup2\n      sload\n      dup2\n      0xffffffffffffffffffffffff\n      mul\n      not\n      and\n      swap1\n      dup4\n      0xffffffffffffffffffffffff\n      and\n      mul\n      or\n      swap1\n      sstore\n      pop\n      0x40\n      dup3\n      add\n      mload\n      dup2\n      0x00\n      add\n      exp(0x0100, 0x18)\n      dup2\n      sload\n      dup2\n      0xff\n      mul\n      not\n      and\n      swap1\n      dup4\n      iszero\n      iszero\n      mul\n      or\n      swap1\n      sstore\n      pop\n      0x60\n      dup3\n      add\n      mload\n      dup2\n      0x01\n      add\n      swap1\n      dup2\n      tag_80\n      swap2\n      swap1\n      tag_81\n      jump\t// in\n    tag_80:\n      pop\n      0x80\n      dup3\n      add\n      mload\n      dup2\n      0x02\n      add\n      swap1\n      dup2\n      tag_82\n      swap2\n      swap1\n      tag_81\n      jump\t// in\n    tag_82:\n      pop\n      swap1\n      pop\n      pop\n        /* \"contracts/BookStore.sol\":1167:1174  bookIds */\n      0x02\n        /* \"contracts/BookStore.sol\":1180:1187  _bookId */\n      dup8\n        /* \"contracts/BookStore.sol\":1167:1188  bookIds.push(_bookId) */\n      swap1\n      dup1\n      0x01\n      dup2\n      sload\n      add\n      dup1\n      dup3\n      sstore\n      dup1\n      swap2\n      pop\n      pop\n      0x01\n      swap1\n      sub\n      swap1\n      0x00\n      mstore\n      keccak256(0x00, 0x20)\n      add\n      0x00\n      swap1\n      swap2\n      swap1\n      swap2\n      swap1\n      swap2\n      pop\n      sstore\n        /* \"contracts/BookStore.sol\":1214:1221  _bookId */\n      dup7\n        /* \"contracts/BookStore.sol\":1204:1255  BookAdded(_bookId, _title, _author, _price, _stock) */\n      0x907463480edcb1016ad34b5c752a56e18c2aea6ed1dd0e18ec287d63d670d88f\n        /* \"contracts/BookStore.sol\":1223:1229  _title */\n      dup8\n      dup8\n        /* \"contracts/BookStore.sol\":1231:1238  _author */\n      dup8\n      dup8\n        /* \"contracts/BookStore.sol\":1240:1246  _price */\n      dup7\n        /* \"contracts/BookStore.sol\":1248:1254  _stock */\n      dup9\n        /* \"contracts/BookStore.sol\":1204:1255  BookAdded(_bookId, _title, _author, _price, _stock) */\n      mload(0x40)\n      tag_84\n      swap7\n      swap6\n      swap5\n      swap4\n      swap3\n      swap2\n      swap1\n      tag_85\n      jump\t// in\n    tag_84:\n      mload(0x40)\n      dup1\n      swap2\n      sub\n      swap1\n      log2\n        /* \"contracts/BookStore.sol\":767:1263  function addBook(uint256 _bookId, string calldata _title, string calldata _author, uint96 _stock, uint96 _price) external {... */\n      pop\n      pop\n      pop\n      pop\n      pop\n      pop\n      pop\n      jump\t// out\n        /* \"contracts/BookStore.sol\":1309:1647  function getAllBooks() external view returns (string[] memory) {... */\n    tag_22:\n        /* \"contracts/BookStore.sol\":1355:1370  string[] memory */\n      0x60\n        /* \"contracts/BookStore.sol\":1383:1405  string[] memory titles */\n      0x00\n        /* \"contracts/BookStore.sol\":1421:1428  bookIds */\n      0x02\n        /* \"contracts/BookStore.sol\":1421:1435  bookIds.length */\n      dup1\n      sload\n      swap1\n      pop\n        /* \"contracts/BookStore.sol\":1408:1436  new string[](bookIds.length) */\n      0xffffffffffffffff\n      dup2\n      gt\n      iszero\n      tag_87\n      jumpi\n      tag_88\n      tag_89\n      jump\t// in\n    tag_88:\n    tag_87:\n      mload(0x40)\n      swap1\n      dup1\n      dup3\n      mstore\n      dup1\n      0x20\n      mul\n      0x20\n      add\n      dup3\n      add\n      0x40\n      mstore\n      dup1\n      iszero\n      tag_90\n      jumpi\n      dup2\n      0x20\n      add\n    tag_91:\n      0x60\n      dup2\n      mstore\n      0x20\n      add\n      swap1\n      0x01\n      swap1\n      sub\n      swap1\n      dup2\n      tag_91\n      jumpi\n      swap1\n      pop\n    tag_90:\n      pop\n        /* \"contracts/BookStore.sol\":1383:1436  string[] memory titles = new string[](bookIds.length) */\n      swap1\n      pop\n        /* \"contracts/BookStore.sol\":1452:1461  uint256 i */\n      0x00\n        /* \"contracts/BookStore.sol\":1447:1616  for (uint256 i; i < bookIds.length;){... */\n    tag_92:\n        /* \"contracts/BookStore.sol\":1467:1474  bookIds */\n      0x02\n        /* \"contracts/BookStore.sol\":1467:1481  bookIds.length */\n      dup1\n      sload\n      swap1\n      pop\n        /* \"contracts/BookStore.sol\":1463:1464  i */\n      dup2\n        /* \"contracts/BookStore.sol\":1463:1481  i < bookIds.length */\n      lt\n        /* \"contracts/BookStore.sol\":1447:1616  for (uint256 i; i < bookIds.length;){... */\n      iszero\n      tag_93\n      jumpi\n        /* \"contracts/BookStore.sol\":1498:1515  Book storage book */\n      0x00\n        /* \"contracts/BookStore.sol\":1518:1523  books */\n      0x01\n        /* \"contracts/BookStore.sol\":1518:1535  books[bookIds[i]] */\n      0x00\n        /* \"contracts/BookStore.sol\":1524:1531  bookIds */\n      0x02\n        /* \"contracts/BookStore.sol\":1532:1533  i */\n      dup5\n        /* \"contracts/BookStore.sol\":1524:1534  bookIds[i] */\n      dup2\n      sload\n      dup2\n      lt\n      tag_95\n      jumpi\n      tag_96\n      tag_97\n      jump\t// in\n    tag_96:\n    tag_95:\n      swap1\n      0x00\n      mstore\n      keccak256(0x00, 0x20)\n      add\n      sload\n        /* \"contracts/BookStore.sol\":1518:1535  books[bookIds[i]] */\n      dup2\n      mstore\n      0x20\n      add\n      swap1\n      dup2\n      mstore\n      0x20\n      add\n      0x00\n      keccak256\n        /* \"contracts/BookStore.sol\":1498:1535  Book storage book = books[bookIds[i]] */\n      swap1\n      pop\n        /* \"contracts/BookStore.sol\":1562:1566  book */\n      dup1\n        /* \"contracts/BookStore.sol\":1562:1572  book.title */\n      0x01\n      add\n        /* \"contracts/BookStore.sol\":1550:1572  titles[i] = book.title */\n      dup1\n      sload\n      tag_99\n      swap1\n      tag_100\n      jump\t// in\n    tag_99:\n      dup1\n      0x1f\n      add\n      0x20\n      dup1\n      swap2\n      div\n      mul\n      0x20\n      add\n      mload(0x40)\n      swap1\n      dup2\n      add\n      0x40\n      mstore\n      dup1\n      swap3\n      swap2\n      swap1\n      dup2\n      dup2\n      mstore\n      0x20\n      add\n      dup3\n      dup1\n      sload\n      tag_101\n      swap1\n      tag_100\n      jump\t// in\n    tag_101:\n      dup1\n      iszero\n      tag_102\n      jumpi\n      dup1\n      0x1f\n      lt\n      tag_103\n      jumpi\n      0x0100\n      dup1\n      dup4\n      sload\n      div\n      mul\n      dup4\n      mstore\n      swap2\n      0x20\n      add\n      swap2\n      jump(tag_102)\n    tag_103:\n      dup3\n      add\n      swap2\n      swap1\n      0x00\n      mstore\n      keccak256(0x00, 0x20)\n      swap1\n    tag_104:\n      dup2\n      sload\n      dup2\n      mstore\n      swap1\n      0x01\n      add\n      swap1\n      0x20\n      add\n      dup1\n      dup4\n      gt\n      tag_104\n      jumpi\n      dup3\n      swap1\n      sub\n      0x1f\n      and\n      dup3\n      add\n      swap2\n    tag_102:\n      pop\n      pop\n      pop\n      pop\n      pop\n        /* \"contracts/BookStore.sol\":1550:1556  titles */\n      dup4\n        /* \"contracts/BookStore.sol\":1557:1558  i */\n      dup4\n        /* \"contracts/BookStore.sol\":1550:1559  titles[i] */\n      dup2\n      mload\n      dup2\n      lt\n      tag_105\n      jumpi\n      tag_106\n      tag_97\n      jump\t// in\n    tag_106:\n    tag_105:\n      0x20\n      mul\n      0x20\n      add\n      add\n        /* \"contracts/BookStore.sol\":1550:1572  titles[i] = book.title */\n      dup2\n      swap1\n      mstore\n      pop\n        /* \"contracts/BookStore.sol\":1599:1602  i++ */\n      dup2\n      dup1\n      0x01\n      add\n      swap3\n      pop\n      pop\n        /* \"contracts/BookStore.sol\":1483:1616  {... */\n      pop\n        /* \"contracts/BookStore.sol\":1447:1616  for (uint256 i; i < bookIds.length;){... */\n      jump(tag_92)\n    tag_93:\n      pop\n        /* \"contracts/BookStore.sol\":1633:1639  titles */\n      dup1\n        /* \"contracts/BookStore.sol\":1626:1639  return titles */\n      swap2\n      pop\n      pop\n        /* \"contracts/BookStore.sol\":1309:1647  function getAllBooks() external view returns (string[] memory) {... */\n      swap1\n      jump\t// out\n        /* \"contracts/BookStore.sol\":3048:3157  function getOwnerBalance() external view returns (uint256) {... */\n    tag_27:\n        /* \"contracts/BookStore.sol\":3098:3105  uint256 */\n      0x00\n        /* \"contracts/BookStore.sol\":3133:3140  owner() */\n      tag_108\n        /* \"contracts/BookStore.sol\":3133:3138  owner */\n      tag_48\n        /* \"contracts/BookStore.sol\":3133:3140  owner() */\n      jump\t// in\n    tag_108:\n        /* \"contracts/BookStore.sol\":3125:3149  address(owner()).balance */\n      0xffffffffffffffffffffffffffffffffffffffff\n      and\n      balance\n        /* \"contracts/BookStore.sol\":3118:3149  return address(owner()).balance */\n      swap1\n      pop\n        /* \"contracts/BookStore.sol\":3048:3157  function getOwnerBalance() external view returns (uint256) {... */\n      swap1\n      jump\t// out\n        /* \"contracts/BookStore.sol\":3315:3600  function getBooks(uint256 _bookId) external view returns (string memory title, string memory author, uint96 price, uint96 stock, bool isAvailable) {... */\n    tag_34:\n        /* \"contracts/BookStore.sol\":3373:3392  string memory title */\n      0x60\n        /* \"contracts/BookStore.sol\":3394:3414  string memory author */\n      dup1\n        /* \"contracts/BookStore.sol\":3416:3428  uint96 price */\n      0x00\n        /* \"contracts/BookStore.sol\":3430:3442  uint96 stock */\n      dup1\n        /* \"contracts/BookStore.sol\":3444:3460  bool isAvailable */\n      0x00\n        /* \"contracts/BookStore.sol\":3473:3490  Book storage book */\n      dup1\n        /* \"contracts/BookStore.sol\":3493:3498  books */\n      0x01\n        /* \"contracts/BookStore.sol\":3493:3507  books[_bookId] */\n      0x00\n        /* \"contracts/BookStore.sol\":3499:3506  _bookId */\n      dup9\n        /* \"contracts/BookStore.sol\":3493:3507  books[_bookId] */\n      dup2\n      mstore\n      0x20\n      add\n      swap1\n      dup2\n      mstore\n      0x20\n      add\n      0x00\n      keccak256\n        /* \"contracts/BookStore.sol\":3473:3507  Book storage book = books[_bookId] */\n      swap1\n      pop\n        /* \"contracts/BookStore.sol\":3526:3530  book */\n      dup1\n        /* \"contracts/BookStore.sol\":3526:3536  book.title */\n      0x01\n      add\n        /* \"contracts/BookStore.sol\":3538:3542  book */\n      dup2\n        /* \"contracts/BookStore.sol\":3538:3549  book.author */\n      0x02\n      add\n        /* \"contracts/BookStore.sol\":3551:3555  book */\n      dup3\n        /* \"contracts/BookStore.sol\":3551:3561  book.price */\n      0x00\n      add\n      0x0c\n      swap1\n      sload\n      swap1\n      0x0100\n      exp\n      swap1\n      div\n      0xffffffffffffffffffffffff\n      and\n        /* \"contracts/BookStore.sol\":3563:3567  book */\n      dup4\n        /* \"contracts/BookStore.sol\":3563:3573  book.stock */\n      0x00\n      add\n      0x00\n      swap1\n      sload\n      swap1\n      0x0100\n      exp\n      swap1\n      div\n      0xffffffffffffffffffffffff\n      and\n        /* \"contracts/BookStore.sol\":3575:3579  book */\n      dup5\n        /* \"contracts/BookStore.sol\":3575:3591  book.isAvailable */\n      0x00\n      add\n      0x18\n      swap1\n      sload\n      swap1\n      0x0100\n      exp\n      swap1\n      div\n      0xff\n      and\n        /* \"contracts/BookStore.sol\":3518:3592  return (book.title, book.author, book.price, book.stock, book.isAvailable) */\n      dup5\n      dup1\n      sload\n      tag_110\n      swap1\n      tag_100\n      jump\t// in\n    tag_110:\n      dup1\n      0x1f\n      add\n      0x20\n      dup1\n      swap2\n      div\n      mul\n      0x20\n      add\n      mload(0x40)\n      swap1\n      dup2\n      add\n      0x40\n      mstore\n      dup1\n      swap3\n      swap2\n      swap1\n      dup2\n      dup2\n      mstore\n      0x20\n      add\n      dup3\n      dup1\n      sload\n      tag_111\n      swap1\n      tag_100\n      jump\t// in\n    tag_111:\n      dup1\n      iszero\n      tag_112\n      jumpi\n      dup1\n      0x1f\n      lt\n      tag_113\n      jumpi\n      0x0100\n      dup1\n      dup4\n      sload\n      div\n      mul\n      dup4\n      mstore\n      swap2\n      0x20\n      add\n      swap2\n      jump(tag_112)\n    tag_113:\n      dup3\n      add\n      swap2\n      swap1\n      0x00\n      mstore\n      keccak256(0x00, 0x20)\n      swap1\n    tag_114:\n      dup2\n      sload\n      dup2\n      mstore\n      swap1\n      0x01\n      add\n      swap1\n      0x20\n      add\n      dup1\n      dup4\n      gt\n      tag_114\n      jumpi\n      dup3\n      swap1\n      sub\n      0x1f\n      and\n      dup3\n      add\n      swap2\n    tag_112:\n      pop\n      pop\n      pop\n      pop\n      pop\n      swap5\n      pop\n      dup4\n      dup1\n      sload\n      tag_115\n      swap1\n      tag_100\n      jump\t// in\n    tag_115:\n      dup1\n      0x1f\n      add\n      0x20\n      dup1\n      swap2\n      div\n      mul\n      0x20\n      add\n      mload(0x40)\n      swap1\n      dup2\n      add\n      0x40\n      mstore\n      dup1\n      swap3\n      swap2\n      swap1\n      dup2\n      dup2\n      mstore\n      0x20\n      add\n      dup3\n      dup1\n      sload\n      tag_116\n      swap1\n      tag_100\n      jump\t// in\n    tag_116:\n      dup1\n      iszero\n      tag_117\n      jumpi\n      dup1\n      0x1f\n      lt\n      tag_118\n      jumpi\n      0x0100\n      dup1\n      dup4\n      sload\n      div\n      mul\n      dup4\n      mstore\n      swap2\n      0x20\n      add\n      swap2\n      jump(tag_117)\n    tag_118:\n      dup3\n      add\n      swap2\n      swap1\n      0x00\n      mstore\n      keccak256(0x00, 0x20)\n      swap1\n    tag_119:\n      dup2\n      sload\n      dup2\n      mstore\n      swap1\n      0x01\n      add\n      swap1\n      0x20\n      add\n      dup1\n      dup4\n      gt\n      tag_119\n      jumpi\n      dup3\n      swap1\n      sub\n      0x1f\n      and\n      dup3\n      add\n      swap2\n    tag_117:\n      pop\n      pop\n      pop\n      pop\n      pop\n      swap4\n      pop\n      swap6\n      pop\n      swap6\n      pop\n      swap6\n      pop\n      swap6\n      pop\n      swap6\n      pop\n      pop\n        /* \"contracts/BookStore.sol\":3315:3600  function getBooks(uint256 _bookId) external view returns (string memory title, string memory author, uint96 price, uint96 stock, bool isAvailable) {... */\n      swap2\n      swap4\n      swap6\n      swap1\n      swap3\n      swap5\n      pop\n      jump\t// out\n        /* \"contracts/BookStore.sol\":354:391  mapping(uint256 => Book) public books */\n    tag_40:\n      mstore(0x20, 0x01)\n      dup1\n      0x00\n      mstore\n      keccak256(0x00, 0x40)\n      0x00\n      swap2\n      pop\n      swap1\n      pop\n      dup1\n      0x00\n      add\n      0x00\n      swap1\n      sload\n      swap1\n      0x0100\n      exp\n      swap1\n      div\n      0xffffffffffffffffffffffff\n      and\n      swap1\n      dup1\n      0x00\n      add\n      0x0c\n      swap1\n      sload\n      swap1\n      0x0100\n      exp\n      swap1\n      div\n      0xffffffffffffffffffffffff\n      and\n      swap1\n      dup1\n      0x00\n      add\n      0x18\n      swap1\n      sload\n      swap1\n      0x0100\n      exp\n      swap1\n      div\n      0xff\n      and\n      swap1\n      dup1\n      0x01\n      add\n      dup1\n      sload\n      tag_120\n      swap1\n      tag_100\n      jump\t// in\n    tag_120:\n      dup1\n      0x1f\n      add\n      0x20\n      dup1\n      swap2\n      div\n      mul\n      0x20\n      add\n      mload(0x40)\n      swap1\n      dup2\n      add\n      0x40\n      mstore\n      dup1\n      swap3\n      swap2\n      swap1\n      dup2\n      dup2\n      mstore\n      0x20\n      add\n      dup3\n      dup1\n      sload\n      tag_121\n      swap1\n      tag_100\n      jump\t// in\n    tag_121:\n      dup1\n      iszero\n      tag_122\n      jumpi\n      dup1\n      0x1f\n      lt\n      tag_123\n      jumpi\n      0x0100\n      dup1\n      dup4\n      sload\n      div\n      mul\n      dup4\n      mstore\n      swap2\n      0x20\n      add\n      swap2\n      jump(tag_122)\n    tag_123:\n      dup3\n      add\n      swap2\n      swap1\n      0x00\n      mstore\n      keccak256(0x00, 0x20)\n      swap1\n    tag_124:\n      dup2\n      sload\n      dup2\n      mstore\n      swap1\n      0x01\n      add\n      swap1\n      0x20\n      add\n      dup1\n      dup4\n      gt\n      tag_124\n      jumpi\n      dup3\n      swap1\n      sub\n      0x1f\n      and\n      dup3\n      add\n      swap2\n    tag_122:\n      pop\n      pop\n      pop\n      pop\n      pop\n      swap1\n      dup1\n      0x02\n      add\n      dup1\n      sload\n      tag_125\n      swap1\n      tag_100\n      jump\t// in\n    tag_125:\n      dup1\n      0x1f\n      add\n      0x20\n      dup1\n      swap2\n      div\n      mul\n      0x20\n      add\n      mload(0x40)\n      swap1\n      dup2\n      add\n      0x40\n      mstore\n      dup1\n      swap3\n      swap2\n      swap1\n      dup2\n      dup2\n      mstore\n      0x20\n      add\n      dup3\n      dup1\n      sload\n      tag_126\n      swap1\n      tag_100\n      jump\t// in\n    tag_126:\n      dup1\n      iszero\n      tag_127\n      jumpi\n      dup1\n      0x1f\n      lt\n      tag_128\n      jumpi\n      0x0100\n      dup1\n      dup4\n      sload\n      div\n      mul\n      dup4\n      mstore\n      swap2\n      0x20\n      add\n      swap2\n      jump(tag_127)\n    tag_128:\n      dup3\n      add\n      swap2\n      swap1\n      0x00\n      mstore\n      keccak256(0x00, 0x20)\n      swap1\n    tag_129:\n      dup2\n      sload\n      dup2\n      mstore\n      swap1\n      0x01\n      add\n      swap1\n      0x20\n      add\n      dup1\n      dup4\n      gt\n      tag_129\n      jumpi\n      dup3\n      swap1\n      sub\n      0x1f\n      and\n      dup3\n      add\n      swap2\n    tag_127:\n      pop\n      pop\n      pop\n      pop\n      pop\n      swap1\n      pop\n      dup6\n      jump\t// out\n        /* \"@openzeppelin/contracts/access/Ownable.sol\":2293:2394  function renounceOwnership() public virtual onlyOwner {... */\n    tag_45:\n        /* \"@openzeppelin/contracts/access/Ownable.sol\":1531:1544  _checkOwner() */\n      tag_131\n        /* \"@openzeppelin/contracts/access/Ownable.sol\":1531:1542  _checkOwner */\n      tag_132\n        /* \"@openzeppelin/contracts/access/Ownable.sol\":1531:1544  _checkOwner() */\n      jump\t// in\n    tag_131:\n        /* \"@openzeppelin/contracts/access/Ownable.sol\":2357:2387  _transferOwnership(address(0)) */\n      tag_134\n        /* \"@openzeppelin/contracts/access/Ownable.sol\":2384:2385  0 */\n      0x00\n        /* \"@openzeppelin/contracts/access/Ownable.sol\":2357:2375  _transferOwnership */\n      tag_135\n        /* \"@openzeppelin/contracts/access/Ownable.sol\":2357:2387  _transferOwnership(address(0)) */\n      jump\t// in\n    tag_134:\n        /* \"@openzeppelin/contracts/access/Ownable.sol\":2293:2394  function renounceOwnership() public virtual onlyOwner {... */\n      jump\t// out\n        /* \"@openzeppelin/contracts/access/Ownable.sol\":1638:1723  function owner() public view virtual returns (address) {... */\n    tag_48:\n        /* \"@openzeppelin/contracts/access/Ownable.sol\":1684:1691  address */\n      0x00\n        /* \"@openzeppelin/contracts/access/Ownable.sol\":1710:1716  _owner */\n      dup1\n      0x00\n      swap1\n      sload\n      swap1\n      0x0100\n      exp\n      swap1\n      div\n      0xffffffffffffffffffffffffffffffffffffffff\n      and\n        /* \"@openzeppelin/contracts/access/Ownable.sol\":1703:1716  return _owner */\n      swap1\n      pop\n        /* \"@openzeppelin/contracts/access/Ownable.sol\":1638:1723  function owner() public view virtual returns (address) {... */\n      swap1\n      jump\t// out\n        /* \"contracts/BookStore.sol\":3207:3307  function getTotalBooksSold() external view returns (uint96) {... */\n    tag_53:\n        /* \"contracts/BookStore.sol\":3259:3265  uint96 */\n      0x00\n        /* \"contracts/BookStore.sol\":3285:3299  totalBooksSold */\n      dup1\n      0x14\n      swap1\n      sload\n      swap1\n      0x0100\n      exp\n      swap1\n      div\n      0xffffffffffffffffffffffff\n      and\n        /* \"contracts/BookStore.sol\":3278:3299  return totalBooksSold */\n      swap1\n      pop\n        /* \"contracts/BookStore.sol\":3207:3307  function getTotalBooksSold() external view returns (uint96) {... */\n      swap1\n      jump\t// out\n        /* \"contracts/BookStore.sol\":2537:3005  function removeBook(uint256 _bookId) external onlyOwner {... */\n    tag_59:\n        /* \"@openzeppelin/contracts/access/Ownable.sol\":1531:1544  _checkOwner() */\n      tag_139\n        /* \"@openzeppelin/contracts/access/Ownable.sol\":1531:1542  _checkOwner */\n      tag_132\n        /* \"@openzeppelin/contracts/access/Ownable.sol\":1531:1544  _checkOwner() */\n      jump\t// in\n    tag_139:\n        /* \"contracts/BookStore.sol\":2636:2637  0 */\n      0x00\n        /* \"contracts/BookStore.sol\":2612:2617  books */\n      0x01\n        /* \"contracts/BookStore.sol\":2612:2626  books[_bookId] */\n      0x00\n        /* \"contracts/BookStore.sol\":2618:2625  _bookId */\n      dup4\n        /* \"contracts/BookStore.sol\":2612:2626  books[_bookId] */\n      dup2\n      mstore\n      0x20\n      add\n      swap1\n      dup2\n      mstore\n      0x20\n      add\n      0x00\n      keccak256\n        /* \"contracts/BookStore.sol\":2612:2632  books[_bookId].price */\n      0x00\n      add\n      0x0c\n      swap1\n      sload\n      swap1\n      0x0100\n      exp\n      swap1\n      div\n      0xffffffffffffffffffffffff\n      and\n        /* \"contracts/BookStore.sol\":2612:2637  books[_bookId].price != 0 */\n      0xffffffffffffffffffffffff\n      and\n      sub\n        /* \"contracts/BookStore.sol\":2604:2656  require(books[_bookId].price != 0, \"Book not exist\") */\n      tag_141\n      jumpi\n      mload(0x40)\n      0x08c379a000000000000000000000000000000000000000000000000000000000\n      dup2\n      mstore\n      0x04\n      add\n      tag_142\n      swap1\n      tag_143\n      jump\t// in\n    tag_142:\n      mload(0x40)\n      dup1\n      swap2\n      sub\n      swap1\n      revert\n    tag_141:\n        /* \"contracts/BookStore.sol\":2674:2679  books */\n      0x01\n        /* \"contracts/BookStore.sol\":2674:2688  books[_bookId] */\n      0x00\n        /* \"contracts/BookStore.sol\":2680:2687  _bookId */\n      dup3\n        /* \"contracts/BookStore.sol\":2674:2688  books[_bookId] */\n      dup2\n      mstore\n      0x20\n      add\n      swap1\n      dup2\n      mstore\n      0x20\n      add\n      0x00\n      keccak256\n      0x00\n        /* \"contracts/BookStore.sol\":2667:2688  delete books[_bookId] */\n      dup1\n      dup3\n      add\n      exp(0x0100, 0x00)\n      dup2\n      sload\n      swap1\n      0xffffffffffffffffffffffff\n      mul\n      not\n      and\n      swap1\n      sstore\n      0x00\n      dup3\n      add\n      exp(0x0100, 0x0c)\n      dup2\n      sload\n      swap1\n      0xffffffffffffffffffffffff\n      mul\n      not\n      and\n      swap1\n      sstore\n      0x00\n      dup3\n      add\n      exp(0x0100, 0x18)\n      dup2\n      sload\n      swap1\n      0xff\n      mul\n      not\n      and\n      swap1\n      sstore\n      0x01\n      dup3\n      add\n      0x00\n      tag_144\n      swap2\n      swap1\n      tag_145\n      jump\t// in\n    tag_144:\n      0x02\n      dup3\n      add\n      0x00\n      tag_146\n      swap2\n      swap1\n      tag_145\n      jump\t// in\n    tag_146:\n      pop\n      pop\n        /* \"contracts/BookStore.sol\":2714:2723  uint256 i */\n      0x00\n        /* \"contracts/BookStore.sol\":2709:2962  for (uint256 i; i < bookIds.length;) {... */\n    tag_147:\n        /* \"contracts/BookStore.sol\":2729:2736  bookIds */\n      0x02\n        /* \"contracts/BookStore.sol\":2729:2743  bookIds.length */\n      dup1\n      sload\n      swap1\n      pop\n        /* \"contracts/BookStore.sol\":2725:2726  i */\n      dup2\n        /* \"contracts/BookStore.sol\":2725:2743  i < bookIds.length */\n      lt\n        /* \"contracts/BookStore.sol\":2709:2962  for (uint256 i; i < bookIds.length;) {... */\n      iszero\n      tag_148\n      jumpi\n        /* \"contracts/BookStore.sol\":2779:2786  _bookId */\n      dup2\n        /* \"contracts/BookStore.sol\":2765:2772  bookIds */\n      0x02\n        /* \"contracts/BookStore.sol\":2773:2774  i */\n      dup3\n        /* \"contracts/BookStore.sol\":2765:2775  bookIds[i] */\n      dup2\n      sload\n      dup2\n      lt\n      tag_150\n      jumpi\n      tag_151\n      tag_97\n      jump\t// in\n    tag_151:\n    tag_150:\n      swap1\n      0x00\n      mstore\n      keccak256(0x00, 0x20)\n      add\n      sload\n        /* \"contracts/BookStore.sol\":2765:2786  bookIds[i] == _bookId */\n      sub\n        /* \"contracts/BookStore.sol\":2761:2919  if (bookIds[i] == _bookId) {... */\n      tag_153\n      jumpi\n        /* \"contracts/BookStore.sol\":2820:2827  bookIds */\n      0x02\n        /* \"contracts/BookStore.sol\":2845:2846  1 */\n      0x01\n        /* \"contracts/BookStore.sol\":2828:2835  bookIds */\n      0x02\n        /* \"contracts/BookStore.sol\":2828:2842  bookIds.length */\n      dup1\n      sload\n      swap1\n      pop\n        /* \"contracts/BookStore.sol\":2828:2846  bookIds.length - 1 */\n      tag_154\n      swap2\n      swap1\n      tag_155\n      jump\t// in\n    tag_154:\n        /* \"contracts/BookStore.sol\":2820:2847  bookIds[bookIds.length - 1] */\n      dup2\n      sload\n      dup2\n      lt\n      tag_156\n      jumpi\n      tag_157\n      tag_97\n      jump\t// in\n    tag_157:\n    tag_156:\n      swap1\n      0x00\n      mstore\n      keccak256(0x00, 0x20)\n      add\n      sload\n        /* \"contracts/BookStore.sol\":2807:2814  bookIds */\n      0x02\n        /* \"contracts/BookStore.sol\":2815:2816  i */\n      dup3\n        /* \"contracts/BookStore.sol\":2807:2817  bookIds[i] */\n      dup2\n      sload\n      dup2\n      lt\n      tag_159\n      jumpi\n      tag_160\n      tag_97\n      jump\t// in\n    tag_160:\n    tag_159:\n      swap1\n      0x00\n      mstore\n      keccak256(0x00, 0x20)\n      add\n        /* \"contracts/BookStore.sol\":2807:2847  bookIds[i] = bookIds[bookIds.length - 1] */\n      dup2\n      swap1\n      sstore\n      pop\n        /* \"contracts/BookStore.sol\":2866:2873  bookIds */\n      0x02\n        /* \"contracts/BookStore.sol\":2866:2879  bookIds.pop() */\n      dup1\n      sload\n      dup1\n      tag_162\n      jumpi\n      tag_163\n      tag_164\n      jump\t// in\n    tag_163:\n    tag_162:\n      0x01\n      swap1\n      sub\n      dup2\n      dup2\n      swap1\n      0x00\n      mstore\n      keccak256(0x00, 0x20)\n      add\n      0x00\n      swap1\n      sstore\n      swap1\n      sstore\n        /* \"contracts/BookStore.sol\":2898:2903  break */\n      jump(tag_148)\n        /* \"contracts/BookStore.sol\":2761:2919  if (bookIds[i] == _bookId) {... */\n    tag_153:\n        /* \"contracts/BookStore.sol\":2945:2948  ++i */\n      dup1\n      0x01\n      add\n      swap1\n      pop\n        /* \"contracts/BookStore.sol\":2709:2962  for (uint256 i; i < bookIds.length;) {... */\n      jump(tag_147)\n    tag_148:\n      pop\n        /* \"contracts/BookStore.sol\":2989:2996  _bookId */\n      dup1\n        /* \"contracts/BookStore.sol\":2977:2997  BookRemoved(_bookId) */\n      0x3c5ce13264433bcf97e5d53c97af4fc33800e8c9dd927f965b116d0018d7cddf\n      mload(0x40)\n      mload(0x40)\n      dup1\n      swap2\n      sub\n      swap1\n      log2\n        /* \"contracts/BookStore.sol\":2537:3005  function removeBook(uint256 _bookId) external onlyOwner {... */\n      pop\n      jump\t// out\n        /* \"@openzeppelin/contracts/access/Ownable.sol\":2543:2758  function transferOwnership(address newOwner) public virtual onlyOwner {... */\n    tag_64:\n        /* \"@openzeppelin/contracts/access/Ownable.sol\":1531:1544  _checkOwner() */\n      tag_167\n        /* \"@openzeppelin/contracts/access/Ownable.sol\":1531:1542  _checkOwner */\n      tag_132\n        /* \"@openzeppelin/contracts/access/Ownable.sol\":1531:1544  _checkOwner() */\n      jump\t// in\n    tag_167:\n        /* \"@openzeppelin/contracts/access/Ownable.sol\":2647:2648  0 */\n      0x00\n        /* \"@openzeppelin/contracts/access/Ownable.sol\":2627:2649  newOwner == address(0) */\n      0xffffffffffffffffffffffffffffffffffffffff\n      and\n        /* \"@openzeppelin/contracts/access/Ownable.sol\":2627:2635  newOwner */\n      dup2\n        /* \"@openzeppelin/contracts/access/Ownable.sol\":2627:2649  newOwner == address(0) */\n      0xffffffffffffffffffffffffffffffffffffffff\n      and\n      sub\n        /* \"@openzeppelin/contracts/access/Ownable.sol\":2623:2714  if (newOwner == address(0)) {... */\n      tag_169\n      jumpi\n        /* \"@openzeppelin/contracts/access/Ownable.sol\":2700:2701  0 */\n      0x00\n        /* \"@openzeppelin/contracts/access/Ownable.sol\":2672:2703  OwnableInvalidOwner(address(0)) */\n      mload(0x40)\n      0x1e4fbdf700000000000000000000000000000000000000000000000000000000\n      dup2\n      mstore\n      0x04\n      add\n      tag_170\n      swap2\n      swap1\n      tag_50\n      jump\t// in\n    tag_170:\n      mload(0x40)\n      dup1\n      swap2\n      sub\n      swap1\n      revert\n        /* \"@openzeppelin/contracts/access/Ownable.sol\":2623:2714  if (newOwner == address(0)) {... */\n    tag_169:\n        /* \"@openzeppelin/contracts/access/Ownable.sol\":2723:2751  _transferOwnership(newOwner) */\n      tag_171\n        /* \"@openzeppelin/contracts/access/Ownable.sol\":2742:2750  newOwner */\n      dup2\n        /* \"@openzeppelin/contracts/access/Ownable.sol\":2723:2741  _transferOwnership */\n      tag_135\n        /* \"@openzeppelin/contracts/access/Ownable.sol\":2723:2751  _transferOwnership(newOwner) */\n      jump\t// in\n    tag_171:\n        /* \"@openzeppelin/contracts/access/Ownable.sol\":2543:2758  function transferOwnership(address newOwner) public virtual onlyOwner {... */\n      pop\n      jump\t// out\n        /* \"contracts/BookStore.sol\":3608:4211  function buyBook(uint256 _bookId, uint96 _quantity) external virtual  payable {... */\n    tag_68:\n        /* \"contracts/BookStore.sol\":3697:3714  Book storage book */\n      0x00\n        /* \"contracts/BookStore.sol\":3717:3722  books */\n      0x01\n        /* \"contracts/BookStore.sol\":3717:3731  books[_bookId] */\n      0x00\n        /* \"contracts/BookStore.sol\":3723:3730  _bookId */\n      dup5\n        /* \"contracts/BookStore.sol\":3717:3731  books[_bookId] */\n      dup2\n      mstore\n      0x20\n      add\n      swap1\n      dup2\n      mstore\n      0x20\n      add\n      0x00\n      keccak256\n        /* \"contracts/BookStore.sol\":3697:3731  Book storage book = books[_bookId] */\n      swap1\n      pop\n        /* \"contracts/BookStore.sol\":3750:3754  book */\n      dup1\n        /* \"contracts/BookStore.sol\":3750:3766  book.isAvailable */\n      0x00\n      add\n      0x18\n      swap1\n      sload\n      swap1\n      0x0100\n      exp\n      swap1\n      div\n      0xff\n      and\n        /* \"contracts/BookStore.sol\":3742:3784  require(book.isAvailable, \"Not available\") */\n      tag_173\n      jumpi\n      mload(0x40)\n      0x08c379a000000000000000000000000000000000000000000000000000000000\n      dup2\n      mstore\n      0x04\n      add\n      tag_174\n      swap1\n      tag_175\n      jump\t// in\n    tag_174:\n      mload(0x40)\n      dup1\n      swap2\n      sub\n      swap1\n      revert\n    tag_173:\n        /* \"contracts/BookStore.sol\":3817:3826  _quantity */\n      dup2\n        /* \"contracts/BookStore.sol\":3803:3826  book.stock >= _quantity */\n      0xffffffffffffffffffffffff\n      and\n        /* \"contracts/BookStore.sol\":3803:3807  book */\n      dup2\n        /* \"contracts/BookStore.sol\":3803:3813  book.stock */\n      0x00\n      add\n      0x00\n      swap1\n      sload\n      swap1\n      0x0100\n      exp\n      swap1\n      div\n      0xffffffffffffffffffffffff\n      and\n        /* \"contracts/BookStore.sol\":3803:3826  book.stock >= _quantity */\n      0xffffffffffffffffffffffff\n      and\n      lt\n      iszero\n        /* \"contracts/BookStore.sol\":3795:3847  require(book.stock >= _quantity, \"Not enough stock\") */\n      tag_176\n      jumpi\n      mload(0x40)\n      0x08c379a000000000000000000000000000000000000000000000000000000000\n      dup2\n      mstore\n      0x04\n      add\n      tag_177\n      swap1\n      tag_178\n      jump\t// in\n    tag_177:\n      mload(0x40)\n      dup1\n      swap2\n      sub\n      swap1\n      revert\n    tag_176:\n        /* \"contracts/BookStore.sol\":3892:3901  _quantity */\n      dup2\n        /* \"contracts/BookStore.sol\":3879:3883  book */\n      dup2\n        /* \"contracts/BookStore.sol\":3879:3889  book.price */\n      0x00\n      add\n      0x0c\n      swap1\n      sload\n      swap1\n      0x0100\n      exp\n      swap1\n      div\n      0xffffffffffffffffffffffff\n      and\n        /* \"contracts/BookStore.sol\":3879:3901  book.price * _quantity */\n      tag_179\n      swap2\n      swap1\n      tag_79\n      jump\t// in\n    tag_179:\n        /* \"contracts/BookStore.sol\":3866:3901  msg.value == book.price * _quantity */\n      0xffffffffffffffffffffffff\n      and\n        /* \"contracts/BookStore.sol\":3866:3875  msg.value */\n      callvalue\n        /* \"contracts/BookStore.sol\":3866:3901  msg.value == book.price * _quantity */\n      eq\n        /* \"contracts/BookStore.sol\":3858:3919  require(msg.value == book.price * _quantity, \"Wrong payment\") */\n      tag_180\n      jumpi\n      mload(0x40)\n      0x08c379a000000000000000000000000000000000000000000000000000000000\n      dup2\n      mstore\n      0x04\n      add\n      tag_181\n      swap1\n      tag_182\n      jump\t// in\n    tag_181:\n      mload(0x40)\n      dup1\n      swap2\n      sub\n      swap1\n      revert\n    tag_180:\n        /* \"contracts/BookStore.sol\":3979:3988  _quantity */\n      dup2\n        /* \"contracts/BookStore.sol\":3965:3969  book */\n      dup2\n        /* \"contracts/BookStore.sol\":3965:3975  book.stock */\n      0x00\n      add\n      0x00\n        /* \"contracts/BookStore.sol\":3965:3988  book.stock -= _quantity */\n      dup3\n      dup3\n      dup3\n      swap1\n      sload\n      swap1\n      0x0100\n      exp\n      swap1\n      div\n      0xffffffffffffffffffffffff\n      and\n      sub\n      swap3\n      pop\n      0x0100\n      exp\n      dup2\n      sload\n      dup2\n      0xffffffffffffffffffffffff\n      mul\n      not\n      and\n      swap1\n      dup4\n      0xffffffffffffffffffffffff\n      and\n      mul\n      or\n      swap1\n      sstore\n      pop\n        /* \"contracts/BookStore.sol\":4021:4030  _quantity */\n      dup2\n        /* \"contracts/BookStore.sol\":4003:4017  totalBooksSold */\n      0x00\n      0x14\n        /* \"contracts/BookStore.sol\":4003:4030  totalBooksSold += _quantity */\n      dup3\n      dup3\n      dup3\n      swap1\n      sload\n      swap1\n      0x0100\n      exp\n      swap1\n      div\n      0xffffffffffffffffffffffff\n      and\n      add\n      swap3\n      pop\n      0x0100\n      exp\n      dup2\n      sload\n      dup2\n      0xffffffffffffffffffffffff\n      mul\n      not\n      and\n      swap1\n      dup4\n      0xffffffffffffffffffffffff\n      and\n      mul\n      or\n      swap1\n      sstore\n      pop\n        /* \"contracts/BookStore.sol\":4094:4095  0 */\n      0x00\n        /* \"contracts/BookStore.sol\":4081:4085  book */\n      dup2\n        /* \"contracts/BookStore.sol\":4081:4091  book.stock */\n      0x00\n      add\n      0x00\n      swap1\n      sload\n      swap1\n      0x0100\n      exp\n      swap1\n      div\n      0xffffffffffffffffffffffff\n      and\n        /* \"contracts/BookStore.sol\":4081:4095  book.stock > 0 */\n      0xffffffffffffffffffffffff\n      and\n      gt\n        /* \"contracts/BookStore.sol\":4062:4066  book */\n      dup2\n        /* \"contracts/BookStore.sol\":4062:4078  book.isAvailable */\n      0x00\n      add\n      0x18\n        /* \"contracts/BookStore.sol\":4062:4095  book.isAvailable = book.stock > 0 */\n      0x0100\n      exp\n      dup2\n      sload\n      dup2\n      0xff\n      mul\n      not\n      and\n      swap1\n      dup4\n      iszero\n      iszero\n      mul\n      or\n      swap1\n      sstore\n      pop\n        /* \"contracts/BookStore.sol\":4114:4121  owner() */\n      tag_183\n        /* \"contracts/BookStore.sol\":4114:4119  owner */\n      tag_48\n        /* \"contracts/BookStore.sol\":4114:4121  owner() */\n      jump\t// in\n    tag_183:\n        /* \"contracts/BookStore.sol\":4106:4131  payable(owner()).transfer */\n      0xffffffffffffffffffffffffffffffffffffffff\n      and\n        /* \"contracts/BookStore.sol\":4106:4142  payable(owner()).transfer(msg.value) */\n      0x08fc\n        /* \"contracts/BookStore.sol\":4132:4141  msg.value */\n      callvalue\n        /* \"contracts/BookStore.sol\":4106:4142  payable(owner()).transfer(msg.value) */\n      swap1\n      dup2\n      iszero\n      mul\n      swap1\n      mload(0x40)\n      0x00\n      mload(0x40)\n      dup1\n      dup4\n      sub\n      dup2\n      dup6\n      dup9\n      dup9\n      call\n      swap4\n      pop\n      pop\n      pop\n      pop\n      iszero\n      dup1\n      iszero\n      tag_185\n      jumpi\n      returndatasize\n      0x00\n      dup1\n      returndatacopy\n      revert(0x00, returndatasize)\n    tag_185:\n      pop\n        /* \"contracts/BookStore.sol\":4181:4191  msg.sender */\n      caller\n        /* \"contracts/BookStore.sol\":4158:4203  BookPurchased(_bookId, msg.sender, _quantity) */\n      0xffffffffffffffffffffffffffffffffffffffff\n      and\n        /* \"contracts/BookStore.sol\":4172:4179  _bookId */\n      dup4\n        /* \"contracts/BookStore.sol\":4158:4203  BookPurchased(_bookId, msg.sender, _quantity) */\n      0x4e8e9bc53224dd7f5549d1a97fe174d12e6ff0064e2ccb78d886fc515c98859d\n        /* \"contracts/BookStore.sol\":4193:4202  _quantity */\n      dup5\n        /* \"contracts/BookStore.sol\":4158:4203  BookPurchased(_bookId, msg.sender, _quantity) */\n      mload(0x40)\n      tag_186\n      swap2\n      swap1\n      tag_55\n      jump\t// in\n    tag_186:\n      mload(0x40)\n      dup1\n      swap2\n      sub\n      swap1\n      log3\n        /* \"contracts/BookStore.sol\":3686:4211  {... */\n      pop\n        /* \"contracts/BookStore.sol\":3608:4211  function buyBook(uint256 _bookId, uint96 _quantity) external virtual  payable {... */\n      pop\n      pop\n      jump\t// out\n        /* \"contracts/BookStore.sol\":1701:2488  function removeBooks(uint256[] calldata _bookIds) external onlyOwner {... */\n    tag_73:\n        /* \"@openzeppelin/contracts/access/Ownable.sol\":1531:1544  _checkOwner() */\n      tag_188\n        /* \"@openzeppelin/contracts/access/Ownable.sol\":1531:1542  _checkOwner */\n      tag_132\n        /* \"@openzeppelin/contracts/access/Ownable.sol\":1531:1544  _checkOwner() */\n      jump\t// in\n    tag_188:\n        /* \"contracts/BookStore.sol\":1781:1795  uint256 length */\n      0x00\n        /* \"contracts/BookStore.sol\":1798:1806  _bookIds */\n      dup3\n      dup3\n        /* \"contracts/BookStore.sol\":1798:1813  _bookIds.length */\n      swap1\n      pop\n        /* \"contracts/BookStore.sol\":1781:1813  uint256 length = _bookIds.length */\n      swap1\n      pop\n        /* \"contracts/BookStore.sol\":1829:1838  uint256 i */\n      0x00\n        /* \"contracts/BookStore.sol\":1824:2439  for (uint256 i; i < length;) {... */\n    tag_190:\n        /* \"contracts/BookStore.sol\":1844:1850  length */\n      dup2\n        /* \"contracts/BookStore.sol\":1840:1841  i */\n      dup2\n        /* \"contracts/BookStore.sol\":1840:1850  i < length */\n      lt\n        /* \"contracts/BookStore.sol\":1824:2439  for (uint256 i; i < length;) {... */\n      iszero\n      tag_191\n      jumpi\n        /* \"contracts/BookStore.sol\":1908:1922  uint256 bookId */\n      0x00\n        /* \"contracts/BookStore.sol\":1925:1933  _bookIds */\n      dup5\n      dup5\n        /* \"contracts/BookStore.sol\":1934:1935  i */\n      dup4\n        /* \"contracts/BookStore.sol\":1925:1936  _bookIds[i] */\n      dup2\n      dup2\n      lt\n      tag_193\n      jumpi\n      tag_194\n      tag_97\n      jump\t// in\n    tag_194:\n    tag_193:\n      swap1\n      pop\n      0x20\n      mul\n      add\n      calldataload\n        /* \"contracts/BookStore.sol\":1908:1936  uint256 bookId = _bookIds[i] */\n      swap1\n      pop\n        /* \"contracts/BookStore.sol\":1982:1983  0 */\n      0x00\n        /* \"contracts/BookStore.sol\":1959:1964  books */\n      0x01\n        /* \"contracts/BookStore.sol\":1959:1972  books[bookId] */\n      0x00\n        /* \"contracts/BookStore.sol\":1965:1971  bookId */\n      dup4\n        /* \"contracts/BookStore.sol\":1959:1972  books[bookId] */\n      dup2\n      mstore\n      0x20\n      add\n      swap1\n      dup2\n      mstore\n      0x20\n      add\n      0x00\n      keccak256\n        /* \"contracts/BookStore.sol\":1959:1978  books[bookId].price */\n      0x00\n      add\n      0x0c\n      swap1\n      sload\n      swap1\n      0x0100\n      exp\n      swap1\n      div\n      0xffffffffffffffffffffffff\n      and\n        /* \"contracts/BookStore.sol\":1959:1983  books[bookId].price != 0 */\n      0xffffffffffffffffffffffff\n      and\n      sub\n        /* \"contracts/BookStore.sol\":1951:2002  require(books[bookId].price != 0, \"Book not exist\") */\n      tag_195\n      jumpi\n      mload(0x40)\n      0x08c379a000000000000000000000000000000000000000000000000000000000\n      dup2\n      mstore\n      0x04\n      add\n      tag_196\n      swap1\n      tag_143\n      jump\t// in\n    tag_196:\n      mload(0x40)\n      dup1\n      swap2\n      sub\n      swap1\n      revert\n    tag_195:\n        /* \"contracts/BookStore.sol\":2024:2029  books */\n      0x01\n        /* \"contracts/BookStore.sol\":2024:2037  books[bookId] */\n      0x00\n        /* \"contracts/BookStore.sol\":2030:2036  bookId */\n      dup3\n        /* \"contracts/BookStore.sol\":2024:2037  books[bookId] */\n      dup2\n      mstore\n      0x20\n      add\n      swap1\n      dup2\n      mstore\n      0x20\n      add\n      0x00\n      keccak256\n      0x00\n        /* \"contracts/BookStore.sol\":2017:2037  delete books[bookId] */\n      dup1\n      dup3\n      add\n      exp(0x0100, 0x00)\n      dup2\n      sload\n      swap1\n      0xffffffffffffffffffffffff\n      mul\n      not\n      and\n      swap1\n      sstore\n      0x00\n      dup3\n      add\n      exp(0x0100, 0x0c)\n      dup2\n      sload\n      swap1\n      0xffffffffffffffffffffffff\n      mul\n      not\n      and\n      swap1\n      sstore\n      0x00\n      dup3\n      add\n      exp(0x0100, 0x18)\n      dup2\n      sload\n      swap1\n      0xff\n      mul\n      not\n      and\n      swap1\n      sstore\n      0x01\n      dup3\n      add\n      0x00\n      tag_197\n      swap2\n      swap1\n      tag_145\n      jump\t// in\n    tag_197:\n      0x02\n      dup3\n      add\n      0x00\n      tag_198\n      swap2\n      swap1\n      tag_145\n      jump\t// in\n    tag_198:\n      pop\n      pop\n        /* \"contracts/BookStore.sol\":2121:2130  uint256 j */\n      0x00\n        /* \"contracts/BookStore.sol\":2116:2396  for (uint256 j; j < bookIds.length;) {... */\n    tag_199:\n        /* \"contracts/BookStore.sol\":2136:2143  bookIds */\n      0x02\n        /* \"contracts/BookStore.sol\":2136:2150  bookIds.length */\n      dup1\n      sload\n      swap1\n      pop\n        /* \"contracts/BookStore.sol\":2132:2133  j */\n      dup2\n        /* \"contracts/BookStore.sol\":2132:2150  j < bookIds.length */\n      lt\n        /* \"contracts/BookStore.sol\":2116:2396  for (uint256 j; j < bookIds.length;) {... */\n      iszero\n      tag_200\n      jumpi\n        /* \"contracts/BookStore.sol\":2190:2196  bookId */\n      dup2\n        /* \"contracts/BookStore.sol\":2176:2183  bookIds */\n      0x02\n        /* \"contracts/BookStore.sol\":2184:2185  j */\n      dup3\n        /* \"contracts/BookStore.sol\":2176:2186  bookIds[j] */\n      dup2\n      sload\n      dup2\n      lt\n      tag_202\n      jumpi\n      tag_203\n      tag_97\n      jump\t// in\n    tag_203:\n    tag_202:\n      swap1\n      0x00\n      mstore\n      keccak256(0x00, 0x20)\n      add\n      sload\n        /* \"contracts/BookStore.sol\":2176:2196  bookIds[j] == bookId */\n      sub\n        /* \"contracts/BookStore.sol\":2172:2345  if (bookIds[j] == bookId) {... */\n      tag_205\n      jumpi\n        /* \"contracts/BookStore.sol\":2234:2241  bookIds */\n      0x02\n        /* \"contracts/BookStore.sol\":2259:2260  1 */\n      0x01\n        /* \"contracts/BookStore.sol\":2242:2249  bookIds */\n      0x02\n        /* \"contracts/BookStore.sol\":2242:2256  bookIds.length */\n      dup1\n      sload\n      swap1\n      pop\n        /* \"contracts/BookStore.sol\":2242:2260  bookIds.length - 1 */\n      tag_206\n      swap2\n      swap1\n      tag_155\n      jump\t// in\n    tag_206:\n        /* \"contracts/BookStore.sol\":2234:2261  bookIds[bookIds.length - 1] */\n      dup2\n      sload\n      dup2\n      lt\n      tag_207\n      jumpi\n      tag_208\n      tag_97\n      jump\t// in\n    tag_208:\n    tag_207:\n      swap1\n      0x00\n      mstore\n      keccak256(0x00, 0x20)\n      add\n      sload\n        /* \"contracts/BookStore.sol\":2221:2228  bookIds */\n      0x02\n        /* \"contracts/BookStore.sol\":2229:2230  j */\n      dup3\n        /* \"contracts/BookStore.sol\":2221:2231  bookIds[j] */\n      dup2\n      sload\n      dup2\n      lt\n      tag_210\n      jumpi\n      tag_211\n      tag_97\n      jump\t// in\n    tag_211:\n    tag_210:\n      swap1\n      0x00\n      mstore\n      keccak256(0x00, 0x20)\n      add\n        /* \"contracts/BookStore.sol\":2221:2261  bookIds[j] = bookIds[bookIds.length - 1] */\n      dup2\n      swap1\n      sstore\n      pop\n        /* \"contracts/BookStore.sol\":2284:2291  bookIds */\n      0x02\n        /* \"contracts/BookStore.sol\":2284:2297  bookIds.pop() */\n      dup1\n      sload\n      dup1\n      tag_213\n      jumpi\n      tag_214\n      tag_164\n      jump\t// in\n    tag_214:\n    tag_213:\n      0x01\n      swap1\n      sub\n      dup2\n      dup2\n      swap1\n      0x00\n      mstore\n      keccak256(0x00, 0x20)\n      add\n      0x00\n      swap1\n      sstore\n      swap1\n      sstore\n        /* \"contracts/BookStore.sol\":2320:2325  break */\n      jump(tag_200)\n        /* \"contracts/BookStore.sol\":2172:2345  if (bookIds[j] == bookId) {... */\n    tag_205:\n        /* \"contracts/BookStore.sol\":2375:2378  ++j */\n      dup1\n      0x01\n      add\n      swap1\n      pop\n        /* \"contracts/BookStore.sol\":2116:2396  for (uint256 j; j < bookIds.length;) {... */\n      jump(tag_199)\n    tag_200:\n      pop\n        /* \"contracts/BookStore.sol\":2422:2425  ++i */\n      dup2\n      0x01\n      add\n      swap2\n      pop\n        /* \"contracts/BookStore.sol\":1853:2439  {... */\n      pop\n        /* \"contracts/BookStore.sol\":1824:2439  for (uint256 i; i < length;) {... */\n      jump(tag_190)\n    tag_191:\n      pop\n        /* \"contracts/BookStore.sol\":2454:2480  BookBatchRemoved(_bookIds) */\n      0x7262be1e48c30c363173fcb2fbf2dc2cb38d076dee42cc37cdfbdf62af5c3bed\n        /* \"contracts/BookStore.sol\":2471:2479  _bookIds */\n      dup4\n      dup4\n        /* \"contracts/BookStore.sol\":2454:2480  BookBatchRemoved(_bookIds) */\n      mload(0x40)\n      tag_216\n      swap3\n      swap2\n      swap1\n      tag_217\n      jump\t// in\n    tag_216:\n      mload(0x40)\n      dup1\n      swap2\n      sub\n      swap1\n      log1\n        /* \"contracts/BookStore.sol\":1770:2488  {... */\n      pop\n        /* \"contracts/BookStore.sol\":1701:2488  function removeBooks(uint256[] calldata _bookIds) external onlyOwner {... */\n      pop\n      pop\n      jump\t// out\n        /* \"@openzeppelin/contracts/access/Ownable.sol\":1796:1958  function _checkOwner() internal view virtual {... */\n    tag_132:\n        /* \"@openzeppelin/contracts/access/Ownable.sol\":1866:1878  _msgSender() */\n      tag_219\n        /* \"@openzeppelin/contracts/access/Ownable.sol\":1866:1876  _msgSender */\n      tag_220\n        /* \"@openzeppelin/contracts/access/Ownable.sol\":1866:1878  _msgSender() */\n      jump\t// in\n    tag_219:\n        /* \"@openzeppelin/contracts/access/Ownable.sol\":1855:1878  owner() != _msgSender() */\n      0xffffffffffffffffffffffffffffffffffffffff\n      and\n        /* \"@openzeppelin/contracts/access/Ownable.sol\":1855:1862  owner() */\n      tag_221\n        /* \"@openzeppelin/contracts/access/Ownable.sol\":1855:1860  owner */\n      tag_48\n        /* \"@openzeppelin/contracts/access/Ownable.sol\":1855:1862  owner() */\n      jump\t// in\n    tag_221:\n        /* \"@openzeppelin/contracts/access/Ownable.sol\":1855:1878  owner() != _msgSender() */\n      0xffffffffffffffffffffffffffffffffffffffff\n      and\n      eq\n        /* \"@openzeppelin/contracts/access/Ownable.sol\":1851:1952  if (owner() != _msgSender()) {... */\n      tag_222\n      jumpi\n        /* \"@openzeppelin/contracts/access/Ownable.sol\":1928:1940  _msgSender() */\n      tag_223\n        /* \"@openzeppelin/contracts/access/Ownable.sol\":1928:1938  _msgSender */\n      tag_220\n        /* \"@openzeppelin/contracts/access/Ownable.sol\":1928:1940  _msgSender() */\n      jump\t// in\n    tag_223:\n        /* \"@openzeppelin/contracts/access/Ownable.sol\":1901:1941  OwnableUnauthorizedAccount(_msgSender()) */\n      mload(0x40)\n      0x118cdaa700000000000000000000000000000000000000000000000000000000\n      dup2\n      mstore\n      0x04\n      add\n      tag_224\n      swap2\n      swap1\n      tag_50\n      jump\t// in\n    tag_224:\n      mload(0x40)\n      dup1\n      swap2\n      sub\n      swap1\n      revert\n        /* \"@openzeppelin/contracts/access/Ownable.sol\":1851:1952  if (owner() != _msgSender()) {... */\n    tag_222:\n        /* \"@openzeppelin/contracts/access/Ownable.sol\":1796:1958  function _checkOwner() internal view virtual {... */\n      jump\t// out\n        /* \"@openzeppelin/contracts/access/Ownable.sol\":2912:3099  function _transferOwnership(address newOwner) internal virtual {... */\n    tag_135:\n        /* \"@openzeppelin/contracts/access/Ownable.sol\":2985:3001  address oldOwner */\n      0x00\n        /* \"@openzeppelin/contracts/access/Ownable.sol\":3004:3010  _owner */\n      dup1\n      0x00\n      swap1\n      sload\n      swap1\n      0x0100\n      exp\n      swap1\n      div\n      0xffffffffffffffffffffffffffffffffffffffff\n      and\n        /* \"@openzeppelin/contracts/access/Ownable.sol\":2985:3010  address oldOwner = _owner */\n      swap1\n      pop\n        /* \"@openzeppelin/contracts/access/Ownable.sol\":3029:3037  newOwner */\n      dup2\n        /* \"@openzeppelin/contracts/access/Ownable.sol\":3020:3026  _owner */\n      0x00\n      dup1\n        /* \"@openzeppelin/contracts/access/Ownable.sol\":3020:3037  _owner = newOwner */\n      0x0100\n      exp\n      dup2\n      sload\n      dup2\n      0xffffffffffffffffffffffffffffffffffffffff\n      mul\n      not\n      and\n      swap1\n      dup4\n      0xffffffffffffffffffffffffffffffffffffffff\n      and\n      mul\n      or\n      swap1\n      sstore\n      pop\n        /* \"@openzeppelin/contracts/access/Ownable.sol\":3083:3091  newOwner */\n      dup2\n        /* \"@openzeppelin/contracts/access/Ownable.sol\":3052:3092  OwnershipTransferred(oldOwner, newOwner) */\n      0xffffffffffffffffffffffffffffffffffffffff\n      and\n        /* \"@openzeppelin/contracts/access/Ownable.sol\":3073:3081  oldOwner */\n      dup2\n        /* \"@openzeppelin/contracts/access/Ownable.sol\":3052:3092  OwnershipTransferred(oldOwner, newOwner) */\n      0xffffffffffffffffffffffffffffffffffffffff\n      and\n      0x8be0079c531659141344cd1fd0a4f28419497f9722a3daafe3b4186f6b6457e0\n      mload(0x40)\n      mload(0x40)\n      dup1\n      swap2\n      sub\n      swap1\n      log3\n        /* \"@openzeppelin/contracts/access/Ownable.sol\":2975:3099  {... */\n      pop\n        /* \"@openzeppelin/contracts/access/Ownable.sol\":2912:3099  function _transferOwnership(address newOwner) internal virtual {... */\n      pop\n      jump\t// out\n        /* \"@openzeppelin/contracts/utils/Context.sol\":656:752  function _msgSender() internal view virtual returns (address) {... */\n    tag_220:\n        /* \"@openzeppelin/contracts/utils/Context.sol\":709:716  address */\n      0x00\n        /* \"@openzeppelin/contracts/utils/Context.sol\":735:745  msg.sender */\n      caller\n        /* \"@openzeppelin/contracts/utils/Context.sol\":728:745  return msg.sender */\n      swap1\n      pop\n        /* \"@openzeppelin/contracts/utils/Context.sol\":656:752  function _msgSender() internal view virtual returns (address) {... */\n      swap1\n      jump\t// out\n    tag_145:\n      pop\n      dup1\n      sload\n      tag_227\n      swap1\n      tag_100\n      jump\t// in\n    tag_227:\n      0x00\n      dup3\n      sstore\n      dup1\n      0x1f\n      lt\n      tag_229\n      jumpi\n      pop\n      jump(tag_228)\n    tag_229:\n      0x1f\n      add\n      0x20\n      swap1\n      div\n      swap1\n      0x00\n      mstore\n      keccak256(0x00, 0x20)\n      swap1\n      dup2\n      add\n      swap1\n      tag_230\n      swap2\n      swap1\n      tag_231\n      jump\t// in\n    tag_230:\n    tag_228:\n      pop\n      jump\t// out\n    tag_231:\n    tag_232:\n      dup1\n      dup3\n      gt\n      iszero\n      tag_233\n      jumpi\n      0x00\n      dup2\n      0x00\n      swap1\n      sstore\n      pop\n      0x01\n      add\n      jump(tag_232)\n    tag_233:\n      pop\n      swap1\n      jump\t// out\n        /* \"#utility.yul\":88:205   */\n    tag_235:\n        /* \"#utility.yul\":197:198   */\n      0x00\n        /* \"#utility.yul\":194:195   */\n      dup1\n        /* \"#utility.yul\":187:199   */\n      revert\n        /* \"#utility.yul\":211:328   */\n    tag_236:\n        /* \"#utility.yul\":320:321   */\n      0x00\n        /* \"#utility.yul\":317:318   */\n      dup1\n        /* \"#utility.yul\":310:322   */\n      revert\n        /* \"#utility.yul\":334:411   */\n    tag_237:\n        /* \"#utility.yul\":371:378   */\n      0x00\n        /* \"#utility.yul\":400:405   */\n      dup2\n        /* \"#utility.yul\":389:405   */\n      swap1\n      pop\n        /* \"#utility.yul\":334:411   */\n      swap2\n      swap1\n      pop\n      jump\t// out\n        /* \"#utility.yul\":417:539   */\n    tag_238:\n        /* \"#utility.yul\":490:514   */\n      tag_309\n        /* \"#utility.yul\":508:513   */\n      dup2\n        /* \"#utility.yul\":490:514   */\n      tag_237\n      jump\t// in\n    tag_309:\n        /* \"#utility.yul\":483:488   */\n      dup2\n        /* \"#utility.yul\":480:515   */\n      eq\n        /* \"#utility.yul\":470:533   */\n      tag_310\n      jumpi\n        /* \"#utility.yul\":529:530   */\n      0x00\n        /* \"#utility.yul\":526:527   */\n      dup1\n        /* \"#utility.yul\":519:531   */\n      revert\n        /* \"#utility.yul\":470:533   */\n    tag_310:\n        /* \"#utility.yul\":417:539   */\n      pop\n      jump\t// out\n        /* \"#utility.yul\":545:684   */\n    tag_239:\n        /* \"#utility.yul\":591:596   */\n      0x00\n        /* \"#utility.yul\":629:635   */\n      dup2\n        /* \"#utility.yul\":616:636   */\n      calldataload\n        /* \"#utility.yul\":607:636   */\n      swap1\n      pop\n        /* \"#utility.yul\":645:678   */\n      tag_312\n        /* \"#utility.yul\":672:677   */\n      dup2\n        /* \"#utility.yul\":645:678   */\n      tag_238\n      jump\t// in\n    tag_312:\n        /* \"#utility.yul\":545:684   */\n      swap3\n      swap2\n      pop\n      pop\n      jump\t// out\n        /* \"#utility.yul\":690:807   */\n    tag_240:\n        /* \"#utility.yul\":799:800   */\n      0x00\n        /* \"#utility.yul\":796:797   */\n      dup1\n        /* \"#utility.yul\":789:801   */\n      revert\n        /* \"#utility.yul\":813:930   */\n    tag_241:\n        /* \"#utility.yul\":922:923   */\n      0x00\n        /* \"#utility.yul\":919:920   */\n      dup1\n        /* \"#utility.yul\":912:924   */\n      revert\n        /* \"#utility.yul\":936:1053   */\n    tag_242:\n        /* \"#utility.yul\":1045:1046   */\n      0x00\n        /* \"#utility.yul\":1042:1043   */\n      dup1\n        /* \"#utility.yul\":1035:1047   */\n      revert\n        /* \"#utility.yul\":1073:1626   */\n    tag_243:\n        /* \"#utility.yul\":1131:1139   */\n      0x00\n        /* \"#utility.yul\":1141:1147   */\n      dup1\n        /* \"#utility.yul\":1191:1194   */\n      dup4\n        /* \"#utility.yul\":1184:1188   */\n      0x1f\n        /* \"#utility.yul\":1176:1182   */\n      dup5\n        /* \"#utility.yul\":1172:1189   */\n      add\n        /* \"#utility.yul\":1168:1195   */\n      slt\n        /* \"#utility.yul\":1158:1280   */\n      tag_317\n      jumpi\n        /* \"#utility.yul\":1199:1278   */\n      tag_318\n      tag_240\n      jump\t// in\n    tag_318:\n        /* \"#utility.yul\":1158:1280   */\n    tag_317:\n        /* \"#utility.yul\":1312:1318   */\n      dup3\n        /* \"#utility.yul\":1299:1319   */\n      calldataload\n        /* \"#utility.yul\":1289:1319   */\n      swap1\n      pop\n        /* \"#utility.yul\":1342:1360   */\n      0xffffffffffffffff\n        /* \"#utility.yul\":1334:1340   */\n      dup2\n        /* \"#utility.yul\":1331:1361   */\n      gt\n        /* \"#utility.yul\":1328:1445   */\n      iszero\n      tag_319\n      jumpi\n        /* \"#utility.yul\":1364:1443   */\n      tag_320\n      tag_241\n      jump\t// in\n    tag_320:\n        /* \"#utility.yul\":1328:1445   */\n    tag_319:\n        /* \"#utility.yul\":1478:1482   */\n      0x20\n        /* \"#utility.yul\":1470:1476   */\n      dup4\n        /* \"#utility.yul\":1466:1483   */\n      add\n        /* \"#utility.yul\":1454:1483   */\n      swap2\n      pop\n        /* \"#utility.yul\":1532:1535   */\n      dup4\n        /* \"#utility.yul\":1524:1528   */\n      0x01\n        /* \"#utility.yul\":1516:1522   */\n      dup3\n        /* \"#utility.yul\":1512:1529   */\n      mul\n        /* \"#utility.yul\":1502:1510   */\n      dup4\n        /* \"#utility.yul\":1498:1530   */\n      add\n        /* \"#utility.yul\":1495:1536   */\n      gt\n        /* \"#utility.yul\":1492:1620   */\n      iszero\n      tag_321\n      jumpi\n        /* \"#utility.yul\":1539:1618   */\n      tag_322\n      tag_242\n      jump\t// in\n    tag_322:\n        /* \"#utility.yul\":1492:1620   */\n    tag_321:\n        /* \"#utility.yul\":1073:1626   */\n      swap3\n      pop\n      swap3\n      swap1\n      pop\n      jump\t// out\n        /* \"#utility.yul\":1632:1741   */\n    tag_244:\n        /* \"#utility.yul\":1668:1675   */\n      0x00\n        /* \"#utility.yul\":1708:1734   */\n      0xffffffffffffffffffffffff\n        /* \"#utility.yul\":1701:1706   */\n      dup3\n        /* \"#utility.yul\":1697:1735   */\n      and\n        /* \"#utility.yul\":1686:1735   */\n      swap1\n      pop\n        /* \"#utility.yul\":1632:1741   */\n      swap2\n      swap1\n      pop\n      jump\t// out\n        /* \"#utility.yul\":1747:1867   */\n    tag_245:\n        /* \"#utility.yul\":1819:1842   */\n      tag_325\n        /* \"#utility.yul\":1836:1841   */\n      dup2\n        /* \"#utility.yul\":1819:1842   */\n      tag_244\n      jump\t// in\n    tag_325:\n        /* \"#utility.yul\":1812:1817   */\n      dup2\n        /* \"#utility.yul\":1809:1843   */\n      eq\n        /* \"#utility.yul\":1799:1861   */\n      tag_326\n      jumpi\n        /* \"#utility.yul\":1857:1858   */\n      0x00\n        /* \"#utility.yul\":1854:1855   */\n      dup1\n        /* \"#utility.yul\":1847:1859   */\n      revert\n        /* \"#utility.yul\":1799:1861   */\n    tag_326:\n        /* \"#utility.yul\":1747:1867   */\n      pop\n      jump\t// out\n        /* \"#utility.yul\":1873:2010   */\n    tag_246:\n        /* \"#utility.yul\":1918:1923   */\n      0x00\n        /* \"#utility.yul\":1956:1962   */\n      dup2\n        /* \"#utility.yul\":1943:1963   */\n      calldataload\n        /* \"#utility.yul\":1934:1963   */\n      swap1\n      pop\n        /* \"#utility.yul\":1972:2004   */\n      tag_328\n        /* \"#utility.yul\":1998:2003   */\n      dup2\n        /* \"#utility.yul\":1972:2004   */\n      tag_245\n      jump\t// in\n    tag_328:\n        /* \"#utility.yul\":1873:2010   */\n      swap3\n      swap2\n      pop\n      pop\n      jump\t// out\n        /* \"#utility.yul\":2016:3323   */\n    tag_18:\n        /* \"#utility.yul\":2133:2139   */\n      0x00\n        /* \"#utility.yul\":2141:2147   */\n      dup1\n        /* \"#utility.yul\":2149:2155   */\n      0x00\n        /* \"#utility.yul\":2157:2163   */\n      dup1\n        /* \"#utility.yul\":2165:2171   */\n      0x00\n        /* \"#utility.yul\":2173:2179   */\n      dup1\n        /* \"#utility.yul\":2181:2187   */\n      0x00\n        /* \"#utility.yul\":2230:2233   */\n      0xa0\n        /* \"#utility.yul\":2218:2227   */\n      dup9\n        /* \"#utility.yul\":2209:2216   */\n      dup11\n        /* \"#utility.yul\":2205:2228   */\n      sub\n        /* \"#utility.yul\":2201:2234   */\n      slt\n        /* \"#utility.yul\":2198:2318   */\n      iszero\n      tag_330\n      jumpi\n        /* \"#utility.yul\":2237:2316   */\n      tag_331\n      tag_235\n      jump\t// in\n    tag_331:\n        /* \"#utility.yul\":2198:2318   */\n    tag_330:\n        /* \"#utility.yul\":2357:2358   */\n      0x00\n        /* \"#utility.yul\":2382:2435   */\n      tag_332\n        /* \"#utility.yul\":2427:2434   */\n      dup11\n        /* \"#utility.yul\":2418:2424   */\n      dup3\n        /* \"#utility.yul\":2407:2416   */\n      dup12\n        /* \"#utility.yul\":2403:2425   */\n      add\n        /* \"#utility.yul\":2382:2435   */\n      tag_239\n      jump\t// in\n    tag_332:\n        /* \"#utility.yul\":2372:2435   */\n      swap8\n      pop\n        /* \"#utility.yul\":2328:2445   */\n      pop\n        /* \"#utility.yul\":2512:2514   */\n      0x20\n        /* \"#utility.yul\":2501:2510   */\n      dup9\n        /* \"#utility.yul\":2497:2515   */\n      add\n        /* \"#utility.yul\":2484:2516   */\n      calldataload\n        /* \"#utility.yul\":2543:2561   */\n      0xffffffffffffffff\n        /* \"#utility.yul\":2535:2541   */\n      dup2\n        /* \"#utility.yul\":2532:2562   */\n      gt\n        /* \"#utility.yul\":2529:2646   */\n      iszero\n      tag_333\n      jumpi\n        /* \"#utility.yul\":2565:2644   */\n      tag_334\n      tag_236\n      jump\t// in\n    tag_334:\n        /* \"#utility.yul\":2529:2646   */\n    tag_333:\n        /* \"#utility.yul\":2678:2743   */\n      tag_335\n        /* \"#utility.yul\":2735:2742   */\n      dup11\n        /* \"#utility.yul\":2726:2732   */\n      dup3\n        /* \"#utility.yul\":2715:2724   */\n      dup12\n        /* \"#utility.yul\":2711:2733   */\n      add\n        /* \"#utility.yul\":2678:2743   */\n      tag_243\n      jump\t// in\n    tag_335:\n        /* \"#utility.yul\":2660:2743   */\n      swap7\n      pop\n      swap7\n      pop\n        /* \"#utility.yul\":2455:2753   */\n      pop\n        /* \"#utility.yul\":2820:2822   */\n      0x40\n        /* \"#utility.yul\":2809:2818   */\n      dup9\n        /* \"#utility.yul\":2805:2823   */\n      add\n        /* \"#utility.yul\":2792:2824   */\n      calldataload\n        /* \"#utility.yul\":2851:2869   */\n      0xffffffffffffffff\n        /* \"#utility.yul\":2843:2849   */\n      dup2\n        /* \"#utility.yul\":2840:2870   */\n      gt\n        /* \"#utility.yul\":2837:2954   */\n      iszero\n      tag_336\n      jumpi\n        /* \"#utility.yul\":2873:2952   */\n      tag_337\n      tag_236\n      jump\t// in\n    tag_337:\n        /* \"#utility.yul\":2837:2954   */\n    tag_336:\n        /* \"#utility.yul\":2986:3051   */\n      tag_338\n        /* \"#utility.yul\":3043:3050   */\n      dup11\n        /* \"#utility.yul\":3034:3040   */\n      dup3\n        /* \"#utility.yul\":3023:3032   */\n      dup12\n        /* \"#utility.yul\":3019:3041   */\n      add\n        /* \"#utility.yul\":2986:3051   */\n      tag_243\n      jump\t// in\n    tag_338:\n        /* \"#utility.yul\":2968:3051   */\n      swap5\n      pop\n      swap5\n      pop\n        /* \"#utility.yul\":2763:3061   */\n      pop\n        /* \"#utility.yul\":3100:3102   */\n      0x60\n        /* \"#utility.yul\":3126:3178   */\n      tag_339\n        /* \"#utility.yul\":3170:3177   */\n      dup11\n        /* \"#utility.yul\":3161:3167   */\n      dup3\n        /* \"#utility.yul\":3150:3159   */\n      dup12\n        /* \"#utility.yul\":3146:3168   */\n      add\n        /* \"#utility.yul\":3126:3178   */\n      tag_246\n      jump\t// in\n    tag_339:\n        /* \"#utility.yul\":3116:3178   */\n      swap3\n      pop\n        /* \"#utility.yul\":3071:3188   */\n      pop\n        /* \"#utility.yul\":3227:3230   */\n      0x80\n        /* \"#utility.yul\":3254:3306   */\n      tag_340\n        /* \"#utility.yul\":3298:3305   */\n      dup11\n        /* \"#utility.yul\":3289:3295   */\n      dup3\n        /* \"#utility.yul\":3278:3287   */\n      dup12\n        /* \"#utility.yul\":3274:3296   */\n      add\n        /* \"#utility.yul\":3254:3306   */\n      tag_246\n      jump\t// in\n    tag_340:\n        /* \"#utility.yul\":3244:3306   */\n      swap2\n      pop\n        /* \"#utility.yul\":3198:3316   */\n      pop\n        /* \"#utility.yul\":2016:3323   */\n      swap3\n      swap6\n      swap9\n      swap2\n      swap5\n      swap8\n      pop\n      swap3\n      swap6\n      pop\n      jump\t// out\n        /* \"#utility.yul\":3329:3453   */\n    tag_247:\n        /* \"#utility.yul\":3406:3412   */\n      0x00\n        /* \"#utility.yul\":3440:3445   */\n      dup2\n        /* \"#utility.yul\":3434:3446   */\n      mload\n        /* \"#utility.yul\":3424:3446   */\n      swap1\n      pop\n        /* \"#utility.yul\":3329:3453   */\n      swap2\n      swap1\n      pop\n      jump\t// out\n        /* \"#utility.yul\":3459:3653   */\n    tag_248:\n        /* \"#utility.yul\":3568:3579   */\n      0x00\n        /* \"#utility.yul\":3602:3608   */\n      dup3\n        /* \"#utility.yul\":3597:3600   */\n      dup3\n        /* \"#utility.yul\":3590:3609   */\n      mstore\n        /* \"#utility.yul\":3642:3646   */\n      0x20\n        /* \"#utility.yul\":3637:3640   */\n      dup3\n        /* \"#utility.yul\":3633:3647   */\n      add\n        /* \"#utility.yul\":3618:3647   */\n      swap1\n      pop\n        /* \"#utility.yul\":3459:3653   */\n      swap3\n      swap2\n      pop\n      pop\n      jump\t// out\n        /* \"#utility.yul\":3659:3801   */\n    tag_249:\n        /* \"#utility.yul\":3736:3740   */\n      0x00\n        /* \"#utility.yul\":3759:3762   */\n      dup2\n        /* \"#utility.yul\":3751:3762   */\n      swap1\n      pop\n        /* \"#utility.yul\":3789:3793   */\n      0x20\n        /* \"#utility.yul\":3784:3787   */\n      dup3\n        /* \"#utility.yul\":3780:3794   */\n      add\n        /* \"#utility.yul\":3772:3794   */\n      swap1\n      pop\n        /* \"#utility.yul\":3659:3801   */\n      swap2\n      swap1\n      pop\n      jump\t// out\n        /* \"#utility.yul\":3807:3906   */\n    tag_250:\n        /* \"#utility.yul\":3859:3865   */\n      0x00\n        /* \"#utility.yul\":3893:3898   */\n      dup2\n        /* \"#utility.yul\":3887:3899   */\n      mload\n        /* \"#utility.yul\":3877:3899   */\n      swap1\n      pop\n        /* \"#utility.yul\":3807:3906   */\n      swap2\n      swap1\n      pop\n      jump\t// out\n        /* \"#utility.yul\":3912:4071   */\n    tag_251:\n        /* \"#utility.yul\":3986:3997   */\n      0x00\n        /* \"#utility.yul\":4020:4026   */\n      dup3\n        /* \"#utility.yul\":4015:4018   */\n      dup3\n        /* \"#utility.yul\":4008:4027   */\n      mstore\n        /* \"#utility.yul\":4060:4064   */\n      0x20\n        /* \"#utility.yul\":4055:4058   */\n      dup3\n        /* \"#utility.yul\":4051:4065   */\n      add\n        /* \"#utility.yul\":4036:4065   */\n      swap1\n      pop\n        /* \"#utility.yul\":3912:4071   */\n      swap3\n      swap2\n      pop\n      pop\n      jump\t// out\n        /* \"#utility.yul\":4077:4216   */\n    tag_252:\n        /* \"#utility.yul\":4166:4172   */\n      dup3\n        /* \"#utility.yul\":4161:4164   */\n      dup2\n        /* \"#utility.yul\":4156:4159   */\n      dup4\n        /* \"#utility.yul\":4150:4173   */\n      mcopy\n        /* \"#utility.yul\":4207:4208   */\n      0x00\n        /* \"#utility.yul\":4198:4204   */\n      dup4\n        /* \"#utility.yul\":4193:4196   */\n      dup4\n        /* \"#utility.yul\":4189:4205   */\n      add\n        /* \"#utility.yul\":4182:4209   */\n      mstore\n        /* \"#utility.yul\":4077:4216   */\n      pop\n      pop\n      pop\n      jump\t// out\n        /* \"#utility.yul\":4222:4324   */\n    tag_253:\n        /* \"#utility.yul\":4263:4269   */\n      0x00\n        /* \"#utility.yul\":4314:4316   */\n      0x1f\n        /* \"#utility.yul\":4310:4317   */\n      not\n        /* \"#utility.yul\":4305:4307   */\n      0x1f\n        /* \"#utility.yul\":4298:4303   */\n      dup4\n        /* \"#utility.yul\":4294:4308   */\n      add\n        /* \"#utility.yul\":4290:4318   */\n      and\n        /* \"#utility.yul\":4280:4318   */\n      swap1\n      pop\n        /* \"#utility.yul\":4222:4324   */\n      swap2\n      swap1\n      pop\n      jump\t// out\n        /* \"#utility.yul\":4330:4687   */\n    tag_254:\n        /* \"#utility.yul\":4408:4411   */\n      0x00\n        /* \"#utility.yul\":4436:4475   */\n      tag_349\n        /* \"#utility.yul\":4469:4474   */\n      dup3\n        /* \"#utility.yul\":4436:4475   */\n      tag_250\n      jump\t// in\n    tag_349:\n        /* \"#utility.yul\":4491:4552   */\n      tag_350\n        /* \"#utility.yul\":4545:4551   */\n      dup2\n        /* \"#utility.yul\":4540:4543   */\n      dup6\n        /* \"#utility.yul\":4491:4552   */\n      tag_251\n      jump\t// in\n    tag_350:\n        /* \"#utility.yul\":4484:4552   */\n      swap4\n      pop\n        /* \"#utility.yul\":4561:4626   */\n      tag_351\n        /* \"#utility.yul\":4619:4625   */\n      dup2\n        /* \"#utility.yul\":4614:4617   */\n      dup6\n        /* \"#utility.yul\":4607:4611   */\n      0x20\n        /* \"#utility.yul\":4600:4605   */\n      dup7\n        /* \"#utility.yul\":4596:4612   */\n      add\n        /* \"#utility.yul\":4561:4626   */\n      tag_252\n      jump\t// in\n    tag_351:\n        /* \"#utility.yul\":4651:4680   */\n      tag_352\n        /* \"#utility.yul\":4673:4679   */\n      dup2\n        /* \"#utility.yul\":4651:4680   */\n      tag_253\n      jump\t// in\n    tag_352:\n        /* \"#utility.yul\":4646:4649   */\n      dup5\n        /* \"#utility.yul\":4642:4681   */\n      add\n        /* \"#utility.yul\":4635:4681   */\n      swap2\n      pop\n        /* \"#utility.yul\":4412:4687   */\n      pop\n        /* \"#utility.yul\":4330:4687   */\n      swap3\n      swap2\n      pop\n      pop\n      jump\t// out\n        /* \"#utility.yul\":4693:4889   */\n    tag_255:\n        /* \"#utility.yul\":4782:4792   */\n      0x00\n        /* \"#utility.yul\":4817:4883   */\n      tag_354\n        /* \"#utility.yul\":4879:4882   */\n      dup4\n        /* \"#utility.yul\":4871:4877   */\n      dup4\n        /* \"#utility.yul\":4817:4883   */\n      tag_254\n      jump\t// in\n    tag_354:\n        /* \"#utility.yul\":4803:4883   */\n      swap1\n      pop\n        /* \"#utility.yul\":4693:4889   */\n      swap3\n      swap2\n      pop\n      pop\n      jump\t// out\n        /* \"#utility.yul\":4895:5018   */\n    tag_256:\n        /* \"#utility.yul\":4975:4979   */\n      0x00\n        /* \"#utility.yul\":5007:5011   */\n      0x20\n        /* \"#utility.yul\":5002:5005   */\n      dup3\n        /* \"#utility.yul\":4998:5012   */\n      add\n        /* \"#utility.yul\":4990:5012   */\n      swap1\n      pop\n        /* \"#utility.yul\":4895:5018   */\n      swap2\n      swap1\n      pop\n      jump\t// out\n        /* \"#utility.yul\":5052:6043   */\n    tag_257:\n        /* \"#utility.yul\":5191:5194   */\n      0x00\n        /* \"#utility.yul\":5220:5284   */\n      tag_357\n        /* \"#utility.yul\":5278:5283   */\n      dup3\n        /* \"#utility.yul\":5220:5284   */\n      tag_247\n      jump\t// in\n    tag_357:\n        /* \"#utility.yul\":5300:5396   */\n      tag_358\n        /* \"#utility.yul\":5389:5395   */\n      dup2\n        /* \"#utility.yul\":5384:5387   */\n      dup6\n        /* \"#utility.yul\":5300:5396   */\n      tag_248\n      jump\t// in\n    tag_358:\n        /* \"#utility.yul\":5293:5396   */\n      swap4\n      pop\n        /* \"#utility.yul\":5422:5425   */\n      dup4\n        /* \"#utility.yul\":5467:5471   */\n      0x20\n        /* \"#utility.yul\":5459:5465   */\n      dup3\n        /* \"#utility.yul\":5455:5472   */\n      mul\n        /* \"#utility.yul\":5450:5453   */\n      dup6\n        /* \"#utility.yul\":5446:5473   */\n      add\n        /* \"#utility.yul\":5497:5563   */\n      tag_359\n        /* \"#utility.yul\":5557:5562   */\n      dup6\n        /* \"#utility.yul\":5497:5563   */\n      tag_249\n      jump\t// in\n    tag_359:\n        /* \"#utility.yul\":5586:5593   */\n      dup1\n        /* \"#utility.yul\":5617:5618   */\n      0x00\n        /* \"#utility.yul\":5602:5998   */\n    tag_360:\n        /* \"#utility.yul\":5627:5633   */\n      dup6\n        /* \"#utility.yul\":5624:5625   */\n      dup2\n        /* \"#utility.yul\":5621:5634   */\n      lt\n        /* \"#utility.yul\":5602:5998   */\n      iszero\n      tag_362\n      jumpi\n        /* \"#utility.yul\":5698:5707   */\n      dup5\n        /* \"#utility.yul\":5692:5696   */\n      dup5\n        /* \"#utility.yul\":5688:5708   */\n      sub\n        /* \"#utility.yul\":5683:5686   */\n      dup10\n        /* \"#utility.yul\":5676:5709   */\n      mstore\n        /* \"#utility.yul\":5749:5755   */\n      dup2\n        /* \"#utility.yul\":5743:5756   */\n      mload\n        /* \"#utility.yul\":5777:5861   */\n      tag_363\n        /* \"#utility.yul\":5856:5860   */\n      dup6\n        /* \"#utility.yul\":5841:5854   */\n      dup3\n        /* \"#utility.yul\":5777:5861   */\n      tag_255\n      jump\t// in\n    tag_363:\n        /* \"#utility.yul\":5769:5861   */\n      swap5\n      pop\n        /* \"#utility.yul\":5884:5954   */\n      tag_364\n        /* \"#utility.yul\":5947:5953   */\n      dup4\n        /* \"#utility.yul\":5884:5954   */\n      tag_256\n      jump\t// in\n    tag_364:\n        /* \"#utility.yul\":5874:5954   */\n      swap3\n      pop\n        /* \"#utility.yul\":5983:5987   */\n      0x20\n        /* \"#utility.yul\":5978:5981   */\n      dup11\n        /* \"#utility.yul\":5974:5988   */\n      add\n        /* \"#utility.yul\":5967:5988   */\n      swap10\n      pop\n        /* \"#utility.yul\":5662:5998   */\n      pop\n        /* \"#utility.yul\":5649:5650   */\n      0x01\n        /* \"#utility.yul\":5646:5647   */\n      dup2\n        /* \"#utility.yul\":5642:5651   */\n      add\n        /* \"#utility.yul\":5637:5651   */\n      swap1\n      pop\n        /* \"#utility.yul\":5602:5998   */\n      jump(tag_360)\n    tag_362:\n        /* \"#utility.yul\":5606:5620   */\n      pop\n        /* \"#utility.yul\":6014:6018   */\n      dup3\n        /* \"#utility.yul\":6007:6018   */\n      swap8\n      pop\n        /* \"#utility.yul\":6034:6037   */\n      dup8\n        /* \"#utility.yul\":6027:6037   */\n      swap6\n      pop\n        /* \"#utility.yul\":5196:6043   */\n      pop\n      pop\n      pop\n      pop\n      pop\n        /* \"#utility.yul\":5052:6043   */\n      swap3\n      swap2\n      pop\n      pop\n      jump\t// out\n        /* \"#utility.yul\":6049:6462   */\n    tag_24:\n        /* \"#utility.yul\":6212:6216   */\n      0x00\n        /* \"#utility.yul\":6250:6252   */\n      0x20\n        /* \"#utility.yul\":6239:6248   */\n      dup3\n        /* \"#utility.yul\":6235:6253   */\n      add\n        /* \"#utility.yul\":6227:6253   */\n      swap1\n      pop\n        /* \"#utility.yul\":6299:6308   */\n      dup2\n        /* \"#utility.yul\":6293:6297   */\n      dup2\n        /* \"#utility.yul\":6289:6309   */\n      sub\n        /* \"#utility.yul\":6285:6286   */\n      0x00\n        /* \"#utility.yul\":6274:6283   */\n      dup4\n        /* \"#utility.yul\":6270:6287   */\n      add\n        /* \"#utility.yul\":6263:6310   */\n      mstore\n        /* \"#utility.yul\":6327:6455   */\n      tag_366\n        /* \"#utility.yul\":6450:6454   */\n      dup2\n        /* \"#utility.yul\":6441:6447   */\n      dup5\n        /* \"#utility.yul\":6327:6455   */\n      tag_257\n      jump\t// in\n    tag_366:\n        /* \"#utility.yul\":6319:6455   */\n      swap1\n      pop\n        /* \"#utility.yul\":6049:6462   */\n      swap3\n      swap2\n      pop\n      pop\n      jump\t// out\n        /* \"#utility.yul\":6468:6586   */\n    tag_258:\n        /* \"#utility.yul\":6555:6579   */\n      tag_368\n        /* \"#utility.yul\":6573:6578   */\n      dup2\n        /* \"#utility.yul\":6555:6579   */\n      tag_237\n      jump\t// in\n    tag_368:\n        /* \"#utility.yul\":6550:6553   */\n      dup3\n        /* \"#utility.yul\":6543:6580   */\n      mstore\n        /* \"#utility.yul\":6468:6586   */\n      pop\n      pop\n      jump\t// out\n        /* \"#utility.yul\":6592:6814   */\n    tag_29:\n        /* \"#utility.yul\":6685:6689   */\n      0x00\n        /* \"#utility.yul\":6723:6725   */\n      0x20\n        /* \"#utility.yul\":6712:6721   */\n      dup3\n        /* \"#utility.yul\":6708:6726   */\n      add\n        /* \"#utility.yul\":6700:6726   */\n      swap1\n      pop\n        /* \"#utility.yul\":6736:6807   */\n      tag_370\n        /* \"#utility.yul\":6804:6805   */\n      0x00\n        /* \"#utility.yul\":6793:6802   */\n      dup4\n        /* \"#utility.yul\":6789:6806   */\n      add\n        /* \"#utility.yul\":6780:6786   */\n      dup5\n        /* \"#utility.yul\":6736:6807   */\n      tag_258\n      jump\t// in\n    tag_370:\n        /* \"#utility.yul\":6592:6814   */\n      swap3\n      swap2\n      pop\n      pop\n      jump\t// out\n        /* \"#utility.yul\":6820:7149   */\n    tag_33:\n        /* \"#utility.yul\":6879:6885   */\n      0x00\n        /* \"#utility.yul\":6928:6930   */\n      0x20\n        /* \"#utility.yul\":6916:6925   */\n      dup3\n        /* \"#utility.yul\":6907:6914   */\n      dup5\n        /* \"#utility.yul\":6903:6926   */\n      sub\n        /* \"#utility.yul\":6899:6931   */\n      slt\n        /* \"#utility.yul\":6896:7015   */\n      iszero\n      tag_372\n      jumpi\n        /* \"#utility.yul\":6934:7013   */\n      tag_373\n      tag_235\n      jump\t// in\n    tag_373:\n        /* \"#utility.yul\":6896:7015   */\n    tag_372:\n        /* \"#utility.yul\":7054:7055   */\n      0x00\n        /* \"#utility.yul\":7079:7132   */\n      tag_374\n        /* \"#utility.yul\":7124:7131   */\n      dup5\n        /* \"#utility.yul\":7115:7121   */\n      dup3\n        /* \"#utility.yul\":7104:7113   */\n      dup6\n        /* \"#utility.yul\":7100:7122   */\n      add\n        /* \"#utility.yul\":7079:7132   */\n      tag_239\n      jump\t// in\n    tag_374:\n        /* \"#utility.yul\":7069:7132   */\n      swap2\n      pop\n        /* \"#utility.yul\":7025:7142   */\n      pop\n        /* \"#utility.yul\":6820:7149   */\n      swap3\n      swap2\n      pop\n      pop\n      jump\t// out\n        /* \"#utility.yul\":7155:7324   */\n    tag_259:\n        /* \"#utility.yul\":7239:7250   */\n      0x00\n        /* \"#utility.yul\":7273:7279   */\n      dup3\n        /* \"#utility.yul\":7268:7271   */\n      dup3\n        /* \"#utility.yul\":7261:7280   */\n      mstore\n        /* \"#utility.yul\":7313:7317   */\n      0x20\n        /* \"#utility.yul\":7308:7311   */\n      dup3\n        /* \"#utility.yul\":7304:7318   */\n      add\n        /* \"#utility.yul\":7289:7318   */\n      swap1\n      pop\n        /* \"#utility.yul\":7155:7324   */\n      swap3\n      swap2\n      pop\n      pop\n      jump\t// out\n        /* \"#utility.yul\":7330:7707   */\n    tag_260:\n        /* \"#utility.yul\":7418:7421   */\n      0x00\n        /* \"#utility.yul\":7446:7485   */\n      tag_377\n        /* \"#utility.yul\":7479:7484   */\n      dup3\n        /* \"#utility.yul\":7446:7485   */\n      tag_250\n      jump\t// in\n    tag_377:\n        /* \"#utility.yul\":7501:7572   */\n      tag_378\n        /* \"#utility.yul\":7565:7571   */\n      dup2\n        /* \"#utility.yul\":7560:7563   */\n      dup6\n        /* \"#utility.yul\":7501:7572   */\n      tag_259\n      jump\t// in\n    tag_378:\n        /* \"#utility.yul\":7494:7572   */\n      swap4\n      pop\n        /* \"#utility.yul\":7581:7646   */\n      tag_379\n        /* \"#utility.yul\":7639:7645   */\n      dup2\n        /* \"#utility.yul\":7634:7637   */\n      dup6\n        /* \"#utility.yul\":7627:7631   */\n      0x20\n        /* \"#utility.yul\":7620:7625   */\n      dup7\n        /* \"#utility.yul\":7616:7632   */\n      add\n        /* \"#utility.yul\":7581:7646   */\n      tag_252\n      jump\t// in\n    tag_379:\n        /* \"#utility.yul\":7671:7700   */\n      tag_380\n        /* \"#utility.yul\":7693:7699   */\n      dup2\n        /* \"#utility.yul\":7671:7700   */\n      tag_253\n      jump\t// in\n    tag_380:\n        /* \"#utility.yul\":7666:7669   */\n      dup5\n        /* \"#utility.yul\":7662:7701   */\n      add\n        /* \"#utility.yul\":7655:7701   */\n      swap2\n      pop\n        /* \"#utility.yul\":7422:7707   */\n      pop\n        /* \"#utility.yul\":7330:7707   */\n      swap3\n      swap2\n      pop\n      pop\n      jump\t// out\n        /* \"#utility.yul\":7713:7828   */\n    tag_261:\n        /* \"#utility.yul\":7798:7821   */\n      tag_382\n        /* \"#utility.yul\":7815:7820   */\n      dup2\n        /* \"#utility.yul\":7798:7821   */\n      tag_244\n      jump\t// in\n    tag_382:\n        /* \"#utility.yul\":7793:7796   */\n      dup3\n        /* \"#utility.yul\":7786:7822   */\n      mstore\n        /* \"#utility.yul\":7713:7828   */\n      pop\n      pop\n      jump\t// out\n        /* \"#utility.yul\":7834:7924   */\n    tag_262:\n        /* \"#utility.yul\":7868:7875   */\n      0x00\n        /* \"#utility.yul\":7911:7916   */\n      dup2\n        /* \"#utility.yul\":7904:7917   */\n      iszero\n        /* \"#utility.yul\":7897:7918   */\n      iszero\n        /* \"#utility.yul\":7886:7918   */\n      swap1\n      pop\n        /* \"#utility.yul\":7834:7924   */\n      swap2\n      swap1\n      pop\n      jump\t// out\n        /* \"#utility.yul\":7930:8039   */\n    tag_263:\n        /* \"#utility.yul\":8011:8032   */\n      tag_385\n        /* \"#utility.yul\":8026:8031   */\n      dup2\n        /* \"#utility.yul\":8011:8032   */\n      tag_262\n      jump\t// in\n    tag_385:\n        /* \"#utility.yul\":8006:8009   */\n      dup3\n        /* \"#utility.yul\":7999:8033   */\n      mstore\n        /* \"#utility.yul\":7930:8039   */\n      pop\n      pop\n      jump\t// out\n        /* \"#utility.yul\":8045:8871   */\n    tag_36:\n        /* \"#utility.yul\":8280:8284   */\n      0x00\n        /* \"#utility.yul\":8318:8321   */\n      0xa0\n        /* \"#utility.yul\":8307:8316   */\n      dup3\n        /* \"#utility.yul\":8303:8322   */\n      add\n        /* \"#utility.yul\":8295:8322   */\n      swap1\n      pop\n        /* \"#utility.yul\":8368:8377   */\n      dup2\n        /* \"#utility.yul\":8362:8366   */\n      dup2\n        /* \"#utility.yul\":8358:8378   */\n      sub\n        /* \"#utility.yul\":8354:8355   */\n      0x00\n        /* \"#utility.yul\":8343:8352   */\n      dup4\n        /* \"#utility.yul\":8339:8356   */\n      add\n        /* \"#utility.yul\":8332:8379   */\n      mstore\n        /* \"#utility.yul\":8396:8474   */\n      tag_387\n        /* \"#utility.yul\":8469:8473   */\n      dup2\n        /* \"#utility.yul\":8460:8466   */\n      dup9\n        /* \"#utility.yul\":8396:8474   */\n      tag_260\n      jump\t// in\n    tag_387:\n        /* \"#utility.yul\":8388:8474   */\n      swap1\n      pop\n        /* \"#utility.yul\":8521:8530   */\n      dup2\n        /* \"#utility.yul\":8515:8519   */\n      dup2\n        /* \"#utility.yul\":8511:8531   */\n      sub\n        /* \"#utility.yul\":8506:8508   */\n      0x20\n        /* \"#utility.yul\":8495:8504   */\n      dup4\n        /* \"#utility.yul\":8491:8509   */\n      add\n        /* \"#utility.yul\":8484:8532   */\n      mstore\n        /* \"#utility.yul\":8549:8627   */\n      tag_388\n        /* \"#utility.yul\":8622:8626   */\n      dup2\n        /* \"#utility.yul\":8613:8619   */\n      dup8\n        /* \"#utility.yul\":8549:8627   */\n      tag_260\n      jump\t// in\n    tag_388:\n        /* \"#utility.yul\":8541:8627   */\n      swap1\n      pop\n        /* \"#utility.yul\":8637:8707   */\n      tag_389\n        /* \"#utility.yul\":8703:8705   */\n      0x40\n        /* \"#utility.yul\":8692:8701   */\n      dup4\n        /* \"#utility.yul\":8688:8706   */\n      add\n        /* \"#utility.yul\":8679:8685   */\n      dup7\n        /* \"#utility.yul\":8637:8707   */\n      tag_261\n      jump\t// in\n    tag_389:\n        /* \"#utility.yul\":8717:8787   */\n      tag_390\n        /* \"#utility.yul\":8783:8785   */\n      0x60\n        /* \"#utility.yul\":8772:8781   */\n      dup4\n        /* \"#utility.yul\":8768:8786   */\n      add\n        /* \"#utility.yul\":8759:8765   */\n      dup6\n        /* \"#utility.yul\":8717:8787   */\n      tag_261\n      jump\t// in\n    tag_390:\n        /* \"#utility.yul\":8797:8864   */\n      tag_391\n        /* \"#utility.yul\":8859:8862   */\n      0x80\n        /* \"#utility.yul\":8848:8857   */\n      dup4\n        /* \"#utility.yul\":8844:8863   */\n      add\n        /* \"#utility.yul\":8835:8841   */\n      dup5\n        /* \"#utility.yul\":8797:8864   */\n      tag_263\n      jump\t// in\n    tag_391:\n        /* \"#utility.yul\":8045:8871   */\n      swap7\n      swap6\n      pop\n      pop\n      pop\n      pop\n      pop\n      pop\n      jump\t// out\n        /* \"#utility.yul\":8877:9703   */\n    tag_42:\n        /* \"#utility.yul\":9112:9116   */\n      0x00\n        /* \"#utility.yul\":9150:9153   */\n      0xa0\n        /* \"#utility.yul\":9139:9148   */\n      dup3\n        /* \"#utility.yul\":9135:9154   */\n      add\n        /* \"#utility.yul\":9127:9154   */\n      swap1\n      pop\n        /* \"#utility.yul\":9164:9233   */\n      tag_393\n        /* \"#utility.yul\":9230:9231   */\n      0x00\n        /* \"#utility.yul\":9219:9228   */\n      dup4\n        /* \"#utility.yul\":9215:9232   */\n      add\n        /* \"#utility.yul\":9206:9212   */\n      dup9\n        /* \"#utility.yul\":9164:9233   */\n      tag_261\n      jump\t// in\n    tag_393:\n        /* \"#utility.yul\":9243:9313   */\n      tag_394\n        /* \"#utility.yul\":9309:9311   */\n      0x20\n        /* \"#utility.yul\":9298:9307   */\n      dup4\n        /* \"#utility.yul\":9294:9312   */\n      add\n        /* \"#utility.yul\":9285:9291   */\n      dup8\n        /* \"#utility.yul\":9243:9313   */\n      tag_261\n      jump\t// in\n    tag_394:\n        /* \"#utility.yul\":9323:9389   */\n      tag_395\n        /* \"#utility.yul\":9385:9387   */\n      0x40\n        /* \"#utility.yul\":9374:9383   */\n      dup4\n        /* \"#utility.yul\":9370:9388   */\n      add\n        /* \"#utility.yul\":9361:9367   */\n      dup7\n        /* \"#utility.yul\":9323:9389   */\n      tag_263\n      jump\t// in\n    tag_395:\n        /* \"#utility.yul\":9436:9445   */\n      dup2\n        /* \"#utility.yul\":9430:9434   */\n      dup2\n        /* \"#utility.yul\":9426:9446   */\n      sub\n        /* \"#utility.yul\":9421:9423   */\n      0x60\n        /* \"#utility.yul\":9410:9419   */\n      dup4\n        /* \"#utility.yul\":9406:9424   */\n      add\n        /* \"#utility.yul\":9399:9447   */\n      mstore\n        /* \"#utility.yul\":9464:9542   */\n      tag_396\n        /* \"#utility.yul\":9537:9541   */\n      dup2\n        /* \"#utility.yul\":9528:9534   */\n      dup6\n        /* \"#utility.yul\":9464:9542   */\n      tag_260\n      jump\t// in\n    tag_396:\n        /* \"#utility.yul\":9456:9542   */\n      swap1\n      pop\n        /* \"#utility.yul\":9590:9599   */\n      dup2\n        /* \"#utility.yul\":9584:9588   */\n      dup2\n        /* \"#utility.yul\":9580:9600   */\n      sub\n        /* \"#utility.yul\":9574:9577   */\n      0x80\n        /* \"#utility.yul\":9563:9572   */\n      dup4\n        /* \"#utility.yul\":9559:9578   */\n      add\n        /* \"#utility.yul\":9552:9601   */\n      mstore\n        /* \"#utility.yul\":9618:9696   */\n      tag_397\n        /* \"#utility.yul\":9691:9695   */\n      dup2\n        /* \"#utility.yul\":9682:9688   */\n      dup5\n        /* \"#utility.yul\":9618:9696   */\n      tag_260\n      jump\t// in\n    tag_397:\n        /* \"#utility.yul\":9610:9696   */\n      swap1\n      pop\n        /* \"#utility.yul\":8877:9703   */\n      swap7\n      swap6\n      pop\n      pop\n      pop\n      pop\n      pop\n      pop\n      jump\t// out\n        /* \"#utility.yul\":9709:9835   */\n    tag_264:\n        /* \"#utility.yul\":9746:9753   */\n      0x00\n        /* \"#utility.yul\":9786:9828   */\n      0xffffffffffffffffffffffffffffffffffffffff\n        /* \"#utility.yul\":9779:9784   */\n      dup3\n        /* \"#utility.yul\":9775:9829   */\n      and\n        /* \"#utility.yul\":9764:9829   */\n      swap1\n      pop\n        /* \"#utility.yul\":9709:9835   */\n      swap2\n      swap1\n      pop\n      jump\t// out\n        /* \"#utility.yul\":9841:9937   */\n    tag_265:\n        /* \"#utility.yul\":9878:9885   */\n      0x00\n        /* \"#utility.yul\":9907:9931   */\n      tag_400\n        /* \"#utility.yul\":9925:9930   */\n      dup3\n        /* \"#utility.yul\":9907:9931   */\n      tag_264\n      jump\t// in\n    tag_400:\n        /* \"#utility.yul\":9896:9931   */\n      swap1\n      pop\n        /* \"#utility.yul\":9841:9937   */\n      swap2\n      swap1\n      pop\n      jump\t// out\n        /* \"#utility.yul\":9943:10061   */\n    tag_266:\n        /* \"#utility.yul\":10030:10054   */\n      tag_402\n        /* \"#utility.yul\":10048:10053   */\n      dup2\n        /* \"#utility.yul\":10030:10054   */\n      tag_265\n      jump\t// in\n    tag_402:\n        /* \"#utility.yul\":10025:10028   */\n      dup3\n        /* \"#utility.yul\":10018:10055   */\n      mstore\n        /* \"#utility.yul\":9943:10061   */\n      pop\n      pop\n      jump\t// out\n        /* \"#utility.yul\":10067:10289   */\n    tag_50:\n        /* \"#utility.yul\":10160:10164   */\n      0x00\n        /* \"#utility.yul\":10198:10200   */\n      0x20\n        /* \"#utility.yul\":10187:10196   */\n      dup3\n        /* \"#utility.yul\":10183:10201   */\n      add\n        /* \"#utility.yul\":10175:10201   */\n      swap1\n      pop\n        /* \"#utility.yul\":10211:10282   */\n      tag_404\n        /* \"#utility.yul\":10279:10280   */\n      0x00\n        /* \"#utility.yul\":10268:10277   */\n      dup4\n        /* \"#utility.yul\":10264:10281   */\n      add\n        /* \"#utility.yul\":10255:10261   */\n      dup5\n        /* \"#utility.yul\":10211:10282   */\n      tag_266\n      jump\t// in\n    tag_404:\n        /* \"#utility.yul\":10067:10289   */\n      swap3\n      swap2\n      pop\n      pop\n      jump\t// out\n        /* \"#utility.yul\":10295:10513   */\n    tag_55:\n        /* \"#utility.yul\":10386:10390   */\n      0x00\n        /* \"#utility.yul\":10424:10426   */\n      0x20\n        /* \"#utility.yul\":10413:10422   */\n      dup3\n        /* \"#utility.yul\":10409:10427   */\n      add\n        /* \"#utility.yul\":10401:10427   */\n      swap1\n      pop\n        /* \"#utility.yul\":10437:10506   */\n      tag_406\n        /* \"#utility.yul\":10503:10504   */\n      0x00\n        /* \"#utility.yul\":10492:10501   */\n      dup4\n        /* \"#utility.yul\":10488:10505   */\n      add\n        /* \"#utility.yul\":10479:10485   */\n      dup5\n        /* \"#utility.yul\":10437:10506   */\n      tag_261\n      jump\t// in\n    tag_406:\n        /* \"#utility.yul\":10295:10513   */\n      swap3\n      swap2\n      pop\n      pop\n      jump\t// out\n        /* \"#utility.yul\":10519:10641   */\n    tag_267:\n        /* \"#utility.yul\":10592:10616   */\n      tag_408\n        /* \"#utility.yul\":10610:10615   */\n      dup2\n        /* \"#utility.yul\":10592:10616   */\n      tag_265\n      jump\t// in\n    tag_408:\n        /* \"#utility.yul\":10585:10590   */\n      dup2\n        /* \"#utility.yul\":10582:10617   */\n      eq\n        /* \"#utility.yul\":10572:10635   */\n      tag_409\n      jumpi\n        /* \"#utility.yul\":10631:10632   */\n      0x00\n        /* \"#utility.yul\":10628:10629   */\n      dup1\n        /* \"#utility.yul\":10621:10633   */\n      revert\n        /* \"#utility.yul\":10572:10635   */\n    tag_409:\n        /* \"#utility.yul\":10519:10641   */\n      pop\n      jump\t// out\n        /* \"#utility.yul\":10647:10786   */\n    tag_268:\n        /* \"#utility.yul\":10693:10698   */\n      0x00\n        /* \"#utility.yul\":10731:10737   */\n      dup2\n        /* \"#utility.yul\":10718:10738   */\n      calldataload\n        /* \"#utility.yul\":10709:10738   */\n      swap1\n      pop\n        /* \"#utility.yul\":10747:10780   */\n      tag_411\n        /* \"#utility.yul\":10774:10779   */\n      dup2\n        /* \"#utility.yul\":10747:10780   */\n      tag_267\n      jump\t// in\n    tag_411:\n        /* \"#utility.yul\":10647:10786   */\n      swap3\n      swap2\n      pop\n      pop\n      jump\t// out\n        /* \"#utility.yul\":10792:11121   */\n    tag_63:\n        /* \"#utility.yul\":10851:10857   */\n      0x00\n        /* \"#utility.yul\":10900:10902   */\n      0x20\n        /* \"#utility.yul\":10888:10897   */\n      dup3\n        /* \"#utility.yul\":10879:10886   */\n      dup5\n        /* \"#utility.yul\":10875:10898   */\n      sub\n        /* \"#utility.yul\":10871:10903   */\n      slt\n        /* \"#utility.yul\":10868:10987   */\n      iszero\n      tag_413\n      jumpi\n        /* \"#utility.yul\":10906:10985   */\n      tag_414\n      tag_235\n      jump\t// in\n    tag_414:\n        /* \"#utility.yul\":10868:10987   */\n    tag_413:\n        /* \"#utility.yul\":11026:11027   */\n      0x00\n        /* \"#utility.yul\":11051:11104   */\n      tag_415\n        /* \"#utility.yul\":11096:11103   */\n      dup5\n        /* \"#utility.yul\":11087:11093   */\n      dup3\n        /* \"#utility.yul\":11076:11085   */\n      dup6\n        /* \"#utility.yul\":11072:11094   */\n      add\n        /* \"#utility.yul\":11051:11104   */\n      tag_268\n      jump\t// in\n    tag_415:\n        /* \"#utility.yul\":11041:11104   */\n      swap2\n      pop\n        /* \"#utility.yul\":10997:11114   */\n      pop\n        /* \"#utility.yul\":10792:11121   */\n      swap3\n      swap2\n      pop\n      pop\n      jump\t// out\n        /* \"#utility.yul\":11127:11599   */\n    tag_67:\n        /* \"#utility.yul\":11194:11200   */\n      0x00\n        /* \"#utility.yul\":11202:11208   */\n      dup1\n        /* \"#utility.yul\":11251:11253   */\n      0x40\n        /* \"#utility.yul\":11239:11248   */\n      dup4\n        /* \"#utility.yul\":11230:11237   */\n      dup6\n        /* \"#utility.yul\":11226:11249   */\n      sub\n        /* \"#utility.yul\":11222:11254   */\n      slt\n        /* \"#utility.yul\":11219:11338   */\n      iszero\n      tag_417\n      jumpi\n        /* \"#utility.yul\":11257:11336   */\n      tag_418\n      tag_235\n      jump\t// in\n    tag_418:\n        /* \"#utility.yul\":11219:11338   */\n    tag_417:\n        /* \"#utility.yul\":11377:11378   */\n      0x00\n        /* \"#utility.yul\":11402:11455   */\n      tag_419\n        /* \"#utility.yul\":11447:11454   */\n      dup6\n        /* \"#utility.yul\":11438:11444   */\n      dup3\n        /* \"#utility.yul\":11427:11436   */\n      dup7\n        /* \"#utility.yul\":11423:11445   */\n      add\n        /* \"#utility.yul\":11402:11455   */\n      tag_239\n      jump\t// in\n    tag_419:\n        /* \"#utility.yul\":11392:11455   */\n      swap3\n      pop\n        /* \"#utility.yul\":11348:11465   */\n      pop\n        /* \"#utility.yul\":11504:11506   */\n      0x20\n        /* \"#utility.yul\":11530:11582   */\n      tag_420\n        /* \"#utility.yul\":11574:11581   */\n      dup6\n        /* \"#utility.yul\":11565:11571   */\n      dup3\n        /* \"#utility.yul\":11554:11563   */\n      dup7\n        /* \"#utility.yul\":11550:11572   */\n      add\n        /* \"#utility.yul\":11530:11582   */\n      tag_246\n      jump\t// in\n    tag_420:\n        /* \"#utility.yul\":11520:11582   */\n      swap2\n      pop\n        /* \"#utility.yul\":11475:11592   */\n      pop\n        /* \"#utility.yul\":11127:11599   */\n      swap3\n      pop\n      swap3\n      swap1\n      pop\n      jump\t// out\n        /* \"#utility.yul\":11622:12190   */\n    tag_269:\n        /* \"#utility.yul\":11695:11703   */\n      0x00\n        /* \"#utility.yul\":11705:11711   */\n      dup1\n        /* \"#utility.yul\":11755:11758   */\n      dup4\n        /* \"#utility.yul\":11748:11752   */\n      0x1f\n        /* \"#utility.yul\":11740:11746   */\n      dup5\n        /* \"#utility.yul\":11736:11753   */\n      add\n        /* \"#utility.yul\":11732:11759   */\n      slt\n        /* \"#utility.yul\":11722:11844   */\n      tag_422\n      jumpi\n        /* \"#utility.yul\":11763:11842   */\n      tag_423\n      tag_240\n      jump\t// in\n    tag_423:\n        /* \"#utility.yul\":11722:11844   */\n    tag_422:\n        /* \"#utility.yul\":11876:11882   */\n      dup3\n        /* \"#utility.yul\":11863:11883   */\n      calldataload\n        /* \"#utility.yul\":11853:11883   */\n      swap1\n      pop\n        /* \"#utility.yul\":11906:11924   */\n      0xffffffffffffffff\n        /* \"#utility.yul\":11898:11904   */\n      dup2\n        /* \"#utility.yul\":11895:11925   */\n      gt\n        /* \"#utility.yul\":11892:12009   */\n      iszero\n      tag_424\n      jumpi\n        /* \"#utility.yul\":11928:12007   */\n      tag_425\n      tag_241\n      jump\t// in\n    tag_425:\n        /* \"#utility.yul\":11892:12009   */\n    tag_424:\n        /* \"#utility.yul\":12042:12046   */\n      0x20\n        /* \"#utility.yul\":12034:12040   */\n      dup4\n        /* \"#utility.yul\":12030:12047   */\n      add\n        /* \"#utility.yul\":12018:12047   */\n      swap2\n      pop\n        /* \"#utility.yul\":12096:12099   */\n      dup4\n        /* \"#utility.yul\":12088:12092   */\n      0x20\n        /* \"#utility.yul\":12080:12086   */\n      dup3\n        /* \"#utility.yul\":12076:12093   */\n      mul\n        /* \"#utility.yul\":12066:12074   */\n      dup4\n        /* \"#utility.yul\":12062:12094   */\n      add\n        /* \"#utility.yul\":12059:12100   */\n      gt\n        /* \"#utility.yul\":12056:12184   */\n      iszero\n      tag_426\n      jumpi\n        /* \"#utility.yul\":12103:12182   */\n      tag_427\n      tag_242\n      jump\t// in\n    tag_427:\n        /* \"#utility.yul\":12056:12184   */\n    tag_426:\n        /* \"#utility.yul\":11622:12190   */\n      swap3\n      pop\n      swap3\n      swap1\n      pop\n      jump\t// out\n        /* \"#utility.yul\":12196:12755   */\n    tag_72:\n        /* \"#utility.yul\":12282:12288   */\n      0x00\n        /* \"#utility.yul\":12290:12296   */\n      dup1\n        /* \"#utility.yul\":12339:12341   */\n      0x20\n        /* \"#utility.yul\":12327:12336   */\n      dup4\n        /* \"#utility.yul\":12318:12325   */\n      dup6\n        /* \"#utility.yul\":12314:12337   */\n      sub\n        /* \"#utility.yul\":12310:12342   */\n      slt\n        /* \"#utility.yul\":12307:12426   */\n      iszero\n      tag_429\n      jumpi\n        /* \"#utility.yul\":12345:12424   */\n      tag_430\n      tag_235\n      jump\t// in\n    tag_430:\n        /* \"#utility.yul\":12307:12426   */\n    tag_429:\n        /* \"#utility.yul\":12493:12494   */\n      0x00\n        /* \"#utility.yul\":12482:12491   */\n      dup4\n        /* \"#utility.yul\":12478:12495   */\n      add\n        /* \"#utility.yul\":12465:12496   */\n      calldataload\n        /* \"#utility.yul\":12523:12541   */\n      0xffffffffffffffff\n        /* \"#utility.yul\":12515:12521   */\n      dup2\n        /* \"#utility.yul\":12512:12542   */\n      gt\n        /* \"#utility.yul\":12509:12626   */\n      iszero\n      tag_431\n      jumpi\n        /* \"#utility.yul\":12545:12624   */\n      tag_432\n      tag_236\n      jump\t// in\n    tag_432:\n        /* \"#utility.yul\":12509:12626   */\n    tag_431:\n        /* \"#utility.yul\":12658:12738   */\n      tag_433\n        /* \"#utility.yul\":12730:12737   */\n      dup6\n        /* \"#utility.yul\":12721:12727   */\n      dup3\n        /* \"#utility.yul\":12710:12719   */\n      dup7\n        /* \"#utility.yul\":12706:12728   */\n      add\n        /* \"#utility.yul\":12658:12738   */\n      tag_269\n      jump\t// in\n    tag_433:\n        /* \"#utility.yul\":12640:12738   */\n      swap3\n      pop\n      swap3\n      pop\n        /* \"#utility.yul\":12436:12748   */\n      pop\n        /* \"#utility.yul\":12196:12755   */\n      swap3\n      pop\n      swap3\n      swap1\n      pop\n      jump\t// out\n        /* \"#utility.yul\":12761:12922   */\n    tag_270:\n        /* \"#utility.yul\":12901:12914   */\n      0x426f6f6b20657869737473000000000000000000000000000000000000000000\n        /* \"#utility.yul\":12897:12898   */\n      0x00\n        /* \"#utility.yul\":12889:12895   */\n      dup3\n        /* \"#utility.yul\":12885:12899   */\n      add\n        /* \"#utility.yul\":12878:12915   */\n      mstore\n        /* \"#utility.yul\":12761:12922   */\n      pop\n      jump\t// out\n        /* \"#utility.yul\":12928:13294   */\n    tag_271:\n        /* \"#utility.yul\":13070:13073   */\n      0x00\n        /* \"#utility.yul\":13091:13158   */\n      tag_436\n        /* \"#utility.yul\":13155:13157   */\n      0x0b\n        /* \"#utility.yul\":13150:13153   */\n      dup4\n        /* \"#utility.yul\":13091:13158   */\n      tag_259\n      jump\t// in\n    tag_436:\n        /* \"#utility.yul\":13084:13158   */\n      swap2\n      pop\n        /* \"#utility.yul\":13167:13260   */\n      tag_437\n        /* \"#utility.yul\":13256:13259   */\n      dup3\n        /* \"#utility.yul\":13167:13260   */\n      tag_270\n      jump\t// in\n    tag_437:\n        /* \"#utility.yul\":13285:13287   */\n      0x20\n        /* \"#utility.yul\":13280:13283   */\n      dup3\n        /* \"#utility.yul\":13276:13288   */\n      add\n        /* \"#utility.yul\":13269:13288   */\n      swap1\n      pop\n        /* \"#utility.yul\":12928:13294   */\n      swap2\n      swap1\n      pop\n      jump\t// out\n        /* \"#utility.yul\":13300:13719   */\n    tag_77:\n        /* \"#utility.yul\":13466:13470   */\n      0x00\n        /* \"#utility.yul\":13504:13506   */\n      0x20\n        /* \"#utility.yul\":13493:13502   */\n      dup3\n        /* \"#utility.yul\":13489:13507   */\n      add\n        /* \"#utility.yul\":13481:13507   */\n      swap1\n      pop\n        /* \"#utility.yul\":13553:13562   */\n      dup2\n        /* \"#utility.yul\":13547:13551   */\n      dup2\n        /* \"#utility.yul\":13543:13563   */\n      sub\n        /* \"#utility.yul\":13539:13540   */\n      0x00\n        /* \"#utility.yul\":13528:13537   */\n      dup4\n        /* \"#utility.yul\":13524:13541   */\n      add\n        /* \"#utility.yul\":13517:13564   */\n      mstore\n        /* \"#utility.yul\":13581:13712   */\n      tag_439\n        /* \"#utility.yul\":13707:13711   */\n      dup2\n        /* \"#utility.yul\":13581:13712   */\n      tag_271\n      jump\t// in\n    tag_439:\n        /* \"#utility.yul\":13573:13712   */\n      swap1\n      pop\n        /* \"#utility.yul\":13300:13719   */\n      swap2\n      swap1\n      pop\n      jump\t// out\n        /* \"#utility.yul\":13725:13905   */\n    tag_272:\n        /* \"#utility.yul\":13773:13850   */\n      0x4e487b7100000000000000000000000000000000000000000000000000000000\n        /* \"#utility.yul\":13770:13771   */\n      0x00\n        /* \"#utility.yul\":13763:13851   */\n      mstore\n        /* \"#utility.yul\":13870:13874   */\n      0x11\n        /* \"#utility.yul\":13867:13868   */\n      0x04\n        /* \"#utility.yul\":13860:13875   */\n      mstore\n        /* \"#utility.yul\":13894:13898   */\n      0x24\n        /* \"#utility.yul\":13891:13892   */\n      0x00\n        /* \"#utility.yul\":13884:13899   */\n      revert\n        /* \"#utility.yul\":13911:14186   */\n    tag_79:\n        /* \"#utility.yul\":13950:13957   */\n      0x00\n        /* \"#utility.yul\":13973:13992   */\n      tag_442\n        /* \"#utility.yul\":13990:13991   */\n      dup3\n        /* \"#utility.yul\":13973:13992   */\n      tag_244\n      jump\t// in\n    tag_442:\n        /* \"#utility.yul\":13968:13992   */\n      swap2\n      pop\n        /* \"#utility.yul\":14006:14025   */\n      tag_443\n        /* \"#utility.yul\":14023:14024   */\n      dup4\n        /* \"#utility.yul\":14006:14025   */\n      tag_244\n      jump\t// in\n    tag_443:\n        /* \"#utility.yul\":14001:14025   */\n      swap3\n      pop\n        /* \"#utility.yul\":14060:14061   */\n      dup3\n        /* \"#utility.yul\":14057:14058   */\n      dup3\n        /* \"#utility.yul\":14053:14062   */\n      mul\n        /* \"#utility.yul\":14082:14111   */\n      tag_444\n        /* \"#utility.yul\":14099:14110   */\n      dup2\n        /* \"#utility.yul\":14082:14111   */\n      tag_244\n      jump\t// in\n    tag_444:\n        /* \"#utility.yul\":14071:14111   */\n      swap2\n      pop\n        /* \"#utility.yul\":14143:14154   */\n      dup1\n        /* \"#utility.yul\":14134:14141   */\n      dup3\n        /* \"#utility.yul\":14131:14155   */\n      eq\n        /* \"#utility.yul\":14121:14179   */\n      tag_445\n      jumpi\n        /* \"#utility.yul\":14159:14177   */\n      tag_446\n      tag_272\n      jump\t// in\n    tag_446:\n        /* \"#utility.yul\":14121:14179   */\n    tag_445:\n        /* \"#utility.yul\":13958:14186   */\n      pop\n        /* \"#utility.yul\":13911:14186   */\n      swap3\n      swap2\n      pop\n      pop\n      jump\t// out\n        /* \"#utility.yul\":14192:14372   */\n    tag_89:\n        /* \"#utility.yul\":14240:14317   */\n      0x4e487b7100000000000000000000000000000000000000000000000000000000\n        /* \"#utility.yul\":14237:14238   */\n      0x00\n        /* \"#utility.yul\":14230:14318   */\n      mstore\n        /* \"#utility.yul\":14337:14341   */\n      0x41\n        /* \"#utility.yul\":14334:14335   */\n      0x04\n        /* \"#utility.yul\":14327:14342   */\n      mstore\n        /* \"#utility.yul\":14361:14365   */\n      0x24\n        /* \"#utility.yul\":14358:14359   */\n      0x00\n        /* \"#utility.yul\":14351:14366   */\n      revert\n        /* \"#utility.yul\":14378:14558   */\n    tag_273:\n        /* \"#utility.yul\":14426:14503   */\n      0x4e487b7100000000000000000000000000000000000000000000000000000000\n        /* \"#utility.yul\":14423:14424   */\n      0x00\n        /* \"#utility.yul\":14416:14504   */\n      mstore\n        /* \"#utility.yul\":14523:14527   */\n      0x22\n        /* \"#utility.yul\":14520:14521   */\n      0x04\n        /* \"#utility.yul\":14513:14528   */\n      mstore\n        /* \"#utility.yul\":14547:14551   */\n      0x24\n        /* \"#utility.yul\":14544:14545   */\n      0x00\n        /* \"#utility.yul\":14537:14552   */\n      revert\n        /* \"#utility.yul\":14564:14884   */\n    tag_100:\n        /* \"#utility.yul\":14608:14614   */\n      0x00\n        /* \"#utility.yul\":14645:14646   */\n      0x02\n        /* \"#utility.yul\":14639:14643   */\n      dup3\n        /* \"#utility.yul\":14635:14647   */\n      div\n        /* \"#utility.yul\":14625:14647   */\n      swap1\n      pop\n        /* \"#utility.yul\":14692:14693   */\n      0x01\n        /* \"#utility.yul\":14686:14690   */\n      dup3\n        /* \"#utility.yul\":14682:14694   */\n      and\n        /* \"#utility.yul\":14713:14731   */\n      dup1\n        /* \"#utility.yul\":14703:14784   */\n      tag_450\n      jumpi\n        /* \"#utility.yul\":14769:14773   */\n      0x7f\n        /* \"#utility.yul\":14761:14767   */\n      dup3\n        /* \"#utility.yul\":14757:14774   */\n      and\n        /* \"#utility.yul\":14747:14774   */\n      swap2\n      pop\n        /* \"#utility.yul\":14703:14784   */\n    tag_450:\n        /* \"#utility.yul\":14831:14833   */\n      0x20\n        /* \"#utility.yul\":14823:14829   */\n      dup3\n        /* \"#utility.yul\":14820:14834   */\n      lt\n        /* \"#utility.yul\":14800:14818   */\n      dup2\n        /* \"#utility.yul\":14797:14835   */\n      sub\n        /* \"#utility.yul\":14794:14878   */\n      tag_451\n      jumpi\n        /* \"#utility.yul\":14850:14868   */\n      tag_452\n      tag_273\n      jump\t// in\n    tag_452:\n        /* \"#utility.yul\":14794:14878   */\n    tag_451:\n        /* \"#utility.yul\":14615:14884   */\n      pop\n        /* \"#utility.yul\":14564:14884   */\n      swap2\n      swap1\n      pop\n      jump\t// out\n        /* \"#utility.yul\":14890:15031   */\n    tag_274:\n        /* \"#utility.yul\":14939:14943   */\n      0x00\n        /* \"#utility.yul\":14962:14965   */\n      dup2\n        /* \"#utility.yul\":14954:14965   */\n      swap1\n      pop\n        /* \"#utility.yul\":14985:14988   */\n      dup2\n        /* \"#utility.yul\":14982:14983   */\n      0x00\n        /* \"#utility.yul\":14975:14989   */\n      mstore\n        /* \"#utility.yul\":15019:15023   */\n      0x20\n        /* \"#utility.yul\":15016:15017   */\n      0x00\n        /* \"#utility.yul\":15006:15024   */\n      keccak256\n        /* \"#utility.yul\":14998:15024   */\n      swap1\n      pop\n        /* \"#utility.yul\":14890:15031   */\n      swap2\n      swap1\n      pop\n      jump\t// out\n        /* \"#utility.yul\":15037:15130   */\n    tag_275:\n        /* \"#utility.yul\":15074:15080   */\n      0x00\n        /* \"#utility.yul\":15121:15123   */\n      0x20\n        /* \"#utility.yul\":15116:15118   */\n      0x1f\n        /* \"#utility.yul\":15109:15114   */\n      dup4\n        /* \"#utility.yul\":15105:15119   */\n      add\n        /* \"#utility.yul\":15101:15124   */\n      div\n        /* \"#utility.yul\":15091:15124   */\n      swap1\n      pop\n        /* \"#utility.yul\":15037:15130   */\n      swap2\n      swap1\n      pop\n      jump\t// out\n        /* \"#utility.yul\":15136:15243   */\n    tag_276:\n        /* \"#utility.yul\":15180:15188   */\n      0x00\n        /* \"#utility.yul\":15230:15235   */\n      dup3\n        /* \"#utility.yul\":15224:15228   */\n      dup3\n        /* \"#utility.yul\":15220:15236   */\n      shl\n        /* \"#utility.yul\":15199:15236   */\n      swap1\n      pop\n        /* \"#utility.yul\":15136:15243   */\n      swap3\n      swap2\n      pop\n      pop\n      jump\t// out\n        /* \"#utility.yul\":15249:15642   */\n    tag_277:\n        /* \"#utility.yul\":15318:15324   */\n      0x00\n        /* \"#utility.yul\":15368:15369   */\n      0x08\n        /* \"#utility.yul\":15356:15366   */\n      dup4\n        /* \"#utility.yul\":15352:15370   */\n      mul\n        /* \"#utility.yul\":15391:15488   */\n      tag_457\n        /* \"#utility.yul\":15421:15487   */\n      0xffffffffffffffffffffffffffffffffffffffffffffffffffffffffffffffff\n        /* \"#utility.yul\":15410:15419   */\n      dup3\n        /* \"#utility.yul\":15391:15488   */\n      tag_276\n      jump\t// in\n    tag_457:\n        /* \"#utility.yul\":15509:15548   */\n      tag_458\n        /* \"#utility.yul\":15539:15547   */\n      dup7\n        /* \"#utility.yul\":15528:15537   */\n      dup4\n        /* \"#utility.yul\":15509:15548   */\n      tag_276\n      jump\t// in\n    tag_458:\n        /* \"#utility.yul\":15497:15548   */\n      swap6\n      pop\n        /* \"#utility.yul\":15581:15585   */\n      dup1\n        /* \"#utility.yul\":15577:15586   */\n      not\n        /* \"#utility.yul\":15570:15575   */\n      dup5\n        /* \"#utility.yul\":15566:15587   */\n      and\n        /* \"#utility.yul\":15557:15587   */\n      swap4\n      pop\n        /* \"#utility.yul\":15630:15634   */\n      dup1\n        /* \"#utility.yul\":15620:15628   */\n      dup7\n        /* \"#utility.yul\":15616:15635   */\n      and\n        /* \"#utility.yul\":15609:15614   */\n      dup5\n        /* \"#utility.yul\":15606:15636   */\n      or\n        /* \"#utility.yul\":15596:15636   */\n      swap3\n      pop\n        /* \"#utility.yul\":15325:15642   */\n      pop\n      pop\n        /* \"#utility.yul\":15249:15642   */\n      swap4\n      swap3\n      pop\n      pop\n      pop\n      jump\t// out\n        /* \"#utility.yul\":15648:15708   */\n    tag_278:\n        /* \"#utility.yul\":15676:15679   */\n      0x00\n        /* \"#utility.yul\":15697:15702   */\n      dup2\n        /* \"#utility.yul\":15690:15702   */\n      swap1\n      pop\n        /* \"#utility.yul\":15648:15708   */\n      swap2\n      swap1\n      pop\n      jump\t// out\n        /* \"#utility.yul\":15714:15856   */\n    tag_279:\n        /* \"#utility.yul\":15764:15773   */\n      0x00\n        /* \"#utility.yul\":15797:15850   */\n      tag_461\n        /* \"#utility.yul\":15815:15849   */\n      tag_462\n        /* \"#utility.yul\":15824:15848   */\n      tag_463\n        /* \"#utility.yul\":15842:15847   */\n      dup5\n        /* \"#utility.yul\":15824:15848   */\n      tag_237\n      jump\t// in\n    tag_463:\n        /* \"#utility.yul\":15815:15849   */\n      tag_278\n      jump\t// in\n    tag_462:\n        /* \"#utility.yul\":15797:15850   */\n      tag_237\n      jump\t// in\n    tag_461:\n        /* \"#utility.yul\":15784:15850   */\n      swap1\n      pop\n        /* \"#utility.yul\":15714:15856   */\n      swap2\n      swap1\n      pop\n      jump\t// out\n        /* \"#utility.yul\":15862:15937   */\n    tag_280:\n        /* \"#utility.yul\":15905:15908   */\n      0x00\n        /* \"#utility.yul\":15926:15931   */\n      dup2\n        /* \"#utility.yul\":15919:15931   */\n      swap1\n      pop\n        /* \"#utility.yul\":15862:15937   */\n      swap2\n      swap1\n      pop\n      jump\t// out\n        /* \"#utility.yul\":15943:16212   */\n    tag_281:\n        /* \"#utility.yul\":16053:16092   */\n      tag_466\n        /* \"#utility.yul\":16084:16091   */\n      dup4\n        /* \"#utility.yul\":16053:16092   */\n      tag_279\n      jump\t// in\n    tag_466:\n        /* \"#utility.yul\":16114:16205   */\n      tag_467\n        /* \"#utility.yul\":16163:16204   */\n      tag_468\n        /* \"#utility.yul\":16187:16203   */\n      dup3\n        /* \"#utility.yul\":16163:16204   */\n      tag_280\n      jump\t// in\n    tag_468:\n        /* \"#utility.yul\":16155:16161   */\n      dup5\n        /* \"#utility.yul\":16148:16152   */\n      dup5\n        /* \"#utility.yul\":16142:16153   */\n      sload\n        /* \"#utility.yul\":16114:16205   */\n      tag_277\n      jump\t// in\n    tag_467:\n        /* \"#utility.yul\":16108:16112   */\n      dup3\n        /* \"#utility.yul\":16101:16206   */\n      sstore\n        /* \"#utility.yul\":16019:16212   */\n      pop\n        /* \"#utility.yul\":15943:16212   */\n      pop\n      pop\n      pop\n      jump\t// out\n        /* \"#utility.yul\":16218:16291   */\n    tag_282:\n        /* \"#utility.yul\":16263:16266   */\n      0x00\n        /* \"#utility.yul\":16218:16291   */\n      swap1\n      jump\t// out\n        /* \"#utility.yul\":16297:16486   */\n    tag_283:\n        /* \"#utility.yul\":16374:16406   */\n      tag_471\n      tag_282\n      jump\t// in\n    tag_471:\n        /* \"#utility.yul\":16415:16480   */\n      tag_472\n        /* \"#utility.yul\":16473:16479   */\n      dup2\n        /* \"#utility.yul\":16465:16471   */\n      dup5\n        /* \"#utility.yul\":16459:16463   */\n      dup5\n        /* \"#utility.yul\":16415:16480   */\n      tag_281\n      jump\t// in\n    tag_472:\n        /* \"#utility.yul\":16350:16486   */\n      pop\n        /* \"#utility.yul\":16297:16486   */\n      pop\n      pop\n      jump\t// out\n        /* \"#utility.yul\":16492:16678   */\n    tag_284:\n        /* \"#utility.yul\":16552:16672   */\n    tag_474:\n        /* \"#utility.yul\":16569:16572   */\n      dup2\n        /* \"#utility.yul\":16562:16567   */\n      dup2\n        /* \"#utility.yul\":16559:16573   */\n      lt\n        /* \"#utility.yul\":16552:16672   */\n      iszero\n      tag_476\n      jumpi\n        /* \"#utility.yul\":16623:16662   */\n      tag_477\n        /* \"#utility.yul\":16660:16661   */\n      0x00\n        /* \"#utility.yul\":16653:16658   */\n      dup3\n        /* \"#utility.yul\":16623:16662   */\n      tag_283\n      jump\t// in\n    tag_477:\n        /* \"#utility.yul\":16596:16597   */\n      0x01\n        /* \"#utility.yul\":16589:16594   */\n      dup2\n        /* \"#utility.yul\":16585:16598   */\n      add\n        /* \"#utility.yul\":16576:16598   */\n      swap1\n      pop\n        /* \"#utility.yul\":16552:16672   */\n      jump(tag_474)\n    tag_476:\n        /* \"#utility.yul\":16492:16678   */\n      pop\n      pop\n      jump\t// out\n        /* \"#utility.yul\":16684:17227   */\n    tag_285:\n        /* \"#utility.yul\":16785:16787   */\n      0x1f\n        /* \"#utility.yul\":16780:16783   */\n      dup3\n        /* \"#utility.yul\":16777:16788   */\n      gt\n        /* \"#utility.yul\":16774:17220   */\n      iszero\n      tag_479\n      jumpi\n        /* \"#utility.yul\":16819:16857   */\n      tag_480\n        /* \"#utility.yul\":16851:16856   */\n      dup2\n        /* \"#utility.yul\":16819:16857   */\n      tag_274\n      jump\t// in\n    tag_480:\n        /* \"#utility.yul\":16903:16932   */\n      tag_481\n        /* \"#utility.yul\":16921:16931   */\n      dup5\n        /* \"#utility.yul\":16903:16932   */\n      tag_275\n      jump\t// in\n    tag_481:\n        /* \"#utility.yul\":16893:16901   */\n      dup2\n        /* \"#utility.yul\":16889:16933   */\n      add\n        /* \"#utility.yul\":17086:17088   */\n      0x20\n        /* \"#utility.yul\":17074:17084   */\n      dup6\n        /* \"#utility.yul\":17071:17089   */\n      lt\n        /* \"#utility.yul\":17068:17117   */\n      iszero\n      tag_482\n      jumpi\n        /* \"#utility.yul\":17107:17115   */\n      dup2\n        /* \"#utility.yul\":17092:17115   */\n      swap1\n      pop\n        /* \"#utility.yul\":17068:17117   */\n    tag_482:\n        /* \"#utility.yul\":17130:17210   */\n      tag_483\n        /* \"#utility.yul\":17186:17208   */\n      tag_484\n        /* \"#utility.yul\":17204:17207   */\n      dup6\n        /* \"#utility.yul\":17186:17208   */\n      tag_275\n      jump\t// in\n    tag_484:\n        /* \"#utility.yul\":17176:17184   */\n      dup4\n        /* \"#utility.yul\":17172:17209   */\n      add\n        /* \"#utility.yul\":17159:17170   */\n      dup3\n        /* \"#utility.yul\":17130:17210   */\n      tag_284\n      jump\t// in\n    tag_483:\n        /* \"#utility.yul\":16789:17220   */\n      pop\n      pop\n        /* \"#utility.yul\":16774:17220   */\n    tag_479:\n        /* \"#utility.yul\":16684:17227   */\n      pop\n      pop\n      pop\n      jump\t// out\n        /* \"#utility.yul\":17233:17350   */\n    tag_286:\n        /* \"#utility.yul\":17287:17295   */\n      0x00\n        /* \"#utility.yul\":17337:17342   */\n      dup3\n        /* \"#utility.yul\":17331:17335   */\n      dup3\n        /* \"#utility.yul\":17327:17343   */\n      shr\n        /* \"#utility.yul\":17306:17343   */\n      swap1\n      pop\n        /* \"#utility.yul\":17233:17350   */\n      swap3\n      swap2\n      pop\n      pop\n      jump\t// out\n        /* \"#utility.yul\":17356:17525   */\n    tag_287:\n        /* \"#utility.yul\":17400:17406   */\n      0x00\n        /* \"#utility.yul\":17433:17484   */\n      tag_487\n        /* \"#utility.yul\":17481:17482   */\n      0x00\n        /* \"#utility.yul\":17477:17483   */\n      not\n        /* \"#utility.yul\":17469:17474   */\n      dup5\n        /* \"#utility.yul\":17466:17467   */\n      0x08\n        /* \"#utility.yul\":17462:17475   */\n      mul\n        /* \"#utility.yul\":17433:17484   */\n      tag_286\n      jump\t// in\n    tag_487:\n        /* \"#utility.yul\":17429:17485   */\n      not\n        /* \"#utility.yul\":17514:17518   */\n      dup1\n        /* \"#utility.yul\":17508:17512   */\n      dup4\n        /* \"#utility.yul\":17504:17519   */\n      and\n        /* \"#utility.yul\":17494:17519   */\n      swap2\n      pop\n        /* \"#utility.yul\":17407:17525   */\n      pop\n        /* \"#utility.yul\":17356:17525   */\n      swap3\n      swap2\n      pop\n      pop\n      jump\t// out\n        /* \"#utility.yul\":17530:17825   */\n    tag_288:\n        /* \"#utility.yul\":17606:17610   */\n      0x00\n        /* \"#utility.yul\":17752:17781   */\n      tag_489\n        /* \"#utility.yul\":17777:17780   */\n      dup4\n        /* \"#utility.yul\":17771:17775   */\n      dup4\n        /* \"#utility.yul\":17752:17781   */\n      tag_287\n      jump\t// in\n    tag_489:\n        /* \"#utility.yul\":17744:17781   */\n      swap2\n      pop\n        /* \"#utility.yul\":17814:17817   */\n      dup3\n        /* \"#utility.yul\":17811:17812   */\n      0x02\n        /* \"#utility.yul\":17807:17818   */\n      mul\n        /* \"#utility.yul\":17801:17805   */\n      dup3\n        /* \"#utility.yul\":17798:17819   */\n      or\n        /* \"#utility.yul\":17790:17819   */\n      swap1\n      pop\n        /* \"#utility.yul\":17530:17825   */\n      swap3\n      swap2\n      pop\n      pop\n      jump\t// out\n        /* \"#utility.yul\":17830:19225   */\n    tag_81:\n        /* \"#utility.yul\":17947:17984   */\n      tag_491\n        /* \"#utility.yul\":17980:17983   */\n      dup3\n        /* \"#utility.yul\":17947:17984   */\n      tag_250\n      jump\t// in\n    tag_491:\n        /* \"#utility.yul\":18049:18067   */\n      0xffffffffffffffff\n        /* \"#utility.yul\":18041:18047   */\n      dup2\n        /* \"#utility.yul\":18038:18068   */\n      gt\n        /* \"#utility.yul\":18035:18091   */\n      iszero\n      tag_492\n      jumpi\n        /* \"#utility.yul\":18071:18089   */\n      tag_493\n      tag_89\n      jump\t// in\n    tag_493:\n        /* \"#utility.yul\":18035:18091   */\n    tag_492:\n        /* \"#utility.yul\":18115:18153   */\n      tag_494\n        /* \"#utility.yul\":18147:18151   */\n      dup3\n        /* \"#utility.yul\":18141:18152   */\n      sload\n        /* \"#utility.yul\":18115:18153   */\n      tag_100\n      jump\t// in\n    tag_494:\n        /* \"#utility.yul\":18200:18267   */\n      tag_495\n        /* \"#utility.yul\":18260:18266   */\n      dup3\n        /* \"#utility.yul\":18252:18258   */\n      dup3\n        /* \"#utility.yul\":18246:18250   */\n      dup6\n        /* \"#utility.yul\":18200:18267   */\n      tag_285\n      jump\t// in\n    tag_495:\n        /* \"#utility.yul\":18294:18295   */\n      0x00\n        /* \"#utility.yul\":18318:18322   */\n      0x20\n        /* \"#utility.yul\":18305:18322   */\n      swap1\n      pop\n        /* \"#utility.yul\":18350:18352   */\n      0x1f\n        /* \"#utility.yul\":18342:18348   */\n      dup4\n        /* \"#utility.yul\":18339:18353   */\n      gt\n        /* \"#utility.yul\":18367:18368   */\n      0x01\n        /* \"#utility.yul\":18362:18980   */\n      dup2\n      eq\n      tag_497\n      jumpi\n        /* \"#utility.yul\":19024:19025   */\n      0x00\n        /* \"#utility.yul\":19041:19047   */\n      dup5\n        /* \"#utility.yul\":19038:19115   */\n      iszero\n      tag_498\n      jumpi\n        /* \"#utility.yul\":19090:19099   */\n      dup3\n        /* \"#utility.yul\":19085:19088   */\n      dup8\n        /* \"#utility.yul\":19081:19100   */\n      add\n        /* \"#utility.yul\":19075:19101   */\n      mload\n        /* \"#utility.yul\":19066:19101   */\n      swap1\n      pop\n        /* \"#utility.yul\":19038:19115   */\n    tag_498:\n        /* \"#utility.yul\":19141:19208   */\n      tag_499\n        /* \"#utility.yul\":19201:19207   */\n      dup6\n        /* \"#utility.yul\":19194:19199   */\n      dup3\n        /* \"#utility.yul\":19141:19208   */\n      tag_288\n      jump\t// in\n    tag_499:\n        /* \"#utility.yul\":19135:19139   */\n      dup7\n        /* \"#utility.yul\":19128:19209   */\n      sstore\n        /* \"#utility.yul\":18997:19219   */\n      pop\n        /* \"#utility.yul\":18332:19219   */\n      jump(tag_496)\n        /* \"#utility.yul\":18362:18980   */\n    tag_497:\n        /* \"#utility.yul\":18414:18418   */\n      0x1f\n        /* \"#utility.yul\":18410:18419   */\n      not\n        /* \"#utility.yul\":18402:18408   */\n      dup5\n        /* \"#utility.yul\":18398:18420   */\n      and\n        /* \"#utility.yul\":18448:18485   */\n      tag_500\n        /* \"#utility.yul\":18480:18484   */\n      dup7\n        /* \"#utility.yul\":18448:18485   */\n      tag_274\n      jump\t// in\n    tag_500:\n        /* \"#utility.yul\":18507:18508   */\n      0x00\n        /* \"#utility.yul\":18521:18729   */\n    tag_501:\n        /* \"#utility.yul\":18535:18542   */\n      dup3\n        /* \"#utility.yul\":18532:18533   */\n      dup2\n        /* \"#utility.yul\":18529:18543   */\n      lt\n        /* \"#utility.yul\":18521:18729   */\n      iszero\n      tag_503\n      jumpi\n        /* \"#utility.yul\":18614:18623   */\n      dup5\n        /* \"#utility.yul\":18609:18612   */\n      dup10\n        /* \"#utility.yul\":18605:18624   */\n      add\n        /* \"#utility.yul\":18599:18625   */\n      mload\n        /* \"#utility.yul\":18591:18597   */\n      dup3\n        /* \"#utility.yul\":18584:18626   */\n      sstore\n        /* \"#utility.yul\":18665:18666   */\n      0x01\n        /* \"#utility.yul\":18657:18663   */\n      dup3\n        /* \"#utility.yul\":18653:18667   */\n      add\n        /* \"#utility.yul\":18643:18667   */\n      swap2\n      pop\n        /* \"#utility.yul\":18712:18714   */\n      0x20\n        /* \"#utility.yul\":18701:18710   */\n      dup6\n        /* \"#utility.yul\":18697:18715   */\n      add\n        /* \"#utility.yul\":18684:18715   */\n      swap5\n      pop\n        /* \"#utility.yul\":18558:18562   */\n      0x20\n        /* \"#utility.yul\":18555:18556   */\n      dup2\n        /* \"#utility.yul\":18551:18563   */\n      add\n        /* \"#utility.yul\":18546:18563   */\n      swap1\n      pop\n        /* \"#utility.yul\":18521:18729   */\n      jump(tag_501)\n    tag_503:\n        /* \"#utility.yul\":18757:18763   */\n      dup7\n        /* \"#utility.yul\":18748:18755   */\n      dup4\n        /* \"#utility.yul\":18745:18764   */\n      lt\n        /* \"#utility.yul\":18742:18921   */\n      iszero\n      tag_504\n      jumpi\n        /* \"#utility.yul\":18815:18824   */\n      dup5\n        /* \"#utility.yul\":18810:18813   */\n      dup10\n        /* \"#utility.yul\":18806:18825   */\n      add\n        /* \"#utility.yul\":18800:18826   */\n      mload\n        /* \"#utility.yul\":18858:18906   */\n      tag_505\n        /* \"#utility.yul\":18900:18904   */\n      0x1f\n        /* \"#utility.yul\":18892:18898   */\n      dup10\n        /* \"#utility.yul\":18888:18905   */\n      and\n        /* \"#utility.yul\":18877:18886   */\n      dup3\n        /* \"#utility.yul\":18858:18906   */\n      tag_287\n      jump\t// in\n    tag_505:\n        /* \"#utility.yul\":18850:18856   */\n      dup4\n        /* \"#utility.yul\":18843:18907   */\n      sstore\n        /* \"#utility.yul\":18765:18921   */\n      pop\n        /* \"#utility.yul\":18742:18921   */\n    tag_504:\n        /* \"#utility.yul\":18967:18968   */\n      0x01\n        /* \"#utility.yul\":18963:18964   */\n      0x02\n        /* \"#utility.yul\":18955:18961   */\n      dup9\n        /* \"#utility.yul\":18951:18965   */\n      mul\n        /* \"#utility.yul\":18947:18969   */\n      add\n        /* \"#utility.yul\":18941:18945   */\n      dup9\n        /* \"#utility.yul\":18934:18970   */\n      sstore\n        /* \"#utility.yul\":18369:18980   */\n      pop\n      pop\n      pop\n        /* \"#utility.yul\":18332:19219   */\n    tag_496:\n      pop\n        /* \"#utility.yul\":17922:19225   */\n      pop\n      pop\n      pop\n        /* \"#utility.yul\":17830:19225   */\n      pop\n      pop\n      jump\t// out\n        /* \"#utility.yul\":19231:19379   */\n    tag_289:\n        /* \"#utility.yul\":19329:19335   */\n      dup3\n        /* \"#utility.yul\":19324:19327   */\n      dup2\n        /* \"#utility.yul\":19319:19322   */\n      dup4\n        /* \"#utility.yul\":19306:19336   */\n      calldatacopy\n        /* \"#utility.yul\":19370:19371   */\n      0x00\n        /* \"#utility.yul\":19361:19367   */\n      dup4\n        /* \"#utility.yul\":19356:19359   */\n      dup4\n        /* \"#utility.yul\":19352:19368   */\n      add\n        /* \"#utility.yul\":19345:19372   */\n      mstore\n        /* \"#utility.yul\":19231:19379   */\n      pop\n      pop\n      pop\n      jump\t// out\n        /* \"#utility.yul\":19409:19726   */\n    tag_290:\n        /* \"#utility.yul\":19507:19510   */\n      0x00\n        /* \"#utility.yul\":19528:19599   */\n      tag_508\n        /* \"#utility.yul\":19592:19598   */\n      dup4\n        /* \"#utility.yul\":19587:19590   */\n      dup6\n        /* \"#utility.yul\":19528:19599   */\n      tag_259\n      jump\t// in\n    tag_508:\n        /* \"#utility.yul\":19521:19599   */\n      swap4\n      pop\n        /* \"#utility.yul\":19609:19665   */\n      tag_509\n        /* \"#utility.yul\":19658:19664   */\n      dup4\n        /* \"#utility.yul\":19653:19656   */\n      dup6\n        /* \"#utility.yul\":19646:19651   */\n      dup5\n        /* \"#utility.yul\":19609:19665   */\n      tag_289\n      jump\t// in\n    tag_509:\n        /* \"#utility.yul\":19690:19719   */\n      tag_510\n        /* \"#utility.yul\":19712:19718   */\n      dup4\n        /* \"#utility.yul\":19690:19719   */\n      tag_253\n      jump\t// in\n    tag_510:\n        /* \"#utility.yul\":19685:19688   */\n      dup5\n        /* \"#utility.yul\":19681:19720   */\n      add\n        /* \"#utility.yul\":19674:19720   */\n      swap1\n      pop\n        /* \"#utility.yul\":19409:19726   */\n      swap4\n      swap3\n      pop\n      pop\n      pop\n      jump\t// out\n        /* \"#utility.yul\":19732:20499   */\n    tag_85:\n        /* \"#utility.yul\":19965:19969   */\n      0x00\n        /* \"#utility.yul\":20003:20006   */\n      0x80\n        /* \"#utility.yul\":19992:20001   */\n      dup3\n        /* \"#utility.yul\":19988:20007   */\n      add\n        /* \"#utility.yul\":19980:20007   */\n      swap1\n      pop\n        /* \"#utility.yul\":20053:20062   */\n      dup2\n        /* \"#utility.yul\":20047:20051   */\n      dup2\n        /* \"#utility.yul\":20043:20063   */\n      sub\n        /* \"#utility.yul\":20039:20040   */\n      0x00\n        /* \"#utility.yul\":20028:20037   */\n      dup4\n        /* \"#utility.yul\":20024:20041   */\n      add\n        /* \"#utility.yul\":20017:20064   */\n      mstore\n        /* \"#utility.yul\":20081:20169   */\n      tag_512\n        /* \"#utility.yul\":20164:20168   */\n      dup2\n        /* \"#utility.yul\":20155:20161   */\n      dup9\n        /* \"#utility.yul\":20147:20153   */\n      dup11\n        /* \"#utility.yul\":20081:20169   */\n      tag_290\n      jump\t// in\n    tag_512:\n        /* \"#utility.yul\":20073:20169   */\n      swap1\n      pop\n        /* \"#utility.yul\":20216:20225   */\n      dup2\n        /* \"#utility.yul\":20210:20214   */\n      dup2\n        /* \"#utility.yul\":20206:20226   */\n      sub\n        /* \"#utility.yul\":20201:20203   */\n      0x20\n        /* \"#utility.yul\":20190:20199   */\n      dup4\n        /* \"#utility.yul\":20186:20204   */\n      add\n        /* \"#utility.yul\":20179:20227   */\n      mstore\n        /* \"#utility.yul\":20244:20332   */\n      tag_513\n        /* \"#utility.yul\":20327:20331   */\n      dup2\n        /* \"#utility.yul\":20318:20324   */\n      dup7\n        /* \"#utility.yul\":20310:20316   */\n      dup9\n        /* \"#utility.yul\":20244:20332   */\n      tag_290\n      jump\t// in\n    tag_513:\n        /* \"#utility.yul\":20236:20332   */\n      swap1\n      pop\n        /* \"#utility.yul\":20342:20412   */\n      tag_514\n        /* \"#utility.yul\":20408:20410   */\n      0x40\n        /* \"#utility.yul\":20397:20406   */\n      dup4\n        /* \"#utility.yul\":20393:20411   */\n      add\n        /* \"#utility.yul\":20384:20390   */\n      dup6\n        /* \"#utility.yul\":20342:20412   */\n      tag_261\n      jump\t// in\n    tag_514:\n        /* \"#utility.yul\":20422:20492   */\n      tag_515\n        /* \"#utility.yul\":20488:20490   */\n      0x60\n        /* \"#utility.yul\":20477:20486   */\n      dup4\n        /* \"#utility.yul\":20473:20491   */\n      add\n        /* \"#utility.yul\":20464:20470   */\n      dup5\n        /* \"#utility.yul\":20422:20492   */\n      tag_261\n      jump\t// in\n    tag_515:\n        /* \"#utility.yul\":19732:20499   */\n      swap8\n      swap7\n      pop\n      pop\n      pop\n      pop\n      pop\n      pop\n      pop\n      jump\t// out\n        /* \"#utility.yul\":20505:20685   */\n    tag_97:\n        /* \"#utility.yul\":20553:20630   */\n      0x4e487b7100000000000000000000000000000000000000000000000000000000\n        /* \"#utility.yul\":20550:20551   */\n      0x00\n        /* \"#utility.yul\":20543:20631   */\n      mstore\n        /* \"#utility.yul\":20650:20654   */\n      0x32\n        /* \"#utility.yul\":20647:20648   */\n      0x04\n        /* \"#utility.yul\":20640:20655   */\n      mstore\n        /* \"#utility.yul\":20674:20678   */\n      0x24\n        /* \"#utility.yul\":20671:20672   */\n      0x00\n        /* \"#utility.yul\":20664:20679   */\n      revert\n        /* \"#utility.yul\":20691:20855   */\n    tag_291:\n        /* \"#utility.yul\":20831:20847   */\n      0x426f6f6b206e6f74206578697374000000000000000000000000000000000000\n        /* \"#utility.yul\":20827:20828   */\n      0x00\n        /* \"#utility.yul\":20819:20825   */\n      dup3\n        /* \"#utility.yul\":20815:20829   */\n      add\n        /* \"#utility.yul\":20808:20848   */\n      mstore\n        /* \"#utility.yul\":20691:20855   */\n      pop\n      jump\t// out\n        /* \"#utility.yul\":20861:21227   */\n    tag_292:\n        /* \"#utility.yul\":21003:21006   */\n      0x00\n        /* \"#utility.yul\":21024:21091   */\n      tag_519\n        /* \"#utility.yul\":21088:21090   */\n      0x0e\n        /* \"#utility.yul\":21083:21086   */\n      dup4\n        /* \"#utility.yul\":21024:21091   */\n      tag_259\n      jump\t// in\n    tag_519:\n        /* \"#utility.yul\":21017:21091   */\n      swap2\n      pop\n        /* \"#utility.yul\":21100:21193   */\n      tag_520\n        /* \"#utility.yul\":21189:21192   */\n      dup3\n        /* \"#utility.yul\":21100:21193   */\n      tag_291\n      jump\t// in\n    tag_520:\n        /* \"#utility.yul\":21218:21220   */\n      0x20\n        /* \"#utility.yul\":21213:21216   */\n      dup3\n        /* \"#utility.yul\":21209:21221   */\n      add\n        /* \"#utility.yul\":21202:21221   */\n      swap1\n      pop\n        /* \"#utility.yul\":20861:21227   */\n      swap2\n      swap1\n      pop\n      jump\t// out\n        /* \"#utility.yul\":21233:21652   */\n    tag_143:\n        /* \"#utility.yul\":21399:21403   */\n      0x00\n        /* \"#utility.yul\":21437:21439   */\n      0x20\n        /* \"#utility.yul\":21426:21435   */\n      dup3\n        /* \"#utility.yul\":21422:21440   */\n      add\n        /* \"#utility.yul\":21414:21440   */\n      swap1\n      pop\n        /* \"#utility.yul\":21486:21495   */\n      dup2\n        /* \"#utility.yul\":21480:21484   */\n      dup2\n        /* \"#utility.yul\":21476:21496   */\n      sub\n        /* \"#utility.yul\":21472:21473   */\n      0x00\n        /* \"#utility.yul\":21461:21470   */\n      dup4\n        /* \"#utility.yul\":21457:21474   */\n      add\n        /* \"#utility.yul\":21450:21497   */\n      mstore\n        /* \"#utility.yul\":21514:21645   */\n      tag_522\n        /* \"#utility.yul\":21640:21644   */\n      dup2\n        /* \"#utility.yul\":21514:21645   */\n      tag_292\n      jump\t// in\n    tag_522:\n        /* \"#utility.yul\":21506:21645   */\n      swap1\n      pop\n        /* \"#utility.yul\":21233:21652   */\n      swap2\n      swap1\n      pop\n      jump\t// out\n        /* \"#utility.yul\":21658:21852   */\n    tag_155:\n        /* \"#utility.yul\":21698:21702   */\n      0x00\n        /* \"#utility.yul\":21718:21738   */\n      tag_524\n        /* \"#utility.yul\":21736:21737   */\n      dup3\n        /* \"#utility.yul\":21718:21738   */\n      tag_237\n      jump\t// in\n    tag_524:\n        /* \"#utility.yul\":21713:21738   */\n      swap2\n      pop\n        /* \"#utility.yul\":21752:21772   */\n      tag_525\n        /* \"#utility.yul\":21770:21771   */\n      dup4\n        /* \"#utility.yul\":21752:21772   */\n      tag_237\n      jump\t// in\n    tag_525:\n        /* \"#utility.yul\":21747:21772   */\n      swap3\n      pop\n        /* \"#utility.yul\":21796:21797   */\n      dup3\n        /* \"#utility.yul\":21793:21794   */\n      dup3\n        /* \"#utility.yul\":21789:21798   */\n      sub\n        /* \"#utility.yul\":21781:21798   */\n      swap1\n      pop\n        /* \"#utility.yul\":21820:21821   */\n      dup2\n        /* \"#utility.yul\":21814:21818   */\n      dup2\n        /* \"#utility.yul\":21811:21822   */\n      gt\n        /* \"#utility.yul\":21808:21845   */\n      iszero\n      tag_526\n      jumpi\n        /* \"#utility.yul\":21825:21843   */\n      tag_527\n      tag_272\n      jump\t// in\n    tag_527:\n        /* \"#utility.yul\":21808:21845   */\n    tag_526:\n        /* \"#utility.yul\":21658:21852   */\n      swap3\n      swap2\n      pop\n      pop\n      jump\t// out\n        /* \"#utility.yul\":21858:22038   */\n    tag_164:\n        /* \"#utility.yul\":21906:21983   */\n      0x4e487b7100000000000000000000000000000000000000000000000000000000\n        /* \"#utility.yul\":21903:21904   */\n      0x00\n        /* \"#utility.yul\":21896:21984   */\n      mstore\n        /* \"#utility.yul\":22003:22007   */\n      0x31\n        /* \"#utility.yul\":22000:22001   */\n      0x04\n        /* \"#utility.yul\":21993:22008   */\n      mstore\n        /* \"#utility.yul\":22027:22031   */\n      0x24\n        /* \"#utility.yul\":22024:22025   */\n      0x00\n        /* \"#utility.yul\":22017:22032   */\n      revert\n        /* \"#utility.yul\":22044:22207   */\n    tag_293:\n        /* \"#utility.yul\":22184:22199   */\n      0x4e6f7420617661696c61626c6500000000000000000000000000000000000000\n        /* \"#utility.yul\":22180:22181   */\n      0x00\n        /* \"#utility.yul\":22172:22178   */\n      dup3\n        /* \"#utility.yul\":22168:22182   */\n      add\n        /* \"#utility.yul\":22161:22200   */\n      mstore\n        /* \"#utility.yul\":22044:22207   */\n      pop\n      jump\t// out\n        /* \"#utility.yul\":22213:22579   */\n    tag_294:\n        /* \"#utility.yul\":22355:22358   */\n      0x00\n        /* \"#utility.yul\":22376:22443   */\n      tag_531\n        /* \"#utility.yul\":22440:22442   */\n      0x0d\n        /* \"#utility.yul\":22435:22438   */\n      dup4\n        /* \"#utility.yul\":22376:22443   */\n      tag_259\n      jump\t// in\n    tag_531:\n        /* \"#utility.yul\":22369:22443   */\n      swap2\n      pop\n        /* \"#utility.yul\":22452:22545   */\n      tag_532\n        /* \"#utility.yul\":22541:22544   */\n      dup3\n        /* \"#utility.yul\":22452:22545   */\n      tag_293\n      jump\t// in\n    tag_532:\n        /* \"#utility.yul\":22570:22572   */\n      0x20\n        /* \"#utility.yul\":22565:22568   */\n      dup3\n        /* \"#utility.yul\":22561:22573   */\n      add\n        /* \"#utility.yul\":22554:22573   */\n      swap1\n      pop\n        /* \"#utility.yul\":22213:22579   */\n      swap2\n      swap1\n      pop\n      jump\t// out\n        /* \"#utility.yul\":22585:23004   */\n    tag_175:\n        /* \"#utility.yul\":22751:22755   */\n      0x00\n        /* \"#utility.yul\":22789:22791   */\n      0x20\n        /* \"#utility.yul\":22778:22787   */\n      dup3\n        /* \"#utility.yul\":22774:22792   */\n      add\n        /* \"#utility.yul\":22766:22792   */\n      swap1\n      pop\n        /* \"#utility.yul\":22838:22847   */\n      dup2\n        /* \"#utility.yul\":22832:22836   */\n      dup2\n        /* \"#utility.yul\":22828:22848   */\n      sub\n        /* \"#utility.yul\":22824:22825   */\n      0x00\n        /* \"#utility.yul\":22813:22822   */\n      dup4\n        /* \"#utility.yul\":22809:22826   */\n      add\n        /* \"#utility.yul\":22802:22849   */\n      mstore\n        /* \"#utility.yul\":22866:22997   */\n      tag_534\n        /* \"#utility.yul\":22992:22996   */\n      dup2\n        /* \"#utility.yul\":22866:22997   */\n      tag_294\n      jump\t// in\n    tag_534:\n        /* \"#utility.yul\":22858:22997   */\n      swap1\n      pop\n        /* \"#utility.yul\":22585:23004   */\n      swap2\n      swap1\n      pop\n      jump\t// out\n        /* \"#utility.yul\":23010:23176   */\n    tag_295:\n        /* \"#utility.yul\":23150:23168   */\n      0x4e6f7420656e6f7567682073746f636b00000000000000000000000000000000\n        /* \"#utility.yul\":23146:23147   */\n      0x00\n        /* \"#utility.yul\":23138:23144   */\n      dup3\n        /* \"#utility.yul\":23134:23148   */\n      add\n        /* \"#utility.yul\":23127:23169   */\n      mstore\n        /* \"#utility.yul\":23010:23176   */\n      pop\n      jump\t// out\n        /* \"#utility.yul\":23182:23548   */\n    tag_296:\n        /* \"#utility.yul\":23324:23327   */\n      0x00\n        /* \"#utility.yul\":23345:23412   */\n      tag_537\n        /* \"#utility.yul\":23409:23411   */\n      0x10\n        /* \"#utility.yul\":23404:23407   */\n      dup4\n        /* \"#utility.yul\":23345:23412   */\n      tag_259\n      jump\t// in\n    tag_537:\n        /* \"#utility.yul\":23338:23412   */\n      swap2\n      pop\n        /* \"#utility.yul\":23421:23514   */\n      tag_538\n        /* \"#utility.yul\":23510:23513   */\n      dup3\n        /* \"#utility.yul\":23421:23514   */\n      tag_295\n      jump\t// in\n    tag_538:\n        /* \"#utility.yul\":23539:23541   */\n      0x20\n        /* \"#utility.yul\":23534:23537   */\n      dup3\n        /* \"#utility.yul\":23530:23542   */\n      add\n        /* \"#utility.yul\":23523:23542   */\n      swap1\n      pop\n        /* \"#utility.yul\":23182:23548   */\n      swap2\n      swap1\n      pop\n      jump\t// out\n        /* \"#utility.yul\":23554:23973   */\n    tag_178:\n        /* \"#utility.yul\":23720:23724   */\n      0x00\n        /* \"#utility.yul\":23758:23760   */\n      0x20\n        /* \"#utility.yul\":23747:23756   */\n      dup3\n        /* \"#utility.yul\":23743:23761   */\n      add\n        /* \"#utility.yul\":23735:23761   */\n      swap1\n      pop\n        /* \"#utility.yul\":23807:23816   */\n      dup2\n        /* \"#utility.yul\":23801:23805   */\n      dup2\n        /* \"#utility.yul\":23797:23817   */\n      sub\n        /* \"#utility.yul\":23793:23794   */\n      0x00\n        /* \"#utility.yul\":23782:23791   */\n      dup4\n        /* \"#utility.yul\":23778:23795   */\n      add\n        /* \"#utility.yul\":23771:23818   */\n      mstore\n        /* \"#utility.yul\":23835:23966   */\n      tag_540\n        /* \"#utility.yul\":23961:23965   */\n      dup2\n        /* \"#utility.yul\":23835:23966   */\n      tag_296\n      jump\t// in\n    tag_540:\n        /* \"#utility.yul\":23827:23966   */\n      swap1\n      pop\n        /* \"#utility.yul\":23554:23973   */\n      swap2\n      swap1\n      pop\n      jump\t// out\n        /* \"#utility.yul\":23979:24142   */\n    tag_297:\n        /* \"#utility.yul\":24119:24134   */\n      0x57726f6e67207061796d656e7400000000000000000000000000000000000000\n        /* \"#utility.yul\":24115:24116   */\n      0x00\n        /* \"#utility.yul\":24107:24113   */\n      dup3\n        /* \"#utility.yul\":24103:24117   */\n      add\n        /* \"#utility.yul\":24096:24135   */\n      mstore\n        /* \"#utility.yul\":23979:24142   */\n      pop\n      jump\t// out\n        /* \"#utility.yul\":24148:24514   */\n    tag_298:\n        /* \"#utility.yul\":24290:24293   */\n      0x00\n        /* \"#utility.yul\":24311:24378   */\n      tag_543\n        /* \"#utility.yul\":24375:24377   */\n      0x0d\n        /* \"#utility.yul\":24370:24373   */\n      dup4\n        /* \"#utility.yul\":24311:24378   */\n      tag_259\n      jump\t// in\n    tag_543:\n        /* \"#utility.yul\":24304:24378   */\n      swap2\n      pop\n        /* \"#utility.yul\":24387:24480   */\n      tag_544\n        /* \"#utility.yul\":24476:24479   */\n      dup3\n        /* \"#utility.yul\":24387:24480   */\n      tag_297\n      jump\t// in\n    tag_544:\n        /* \"#utility.yul\":24505:24507   */\n      0x20\n        /* \"#utility.yul\":24500:24503   */\n      dup3\n        /* \"#utility.yul\":24496:24508   */\n      add\n        /* \"#utility.yul\":24489:24508   */\n      swap1\n      pop\n        /* \"#utility.yul\":24148:24514   */\n      swap2\n      swap1\n      pop\n      jump\t// out\n        /* \"#utility.yul\":24520:24939   */\n    tag_182:\n        /* \"#utility.yul\":24686:24690   */\n      0x00\n        /* \"#utility.yul\":24724:24726   */\n      0x20\n        /* \"#utility.yul\":24713:24722   */\n      dup3\n        /* \"#utility.yul\":24709:24727   */\n      add\n        /* \"#utility.yul\":24701:24727   */\n      swap1\n      pop\n        /* \"#utility.yul\":24773:24782   */\n      dup2\n        /* \"#utility.yul\":24767:24771   */\n      dup2\n        /* \"#utility.yul\":24763:24783   */\n      sub\n        /* \"#utility.yul\":24759:24760   */\n      0x00\n        /* \"#utility.yul\":24748:24757   */\n      dup4\n        /* \"#utility.yul\":24744:24761   */\n      add\n        /* \"#utility.yul\":24737:24784   */\n      mstore\n        /* \"#utility.yul\":24801:24932   */\n      tag_546\n        /* \"#utility.yul\":24927:24931   */\n      dup2\n        /* \"#utility.yul\":24801:24932   */\n      tag_298\n      jump\t// in\n    tag_546:\n        /* \"#utility.yul\":24793:24932   */\n      swap1\n      pop\n        /* \"#utility.yul\":24520:24939   */\n      swap2\n      swap1\n      pop\n      jump\t// out\n        /* \"#utility.yul\":24945:25129   */\n    tag_299:\n        /* \"#utility.yul\":25044:25055   */\n      0x00\n        /* \"#utility.yul\":25078:25084   */\n      dup3\n        /* \"#utility.yul\":25073:25076   */\n      dup3\n        /* \"#utility.yul\":25066:25085   */\n      mstore\n        /* \"#utility.yul\":25118:25122   */\n      0x20\n        /* \"#utility.yul\":25113:25116   */\n      dup3\n        /* \"#utility.yul\":25109:25123   */\n      add\n        /* \"#utility.yul\":25094:25123   */\n      swap1\n      pop\n        /* \"#utility.yul\":24945:25129   */\n      swap3\n      swap2\n      pop\n      pop\n      jump\t// out\n        /* \"#utility.yul\":25135:25252   */\n    tag_300:\n        /* \"#utility.yul\":25244:25245   */\n      0x00\n        /* \"#utility.yul\":25241:25242   */\n      dup1\n        /* \"#utility.yul\":25234:25246   */\n      revert\n        /* \"#utility.yul\":25258:25357   */\n    tag_301:\n        /* \"#utility.yul\":25343:25349   */\n      dup3\n        /* \"#utility.yul\":25338:25341   */\n      dup2\n        /* \"#utility.yul\":25333:25336   */\n      dup4\n        /* \"#utility.yul\":25320:25350   */\n      calldatacopy\n        /* \"#utility.yul\":25258:25357   */\n      pop\n      pop\n      pop\n      jump\t// out\n        /* \"#utility.yul\":25393:25930   */\n    tag_302:\n        /* \"#utility.yul\":25521:25524   */\n      0x00\n        /* \"#utility.yul\":25542:25628   */\n      tag_551\n        /* \"#utility.yul\":25621:25627   */\n      dup4\n        /* \"#utility.yul\":25616:25619   */\n      dup6\n        /* \"#utility.yul\":25542:25628   */\n      tag_299\n      jump\t// in\n    tag_551:\n        /* \"#utility.yul\":25535:25628   */\n      swap4\n      pop\n        /* \"#utility.yul\":25652:25718   */\n      0x07ffffffffffffffffffffffffffffffffffffffffffffffffffffffffffffff\n        /* \"#utility.yul\":25644:25650   */\n      dup4\n        /* \"#utility.yul\":25641:25719   */\n      gt\n        /* \"#utility.yul\":25638:25803   */\n      iszero\n      tag_552\n      jumpi\n        /* \"#utility.yul\":25722:25801   */\n      tag_553\n      tag_300\n      jump\t// in\n    tag_553:\n        /* \"#utility.yul\":25638:25803   */\n    tag_552:\n        /* \"#utility.yul\":25834:25838   */\n      0x20\n        /* \"#utility.yul\":25826:25832   */\n      dup4\n        /* \"#utility.yul\":25822:25839   */\n      mul\n        /* \"#utility.yul\":25812:25839   */\n      swap3\n      pop\n        /* \"#utility.yul\":25849:25892   */\n      tag_554\n        /* \"#utility.yul\":25885:25891   */\n      dup4\n        /* \"#utility.yul\":25880:25883   */\n      dup6\n        /* \"#utility.yul\":25873:25878   */\n      dup5\n        /* \"#utility.yul\":25849:25892   */\n      tag_301\n      jump\t// in\n    tag_554:\n        /* \"#utility.yul\":25917:25923   */\n      dup3\n        /* \"#utility.yul\":25912:25915   */\n      dup5\n        /* \"#utility.yul\":25908:25924   */\n      add\n        /* \"#utility.yul\":25901:25924   */\n      swap1\n      pop\n        /* \"#utility.yul\":25393:25930   */\n      swap4\n      swap3\n      pop\n      pop\n      pop\n      jump\t// out\n        /* \"#utility.yul\":25936:26329   */\n    tag_217:\n        /* \"#utility.yul\":26089:26093   */\n      0x00\n        /* \"#utility.yul\":26127:26129   */\n      0x20\n        /* \"#utility.yul\":26116:26125   */\n      dup3\n        /* \"#utility.yul\":26112:26130   */\n      add\n        /* \"#utility.yul\":26104:26130   */\n      swap1\n      pop\n        /* \"#utility.yul\":26176:26185   */\n      dup2\n        /* \"#utility.yul\":26170:26174   */\n      dup2\n        /* \"#utility.yul\":26166:26186   */\n      sub\n        /* \"#utility.yul\":26162:26163   */\n      0x00\n        /* \"#utility.yul\":26151:26160   */\n      dup4\n        /* \"#utility.yul\":26147:26164   */\n      add\n        /* \"#utility.yul\":26140:26187   */\n      mstore\n        /* \"#utility.yul\":26204:26322   */\n      tag_556\n        /* \"#utility.yul\":26317:26321   */\n      dup2\n        /* \"#utility.yul\":26308:26314   */\n      dup5\n        /* \"#utility.yul\":26300:26306   */\n      dup7\n        /* \"#utility.yul\":26204:26322   */\n      tag_302\n      jump\t// in\n    tag_556:\n        /* \"#utility.yul\":26196:26322   */\n      swap1\n      pop\n        /* \"#utility.yul\":25936:26329   */\n      swap4\n      swap3\n      pop\n      pop\n      pop\n      jump\t// out\n\n    auxdata: 0xa264697066735822122065dddad024ef21a2680985b0db881712a0b36dd370b663ae33965934fe78fc4364736f6c634300081a0033\n}\n",
				"bytecode": {
					"linkReferences": {},
					"object": "608060405234801561000f575f80fd5b50335f73ffffffffffffffffffffffffffffffffffffffff168173ffffffffffffffffffffffffffffffffffffffff1603610081575f6040517f1e4fbdf70000000000000000000000000000000000000000000000000000000081526004016100789190610196565b60405180910390fd5b6100908161009660201b60201c565b506101af565b5f805f9054906101000a900473ffffffffffffffffffffffffffffffffffffffff169050815f806101000a81548173ffffffffffffffffffffffffffffffffffffffff021916908373ffffffffffffffffffffffffffffffffffffffff1602179055508173ffffffffffffffffffffffffffffffffffffffff168173ffffffffffffffffffffffffffffffffffffffff167f8be0079c531659141344cd1fd0a4f28419497f9722a3daafe3b4186f6b6457e060405160405180910390a35050565b5f73ffffffffffffffffffffffffffffffffffffffff82169050919050565b5f61018082610157565b9050919050565b61019081610176565b82525050565b5f6020820190506101a95f830184610187565b92915050565b612096806101bc5f395ff3fe6080604052600436106100a6575f3560e01c80638da5cb5b116100635780638da5cb5b146101bc5780639bd30883146101e6578063bec0d79914610210578063f2fde38b14610238578063f46de7d414610260578063f98520de1461027c576100a6565b806321e6de9d146100aa578063354528e8146100d2578063590791f2146100fc5780635ac3e19e146101265780636874404614610166578063715018a6146101a6575b5f80fd5b3480156100b5575f80fd5b506100d060048036038101906100cb919061141b565b6102a4565b005b3480156100dd575f80fd5b506100e6610547565b6040516100f391906115fd565b60405180910390f35b348015610107575f80fd5b5061011061069d565b60405161011d919061162c565b60405180910390f35b348015610131575f80fd5b5061014c60048036038101906101479190611645565b6106c2565b60405161015d9594939291906116e1565b60405180910390f35b348015610171575f80fd5b5061018c60048036038101906101879190611645565b610854565b60405161019d959493929190611740565b60405180910390f35b3480156101b1575f80fd5b506101ba6109cc565b005b3480156101c7575f80fd5b506101d06109df565b6040516101dd91906117de565b60405180910390f35b3480156101f1575f80fd5b506101fa610a06565b60405161020791906117f7565b60405180910390f35b34801561021b575f80fd5b5061023660048036038101906102319190611645565b610a26565b005b348015610243575f80fd5b5061025e6004803603810190610259919061183a565b610c0f565b005b61027a60048036038101906102759190611865565b610c93565b005b348015610287575f80fd5b506102a2600480360381019061029d91906118f8565b610f65565b005b5f60015f8981526020019081526020015f205f01600c9054906101000a90046bffffffffffffffffffffffff166bffffffffffffffffffffffff161461031f576040517f08c379a00000000000000000000000000000000000000000000000000000000081526004016103169061198d565b60405180910390fd5b6040518060a00160405280836bffffffffffffffffffffffff168152602001670de0b6b3a76400008361035291906119d8565b6bffffffffffffffffffffffff1681526020015f846bffffffffffffffffffffffff16111515815260200187878080601f0160208091040260200160405190810160405280939291908181526020018383808284375f81840152601f19601f82011690508083019250505050505050815260200185858080601f0160208091040260200160405190810160405280939291908181526020018383808284375f81840152601f19601f8201169050808301925050505050505081525060015f8981526020019081526020015f205f820151815f015f6101000a8154816bffffffffffffffffffffffff02191690836bffffffffffffffffffffffff1602179055506020820151815f01600c6101000a8154816bffffffffffffffffffffffff02191690836bffffffffffffffffffffffff1602179055506040820151815f0160186101000a81548160ff02191690831515021790555060608201518160010190816104bc9190611c3b565b5060808201518160020190816104d29190611c3b565b50905050600287908060018154018082558091505060019003905f5260205f20015f9091909190915055867f907463480edcb1016ad34b5c752a56e18c2aea6ed1dd0e18ec287d63d670d88f87878787868860405161053696959493929190611d44565b60405180910390a250505050505050565b60605f60028054905067ffffffffffffffff81111561056957610568611a14565b5b60405190808252806020026020018201604052801561059c57816020015b60608152602001906001900390816105875790505b5090505f5b600280549050811015610695575f60015f600284815481106105c6576105c5611d99565b5b905f5260205f20015481526020019081526020015f2090508060010180546105ed90611a6e565b80601f016020809104026020016040519081016040528092919081815260200182805461061990611a6e565b80156106645780601f1061063b57610100808354040283529160200191610664565b820191905f5260205f20905b81548152906001019060200180831161064757829003601f168201915b505050505083838151811061067c5761067b611d99565b5b60200260200101819052508180600101925050506105a1565b508091505090565b5f6106a66109df565b73ffffffffffffffffffffffffffffffffffffffff1631905090565b6060805f805f8060015f8881526020019081526020015f2090508060010181600201825f01600c9054906101000a90046bffffffffffffffffffffffff16835f015f9054906101000a90046bffffffffffffffffffffffff16845f0160189054906101000a900460ff1684805461073890611a6e565b80601f016020809104026020016040519081016040528092919081815260200182805461076490611a6e565b80156107af5780601f10610786576101008083540402835291602001916107af565b820191905f5260205f20905b81548152906001019060200180831161079257829003601f168201915b505050505094508380546107c290611a6e565b80601f01602080910402602001604051908101604052809291908181526020018280546107ee90611a6e565b80156108395780601f1061081057610100808354040283529160200191610839565b820191905f5260205f20905b81548152906001019060200180831161081c57829003601f168201915b50505050509350955095509550955095505091939590929450565b6001602052805f5260405f205f91509050805f015f9054906101000a90046bffffffffffffffffffffffff1690805f01600c9054906101000a90046bffffffffffffffffffffffff1690805f0160189054906101000a900460ff16908060010180546108bf90611a6e565b80601f01602080910402602001604051908101604052809291908181526020018280546108eb90611a6e565b80156109365780601f1061090d57610100808354040283529160200191610936565b820191905f5260205f20905b81548152906001019060200180831161091957829003601f168201915b50505050509080600201805461094b90611a6e565b80601f016020809104026020016040519081016040528092919081815260200182805461097790611a6e565b80156109c25780601f10610999576101008083540402835291602001916109c2565b820191905f5260205f20905b8154815290600101906020018083116109a557829003601f168201915b5050505050905085565b6109d4611197565b6109dd5f61121e565b565b5f805f9054906101000a900473ffffffffffffffffffffffffffffffffffffffff16905090565b5f8060149054906101000a90046bffffffffffffffffffffffff16905090565b610a2e611197565b5f60015f8381526020019081526020015f205f01600c9054906101000a90046bffffffffffffffffffffffff166bffffffffffffffffffffffff1603610aa9576040517f08c379a0000000000000000000000000000000000000000000000000000000008152600401610aa090611e10565b60405180910390fd5b60015f8281526020019081526020015f205f8082015f6101000a8154906bffffffffffffffffffffffff02191690555f8201600c6101000a8154906bffffffffffffffffffffffff02191690555f820160186101000a81549060ff0219169055600182015f610b1891906112e6565b600282015f610b2791906112e6565b50505f5b600280549050811015610bde578160028281548110610b4d57610b4c611d99565b5b905f5260205f20015403610bd35760026001600280549050610b6f9190611e2e565b81548110610b8057610b7f611d99565b5b905f5260205f20015460028281548110610b9d57610b9c611d99565b5b905f5260205f2001819055506002805480610bbb57610bba611e61565b5b600190038181905f5260205f20015f90559055610bde565b806001019050610b2b565b50807f3c5ce13264433bcf97e5d53c97af4fc33800e8c9dd927f965b116d0018d7cddf60405160405180910390a250565b610c17611197565b5f73ffffffffffffffffffffffffffffffffffffffff168173ffffffffffffffffffffffffffffffffffffffff1603610c87575f6040517f1e4fbdf7000000000000000000000000000000000000000000000000000000008152600401610c7e91906117de565b60405180910390fd5b610c908161121e565b50565b5f60015f8481526020019081526020015f209050805f0160189054906101000a900460ff16610cf7576040517f08c379a0000000000000000000000000000000000000000000000000000000008152600401610cee90611ed8565b60405180910390fd5b816bffffffffffffffffffffffff16815f015f9054906101000a90046bffffffffffffffffffffffff166bffffffffffffffffffffffff161015610d70576040517f08c379a0000000000000000000000000000000000000000000000000000000008152600401610d6790611f40565b60405180910390fd5b81815f01600c9054906101000a90046bffffffffffffffffffffffff16610d9791906119d8565b6bffffffffffffffffffffffff163414610de6576040517f08c379a0000000000000000000000000000000000000000000000000000000008152600401610ddd90611fa8565b60405180910390fd5b81815f015f8282829054906101000a90046bffffffffffffffffffffffff160392506101000a8154816bffffffffffffffffffffffff02191690836bffffffffffffffffffffffff160217905550815f60148282829054906101000a90046bffffffffffffffffffffffff160192506101000a8154816bffffffffffffffffffffffff02191690836bffffffffffffffffffffffff1602179055505f815f015f9054906101000a90046bffffffffffffffffffffffff166bffffffffffffffffffffffff1611815f0160186101000a81548160ff021916908315150217905550610ece6109df565b73ffffffffffffffffffffffffffffffffffffffff166108fc3490811502906040515f60405180830381858888f19350505050158015610f10573d5f803e3d5ffd5b503373ffffffffffffffffffffffffffffffffffffffff16837f4e8e9bc53224dd7f5549d1a97fe174d12e6ff0064e2ccb78d886fc515c98859d84604051610f5891906117f7565b60405180910390a3505050565b610f6d611197565b5f8282905090505f5b81811015611158575f848483818110610f9257610f91611d99565b5b9050602002013590505f60015f8381526020019081526020015f205f01600c9054906101000a90046bffffffffffffffffffffffff166bffffffffffffffffffffffff1603611016576040517f08c379a000000000000000000000000000000000000000000000000000000000815260040161100d90611e10565b60405180910390fd5b60015f8281526020019081526020015f205f8082015f6101000a8154906bffffffffffffffffffffffff02191690555f8201600c6101000a8154906bffffffffffffffffffffffff02191690555f820160186101000a81549060ff0219169055600182015f61108591906112e6565b600282015f61109491906112e6565b50505f5b60028054905081101561114b5781600282815481106110ba576110b9611d99565b5b905f5260205f2001540361114057600260016002805490506110dc9190611e2e565b815481106110ed576110ec611d99565b5b905f5260205f2001546002828154811061110a57611109611d99565b5b905f5260205f200181905550600280548061112857611127611e61565b5b600190038181905f5260205f20015f9055905561114b565b806001019050611098565b5081600101915050610f76565b507f7262be1e48c30c363173fcb2fbf2dc2cb38d076dee42cc37cdfbdf62af5c3bed838360405161118a92919061203e565b60405180910390a1505050565b61119f6112df565b73ffffffffffffffffffffffffffffffffffffffff166111bd6109df565b73ffffffffffffffffffffffffffffffffffffffff161461121c576111e06112df565b6040517f118cdaa700000000000000000000000000000000000000000000000000000000815260040161121391906117de565b60405180910390fd5b565b5f805f9054906101000a900473ffffffffffffffffffffffffffffffffffffffff169050815f806101000a81548173ffffffffffffffffffffffffffffffffffffffff021916908373ffffffffffffffffffffffffffffffffffffffff1602179055508173ffffffffffffffffffffffffffffffffffffffff168173ffffffffffffffffffffffffffffffffffffffff167f8be0079c531659141344cd1fd0a4f28419497f9722a3daafe3b4186f6b6457e060405160405180910390a35050565b5f33905090565b5080546112f290611a6e565b5f825580601f106113035750611320565b601f0160209004905f5260205f209081019061131f9190611323565b5b50565b5b8082111561133a575f815f905550600101611324565b5090565b5f80fd5b5f80fd5b5f819050919050565b61135881611346565b8114611362575f80fd5b50565b5f813590506113738161134f565b92915050565b5f80fd5b5f80fd5b5f80fd5b5f8083601f84011261139a57611399611379565b5b8235905067ffffffffffffffff8111156113b7576113b661137d565b5b6020830191508360018202830111156113d3576113d2611381565b5b9250929050565b5f6bffffffffffffffffffffffff82169050919050565b6113fa816113da565b8114611404575f80fd5b50565b5f81359050611415816113f1565b92915050565b5f805f805f805f60a0888a0312156114365761143561133e565b5b5f6114438a828b01611365565b975050602088013567ffffffffffffffff81111561146457611463611342565b5b6114708a828b01611385565b9650965050604088013567ffffffffffffffff81111561149357611492611342565b5b61149f8a828b01611385565b945094505060606114b28a828b01611407565b92505060806114c38a828b01611407565b91505092959891949750929550565b5f81519050919050565b5f82825260208201905092915050565b5f819050602082019050919050565b5f81519050919050565b5f82825260208201905092915050565b8281835e5f83830152505050565b5f601f19601f8301169050919050565b5f61153d826114fb565b6115478185611505565b9350611557818560208601611515565b61156081611523565b840191505092915050565b5f6115768383611533565b905092915050565b5f602082019050919050565b5f611594826114d2565b61159e81856114dc565b9350836020820285016115b0856114ec565b805f5b858110156115eb57848403895281516115cc858261156b565b94506115d78361157e565b925060208a019950506001810190506115b3565b50829750879550505050505092915050565b5f6020820190508181035f830152611615818461158a565b905092915050565b61162681611346565b82525050565b5f60208201905061163f5f83018461161d565b92915050565b5f6020828403121561165a5761165961133e565b5b5f61166784828501611365565b91505092915050565b5f82825260208201905092915050565b5f61168a826114fb565b6116948185611670565b93506116a4818560208601611515565b6116ad81611523565b840191505092915050565b6116c1816113da565b82525050565b5f8115159050919050565b6116db816116c7565b82525050565b5f60a0820190508181035f8301526116f98188611680565b9050818103602083015261170d8187611680565b905061171c60408301866116b8565b61172960608301856116b8565b61173660808301846116d2565b9695505050505050565b5f60a0820190506117535f8301886116b8565b61176060208301876116b8565b61176d60408301866116d2565b818103606083015261177f8185611680565b905081810360808301526117938184611680565b90509695505050505050565b5f73ffffffffffffffffffffffffffffffffffffffff82169050919050565b5f6117c88261179f565b9050919050565b6117d8816117be565b82525050565b5f6020820190506117f15f8301846117cf565b92915050565b5f60208201905061180a5f8301846116b8565b92915050565b611819816117be565b8114611823575f80fd5b50565b5f8135905061183481611810565b92915050565b5f6020828403121561184f5761184e61133e565b5b5f61185c84828501611826565b91505092915050565b5f806040838503121561187b5761187a61133e565b5b5f61188885828601611365565b925050602061189985828601611407565b9150509250929050565b5f8083601f8401126118b8576118b7611379565b5b8235905067ffffffffffffffff8111156118d5576118d461137d565b5b6020830191508360208202830111156118f1576118f0611381565b5b9250929050565b5f806020838503121561190e5761190d61133e565b5b5f83013567ffffffffffffffff81111561192b5761192a611342565b5b611937858286016118a3565b92509250509250929050565b7f426f6f6b206578697374730000000000000000000000000000000000000000005f82015250565b5f611977600b83611670565b915061198282611943565b602082019050919050565b5f6020820190508181035f8301526119a48161196b565b9050919050565b7f4e487b71000000000000000000000000000000000000000000000000000000005f52601160045260245ffd5b5f6119e2826113da565b91506119ed836113da565b92508282026119fb816113da565b9150808214611a0d57611a0c6119ab565b5b5092915050565b7f4e487b71000000000000000000000000000000000000000000000000000000005f52604160045260245ffd5b7f4e487b71000000000000000000000000000000000000000000000000000000005f52602260045260245ffd5b5f6002820490506001821680611a8557607f821691505b602082108103611a9857611a97611a41565b5b50919050565b5f819050815f5260205f209050919050565b5f6020601f8301049050919050565b5f82821b905092915050565b5f60088302611afa7fffffffffffffffffffffffffffffffffffffffffffffffffffffffffffffffff82611abf565b611b048683611abf565b95508019841693508086168417925050509392505050565b5f819050919050565b5f611b3f611b3a611b3584611346565b611b1c565b611346565b9050919050565b5f819050919050565b611b5883611b25565b611b6c611b6482611b46565b848454611acb565b825550505050565b5f90565b611b80611b74565b611b8b818484611b4f565b505050565b5b81811015611bae57611ba35f82611b78565b600181019050611b91565b5050565b601f821115611bf357611bc481611a9e565b611bcd84611ab0565b81016020851015611bdc578190505b611bf0611be885611ab0565b830182611b90565b50505b505050565b5f82821c905092915050565b5f611c135f1984600802611bf8565b1980831691505092915050565b5f611c2b8383611c04565b9150826002028217905092915050565b611c44826114fb565b67ffffffffffffffff811115611c5d57611c5c611a14565b5b611c678254611a6e565b611c72828285611bb2565b5f60209050601f831160018114611ca3575f8415611c91578287015190505b611c9b8582611c20565b865550611d02565b601f198416611cb186611a9e565b5f5b82811015611cd857848901518255600182019150602085019450602081019050611cb3565b86831015611cf55784890151611cf1601f891682611c04565b8355505b6001600288020188555050505b505050505050565b828183375f83830152505050565b5f611d238385611670565b9350611d30838584611d0a565b611d3983611523565b840190509392505050565b5f6080820190508181035f830152611d5d81888a611d18565b90508181036020830152611d72818688611d18565b9050611d8160408301856116b8565b611d8e60608301846116b8565b979650505050505050565b7f4e487b71000000000000000000000000000000000000000000000000000000005f52603260045260245ffd5b7f426f6f6b206e6f742065786973740000000000000000000000000000000000005f82015250565b5f611dfa600e83611670565b9150611e0582611dc6565b602082019050919050565b5f6020820190508181035f830152611e2781611dee565b9050919050565b5f611e3882611346565b9150611e4383611346565b9250828203905081811115611e5b57611e5a6119ab565b5b92915050565b7f4e487b71000000000000000000000000000000000000000000000000000000005f52603160045260245ffd5b7f4e6f7420617661696c61626c65000000000000000000000000000000000000005f82015250565b5f611ec2600d83611670565b9150611ecd82611e8e565b602082019050919050565b5f6020820190508181035f830152611eef81611eb6565b9050919050565b7f4e6f7420656e6f7567682073746f636b000000000000000000000000000000005f82015250565b5f611f2a601083611670565b9150611f3582611ef6565b602082019050919050565b5f6020820190508181035f830152611f5781611f1e565b9050919050565b7f57726f6e67207061796d656e74000000000000000000000000000000000000005f82015250565b5f611f92600d83611670565b9150611f9d82611f5e565b602082019050919050565b5f6020820190508181035f830152611fbf81611f86565b9050919050565b5f82825260208201905092915050565b5f80fd5b82818337505050565b5f611fee8385611fc6565b93507f07ffffffffffffffffffffffffffffffffffffffffffffffffffffffffffffff83111561202157612020611fd6565b5b602083029250612032838584611fda565b82840190509392505050565b5f6020820190508181035f830152612057818486611fe3565b9050939250505056fea264697066735822122065dddad024ef21a2680985b0db881712a0b36dd370b663ae33965934fe78fc4364736f6c634300081a0033",
					"opcodes": "PUSH1 0x80 PUSH1 0x40 MSTORE CALLVALUE DUP1 ISZERO PUSH2 0xF JUMPI PUSH0 DUP1 REVERT JUMPDEST POP CALLER PUSH0 PUSH20 0xFFFFFFFFFFFFFFFFFFFFFFFFFFFFFFFFFFFFFFFF AND DUP2 PUSH20 0xFFFFFFFFFFFFFFFFFFFFFFFFFFFFFFFFFFFFFFFF AND SUB PUSH2 0x81 JUMPI PUSH0 PUSH1 0x40 MLOAD PUSH32 0x1E4FBDF700000000000000000000000000000000000000000000000000000000 DUP2 MSTORE PUSH1 0x4 ADD PUSH2 0x78 SWAP2 SWAP1 PUSH2 0x196 JUMP JUMPDEST PUSH1 0x40 MLOAD DUP1 SWAP2 SUB SWAP1 REVERT JUMPDEST PUSH2 0x90 DUP2 PUSH2 0x96 PUSH1 0x20 SHL PUSH1 0x20 SHR JUMP JUMPDEST POP PUSH2 0x1AF JUMP JUMPDEST PUSH0 DUP1 PUSH0 SWAP1 SLOAD SWAP1 PUSH2 0x100 EXP SWAP1 DIV PUSH20 0xFFFFFFFFFFFFFFFFFFFFFFFFFFFFFFFFFFFFFFFF AND SWAP1 POP DUP2 PUSH0 DUP1 PUSH2 0x100 EXP DUP2 SLOAD DUP2 PUSH20 0xFFFFFFFFFFFFFFFFFFFFFFFFFFFFFFFFFFFFFFFF MUL NOT AND SWAP1 DUP4 PUSH20 0xFFFFFFFFFFFFFFFFFFFFFFFFFFFFFFFFFFFFFFFF AND MUL OR SWAP1 SSTORE POP DUP2 PUSH20 0xFFFFFFFFFFFFFFFFFFFFFFFFFFFFFFFFFFFFFFFF AND DUP2 PUSH20 0xFFFFFFFFFFFFFFFFFFFFFFFFFFFFFFFFFFFFFFFF AND PUSH32 0x8BE0079C531659141344CD1FD0A4F28419497F9722A3DAAFE3B4186F6B6457E0 PUSH1 0x40 MLOAD PUSH1 0x40 MLOAD DUP1 SWAP2 SUB SWAP1 LOG3 POP POP JUMP JUMPDEST PUSH0 PUSH20 0xFFFFFFFFFFFFFFFFFFFFFFFFFFFFFFFFFFFFFFFF DUP3 AND SWAP1 POP SWAP2 SWAP1 POP JUMP JUMPDEST PUSH0 PUSH2 0x180 DUP3 PUSH2 0x157 JUMP JUMPDEST SWAP1 POP SWAP2 SWAP1 POP JUMP JUMPDEST PUSH2 0x190 DUP2 PUSH2 0x176 JUMP JUMPDEST DUP3 MSTORE POP POP JUMP JUMPDEST PUSH0 PUSH1 0x20 DUP3 ADD SWAP1 POP PUSH2 0x1A9 PUSH0 DUP4 ADD DUP5 PUSH2 0x187 JUMP JUMPDEST SWAP3 SWAP2 POP POP JUMP JUMPDEST PUSH2 0x2096 DUP1 PUSH2 0x1BC PUSH0 CODECOPY PUSH0 RETURN INVALID PUSH1 0x80 PUSH1 0x40 MSTORE PUSH1 0x4 CALLDATASIZE LT PUSH2 0xA6 JUMPI PUSH0 CALLDATALOAD PUSH1 0xE0 SHR DUP1 PUSH4 0x8DA5CB5B GT PUSH2 0x63 JUMPI DUP1 PUSH4 0x8DA5CB5B EQ PUSH2 0x1BC JUMPI DUP1 PUSH4 0x9BD30883 EQ PUSH2 0x1E6 JUMPI DUP1 PUSH4 0xBEC0D799 EQ PUSH2 0x210 JUMPI DUP1 PUSH4 0xF2FDE38B EQ PUSH2 0x238 JUMPI DUP1 PUSH4 0xF46DE7D4 EQ PUSH2 0x260 JUMPI DUP1 PUSH4 0xF98520DE EQ PUSH2 0x27C JUMPI PUSH2 0xA6 JUMP JUMPDEST DUP1 PUSH4 0x21E6DE9D EQ PUSH2 0xAA JUMPI DUP1 PUSH4 0x354528E8 EQ PUSH2 0xD2 JUMPI DUP1 PUSH4 0x590791F2 EQ PUSH2 0xFC JUMPI DUP1 PUSH4 0x5AC3E19E EQ PUSH2 0x126 JUMPI DUP1 PUSH4 0x68744046 EQ PUSH2 0x166 JUMPI DUP1 PUSH4 0x715018A6 EQ PUSH2 0x1A6 JUMPI JUMPDEST PUSH0 DUP1 REVERT JUMPDEST CALLVALUE DUP1 ISZERO PUSH2 0xB5 JUMPI PUSH0 DUP1 REVERT JUMPDEST POP PUSH2 0xD0 PUSH1 0x4 DUP1 CALLDATASIZE SUB DUP2 ADD SWAP1 PUSH2 0xCB SWAP2 SWAP1 PUSH2 0x141B JUMP JUMPDEST PUSH2 0x2A4 JUMP JUMPDEST STOP JUMPDEST CALLVALUE DUP1 ISZERO PUSH2 0xDD JUMPI PUSH0 DUP1 REVERT JUMPDEST POP PUSH2 0xE6 PUSH2 0x547 JUMP JUMPDEST PUSH1 0x40 MLOAD PUSH2 0xF3 SWAP2 SWAP1 PUSH2 0x15FD JUMP JUMPDEST PUSH1 0x40 MLOAD DUP1 SWAP2 SUB SWAP1 RETURN JUMPDEST CALLVALUE DUP1 ISZERO PUSH2 0x107 JUMPI PUSH0 DUP1 REVERT JUMPDEST POP PUSH2 0x110 PUSH2 0x69D JUMP JUMPDEST PUSH1 0x40 MLOAD PUSH2 0x11D SWAP2 SWAP1 PUSH2 0x162C JUMP JUMPDEST PUSH1 0x40 MLOAD DUP1 SWAP2 SUB SWAP1 RETURN JUMPDEST CALLVALUE DUP1 ISZERO PUSH2 0x131 JUMPI PUSH0 DUP1 REVERT JUMPDEST POP PUSH2 0x14C PUSH1 0x4 DUP1 CALLDATASIZE SUB DUP2 ADD SWAP1 PUSH2 0x147 SWAP2 SWAP1 PUSH2 0x1645 JUMP JUMPDEST PUSH2 0x6C2 JUMP JUMPDEST PUSH1 0x40 MLOAD PUSH2 0x15D SWAP6 SWAP5 SWAP4 SWAP3 SWAP2 SWAP1 PUSH2 0x16E1 JUMP JUMPDEST PUSH1 0x40 MLOAD DUP1 SWAP2 SUB SWAP1 RETURN JUMPDEST CALLVALUE DUP1 ISZERO PUSH2 0x171 JUMPI PUSH0 DUP1 REVERT JUMPDEST POP PUSH2 0x18C PUSH1 0x4 DUP1 CALLDATASIZE SUB DUP2 ADD SWAP1 PUSH2 0x187 SWAP2 SWAP1 PUSH2 0x1645 JUMP JUMPDEST PUSH2 0x854 JUMP JUMPDEST PUSH1 0x40 MLOAD PUSH2 0x19D SWAP6 SWAP5 SWAP4 SWAP3 SWAP2 SWAP1 PUSH2 0x1740 JUMP JUMPDEST PUSH1 0x40 MLOAD DUP1 SWAP2 SUB SWAP1 RETURN JUMPDEST CALLVALUE DUP1 ISZERO PUSH2 0x1B1 JUMPI PUSH0 DUP1 REVERT JUMPDEST POP PUSH2 0x1BA PUSH2 0x9CC JUMP JUMPDEST STOP JUMPDEST CALLVALUE DUP1 ISZERO PUSH2 0x1C7 JUMPI PUSH0 DUP1 REVERT JUMPDEST POP PUSH2 0x1D0 PUSH2 0x9DF JUMP JUMPDEST PUSH1 0x40 MLOAD PUSH2 0x1DD SWAP2 SWAP1 PUSH2 0x17DE JUMP JUMPDEST PUSH1 0x40 MLOAD DUP1 SWAP2 SUB SWAP1 RETURN JUMPDEST CALLVALUE DUP1 ISZERO PUSH2 0x1F1 JUMPI PUSH0 DUP1 REVERT JUMPDEST POP PUSH2 0x1FA PUSH2 0xA06 JUMP JUMPDEST PUSH1 0x40 MLOAD PUSH2 0x207 SWAP2 SWAP1 PUSH2 0x17F7 JUMP JUMPDEST PUSH1 0x40 MLOAD DUP1 SWAP2 SUB SWAP1 RETURN JUMPDEST CALLVALUE DUP1 ISZERO PUSH2 0x21B JUMPI PUSH0 DUP1 REVERT JUMPDEST POP PUSH2 0x236 PUSH1 0x4 DUP1 CALLDATASIZE SUB DUP2 ADD SWAP1 PUSH2 0x231 SWAP2 SWAP1 PUSH2 0x1645 JUMP JUMPDEST PUSH2 0xA26 JUMP JUMPDEST STOP JUMPDEST CALLVALUE DUP1 ISZERO PUSH2 0x243 JUMPI PUSH0 DUP1 REVERT JUMPDEST POP PUSH2 0x25E PUSH1 0x4 DUP1 CALLDATASIZE SUB DUP2 ADD SWAP1 PUSH2 0x259 SWAP2 SWAP1 PUSH2 0x183A JUMP JUMPDEST PUSH2 0xC0F JUMP JUMPDEST STOP JUMPDEST PUSH2 0x27A PUSH1 0x4 DUP1 CALLDATASIZE SUB DUP2 ADD SWAP1 PUSH2 0x275 SWAP2 SWAP1 PUSH2 0x1865 JUMP JUMPDEST PUSH2 0xC93 JUMP JUMPDEST STOP JUMPDEST CALLVALUE DUP1 ISZERO PUSH2 0x287 JUMPI PUSH0 DUP1 REVERT JUMPDEST POP PUSH2 0x2A2 PUSH1 0x4 DUP1 CALLDATASIZE SUB DUP2 ADD SWAP1 PUSH2 0x29D SWAP2 SWAP1 PUSH2 0x18F8 JUMP JUMPDEST PUSH2 0xF65 JUMP JUMPDEST STOP JUMPDEST PUSH0 PUSH1 0x1 PUSH0 DUP10 DUP2 MSTORE PUSH1 0x20 ADD SWAP1 DUP2 MSTORE PUSH1 0x20 ADD PUSH0 KECCAK256 PUSH0 ADD PUSH1 0xC SWAP1 SLOAD SWAP1 PUSH2 0x100 EXP SWAP1 DIV PUSH12 0xFFFFFFFFFFFFFFFFFFFFFFFF AND PUSH12 0xFFFFFFFFFFFFFFFFFFFFFFFF AND EQ PUSH2 0x31F JUMPI PUSH1 0x40 MLOAD PUSH32 0x8C379A000000000000000000000000000000000000000000000000000000000 DUP2 MSTORE PUSH1 0x4 ADD PUSH2 0x316 SWAP1 PUSH2 0x198D JUMP JUMPDEST PUSH1 0x40 MLOAD DUP1 SWAP2 SUB SWAP1 REVERT JUMPDEST PUSH1 0x40 MLOAD DUP1 PUSH1 0xA0 ADD PUSH1 0x40 MSTORE DUP1 DUP4 PUSH12 0xFFFFFFFFFFFFFFFFFFFFFFFF AND DUP2 MSTORE PUSH1 0x20 ADD PUSH8 0xDE0B6B3A7640000 DUP4 PUSH2 0x352 SWAP2 SWAP1 PUSH2 0x19D8 JUMP JUMPDEST PUSH12 0xFFFFFFFFFFFFFFFFFFFFFFFF AND DUP2 MSTORE PUSH1 0x20 ADD PUSH0 DUP5 PUSH12 0xFFFFFFFFFFFFFFFFFFFFFFFF AND GT ISZERO ISZERO DUP2 MSTORE PUSH1 0x20 ADD DUP8 DUP8 DUP1 DUP1 PUSH1 0x1F ADD PUSH1 0x20 DUP1 SWAP2 DIV MUL PUSH1 0x20 ADD PUSH1 0x40 MLOAD SWAP1 DUP2 ADD PUSH1 0x40 MSTORE DUP1 SWAP4 SWAP3 SWAP2 SWAP1 DUP2 DUP2 MSTORE PUSH1 0x20 ADD DUP4 DUP4 DUP1 DUP3 DUP5 CALLDATACOPY PUSH0 DUP2 DUP5 ADD MSTORE PUSH1 0x1F NOT PUSH1 0x1F DUP3 ADD AND SWAP1 POP DUP1 DUP4 ADD SWAP3 POP POP POP POP POP POP POP DUP2 MSTORE PUSH1 0x20 ADD DUP6 DUP6 DUP1 DUP1 PUSH1 0x1F ADD PUSH1 0x20 DUP1 SWAP2 DIV MUL PUSH1 0x20 ADD PUSH1 0x40 MLOAD SWAP1 DUP2 ADD PUSH1 0x40 MSTORE DUP1 SWAP4 SWAP3 SWAP2 SWAP1 DUP2 DUP2 MSTORE PUSH1 0x20 ADD DUP4 DUP4 DUP1 DUP3 DUP5 CALLDATACOPY PUSH0 DUP2 DUP5 ADD MSTORE PUSH1 0x1F NOT PUSH1 0x1F DUP3 ADD AND SWAP1 POP DUP1 DUP4 ADD SWAP3 POP POP POP POP POP POP POP DUP2 MSTORE POP PUSH1 0x1 PUSH0 DUP10 DUP2 MSTORE PUSH1 0x20 ADD SWAP1 DUP2 MSTORE PUSH1 0x20 ADD PUSH0 KECCAK256 PUSH0 DUP3 ADD MLOAD DUP2 PUSH0 ADD PUSH0 PUSH2 0x100 EXP DUP2 SLOAD DUP2 PUSH12 0xFFFFFFFFFFFFFFFFFFFFFFFF MUL NOT AND SWAP1 DUP4 PUSH12 0xFFFFFFFFFFFFFFFFFFFFFFFF AND MUL OR SWAP1 SSTORE POP PUSH1 0x20 DUP3 ADD MLOAD DUP2 PUSH0 ADD PUSH1 0xC PUSH2 0x100 EXP DUP2 SLOAD DUP2 PUSH12 0xFFFFFFFFFFFFFFFFFFFFFFFF MUL NOT AND SWAP1 DUP4 PUSH12 0xFFFFFFFFFFFFFFFFFFFFFFFF AND MUL OR SWAP1 SSTORE POP PUSH1 0x40 DUP3 ADD MLOAD DUP2 PUSH0 ADD PUSH1 0x18 PUSH2 0x100 EXP DUP2 SLOAD DUP2 PUSH1 0xFF MUL NOT AND SWAP1 DUP4 ISZERO ISZERO MUL OR SWAP1 SSTORE POP PUSH1 0x60 DUP3 ADD MLOAD DUP2 PUSH1 0x1 ADD SWAP1 DUP2 PUSH2 0x4BC SWAP2 SWAP1 PUSH2 0x1C3B JUMP JUMPDEST POP PUSH1 0x80 DUP3 ADD MLOAD DUP2 PUSH1 0x2 ADD SWAP1 DUP2 PUSH2 0x4D2 SWAP2 SWAP1 PUSH2 0x1C3B JUMP JUMPDEST POP SWAP1 POP POP PUSH1 0x2 DUP8 SWAP1 DUP1 PUSH1 0x1 DUP2 SLOAD ADD DUP1 DUP3 SSTORE DUP1 SWAP2 POP POP PUSH1 0x1 SWAP1 SUB SWAP1 PUSH0 MSTORE PUSH1 0x20 PUSH0 KECCAK256 ADD PUSH0 SWAP1 SWAP2 SWAP1 SWAP2 SWAP1 SWAP2 POP SSTORE DUP7 PUSH32 0x907463480EDCB1016AD34B5C752A56E18C2AEA6ED1DD0E18EC287D63D670D88F DUP8 DUP8 DUP8 DUP8 DUP7 DUP9 PUSH1 0x40 MLOAD PUSH2 0x536 SWAP7 SWAP6 SWAP5 SWAP4 SWAP3 SWAP2 SWAP1 PUSH2 0x1D44 JUMP JUMPDEST PUSH1 0x40 MLOAD DUP1 SWAP2 SUB SWAP1 LOG2 POP POP POP POP POP POP POP JUMP JUMPDEST PUSH1 0x60 PUSH0 PUSH1 0x2 DUP1 SLOAD SWAP1 POP PUSH8 0xFFFFFFFFFFFFFFFF DUP2 GT ISZERO PUSH2 0x569 JUMPI PUSH2 0x568 PUSH2 0x1A14 JUMP JUMPDEST JUMPDEST PUSH1 0x40 MLOAD SWAP1 DUP1 DUP3 MSTORE DUP1 PUSH1 0x20 MUL PUSH1 0x20 ADD DUP3 ADD PUSH1 0x40 MSTORE DUP1 ISZERO PUSH2 0x59C JUMPI DUP2 PUSH1 0x20 ADD JUMPDEST PUSH1 0x60 DUP2 MSTORE PUSH1 0x20 ADD SWAP1 PUSH1 0x1 SWAP1 SUB SWAP1 DUP2 PUSH2 0x587 JUMPI SWAP1 POP JUMPDEST POP SWAP1 POP PUSH0 JUMPDEST PUSH1 0x2 DUP1 SLOAD SWAP1 POP DUP2 LT ISZERO PUSH2 0x695 JUMPI PUSH0 PUSH1 0x1 PUSH0 PUSH1 0x2 DUP5 DUP2 SLOAD DUP2 LT PUSH2 0x5C6 JUMPI PUSH2 0x5C5 PUSH2 0x1D99 JUMP JUMPDEST JUMPDEST SWAP1 PUSH0 MSTORE PUSH1 0x20 PUSH0 KECCAK256 ADD SLOAD DUP2 MSTORE PUSH1 0x20 ADD SWAP1 DUP2 MSTORE PUSH1 0x20 ADD PUSH0 KECCAK256 SWAP1 POP DUP1 PUSH1 0x1 ADD DUP1 SLOAD PUSH2 0x5ED SWAP1 PUSH2 0x1A6E JUMP JUMPDEST DUP1 PUSH1 0x1F ADD PUSH1 0x20 DUP1 SWAP2 DIV MUL PUSH1 0x20 ADD PUSH1 0x40 MLOAD SWAP1 DUP2 ADD PUSH1 0x40 MSTORE DUP1 SWAP3 SWAP2 SWAP1 DUP2 DUP2 MSTORE PUSH1 0x20 ADD DUP3 DUP1 SLOAD PUSH2 0x619 SWAP1 PUSH2 0x1A6E JUMP JUMPDEST DUP1 ISZERO PUSH2 0x664 JUMPI DUP1 PUSH1 0x1F LT PUSH2 0x63B JUMPI PUSH2 0x100 DUP1 DUP4 SLOAD DIV MUL DUP4 MSTORE SWAP2 PUSH1 0x20 ADD SWAP2 PUSH2 0x664 JUMP JUMPDEST DUP3 ADD SWAP2 SWAP1 PUSH0 MSTORE PUSH1 0x20 PUSH0 KECCAK256 SWAP1 JUMPDEST DUP2 SLOAD DUP2 MSTORE SWAP1 PUSH1 0x1 ADD SWAP1 PUSH1 0x20 ADD DUP1 DUP4 GT PUSH2 0x647 JUMPI DUP3 SWAP1 SUB PUSH1 0x1F AND DUP3 ADD SWAP2 JUMPDEST POP POP POP POP POP DUP4 DUP4 DUP2 MLOAD DUP2 LT PUSH2 0x67C JUMPI PUSH2 0x67B PUSH2 0x1D99 JUMP JUMPDEST JUMPDEST PUSH1 0x20 MUL PUSH1 0x20 ADD ADD DUP2 SWAP1 MSTORE POP DUP2 DUP1 PUSH1 0x1 ADD SWAP3 POP POP POP PUSH2 0x5A1 JUMP JUMPDEST POP DUP1 SWAP2 POP POP SWAP1 JUMP JUMPDEST PUSH0 PUSH2 0x6A6 PUSH2 0x9DF JUMP JUMPDEST PUSH20 0xFFFFFFFFFFFFFFFFFFFFFFFFFFFFFFFFFFFFFFFF AND BALANCE SWAP1 POP SWAP1 JUMP JUMPDEST PUSH1 0x60 DUP1 PUSH0 DUP1 PUSH0 DUP1 PUSH1 0x1 PUSH0 DUP9 DUP2 MSTORE PUSH1 0x20 ADD SWAP1 DUP2 MSTORE PUSH1 0x20 ADD PUSH0 KECCAK256 SWAP1 POP DUP1 PUSH1 0x1 ADD DUP2 PUSH1 0x2 ADD DUP3 PUSH0 ADD PUSH1 0xC SWAP1 SLOAD SWAP1 PUSH2 0x100 EXP SWAP1 DIV PUSH12 0xFFFFFFFFFFFFFFFFFFFFFFFF AND DUP4 PUSH0 ADD PUSH0 SWAP1 SLOAD SWAP1 PUSH2 0x100 EXP SWAP1 DIV PUSH12 0xFFFFFFFFFFFFFFFFFFFFFFFF AND DUP5 PUSH0 ADD PUSH1 0x18 SWAP1 SLOAD SWAP1 PUSH2 0x100 EXP SWAP1 DIV PUSH1 0xFF AND DUP5 DUP1 SLOAD PUSH2 0x738 SWAP1 PUSH2 0x1A6E JUMP JUMPDEST DUP1 PUSH1 0x1F ADD PUSH1 0x20 DUP1 SWAP2 DIV MUL PUSH1 0x20 ADD PUSH1 0x40 MLOAD SWAP1 DUP2 ADD PUSH1 0x40 MSTORE DUP1 SWAP3 SWAP2 SWAP1 DUP2 DUP2 MSTORE PUSH1 0x20 ADD DUP3 DUP1 SLOAD PUSH2 0x764 SWAP1 PUSH2 0x1A6E JUMP JUMPDEST DUP1 ISZERO PUSH2 0x7AF JUMPI DUP1 PUSH1 0x1F LT PUSH2 0x786 JUMPI PUSH2 0x100 DUP1 DUP4 SLOAD DIV MUL DUP4 MSTORE SWAP2 PUSH1 0x20 ADD SWAP2 PUSH2 0x7AF JUMP JUMPDEST DUP3 ADD SWAP2 SWAP1 PUSH0 MSTORE PUSH1 0x20 PUSH0 KECCAK256 SWAP1 JUMPDEST DUP2 SLOAD DUP2 MSTORE SWAP1 PUSH1 0x1 ADD SWAP1 PUSH1 0x20 ADD DUP1 DUP4 GT PUSH2 0x792 JUMPI DUP3 SWAP1 SUB PUSH1 0x1F AND DUP3 ADD SWAP2 JUMPDEST POP POP POP POP POP SWAP5 POP DUP4 DUP1 SLOAD PUSH2 0x7C2 SWAP1 PUSH2 0x1A6E JUMP JUMPDEST DUP1 PUSH1 0x1F ADD PUSH1 0x20 DUP1 SWAP2 DIV MUL PUSH1 0x20 ADD PUSH1 0x40 MLOAD SWAP1 DUP2 ADD PUSH1 0x40 MSTORE DUP1 SWAP3 SWAP2 SWAP1 DUP2 DUP2 MSTORE PUSH1 0x20 ADD DUP3 DUP1 SLOAD PUSH2 0x7EE SWAP1 PUSH2 0x1A6E JUMP JUMPDEST DUP1 ISZERO PUSH2 0x839 JUMPI DUP1 PUSH1 0x1F LT PUSH2 0x810 JUMPI PUSH2 0x100 DUP1 DUP4 SLOAD DIV MUL DUP4 MSTORE SWAP2 PUSH1 0x20 ADD SWAP2 PUSH2 0x839 JUMP JUMPDEST DUP3 ADD SWAP2 SWAP1 PUSH0 MSTORE PUSH1 0x20 PUSH0 KECCAK256 SWAP1 JUMPDEST DUP2 SLOAD DUP2 MSTORE SWAP1 PUSH1 0x1 ADD SWAP1 PUSH1 0x20 ADD DUP1 DUP4 GT PUSH2 0x81C JUMPI DUP3 SWAP1 SUB PUSH1 0x1F AND DUP3 ADD SWAP2 JUMPDEST POP POP POP POP POP SWAP4 POP SWAP6 POP SWAP6 POP SWAP6 POP SWAP6 POP SWAP6 POP POP SWAP2 SWAP4 SWAP6 SWAP1 SWAP3 SWAP5 POP JUMP JUMPDEST PUSH1 0x1 PUSH1 0x20 MSTORE DUP1 PUSH0 MSTORE PUSH1 0x40 PUSH0 KECCAK256 PUSH0 SWAP2 POP SWAP1 POP DUP1 PUSH0 ADD PUSH0 SWAP1 SLOAD SWAP1 PUSH2 0x100 EXP SWAP1 DIV PUSH12 0xFFFFFFFFFFFFFFFFFFFFFFFF AND SWAP1 DUP1 PUSH0 ADD PUSH1 0xC SWAP1 SLOAD SWAP1 PUSH2 0x100 EXP SWAP1 DIV PUSH12 0xFFFFFFFFFFFFFFFFFFFFFFFF AND SWAP1 DUP1 PUSH0 ADD PUSH1 0x18 SWAP1 SLOAD SWAP1 PUSH2 0x100 EXP SWAP1 DIV PUSH1 0xFF AND SWAP1 DUP1 PUSH1 0x1 ADD DUP1 SLOAD PUSH2 0x8BF SWAP1 PUSH2 0x1A6E JUMP JUMPDEST DUP1 PUSH1 0x1F ADD PUSH1 0x20 DUP1 SWAP2 DIV MUL PUSH1 0x20 ADD PUSH1 0x40 MLOAD SWAP1 DUP2 ADD PUSH1 0x40 MSTORE DUP1 SWAP3 SWAP2 SWAP1 DUP2 DUP2 MSTORE PUSH1 0x20 ADD DUP3 DUP1 SLOAD PUSH2 0x8EB SWAP1 PUSH2 0x1A6E JUMP JUMPDEST DUP1 ISZERO PUSH2 0x936 JUMPI DUP1 PUSH1 0x1F LT PUSH2 0x90D JUMPI PUSH2 0x100 DUP1 DUP4 SLOAD DIV MUL DUP4 MSTORE SWAP2 PUSH1 0x20 ADD SWAP2 PUSH2 0x936 JUMP JUMPDEST DUP3 ADD SWAP2 SWAP1 PUSH0 MSTORE PUSH1 0x20 PUSH0 KECCAK256 SWAP1 JUMPDEST DUP2 SLOAD DUP2 MSTORE SWAP1 PUSH1 0x1 ADD SWAP1 PUSH1 0x20 ADD DUP1 DUP4 GT PUSH2 0x919 JUMPI DUP3 SWAP1 SUB PUSH1 0x1F AND DUP3 ADD SWAP2 JUMPDEST POP POP POP POP POP SWAP1 DUP1 PUSH1 0x2 ADD DUP1 SLOAD PUSH2 0x94B SWAP1 PUSH2 0x1A6E JUMP JUMPDEST DUP1 PUSH1 0x1F ADD PUSH1 0x20 DUP1 SWAP2 DIV MUL PUSH1 0x20 ADD PUSH1 0x40 MLOAD SWAP1 DUP2 ADD PUSH1 0x40 MSTORE DUP1 SWAP3 SWAP2 SWAP1 DUP2 DUP2 MSTORE PUSH1 0x20 ADD DUP3 DUP1 SLOAD PUSH2 0x977 SWAP1 PUSH2 0x1A6E JUMP JUMPDEST DUP1 ISZERO PUSH2 0x9C2 JUMPI DUP1 PUSH1 0x1F LT PUSH2 0x999 JUMPI PUSH2 0x100 DUP1 DUP4 SLOAD DIV MUL DUP4 MSTORE SWAP2 PUSH1 0x20 ADD SWAP2 PUSH2 0x9C2 JUMP JUMPDEST DUP3 ADD SWAP2 SWAP1 PUSH0 MSTORE PUSH1 0x20 PUSH0 KECCAK256 SWAP1 JUMPDEST DUP2 SLOAD DUP2 MSTORE SWAP1 PUSH1 0x1 ADD SWAP1 PUSH1 0x20 ADD DUP1 DUP4 GT PUSH2 0x9A5 JUMPI DUP3 SWAP1 SUB PUSH1 0x1F AND DUP3 ADD SWAP2 JUMPDEST POP POP POP POP POP SWAP1 POP DUP6 JUMP JUMPDEST PUSH2 0x9D4 PUSH2 0x1197 JUMP JUMPDEST PUSH2 0x9DD PUSH0 PUSH2 0x121E JUMP JUMPDEST JUMP JUMPDEST PUSH0 DUP1 PUSH0 SWAP1 SLOAD SWAP1 PUSH2 0x100 EXP SWAP1 DIV PUSH20 0xFFFFFFFFFFFFFFFFFFFFFFFFFFFFFFFFFFFFFFFF AND SWAP1 POP SWAP1 JUMP JUMPDEST PUSH0 DUP1 PUSH1 0x14 SWAP1 SLOAD SWAP1 PUSH2 0x100 EXP SWAP1 DIV PUSH12 0xFFFFFFFFFFFFFFFFFFFFFFFF AND SWAP1 POP SWAP1 JUMP JUMPDEST PUSH2 0xA2E PUSH2 0x1197 JUMP JUMPDEST PUSH0 PUSH1 0x1 PUSH0 DUP4 DUP2 MSTORE PUSH1 0x20 ADD SWAP1 DUP2 MSTORE PUSH1 0x20 ADD PUSH0 KECCAK256 PUSH0 ADD PUSH1 0xC SWAP1 SLOAD SWAP1 PUSH2 0x100 EXP SWAP1 DIV PUSH12 0xFFFFFFFFFFFFFFFFFFFFFFFF AND PUSH12 0xFFFFFFFFFFFFFFFFFFFFFFFF AND SUB PUSH2 0xAA9 JUMPI PUSH1 0x40 MLOAD PUSH32 0x8C379A000000000000000000000000000000000000000000000000000000000 DUP2 MSTORE PUSH1 0x4 ADD PUSH2 0xAA0 SWAP1 PUSH2 0x1E10 JUMP JUMPDEST PUSH1 0x40 MLOAD DUP1 SWAP2 SUB SWAP1 REVERT JUMPDEST PUSH1 0x1 PUSH0 DUP3 DUP2 MSTORE PUSH1 0x20 ADD SWAP1 DUP2 MSTORE PUSH1 0x20 ADD PUSH0 KECCAK256 PUSH0 DUP1 DUP3 ADD PUSH0 PUSH2 0x100 EXP DUP2 SLOAD SWAP1 PUSH12 0xFFFFFFFFFFFFFFFFFFFFFFFF MUL NOT AND SWAP1 SSTORE PUSH0 DUP3 ADD PUSH1 0xC PUSH2 0x100 EXP DUP2 SLOAD SWAP1 PUSH12 0xFFFFFFFFFFFFFFFFFFFFFFFF MUL NOT AND SWAP1 SSTORE PUSH0 DUP3 ADD PUSH1 0x18 PUSH2 0x100 EXP DUP2 SLOAD SWAP1 PUSH1 0xFF MUL NOT AND SWAP1 SSTORE PUSH1 0x1 DUP3 ADD PUSH0 PUSH2 0xB18 SWAP2 SWAP1 PUSH2 0x12E6 JUMP JUMPDEST PUSH1 0x2 DUP3 ADD PUSH0 PUSH2 0xB27 SWAP2 SWAP1 PUSH2 0x12E6 JUMP JUMPDEST POP POP PUSH0 JUMPDEST PUSH1 0x2 DUP1 SLOAD SWAP1 POP DUP2 LT ISZERO PUSH2 0xBDE JUMPI DUP2 PUSH1 0x2 DUP3 DUP2 SLOAD DUP2 LT PUSH2 0xB4D JUMPI PUSH2 0xB4C PUSH2 0x1D99 JUMP JUMPDEST JUMPDEST SWAP1 PUSH0 MSTORE PUSH1 0x20 PUSH0 KECCAK256 ADD SLOAD SUB PUSH2 0xBD3 JUMPI PUSH1 0x2 PUSH1 0x1 PUSH1 0x2 DUP1 SLOAD SWAP1 POP PUSH2 0xB6F SWAP2 SWAP1 PUSH2 0x1E2E JUMP JUMPDEST DUP2 SLOAD DUP2 LT PUSH2 0xB80 JUMPI PUSH2 0xB7F PUSH2 0x1D99 JUMP JUMPDEST JUMPDEST SWAP1 PUSH0 MSTORE PUSH1 0x20 PUSH0 KECCAK256 ADD SLOAD PUSH1 0x2 DUP3 DUP2 SLOAD DUP2 LT PUSH2 0xB9D JUMPI PUSH2 0xB9C PUSH2 0x1D99 JUMP JUMPDEST JUMPDEST SWAP1 PUSH0 MSTORE PUSH1 0x20 PUSH0 KECCAK256 ADD DUP2 SWAP1 SSTORE POP PUSH1 0x2 DUP1 SLOAD DUP1 PUSH2 0xBBB JUMPI PUSH2 0xBBA PUSH2 0x1E61 JUMP JUMPDEST JUMPDEST PUSH1 0x1 SWAP1 SUB DUP2 DUP2 SWAP1 PUSH0 MSTORE PUSH1 0x20 PUSH0 KECCAK256 ADD PUSH0 SWAP1 SSTORE SWAP1 SSTORE PUSH2 0xBDE JUMP JUMPDEST DUP1 PUSH1 0x1 ADD SWAP1 POP PUSH2 0xB2B JUMP JUMPDEST POP DUP1 PUSH32 0x3C5CE13264433BCF97E5D53C97AF4FC33800E8C9DD927F965B116D0018D7CDDF PUSH1 0x40 MLOAD PUSH1 0x40 MLOAD DUP1 SWAP2 SUB SWAP1 LOG2 POP JUMP JUMPDEST PUSH2 0xC17 PUSH2 0x1197 JUMP JUMPDEST PUSH0 PUSH20 0xFFFFFFFFFFFFFFFFFFFFFFFFFFFFFFFFFFFFFFFF AND DUP2 PUSH20 0xFFFFFFFFFFFFFFFFFFFFFFFFFFFFFFFFFFFFFFFF AND SUB PUSH2 0xC87 JUMPI PUSH0 PUSH1 0x40 MLOAD PUSH32 0x1E4FBDF700000000000000000000000000000000000000000000000000000000 DUP2 MSTORE PUSH1 0x4 ADD PUSH2 0xC7E SWAP2 SWAP1 PUSH2 0x17DE JUMP JUMPDEST PUSH1 0x40 MLOAD DUP1 SWAP2 SUB SWAP1 REVERT JUMPDEST PUSH2 0xC90 DUP2 PUSH2 0x121E JUMP JUMPDEST POP JUMP JUMPDEST PUSH0 PUSH1 0x1 PUSH0 DUP5 DUP2 MSTORE PUSH1 0x20 ADD SWAP1 DUP2 MSTORE PUSH1 0x20 ADD PUSH0 KECCAK256 SWAP1 POP DUP1 PUSH0 ADD PUSH1 0x18 SWAP1 SLOAD SWAP1 PUSH2 0x100 EXP SWAP1 DIV PUSH1 0xFF AND PUSH2 0xCF7 JUMPI PUSH1 0x40 MLOAD PUSH32 0x8C379A000000000000000000000000000000000000000000000000000000000 DUP2 MSTORE PUSH1 0x4 ADD PUSH2 0xCEE SWAP1 PUSH2 0x1ED8 JUMP JUMPDEST PUSH1 0x40 MLOAD DUP1 SWAP2 SUB SWAP1 REVERT JUMPDEST DUP2 PUSH12 0xFFFFFFFFFFFFFFFFFFFFFFFF AND DUP2 PUSH0 ADD PUSH0 SWAP1 SLOAD SWAP1 PUSH2 0x100 EXP SWAP1 DIV PUSH12 0xFFFFFFFFFFFFFFFFFFFFFFFF AND PUSH12 0xFFFFFFFFFFFFFFFFFFFFFFFF AND LT ISZERO PUSH2 0xD70 JUMPI PUSH1 0x40 MLOAD PUSH32 0x8C379A000000000000000000000000000000000000000000000000000000000 DUP2 MSTORE PUSH1 0x4 ADD PUSH2 0xD67 SWAP1 PUSH2 0x1F40 JUMP JUMPDEST PUSH1 0x40 MLOAD DUP1 SWAP2 SUB SWAP1 REVERT JUMPDEST DUP2 DUP2 PUSH0 ADD PUSH1 0xC SWAP1 SLOAD SWAP1 PUSH2 0x100 EXP SWAP1 DIV PUSH12 0xFFFFFFFFFFFFFFFFFFFFFFFF AND PUSH2 0xD97 SWAP2 SWAP1 PUSH2 0x19D8 JUMP JUMPDEST PUSH12 0xFFFFFFFFFFFFFFFFFFFFFFFF AND CALLVALUE EQ PUSH2 0xDE6 JUMPI PUSH1 0x40 MLOAD PUSH32 0x8C379A000000000000000000000000000000000000000000000000000000000 DUP2 MSTORE PUSH1 0x4 ADD PUSH2 0xDDD SWAP1 PUSH2 0x1FA8 JUMP JUMPDEST PUSH1 0x40 MLOAD DUP1 SWAP2 SUB SWAP1 REVERT JUMPDEST DUP2 DUP2 PUSH0 ADD PUSH0 DUP3 DUP3 DUP3 SWAP1 SLOAD SWAP1 PUSH2 0x100 EXP SWAP1 DIV PUSH12 0xFFFFFFFFFFFFFFFFFFFFFFFF AND SUB SWAP3 POP PUSH2 0x100 EXP DUP2 SLOAD DUP2 PUSH12 0xFFFFFFFFFFFFFFFFFFFFFFFF MUL NOT AND SWAP1 DUP4 PUSH12 0xFFFFFFFFFFFFFFFFFFFFFFFF AND MUL OR SWAP1 SSTORE POP DUP2 PUSH0 PUSH1 0x14 DUP3 DUP3 DUP3 SWAP1 SLOAD SWAP1 PUSH2 0x100 EXP SWAP1 DIV PUSH12 0xFFFFFFFFFFFFFFFFFFFFFFFF AND ADD SWAP3 POP PUSH2 0x100 EXP DUP2 SLOAD DUP2 PUSH12 0xFFFFFFFFFFFFFFFFFFFFFFFF MUL NOT AND SWAP1 DUP4 PUSH12 0xFFFFFFFFFFFFFFFFFFFFFFFF AND MUL OR SWAP1 SSTORE POP PUSH0 DUP2 PUSH0 ADD PUSH0 SWAP1 SLOAD SWAP1 PUSH2 0x100 EXP SWAP1 DIV PUSH12 0xFFFFFFFFFFFFFFFFFFFFFFFF AND PUSH12 0xFFFFFFFFFFFFFFFFFFFFFFFF AND GT DUP2 PUSH0 ADD PUSH1 0x18 PUSH2 0x100 EXP DUP2 SLOAD DUP2 PUSH1 0xFF MUL NOT AND SWAP1 DUP4 ISZERO ISZERO MUL OR SWAP1 SSTORE POP PUSH2 0xECE PUSH2 0x9DF JUMP JUMPDEST PUSH20 0xFFFFFFFFFFFFFFFFFFFFFFFFFFFFFFFFFFFFFFFF AND PUSH2 0x8FC CALLVALUE SWAP1 DUP2 ISZERO MUL SWAP1 PUSH1 0x40 MLOAD PUSH0 PUSH1 0x40 MLOAD DUP1 DUP4 SUB DUP2 DUP6 DUP9 DUP9 CALL SWAP4 POP POP POP POP ISZERO DUP1 ISZERO PUSH2 0xF10 JUMPI RETURNDATASIZE PUSH0 DUP1 RETURNDATACOPY RETURNDATASIZE PUSH0 REVERT JUMPDEST POP CALLER PUSH20 0xFFFFFFFFFFFFFFFFFFFFFFFFFFFFFFFFFFFFFFFF AND DUP4 PUSH32 0x4E8E9BC53224DD7F5549D1A97FE174D12E6FF0064E2CCB78D886FC515C98859D DUP5 PUSH1 0x40 MLOAD PUSH2 0xF58 SWAP2 SWAP1 PUSH2 0x17F7 JUMP JUMPDEST PUSH1 0x40 MLOAD DUP1 SWAP2 SUB SWAP1 LOG3 POP POP POP JUMP JUMPDEST PUSH2 0xF6D PUSH2 0x1197 JUMP JUMPDEST PUSH0 DUP3 DUP3 SWAP1 POP SWAP1 POP PUSH0 JUMPDEST DUP2 DUP2 LT ISZERO PUSH2 0x1158 JUMPI PUSH0 DUP5 DUP5 DUP4 DUP2 DUP2 LT PUSH2 0xF92 JUMPI PUSH2 0xF91 PUSH2 0x1D99 JUMP JUMPDEST JUMPDEST SWAP1 POP PUSH1 0x20 MUL ADD CALLDATALOAD SWAP1 POP PUSH0 PUSH1 0x1 PUSH0 DUP4 DUP2 MSTORE PUSH1 0x20 ADD SWAP1 DUP2 MSTORE PUSH1 0x20 ADD PUSH0 KECCAK256 PUSH0 ADD PUSH1 0xC SWAP1 SLOAD SWAP1 PUSH2 0x100 EXP SWAP1 DIV PUSH12 0xFFFFFFFFFFFFFFFFFFFFFFFF AND PUSH12 0xFFFFFFFFFFFFFFFFFFFFFFFF AND SUB PUSH2 0x1016 JUMPI PUSH1 0x40 MLOAD PUSH32 0x8C379A000000000000000000000000000000000000000000000000000000000 DUP2 MSTORE PUSH1 0x4 ADD PUSH2 0x100D SWAP1 PUSH2 0x1E10 JUMP JUMPDEST PUSH1 0x40 MLOAD DUP1 SWAP2 SUB SWAP1 REVERT JUMPDEST PUSH1 0x1 PUSH0 DUP3 DUP2 MSTORE PUSH1 0x20 ADD SWAP1 DUP2 MSTORE PUSH1 0x20 ADD PUSH0 KECCAK256 PUSH0 DUP1 DUP3 ADD PUSH0 PUSH2 0x100 EXP DUP2 SLOAD SWAP1 PUSH12 0xFFFFFFFFFFFFFFFFFFFFFFFF MUL NOT AND SWAP1 SSTORE PUSH0 DUP3 ADD PUSH1 0xC PUSH2 0x100 EXP DUP2 SLOAD SWAP1 PUSH12 0xFFFFFFFFFFFFFFFFFFFFFFFF MUL NOT AND SWAP1 SSTORE PUSH0 DUP3 ADD PUSH1 0x18 PUSH2 0x100 EXP DUP2 SLOAD SWAP1 PUSH1 0xFF MUL NOT AND SWAP1 SSTORE PUSH1 0x1 DUP3 ADD PUSH0 PUSH2 0x1085 SWAP2 SWAP1 PUSH2 0x12E6 JUMP JUMPDEST PUSH1 0x2 DUP3 ADD PUSH0 PUSH2 0x1094 SWAP2 SWAP1 PUSH2 0x12E6 JUMP JUMPDEST POP POP PUSH0 JUMPDEST PUSH1 0x2 DUP1 SLOAD SWAP1 POP DUP2 LT ISZERO PUSH2 0x114B JUMPI DUP2 PUSH1 0x2 DUP3 DUP2 SLOAD DUP2 LT PUSH2 0x10BA JUMPI PUSH2 0x10B9 PUSH2 0x1D99 JUMP JUMPDEST JUMPDEST SWAP1 PUSH0 MSTORE PUSH1 0x20 PUSH0 KECCAK256 ADD SLOAD SUB PUSH2 0x1140 JUMPI PUSH1 0x2 PUSH1 0x1 PUSH1 0x2 DUP1 SLOAD SWAP1 POP PUSH2 0x10DC SWAP2 SWAP1 PUSH2 0x1E2E JUMP JUMPDEST DUP2 SLOAD DUP2 LT PUSH2 0x10ED JUMPI PUSH2 0x10EC PUSH2 0x1D99 JUMP JUMPDEST JUMPDEST SWAP1 PUSH0 MSTORE PUSH1 0x20 PUSH0 KECCAK256 ADD SLOAD PUSH1 0x2 DUP3 DUP2 SLOAD DUP2 LT PUSH2 0x110A JUMPI PUSH2 0x1109 PUSH2 0x1D99 JUMP JUMPDEST JUMPDEST SWAP1 PUSH0 MSTORE PUSH1 0x20 PUSH0 KECCAK256 ADD DUP2 SWAP1 SSTORE POP PUSH1 0x2 DUP1 SLOAD DUP1 PUSH2 0x1128 JUMPI PUSH2 0x1127 PUSH2 0x1E61 JUMP JUMPDEST JUMPDEST PUSH1 0x1 SWAP1 SUB DUP2 DUP2 SWAP1 PUSH0 MSTORE PUSH1 0x20 PUSH0 KECCAK256 ADD PUSH0 SWAP1 SSTORE SWAP1 SSTORE PUSH2 0x114B JUMP JUMPDEST DUP1 PUSH1 0x1 ADD SWAP1 POP PUSH2 0x1098 JUMP JUMPDEST POP DUP2 PUSH1 0x1 ADD SWAP2 POP POP PUSH2 0xF76 JUMP JUMPDEST POP PUSH32 0x7262BE1E48C30C363173FCB2FBF2DC2CB38D076DEE42CC37CDFBDF62AF5C3BED DUP4 DUP4 PUSH1 0x40 MLOAD PUSH2 0x118A SWAP3 SWAP2 SWAP1 PUSH2 0x203E JUMP JUMPDEST PUSH1 0x40 MLOAD DUP1 SWAP2 SUB SWAP1 LOG1 POP POP POP JUMP JUMPDEST PUSH2 0x119F PUSH2 0x12DF JUMP JUMPDEST PUSH20 0xFFFFFFFFFFFFFFFFFFFFFFFFFFFFFFFFFFFFFFFF AND PUSH2 0x11BD PUSH2 0x9DF JUMP JUMPDEST PUSH20 0xFFFFFFFFFFFFFFFFFFFFFFFFFFFFFFFFFFFFFFFF AND EQ PUSH2 0x121C JUMPI PUSH2 0x11E0 PUSH2 0x12DF JUMP JUMPDEST PUSH1 0x40 MLOAD PUSH32 0x118CDAA700000000000000000000000000000000000000000000000000000000 DUP2 MSTORE PUSH1 0x4 ADD PUSH2 0x1213 SWAP2 SWAP1 PUSH2 0x17DE JUMP JUMPDEST PUSH1 0x40 MLOAD DUP1 SWAP2 SUB SWAP1 REVERT JUMPDEST JUMP JUMPDEST PUSH0 DUP1 PUSH0 SWAP1 SLOAD SWAP1 PUSH2 0x100 EXP SWAP1 DIV PUSH20 0xFFFFFFFFFFFFFFFFFFFFFFFFFFFFFFFFFFFFFFFF AND SWAP1 POP DUP2 PUSH0 DUP1 PUSH2 0x100 EXP DUP2 SLOAD DUP2 PUSH20 0xFFFFFFFFFFFFFFFFFFFFFFFFFFFFFFFFFFFFFFFF MUL NOT AND SWAP1 DUP4 PUSH20 0xFFFFFFFFFFFFFFFFFFFFFFFFFFFFFFFFFFFFFFFF AND MUL OR SWAP1 SSTORE POP DUP2 PUSH20 0xFFFFFFFFFFFFFFFFFFFFFFFFFFFFFFFFFFFFFFFF AND DUP2 PUSH20 0xFFFFFFFFFFFFFFFFFFFFFFFFFFFFFFFFFFFFFFFF AND PUSH32 0x8BE0079C531659141344CD1FD0A4F28419497F9722A3DAAFE3B4186F6B6457E0 PUSH1 0x40 MLOAD PUSH1 0x40 MLOAD DUP1 SWAP2 SUB SWAP1 LOG3 POP POP JUMP JUMPDEST PUSH0 CALLER SWAP1 POP SWAP1 JUMP JUMPDEST POP DUP1 SLOAD PUSH2 0x12F2 SWAP1 PUSH2 0x1A6E JUMP JUMPDEST PUSH0 DUP3 SSTORE DUP1 PUSH1 0x1F LT PUSH2 0x1303 JUMPI POP PUSH2 0x1320 JUMP JUMPDEST PUSH1 0x1F ADD PUSH1 0x20 SWAP1 DIV SWAP1 PUSH0 MSTORE PUSH1 0x20 PUSH0 KECCAK256 SWAP1 DUP2 ADD SWAP1 PUSH2 0x131F SWAP2 SWAP1 PUSH2 0x1323 JUMP JUMPDEST JUMPDEST POP JUMP JUMPDEST JUMPDEST DUP1 DUP3 GT ISZERO PUSH2 0x133A JUMPI PUSH0 DUP2 PUSH0 SWAP1 SSTORE POP PUSH1 0x1 ADD PUSH2 0x1324 JUMP JUMPDEST POP SWAP1 JUMP JUMPDEST PUSH0 DUP1 REVERT JUMPDEST PUSH0 DUP1 REVERT JUMPDEST PUSH0 DUP2 SWAP1 POP SWAP2 SWAP1 POP JUMP JUMPDEST PUSH2 0x1358 DUP2 PUSH2 0x1346 JUMP JUMPDEST DUP2 EQ PUSH2 0x1362 JUMPI PUSH0 DUP1 REVERT JUMPDEST POP JUMP JUMPDEST PUSH0 DUP2 CALLDATALOAD SWAP1 POP PUSH2 0x1373 DUP2 PUSH2 0x134F JUMP JUMPDEST SWAP3 SWAP2 POP POP JUMP JUMPDEST PUSH0 DUP1 REVERT JUMPDEST PUSH0 DUP1 REVERT JUMPDEST PUSH0 DUP1 REVERT JUMPDEST PUSH0 DUP1 DUP4 PUSH1 0x1F DUP5 ADD SLT PUSH2 0x139A JUMPI PUSH2 0x1399 PUSH2 0x1379 JUMP JUMPDEST JUMPDEST DUP3 CALLDATALOAD SWAP1 POP PUSH8 0xFFFFFFFFFFFFFFFF DUP2 GT ISZERO PUSH2 0x13B7 JUMPI PUSH2 0x13B6 PUSH2 0x137D JUMP JUMPDEST JUMPDEST PUSH1 0x20 DUP4 ADD SWAP2 POP DUP4 PUSH1 0x1 DUP3 MUL DUP4 ADD GT ISZERO PUSH2 0x13D3 JUMPI PUSH2 0x13D2 PUSH2 0x1381 JUMP JUMPDEST JUMPDEST SWAP3 POP SWAP3 SWAP1 POP JUMP JUMPDEST PUSH0 PUSH12 0xFFFFFFFFFFFFFFFFFFFFFFFF DUP3 AND SWAP1 POP SWAP2 SWAP1 POP JUMP JUMPDEST PUSH2 0x13FA DUP2 PUSH2 0x13DA JUMP JUMPDEST DUP2 EQ PUSH2 0x1404 JUMPI PUSH0 DUP1 REVERT JUMPDEST POP JUMP JUMPDEST PUSH0 DUP2 CALLDATALOAD SWAP1 POP PUSH2 0x1415 DUP2 PUSH2 0x13F1 JUMP JUMPDEST SWAP3 SWAP2 POP POP JUMP JUMPDEST PUSH0 DUP1 PUSH0 DUP1 PUSH0 DUP1 PUSH0 PUSH1 0xA0 DUP9 DUP11 SUB SLT ISZERO PUSH2 0x1436 JUMPI PUSH2 0x1435 PUSH2 0x133E JUMP JUMPDEST JUMPDEST PUSH0 PUSH2 0x1443 DUP11 DUP3 DUP12 ADD PUSH2 0x1365 JUMP JUMPDEST SWAP8 POP POP PUSH1 0x20 DUP9 ADD CALLDATALOAD PUSH8 0xFFFFFFFFFFFFFFFF DUP2 GT ISZERO PUSH2 0x1464 JUMPI PUSH2 0x1463 PUSH2 0x1342 JUMP JUMPDEST JUMPDEST PUSH2 0x1470 DUP11 DUP3 DUP12 ADD PUSH2 0x1385 JUMP JUMPDEST SWAP7 POP SWAP7 POP POP PUSH1 0x40 DUP9 ADD CALLDATALOAD PUSH8 0xFFFFFFFFFFFFFFFF DUP2 GT ISZERO PUSH2 0x1493 JUMPI PUSH2 0x1492 PUSH2 0x1342 JUMP JUMPDEST JUMPDEST PUSH2 0x149F DUP11 DUP3 DUP12 ADD PUSH2 0x1385 JUMP JUMPDEST SWAP5 POP SWAP5 POP POP PUSH1 0x60 PUSH2 0x14B2 DUP11 DUP3 DUP12 ADD PUSH2 0x1407 JUMP JUMPDEST SWAP3 POP POP PUSH1 0x80 PUSH2 0x14C3 DUP11 DUP3 DUP12 ADD PUSH2 0x1407 JUMP JUMPDEST SWAP2 POP POP SWAP3 SWAP6 SWAP9 SWAP2 SWAP5 SWAP8 POP SWAP3 SWAP6 POP JUMP JUMPDEST PUSH0 DUP2 MLOAD SWAP1 POP SWAP2 SWAP1 POP JUMP JUMPDEST PUSH0 DUP3 DUP3 MSTORE PUSH1 0x20 DUP3 ADD SWAP1 POP SWAP3 SWAP2 POP POP JUMP JUMPDEST PUSH0 DUP2 SWAP1 POP PUSH1 0x20 DUP3 ADD SWAP1 POP SWAP2 SWAP1 POP JUMP JUMPDEST PUSH0 DUP2 MLOAD SWAP1 POP SWAP2 SWAP1 POP JUMP JUMPDEST PUSH0 DUP3 DUP3 MSTORE PUSH1 0x20 DUP3 ADD SWAP1 POP SWAP3 SWAP2 POP POP JUMP JUMPDEST DUP3 DUP2 DUP4 MCOPY PUSH0 DUP4 DUP4 ADD MSTORE POP POP POP JUMP JUMPDEST PUSH0 PUSH1 0x1F NOT PUSH1 0x1F DUP4 ADD AND SWAP1 POP SWAP2 SWAP1 POP JUMP JUMPDEST PUSH0 PUSH2 0x153D DUP3 PUSH2 0x14FB JUMP JUMPDEST PUSH2 0x1547 DUP2 DUP6 PUSH2 0x1505 JUMP JUMPDEST SWAP4 POP PUSH2 0x1557 DUP2 DUP6 PUSH1 0x20 DUP7 ADD PUSH2 0x1515 JUMP JUMPDEST PUSH2 0x1560 DUP2 PUSH2 0x1523 JUMP JUMPDEST DUP5 ADD SWAP2 POP POP SWAP3 SWAP2 POP POP JUMP JUMPDEST PUSH0 PUSH2 0x1576 DUP4 DUP4 PUSH2 0x1533 JUMP JUMPDEST SWAP1 POP SWAP3 SWAP2 POP POP JUMP JUMPDEST PUSH0 PUSH1 0x20 DUP3 ADD SWAP1 POP SWAP2 SWAP1 POP JUMP JUMPDEST PUSH0 PUSH2 0x1594 DUP3 PUSH2 0x14D2 JUMP JUMPDEST PUSH2 0x159E DUP2 DUP6 PUSH2 0x14DC JUMP JUMPDEST SWAP4 POP DUP4 PUSH1 0x20 DUP3 MUL DUP6 ADD PUSH2 0x15B0 DUP6 PUSH2 0x14EC JUMP JUMPDEST DUP1 PUSH0 JUMPDEST DUP6 DUP2 LT ISZERO PUSH2 0x15EB JUMPI DUP5 DUP5 SUB DUP10 MSTORE DUP2 MLOAD PUSH2 0x15CC DUP6 DUP3 PUSH2 0x156B JUMP JUMPDEST SWAP5 POP PUSH2 0x15D7 DUP4 PUSH2 0x157E JUMP JUMPDEST SWAP3 POP PUSH1 0x20 DUP11 ADD SWAP10 POP POP PUSH1 0x1 DUP2 ADD SWAP1 POP PUSH2 0x15B3 JUMP JUMPDEST POP DUP3 SWAP8 POP DUP8 SWAP6 POP POP POP POP POP POP SWAP3 SWAP2 POP POP JUMP JUMPDEST PUSH0 PUSH1 0x20 DUP3 ADD SWAP1 POP DUP2 DUP2 SUB PUSH0 DUP4 ADD MSTORE PUSH2 0x1615 DUP2 DUP5 PUSH2 0x158A JUMP JUMPDEST SWAP1 POP SWAP3 SWAP2 POP POP JUMP JUMPDEST PUSH2 0x1626 DUP2 PUSH2 0x1346 JUMP JUMPDEST DUP3 MSTORE POP POP JUMP JUMPDEST PUSH0 PUSH1 0x20 DUP3 ADD SWAP1 POP PUSH2 0x163F PUSH0 DUP4 ADD DUP5 PUSH2 0x161D JUMP JUMPDEST SWAP3 SWAP2 POP POP JUMP JUMPDEST PUSH0 PUSH1 0x20 DUP3 DUP5 SUB SLT ISZERO PUSH2 0x165A JUMPI PUSH2 0x1659 PUSH2 0x133E JUMP JUMPDEST JUMPDEST PUSH0 PUSH2 0x1667 DUP5 DUP3 DUP6 ADD PUSH2 0x1365 JUMP JUMPDEST SWAP2 POP POP SWAP3 SWAP2 POP POP JUMP JUMPDEST PUSH0 DUP3 DUP3 MSTORE PUSH1 0x20 DUP3 ADD SWAP1 POP SWAP3 SWAP2 POP POP JUMP JUMPDEST PUSH0 PUSH2 0x168A DUP3 PUSH2 0x14FB JUMP JUMPDEST PUSH2 0x1694 DUP2 DUP6 PUSH2 0x1670 JUMP JUMPDEST SWAP4 POP PUSH2 0x16A4 DUP2 DUP6 PUSH1 0x20 DUP7 ADD PUSH2 0x1515 JUMP JUMPDEST PUSH2 0x16AD DUP2 PUSH2 0x1523 JUMP JUMPDEST DUP5 ADD SWAP2 POP POP SWAP3 SWAP2 POP POP JUMP JUMPDEST PUSH2 0x16C1 DUP2 PUSH2 0x13DA JUMP JUMPDEST DUP3 MSTORE POP POP JUMP JUMPDEST PUSH0 DUP2 ISZERO ISZERO SWAP1 POP SWAP2 SWAP1 POP JUMP JUMPDEST PUSH2 0x16DB DUP2 PUSH2 0x16C7 JUMP JUMPDEST DUP3 MSTORE POP POP JUMP JUMPDEST PUSH0 PUSH1 0xA0 DUP3 ADD SWAP1 POP DUP2 DUP2 SUB PUSH0 DUP4 ADD MSTORE PUSH2 0x16F9 DUP2 DUP9 PUSH2 0x1680 JUMP JUMPDEST SWAP1 POP DUP2 DUP2 SUB PUSH1 0x20 DUP4 ADD MSTORE PUSH2 0x170D DUP2 DUP8 PUSH2 0x1680 JUMP JUMPDEST SWAP1 POP PUSH2 0x171C PUSH1 0x40 DUP4 ADD DUP7 PUSH2 0x16B8 JUMP JUMPDEST PUSH2 0x1729 PUSH1 0x60 DUP4 ADD DUP6 PUSH2 0x16B8 JUMP JUMPDEST PUSH2 0x1736 PUSH1 0x80 DUP4 ADD DUP5 PUSH2 0x16D2 JUMP JUMPDEST SWAP7 SWAP6 POP POP POP POP POP POP JUMP JUMPDEST PUSH0 PUSH1 0xA0 DUP3 ADD SWAP1 POP PUSH2 0x1753 PUSH0 DUP4 ADD DUP9 PUSH2 0x16B8 JUMP JUMPDEST PUSH2 0x1760 PUSH1 0x20 DUP4 ADD DUP8 PUSH2 0x16B8 JUMP JUMPDEST PUSH2 0x176D PUSH1 0x40 DUP4 ADD DUP7 PUSH2 0x16D2 JUMP JUMPDEST DUP2 DUP2 SUB PUSH1 0x60 DUP4 ADD MSTORE PUSH2 0x177F DUP2 DUP6 PUSH2 0x1680 JUMP JUMPDEST SWAP1 POP DUP2 DUP2 SUB PUSH1 0x80 DUP4 ADD MSTORE PUSH2 0x1793 DUP2 DUP5 PUSH2 0x1680 JUMP JUMPDEST SWAP1 POP SWAP7 SWAP6 POP POP POP POP POP POP JUMP JUMPDEST PUSH0 PUSH20 0xFFFFFFFFFFFFFFFFFFFFFFFFFFFFFFFFFFFFFFFF DUP3 AND SWAP1 POP SWAP2 SWAP1 POP JUMP JUMPDEST PUSH0 PUSH2 0x17C8 DUP3 PUSH2 0x179F JUMP JUMPDEST SWAP1 POP SWAP2 SWAP1 POP JUMP JUMPDEST PUSH2 0x17D8 DUP2 PUSH2 0x17BE JUMP JUMPDEST DUP3 MSTORE POP POP JUMP JUMPDEST PUSH0 PUSH1 0x20 DUP3 ADD SWAP1 POP PUSH2 0x17F1 PUSH0 DUP4 ADD DUP5 PUSH2 0x17CF JUMP JUMPDEST SWAP3 SWAP2 POP POP JUMP JUMPDEST PUSH0 PUSH1 0x20 DUP3 ADD SWAP1 POP PUSH2 0x180A PUSH0 DUP4 ADD DUP5 PUSH2 0x16B8 JUMP JUMPDEST SWAP3 SWAP2 POP POP JUMP JUMPDEST PUSH2 0x1819 DUP2 PUSH2 0x17BE JUMP JUMPDEST DUP2 EQ PUSH2 0x1823 JUMPI PUSH0 DUP1 REVERT JUMPDEST POP JUMP JUMPDEST PUSH0 DUP2 CALLDATALOAD SWAP1 POP PUSH2 0x1834 DUP2 PUSH2 0x1810 JUMP JUMPDEST SWAP3 SWAP2 POP POP JUMP JUMPDEST PUSH0 PUSH1 0x20 DUP3 DUP5 SUB SLT ISZERO PUSH2 0x184F JUMPI PUSH2 0x184E PUSH2 0x133E JUMP JUMPDEST JUMPDEST PUSH0 PUSH2 0x185C DUP5 DUP3 DUP6 ADD PUSH2 0x1826 JUMP JUMPDEST SWAP2 POP POP SWAP3 SWAP2 POP POP JUMP JUMPDEST PUSH0 DUP1 PUSH1 0x40 DUP4 DUP6 SUB SLT ISZERO PUSH2 0x187B JUMPI PUSH2 0x187A PUSH2 0x133E JUMP JUMPDEST JUMPDEST PUSH0 PUSH2 0x1888 DUP6 DUP3 DUP7 ADD PUSH2 0x1365 JUMP JUMPDEST SWAP3 POP POP PUSH1 0x20 PUSH2 0x1899 DUP6 DUP3 DUP7 ADD PUSH2 0x1407 JUMP JUMPDEST SWAP2 POP POP SWAP3 POP SWAP3 SWAP1 POP JUMP JUMPDEST PUSH0 DUP1 DUP4 PUSH1 0x1F DUP5 ADD SLT PUSH2 0x18B8 JUMPI PUSH2 0x18B7 PUSH2 0x1379 JUMP JUMPDEST JUMPDEST DUP3 CALLDATALOAD SWAP1 POP PUSH8 0xFFFFFFFFFFFFFFFF DUP2 GT ISZERO PUSH2 0x18D5 JUMPI PUSH2 0x18D4 PUSH2 0x137D JUMP JUMPDEST JUMPDEST PUSH1 0x20 DUP4 ADD SWAP2 POP DUP4 PUSH1 0x20 DUP3 MUL DUP4 ADD GT ISZERO PUSH2 0x18F1 JUMPI PUSH2 0x18F0 PUSH2 0x1381 JUMP JUMPDEST JUMPDEST SWAP3 POP SWAP3 SWAP1 POP JUMP JUMPDEST PUSH0 DUP1 PUSH1 0x20 DUP4 DUP6 SUB SLT ISZERO PUSH2 0x190E JUMPI PUSH2 0x190D PUSH2 0x133E JUMP JUMPDEST JUMPDEST PUSH0 DUP4 ADD CALLDATALOAD PUSH8 0xFFFFFFFFFFFFFFFF DUP2 GT ISZERO PUSH2 0x192B JUMPI PUSH2 0x192A PUSH2 0x1342 JUMP JUMPDEST JUMPDEST PUSH2 0x1937 DUP6 DUP3 DUP7 ADD PUSH2 0x18A3 JUMP JUMPDEST SWAP3 POP SWAP3 POP POP SWAP3 POP SWAP3 SWAP1 POP JUMP JUMPDEST PUSH32 0x426F6F6B20657869737473000000000000000000000000000000000000000000 PUSH0 DUP3 ADD MSTORE POP JUMP JUMPDEST PUSH0 PUSH2 0x1977 PUSH1 0xB DUP4 PUSH2 0x1670 JUMP JUMPDEST SWAP2 POP PUSH2 0x1982 DUP3 PUSH2 0x1943 JUMP JUMPDEST PUSH1 0x20 DUP3 ADD SWAP1 POP SWAP2 SWAP1 POP JUMP JUMPDEST PUSH0 PUSH1 0x20 DUP3 ADD SWAP1 POP DUP2 DUP2 SUB PUSH0 DUP4 ADD MSTORE PUSH2 0x19A4 DUP2 PUSH2 0x196B JUMP JUMPDEST SWAP1 POP SWAP2 SWAP1 POP JUMP JUMPDEST PUSH32 0x4E487B7100000000000000000000000000000000000000000000000000000000 PUSH0 MSTORE PUSH1 0x11 PUSH1 0x4 MSTORE PUSH1 0x24 PUSH0 REVERT JUMPDEST PUSH0 PUSH2 0x19E2 DUP3 PUSH2 0x13DA JUMP JUMPDEST SWAP2 POP PUSH2 0x19ED DUP4 PUSH2 0x13DA JUMP JUMPDEST SWAP3 POP DUP3 DUP3 MUL PUSH2 0x19FB DUP2 PUSH2 0x13DA JUMP JUMPDEST SWAP2 POP DUP1 DUP3 EQ PUSH2 0x1A0D JUMPI PUSH2 0x1A0C PUSH2 0x19AB JUMP JUMPDEST JUMPDEST POP SWAP3 SWAP2 POP POP JUMP JUMPDEST PUSH32 0x4E487B7100000000000000000000000000000000000000000000000000000000 PUSH0 MSTORE PUSH1 0x41 PUSH1 0x4 MSTORE PUSH1 0x24 PUSH0 REVERT JUMPDEST PUSH32 0x4E487B7100000000000000000000000000000000000000000000000000000000 PUSH0 MSTORE PUSH1 0x22 PUSH1 0x4 MSTORE PUSH1 0x24 PUSH0 REVERT JUMPDEST PUSH0 PUSH1 0x2 DUP3 DIV SWAP1 POP PUSH1 0x1 DUP3 AND DUP1 PUSH2 0x1A85 JUMPI PUSH1 0x7F DUP3 AND SWAP2 POP JUMPDEST PUSH1 0x20 DUP3 LT DUP2 SUB PUSH2 0x1A98 JUMPI PUSH2 0x1A97 PUSH2 0x1A41 JUMP JUMPDEST JUMPDEST POP SWAP2 SWAP1 POP JUMP JUMPDEST PUSH0 DUP2 SWAP1 POP DUP2 PUSH0 MSTORE PUSH1 0x20 PUSH0 KECCAK256 SWAP1 POP SWAP2 SWAP1 POP JUMP JUMPDEST PUSH0 PUSH1 0x20 PUSH1 0x1F DUP4 ADD DIV SWAP1 POP SWAP2 SWAP1 POP JUMP JUMPDEST PUSH0 DUP3 DUP3 SHL SWAP1 POP SWAP3 SWAP2 POP POP JUMP JUMPDEST PUSH0 PUSH1 0x8 DUP4 MUL PUSH2 0x1AFA PUSH32 0xFFFFFFFFFFFFFFFFFFFFFFFFFFFFFFFFFFFFFFFFFFFFFFFFFFFFFFFFFFFFFFFF DUP3 PUSH2 0x1ABF JUMP JUMPDEST PUSH2 0x1B04 DUP7 DUP4 PUSH2 0x1ABF JUMP JUMPDEST SWAP6 POP DUP1 NOT DUP5 AND SWAP4 POP DUP1 DUP7 AND DUP5 OR SWAP3 POP POP POP SWAP4 SWAP3 POP POP POP JUMP JUMPDEST PUSH0 DUP2 SWAP1 POP SWAP2 SWAP1 POP JUMP JUMPDEST PUSH0 PUSH2 0x1B3F PUSH2 0x1B3A PUSH2 0x1B35 DUP5 PUSH2 0x1346 JUMP JUMPDEST PUSH2 0x1B1C JUMP JUMPDEST PUSH2 0x1346 JUMP JUMPDEST SWAP1 POP SWAP2 SWAP1 POP JUMP JUMPDEST PUSH0 DUP2 SWAP1 POP SWAP2 SWAP1 POP JUMP JUMPDEST PUSH2 0x1B58 DUP4 PUSH2 0x1B25 JUMP JUMPDEST PUSH2 0x1B6C PUSH2 0x1B64 DUP3 PUSH2 0x1B46 JUMP JUMPDEST DUP5 DUP5 SLOAD PUSH2 0x1ACB JUMP JUMPDEST DUP3 SSTORE POP POP POP POP JUMP JUMPDEST PUSH0 SWAP1 JUMP JUMPDEST PUSH2 0x1B80 PUSH2 0x1B74 JUMP JUMPDEST PUSH2 0x1B8B DUP2 DUP5 DUP5 PUSH2 0x1B4F JUMP JUMPDEST POP POP POP JUMP JUMPDEST JUMPDEST DUP2 DUP2 LT ISZERO PUSH2 0x1BAE JUMPI PUSH2 0x1BA3 PUSH0 DUP3 PUSH2 0x1B78 JUMP JUMPDEST PUSH1 0x1 DUP2 ADD SWAP1 POP PUSH2 0x1B91 JUMP JUMPDEST POP POP JUMP JUMPDEST PUSH1 0x1F DUP3 GT ISZERO PUSH2 0x1BF3 JUMPI PUSH2 0x1BC4 DUP2 PUSH2 0x1A9E JUMP JUMPDEST PUSH2 0x1BCD DUP5 PUSH2 0x1AB0 JUMP JUMPDEST DUP2 ADD PUSH1 0x20 DUP6 LT ISZERO PUSH2 0x1BDC JUMPI DUP2 SWAP1 POP JUMPDEST PUSH2 0x1BF0 PUSH2 0x1BE8 DUP6 PUSH2 0x1AB0 JUMP JUMPDEST DUP4 ADD DUP3 PUSH2 0x1B90 JUMP JUMPDEST POP POP JUMPDEST POP POP POP JUMP JUMPDEST PUSH0 DUP3 DUP3 SHR SWAP1 POP SWAP3 SWAP2 POP POP JUMP JUMPDEST PUSH0 PUSH2 0x1C13 PUSH0 NOT DUP5 PUSH1 0x8 MUL PUSH2 0x1BF8 JUMP JUMPDEST NOT DUP1 DUP4 AND SWAP2 POP POP SWAP3 SWAP2 POP POP JUMP JUMPDEST PUSH0 PUSH2 0x1C2B DUP4 DUP4 PUSH2 0x1C04 JUMP JUMPDEST SWAP2 POP DUP3 PUSH1 0x2 MUL DUP3 OR SWAP1 POP SWAP3 SWAP2 POP POP JUMP JUMPDEST PUSH2 0x1C44 DUP3 PUSH2 0x14FB JUMP JUMPDEST PUSH8 0xFFFFFFFFFFFFFFFF DUP2 GT ISZERO PUSH2 0x1C5D JUMPI PUSH2 0x1C5C PUSH2 0x1A14 JUMP JUMPDEST JUMPDEST PUSH2 0x1C67 DUP3 SLOAD PUSH2 0x1A6E JUMP JUMPDEST PUSH2 0x1C72 DUP3 DUP3 DUP6 PUSH2 0x1BB2 JUMP JUMPDEST PUSH0 PUSH1 0x20 SWAP1 POP PUSH1 0x1F DUP4 GT PUSH1 0x1 DUP2 EQ PUSH2 0x1CA3 JUMPI PUSH0 DUP5 ISZERO PUSH2 0x1C91 JUMPI DUP3 DUP8 ADD MLOAD SWAP1 POP JUMPDEST PUSH2 0x1C9B DUP6 DUP3 PUSH2 0x1C20 JUMP JUMPDEST DUP7 SSTORE POP PUSH2 0x1D02 JUMP JUMPDEST PUSH1 0x1F NOT DUP5 AND PUSH2 0x1CB1 DUP7 PUSH2 0x1A9E JUMP JUMPDEST PUSH0 JUMPDEST DUP3 DUP2 LT ISZERO PUSH2 0x1CD8 JUMPI DUP5 DUP10 ADD MLOAD DUP3 SSTORE PUSH1 0x1 DUP3 ADD SWAP2 POP PUSH1 0x20 DUP6 ADD SWAP5 POP PUSH1 0x20 DUP2 ADD SWAP1 POP PUSH2 0x1CB3 JUMP JUMPDEST DUP7 DUP4 LT ISZERO PUSH2 0x1CF5 JUMPI DUP5 DUP10 ADD MLOAD PUSH2 0x1CF1 PUSH1 0x1F DUP10 AND DUP3 PUSH2 0x1C04 JUMP JUMPDEST DUP4 SSTORE POP JUMPDEST PUSH1 0x1 PUSH1 0x2 DUP9 MUL ADD DUP9 SSTORE POP POP POP JUMPDEST POP POP POP POP POP POP JUMP JUMPDEST DUP3 DUP2 DUP4 CALLDATACOPY PUSH0 DUP4 DUP4 ADD MSTORE POP POP POP JUMP JUMPDEST PUSH0 PUSH2 0x1D23 DUP4 DUP6 PUSH2 0x1670 JUMP JUMPDEST SWAP4 POP PUSH2 0x1D30 DUP4 DUP6 DUP5 PUSH2 0x1D0A JUMP JUMPDEST PUSH2 0x1D39 DUP4 PUSH2 0x1523 JUMP JUMPDEST DUP5 ADD SWAP1 POP SWAP4 SWAP3 POP POP POP JUMP JUMPDEST PUSH0 PUSH1 0x80 DUP3 ADD SWAP1 POP DUP2 DUP2 SUB PUSH0 DUP4 ADD MSTORE PUSH2 0x1D5D DUP2 DUP9 DUP11 PUSH2 0x1D18 JUMP JUMPDEST SWAP1 POP DUP2 DUP2 SUB PUSH1 0x20 DUP4 ADD MSTORE PUSH2 0x1D72 DUP2 DUP7 DUP9 PUSH2 0x1D18 JUMP JUMPDEST SWAP1 POP PUSH2 0x1D81 PUSH1 0x40 DUP4 ADD DUP6 PUSH2 0x16B8 JUMP JUMPDEST PUSH2 0x1D8E PUSH1 0x60 DUP4 ADD DUP5 PUSH2 0x16B8 JUMP JUMPDEST SWAP8 SWAP7 POP POP POP POP POP POP POP JUMP JUMPDEST PUSH32 0x4E487B7100000000000000000000000000000000000000000000000000000000 PUSH0 MSTORE PUSH1 0x32 PUSH1 0x4 MSTORE PUSH1 0x24 PUSH0 REVERT JUMPDEST PUSH32 0x426F6F6B206E6F74206578697374000000000000000000000000000000000000 PUSH0 DUP3 ADD MSTORE POP JUMP JUMPDEST PUSH0 PUSH2 0x1DFA PUSH1 0xE DUP4 PUSH2 0x1670 JUMP JUMPDEST SWAP2 POP PUSH2 0x1E05 DUP3 PUSH2 0x1DC6 JUMP JUMPDEST PUSH1 0x20 DUP3 ADD SWAP1 POP SWAP2 SWAP1 POP JUMP JUMPDEST PUSH0 PUSH1 0x20 DUP3 ADD SWAP1 POP DUP2 DUP2 SUB PUSH0 DUP4 ADD MSTORE PUSH2 0x1E27 DUP2 PUSH2 0x1DEE JUMP JUMPDEST SWAP1 POP SWAP2 SWAP1 POP JUMP JUMPDEST PUSH0 PUSH2 0x1E38 DUP3 PUSH2 0x1346 JUMP JUMPDEST SWAP2 POP PUSH2 0x1E43 DUP4 PUSH2 0x1346 JUMP JUMPDEST SWAP3 POP DUP3 DUP3 SUB SWAP1 POP DUP2 DUP2 GT ISZERO PUSH2 0x1E5B JUMPI PUSH2 0x1E5A PUSH2 0x19AB JUMP JUMPDEST JUMPDEST SWAP3 SWAP2 POP POP JUMP JUMPDEST PUSH32 0x4E487B7100000000000000000000000000000000000000000000000000000000 PUSH0 MSTORE PUSH1 0x31 PUSH1 0x4 MSTORE PUSH1 0x24 PUSH0 REVERT JUMPDEST PUSH32 0x4E6F7420617661696C61626C6500000000000000000000000000000000000000 PUSH0 DUP3 ADD MSTORE POP JUMP JUMPDEST PUSH0 PUSH2 0x1EC2 PUSH1 0xD DUP4 PUSH2 0x1670 JUMP JUMPDEST SWAP2 POP PUSH2 0x1ECD DUP3 PUSH2 0x1E8E JUMP JUMPDEST PUSH1 0x20 DUP3 ADD SWAP1 POP SWAP2 SWAP1 POP JUMP JUMPDEST PUSH0 PUSH1 0x20 DUP3 ADD SWAP1 POP DUP2 DUP2 SUB PUSH0 DUP4 ADD MSTORE PUSH2 0x1EEF DUP2 PUSH2 0x1EB6 JUMP JUMPDEST SWAP1 POP SWAP2 SWAP1 POP JUMP JUMPDEST PUSH32 0x4E6F7420656E6F7567682073746F636B00000000000000000000000000000000 PUSH0 DUP3 ADD MSTORE POP JUMP JUMPDEST PUSH0 PUSH2 0x1F2A PUSH1 0x10 DUP4 PUSH2 0x1670 JUMP JUMPDEST SWAP2 POP PUSH2 0x1F35 DUP3 PUSH2 0x1EF6 JUMP JUMPDEST PUSH1 0x20 DUP3 ADD SWAP1 POP SWAP2 SWAP1 POP JUMP JUMPDEST PUSH0 PUSH1 0x20 DUP3 ADD SWAP1 POP DUP2 DUP2 SUB PUSH0 DUP4 ADD MSTORE PUSH2 0x1F57 DUP2 PUSH2 0x1F1E JUMP JUMPDEST SWAP1 POP SWAP2 SWAP1 POP JUMP JUMPDEST PUSH32 0x57726F6E67207061796D656E7400000000000000000000000000000000000000 PUSH0 DUP3 ADD MSTORE POP JUMP JUMPDEST PUSH0 PUSH2 0x1F92 PUSH1 0xD DUP4 PUSH2 0x1670 JUMP JUMPDEST SWAP2 POP PUSH2 0x1F9D DUP3 PUSH2 0x1F5E JUMP JUMPDEST PUSH1 0x20 DUP3 ADD SWAP1 POP SWAP2 SWAP1 POP JUMP JUMPDEST PUSH0 PUSH1 0x20 DUP3 ADD SWAP1 POP DUP2 DUP2 SUB PUSH0 DUP4 ADD MSTORE PUSH2 0x1FBF DUP2 PUSH2 0x1F86 JUMP JUMPDEST SWAP1 POP SWAP2 SWAP1 POP JUMP JUMPDEST PUSH0 DUP3 DUP3 MSTORE PUSH1 0x20 DUP3 ADD SWAP1 POP SWAP3 SWAP2 POP POP JUMP JUMPDEST PUSH0 DUP1 REVERT JUMPDEST DUP3 DUP2 DUP4 CALLDATACOPY POP POP POP JUMP JUMPDEST PUSH0 PUSH2 0x1FEE DUP4 DUP6 PUSH2 0x1FC6 JUMP JUMPDEST SWAP4 POP PUSH32 0x7FFFFFFFFFFFFFFFFFFFFFFFFFFFFFFFFFFFFFFFFFFFFFFFFFFFFFFFFFFFFFF DUP4 GT ISZERO PUSH2 0x2021 JUMPI PUSH2 0x2020 PUSH2 0x1FD6 JUMP JUMPDEST JUMPDEST PUSH1 0x20 DUP4 MUL SWAP3 POP PUSH2 0x2032 DUP4 DUP6 DUP5 PUSH2 0x1FDA JUMP JUMPDEST DUP3 DUP5 ADD SWAP1 POP SWAP4 SWAP3 POP POP POP JUMP JUMPDEST PUSH0 PUSH1 0x20 DUP3 ADD SWAP1 POP DUP2 DUP2 SUB PUSH0 DUP4 ADD MSTORE PUSH2 0x2057 DUP2 DUP5 DUP7 PUSH2 0x1FE3 JUMP JUMPDEST SWAP1 POP SWAP4 SWAP3 POP POP POP JUMP INVALID LOG2 PUSH5 0x6970667358 0x22 SLT KECCAK256 PUSH6 0xDDDAD024EF21 LOG2 PUSH9 0x985B0DB881712A0B3 PUSH14 0xD370B663AE33965934FE78FC4364 PUSH20 0x6F6C634300081A00330000000000000000000000 "
				},
				"gasEstimates": {
					"creation": {
						"codeDepositCost": "1668400",
						"executionCost": "infinite",
						"totalCost": "infinite"
					},
					"external": {
						"addBook(uint256,string,string,uint96,uint96)": "infinite",
						"books(uint256)": "infinite",
						"buyBook(uint256,uint96)": "infinite",
						"getAllBooks()": "infinite",
						"getBooks(uint256)": "infinite",
						"getOwnerBalance()": "5152",
						"getTotalBooksSold()": "2546",
						"owner()": "2515",
						"removeBook(uint256)": "infinite",
						"removeBooks(uint256[])": "infinite",
						"renounceOwnership()": "infinite",
						"transferOwnership(address)": "infinite"
					}
				},
				"methodIdentifiers": {
					"addBook(uint256,string,string,uint96,uint96)": "21e6de9d",
					"books(uint256)": "68744046",
					"buyBook(uint256,uint96)": "f46de7d4",
					"getAllBooks()": "354528e8",
					"getBooks(uint256)": "5ac3e19e",
					"getOwnerBalance()": "590791f2",
					"getTotalBooksSold()": "9bd30883",
					"owner()": "8da5cb5b",
					"removeBook(uint256)": "bec0d799",
					"removeBooks(uint256[])": "f98520de",
					"renounceOwnership()": "715018a6",
					"transferOwnership(address)": "f2fde38b"
				}
			},
			"storageLayout": {
				"storage": [
					{
						"astId": 8,
						"contract": "contracts/BookStore.sol:BookStore",
						"label": "_owner",
						"offset": 0,
						"slot": "0",
						"type": "t_address"
					},
					{
						"astId": 257,
						"contract": "contracts/BookStore.sol:BookStore",
						"label": "totalBooksSold",
						"offset": 20,
						"slot": "0",
						"type": "t_uint96"
					},
					{
						"astId": 262,
						"contract": "contracts/BookStore.sol:BookStore",
						"label": "books",
						"offset": 0,
						"slot": "1",
						"type": "t_mapping(t_uint256,t_struct(Book)255_storage)"
					},
					{
						"astId": 265,
						"contract": "contracts/BookStore.sol:BookStore",
						"label": "bookIds",
						"offset": 0,
						"slot": "2",
						"type": "t_array(t_uint256)dyn_storage"
					}
				],
				"types": {
					"t_address": {
						"encoding": "inplace",
						"label": "address",
						"numberOfBytes": "20"
					},
					"t_array(t_uint256)dyn_storage": {
						"base": "t_uint256",
						"encoding": "dynamic_array",
						"label": "uint256[]",
						"numberOfBytes": "32"
					},
					"t_bool": {
						"encoding": "inplace",
						"label": "bool",
						"numberOfBytes": "1"
					},
					"t_mapping(t_uint256,t_struct(Book)255_storage)": {
						"encoding": "mapping",
						"key": "t_uint256",
						"label": "mapping(uint256 => struct BookStore.Book)",
						"numberOfBytes": "32",
						"value": "t_struct(Book)255_storage"
					},
					"t_string_storage": {
						"encoding": "bytes",
						"label": "string",
						"numberOfBytes": "32"
					},
					"t_struct(Book)255_storage": {
						"encoding": "inplace",
						"label": "struct BookStore.Book",
						"members": [
							{
								"astId": 246,
								"contract": "contracts/BookStore.sol:BookStore",
								"label": "stock",
								"offset": 0,
								"slot": "0",
								"type": "t_uint96"
							},
							{
								"astId": 248,
								"contract": "contracts/BookStore.sol:BookStore",
								"label": "price",
								"offset": 12,
								"slot": "0",
								"type": "t_uint96"
							},
							{
								"astId": 250,
								"contract": "contracts/BookStore.sol:BookStore",
								"label": "isAvailable",
								"offset": 24,
								"slot": "0",
								"type": "t_bool"
							},
							{
								"astId": 252,
								"contract": "contracts/BookStore.sol:BookStore",
								"label": "title",
								"offset": 0,
								"slot": "1",
								"type": "t_string_storage"
							},
							{
								"astId": 254,
								"contract": "contracts/BookStore.sol:BookStore",
								"label": "author",
								"offset": 0,
								"slot": "2",
								"type": "t_string_storage"
							}
						],
						"numberOfBytes": "96"
					},
					"t_uint256": {
						"encoding": "inplace",
						"label": "uint256",
						"numberOfBytes": "32"
					},
					"t_uint96": {
						"encoding": "inplace",
						"label": "uint96",
						"numberOfBytes": "12"
					}
				}
			},
			"userdoc": {
				"kind": "user",
				"methods": {},
				"version": 1
			}
		}
	}
}