{
	"contracts/AdvancedBookstore.sol": {
		"AdvancedBookstore": {
			"abi": [
				{
					"inputs": [
						{
							"internalType": "address",
							"name": "_owner",
							"type": "address"
						}
					],
					"stateMutability": "nonpayable",
					"type": "constructor"
				},
				{
					"anonymous": false,
					"inputs": [
						{
							"indexed": true,
							"internalType": "uint256",
							"name": "bookId",
							"type": "uint256"
						},
						{
							"indexed": false,
							"internalType": "string",
							"name": "title",
							"type": "string"
						},
						{
							"indexed": false,
							"internalType": "string",
							"name": "author",
							"type": "string"
						},
						{
							"indexed": false,
							"internalType": "uint256",
							"name": "price",
							"type": "uint256"
						},
						{
							"indexed": false,
							"internalType": "uint256",
							"name": "stock",
							"type": "uint256"
						}
					],
					"name": "BookAdded",
					"type": "event"
				},
				{
					"anonymous": false,
					"inputs": [
						{
							"indexed": false,
							"internalType": "uint256[]",
							"name": "bookIds",
							"type": "uint256[]"
						}
					],
					"name": "BookBatchRemoved",
					"type": "event"
				},
				{
					"anonymous": false,
					"inputs": [
						{
							"indexed": true,
							"internalType": "uint256",
							"name": "bookId",
							"type": "uint256"
						}
					],
					"name": "BookMarkedAsBestSeller",
					"type": "event"
				},
				{
					"anonymous": false,
					"inputs": [
						{
							"indexed": false,
							"internalType": "uint256",
							"name": "bookId",
							"type": "uint256"
						},
						{
							"indexed": true,
							"internalType": "address",
							"name": "buyer",
							"type": "address"
						},
						{
							"indexed": false,
							"internalType": "uint256",
							"name": "quantity",
							"type": "uint256"
						}
					],
					"name": "BookPurchased",
					"type": "event"
				},
				{
					"anonymous": false,
					"inputs": [
						{
							"indexed": true,
							"internalType": "uint256",
							"name": "bookId",
							"type": "uint256"
						}
					],
					"name": "BookRemoved",
					"type": "event"
				},
				{
					"inputs": [
						{
							"internalType": "uint256",
							"name": "_bookId",
							"type": "uint256"
						},
						{
							"internalType": "string",
							"name": "_title",
							"type": "string"
						},
						{
							"internalType": "string",
							"name": "_author",
							"type": "string"
						},
						{
							"internalType": "uint256",
							"name": "_stock",
							"type": "uint256"
						},
						{
							"internalType": "uint16",
							"name": "_price",
							"type": "uint16"
						}
					],
					"name": "addBook",
					"outputs": [],
					"stateMutability": "nonpayable",
					"type": "function"
				},
				{
					"inputs": [
						{
							"internalType": "uint256",
							"name": "",
							"type": "uint256"
						}
					],
					"name": "bestseller",
					"outputs": [
						{
							"internalType": "bool",
							"name": "",
							"type": "bool"
						}
					],
					"stateMutability": "view",
					"type": "function"
				},
				{
					"inputs": [
						{
							"internalType": "uint256",
							"name": "",
							"type": "uint256"
						}
					],
					"name": "bookIds",
					"outputs": [
						{
							"internalType": "uint256",
							"name": "",
							"type": "uint256"
						}
					],
					"stateMutability": "view",
					"type": "function"
				},
				{
					"inputs": [
						{
							"internalType": "uint256",
							"name": "",
							"type": "uint256"
						}
					],
					"name": "books",
					"outputs": [
						{
							"internalType": "string",
							"name": "title",
							"type": "string"
						},
						{
							"internalType": "string",
							"name": "author",
							"type": "string"
						},
						{
							"internalType": "uint16",
							"name": "price",
							"type": "uint16"
						},
						{
							"internalType": "uint256",
							"name": "stock",
							"type": "uint256"
						},
						{
							"internalType": "bool",
							"name": "isAvailable",
							"type": "bool"
						}
					],
					"stateMutability": "view",
					"type": "function"
				},
				{
					"inputs": [
						{
							"internalType": "uint256",
							"name": "_bookId",
							"type": "uint256"
						},
						{
							"internalType": "uint256",
							"name": "_quantity",
							"type": "uint256"
						},
						{
							"internalType": "uint256",
							"name": "_amount",
							"type": "uint256"
						}
					],
					"name": "buyBook",
					"outputs": [],
					"stateMutability": "payable",
					"type": "function"
				},
				{
					"inputs": [],
					"name": "getAllBooks",
					"outputs": [
						{
							"internalType": "uint256[]",
							"name": "",
							"type": "uint256[]"
						}
					],
					"stateMutability": "view",
					"type": "function"
				},
				{
					"inputs": [
						{
							"internalType": "uint256",
							"name": "_bookId",
							"type": "uint256"
						}
					],
					"name": "getBooks",
					"outputs": [
						{
							"internalType": "string",
							"name": "",
							"type": "string"
						},
						{
							"internalType": "string",
							"name": "",
							"type": "string"
						},
						{
							"internalType": "uint256",
							"name": "",
							"type": "uint256"
						},
						{
							"internalType": "uint256",
							"name": "",
							"type": "uint256"
						},
						{
							"internalType": "bool",
							"name": "",
							"type": "bool"
						}
					],
					"stateMutability": "view",
					"type": "function"
				},
				{
					"inputs": [],
					"name": "getOwnerBalance",
					"outputs": [
						{
							"internalType": "uint256",
							"name": "",
							"type": "uint256"
						}
					],
					"stateMutability": "view",
					"type": "function"
				},
				{
					"inputs": [],
					"name": "getTotalBooksSold",
					"outputs": [
						{
							"internalType": "uint256",
							"name": "",
							"type": "uint256"
						}
					],
					"stateMutability": "view",
					"type": "function"
				},
				{
					"inputs": [
						{
							"internalType": "uint256",
							"name": "bookId",
							"type": "uint256"
						}
					],
					"name": "isBestSeller",
					"outputs": [
						{
							"internalType": "bool",
							"name": "",
							"type": "bool"
						}
					],
					"stateMutability": "view",
					"type": "function"
				},
				{
					"inputs": [
						{
							"internalType": "uint256",
							"name": "bookId",
							"type": "uint256"
						}
					],
					"name": "markBookAsBestSeller",
					"outputs": [],
					"stateMutability": "nonpayable",
					"type": "function"
				},
				{
					"inputs": [],
					"name": "owner",
					"outputs": [
						{
							"internalType": "address",
							"name": "",
							"type": "address"
						}
					],
					"stateMutability": "view",
					"type": "function"
				},
				{
					"inputs": [
						{
							"internalType": "uint256",
							"name": "_bookId",
							"type": "uint256"
						}
					],
					"name": "removeBook",
					"outputs": [],
					"stateMutability": "nonpayable",
					"type": "function"
				},
				{
					"inputs": [
						{
							"internalType": "uint256[]",
							"name": "_bookIds",
							"type": "uint256[]"
						}
					],
					"name": "removeBooks",
					"outputs": [],
					"stateMutability": "nonpayable",
					"type": "function"
				}
			],
			"devdoc": {
				"kind": "dev",
				"methods": {},
				"version": 1
			},
			"evm": {
				"assembly": "    /* \"contracts/AdvancedBookstore.sol\":96:656  contract AdvancedBookstore is BookStore  {... */\n  mstore(0x40, 0x80)\n    /* \"contracts/AdvancedBookstore.sol\":257:300  constructor (address _owner) BookStore() {} */\n  callvalue\n  dup1\n  iszero\n  tag_1\n  jumpi\n  0x00\n  dup1\n  revert\ntag_1:\n  pop\n  mload(0x40)\n  sub(codesize, bytecodeSize)\n  dup1\n  bytecodeSize\n  dup4\n  codecopy\n  dup2\n  dup2\n  add\n  0x40\n  mstore\n  dup2\n  add\n  swap1\n  tag_2\n  swap2\n  swap1\n  tag_3\n  jump\t// in\ntag_2:\n    /* \"contracts/Bookstore.sol\":192:202  msg.sender */\n  caller\n    /* \"contracts/Bookstore.sol\":184:189  owner */\n  0x00\n  dup1\n    /* \"contracts/Bookstore.sol\":184:202  owner = msg.sender */\n  0x0100\n  exp\n  dup2\n  sload\n  dup2\n  0xffffffffffffffffffffffffffffffffffffffff\n  mul\n  not\n  and\n  swap1\n  dup4\n  0xffffffffffffffffffffffffffffffffffffffff\n  and\n  mul\n  or\n  swap1\n  sstore\n  pop\n    /* \"contracts/AdvancedBookstore.sol\":257:300  constructor (address _owner) BookStore() {} */\n  pop\n    /* \"contracts/AdvancedBookstore.sol\":96:656  contract AdvancedBookstore is BookStore  {... */\n  jump(tag_8)\n    /* \"#utility.yul\":88:205   */\ntag_10:\n    /* \"#utility.yul\":197:198   */\n  0x00\n    /* \"#utility.yul\":194:195   */\n  dup1\n    /* \"#utility.yul\":187:199   */\n  revert\n    /* \"#utility.yul\":334:460   */\ntag_12:\n    /* \"#utility.yul\":371:378   */\n  0x00\n    /* \"#utility.yul\":411:453   */\n  0xffffffffffffffffffffffffffffffffffffffff\n    /* \"#utility.yul\":404:409   */\n  dup3\n    /* \"#utility.yul\":400:454   */\n  and\n    /* \"#utility.yul\":389:454   */\n  swap1\n  pop\n    /* \"#utility.yul\":334:460   */\n  swap2\n  swap1\n  pop\n  jump\t// out\n    /* \"#utility.yul\":466:562   */\ntag_13:\n    /* \"#utility.yul\":503:510   */\n  0x00\n    /* \"#utility.yul\":532:556   */\n  tag_22\n    /* \"#utility.yul\":550:555   */\n  dup3\n    /* \"#utility.yul\":532:556   */\n  tag_12\n  jump\t// in\ntag_22:\n    /* \"#utility.yul\":521:556   */\n  swap1\n  pop\n    /* \"#utility.yul\":466:562   */\n  swap2\n  swap1\n  pop\n  jump\t// out\n    /* \"#utility.yul\":568:690   */\ntag_14:\n    /* \"#utility.yul\":641:665   */\n  tag_24\n    /* \"#utility.yul\":659:664   */\n  dup2\n    /* \"#utility.yul\":641:665   */\n  tag_13\n  jump\t// in\ntag_24:\n    /* \"#utility.yul\":634:639   */\n  dup2\n    /* \"#utility.yul\":631:666   */\n  eq\n    /* \"#utility.yul\":621:684   */\n  tag_25\n  jumpi\n    /* \"#utility.yul\":680:681   */\n  0x00\n    /* \"#utility.yul\":677:678   */\n  dup1\n    /* \"#utility.yul\":670:682   */\n  revert\n    /* \"#utility.yul\":621:684   */\ntag_25:\n    /* \"#utility.yul\":568:690   */\n  pop\n  jump\t// out\n    /* \"#utility.yul\":696:839   */\ntag_15:\n    /* \"#utility.yul\":753:758   */\n  0x00\n    /* \"#utility.yul\":784:790   */\n  dup2\n    /* \"#utility.yul\":778:791   */\n  mload\n    /* \"#utility.yul\":769:791   */\n  swap1\n  pop\n    /* \"#utility.yul\":800:833   */\n  tag_27\n    /* \"#utility.yul\":827:832   */\n  dup2\n    /* \"#utility.yul\":800:833   */\n  tag_14\n  jump\t// in\ntag_27:\n    /* \"#utility.yul\":696:839   */\n  swap3\n  swap2\n  pop\n  pop\n  jump\t// out\n    /* \"#utility.yul\":845:1196   */\ntag_3:\n    /* \"#utility.yul\":915:921   */\n  0x00\n    /* \"#utility.yul\":964:966   */\n  0x20\n    /* \"#utility.yul\":952:961   */\n  dup3\n    /* \"#utility.yul\":943:950   */\n  dup5\n    /* \"#utility.yul\":939:962   */\n  sub\n    /* \"#utility.yul\":935:967   */\n  slt\n    /* \"#utility.yul\":932:1051   */\n  iszero\n  tag_29\n  jumpi\n    /* \"#utility.yul\":970:1049   */\n  tag_30\n  tag_10\n  jump\t// in\ntag_30:\n    /* \"#utility.yul\":932:1051   */\ntag_29:\n    /* \"#utility.yul\":1090:1091   */\n  0x00\n    /* \"#utility.yul\":1115:1179   */\n  tag_31\n    /* \"#utility.yul\":1171:1178   */\n  dup5\n    /* \"#utility.yul\":1162:1168   */\n  dup3\n    /* \"#utility.yul\":1151:1160   */\n  dup6\n    /* \"#utility.yul\":1147:1169   */\n  add\n    /* \"#utility.yul\":1115:1179   */\n  tag_15\n  jump\t// in\ntag_31:\n    /* \"#utility.yul\":1105:1179   */\n  swap2\n  pop\n    /* \"#utility.yul\":1061:1189   */\n  pop\n    /* \"#utility.yul\":845:1196   */\n  swap3\n  swap2\n  pop\n  pop\n  jump\t// out\n    /* \"contracts/AdvancedBookstore.sol\":96:656  contract AdvancedBookstore is BookStore  {... */\ntag_8:\n  dataSize(sub_0)\n  dup1\n  dataOffset(sub_0)\n  0x00\n  codecopy\n  0x00\n  return\nstop\n\nsub_0: assembly {\n        /* \"contracts/AdvancedBookstore.sol\":96:656  contract AdvancedBookstore is BookStore  {... */\n      mstore(0x40, 0x80)\n      jumpi(tag_1, lt(calldatasize, 0x04))\n      shr(0xe0, calldataload(0x00))\n      dup1\n      0x8da5cb5b\n      gt\n      tag_16\n      jumpi\n      dup1\n      0xd0289085\n      gt\n      tag_17\n      jumpi\n      dup1\n      0xd0289085\n      eq\n      tag_12\n      jumpi\n      dup1\n      0xf346e2b7\n      eq\n      tag_13\n      jumpi\n      dup1\n      0xf60560de\n      eq\n      tag_14\n      jumpi\n      dup1\n      0xf98520de\n      eq\n      tag_15\n      jumpi\n      jump(tag_1)\n    tag_17:\n      dup1\n      0x8da5cb5b\n      eq\n      tag_9\n      jumpi\n      dup1\n      0x9bd30883\n      eq\n      tag_10\n      jumpi\n      dup1\n      0xbec0d799\n      eq\n      tag_11\n      jumpi\n      jump(tag_1)\n    tag_16:\n      dup1\n      0x513073b8\n      gt\n      tag_18\n      jumpi\n      dup1\n      0x513073b8\n      eq\n      tag_5\n      jumpi\n      dup1\n      0x590791f2\n      eq\n      tag_6\n      jumpi\n      dup1\n      0x5ac3e19e\n      eq\n      tag_7\n      jumpi\n      dup1\n      0x68744046\n      eq\n      tag_8\n      jumpi\n      jump(tag_1)\n    tag_18:\n      dup1\n      0x1f9b7ad8\n      eq\n      tag_2\n      jumpi\n      dup1\n      0x354528e8\n      eq\n      tag_3\n      jumpi\n      dup1\n      0x3bf561ed\n      eq\n      tag_4\n      jumpi\n    tag_1:\n      0x00\n      dup1\n      revert\n        /* \"contracts/AdvancedBookstore.sol\":144:187  mapping (uint256 => bool) public bestseller */\n    tag_2:\n      callvalue\n      dup1\n      iszero\n      tag_19\n      jumpi\n      0x00\n      dup1\n      revert\n    tag_19:\n      pop\n      tag_20\n      0x04\n      dup1\n      calldatasize\n      sub\n      dup2\n      add\n      swap1\n      tag_21\n      swap2\n      swap1\n      tag_22\n      jump\t// in\n    tag_21:\n      tag_23\n      jump\t// in\n    tag_20:\n      mload(0x40)\n      tag_24\n      swap2\n      swap1\n      tag_25\n      jump\t// in\n    tag_24:\n      mload(0x40)\n      dup1\n      swap2\n      sub\n      swap1\n      return\n        /* \"contracts/Bookstore.sol\":1441:1536  function getAllBooks() public view returns (uint256[] memory) {... */\n    tag_3:\n      callvalue\n      dup1\n      iszero\n      tag_26\n      jumpi\n      0x00\n      dup1\n      revert\n    tag_26:\n      pop\n      tag_27\n      tag_28\n      jump\t// in\n    tag_27:\n      mload(0x40)\n      tag_29\n      swap2\n      swap1\n      tag_30\n      jump\t// in\n    tag_29:\n      mload(0x40)\n      dup1\n      swap2\n      sub\n      swap1\n      return\n        /* \"contracts/AdvancedBookstore.sol\":308:533  function markBookAsBestSeller(uint256 bookId) public onlyOwner {... */\n    tag_4:\n      callvalue\n      dup1\n      iszero\n      tag_31\n      jumpi\n      0x00\n      dup1\n      revert\n    tag_31:\n      pop\n      tag_32\n      0x04\n      dup1\n      calldatasize\n      sub\n      dup2\n      add\n      swap1\n      tag_33\n      swap2\n      swap1\n      tag_22\n      jump\t// in\n    tag_33:\n      tag_34\n      jump\t// in\n    tag_32:\n      stop\n        /* \"contracts/Bookstore.sol\":451:475  uint256[] public bookIds */\n    tag_5:\n      callvalue\n      dup1\n      iszero\n      tag_35\n      jumpi\n      0x00\n      dup1\n      revert\n    tag_35:\n      pop\n      tag_36\n      0x04\n      dup1\n      calldatasize\n      sub\n      dup2\n      add\n      swap1\n      tag_37\n      swap2\n      swap1\n      tag_22\n      jump\t// in\n    tag_37:\n      tag_38\n      jump\t// in\n    tag_36:\n      mload(0x40)\n      tag_39\n      swap2\n      swap1\n      tag_40\n      jump\t// in\n    tag_39:\n      mload(0x40)\n      dup1\n      swap2\n      sub\n      swap1\n      return\n        /* \"contracts/Bookstore.sol\":2813:2918  function getOwnerBalance() public view returns (uint256) {... */\n    tag_6:\n      callvalue\n      dup1\n      iszero\n      tag_41\n      jumpi\n      0x00\n      dup1\n      revert\n    tag_41:\n      pop\n      tag_42\n      tag_43\n      jump\t// in\n    tag_42:\n      mload(0x40)\n      tag_44\n      swap2\n      swap1\n      tag_40\n      jump\t// in\n    tag_44:\n      mload(0x40)\n      dup1\n      swap2\n      sub\n      swap1\n      return\n        /* \"contracts/Bookstore.sol\":3075:3322  function getBooks(uint256 _bookId) public view returns (string memory, string memory, uint256, uint256, bool) {... */\n    tag_7:\n      callvalue\n      dup1\n      iszero\n      tag_45\n      jumpi\n      0x00\n      dup1\n      revert\n    tag_45:\n      pop\n      tag_46\n      0x04\n      dup1\n      calldatasize\n      sub\n      dup2\n      add\n      swap1\n      tag_47\n      swap2\n      swap1\n      tag_22\n      jump\t// in\n    tag_47:\n      tag_48\n      jump\t// in\n    tag_46:\n      mload(0x40)\n      tag_49\n      swap6\n      swap5\n      swap4\n      swap3\n      swap2\n      swap1\n      tag_50\n      jump\t// in\n    tag_49:\n      mload(0x40)\n      dup1\n      swap2\n      sub\n      swap1\n      return\n        /* \"contracts/Bookstore.sol\":407:444  mapping(uint256 => Book) public books */\n    tag_8:\n      callvalue\n      dup1\n      iszero\n      tag_51\n      jumpi\n      0x00\n      dup1\n      revert\n    tag_51:\n      pop\n      tag_52\n      0x04\n      dup1\n      calldatasize\n      sub\n      dup2\n      add\n      swap1\n      tag_53\n      swap2\n      swap1\n      tag_22\n      jump\t// in\n    tag_53:\n      tag_54\n      jump\t// in\n    tag_52:\n      mload(0x40)\n      tag_55\n      swap6\n      swap5\n      swap4\n      swap3\n      swap2\n      swap1\n      tag_56\n      jump\t// in\n    tag_55:\n      mload(0x40)\n      dup1\n      swap2\n      sub\n      swap1\n      return\n        /* \"contracts/Bookstore.sol\":93:113  address public owner */\n    tag_9:\n      callvalue\n      dup1\n      iszero\n      tag_57\n      jumpi\n      0x00\n      dup1\n      revert\n    tag_57:\n      pop\n      tag_58\n      tag_59\n      jump\t// in\n    tag_58:\n      mload(0x40)\n      tag_60\n      swap2\n      swap1\n      tag_61\n      jump\t// in\n    tag_60:\n      mload(0x40)\n      dup1\n      swap2\n      sub\n      swap1\n      return\n        /* \"contracts/Bookstore.sol\":2968:3067  function getTotalBooksSold() public view returns (uint256) {... */\n    tag_10:\n      callvalue\n      dup1\n      iszero\n      tag_62\n      jumpi\n      0x00\n      dup1\n      revert\n    tag_62:\n      pop\n      tag_63\n      tag_64\n      jump\t// in\n    tag_63:\n      mload(0x40)\n      tag_65\n      swap2\n      swap1\n      tag_40\n      jump\t// in\n    tag_65:\n      mload(0x40)\n      dup1\n      swap2\n      sub\n      swap1\n      return\n        /* \"contracts/Bookstore.sol\":2289:2774  function removeBook(uint256 _bookId) public onlyOwner {... */\n    tag_11:\n      callvalue\n      dup1\n      iszero\n      tag_66\n      jumpi\n      0x00\n      dup1\n      revert\n    tag_66:\n      pop\n      tag_67\n      0x04\n      dup1\n      calldatasize\n      sub\n      dup2\n      add\n      swap1\n      tag_68\n      swap2\n      swap1\n      tag_22\n      jump\t// in\n    tag_68:\n      tag_69\n      jump\t// in\n    tag_67:\n      stop\n        /* \"contracts/Bookstore.sol\":896:1399  function addBook(uint256 _bookId, string memory _title, string memory _author, uint256 _stock, uint16 _price) public {... */\n    tag_12:\n      callvalue\n      dup1\n      iszero\n      tag_70\n      jumpi\n      0x00\n      dup1\n      revert\n    tag_70:\n      pop\n      tag_71\n      0x04\n      dup1\n      calldatasize\n      sub\n      dup2\n      add\n      swap1\n      tag_72\n      swap2\n      swap1\n      tag_73\n      jump\t// in\n    tag_72:\n      tag_74\n      jump\t// in\n    tag_71:\n      stop\n        /* \"contracts/Bookstore.sol\":3330:4107  function buyBook(uint256 _bookId, uint256 _quantity, uint256 _amount) public payable {... */\n    tag_13:\n      tag_75\n      0x04\n      dup1\n      calldatasize\n      sub\n      dup2\n      add\n      swap1\n      tag_76\n      swap2\n      swap1\n      tag_77\n      jump\t// in\n    tag_76:\n      tag_78\n      jump\t// in\n    tag_75:\n      stop\n        /* \"contracts/AdvancedBookstore.sol\":541:650  function isBestSeller(uint256 bookId) public view returns (bool) {... */\n    tag_14:\n      callvalue\n      dup1\n      iszero\n      tag_79\n      jumpi\n      0x00\n      dup1\n      revert\n    tag_79:\n      pop\n      tag_80\n      0x04\n      dup1\n      calldatasize\n      sub\n      dup2\n      add\n      swap1\n      tag_81\n      swap2\n      swap1\n      tag_22\n      jump\t// in\n    tag_81:\n      tag_82\n      jump\t// in\n    tag_80:\n      mload(0x40)\n      tag_83\n      swap2\n      swap1\n      tag_25\n      jump\t// in\n    tag_83:\n      mload(0x40)\n      dup1\n      swap2\n      sub\n      swap1\n      return\n        /* \"contracts/Bookstore.sol\":1586:2240  function removeBooks(uint256[] memory _bookIds) public onlyOwner {... */\n    tag_15:\n      callvalue\n      dup1\n      iszero\n      tag_84\n      jumpi\n      0x00\n      dup1\n      revert\n    tag_84:\n      pop\n      tag_85\n      0x04\n      dup1\n      calldatasize\n      sub\n      dup2\n      add\n      swap1\n      tag_86\n      swap2\n      swap1\n      tag_87\n      jump\t// in\n    tag_86:\n      tag_88\n      jump\t// in\n    tag_85:\n      stop\n        /* \"contracts/AdvancedBookstore.sol\":144:187  mapping (uint256 => bool) public bestseller */\n    tag_23:\n      mstore(0x20, 0x04)\n      dup1\n      0x00\n      mstore\n      keccak256(0x00, 0x40)\n      0x00\n      swap2\n      pop\n      sload\n      swap1\n      0x0100\n      exp\n      swap1\n      div\n      0xff\n      and\n      dup2\n      jump\t// out\n        /* \"contracts/Bookstore.sol\":1441:1536  function getAllBooks() public view returns (uint256[] memory) {... */\n    tag_28:\n        /* \"contracts/Bookstore.sol\":1485:1501  uint256[] memory */\n      0x60\n        /* \"contracts/Bookstore.sol\":1521:1528  bookIds */\n      0x03\n        /* \"contracts/Bookstore.sol\":1514:1528  return bookIds */\n      dup1\n      sload\n      dup1\n      0x20\n      mul\n      0x20\n      add\n      mload(0x40)\n      swap1\n      dup2\n      add\n      0x40\n      mstore\n      dup1\n      swap3\n      swap2\n      swap1\n      dup2\n      dup2\n      mstore\n      0x20\n      add\n      dup3\n      dup1\n      sload\n      dup1\n      iszero\n      tag_90\n      jumpi\n      0x20\n      mul\n      dup3\n      add\n      swap2\n      swap1\n      0x00\n      mstore\n      keccak256(0x00, 0x20)\n      swap1\n    tag_91:\n      dup2\n      sload\n      dup2\n      mstore\n      0x20\n      add\n      swap1\n      0x01\n      add\n      swap1\n      dup1\n      dup4\n      gt\n      tag_91\n      jumpi\n    tag_90:\n      pop\n      pop\n      pop\n      pop\n      pop\n      swap1\n      pop\n        /* \"contracts/Bookstore.sol\":1441:1536  function getAllBooks() public view returns (uint256[] memory) {... */\n      swap1\n      jump\t// out\n        /* \"contracts/AdvancedBookstore.sol\":308:533  function markBookAsBestSeller(uint256 bookId) public onlyOwner {... */\n    tag_34:\n        /* \"contracts/Bookstore.sol\":824:829  owner */\n      0x00\n      dup1\n      sload\n      swap1\n      0x0100\n      exp\n      swap1\n      div\n      0xffffffffffffffffffffffffffffffffffffffff\n      and\n        /* \"contracts/Bookstore.sol\":810:829  msg.sender == owner */\n      0xffffffffffffffffffffffffffffffffffffffff\n      and\n        /* \"contracts/Bookstore.sol\":810:820  msg.sender */\n      caller\n        /* \"contracts/Bookstore.sol\":810:829  msg.sender == owner */\n      0xffffffffffffffffffffffffffffffffffffffff\n      and\n      eq\n        /* \"contracts/Bookstore.sol\":802:868  require(msg.sender == owner, \"Only owner can perform this action\") */\n      tag_93\n      jumpi\n      mload(0x40)\n      0x08c379a000000000000000000000000000000000000000000000000000000000\n      dup2\n      mstore\n      0x04\n      add\n      tag_94\n      swap1\n      tag_95\n      jump\t// in\n    tag_94:\n      mload(0x40)\n      dup1\n      swap2\n      sub\n      swap1\n      revert\n    tag_93:\n        /* \"contracts/AdvancedBookstore.sol\":413:414  0 */\n      0x00\n        /* \"contracts/AdvancedBookstore.sol\":390:395  books */\n      0x02\n        /* \"contracts/AdvancedBookstore.sol\":390:403  books[bookId] */\n      0x00\n        /* \"contracts/AdvancedBookstore.sol\":396:402  bookId */\n      dup4\n        /* \"contracts/AdvancedBookstore.sol\":390:403  books[bookId] */\n      dup2\n      mstore\n      0x20\n      add\n      swap1\n      dup2\n      mstore\n      0x20\n      add\n      0x00\n      keccak256\n        /* \"contracts/AdvancedBookstore.sol\":390:409  books[bookId].price */\n      0x02\n      add\n      0x00\n      swap1\n      sload\n      swap1\n      0x0100\n      exp\n      swap1\n      div\n      0xffff\n      and\n        /* \"contracts/AdvancedBookstore.sol\":390:414  books[bookId].price != 0 */\n      0xffff\n      and\n      sub\n        /* \"contracts/AdvancedBookstore.sol\":382:443  require(books[bookId].price != 0,\"This Book Does Not Exist!\") */\n      tag_97\n      jumpi\n      mload(0x40)\n      0x08c379a000000000000000000000000000000000000000000000000000000000\n      dup2\n      mstore\n      0x04\n      add\n      tag_98\n      swap1\n      tag_99\n      jump\t// in\n    tag_98:\n      mload(0x40)\n      dup1\n      swap2\n      sub\n      swap1\n      revert\n    tag_97:\n        /* \"contracts/AdvancedBookstore.sol\":475:479  true */\n      0x01\n        /* \"contracts/AdvancedBookstore.sol\":454:464  bestseller */\n      0x04\n        /* \"contracts/AdvancedBookstore.sol\":454:472  bestseller[bookId] */\n      0x00\n        /* \"contracts/AdvancedBookstore.sol\":465:471  bookId */\n      dup4\n        /* \"contracts/AdvancedBookstore.sol\":454:472  bestseller[bookId] */\n      dup2\n      mstore\n      0x20\n      add\n      swap1\n      dup2\n      mstore\n      0x20\n      add\n      0x00\n      keccak256\n      0x00\n        /* \"contracts/AdvancedBookstore.sol\":454:479  bestseller[bookId] = true */\n      0x0100\n      exp\n      dup2\n      sload\n      dup2\n      0xff\n      mul\n      not\n      and\n      swap1\n      dup4\n      iszero\n      iszero\n      mul\n      or\n      swap1\n      sstore\n      pop\n        /* \"contracts/AdvancedBookstore.sol\":518:524  bookId */\n      dup1\n        /* \"contracts/AdvancedBookstore.sol\":495:525  BookMarkedAsBestSeller(bookId) */\n      0x086751756703c53d5d7e44bd54604b7d71c6cce159f4525b5f5b6ef93e6afa4d\n      mload(0x40)\n      mload(0x40)\n      dup1\n      swap2\n      sub\n      swap1\n      log2\n        /* \"contracts/AdvancedBookstore.sol\":308:533  function markBookAsBestSeller(uint256 bookId) public onlyOwner {... */\n      pop\n      jump\t// out\n        /* \"contracts/Bookstore.sol\":451:475  uint256[] public bookIds */\n    tag_38:\n      0x03\n      dup2\n      dup2\n      sload\n      dup2\n      lt\n      tag_100\n      jumpi\n      0x00\n      dup1\n      revert\n    tag_100:\n      swap1\n      0x00\n      mstore\n      keccak256(0x00, 0x20)\n      add\n      0x00\n      swap2\n      pop\n      swap1\n      pop\n      sload\n      dup2\n      jump\t// out\n        /* \"contracts/Bookstore.sol\":2813:2918  function getOwnerBalance() public view returns (uint256) {... */\n    tag_43:\n        /* \"contracts/Bookstore.sol\":2861:2868  uint256 */\n      0x00\n        /* \"contracts/Bookstore.sol\":2896:2901  owner */\n      dup1\n      0x00\n      swap1\n      sload\n      swap1\n      0x0100\n      exp\n      swap1\n      div\n      0xffffffffffffffffffffffffffffffffffffffff\n      and\n        /* \"contracts/Bookstore.sol\":2888:2910  address(owner).balance */\n      0xffffffffffffffffffffffffffffffffffffffff\n      and\n      balance\n        /* \"contracts/Bookstore.sol\":2881:2910  return address(owner).balance */\n      swap1\n      pop\n        /* \"contracts/Bookstore.sol\":2813:2918  function getOwnerBalance() public view returns (uint256) {... */\n      swap1\n      jump\t// out\n        /* \"contracts/Bookstore.sol\":3075:3322  function getBooks(uint256 _bookId) public view returns (string memory, string memory, uint256, uint256, bool) {... */\n    tag_48:\n        /* \"contracts/Bookstore.sol\":3131:3144  string memory */\n      0x60\n        /* \"contracts/Bookstore.sol\":3146:3159  string memory */\n      dup1\n        /* \"contracts/Bookstore.sol\":3161:3168  uint256 */\n      0x00\n        /* \"contracts/Bookstore.sol\":3170:3177  uint256 */\n      dup1\n        /* \"contracts/Bookstore.sol\":3179:3183  bool */\n      0x00\n        /* \"contracts/Bookstore.sol\":3196:3212  Book memory book */\n      dup1\n        /* \"contracts/Bookstore.sol\":3215:3220  books */\n      0x02\n        /* \"contracts/Bookstore.sol\":3215:3229  books[_bookId] */\n      0x00\n        /* \"contracts/Bookstore.sol\":3221:3228  _bookId */\n      dup9\n        /* \"contracts/Bookstore.sol\":3215:3229  books[_bookId] */\n      dup2\n      mstore\n      0x20\n      add\n      swap1\n      dup2\n      mstore\n      0x20\n      add\n      0x00\n      keccak256\n        /* \"contracts/Bookstore.sol\":3196:3229  Book memory book = books[_bookId] */\n      mload(0x40)\n      dup1\n      0xa0\n      add\n      0x40\n      mstore\n      swap1\n      dup2\n      0x00\n      dup3\n      add\n      dup1\n      sload\n      tag_104\n      swap1\n      tag_105\n      jump\t// in\n    tag_104:\n      dup1\n      0x1f\n      add\n      0x20\n      dup1\n      swap2\n      div\n      mul\n      0x20\n      add\n      mload(0x40)\n      swap1\n      dup2\n      add\n      0x40\n      mstore\n      dup1\n      swap3\n      swap2\n      swap1\n      dup2\n      dup2\n      mstore\n      0x20\n      add\n      dup3\n      dup1\n      sload\n      tag_106\n      swap1\n      tag_105\n      jump\t// in\n    tag_106:\n      dup1\n      iszero\n      tag_107\n      jumpi\n      dup1\n      0x1f\n      lt\n      tag_108\n      jumpi\n      0x0100\n      dup1\n      dup4\n      sload\n      div\n      mul\n      dup4\n      mstore\n      swap2\n      0x20\n      add\n      swap2\n      jump(tag_107)\n    tag_108:\n      dup3\n      add\n      swap2\n      swap1\n      0x00\n      mstore\n      keccak256(0x00, 0x20)\n      swap1\n    tag_109:\n      dup2\n      sload\n      dup2\n      mstore\n      swap1\n      0x01\n      add\n      swap1\n      0x20\n      add\n      dup1\n      dup4\n      gt\n      tag_109\n      jumpi\n      dup3\n      swap1\n      sub\n      0x1f\n      and\n      dup3\n      add\n      swap2\n    tag_107:\n      pop\n      pop\n      pop\n      pop\n      pop\n      dup2\n      mstore\n      0x20\n      add\n      0x01\n      dup3\n      add\n      dup1\n      sload\n      tag_110\n      swap1\n      tag_105\n      jump\t// in\n    tag_110:\n      dup1\n      0x1f\n      add\n      0x20\n      dup1\n      swap2\n      div\n      mul\n      0x20\n      add\n      mload(0x40)\n      swap1\n      dup2\n      add\n      0x40\n      mstore\n      dup1\n      swap3\n      swap2\n      swap1\n      dup2\n      dup2\n      mstore\n      0x20\n      add\n      dup3\n      dup1\n      sload\n      tag_111\n      swap1\n      tag_105\n      jump\t// in\n    tag_111:\n      dup1\n      iszero\n      tag_112\n      jumpi\n      dup1\n      0x1f\n      lt\n      tag_113\n      jumpi\n      0x0100\n      dup1\n      dup4\n      sload\n      div\n      mul\n      dup4\n      mstore\n      swap2\n      0x20\n      add\n      swap2\n      jump(tag_112)\n    tag_113:\n      dup3\n      add\n      swap2\n      swap1\n      0x00\n      mstore\n      keccak256(0x00, 0x20)\n      swap1\n    tag_114:\n      dup2\n      sload\n      dup2\n      mstore\n      swap1\n      0x01\n      add\n      swap1\n      0x20\n      add\n      dup1\n      dup4\n      gt\n      tag_114\n      jumpi\n      dup3\n      swap1\n      sub\n      0x1f\n      and\n      dup3\n      add\n      swap2\n    tag_112:\n      pop\n      pop\n      pop\n      pop\n      pop\n      dup2\n      mstore\n      0x20\n      add\n      0x02\n      dup3\n      add\n      0x00\n      swap1\n      sload\n      swap1\n      0x0100\n      exp\n      swap1\n      div\n      0xffff\n      and\n      0xffff\n      and\n      0xffff\n      and\n      dup2\n      mstore\n      0x20\n      add\n      0x03\n      dup3\n      add\n      sload\n      dup2\n      mstore\n      0x20\n      add\n      0x04\n      dup3\n      add\n      0x00\n      swap1\n      sload\n      swap1\n      0x0100\n      exp\n      swap1\n      div\n      0xff\n      and\n      iszero\n      iszero\n      iszero\n      iszero\n      dup2\n      mstore\n      pop\n      pop\n      swap1\n      pop\n        /* \"contracts/Bookstore.sol\":3248:3252  book */\n      dup1\n        /* \"contracts/Bookstore.sol\":3248:3258  book.title */\n      0x00\n      add\n      mload\n        /* \"contracts/Bookstore.sol\":3260:3264  book */\n      dup2\n        /* \"contracts/Bookstore.sol\":3260:3271  book.author */\n      0x20\n      add\n      mload\n        /* \"contracts/Bookstore.sol\":3273:3277  book */\n      dup3\n        /* \"contracts/Bookstore.sol\":3273:3283  book.price */\n      0x40\n      add\n      mload\n        /* \"contracts/Bookstore.sol\":3285:3289  book */\n      dup4\n        /* \"contracts/Bookstore.sol\":3285:3295  book.stock */\n      0x60\n      add\n      mload\n        /* \"contracts/Bookstore.sol\":3297:3301  book */\n      dup5\n        /* \"contracts/Bookstore.sol\":3297:3313  book.isAvailable */\n      0x80\n      add\n      mload\n        /* \"contracts/Bookstore.sol\":3240:3314  return (book.title, book.author, book.price, book.stock, book.isAvailable) */\n      dup3\n      0xffff\n      and\n      swap3\n      pop\n      swap6\n      pop\n      swap6\n      pop\n      swap6\n      pop\n      swap6\n      pop\n      swap6\n      pop\n      pop\n        /* \"contracts/Bookstore.sol\":3075:3322  function getBooks(uint256 _bookId) public view returns (string memory, string memory, uint256, uint256, bool) {... */\n      swap2\n      swap4\n      swap6\n      swap1\n      swap3\n      swap5\n      pop\n      jump\t// out\n        /* \"contracts/Bookstore.sol\":407:444  mapping(uint256 => Book) public books */\n    tag_54:\n      mstore(0x20, 0x02)\n      dup1\n      0x00\n      mstore\n      keccak256(0x00, 0x40)\n      0x00\n      swap2\n      pop\n      swap1\n      pop\n      dup1\n      0x00\n      add\n      dup1\n      sload\n      tag_115\n      swap1\n      tag_105\n      jump\t// in\n    tag_115:\n      dup1\n      0x1f\n      add\n      0x20\n      dup1\n      swap2\n      div\n      mul\n      0x20\n      add\n      mload(0x40)\n      swap1\n      dup2\n      add\n      0x40\n      mstore\n      dup1\n      swap3\n      swap2\n      swap1\n      dup2\n      dup2\n      mstore\n      0x20\n      add\n      dup3\n      dup1\n      sload\n      tag_116\n      swap1\n      tag_105\n      jump\t// in\n    tag_116:\n      dup1\n      iszero\n      tag_117\n      jumpi\n      dup1\n      0x1f\n      lt\n      tag_118\n      jumpi\n      0x0100\n      dup1\n      dup4\n      sload\n      div\n      mul\n      dup4\n      mstore\n      swap2\n      0x20\n      add\n      swap2\n      jump(tag_117)\n    tag_118:\n      dup3\n      add\n      swap2\n      swap1\n      0x00\n      mstore\n      keccak256(0x00, 0x20)\n      swap1\n    tag_119:\n      dup2\n      sload\n      dup2\n      mstore\n      swap1\n      0x01\n      add\n      swap1\n      0x20\n      add\n      dup1\n      dup4\n      gt\n      tag_119\n      jumpi\n      dup3\n      swap1\n      sub\n      0x1f\n      and\n      dup3\n      add\n      swap2\n    tag_117:\n      pop\n      pop\n      pop\n      pop\n      pop\n      swap1\n      dup1\n      0x01\n      add\n      dup1\n      sload\n      tag_120\n      swap1\n      tag_105\n      jump\t// in\n    tag_120:\n      dup1\n      0x1f\n      add\n      0x20\n      dup1\n      swap2\n      div\n      mul\n      0x20\n      add\n      mload(0x40)\n      swap1\n      dup2\n      add\n      0x40\n      mstore\n      dup1\n      swap3\n      swap2\n      swap1\n      dup2\n      dup2\n      mstore\n      0x20\n      add\n      dup3\n      dup1\n      sload\n      tag_121\n      swap1\n      tag_105\n      jump\t// in\n    tag_121:\n      dup1\n      iszero\n      tag_122\n      jumpi\n      dup1\n      0x1f\n      lt\n      tag_123\n      jumpi\n      0x0100\n      dup1\n      dup4\n      sload\n      div\n      mul\n      dup4\n      mstore\n      swap2\n      0x20\n      add\n      swap2\n      jump(tag_122)\n    tag_123:\n      dup3\n      add\n      swap2\n      swap1\n      0x00\n      mstore\n      keccak256(0x00, 0x20)\n      swap1\n    tag_124:\n      dup2\n      sload\n      dup2\n      mstore\n      swap1\n      0x01\n      add\n      swap1\n      0x20\n      add\n      dup1\n      dup4\n      gt\n      tag_124\n      jumpi\n      dup3\n      swap1\n      sub\n      0x1f\n      and\n      dup3\n      add\n      swap2\n    tag_122:\n      pop\n      pop\n      pop\n      pop\n      pop\n      swap1\n      dup1\n      0x02\n      add\n      0x00\n      swap1\n      sload\n      swap1\n      0x0100\n      exp\n      swap1\n      div\n      0xffff\n      and\n      swap1\n      dup1\n      0x03\n      add\n      sload\n      swap1\n      dup1\n      0x04\n      add\n      0x00\n      swap1\n      sload\n      swap1\n      0x0100\n      exp\n      swap1\n      div\n      0xff\n      and\n      swap1\n      pop\n      dup6\n      jump\t// out\n        /* \"contracts/Bookstore.sol\":93:113  address public owner */\n    tag_59:\n      0x00\n      dup1\n      sload\n      swap1\n      0x0100\n      exp\n      swap1\n      div\n      0xffffffffffffffffffffffffffffffffffffffff\n      and\n      dup2\n      jump\t// out\n        /* \"contracts/Bookstore.sol\":2968:3067  function getTotalBooksSold() public view returns (uint256) {... */\n    tag_64:\n        /* \"contracts/Bookstore.sol\":3018:3025  uint256 */\n      0x00\n        /* \"contracts/Bookstore.sol\":3045:3059  totalBooksSold */\n      sload(0x01)\n        /* \"contracts/Bookstore.sol\":3038:3059  return totalBooksSold */\n      swap1\n      pop\n        /* \"contracts/Bookstore.sol\":2968:3067  function getTotalBooksSold() public view returns (uint256) {... */\n      swap1\n      jump\t// out\n        /* \"contracts/Bookstore.sol\":2289:2774  function removeBook(uint256 _bookId) public onlyOwner {... */\n    tag_69:\n        /* \"contracts/Bookstore.sol\":824:829  owner */\n      0x00\n      dup1\n      sload\n      swap1\n      0x0100\n      exp\n      swap1\n      div\n      0xffffffffffffffffffffffffffffffffffffffff\n      and\n        /* \"contracts/Bookstore.sol\":810:829  msg.sender == owner */\n      0xffffffffffffffffffffffffffffffffffffffff\n      and\n        /* \"contracts/Bookstore.sol\":810:820  msg.sender */\n      caller\n        /* \"contracts/Bookstore.sol\":810:829  msg.sender == owner */\n      0xffffffffffffffffffffffffffffffffffffffff\n      and\n      eq\n        /* \"contracts/Bookstore.sol\":802:868  require(msg.sender == owner, \"Only owner can perform this action\") */\n      tag_127\n      jumpi\n      mload(0x40)\n      0x08c379a000000000000000000000000000000000000000000000000000000000\n      dup2\n      mstore\n      0x04\n      add\n      tag_128\n      swap1\n      tag_95\n      jump\t// in\n    tag_128:\n      mload(0x40)\n      dup1\n      swap2\n      sub\n      swap1\n      revert\n    tag_127:\n        /* \"contracts/Bookstore.sol\":2386:2387  0 */\n      0x00\n        /* \"contracts/Bookstore.sol\":2362:2367  books */\n      0x02\n        /* \"contracts/Bookstore.sol\":2362:2376  books[_bookId] */\n      0x00\n        /* \"contracts/Bookstore.sol\":2368:2375  _bookId */\n      dup4\n        /* \"contracts/Bookstore.sol\":2362:2376  books[_bookId] */\n      dup2\n      mstore\n      0x20\n      add\n      swap1\n      dup2\n      mstore\n      0x20\n      add\n      0x00\n      keccak256\n        /* \"contracts/Bookstore.sol\":2362:2382  books[_bookId].price */\n      0x02\n      add\n      0x00\n      swap1\n      sload\n      swap1\n      0x0100\n      exp\n      swap1\n      div\n      0xffff\n      and\n        /* \"contracts/Bookstore.sol\":2362:2387  books[_bookId].price != 0 */\n      0xffff\n      and\n      sub\n        /* \"contracts/Bookstore.sol\":2354:2411  require(books[_bookId].price != 0, \"Book does not exist\") */\n      tag_130\n      jumpi\n      mload(0x40)\n      0x08c379a000000000000000000000000000000000000000000000000000000000\n      dup2\n      mstore\n      0x04\n      add\n      tag_131\n      swap1\n      tag_132\n      jump\t// in\n    tag_131:\n      mload(0x40)\n      dup1\n      swap2\n      sub\n      swap1\n      revert\n    tag_130:\n        /* \"contracts/Bookstore.sol\":2429:2434  books */\n      0x02\n        /* \"contracts/Bookstore.sol\":2429:2443  books[_bookId] */\n      0x00\n        /* \"contracts/Bookstore.sol\":2435:2442  _bookId */\n      dup3\n        /* \"contracts/Bookstore.sol\":2429:2443  books[_bookId] */\n      dup2\n      mstore\n      0x20\n      add\n      swap1\n      dup2\n      mstore\n      0x20\n      add\n      0x00\n      keccak256\n      0x00\n        /* \"contracts/Bookstore.sol\":2422:2443  delete books[_bookId] */\n      dup1\n      dup3\n      add\n      0x00\n      tag_133\n      swap2\n      swap1\n      tag_134\n      jump\t// in\n    tag_133:\n      0x01\n      dup3\n      add\n      0x00\n      tag_135\n      swap2\n      swap1\n      tag_134\n      jump\t// in\n    tag_135:\n      0x02\n      dup3\n      add\n      exp(0x0100, 0x00)\n      dup2\n      sload\n      swap1\n      0xffff\n      mul\n      not\n      and\n      swap1\n      sstore\n      0x03\n      dup3\n      add\n      0x00\n      swap1\n      sstore\n      0x04\n      dup3\n      add\n      exp(0x0100, 0x00)\n      dup2\n      sload\n      swap1\n      0xff\n      mul\n      not\n      and\n      swap1\n      sstore\n      pop\n      pop\n        /* \"contracts/Bookstore.sol\":2507:2516  uint256 i */\n      0x00\n        /* \"contracts/Bookstore.sol\":2502:2731  for (uint256 i = 0; i < bookIds.length; i++) {... */\n    tag_136:\n        /* \"contracts/Bookstore.sol\":2526:2533  bookIds */\n      0x03\n        /* \"contracts/Bookstore.sol\":2526:2540  bookIds.length */\n      dup1\n      sload\n      swap1\n      pop\n        /* \"contracts/Bookstore.sol\":2522:2523  i */\n      dup2\n        /* \"contracts/Bookstore.sol\":2522:2540  i < bookIds.length */\n      lt\n        /* \"contracts/Bookstore.sol\":2502:2731  for (uint256 i = 0; i < bookIds.length; i++) {... */\n      iszero\n      tag_137\n      jumpi\n        /* \"contracts/Bookstore.sol\":2580:2587  _bookId */\n      dup2\n        /* \"contracts/Bookstore.sol\":2566:2573  bookIds */\n      0x03\n        /* \"contracts/Bookstore.sol\":2574:2575  i */\n      dup3\n        /* \"contracts/Bookstore.sol\":2566:2576  bookIds[i] */\n      dup2\n      sload\n      dup2\n      lt\n      tag_139\n      jumpi\n      tag_140\n      tag_141\n      jump\t// in\n    tag_140:\n    tag_139:\n      swap1\n      0x00\n      mstore\n      keccak256(0x00, 0x20)\n      add\n      sload\n        /* \"contracts/Bookstore.sol\":2566:2587  bookIds[i] == _bookId */\n      sub\n        /* \"contracts/Bookstore.sol\":2562:2720  if (bookIds[i] == _bookId) {... */\n      tag_143\n      jumpi\n        /* \"contracts/Bookstore.sol\":2621:2628  bookIds */\n      0x03\n        /* \"contracts/Bookstore.sol\":2646:2647  1 */\n      0x01\n        /* \"contracts/Bookstore.sol\":2629:2636  bookIds */\n      0x03\n        /* \"contracts/Bookstore.sol\":2629:2643  bookIds.length */\n      dup1\n      sload\n      swap1\n      pop\n        /* \"contracts/Bookstore.sol\":2629:2647  bookIds.length - 1 */\n      tag_144\n      swap2\n      swap1\n      tag_145\n      jump\t// in\n    tag_144:\n        /* \"contracts/Bookstore.sol\":2621:2648  bookIds[bookIds.length - 1] */\n      dup2\n      sload\n      dup2\n      lt\n      tag_146\n      jumpi\n      tag_147\n      tag_141\n      jump\t// in\n    tag_147:\n    tag_146:\n      swap1\n      0x00\n      mstore\n      keccak256(0x00, 0x20)\n      add\n      sload\n        /* \"contracts/Bookstore.sol\":2608:2615  bookIds */\n      0x03\n        /* \"contracts/Bookstore.sol\":2616:2617  i */\n      dup3\n        /* \"contracts/Bookstore.sol\":2608:2618  bookIds[i] */\n      dup2\n      sload\n      dup2\n      lt\n      tag_149\n      jumpi\n      tag_150\n      tag_141\n      jump\t// in\n    tag_150:\n    tag_149:\n      swap1\n      0x00\n      mstore\n      keccak256(0x00, 0x20)\n      add\n        /* \"contracts/Bookstore.sol\":2608:2648  bookIds[i] = bookIds[bookIds.length - 1] */\n      dup2\n      swap1\n      sstore\n      pop\n        /* \"contracts/Bookstore.sol\":2667:2674  bookIds */\n      0x03\n        /* \"contracts/Bookstore.sol\":2667:2680  bookIds.pop() */\n      dup1\n      sload\n      dup1\n      tag_152\n      jumpi\n      tag_153\n      tag_154\n      jump\t// in\n    tag_153:\n    tag_152:\n      0x01\n      swap1\n      sub\n      dup2\n      dup2\n      swap1\n      0x00\n      mstore\n      keccak256(0x00, 0x20)\n      add\n      0x00\n      swap1\n      sstore\n      swap1\n      sstore\n        /* \"contracts/Bookstore.sol\":2699:2704  break */\n      jump(tag_137)\n        /* \"contracts/Bookstore.sol\":2562:2720  if (bookIds[i] == _bookId) {... */\n    tag_143:\n        /* \"contracts/Bookstore.sol\":2542:2545  i++ */\n      dup1\n      dup1\n      0x01\n      add\n      swap2\n      pop\n      pop\n        /* \"contracts/Bookstore.sol\":2502:2731  for (uint256 i = 0; i < bookIds.length; i++) {... */\n      jump(tag_136)\n    tag_137:\n      pop\n        /* \"contracts/Bookstore.sol\":2758:2765  _bookId */\n      dup1\n        /* \"contracts/Bookstore.sol\":2746:2766  BookRemoved(_bookId) */\n      0x3c5ce13264433bcf97e5d53c97af4fc33800e8c9dd927f965b116d0018d7cddf\n      mload(0x40)\n      mload(0x40)\n      dup1\n      swap2\n      sub\n      swap1\n      log2\n        /* \"contracts/Bookstore.sol\":2289:2774  function removeBook(uint256 _bookId) public onlyOwner {... */\n      pop\n      jump\t// out\n        /* \"contracts/Bookstore.sol\":896:1399  function addBook(uint256 _bookId, string memory _title, string memory _author, uint256 _stock, uint16 _price) public {... */\n    tag_74:\n        /* \"contracts/Bookstore.sol\":1056:1057  0 */\n      0x00\n        /* \"contracts/Bookstore.sol\":1032:1037  books */\n      0x02\n        /* \"contracts/Bookstore.sol\":1032:1046  books[_bookId] */\n      0x00\n        /* \"contracts/Bookstore.sol\":1038:1045  _bookId */\n      dup8\n        /* \"contracts/Bookstore.sol\":1032:1046  books[_bookId] */\n      dup2\n      mstore\n      0x20\n      add\n      swap1\n      dup2\n      mstore\n      0x20\n      add\n      0x00\n      keccak256\n        /* \"contracts/Bookstore.sol\":1032:1052  books[_bookId].price */\n      0x02\n      add\n      0x00\n      swap1\n      sload\n      swap1\n      0x0100\n      exp\n      swap1\n      div\n      0xffff\n      and\n        /* \"contracts/Bookstore.sol\":1032:1057  books[_bookId].price == 0 */\n      0xffff\n      and\n      eq\n        /* \"contracts/Bookstore.sol\":1024:1095  require(books[_bookId].price == 0, \"CANNOT ADD BOOK IT ALREADY EXISTS\") */\n      tag_157\n      jumpi\n      mload(0x40)\n      0x08c379a000000000000000000000000000000000000000000000000000000000\n      dup2\n      mstore\n      0x04\n      add\n      tag_158\n      swap1\n      tag_159\n      jump\t// in\n    tag_158:\n      mload(0x40)\n      dup1\n      swap2\n      sub\n      swap1\n      revert\n    tag_157:\n        /* \"contracts/Bookstore.sol\":1123:1292  Book({... */\n      mload(0x40)\n      dup1\n      0xa0\n      add\n      0x40\n      mstore\n      dup1\n        /* \"contracts/Bookstore.sol\":1150:1156  _title */\n      dup6\n        /* \"contracts/Bookstore.sol\":1123:1292  Book({... */\n      dup2\n      mstore\n      0x20\n      add\n        /* \"contracts/Bookstore.sol\":1179:1186  _author */\n      dup5\n        /* \"contracts/Bookstore.sol\":1123:1292  Book({... */\n      dup2\n      mstore\n      0x20\n      add\n        /* \"contracts/Bookstore.sol\":1208:1214  _price */\n      dup3\n        /* \"contracts/Bookstore.sol\":1123:1292  Book({... */\n      0xffff\n      and\n      dup2\n      mstore\n      0x20\n      add\n        /* \"contracts/Bookstore.sol\":1236:1242  _stock */\n      dup4\n        /* \"contracts/Bookstore.sol\":1123:1292  Book({... */\n      dup2\n      mstore\n      0x20\n      add\n        /* \"contracts/Bookstore.sol\":1279:1280  0 */\n      0x00\n        /* \"contracts/Bookstore.sol\":1270:1276  _stock */\n      dup5\n        /* \"contracts/Bookstore.sol\":1270:1280  _stock > 0 */\n      gt\n        /* \"contracts/Bookstore.sol\":1123:1292  Book({... */\n      iszero\n      iszero\n      dup2\n      mstore\n      pop\n        /* \"contracts/Bookstore.sol\":1106:1111  books */\n      0x02\n        /* \"contracts/Bookstore.sol\":1106:1120  books[_bookId] */\n      0x00\n        /* \"contracts/Bookstore.sol\":1112:1119  _bookId */\n      dup8\n        /* \"contracts/Bookstore.sol\":1106:1120  books[_bookId] */\n      dup2\n      mstore\n      0x20\n      add\n      swap1\n      dup2\n      mstore\n      0x20\n      add\n      0x00\n      keccak256\n        /* \"contracts/Bookstore.sol\":1106:1292  books[_bookId] = Book({... */\n      0x00\n      dup3\n      add\n      mload\n      dup2\n      0x00\n      add\n      swap1\n      dup2\n      tag_160\n      swap2\n      swap1\n      tag_161\n      jump\t// in\n    tag_160:\n      pop\n      0x20\n      dup3\n      add\n      mload\n      dup2\n      0x01\n      add\n      swap1\n      dup2\n      tag_162\n      swap2\n      swap1\n      tag_161\n      jump\t// in\n    tag_162:\n      pop\n      0x40\n      dup3\n      add\n      mload\n      dup2\n      0x02\n      add\n      exp(0x0100, 0x00)\n      dup2\n      sload\n      dup2\n      0xffff\n      mul\n      not\n      and\n      swap1\n      dup4\n      0xffff\n      and\n      mul\n      or\n      swap1\n      sstore\n      pop\n      0x60\n      dup3\n      add\n      mload\n      dup2\n      0x03\n      add\n      sstore\n      0x80\n      dup3\n      add\n      mload\n      dup2\n      0x04\n      add\n      exp(0x0100, 0x00)\n      dup2\n      sload\n      dup2\n      0xff\n      mul\n      not\n      and\n      swap1\n      dup4\n      iszero\n      iszero\n      mul\n      or\n      swap1\n      sstore\n      pop\n      swap1\n      pop\n      pop\n        /* \"contracts/Bookstore.sol\":1303:1310  bookIds */\n      0x03\n        /* \"contracts/Bookstore.sol\":1316:1323  _bookId */\n      dup6\n        /* \"contracts/Bookstore.sol\":1303:1324  bookIds.push(_bookId) */\n      swap1\n      dup1\n      0x01\n      dup2\n      sload\n      add\n      dup1\n      dup3\n      sstore\n      dup1\n      swap2\n      pop\n      pop\n      0x01\n      swap1\n      sub\n      swap1\n      0x00\n      mstore\n      keccak256(0x00, 0x20)\n      add\n      0x00\n      swap1\n      swap2\n      swap1\n      swap2\n      swap1\n      swap2\n      pop\n      sstore\n        /* \"contracts/Bookstore.sol\":1350:1357  _bookId */\n      dup5\n        /* \"contracts/Bookstore.sol\":1340:1391  BookAdded(_bookId, _title, _author, _stock, _price) */\n      0x722c04650224f771c04ec5712c74689980b3ddb4eaa233cd8f9c72d7da7fbe29\n        /* \"contracts/Bookstore.sol\":1359:1365  _title */\n      dup6\n        /* \"contracts/Bookstore.sol\":1367:1374  _author */\n      dup6\n        /* \"contracts/Bookstore.sol\":1376:1382  _stock */\n      dup6\n        /* \"contracts/Bookstore.sol\":1384:1390  _price */\n      dup6\n        /* \"contracts/Bookstore.sol\":1340:1391  BookAdded(_bookId, _title, _author, _stock, _price) */\n      mload(0x40)\n      tag_164\n      swap5\n      swap4\n      swap3\n      swap2\n      swap1\n      tag_165\n      jump\t// in\n    tag_164:\n      mload(0x40)\n      dup1\n      swap2\n      sub\n      swap1\n      log2\n        /* \"contracts/Bookstore.sol\":896:1399  function addBook(uint256 _bookId, string memory _title, string memory _author, uint256 _stock, uint16 _price) public {... */\n      pop\n      pop\n      pop\n      pop\n      pop\n      jump\t// out\n        /* \"contracts/Bookstore.sol\":3330:4107  function buyBook(uint256 _bookId, uint256 _quantity, uint256 _amount) public payable {... */\n    tag_78:\n        /* \"contracts/Bookstore.sol\":3426:3443  Book storage book */\n      0x00\n        /* \"contracts/Bookstore.sol\":3446:3451  books */\n      0x02\n        /* \"contracts/Bookstore.sol\":3446:3460  books[_bookId] */\n      0x00\n        /* \"contracts/Bookstore.sol\":3452:3459  _bookId */\n      dup6\n        /* \"contracts/Bookstore.sol\":3446:3460  books[_bookId] */\n      dup2\n      mstore\n      0x20\n      add\n      swap1\n      dup2\n      mstore\n      0x20\n      add\n      0x00\n      keccak256\n        /* \"contracts/Bookstore.sol\":3426:3460  Book storage book = books[_bookId] */\n      swap1\n      pop\n        /* \"contracts/Bookstore.sol\":3479:3483  book */\n      dup1\n        /* \"contracts/Bookstore.sol\":3479:3495  book.isAvailable */\n      0x04\n      add\n      0x00\n      swap1\n      sload\n      swap1\n      0x0100\n      exp\n      swap1\n      div\n      0xff\n      and\n        /* \"contracts/Bookstore.sol\":3471:3526  require(book.isAvailable, \"This book is not available\") */\n      tag_167\n      jumpi\n      mload(0x40)\n      0x08c379a000000000000000000000000000000000000000000000000000000000\n      dup2\n      mstore\n      0x04\n      add\n      tag_168\n      swap1\n      tag_169\n      jump\t// in\n    tag_168:\n      mload(0x40)\n      dup1\n      swap2\n      sub\n      swap1\n      revert\n    tag_167:\n        /* \"contracts/Bookstore.sol\":3559:3568  _quantity */\n      dup3\n        /* \"contracts/Bookstore.sol\":3545:3549  book */\n      dup2\n        /* \"contracts/Bookstore.sol\":3545:3555  book.stock */\n      0x03\n      add\n      sload\n        /* \"contracts/Bookstore.sol\":3545:3568  book.stock >= _quantity */\n      lt\n      iszero\n        /* \"contracts/Bookstore.sol\":3537:3599  require(book.stock >= _quantity, \"Not enough stock available\") */\n      tag_170\n      jumpi\n      mload(0x40)\n      0x08c379a000000000000000000000000000000000000000000000000000000000\n      dup2\n      mstore\n      0x04\n      add\n      tag_171\n      swap1\n      tag_172\n      jump\t// in\n    tag_171:\n      mload(0x40)\n      dup1\n      swap2\n      sub\n      swap1\n      revert\n    tag_170:\n        /* \"contracts/Bookstore.sol\":3642:3651  _quantity */\n      dup3\n        /* \"contracts/Bookstore.sol\":3629:3633  book */\n      dup2\n        /* \"contracts/Bookstore.sol\":3629:3639  book.price */\n      0x02\n      add\n      0x00\n      swap1\n      sload\n      swap1\n      0x0100\n      exp\n      swap1\n      div\n      0xffff\n      and\n        /* \"contracts/Bookstore.sol\":3629:3651  book.price * _quantity */\n      0xffff\n      and\n      tag_173\n      swap2\n      swap1\n      tag_174\n      jump\t// in\n    tag_173:\n        /* \"contracts/Bookstore.sol\":3618:3625  _amount */\n      dup3\n        /* \"contracts/Bookstore.sol\":3618:3651  _amount == book.price * _quantity */\n      eq\n        /* \"contracts/Bookstore.sol\":3610:3680  require(_amount == book.price * _quantity, \"Incorrect payment amount\") */\n      tag_175\n      jumpi\n      mload(0x40)\n      0x08c379a000000000000000000000000000000000000000000000000000000000\n      dup2\n      mstore\n      0x04\n      add\n      tag_176\n      swap1\n      tag_177\n      jump\t// in\n    tag_176:\n      mload(0x40)\n      dup1\n      swap2\n      sub\n      swap1\n      revert\n    tag_175:\n        /* \"contracts/Bookstore.sol\":3766:3775  _quantity */\n      dup3\n        /* \"contracts/Bookstore.sol\":3752:3756  book */\n      dup2\n        /* \"contracts/Bookstore.sol\":3752:3762  book.stock */\n      0x03\n      add\n      0x00\n        /* \"contracts/Bookstore.sol\":3752:3775  book.stock -= _quantity */\n      dup3\n      dup3\n      sload\n      tag_178\n      swap2\n      swap1\n      tag_145\n      jump\t// in\n    tag_178:\n      swap3\n      pop\n      pop\n      dup2\n      swap1\n      sstore\n      pop\n        /* \"contracts/Bookstore.sol\":3804:3805  0 */\n      0x00\n        /* \"contracts/Bookstore.sol\":3790:3794  book */\n      dup2\n        /* \"contracts/Bookstore.sol\":3790:3800  book.stock */\n      0x03\n      add\n      sload\n        /* \"contracts/Bookstore.sol\":3790:3805  book.stock == 0 */\n      sub\n        /* \"contracts/Bookstore.sol\":3786:3858  if (book.stock == 0) {... */\n      tag_179\n      jumpi\n        /* \"contracts/Bookstore.sol\":3841:3846  false */\n      0x00\n        /* \"contracts/Bookstore.sol\":3822:3826  book */\n      dup2\n        /* \"contracts/Bookstore.sol\":3822:3838  book.isAvailable */\n      0x04\n      add\n      0x00\n        /* \"contracts/Bookstore.sol\":3822:3846  book.isAvailable = false */\n      0x0100\n      exp\n      dup2\n      sload\n      dup2\n      0xff\n      mul\n      not\n      and\n      swap1\n      dup4\n      iszero\n      iszero\n      mul\n      or\n      swap1\n      sstore\n      pop\n        /* \"contracts/Bookstore.sol\":3786:3858  if (book.stock == 0) {... */\n    tag_179:\n        /* \"contracts/Bookstore.sol\":3932:3941  _quantity */\n      dup3\n        /* \"contracts/Bookstore.sol\":3914:3928  totalBooksSold */\n      0x01\n      0x00\n        /* \"contracts/Bookstore.sol\":3914:3941  totalBooksSold += _quantity */\n      dup3\n      dup3\n      sload\n      tag_180\n      swap2\n      swap1\n      tag_181\n      jump\t// in\n    tag_180:\n      swap3\n      pop\n      pop\n      dup2\n      swap1\n      sstore\n      pop\n        /* \"contracts/Bookstore.sol\":4012:4017  owner */\n      0x00\n      dup1\n      sload\n      swap1\n      0x0100\n      exp\n      swap1\n      div\n      0xffffffffffffffffffffffffffffffffffffffff\n      and\n        /* \"contracts/Bookstore.sol\":4004:4027  payable(owner).transfer */\n      0xffffffffffffffffffffffffffffffffffffffff\n      and\n        /* \"contracts/Bookstore.sol\":4004:4038  payable(owner).transfer(msg.value) */\n      0x08fc\n        /* \"contracts/Bookstore.sol\":4028:4037  msg.value */\n      callvalue\n        /* \"contracts/Bookstore.sol\":4004:4038  payable(owner).transfer(msg.value) */\n      swap1\n      dup2\n      iszero\n      mul\n      swap1\n      mload(0x40)\n      0x00\n      mload(0x40)\n      dup1\n      dup4\n      sub\n      dup2\n      dup6\n      dup9\n      dup9\n      call\n      swap4\n      pop\n      pop\n      pop\n      pop\n      iszero\n      dup1\n      iszero\n      tag_183\n      jumpi\n      returndatasize\n      0x00\n      dup1\n      returndatacopy\n      revert(0x00, returndatasize)\n    tag_183:\n      pop\n        /* \"contracts/Bookstore.sol\":4077:4087  msg.sender */\n      caller\n        /* \"contracts/Bookstore.sol\":4054:4099  BookPurchased(_bookId, msg.sender, _quantity) */\n      0xffffffffffffffffffffffffffffffffffffffff\n      and\n      0x439c08b00222293c6073f3ee383214541a4a21aca7dbb0a45963f86fa8e589f7\n        /* \"contracts/Bookstore.sol\":4068:4075  _bookId */\n      dup6\n        /* \"contracts/Bookstore.sol\":4089:4098  _quantity */\n      dup6\n        /* \"contracts/Bookstore.sol\":4054:4099  BookPurchased(_bookId, msg.sender, _quantity) */\n      mload(0x40)\n      tag_184\n      swap3\n      swap2\n      swap1\n      tag_185\n      jump\t// in\n    tag_184:\n      mload(0x40)\n      dup1\n      swap2\n      sub\n      swap1\n      log2\n        /* \"contracts/Bookstore.sol\":3415:4107  {... */\n      pop\n        /* \"contracts/Bookstore.sol\":3330:4107  function buyBook(uint256 _bookId, uint256 _quantity, uint256 _amount) public payable {... */\n      pop\n      pop\n      pop\n      jump\t// out\n        /* \"contracts/AdvancedBookstore.sol\":541:650  function isBestSeller(uint256 bookId) public view returns (bool) {... */\n    tag_82:\n        /* \"contracts/AdvancedBookstore.sol\":600:604  bool */\n      0x00\n        /* \"contracts/AdvancedBookstore.sol\":624:634  bestseller */\n      0x04\n        /* \"contracts/AdvancedBookstore.sol\":624:642  bestseller[bookId] */\n      0x00\n        /* \"contracts/AdvancedBookstore.sol\":635:641  bookId */\n      dup4\n        /* \"contracts/AdvancedBookstore.sol\":624:642  bestseller[bookId] */\n      dup2\n      mstore\n      0x20\n      add\n      swap1\n      dup2\n      mstore\n      0x20\n      add\n      0x00\n      keccak256\n      0x00\n      swap1\n      sload\n      swap1\n      0x0100\n      exp\n      swap1\n      div\n      0xff\n      and\n        /* \"contracts/AdvancedBookstore.sol\":617:642  return bestseller[bookId] */\n      swap1\n      pop\n        /* \"contracts/AdvancedBookstore.sol\":541:650  function isBestSeller(uint256 bookId) public view returns (bool) {... */\n      swap2\n      swap1\n      pop\n      jump\t// out\n        /* \"contracts/Bookstore.sol\":1586:2240  function removeBooks(uint256[] memory _bookIds) public onlyOwner {... */\n    tag_88:\n        /* \"contracts/Bookstore.sol\":824:829  owner */\n      0x00\n      dup1\n      sload\n      swap1\n      0x0100\n      exp\n      swap1\n      div\n      0xffffffffffffffffffffffffffffffffffffffff\n      and\n        /* \"contracts/Bookstore.sol\":810:829  msg.sender == owner */\n      0xffffffffffffffffffffffffffffffffffffffff\n      and\n        /* \"contracts/Bookstore.sol\":810:820  msg.sender */\n      caller\n        /* \"contracts/Bookstore.sol\":810:829  msg.sender == owner */\n      0xffffffffffffffffffffffffffffffffffffffff\n      and\n      eq\n        /* \"contracts/Bookstore.sol\":802:868  require(msg.sender == owner, \"Only owner can perform this action\") */\n      tag_188\n      jumpi\n      mload(0x40)\n      0x08c379a000000000000000000000000000000000000000000000000000000000\n      dup2\n      mstore\n      0x04\n      add\n      tag_189\n      swap1\n      tag_95\n      jump\t// in\n    tag_189:\n      mload(0x40)\n      dup1\n      swap2\n      sub\n      swap1\n      revert\n    tag_188:\n        /* \"contracts/Bookstore.sol\":1667:1676  uint256 i */\n      0x00\n        /* \"contracts/Bookstore.sol\":1662:2191  for (uint256 i = 0; i < _bookIds.length; i++) {... */\n    tag_191:\n        /* \"contracts/Bookstore.sol\":1686:1694  _bookIds */\n      dup2\n        /* \"contracts/Bookstore.sol\":1686:1701  _bookIds.length */\n      mload\n        /* \"contracts/Bookstore.sol\":1682:1683  i */\n      dup2\n        /* \"contracts/Bookstore.sol\":1682:1701  i < _bookIds.length */\n      lt\n        /* \"contracts/Bookstore.sol\":1662:2191  for (uint256 i = 0; i < _bookIds.length; i++) {... */\n      iszero\n      tag_192\n      jumpi\n        /* \"contracts/Bookstore.sol\":1723:1737  uint256 bookId */\n      0x00\n        /* \"contracts/Bookstore.sol\":1740:1748  _bookIds */\n      dup3\n        /* \"contracts/Bookstore.sol\":1749:1750  i */\n      dup3\n        /* \"contracts/Bookstore.sol\":1740:1751  _bookIds[i] */\n      dup2\n      mload\n      dup2\n      lt\n      tag_194\n      jumpi\n      tag_195\n      tag_141\n      jump\t// in\n    tag_195:\n    tag_194:\n      0x20\n      mul\n      0x20\n      add\n      add\n      mload\n        /* \"contracts/Bookstore.sol\":1723:1751  uint256 bookId = _bookIds[i] */\n      swap1\n      pop\n        /* \"contracts/Bookstore.sol\":1797:1798  0 */\n      0x00\n        /* \"contracts/Bookstore.sol\":1774:1779  books */\n      0x02\n        /* \"contracts/Bookstore.sol\":1774:1787  books[bookId] */\n      0x00\n        /* \"contracts/Bookstore.sol\":1780:1786  bookId */\n      dup4\n        /* \"contracts/Bookstore.sol\":1774:1787  books[bookId] */\n      dup2\n      mstore\n      0x20\n      add\n      swap1\n      dup2\n      mstore\n      0x20\n      add\n      0x00\n      keccak256\n        /* \"contracts/Bookstore.sol\":1774:1793  books[bookId].price */\n      0x02\n      add\n      0x00\n      swap1\n      sload\n      swap1\n      0x0100\n      exp\n      swap1\n      div\n      0xffff\n      and\n        /* \"contracts/Bookstore.sol\":1774:1798  books[bookId].price != 0 */\n      0xffff\n      and\n      sub\n        /* \"contracts/Bookstore.sol\":1766:1822  require(books[bookId].price != 0, \"Book does not exist\") */\n      tag_196\n      jumpi\n      mload(0x40)\n      0x08c379a000000000000000000000000000000000000000000000000000000000\n      dup2\n      mstore\n      0x04\n      add\n      tag_197\n      swap1\n      tag_132\n      jump\t// in\n    tag_197:\n      mload(0x40)\n      dup1\n      swap2\n      sub\n      swap1\n      revert\n    tag_196:\n        /* \"contracts/Bookstore.sol\":1844:1849  books */\n      0x02\n        /* \"contracts/Bookstore.sol\":1844:1857  books[bookId] */\n      0x00\n        /* \"contracts/Bookstore.sol\":1850:1856  bookId */\n      dup3\n        /* \"contracts/Bookstore.sol\":1844:1857  books[bookId] */\n      dup2\n      mstore\n      0x20\n      add\n      swap1\n      dup2\n      mstore\n      0x20\n      add\n      0x00\n      keccak256\n      0x00\n        /* \"contracts/Bookstore.sol\":1837:1857  delete books[bookId] */\n      dup1\n      dup3\n      add\n      0x00\n      tag_198\n      swap2\n      swap1\n      tag_134\n      jump\t// in\n    tag_198:\n      0x01\n      dup3\n      add\n      0x00\n      tag_199\n      swap2\n      swap1\n      tag_134\n      jump\t// in\n    tag_199:\n      0x02\n      dup3\n      add\n      exp(0x0100, 0x00)\n      dup2\n      sload\n      swap1\n      0xffff\n      mul\n      not\n      and\n      swap1\n      sstore\n      0x03\n      dup3\n      add\n      0x00\n      swap1\n      sstore\n      0x04\n      dup3\n      add\n      exp(0x0100, 0x00)\n      dup2\n      sload\n      swap1\n      0xff\n      mul\n      not\n      and\n      swap1\n      sstore\n      pop\n      pop\n        /* \"contracts/Bookstore.sol\":1933:1942  uint256 j */\n      0x00\n        /* \"contracts/Bookstore.sol\":1928:2180  for (uint256 j = 0; j < bookIds.length; j++) {... */\n    tag_200:\n        /* \"contracts/Bookstore.sol\":1952:1959  bookIds */\n      0x03\n        /* \"contracts/Bookstore.sol\":1952:1966  bookIds.length */\n      dup1\n      sload\n      swap1\n      pop\n        /* \"contracts/Bookstore.sol\":1948:1949  j */\n      dup2\n        /* \"contracts/Bookstore.sol\":1948:1966  j < bookIds.length */\n      lt\n        /* \"contracts/Bookstore.sol\":1928:2180  for (uint256 j = 0; j < bookIds.length; j++) {... */\n      iszero\n      tag_201\n      jumpi\n        /* \"contracts/Bookstore.sol\":2010:2016  bookId */\n      dup2\n        /* \"contracts/Bookstore.sol\":1996:2003  bookIds */\n      0x03\n        /* \"contracts/Bookstore.sol\":2004:2005  j */\n      dup3\n        /* \"contracts/Bookstore.sol\":1996:2006  bookIds[j] */\n      dup2\n      sload\n      dup2\n      lt\n      tag_203\n      jumpi\n      tag_204\n      tag_141\n      jump\t// in\n    tag_204:\n    tag_203:\n      swap1\n      0x00\n      mstore\n      keccak256(0x00, 0x20)\n      add\n      sload\n        /* \"contracts/Bookstore.sol\":1996:2016  bookIds[j] == bookId */\n      sub\n        /* \"contracts/Bookstore.sol\":1992:2165  if (bookIds[j] == bookId) {... */\n      tag_206\n      jumpi\n        /* \"contracts/Bookstore.sol\":2054:2061  bookIds */\n      0x03\n        /* \"contracts/Bookstore.sol\":2079:2080  1 */\n      0x01\n        /* \"contracts/Bookstore.sol\":2062:2069  bookIds */\n      0x03\n        /* \"contracts/Bookstore.sol\":2062:2076  bookIds.length */\n      dup1\n      sload\n      swap1\n      pop\n        /* \"contracts/Bookstore.sol\":2062:2080  bookIds.length - 1 */\n      tag_207\n      swap2\n      swap1\n      tag_145\n      jump\t// in\n    tag_207:\n        /* \"contracts/Bookstore.sol\":2054:2081  bookIds[bookIds.length - 1] */\n      dup2\n      sload\n      dup2\n      lt\n      tag_208\n      jumpi\n      tag_209\n      tag_141\n      jump\t// in\n    tag_209:\n    tag_208:\n      swap1\n      0x00\n      mstore\n      keccak256(0x00, 0x20)\n      add\n      sload\n        /* \"contracts/Bookstore.sol\":2041:2048  bookIds */\n      0x03\n        /* \"contracts/Bookstore.sol\":2049:2050  j */\n      dup3\n        /* \"contracts/Bookstore.sol\":2041:2051  bookIds[j] */\n      dup2\n      sload\n      dup2\n      lt\n      tag_211\n      jumpi\n      tag_212\n      tag_141\n      jump\t// in\n    tag_212:\n    tag_211:\n      swap1\n      0x00\n      mstore\n      keccak256(0x00, 0x20)\n      add\n        /* \"contracts/Bookstore.sol\":2041:2081  bookIds[j] = bookIds[bookIds.length - 1] */\n      dup2\n      swap1\n      sstore\n      pop\n        /* \"contracts/Bookstore.sol\":2104:2111  bookIds */\n      0x03\n        /* \"contracts/Bookstore.sol\":2104:2117  bookIds.pop() */\n      dup1\n      sload\n      dup1\n      tag_214\n      jumpi\n      tag_215\n      tag_154\n      jump\t// in\n    tag_215:\n    tag_214:\n      0x01\n      swap1\n      sub\n      dup2\n      dup2\n      swap1\n      0x00\n      mstore\n      keccak256(0x00, 0x20)\n      add\n      0x00\n      swap1\n      sstore\n      swap1\n      sstore\n        /* \"contracts/Bookstore.sol\":2140:2145  break */\n      jump(tag_201)\n        /* \"contracts/Bookstore.sol\":1992:2165  if (bookIds[j] == bookId) {... */\n    tag_206:\n        /* \"contracts/Bookstore.sol\":1968:1971  j++ */\n      dup1\n      dup1\n      0x01\n      add\n      swap2\n      pop\n      pop\n        /* \"contracts/Bookstore.sol\":1928:2180  for (uint256 j = 0; j < bookIds.length; j++) {... */\n      jump(tag_200)\n    tag_201:\n      pop\n        /* \"contracts/Bookstore.sol\":1708:2191  {... */\n      pop\n        /* \"contracts/Bookstore.sol\":1703:1706  i++ */\n      dup1\n      dup1\n      0x01\n      add\n      swap2\n      pop\n      pop\n        /* \"contracts/Bookstore.sol\":1662:2191  for (uint256 i = 0; i < _bookIds.length; i++) {... */\n      jump(tag_191)\n    tag_192:\n      pop\n        /* \"contracts/Bookstore.sol\":2206:2232  BookBatchRemoved(_bookIds) */\n      0x7262be1e48c30c363173fcb2fbf2dc2cb38d076dee42cc37cdfbdf62af5c3bed\n        /* \"contracts/Bookstore.sol\":2223:2231  _bookIds */\n      dup2\n        /* \"contracts/Bookstore.sol\":2206:2232  BookBatchRemoved(_bookIds) */\n      mload(0x40)\n      tag_217\n      swap2\n      swap1\n      tag_30\n      jump\t// in\n    tag_217:\n      mload(0x40)\n      dup1\n      swap2\n      sub\n      swap1\n      log1\n        /* \"contracts/Bookstore.sol\":1586:2240  function removeBooks(uint256[] memory _bookIds) public onlyOwner {... */\n      pop\n      jump\t// out\n    tag_134:\n      pop\n      dup1\n      sload\n      tag_218\n      swap1\n      tag_105\n      jump\t// in\n    tag_218:\n      0x00\n      dup3\n      sstore\n      dup1\n      0x1f\n      lt\n      tag_220\n      jumpi\n      pop\n      jump(tag_219)\n    tag_220:\n      0x1f\n      add\n      0x20\n      swap1\n      div\n      swap1\n      0x00\n      mstore\n      keccak256(0x00, 0x20)\n      swap1\n      dup2\n      add\n      swap1\n      tag_221\n      swap2\n      swap1\n      tag_222\n      jump\t// in\n    tag_221:\n    tag_219:\n      pop\n      jump\t// out\n    tag_222:\n    tag_223:\n      dup1\n      dup3\n      gt\n      iszero\n      tag_224\n      jumpi\n      0x00\n      dup2\n      0x00\n      swap1\n      sstore\n      pop\n      0x01\n      add\n      jump(tag_223)\n    tag_224:\n      pop\n      swap1\n      jump\t// out\n        /* \"#utility.yul\":7:82   */\n    tag_225:\n        /* \"#utility.yul\":40:46   */\n      0x00\n        /* \"#utility.yul\":73:75   */\n      0x40\n        /* \"#utility.yul\":67:76   */\n      mload\n        /* \"#utility.yul\":57:76   */\n      swap1\n      pop\n        /* \"#utility.yul\":7:82   */\n      swap1\n      jump\t// out\n        /* \"#utility.yul\":88:205   */\n    tag_226:\n        /* \"#utility.yul\":197:198   */\n      0x00\n        /* \"#utility.yul\":194:195   */\n      dup1\n        /* \"#utility.yul\":187:199   */\n      revert\n        /* \"#utility.yul\":211:328   */\n    tag_227:\n        /* \"#utility.yul\":320:321   */\n      0x00\n        /* \"#utility.yul\":317:318   */\n      dup1\n        /* \"#utility.yul\":310:322   */\n      revert\n        /* \"#utility.yul\":334:411   */\n    tag_228:\n        /* \"#utility.yul\":371:378   */\n      0x00\n        /* \"#utility.yul\":400:405   */\n      dup2\n        /* \"#utility.yul\":389:405   */\n      swap1\n      pop\n        /* \"#utility.yul\":334:411   */\n      swap2\n      swap1\n      pop\n      jump\t// out\n        /* \"#utility.yul\":417:539   */\n    tag_229:\n        /* \"#utility.yul\":490:514   */\n      tag_305\n        /* \"#utility.yul\":508:513   */\n      dup2\n        /* \"#utility.yul\":490:514   */\n      tag_228\n      jump\t// in\n    tag_305:\n        /* \"#utility.yul\":483:488   */\n      dup2\n        /* \"#utility.yul\":480:515   */\n      eq\n        /* \"#utility.yul\":470:533   */\n      tag_306\n      jumpi\n        /* \"#utility.yul\":529:530   */\n      0x00\n        /* \"#utility.yul\":526:527   */\n      dup1\n        /* \"#utility.yul\":519:531   */\n      revert\n        /* \"#utility.yul\":470:533   */\n    tag_306:\n        /* \"#utility.yul\":417:539   */\n      pop\n      jump\t// out\n        /* \"#utility.yul\":545:684   */\n    tag_230:\n        /* \"#utility.yul\":591:596   */\n      0x00\n        /* \"#utility.yul\":629:635   */\n      dup2\n        /* \"#utility.yul\":616:636   */\n      calldataload\n        /* \"#utility.yul\":607:636   */\n      swap1\n      pop\n        /* \"#utility.yul\":645:678   */\n      tag_308\n        /* \"#utility.yul\":672:677   */\n      dup2\n        /* \"#utility.yul\":645:678   */\n      tag_229\n      jump\t// in\n    tag_308:\n        /* \"#utility.yul\":545:684   */\n      swap3\n      swap2\n      pop\n      pop\n      jump\t// out\n        /* \"#utility.yul\":690:1019   */\n    tag_22:\n        /* \"#utility.yul\":749:755   */\n      0x00\n        /* \"#utility.yul\":798:800   */\n      0x20\n        /* \"#utility.yul\":786:795   */\n      dup3\n        /* \"#utility.yul\":777:784   */\n      dup5\n        /* \"#utility.yul\":773:796   */\n      sub\n        /* \"#utility.yul\":769:801   */\n      slt\n        /* \"#utility.yul\":766:885   */\n      iszero\n      tag_310\n      jumpi\n        /* \"#utility.yul\":804:883   */\n      tag_311\n      tag_226\n      jump\t// in\n    tag_311:\n        /* \"#utility.yul\":766:885   */\n    tag_310:\n        /* \"#utility.yul\":924:925   */\n      0x00\n        /* \"#utility.yul\":949:1002   */\n      tag_312\n        /* \"#utility.yul\":994:1001   */\n      dup5\n        /* \"#utility.yul\":985:991   */\n      dup3\n        /* \"#utility.yul\":974:983   */\n      dup6\n        /* \"#utility.yul\":970:992   */\n      add\n        /* \"#utility.yul\":949:1002   */\n      tag_230\n      jump\t// in\n    tag_312:\n        /* \"#utility.yul\":939:1002   */\n      swap2\n      pop\n        /* \"#utility.yul\":895:1012   */\n      pop\n        /* \"#utility.yul\":690:1019   */\n      swap3\n      swap2\n      pop\n      pop\n      jump\t// out\n        /* \"#utility.yul\":1025:1115   */\n    tag_231:\n        /* \"#utility.yul\":1059:1066   */\n      0x00\n        /* \"#utility.yul\":1102:1107   */\n      dup2\n        /* \"#utility.yul\":1095:1108   */\n      iszero\n        /* \"#utility.yul\":1088:1109   */\n      iszero\n        /* \"#utility.yul\":1077:1109   */\n      swap1\n      pop\n        /* \"#utility.yul\":1025:1115   */\n      swap2\n      swap1\n      pop\n      jump\t// out\n        /* \"#utility.yul\":1121:1230   */\n    tag_232:\n        /* \"#utility.yul\":1202:1223   */\n      tag_315\n        /* \"#utility.yul\":1217:1222   */\n      dup2\n        /* \"#utility.yul\":1202:1223   */\n      tag_231\n      jump\t// in\n    tag_315:\n        /* \"#utility.yul\":1197:1200   */\n      dup3\n        /* \"#utility.yul\":1190:1224   */\n      mstore\n        /* \"#utility.yul\":1121:1230   */\n      pop\n      pop\n      jump\t// out\n        /* \"#utility.yul\":1236:1446   */\n    tag_25:\n        /* \"#utility.yul\":1323:1327   */\n      0x00\n        /* \"#utility.yul\":1361:1363   */\n      0x20\n        /* \"#utility.yul\":1350:1359   */\n      dup3\n        /* \"#utility.yul\":1346:1364   */\n      add\n        /* \"#utility.yul\":1338:1364   */\n      swap1\n      pop\n        /* \"#utility.yul\":1374:1439   */\n      tag_317\n        /* \"#utility.yul\":1436:1437   */\n      0x00\n        /* \"#utility.yul\":1425:1434   */\n      dup4\n        /* \"#utility.yul\":1421:1438   */\n      add\n        /* \"#utility.yul\":1412:1418   */\n      dup5\n        /* \"#utility.yul\":1374:1439   */\n      tag_232\n      jump\t// in\n    tag_317:\n        /* \"#utility.yul\":1236:1446   */\n      swap3\n      swap2\n      pop\n      pop\n      jump\t// out\n        /* \"#utility.yul\":1452:1566   */\n    tag_233:\n        /* \"#utility.yul\":1519:1525   */\n      0x00\n        /* \"#utility.yul\":1553:1558   */\n      dup2\n        /* \"#utility.yul\":1547:1559   */\n      mload\n        /* \"#utility.yul\":1537:1559   */\n      swap1\n      pop\n        /* \"#utility.yul\":1452:1566   */\n      swap2\n      swap1\n      pop\n      jump\t// out\n        /* \"#utility.yul\":1572:1756   */\n    tag_234:\n        /* \"#utility.yul\":1671:1682   */\n      0x00\n        /* \"#utility.yul\":1705:1711   */\n      dup3\n        /* \"#utility.yul\":1700:1703   */\n      dup3\n        /* \"#utility.yul\":1693:1712   */\n      mstore\n        /* \"#utility.yul\":1745:1749   */\n      0x20\n        /* \"#utility.yul\":1740:1743   */\n      dup3\n        /* \"#utility.yul\":1736:1750   */\n      add\n        /* \"#utility.yul\":1721:1750   */\n      swap1\n      pop\n        /* \"#utility.yul\":1572:1756   */\n      swap3\n      swap2\n      pop\n      pop\n      jump\t// out\n        /* \"#utility.yul\":1762:1894   */\n    tag_235:\n        /* \"#utility.yul\":1829:1833   */\n      0x00\n        /* \"#utility.yul\":1852:1855   */\n      dup2\n        /* \"#utility.yul\":1844:1855   */\n      swap1\n      pop\n        /* \"#utility.yul\":1882:1886   */\n      0x20\n        /* \"#utility.yul\":1877:1880   */\n      dup3\n        /* \"#utility.yul\":1873:1887   */\n      add\n        /* \"#utility.yul\":1865:1887   */\n      swap1\n      pop\n        /* \"#utility.yul\":1762:1894   */\n      swap2\n      swap1\n      pop\n      jump\t// out\n        /* \"#utility.yul\":1900:2008   */\n    tag_236:\n        /* \"#utility.yul\":1977:2001   */\n      tag_322\n        /* \"#utility.yul\":1995:2000   */\n      dup2\n        /* \"#utility.yul\":1977:2001   */\n      tag_228\n      jump\t// in\n    tag_322:\n        /* \"#utility.yul\":1972:1975   */\n      dup3\n        /* \"#utility.yul\":1965:2002   */\n      mstore\n        /* \"#utility.yul\":1900:2008   */\n      pop\n      pop\n      jump\t// out\n        /* \"#utility.yul\":2014:2193   */\n    tag_237:\n        /* \"#utility.yul\":2083:2093   */\n      0x00\n        /* \"#utility.yul\":2104:2150   */\n      tag_324\n        /* \"#utility.yul\":2146:2149   */\n      dup4\n        /* \"#utility.yul\":2138:2144   */\n      dup4\n        /* \"#utility.yul\":2104:2150   */\n      tag_236\n      jump\t// in\n    tag_324:\n        /* \"#utility.yul\":2182:2186   */\n      0x20\n        /* \"#utility.yul\":2177:2180   */\n      dup4\n        /* \"#utility.yul\":2173:2187   */\n      add\n        /* \"#utility.yul\":2159:2187   */\n      swap1\n      pop\n        /* \"#utility.yul\":2014:2193   */\n      swap3\n      swap2\n      pop\n      pop\n      jump\t// out\n        /* \"#utility.yul\":2199:2312   */\n    tag_238:\n        /* \"#utility.yul\":2269:2273   */\n      0x00\n        /* \"#utility.yul\":2301:2305   */\n      0x20\n        /* \"#utility.yul\":2296:2299   */\n      dup3\n        /* \"#utility.yul\":2292:2306   */\n      add\n        /* \"#utility.yul\":2284:2306   */\n      swap1\n      pop\n        /* \"#utility.yul\":2199:2312   */\n      swap2\n      swap1\n      pop\n      jump\t// out\n        /* \"#utility.yul\":2348:3080   */\n    tag_239:\n        /* \"#utility.yul\":2467:2470   */\n      0x00\n        /* \"#utility.yul\":2496:2550   */\n      tag_327\n        /* \"#utility.yul\":2544:2549   */\n      dup3\n        /* \"#utility.yul\":2496:2550   */\n      tag_233\n      jump\t// in\n    tag_327:\n        /* \"#utility.yul\":2566:2652   */\n      tag_328\n        /* \"#utility.yul\":2645:2651   */\n      dup2\n        /* \"#utility.yul\":2640:2643   */\n      dup6\n        /* \"#utility.yul\":2566:2652   */\n      tag_234\n      jump\t// in\n    tag_328:\n        /* \"#utility.yul\":2559:2652   */\n      swap4\n      pop\n        /* \"#utility.yul\":2676:2732   */\n      tag_329\n        /* \"#utility.yul\":2726:2731   */\n      dup4\n        /* \"#utility.yul\":2676:2732   */\n      tag_235\n      jump\t// in\n    tag_329:\n        /* \"#utility.yul\":2755:2762   */\n      dup1\n        /* \"#utility.yul\":2786:2787   */\n      0x00\n        /* \"#utility.yul\":2771:3055   */\n    tag_330:\n        /* \"#utility.yul\":2796:2802   */\n      dup4\n        /* \"#utility.yul\":2793:2794   */\n      dup2\n        /* \"#utility.yul\":2790:2803   */\n      lt\n        /* \"#utility.yul\":2771:3055   */\n      iszero\n      tag_332\n      jumpi\n        /* \"#utility.yul\":2872:2878   */\n      dup2\n        /* \"#utility.yul\":2866:2879   */\n      mload\n        /* \"#utility.yul\":2899:2962   */\n      tag_333\n        /* \"#utility.yul\":2958:2961   */\n      dup9\n        /* \"#utility.yul\":2943:2956   */\n      dup3\n        /* \"#utility.yul\":2899:2962   */\n      tag_237\n      jump\t// in\n    tag_333:\n        /* \"#utility.yul\":2892:2962   */\n      swap8\n      pop\n        /* \"#utility.yul\":2985:3045   */\n      tag_334\n        /* \"#utility.yul\":3038:3044   */\n      dup4\n        /* \"#utility.yul\":2985:3045   */\n      tag_238\n      jump\t// in\n    tag_334:\n        /* \"#utility.yul\":2975:3045   */\n      swap3\n      pop\n        /* \"#utility.yul\":2831:3055   */\n      pop\n        /* \"#utility.yul\":2818:2819   */\n      0x01\n        /* \"#utility.yul\":2815:2816   */\n      dup2\n        /* \"#utility.yul\":2811:2820   */\n      add\n        /* \"#utility.yul\":2806:2820   */\n      swap1\n      pop\n        /* \"#utility.yul\":2771:3055   */\n      jump(tag_330)\n    tag_332:\n        /* \"#utility.yul\":2775:2789   */\n      pop\n        /* \"#utility.yul\":3071:3074   */\n      dup6\n        /* \"#utility.yul\":3064:3074   */\n      swap4\n      pop\n        /* \"#utility.yul\":2472:3080   */\n      pop\n      pop\n      pop\n        /* \"#utility.yul\":2348:3080   */\n      swap3\n      swap2\n      pop\n      pop\n      jump\t// out\n        /* \"#utility.yul\":3086:3459   */\n    tag_30:\n        /* \"#utility.yul\":3229:3233   */\n      0x00\n        /* \"#utility.yul\":3267:3269   */\n      0x20\n        /* \"#utility.yul\":3256:3265   */\n      dup3\n        /* \"#utility.yul\":3252:3270   */\n      add\n        /* \"#utility.yul\":3244:3270   */\n      swap1\n      pop\n        /* \"#utility.yul\":3316:3325   */\n      dup2\n        /* \"#utility.yul\":3310:3314   */\n      dup2\n        /* \"#utility.yul\":3306:3326   */\n      sub\n        /* \"#utility.yul\":3302:3303   */\n      0x00\n        /* \"#utility.yul\":3291:3300   */\n      dup4\n        /* \"#utility.yul\":3287:3304   */\n      add\n        /* \"#utility.yul\":3280:3327   */\n      mstore\n        /* \"#utility.yul\":3344:3452   */\n      tag_336\n        /* \"#utility.yul\":3447:3451   */\n      dup2\n        /* \"#utility.yul\":3438:3444   */\n      dup5\n        /* \"#utility.yul\":3344:3452   */\n      tag_239\n      jump\t// in\n    tag_336:\n        /* \"#utility.yul\":3336:3452   */\n      swap1\n      pop\n        /* \"#utility.yul\":3086:3459   */\n      swap3\n      swap2\n      pop\n      pop\n      jump\t// out\n        /* \"#utility.yul\":3465:3583   */\n    tag_240:\n        /* \"#utility.yul\":3552:3576   */\n      tag_338\n        /* \"#utility.yul\":3570:3575   */\n      dup2\n        /* \"#utility.yul\":3552:3576   */\n      tag_228\n      jump\t// in\n    tag_338:\n        /* \"#utility.yul\":3547:3550   */\n      dup3\n        /* \"#utility.yul\":3540:3577   */\n      mstore\n        /* \"#utility.yul\":3465:3583   */\n      pop\n      pop\n      jump\t// out\n        /* \"#utility.yul\":3589:3811   */\n    tag_40:\n        /* \"#utility.yul\":3682:3686   */\n      0x00\n        /* \"#utility.yul\":3720:3722   */\n      0x20\n        /* \"#utility.yul\":3709:3718   */\n      dup3\n        /* \"#utility.yul\":3705:3723   */\n      add\n        /* \"#utility.yul\":3697:3723   */\n      swap1\n      pop\n        /* \"#utility.yul\":3733:3804   */\n      tag_340\n        /* \"#utility.yul\":3801:3802   */\n      0x00\n        /* \"#utility.yul\":3790:3799   */\n      dup4\n        /* \"#utility.yul\":3786:3803   */\n      add\n        /* \"#utility.yul\":3777:3783   */\n      dup5\n        /* \"#utility.yul\":3733:3804   */\n      tag_240\n      jump\t// in\n    tag_340:\n        /* \"#utility.yul\":3589:3811   */\n      swap3\n      swap2\n      pop\n      pop\n      jump\t// out\n        /* \"#utility.yul\":3817:3916   */\n    tag_241:\n        /* \"#utility.yul\":3869:3875   */\n      0x00\n        /* \"#utility.yul\":3903:3908   */\n      dup2\n        /* \"#utility.yul\":3897:3909   */\n      mload\n        /* \"#utility.yul\":3887:3909   */\n      swap1\n      pop\n        /* \"#utility.yul\":3817:3916   */\n      swap2\n      swap1\n      pop\n      jump\t// out\n        /* \"#utility.yul\":3922:4091   */\n    tag_242:\n        /* \"#utility.yul\":4006:4017   */\n      0x00\n        /* \"#utility.yul\":4040:4046   */\n      dup3\n        /* \"#utility.yul\":4035:4038   */\n      dup3\n        /* \"#utility.yul\":4028:4047   */\n      mstore\n        /* \"#utility.yul\":4080:4084   */\n      0x20\n        /* \"#utility.yul\":4075:4078   */\n      dup3\n        /* \"#utility.yul\":4071:4085   */\n      add\n        /* \"#utility.yul\":4056:4085   */\n      swap1\n      pop\n        /* \"#utility.yul\":3922:4091   */\n      swap3\n      swap2\n      pop\n      pop\n      jump\t// out\n        /* \"#utility.yul\":4097:4236   */\n    tag_243:\n        /* \"#utility.yul\":4186:4192   */\n      dup3\n        /* \"#utility.yul\":4181:4184   */\n      dup2\n        /* \"#utility.yul\":4176:4179   */\n      dup4\n        /* \"#utility.yul\":4170:4193   */\n      mcopy\n        /* \"#utility.yul\":4227:4228   */\n      0x00\n        /* \"#utility.yul\":4218:4224   */\n      dup4\n        /* \"#utility.yul\":4213:4216   */\n      dup4\n        /* \"#utility.yul\":4209:4225   */\n      add\n        /* \"#utility.yul\":4202:4229   */\n      mstore\n        /* \"#utility.yul\":4097:4236   */\n      pop\n      pop\n      pop\n      jump\t// out\n        /* \"#utility.yul\":4242:4344   */\n    tag_244:\n        /* \"#utility.yul\":4283:4289   */\n      0x00\n        /* \"#utility.yul\":4334:4336   */\n      0x1f\n        /* \"#utility.yul\":4330:4337   */\n      not\n        /* \"#utility.yul\":4325:4327   */\n      0x1f\n        /* \"#utility.yul\":4318:4323   */\n      dup4\n        /* \"#utility.yul\":4314:4328   */\n      add\n        /* \"#utility.yul\":4310:4338   */\n      and\n        /* \"#utility.yul\":4300:4338   */\n      swap1\n      pop\n        /* \"#utility.yul\":4242:4344   */\n      swap2\n      swap1\n      pop\n      jump\t// out\n        /* \"#utility.yul\":4350:4727   */\n    tag_245:\n        /* \"#utility.yul\":4438:4441   */\n      0x00\n        /* \"#utility.yul\":4466:4505   */\n      tag_346\n        /* \"#utility.yul\":4499:4504   */\n      dup3\n        /* \"#utility.yul\":4466:4505   */\n      tag_241\n      jump\t// in\n    tag_346:\n        /* \"#utility.yul\":4521:4592   */\n      tag_347\n        /* \"#utility.yul\":4585:4591   */\n      dup2\n        /* \"#utility.yul\":4580:4583   */\n      dup6\n        /* \"#utility.yul\":4521:4592   */\n      tag_242\n      jump\t// in\n    tag_347:\n        /* \"#utility.yul\":4514:4592   */\n      swap4\n      pop\n        /* \"#utility.yul\":4601:4666   */\n      tag_348\n        /* \"#utility.yul\":4659:4665   */\n      dup2\n        /* \"#utility.yul\":4654:4657   */\n      dup6\n        /* \"#utility.yul\":4647:4651   */\n      0x20\n        /* \"#utility.yul\":4640:4645   */\n      dup7\n        /* \"#utility.yul\":4636:4652   */\n      add\n        /* \"#utility.yul\":4601:4666   */\n      tag_243\n      jump\t// in\n    tag_348:\n        /* \"#utility.yul\":4691:4720   */\n      tag_349\n        /* \"#utility.yul\":4713:4719   */\n      dup2\n        /* \"#utility.yul\":4691:4720   */\n      tag_244\n      jump\t// in\n    tag_349:\n        /* \"#utility.yul\":4686:4689   */\n      dup5\n        /* \"#utility.yul\":4682:4721   */\n      add\n        /* \"#utility.yul\":4675:4721   */\n      swap2\n      pop\n        /* \"#utility.yul\":4442:4727   */\n      pop\n        /* \"#utility.yul\":4350:4727   */\n      swap3\n      swap2\n      pop\n      pop\n      jump\t// out\n        /* \"#utility.yul\":4733:5567   */\n    tag_50:\n        /* \"#utility.yul\":4972:4976   */\n      0x00\n        /* \"#utility.yul\":5010:5013   */\n      0xa0\n        /* \"#utility.yul\":4999:5008   */\n      dup3\n        /* \"#utility.yul\":4995:5014   */\n      add\n        /* \"#utility.yul\":4987:5014   */\n      swap1\n      pop\n        /* \"#utility.yul\":5060:5069   */\n      dup2\n        /* \"#utility.yul\":5054:5058   */\n      dup2\n        /* \"#utility.yul\":5050:5070   */\n      sub\n        /* \"#utility.yul\":5046:5047   */\n      0x00\n        /* \"#utility.yul\":5035:5044   */\n      dup4\n        /* \"#utility.yul\":5031:5048   */\n      add\n        /* \"#utility.yul\":5024:5071   */\n      mstore\n        /* \"#utility.yul\":5088:5166   */\n      tag_351\n        /* \"#utility.yul\":5161:5165   */\n      dup2\n        /* \"#utility.yul\":5152:5158   */\n      dup9\n        /* \"#utility.yul\":5088:5166   */\n      tag_245\n      jump\t// in\n    tag_351:\n        /* \"#utility.yul\":5080:5166   */\n      swap1\n      pop\n        /* \"#utility.yul\":5213:5222   */\n      dup2\n        /* \"#utility.yul\":5207:5211   */\n      dup2\n        /* \"#utility.yul\":5203:5223   */\n      sub\n        /* \"#utility.yul\":5198:5200   */\n      0x20\n        /* \"#utility.yul\":5187:5196   */\n      dup4\n        /* \"#utility.yul\":5183:5201   */\n      add\n        /* \"#utility.yul\":5176:5224   */\n      mstore\n        /* \"#utility.yul\":5241:5319   */\n      tag_352\n        /* \"#utility.yul\":5314:5318   */\n      dup2\n        /* \"#utility.yul\":5305:5311   */\n      dup8\n        /* \"#utility.yul\":5241:5319   */\n      tag_245\n      jump\t// in\n    tag_352:\n        /* \"#utility.yul\":5233:5319   */\n      swap1\n      pop\n        /* \"#utility.yul\":5329:5401   */\n      tag_353\n        /* \"#utility.yul\":5397:5399   */\n      0x40\n        /* \"#utility.yul\":5386:5395   */\n      dup4\n        /* \"#utility.yul\":5382:5400   */\n      add\n        /* \"#utility.yul\":5373:5379   */\n      dup7\n        /* \"#utility.yul\":5329:5401   */\n      tag_240\n      jump\t// in\n    tag_353:\n        /* \"#utility.yul\":5411:5483   */\n      tag_354\n        /* \"#utility.yul\":5479:5481   */\n      0x60\n        /* \"#utility.yul\":5468:5477   */\n      dup4\n        /* \"#utility.yul\":5464:5482   */\n      add\n        /* \"#utility.yul\":5455:5461   */\n      dup6\n        /* \"#utility.yul\":5411:5483   */\n      tag_240\n      jump\t// in\n    tag_354:\n        /* \"#utility.yul\":5493:5560   */\n      tag_355\n        /* \"#utility.yul\":5555:5558   */\n      0x80\n        /* \"#utility.yul\":5544:5553   */\n      dup4\n        /* \"#utility.yul\":5540:5559   */\n      add\n        /* \"#utility.yul\":5531:5537   */\n      dup5\n        /* \"#utility.yul\":5493:5560   */\n      tag_232\n      jump\t// in\n    tag_355:\n        /* \"#utility.yul\":4733:5567   */\n      swap7\n      swap6\n      pop\n      pop\n      pop\n      pop\n      pop\n      pop\n      jump\t// out\n        /* \"#utility.yul\":5573:5662   */\n    tag_246:\n        /* \"#utility.yul\":5609:5616   */\n      0x00\n        /* \"#utility.yul\":5649:5655   */\n      0xffff\n        /* \"#utility.yul\":5642:5647   */\n      dup3\n        /* \"#utility.yul\":5638:5656   */\n      and\n        /* \"#utility.yul\":5627:5656   */\n      swap1\n      pop\n        /* \"#utility.yul\":5573:5662   */\n      swap2\n      swap1\n      pop\n      jump\t// out\n        /* \"#utility.yul\":5668:5783   */\n    tag_247:\n        /* \"#utility.yul\":5753:5776   */\n      tag_358\n        /* \"#utility.yul\":5770:5775   */\n      dup2\n        /* \"#utility.yul\":5753:5776   */\n      tag_246\n      jump\t// in\n    tag_358:\n        /* \"#utility.yul\":5748:5751   */\n      dup3\n        /* \"#utility.yul\":5741:5777   */\n      mstore\n        /* \"#utility.yul\":5668:5783   */\n      pop\n      pop\n      jump\t// out\n        /* \"#utility.yul\":5789:6619   */\n    tag_56:\n        /* \"#utility.yul\":6026:6030   */\n      0x00\n        /* \"#utility.yul\":6064:6067   */\n      0xa0\n        /* \"#utility.yul\":6053:6062   */\n      dup3\n        /* \"#utility.yul\":6049:6068   */\n      add\n        /* \"#utility.yul\":6041:6068   */\n      swap1\n      pop\n        /* \"#utility.yul\":6114:6123   */\n      dup2\n        /* \"#utility.yul\":6108:6112   */\n      dup2\n        /* \"#utility.yul\":6104:6124   */\n      sub\n        /* \"#utility.yul\":6100:6101   */\n      0x00\n        /* \"#utility.yul\":6089:6098   */\n      dup4\n        /* \"#utility.yul\":6085:6102   */\n      add\n        /* \"#utility.yul\":6078:6125   */\n      mstore\n        /* \"#utility.yul\":6142:6220   */\n      tag_360\n        /* \"#utility.yul\":6215:6219   */\n      dup2\n        /* \"#utility.yul\":6206:6212   */\n      dup9\n        /* \"#utility.yul\":6142:6220   */\n      tag_245\n      jump\t// in\n    tag_360:\n        /* \"#utility.yul\":6134:6220   */\n      swap1\n      pop\n        /* \"#utility.yul\":6267:6276   */\n      dup2\n        /* \"#utility.yul\":6261:6265   */\n      dup2\n        /* \"#utility.yul\":6257:6277   */\n      sub\n        /* \"#utility.yul\":6252:6254   */\n      0x20\n        /* \"#utility.yul\":6241:6250   */\n      dup4\n        /* \"#utility.yul\":6237:6255   */\n      add\n        /* \"#utility.yul\":6230:6278   */\n      mstore\n        /* \"#utility.yul\":6295:6373   */\n      tag_361\n        /* \"#utility.yul\":6368:6372   */\n      dup2\n        /* \"#utility.yul\":6359:6365   */\n      dup8\n        /* \"#utility.yul\":6295:6373   */\n      tag_245\n      jump\t// in\n    tag_361:\n        /* \"#utility.yul\":6287:6373   */\n      swap1\n      pop\n        /* \"#utility.yul\":6383:6453   */\n      tag_362\n        /* \"#utility.yul\":6449:6451   */\n      0x40\n        /* \"#utility.yul\":6438:6447   */\n      dup4\n        /* \"#utility.yul\":6434:6452   */\n      add\n        /* \"#utility.yul\":6425:6431   */\n      dup7\n        /* \"#utility.yul\":6383:6453   */\n      tag_247\n      jump\t// in\n    tag_362:\n        /* \"#utility.yul\":6463:6535   */\n      tag_363\n        /* \"#utility.yul\":6531:6533   */\n      0x60\n        /* \"#utility.yul\":6520:6529   */\n      dup4\n        /* \"#utility.yul\":6516:6534   */\n      add\n        /* \"#utility.yul\":6507:6513   */\n      dup6\n        /* \"#utility.yul\":6463:6535   */\n      tag_240\n      jump\t// in\n    tag_363:\n        /* \"#utility.yul\":6545:6612   */\n      tag_364\n        /* \"#utility.yul\":6607:6610   */\n      0x80\n        /* \"#utility.yul\":6596:6605   */\n      dup4\n        /* \"#utility.yul\":6592:6611   */\n      add\n        /* \"#utility.yul\":6583:6589   */\n      dup5\n        /* \"#utility.yul\":6545:6612   */\n      tag_232\n      jump\t// in\n    tag_364:\n        /* \"#utility.yul\":5789:6619   */\n      swap7\n      swap6\n      pop\n      pop\n      pop\n      pop\n      pop\n      pop\n      jump\t// out\n        /* \"#utility.yul\":6625:6751   */\n    tag_248:\n        /* \"#utility.yul\":6662:6669   */\n      0x00\n        /* \"#utility.yul\":6702:6744   */\n      0xffffffffffffffffffffffffffffffffffffffff\n        /* \"#utility.yul\":6695:6700   */\n      dup3\n        /* \"#utility.yul\":6691:6745   */\n      and\n        /* \"#utility.yul\":6680:6745   */\n      swap1\n      pop\n        /* \"#utility.yul\":6625:6751   */\n      swap2\n      swap1\n      pop\n      jump\t// out\n        /* \"#utility.yul\":6757:6853   */\n    tag_249:\n        /* \"#utility.yul\":6794:6801   */\n      0x00\n        /* \"#utility.yul\":6823:6847   */\n      tag_367\n        /* \"#utility.yul\":6841:6846   */\n      dup3\n        /* \"#utility.yul\":6823:6847   */\n      tag_248\n      jump\t// in\n    tag_367:\n        /* \"#utility.yul\":6812:6847   */\n      swap1\n      pop\n        /* \"#utility.yul\":6757:6853   */\n      swap2\n      swap1\n      pop\n      jump\t// out\n        /* \"#utility.yul\":6859:6977   */\n    tag_250:\n        /* \"#utility.yul\":6946:6970   */\n      tag_369\n        /* \"#utility.yul\":6964:6969   */\n      dup2\n        /* \"#utility.yul\":6946:6970   */\n      tag_249\n      jump\t// in\n    tag_369:\n        /* \"#utility.yul\":6941:6944   */\n      dup3\n        /* \"#utility.yul\":6934:6971   */\n      mstore\n        /* \"#utility.yul\":6859:6977   */\n      pop\n      pop\n      jump\t// out\n        /* \"#utility.yul\":6983:7205   */\n    tag_61:\n        /* \"#utility.yul\":7076:7080   */\n      0x00\n        /* \"#utility.yul\":7114:7116   */\n      0x20\n        /* \"#utility.yul\":7103:7112   */\n      dup3\n        /* \"#utility.yul\":7099:7117   */\n      add\n        /* \"#utility.yul\":7091:7117   */\n      swap1\n      pop\n        /* \"#utility.yul\":7127:7198   */\n      tag_371\n        /* \"#utility.yul\":7195:7196   */\n      0x00\n        /* \"#utility.yul\":7184:7193   */\n      dup4\n        /* \"#utility.yul\":7180:7197   */\n      add\n        /* \"#utility.yul\":7171:7177   */\n      dup5\n        /* \"#utility.yul\":7127:7198   */\n      tag_250\n      jump\t// in\n    tag_371:\n        /* \"#utility.yul\":6983:7205   */\n      swap3\n      swap2\n      pop\n      pop\n      jump\t// out\n        /* \"#utility.yul\":7211:7328   */\n    tag_251:\n        /* \"#utility.yul\":7320:7321   */\n      0x00\n        /* \"#utility.yul\":7317:7318   */\n      dup1\n        /* \"#utility.yul\":7310:7322   */\n      revert\n        /* \"#utility.yul\":7334:7451   */\n    tag_252:\n        /* \"#utility.yul\":7443:7444   */\n      0x00\n        /* \"#utility.yul\":7440:7441   */\n      dup1\n        /* \"#utility.yul\":7433:7445   */\n      revert\n        /* \"#utility.yul\":7457:7637   */\n    tag_253:\n        /* \"#utility.yul\":7505:7582   */\n      0x4e487b7100000000000000000000000000000000000000000000000000000000\n        /* \"#utility.yul\":7502:7503   */\n      0x00\n        /* \"#utility.yul\":7495:7583   */\n      mstore\n        /* \"#utility.yul\":7602:7606   */\n      0x41\n        /* \"#utility.yul\":7599:7600   */\n      0x04\n        /* \"#utility.yul\":7592:7607   */\n      mstore\n        /* \"#utility.yul\":7626:7630   */\n      0x24\n        /* \"#utility.yul\":7623:7624   */\n      0x00\n        /* \"#utility.yul\":7616:7631   */\n      revert\n        /* \"#utility.yul\":7643:7924   */\n    tag_254:\n        /* \"#utility.yul\":7726:7753   */\n      tag_376\n        /* \"#utility.yul\":7748:7752   */\n      dup3\n        /* \"#utility.yul\":7726:7753   */\n      tag_244\n      jump\t// in\n    tag_376:\n        /* \"#utility.yul\":7718:7724   */\n      dup2\n        /* \"#utility.yul\":7714:7754   */\n      add\n        /* \"#utility.yul\":7856:7862   */\n      dup2\n        /* \"#utility.yul\":7844:7854   */\n      dup2\n        /* \"#utility.yul\":7841:7863   */\n      lt\n        /* \"#utility.yul\":7820:7838   */\n      0xffffffffffffffff\n        /* \"#utility.yul\":7808:7818   */\n      dup3\n        /* \"#utility.yul\":7805:7839   */\n      gt\n        /* \"#utility.yul\":7802:7864   */\n      or\n        /* \"#utility.yul\":7799:7887   */\n      iszero\n      tag_377\n      jumpi\n        /* \"#utility.yul\":7867:7885   */\n      tag_378\n      tag_253\n      jump\t// in\n    tag_378:\n        /* \"#utility.yul\":7799:7887   */\n    tag_377:\n        /* \"#utility.yul\":7907:7917   */\n      dup1\n        /* \"#utility.yul\":7903:7905   */\n      0x40\n        /* \"#utility.yul\":7896:7918   */\n      mstore\n        /* \"#utility.yul\":7686:7924   */\n      pop\n        /* \"#utility.yul\":7643:7924   */\n      pop\n      pop\n      jump\t// out\n        /* \"#utility.yul\":7930:8059   */\n    tag_255:\n        /* \"#utility.yul\":7964:7970   */\n      0x00\n        /* \"#utility.yul\":7991:8011   */\n      tag_380\n      tag_225\n      jump\t// in\n    tag_380:\n        /* \"#utility.yul\":7981:8011   */\n      swap1\n      pop\n        /* \"#utility.yul\":8020:8053   */\n      tag_381\n        /* \"#utility.yul\":8048:8052   */\n      dup3\n        /* \"#utility.yul\":8040:8046   */\n      dup3\n        /* \"#utility.yul\":8020:8053   */\n      tag_254\n      jump\t// in\n    tag_381:\n        /* \"#utility.yul\":7930:8059   */\n      swap2\n      swap1\n      pop\n      jump\t// out\n        /* \"#utility.yul\":8065:8373   */\n    tag_256:\n        /* \"#utility.yul\":8127:8131   */\n      0x00\n        /* \"#utility.yul\":8217:8235   */\n      0xffffffffffffffff\n        /* \"#utility.yul\":8209:8215   */\n      dup3\n        /* \"#utility.yul\":8206:8236   */\n      gt\n        /* \"#utility.yul\":8203:8259   */\n      iszero\n      tag_383\n      jumpi\n        /* \"#utility.yul\":8239:8257   */\n      tag_384\n      tag_253\n      jump\t// in\n    tag_384:\n        /* \"#utility.yul\":8203:8259   */\n    tag_383:\n        /* \"#utility.yul\":8277:8306   */\n      tag_385\n        /* \"#utility.yul\":8299:8305   */\n      dup3\n        /* \"#utility.yul\":8277:8306   */\n      tag_244\n      jump\t// in\n    tag_385:\n        /* \"#utility.yul\":8269:8306   */\n      swap1\n      pop\n        /* \"#utility.yul\":8361:8365   */\n      0x20\n        /* \"#utility.yul\":8355:8359   */\n      dup2\n        /* \"#utility.yul\":8351:8366   */\n      add\n        /* \"#utility.yul\":8343:8366   */\n      swap1\n      pop\n        /* \"#utility.yul\":8065:8373   */\n      swap2\n      swap1\n      pop\n      jump\t// out\n        /* \"#utility.yul\":8379:8527   */\n    tag_257:\n        /* \"#utility.yul\":8477:8483   */\n      dup3\n        /* \"#utility.yul\":8472:8475   */\n      dup2\n        /* \"#utility.yul\":8467:8470   */\n      dup4\n        /* \"#utility.yul\":8454:8484   */\n      calldatacopy\n        /* \"#utility.yul\":8518:8519   */\n      0x00\n        /* \"#utility.yul\":8509:8515   */\n      dup4\n        /* \"#utility.yul\":8504:8507   */\n      dup4\n        /* \"#utility.yul\":8500:8516   */\n      add\n        /* \"#utility.yul\":8493:8520   */\n      mstore\n        /* \"#utility.yul\":8379:8527   */\n      pop\n      pop\n      pop\n      jump\t// out\n        /* \"#utility.yul\":8533:8958   */\n    tag_258:\n        /* \"#utility.yul\":8611:8616   */\n      0x00\n        /* \"#utility.yul\":8636:8702   */\n      tag_388\n        /* \"#utility.yul\":8652:8701   */\n      tag_389\n        /* \"#utility.yul\":8694:8700   */\n      dup5\n        /* \"#utility.yul\":8652:8701   */\n      tag_256\n      jump\t// in\n    tag_389:\n        /* \"#utility.yul\":8636:8702   */\n      tag_255\n      jump\t// in\n    tag_388:\n        /* \"#utility.yul\":8627:8702   */\n      swap1\n      pop\n        /* \"#utility.yul\":8725:8731   */\n      dup3\n        /* \"#utility.yul\":8718:8723   */\n      dup2\n        /* \"#utility.yul\":8711:8732   */\n      mstore\n        /* \"#utility.yul\":8763:8767   */\n      0x20\n        /* \"#utility.yul\":8756:8761   */\n      dup2\n        /* \"#utility.yul\":8752:8768   */\n      add\n        /* \"#utility.yul\":8801:8804   */\n      dup5\n        /* \"#utility.yul\":8792:8798   */\n      dup5\n        /* \"#utility.yul\":8787:8790   */\n      dup5\n        /* \"#utility.yul\":8783:8799   */\n      add\n        /* \"#utility.yul\":8780:8805   */\n      gt\n        /* \"#utility.yul\":8777:8889   */\n      iszero\n      tag_390\n      jumpi\n        /* \"#utility.yul\":8808:8887   */\n      tag_391\n      tag_252\n      jump\t// in\n    tag_391:\n        /* \"#utility.yul\":8777:8889   */\n    tag_390:\n        /* \"#utility.yul\":8898:8952   */\n      tag_392\n        /* \"#utility.yul\":8945:8951   */\n      dup5\n        /* \"#utility.yul\":8940:8943   */\n      dup3\n        /* \"#utility.yul\":8935:8938   */\n      dup6\n        /* \"#utility.yul\":8898:8952   */\n      tag_257\n      jump\t// in\n    tag_392:\n        /* \"#utility.yul\":8617:8958   */\n      pop\n        /* \"#utility.yul\":8533:8958   */\n      swap4\n      swap3\n      pop\n      pop\n      pop\n      jump\t// out\n        /* \"#utility.yul\":8978:9318   */\n    tag_259:\n        /* \"#utility.yul\":9034:9039   */\n      0x00\n        /* \"#utility.yul\":9083:9086   */\n      dup3\n        /* \"#utility.yul\":9076:9080   */\n      0x1f\n        /* \"#utility.yul\":9068:9074   */\n      dup4\n        /* \"#utility.yul\":9064:9081   */\n      add\n        /* \"#utility.yul\":9060:9087   */\n      slt\n        /* \"#utility.yul\":9050:9172   */\n      tag_394\n      jumpi\n        /* \"#utility.yul\":9091:9170   */\n      tag_395\n      tag_251\n      jump\t// in\n    tag_395:\n        /* \"#utility.yul\":9050:9172   */\n    tag_394:\n        /* \"#utility.yul\":9208:9214   */\n      dup2\n        /* \"#utility.yul\":9195:9215   */\n      calldataload\n        /* \"#utility.yul\":9233:9312   */\n      tag_396\n        /* \"#utility.yul\":9308:9311   */\n      dup5\n        /* \"#utility.yul\":9300:9306   */\n      dup3\n        /* \"#utility.yul\":9293:9297   */\n      0x20\n        /* \"#utility.yul\":9285:9291   */\n      dup7\n        /* \"#utility.yul\":9281:9298   */\n      add\n        /* \"#utility.yul\":9233:9312   */\n      tag_258\n      jump\t// in\n    tag_396:\n        /* \"#utility.yul\":9224:9312   */\n      swap2\n      pop\n        /* \"#utility.yul\":9040:9318   */\n      pop\n        /* \"#utility.yul\":8978:9318   */\n      swap3\n      swap2\n      pop\n      pop\n      jump\t// out\n        /* \"#utility.yul\":9324:9444   */\n    tag_260:\n        /* \"#utility.yul\":9396:9419   */\n      tag_398\n        /* \"#utility.yul\":9413:9418   */\n      dup2\n        /* \"#utility.yul\":9396:9419   */\n      tag_246\n      jump\t// in\n    tag_398:\n        /* \"#utility.yul\":9389:9394   */\n      dup2\n        /* \"#utility.yul\":9386:9420   */\n      eq\n        /* \"#utility.yul\":9376:9438   */\n      tag_399\n      jumpi\n        /* \"#utility.yul\":9434:9435   */\n      0x00\n        /* \"#utility.yul\":9431:9432   */\n      dup1\n        /* \"#utility.yul\":9424:9436   */\n      revert\n        /* \"#utility.yul\":9376:9438   */\n    tag_399:\n        /* \"#utility.yul\":9324:9444   */\n      pop\n      jump\t// out\n        /* \"#utility.yul\":9450:9587   */\n    tag_261:\n        /* \"#utility.yul\":9495:9500   */\n      0x00\n        /* \"#utility.yul\":9533:9539   */\n      dup2\n        /* \"#utility.yul\":9520:9540   */\n      calldataload\n        /* \"#utility.yul\":9511:9540   */\n      swap1\n      pop\n        /* \"#utility.yul\":9549:9581   */\n      tag_401\n        /* \"#utility.yul\":9575:9580   */\n      dup2\n        /* \"#utility.yul\":9549:9581   */\n      tag_260\n      jump\t// in\n    tag_401:\n        /* \"#utility.yul\":9450:9587   */\n      swap3\n      swap2\n      pop\n      pop\n      jump\t// out\n        /* \"#utility.yul\":9593:10862   */\n    tag_73:\n        /* \"#utility.yul\":9707:9713   */\n      0x00\n        /* \"#utility.yul\":9715:9721   */\n      dup1\n        /* \"#utility.yul\":9723:9729   */\n      0x00\n        /* \"#utility.yul\":9731:9737   */\n      dup1\n        /* \"#utility.yul\":9739:9745   */\n      0x00\n        /* \"#utility.yul\":9788:9791   */\n      0xa0\n        /* \"#utility.yul\":9776:9785   */\n      dup7\n        /* \"#utility.yul\":9767:9774   */\n      dup9\n        /* \"#utility.yul\":9763:9786   */\n      sub\n        /* \"#utility.yul\":9759:9792   */\n      slt\n        /* \"#utility.yul\":9756:9876   */\n      iszero\n      tag_403\n      jumpi\n        /* \"#utility.yul\":9795:9874   */\n      tag_404\n      tag_226\n      jump\t// in\n    tag_404:\n        /* \"#utility.yul\":9756:9876   */\n    tag_403:\n        /* \"#utility.yul\":9915:9916   */\n      0x00\n        /* \"#utility.yul\":9940:9993   */\n      tag_405\n        /* \"#utility.yul\":9985:9992   */\n      dup9\n        /* \"#utility.yul\":9976:9982   */\n      dup3\n        /* \"#utility.yul\":9965:9974   */\n      dup10\n        /* \"#utility.yul\":9961:9983   */\n      add\n        /* \"#utility.yul\":9940:9993   */\n      tag_230\n      jump\t// in\n    tag_405:\n        /* \"#utility.yul\":9930:9993   */\n      swap6\n      pop\n        /* \"#utility.yul\":9886:10003   */\n      pop\n        /* \"#utility.yul\":10070:10072   */\n      0x20\n        /* \"#utility.yul\":10059:10068   */\n      dup7\n        /* \"#utility.yul\":10055:10073   */\n      add\n        /* \"#utility.yul\":10042:10074   */\n      calldataload\n        /* \"#utility.yul\":10101:10119   */\n      0xffffffffffffffff\n        /* \"#utility.yul\":10093:10099   */\n      dup2\n        /* \"#utility.yul\":10090:10120   */\n      gt\n        /* \"#utility.yul\":10087:10204   */\n      iszero\n      tag_406\n      jumpi\n        /* \"#utility.yul\":10123:10202   */\n      tag_407\n      tag_227\n      jump\t// in\n    tag_407:\n        /* \"#utility.yul\":10087:10204   */\n    tag_406:\n        /* \"#utility.yul\":10228:10291   */\n      tag_408\n        /* \"#utility.yul\":10283:10290   */\n      dup9\n        /* \"#utility.yul\":10274:10280   */\n      dup3\n        /* \"#utility.yul\":10263:10272   */\n      dup10\n        /* \"#utility.yul\":10259:10281   */\n      add\n        /* \"#utility.yul\":10228:10291   */\n      tag_259\n      jump\t// in\n    tag_408:\n        /* \"#utility.yul\":10218:10291   */\n      swap5\n      pop\n        /* \"#utility.yul\":10013:10301   */\n      pop\n        /* \"#utility.yul\":10368:10370   */\n      0x40\n        /* \"#utility.yul\":10357:10366   */\n      dup7\n        /* \"#utility.yul\":10353:10371   */\n      add\n        /* \"#utility.yul\":10340:10372   */\n      calldataload\n        /* \"#utility.yul\":10399:10417   */\n      0xffffffffffffffff\n        /* \"#utility.yul\":10391:10397   */\n      dup2\n        /* \"#utility.yul\":10388:10418   */\n      gt\n        /* \"#utility.yul\":10385:10502   */\n      iszero\n      tag_409\n      jumpi\n        /* \"#utility.yul\":10421:10500   */\n      tag_410\n      tag_227\n      jump\t// in\n    tag_410:\n        /* \"#utility.yul\":10385:10502   */\n    tag_409:\n        /* \"#utility.yul\":10526:10589   */\n      tag_411\n        /* \"#utility.yul\":10581:10588   */\n      dup9\n        /* \"#utility.yul\":10572:10578   */\n      dup3\n        /* \"#utility.yul\":10561:10570   */\n      dup10\n        /* \"#utility.yul\":10557:10579   */\n      add\n        /* \"#utility.yul\":10526:10589   */\n      tag_259\n      jump\t// in\n    tag_411:\n        /* \"#utility.yul\":10516:10589   */\n      swap4\n      pop\n        /* \"#utility.yul\":10311:10599   */\n      pop\n        /* \"#utility.yul\":10638:10640   */\n      0x60\n        /* \"#utility.yul\":10664:10717   */\n      tag_412\n        /* \"#utility.yul\":10709:10716   */\n      dup9\n        /* \"#utility.yul\":10700:10706   */\n      dup3\n        /* \"#utility.yul\":10689:10698   */\n      dup10\n        /* \"#utility.yul\":10685:10707   */\n      add\n        /* \"#utility.yul\":10664:10717   */\n      tag_230\n      jump\t// in\n    tag_412:\n        /* \"#utility.yul\":10654:10717   */\n      swap3\n      pop\n        /* \"#utility.yul\":10609:10727   */\n      pop\n        /* \"#utility.yul\":10766:10769   */\n      0x80\n        /* \"#utility.yul\":10793:10845   */\n      tag_413\n        /* \"#utility.yul\":10837:10844   */\n      dup9\n        /* \"#utility.yul\":10828:10834   */\n      dup3\n        /* \"#utility.yul\":10817:10826   */\n      dup10\n        /* \"#utility.yul\":10813:10835   */\n      add\n        /* \"#utility.yul\":10793:10845   */\n      tag_261\n      jump\t// in\n    tag_413:\n        /* \"#utility.yul\":10783:10845   */\n      swap2\n      pop\n        /* \"#utility.yul\":10737:10855   */\n      pop\n        /* \"#utility.yul\":9593:10862   */\n      swap3\n      swap6\n      pop\n      swap3\n      swap6\n      swap1\n      swap4\n      pop\n      jump\t// out\n        /* \"#utility.yul\":10868:11487   */\n    tag_77:\n        /* \"#utility.yul\":10945:10951   */\n      0x00\n        /* \"#utility.yul\":10953:10959   */\n      dup1\n        /* \"#utility.yul\":10961:10967   */\n      0x00\n        /* \"#utility.yul\":11010:11012   */\n      0x60\n        /* \"#utility.yul\":10998:11007   */\n      dup5\n        /* \"#utility.yul\":10989:10996   */\n      dup7\n        /* \"#utility.yul\":10985:11008   */\n      sub\n        /* \"#utility.yul\":10981:11013   */\n      slt\n        /* \"#utility.yul\":10978:11097   */\n      iszero\n      tag_415\n      jumpi\n        /* \"#utility.yul\":11016:11095   */\n      tag_416\n      tag_226\n      jump\t// in\n    tag_416:\n        /* \"#utility.yul\":10978:11097   */\n    tag_415:\n        /* \"#utility.yul\":11136:11137   */\n      0x00\n        /* \"#utility.yul\":11161:11214   */\n      tag_417\n        /* \"#utility.yul\":11206:11213   */\n      dup7\n        /* \"#utility.yul\":11197:11203   */\n      dup3\n        /* \"#utility.yul\":11186:11195   */\n      dup8\n        /* \"#utility.yul\":11182:11204   */\n      add\n        /* \"#utility.yul\":11161:11214   */\n      tag_230\n      jump\t// in\n    tag_417:\n        /* \"#utility.yul\":11151:11214   */\n      swap4\n      pop\n        /* \"#utility.yul\":11107:11224   */\n      pop\n        /* \"#utility.yul\":11263:11265   */\n      0x20\n        /* \"#utility.yul\":11289:11342   */\n      tag_418\n        /* \"#utility.yul\":11334:11341   */\n      dup7\n        /* \"#utility.yul\":11325:11331   */\n      dup3\n        /* \"#utility.yul\":11314:11323   */\n      dup8\n        /* \"#utility.yul\":11310:11332   */\n      add\n        /* \"#utility.yul\":11289:11342   */\n      tag_230\n      jump\t// in\n    tag_418:\n        /* \"#utility.yul\":11279:11342   */\n      swap3\n      pop\n        /* \"#utility.yul\":11234:11352   */\n      pop\n        /* \"#utility.yul\":11391:11393   */\n      0x40\n        /* \"#utility.yul\":11417:11470   */\n      tag_419\n        /* \"#utility.yul\":11462:11469   */\n      dup7\n        /* \"#utility.yul\":11453:11459   */\n      dup3\n        /* \"#utility.yul\":11442:11451   */\n      dup8\n        /* \"#utility.yul\":11438:11460   */\n      add\n        /* \"#utility.yul\":11417:11470   */\n      tag_230\n      jump\t// in\n    tag_419:\n        /* \"#utility.yul\":11407:11470   */\n      swap2\n      pop\n        /* \"#utility.yul\":11362:11480   */\n      pop\n        /* \"#utility.yul\":10868:11487   */\n      swap3\n      pop\n      swap3\n      pop\n      swap3\n      jump\t// out\n        /* \"#utility.yul\":11493:11804   */\n    tag_262:\n        /* \"#utility.yul\":11570:11574   */\n      0x00\n        /* \"#utility.yul\":11660:11678   */\n      0xffffffffffffffff\n        /* \"#utility.yul\":11652:11658   */\n      dup3\n        /* \"#utility.yul\":11649:11679   */\n      gt\n        /* \"#utility.yul\":11646:11702   */\n      iszero\n      tag_421\n      jumpi\n        /* \"#utility.yul\":11682:11700   */\n      tag_422\n      tag_253\n      jump\t// in\n    tag_422:\n        /* \"#utility.yul\":11646:11702   */\n    tag_421:\n        /* \"#utility.yul\":11732:11736   */\n      0x20\n        /* \"#utility.yul\":11724:11730   */\n      dup3\n        /* \"#utility.yul\":11720:11737   */\n      mul\n        /* \"#utility.yul\":11712:11737   */\n      swap1\n      pop\n        /* \"#utility.yul\":11792:11796   */\n      0x20\n        /* \"#utility.yul\":11786:11790   */\n      dup2\n        /* \"#utility.yul\":11782:11797   */\n      add\n        /* \"#utility.yul\":11774:11797   */\n      swap1\n      pop\n        /* \"#utility.yul\":11493:11804   */\n      swap2\n      swap1\n      pop\n      jump\t// out\n        /* \"#utility.yul\":11810:11927   */\n    tag_263:\n        /* \"#utility.yul\":11919:11920   */\n      0x00\n        /* \"#utility.yul\":11916:11917   */\n      dup1\n        /* \"#utility.yul\":11909:11921   */\n      revert\n        /* \"#utility.yul\":11950:12660   */\n    tag_264:\n        /* \"#utility.yul\":12046:12051   */\n      0x00\n        /* \"#utility.yul\":12071:12152   */\n      tag_425\n        /* \"#utility.yul\":12087:12151   */\n      tag_426\n        /* \"#utility.yul\":12144:12150   */\n      dup5\n        /* \"#utility.yul\":12087:12151   */\n      tag_262\n      jump\t// in\n    tag_426:\n        /* \"#utility.yul\":12071:12152   */\n      tag_255\n      jump\t// in\n    tag_425:\n        /* \"#utility.yul\":12062:12152   */\n      swap1\n      pop\n        /* \"#utility.yul\":12172:12177   */\n      dup1\n        /* \"#utility.yul\":12201:12207   */\n      dup4\n        /* \"#utility.yul\":12194:12199   */\n      dup3\n        /* \"#utility.yul\":12187:12208   */\n      mstore\n        /* \"#utility.yul\":12235:12239   */\n      0x20\n        /* \"#utility.yul\":12228:12233   */\n      dup3\n        /* \"#utility.yul\":12224:12240   */\n      add\n        /* \"#utility.yul\":12217:12240   */\n      swap1\n      pop\n        /* \"#utility.yul\":12288:12292   */\n      0x20\n        /* \"#utility.yul\":12280:12286   */\n      dup5\n        /* \"#utility.yul\":12276:12293   */\n      mul\n        /* \"#utility.yul\":12268:12274   */\n      dup4\n        /* \"#utility.yul\":12264:12294   */\n      add\n        /* \"#utility.yul\":12317:12320   */\n      dup6\n        /* \"#utility.yul\":12309:12315   */\n      dup2\n        /* \"#utility.yul\":12306:12321   */\n      gt\n        /* \"#utility.yul\":12303:12425   */\n      iszero\n      tag_427\n      jumpi\n        /* \"#utility.yul\":12336:12415   */\n      tag_428\n      tag_263\n      jump\t// in\n    tag_428:\n        /* \"#utility.yul\":12303:12425   */\n    tag_427:\n        /* \"#utility.yul\":12451:12457   */\n      dup4\n        /* \"#utility.yul\":12434:12654   */\n    tag_429:\n        /* \"#utility.yul\":12468:12474   */\n      dup2\n        /* \"#utility.yul\":12463:12466   */\n      dup2\n        /* \"#utility.yul\":12460:12475   */\n      lt\n        /* \"#utility.yul\":12434:12654   */\n      iszero\n      tag_431\n      jumpi\n        /* \"#utility.yul\":12543:12546   */\n      dup1\n        /* \"#utility.yul\":12572:12609   */\n      tag_432\n        /* \"#utility.yul\":12605:12608   */\n      dup9\n        /* \"#utility.yul\":12593:12603   */\n      dup3\n        /* \"#utility.yul\":12572:12609   */\n      tag_230\n      jump\t// in\n    tag_432:\n        /* \"#utility.yul\":12567:12570   */\n      dup5\n        /* \"#utility.yul\":12560:12610   */\n      mstore\n        /* \"#utility.yul\":12639:12643   */\n      0x20\n        /* \"#utility.yul\":12634:12637   */\n      dup5\n        /* \"#utility.yul\":12630:12644   */\n      add\n        /* \"#utility.yul\":12623:12644   */\n      swap4\n      pop\n        /* \"#utility.yul\":12510:12654   */\n      pop\n        /* \"#utility.yul\":12494:12498   */\n      0x20\n        /* \"#utility.yul\":12489:12492   */\n      dup2\n        /* \"#utility.yul\":12485:12499   */\n      add\n        /* \"#utility.yul\":12478:12499   */\n      swap1\n      pop\n        /* \"#utility.yul\":12434:12654   */\n      jump(tag_429)\n    tag_431:\n        /* \"#utility.yul\":12438:12459   */\n      pop\n        /* \"#utility.yul\":12052:12660   */\n      pop\n      pop\n        /* \"#utility.yul\":11950:12660   */\n      swap4\n      swap3\n      pop\n      pop\n      pop\n      jump\t// out\n        /* \"#utility.yul\":12683:13053   */\n    tag_265:\n        /* \"#utility.yul\":12754:12759   */\n      0x00\n        /* \"#utility.yul\":12803:12806   */\n      dup3\n        /* \"#utility.yul\":12796:12800   */\n      0x1f\n        /* \"#utility.yul\":12788:12794   */\n      dup4\n        /* \"#utility.yul\":12784:12801   */\n      add\n        /* \"#utility.yul\":12780:12807   */\n      slt\n        /* \"#utility.yul\":12770:12892   */\n      tag_434\n      jumpi\n        /* \"#utility.yul\":12811:12890   */\n      tag_435\n      tag_251\n      jump\t// in\n    tag_435:\n        /* \"#utility.yul\":12770:12892   */\n    tag_434:\n        /* \"#utility.yul\":12928:12934   */\n      dup2\n        /* \"#utility.yul\":12915:12935   */\n      calldataload\n        /* \"#utility.yul\":12953:13047   */\n      tag_436\n        /* \"#utility.yul\":13043:13046   */\n      dup5\n        /* \"#utility.yul\":13035:13041   */\n      dup3\n        /* \"#utility.yul\":13028:13032   */\n      0x20\n        /* \"#utility.yul\":13020:13026   */\n      dup7\n        /* \"#utility.yul\":13016:13033   */\n      add\n        /* \"#utility.yul\":12953:13047   */\n      tag_264\n      jump\t// in\n    tag_436:\n        /* \"#utility.yul\":12944:13047   */\n      swap2\n      pop\n        /* \"#utility.yul\":12760:13053   */\n      pop\n        /* \"#utility.yul\":12683:13053   */\n      swap3\n      swap2\n      pop\n      pop\n      jump\t// out\n        /* \"#utility.yul\":13059:13598   */\n    tag_87:\n        /* \"#utility.yul\":13143:13149   */\n      0x00\n        /* \"#utility.yul\":13192:13194   */\n      0x20\n        /* \"#utility.yul\":13180:13189   */\n      dup3\n        /* \"#utility.yul\":13171:13178   */\n      dup5\n        /* \"#utility.yul\":13167:13190   */\n      sub\n        /* \"#utility.yul\":13163:13195   */\n      slt\n        /* \"#utility.yul\":13160:13279   */\n      iszero\n      tag_438\n      jumpi\n        /* \"#utility.yul\":13198:13277   */\n      tag_439\n      tag_226\n      jump\t// in\n    tag_439:\n        /* \"#utility.yul\":13160:13279   */\n    tag_438:\n        /* \"#utility.yul\":13346:13347   */\n      0x00\n        /* \"#utility.yul\":13335:13344   */\n      dup3\n        /* \"#utility.yul\":13331:13348   */\n      add\n        /* \"#utility.yul\":13318:13349   */\n      calldataload\n        /* \"#utility.yul\":13376:13394   */\n      0xffffffffffffffff\n        /* \"#utility.yul\":13368:13374   */\n      dup2\n        /* \"#utility.yul\":13365:13395   */\n      gt\n        /* \"#utility.yul\":13362:13479   */\n      iszero\n      tag_440\n      jumpi\n        /* \"#utility.yul\":13398:13477   */\n      tag_441\n      tag_227\n      jump\t// in\n    tag_441:\n        /* \"#utility.yul\":13362:13479   */\n    tag_440:\n        /* \"#utility.yul\":13503:13581   */\n      tag_442\n        /* \"#utility.yul\":13573:13580   */\n      dup5\n        /* \"#utility.yul\":13564:13570   */\n      dup3\n        /* \"#utility.yul\":13553:13562   */\n      dup6\n        /* \"#utility.yul\":13549:13571   */\n      add\n        /* \"#utility.yul\":13503:13581   */\n      tag_265\n      jump\t// in\n    tag_442:\n        /* \"#utility.yul\":13493:13581   */\n      swap2\n      pop\n        /* \"#utility.yul\":13289:13591   */\n      pop\n        /* \"#utility.yul\":13059:13598   */\n      swap3\n      swap2\n      pop\n      pop\n      jump\t// out\n        /* \"#utility.yul\":13604:13825   */\n    tag_266:\n        /* \"#utility.yul\":13744:13778   */\n      0x4f6e6c79206f776e65722063616e20706572666f726d20746869732061637469\n        /* \"#utility.yul\":13740:13741   */\n      0x00\n        /* \"#utility.yul\":13732:13738   */\n      dup3\n        /* \"#utility.yul\":13728:13742   */\n      add\n        /* \"#utility.yul\":13721:13779   */\n      mstore\n        /* \"#utility.yul\":13813:13817   */\n      0x6f6e000000000000000000000000000000000000000000000000000000000000\n        /* \"#utility.yul\":13808:13810   */\n      0x20\n        /* \"#utility.yul\":13800:13806   */\n      dup3\n        /* \"#utility.yul\":13796:13811   */\n      add\n        /* \"#utility.yul\":13789:13818   */\n      mstore\n        /* \"#utility.yul\":13604:13825   */\n      pop\n      jump\t// out\n        /* \"#utility.yul\":13831:14197   */\n    tag_267:\n        /* \"#utility.yul\":13973:13976   */\n      0x00\n        /* \"#utility.yul\":13994:14061   */\n      tag_445\n        /* \"#utility.yul\":14058:14060   */\n      0x22\n        /* \"#utility.yul\":14053:14056   */\n      dup4\n        /* \"#utility.yul\":13994:14061   */\n      tag_242\n      jump\t// in\n    tag_445:\n        /* \"#utility.yul\":13987:14061   */\n      swap2\n      pop\n        /* \"#utility.yul\":14070:14163   */\n      tag_446\n        /* \"#utility.yul\":14159:14162   */\n      dup3\n        /* \"#utility.yul\":14070:14163   */\n      tag_266\n      jump\t// in\n    tag_446:\n        /* \"#utility.yul\":14188:14190   */\n      0x40\n        /* \"#utility.yul\":14183:14186   */\n      dup3\n        /* \"#utility.yul\":14179:14191   */\n      add\n        /* \"#utility.yul\":14172:14191   */\n      swap1\n      pop\n        /* \"#utility.yul\":13831:14197   */\n      swap2\n      swap1\n      pop\n      jump\t// out\n        /* \"#utility.yul\":14203:14622   */\n    tag_95:\n        /* \"#utility.yul\":14369:14373   */\n      0x00\n        /* \"#utility.yul\":14407:14409   */\n      0x20\n        /* \"#utility.yul\":14396:14405   */\n      dup3\n        /* \"#utility.yul\":14392:14410   */\n      add\n        /* \"#utility.yul\":14384:14410   */\n      swap1\n      pop\n        /* \"#utility.yul\":14456:14465   */\n      dup2\n        /* \"#utility.yul\":14450:14454   */\n      dup2\n        /* \"#utility.yul\":14446:14466   */\n      sub\n        /* \"#utility.yul\":14442:14443   */\n      0x00\n        /* \"#utility.yul\":14431:14440   */\n      dup4\n        /* \"#utility.yul\":14427:14444   */\n      add\n        /* \"#utility.yul\":14420:14467   */\n      mstore\n        /* \"#utility.yul\":14484:14615   */\n      tag_448\n        /* \"#utility.yul\":14610:14614   */\n      dup2\n        /* \"#utility.yul\":14484:14615   */\n      tag_267\n      jump\t// in\n    tag_448:\n        /* \"#utility.yul\":14476:14615   */\n      swap1\n      pop\n        /* \"#utility.yul\":14203:14622   */\n      swap2\n      swap1\n      pop\n      jump\t// out\n        /* \"#utility.yul\":14628:14803   */\n    tag_268:\n        /* \"#utility.yul\":14768:14795   */\n      0x5468697320426f6f6b20446f6573204e6f742045786973742100000000000000\n        /* \"#utility.yul\":14764:14765   */\n      0x00\n        /* \"#utility.yul\":14756:14762   */\n      dup3\n        /* \"#utility.yul\":14752:14766   */\n      add\n        /* \"#utility.yul\":14745:14796   */\n      mstore\n        /* \"#utility.yul\":14628:14803   */\n      pop\n      jump\t// out\n        /* \"#utility.yul\":14809:15175   */\n    tag_269:\n        /* \"#utility.yul\":14951:14954   */\n      0x00\n        /* \"#utility.yul\":14972:15039   */\n      tag_451\n        /* \"#utility.yul\":15036:15038   */\n      0x19\n        /* \"#utility.yul\":15031:15034   */\n      dup4\n        /* \"#utility.yul\":14972:15039   */\n      tag_242\n      jump\t// in\n    tag_451:\n        /* \"#utility.yul\":14965:15039   */\n      swap2\n      pop\n        /* \"#utility.yul\":15048:15141   */\n      tag_452\n        /* \"#utility.yul\":15137:15140   */\n      dup3\n        /* \"#utility.yul\":15048:15141   */\n      tag_268\n      jump\t// in\n    tag_452:\n        /* \"#utility.yul\":15166:15168   */\n      0x20\n        /* \"#utility.yul\":15161:15164   */\n      dup3\n        /* \"#utility.yul\":15157:15169   */\n      add\n        /* \"#utility.yul\":15150:15169   */\n      swap1\n      pop\n        /* \"#utility.yul\":14809:15175   */\n      swap2\n      swap1\n      pop\n      jump\t// out\n        /* \"#utility.yul\":15181:15600   */\n    tag_99:\n        /* \"#utility.yul\":15347:15351   */\n      0x00\n        /* \"#utility.yul\":15385:15387   */\n      0x20\n        /* \"#utility.yul\":15374:15383   */\n      dup3\n        /* \"#utility.yul\":15370:15388   */\n      add\n        /* \"#utility.yul\":15362:15388   */\n      swap1\n      pop\n        /* \"#utility.yul\":15434:15443   */\n      dup2\n        /* \"#utility.yul\":15428:15432   */\n      dup2\n        /* \"#utility.yul\":15424:15444   */\n      sub\n        /* \"#utility.yul\":15420:15421   */\n      0x00\n        /* \"#utility.yul\":15409:15418   */\n      dup4\n        /* \"#utility.yul\":15405:15422   */\n      add\n        /* \"#utility.yul\":15398:15445   */\n      mstore\n        /* \"#utility.yul\":15462:15593   */\n      tag_454\n        /* \"#utility.yul\":15588:15592   */\n      dup2\n        /* \"#utility.yul\":15462:15593   */\n      tag_269\n      jump\t// in\n    tag_454:\n        /* \"#utility.yul\":15454:15593   */\n      swap1\n      pop\n        /* \"#utility.yul\":15181:15600   */\n      swap2\n      swap1\n      pop\n      jump\t// out\n        /* \"#utility.yul\":15606:15786   */\n    tag_270:\n        /* \"#utility.yul\":15654:15731   */\n      0x4e487b7100000000000000000000000000000000000000000000000000000000\n        /* \"#utility.yul\":15651:15652   */\n      0x00\n        /* \"#utility.yul\":15644:15732   */\n      mstore\n        /* \"#utility.yul\":15751:15755   */\n      0x22\n        /* \"#utility.yul\":15748:15749   */\n      0x04\n        /* \"#utility.yul\":15741:15756   */\n      mstore\n        /* \"#utility.yul\":15775:15779   */\n      0x24\n        /* \"#utility.yul\":15772:15773   */\n      0x00\n        /* \"#utility.yul\":15765:15780   */\n      revert\n        /* \"#utility.yul\":15792:16112   */\n    tag_105:\n        /* \"#utility.yul\":15836:15842   */\n      0x00\n        /* \"#utility.yul\":15873:15874   */\n      0x02\n        /* \"#utility.yul\":15867:15871   */\n      dup3\n        /* \"#utility.yul\":15863:15875   */\n      div\n        /* \"#utility.yul\":15853:15875   */\n      swap1\n      pop\n        /* \"#utility.yul\":15920:15921   */\n      0x01\n        /* \"#utility.yul\":15914:15918   */\n      dup3\n        /* \"#utility.yul\":15910:15922   */\n      and\n        /* \"#utility.yul\":15941:15959   */\n      dup1\n        /* \"#utility.yul\":15931:16012   */\n      tag_457\n      jumpi\n        /* \"#utility.yul\":15997:16001   */\n      0x7f\n        /* \"#utility.yul\":15989:15995   */\n      dup3\n        /* \"#utility.yul\":15985:16002   */\n      and\n        /* \"#utility.yul\":15975:16002   */\n      swap2\n      pop\n        /* \"#utility.yul\":15931:16012   */\n    tag_457:\n        /* \"#utility.yul\":16059:16061   */\n      0x20\n        /* \"#utility.yul\":16051:16057   */\n      dup3\n        /* \"#utility.yul\":16048:16062   */\n      lt\n        /* \"#utility.yul\":16028:16046   */\n      dup2\n        /* \"#utility.yul\":16025:16063   */\n      sub\n        /* \"#utility.yul\":16022:16106   */\n      tag_458\n      jumpi\n        /* \"#utility.yul\":16078:16096   */\n      tag_459\n      tag_270\n      jump\t// in\n    tag_459:\n        /* \"#utility.yul\":16022:16106   */\n    tag_458:\n        /* \"#utility.yul\":15843:16112   */\n      pop\n        /* \"#utility.yul\":15792:16112   */\n      swap2\n      swap1\n      pop\n      jump\t// out\n        /* \"#utility.yul\":16118:16287   */\n    tag_271:\n        /* \"#utility.yul\":16258:16279   */\n      0x426f6f6b20646f6573206e6f7420657869737400000000000000000000000000\n        /* \"#utility.yul\":16254:16255   */\n      0x00\n        /* \"#utility.yul\":16246:16252   */\n      dup3\n        /* \"#utility.yul\":16242:16256   */\n      add\n        /* \"#utility.yul\":16235:16280   */\n      mstore\n        /* \"#utility.yul\":16118:16287   */\n      pop\n      jump\t// out\n        /* \"#utility.yul\":16293:16659   */\n    tag_272:\n        /* \"#utility.yul\":16435:16438   */\n      0x00\n        /* \"#utility.yul\":16456:16523   */\n      tag_462\n        /* \"#utility.yul\":16520:16522   */\n      0x13\n        /* \"#utility.yul\":16515:16518   */\n      dup4\n        /* \"#utility.yul\":16456:16523   */\n      tag_242\n      jump\t// in\n    tag_462:\n        /* \"#utility.yul\":16449:16523   */\n      swap2\n      pop\n        /* \"#utility.yul\":16532:16625   */\n      tag_463\n        /* \"#utility.yul\":16621:16624   */\n      dup3\n        /* \"#utility.yul\":16532:16625   */\n      tag_271\n      jump\t// in\n    tag_463:\n        /* \"#utility.yul\":16650:16652   */\n      0x20\n        /* \"#utility.yul\":16645:16648   */\n      dup3\n        /* \"#utility.yul\":16641:16653   */\n      add\n        /* \"#utility.yul\":16634:16653   */\n      swap1\n      pop\n        /* \"#utility.yul\":16293:16659   */\n      swap2\n      swap1\n      pop\n      jump\t// out\n        /* \"#utility.yul\":16665:17084   */\n    tag_132:\n        /* \"#utility.yul\":16831:16835   */\n      0x00\n        /* \"#utility.yul\":16869:16871   */\n      0x20\n        /* \"#utility.yul\":16858:16867   */\n      dup3\n        /* \"#utility.yul\":16854:16872   */\n      add\n        /* \"#utility.yul\":16846:16872   */\n      swap1\n      pop\n        /* \"#utility.yul\":16918:16927   */\n      dup2\n        /* \"#utility.yul\":16912:16916   */\n      dup2\n        /* \"#utility.yul\":16908:16928   */\n      sub\n        /* \"#utility.yul\":16904:16905   */\n      0x00\n        /* \"#utility.yul\":16893:16902   */\n      dup4\n        /* \"#utility.yul\":16889:16906   */\n      add\n        /* \"#utility.yul\":16882:16929   */\n      mstore\n        /* \"#utility.yul\":16946:17077   */\n      tag_465\n        /* \"#utility.yul\":17072:17076   */\n      dup2\n        /* \"#utility.yul\":16946:17077   */\n      tag_272\n      jump\t// in\n    tag_465:\n        /* \"#utility.yul\":16938:17077   */\n      swap1\n      pop\n        /* \"#utility.yul\":16665:17084   */\n      swap2\n      swap1\n      pop\n      jump\t// out\n        /* \"#utility.yul\":17090:17270   */\n    tag_141:\n        /* \"#utility.yul\":17138:17215   */\n      0x4e487b7100000000000000000000000000000000000000000000000000000000\n        /* \"#utility.yul\":17135:17136   */\n      0x00\n        /* \"#utility.yul\":17128:17216   */\n      mstore\n        /* \"#utility.yul\":17235:17239   */\n      0x32\n        /* \"#utility.yul\":17232:17233   */\n      0x04\n        /* \"#utility.yul\":17225:17240   */\n      mstore\n        /* \"#utility.yul\":17259:17263   */\n      0x24\n        /* \"#utility.yul\":17256:17257   */\n      0x00\n        /* \"#utility.yul\":17249:17264   */\n      revert\n        /* \"#utility.yul\":17276:17456   */\n    tag_273:\n        /* \"#utility.yul\":17324:17401   */\n      0x4e487b7100000000000000000000000000000000000000000000000000000000\n        /* \"#utility.yul\":17321:17322   */\n      0x00\n        /* \"#utility.yul\":17314:17402   */\n      mstore\n        /* \"#utility.yul\":17421:17425   */\n      0x11\n        /* \"#utility.yul\":17418:17419   */\n      0x04\n        /* \"#utility.yul\":17411:17426   */\n      mstore\n        /* \"#utility.yul\":17445:17449   */\n      0x24\n        /* \"#utility.yul\":17442:17443   */\n      0x00\n        /* \"#utility.yul\":17435:17450   */\n      revert\n        /* \"#utility.yul\":17462:17656   */\n    tag_145:\n        /* \"#utility.yul\":17502:17506   */\n      0x00\n        /* \"#utility.yul\":17522:17542   */\n      tag_469\n        /* \"#utility.yul\":17540:17541   */\n      dup3\n        /* \"#utility.yul\":17522:17542   */\n      tag_228\n      jump\t// in\n    tag_469:\n        /* \"#utility.yul\":17517:17542   */\n      swap2\n      pop\n        /* \"#utility.yul\":17556:17576   */\n      tag_470\n        /* \"#utility.yul\":17574:17575   */\n      dup4\n        /* \"#utility.yul\":17556:17576   */\n      tag_228\n      jump\t// in\n    tag_470:\n        /* \"#utility.yul\":17551:17576   */\n      swap3\n      pop\n        /* \"#utility.yul\":17600:17601   */\n      dup3\n        /* \"#utility.yul\":17597:17598   */\n      dup3\n        /* \"#utility.yul\":17593:17602   */\n      sub\n        /* \"#utility.yul\":17585:17602   */\n      swap1\n      pop\n        /* \"#utility.yul\":17624:17625   */\n      dup2\n        /* \"#utility.yul\":17618:17622   */\n      dup2\n        /* \"#utility.yul\":17615:17626   */\n      gt\n        /* \"#utility.yul\":17612:17649   */\n      iszero\n      tag_471\n      jumpi\n        /* \"#utility.yul\":17629:17647   */\n      tag_472\n      tag_273\n      jump\t// in\n    tag_472:\n        /* \"#utility.yul\":17612:17649   */\n    tag_471:\n        /* \"#utility.yul\":17462:17656   */\n      swap3\n      swap2\n      pop\n      pop\n      jump\t// out\n        /* \"#utility.yul\":17662:17842   */\n    tag_154:\n        /* \"#utility.yul\":17710:17787   */\n      0x4e487b7100000000000000000000000000000000000000000000000000000000\n        /* \"#utility.yul\":17707:17708   */\n      0x00\n        /* \"#utility.yul\":17700:17788   */\n      mstore\n        /* \"#utility.yul\":17807:17811   */\n      0x31\n        /* \"#utility.yul\":17804:17805   */\n      0x04\n        /* \"#utility.yul\":17797:17812   */\n      mstore\n        /* \"#utility.yul\":17831:17835   */\n      0x24\n        /* \"#utility.yul\":17828:17829   */\n      0x00\n        /* \"#utility.yul\":17821:17836   */\n      revert\n        /* \"#utility.yul\":17848:18068   */\n    tag_274:\n        /* \"#utility.yul\":17988:18022   */\n      0x43414e4e4f542041444420424f4f4b20495420414c5245414459204558495354\n        /* \"#utility.yul\":17984:17985   */\n      0x00\n        /* \"#utility.yul\":17976:17982   */\n      dup3\n        /* \"#utility.yul\":17972:17986   */\n      add\n        /* \"#utility.yul\":17965:18023   */\n      mstore\n        /* \"#utility.yul\":18057:18060   */\n      0x5300000000000000000000000000000000000000000000000000000000000000\n        /* \"#utility.yul\":18052:18054   */\n      0x20\n        /* \"#utility.yul\":18044:18050   */\n      dup3\n        /* \"#utility.yul\":18040:18055   */\n      add\n        /* \"#utility.yul\":18033:18061   */\n      mstore\n        /* \"#utility.yul\":17848:18068   */\n      pop\n      jump\t// out\n        /* \"#utility.yul\":18074:18440   */\n    tag_275:\n        /* \"#utility.yul\":18216:18219   */\n      0x00\n        /* \"#utility.yul\":18237:18304   */\n      tag_476\n        /* \"#utility.yul\":18301:18303   */\n      0x21\n        /* \"#utility.yul\":18296:18299   */\n      dup4\n        /* \"#utility.yul\":18237:18304   */\n      tag_242\n      jump\t// in\n    tag_476:\n        /* \"#utility.yul\":18230:18304   */\n      swap2\n      pop\n        /* \"#utility.yul\":18313:18406   */\n      tag_477\n        /* \"#utility.yul\":18402:18405   */\n      dup3\n        /* \"#utility.yul\":18313:18406   */\n      tag_274\n      jump\t// in\n    tag_477:\n        /* \"#utility.yul\":18431:18433   */\n      0x40\n        /* \"#utility.yul\":18426:18429   */\n      dup3\n        /* \"#utility.yul\":18422:18434   */\n      add\n        /* \"#utility.yul\":18415:18434   */\n      swap1\n      pop\n        /* \"#utility.yul\":18074:18440   */\n      swap2\n      swap1\n      pop\n      jump\t// out\n        /* \"#utility.yul\":18446:18865   */\n    tag_159:\n        /* \"#utility.yul\":18612:18616   */\n      0x00\n        /* \"#utility.yul\":18650:18652   */\n      0x20\n        /* \"#utility.yul\":18639:18648   */\n      dup3\n        /* \"#utility.yul\":18635:18653   */\n      add\n        /* \"#utility.yul\":18627:18653   */\n      swap1\n      pop\n        /* \"#utility.yul\":18699:18708   */\n      dup2\n        /* \"#utility.yul\":18693:18697   */\n      dup2\n        /* \"#utility.yul\":18689:18709   */\n      sub\n        /* \"#utility.yul\":18685:18686   */\n      0x00\n        /* \"#utility.yul\":18674:18683   */\n      dup4\n        /* \"#utility.yul\":18670:18687   */\n      add\n        /* \"#utility.yul\":18663:18710   */\n      mstore\n        /* \"#utility.yul\":18727:18858   */\n      tag_479\n        /* \"#utility.yul\":18853:18857   */\n      dup2\n        /* \"#utility.yul\":18727:18858   */\n      tag_275\n      jump\t// in\n    tag_479:\n        /* \"#utility.yul\":18719:18858   */\n      swap1\n      pop\n        /* \"#utility.yul\":18446:18865   */\n      swap2\n      swap1\n      pop\n      jump\t// out\n        /* \"#utility.yul\":18871:19012   */\n    tag_276:\n        /* \"#utility.yul\":18920:18924   */\n      0x00\n        /* \"#utility.yul\":18943:18946   */\n      dup2\n        /* \"#utility.yul\":18935:18946   */\n      swap1\n      pop\n        /* \"#utility.yul\":18966:18969   */\n      dup2\n        /* \"#utility.yul\":18963:18964   */\n      0x00\n        /* \"#utility.yul\":18956:18970   */\n      mstore\n        /* \"#utility.yul\":19000:19004   */\n      0x20\n        /* \"#utility.yul\":18997:18998   */\n      0x00\n        /* \"#utility.yul\":18987:19005   */\n      keccak256\n        /* \"#utility.yul\":18979:19005   */\n      swap1\n      pop\n        /* \"#utility.yul\":18871:19012   */\n      swap2\n      swap1\n      pop\n      jump\t// out\n        /* \"#utility.yul\":19018:19111   */\n    tag_277:\n        /* \"#utility.yul\":19055:19061   */\n      0x00\n        /* \"#utility.yul\":19102:19104   */\n      0x20\n        /* \"#utility.yul\":19097:19099   */\n      0x1f\n        /* \"#utility.yul\":19090:19095   */\n      dup4\n        /* \"#utility.yul\":19086:19100   */\n      add\n        /* \"#utility.yul\":19082:19105   */\n      div\n        /* \"#utility.yul\":19072:19105   */\n      swap1\n      pop\n        /* \"#utility.yul\":19018:19111   */\n      swap2\n      swap1\n      pop\n      jump\t// out\n        /* \"#utility.yul\":19117:19224   */\n    tag_278:\n        /* \"#utility.yul\":19161:19169   */\n      0x00\n        /* \"#utility.yul\":19211:19216   */\n      dup3\n        /* \"#utility.yul\":19205:19209   */\n      dup3\n        /* \"#utility.yul\":19201:19217   */\n      shl\n        /* \"#utility.yul\":19180:19217   */\n      swap1\n      pop\n        /* \"#utility.yul\":19117:19224   */\n      swap3\n      swap2\n      pop\n      pop\n      jump\t// out\n        /* \"#utility.yul\":19230:19623   */\n    tag_279:\n        /* \"#utility.yul\":19299:19305   */\n      0x00\n        /* \"#utility.yul\":19349:19350   */\n      0x08\n        /* \"#utility.yul\":19337:19347   */\n      dup4\n        /* \"#utility.yul\":19333:19351   */\n      mul\n        /* \"#utility.yul\":19372:19469   */\n      tag_484\n        /* \"#utility.yul\":19402:19468   */\n      0xffffffffffffffffffffffffffffffffffffffffffffffffffffffffffffffff\n        /* \"#utility.yul\":19391:19400   */\n      dup3\n        /* \"#utility.yul\":19372:19469   */\n      tag_278\n      jump\t// in\n    tag_484:\n        /* \"#utility.yul\":19490:19529   */\n      tag_485\n        /* \"#utility.yul\":19520:19528   */\n      dup7\n        /* \"#utility.yul\":19509:19518   */\n      dup4\n        /* \"#utility.yul\":19490:19529   */\n      tag_278\n      jump\t// in\n    tag_485:\n        /* \"#utility.yul\":19478:19529   */\n      swap6\n      pop\n        /* \"#utility.yul\":19562:19566   */\n      dup1\n        /* \"#utility.yul\":19558:19567   */\n      not\n        /* \"#utility.yul\":19551:19556   */\n      dup5\n        /* \"#utility.yul\":19547:19568   */\n      and\n        /* \"#utility.yul\":19538:19568   */\n      swap4\n      pop\n        /* \"#utility.yul\":19611:19615   */\n      dup1\n        /* \"#utility.yul\":19601:19609   */\n      dup7\n        /* \"#utility.yul\":19597:19616   */\n      and\n        /* \"#utility.yul\":19590:19595   */\n      dup5\n        /* \"#utility.yul\":19587:19617   */\n      or\n        /* \"#utility.yul\":19577:19617   */\n      swap3\n      pop\n        /* \"#utility.yul\":19306:19623   */\n      pop\n      pop\n        /* \"#utility.yul\":19230:19623   */\n      swap4\n      swap3\n      pop\n      pop\n      pop\n      jump\t// out\n        /* \"#utility.yul\":19629:19689   */\n    tag_280:\n        /* \"#utility.yul\":19657:19660   */\n      0x00\n        /* \"#utility.yul\":19678:19683   */\n      dup2\n        /* \"#utility.yul\":19671:19683   */\n      swap1\n      pop\n        /* \"#utility.yul\":19629:19689   */\n      swap2\n      swap1\n      pop\n      jump\t// out\n        /* \"#utility.yul\":19695:19837   */\n    tag_281:\n        /* \"#utility.yul\":19745:19754   */\n      0x00\n        /* \"#utility.yul\":19778:19831   */\n      tag_488\n        /* \"#utility.yul\":19796:19830   */\n      tag_489\n        /* \"#utility.yul\":19805:19829   */\n      tag_490\n        /* \"#utility.yul\":19823:19828   */\n      dup5\n        /* \"#utility.yul\":19805:19829   */\n      tag_228\n      jump\t// in\n    tag_490:\n        /* \"#utility.yul\":19796:19830   */\n      tag_280\n      jump\t// in\n    tag_489:\n        /* \"#utility.yul\":19778:19831   */\n      tag_228\n      jump\t// in\n    tag_488:\n        /* \"#utility.yul\":19765:19831   */\n      swap1\n      pop\n        /* \"#utility.yul\":19695:19837   */\n      swap2\n      swap1\n      pop\n      jump\t// out\n        /* \"#utility.yul\":19843:19918   */\n    tag_282:\n        /* \"#utility.yul\":19886:19889   */\n      0x00\n        /* \"#utility.yul\":19907:19912   */\n      dup2\n        /* \"#utility.yul\":19900:19912   */\n      swap1\n      pop\n        /* \"#utility.yul\":19843:19918   */\n      swap2\n      swap1\n      pop\n      jump\t// out\n        /* \"#utility.yul\":19924:20193   */\n    tag_283:\n        /* \"#utility.yul\":20034:20073   */\n      tag_493\n        /* \"#utility.yul\":20065:20072   */\n      dup4\n        /* \"#utility.yul\":20034:20073   */\n      tag_281\n      jump\t// in\n    tag_493:\n        /* \"#utility.yul\":20095:20186   */\n      tag_494\n        /* \"#utility.yul\":20144:20185   */\n      tag_495\n        /* \"#utility.yul\":20168:20184   */\n      dup3\n        /* \"#utility.yul\":20144:20185   */\n      tag_282\n      jump\t// in\n    tag_495:\n        /* \"#utility.yul\":20136:20142   */\n      dup5\n        /* \"#utility.yul\":20129:20133   */\n      dup5\n        /* \"#utility.yul\":20123:20134   */\n      sload\n        /* \"#utility.yul\":20095:20186   */\n      tag_279\n      jump\t// in\n    tag_494:\n        /* \"#utility.yul\":20089:20093   */\n      dup3\n        /* \"#utility.yul\":20082:20187   */\n      sstore\n        /* \"#utility.yul\":20000:20193   */\n      pop\n        /* \"#utility.yul\":19924:20193   */\n      pop\n      pop\n      pop\n      jump\t// out\n        /* \"#utility.yul\":20199:20272   */\n    tag_284:\n        /* \"#utility.yul\":20244:20247   */\n      0x00\n        /* \"#utility.yul\":20199:20272   */\n      swap1\n      jump\t// out\n        /* \"#utility.yul\":20278:20467   */\n    tag_285:\n        /* \"#utility.yul\":20355:20387   */\n      tag_498\n      tag_284\n      jump\t// in\n    tag_498:\n        /* \"#utility.yul\":20396:20461   */\n      tag_499\n        /* \"#utility.yul\":20454:20460   */\n      dup2\n        /* \"#utility.yul\":20446:20452   */\n      dup5\n        /* \"#utility.yul\":20440:20444   */\n      dup5\n        /* \"#utility.yul\":20396:20461   */\n      tag_283\n      jump\t// in\n    tag_499:\n        /* \"#utility.yul\":20331:20467   */\n      pop\n        /* \"#utility.yul\":20278:20467   */\n      pop\n      pop\n      jump\t// out\n        /* \"#utility.yul\":20473:20659   */\n    tag_286:\n        /* \"#utility.yul\":20533:20653   */\n    tag_501:\n        /* \"#utility.yul\":20550:20553   */\n      dup2\n        /* \"#utility.yul\":20543:20548   */\n      dup2\n        /* \"#utility.yul\":20540:20554   */\n      lt\n        /* \"#utility.yul\":20533:20653   */\n      iszero\n      tag_503\n      jumpi\n        /* \"#utility.yul\":20604:20643   */\n      tag_504\n        /* \"#utility.yul\":20641:20642   */\n      0x00\n        /* \"#utility.yul\":20634:20639   */\n      dup3\n        /* \"#utility.yul\":20604:20643   */\n      tag_285\n      jump\t// in\n    tag_504:\n        /* \"#utility.yul\":20577:20578   */\n      0x01\n        /* \"#utility.yul\":20570:20575   */\n      dup2\n        /* \"#utility.yul\":20566:20579   */\n      add\n        /* \"#utility.yul\":20557:20579   */\n      swap1\n      pop\n        /* \"#utility.yul\":20533:20653   */\n      jump(tag_501)\n    tag_503:\n        /* \"#utility.yul\":20473:20659   */\n      pop\n      pop\n      jump\t// out\n        /* \"#utility.yul\":20665:21208   */\n    tag_287:\n        /* \"#utility.yul\":20766:20768   */\n      0x1f\n        /* \"#utility.yul\":20761:20764   */\n      dup3\n        /* \"#utility.yul\":20758:20769   */\n      gt\n        /* \"#utility.yul\":20755:21201   */\n      iszero\n      tag_506\n      jumpi\n        /* \"#utility.yul\":20800:20838   */\n      tag_507\n        /* \"#utility.yul\":20832:20837   */\n      dup2\n        /* \"#utility.yul\":20800:20838   */\n      tag_276\n      jump\t// in\n    tag_507:\n        /* \"#utility.yul\":20884:20913   */\n      tag_508\n        /* \"#utility.yul\":20902:20912   */\n      dup5\n        /* \"#utility.yul\":20884:20913   */\n      tag_277\n      jump\t// in\n    tag_508:\n        /* \"#utility.yul\":20874:20882   */\n      dup2\n        /* \"#utility.yul\":20870:20914   */\n      add\n        /* \"#utility.yul\":21067:21069   */\n      0x20\n        /* \"#utility.yul\":21055:21065   */\n      dup6\n        /* \"#utility.yul\":21052:21070   */\n      lt\n        /* \"#utility.yul\":21049:21098   */\n      iszero\n      tag_509\n      jumpi\n        /* \"#utility.yul\":21088:21096   */\n      dup2\n        /* \"#utility.yul\":21073:21096   */\n      swap1\n      pop\n        /* \"#utility.yul\":21049:21098   */\n    tag_509:\n        /* \"#utility.yul\":21111:21191   */\n      tag_510\n        /* \"#utility.yul\":21167:21189   */\n      tag_511\n        /* \"#utility.yul\":21185:21188   */\n      dup6\n        /* \"#utility.yul\":21167:21189   */\n      tag_277\n      jump\t// in\n    tag_511:\n        /* \"#utility.yul\":21157:21165   */\n      dup4\n        /* \"#utility.yul\":21153:21190   */\n      add\n        /* \"#utility.yul\":21140:21151   */\n      dup3\n        /* \"#utility.yul\":21111:21191   */\n      tag_286\n      jump\t// in\n    tag_510:\n        /* \"#utility.yul\":20770:21201   */\n      pop\n      pop\n        /* \"#utility.yul\":20755:21201   */\n    tag_506:\n        /* \"#utility.yul\":20665:21208   */\n      pop\n      pop\n      pop\n      jump\t// out\n        /* \"#utility.yul\":21214:21331   */\n    tag_288:\n        /* \"#utility.yul\":21268:21276   */\n      0x00\n        /* \"#utility.yul\":21318:21323   */\n      dup3\n        /* \"#utility.yul\":21312:21316   */\n      dup3\n        /* \"#utility.yul\":21308:21324   */\n      shr\n        /* \"#utility.yul\":21287:21324   */\n      swap1\n      pop\n        /* \"#utility.yul\":21214:21331   */\n      swap3\n      swap2\n      pop\n      pop\n      jump\t// out\n        /* \"#utility.yul\":21337:21506   */\n    tag_289:\n        /* \"#utility.yul\":21381:21387   */\n      0x00\n        /* \"#utility.yul\":21414:21465   */\n      tag_514\n        /* \"#utility.yul\":21462:21463   */\n      0x00\n        /* \"#utility.yul\":21458:21464   */\n      not\n        /* \"#utility.yul\":21450:21455   */\n      dup5\n        /* \"#utility.yul\":21447:21448   */\n      0x08\n        /* \"#utility.yul\":21443:21456   */\n      mul\n        /* \"#utility.yul\":21414:21465   */\n      tag_288\n      jump\t// in\n    tag_514:\n        /* \"#utility.yul\":21410:21466   */\n      not\n        /* \"#utility.yul\":21495:21499   */\n      dup1\n        /* \"#utility.yul\":21489:21493   */\n      dup4\n        /* \"#utility.yul\":21485:21500   */\n      and\n        /* \"#utility.yul\":21475:21500   */\n      swap2\n      pop\n        /* \"#utility.yul\":21388:21506   */\n      pop\n        /* \"#utility.yul\":21337:21506   */\n      swap3\n      swap2\n      pop\n      pop\n      jump\t// out\n        /* \"#utility.yul\":21511:21806   */\n    tag_290:\n        /* \"#utility.yul\":21587:21591   */\n      0x00\n        /* \"#utility.yul\":21733:21762   */\n      tag_516\n        /* \"#utility.yul\":21758:21761   */\n      dup4\n        /* \"#utility.yul\":21752:21756   */\n      dup4\n        /* \"#utility.yul\":21733:21762   */\n      tag_289\n      jump\t// in\n    tag_516:\n        /* \"#utility.yul\":21725:21762   */\n      swap2\n      pop\n        /* \"#utility.yul\":21795:21798   */\n      dup3\n        /* \"#utility.yul\":21792:21793   */\n      0x02\n        /* \"#utility.yul\":21788:21799   */\n      mul\n        /* \"#utility.yul\":21782:21786   */\n      dup3\n        /* \"#utility.yul\":21779:21800   */\n      or\n        /* \"#utility.yul\":21771:21800   */\n      swap1\n      pop\n        /* \"#utility.yul\":21511:21806   */\n      swap3\n      swap2\n      pop\n      pop\n      jump\t// out\n        /* \"#utility.yul\":21811:23206   */\n    tag_161:\n        /* \"#utility.yul\":21928:21965   */\n      tag_518\n        /* \"#utility.yul\":21961:21964   */\n      dup3\n        /* \"#utility.yul\":21928:21965   */\n      tag_241\n      jump\t// in\n    tag_518:\n        /* \"#utility.yul\":22030:22048   */\n      0xffffffffffffffff\n        /* \"#utility.yul\":22022:22028   */\n      dup2\n        /* \"#utility.yul\":22019:22049   */\n      gt\n        /* \"#utility.yul\":22016:22072   */\n      iszero\n      tag_519\n      jumpi\n        /* \"#utility.yul\":22052:22070   */\n      tag_520\n      tag_253\n      jump\t// in\n    tag_520:\n        /* \"#utility.yul\":22016:22072   */\n    tag_519:\n        /* \"#utility.yul\":22096:22134   */\n      tag_521\n        /* \"#utility.yul\":22128:22132   */\n      dup3\n        /* \"#utility.yul\":22122:22133   */\n      sload\n        /* \"#utility.yul\":22096:22134   */\n      tag_105\n      jump\t// in\n    tag_521:\n        /* \"#utility.yul\":22181:22248   */\n      tag_522\n        /* \"#utility.yul\":22241:22247   */\n      dup3\n        /* \"#utility.yul\":22233:22239   */\n      dup3\n        /* \"#utility.yul\":22227:22231   */\n      dup6\n        /* \"#utility.yul\":22181:22248   */\n      tag_287\n      jump\t// in\n    tag_522:\n        /* \"#utility.yul\":22275:22276   */\n      0x00\n        /* \"#utility.yul\":22299:22303   */\n      0x20\n        /* \"#utility.yul\":22286:22303   */\n      swap1\n      pop\n        /* \"#utility.yul\":22331:22333   */\n      0x1f\n        /* \"#utility.yul\":22323:22329   */\n      dup4\n        /* \"#utility.yul\":22320:22334   */\n      gt\n        /* \"#utility.yul\":22348:22349   */\n      0x01\n        /* \"#utility.yul\":22343:22961   */\n      dup2\n      eq\n      tag_524\n      jumpi\n        /* \"#utility.yul\":23005:23006   */\n      0x00\n        /* \"#utility.yul\":23022:23028   */\n      dup5\n        /* \"#utility.yul\":23019:23096   */\n      iszero\n      tag_525\n      jumpi\n        /* \"#utility.yul\":23071:23080   */\n      dup3\n        /* \"#utility.yul\":23066:23069   */\n      dup8\n        /* \"#utility.yul\":23062:23081   */\n      add\n        /* \"#utility.yul\":23056:23082   */\n      mload\n        /* \"#utility.yul\":23047:23082   */\n      swap1\n      pop\n        /* \"#utility.yul\":23019:23096   */\n    tag_525:\n        /* \"#utility.yul\":23122:23189   */\n      tag_526\n        /* \"#utility.yul\":23182:23188   */\n      dup6\n        /* \"#utility.yul\":23175:23180   */\n      dup3\n        /* \"#utility.yul\":23122:23189   */\n      tag_290\n      jump\t// in\n    tag_526:\n        /* \"#utility.yul\":23116:23120   */\n      dup7\n        /* \"#utility.yul\":23109:23190   */\n      sstore\n        /* \"#utility.yul\":22978:23200   */\n      pop\n        /* \"#utility.yul\":22313:23200   */\n      jump(tag_523)\n        /* \"#utility.yul\":22343:22961   */\n    tag_524:\n        /* \"#utility.yul\":22395:22399   */\n      0x1f\n        /* \"#utility.yul\":22391:22400   */\n      not\n        /* \"#utility.yul\":22383:22389   */\n      dup5\n        /* \"#utility.yul\":22379:22401   */\n      and\n        /* \"#utility.yul\":22429:22466   */\n      tag_527\n        /* \"#utility.yul\":22461:22465   */\n      dup7\n        /* \"#utility.yul\":22429:22466   */\n      tag_276\n      jump\t// in\n    tag_527:\n        /* \"#utility.yul\":22488:22489   */\n      0x00\n        /* \"#utility.yul\":22502:22710   */\n    tag_528:\n        /* \"#utility.yul\":22516:22523   */\n      dup3\n        /* \"#utility.yul\":22513:22514   */\n      dup2\n        /* \"#utility.yul\":22510:22524   */\n      lt\n        /* \"#utility.yul\":22502:22710   */\n      iszero\n      tag_530\n      jumpi\n        /* \"#utility.yul\":22595:22604   */\n      dup5\n        /* \"#utility.yul\":22590:22593   */\n      dup10\n        /* \"#utility.yul\":22586:22605   */\n      add\n        /* \"#utility.yul\":22580:22606   */\n      mload\n        /* \"#utility.yul\":22572:22578   */\n      dup3\n        /* \"#utility.yul\":22565:22607   */\n      sstore\n        /* \"#utility.yul\":22646:22647   */\n      0x01\n        /* \"#utility.yul\":22638:22644   */\n      dup3\n        /* \"#utility.yul\":22634:22648   */\n      add\n        /* \"#utility.yul\":22624:22648   */\n      swap2\n      pop\n        /* \"#utility.yul\":22693:22695   */\n      0x20\n        /* \"#utility.yul\":22682:22691   */\n      dup6\n        /* \"#utility.yul\":22678:22696   */\n      add\n        /* \"#utility.yul\":22665:22696   */\n      swap5\n      pop\n        /* \"#utility.yul\":22539:22543   */\n      0x20\n        /* \"#utility.yul\":22536:22537   */\n      dup2\n        /* \"#utility.yul\":22532:22544   */\n      add\n        /* \"#utility.yul\":22527:22544   */\n      swap1\n      pop\n        /* \"#utility.yul\":22502:22710   */\n      jump(tag_528)\n    tag_530:\n        /* \"#utility.yul\":22738:22744   */\n      dup7\n        /* \"#utility.yul\":22729:22736   */\n      dup4\n        /* \"#utility.yul\":22726:22745   */\n      lt\n        /* \"#utility.yul\":22723:22902   */\n      iszero\n      tag_531\n      jumpi\n        /* \"#utility.yul\":22796:22805   */\n      dup5\n        /* \"#utility.yul\":22791:22794   */\n      dup10\n        /* \"#utility.yul\":22787:22806   */\n      add\n        /* \"#utility.yul\":22781:22807   */\n      mload\n        /* \"#utility.yul\":22839:22887   */\n      tag_532\n        /* \"#utility.yul\":22881:22885   */\n      0x1f\n        /* \"#utility.yul\":22873:22879   */\n      dup10\n        /* \"#utility.yul\":22869:22886   */\n      and\n        /* \"#utility.yul\":22858:22867   */\n      dup3\n        /* \"#utility.yul\":22839:22887   */\n      tag_289\n      jump\t// in\n    tag_532:\n        /* \"#utility.yul\":22831:22837   */\n      dup4\n        /* \"#utility.yul\":22824:22888   */\n      sstore\n        /* \"#utility.yul\":22746:22902   */\n      pop\n        /* \"#utility.yul\":22723:22902   */\n    tag_531:\n        /* \"#utility.yul\":22948:22949   */\n      0x01\n        /* \"#utility.yul\":22944:22945   */\n      0x02\n        /* \"#utility.yul\":22936:22942   */\n      dup9\n        /* \"#utility.yul\":22932:22946   */\n      mul\n        /* \"#utility.yul\":22928:22950   */\n      add\n        /* \"#utility.yul\":22922:22926   */\n      dup9\n        /* \"#utility.yul\":22915:22951   */\n      sstore\n        /* \"#utility.yul\":22350:22961   */\n      pop\n      pop\n      pop\n        /* \"#utility.yul\":22313:23200   */\n    tag_523:\n      pop\n        /* \"#utility.yul\":21903:23206   */\n      pop\n      pop\n      pop\n        /* \"#utility.yul\":21811:23206   */\n      pop\n      pop\n      jump\t// out\n        /* \"#utility.yul\":23212:23352   */\n    tag_291:\n        /* \"#utility.yul\":23261:23270   */\n      0x00\n        /* \"#utility.yul\":23294:23346   */\n      tag_534\n        /* \"#utility.yul\":23312:23345   */\n      tag_535\n        /* \"#utility.yul\":23321:23344   */\n      tag_536\n        /* \"#utility.yul\":23338:23343   */\n      dup5\n        /* \"#utility.yul\":23321:23344   */\n      tag_246\n      jump\t// in\n    tag_536:\n        /* \"#utility.yul\":23312:23345   */\n      tag_280\n      jump\t// in\n    tag_535:\n        /* \"#utility.yul\":23294:23346   */\n      tag_228\n      jump\t// in\n    tag_534:\n        /* \"#utility.yul\":23281:23346   */\n      swap1\n      pop\n        /* \"#utility.yul\":23212:23352   */\n      swap2\n      swap1\n      pop\n      jump\t// out\n        /* \"#utility.yul\":23358:23487   */\n    tag_292:\n        /* \"#utility.yul\":23444:23480   */\n      tag_538\n        /* \"#utility.yul\":23474:23479   */\n      dup2\n        /* \"#utility.yul\":23444:23480   */\n      tag_291\n      jump\t// in\n    tag_538:\n        /* \"#utility.yul\":23439:23442   */\n      dup3\n        /* \"#utility.yul\":23432:23481   */\n      mstore\n        /* \"#utility.yul\":23358:23487   */\n      pop\n      pop\n      jump\t// out\n        /* \"#utility.yul\":23493:24226   */\n    tag_165:\n        /* \"#utility.yul\":23709:23713   */\n      0x00\n        /* \"#utility.yul\":23747:23750   */\n      0x80\n        /* \"#utility.yul\":23736:23745   */\n      dup3\n        /* \"#utility.yul\":23732:23751   */\n      add\n        /* \"#utility.yul\":23724:23751   */\n      swap1\n      pop\n        /* \"#utility.yul\":23797:23806   */\n      dup2\n        /* \"#utility.yul\":23791:23795   */\n      dup2\n        /* \"#utility.yul\":23787:23807   */\n      sub\n        /* \"#utility.yul\":23783:23784   */\n      0x00\n        /* \"#utility.yul\":23772:23781   */\n      dup4\n        /* \"#utility.yul\":23768:23785   */\n      add\n        /* \"#utility.yul\":23761:23808   */\n      mstore\n        /* \"#utility.yul\":23825:23903   */\n      tag_540\n        /* \"#utility.yul\":23898:23902   */\n      dup2\n        /* \"#utility.yul\":23889:23895   */\n      dup8\n        /* \"#utility.yul\":23825:23903   */\n      tag_245\n      jump\t// in\n    tag_540:\n        /* \"#utility.yul\":23817:23903   */\n      swap1\n      pop\n        /* \"#utility.yul\":23950:23959   */\n      dup2\n        /* \"#utility.yul\":23944:23948   */\n      dup2\n        /* \"#utility.yul\":23940:23960   */\n      sub\n        /* \"#utility.yul\":23935:23937   */\n      0x20\n        /* \"#utility.yul\":23924:23933   */\n      dup4\n        /* \"#utility.yul\":23920:23938   */\n      add\n        /* \"#utility.yul\":23913:23961   */\n      mstore\n        /* \"#utility.yul\":23978:24056   */\n      tag_541\n        /* \"#utility.yul\":24051:24055   */\n      dup2\n        /* \"#utility.yul\":24042:24048   */\n      dup7\n        /* \"#utility.yul\":23978:24056   */\n      tag_245\n      jump\t// in\n    tag_541:\n        /* \"#utility.yul\":23970:24056   */\n      swap1\n      pop\n        /* \"#utility.yul\":24066:24138   */\n      tag_542\n        /* \"#utility.yul\":24134:24136   */\n      0x40\n        /* \"#utility.yul\":24123:24132   */\n      dup4\n        /* \"#utility.yul\":24119:24137   */\n      add\n        /* \"#utility.yul\":24110:24116   */\n      dup6\n        /* \"#utility.yul\":24066:24138   */\n      tag_240\n      jump\t// in\n    tag_542:\n        /* \"#utility.yul\":24148:24219   */\n      tag_543\n        /* \"#utility.yul\":24215:24217   */\n      0x60\n        /* \"#utility.yul\":24204:24213   */\n      dup4\n        /* \"#utility.yul\":24200:24218   */\n      add\n        /* \"#utility.yul\":24191:24197   */\n      dup5\n        /* \"#utility.yul\":24148:24219   */\n      tag_292\n      jump\t// in\n    tag_543:\n        /* \"#utility.yul\":23493:24226   */\n      swap6\n      swap5\n      pop\n      pop\n      pop\n      pop\n      pop\n      jump\t// out\n        /* \"#utility.yul\":24232:24408   */\n    tag_293:\n        /* \"#utility.yul\":24372:24400   */\n      0x5468697320626f6f6b206973206e6f7420617661696c61626c65000000000000\n        /* \"#utility.yul\":24368:24369   */\n      0x00\n        /* \"#utility.yul\":24360:24366   */\n      dup3\n        /* \"#utility.yul\":24356:24370   */\n      add\n        /* \"#utility.yul\":24349:24401   */\n      mstore\n        /* \"#utility.yul\":24232:24408   */\n      pop\n      jump\t// out\n        /* \"#utility.yul\":24414:24780   */\n    tag_294:\n        /* \"#utility.yul\":24556:24559   */\n      0x00\n        /* \"#utility.yul\":24577:24644   */\n      tag_546\n        /* \"#utility.yul\":24641:24643   */\n      0x1a\n        /* \"#utility.yul\":24636:24639   */\n      dup4\n        /* \"#utility.yul\":24577:24644   */\n      tag_242\n      jump\t// in\n    tag_546:\n        /* \"#utility.yul\":24570:24644   */\n      swap2\n      pop\n        /* \"#utility.yul\":24653:24746   */\n      tag_547\n        /* \"#utility.yul\":24742:24745   */\n      dup3\n        /* \"#utility.yul\":24653:24746   */\n      tag_293\n      jump\t// in\n    tag_547:\n        /* \"#utility.yul\":24771:24773   */\n      0x20\n        /* \"#utility.yul\":24766:24769   */\n      dup3\n        /* \"#utility.yul\":24762:24774   */\n      add\n        /* \"#utility.yul\":24755:24774   */\n      swap1\n      pop\n        /* \"#utility.yul\":24414:24780   */\n      swap2\n      swap1\n      pop\n      jump\t// out\n        /* \"#utility.yul\":24786:25205   */\n    tag_169:\n        /* \"#utility.yul\":24952:24956   */\n      0x00\n        /* \"#utility.yul\":24990:24992   */\n      0x20\n        /* \"#utility.yul\":24979:24988   */\n      dup3\n        /* \"#utility.yul\":24975:24993   */\n      add\n        /* \"#utility.yul\":24967:24993   */\n      swap1\n      pop\n        /* \"#utility.yul\":25039:25048   */\n      dup2\n        /* \"#utility.yul\":25033:25037   */\n      dup2\n        /* \"#utility.yul\":25029:25049   */\n      sub\n        /* \"#utility.yul\":25025:25026   */\n      0x00\n        /* \"#utility.yul\":25014:25023   */\n      dup4\n        /* \"#utility.yul\":25010:25027   */\n      add\n        /* \"#utility.yul\":25003:25050   */\n      mstore\n        /* \"#utility.yul\":25067:25198   */\n      tag_549\n        /* \"#utility.yul\":25193:25197   */\n      dup2\n        /* \"#utility.yul\":25067:25198   */\n      tag_294\n      jump\t// in\n    tag_549:\n        /* \"#utility.yul\":25059:25198   */\n      swap1\n      pop\n        /* \"#utility.yul\":24786:25205   */\n      swap2\n      swap1\n      pop\n      jump\t// out\n        /* \"#utility.yul\":25211:25387   */\n    tag_295:\n        /* \"#utility.yul\":25351:25379   */\n      0x4e6f7420656e6f7567682073746f636b20617661696c61626c65000000000000\n        /* \"#utility.yul\":25347:25348   */\n      0x00\n        /* \"#utility.yul\":25339:25345   */\n      dup3\n        /* \"#utility.yul\":25335:25349   */\n      add\n        /* \"#utility.yul\":25328:25380   */\n      mstore\n        /* \"#utility.yul\":25211:25387   */\n      pop\n      jump\t// out\n        /* \"#utility.yul\":25393:25759   */\n    tag_296:\n        /* \"#utility.yul\":25535:25538   */\n      0x00\n        /* \"#utility.yul\":25556:25623   */\n      tag_552\n        /* \"#utility.yul\":25620:25622   */\n      0x1a\n        /* \"#utility.yul\":25615:25618   */\n      dup4\n        /* \"#utility.yul\":25556:25623   */\n      tag_242\n      jump\t// in\n    tag_552:\n        /* \"#utility.yul\":25549:25623   */\n      swap2\n      pop\n        /* \"#utility.yul\":25632:25725   */\n      tag_553\n        /* \"#utility.yul\":25721:25724   */\n      dup3\n        /* \"#utility.yul\":25632:25725   */\n      tag_295\n      jump\t// in\n    tag_553:\n        /* \"#utility.yul\":25750:25752   */\n      0x20\n        /* \"#utility.yul\":25745:25748   */\n      dup3\n        /* \"#utility.yul\":25741:25753   */\n      add\n        /* \"#utility.yul\":25734:25753   */\n      swap1\n      pop\n        /* \"#utility.yul\":25393:25759   */\n      swap2\n      swap1\n      pop\n      jump\t// out\n        /* \"#utility.yul\":25765:26184   */\n    tag_172:\n        /* \"#utility.yul\":25931:25935   */\n      0x00\n        /* \"#utility.yul\":25969:25971   */\n      0x20\n        /* \"#utility.yul\":25958:25967   */\n      dup3\n        /* \"#utility.yul\":25954:25972   */\n      add\n        /* \"#utility.yul\":25946:25972   */\n      swap1\n      pop\n        /* \"#utility.yul\":26018:26027   */\n      dup2\n        /* \"#utility.yul\":26012:26016   */\n      dup2\n        /* \"#utility.yul\":26008:26028   */\n      sub\n        /* \"#utility.yul\":26004:26005   */\n      0x00\n        /* \"#utility.yul\":25993:26002   */\n      dup4\n        /* \"#utility.yul\":25989:26006   */\n      add\n        /* \"#utility.yul\":25982:26029   */\n      mstore\n        /* \"#utility.yul\":26046:26177   */\n      tag_555\n        /* \"#utility.yul\":26172:26176   */\n      dup2\n        /* \"#utility.yul\":26046:26177   */\n      tag_296\n      jump\t// in\n    tag_555:\n        /* \"#utility.yul\":26038:26177   */\n      swap1\n      pop\n        /* \"#utility.yul\":25765:26184   */\n      swap2\n      swap1\n      pop\n      jump\t// out\n        /* \"#utility.yul\":26190:26600   */\n    tag_174:\n        /* \"#utility.yul\":26230:26237   */\n      0x00\n        /* \"#utility.yul\":26253:26273   */\n      tag_557\n        /* \"#utility.yul\":26271:26272   */\n      dup3\n        /* \"#utility.yul\":26253:26273   */\n      tag_228\n      jump\t// in\n    tag_557:\n        /* \"#utility.yul\":26248:26273   */\n      swap2\n      pop\n        /* \"#utility.yul\":26287:26307   */\n      tag_558\n        /* \"#utility.yul\":26305:26306   */\n      dup4\n        /* \"#utility.yul\":26287:26307   */\n      tag_228\n      jump\t// in\n    tag_558:\n        /* \"#utility.yul\":26282:26307   */\n      swap3\n      pop\n        /* \"#utility.yul\":26342:26343   */\n      dup3\n        /* \"#utility.yul\":26339:26340   */\n      dup3\n        /* \"#utility.yul\":26335:26344   */\n      mul\n        /* \"#utility.yul\":26364:26394   */\n      tag_559\n        /* \"#utility.yul\":26382:26393   */\n      dup2\n        /* \"#utility.yul\":26364:26394   */\n      tag_228\n      jump\t// in\n    tag_559:\n        /* \"#utility.yul\":26353:26394   */\n      swap2\n      pop\n        /* \"#utility.yul\":26543:26544   */\n      dup3\n        /* \"#utility.yul\":26534:26541   */\n      dup3\n        /* \"#utility.yul\":26530:26545   */\n      div\n        /* \"#utility.yul\":26527:26528   */\n      dup5\n        /* \"#utility.yul\":26524:26546   */\n      eq\n        /* \"#utility.yul\":26504:26505   */\n      dup4\n        /* \"#utility.yul\":26497:26506   */\n      iszero\n        /* \"#utility.yul\":26477:26560   */\n      or\n        /* \"#utility.yul\":26454:26593   */\n      tag_560\n      jumpi\n        /* \"#utility.yul\":26573:26591   */\n      tag_561\n      tag_273\n      jump\t// in\n    tag_561:\n        /* \"#utility.yul\":26454:26593   */\n    tag_560:\n        /* \"#utility.yul\":26238:26600   */\n      pop\n        /* \"#utility.yul\":26190:26600   */\n      swap3\n      swap2\n      pop\n      pop\n      jump\t// out\n        /* \"#utility.yul\":26606:26780   */\n    tag_297:\n        /* \"#utility.yul\":26746:26772   */\n      0x496e636f7272656374207061796d656e7420616d6f756e740000000000000000\n        /* \"#utility.yul\":26742:26743   */\n      0x00\n        /* \"#utility.yul\":26734:26740   */\n      dup3\n        /* \"#utility.yul\":26730:26744   */\n      add\n        /* \"#utility.yul\":26723:26773   */\n      mstore\n        /* \"#utility.yul\":26606:26780   */\n      pop\n      jump\t// out\n        /* \"#utility.yul\":26786:27152   */\n    tag_298:\n        /* \"#utility.yul\":26928:26931   */\n      0x00\n        /* \"#utility.yul\":26949:27016   */\n      tag_564\n        /* \"#utility.yul\":27013:27015   */\n      0x18\n        /* \"#utility.yul\":27008:27011   */\n      dup4\n        /* \"#utility.yul\":26949:27016   */\n      tag_242\n      jump\t// in\n    tag_564:\n        /* \"#utility.yul\":26942:27016   */\n      swap2\n      pop\n        /* \"#utility.yul\":27025:27118   */\n      tag_565\n        /* \"#utility.yul\":27114:27117   */\n      dup3\n        /* \"#utility.yul\":27025:27118   */\n      tag_297\n      jump\t// in\n    tag_565:\n        /* \"#utility.yul\":27143:27145   */\n      0x20\n        /* \"#utility.yul\":27138:27141   */\n      dup3\n        /* \"#utility.yul\":27134:27146   */\n      add\n        /* \"#utility.yul\":27127:27146   */\n      swap1\n      pop\n        /* \"#utility.yul\":26786:27152   */\n      swap2\n      swap1\n      pop\n      jump\t// out\n        /* \"#utility.yul\":27158:27577   */\n    tag_177:\n        /* \"#utility.yul\":27324:27328   */\n      0x00\n        /* \"#utility.yul\":27362:27364   */\n      0x20\n        /* \"#utility.yul\":27351:27360   */\n      dup3\n        /* \"#utility.yul\":27347:27365   */\n      add\n        /* \"#utility.yul\":27339:27365   */\n      swap1\n      pop\n        /* \"#utility.yul\":27411:27420   */\n      dup2\n        /* \"#utility.yul\":27405:27409   */\n      dup2\n        /* \"#utility.yul\":27401:27421   */\n      sub\n        /* \"#utility.yul\":27397:27398   */\n      0x00\n        /* \"#utility.yul\":27386:27395   */\n      dup4\n        /* \"#utility.yul\":27382:27399   */\n      add\n        /* \"#utility.yul\":27375:27422   */\n      mstore\n        /* \"#utility.yul\":27439:27570   */\n      tag_567\n        /* \"#utility.yul\":27565:27569   */\n      dup2\n        /* \"#utility.yul\":27439:27570   */\n      tag_298\n      jump\t// in\n    tag_567:\n        /* \"#utility.yul\":27431:27570   */\n      swap1\n      pop\n        /* \"#utility.yul\":27158:27577   */\n      swap2\n      swap1\n      pop\n      jump\t// out\n        /* \"#utility.yul\":27583:27774   */\n    tag_181:\n        /* \"#utility.yul\":27623:27626   */\n      0x00\n        /* \"#utility.yul\":27642:27662   */\n      tag_569\n        /* \"#utility.yul\":27660:27661   */\n      dup3\n        /* \"#utility.yul\":27642:27662   */\n      tag_228\n      jump\t// in\n    tag_569:\n        /* \"#utility.yul\":27637:27662   */\n      swap2\n      pop\n        /* \"#utility.yul\":27676:27696   */\n      tag_570\n        /* \"#utility.yul\":27694:27695   */\n      dup4\n        /* \"#utility.yul\":27676:27696   */\n      tag_228\n      jump\t// in\n    tag_570:\n        /* \"#utility.yul\":27671:27696   */\n      swap3\n      pop\n        /* \"#utility.yul\":27719:27720   */\n      dup3\n        /* \"#utility.yul\":27716:27717   */\n      dup3\n        /* \"#utility.yul\":27712:27721   */\n      add\n        /* \"#utility.yul\":27705:27721   */\n      swap1\n      pop\n        /* \"#utility.yul\":27740:27743   */\n      dup1\n        /* \"#utility.yul\":27737:27738   */\n      dup3\n        /* \"#utility.yul\":27734:27744   */\n      gt\n        /* \"#utility.yul\":27731:27767   */\n      iszero\n      tag_571\n      jumpi\n        /* \"#utility.yul\":27747:27765   */\n      tag_572\n      tag_273\n      jump\t// in\n    tag_572:\n        /* \"#utility.yul\":27731:27767   */\n    tag_571:\n        /* \"#utility.yul\":27583:27774   */\n      swap3\n      swap2\n      pop\n      pop\n      jump\t// out\n        /* \"#utility.yul\":27780:28112   */\n    tag_185:\n        /* \"#utility.yul\":27901:27905   */\n      0x00\n        /* \"#utility.yul\":27939:27941   */\n      0x40\n        /* \"#utility.yul\":27928:27937   */\n      dup3\n        /* \"#utility.yul\":27924:27942   */\n      add\n        /* \"#utility.yul\":27916:27942   */\n      swap1\n      pop\n        /* \"#utility.yul\":27952:28023   */\n      tag_574\n        /* \"#utility.yul\":28020:28021   */\n      0x00\n        /* \"#utility.yul\":28009:28018   */\n      dup4\n        /* \"#utility.yul\":28005:28022   */\n      add\n        /* \"#utility.yul\":27996:28002   */\n      dup6\n        /* \"#utility.yul\":27952:28023   */\n      tag_240\n      jump\t// in\n    tag_574:\n        /* \"#utility.yul\":28033:28105   */\n      tag_575\n        /* \"#utility.yul\":28101:28103   */\n      0x20\n        /* \"#utility.yul\":28090:28099   */\n      dup4\n        /* \"#utility.yul\":28086:28104   */\n      add\n        /* \"#utility.yul\":28077:28083   */\n      dup5\n        /* \"#utility.yul\":28033:28105   */\n      tag_240\n      jump\t// in\n    tag_575:\n        /* \"#utility.yul\":27780:28112   */\n      swap4\n      swap3\n      pop\n      pop\n      pop\n      jump\t// out\n\n    auxdata: 0xa26469706673582212209d93e9c43b297e15075b396d5eedf9c3120d69b7a2c0f66449080bca0494b5d764736f6c634300081a0033\n}\n",
				"bytecode": {
					"linkReferences": {},
					"object": "608060405234801561000f575f80fd5b5060405161215a38038061215a833981810160405281019061003191906100d4565b335f806101000a81548173ffffffffffffffffffffffffffffffffffffffff021916908373ffffffffffffffffffffffffffffffffffffffff160217905550506100ff565b5f80fd5b5f73ffffffffffffffffffffffffffffffffffffffff82169050919050565b5f6100a38261007a565b9050919050565b6100b381610099565b81146100bd575f80fd5b50565b5f815190506100ce816100aa565b92915050565b5f602082840312156100e9576100e8610076565b5b5f6100f6848285016100c0565b91505092915050565b61204e8061010c5f395ff3fe6080604052600436106100dc575f3560e01c80638da5cb5b1161007e578063d028908511610058578063d0289085146102d0578063f346e2b7146102f8578063f60560de14610314578063f98520de14610350576100dc565b80638da5cb5b146102545780639bd308831461027e578063bec0d799146102a8576100dc565b8063513073b8116100ba578063513073b81461016e578063590791f2146101aa5780635ac3e19e146101d45780636874404614610214576100dc565b80631f9b7ad8146100e0578063354528e81461011c5780633bf561ed14610146575b5f80fd5b3480156100eb575f80fd5b50610106600480360381019061010191906111f6565b610378565b604051610113919061123b565b60405180910390f35b348015610127575f80fd5b50610130610395565b60405161013d919061130b565b60405180910390f35b348015610151575f80fd5b5061016c600480360381019061016791906111f6565b6103eb565b005b348015610179575f80fd5b50610194600480360381019061018f91906111f6565b610538565b6040516101a1919061133a565b60405180910390f35b3480156101b5575f80fd5b506101be610558565b6040516101cb919061133a565b60405180910390f35b3480156101df575f80fd5b506101fa60048036038101906101f591906111f6565b610596565b60405161020b9594939291906113c3565b60405180910390f35b34801561021f575f80fd5b5061023a600480360381019061023591906111f6565b610750565b60405161024b95949392919061143e565b60405180910390f35b34801561025f575f80fd5b506102686108a7565b60405161027591906114dc565b60405180910390f35b348015610289575f80fd5b506102926108ca565b60405161029f919061133a565b60405180910390f35b3480156102b3575f80fd5b506102ce60048036038101906102c991906111f6565b6108d3565b005b3480156102db575f80fd5b506102f660048036038101906102f1919061164b565b610b0e565b005b610312600480360381019061030d91906116fa565b610c98565b005b34801561031f575f80fd5b5061033a600480360381019061033591906111f6565b610eb7565b604051610347919061123b565b60405180910390f35b34801561035b575f80fd5b506103766004803603810190610371919061180e565b610edd565b005b6004602052805f5260405f205f915054906101000a900460ff1681565b606060038054806020026020016040519081016040528092919081815260200182805480156103e157602002820191905f5260205f20905b8154815260200190600101908083116103cd575b5050505050905090565b5f8054906101000a900473ffffffffffffffffffffffffffffffffffffffff1673ffffffffffffffffffffffffffffffffffffffff163373ffffffffffffffffffffffffffffffffffffffff1614610478576040517f08c379a000000000000000000000000000000000000000000000000000000000815260040161046f906118c5565b60405180910390fd5b5f60025f8381526020019081526020015f206002015f9054906101000a900461ffff1661ffff16036104df576040517f08c379a00000000000000000000000000000000000000000000000000000000081526004016104d69061192d565b60405180910390fd5b600160045f8381526020019081526020015f205f6101000a81548160ff021916908315150217905550807f086751756703c53d5d7e44bd54604b7d71c6cce159f4525b5f5b6ef93e6afa4d60405160405180910390a250565b60038181548110610547575f80fd5b905f5260205f20015f915090505481565b5f805f9054906101000a900473ffffffffffffffffffffffffffffffffffffffff1673ffffffffffffffffffffffffffffffffffffffff1631905090565b6060805f805f8060025f8881526020019081526020015f206040518060a00160405290815f820180546105c890611978565b80601f01602080910402602001604051908101604052809291908181526020018280546105f490611978565b801561063f5780601f106106165761010080835404028352916020019161063f565b820191905f5260205f20905b81548152906001019060200180831161062257829003601f168201915b5050505050815260200160018201805461065890611978565b80601f016020809104026020016040519081016040528092919081815260200182805461068490611978565b80156106cf5780601f106106a6576101008083540402835291602001916106cf565b820191905f5260205f20905b8154815290600101906020018083116106b257829003601f168201915b50505050508152602001600282015f9054906101000a900461ffff1661ffff1661ffff16815260200160038201548152602001600482015f9054906101000a900460ff1615151515815250509050805f015181602001518260400151836060015184608001518261ffff169250955095509550955095505091939590929450565b6002602052805f5260405f205f91509050805f01805461076f90611978565b80601f016020809104026020016040519081016040528092919081815260200182805461079b90611978565b80156107e65780601f106107bd576101008083540402835291602001916107e6565b820191905f5260205f20905b8154815290600101906020018083116107c957829003601f168201915b5050505050908060010180546107fb90611978565b80601f016020809104026020016040519081016040528092919081815260200182805461082790611978565b80156108725780601f1061084957610100808354040283529160200191610872565b820191905f5260205f20905b81548152906001019060200180831161085557829003601f168201915b505050505090806002015f9054906101000a900461ffff1690806003015490806004015f9054906101000a900460ff16905085565b5f8054906101000a900473ffffffffffffffffffffffffffffffffffffffff1681565b5f600154905090565b5f8054906101000a900473ffffffffffffffffffffffffffffffffffffffff1673ffffffffffffffffffffffffffffffffffffffff163373ffffffffffffffffffffffffffffffffffffffff1614610960576040517f08c379a0000000000000000000000000000000000000000000000000000000008152600401610957906118c5565b60405180910390fd5b5f60025f8381526020019081526020015f206002015f9054906101000a900461ffff1661ffff16036109c7576040517f08c379a00000000000000000000000000000000000000000000000000000000081526004016109be906119f2565b60405180910390fd5b60025f8281526020019081526020015f205f8082015f6109e7919061115a565b600182015f6109f6919061115a565b600282015f6101000a81549061ffff0219169055600382015f9055600482015f6101000a81549060ff021916905550505f5b600380549050811015610add578160038281548110610a4a57610a49611a10565b5b905f5260205f20015403610ad05760036001600380549050610a6c9190611a6a565b81548110610a7d57610a7c611a10565b5b905f5260205f20015460038281548110610a9a57610a99611a10565b5b905f5260205f2001819055506003805480610ab857610ab7611a9d565b5b600190038181905f5260205f20015f90559055610add565b8080600101915050610a28565b50807f3c5ce13264433bcf97e5d53c97af4fc33800e8c9dd927f965b116d0018d7cddf60405160405180910390a250565b5f60025f8781526020019081526020015f206002015f9054906101000a900461ffff1661ffff1614610b75576040517f08c379a0000000000000000000000000000000000000000000000000000000008152600401610b6c90611b3a565b60405180910390fd5b6040518060a001604052808581526020018481526020018261ffff1681526020018381526020015f8411151581525060025f8781526020019081526020015f205f820151815f019081610bc89190611cf5565b506020820151816001019081610bde9190611cf5565b506040820151816002015f6101000a81548161ffff021916908361ffff160217905550606082015181600301556080820151816004015f6101000a81548160ff021916908315150217905550905050600385908060018154018082558091505060019003905f5260205f20015f9091909190915055847f722c04650224f771c04ec5712c74689980b3ddb4eaa233cd8f9c72d7da7fbe2985858585604051610c899493929190611df4565b60405180910390a25050505050565b5f60025f8581526020019081526020015f209050806004015f9054906101000a900460ff16610cfc576040517f08c379a0000000000000000000000000000000000000000000000000000000008152600401610cf390611e8f565b60405180910390fd5b8281600301541015610d43576040517f08c379a0000000000000000000000000000000000000000000000000000000008152600401610d3a90611ef7565b60405180910390fd5b82816002015f9054906101000a900461ffff1661ffff16610d649190611f15565b8214610da5576040517f08c379a0000000000000000000000000000000000000000000000000000000008152600401610d9c90611fa0565b60405180910390fd5b82816003015f828254610db89190611a6a565b925050819055505f816003015403610de6575f816004015f6101000a81548160ff0219169083151502179055505b8260015f828254610df79190611fbe565b925050819055505f8054906101000a900473ffffffffffffffffffffffffffffffffffffffff1673ffffffffffffffffffffffffffffffffffffffff166108fc3490811502906040515f60405180830381858888f19350505050158015610e60573d5f803e3d5ffd5b503373ffffffffffffffffffffffffffffffffffffffff167f439c08b00222293c6073f3ee383214541a4a21aca7dbb0a45963f86fa8e589f78585604051610ea9929190611ff1565b60405180910390a250505050565b5f60045f8381526020019081526020015f205f9054906101000a900460ff169050919050565b5f8054906101000a900473ffffffffffffffffffffffffffffffffffffffff1673ffffffffffffffffffffffffffffffffffffffff163373ffffffffffffffffffffffffffffffffffffffff1614610f6a576040517f08c379a0000000000000000000000000000000000000000000000000000000008152600401610f61906118c5565b60405180910390fd5b5f5b815181101561111f575f828281518110610f8957610f88611a10565b5b602002602001015190505f60025f8381526020019081526020015f206002015f9054906101000a900461ffff1661ffff1603610ffa576040517f08c379a0000000000000000000000000000000000000000000000000000000008152600401610ff1906119f2565b60405180910390fd5b60025f8281526020019081526020015f205f8082015f61101a919061115a565b600182015f611029919061115a565b600282015f6101000a81549061ffff0219169055600382015f9055600482015f6101000a81549060ff021916905550505f5b60038054905081101561111057816003828154811061107d5761107c611a10565b5b905f5260205f20015403611103576003600160038054905061109f9190611a6a565b815481106110b0576110af611a10565b5b905f5260205f200154600382815481106110cd576110cc611a10565b5b905f5260205f20018190555060038054806110eb576110ea611a9d565b5b600190038181905f5260205f20015f90559055611110565b808060010191505061105b565b50508080600101915050610f6c565b507f7262be1e48c30c363173fcb2fbf2dc2cb38d076dee42cc37cdfbdf62af5c3bed8160405161114f919061130b565b60405180910390a150565b50805461116690611978565b5f825580601f106111775750611194565b601f0160209004905f5260205f20908101906111939190611197565b5b50565b5b808211156111ae575f815f905550600101611198565b5090565b5f604051905090565b5f80fd5b5f80fd5b5f819050919050565b6111d5816111c3565b81146111df575f80fd5b50565b5f813590506111f0816111cc565b92915050565b5f6020828403121561120b5761120a6111bb565b5b5f611218848285016111e2565b91505092915050565b5f8115159050919050565b61123581611221565b82525050565b5f60208201905061124e5f83018461122c565b92915050565b5f81519050919050565b5f82825260208201905092915050565b5f819050602082019050919050565b611286816111c3565b82525050565b5f611297838361127d565b60208301905092915050565b5f602082019050919050565b5f6112b982611254565b6112c3818561125e565b93506112ce8361126e565b805f5b838110156112fe5781516112e5888261128c565b97506112f0836112a3565b9250506001810190506112d1565b5085935050505092915050565b5f6020820190508181035f83015261132381846112af565b905092915050565b611334816111c3565b82525050565b5f60208201905061134d5f83018461132b565b92915050565b5f81519050919050565b5f82825260208201905092915050565b8281835e5f83830152505050565b5f601f19601f8301169050919050565b5f61139582611353565b61139f818561135d565b93506113af81856020860161136d565b6113b88161137b565b840191505092915050565b5f60a0820190508181035f8301526113db818861138b565b905081810360208301526113ef818761138b565b90506113fe604083018661132b565b61140b606083018561132b565b611418608083018461122c565b9695505050505050565b5f61ffff82169050919050565b61143881611422565b82525050565b5f60a0820190508181035f830152611456818861138b565b9050818103602083015261146a818761138b565b9050611479604083018661142f565b611486606083018561132b565b611493608083018461122c565b9695505050505050565b5f73ffffffffffffffffffffffffffffffffffffffff82169050919050565b5f6114c68261149d565b9050919050565b6114d6816114bc565b82525050565b5f6020820190506114ef5f8301846114cd565b92915050565b5f80fd5b5f80fd5b7f4e487b71000000000000000000000000000000000000000000000000000000005f52604160045260245ffd5b6115338261137b565b810181811067ffffffffffffffff82111715611552576115516114fd565b5b80604052505050565b5f6115646111b2565b9050611570828261152a565b919050565b5f67ffffffffffffffff82111561158f5761158e6114fd565b5b6115988261137b565b9050602081019050919050565b828183375f83830152505050565b5f6115c56115c084611575565b61155b565b9050828152602081018484840111156115e1576115e06114f9565b5b6115ec8482856115a5565b509392505050565b5f82601f830112611608576116076114f5565b5b81356116188482602086016115b3565b91505092915050565b61162a81611422565b8114611634575f80fd5b50565b5f8135905061164581611621565b92915050565b5f805f805f60a08688031215611664576116636111bb565b5b5f611671888289016111e2565b955050602086013567ffffffffffffffff811115611692576116916111bf565b5b61169e888289016115f4565b945050604086013567ffffffffffffffff8111156116bf576116be6111bf565b5b6116cb888289016115f4565b93505060606116dc888289016111e2565b92505060806116ed88828901611637565b9150509295509295909350565b5f805f60608486031215611711576117106111bb565b5b5f61171e868287016111e2565b935050602061172f868287016111e2565b9250506040611740868287016111e2565b9150509250925092565b5f67ffffffffffffffff821115611764576117636114fd565b5b602082029050602081019050919050565b5f80fd5b5f61178b6117868461174a565b61155b565b905080838252602082019050602084028301858111156117ae576117ad611775565b5b835b818110156117d757806117c388826111e2565b8452602084019350506020810190506117b0565b5050509392505050565b5f82601f8301126117f5576117f46114f5565b5b8135611805848260208601611779565b91505092915050565b5f60208284031215611823576118226111bb565b5b5f82013567ffffffffffffffff8111156118405761183f6111bf565b5b61184c848285016117e1565b91505092915050565b7f4f6e6c79206f776e65722063616e20706572666f726d207468697320616374695f8201527f6f6e000000000000000000000000000000000000000000000000000000000000602082015250565b5f6118af60228361135d565b91506118ba82611855565b604082019050919050565b5f6020820190508181035f8301526118dc816118a3565b9050919050565b7f5468697320426f6f6b20446f6573204e6f7420457869737421000000000000005f82015250565b5f61191760198361135d565b9150611922826118e3565b602082019050919050565b5f6020820190508181035f8301526119448161190b565b9050919050565b7f4e487b71000000000000000000000000000000000000000000000000000000005f52602260045260245ffd5b5f600282049050600182168061198f57607f821691505b6020821081036119a2576119a161194b565b5b50919050565b7f426f6f6b20646f6573206e6f74206578697374000000000000000000000000005f82015250565b5f6119dc60138361135d565b91506119e7826119a8565b602082019050919050565b5f6020820190508181035f830152611a09816119d0565b9050919050565b7f4e487b71000000000000000000000000000000000000000000000000000000005f52603260045260245ffd5b7f4e487b71000000000000000000000000000000000000000000000000000000005f52601160045260245ffd5b5f611a74826111c3565b9150611a7f836111c3565b9250828203905081811115611a9757611a96611a3d565b5b92915050565b7f4e487b71000000000000000000000000000000000000000000000000000000005f52603160045260245ffd5b7f43414e4e4f542041444420424f4f4b20495420414c52454144592045584953545f8201527f5300000000000000000000000000000000000000000000000000000000000000602082015250565b5f611b2460218361135d565b9150611b2f82611aca565b604082019050919050565b5f6020820190508181035f830152611b5181611b18565b9050919050565b5f819050815f5260205f209050919050565b5f6020601f8301049050919050565b5f82821b905092915050565b5f60088302611bb47fffffffffffffffffffffffffffffffffffffffffffffffffffffffffffffffff82611b79565b611bbe8683611b79565b95508019841693508086168417925050509392505050565b5f819050919050565b5f611bf9611bf4611bef846111c3565b611bd6565b6111c3565b9050919050565b5f819050919050565b611c1283611bdf565b611c26611c1e82611c00565b848454611b85565b825550505050565b5f90565b611c3a611c2e565b611c45818484611c09565b505050565b5b81811015611c6857611c5d5f82611c32565b600181019050611c4b565b5050565b601f821115611cad57611c7e81611b58565b611c8784611b6a565b81016020851015611c96578190505b611caa611ca285611b6a565b830182611c4a565b50505b505050565b5f82821c905092915050565b5f611ccd5f1984600802611cb2565b1980831691505092915050565b5f611ce58383611cbe565b9150826002028217905092915050565b611cfe82611353565b67ffffffffffffffff811115611d1757611d166114fd565b5b611d218254611978565b611d2c828285611c6c565b5f60209050601f831160018114611d5d575f8415611d4b578287015190505b611d558582611cda565b865550611dbc565b601f198416611d6b86611b58565b5f5b82811015611d9257848901518255600182019150602085019450602081019050611d6d565b86831015611daf5784890151611dab601f891682611cbe565b8355505b6001600288020188555050505b505050505050565b5f611dde611dd9611dd484611422565b611bd6565b6111c3565b9050919050565b611dee81611dc4565b82525050565b5f6080820190508181035f830152611e0c818761138b565b90508181036020830152611e20818661138b565b9050611e2f604083018561132b565b611e3c6060830184611de5565b95945050505050565b7f5468697320626f6f6b206973206e6f7420617661696c61626c650000000000005f82015250565b5f611e79601a8361135d565b9150611e8482611e45565b602082019050919050565b5f6020820190508181035f830152611ea681611e6d565b9050919050565b7f4e6f7420656e6f7567682073746f636b20617661696c61626c650000000000005f82015250565b5f611ee1601a8361135d565b9150611eec82611ead565b602082019050919050565b5f6020820190508181035f830152611f0e81611ed5565b9050919050565b5f611f1f826111c3565b9150611f2a836111c3565b9250828202611f38816111c3565b91508282048414831517611f4f57611f4e611a3d565b5b5092915050565b7f496e636f7272656374207061796d656e7420616d6f756e7400000000000000005f82015250565b5f611f8a60188361135d565b9150611f9582611f56565b602082019050919050565b5f6020820190508181035f830152611fb781611f7e565b9050919050565b5f611fc8826111c3565b9150611fd3836111c3565b9250828201905080821115611feb57611fea611a3d565b5b92915050565b5f6040820190506120045f83018561132b565b612011602083018461132b565b939250505056fea26469706673582212209d93e9c43b297e15075b396d5eedf9c3120d69b7a2c0f66449080bca0494b5d764736f6c634300081a0033",
					"opcodes": "PUSH1 0x80 PUSH1 0x40 MSTORE CALLVALUE DUP1 ISZERO PUSH2 0xF JUMPI PUSH0 DUP1 REVERT JUMPDEST POP PUSH1 0x40 MLOAD PUSH2 0x215A CODESIZE SUB DUP1 PUSH2 0x215A DUP4 CODECOPY DUP2 DUP2 ADD PUSH1 0x40 MSTORE DUP2 ADD SWAP1 PUSH2 0x31 SWAP2 SWAP1 PUSH2 0xD4 JUMP JUMPDEST CALLER PUSH0 DUP1 PUSH2 0x100 EXP DUP2 SLOAD DUP2 PUSH20 0xFFFFFFFFFFFFFFFFFFFFFFFFFFFFFFFFFFFFFFFF MUL NOT AND SWAP1 DUP4 PUSH20 0xFFFFFFFFFFFFFFFFFFFFFFFFFFFFFFFFFFFFFFFF AND MUL OR SWAP1 SSTORE POP POP PUSH2 0xFF JUMP JUMPDEST PUSH0 DUP1 REVERT JUMPDEST PUSH0 PUSH20 0xFFFFFFFFFFFFFFFFFFFFFFFFFFFFFFFFFFFFFFFF DUP3 AND SWAP1 POP SWAP2 SWAP1 POP JUMP JUMPDEST PUSH0 PUSH2 0xA3 DUP3 PUSH2 0x7A JUMP JUMPDEST SWAP1 POP SWAP2 SWAP1 POP JUMP JUMPDEST PUSH2 0xB3 DUP2 PUSH2 0x99 JUMP JUMPDEST DUP2 EQ PUSH2 0xBD JUMPI PUSH0 DUP1 REVERT JUMPDEST POP JUMP JUMPDEST PUSH0 DUP2 MLOAD SWAP1 POP PUSH2 0xCE DUP2 PUSH2 0xAA JUMP JUMPDEST SWAP3 SWAP2 POP POP JUMP JUMPDEST PUSH0 PUSH1 0x20 DUP3 DUP5 SUB SLT ISZERO PUSH2 0xE9 JUMPI PUSH2 0xE8 PUSH2 0x76 JUMP JUMPDEST JUMPDEST PUSH0 PUSH2 0xF6 DUP5 DUP3 DUP6 ADD PUSH2 0xC0 JUMP JUMPDEST SWAP2 POP POP SWAP3 SWAP2 POP POP JUMP JUMPDEST PUSH2 0x204E DUP1 PUSH2 0x10C PUSH0 CODECOPY PUSH0 RETURN INVALID PUSH1 0x80 PUSH1 0x40 MSTORE PUSH1 0x4 CALLDATASIZE LT PUSH2 0xDC JUMPI PUSH0 CALLDATALOAD PUSH1 0xE0 SHR DUP1 PUSH4 0x8DA5CB5B GT PUSH2 0x7E JUMPI DUP1 PUSH4 0xD0289085 GT PUSH2 0x58 JUMPI DUP1 PUSH4 0xD0289085 EQ PUSH2 0x2D0 JUMPI DUP1 PUSH4 0xF346E2B7 EQ PUSH2 0x2F8 JUMPI DUP1 PUSH4 0xF60560DE EQ PUSH2 0x314 JUMPI DUP1 PUSH4 0xF98520DE EQ PUSH2 0x350 JUMPI PUSH2 0xDC JUMP JUMPDEST DUP1 PUSH4 0x8DA5CB5B EQ PUSH2 0x254 JUMPI DUP1 PUSH4 0x9BD30883 EQ PUSH2 0x27E JUMPI DUP1 PUSH4 0xBEC0D799 EQ PUSH2 0x2A8 JUMPI PUSH2 0xDC JUMP JUMPDEST DUP1 PUSH4 0x513073B8 GT PUSH2 0xBA JUMPI DUP1 PUSH4 0x513073B8 EQ PUSH2 0x16E JUMPI DUP1 PUSH4 0x590791F2 EQ PUSH2 0x1AA JUMPI DUP1 PUSH4 0x5AC3E19E EQ PUSH2 0x1D4 JUMPI DUP1 PUSH4 0x68744046 EQ PUSH2 0x214 JUMPI PUSH2 0xDC JUMP JUMPDEST DUP1 PUSH4 0x1F9B7AD8 EQ PUSH2 0xE0 JUMPI DUP1 PUSH4 0x354528E8 EQ PUSH2 0x11C JUMPI DUP1 PUSH4 0x3BF561ED EQ PUSH2 0x146 JUMPI JUMPDEST PUSH0 DUP1 REVERT JUMPDEST CALLVALUE DUP1 ISZERO PUSH2 0xEB JUMPI PUSH0 DUP1 REVERT JUMPDEST POP PUSH2 0x106 PUSH1 0x4 DUP1 CALLDATASIZE SUB DUP2 ADD SWAP1 PUSH2 0x101 SWAP2 SWAP1 PUSH2 0x11F6 JUMP JUMPDEST PUSH2 0x378 JUMP JUMPDEST PUSH1 0x40 MLOAD PUSH2 0x113 SWAP2 SWAP1 PUSH2 0x123B JUMP JUMPDEST PUSH1 0x40 MLOAD DUP1 SWAP2 SUB SWAP1 RETURN JUMPDEST CALLVALUE DUP1 ISZERO PUSH2 0x127 JUMPI PUSH0 DUP1 REVERT JUMPDEST POP PUSH2 0x130 PUSH2 0x395 JUMP JUMPDEST PUSH1 0x40 MLOAD PUSH2 0x13D SWAP2 SWAP1 PUSH2 0x130B JUMP JUMPDEST PUSH1 0x40 MLOAD DUP1 SWAP2 SUB SWAP1 RETURN JUMPDEST CALLVALUE DUP1 ISZERO PUSH2 0x151 JUMPI PUSH0 DUP1 REVERT JUMPDEST POP PUSH2 0x16C PUSH1 0x4 DUP1 CALLDATASIZE SUB DUP2 ADD SWAP1 PUSH2 0x167 SWAP2 SWAP1 PUSH2 0x11F6 JUMP JUMPDEST PUSH2 0x3EB JUMP JUMPDEST STOP JUMPDEST CALLVALUE DUP1 ISZERO PUSH2 0x179 JUMPI PUSH0 DUP1 REVERT JUMPDEST POP PUSH2 0x194 PUSH1 0x4 DUP1 CALLDATASIZE SUB DUP2 ADD SWAP1 PUSH2 0x18F SWAP2 SWAP1 PUSH2 0x11F6 JUMP JUMPDEST PUSH2 0x538 JUMP JUMPDEST PUSH1 0x40 MLOAD PUSH2 0x1A1 SWAP2 SWAP1 PUSH2 0x133A JUMP JUMPDEST PUSH1 0x40 MLOAD DUP1 SWAP2 SUB SWAP1 RETURN JUMPDEST CALLVALUE DUP1 ISZERO PUSH2 0x1B5 JUMPI PUSH0 DUP1 REVERT JUMPDEST POP PUSH2 0x1BE PUSH2 0x558 JUMP JUMPDEST PUSH1 0x40 MLOAD PUSH2 0x1CB SWAP2 SWAP1 PUSH2 0x133A JUMP JUMPDEST PUSH1 0x40 MLOAD DUP1 SWAP2 SUB SWAP1 RETURN JUMPDEST CALLVALUE DUP1 ISZERO PUSH2 0x1DF JUMPI PUSH0 DUP1 REVERT JUMPDEST POP PUSH2 0x1FA PUSH1 0x4 DUP1 CALLDATASIZE SUB DUP2 ADD SWAP1 PUSH2 0x1F5 SWAP2 SWAP1 PUSH2 0x11F6 JUMP JUMPDEST PUSH2 0x596 JUMP JUMPDEST PUSH1 0x40 MLOAD PUSH2 0x20B SWAP6 SWAP5 SWAP4 SWAP3 SWAP2 SWAP1 PUSH2 0x13C3 JUMP JUMPDEST PUSH1 0x40 MLOAD DUP1 SWAP2 SUB SWAP1 RETURN JUMPDEST CALLVALUE DUP1 ISZERO PUSH2 0x21F JUMPI PUSH0 DUP1 REVERT JUMPDEST POP PUSH2 0x23A PUSH1 0x4 DUP1 CALLDATASIZE SUB DUP2 ADD SWAP1 PUSH2 0x235 SWAP2 SWAP1 PUSH2 0x11F6 JUMP JUMPDEST PUSH2 0x750 JUMP JUMPDEST PUSH1 0x40 MLOAD PUSH2 0x24B SWAP6 SWAP5 SWAP4 SWAP3 SWAP2 SWAP1 PUSH2 0x143E JUMP JUMPDEST PUSH1 0x40 MLOAD DUP1 SWAP2 SUB SWAP1 RETURN JUMPDEST CALLVALUE DUP1 ISZERO PUSH2 0x25F JUMPI PUSH0 DUP1 REVERT JUMPDEST POP PUSH2 0x268 PUSH2 0x8A7 JUMP JUMPDEST PUSH1 0x40 MLOAD PUSH2 0x275 SWAP2 SWAP1 PUSH2 0x14DC JUMP JUMPDEST PUSH1 0x40 MLOAD DUP1 SWAP2 SUB SWAP1 RETURN JUMPDEST CALLVALUE DUP1 ISZERO PUSH2 0x289 JUMPI PUSH0 DUP1 REVERT JUMPDEST POP PUSH2 0x292 PUSH2 0x8CA JUMP JUMPDEST PUSH1 0x40 MLOAD PUSH2 0x29F SWAP2 SWAP1 PUSH2 0x133A JUMP JUMPDEST PUSH1 0x40 MLOAD DUP1 SWAP2 SUB SWAP1 RETURN JUMPDEST CALLVALUE DUP1 ISZERO PUSH2 0x2B3 JUMPI PUSH0 DUP1 REVERT JUMPDEST POP PUSH2 0x2CE PUSH1 0x4 DUP1 CALLDATASIZE SUB DUP2 ADD SWAP1 PUSH2 0x2C9 SWAP2 SWAP1 PUSH2 0x11F6 JUMP JUMPDEST PUSH2 0x8D3 JUMP JUMPDEST STOP JUMPDEST CALLVALUE DUP1 ISZERO PUSH2 0x2DB JUMPI PUSH0 DUP1 REVERT JUMPDEST POP PUSH2 0x2F6 PUSH1 0x4 DUP1 CALLDATASIZE SUB DUP2 ADD SWAP1 PUSH2 0x2F1 SWAP2 SWAP1 PUSH2 0x164B JUMP JUMPDEST PUSH2 0xB0E JUMP JUMPDEST STOP JUMPDEST PUSH2 0x312 PUSH1 0x4 DUP1 CALLDATASIZE SUB DUP2 ADD SWAP1 PUSH2 0x30D SWAP2 SWAP1 PUSH2 0x16FA JUMP JUMPDEST PUSH2 0xC98 JUMP JUMPDEST STOP JUMPDEST CALLVALUE DUP1 ISZERO PUSH2 0x31F JUMPI PUSH0 DUP1 REVERT JUMPDEST POP PUSH2 0x33A PUSH1 0x4 DUP1 CALLDATASIZE SUB DUP2 ADD SWAP1 PUSH2 0x335 SWAP2 SWAP1 PUSH2 0x11F6 JUMP JUMPDEST PUSH2 0xEB7 JUMP JUMPDEST PUSH1 0x40 MLOAD PUSH2 0x347 SWAP2 SWAP1 PUSH2 0x123B JUMP JUMPDEST PUSH1 0x40 MLOAD DUP1 SWAP2 SUB SWAP1 RETURN JUMPDEST CALLVALUE DUP1 ISZERO PUSH2 0x35B JUMPI PUSH0 DUP1 REVERT JUMPDEST POP PUSH2 0x376 PUSH1 0x4 DUP1 CALLDATASIZE SUB DUP2 ADD SWAP1 PUSH2 0x371 SWAP2 SWAP1 PUSH2 0x180E JUMP JUMPDEST PUSH2 0xEDD JUMP JUMPDEST STOP JUMPDEST PUSH1 0x4 PUSH1 0x20 MSTORE DUP1 PUSH0 MSTORE PUSH1 0x40 PUSH0 KECCAK256 PUSH0 SWAP2 POP SLOAD SWAP1 PUSH2 0x100 EXP SWAP1 DIV PUSH1 0xFF AND DUP2 JUMP JUMPDEST PUSH1 0x60 PUSH1 0x3 DUP1 SLOAD DUP1 PUSH1 0x20 MUL PUSH1 0x20 ADD PUSH1 0x40 MLOAD SWAP1 DUP2 ADD PUSH1 0x40 MSTORE DUP1 SWAP3 SWAP2 SWAP1 DUP2 DUP2 MSTORE PUSH1 0x20 ADD DUP3 DUP1 SLOAD DUP1 ISZERO PUSH2 0x3E1 JUMPI PUSH1 0x20 MUL DUP3 ADD SWAP2 SWAP1 PUSH0 MSTORE PUSH1 0x20 PUSH0 KECCAK256 SWAP1 JUMPDEST DUP2 SLOAD DUP2 MSTORE PUSH1 0x20 ADD SWAP1 PUSH1 0x1 ADD SWAP1 DUP1 DUP4 GT PUSH2 0x3CD JUMPI JUMPDEST POP POP POP POP POP SWAP1 POP SWAP1 JUMP JUMPDEST PUSH0 DUP1 SLOAD SWAP1 PUSH2 0x100 EXP SWAP1 DIV PUSH20 0xFFFFFFFFFFFFFFFFFFFFFFFFFFFFFFFFFFFFFFFF AND PUSH20 0xFFFFFFFFFFFFFFFFFFFFFFFFFFFFFFFFFFFFFFFF AND CALLER PUSH20 0xFFFFFFFFFFFFFFFFFFFFFFFFFFFFFFFFFFFFFFFF AND EQ PUSH2 0x478 JUMPI PUSH1 0x40 MLOAD PUSH32 0x8C379A000000000000000000000000000000000000000000000000000000000 DUP2 MSTORE PUSH1 0x4 ADD PUSH2 0x46F SWAP1 PUSH2 0x18C5 JUMP JUMPDEST PUSH1 0x40 MLOAD DUP1 SWAP2 SUB SWAP1 REVERT JUMPDEST PUSH0 PUSH1 0x2 PUSH0 DUP4 DUP2 MSTORE PUSH1 0x20 ADD SWAP1 DUP2 MSTORE PUSH1 0x20 ADD PUSH0 KECCAK256 PUSH1 0x2 ADD PUSH0 SWAP1 SLOAD SWAP1 PUSH2 0x100 EXP SWAP1 DIV PUSH2 0xFFFF AND PUSH2 0xFFFF AND SUB PUSH2 0x4DF JUMPI PUSH1 0x40 MLOAD PUSH32 0x8C379A000000000000000000000000000000000000000000000000000000000 DUP2 MSTORE PUSH1 0x4 ADD PUSH2 0x4D6 SWAP1 PUSH2 0x192D JUMP JUMPDEST PUSH1 0x40 MLOAD DUP1 SWAP2 SUB SWAP1 REVERT JUMPDEST PUSH1 0x1 PUSH1 0x4 PUSH0 DUP4 DUP2 MSTORE PUSH1 0x20 ADD SWAP1 DUP2 MSTORE PUSH1 0x20 ADD PUSH0 KECCAK256 PUSH0 PUSH2 0x100 EXP DUP2 SLOAD DUP2 PUSH1 0xFF MUL NOT AND SWAP1 DUP4 ISZERO ISZERO MUL OR SWAP1 SSTORE POP DUP1 PUSH32 0x86751756703C53D5D7E44BD54604B7D71C6CCE159F4525B5F5B6EF93E6AFA4D PUSH1 0x40 MLOAD PUSH1 0x40 MLOAD DUP1 SWAP2 SUB SWAP1 LOG2 POP JUMP JUMPDEST PUSH1 0x3 DUP2 DUP2 SLOAD DUP2 LT PUSH2 0x547 JUMPI PUSH0 DUP1 REVERT JUMPDEST SWAP1 PUSH0 MSTORE PUSH1 0x20 PUSH0 KECCAK256 ADD PUSH0 SWAP2 POP SWAP1 POP SLOAD DUP2 JUMP JUMPDEST PUSH0 DUP1 PUSH0 SWAP1 SLOAD SWAP1 PUSH2 0x100 EXP SWAP1 DIV PUSH20 0xFFFFFFFFFFFFFFFFFFFFFFFFFFFFFFFFFFFFFFFF AND PUSH20 0xFFFFFFFFFFFFFFFFFFFFFFFFFFFFFFFFFFFFFFFF AND BALANCE SWAP1 POP SWAP1 JUMP JUMPDEST PUSH1 0x60 DUP1 PUSH0 DUP1 PUSH0 DUP1 PUSH1 0x2 PUSH0 DUP9 DUP2 MSTORE PUSH1 0x20 ADD SWAP1 DUP2 MSTORE PUSH1 0x20 ADD PUSH0 KECCAK256 PUSH1 0x40 MLOAD DUP1 PUSH1 0xA0 ADD PUSH1 0x40 MSTORE SWAP1 DUP2 PUSH0 DUP3 ADD DUP1 SLOAD PUSH2 0x5C8 SWAP1 PUSH2 0x1978 JUMP JUMPDEST DUP1 PUSH1 0x1F ADD PUSH1 0x20 DUP1 SWAP2 DIV MUL PUSH1 0x20 ADD PUSH1 0x40 MLOAD SWAP1 DUP2 ADD PUSH1 0x40 MSTORE DUP1 SWAP3 SWAP2 SWAP1 DUP2 DUP2 MSTORE PUSH1 0x20 ADD DUP3 DUP1 SLOAD PUSH2 0x5F4 SWAP1 PUSH2 0x1978 JUMP JUMPDEST DUP1 ISZERO PUSH2 0x63F JUMPI DUP1 PUSH1 0x1F LT PUSH2 0x616 JUMPI PUSH2 0x100 DUP1 DUP4 SLOAD DIV MUL DUP4 MSTORE SWAP2 PUSH1 0x20 ADD SWAP2 PUSH2 0x63F JUMP JUMPDEST DUP3 ADD SWAP2 SWAP1 PUSH0 MSTORE PUSH1 0x20 PUSH0 KECCAK256 SWAP1 JUMPDEST DUP2 SLOAD DUP2 MSTORE SWAP1 PUSH1 0x1 ADD SWAP1 PUSH1 0x20 ADD DUP1 DUP4 GT PUSH2 0x622 JUMPI DUP3 SWAP1 SUB PUSH1 0x1F AND DUP3 ADD SWAP2 JUMPDEST POP POP POP POP POP DUP2 MSTORE PUSH1 0x20 ADD PUSH1 0x1 DUP3 ADD DUP1 SLOAD PUSH2 0x658 SWAP1 PUSH2 0x1978 JUMP JUMPDEST DUP1 PUSH1 0x1F ADD PUSH1 0x20 DUP1 SWAP2 DIV MUL PUSH1 0x20 ADD PUSH1 0x40 MLOAD SWAP1 DUP2 ADD PUSH1 0x40 MSTORE DUP1 SWAP3 SWAP2 SWAP1 DUP2 DUP2 MSTORE PUSH1 0x20 ADD DUP3 DUP1 SLOAD PUSH2 0x684 SWAP1 PUSH2 0x1978 JUMP JUMPDEST DUP1 ISZERO PUSH2 0x6CF JUMPI DUP1 PUSH1 0x1F LT PUSH2 0x6A6 JUMPI PUSH2 0x100 DUP1 DUP4 SLOAD DIV MUL DUP4 MSTORE SWAP2 PUSH1 0x20 ADD SWAP2 PUSH2 0x6CF JUMP JUMPDEST DUP3 ADD SWAP2 SWAP1 PUSH0 MSTORE PUSH1 0x20 PUSH0 KECCAK256 SWAP1 JUMPDEST DUP2 SLOAD DUP2 MSTORE SWAP1 PUSH1 0x1 ADD SWAP1 PUSH1 0x20 ADD DUP1 DUP4 GT PUSH2 0x6B2 JUMPI DUP3 SWAP1 SUB PUSH1 0x1F AND DUP3 ADD SWAP2 JUMPDEST POP POP POP POP POP DUP2 MSTORE PUSH1 0x20 ADD PUSH1 0x2 DUP3 ADD PUSH0 SWAP1 SLOAD SWAP1 PUSH2 0x100 EXP SWAP1 DIV PUSH2 0xFFFF AND PUSH2 0xFFFF AND PUSH2 0xFFFF AND DUP2 MSTORE PUSH1 0x20 ADD PUSH1 0x3 DUP3 ADD SLOAD DUP2 MSTORE PUSH1 0x20 ADD PUSH1 0x4 DUP3 ADD PUSH0 SWAP1 SLOAD SWAP1 PUSH2 0x100 EXP SWAP1 DIV PUSH1 0xFF AND ISZERO ISZERO ISZERO ISZERO DUP2 MSTORE POP POP SWAP1 POP DUP1 PUSH0 ADD MLOAD DUP2 PUSH1 0x20 ADD MLOAD DUP3 PUSH1 0x40 ADD MLOAD DUP4 PUSH1 0x60 ADD MLOAD DUP5 PUSH1 0x80 ADD MLOAD DUP3 PUSH2 0xFFFF AND SWAP3 POP SWAP6 POP SWAP6 POP SWAP6 POP SWAP6 POP SWAP6 POP POP SWAP2 SWAP4 SWAP6 SWAP1 SWAP3 SWAP5 POP JUMP JUMPDEST PUSH1 0x2 PUSH1 0x20 MSTORE DUP1 PUSH0 MSTORE PUSH1 0x40 PUSH0 KECCAK256 PUSH0 SWAP2 POP SWAP1 POP DUP1 PUSH0 ADD DUP1 SLOAD PUSH2 0x76F SWAP1 PUSH2 0x1978 JUMP JUMPDEST DUP1 PUSH1 0x1F ADD PUSH1 0x20 DUP1 SWAP2 DIV MUL PUSH1 0x20 ADD PUSH1 0x40 MLOAD SWAP1 DUP2 ADD PUSH1 0x40 MSTORE DUP1 SWAP3 SWAP2 SWAP1 DUP2 DUP2 MSTORE PUSH1 0x20 ADD DUP3 DUP1 SLOAD PUSH2 0x79B SWAP1 PUSH2 0x1978 JUMP JUMPDEST DUP1 ISZERO PUSH2 0x7E6 JUMPI DUP1 PUSH1 0x1F LT PUSH2 0x7BD JUMPI PUSH2 0x100 DUP1 DUP4 SLOAD DIV MUL DUP4 MSTORE SWAP2 PUSH1 0x20 ADD SWAP2 PUSH2 0x7E6 JUMP JUMPDEST DUP3 ADD SWAP2 SWAP1 PUSH0 MSTORE PUSH1 0x20 PUSH0 KECCAK256 SWAP1 JUMPDEST DUP2 SLOAD DUP2 MSTORE SWAP1 PUSH1 0x1 ADD SWAP1 PUSH1 0x20 ADD DUP1 DUP4 GT PUSH2 0x7C9 JUMPI DUP3 SWAP1 SUB PUSH1 0x1F AND DUP3 ADD SWAP2 JUMPDEST POP POP POP POP POP SWAP1 DUP1 PUSH1 0x1 ADD DUP1 SLOAD PUSH2 0x7FB SWAP1 PUSH2 0x1978 JUMP JUMPDEST DUP1 PUSH1 0x1F ADD PUSH1 0x20 DUP1 SWAP2 DIV MUL PUSH1 0x20 ADD PUSH1 0x40 MLOAD SWAP1 DUP2 ADD PUSH1 0x40 MSTORE DUP1 SWAP3 SWAP2 SWAP1 DUP2 DUP2 MSTORE PUSH1 0x20 ADD DUP3 DUP1 SLOAD PUSH2 0x827 SWAP1 PUSH2 0x1978 JUMP JUMPDEST DUP1 ISZERO PUSH2 0x872 JUMPI DUP1 PUSH1 0x1F LT PUSH2 0x849 JUMPI PUSH2 0x100 DUP1 DUP4 SLOAD DIV MUL DUP4 MSTORE SWAP2 PUSH1 0x20 ADD SWAP2 PUSH2 0x872 JUMP JUMPDEST DUP3 ADD SWAP2 SWAP1 PUSH0 MSTORE PUSH1 0x20 PUSH0 KECCAK256 SWAP1 JUMPDEST DUP2 SLOAD DUP2 MSTORE SWAP1 PUSH1 0x1 ADD SWAP1 PUSH1 0x20 ADD DUP1 DUP4 GT PUSH2 0x855 JUMPI DUP3 SWAP1 SUB PUSH1 0x1F AND DUP3 ADD SWAP2 JUMPDEST POP POP POP POP POP SWAP1 DUP1 PUSH1 0x2 ADD PUSH0 SWAP1 SLOAD SWAP1 PUSH2 0x100 EXP SWAP1 DIV PUSH2 0xFFFF AND SWAP1 DUP1 PUSH1 0x3 ADD SLOAD SWAP1 DUP1 PUSH1 0x4 ADD PUSH0 SWAP1 SLOAD SWAP1 PUSH2 0x100 EXP SWAP1 DIV PUSH1 0xFF AND SWAP1 POP DUP6 JUMP JUMPDEST PUSH0 DUP1 SLOAD SWAP1 PUSH2 0x100 EXP SWAP1 DIV PUSH20 0xFFFFFFFFFFFFFFFFFFFFFFFFFFFFFFFFFFFFFFFF AND DUP2 JUMP JUMPDEST PUSH0 PUSH1 0x1 SLOAD SWAP1 POP SWAP1 JUMP JUMPDEST PUSH0 DUP1 SLOAD SWAP1 PUSH2 0x100 EXP SWAP1 DIV PUSH20 0xFFFFFFFFFFFFFFFFFFFFFFFFFFFFFFFFFFFFFFFF AND PUSH20 0xFFFFFFFFFFFFFFFFFFFFFFFFFFFFFFFFFFFFFFFF AND CALLER PUSH20 0xFFFFFFFFFFFFFFFFFFFFFFFFFFFFFFFFFFFFFFFF AND EQ PUSH2 0x960 JUMPI PUSH1 0x40 MLOAD PUSH32 0x8C379A000000000000000000000000000000000000000000000000000000000 DUP2 MSTORE PUSH1 0x4 ADD PUSH2 0x957 SWAP1 PUSH2 0x18C5 JUMP JUMPDEST PUSH1 0x40 MLOAD DUP1 SWAP2 SUB SWAP1 REVERT JUMPDEST PUSH0 PUSH1 0x2 PUSH0 DUP4 DUP2 MSTORE PUSH1 0x20 ADD SWAP1 DUP2 MSTORE PUSH1 0x20 ADD PUSH0 KECCAK256 PUSH1 0x2 ADD PUSH0 SWAP1 SLOAD SWAP1 PUSH2 0x100 EXP SWAP1 DIV PUSH2 0xFFFF AND PUSH2 0xFFFF AND SUB PUSH2 0x9C7 JUMPI PUSH1 0x40 MLOAD PUSH32 0x8C379A000000000000000000000000000000000000000000000000000000000 DUP2 MSTORE PUSH1 0x4 ADD PUSH2 0x9BE SWAP1 PUSH2 0x19F2 JUMP JUMPDEST PUSH1 0x40 MLOAD DUP1 SWAP2 SUB SWAP1 REVERT JUMPDEST PUSH1 0x2 PUSH0 DUP3 DUP2 MSTORE PUSH1 0x20 ADD SWAP1 DUP2 MSTORE PUSH1 0x20 ADD PUSH0 KECCAK256 PUSH0 DUP1 DUP3 ADD PUSH0 PUSH2 0x9E7 SWAP2 SWAP1 PUSH2 0x115A JUMP JUMPDEST PUSH1 0x1 DUP3 ADD PUSH0 PUSH2 0x9F6 SWAP2 SWAP1 PUSH2 0x115A JUMP JUMPDEST PUSH1 0x2 DUP3 ADD PUSH0 PUSH2 0x100 EXP DUP2 SLOAD SWAP1 PUSH2 0xFFFF MUL NOT AND SWAP1 SSTORE PUSH1 0x3 DUP3 ADD PUSH0 SWAP1 SSTORE PUSH1 0x4 DUP3 ADD PUSH0 PUSH2 0x100 EXP DUP2 SLOAD SWAP1 PUSH1 0xFF MUL NOT AND SWAP1 SSTORE POP POP PUSH0 JUMPDEST PUSH1 0x3 DUP1 SLOAD SWAP1 POP DUP2 LT ISZERO PUSH2 0xADD JUMPI DUP2 PUSH1 0x3 DUP3 DUP2 SLOAD DUP2 LT PUSH2 0xA4A JUMPI PUSH2 0xA49 PUSH2 0x1A10 JUMP JUMPDEST JUMPDEST SWAP1 PUSH0 MSTORE PUSH1 0x20 PUSH0 KECCAK256 ADD SLOAD SUB PUSH2 0xAD0 JUMPI PUSH1 0x3 PUSH1 0x1 PUSH1 0x3 DUP1 SLOAD SWAP1 POP PUSH2 0xA6C SWAP2 SWAP1 PUSH2 0x1A6A JUMP JUMPDEST DUP2 SLOAD DUP2 LT PUSH2 0xA7D JUMPI PUSH2 0xA7C PUSH2 0x1A10 JUMP JUMPDEST JUMPDEST SWAP1 PUSH0 MSTORE PUSH1 0x20 PUSH0 KECCAK256 ADD SLOAD PUSH1 0x3 DUP3 DUP2 SLOAD DUP2 LT PUSH2 0xA9A JUMPI PUSH2 0xA99 PUSH2 0x1A10 JUMP JUMPDEST JUMPDEST SWAP1 PUSH0 MSTORE PUSH1 0x20 PUSH0 KECCAK256 ADD DUP2 SWAP1 SSTORE POP PUSH1 0x3 DUP1 SLOAD DUP1 PUSH2 0xAB8 JUMPI PUSH2 0xAB7 PUSH2 0x1A9D JUMP JUMPDEST JUMPDEST PUSH1 0x1 SWAP1 SUB DUP2 DUP2 SWAP1 PUSH0 MSTORE PUSH1 0x20 PUSH0 KECCAK256 ADD PUSH0 SWAP1 SSTORE SWAP1 SSTORE PUSH2 0xADD JUMP JUMPDEST DUP1 DUP1 PUSH1 0x1 ADD SWAP2 POP POP PUSH2 0xA28 JUMP JUMPDEST POP DUP1 PUSH32 0x3C5CE13264433BCF97E5D53C97AF4FC33800E8C9DD927F965B116D0018D7CDDF PUSH1 0x40 MLOAD PUSH1 0x40 MLOAD DUP1 SWAP2 SUB SWAP1 LOG2 POP JUMP JUMPDEST PUSH0 PUSH1 0x2 PUSH0 DUP8 DUP2 MSTORE PUSH1 0x20 ADD SWAP1 DUP2 MSTORE PUSH1 0x20 ADD PUSH0 KECCAK256 PUSH1 0x2 ADD PUSH0 SWAP1 SLOAD SWAP1 PUSH2 0x100 EXP SWAP1 DIV PUSH2 0xFFFF AND PUSH2 0xFFFF AND EQ PUSH2 0xB75 JUMPI PUSH1 0x40 MLOAD PUSH32 0x8C379A000000000000000000000000000000000000000000000000000000000 DUP2 MSTORE PUSH1 0x4 ADD PUSH2 0xB6C SWAP1 PUSH2 0x1B3A JUMP JUMPDEST PUSH1 0x40 MLOAD DUP1 SWAP2 SUB SWAP1 REVERT JUMPDEST PUSH1 0x40 MLOAD DUP1 PUSH1 0xA0 ADD PUSH1 0x40 MSTORE DUP1 DUP6 DUP2 MSTORE PUSH1 0x20 ADD DUP5 DUP2 MSTORE PUSH1 0x20 ADD DUP3 PUSH2 0xFFFF AND DUP2 MSTORE PUSH1 0x20 ADD DUP4 DUP2 MSTORE PUSH1 0x20 ADD PUSH0 DUP5 GT ISZERO ISZERO DUP2 MSTORE POP PUSH1 0x2 PUSH0 DUP8 DUP2 MSTORE PUSH1 0x20 ADD SWAP1 DUP2 MSTORE PUSH1 0x20 ADD PUSH0 KECCAK256 PUSH0 DUP3 ADD MLOAD DUP2 PUSH0 ADD SWAP1 DUP2 PUSH2 0xBC8 SWAP2 SWAP1 PUSH2 0x1CF5 JUMP JUMPDEST POP PUSH1 0x20 DUP3 ADD MLOAD DUP2 PUSH1 0x1 ADD SWAP1 DUP2 PUSH2 0xBDE SWAP2 SWAP1 PUSH2 0x1CF5 JUMP JUMPDEST POP PUSH1 0x40 DUP3 ADD MLOAD DUP2 PUSH1 0x2 ADD PUSH0 PUSH2 0x100 EXP DUP2 SLOAD DUP2 PUSH2 0xFFFF MUL NOT AND SWAP1 DUP4 PUSH2 0xFFFF AND MUL OR SWAP1 SSTORE POP PUSH1 0x60 DUP3 ADD MLOAD DUP2 PUSH1 0x3 ADD SSTORE PUSH1 0x80 DUP3 ADD MLOAD DUP2 PUSH1 0x4 ADD PUSH0 PUSH2 0x100 EXP DUP2 SLOAD DUP2 PUSH1 0xFF MUL NOT AND SWAP1 DUP4 ISZERO ISZERO MUL OR SWAP1 SSTORE POP SWAP1 POP POP PUSH1 0x3 DUP6 SWAP1 DUP1 PUSH1 0x1 DUP2 SLOAD ADD DUP1 DUP3 SSTORE DUP1 SWAP2 POP POP PUSH1 0x1 SWAP1 SUB SWAP1 PUSH0 MSTORE PUSH1 0x20 PUSH0 KECCAK256 ADD PUSH0 SWAP1 SWAP2 SWAP1 SWAP2 SWAP1 SWAP2 POP SSTORE DUP5 PUSH32 0x722C04650224F771C04EC5712C74689980B3DDB4EAA233CD8F9C72D7DA7FBE29 DUP6 DUP6 DUP6 DUP6 PUSH1 0x40 MLOAD PUSH2 0xC89 SWAP5 SWAP4 SWAP3 SWAP2 SWAP1 PUSH2 0x1DF4 JUMP JUMPDEST PUSH1 0x40 MLOAD DUP1 SWAP2 SUB SWAP1 LOG2 POP POP POP POP POP JUMP JUMPDEST PUSH0 PUSH1 0x2 PUSH0 DUP6 DUP2 MSTORE PUSH1 0x20 ADD SWAP1 DUP2 MSTORE PUSH1 0x20 ADD PUSH0 KECCAK256 SWAP1 POP DUP1 PUSH1 0x4 ADD PUSH0 SWAP1 SLOAD SWAP1 PUSH2 0x100 EXP SWAP1 DIV PUSH1 0xFF AND PUSH2 0xCFC JUMPI PUSH1 0x40 MLOAD PUSH32 0x8C379A000000000000000000000000000000000000000000000000000000000 DUP2 MSTORE PUSH1 0x4 ADD PUSH2 0xCF3 SWAP1 PUSH2 0x1E8F JUMP JUMPDEST PUSH1 0x40 MLOAD DUP1 SWAP2 SUB SWAP1 REVERT JUMPDEST DUP3 DUP2 PUSH1 0x3 ADD SLOAD LT ISZERO PUSH2 0xD43 JUMPI PUSH1 0x40 MLOAD PUSH32 0x8C379A000000000000000000000000000000000000000000000000000000000 DUP2 MSTORE PUSH1 0x4 ADD PUSH2 0xD3A SWAP1 PUSH2 0x1EF7 JUMP JUMPDEST PUSH1 0x40 MLOAD DUP1 SWAP2 SUB SWAP1 REVERT JUMPDEST DUP3 DUP2 PUSH1 0x2 ADD PUSH0 SWAP1 SLOAD SWAP1 PUSH2 0x100 EXP SWAP1 DIV PUSH2 0xFFFF AND PUSH2 0xFFFF AND PUSH2 0xD64 SWAP2 SWAP1 PUSH2 0x1F15 JUMP JUMPDEST DUP3 EQ PUSH2 0xDA5 JUMPI PUSH1 0x40 MLOAD PUSH32 0x8C379A000000000000000000000000000000000000000000000000000000000 DUP2 MSTORE PUSH1 0x4 ADD PUSH2 0xD9C SWAP1 PUSH2 0x1FA0 JUMP JUMPDEST PUSH1 0x40 MLOAD DUP1 SWAP2 SUB SWAP1 REVERT JUMPDEST DUP3 DUP2 PUSH1 0x3 ADD PUSH0 DUP3 DUP3 SLOAD PUSH2 0xDB8 SWAP2 SWAP1 PUSH2 0x1A6A JUMP JUMPDEST SWAP3 POP POP DUP2 SWAP1 SSTORE POP PUSH0 DUP2 PUSH1 0x3 ADD SLOAD SUB PUSH2 0xDE6 JUMPI PUSH0 DUP2 PUSH1 0x4 ADD PUSH0 PUSH2 0x100 EXP DUP2 SLOAD DUP2 PUSH1 0xFF MUL NOT AND SWAP1 DUP4 ISZERO ISZERO MUL OR SWAP1 SSTORE POP JUMPDEST DUP3 PUSH1 0x1 PUSH0 DUP3 DUP3 SLOAD PUSH2 0xDF7 SWAP2 SWAP1 PUSH2 0x1FBE JUMP JUMPDEST SWAP3 POP POP DUP2 SWAP1 SSTORE POP PUSH0 DUP1 SLOAD SWAP1 PUSH2 0x100 EXP SWAP1 DIV PUSH20 0xFFFFFFFFFFFFFFFFFFFFFFFFFFFFFFFFFFFFFFFF AND PUSH20 0xFFFFFFFFFFFFFFFFFFFFFFFFFFFFFFFFFFFFFFFF AND PUSH2 0x8FC CALLVALUE SWAP1 DUP2 ISZERO MUL SWAP1 PUSH1 0x40 MLOAD PUSH0 PUSH1 0x40 MLOAD DUP1 DUP4 SUB DUP2 DUP6 DUP9 DUP9 CALL SWAP4 POP POP POP POP ISZERO DUP1 ISZERO PUSH2 0xE60 JUMPI RETURNDATASIZE PUSH0 DUP1 RETURNDATACOPY RETURNDATASIZE PUSH0 REVERT JUMPDEST POP CALLER PUSH20 0xFFFFFFFFFFFFFFFFFFFFFFFFFFFFFFFFFFFFFFFF AND PUSH32 0x439C08B00222293C6073F3EE383214541A4A21ACA7DBB0A45963F86FA8E589F7 DUP6 DUP6 PUSH1 0x40 MLOAD PUSH2 0xEA9 SWAP3 SWAP2 SWAP1 PUSH2 0x1FF1 JUMP JUMPDEST PUSH1 0x40 MLOAD DUP1 SWAP2 SUB SWAP1 LOG2 POP POP POP POP JUMP JUMPDEST PUSH0 PUSH1 0x4 PUSH0 DUP4 DUP2 MSTORE PUSH1 0x20 ADD SWAP1 DUP2 MSTORE PUSH1 0x20 ADD PUSH0 KECCAK256 PUSH0 SWAP1 SLOAD SWAP1 PUSH2 0x100 EXP SWAP1 DIV PUSH1 0xFF AND SWAP1 POP SWAP2 SWAP1 POP JUMP JUMPDEST PUSH0 DUP1 SLOAD SWAP1 PUSH2 0x100 EXP SWAP1 DIV PUSH20 0xFFFFFFFFFFFFFFFFFFFFFFFFFFFFFFFFFFFFFFFF AND PUSH20 0xFFFFFFFFFFFFFFFFFFFFFFFFFFFFFFFFFFFFFFFF AND CALLER PUSH20 0xFFFFFFFFFFFFFFFFFFFFFFFFFFFFFFFFFFFFFFFF AND EQ PUSH2 0xF6A JUMPI PUSH1 0x40 MLOAD PUSH32 0x8C379A000000000000000000000000000000000000000000000000000000000 DUP2 MSTORE PUSH1 0x4 ADD PUSH2 0xF61 SWAP1 PUSH2 0x18C5 JUMP JUMPDEST PUSH1 0x40 MLOAD DUP1 SWAP2 SUB SWAP1 REVERT JUMPDEST PUSH0 JUMPDEST DUP2 MLOAD DUP2 LT ISZERO PUSH2 0x111F JUMPI PUSH0 DUP3 DUP3 DUP2 MLOAD DUP2 LT PUSH2 0xF89 JUMPI PUSH2 0xF88 PUSH2 0x1A10 JUMP JUMPDEST JUMPDEST PUSH1 0x20 MUL PUSH1 0x20 ADD ADD MLOAD SWAP1 POP PUSH0 PUSH1 0x2 PUSH0 DUP4 DUP2 MSTORE PUSH1 0x20 ADD SWAP1 DUP2 MSTORE PUSH1 0x20 ADD PUSH0 KECCAK256 PUSH1 0x2 ADD PUSH0 SWAP1 SLOAD SWAP1 PUSH2 0x100 EXP SWAP1 DIV PUSH2 0xFFFF AND PUSH2 0xFFFF AND SUB PUSH2 0xFFA JUMPI PUSH1 0x40 MLOAD PUSH32 0x8C379A000000000000000000000000000000000000000000000000000000000 DUP2 MSTORE PUSH1 0x4 ADD PUSH2 0xFF1 SWAP1 PUSH2 0x19F2 JUMP JUMPDEST PUSH1 0x40 MLOAD DUP1 SWAP2 SUB SWAP1 REVERT JUMPDEST PUSH1 0x2 PUSH0 DUP3 DUP2 MSTORE PUSH1 0x20 ADD SWAP1 DUP2 MSTORE PUSH1 0x20 ADD PUSH0 KECCAK256 PUSH0 DUP1 DUP3 ADD PUSH0 PUSH2 0x101A SWAP2 SWAP1 PUSH2 0x115A JUMP JUMPDEST PUSH1 0x1 DUP3 ADD PUSH0 PUSH2 0x1029 SWAP2 SWAP1 PUSH2 0x115A JUMP JUMPDEST PUSH1 0x2 DUP3 ADD PUSH0 PUSH2 0x100 EXP DUP2 SLOAD SWAP1 PUSH2 0xFFFF MUL NOT AND SWAP1 SSTORE PUSH1 0x3 DUP3 ADD PUSH0 SWAP1 SSTORE PUSH1 0x4 DUP3 ADD PUSH0 PUSH2 0x100 EXP DUP2 SLOAD SWAP1 PUSH1 0xFF MUL NOT AND SWAP1 SSTORE POP POP PUSH0 JUMPDEST PUSH1 0x3 DUP1 SLOAD SWAP1 POP DUP2 LT ISZERO PUSH2 0x1110 JUMPI DUP2 PUSH1 0x3 DUP3 DUP2 SLOAD DUP2 LT PUSH2 0x107D JUMPI PUSH2 0x107C PUSH2 0x1A10 JUMP JUMPDEST JUMPDEST SWAP1 PUSH0 MSTORE PUSH1 0x20 PUSH0 KECCAK256 ADD SLOAD SUB PUSH2 0x1103 JUMPI PUSH1 0x3 PUSH1 0x1 PUSH1 0x3 DUP1 SLOAD SWAP1 POP PUSH2 0x109F SWAP2 SWAP1 PUSH2 0x1A6A JUMP JUMPDEST DUP2 SLOAD DUP2 LT PUSH2 0x10B0 JUMPI PUSH2 0x10AF PUSH2 0x1A10 JUMP JUMPDEST JUMPDEST SWAP1 PUSH0 MSTORE PUSH1 0x20 PUSH0 KECCAK256 ADD SLOAD PUSH1 0x3 DUP3 DUP2 SLOAD DUP2 LT PUSH2 0x10CD JUMPI PUSH2 0x10CC PUSH2 0x1A10 JUMP JUMPDEST JUMPDEST SWAP1 PUSH0 MSTORE PUSH1 0x20 PUSH0 KECCAK256 ADD DUP2 SWAP1 SSTORE POP PUSH1 0x3 DUP1 SLOAD DUP1 PUSH2 0x10EB JUMPI PUSH2 0x10EA PUSH2 0x1A9D JUMP JUMPDEST JUMPDEST PUSH1 0x1 SWAP1 SUB DUP2 DUP2 SWAP1 PUSH0 MSTORE PUSH1 0x20 PUSH0 KECCAK256 ADD PUSH0 SWAP1 SSTORE SWAP1 SSTORE PUSH2 0x1110 JUMP JUMPDEST DUP1 DUP1 PUSH1 0x1 ADD SWAP2 POP POP PUSH2 0x105B JUMP JUMPDEST POP POP DUP1 DUP1 PUSH1 0x1 ADD SWAP2 POP POP PUSH2 0xF6C JUMP JUMPDEST POP PUSH32 0x7262BE1E48C30C363173FCB2FBF2DC2CB38D076DEE42CC37CDFBDF62AF5C3BED DUP2 PUSH1 0x40 MLOAD PUSH2 0x114F SWAP2 SWAP1 PUSH2 0x130B JUMP JUMPDEST PUSH1 0x40 MLOAD DUP1 SWAP2 SUB SWAP1 LOG1 POP JUMP JUMPDEST POP DUP1 SLOAD PUSH2 0x1166 SWAP1 PUSH2 0x1978 JUMP JUMPDEST PUSH0 DUP3 SSTORE DUP1 PUSH1 0x1F LT PUSH2 0x1177 JUMPI POP PUSH2 0x1194 JUMP JUMPDEST PUSH1 0x1F ADD PUSH1 0x20 SWAP1 DIV SWAP1 PUSH0 MSTORE PUSH1 0x20 PUSH0 KECCAK256 SWAP1 DUP2 ADD SWAP1 PUSH2 0x1193 SWAP2 SWAP1 PUSH2 0x1197 JUMP JUMPDEST JUMPDEST POP JUMP JUMPDEST JUMPDEST DUP1 DUP3 GT ISZERO PUSH2 0x11AE JUMPI PUSH0 DUP2 PUSH0 SWAP1 SSTORE POP PUSH1 0x1 ADD PUSH2 0x1198 JUMP JUMPDEST POP SWAP1 JUMP JUMPDEST PUSH0 PUSH1 0x40 MLOAD SWAP1 POP SWAP1 JUMP JUMPDEST PUSH0 DUP1 REVERT JUMPDEST PUSH0 DUP1 REVERT JUMPDEST PUSH0 DUP2 SWAP1 POP SWAP2 SWAP1 POP JUMP JUMPDEST PUSH2 0x11D5 DUP2 PUSH2 0x11C3 JUMP JUMPDEST DUP2 EQ PUSH2 0x11DF JUMPI PUSH0 DUP1 REVERT JUMPDEST POP JUMP JUMPDEST PUSH0 DUP2 CALLDATALOAD SWAP1 POP PUSH2 0x11F0 DUP2 PUSH2 0x11CC JUMP JUMPDEST SWAP3 SWAP2 POP POP JUMP JUMPDEST PUSH0 PUSH1 0x20 DUP3 DUP5 SUB SLT ISZERO PUSH2 0x120B JUMPI PUSH2 0x120A PUSH2 0x11BB JUMP JUMPDEST JUMPDEST PUSH0 PUSH2 0x1218 DUP5 DUP3 DUP6 ADD PUSH2 0x11E2 JUMP JUMPDEST SWAP2 POP POP SWAP3 SWAP2 POP POP JUMP JUMPDEST PUSH0 DUP2 ISZERO ISZERO SWAP1 POP SWAP2 SWAP1 POP JUMP JUMPDEST PUSH2 0x1235 DUP2 PUSH2 0x1221 JUMP JUMPDEST DUP3 MSTORE POP POP JUMP JUMPDEST PUSH0 PUSH1 0x20 DUP3 ADD SWAP1 POP PUSH2 0x124E PUSH0 DUP4 ADD DUP5 PUSH2 0x122C JUMP JUMPDEST SWAP3 SWAP2 POP POP JUMP JUMPDEST PUSH0 DUP2 MLOAD SWAP1 POP SWAP2 SWAP1 POP JUMP JUMPDEST PUSH0 DUP3 DUP3 MSTORE PUSH1 0x20 DUP3 ADD SWAP1 POP SWAP3 SWAP2 POP POP JUMP JUMPDEST PUSH0 DUP2 SWAP1 POP PUSH1 0x20 DUP3 ADD SWAP1 POP SWAP2 SWAP1 POP JUMP JUMPDEST PUSH2 0x1286 DUP2 PUSH2 0x11C3 JUMP JUMPDEST DUP3 MSTORE POP POP JUMP JUMPDEST PUSH0 PUSH2 0x1297 DUP4 DUP4 PUSH2 0x127D JUMP JUMPDEST PUSH1 0x20 DUP4 ADD SWAP1 POP SWAP3 SWAP2 POP POP JUMP JUMPDEST PUSH0 PUSH1 0x20 DUP3 ADD SWAP1 POP SWAP2 SWAP1 POP JUMP JUMPDEST PUSH0 PUSH2 0x12B9 DUP3 PUSH2 0x1254 JUMP JUMPDEST PUSH2 0x12C3 DUP2 DUP6 PUSH2 0x125E JUMP JUMPDEST SWAP4 POP PUSH2 0x12CE DUP4 PUSH2 0x126E JUMP JUMPDEST DUP1 PUSH0 JUMPDEST DUP4 DUP2 LT ISZERO PUSH2 0x12FE JUMPI DUP2 MLOAD PUSH2 0x12E5 DUP9 DUP3 PUSH2 0x128C JUMP JUMPDEST SWAP8 POP PUSH2 0x12F0 DUP4 PUSH2 0x12A3 JUMP JUMPDEST SWAP3 POP POP PUSH1 0x1 DUP2 ADD SWAP1 POP PUSH2 0x12D1 JUMP JUMPDEST POP DUP6 SWAP4 POP POP POP POP SWAP3 SWAP2 POP POP JUMP JUMPDEST PUSH0 PUSH1 0x20 DUP3 ADD SWAP1 POP DUP2 DUP2 SUB PUSH0 DUP4 ADD MSTORE PUSH2 0x1323 DUP2 DUP5 PUSH2 0x12AF JUMP JUMPDEST SWAP1 POP SWAP3 SWAP2 POP POP JUMP JUMPDEST PUSH2 0x1334 DUP2 PUSH2 0x11C3 JUMP JUMPDEST DUP3 MSTORE POP POP JUMP JUMPDEST PUSH0 PUSH1 0x20 DUP3 ADD SWAP1 POP PUSH2 0x134D PUSH0 DUP4 ADD DUP5 PUSH2 0x132B JUMP JUMPDEST SWAP3 SWAP2 POP POP JUMP JUMPDEST PUSH0 DUP2 MLOAD SWAP1 POP SWAP2 SWAP1 POP JUMP JUMPDEST PUSH0 DUP3 DUP3 MSTORE PUSH1 0x20 DUP3 ADD SWAP1 POP SWAP3 SWAP2 POP POP JUMP JUMPDEST DUP3 DUP2 DUP4 MCOPY PUSH0 DUP4 DUP4 ADD MSTORE POP POP POP JUMP JUMPDEST PUSH0 PUSH1 0x1F NOT PUSH1 0x1F DUP4 ADD AND SWAP1 POP SWAP2 SWAP1 POP JUMP JUMPDEST PUSH0 PUSH2 0x1395 DUP3 PUSH2 0x1353 JUMP JUMPDEST PUSH2 0x139F DUP2 DUP6 PUSH2 0x135D JUMP JUMPDEST SWAP4 POP PUSH2 0x13AF DUP2 DUP6 PUSH1 0x20 DUP7 ADD PUSH2 0x136D JUMP JUMPDEST PUSH2 0x13B8 DUP2 PUSH2 0x137B JUMP JUMPDEST DUP5 ADD SWAP2 POP POP SWAP3 SWAP2 POP POP JUMP JUMPDEST PUSH0 PUSH1 0xA0 DUP3 ADD SWAP1 POP DUP2 DUP2 SUB PUSH0 DUP4 ADD MSTORE PUSH2 0x13DB DUP2 DUP9 PUSH2 0x138B JUMP JUMPDEST SWAP1 POP DUP2 DUP2 SUB PUSH1 0x20 DUP4 ADD MSTORE PUSH2 0x13EF DUP2 DUP8 PUSH2 0x138B JUMP JUMPDEST SWAP1 POP PUSH2 0x13FE PUSH1 0x40 DUP4 ADD DUP7 PUSH2 0x132B JUMP JUMPDEST PUSH2 0x140B PUSH1 0x60 DUP4 ADD DUP6 PUSH2 0x132B JUMP JUMPDEST PUSH2 0x1418 PUSH1 0x80 DUP4 ADD DUP5 PUSH2 0x122C JUMP JUMPDEST SWAP7 SWAP6 POP POP POP POP POP POP JUMP JUMPDEST PUSH0 PUSH2 0xFFFF DUP3 AND SWAP1 POP SWAP2 SWAP1 POP JUMP JUMPDEST PUSH2 0x1438 DUP2 PUSH2 0x1422 JUMP JUMPDEST DUP3 MSTORE POP POP JUMP JUMPDEST PUSH0 PUSH1 0xA0 DUP3 ADD SWAP1 POP DUP2 DUP2 SUB PUSH0 DUP4 ADD MSTORE PUSH2 0x1456 DUP2 DUP9 PUSH2 0x138B JUMP JUMPDEST SWAP1 POP DUP2 DUP2 SUB PUSH1 0x20 DUP4 ADD MSTORE PUSH2 0x146A DUP2 DUP8 PUSH2 0x138B JUMP JUMPDEST SWAP1 POP PUSH2 0x1479 PUSH1 0x40 DUP4 ADD DUP7 PUSH2 0x142F JUMP JUMPDEST PUSH2 0x1486 PUSH1 0x60 DUP4 ADD DUP6 PUSH2 0x132B JUMP JUMPDEST PUSH2 0x1493 PUSH1 0x80 DUP4 ADD DUP5 PUSH2 0x122C JUMP JUMPDEST SWAP7 SWAP6 POP POP POP POP POP POP JUMP JUMPDEST PUSH0 PUSH20 0xFFFFFFFFFFFFFFFFFFFFFFFFFFFFFFFFFFFFFFFF DUP3 AND SWAP1 POP SWAP2 SWAP1 POP JUMP JUMPDEST PUSH0 PUSH2 0x14C6 DUP3 PUSH2 0x149D JUMP JUMPDEST SWAP1 POP SWAP2 SWAP1 POP JUMP JUMPDEST PUSH2 0x14D6 DUP2 PUSH2 0x14BC JUMP JUMPDEST DUP3 MSTORE POP POP JUMP JUMPDEST PUSH0 PUSH1 0x20 DUP3 ADD SWAP1 POP PUSH2 0x14EF PUSH0 DUP4 ADD DUP5 PUSH2 0x14CD JUMP JUMPDEST SWAP3 SWAP2 POP POP JUMP JUMPDEST PUSH0 DUP1 REVERT JUMPDEST PUSH0 DUP1 REVERT JUMPDEST PUSH32 0x4E487B7100000000000000000000000000000000000000000000000000000000 PUSH0 MSTORE PUSH1 0x41 PUSH1 0x4 MSTORE PUSH1 0x24 PUSH0 REVERT JUMPDEST PUSH2 0x1533 DUP3 PUSH2 0x137B JUMP JUMPDEST DUP2 ADD DUP2 DUP2 LT PUSH8 0xFFFFFFFFFFFFFFFF DUP3 GT OR ISZERO PUSH2 0x1552 JUMPI PUSH2 0x1551 PUSH2 0x14FD JUMP JUMPDEST JUMPDEST DUP1 PUSH1 0x40 MSTORE POP POP POP JUMP JUMPDEST PUSH0 PUSH2 0x1564 PUSH2 0x11B2 JUMP JUMPDEST SWAP1 POP PUSH2 0x1570 DUP3 DUP3 PUSH2 0x152A JUMP JUMPDEST SWAP2 SWAP1 POP JUMP JUMPDEST PUSH0 PUSH8 0xFFFFFFFFFFFFFFFF DUP3 GT ISZERO PUSH2 0x158F JUMPI PUSH2 0x158E PUSH2 0x14FD JUMP JUMPDEST JUMPDEST PUSH2 0x1598 DUP3 PUSH2 0x137B JUMP JUMPDEST SWAP1 POP PUSH1 0x20 DUP2 ADD SWAP1 POP SWAP2 SWAP1 POP JUMP JUMPDEST DUP3 DUP2 DUP4 CALLDATACOPY PUSH0 DUP4 DUP4 ADD MSTORE POP POP POP JUMP JUMPDEST PUSH0 PUSH2 0x15C5 PUSH2 0x15C0 DUP5 PUSH2 0x1575 JUMP JUMPDEST PUSH2 0x155B JUMP JUMPDEST SWAP1 POP DUP3 DUP2 MSTORE PUSH1 0x20 DUP2 ADD DUP5 DUP5 DUP5 ADD GT ISZERO PUSH2 0x15E1 JUMPI PUSH2 0x15E0 PUSH2 0x14F9 JUMP JUMPDEST JUMPDEST PUSH2 0x15EC DUP5 DUP3 DUP6 PUSH2 0x15A5 JUMP JUMPDEST POP SWAP4 SWAP3 POP POP POP JUMP JUMPDEST PUSH0 DUP3 PUSH1 0x1F DUP4 ADD SLT PUSH2 0x1608 JUMPI PUSH2 0x1607 PUSH2 0x14F5 JUMP JUMPDEST JUMPDEST DUP2 CALLDATALOAD PUSH2 0x1618 DUP5 DUP3 PUSH1 0x20 DUP7 ADD PUSH2 0x15B3 JUMP JUMPDEST SWAP2 POP POP SWAP3 SWAP2 POP POP JUMP JUMPDEST PUSH2 0x162A DUP2 PUSH2 0x1422 JUMP JUMPDEST DUP2 EQ PUSH2 0x1634 JUMPI PUSH0 DUP1 REVERT JUMPDEST POP JUMP JUMPDEST PUSH0 DUP2 CALLDATALOAD SWAP1 POP PUSH2 0x1645 DUP2 PUSH2 0x1621 JUMP JUMPDEST SWAP3 SWAP2 POP POP JUMP JUMPDEST PUSH0 DUP1 PUSH0 DUP1 PUSH0 PUSH1 0xA0 DUP7 DUP9 SUB SLT ISZERO PUSH2 0x1664 JUMPI PUSH2 0x1663 PUSH2 0x11BB JUMP JUMPDEST JUMPDEST PUSH0 PUSH2 0x1671 DUP9 DUP3 DUP10 ADD PUSH2 0x11E2 JUMP JUMPDEST SWAP6 POP POP PUSH1 0x20 DUP7 ADD CALLDATALOAD PUSH8 0xFFFFFFFFFFFFFFFF DUP2 GT ISZERO PUSH2 0x1692 JUMPI PUSH2 0x1691 PUSH2 0x11BF JUMP JUMPDEST JUMPDEST PUSH2 0x169E DUP9 DUP3 DUP10 ADD PUSH2 0x15F4 JUMP JUMPDEST SWAP5 POP POP PUSH1 0x40 DUP7 ADD CALLDATALOAD PUSH8 0xFFFFFFFFFFFFFFFF DUP2 GT ISZERO PUSH2 0x16BF JUMPI PUSH2 0x16BE PUSH2 0x11BF JUMP JUMPDEST JUMPDEST PUSH2 0x16CB DUP9 DUP3 DUP10 ADD PUSH2 0x15F4 JUMP JUMPDEST SWAP4 POP POP PUSH1 0x60 PUSH2 0x16DC DUP9 DUP3 DUP10 ADD PUSH2 0x11E2 JUMP JUMPDEST SWAP3 POP POP PUSH1 0x80 PUSH2 0x16ED DUP9 DUP3 DUP10 ADD PUSH2 0x1637 JUMP JUMPDEST SWAP2 POP POP SWAP3 SWAP6 POP SWAP3 SWAP6 SWAP1 SWAP4 POP JUMP JUMPDEST PUSH0 DUP1 PUSH0 PUSH1 0x60 DUP5 DUP7 SUB SLT ISZERO PUSH2 0x1711 JUMPI PUSH2 0x1710 PUSH2 0x11BB JUMP JUMPDEST JUMPDEST PUSH0 PUSH2 0x171E DUP7 DUP3 DUP8 ADD PUSH2 0x11E2 JUMP JUMPDEST SWAP4 POP POP PUSH1 0x20 PUSH2 0x172F DUP7 DUP3 DUP8 ADD PUSH2 0x11E2 JUMP JUMPDEST SWAP3 POP POP PUSH1 0x40 PUSH2 0x1740 DUP7 DUP3 DUP8 ADD PUSH2 0x11E2 JUMP JUMPDEST SWAP2 POP POP SWAP3 POP SWAP3 POP SWAP3 JUMP JUMPDEST PUSH0 PUSH8 0xFFFFFFFFFFFFFFFF DUP3 GT ISZERO PUSH2 0x1764 JUMPI PUSH2 0x1763 PUSH2 0x14FD JUMP JUMPDEST JUMPDEST PUSH1 0x20 DUP3 MUL SWAP1 POP PUSH1 0x20 DUP2 ADD SWAP1 POP SWAP2 SWAP1 POP JUMP JUMPDEST PUSH0 DUP1 REVERT JUMPDEST PUSH0 PUSH2 0x178B PUSH2 0x1786 DUP5 PUSH2 0x174A JUMP JUMPDEST PUSH2 0x155B JUMP JUMPDEST SWAP1 POP DUP1 DUP4 DUP3 MSTORE PUSH1 0x20 DUP3 ADD SWAP1 POP PUSH1 0x20 DUP5 MUL DUP4 ADD DUP6 DUP2 GT ISZERO PUSH2 0x17AE JUMPI PUSH2 0x17AD PUSH2 0x1775 JUMP JUMPDEST JUMPDEST DUP4 JUMPDEST DUP2 DUP2 LT ISZERO PUSH2 0x17D7 JUMPI DUP1 PUSH2 0x17C3 DUP9 DUP3 PUSH2 0x11E2 JUMP JUMPDEST DUP5 MSTORE PUSH1 0x20 DUP5 ADD SWAP4 POP POP PUSH1 0x20 DUP2 ADD SWAP1 POP PUSH2 0x17B0 JUMP JUMPDEST POP POP POP SWAP4 SWAP3 POP POP POP JUMP JUMPDEST PUSH0 DUP3 PUSH1 0x1F DUP4 ADD SLT PUSH2 0x17F5 JUMPI PUSH2 0x17F4 PUSH2 0x14F5 JUMP JUMPDEST JUMPDEST DUP2 CALLDATALOAD PUSH2 0x1805 DUP5 DUP3 PUSH1 0x20 DUP7 ADD PUSH2 0x1779 JUMP JUMPDEST SWAP2 POP POP SWAP3 SWAP2 POP POP JUMP JUMPDEST PUSH0 PUSH1 0x20 DUP3 DUP5 SUB SLT ISZERO PUSH2 0x1823 JUMPI PUSH2 0x1822 PUSH2 0x11BB JUMP JUMPDEST JUMPDEST PUSH0 DUP3 ADD CALLDATALOAD PUSH8 0xFFFFFFFFFFFFFFFF DUP2 GT ISZERO PUSH2 0x1840 JUMPI PUSH2 0x183F PUSH2 0x11BF JUMP JUMPDEST JUMPDEST PUSH2 0x184C DUP5 DUP3 DUP6 ADD PUSH2 0x17E1 JUMP JUMPDEST SWAP2 POP POP SWAP3 SWAP2 POP POP JUMP JUMPDEST PUSH32 0x4F6E6C79206F776E65722063616E20706572666F726D20746869732061637469 PUSH0 DUP3 ADD MSTORE PUSH32 0x6F6E000000000000000000000000000000000000000000000000000000000000 PUSH1 0x20 DUP3 ADD MSTORE POP JUMP JUMPDEST PUSH0 PUSH2 0x18AF PUSH1 0x22 DUP4 PUSH2 0x135D JUMP JUMPDEST SWAP2 POP PUSH2 0x18BA DUP3 PUSH2 0x1855 JUMP JUMPDEST PUSH1 0x40 DUP3 ADD SWAP1 POP SWAP2 SWAP1 POP JUMP JUMPDEST PUSH0 PUSH1 0x20 DUP3 ADD SWAP1 POP DUP2 DUP2 SUB PUSH0 DUP4 ADD MSTORE PUSH2 0x18DC DUP2 PUSH2 0x18A3 JUMP JUMPDEST SWAP1 POP SWAP2 SWAP1 POP JUMP JUMPDEST PUSH32 0x5468697320426F6F6B20446F6573204E6F742045786973742100000000000000 PUSH0 DUP3 ADD MSTORE POP JUMP JUMPDEST PUSH0 PUSH2 0x1917 PUSH1 0x19 DUP4 PUSH2 0x135D JUMP JUMPDEST SWAP2 POP PUSH2 0x1922 DUP3 PUSH2 0x18E3 JUMP JUMPDEST PUSH1 0x20 DUP3 ADD SWAP1 POP SWAP2 SWAP1 POP JUMP JUMPDEST PUSH0 PUSH1 0x20 DUP3 ADD SWAP1 POP DUP2 DUP2 SUB PUSH0 DUP4 ADD MSTORE PUSH2 0x1944 DUP2 PUSH2 0x190B JUMP JUMPDEST SWAP1 POP SWAP2 SWAP1 POP JUMP JUMPDEST PUSH32 0x4E487B7100000000000000000000000000000000000000000000000000000000 PUSH0 MSTORE PUSH1 0x22 PUSH1 0x4 MSTORE PUSH1 0x24 PUSH0 REVERT JUMPDEST PUSH0 PUSH1 0x2 DUP3 DIV SWAP1 POP PUSH1 0x1 DUP3 AND DUP1 PUSH2 0x198F JUMPI PUSH1 0x7F DUP3 AND SWAP2 POP JUMPDEST PUSH1 0x20 DUP3 LT DUP2 SUB PUSH2 0x19A2 JUMPI PUSH2 0x19A1 PUSH2 0x194B JUMP JUMPDEST JUMPDEST POP SWAP2 SWAP1 POP JUMP JUMPDEST PUSH32 0x426F6F6B20646F6573206E6F7420657869737400000000000000000000000000 PUSH0 DUP3 ADD MSTORE POP JUMP JUMPDEST PUSH0 PUSH2 0x19DC PUSH1 0x13 DUP4 PUSH2 0x135D JUMP JUMPDEST SWAP2 POP PUSH2 0x19E7 DUP3 PUSH2 0x19A8 JUMP JUMPDEST PUSH1 0x20 DUP3 ADD SWAP1 POP SWAP2 SWAP1 POP JUMP JUMPDEST PUSH0 PUSH1 0x20 DUP3 ADD SWAP1 POP DUP2 DUP2 SUB PUSH0 DUP4 ADD MSTORE PUSH2 0x1A09 DUP2 PUSH2 0x19D0 JUMP JUMPDEST SWAP1 POP SWAP2 SWAP1 POP JUMP JUMPDEST PUSH32 0x4E487B7100000000000000000000000000000000000000000000000000000000 PUSH0 MSTORE PUSH1 0x32 PUSH1 0x4 MSTORE PUSH1 0x24 PUSH0 REVERT JUMPDEST PUSH32 0x4E487B7100000000000000000000000000000000000000000000000000000000 PUSH0 MSTORE PUSH1 0x11 PUSH1 0x4 MSTORE PUSH1 0x24 PUSH0 REVERT JUMPDEST PUSH0 PUSH2 0x1A74 DUP3 PUSH2 0x11C3 JUMP JUMPDEST SWAP2 POP PUSH2 0x1A7F DUP4 PUSH2 0x11C3 JUMP JUMPDEST SWAP3 POP DUP3 DUP3 SUB SWAP1 POP DUP2 DUP2 GT ISZERO PUSH2 0x1A97 JUMPI PUSH2 0x1A96 PUSH2 0x1A3D JUMP JUMPDEST JUMPDEST SWAP3 SWAP2 POP POP JUMP JUMPDEST PUSH32 0x4E487B7100000000000000000000000000000000000000000000000000000000 PUSH0 MSTORE PUSH1 0x31 PUSH1 0x4 MSTORE PUSH1 0x24 PUSH0 REVERT JUMPDEST PUSH32 0x43414E4E4F542041444420424F4F4B20495420414C5245414459204558495354 PUSH0 DUP3 ADD MSTORE PUSH32 0x5300000000000000000000000000000000000000000000000000000000000000 PUSH1 0x20 DUP3 ADD MSTORE POP JUMP JUMPDEST PUSH0 PUSH2 0x1B24 PUSH1 0x21 DUP4 PUSH2 0x135D JUMP JUMPDEST SWAP2 POP PUSH2 0x1B2F DUP3 PUSH2 0x1ACA JUMP JUMPDEST PUSH1 0x40 DUP3 ADD SWAP1 POP SWAP2 SWAP1 POP JUMP JUMPDEST PUSH0 PUSH1 0x20 DUP3 ADD SWAP1 POP DUP2 DUP2 SUB PUSH0 DUP4 ADD MSTORE PUSH2 0x1B51 DUP2 PUSH2 0x1B18 JUMP JUMPDEST SWAP1 POP SWAP2 SWAP1 POP JUMP JUMPDEST PUSH0 DUP2 SWAP1 POP DUP2 PUSH0 MSTORE PUSH1 0x20 PUSH0 KECCAK256 SWAP1 POP SWAP2 SWAP1 POP JUMP JUMPDEST PUSH0 PUSH1 0x20 PUSH1 0x1F DUP4 ADD DIV SWAP1 POP SWAP2 SWAP1 POP JUMP JUMPDEST PUSH0 DUP3 DUP3 SHL SWAP1 POP SWAP3 SWAP2 POP POP JUMP JUMPDEST PUSH0 PUSH1 0x8 DUP4 MUL PUSH2 0x1BB4 PUSH32 0xFFFFFFFFFFFFFFFFFFFFFFFFFFFFFFFFFFFFFFFFFFFFFFFFFFFFFFFFFFFFFFFF DUP3 PUSH2 0x1B79 JUMP JUMPDEST PUSH2 0x1BBE DUP7 DUP4 PUSH2 0x1B79 JUMP JUMPDEST SWAP6 POP DUP1 NOT DUP5 AND SWAP4 POP DUP1 DUP7 AND DUP5 OR SWAP3 POP POP POP SWAP4 SWAP3 POP POP POP JUMP JUMPDEST PUSH0 DUP2 SWAP1 POP SWAP2 SWAP1 POP JUMP JUMPDEST PUSH0 PUSH2 0x1BF9 PUSH2 0x1BF4 PUSH2 0x1BEF DUP5 PUSH2 0x11C3 JUMP JUMPDEST PUSH2 0x1BD6 JUMP JUMPDEST PUSH2 0x11C3 JUMP JUMPDEST SWAP1 POP SWAP2 SWAP1 POP JUMP JUMPDEST PUSH0 DUP2 SWAP1 POP SWAP2 SWAP1 POP JUMP JUMPDEST PUSH2 0x1C12 DUP4 PUSH2 0x1BDF JUMP JUMPDEST PUSH2 0x1C26 PUSH2 0x1C1E DUP3 PUSH2 0x1C00 JUMP JUMPDEST DUP5 DUP5 SLOAD PUSH2 0x1B85 JUMP JUMPDEST DUP3 SSTORE POP POP POP POP JUMP JUMPDEST PUSH0 SWAP1 JUMP JUMPDEST PUSH2 0x1C3A PUSH2 0x1C2E JUMP JUMPDEST PUSH2 0x1C45 DUP2 DUP5 DUP5 PUSH2 0x1C09 JUMP JUMPDEST POP POP POP JUMP JUMPDEST JUMPDEST DUP2 DUP2 LT ISZERO PUSH2 0x1C68 JUMPI PUSH2 0x1C5D PUSH0 DUP3 PUSH2 0x1C32 JUMP JUMPDEST PUSH1 0x1 DUP2 ADD SWAP1 POP PUSH2 0x1C4B JUMP JUMPDEST POP POP JUMP JUMPDEST PUSH1 0x1F DUP3 GT ISZERO PUSH2 0x1CAD JUMPI PUSH2 0x1C7E DUP2 PUSH2 0x1B58 JUMP JUMPDEST PUSH2 0x1C87 DUP5 PUSH2 0x1B6A JUMP JUMPDEST DUP2 ADD PUSH1 0x20 DUP6 LT ISZERO PUSH2 0x1C96 JUMPI DUP2 SWAP1 POP JUMPDEST PUSH2 0x1CAA PUSH2 0x1CA2 DUP6 PUSH2 0x1B6A JUMP JUMPDEST DUP4 ADD DUP3 PUSH2 0x1C4A JUMP JUMPDEST POP POP JUMPDEST POP POP POP JUMP JUMPDEST PUSH0 DUP3 DUP3 SHR SWAP1 POP SWAP3 SWAP2 POP POP JUMP JUMPDEST PUSH0 PUSH2 0x1CCD PUSH0 NOT DUP5 PUSH1 0x8 MUL PUSH2 0x1CB2 JUMP JUMPDEST NOT DUP1 DUP4 AND SWAP2 POP POP SWAP3 SWAP2 POP POP JUMP JUMPDEST PUSH0 PUSH2 0x1CE5 DUP4 DUP4 PUSH2 0x1CBE JUMP JUMPDEST SWAP2 POP DUP3 PUSH1 0x2 MUL DUP3 OR SWAP1 POP SWAP3 SWAP2 POP POP JUMP JUMPDEST PUSH2 0x1CFE DUP3 PUSH2 0x1353 JUMP JUMPDEST PUSH8 0xFFFFFFFFFFFFFFFF DUP2 GT ISZERO PUSH2 0x1D17 JUMPI PUSH2 0x1D16 PUSH2 0x14FD JUMP JUMPDEST JUMPDEST PUSH2 0x1D21 DUP3 SLOAD PUSH2 0x1978 JUMP JUMPDEST PUSH2 0x1D2C DUP3 DUP3 DUP6 PUSH2 0x1C6C JUMP JUMPDEST PUSH0 PUSH1 0x20 SWAP1 POP PUSH1 0x1F DUP4 GT PUSH1 0x1 DUP2 EQ PUSH2 0x1D5D JUMPI PUSH0 DUP5 ISZERO PUSH2 0x1D4B JUMPI DUP3 DUP8 ADD MLOAD SWAP1 POP JUMPDEST PUSH2 0x1D55 DUP6 DUP3 PUSH2 0x1CDA JUMP JUMPDEST DUP7 SSTORE POP PUSH2 0x1DBC JUMP JUMPDEST PUSH1 0x1F NOT DUP5 AND PUSH2 0x1D6B DUP7 PUSH2 0x1B58 JUMP JUMPDEST PUSH0 JUMPDEST DUP3 DUP2 LT ISZERO PUSH2 0x1D92 JUMPI DUP5 DUP10 ADD MLOAD DUP3 SSTORE PUSH1 0x1 DUP3 ADD SWAP2 POP PUSH1 0x20 DUP6 ADD SWAP5 POP PUSH1 0x20 DUP2 ADD SWAP1 POP PUSH2 0x1D6D JUMP JUMPDEST DUP7 DUP4 LT ISZERO PUSH2 0x1DAF JUMPI DUP5 DUP10 ADD MLOAD PUSH2 0x1DAB PUSH1 0x1F DUP10 AND DUP3 PUSH2 0x1CBE JUMP JUMPDEST DUP4 SSTORE POP JUMPDEST PUSH1 0x1 PUSH1 0x2 DUP9 MUL ADD DUP9 SSTORE POP POP POP JUMPDEST POP POP POP POP POP POP JUMP JUMPDEST PUSH0 PUSH2 0x1DDE PUSH2 0x1DD9 PUSH2 0x1DD4 DUP5 PUSH2 0x1422 JUMP JUMPDEST PUSH2 0x1BD6 JUMP JUMPDEST PUSH2 0x11C3 JUMP JUMPDEST SWAP1 POP SWAP2 SWAP1 POP JUMP JUMPDEST PUSH2 0x1DEE DUP2 PUSH2 0x1DC4 JUMP JUMPDEST DUP3 MSTORE POP POP JUMP JUMPDEST PUSH0 PUSH1 0x80 DUP3 ADD SWAP1 POP DUP2 DUP2 SUB PUSH0 DUP4 ADD MSTORE PUSH2 0x1E0C DUP2 DUP8 PUSH2 0x138B JUMP JUMPDEST SWAP1 POP DUP2 DUP2 SUB PUSH1 0x20 DUP4 ADD MSTORE PUSH2 0x1E20 DUP2 DUP7 PUSH2 0x138B JUMP JUMPDEST SWAP1 POP PUSH2 0x1E2F PUSH1 0x40 DUP4 ADD DUP6 PUSH2 0x132B JUMP JUMPDEST PUSH2 0x1E3C PUSH1 0x60 DUP4 ADD DUP5 PUSH2 0x1DE5 JUMP JUMPDEST SWAP6 SWAP5 POP POP POP POP POP JUMP JUMPDEST PUSH32 0x5468697320626F6F6B206973206E6F7420617661696C61626C65000000000000 PUSH0 DUP3 ADD MSTORE POP JUMP JUMPDEST PUSH0 PUSH2 0x1E79 PUSH1 0x1A DUP4 PUSH2 0x135D JUMP JUMPDEST SWAP2 POP PUSH2 0x1E84 DUP3 PUSH2 0x1E45 JUMP JUMPDEST PUSH1 0x20 DUP3 ADD SWAP1 POP SWAP2 SWAP1 POP JUMP JUMPDEST PUSH0 PUSH1 0x20 DUP3 ADD SWAP1 POP DUP2 DUP2 SUB PUSH0 DUP4 ADD MSTORE PUSH2 0x1EA6 DUP2 PUSH2 0x1E6D JUMP JUMPDEST SWAP1 POP SWAP2 SWAP1 POP JUMP JUMPDEST PUSH32 0x4E6F7420656E6F7567682073746F636B20617661696C61626C65000000000000 PUSH0 DUP3 ADD MSTORE POP JUMP JUMPDEST PUSH0 PUSH2 0x1EE1 PUSH1 0x1A DUP4 PUSH2 0x135D JUMP JUMPDEST SWAP2 POP PUSH2 0x1EEC DUP3 PUSH2 0x1EAD JUMP JUMPDEST PUSH1 0x20 DUP3 ADD SWAP1 POP SWAP2 SWAP1 POP JUMP JUMPDEST PUSH0 PUSH1 0x20 DUP3 ADD SWAP1 POP DUP2 DUP2 SUB PUSH0 DUP4 ADD MSTORE PUSH2 0x1F0E DUP2 PUSH2 0x1ED5 JUMP JUMPDEST SWAP1 POP SWAP2 SWAP1 POP JUMP JUMPDEST PUSH0 PUSH2 0x1F1F DUP3 PUSH2 0x11C3 JUMP JUMPDEST SWAP2 POP PUSH2 0x1F2A DUP4 PUSH2 0x11C3 JUMP JUMPDEST SWAP3 POP DUP3 DUP3 MUL PUSH2 0x1F38 DUP2 PUSH2 0x11C3 JUMP JUMPDEST SWAP2 POP DUP3 DUP3 DIV DUP5 EQ DUP4 ISZERO OR PUSH2 0x1F4F JUMPI PUSH2 0x1F4E PUSH2 0x1A3D JUMP JUMPDEST JUMPDEST POP SWAP3 SWAP2 POP POP JUMP JUMPDEST PUSH32 0x496E636F7272656374207061796D656E7420616D6F756E740000000000000000 PUSH0 DUP3 ADD MSTORE POP JUMP JUMPDEST PUSH0 PUSH2 0x1F8A PUSH1 0x18 DUP4 PUSH2 0x135D JUMP JUMPDEST SWAP2 POP PUSH2 0x1F95 DUP3 PUSH2 0x1F56 JUMP JUMPDEST PUSH1 0x20 DUP3 ADD SWAP1 POP SWAP2 SWAP1 POP JUMP JUMPDEST PUSH0 PUSH1 0x20 DUP3 ADD SWAP1 POP DUP2 DUP2 SUB PUSH0 DUP4 ADD MSTORE PUSH2 0x1FB7 DUP2 PUSH2 0x1F7E JUMP JUMPDEST SWAP1 POP SWAP2 SWAP1 POP JUMP JUMPDEST PUSH0 PUSH2 0x1FC8 DUP3 PUSH2 0x11C3 JUMP JUMPDEST SWAP2 POP PUSH2 0x1FD3 DUP4 PUSH2 0x11C3 JUMP JUMPDEST SWAP3 POP DUP3 DUP3 ADD SWAP1 POP DUP1 DUP3 GT ISZERO PUSH2 0x1FEB JUMPI PUSH2 0x1FEA PUSH2 0x1A3D JUMP JUMPDEST JUMPDEST SWAP3 SWAP2 POP POP JUMP JUMPDEST PUSH0 PUSH1 0x40 DUP3 ADD SWAP1 POP PUSH2 0x2004 PUSH0 DUP4 ADD DUP6 PUSH2 0x132B JUMP JUMPDEST PUSH2 0x2011 PUSH1 0x20 DUP4 ADD DUP5 PUSH2 0x132B JUMP JUMPDEST SWAP4 SWAP3 POP POP POP JUMP INVALID LOG2 PUSH5 0x6970667358 0x22 SLT KECCAK256 SWAP14 SWAP4 0xE9 0xC4 EXTCODESIZE 0x29 PUSH31 0x15075B396D5EEDF9C3120D69B7A2C0F66449080BCA0494B5D764736F6C6343 STOP ADDMOD BYTE STOP CALLER "
				},
				"gasEstimates": {
					"creation": {
						"codeDepositCost": "1654000",
						"executionCost": "infinite",
						"totalCost": "infinite"
					},
					"external": {
						"addBook(uint256,string,string,uint256,uint16)": "infinite",
						"bestseller(uint256)": "2809",
						"bookIds(uint256)": "infinite",
						"books(uint256)": "infinite",
						"buyBook(uint256,uint256,uint256)": "infinite",
						"getAllBooks()": "infinite",
						"getBooks(uint256)": "infinite",
						"getOwnerBalance()": "5118",
						"getTotalBooksSold()": "2477",
						"isBestSeller(uint256)": "2876",
						"markBookAsBestSeller(uint256)": "30377",
						"owner()": "2528",
						"removeBook(uint256)": "infinite",
						"removeBooks(uint256[])": "infinite"
					}
				},
				"methodIdentifiers": {
					"addBook(uint256,string,string,uint256,uint16)": "d0289085",
					"bestseller(uint256)": "1f9b7ad8",
					"bookIds(uint256)": "513073b8",
					"books(uint256)": "68744046",
					"buyBook(uint256,uint256,uint256)": "f346e2b7",
					"getAllBooks()": "354528e8",
					"getBooks(uint256)": "5ac3e19e",
					"getOwnerBalance()": "590791f2",
					"getTotalBooksSold()": "9bd30883",
					"isBestSeller(uint256)": "f60560de",
					"markBookAsBestSeller(uint256)": "3bf561ed",
					"owner()": "8da5cb5b",
					"removeBook(uint256)": "bec0d799",
					"removeBooks(uint256[])": "f98520de"
				}
			},
			"storageLayout": {
				"storage": [
					{
						"astId": 65,
						"contract": "contracts/AdvancedBookstore.sol:AdvancedBookstore",
						"label": "owner",
						"offset": 0,
						"slot": "0",
						"type": "t_address"
					},
					{
						"astId": 67,
						"contract": "contracts/AdvancedBookstore.sol:AdvancedBookstore",
						"label": "totalBooksSold",
						"offset": 0,
						"slot": "1",
						"type": "t_uint256"
					},
					{
						"astId": 92,
						"contract": "contracts/AdvancedBookstore.sol:AdvancedBookstore",
						"label": "books",
						"offset": 0,
						"slot": "2",
						"type": "t_mapping(t_uint256,t_struct(Book)87_storage)"
					},
					{
						"astId": 95,
						"contract": "contracts/AdvancedBookstore.sol:AdvancedBookstore",
						"label": "bookIds",
						"offset": 0,
						"slot": "3",
						"type": "t_array(t_uint256)dyn_storage"
					},
					{
						"astId": 8,
						"contract": "contracts/AdvancedBookstore.sol:AdvancedBookstore",
						"label": "bestseller",
						"offset": 0,
						"slot": "4",
						"type": "t_mapping(t_uint256,t_bool)"
					}
				],
				"types": {
					"t_address": {
						"encoding": "inplace",
						"label": "address",
						"numberOfBytes": "20"
					},
					"t_array(t_uint256)dyn_storage": {
						"base": "t_uint256",
						"encoding": "dynamic_array",
						"label": "uint256[]",
						"numberOfBytes": "32"
					},
					"t_bool": {
						"encoding": "inplace",
						"label": "bool",
						"numberOfBytes": "1"
					},
					"t_mapping(t_uint256,t_bool)": {
						"encoding": "mapping",
						"key": "t_uint256",
						"label": "mapping(uint256 => bool)",
						"numberOfBytes": "32",
						"value": "t_bool"
					},
					"t_mapping(t_uint256,t_struct(Book)87_storage)": {
						"encoding": "mapping",
						"key": "t_uint256",
						"label": "mapping(uint256 => struct BookStore.Book)",
						"numberOfBytes": "32",
						"value": "t_struct(Book)87_storage"
					},
					"t_string_storage": {
						"encoding": "bytes",
						"label": "string",
						"numberOfBytes": "32"
					},
					"t_struct(Book)87_storage": {
						"encoding": "inplace",
						"label": "struct BookStore.Book",
						"members": [
							{
								"astId": 78,
								"contract": "contracts/AdvancedBookstore.sol:AdvancedBookstore",
								"label": "title",
								"offset": 0,
								"slot": "0",
								"type": "t_string_storage"
							},
							{
								"astId": 80,
								"contract": "contracts/AdvancedBookstore.sol:AdvancedBookstore",
								"label": "author",
								"offset": 0,
								"slot": "1",
								"type": "t_string_storage"
							},
							{
								"astId": 82,
								"contract": "contracts/AdvancedBookstore.sol:AdvancedBookstore",
								"label": "price",
								"offset": 0,
								"slot": "2",
								"type": "t_uint16"
							},
							{
								"astId": 84,
								"contract": "contracts/AdvancedBookstore.sol:AdvancedBookstore",
								"label": "stock",
								"offset": 0,
								"slot": "3",
								"type": "t_uint256"
							},
							{
								"astId": 86,
								"contract": "contracts/AdvancedBookstore.sol:AdvancedBookstore",
								"label": "isAvailable",
								"offset": 0,
								"slot": "4",
								"type": "t_bool"
							}
						],
						"numberOfBytes": "160"
					},
					"t_uint16": {
						"encoding": "inplace",
						"label": "uint16",
						"numberOfBytes": "2"
					},
					"t_uint256": {
						"encoding": "inplace",
						"label": "uint256",
						"numberOfBytes": "32"
					}
				}
			},
			"userdoc": {
				"kind": "user",
				"methods": {},
				"version": 1
			}
		}
	}
}