{
	"contracts/Bookstore.sol": {
		"BookStore": {
			"abi": [
				{
					"inputs": [],
					"stateMutability": "nonpayable",
					"type": "constructor"
				},
				{
					"inputs": [
						{
							"internalType": "address",
							"name": "owner",
							"type": "address"
						}
					],
					"name": "OwnableInvalidOwner",
					"type": "error"
				},
				{
					"inputs": [
						{
							"internalType": "address",
							"name": "account",
							"type": "address"
						}
					],
					"name": "OwnableUnauthorizedAccount",
					"type": "error"
				},
				{
					"anonymous": false,
					"inputs": [
						{
							"indexed": true,
							"internalType": "uint256",
							"name": "bookId",
							"type": "uint256"
						},
						{
							"indexed": false,
							"internalType": "string",
							"name": "title",
							"type": "string"
						},
						{
							"indexed": false,
							"internalType": "string",
							"name": "author",
							"type": "string"
						},
						{
							"indexed": false,
							"internalType": "uint256",
							"name": "price",
							"type": "uint256"
						},
						{
							"indexed": false,
							"internalType": "uint256",
							"name": "stock",
							"type": "uint256"
						}
					],
					"name": "BookAdded",
					"type": "event"
				},
				{
					"anonymous": false,
					"inputs": [
						{
							"indexed": false,
							"internalType": "uint256[]",
							"name": "bookIds",
							"type": "uint256[]"
						}
					],
					"name": "BookBatchRemoved",
					"type": "event"
				},
				{
					"anonymous": false,
					"inputs": [
						{
							"indexed": false,
							"internalType": "uint256",
							"name": "bookId",
							"type": "uint256"
						},
						{
							"indexed": true,
							"internalType": "address",
							"name": "buyer",
							"type": "address"
						},
						{
							"indexed": false,
							"internalType": "uint256",
							"name": "quantity",
							"type": "uint256"
						}
					],
					"name": "BookPurchased",
					"type": "event"
				},
				{
					"anonymous": false,
					"inputs": [
						{
							"indexed": true,
							"internalType": "uint256",
							"name": "bookId",
							"type": "uint256"
						}
					],
					"name": "BookRemoved",
					"type": "event"
				},
				{
					"anonymous": false,
					"inputs": [
						{
							"indexed": true,
							"internalType": "address",
							"name": "previousOwner",
							"type": "address"
						},
						{
							"indexed": true,
							"internalType": "address",
							"name": "newOwner",
							"type": "address"
						}
					],
					"name": "OwnershipTransferred",
					"type": "event"
				},
				{
					"inputs": [
						{
							"internalType": "uint256",
							"name": "_bookId",
							"type": "uint256"
						},
						{
							"internalType": "string",
							"name": "_title",
							"type": "string"
						},
						{
							"internalType": "string",
							"name": "_author",
							"type": "string"
						},
						{
							"internalType": "uint256",
							"name": "_stock",
							"type": "uint256"
						},
						{
							"internalType": "uint256",
							"name": "_price",
							"type": "uint256"
						}
					],
					"name": "addBook",
					"outputs": [],
					"stateMutability": "nonpayable",
					"type": "function"
				},
				{
					"inputs": [
						{
							"internalType": "uint256",
							"name": "",
							"type": "uint256"
						}
					],
					"name": "bookIds",
					"outputs": [
						{
							"internalType": "uint256",
							"name": "",
							"type": "uint256"
						}
					],
					"stateMutability": "view",
					"type": "function"
				},
				{
					"inputs": [
						{
							"internalType": "uint256",
							"name": "",
							"type": "uint256"
						}
					],
					"name": "books",
					"outputs": [
						{
							"internalType": "uint256",
							"name": "stock",
							"type": "uint256"
						},
						{
							"internalType": "uint256",
							"name": "price",
							"type": "uint256"
						},
						{
							"internalType": "bool",
							"name": "isAvailable",
							"type": "bool"
						},
						{
							"internalType": "string",
							"name": "title",
							"type": "string"
						},
						{
							"internalType": "string",
							"name": "author",
							"type": "string"
						}
					],
					"stateMutability": "view",
					"type": "function"
				},
				{
					"inputs": [
						{
							"internalType": "uint256",
							"name": "_bookId",
							"type": "uint256"
						},
						{
							"internalType": "uint256",
							"name": "_quantity",
							"type": "uint256"
						}
					],
					"name": "buyBook",
					"outputs": [],
					"stateMutability": "payable",
					"type": "function"
				},
				{
					"inputs": [],
					"name": "getAllBooks",
					"outputs": [
						{
							"internalType": "uint256[]",
							"name": "",
							"type": "uint256[]"
						}
					],
					"stateMutability": "view",
					"type": "function"
				},
				{
					"inputs": [
						{
							"internalType": "uint256",
							"name": "_bookId",
							"type": "uint256"
						}
					],
					"name": "getBooks",
					"outputs": [
						{
							"internalType": "string",
							"name": "",
							"type": "string"
						},
						{
							"internalType": "string",
							"name": "",
							"type": "string"
						},
						{
							"internalType": "uint256",
							"name": "",
							"type": "uint256"
						},
						{
							"internalType": "uint256",
							"name": "",
							"type": "uint256"
						},
						{
							"internalType": "bool",
							"name": "",
							"type": "bool"
						}
					],
					"stateMutability": "view",
					"type": "function"
				},
				{
					"inputs": [],
					"name": "getOwnerBalance",
					"outputs": [
						{
							"internalType": "uint256",
							"name": "",
							"type": "uint256"
						}
					],
					"stateMutability": "view",
					"type": "function"
				},
				{
					"inputs": [],
					"name": "getTotalBooksSold",
					"outputs": [
						{
							"internalType": "uint256",
							"name": "",
							"type": "uint256"
						}
					],
					"stateMutability": "view",
					"type": "function"
				},
				{
					"inputs": [],
					"name": "owner",
					"outputs": [
						{
							"internalType": "address",
							"name": "",
							"type": "address"
						}
					],
					"stateMutability": "view",
					"type": "function"
				},
				{
					"inputs": [
						{
							"internalType": "uint256",
							"name": "_bookId",
							"type": "uint256"
						}
					],
					"name": "removeBook",
					"outputs": [],
					"stateMutability": "nonpayable",
					"type": "function"
				},
				{
					"inputs": [
						{
							"internalType": "uint256[]",
							"name": "_bookIds",
							"type": "uint256[]"
						}
					],
					"name": "removeBooks",
					"outputs": [],
					"stateMutability": "nonpayable",
					"type": "function"
				},
				{
					"inputs": [],
					"name": "renounceOwnership",
					"outputs": [],
					"stateMutability": "nonpayable",
					"type": "function"
				},
				{
					"inputs": [
						{
							"internalType": "address",
							"name": "newOwner",
							"type": "address"
						}
					],
					"name": "transferOwnership",
					"outputs": [],
					"stateMutability": "nonpayable",
					"type": "function"
				}
			],
			"devdoc": {
				"errors": {
					"OwnableInvalidOwner(address)": [
						{
							"details": "The owner is not a valid owner account. (eg. `address(0)`)"
						}
					],
					"OwnableUnauthorizedAccount(address)": [
						{
							"details": "The caller account is not authorized to perform an operation."
						}
					]
				},
				"kind": "dev",
				"methods": {
					"owner()": {
						"details": "Returns the address of the current owner."
					},
					"renounceOwnership()": {
						"details": "Leaves the contract without owner. It will not be possible to call `onlyOwner` functions. Can only be called by the current owner. NOTE: Renouncing ownership will leave the contract without an owner, thereby disabling any functionality that is only available to the owner."
					},
					"transferOwnership(address)": {
						"details": "Transfers ownership of the contract to a new account (`newOwner`). Can only be called by the current owner."
					}
				},
				"version": 1
			},
			"evm": {
				"assembly": "    /* \"contracts/Bookstore.sol\":119:4001  contract BookStore  is Ownable {... */\n  mstore(0x40, 0x80)\n    /* \"contracts/Bookstore.sol\":196:233  constructor() Ownable (msg.sender) {} */\n  callvalue\n  dup1\n  iszero\n  tag_1\n  jumpi\n  0x00\n  dup1\n  revert\ntag_1:\n  pop\n    /* \"contracts/Bookstore.sol\":219:229  msg.sender */\n  caller\n    /* \"@openzeppelin/contracts/access/Ownable.sol\":1297:1298  0 */\n  0x00\n    /* \"@openzeppelin/contracts/access/Ownable.sol\":1273:1299  initialOwner == address(0) */\n  0xffffffffffffffffffffffffffffffffffffffff\n  and\n    /* \"@openzeppelin/contracts/access/Ownable.sol\":1273:1285  initialOwner */\n  dup2\n    /* \"@openzeppelin/contracts/access/Ownable.sol\":1273:1299  initialOwner == address(0) */\n  0xffffffffffffffffffffffffffffffffffffffff\n  and\n  sub\n    /* \"@openzeppelin/contracts/access/Ownable.sol\":1269:1364  if (initialOwner == address(0)) {... */\n  tag_5\n  jumpi\n    /* \"@openzeppelin/contracts/access/Ownable.sol\":1350:1351  0 */\n  0x00\n    /* \"@openzeppelin/contracts/access/Ownable.sol\":1322:1353  OwnableInvalidOwner(address(0)) */\n  mload(0x40)\n  0x1e4fbdf700000000000000000000000000000000000000000000000000000000\n  dup2\n  mstore\n  0x04\n  add\n  tag_6\n  swap2\n  swap1\n  tag_7\n  jump\t// in\ntag_6:\n  mload(0x40)\n  dup1\n  swap2\n  sub\n  swap1\n  revert\n    /* \"@openzeppelin/contracts/access/Ownable.sol\":1269:1364  if (initialOwner == address(0)) {... */\ntag_5:\n    /* \"@openzeppelin/contracts/access/Ownable.sol\":1373:1405  _transferOwnership(initialOwner) */\n  tag_8\n    /* \"@openzeppelin/contracts/access/Ownable.sol\":1392:1404  initialOwner */\n  dup2\n    /* \"@openzeppelin/contracts/access/Ownable.sol\":1373:1391  _transferOwnership */\n  shl(0x20, tag_9)\n    /* \"@openzeppelin/contracts/access/Ownable.sol\":1373:1405  _transferOwnership(initialOwner) */\n  0x20\n  shr\n  jump\t// in\ntag_8:\n    /* \"@openzeppelin/contracts/access/Ownable.sol\":1225:1412  constructor(address initialOwner) {... */\n  pop\n    /* \"contracts/Bookstore.sol\":119:4001  contract BookStore  is Ownable {... */\n  jump(tag_11)\n    /* \"@openzeppelin/contracts/access/Ownable.sol\":2912:3099  function _transferOwnership(address newOwner) internal virtual {... */\ntag_9:\n    /* \"@openzeppelin/contracts/access/Ownable.sol\":2985:3001  address oldOwner */\n  0x00\n    /* \"@openzeppelin/contracts/access/Ownable.sol\":3004:3010  _owner */\n  dup1\n  0x00\n  swap1\n  sload\n  swap1\n  0x0100\n  exp\n  swap1\n  div\n  0xffffffffffffffffffffffffffffffffffffffff\n  and\n    /* \"@openzeppelin/contracts/access/Ownable.sol\":2985:3010  address oldOwner = _owner */\n  swap1\n  pop\n    /* \"@openzeppelin/contracts/access/Ownable.sol\":3029:3037  newOwner */\n  dup2\n    /* \"@openzeppelin/contracts/access/Ownable.sol\":3020:3026  _owner */\n  0x00\n  dup1\n    /* \"@openzeppelin/contracts/access/Ownable.sol\":3020:3037  _owner = newOwner */\n  0x0100\n  exp\n  dup2\n  sload\n  dup2\n  0xffffffffffffffffffffffffffffffffffffffff\n  mul\n  not\n  and\n  swap1\n  dup4\n  0xffffffffffffffffffffffffffffffffffffffff\n  and\n  mul\n  or\n  swap1\n  sstore\n  pop\n    /* \"@openzeppelin/contracts/access/Ownable.sol\":3083:3091  newOwner */\n  dup2\n    /* \"@openzeppelin/contracts/access/Ownable.sol\":3052:3092  OwnershipTransferred(oldOwner, newOwner) */\n  0xffffffffffffffffffffffffffffffffffffffff\n  and\n    /* \"@openzeppelin/contracts/access/Ownable.sol\":3073:3081  oldOwner */\n  dup2\n    /* \"@openzeppelin/contracts/access/Ownable.sol\":3052:3092  OwnershipTransferred(oldOwner, newOwner) */\n  0xffffffffffffffffffffffffffffffffffffffff\n  and\n  0x8be0079c531659141344cd1fd0a4f28419497f9722a3daafe3b4186f6b6457e0\n  mload(0x40)\n  mload(0x40)\n  dup1\n  swap2\n  sub\n  swap1\n  log3\n    /* \"@openzeppelin/contracts/access/Ownable.sol\":2975:3099  {... */\n  pop\n    /* \"@openzeppelin/contracts/access/Ownable.sol\":2912:3099  function _transferOwnership(address newOwner) internal virtual {... */\n  pop\n  jump\t// out\n    /* \"#utility.yul\":7:133   */\ntag_13:\n    /* \"#utility.yul\":44:51   */\n  0x00\n    /* \"#utility.yul\":84:126   */\n  0xffffffffffffffffffffffffffffffffffffffff\n    /* \"#utility.yul\":77:82   */\n  dup3\n    /* \"#utility.yul\":73:127   */\n  and\n    /* \"#utility.yul\":62:127   */\n  swap1\n  pop\n    /* \"#utility.yul\":7:133   */\n  swap2\n  swap1\n  pop\n  jump\t// out\n    /* \"#utility.yul\":139:235   */\ntag_14:\n    /* \"#utility.yul\":176:183   */\n  0x00\n    /* \"#utility.yul\":205:229   */\n  tag_19\n    /* \"#utility.yul\":223:228   */\n  dup3\n    /* \"#utility.yul\":205:229   */\n  tag_13\n  jump\t// in\ntag_19:\n    /* \"#utility.yul\":194:229   */\n  swap1\n  pop\n    /* \"#utility.yul\":139:235   */\n  swap2\n  swap1\n  pop\n  jump\t// out\n    /* \"#utility.yul\":241:359   */\ntag_15:\n    /* \"#utility.yul\":328:352   */\n  tag_21\n    /* \"#utility.yul\":346:351   */\n  dup2\n    /* \"#utility.yul\":328:352   */\n  tag_14\n  jump\t// in\ntag_21:\n    /* \"#utility.yul\":323:326   */\n  dup3\n    /* \"#utility.yul\":316:353   */\n  mstore\n    /* \"#utility.yul\":241:359   */\n  pop\n  pop\n  jump\t// out\n    /* \"#utility.yul\":365:587   */\ntag_7:\n    /* \"#utility.yul\":458:462   */\n  0x00\n    /* \"#utility.yul\":496:498   */\n  0x20\n    /* \"#utility.yul\":485:494   */\n  dup3\n    /* \"#utility.yul\":481:499   */\n  add\n    /* \"#utility.yul\":473:499   */\n  swap1\n  pop\n    /* \"#utility.yul\":509:580   */\n  tag_23\n    /* \"#utility.yul\":577:578   */\n  0x00\n    /* \"#utility.yul\":566:575   */\n  dup4\n    /* \"#utility.yul\":562:579   */\n  add\n    /* \"#utility.yul\":553:559   */\n  dup5\n    /* \"#utility.yul\":509:580   */\n  tag_15\n  jump\t// in\ntag_23:\n    /* \"#utility.yul\":365:587   */\n  swap3\n  swap2\n  pop\n  pop\n  jump\t// out\n    /* \"contracts/Bookstore.sol\":119:4001  contract BookStore  is Ownable {... */\ntag_11:\n  dataSize(sub_0)\n  dup1\n  dataOffset(sub_0)\n  0x00\n  codecopy\n  0x00\n  return\nstop\n\nsub_0: assembly {\n        /* \"contracts/Bookstore.sol\":119:4001  contract BookStore  is Ownable {... */\n      mstore(0x40, 0x80)\n      jumpi(tag_1, lt(calldatasize, 0x04))\n      shr(0xe0, calldataload(0x00))\n      dup1\n      0x715018a6\n      gt\n      tag_15\n      jumpi\n      dup1\n      0xbec0d799\n      gt\n      tag_16\n      jumpi\n      dup1\n      0xbec0d799\n      eq\n      tag_11\n      jumpi\n      dup1\n      0xf2fde38b\n      eq\n      tag_12\n      jumpi\n      dup1\n      0xf733719c\n      eq\n      tag_13\n      jumpi\n      dup1\n      0xf98520de\n      eq\n      tag_14\n      jumpi\n      jump(tag_1)\n    tag_16:\n      dup1\n      0x715018a6\n      eq\n      tag_8\n      jumpi\n      dup1\n      0x8da5cb5b\n      eq\n      tag_9\n      jumpi\n      dup1\n      0x9bd30883\n      eq\n      tag_10\n      jumpi\n      jump(tag_1)\n    tag_15:\n      dup1\n      0x354528e8\n      eq\n      tag_2\n      jumpi\n      dup1\n      0x3af8c2d5\n      eq\n      tag_3\n      jumpi\n      dup1\n      0x513073b8\n      eq\n      tag_4\n      jumpi\n      dup1\n      0x590791f2\n      eq\n      tag_5\n      jumpi\n      dup1\n      0x5ac3e19e\n      eq\n      tag_6\n      jumpi\n      dup1\n      0x68744046\n      eq\n      tag_7\n      jumpi\n    tag_1:\n      0x00\n      dup1\n      revert\n        /* \"contracts/Bookstore.sol\":1342:1437  function getAllBooks() public view returns (uint256[] memory) {... */\n    tag_2:\n      callvalue\n      dup1\n      iszero\n      tag_17\n      jumpi\n      0x00\n      dup1\n      revert\n    tag_17:\n      pop\n      tag_18\n      tag_19\n      jump\t// in\n    tag_18:\n      mload(0x40)\n      tag_20\n      swap2\n      swap1\n      tag_21\n      jump\t// in\n    tag_20:\n      mload(0x40)\n      dup1\n      swap2\n      sub\n      swap1\n      return\n        /* \"contracts/Bookstore.sol\":3233:3998  function buyBook(uint256 _bookId, uint256 _quantity) public  payable {... */\n    tag_3:\n      tag_22\n      0x04\n      dup1\n      calldatasize\n      sub\n      dup2\n      add\n      swap1\n      tag_23\n      swap2\n      swap1\n      tag_24\n      jump\t// in\n    tag_23:\n      tag_25\n      jump\t// in\n    tag_22:\n      stop\n        /* \"contracts/Bookstore.sol\":475:499  uint256[] public bookIds */\n    tag_4:\n      callvalue\n      dup1\n      iszero\n      tag_26\n      jumpi\n      0x00\n      dup1\n      revert\n    tag_26:\n      pop\n      tag_27\n      0x04\n      dup1\n      calldatasize\n      sub\n      dup2\n      add\n      swap1\n      tag_28\n      swap2\n      swap1\n      tag_29\n      jump\t// in\n    tag_28:\n      tag_30\n      jump\t// in\n    tag_27:\n      mload(0x40)\n      tag_31\n      swap2\n      swap1\n      tag_32\n      jump\t// in\n    tag_31:\n      mload(0x40)\n      dup1\n      swap2\n      sub\n      swap1\n      return\n        /* \"contracts/Bookstore.sol\":2714:2821  function getOwnerBalance() public view returns (uint256) {... */\n    tag_5:\n      callvalue\n      dup1\n      iszero\n      tag_33\n      jumpi\n      0x00\n      dup1\n      revert\n    tag_33:\n      pop\n      tag_34\n      tag_35\n      jump\t// in\n    tag_34:\n      mload(0x40)\n      tag_36\n      swap2\n      swap1\n      tag_32\n      jump\t// in\n    tag_36:\n      mload(0x40)\n      dup1\n      swap2\n      sub\n      swap1\n      return\n        /* \"contracts/Bookstore.sol\":2978:3225  function getBooks(uint256 _bookId) public view returns (string memory, string memory, uint256, uint256, bool) {... */\n    tag_6:\n      callvalue\n      dup1\n      iszero\n      tag_37\n      jumpi\n      0x00\n      dup1\n      revert\n    tag_37:\n      pop\n      tag_38\n      0x04\n      dup1\n      calldatasize\n      sub\n      dup2\n      add\n      swap1\n      tag_39\n      swap2\n      swap1\n      tag_29\n      jump\t// in\n    tag_39:\n      tag_40\n      jump\t// in\n    tag_38:\n      mload(0x40)\n      tag_41\n      swap6\n      swap5\n      swap4\n      swap3\n      swap2\n      swap1\n      tag_42\n      jump\t// in\n    tag_41:\n      mload(0x40)\n      dup1\n      swap2\n      sub\n      swap1\n      return\n        /* \"contracts/Bookstore.sol\":431:468  mapping(uint256 => Book) public books */\n    tag_7:\n      callvalue\n      dup1\n      iszero\n      tag_43\n      jumpi\n      0x00\n      dup1\n      revert\n    tag_43:\n      pop\n      tag_44\n      0x04\n      dup1\n      calldatasize\n      sub\n      dup2\n      add\n      swap1\n      tag_45\n      swap2\n      swap1\n      tag_29\n      jump\t// in\n    tag_45:\n      tag_46\n      jump\t// in\n    tag_44:\n      mload(0x40)\n      tag_47\n      swap6\n      swap5\n      swap4\n      swap3\n      swap2\n      swap1\n      tag_48\n      jump\t// in\n    tag_47:\n      mload(0x40)\n      dup1\n      swap2\n      sub\n      swap1\n      return\n        /* \"@openzeppelin/contracts/access/Ownable.sol\":2293:2394  function renounceOwnership() public virtual onlyOwner {... */\n    tag_8:\n      callvalue\n      dup1\n      iszero\n      tag_49\n      jumpi\n      0x00\n      dup1\n      revert\n    tag_49:\n      pop\n      tag_50\n      tag_51\n      jump\t// in\n    tag_50:\n      stop\n        /* \"@openzeppelin/contracts/access/Ownable.sol\":1638:1723  function owner() public view virtual returns (address) {... */\n    tag_9:\n      callvalue\n      dup1\n      iszero\n      tag_52\n      jumpi\n      0x00\n      dup1\n      revert\n    tag_52:\n      pop\n      tag_53\n      tag_54\n      jump\t// in\n    tag_53:\n      mload(0x40)\n      tag_55\n      swap2\n      swap1\n      tag_56\n      jump\t// in\n    tag_55:\n      mload(0x40)\n      dup1\n      swap2\n      sub\n      swap1\n      return\n        /* \"contracts/Bookstore.sol\":2871:2970  function getTotalBooksSold() public view returns (uint256) {... */\n    tag_10:\n      callvalue\n      dup1\n      iszero\n      tag_57\n      jumpi\n      0x00\n      dup1\n      revert\n    tag_57:\n      pop\n      tag_58\n      tag_59\n      jump\t// in\n    tag_58:\n      mload(0x40)\n      tag_60\n      swap2\n      swap1\n      tag_32\n      jump\t// in\n    tag_60:\n      mload(0x40)\n      dup1\n      swap2\n      sub\n      swap1\n      return\n        /* \"contracts/Bookstore.sol\":2190:2675  function removeBook(uint256 _bookId) public onlyOwner {... */\n    tag_11:\n      callvalue\n      dup1\n      iszero\n      tag_61\n      jumpi\n      0x00\n      dup1\n      revert\n    tag_61:\n      pop\n      tag_62\n      0x04\n      dup1\n      calldatasize\n      sub\n      dup2\n      add\n      swap1\n      tag_63\n      swap2\n      swap1\n      tag_29\n      jump\t// in\n    tag_63:\n      tag_64\n      jump\t// in\n    tag_62:\n      stop\n        /* \"@openzeppelin/contracts/access/Ownable.sol\":2543:2758  function transferOwnership(address newOwner) public virtual onlyOwner {... */\n    tag_12:\n      callvalue\n      dup1\n      iszero\n      tag_65\n      jumpi\n      0x00\n      dup1\n      revert\n    tag_65:\n      pop\n      tag_66\n      0x04\n      dup1\n      calldatasize\n      sub\n      dup2\n      add\n      swap1\n      tag_67\n      swap2\n      swap1\n      tag_68\n      jump\t// in\n    tag_67:\n      tag_69\n      jump\t// in\n    tag_66:\n      stop\n        /* \"contracts/Bookstore.sol\":796:1300  function addBook(uint256 _bookId, string memory _title, string memory _author, uint256 _stock, uint256 _price) public {... */\n    tag_13:\n      callvalue\n      dup1\n      iszero\n      tag_70\n      jumpi\n      0x00\n      dup1\n      revert\n    tag_70:\n      pop\n      tag_71\n      0x04\n      dup1\n      calldatasize\n      sub\n      dup2\n      add\n      swap1\n      tag_72\n      swap2\n      swap1\n      tag_73\n      jump\t// in\n    tag_72:\n      tag_74\n      jump\t// in\n    tag_71:\n      stop\n        /* \"contracts/Bookstore.sol\":1487:2141  function removeBooks(uint256[] memory _bookIds) public onlyOwner {... */\n    tag_14:\n      callvalue\n      dup1\n      iszero\n      tag_75\n      jumpi\n      0x00\n      dup1\n      revert\n    tag_75:\n      pop\n      tag_76\n      0x04\n      dup1\n      calldatasize\n      sub\n      dup2\n      add\n      swap1\n      tag_77\n      swap2\n      swap1\n      tag_78\n      jump\t// in\n    tag_77:\n      tag_79\n      jump\t// in\n    tag_76:\n      stop\n        /* \"contracts/Bookstore.sol\":1342:1437  function getAllBooks() public view returns (uint256[] memory) {... */\n    tag_19:\n        /* \"contracts/Bookstore.sol\":1386:1402  uint256[] memory */\n      0x60\n        /* \"contracts/Bookstore.sol\":1422:1429  bookIds */\n      0x03\n        /* \"contracts/Bookstore.sol\":1415:1429  return bookIds */\n      dup1\n      sload\n      dup1\n      0x20\n      mul\n      0x20\n      add\n      mload(0x40)\n      swap1\n      dup2\n      add\n      0x40\n      mstore\n      dup1\n      swap3\n      swap2\n      swap1\n      dup2\n      dup2\n      mstore\n      0x20\n      add\n      dup3\n      dup1\n      sload\n      dup1\n      iszero\n      tag_81\n      jumpi\n      0x20\n      mul\n      dup3\n      add\n      swap2\n      swap1\n      0x00\n      mstore\n      keccak256(0x00, 0x20)\n      swap1\n    tag_82:\n      dup2\n      sload\n      dup2\n      mstore\n      0x20\n      add\n      swap1\n      0x01\n      add\n      swap1\n      dup1\n      dup4\n      gt\n      tag_82\n      jumpi\n    tag_81:\n      pop\n      pop\n      pop\n      pop\n      pop\n      swap1\n      pop\n        /* \"contracts/Bookstore.sol\":1342:1437  function getAllBooks() public view returns (uint256[] memory) {... */\n      swap1\n      jump\t// out\n        /* \"contracts/Bookstore.sol\":3233:3998  function buyBook(uint256 _bookId, uint256 _quantity) public  payable {... */\n    tag_25:\n        /* \"contracts/Bookstore.sol\":3313:3330  Book storage book */\n      0x00\n        /* \"contracts/Bookstore.sol\":3333:3338  books */\n      0x02\n        /* \"contracts/Bookstore.sol\":3333:3347  books[_bookId] */\n      0x00\n        /* \"contracts/Bookstore.sol\":3339:3346  _bookId */\n      dup5\n        /* \"contracts/Bookstore.sol\":3333:3347  books[_bookId] */\n      dup2\n      mstore\n      0x20\n      add\n      swap1\n      dup2\n      mstore\n      0x20\n      add\n      0x00\n      keccak256\n        /* \"contracts/Bookstore.sol\":3313:3347  Book storage book = books[_bookId] */\n      swap1\n      pop\n        /* \"contracts/Bookstore.sol\":3366:3370  book */\n      dup1\n        /* \"contracts/Bookstore.sol\":3366:3382  book.isAvailable */\n      0x02\n      add\n      0x00\n      swap1\n      sload\n      swap1\n      0x0100\n      exp\n      swap1\n      div\n      0xff\n      and\n        /* \"contracts/Bookstore.sol\":3358:3413  require(book.isAvailable, \"This book is not available\") */\n      tag_84\n      jumpi\n      mload(0x40)\n      0x08c379a000000000000000000000000000000000000000000000000000000000\n      dup2\n      mstore\n      0x04\n      add\n      tag_85\n      swap1\n      tag_86\n      jump\t// in\n    tag_85:\n      mload(0x40)\n      dup1\n      swap2\n      sub\n      swap1\n      revert\n    tag_84:\n        /* \"contracts/Bookstore.sol\":3446:3455  _quantity */\n      dup2\n        /* \"contracts/Bookstore.sol\":3432:3436  book */\n      dup2\n        /* \"contracts/Bookstore.sol\":3432:3442  book.stock */\n      0x00\n      add\n      sload\n        /* \"contracts/Bookstore.sol\":3432:3455  book.stock >= _quantity */\n      lt\n      iszero\n        /* \"contracts/Bookstore.sol\":3424:3486  require(book.stock >= _quantity, \"Not enough stock available\") */\n      tag_87\n      jumpi\n      mload(0x40)\n      0x08c379a000000000000000000000000000000000000000000000000000000000\n      dup2\n      mstore\n      0x04\n      add\n      tag_88\n      swap1\n      tag_89\n      jump\t// in\n    tag_88:\n      mload(0x40)\n      dup1\n      swap2\n      sub\n      swap1\n      revert\n    tag_87:\n        /* \"contracts/Bookstore.sol\":3531:3540  _quantity */\n      dup2\n        /* \"contracts/Bookstore.sol\":3518:3522  book */\n      dup2\n        /* \"contracts/Bookstore.sol\":3518:3528  book.price */\n      0x01\n      add\n      sload\n        /* \"contracts/Bookstore.sol\":3518:3540  book.price * _quantity */\n      tag_90\n      swap2\n      swap1\n      tag_91\n      jump\t// in\n    tag_90:\n        /* \"contracts/Bookstore.sol\":3505:3514  msg.value */\n      callvalue\n        /* \"contracts/Bookstore.sol\":3505:3540  msg.value == book.price * _quantity */\n      eq\n        /* \"contracts/Bookstore.sol\":3497:3569  require(msg.value == book.price * _quantity, \"Incorrect payment amount\") */\n      tag_92\n      jumpi\n      mload(0x40)\n      0x08c379a000000000000000000000000000000000000000000000000000000000\n      dup2\n      mstore\n      0x04\n      add\n      tag_93\n      swap1\n      tag_94\n      jump\t// in\n    tag_93:\n      mload(0x40)\n      dup1\n      swap2\n      sub\n      swap1\n      revert\n    tag_92:\n        /* \"contracts/Bookstore.sol\":3655:3664  _quantity */\n      dup2\n        /* \"contracts/Bookstore.sol\":3641:3645  book */\n      dup2\n        /* \"contracts/Bookstore.sol\":3641:3651  book.stock */\n      0x00\n      add\n      0x00\n        /* \"contracts/Bookstore.sol\":3641:3664  book.stock -= _quantity */\n      dup3\n      dup3\n      sload\n      tag_95\n      swap2\n      swap1\n      tag_96\n      jump\t// in\n    tag_95:\n      swap3\n      pop\n      pop\n      dup2\n      swap1\n      sstore\n      pop\n        /* \"contracts/Bookstore.sol\":3693:3694  0 */\n      0x00\n        /* \"contracts/Bookstore.sol\":3679:3683  book */\n      dup2\n        /* \"contracts/Bookstore.sol\":3679:3689  book.stock */\n      0x00\n      add\n      sload\n        /* \"contracts/Bookstore.sol\":3679:3694  book.stock == 0 */\n      sub\n        /* \"contracts/Bookstore.sol\":3675:3747  if (book.stock == 0) {... */\n      tag_97\n      jumpi\n        /* \"contracts/Bookstore.sol\":3730:3735  false */\n      0x00\n        /* \"contracts/Bookstore.sol\":3711:3715  book */\n      dup2\n        /* \"contracts/Bookstore.sol\":3711:3727  book.isAvailable */\n      0x02\n      add\n      0x00\n        /* \"contracts/Bookstore.sol\":3711:3735  book.isAvailable = false */\n      0x0100\n      exp\n      dup2\n      sload\n      dup2\n      0xff\n      mul\n      not\n      and\n      swap1\n      dup4\n      iszero\n      iszero\n      mul\n      or\n      swap1\n      sstore\n      pop\n        /* \"contracts/Bookstore.sol\":3675:3747  if (book.stock == 0) {... */\n    tag_97:\n        /* \"contracts/Bookstore.sol\":3821:3830  _quantity */\n      dup2\n        /* \"contracts/Bookstore.sol\":3803:3817  totalBooksSold */\n      0x01\n      0x00\n        /* \"contracts/Bookstore.sol\":3803:3830  totalBooksSold += _quantity */\n      dup3\n      dup3\n      sload\n      tag_98\n      swap2\n      swap1\n      tag_99\n      jump\t// in\n    tag_98:\n      swap3\n      pop\n      pop\n      dup2\n      swap1\n      sstore\n      pop\n        /* \"contracts/Bookstore.sol\":3901:3908  owner() */\n      tag_100\n        /* \"contracts/Bookstore.sol\":3901:3906  owner */\n      tag_54\n        /* \"contracts/Bookstore.sol\":3901:3908  owner() */\n      jump\t// in\n    tag_100:\n        /* \"contracts/Bookstore.sol\":3893:3918  payable(owner()).transfer */\n      0xffffffffffffffffffffffffffffffffffffffff\n      and\n        /* \"contracts/Bookstore.sol\":3893:3929  payable(owner()).transfer(msg.value) */\n      0x08fc\n        /* \"contracts/Bookstore.sol\":3919:3928  msg.value */\n      callvalue\n        /* \"contracts/Bookstore.sol\":3893:3929  payable(owner()).transfer(msg.value) */\n      swap1\n      dup2\n      iszero\n      mul\n      swap1\n      mload(0x40)\n      0x00\n      mload(0x40)\n      dup1\n      dup4\n      sub\n      dup2\n      dup6\n      dup9\n      dup9\n      call\n      swap4\n      pop\n      pop\n      pop\n      pop\n      iszero\n      dup1\n      iszero\n      tag_102\n      jumpi\n      returndatasize\n      0x00\n      dup1\n      returndatacopy\n      revert(0x00, returndatasize)\n    tag_102:\n      pop\n        /* \"contracts/Bookstore.sol\":3968:3978  msg.sender */\n      caller\n        /* \"contracts/Bookstore.sol\":3945:3990  BookPurchased(_bookId, msg.sender, _quantity) */\n      0xffffffffffffffffffffffffffffffffffffffff\n      and\n      0x439c08b00222293c6073f3ee383214541a4a21aca7dbb0a45963f86fa8e589f7\n        /* \"contracts/Bookstore.sol\":3959:3966  _bookId */\n      dup5\n        /* \"contracts/Bookstore.sol\":3980:3989  _quantity */\n      dup5\n        /* \"contracts/Bookstore.sol\":3945:3990  BookPurchased(_bookId, msg.sender, _quantity) */\n      mload(0x40)\n      tag_103\n      swap3\n      swap2\n      swap1\n      tag_104\n      jump\t// in\n    tag_103:\n      mload(0x40)\n      dup1\n      swap2\n      sub\n      swap1\n      log2\n        /* \"contracts/Bookstore.sol\":3302:3998  {... */\n      pop\n        /* \"contracts/Bookstore.sol\":3233:3998  function buyBook(uint256 _bookId, uint256 _quantity) public  payable {... */\n      pop\n      pop\n      jump\t// out\n        /* \"contracts/Bookstore.sol\":475:499  uint256[] public bookIds */\n    tag_30:\n      0x03\n      dup2\n      dup2\n      sload\n      dup2\n      lt\n      tag_105\n      jumpi\n      0x00\n      dup1\n      revert\n    tag_105:\n      swap1\n      0x00\n      mstore\n      keccak256(0x00, 0x20)\n      add\n      0x00\n      swap2\n      pop\n      swap1\n      pop\n      sload\n      dup2\n      jump\t// out\n        /* \"contracts/Bookstore.sol\":2714:2821  function getOwnerBalance() public view returns (uint256) {... */\n    tag_35:\n        /* \"contracts/Bookstore.sol\":2762:2769  uint256 */\n      0x00\n        /* \"contracts/Bookstore.sol\":2797:2804  owner() */\n      tag_108\n        /* \"contracts/Bookstore.sol\":2797:2802  owner */\n      tag_54\n        /* \"contracts/Bookstore.sol\":2797:2804  owner() */\n      jump\t// in\n    tag_108:\n        /* \"contracts/Bookstore.sol\":2789:2813  address(owner()).balance */\n      0xffffffffffffffffffffffffffffffffffffffff\n      and\n      balance\n        /* \"contracts/Bookstore.sol\":2782:2813  return address(owner()).balance */\n      swap1\n      pop\n        /* \"contracts/Bookstore.sol\":2714:2821  function getOwnerBalance() public view returns (uint256) {... */\n      swap1\n      jump\t// out\n        /* \"contracts/Bookstore.sol\":2978:3225  function getBooks(uint256 _bookId) public view returns (string memory, string memory, uint256, uint256, bool) {... */\n    tag_40:\n        /* \"contracts/Bookstore.sol\":3034:3047  string memory */\n      0x60\n        /* \"contracts/Bookstore.sol\":3049:3062  string memory */\n      dup1\n        /* \"contracts/Bookstore.sol\":3064:3071  uint256 */\n      0x00\n        /* \"contracts/Bookstore.sol\":3073:3080  uint256 */\n      dup1\n        /* \"contracts/Bookstore.sol\":3082:3086  bool */\n      0x00\n        /* \"contracts/Bookstore.sol\":3099:3115  Book memory book */\n      dup1\n        /* \"contracts/Bookstore.sol\":3118:3123  books */\n      0x02\n        /* \"contracts/Bookstore.sol\":3118:3132  books[_bookId] */\n      0x00\n        /* \"contracts/Bookstore.sol\":3124:3131  _bookId */\n      dup9\n        /* \"contracts/Bookstore.sol\":3118:3132  books[_bookId] */\n      dup2\n      mstore\n      0x20\n      add\n      swap1\n      dup2\n      mstore\n      0x20\n      add\n      0x00\n      keccak256\n        /* \"contracts/Bookstore.sol\":3099:3132  Book memory book = books[_bookId] */\n      mload(0x40)\n      dup1\n      0xa0\n      add\n      0x40\n      mstore\n      swap1\n      dup2\n      0x00\n      dup3\n      add\n      sload\n      dup2\n      mstore\n      0x20\n      add\n      0x01\n      dup3\n      add\n      sload\n      dup2\n      mstore\n      0x20\n      add\n      0x02\n      dup3\n      add\n      0x00\n      swap1\n      sload\n      swap1\n      0x0100\n      exp\n      swap1\n      div\n      0xff\n      and\n      iszero\n      iszero\n      iszero\n      iszero\n      dup2\n      mstore\n      0x20\n      add\n      0x03\n      dup3\n      add\n      dup1\n      sload\n      tag_110\n      swap1\n      tag_111\n      jump\t// in\n    tag_110:\n      dup1\n      0x1f\n      add\n      0x20\n      dup1\n      swap2\n      div\n      mul\n      0x20\n      add\n      mload(0x40)\n      swap1\n      dup2\n      add\n      0x40\n      mstore\n      dup1\n      swap3\n      swap2\n      swap1\n      dup2\n      dup2\n      mstore\n      0x20\n      add\n      dup3\n      dup1\n      sload\n      tag_112\n      swap1\n      tag_111\n      jump\t// in\n    tag_112:\n      dup1\n      iszero\n      tag_113\n      jumpi\n      dup1\n      0x1f\n      lt\n      tag_114\n      jumpi\n      0x0100\n      dup1\n      dup4\n      sload\n      div\n      mul\n      dup4\n      mstore\n      swap2\n      0x20\n      add\n      swap2\n      jump(tag_113)\n    tag_114:\n      dup3\n      add\n      swap2\n      swap1\n      0x00\n      mstore\n      keccak256(0x00, 0x20)\n      swap1\n    tag_115:\n      dup2\n      sload\n      dup2\n      mstore\n      swap1\n      0x01\n      add\n      swap1\n      0x20\n      add\n      dup1\n      dup4\n      gt\n      tag_115\n      jumpi\n      dup3\n      swap1\n      sub\n      0x1f\n      and\n      dup3\n      add\n      swap2\n    tag_113:\n      pop\n      pop\n      pop\n      pop\n      pop\n      dup2\n      mstore\n      0x20\n      add\n      0x04\n      dup3\n      add\n      dup1\n      sload\n      tag_116\n      swap1\n      tag_111\n      jump\t// in\n    tag_116:\n      dup1\n      0x1f\n      add\n      0x20\n      dup1\n      swap2\n      div\n      mul\n      0x20\n      add\n      mload(0x40)\n      swap1\n      dup2\n      add\n      0x40\n      mstore\n      dup1\n      swap3\n      swap2\n      swap1\n      dup2\n      dup2\n      mstore\n      0x20\n      add\n      dup3\n      dup1\n      sload\n      tag_117\n      swap1\n      tag_111\n      jump\t// in\n    tag_117:\n      dup1\n      iszero\n      tag_118\n      jumpi\n      dup1\n      0x1f\n      lt\n      tag_119\n      jumpi\n      0x0100\n      dup1\n      dup4\n      sload\n      div\n      mul\n      dup4\n      mstore\n      swap2\n      0x20\n      add\n      swap2\n      jump(tag_118)\n    tag_119:\n      dup3\n      add\n      swap2\n      swap1\n      0x00\n      mstore\n      keccak256(0x00, 0x20)\n      swap1\n    tag_120:\n      dup2\n      sload\n      dup2\n      mstore\n      swap1\n      0x01\n      add\n      swap1\n      0x20\n      add\n      dup1\n      dup4\n      gt\n      tag_120\n      jumpi\n      dup3\n      swap1\n      sub\n      0x1f\n      and\n      dup3\n      add\n      swap2\n    tag_118:\n      pop\n      pop\n      pop\n      pop\n      pop\n      dup2\n      mstore\n      pop\n      pop\n      swap1\n      pop\n        /* \"contracts/Bookstore.sol\":3151:3155  book */\n      dup1\n        /* \"contracts/Bookstore.sol\":3151:3161  book.title */\n      0x60\n      add\n      mload\n        /* \"contracts/Bookstore.sol\":3163:3167  book */\n      dup2\n        /* \"contracts/Bookstore.sol\":3163:3174  book.author */\n      0x80\n      add\n      mload\n        /* \"contracts/Bookstore.sol\":3176:3180  book */\n      dup3\n        /* \"contracts/Bookstore.sol\":3176:3186  book.price */\n      0x20\n      add\n      mload\n        /* \"contracts/Bookstore.sol\":3188:3192  book */\n      dup4\n        /* \"contracts/Bookstore.sol\":3188:3198  book.stock */\n      0x00\n      add\n      mload\n        /* \"contracts/Bookstore.sol\":3200:3204  book */\n      dup5\n        /* \"contracts/Bookstore.sol\":3200:3216  book.isAvailable */\n      0x40\n      add\n      mload\n        /* \"contracts/Bookstore.sol\":3143:3217  return (book.title, book.author, book.price, book.stock, book.isAvailable) */\n      swap6\n      pop\n      swap6\n      pop\n      swap6\n      pop\n      swap6\n      pop\n      swap6\n      pop\n      pop\n        /* \"contracts/Bookstore.sol\":2978:3225  function getBooks(uint256 _bookId) public view returns (string memory, string memory, uint256, uint256, bool) {... */\n      swap2\n      swap4\n      swap6\n      swap1\n      swap3\n      swap5\n      pop\n      jump\t// out\n        /* \"contracts/Bookstore.sol\":431:468  mapping(uint256 => Book) public books */\n    tag_46:\n      mstore(0x20, 0x02)\n      dup1\n      0x00\n      mstore\n      keccak256(0x00, 0x40)\n      0x00\n      swap2\n      pop\n      swap1\n      pop\n      dup1\n      0x00\n      add\n      sload\n      swap1\n      dup1\n      0x01\n      add\n      sload\n      swap1\n      dup1\n      0x02\n      add\n      0x00\n      swap1\n      sload\n      swap1\n      0x0100\n      exp\n      swap1\n      div\n      0xff\n      and\n      swap1\n      dup1\n      0x03\n      add\n      dup1\n      sload\n      tag_121\n      swap1\n      tag_111\n      jump\t// in\n    tag_121:\n      dup1\n      0x1f\n      add\n      0x20\n      dup1\n      swap2\n      div\n      mul\n      0x20\n      add\n      mload(0x40)\n      swap1\n      dup2\n      add\n      0x40\n      mstore\n      dup1\n      swap3\n      swap2\n      swap1\n      dup2\n      dup2\n      mstore\n      0x20\n      add\n      dup3\n      dup1\n      sload\n      tag_122\n      swap1\n      tag_111\n      jump\t// in\n    tag_122:\n      dup1\n      iszero\n      tag_123\n      jumpi\n      dup1\n      0x1f\n      lt\n      tag_124\n      jumpi\n      0x0100\n      dup1\n      dup4\n      sload\n      div\n      mul\n      dup4\n      mstore\n      swap2\n      0x20\n      add\n      swap2\n      jump(tag_123)\n    tag_124:\n      dup3\n      add\n      swap2\n      swap1\n      0x00\n      mstore\n      keccak256(0x00, 0x20)\n      swap1\n    tag_125:\n      dup2\n      sload\n      dup2\n      mstore\n      swap1\n      0x01\n      add\n      swap1\n      0x20\n      add\n      dup1\n      dup4\n      gt\n      tag_125\n      jumpi\n      dup3\n      swap1\n      sub\n      0x1f\n      and\n      dup3\n      add\n      swap2\n    tag_123:\n      pop\n      pop\n      pop\n      pop\n      pop\n      swap1\n      dup1\n      0x04\n      add\n      dup1\n      sload\n      tag_126\n      swap1\n      tag_111\n      jump\t// in\n    tag_126:\n      dup1\n      0x1f\n      add\n      0x20\n      dup1\n      swap2\n      div\n      mul\n      0x20\n      add\n      mload(0x40)\n      swap1\n      dup2\n      add\n      0x40\n      mstore\n      dup1\n      swap3\n      swap2\n      swap1\n      dup2\n      dup2\n      mstore\n      0x20\n      add\n      dup3\n      dup1\n      sload\n      tag_127\n      swap1\n      tag_111\n      jump\t// in\n    tag_127:\n      dup1\n      iszero\n      tag_128\n      jumpi\n      dup1\n      0x1f\n      lt\n      tag_129\n      jumpi\n      0x0100\n      dup1\n      dup4\n      sload\n      div\n      mul\n      dup4\n      mstore\n      swap2\n      0x20\n      add\n      swap2\n      jump(tag_128)\n    tag_129:\n      dup3\n      add\n      swap2\n      swap1\n      0x00\n      mstore\n      keccak256(0x00, 0x20)\n      swap1\n    tag_130:\n      dup2\n      sload\n      dup2\n      mstore\n      swap1\n      0x01\n      add\n      swap1\n      0x20\n      add\n      dup1\n      dup4\n      gt\n      tag_130\n      jumpi\n      dup3\n      swap1\n      sub\n      0x1f\n      and\n      dup3\n      add\n      swap2\n    tag_128:\n      pop\n      pop\n      pop\n      pop\n      pop\n      swap1\n      pop\n      dup6\n      jump\t// out\n        /* \"@openzeppelin/contracts/access/Ownable.sol\":2293:2394  function renounceOwnership() public virtual onlyOwner {... */\n    tag_51:\n        /* \"@openzeppelin/contracts/access/Ownable.sol\":1531:1544  _checkOwner() */\n      tag_132\n        /* \"@openzeppelin/contracts/access/Ownable.sol\":1531:1542  _checkOwner */\n      tag_133\n        /* \"@openzeppelin/contracts/access/Ownable.sol\":1531:1544  _checkOwner() */\n      jump\t// in\n    tag_132:\n        /* \"@openzeppelin/contracts/access/Ownable.sol\":2357:2387  _transferOwnership(address(0)) */\n      tag_135\n        /* \"@openzeppelin/contracts/access/Ownable.sol\":2384:2385  0 */\n      0x00\n        /* \"@openzeppelin/contracts/access/Ownable.sol\":2357:2375  _transferOwnership */\n      tag_136\n        /* \"@openzeppelin/contracts/access/Ownable.sol\":2357:2387  _transferOwnership(address(0)) */\n      jump\t// in\n    tag_135:\n        /* \"@openzeppelin/contracts/access/Ownable.sol\":2293:2394  function renounceOwnership() public virtual onlyOwner {... */\n      jump\t// out\n        /* \"@openzeppelin/contracts/access/Ownable.sol\":1638:1723  function owner() public view virtual returns (address) {... */\n    tag_54:\n        /* \"@openzeppelin/contracts/access/Ownable.sol\":1684:1691  address */\n      0x00\n        /* \"@openzeppelin/contracts/access/Ownable.sol\":1710:1716  _owner */\n      dup1\n      0x00\n      swap1\n      sload\n      swap1\n      0x0100\n      exp\n      swap1\n      div\n      0xffffffffffffffffffffffffffffffffffffffff\n      and\n        /* \"@openzeppelin/contracts/access/Ownable.sol\":1703:1716  return _owner */\n      swap1\n      pop\n        /* \"@openzeppelin/contracts/access/Ownable.sol\":1638:1723  function owner() public view virtual returns (address) {... */\n      swap1\n      jump\t// out\n        /* \"contracts/Bookstore.sol\":2871:2970  function getTotalBooksSold() public view returns (uint256) {... */\n    tag_59:\n        /* \"contracts/Bookstore.sol\":2921:2928  uint256 */\n      0x00\n        /* \"contracts/Bookstore.sol\":2948:2962  totalBooksSold */\n      sload(0x01)\n        /* \"contracts/Bookstore.sol\":2941:2962  return totalBooksSold */\n      swap1\n      pop\n        /* \"contracts/Bookstore.sol\":2871:2970  function getTotalBooksSold() public view returns (uint256) {... */\n      swap1\n      jump\t// out\n        /* \"contracts/Bookstore.sol\":2190:2675  function removeBook(uint256 _bookId) public onlyOwner {... */\n    tag_64:\n        /* \"@openzeppelin/contracts/access/Ownable.sol\":1531:1544  _checkOwner() */\n      tag_140\n        /* \"@openzeppelin/contracts/access/Ownable.sol\":1531:1542  _checkOwner */\n      tag_133\n        /* \"@openzeppelin/contracts/access/Ownable.sol\":1531:1544  _checkOwner() */\n      jump\t// in\n    tag_140:\n        /* \"contracts/Bookstore.sol\":2287:2288  0 */\n      0x00\n        /* \"contracts/Bookstore.sol\":2263:2268  books */\n      0x02\n        /* \"contracts/Bookstore.sol\":2263:2277  books[_bookId] */\n      0x00\n        /* \"contracts/Bookstore.sol\":2269:2276  _bookId */\n      dup4\n        /* \"contracts/Bookstore.sol\":2263:2277  books[_bookId] */\n      dup2\n      mstore\n      0x20\n      add\n      swap1\n      dup2\n      mstore\n      0x20\n      add\n      0x00\n      keccak256\n        /* \"contracts/Bookstore.sol\":2263:2283  books[_bookId].price */\n      0x01\n      add\n      sload\n        /* \"contracts/Bookstore.sol\":2263:2288  books[_bookId].price != 0 */\n      sub\n        /* \"contracts/Bookstore.sol\":2255:2312  require(books[_bookId].price != 0, \"Book does not exist\") */\n      tag_142\n      jumpi\n      mload(0x40)\n      0x08c379a000000000000000000000000000000000000000000000000000000000\n      dup2\n      mstore\n      0x04\n      add\n      tag_143\n      swap1\n      tag_144\n      jump\t// in\n    tag_143:\n      mload(0x40)\n      dup1\n      swap2\n      sub\n      swap1\n      revert\n    tag_142:\n        /* \"contracts/Bookstore.sol\":2330:2335  books */\n      0x02\n        /* \"contracts/Bookstore.sol\":2330:2344  books[_bookId] */\n      0x00\n        /* \"contracts/Bookstore.sol\":2336:2343  _bookId */\n      dup3\n        /* \"contracts/Bookstore.sol\":2330:2344  books[_bookId] */\n      dup2\n      mstore\n      0x20\n      add\n      swap1\n      dup2\n      mstore\n      0x20\n      add\n      0x00\n      keccak256\n      0x00\n        /* \"contracts/Bookstore.sol\":2323:2344  delete books[_bookId] */\n      dup1\n      dup3\n      add\n      0x00\n      swap1\n      sstore\n      0x01\n      dup3\n      add\n      0x00\n      swap1\n      sstore\n      0x02\n      dup3\n      add\n      exp(0x0100, 0x00)\n      dup2\n      sload\n      swap1\n      0xff\n      mul\n      not\n      and\n      swap1\n      sstore\n      0x03\n      dup3\n      add\n      0x00\n      tag_145\n      swap2\n      swap1\n      tag_146\n      jump\t// in\n    tag_145:\n      0x04\n      dup3\n      add\n      0x00\n      tag_147\n      swap2\n      swap1\n      tag_146\n      jump\t// in\n    tag_147:\n      pop\n      pop\n        /* \"contracts/Bookstore.sol\":2408:2417  uint256 i */\n      0x00\n        /* \"contracts/Bookstore.sol\":2403:2632  for (uint256 i = 0; i < bookIds.length; i++) {... */\n    tag_148:\n        /* \"contracts/Bookstore.sol\":2427:2434  bookIds */\n      0x03\n        /* \"contracts/Bookstore.sol\":2427:2441  bookIds.length */\n      dup1\n      sload\n      swap1\n      pop\n        /* \"contracts/Bookstore.sol\":2423:2424  i */\n      dup2\n        /* \"contracts/Bookstore.sol\":2423:2441  i < bookIds.length */\n      lt\n        /* \"contracts/Bookstore.sol\":2403:2632  for (uint256 i = 0; i < bookIds.length; i++) {... */\n      iszero\n      tag_149\n      jumpi\n        /* \"contracts/Bookstore.sol\":2481:2488  _bookId */\n      dup2\n        /* \"contracts/Bookstore.sol\":2467:2474  bookIds */\n      0x03\n        /* \"contracts/Bookstore.sol\":2475:2476  i */\n      dup3\n        /* \"contracts/Bookstore.sol\":2467:2477  bookIds[i] */\n      dup2\n      sload\n      dup2\n      lt\n      tag_151\n      jumpi\n      tag_152\n      tag_153\n      jump\t// in\n    tag_152:\n    tag_151:\n      swap1\n      0x00\n      mstore\n      keccak256(0x00, 0x20)\n      add\n      sload\n        /* \"contracts/Bookstore.sol\":2467:2488  bookIds[i] == _bookId */\n      sub\n        /* \"contracts/Bookstore.sol\":2463:2621  if (bookIds[i] == _bookId) {... */\n      tag_155\n      jumpi\n        /* \"contracts/Bookstore.sol\":2522:2529  bookIds */\n      0x03\n        /* \"contracts/Bookstore.sol\":2547:2548  1 */\n      0x01\n        /* \"contracts/Bookstore.sol\":2530:2537  bookIds */\n      0x03\n        /* \"contracts/Bookstore.sol\":2530:2544  bookIds.length */\n      dup1\n      sload\n      swap1\n      pop\n        /* \"contracts/Bookstore.sol\":2530:2548  bookIds.length - 1 */\n      tag_156\n      swap2\n      swap1\n      tag_96\n      jump\t// in\n    tag_156:\n        /* \"contracts/Bookstore.sol\":2522:2549  bookIds[bookIds.length - 1] */\n      dup2\n      sload\n      dup2\n      lt\n      tag_157\n      jumpi\n      tag_158\n      tag_153\n      jump\t// in\n    tag_158:\n    tag_157:\n      swap1\n      0x00\n      mstore\n      keccak256(0x00, 0x20)\n      add\n      sload\n        /* \"contracts/Bookstore.sol\":2509:2516  bookIds */\n      0x03\n        /* \"contracts/Bookstore.sol\":2517:2518  i */\n      dup3\n        /* \"contracts/Bookstore.sol\":2509:2519  bookIds[i] */\n      dup2\n      sload\n      dup2\n      lt\n      tag_160\n      jumpi\n      tag_161\n      tag_153\n      jump\t// in\n    tag_161:\n    tag_160:\n      swap1\n      0x00\n      mstore\n      keccak256(0x00, 0x20)\n      add\n        /* \"contracts/Bookstore.sol\":2509:2549  bookIds[i] = bookIds[bookIds.length - 1] */\n      dup2\n      swap1\n      sstore\n      pop\n        /* \"contracts/Bookstore.sol\":2568:2575  bookIds */\n      0x03\n        /* \"contracts/Bookstore.sol\":2568:2581  bookIds.pop() */\n      dup1\n      sload\n      dup1\n      tag_163\n      jumpi\n      tag_164\n      tag_165\n      jump\t// in\n    tag_164:\n    tag_163:\n      0x01\n      swap1\n      sub\n      dup2\n      dup2\n      swap1\n      0x00\n      mstore\n      keccak256(0x00, 0x20)\n      add\n      0x00\n      swap1\n      sstore\n      swap1\n      sstore\n        /* \"contracts/Bookstore.sol\":2600:2605  break */\n      jump(tag_149)\n        /* \"contracts/Bookstore.sol\":2463:2621  if (bookIds[i] == _bookId) {... */\n    tag_155:\n        /* \"contracts/Bookstore.sol\":2443:2446  i++ */\n      dup1\n      dup1\n      0x01\n      add\n      swap2\n      pop\n      pop\n        /* \"contracts/Bookstore.sol\":2403:2632  for (uint256 i = 0; i < bookIds.length; i++) {... */\n      jump(tag_148)\n    tag_149:\n      pop\n        /* \"contracts/Bookstore.sol\":2659:2666  _bookId */\n      dup1\n        /* \"contracts/Bookstore.sol\":2647:2667  BookRemoved(_bookId) */\n      0x3c5ce13264433bcf97e5d53c97af4fc33800e8c9dd927f965b116d0018d7cddf\n      mload(0x40)\n      mload(0x40)\n      dup1\n      swap2\n      sub\n      swap1\n      log2\n        /* \"contracts/Bookstore.sol\":2190:2675  function removeBook(uint256 _bookId) public onlyOwner {... */\n      pop\n      jump\t// out\n        /* \"@openzeppelin/contracts/access/Ownable.sol\":2543:2758  function transferOwnership(address newOwner) public virtual onlyOwner {... */\n    tag_69:\n        /* \"@openzeppelin/contracts/access/Ownable.sol\":1531:1544  _checkOwner() */\n      tag_168\n        /* \"@openzeppelin/contracts/access/Ownable.sol\":1531:1542  _checkOwner */\n      tag_133\n        /* \"@openzeppelin/contracts/access/Ownable.sol\":1531:1544  _checkOwner() */\n      jump\t// in\n    tag_168:\n        /* \"@openzeppelin/contracts/access/Ownable.sol\":2647:2648  0 */\n      0x00\n        /* \"@openzeppelin/contracts/access/Ownable.sol\":2627:2649  newOwner == address(0) */\n      0xffffffffffffffffffffffffffffffffffffffff\n      and\n        /* \"@openzeppelin/contracts/access/Ownable.sol\":2627:2635  newOwner */\n      dup2\n        /* \"@openzeppelin/contracts/access/Ownable.sol\":2627:2649  newOwner == address(0) */\n      0xffffffffffffffffffffffffffffffffffffffff\n      and\n      sub\n        /* \"@openzeppelin/contracts/access/Ownable.sol\":2623:2714  if (newOwner == address(0)) {... */\n      tag_170\n      jumpi\n        /* \"@openzeppelin/contracts/access/Ownable.sol\":2700:2701  0 */\n      0x00\n        /* \"@openzeppelin/contracts/access/Ownable.sol\":2672:2703  OwnableInvalidOwner(address(0)) */\n      mload(0x40)\n      0x1e4fbdf700000000000000000000000000000000000000000000000000000000\n      dup2\n      mstore\n      0x04\n      add\n      tag_171\n      swap2\n      swap1\n      tag_56\n      jump\t// in\n    tag_171:\n      mload(0x40)\n      dup1\n      swap2\n      sub\n      swap1\n      revert\n        /* \"@openzeppelin/contracts/access/Ownable.sol\":2623:2714  if (newOwner == address(0)) {... */\n    tag_170:\n        /* \"@openzeppelin/contracts/access/Ownable.sol\":2723:2751  _transferOwnership(newOwner) */\n      tag_172\n        /* \"@openzeppelin/contracts/access/Ownable.sol\":2742:2750  newOwner */\n      dup2\n        /* \"@openzeppelin/contracts/access/Ownable.sol\":2723:2741  _transferOwnership */\n      tag_136\n        /* \"@openzeppelin/contracts/access/Ownable.sol\":2723:2751  _transferOwnership(newOwner) */\n      jump\t// in\n    tag_172:\n        /* \"@openzeppelin/contracts/access/Ownable.sol\":2543:2758  function transferOwnership(address newOwner) public virtual onlyOwner {... */\n      pop\n      jump\t// out\n        /* \"contracts/Bookstore.sol\":796:1300  function addBook(uint256 _bookId, string memory _title, string memory _author, uint256 _stock, uint256 _price) public {... */\n    tag_74:\n        /* \"contracts/Bookstore.sol\":957:958  0 */\n      0x00\n        /* \"contracts/Bookstore.sol\":933:938  books */\n      0x02\n        /* \"contracts/Bookstore.sol\":933:947  books[_bookId] */\n      0x00\n        /* \"contracts/Bookstore.sol\":939:946  _bookId */\n      dup8\n        /* \"contracts/Bookstore.sol\":933:947  books[_bookId] */\n      dup2\n      mstore\n      0x20\n      add\n      swap1\n      dup2\n      mstore\n      0x20\n      add\n      0x00\n      keccak256\n        /* \"contracts/Bookstore.sol\":933:953  books[_bookId].price */\n      0x01\n      add\n      sload\n        /* \"contracts/Bookstore.sol\":933:958  books[_bookId].price == 0 */\n      eq\n        /* \"contracts/Bookstore.sol\":925:996  require(books[_bookId].price == 0, \"CANNOT ADD BOOK IT ALREADY EXISTS\") */\n      tag_174\n      jumpi\n      mload(0x40)\n      0x08c379a000000000000000000000000000000000000000000000000000000000\n      dup2\n      mstore\n      0x04\n      add\n      tag_175\n      swap1\n      tag_176\n      jump\t// in\n    tag_175:\n      mload(0x40)\n      dup1\n      swap2\n      sub\n      swap1\n      revert\n    tag_174:\n        /* \"contracts/Bookstore.sol\":1024:1193  Book({... */\n      mload(0x40)\n      dup1\n      0xa0\n      add\n      0x40\n      mstore\n      dup1\n        /* \"contracts/Bookstore.sol\":1051:1057  _stock */\n      dup4\n        /* \"contracts/Bookstore.sol\":1024:1193  Book({... */\n      dup2\n      mstore\n      0x20\n      add\n        /* \"contracts/Bookstore.sol\":1079:1085  _price */\n      dup3\n        /* \"contracts/Bookstore.sol\":1024:1193  Book({... */\n      dup2\n      mstore\n      0x20\n      add\n        /* \"contracts/Bookstore.sol\":1122:1123  0 */\n      0x00\n        /* \"contracts/Bookstore.sol\":1113:1119  _stock */\n      dup5\n        /* \"contracts/Bookstore.sol\":1113:1123  _stock > 0 */\n      gt\n        /* \"contracts/Bookstore.sol\":1024:1193  Book({... */\n      iszero\n      iszero\n      dup2\n      mstore\n      0x20\n      add\n        /* \"contracts/Bookstore.sol\":1145:1151  _title */\n      dup6\n        /* \"contracts/Bookstore.sol\":1024:1193  Book({... */\n      dup2\n      mstore\n      0x20\n      add\n        /* \"contracts/Bookstore.sol\":1174:1181  _author */\n      dup5\n        /* \"contracts/Bookstore.sol\":1024:1193  Book({... */\n      dup2\n      mstore\n      pop\n        /* \"contracts/Bookstore.sol\":1007:1012  books */\n      0x02\n        /* \"contracts/Bookstore.sol\":1007:1021  books[_bookId] */\n      0x00\n        /* \"contracts/Bookstore.sol\":1013:1020  _bookId */\n      dup8\n        /* \"contracts/Bookstore.sol\":1007:1021  books[_bookId] */\n      dup2\n      mstore\n      0x20\n      add\n      swap1\n      dup2\n      mstore\n      0x20\n      add\n      0x00\n      keccak256\n        /* \"contracts/Bookstore.sol\":1007:1193  books[_bookId] = Book({... */\n      0x00\n      dup3\n      add\n      mload\n      dup2\n      0x00\n      add\n      sstore\n      0x20\n      dup3\n      add\n      mload\n      dup2\n      0x01\n      add\n      sstore\n      0x40\n      dup3\n      add\n      mload\n      dup2\n      0x02\n      add\n      exp(0x0100, 0x00)\n      dup2\n      sload\n      dup2\n      0xff\n      mul\n      not\n      and\n      swap1\n      dup4\n      iszero\n      iszero\n      mul\n      or\n      swap1\n      sstore\n      pop\n      0x60\n      dup3\n      add\n      mload\n      dup2\n      0x03\n      add\n      swap1\n      dup2\n      tag_177\n      swap2\n      swap1\n      tag_178\n      jump\t// in\n    tag_177:\n      pop\n      0x80\n      dup3\n      add\n      mload\n      dup2\n      0x04\n      add\n      swap1\n      dup2\n      tag_179\n      swap2\n      swap1\n      tag_178\n      jump\t// in\n    tag_179:\n      pop\n      swap1\n      pop\n      pop\n        /* \"contracts/Bookstore.sol\":1204:1211  bookIds */\n      0x03\n        /* \"contracts/Bookstore.sol\":1217:1224  _bookId */\n      dup6\n        /* \"contracts/Bookstore.sol\":1204:1225  bookIds.push(_bookId) */\n      swap1\n      dup1\n      0x01\n      dup2\n      sload\n      add\n      dup1\n      dup3\n      sstore\n      dup1\n      swap2\n      pop\n      pop\n      0x01\n      swap1\n      sub\n      swap1\n      0x00\n      mstore\n      keccak256(0x00, 0x20)\n      add\n      0x00\n      swap1\n      swap2\n      swap1\n      swap2\n      swap1\n      swap2\n      pop\n      sstore\n        /* \"contracts/Bookstore.sol\":1251:1258  _bookId */\n      dup5\n        /* \"contracts/Bookstore.sol\":1241:1292  BookAdded(_bookId, _title, _author, _stock, _price) */\n      0x722c04650224f771c04ec5712c74689980b3ddb4eaa233cd8f9c72d7da7fbe29\n        /* \"contracts/Bookstore.sol\":1260:1266  _title */\n      dup6\n        /* \"contracts/Bookstore.sol\":1268:1275  _author */\n      dup6\n        /* \"contracts/Bookstore.sol\":1277:1283  _stock */\n      dup6\n        /* \"contracts/Bookstore.sol\":1285:1291  _price */\n      dup6\n        /* \"contracts/Bookstore.sol\":1241:1292  BookAdded(_bookId, _title, _author, _stock, _price) */\n      mload(0x40)\n      tag_181\n      swap5\n      swap4\n      swap3\n      swap2\n      swap1\n      tag_182\n      jump\t// in\n    tag_181:\n      mload(0x40)\n      dup1\n      swap2\n      sub\n      swap1\n      log2\n        /* \"contracts/Bookstore.sol\":796:1300  function addBook(uint256 _bookId, string memory _title, string memory _author, uint256 _stock, uint256 _price) public {... */\n      pop\n      pop\n      pop\n      pop\n      pop\n      jump\t// out\n        /* \"contracts/Bookstore.sol\":1487:2141  function removeBooks(uint256[] memory _bookIds) public onlyOwner {... */\n    tag_79:\n        /* \"@openzeppelin/contracts/access/Ownable.sol\":1531:1544  _checkOwner() */\n      tag_184\n        /* \"@openzeppelin/contracts/access/Ownable.sol\":1531:1542  _checkOwner */\n      tag_133\n        /* \"@openzeppelin/contracts/access/Ownable.sol\":1531:1544  _checkOwner() */\n      jump\t// in\n    tag_184:\n        /* \"contracts/Bookstore.sol\":1568:1577  uint256 i */\n      0x00\n        /* \"contracts/Bookstore.sol\":1563:2092  for (uint256 i = 0; i < _bookIds.length; i++) {... */\n    tag_186:\n        /* \"contracts/Bookstore.sol\":1587:1595  _bookIds */\n      dup2\n        /* \"contracts/Bookstore.sol\":1587:1602  _bookIds.length */\n      mload\n        /* \"contracts/Bookstore.sol\":1583:1584  i */\n      dup2\n        /* \"contracts/Bookstore.sol\":1583:1602  i < _bookIds.length */\n      lt\n        /* \"contracts/Bookstore.sol\":1563:2092  for (uint256 i = 0; i < _bookIds.length; i++) {... */\n      iszero\n      tag_187\n      jumpi\n        /* \"contracts/Bookstore.sol\":1624:1638  uint256 bookId */\n      0x00\n        /* \"contracts/Bookstore.sol\":1641:1649  _bookIds */\n      dup3\n        /* \"contracts/Bookstore.sol\":1650:1651  i */\n      dup3\n        /* \"contracts/Bookstore.sol\":1641:1652  _bookIds[i] */\n      dup2\n      mload\n      dup2\n      lt\n      tag_189\n      jumpi\n      tag_190\n      tag_153\n      jump\t// in\n    tag_190:\n    tag_189:\n      0x20\n      mul\n      0x20\n      add\n      add\n      mload\n        /* \"contracts/Bookstore.sol\":1624:1652  uint256 bookId = _bookIds[i] */\n      swap1\n      pop\n        /* \"contracts/Bookstore.sol\":1698:1699  0 */\n      0x00\n        /* \"contracts/Bookstore.sol\":1675:1680  books */\n      0x02\n        /* \"contracts/Bookstore.sol\":1675:1688  books[bookId] */\n      0x00\n        /* \"contracts/Bookstore.sol\":1681:1687  bookId */\n      dup4\n        /* \"contracts/Bookstore.sol\":1675:1688  books[bookId] */\n      dup2\n      mstore\n      0x20\n      add\n      swap1\n      dup2\n      mstore\n      0x20\n      add\n      0x00\n      keccak256\n        /* \"contracts/Bookstore.sol\":1675:1694  books[bookId].price */\n      0x01\n      add\n      sload\n        /* \"contracts/Bookstore.sol\":1675:1699  books[bookId].price != 0 */\n      sub\n        /* \"contracts/Bookstore.sol\":1667:1723  require(books[bookId].price != 0, \"Book does not exist\") */\n      tag_191\n      jumpi\n      mload(0x40)\n      0x08c379a000000000000000000000000000000000000000000000000000000000\n      dup2\n      mstore\n      0x04\n      add\n      tag_192\n      swap1\n      tag_144\n      jump\t// in\n    tag_192:\n      mload(0x40)\n      dup1\n      swap2\n      sub\n      swap1\n      revert\n    tag_191:\n        /* \"contracts/Bookstore.sol\":1745:1750  books */\n      0x02\n        /* \"contracts/Bookstore.sol\":1745:1758  books[bookId] */\n      0x00\n        /* \"contracts/Bookstore.sol\":1751:1757  bookId */\n      dup3\n        /* \"contracts/Bookstore.sol\":1745:1758  books[bookId] */\n      dup2\n      mstore\n      0x20\n      add\n      swap1\n      dup2\n      mstore\n      0x20\n      add\n      0x00\n      keccak256\n      0x00\n        /* \"contracts/Bookstore.sol\":1738:1758  delete books[bookId] */\n      dup1\n      dup3\n      add\n      0x00\n      swap1\n      sstore\n      0x01\n      dup3\n      add\n      0x00\n      swap1\n      sstore\n      0x02\n      dup3\n      add\n      exp(0x0100, 0x00)\n      dup2\n      sload\n      swap1\n      0xff\n      mul\n      not\n      and\n      swap1\n      sstore\n      0x03\n      dup3\n      add\n      0x00\n      tag_193\n      swap2\n      swap1\n      tag_146\n      jump\t// in\n    tag_193:\n      0x04\n      dup3\n      add\n      0x00\n      tag_194\n      swap2\n      swap1\n      tag_146\n      jump\t// in\n    tag_194:\n      pop\n      pop\n        /* \"contracts/Bookstore.sol\":1834:1843  uint256 j */\n      0x00\n        /* \"contracts/Bookstore.sol\":1829:2081  for (uint256 j = 0; j < bookIds.length; j++) {... */\n    tag_195:\n        /* \"contracts/Bookstore.sol\":1853:1860  bookIds */\n      0x03\n        /* \"contracts/Bookstore.sol\":1853:1867  bookIds.length */\n      dup1\n      sload\n      swap1\n      pop\n        /* \"contracts/Bookstore.sol\":1849:1850  j */\n      dup2\n        /* \"contracts/Bookstore.sol\":1849:1867  j < bookIds.length */\n      lt\n        /* \"contracts/Bookstore.sol\":1829:2081  for (uint256 j = 0; j < bookIds.length; j++) {... */\n      iszero\n      tag_196\n      jumpi\n        /* \"contracts/Bookstore.sol\":1911:1917  bookId */\n      dup2\n        /* \"contracts/Bookstore.sol\":1897:1904  bookIds */\n      0x03\n        /* \"contracts/Bookstore.sol\":1905:1906  j */\n      dup3\n        /* \"contracts/Bookstore.sol\":1897:1907  bookIds[j] */\n      dup2\n      sload\n      dup2\n      lt\n      tag_198\n      jumpi\n      tag_199\n      tag_153\n      jump\t// in\n    tag_199:\n    tag_198:\n      swap1\n      0x00\n      mstore\n      keccak256(0x00, 0x20)\n      add\n      sload\n        /* \"contracts/Bookstore.sol\":1897:1917  bookIds[j] == bookId */\n      sub\n        /* \"contracts/Bookstore.sol\":1893:2066  if (bookIds[j] == bookId) {... */\n      tag_201\n      jumpi\n        /* \"contracts/Bookstore.sol\":1955:1962  bookIds */\n      0x03\n        /* \"contracts/Bookstore.sol\":1980:1981  1 */\n      0x01\n        /* \"contracts/Bookstore.sol\":1963:1970  bookIds */\n      0x03\n        /* \"contracts/Bookstore.sol\":1963:1977  bookIds.length */\n      dup1\n      sload\n      swap1\n      pop\n        /* \"contracts/Bookstore.sol\":1963:1981  bookIds.length - 1 */\n      tag_202\n      swap2\n      swap1\n      tag_96\n      jump\t// in\n    tag_202:\n        /* \"contracts/Bookstore.sol\":1955:1982  bookIds[bookIds.length - 1] */\n      dup2\n      sload\n      dup2\n      lt\n      tag_203\n      jumpi\n      tag_204\n      tag_153\n      jump\t// in\n    tag_204:\n    tag_203:\n      swap1\n      0x00\n      mstore\n      keccak256(0x00, 0x20)\n      add\n      sload\n        /* \"contracts/Bookstore.sol\":1942:1949  bookIds */\n      0x03\n        /* \"contracts/Bookstore.sol\":1950:1951  j */\n      dup3\n        /* \"contracts/Bookstore.sol\":1942:1952  bookIds[j] */\n      dup2\n      sload\n      dup2\n      lt\n      tag_206\n      jumpi\n      tag_207\n      tag_153\n      jump\t// in\n    tag_207:\n    tag_206:\n      swap1\n      0x00\n      mstore\n      keccak256(0x00, 0x20)\n      add\n        /* \"contracts/Bookstore.sol\":1942:1982  bookIds[j] = bookIds[bookIds.length - 1] */\n      dup2\n      swap1\n      sstore\n      pop\n        /* \"contracts/Bookstore.sol\":2005:2012  bookIds */\n      0x03\n        /* \"contracts/Bookstore.sol\":2005:2018  bookIds.pop() */\n      dup1\n      sload\n      dup1\n      tag_209\n      jumpi\n      tag_210\n      tag_165\n      jump\t// in\n    tag_210:\n    tag_209:\n      0x01\n      swap1\n      sub\n      dup2\n      dup2\n      swap1\n      0x00\n      mstore\n      keccak256(0x00, 0x20)\n      add\n      0x00\n      swap1\n      sstore\n      swap1\n      sstore\n        /* \"contracts/Bookstore.sol\":2041:2046  break */\n      jump(tag_196)\n        /* \"contracts/Bookstore.sol\":1893:2066  if (bookIds[j] == bookId) {... */\n    tag_201:\n        /* \"contracts/Bookstore.sol\":1869:1872  j++ */\n      dup1\n      dup1\n      0x01\n      add\n      swap2\n      pop\n      pop\n        /* \"contracts/Bookstore.sol\":1829:2081  for (uint256 j = 0; j < bookIds.length; j++) {... */\n      jump(tag_195)\n    tag_196:\n      pop\n        /* \"contracts/Bookstore.sol\":1609:2092  {... */\n      pop\n        /* \"contracts/Bookstore.sol\":1604:1607  i++ */\n      dup1\n      dup1\n      0x01\n      add\n      swap2\n      pop\n      pop\n        /* \"contracts/Bookstore.sol\":1563:2092  for (uint256 i = 0; i < _bookIds.length; i++) {... */\n      jump(tag_186)\n    tag_187:\n      pop\n        /* \"contracts/Bookstore.sol\":2107:2133  BookBatchRemoved(_bookIds) */\n      0x7262be1e48c30c363173fcb2fbf2dc2cb38d076dee42cc37cdfbdf62af5c3bed\n        /* \"contracts/Bookstore.sol\":2124:2132  _bookIds */\n      dup2\n        /* \"contracts/Bookstore.sol\":2107:2133  BookBatchRemoved(_bookIds) */\n      mload(0x40)\n      tag_212\n      swap2\n      swap1\n      tag_21\n      jump\t// in\n    tag_212:\n      mload(0x40)\n      dup1\n      swap2\n      sub\n      swap1\n      log1\n        /* \"contracts/Bookstore.sol\":1487:2141  function removeBooks(uint256[] memory _bookIds) public onlyOwner {... */\n      pop\n      jump\t// out\n        /* \"@openzeppelin/contracts/access/Ownable.sol\":1796:1958  function _checkOwner() internal view virtual {... */\n    tag_133:\n        /* \"@openzeppelin/contracts/access/Ownable.sol\":1866:1878  _msgSender() */\n      tag_214\n        /* \"@openzeppelin/contracts/access/Ownable.sol\":1866:1876  _msgSender */\n      tag_215\n        /* \"@openzeppelin/contracts/access/Ownable.sol\":1866:1878  _msgSender() */\n      jump\t// in\n    tag_214:\n        /* \"@openzeppelin/contracts/access/Ownable.sol\":1855:1878  owner() != _msgSender() */\n      0xffffffffffffffffffffffffffffffffffffffff\n      and\n        /* \"@openzeppelin/contracts/access/Ownable.sol\":1855:1862  owner() */\n      tag_216\n        /* \"@openzeppelin/contracts/access/Ownable.sol\":1855:1860  owner */\n      tag_54\n        /* \"@openzeppelin/contracts/access/Ownable.sol\":1855:1862  owner() */\n      jump\t// in\n    tag_216:\n        /* \"@openzeppelin/contracts/access/Ownable.sol\":1855:1878  owner() != _msgSender() */\n      0xffffffffffffffffffffffffffffffffffffffff\n      and\n      eq\n        /* \"@openzeppelin/contracts/access/Ownable.sol\":1851:1952  if (owner() != _msgSender()) {... */\n      tag_217\n      jumpi\n        /* \"@openzeppelin/contracts/access/Ownable.sol\":1928:1940  _msgSender() */\n      tag_218\n        /* \"@openzeppelin/contracts/access/Ownable.sol\":1928:1938  _msgSender */\n      tag_215\n        /* \"@openzeppelin/contracts/access/Ownable.sol\":1928:1940  _msgSender() */\n      jump\t// in\n    tag_218:\n        /* \"@openzeppelin/contracts/access/Ownable.sol\":1901:1941  OwnableUnauthorizedAccount(_msgSender()) */\n      mload(0x40)\n      0x118cdaa700000000000000000000000000000000000000000000000000000000\n      dup2\n      mstore\n      0x04\n      add\n      tag_219\n      swap2\n      swap1\n      tag_56\n      jump\t// in\n    tag_219:\n      mload(0x40)\n      dup1\n      swap2\n      sub\n      swap1\n      revert\n        /* \"@openzeppelin/contracts/access/Ownable.sol\":1851:1952  if (owner() != _msgSender()) {... */\n    tag_217:\n        /* \"@openzeppelin/contracts/access/Ownable.sol\":1796:1958  function _checkOwner() internal view virtual {... */\n      jump\t// out\n        /* \"@openzeppelin/contracts/access/Ownable.sol\":2912:3099  function _transferOwnership(address newOwner) internal virtual {... */\n    tag_136:\n        /* \"@openzeppelin/contracts/access/Ownable.sol\":2985:3001  address oldOwner */\n      0x00\n        /* \"@openzeppelin/contracts/access/Ownable.sol\":3004:3010  _owner */\n      dup1\n      0x00\n      swap1\n      sload\n      swap1\n      0x0100\n      exp\n      swap1\n      div\n      0xffffffffffffffffffffffffffffffffffffffff\n      and\n        /* \"@openzeppelin/contracts/access/Ownable.sol\":2985:3010  address oldOwner = _owner */\n      swap1\n      pop\n        /* \"@openzeppelin/contracts/access/Ownable.sol\":3029:3037  newOwner */\n      dup2\n        /* \"@openzeppelin/contracts/access/Ownable.sol\":3020:3026  _owner */\n      0x00\n      dup1\n        /* \"@openzeppelin/contracts/access/Ownable.sol\":3020:3037  _owner = newOwner */\n      0x0100\n      exp\n      dup2\n      sload\n      dup2\n      0xffffffffffffffffffffffffffffffffffffffff\n      mul\n      not\n      and\n      swap1\n      dup4\n      0xffffffffffffffffffffffffffffffffffffffff\n      and\n      mul\n      or\n      swap1\n      sstore\n      pop\n        /* \"@openzeppelin/contracts/access/Ownable.sol\":3083:3091  newOwner */\n      dup2\n        /* \"@openzeppelin/contracts/access/Ownable.sol\":3052:3092  OwnershipTransferred(oldOwner, newOwner) */\n      0xffffffffffffffffffffffffffffffffffffffff\n      and\n        /* \"@openzeppelin/contracts/access/Ownable.sol\":3073:3081  oldOwner */\n      dup2\n        /* \"@openzeppelin/contracts/access/Ownable.sol\":3052:3092  OwnershipTransferred(oldOwner, newOwner) */\n      0xffffffffffffffffffffffffffffffffffffffff\n      and\n      0x8be0079c531659141344cd1fd0a4f28419497f9722a3daafe3b4186f6b6457e0\n      mload(0x40)\n      mload(0x40)\n      dup1\n      swap2\n      sub\n      swap1\n      log3\n        /* \"@openzeppelin/contracts/access/Ownable.sol\":2975:3099  {... */\n      pop\n        /* \"@openzeppelin/contracts/access/Ownable.sol\":2912:3099  function _transferOwnership(address newOwner) internal virtual {... */\n      pop\n      jump\t// out\n        /* \"@openzeppelin/contracts/utils/Context.sol\":656:752  function _msgSender() internal view virtual returns (address) {... */\n    tag_215:\n        /* \"@openzeppelin/contracts/utils/Context.sol\":709:716  address */\n      0x00\n        /* \"@openzeppelin/contracts/utils/Context.sol\":735:745  msg.sender */\n      caller\n        /* \"@openzeppelin/contracts/utils/Context.sol\":728:745  return msg.sender */\n      swap1\n      pop\n        /* \"@openzeppelin/contracts/utils/Context.sol\":656:752  function _msgSender() internal view virtual returns (address) {... */\n      swap1\n      jump\t// out\n    tag_146:\n      pop\n      dup1\n      sload\n      tag_222\n      swap1\n      tag_111\n      jump\t// in\n    tag_222:\n      0x00\n      dup3\n      sstore\n      dup1\n      0x1f\n      lt\n      tag_224\n      jumpi\n      pop\n      jump(tag_223)\n    tag_224:\n      0x1f\n      add\n      0x20\n      swap1\n      div\n      swap1\n      0x00\n      mstore\n      keccak256(0x00, 0x20)\n      swap1\n      dup2\n      add\n      swap1\n      tag_225\n      swap2\n      swap1\n      tag_226\n      jump\t// in\n    tag_225:\n    tag_223:\n      pop\n      jump\t// out\n    tag_226:\n    tag_227:\n      dup1\n      dup3\n      gt\n      iszero\n      tag_228\n      jumpi\n      0x00\n      dup2\n      0x00\n      swap1\n      sstore\n      pop\n      0x01\n      add\n      jump(tag_227)\n    tag_228:\n      pop\n      swap1\n      jump\t// out\n        /* \"#utility.yul\":7:121   */\n    tag_229:\n        /* \"#utility.yul\":74:80   */\n      0x00\n        /* \"#utility.yul\":108:113   */\n      dup2\n        /* \"#utility.yul\":102:114   */\n      mload\n        /* \"#utility.yul\":92:114   */\n      swap1\n      pop\n        /* \"#utility.yul\":7:121   */\n      swap2\n      swap1\n      pop\n      jump\t// out\n        /* \"#utility.yul\":127:311   */\n    tag_230:\n        /* \"#utility.yul\":226:237   */\n      0x00\n        /* \"#utility.yul\":260:266   */\n      dup3\n        /* \"#utility.yul\":255:258   */\n      dup3\n        /* \"#utility.yul\":248:267   */\n      mstore\n        /* \"#utility.yul\":300:304   */\n      0x20\n        /* \"#utility.yul\":295:298   */\n      dup3\n        /* \"#utility.yul\":291:305   */\n      add\n        /* \"#utility.yul\":276:305   */\n      swap1\n      pop\n        /* \"#utility.yul\":127:311   */\n      swap3\n      swap2\n      pop\n      pop\n      jump\t// out\n        /* \"#utility.yul\":317:449   */\n    tag_231:\n        /* \"#utility.yul\":384:388   */\n      0x00\n        /* \"#utility.yul\":407:410   */\n      dup2\n        /* \"#utility.yul\":399:410   */\n      swap1\n      pop\n        /* \"#utility.yul\":437:441   */\n      0x20\n        /* \"#utility.yul\":432:435   */\n      dup3\n        /* \"#utility.yul\":428:442   */\n      add\n        /* \"#utility.yul\":420:442   */\n      swap1\n      pop\n        /* \"#utility.yul\":317:449   */\n      swap2\n      swap1\n      pop\n      jump\t// out\n        /* \"#utility.yul\":455:532   */\n    tag_232:\n        /* \"#utility.yul\":492:499   */\n      0x00\n        /* \"#utility.yul\":521:526   */\n      dup2\n        /* \"#utility.yul\":510:526   */\n      swap1\n      pop\n        /* \"#utility.yul\":455:532   */\n      swap2\n      swap1\n      pop\n      jump\t// out\n        /* \"#utility.yul\":538:646   */\n    tag_233:\n        /* \"#utility.yul\":615:639   */\n      tag_301\n        /* \"#utility.yul\":633:638   */\n      dup2\n        /* \"#utility.yul\":615:639   */\n      tag_232\n      jump\t// in\n    tag_301:\n        /* \"#utility.yul\":610:613   */\n      dup3\n        /* \"#utility.yul\":603:640   */\n      mstore\n        /* \"#utility.yul\":538:646   */\n      pop\n      pop\n      jump\t// out\n        /* \"#utility.yul\":652:831   */\n    tag_234:\n        /* \"#utility.yul\":721:731   */\n      0x00\n        /* \"#utility.yul\":742:788   */\n      tag_303\n        /* \"#utility.yul\":784:787   */\n      dup4\n        /* \"#utility.yul\":776:782   */\n      dup4\n        /* \"#utility.yul\":742:788   */\n      tag_233\n      jump\t// in\n    tag_303:\n        /* \"#utility.yul\":820:824   */\n      0x20\n        /* \"#utility.yul\":815:818   */\n      dup4\n        /* \"#utility.yul\":811:825   */\n      add\n        /* \"#utility.yul\":797:825   */\n      swap1\n      pop\n        /* \"#utility.yul\":652:831   */\n      swap3\n      swap2\n      pop\n      pop\n      jump\t// out\n        /* \"#utility.yul\":837:950   */\n    tag_235:\n        /* \"#utility.yul\":907:911   */\n      0x00\n        /* \"#utility.yul\":939:943   */\n      0x20\n        /* \"#utility.yul\":934:937   */\n      dup3\n        /* \"#utility.yul\":930:944   */\n      add\n        /* \"#utility.yul\":922:944   */\n      swap1\n      pop\n        /* \"#utility.yul\":837:950   */\n      swap2\n      swap1\n      pop\n      jump\t// out\n        /* \"#utility.yul\":986:1718   */\n    tag_236:\n        /* \"#utility.yul\":1105:1108   */\n      0x00\n        /* \"#utility.yul\":1134:1188   */\n      tag_306\n        /* \"#utility.yul\":1182:1187   */\n      dup3\n        /* \"#utility.yul\":1134:1188   */\n      tag_229\n      jump\t// in\n    tag_306:\n        /* \"#utility.yul\":1204:1290   */\n      tag_307\n        /* \"#utility.yul\":1283:1289   */\n      dup2\n        /* \"#utility.yul\":1278:1281   */\n      dup6\n        /* \"#utility.yul\":1204:1290   */\n      tag_230\n      jump\t// in\n    tag_307:\n        /* \"#utility.yul\":1197:1290   */\n      swap4\n      pop\n        /* \"#utility.yul\":1314:1370   */\n      tag_308\n        /* \"#utility.yul\":1364:1369   */\n      dup4\n        /* \"#utility.yul\":1314:1370   */\n      tag_231\n      jump\t// in\n    tag_308:\n        /* \"#utility.yul\":1393:1400   */\n      dup1\n        /* \"#utility.yul\":1424:1425   */\n      0x00\n        /* \"#utility.yul\":1409:1693   */\n    tag_309:\n        /* \"#utility.yul\":1434:1440   */\n      dup4\n        /* \"#utility.yul\":1431:1432   */\n      dup2\n        /* \"#utility.yul\":1428:1441   */\n      lt\n        /* \"#utility.yul\":1409:1693   */\n      iszero\n      tag_311\n      jumpi\n        /* \"#utility.yul\":1510:1516   */\n      dup2\n        /* \"#utility.yul\":1504:1517   */\n      mload\n        /* \"#utility.yul\":1537:1600   */\n      tag_312\n        /* \"#utility.yul\":1596:1599   */\n      dup9\n        /* \"#utility.yul\":1581:1594   */\n      dup3\n        /* \"#utility.yul\":1537:1600   */\n      tag_234\n      jump\t// in\n    tag_312:\n        /* \"#utility.yul\":1530:1600   */\n      swap8\n      pop\n        /* \"#utility.yul\":1623:1683   */\n      tag_313\n        /* \"#utility.yul\":1676:1682   */\n      dup4\n        /* \"#utility.yul\":1623:1683   */\n      tag_235\n      jump\t// in\n    tag_313:\n        /* \"#utility.yul\":1613:1683   */\n      swap3\n      pop\n        /* \"#utility.yul\":1469:1693   */\n      pop\n        /* \"#utility.yul\":1456:1457   */\n      0x01\n        /* \"#utility.yul\":1453:1454   */\n      dup2\n        /* \"#utility.yul\":1449:1458   */\n      add\n        /* \"#utility.yul\":1444:1458   */\n      swap1\n      pop\n        /* \"#utility.yul\":1409:1693   */\n      jump(tag_309)\n    tag_311:\n        /* \"#utility.yul\":1413:1427   */\n      pop\n        /* \"#utility.yul\":1709:1712   */\n      dup6\n        /* \"#utility.yul\":1702:1712   */\n      swap4\n      pop\n        /* \"#utility.yul\":1110:1718   */\n      pop\n      pop\n      pop\n        /* \"#utility.yul\":986:1718   */\n      swap3\n      swap2\n      pop\n      pop\n      jump\t// out\n        /* \"#utility.yul\":1724:2097   */\n    tag_21:\n        /* \"#utility.yul\":1867:1871   */\n      0x00\n        /* \"#utility.yul\":1905:1907   */\n      0x20\n        /* \"#utility.yul\":1894:1903   */\n      dup3\n        /* \"#utility.yul\":1890:1908   */\n      add\n        /* \"#utility.yul\":1882:1908   */\n      swap1\n      pop\n        /* \"#utility.yul\":1954:1963   */\n      dup2\n        /* \"#utility.yul\":1948:1952   */\n      dup2\n        /* \"#utility.yul\":1944:1964   */\n      sub\n        /* \"#utility.yul\":1940:1941   */\n      0x00\n        /* \"#utility.yul\":1929:1938   */\n      dup4\n        /* \"#utility.yul\":1925:1942   */\n      add\n        /* \"#utility.yul\":1918:1965   */\n      mstore\n        /* \"#utility.yul\":1982:2090   */\n      tag_315\n        /* \"#utility.yul\":2085:2089   */\n      dup2\n        /* \"#utility.yul\":2076:2082   */\n      dup5\n        /* \"#utility.yul\":1982:2090   */\n      tag_236\n      jump\t// in\n    tag_315:\n        /* \"#utility.yul\":1974:2090   */\n      swap1\n      pop\n        /* \"#utility.yul\":1724:2097   */\n      swap3\n      swap2\n      pop\n      pop\n      jump\t// out\n        /* \"#utility.yul\":2103:2178   */\n    tag_237:\n        /* \"#utility.yul\":2136:2142   */\n      0x00\n        /* \"#utility.yul\":2169:2171   */\n      0x40\n        /* \"#utility.yul\":2163:2172   */\n      mload\n        /* \"#utility.yul\":2153:2172   */\n      swap1\n      pop\n        /* \"#utility.yul\":2103:2178   */\n      swap1\n      jump\t// out\n        /* \"#utility.yul\":2184:2301   */\n    tag_238:\n        /* \"#utility.yul\":2293:2294   */\n      0x00\n        /* \"#utility.yul\":2290:2291   */\n      dup1\n        /* \"#utility.yul\":2283:2295   */\n      revert\n        /* \"#utility.yul\":2307:2424   */\n    tag_239:\n        /* \"#utility.yul\":2416:2417   */\n      0x00\n        /* \"#utility.yul\":2413:2414   */\n      dup1\n        /* \"#utility.yul\":2406:2418   */\n      revert\n        /* \"#utility.yul\":2430:2552   */\n    tag_240:\n        /* \"#utility.yul\":2503:2527   */\n      tag_320\n        /* \"#utility.yul\":2521:2526   */\n      dup2\n        /* \"#utility.yul\":2503:2527   */\n      tag_232\n      jump\t// in\n    tag_320:\n        /* \"#utility.yul\":2496:2501   */\n      dup2\n        /* \"#utility.yul\":2493:2528   */\n      eq\n        /* \"#utility.yul\":2483:2546   */\n      tag_321\n      jumpi\n        /* \"#utility.yul\":2542:2543   */\n      0x00\n        /* \"#utility.yul\":2539:2540   */\n      dup1\n        /* \"#utility.yul\":2532:2544   */\n      revert\n        /* \"#utility.yul\":2483:2546   */\n    tag_321:\n        /* \"#utility.yul\":2430:2552   */\n      pop\n      jump\t// out\n        /* \"#utility.yul\":2558:2697   */\n    tag_241:\n        /* \"#utility.yul\":2604:2609   */\n      0x00\n        /* \"#utility.yul\":2642:2648   */\n      dup2\n        /* \"#utility.yul\":2629:2649   */\n      calldataload\n        /* \"#utility.yul\":2620:2649   */\n      swap1\n      pop\n        /* \"#utility.yul\":2658:2691   */\n      tag_323\n        /* \"#utility.yul\":2685:2690   */\n      dup2\n        /* \"#utility.yul\":2658:2691   */\n      tag_240\n      jump\t// in\n    tag_323:\n        /* \"#utility.yul\":2558:2697   */\n      swap3\n      swap2\n      pop\n      pop\n      jump\t// out\n        /* \"#utility.yul\":2703:3177   */\n    tag_24:\n        /* \"#utility.yul\":2771:2777   */\n      0x00\n        /* \"#utility.yul\":2779:2785   */\n      dup1\n        /* \"#utility.yul\":2828:2830   */\n      0x40\n        /* \"#utility.yul\":2816:2825   */\n      dup4\n        /* \"#utility.yul\":2807:2814   */\n      dup6\n        /* \"#utility.yul\":2803:2826   */\n      sub\n        /* \"#utility.yul\":2799:2831   */\n      slt\n        /* \"#utility.yul\":2796:2915   */\n      iszero\n      tag_325\n      jumpi\n        /* \"#utility.yul\":2834:2913   */\n      tag_326\n      tag_238\n      jump\t// in\n    tag_326:\n        /* \"#utility.yul\":2796:2915   */\n    tag_325:\n        /* \"#utility.yul\":2954:2955   */\n      0x00\n        /* \"#utility.yul\":2979:3032   */\n      tag_327\n        /* \"#utility.yul\":3024:3031   */\n      dup6\n        /* \"#utility.yul\":3015:3021   */\n      dup3\n        /* \"#utility.yul\":3004:3013   */\n      dup7\n        /* \"#utility.yul\":3000:3022   */\n      add\n        /* \"#utility.yul\":2979:3032   */\n      tag_241\n      jump\t// in\n    tag_327:\n        /* \"#utility.yul\":2969:3032   */\n      swap3\n      pop\n        /* \"#utility.yul\":2925:3042   */\n      pop\n        /* \"#utility.yul\":3081:3083   */\n      0x20\n        /* \"#utility.yul\":3107:3160   */\n      tag_328\n        /* \"#utility.yul\":3152:3159   */\n      dup6\n        /* \"#utility.yul\":3143:3149   */\n      dup3\n        /* \"#utility.yul\":3132:3141   */\n      dup7\n        /* \"#utility.yul\":3128:3150   */\n      add\n        /* \"#utility.yul\":3107:3160   */\n      tag_241\n      jump\t// in\n    tag_328:\n        /* \"#utility.yul\":3097:3160   */\n      swap2\n      pop\n        /* \"#utility.yul\":3052:3170   */\n      pop\n        /* \"#utility.yul\":2703:3177   */\n      swap3\n      pop\n      swap3\n      swap1\n      pop\n      jump\t// out\n        /* \"#utility.yul\":3183:3512   */\n    tag_29:\n        /* \"#utility.yul\":3242:3248   */\n      0x00\n        /* \"#utility.yul\":3291:3293   */\n      0x20\n        /* \"#utility.yul\":3279:3288   */\n      dup3\n        /* \"#utility.yul\":3270:3277   */\n      dup5\n        /* \"#utility.yul\":3266:3289   */\n      sub\n        /* \"#utility.yul\":3262:3294   */\n      slt\n        /* \"#utility.yul\":3259:3378   */\n      iszero\n      tag_330\n      jumpi\n        /* \"#utility.yul\":3297:3376   */\n      tag_331\n      tag_238\n      jump\t// in\n    tag_331:\n        /* \"#utility.yul\":3259:3378   */\n    tag_330:\n        /* \"#utility.yul\":3417:3418   */\n      0x00\n        /* \"#utility.yul\":3442:3495   */\n      tag_332\n        /* \"#utility.yul\":3487:3494   */\n      dup5\n        /* \"#utility.yul\":3478:3484   */\n      dup3\n        /* \"#utility.yul\":3467:3476   */\n      dup6\n        /* \"#utility.yul\":3463:3485   */\n      add\n        /* \"#utility.yul\":3442:3495   */\n      tag_241\n      jump\t// in\n    tag_332:\n        /* \"#utility.yul\":3432:3495   */\n      swap2\n      pop\n        /* \"#utility.yul\":3388:3505   */\n      pop\n        /* \"#utility.yul\":3183:3512   */\n      swap3\n      swap2\n      pop\n      pop\n      jump\t// out\n        /* \"#utility.yul\":3518:3636   */\n    tag_242:\n        /* \"#utility.yul\":3605:3629   */\n      tag_334\n        /* \"#utility.yul\":3623:3628   */\n      dup2\n        /* \"#utility.yul\":3605:3629   */\n      tag_232\n      jump\t// in\n    tag_334:\n        /* \"#utility.yul\":3600:3603   */\n      dup3\n        /* \"#utility.yul\":3593:3630   */\n      mstore\n        /* \"#utility.yul\":3518:3636   */\n      pop\n      pop\n      jump\t// out\n        /* \"#utility.yul\":3642:3864   */\n    tag_32:\n        /* \"#utility.yul\":3735:3739   */\n      0x00\n        /* \"#utility.yul\":3773:3775   */\n      0x20\n        /* \"#utility.yul\":3762:3771   */\n      dup3\n        /* \"#utility.yul\":3758:3776   */\n      add\n        /* \"#utility.yul\":3750:3776   */\n      swap1\n      pop\n        /* \"#utility.yul\":3786:3857   */\n      tag_336\n        /* \"#utility.yul\":3854:3855   */\n      0x00\n        /* \"#utility.yul\":3843:3852   */\n      dup4\n        /* \"#utility.yul\":3839:3856   */\n      add\n        /* \"#utility.yul\":3830:3836   */\n      dup5\n        /* \"#utility.yul\":3786:3857   */\n      tag_242\n      jump\t// in\n    tag_336:\n        /* \"#utility.yul\":3642:3864   */\n      swap3\n      swap2\n      pop\n      pop\n      jump\t// out\n        /* \"#utility.yul\":3870:3969   */\n    tag_243:\n        /* \"#utility.yul\":3922:3928   */\n      0x00\n        /* \"#utility.yul\":3956:3961   */\n      dup2\n        /* \"#utility.yul\":3950:3962   */\n      mload\n        /* \"#utility.yul\":3940:3962   */\n      swap1\n      pop\n        /* \"#utility.yul\":3870:3969   */\n      swap2\n      swap1\n      pop\n      jump\t// out\n        /* \"#utility.yul\":3975:4144   */\n    tag_244:\n        /* \"#utility.yul\":4059:4070   */\n      0x00\n        /* \"#utility.yul\":4093:4099   */\n      dup3\n        /* \"#utility.yul\":4088:4091   */\n      dup3\n        /* \"#utility.yul\":4081:4100   */\n      mstore\n        /* \"#utility.yul\":4133:4137   */\n      0x20\n        /* \"#utility.yul\":4128:4131   */\n      dup3\n        /* \"#utility.yul\":4124:4138   */\n      add\n        /* \"#utility.yul\":4109:4138   */\n      swap1\n      pop\n        /* \"#utility.yul\":3975:4144   */\n      swap3\n      swap2\n      pop\n      pop\n      jump\t// out\n        /* \"#utility.yul\":4150:4289   */\n    tag_245:\n        /* \"#utility.yul\":4239:4245   */\n      dup3\n        /* \"#utility.yul\":4234:4237   */\n      dup2\n        /* \"#utility.yul\":4229:4232   */\n      dup4\n        /* \"#utility.yul\":4223:4246   */\n      mcopy\n        /* \"#utility.yul\":4280:4281   */\n      0x00\n        /* \"#utility.yul\":4271:4277   */\n      dup4\n        /* \"#utility.yul\":4266:4269   */\n      dup4\n        /* \"#utility.yul\":4262:4278   */\n      add\n        /* \"#utility.yul\":4255:4282   */\n      mstore\n        /* \"#utility.yul\":4150:4289   */\n      pop\n      pop\n      pop\n      jump\t// out\n        /* \"#utility.yul\":4295:4397   */\n    tag_246:\n        /* \"#utility.yul\":4336:4342   */\n      0x00\n        /* \"#utility.yul\":4387:4389   */\n      0x1f\n        /* \"#utility.yul\":4383:4390   */\n      not\n        /* \"#utility.yul\":4378:4380   */\n      0x1f\n        /* \"#utility.yul\":4371:4376   */\n      dup4\n        /* \"#utility.yul\":4367:4381   */\n      add\n        /* \"#utility.yul\":4363:4391   */\n      and\n        /* \"#utility.yul\":4353:4391   */\n      swap1\n      pop\n        /* \"#utility.yul\":4295:4397   */\n      swap2\n      swap1\n      pop\n      jump\t// out\n        /* \"#utility.yul\":4403:4780   */\n    tag_247:\n        /* \"#utility.yul\":4491:4494   */\n      0x00\n        /* \"#utility.yul\":4519:4558   */\n      tag_342\n        /* \"#utility.yul\":4552:4557   */\n      dup3\n        /* \"#utility.yul\":4519:4558   */\n      tag_243\n      jump\t// in\n    tag_342:\n        /* \"#utility.yul\":4574:4645   */\n      tag_343\n        /* \"#utility.yul\":4638:4644   */\n      dup2\n        /* \"#utility.yul\":4633:4636   */\n      dup6\n        /* \"#utility.yul\":4574:4645   */\n      tag_244\n      jump\t// in\n    tag_343:\n        /* \"#utility.yul\":4567:4645   */\n      swap4\n      pop\n        /* \"#utility.yul\":4654:4719   */\n      tag_344\n        /* \"#utility.yul\":4712:4718   */\n      dup2\n        /* \"#utility.yul\":4707:4710   */\n      dup6\n        /* \"#utility.yul\":4700:4704   */\n      0x20\n        /* \"#utility.yul\":4693:4698   */\n      dup7\n        /* \"#utility.yul\":4689:4705   */\n      add\n        /* \"#utility.yul\":4654:4719   */\n      tag_245\n      jump\t// in\n    tag_344:\n        /* \"#utility.yul\":4744:4773   */\n      tag_345\n        /* \"#utility.yul\":4766:4772   */\n      dup2\n        /* \"#utility.yul\":4744:4773   */\n      tag_246\n      jump\t// in\n    tag_345:\n        /* \"#utility.yul\":4739:4742   */\n      dup5\n        /* \"#utility.yul\":4735:4774   */\n      add\n        /* \"#utility.yul\":4728:4774   */\n      swap2\n      pop\n        /* \"#utility.yul\":4495:4780   */\n      pop\n        /* \"#utility.yul\":4403:4780   */\n      swap3\n      swap2\n      pop\n      pop\n      jump\t// out\n        /* \"#utility.yul\":4786:4876   */\n    tag_248:\n        /* \"#utility.yul\":4820:4827   */\n      0x00\n        /* \"#utility.yul\":4863:4868   */\n      dup2\n        /* \"#utility.yul\":4856:4869   */\n      iszero\n        /* \"#utility.yul\":4849:4870   */\n      iszero\n        /* \"#utility.yul\":4838:4870   */\n      swap1\n      pop\n        /* \"#utility.yul\":4786:4876   */\n      swap2\n      swap1\n      pop\n      jump\t// out\n        /* \"#utility.yul\":4882:4991   */\n    tag_249:\n        /* \"#utility.yul\":4963:4984   */\n      tag_348\n        /* \"#utility.yul\":4978:4983   */\n      dup2\n        /* \"#utility.yul\":4963:4984   */\n      tag_248\n      jump\t// in\n    tag_348:\n        /* \"#utility.yul\":4958:4961   */\n      dup3\n        /* \"#utility.yul\":4951:4985   */\n      mstore\n        /* \"#utility.yul\":4882:4991   */\n      pop\n      pop\n      jump\t// out\n        /* \"#utility.yul\":4997:5831   */\n    tag_42:\n        /* \"#utility.yul\":5236:5240   */\n      0x00\n        /* \"#utility.yul\":5274:5277   */\n      0xa0\n        /* \"#utility.yul\":5263:5272   */\n      dup3\n        /* \"#utility.yul\":5259:5278   */\n      add\n        /* \"#utility.yul\":5251:5278   */\n      swap1\n      pop\n        /* \"#utility.yul\":5324:5333   */\n      dup2\n        /* \"#utility.yul\":5318:5322   */\n      dup2\n        /* \"#utility.yul\":5314:5334   */\n      sub\n        /* \"#utility.yul\":5310:5311   */\n      0x00\n        /* \"#utility.yul\":5299:5308   */\n      dup4\n        /* \"#utility.yul\":5295:5312   */\n      add\n        /* \"#utility.yul\":5288:5335   */\n      mstore\n        /* \"#utility.yul\":5352:5430   */\n      tag_350\n        /* \"#utility.yul\":5425:5429   */\n      dup2\n        /* \"#utility.yul\":5416:5422   */\n      dup9\n        /* \"#utility.yul\":5352:5430   */\n      tag_247\n      jump\t// in\n    tag_350:\n        /* \"#utility.yul\":5344:5430   */\n      swap1\n      pop\n        /* \"#utility.yul\":5477:5486   */\n      dup2\n        /* \"#utility.yul\":5471:5475   */\n      dup2\n        /* \"#utility.yul\":5467:5487   */\n      sub\n        /* \"#utility.yul\":5462:5464   */\n      0x20\n        /* \"#utility.yul\":5451:5460   */\n      dup4\n        /* \"#utility.yul\":5447:5465   */\n      add\n        /* \"#utility.yul\":5440:5488   */\n      mstore\n        /* \"#utility.yul\":5505:5583   */\n      tag_351\n        /* \"#utility.yul\":5578:5582   */\n      dup2\n        /* \"#utility.yul\":5569:5575   */\n      dup8\n        /* \"#utility.yul\":5505:5583   */\n      tag_247\n      jump\t// in\n    tag_351:\n        /* \"#utility.yul\":5497:5583   */\n      swap1\n      pop\n        /* \"#utility.yul\":5593:5665   */\n      tag_352\n        /* \"#utility.yul\":5661:5663   */\n      0x40\n        /* \"#utility.yul\":5650:5659   */\n      dup4\n        /* \"#utility.yul\":5646:5664   */\n      add\n        /* \"#utility.yul\":5637:5643   */\n      dup7\n        /* \"#utility.yul\":5593:5665   */\n      tag_242\n      jump\t// in\n    tag_352:\n        /* \"#utility.yul\":5675:5747   */\n      tag_353\n        /* \"#utility.yul\":5743:5745   */\n      0x60\n        /* \"#utility.yul\":5732:5741   */\n      dup4\n        /* \"#utility.yul\":5728:5746   */\n      add\n        /* \"#utility.yul\":5719:5725   */\n      dup6\n        /* \"#utility.yul\":5675:5747   */\n      tag_242\n      jump\t// in\n    tag_353:\n        /* \"#utility.yul\":5757:5824   */\n      tag_354\n        /* \"#utility.yul\":5819:5822   */\n      0x80\n        /* \"#utility.yul\":5808:5817   */\n      dup4\n        /* \"#utility.yul\":5804:5823   */\n      add\n        /* \"#utility.yul\":5795:5801   */\n      dup5\n        /* \"#utility.yul\":5757:5824   */\n      tag_249\n      jump\t// in\n    tag_354:\n        /* \"#utility.yul\":4997:5831   */\n      swap7\n      swap6\n      pop\n      pop\n      pop\n      pop\n      pop\n      pop\n      jump\t// out\n        /* \"#utility.yul\":5837:6671   */\n    tag_48:\n        /* \"#utility.yul\":6076:6080   */\n      0x00\n        /* \"#utility.yul\":6114:6117   */\n      0xa0\n        /* \"#utility.yul\":6103:6112   */\n      dup3\n        /* \"#utility.yul\":6099:6118   */\n      add\n        /* \"#utility.yul\":6091:6118   */\n      swap1\n      pop\n        /* \"#utility.yul\":6128:6199   */\n      tag_356\n        /* \"#utility.yul\":6196:6197   */\n      0x00\n        /* \"#utility.yul\":6185:6194   */\n      dup4\n        /* \"#utility.yul\":6181:6198   */\n      add\n        /* \"#utility.yul\":6172:6178   */\n      dup9\n        /* \"#utility.yul\":6128:6199   */\n      tag_242\n      jump\t// in\n    tag_356:\n        /* \"#utility.yul\":6209:6281   */\n      tag_357\n        /* \"#utility.yul\":6277:6279   */\n      0x20\n        /* \"#utility.yul\":6266:6275   */\n      dup4\n        /* \"#utility.yul\":6262:6280   */\n      add\n        /* \"#utility.yul\":6253:6259   */\n      dup8\n        /* \"#utility.yul\":6209:6281   */\n      tag_242\n      jump\t// in\n    tag_357:\n        /* \"#utility.yul\":6291:6357   */\n      tag_358\n        /* \"#utility.yul\":6353:6355   */\n      0x40\n        /* \"#utility.yul\":6342:6351   */\n      dup4\n        /* \"#utility.yul\":6338:6356   */\n      add\n        /* \"#utility.yul\":6329:6335   */\n      dup7\n        /* \"#utility.yul\":6291:6357   */\n      tag_249\n      jump\t// in\n    tag_358:\n        /* \"#utility.yul\":6404:6413   */\n      dup2\n        /* \"#utility.yul\":6398:6402   */\n      dup2\n        /* \"#utility.yul\":6394:6414   */\n      sub\n        /* \"#utility.yul\":6389:6391   */\n      0x60\n        /* \"#utility.yul\":6378:6387   */\n      dup4\n        /* \"#utility.yul\":6374:6392   */\n      add\n        /* \"#utility.yul\":6367:6415   */\n      mstore\n        /* \"#utility.yul\":6432:6510   */\n      tag_359\n        /* \"#utility.yul\":6505:6509   */\n      dup2\n        /* \"#utility.yul\":6496:6502   */\n      dup6\n        /* \"#utility.yul\":6432:6510   */\n      tag_247\n      jump\t// in\n    tag_359:\n        /* \"#utility.yul\":6424:6510   */\n      swap1\n      pop\n        /* \"#utility.yul\":6558:6567   */\n      dup2\n        /* \"#utility.yul\":6552:6556   */\n      dup2\n        /* \"#utility.yul\":6548:6568   */\n      sub\n        /* \"#utility.yul\":6542:6545   */\n      0x80\n        /* \"#utility.yul\":6531:6540   */\n      dup4\n        /* \"#utility.yul\":6527:6546   */\n      add\n        /* \"#utility.yul\":6520:6569   */\n      mstore\n        /* \"#utility.yul\":6586:6664   */\n      tag_360\n        /* \"#utility.yul\":6659:6663   */\n      dup2\n        /* \"#utility.yul\":6650:6656   */\n      dup5\n        /* \"#utility.yul\":6586:6664   */\n      tag_247\n      jump\t// in\n    tag_360:\n        /* \"#utility.yul\":6578:6664   */\n      swap1\n      pop\n        /* \"#utility.yul\":5837:6671   */\n      swap7\n      swap6\n      pop\n      pop\n      pop\n      pop\n      pop\n      pop\n      jump\t// out\n        /* \"#utility.yul\":6677:6803   */\n    tag_250:\n        /* \"#utility.yul\":6714:6721   */\n      0x00\n        /* \"#utility.yul\":6754:6796   */\n      0xffffffffffffffffffffffffffffffffffffffff\n        /* \"#utility.yul\":6747:6752   */\n      dup3\n        /* \"#utility.yul\":6743:6797   */\n      and\n        /* \"#utility.yul\":6732:6797   */\n      swap1\n      pop\n        /* \"#utility.yul\":6677:6803   */\n      swap2\n      swap1\n      pop\n      jump\t// out\n        /* \"#utility.yul\":6809:6905   */\n    tag_251:\n        /* \"#utility.yul\":6846:6853   */\n      0x00\n        /* \"#utility.yul\":6875:6899   */\n      tag_363\n        /* \"#utility.yul\":6893:6898   */\n      dup3\n        /* \"#utility.yul\":6875:6899   */\n      tag_250\n      jump\t// in\n    tag_363:\n        /* \"#utility.yul\":6864:6899   */\n      swap1\n      pop\n        /* \"#utility.yul\":6809:6905   */\n      swap2\n      swap1\n      pop\n      jump\t// out\n        /* \"#utility.yul\":6911:7029   */\n    tag_252:\n        /* \"#utility.yul\":6998:7022   */\n      tag_365\n        /* \"#utility.yul\":7016:7021   */\n      dup2\n        /* \"#utility.yul\":6998:7022   */\n      tag_251\n      jump\t// in\n    tag_365:\n        /* \"#utility.yul\":6993:6996   */\n      dup3\n        /* \"#utility.yul\":6986:7023   */\n      mstore\n        /* \"#utility.yul\":6911:7029   */\n      pop\n      pop\n      jump\t// out\n        /* \"#utility.yul\":7035:7257   */\n    tag_56:\n        /* \"#utility.yul\":7128:7132   */\n      0x00\n        /* \"#utility.yul\":7166:7168   */\n      0x20\n        /* \"#utility.yul\":7155:7164   */\n      dup3\n        /* \"#utility.yul\":7151:7169   */\n      add\n        /* \"#utility.yul\":7143:7169   */\n      swap1\n      pop\n        /* \"#utility.yul\":7179:7250   */\n      tag_367\n        /* \"#utility.yul\":7247:7248   */\n      0x00\n        /* \"#utility.yul\":7236:7245   */\n      dup4\n        /* \"#utility.yul\":7232:7249   */\n      add\n        /* \"#utility.yul\":7223:7229   */\n      dup5\n        /* \"#utility.yul\":7179:7250   */\n      tag_252\n      jump\t// in\n    tag_367:\n        /* \"#utility.yul\":7035:7257   */\n      swap3\n      swap2\n      pop\n      pop\n      jump\t// out\n        /* \"#utility.yul\":7263:7385   */\n    tag_253:\n        /* \"#utility.yul\":7336:7360   */\n      tag_369\n        /* \"#utility.yul\":7354:7359   */\n      dup2\n        /* \"#utility.yul\":7336:7360   */\n      tag_251\n      jump\t// in\n    tag_369:\n        /* \"#utility.yul\":7329:7334   */\n      dup2\n        /* \"#utility.yul\":7326:7361   */\n      eq\n        /* \"#utility.yul\":7316:7379   */\n      tag_370\n      jumpi\n        /* \"#utility.yul\":7375:7376   */\n      0x00\n        /* \"#utility.yul\":7372:7373   */\n      dup1\n        /* \"#utility.yul\":7365:7377   */\n      revert\n        /* \"#utility.yul\":7316:7379   */\n    tag_370:\n        /* \"#utility.yul\":7263:7385   */\n      pop\n      jump\t// out\n        /* \"#utility.yul\":7391:7530   */\n    tag_254:\n        /* \"#utility.yul\":7437:7442   */\n      0x00\n        /* \"#utility.yul\":7475:7481   */\n      dup2\n        /* \"#utility.yul\":7462:7482   */\n      calldataload\n        /* \"#utility.yul\":7453:7482   */\n      swap1\n      pop\n        /* \"#utility.yul\":7491:7524   */\n      tag_372\n        /* \"#utility.yul\":7518:7523   */\n      dup2\n        /* \"#utility.yul\":7491:7524   */\n      tag_253\n      jump\t// in\n    tag_372:\n        /* \"#utility.yul\":7391:7530   */\n      swap3\n      swap2\n      pop\n      pop\n      jump\t// out\n        /* \"#utility.yul\":7536:7865   */\n    tag_68:\n        /* \"#utility.yul\":7595:7601   */\n      0x00\n        /* \"#utility.yul\":7644:7646   */\n      0x20\n        /* \"#utility.yul\":7632:7641   */\n      dup3\n        /* \"#utility.yul\":7623:7630   */\n      dup5\n        /* \"#utility.yul\":7619:7642   */\n      sub\n        /* \"#utility.yul\":7615:7647   */\n      slt\n        /* \"#utility.yul\":7612:7731   */\n      iszero\n      tag_374\n      jumpi\n        /* \"#utility.yul\":7650:7729   */\n      tag_375\n      tag_238\n      jump\t// in\n    tag_375:\n        /* \"#utility.yul\":7612:7731   */\n    tag_374:\n        /* \"#utility.yul\":7770:7771   */\n      0x00\n        /* \"#utility.yul\":7795:7848   */\n      tag_376\n        /* \"#utility.yul\":7840:7847   */\n      dup5\n        /* \"#utility.yul\":7831:7837   */\n      dup3\n        /* \"#utility.yul\":7820:7829   */\n      dup6\n        /* \"#utility.yul\":7816:7838   */\n      add\n        /* \"#utility.yul\":7795:7848   */\n      tag_254\n      jump\t// in\n    tag_376:\n        /* \"#utility.yul\":7785:7848   */\n      swap2\n      pop\n        /* \"#utility.yul\":7741:7858   */\n      pop\n        /* \"#utility.yul\":7536:7865   */\n      swap3\n      swap2\n      pop\n      pop\n      jump\t// out\n        /* \"#utility.yul\":7871:7988   */\n    tag_255:\n        /* \"#utility.yul\":7980:7981   */\n      0x00\n        /* \"#utility.yul\":7977:7978   */\n      dup1\n        /* \"#utility.yul\":7970:7982   */\n      revert\n        /* \"#utility.yul\":7994:8111   */\n    tag_256:\n        /* \"#utility.yul\":8103:8104   */\n      0x00\n        /* \"#utility.yul\":8100:8101   */\n      dup1\n        /* \"#utility.yul\":8093:8105   */\n      revert\n        /* \"#utility.yul\":8117:8297   */\n    tag_257:\n        /* \"#utility.yul\":8165:8242   */\n      0x4e487b7100000000000000000000000000000000000000000000000000000000\n        /* \"#utility.yul\":8162:8163   */\n      0x00\n        /* \"#utility.yul\":8155:8243   */\n      mstore\n        /* \"#utility.yul\":8262:8266   */\n      0x41\n        /* \"#utility.yul\":8259:8260   */\n      0x04\n        /* \"#utility.yul\":8252:8267   */\n      mstore\n        /* \"#utility.yul\":8286:8290   */\n      0x24\n        /* \"#utility.yul\":8283:8284   */\n      0x00\n        /* \"#utility.yul\":8276:8291   */\n      revert\n        /* \"#utility.yul\":8303:8584   */\n    tag_258:\n        /* \"#utility.yul\":8386:8413   */\n      tag_381\n        /* \"#utility.yul\":8408:8412   */\n      dup3\n        /* \"#utility.yul\":8386:8413   */\n      tag_246\n      jump\t// in\n    tag_381:\n        /* \"#utility.yul\":8378:8384   */\n      dup2\n        /* \"#utility.yul\":8374:8414   */\n      add\n        /* \"#utility.yul\":8516:8522   */\n      dup2\n        /* \"#utility.yul\":8504:8514   */\n      dup2\n        /* \"#utility.yul\":8501:8523   */\n      lt\n        /* \"#utility.yul\":8480:8498   */\n      0xffffffffffffffff\n        /* \"#utility.yul\":8468:8478   */\n      dup3\n        /* \"#utility.yul\":8465:8499   */\n      gt\n        /* \"#utility.yul\":8462:8524   */\n      or\n        /* \"#utility.yul\":8459:8547   */\n      iszero\n      tag_382\n      jumpi\n        /* \"#utility.yul\":8527:8545   */\n      tag_383\n      tag_257\n      jump\t// in\n    tag_383:\n        /* \"#utility.yul\":8459:8547   */\n    tag_382:\n        /* \"#utility.yul\":8567:8577   */\n      dup1\n        /* \"#utility.yul\":8563:8565   */\n      0x40\n        /* \"#utility.yul\":8556:8578   */\n      mstore\n        /* \"#utility.yul\":8346:8584   */\n      pop\n        /* \"#utility.yul\":8303:8584   */\n      pop\n      pop\n      jump\t// out\n        /* \"#utility.yul\":8590:8719   */\n    tag_259:\n        /* \"#utility.yul\":8624:8630   */\n      0x00\n        /* \"#utility.yul\":8651:8671   */\n      tag_385\n      tag_237\n      jump\t// in\n    tag_385:\n        /* \"#utility.yul\":8641:8671   */\n      swap1\n      pop\n        /* \"#utility.yul\":8680:8713   */\n      tag_386\n        /* \"#utility.yul\":8708:8712   */\n      dup3\n        /* \"#utility.yul\":8700:8706   */\n      dup3\n        /* \"#utility.yul\":8680:8713   */\n      tag_258\n      jump\t// in\n    tag_386:\n        /* \"#utility.yul\":8590:8719   */\n      swap2\n      swap1\n      pop\n      jump\t// out\n        /* \"#utility.yul\":8725:9033   */\n    tag_260:\n        /* \"#utility.yul\":8787:8791   */\n      0x00\n        /* \"#utility.yul\":8877:8895   */\n      0xffffffffffffffff\n        /* \"#utility.yul\":8869:8875   */\n      dup3\n        /* \"#utility.yul\":8866:8896   */\n      gt\n        /* \"#utility.yul\":8863:8919   */\n      iszero\n      tag_388\n      jumpi\n        /* \"#utility.yul\":8899:8917   */\n      tag_389\n      tag_257\n      jump\t// in\n    tag_389:\n        /* \"#utility.yul\":8863:8919   */\n    tag_388:\n        /* \"#utility.yul\":8937:8966   */\n      tag_390\n        /* \"#utility.yul\":8959:8965   */\n      dup3\n        /* \"#utility.yul\":8937:8966   */\n      tag_246\n      jump\t// in\n    tag_390:\n        /* \"#utility.yul\":8929:8966   */\n      swap1\n      pop\n        /* \"#utility.yul\":9021:9025   */\n      0x20\n        /* \"#utility.yul\":9015:9019   */\n      dup2\n        /* \"#utility.yul\":9011:9026   */\n      add\n        /* \"#utility.yul\":9003:9026   */\n      swap1\n      pop\n        /* \"#utility.yul\":8725:9033   */\n      swap2\n      swap1\n      pop\n      jump\t// out\n        /* \"#utility.yul\":9039:9187   */\n    tag_261:\n        /* \"#utility.yul\":9137:9143   */\n      dup3\n        /* \"#utility.yul\":9132:9135   */\n      dup2\n        /* \"#utility.yul\":9127:9130   */\n      dup4\n        /* \"#utility.yul\":9114:9144   */\n      calldatacopy\n        /* \"#utility.yul\":9178:9179   */\n      0x00\n        /* \"#utility.yul\":9169:9175   */\n      dup4\n        /* \"#utility.yul\":9164:9167   */\n      dup4\n        /* \"#utility.yul\":9160:9176   */\n      add\n        /* \"#utility.yul\":9153:9180   */\n      mstore\n        /* \"#utility.yul\":9039:9187   */\n      pop\n      pop\n      pop\n      jump\t// out\n        /* \"#utility.yul\":9193:9618   */\n    tag_262:\n        /* \"#utility.yul\":9271:9276   */\n      0x00\n        /* \"#utility.yul\":9296:9362   */\n      tag_393\n        /* \"#utility.yul\":9312:9361   */\n      tag_394\n        /* \"#utility.yul\":9354:9360   */\n      dup5\n        /* \"#utility.yul\":9312:9361   */\n      tag_260\n      jump\t// in\n    tag_394:\n        /* \"#utility.yul\":9296:9362   */\n      tag_259\n      jump\t// in\n    tag_393:\n        /* \"#utility.yul\":9287:9362   */\n      swap1\n      pop\n        /* \"#utility.yul\":9385:9391   */\n      dup3\n        /* \"#utility.yul\":9378:9383   */\n      dup2\n        /* \"#utility.yul\":9371:9392   */\n      mstore\n        /* \"#utility.yul\":9423:9427   */\n      0x20\n        /* \"#utility.yul\":9416:9421   */\n      dup2\n        /* \"#utility.yul\":9412:9428   */\n      add\n        /* \"#utility.yul\":9461:9464   */\n      dup5\n        /* \"#utility.yul\":9452:9458   */\n      dup5\n        /* \"#utility.yul\":9447:9450   */\n      dup5\n        /* \"#utility.yul\":9443:9459   */\n      add\n        /* \"#utility.yul\":9440:9465   */\n      gt\n        /* \"#utility.yul\":9437:9549   */\n      iszero\n      tag_395\n      jumpi\n        /* \"#utility.yul\":9468:9547   */\n      tag_396\n      tag_256\n      jump\t// in\n    tag_396:\n        /* \"#utility.yul\":9437:9549   */\n    tag_395:\n        /* \"#utility.yul\":9558:9612   */\n      tag_397\n        /* \"#utility.yul\":9605:9611   */\n      dup5\n        /* \"#utility.yul\":9600:9603   */\n      dup3\n        /* \"#utility.yul\":9595:9598   */\n      dup6\n        /* \"#utility.yul\":9558:9612   */\n      tag_261\n      jump\t// in\n    tag_397:\n        /* \"#utility.yul\":9277:9618   */\n      pop\n        /* \"#utility.yul\":9193:9618   */\n      swap4\n      swap3\n      pop\n      pop\n      pop\n      jump\t// out\n        /* \"#utility.yul\":9638:9978   */\n    tag_263:\n        /* \"#utility.yul\":9694:9699   */\n      0x00\n        /* \"#utility.yul\":9743:9746   */\n      dup3\n        /* \"#utility.yul\":9736:9740   */\n      0x1f\n        /* \"#utility.yul\":9728:9734   */\n      dup4\n        /* \"#utility.yul\":9724:9741   */\n      add\n        /* \"#utility.yul\":9720:9747   */\n      slt\n        /* \"#utility.yul\":9710:9832   */\n      tag_399\n      jumpi\n        /* \"#utility.yul\":9751:9830   */\n      tag_400\n      tag_255\n      jump\t// in\n    tag_400:\n        /* \"#utility.yul\":9710:9832   */\n    tag_399:\n        /* \"#utility.yul\":9868:9874   */\n      dup2\n        /* \"#utility.yul\":9855:9875   */\n      calldataload\n        /* \"#utility.yul\":9893:9972   */\n      tag_401\n        /* \"#utility.yul\":9968:9971   */\n      dup5\n        /* \"#utility.yul\":9960:9966   */\n      dup3\n        /* \"#utility.yul\":9953:9957   */\n      0x20\n        /* \"#utility.yul\":9945:9951   */\n      dup7\n        /* \"#utility.yul\":9941:9958   */\n      add\n        /* \"#utility.yul\":9893:9972   */\n      tag_262\n      jump\t// in\n    tag_401:\n        /* \"#utility.yul\":9884:9972   */\n      swap2\n      pop\n        /* \"#utility.yul\":9700:9978   */\n      pop\n        /* \"#utility.yul\":9638:9978   */\n      swap3\n      swap2\n      pop\n      pop\n      jump\t// out\n        /* \"#utility.yul\":9984:11255   */\n    tag_73:\n        /* \"#utility.yul\":10099:10105   */\n      0x00\n        /* \"#utility.yul\":10107:10113   */\n      dup1\n        /* \"#utility.yul\":10115:10121   */\n      0x00\n        /* \"#utility.yul\":10123:10129   */\n      dup1\n        /* \"#utility.yul\":10131:10137   */\n      0x00\n        /* \"#utility.yul\":10180:10183   */\n      0xa0\n        /* \"#utility.yul\":10168:10177   */\n      dup7\n        /* \"#utility.yul\":10159:10166   */\n      dup9\n        /* \"#utility.yul\":10155:10178   */\n      sub\n        /* \"#utility.yul\":10151:10184   */\n      slt\n        /* \"#utility.yul\":10148:10268   */\n      iszero\n      tag_403\n      jumpi\n        /* \"#utility.yul\":10187:10266   */\n      tag_404\n      tag_238\n      jump\t// in\n    tag_404:\n        /* \"#utility.yul\":10148:10268   */\n    tag_403:\n        /* \"#utility.yul\":10307:10308   */\n      0x00\n        /* \"#utility.yul\":10332:10385   */\n      tag_405\n        /* \"#utility.yul\":10377:10384   */\n      dup9\n        /* \"#utility.yul\":10368:10374   */\n      dup3\n        /* \"#utility.yul\":10357:10366   */\n      dup10\n        /* \"#utility.yul\":10353:10375   */\n      add\n        /* \"#utility.yul\":10332:10385   */\n      tag_241\n      jump\t// in\n    tag_405:\n        /* \"#utility.yul\":10322:10385   */\n      swap6\n      pop\n        /* \"#utility.yul\":10278:10395   */\n      pop\n        /* \"#utility.yul\":10462:10464   */\n      0x20\n        /* \"#utility.yul\":10451:10460   */\n      dup7\n        /* \"#utility.yul\":10447:10465   */\n      add\n        /* \"#utility.yul\":10434:10466   */\n      calldataload\n        /* \"#utility.yul\":10493:10511   */\n      0xffffffffffffffff\n        /* \"#utility.yul\":10485:10491   */\n      dup2\n        /* \"#utility.yul\":10482:10512   */\n      gt\n        /* \"#utility.yul\":10479:10596   */\n      iszero\n      tag_406\n      jumpi\n        /* \"#utility.yul\":10515:10594   */\n      tag_407\n      tag_239\n      jump\t// in\n    tag_407:\n        /* \"#utility.yul\":10479:10596   */\n    tag_406:\n        /* \"#utility.yul\":10620:10683   */\n      tag_408\n        /* \"#utility.yul\":10675:10682   */\n      dup9\n        /* \"#utility.yul\":10666:10672   */\n      dup3\n        /* \"#utility.yul\":10655:10664   */\n      dup10\n        /* \"#utility.yul\":10651:10673   */\n      add\n        /* \"#utility.yul\":10620:10683   */\n      tag_263\n      jump\t// in\n    tag_408:\n        /* \"#utility.yul\":10610:10683   */\n      swap5\n      pop\n        /* \"#utility.yul\":10405:10693   */\n      pop\n        /* \"#utility.yul\":10760:10762   */\n      0x40\n        /* \"#utility.yul\":10749:10758   */\n      dup7\n        /* \"#utility.yul\":10745:10763   */\n      add\n        /* \"#utility.yul\":10732:10764   */\n      calldataload\n        /* \"#utility.yul\":10791:10809   */\n      0xffffffffffffffff\n        /* \"#utility.yul\":10783:10789   */\n      dup2\n        /* \"#utility.yul\":10780:10810   */\n      gt\n        /* \"#utility.yul\":10777:10894   */\n      iszero\n      tag_409\n      jumpi\n        /* \"#utility.yul\":10813:10892   */\n      tag_410\n      tag_239\n      jump\t// in\n    tag_410:\n        /* \"#utility.yul\":10777:10894   */\n    tag_409:\n        /* \"#utility.yul\":10918:10981   */\n      tag_411\n        /* \"#utility.yul\":10973:10980   */\n      dup9\n        /* \"#utility.yul\":10964:10970   */\n      dup3\n        /* \"#utility.yul\":10953:10962   */\n      dup10\n        /* \"#utility.yul\":10949:10971   */\n      add\n        /* \"#utility.yul\":10918:10981   */\n      tag_263\n      jump\t// in\n    tag_411:\n        /* \"#utility.yul\":10908:10981   */\n      swap4\n      pop\n        /* \"#utility.yul\":10703:10991   */\n      pop\n        /* \"#utility.yul\":11030:11032   */\n      0x60\n        /* \"#utility.yul\":11056:11109   */\n      tag_412\n        /* \"#utility.yul\":11101:11108   */\n      dup9\n        /* \"#utility.yul\":11092:11098   */\n      dup3\n        /* \"#utility.yul\":11081:11090   */\n      dup10\n        /* \"#utility.yul\":11077:11099   */\n      add\n        /* \"#utility.yul\":11056:11109   */\n      tag_241\n      jump\t// in\n    tag_412:\n        /* \"#utility.yul\":11046:11109   */\n      swap3\n      pop\n        /* \"#utility.yul\":11001:11119   */\n      pop\n        /* \"#utility.yul\":11158:11161   */\n      0x80\n        /* \"#utility.yul\":11185:11238   */\n      tag_413\n        /* \"#utility.yul\":11230:11237   */\n      dup9\n        /* \"#utility.yul\":11221:11227   */\n      dup3\n        /* \"#utility.yul\":11210:11219   */\n      dup10\n        /* \"#utility.yul\":11206:11228   */\n      add\n        /* \"#utility.yul\":11185:11238   */\n      tag_241\n      jump\t// in\n    tag_413:\n        /* \"#utility.yul\":11175:11238   */\n      swap2\n      pop\n        /* \"#utility.yul\":11129:11248   */\n      pop\n        /* \"#utility.yul\":9984:11255   */\n      swap3\n      swap6\n      pop\n      swap3\n      swap6\n      swap1\n      swap4\n      pop\n      jump\t// out\n        /* \"#utility.yul\":11261:11572   */\n    tag_264:\n        /* \"#utility.yul\":11338:11342   */\n      0x00\n        /* \"#utility.yul\":11428:11446   */\n      0xffffffffffffffff\n        /* \"#utility.yul\":11420:11426   */\n      dup3\n        /* \"#utility.yul\":11417:11447   */\n      gt\n        /* \"#utility.yul\":11414:11470   */\n      iszero\n      tag_415\n      jumpi\n        /* \"#utility.yul\":11450:11468   */\n      tag_416\n      tag_257\n      jump\t// in\n    tag_416:\n        /* \"#utility.yul\":11414:11470   */\n    tag_415:\n        /* \"#utility.yul\":11500:11504   */\n      0x20\n        /* \"#utility.yul\":11492:11498   */\n      dup3\n        /* \"#utility.yul\":11488:11505   */\n      mul\n        /* \"#utility.yul\":11480:11505   */\n      swap1\n      pop\n        /* \"#utility.yul\":11560:11564   */\n      0x20\n        /* \"#utility.yul\":11554:11558   */\n      dup2\n        /* \"#utility.yul\":11550:11565   */\n      add\n        /* \"#utility.yul\":11542:11565   */\n      swap1\n      pop\n        /* \"#utility.yul\":11261:11572   */\n      swap2\n      swap1\n      pop\n      jump\t// out\n        /* \"#utility.yul\":11578:11695   */\n    tag_265:\n        /* \"#utility.yul\":11687:11688   */\n      0x00\n        /* \"#utility.yul\":11684:11685   */\n      dup1\n        /* \"#utility.yul\":11677:11689   */\n      revert\n        /* \"#utility.yul\":11718:12428   */\n    tag_266:\n        /* \"#utility.yul\":11814:11819   */\n      0x00\n        /* \"#utility.yul\":11839:11920   */\n      tag_419\n        /* \"#utility.yul\":11855:11919   */\n      tag_420\n        /* \"#utility.yul\":11912:11918   */\n      dup5\n        /* \"#utility.yul\":11855:11919   */\n      tag_264\n      jump\t// in\n    tag_420:\n        /* \"#utility.yul\":11839:11920   */\n      tag_259\n      jump\t// in\n    tag_419:\n        /* \"#utility.yul\":11830:11920   */\n      swap1\n      pop\n        /* \"#utility.yul\":11940:11945   */\n      dup1\n        /* \"#utility.yul\":11969:11975   */\n      dup4\n        /* \"#utility.yul\":11962:11967   */\n      dup3\n        /* \"#utility.yul\":11955:11976   */\n      mstore\n        /* \"#utility.yul\":12003:12007   */\n      0x20\n        /* \"#utility.yul\":11996:12001   */\n      dup3\n        /* \"#utility.yul\":11992:12008   */\n      add\n        /* \"#utility.yul\":11985:12008   */\n      swap1\n      pop\n        /* \"#utility.yul\":12056:12060   */\n      0x20\n        /* \"#utility.yul\":12048:12054   */\n      dup5\n        /* \"#utility.yul\":12044:12061   */\n      mul\n        /* \"#utility.yul\":12036:12042   */\n      dup4\n        /* \"#utility.yul\":12032:12062   */\n      add\n        /* \"#utility.yul\":12085:12088   */\n      dup6\n        /* \"#utility.yul\":12077:12083   */\n      dup2\n        /* \"#utility.yul\":12074:12089   */\n      gt\n        /* \"#utility.yul\":12071:12193   */\n      iszero\n      tag_421\n      jumpi\n        /* \"#utility.yul\":12104:12183   */\n      tag_422\n      tag_265\n      jump\t// in\n    tag_422:\n        /* \"#utility.yul\":12071:12193   */\n    tag_421:\n        /* \"#utility.yul\":12219:12225   */\n      dup4\n        /* \"#utility.yul\":12202:12422   */\n    tag_423:\n        /* \"#utility.yul\":12236:12242   */\n      dup2\n        /* \"#utility.yul\":12231:12234   */\n      dup2\n        /* \"#utility.yul\":12228:12243   */\n      lt\n        /* \"#utility.yul\":12202:12422   */\n      iszero\n      tag_425\n      jumpi\n        /* \"#utility.yul\":12311:12314   */\n      dup1\n        /* \"#utility.yul\":12340:12377   */\n      tag_426\n        /* \"#utility.yul\":12373:12376   */\n      dup9\n        /* \"#utility.yul\":12361:12371   */\n      dup3\n        /* \"#utility.yul\":12340:12377   */\n      tag_241\n      jump\t// in\n    tag_426:\n        /* \"#utility.yul\":12335:12338   */\n      dup5\n        /* \"#utility.yul\":12328:12378   */\n      mstore\n        /* \"#utility.yul\":12407:12411   */\n      0x20\n        /* \"#utility.yul\":12402:12405   */\n      dup5\n        /* \"#utility.yul\":12398:12412   */\n      add\n        /* \"#utility.yul\":12391:12412   */\n      swap4\n      pop\n        /* \"#utility.yul\":12278:12422   */\n      pop\n        /* \"#utility.yul\":12262:12266   */\n      0x20\n        /* \"#utility.yul\":12257:12260   */\n      dup2\n        /* \"#utility.yul\":12253:12267   */\n      add\n        /* \"#utility.yul\":12246:12267   */\n      swap1\n      pop\n        /* \"#utility.yul\":12202:12422   */\n      jump(tag_423)\n    tag_425:\n        /* \"#utility.yul\":12206:12227   */\n      pop\n        /* \"#utility.yul\":11820:12428   */\n      pop\n      pop\n        /* \"#utility.yul\":11718:12428   */\n      swap4\n      swap3\n      pop\n      pop\n      pop\n      jump\t// out\n        /* \"#utility.yul\":12451:12821   */\n    tag_267:\n        /* \"#utility.yul\":12522:12527   */\n      0x00\n        /* \"#utility.yul\":12571:12574   */\n      dup3\n        /* \"#utility.yul\":12564:12568   */\n      0x1f\n        /* \"#utility.yul\":12556:12562   */\n      dup4\n        /* \"#utility.yul\":12552:12569   */\n      add\n        /* \"#utility.yul\":12548:12575   */\n      slt\n        /* \"#utility.yul\":12538:12660   */\n      tag_428\n      jumpi\n        /* \"#utility.yul\":12579:12658   */\n      tag_429\n      tag_255\n      jump\t// in\n    tag_429:\n        /* \"#utility.yul\":12538:12660   */\n    tag_428:\n        /* \"#utility.yul\":12696:12702   */\n      dup2\n        /* \"#utility.yul\":12683:12703   */\n      calldataload\n        /* \"#utility.yul\":12721:12815   */\n      tag_430\n        /* \"#utility.yul\":12811:12814   */\n      dup5\n        /* \"#utility.yul\":12803:12809   */\n      dup3\n        /* \"#utility.yul\":12796:12800   */\n      0x20\n        /* \"#utility.yul\":12788:12794   */\n      dup7\n        /* \"#utility.yul\":12784:12801   */\n      add\n        /* \"#utility.yul\":12721:12815   */\n      tag_266\n      jump\t// in\n    tag_430:\n        /* \"#utility.yul\":12712:12815   */\n      swap2\n      pop\n        /* \"#utility.yul\":12528:12821   */\n      pop\n        /* \"#utility.yul\":12451:12821   */\n      swap3\n      swap2\n      pop\n      pop\n      jump\t// out\n        /* \"#utility.yul\":12827:13366   */\n    tag_78:\n        /* \"#utility.yul\":12911:12917   */\n      0x00\n        /* \"#utility.yul\":12960:12962   */\n      0x20\n        /* \"#utility.yul\":12948:12957   */\n      dup3\n        /* \"#utility.yul\":12939:12946   */\n      dup5\n        /* \"#utility.yul\":12935:12958   */\n      sub\n        /* \"#utility.yul\":12931:12963   */\n      slt\n        /* \"#utility.yul\":12928:13047   */\n      iszero\n      tag_432\n      jumpi\n        /* \"#utility.yul\":12966:13045   */\n      tag_433\n      tag_238\n      jump\t// in\n    tag_433:\n        /* \"#utility.yul\":12928:13047   */\n    tag_432:\n        /* \"#utility.yul\":13114:13115   */\n      0x00\n        /* \"#utility.yul\":13103:13112   */\n      dup3\n        /* \"#utility.yul\":13099:13116   */\n      add\n        /* \"#utility.yul\":13086:13117   */\n      calldataload\n        /* \"#utility.yul\":13144:13162   */\n      0xffffffffffffffff\n        /* \"#utility.yul\":13136:13142   */\n      dup2\n        /* \"#utility.yul\":13133:13163   */\n      gt\n        /* \"#utility.yul\":13130:13247   */\n      iszero\n      tag_434\n      jumpi\n        /* \"#utility.yul\":13166:13245   */\n      tag_435\n      tag_239\n      jump\t// in\n    tag_435:\n        /* \"#utility.yul\":13130:13247   */\n    tag_434:\n        /* \"#utility.yul\":13271:13349   */\n      tag_436\n        /* \"#utility.yul\":13341:13348   */\n      dup5\n        /* \"#utility.yul\":13332:13338   */\n      dup3\n        /* \"#utility.yul\":13321:13330   */\n      dup6\n        /* \"#utility.yul\":13317:13339   */\n      add\n        /* \"#utility.yul\":13271:13349   */\n      tag_267\n      jump\t// in\n    tag_436:\n        /* \"#utility.yul\":13261:13349   */\n      swap2\n      pop\n        /* \"#utility.yul\":13057:13359   */\n      pop\n        /* \"#utility.yul\":12827:13366   */\n      swap3\n      swap2\n      pop\n      pop\n      jump\t// out\n        /* \"#utility.yul\":13372:13548   */\n    tag_268:\n        /* \"#utility.yul\":13512:13540   */\n      0x5468697320626f6f6b206973206e6f7420617661696c61626c65000000000000\n        /* \"#utility.yul\":13508:13509   */\n      0x00\n        /* \"#utility.yul\":13500:13506   */\n      dup3\n        /* \"#utility.yul\":13496:13510   */\n      add\n        /* \"#utility.yul\":13489:13541   */\n      mstore\n        /* \"#utility.yul\":13372:13548   */\n      pop\n      jump\t// out\n        /* \"#utility.yul\":13554:13920   */\n    tag_269:\n        /* \"#utility.yul\":13696:13699   */\n      0x00\n        /* \"#utility.yul\":13717:13784   */\n      tag_439\n        /* \"#utility.yul\":13781:13783   */\n      0x1a\n        /* \"#utility.yul\":13776:13779   */\n      dup4\n        /* \"#utility.yul\":13717:13784   */\n      tag_244\n      jump\t// in\n    tag_439:\n        /* \"#utility.yul\":13710:13784   */\n      swap2\n      pop\n        /* \"#utility.yul\":13793:13886   */\n      tag_440\n        /* \"#utility.yul\":13882:13885   */\n      dup3\n        /* \"#utility.yul\":13793:13886   */\n      tag_268\n      jump\t// in\n    tag_440:\n        /* \"#utility.yul\":13911:13913   */\n      0x20\n        /* \"#utility.yul\":13906:13909   */\n      dup3\n        /* \"#utility.yul\":13902:13914   */\n      add\n        /* \"#utility.yul\":13895:13914   */\n      swap1\n      pop\n        /* \"#utility.yul\":13554:13920   */\n      swap2\n      swap1\n      pop\n      jump\t// out\n        /* \"#utility.yul\":13926:14345   */\n    tag_86:\n        /* \"#utility.yul\":14092:14096   */\n      0x00\n        /* \"#utility.yul\":14130:14132   */\n      0x20\n        /* \"#utility.yul\":14119:14128   */\n      dup3\n        /* \"#utility.yul\":14115:14133   */\n      add\n        /* \"#utility.yul\":14107:14133   */\n      swap1\n      pop\n        /* \"#utility.yul\":14179:14188   */\n      dup2\n        /* \"#utility.yul\":14173:14177   */\n      dup2\n        /* \"#utility.yul\":14169:14189   */\n      sub\n        /* \"#utility.yul\":14165:14166   */\n      0x00\n        /* \"#utility.yul\":14154:14163   */\n      dup4\n        /* \"#utility.yul\":14150:14167   */\n      add\n        /* \"#utility.yul\":14143:14190   */\n      mstore\n        /* \"#utility.yul\":14207:14338   */\n      tag_442\n        /* \"#utility.yul\":14333:14337   */\n      dup2\n        /* \"#utility.yul\":14207:14338   */\n      tag_269\n      jump\t// in\n    tag_442:\n        /* \"#utility.yul\":14199:14338   */\n      swap1\n      pop\n        /* \"#utility.yul\":13926:14345   */\n      swap2\n      swap1\n      pop\n      jump\t// out\n        /* \"#utility.yul\":14351:14527   */\n    tag_270:\n        /* \"#utility.yul\":14491:14519   */\n      0x4e6f7420656e6f7567682073746f636b20617661696c61626c65000000000000\n        /* \"#utility.yul\":14487:14488   */\n      0x00\n        /* \"#utility.yul\":14479:14485   */\n      dup3\n        /* \"#utility.yul\":14475:14489   */\n      add\n        /* \"#utility.yul\":14468:14520   */\n      mstore\n        /* \"#utility.yul\":14351:14527   */\n      pop\n      jump\t// out\n        /* \"#utility.yul\":14533:14899   */\n    tag_271:\n        /* \"#utility.yul\":14675:14678   */\n      0x00\n        /* \"#utility.yul\":14696:14763   */\n      tag_445\n        /* \"#utility.yul\":14760:14762   */\n      0x1a\n        /* \"#utility.yul\":14755:14758   */\n      dup4\n        /* \"#utility.yul\":14696:14763   */\n      tag_244\n      jump\t// in\n    tag_445:\n        /* \"#utility.yul\":14689:14763   */\n      swap2\n      pop\n        /* \"#utility.yul\":14772:14865   */\n      tag_446\n        /* \"#utility.yul\":14861:14864   */\n      dup3\n        /* \"#utility.yul\":14772:14865   */\n      tag_270\n      jump\t// in\n    tag_446:\n        /* \"#utility.yul\":14890:14892   */\n      0x20\n        /* \"#utility.yul\":14885:14888   */\n      dup3\n        /* \"#utility.yul\":14881:14893   */\n      add\n        /* \"#utility.yul\":14874:14893   */\n      swap1\n      pop\n        /* \"#utility.yul\":14533:14899   */\n      swap2\n      swap1\n      pop\n      jump\t// out\n        /* \"#utility.yul\":14905:15324   */\n    tag_89:\n        /* \"#utility.yul\":15071:15075   */\n      0x00\n        /* \"#utility.yul\":15109:15111   */\n      0x20\n        /* \"#utility.yul\":15098:15107   */\n      dup3\n        /* \"#utility.yul\":15094:15112   */\n      add\n        /* \"#utility.yul\":15086:15112   */\n      swap1\n      pop\n        /* \"#utility.yul\":15158:15167   */\n      dup2\n        /* \"#utility.yul\":15152:15156   */\n      dup2\n        /* \"#utility.yul\":15148:15168   */\n      sub\n        /* \"#utility.yul\":15144:15145   */\n      0x00\n        /* \"#utility.yul\":15133:15142   */\n      dup4\n        /* \"#utility.yul\":15129:15146   */\n      add\n        /* \"#utility.yul\":15122:15169   */\n      mstore\n        /* \"#utility.yul\":15186:15317   */\n      tag_448\n        /* \"#utility.yul\":15312:15316   */\n      dup2\n        /* \"#utility.yul\":15186:15317   */\n      tag_271\n      jump\t// in\n    tag_448:\n        /* \"#utility.yul\":15178:15317   */\n      swap1\n      pop\n        /* \"#utility.yul\":14905:15324   */\n      swap2\n      swap1\n      pop\n      jump\t// out\n        /* \"#utility.yul\":15330:15510   */\n    tag_272:\n        /* \"#utility.yul\":15378:15455   */\n      0x4e487b7100000000000000000000000000000000000000000000000000000000\n        /* \"#utility.yul\":15375:15376   */\n      0x00\n        /* \"#utility.yul\":15368:15456   */\n      mstore\n        /* \"#utility.yul\":15475:15479   */\n      0x11\n        /* \"#utility.yul\":15472:15473   */\n      0x04\n        /* \"#utility.yul\":15465:15480   */\n      mstore\n        /* \"#utility.yul\":15499:15503   */\n      0x24\n        /* \"#utility.yul\":15496:15497   */\n      0x00\n        /* \"#utility.yul\":15489:15504   */\n      revert\n        /* \"#utility.yul\":15516:15926   */\n    tag_91:\n        /* \"#utility.yul\":15556:15563   */\n      0x00\n        /* \"#utility.yul\":15579:15599   */\n      tag_451\n        /* \"#utility.yul\":15597:15598   */\n      dup3\n        /* \"#utility.yul\":15579:15599   */\n      tag_232\n      jump\t// in\n    tag_451:\n        /* \"#utility.yul\":15574:15599   */\n      swap2\n      pop\n        /* \"#utility.yul\":15613:15633   */\n      tag_452\n        /* \"#utility.yul\":15631:15632   */\n      dup4\n        /* \"#utility.yul\":15613:15633   */\n      tag_232\n      jump\t// in\n    tag_452:\n        /* \"#utility.yul\":15608:15633   */\n      swap3\n      pop\n        /* \"#utility.yul\":15668:15669   */\n      dup3\n        /* \"#utility.yul\":15665:15666   */\n      dup3\n        /* \"#utility.yul\":15661:15670   */\n      mul\n        /* \"#utility.yul\":15690:15720   */\n      tag_453\n        /* \"#utility.yul\":15708:15719   */\n      dup2\n        /* \"#utility.yul\":15690:15720   */\n      tag_232\n      jump\t// in\n    tag_453:\n        /* \"#utility.yul\":15679:15720   */\n      swap2\n      pop\n        /* \"#utility.yul\":15869:15870   */\n      dup3\n        /* \"#utility.yul\":15860:15867   */\n      dup3\n        /* \"#utility.yul\":15856:15871   */\n      div\n        /* \"#utility.yul\":15853:15854   */\n      dup5\n        /* \"#utility.yul\":15850:15872   */\n      eq\n        /* \"#utility.yul\":15830:15831   */\n      dup4\n        /* \"#utility.yul\":15823:15832   */\n      iszero\n        /* \"#utility.yul\":15803:15886   */\n      or\n        /* \"#utility.yul\":15780:15919   */\n      tag_454\n      jumpi\n        /* \"#utility.yul\":15899:15917   */\n      tag_455\n      tag_272\n      jump\t// in\n    tag_455:\n        /* \"#utility.yul\":15780:15919   */\n    tag_454:\n        /* \"#utility.yul\":15564:15926   */\n      pop\n        /* \"#utility.yul\":15516:15926   */\n      swap3\n      swap2\n      pop\n      pop\n      jump\t// out\n        /* \"#utility.yul\":15932:16106   */\n    tag_273:\n        /* \"#utility.yul\":16072:16098   */\n      0x496e636f7272656374207061796d656e7420616d6f756e740000000000000000\n        /* \"#utility.yul\":16068:16069   */\n      0x00\n        /* \"#utility.yul\":16060:16066   */\n      dup3\n        /* \"#utility.yul\":16056:16070   */\n      add\n        /* \"#utility.yul\":16049:16099   */\n      mstore\n        /* \"#utility.yul\":15932:16106   */\n      pop\n      jump\t// out\n        /* \"#utility.yul\":16112:16478   */\n    tag_274:\n        /* \"#utility.yul\":16254:16257   */\n      0x00\n        /* \"#utility.yul\":16275:16342   */\n      tag_458\n        /* \"#utility.yul\":16339:16341   */\n      0x18\n        /* \"#utility.yul\":16334:16337   */\n      dup4\n        /* \"#utility.yul\":16275:16342   */\n      tag_244\n      jump\t// in\n    tag_458:\n        /* \"#utility.yul\":16268:16342   */\n      swap2\n      pop\n        /* \"#utility.yul\":16351:16444   */\n      tag_459\n        /* \"#utility.yul\":16440:16443   */\n      dup3\n        /* \"#utility.yul\":16351:16444   */\n      tag_273\n      jump\t// in\n    tag_459:\n        /* \"#utility.yul\":16469:16471   */\n      0x20\n        /* \"#utility.yul\":16464:16467   */\n      dup3\n        /* \"#utility.yul\":16460:16472   */\n      add\n        /* \"#utility.yul\":16453:16472   */\n      swap1\n      pop\n        /* \"#utility.yul\":16112:16478   */\n      swap2\n      swap1\n      pop\n      jump\t// out\n        /* \"#utility.yul\":16484:16903   */\n    tag_94:\n        /* \"#utility.yul\":16650:16654   */\n      0x00\n        /* \"#utility.yul\":16688:16690   */\n      0x20\n        /* \"#utility.yul\":16677:16686   */\n      dup3\n        /* \"#utility.yul\":16673:16691   */\n      add\n        /* \"#utility.yul\":16665:16691   */\n      swap1\n      pop\n        /* \"#utility.yul\":16737:16746   */\n      dup2\n        /* \"#utility.yul\":16731:16735   */\n      dup2\n        /* \"#utility.yul\":16727:16747   */\n      sub\n        /* \"#utility.yul\":16723:16724   */\n      0x00\n        /* \"#utility.yul\":16712:16721   */\n      dup4\n        /* \"#utility.yul\":16708:16725   */\n      add\n        /* \"#utility.yul\":16701:16748   */\n      mstore\n        /* \"#utility.yul\":16765:16896   */\n      tag_461\n        /* \"#utility.yul\":16891:16895   */\n      dup2\n        /* \"#utility.yul\":16765:16896   */\n      tag_274\n      jump\t// in\n    tag_461:\n        /* \"#utility.yul\":16757:16896   */\n      swap1\n      pop\n        /* \"#utility.yul\":16484:16903   */\n      swap2\n      swap1\n      pop\n      jump\t// out\n        /* \"#utility.yul\":16909:17103   */\n    tag_96:\n        /* \"#utility.yul\":16949:16953   */\n      0x00\n        /* \"#utility.yul\":16969:16989   */\n      tag_463\n        /* \"#utility.yul\":16987:16988   */\n      dup3\n        /* \"#utility.yul\":16969:16989   */\n      tag_232\n      jump\t// in\n    tag_463:\n        /* \"#utility.yul\":16964:16989   */\n      swap2\n      pop\n        /* \"#utility.yul\":17003:17023   */\n      tag_464\n        /* \"#utility.yul\":17021:17022   */\n      dup4\n        /* \"#utility.yul\":17003:17023   */\n      tag_232\n      jump\t// in\n    tag_464:\n        /* \"#utility.yul\":16998:17023   */\n      swap3\n      pop\n        /* \"#utility.yul\":17047:17048   */\n      dup3\n        /* \"#utility.yul\":17044:17045   */\n      dup3\n        /* \"#utility.yul\":17040:17049   */\n      sub\n        /* \"#utility.yul\":17032:17049   */\n      swap1\n      pop\n        /* \"#utility.yul\":17071:17072   */\n      dup2\n        /* \"#utility.yul\":17065:17069   */\n      dup2\n        /* \"#utility.yul\":17062:17073   */\n      gt\n        /* \"#utility.yul\":17059:17096   */\n      iszero\n      tag_465\n      jumpi\n        /* \"#utility.yul\":17076:17094   */\n      tag_466\n      tag_272\n      jump\t// in\n    tag_466:\n        /* \"#utility.yul\":17059:17096   */\n    tag_465:\n        /* \"#utility.yul\":16909:17103   */\n      swap3\n      swap2\n      pop\n      pop\n      jump\t// out\n        /* \"#utility.yul\":17109:17300   */\n    tag_99:\n        /* \"#utility.yul\":17149:17152   */\n      0x00\n        /* \"#utility.yul\":17168:17188   */\n      tag_468\n        /* \"#utility.yul\":17186:17187   */\n      dup3\n        /* \"#utility.yul\":17168:17188   */\n      tag_232\n      jump\t// in\n    tag_468:\n        /* \"#utility.yul\":17163:17188   */\n      swap2\n      pop\n        /* \"#utility.yul\":17202:17222   */\n      tag_469\n        /* \"#utility.yul\":17220:17221   */\n      dup4\n        /* \"#utility.yul\":17202:17222   */\n      tag_232\n      jump\t// in\n    tag_469:\n        /* \"#utility.yul\":17197:17222   */\n      swap3\n      pop\n        /* \"#utility.yul\":17245:17246   */\n      dup3\n        /* \"#utility.yul\":17242:17243   */\n      dup3\n        /* \"#utility.yul\":17238:17247   */\n      add\n        /* \"#utility.yul\":17231:17247   */\n      swap1\n      pop\n        /* \"#utility.yul\":17266:17269   */\n      dup1\n        /* \"#utility.yul\":17263:17264   */\n      dup3\n        /* \"#utility.yul\":17260:17270   */\n      gt\n        /* \"#utility.yul\":17257:17293   */\n      iszero\n      tag_470\n      jumpi\n        /* \"#utility.yul\":17273:17291   */\n      tag_471\n      tag_272\n      jump\t// in\n    tag_471:\n        /* \"#utility.yul\":17257:17293   */\n    tag_470:\n        /* \"#utility.yul\":17109:17300   */\n      swap3\n      swap2\n      pop\n      pop\n      jump\t// out\n        /* \"#utility.yul\":17306:17638   */\n    tag_104:\n        /* \"#utility.yul\":17427:17431   */\n      0x00\n        /* \"#utility.yul\":17465:17467   */\n      0x40\n        /* \"#utility.yul\":17454:17463   */\n      dup3\n        /* \"#utility.yul\":17450:17468   */\n      add\n        /* \"#utility.yul\":17442:17468   */\n      swap1\n      pop\n        /* \"#utility.yul\":17478:17549   */\n      tag_473\n        /* \"#utility.yul\":17546:17547   */\n      0x00\n        /* \"#utility.yul\":17535:17544   */\n      dup4\n        /* \"#utility.yul\":17531:17548   */\n      add\n        /* \"#utility.yul\":17522:17528   */\n      dup6\n        /* \"#utility.yul\":17478:17549   */\n      tag_242\n      jump\t// in\n    tag_473:\n        /* \"#utility.yul\":17559:17631   */\n      tag_474\n        /* \"#utility.yul\":17627:17629   */\n      0x20\n        /* \"#utility.yul\":17616:17625   */\n      dup4\n        /* \"#utility.yul\":17612:17630   */\n      add\n        /* \"#utility.yul\":17603:17609   */\n      dup5\n        /* \"#utility.yul\":17559:17631   */\n      tag_242\n      jump\t// in\n    tag_474:\n        /* \"#utility.yul\":17306:17638   */\n      swap4\n      swap3\n      pop\n      pop\n      pop\n      jump\t// out\n        /* \"#utility.yul\":17644:17824   */\n    tag_275:\n        /* \"#utility.yul\":17692:17769   */\n      0x4e487b7100000000000000000000000000000000000000000000000000000000\n        /* \"#utility.yul\":17689:17690   */\n      0x00\n        /* \"#utility.yul\":17682:17770   */\n      mstore\n        /* \"#utility.yul\":17789:17793   */\n      0x22\n        /* \"#utility.yul\":17786:17787   */\n      0x04\n        /* \"#utility.yul\":17779:17794   */\n      mstore\n        /* \"#utility.yul\":17813:17817   */\n      0x24\n        /* \"#utility.yul\":17810:17811   */\n      0x00\n        /* \"#utility.yul\":17803:17818   */\n      revert\n        /* \"#utility.yul\":17830:18150   */\n    tag_111:\n        /* \"#utility.yul\":17874:17880   */\n      0x00\n        /* \"#utility.yul\":17911:17912   */\n      0x02\n        /* \"#utility.yul\":17905:17909   */\n      dup3\n        /* \"#utility.yul\":17901:17913   */\n      div\n        /* \"#utility.yul\":17891:17913   */\n      swap1\n      pop\n        /* \"#utility.yul\":17958:17959   */\n      0x01\n        /* \"#utility.yul\":17952:17956   */\n      dup3\n        /* \"#utility.yul\":17948:17960   */\n      and\n        /* \"#utility.yul\":17979:17997   */\n      dup1\n        /* \"#utility.yul\":17969:18050   */\n      tag_477\n      jumpi\n        /* \"#utility.yul\":18035:18039   */\n      0x7f\n        /* \"#utility.yul\":18027:18033   */\n      dup3\n        /* \"#utility.yul\":18023:18040   */\n      and\n        /* \"#utility.yul\":18013:18040   */\n      swap2\n      pop\n        /* \"#utility.yul\":17969:18050   */\n    tag_477:\n        /* \"#utility.yul\":18097:18099   */\n      0x20\n        /* \"#utility.yul\":18089:18095   */\n      dup3\n        /* \"#utility.yul\":18086:18100   */\n      lt\n        /* \"#utility.yul\":18066:18084   */\n      dup2\n        /* \"#utility.yul\":18063:18101   */\n      sub\n        /* \"#utility.yul\":18060:18144   */\n      tag_478\n      jumpi\n        /* \"#utility.yul\":18116:18134   */\n      tag_479\n      tag_275\n      jump\t// in\n    tag_479:\n        /* \"#utility.yul\":18060:18144   */\n    tag_478:\n        /* \"#utility.yul\":17881:18150   */\n      pop\n        /* \"#utility.yul\":17830:18150   */\n      swap2\n      swap1\n      pop\n      jump\t// out\n        /* \"#utility.yul\":18156:18325   */\n    tag_276:\n        /* \"#utility.yul\":18296:18317   */\n      0x426f6f6b20646f6573206e6f7420657869737400000000000000000000000000\n        /* \"#utility.yul\":18292:18293   */\n      0x00\n        /* \"#utility.yul\":18284:18290   */\n      dup3\n        /* \"#utility.yul\":18280:18294   */\n      add\n        /* \"#utility.yul\":18273:18318   */\n      mstore\n        /* \"#utility.yul\":18156:18325   */\n      pop\n      jump\t// out\n        /* \"#utility.yul\":18331:18697   */\n    tag_277:\n        /* \"#utility.yul\":18473:18476   */\n      0x00\n        /* \"#utility.yul\":18494:18561   */\n      tag_482\n        /* \"#utility.yul\":18558:18560   */\n      0x13\n        /* \"#utility.yul\":18553:18556   */\n      dup4\n        /* \"#utility.yul\":18494:18561   */\n      tag_244\n      jump\t// in\n    tag_482:\n        /* \"#utility.yul\":18487:18561   */\n      swap2\n      pop\n        /* \"#utility.yul\":18570:18663   */\n      tag_483\n        /* \"#utility.yul\":18659:18662   */\n      dup3\n        /* \"#utility.yul\":18570:18663   */\n      tag_276\n      jump\t// in\n    tag_483:\n        /* \"#utility.yul\":18688:18690   */\n      0x20\n        /* \"#utility.yul\":18683:18686   */\n      dup3\n        /* \"#utility.yul\":18679:18691   */\n      add\n        /* \"#utility.yul\":18672:18691   */\n      swap1\n      pop\n        /* \"#utility.yul\":18331:18697   */\n      swap2\n      swap1\n      pop\n      jump\t// out\n        /* \"#utility.yul\":18703:19122   */\n    tag_144:\n        /* \"#utility.yul\":18869:18873   */\n      0x00\n        /* \"#utility.yul\":18907:18909   */\n      0x20\n        /* \"#utility.yul\":18896:18905   */\n      dup3\n        /* \"#utility.yul\":18892:18910   */\n      add\n        /* \"#utility.yul\":18884:18910   */\n      swap1\n      pop\n        /* \"#utility.yul\":18956:18965   */\n      dup2\n        /* \"#utility.yul\":18950:18954   */\n      dup2\n        /* \"#utility.yul\":18946:18966   */\n      sub\n        /* \"#utility.yul\":18942:18943   */\n      0x00\n        /* \"#utility.yul\":18931:18940   */\n      dup4\n        /* \"#utility.yul\":18927:18944   */\n      add\n        /* \"#utility.yul\":18920:18967   */\n      mstore\n        /* \"#utility.yul\":18984:19115   */\n      tag_485\n        /* \"#utility.yul\":19110:19114   */\n      dup2\n        /* \"#utility.yul\":18984:19115   */\n      tag_277\n      jump\t// in\n    tag_485:\n        /* \"#utility.yul\":18976:19115   */\n      swap1\n      pop\n        /* \"#utility.yul\":18703:19122   */\n      swap2\n      swap1\n      pop\n      jump\t// out\n        /* \"#utility.yul\":19128:19308   */\n    tag_153:\n        /* \"#utility.yul\":19176:19253   */\n      0x4e487b7100000000000000000000000000000000000000000000000000000000\n        /* \"#utility.yul\":19173:19174   */\n      0x00\n        /* \"#utility.yul\":19166:19254   */\n      mstore\n        /* \"#utility.yul\":19273:19277   */\n      0x32\n        /* \"#utility.yul\":19270:19271   */\n      0x04\n        /* \"#utility.yul\":19263:19278   */\n      mstore\n        /* \"#utility.yul\":19297:19301   */\n      0x24\n        /* \"#utility.yul\":19294:19295   */\n      0x00\n        /* \"#utility.yul\":19287:19302   */\n      revert\n        /* \"#utility.yul\":19314:19494   */\n    tag_165:\n        /* \"#utility.yul\":19362:19439   */\n      0x4e487b7100000000000000000000000000000000000000000000000000000000\n        /* \"#utility.yul\":19359:19360   */\n      0x00\n        /* \"#utility.yul\":19352:19440   */\n      mstore\n        /* \"#utility.yul\":19459:19463   */\n      0x31\n        /* \"#utility.yul\":19456:19457   */\n      0x04\n        /* \"#utility.yul\":19449:19464   */\n      mstore\n        /* \"#utility.yul\":19483:19487   */\n      0x24\n        /* \"#utility.yul\":19480:19481   */\n      0x00\n        /* \"#utility.yul\":19473:19488   */\n      revert\n        /* \"#utility.yul\":19500:19720   */\n    tag_278:\n        /* \"#utility.yul\":19640:19674   */\n      0x43414e4e4f542041444420424f4f4b20495420414c5245414459204558495354\n        /* \"#utility.yul\":19636:19637   */\n      0x00\n        /* \"#utility.yul\":19628:19634   */\n      dup3\n        /* \"#utility.yul\":19624:19638   */\n      add\n        /* \"#utility.yul\":19617:19675   */\n      mstore\n        /* \"#utility.yul\":19709:19712   */\n      0x5300000000000000000000000000000000000000000000000000000000000000\n        /* \"#utility.yul\":19704:19706   */\n      0x20\n        /* \"#utility.yul\":19696:19702   */\n      dup3\n        /* \"#utility.yul\":19692:19707   */\n      add\n        /* \"#utility.yul\":19685:19713   */\n      mstore\n        /* \"#utility.yul\":19500:19720   */\n      pop\n      jump\t// out\n        /* \"#utility.yul\":19726:20092   */\n    tag_279:\n        /* \"#utility.yul\":19868:19871   */\n      0x00\n        /* \"#utility.yul\":19889:19956   */\n      tag_490\n        /* \"#utility.yul\":19953:19955   */\n      0x21\n        /* \"#utility.yul\":19948:19951   */\n      dup4\n        /* \"#utility.yul\":19889:19956   */\n      tag_244\n      jump\t// in\n    tag_490:\n        /* \"#utility.yul\":19882:19956   */\n      swap2\n      pop\n        /* \"#utility.yul\":19965:20058   */\n      tag_491\n        /* \"#utility.yul\":20054:20057   */\n      dup3\n        /* \"#utility.yul\":19965:20058   */\n      tag_278\n      jump\t// in\n    tag_491:\n        /* \"#utility.yul\":20083:20085   */\n      0x40\n        /* \"#utility.yul\":20078:20081   */\n      dup3\n        /* \"#utility.yul\":20074:20086   */\n      add\n        /* \"#utility.yul\":20067:20086   */\n      swap1\n      pop\n        /* \"#utility.yul\":19726:20092   */\n      swap2\n      swap1\n      pop\n      jump\t// out\n        /* \"#utility.yul\":20098:20517   */\n    tag_176:\n        /* \"#utility.yul\":20264:20268   */\n      0x00\n        /* \"#utility.yul\":20302:20304   */\n      0x20\n        /* \"#utility.yul\":20291:20300   */\n      dup3\n        /* \"#utility.yul\":20287:20305   */\n      add\n        /* \"#utility.yul\":20279:20305   */\n      swap1\n      pop\n        /* \"#utility.yul\":20351:20360   */\n      dup2\n        /* \"#utility.yul\":20345:20349   */\n      dup2\n        /* \"#utility.yul\":20341:20361   */\n      sub\n        /* \"#utility.yul\":20337:20338   */\n      0x00\n        /* \"#utility.yul\":20326:20335   */\n      dup4\n        /* \"#utility.yul\":20322:20339   */\n      add\n        /* \"#utility.yul\":20315:20362   */\n      mstore\n        /* \"#utility.yul\":20379:20510   */\n      tag_493\n        /* \"#utility.yul\":20505:20509   */\n      dup2\n        /* \"#utility.yul\":20379:20510   */\n      tag_279\n      jump\t// in\n    tag_493:\n        /* \"#utility.yul\":20371:20510   */\n      swap1\n      pop\n        /* \"#utility.yul\":20098:20517   */\n      swap2\n      swap1\n      pop\n      jump\t// out\n        /* \"#utility.yul\":20523:20664   */\n    tag_280:\n        /* \"#utility.yul\":20572:20576   */\n      0x00\n        /* \"#utility.yul\":20595:20598   */\n      dup2\n        /* \"#utility.yul\":20587:20598   */\n      swap1\n      pop\n        /* \"#utility.yul\":20618:20621   */\n      dup2\n        /* \"#utility.yul\":20615:20616   */\n      0x00\n        /* \"#utility.yul\":20608:20622   */\n      mstore\n        /* \"#utility.yul\":20652:20656   */\n      0x20\n        /* \"#utility.yul\":20649:20650   */\n      0x00\n        /* \"#utility.yul\":20639:20657   */\n      keccak256\n        /* \"#utility.yul\":20631:20657   */\n      swap1\n      pop\n        /* \"#utility.yul\":20523:20664   */\n      swap2\n      swap1\n      pop\n      jump\t// out\n        /* \"#utility.yul\":20670:20763   */\n    tag_281:\n        /* \"#utility.yul\":20707:20713   */\n      0x00\n        /* \"#utility.yul\":20754:20756   */\n      0x20\n        /* \"#utility.yul\":20749:20751   */\n      0x1f\n        /* \"#utility.yul\":20742:20747   */\n      dup4\n        /* \"#utility.yul\":20738:20752   */\n      add\n        /* \"#utility.yul\":20734:20757   */\n      div\n        /* \"#utility.yul\":20724:20757   */\n      swap1\n      pop\n        /* \"#utility.yul\":20670:20763   */\n      swap2\n      swap1\n      pop\n      jump\t// out\n        /* \"#utility.yul\":20769:20876   */\n    tag_282:\n        /* \"#utility.yul\":20813:20821   */\n      0x00\n        /* \"#utility.yul\":20863:20868   */\n      dup3\n        /* \"#utility.yul\":20857:20861   */\n      dup3\n        /* \"#utility.yul\":20853:20869   */\n      shl\n        /* \"#utility.yul\":20832:20869   */\n      swap1\n      pop\n        /* \"#utility.yul\":20769:20876   */\n      swap3\n      swap2\n      pop\n      pop\n      jump\t// out\n        /* \"#utility.yul\":20882:21275   */\n    tag_283:\n        /* \"#utility.yul\":20951:20957   */\n      0x00\n        /* \"#utility.yul\":21001:21002   */\n      0x08\n        /* \"#utility.yul\":20989:20999   */\n      dup4\n        /* \"#utility.yul\":20985:21003   */\n      mul\n        /* \"#utility.yul\":21024:21121   */\n      tag_498\n        /* \"#utility.yul\":21054:21120   */\n      0xffffffffffffffffffffffffffffffffffffffffffffffffffffffffffffffff\n        /* \"#utility.yul\":21043:21052   */\n      dup3\n        /* \"#utility.yul\":21024:21121   */\n      tag_282\n      jump\t// in\n    tag_498:\n        /* \"#utility.yul\":21142:21181   */\n      tag_499\n        /* \"#utility.yul\":21172:21180   */\n      dup7\n        /* \"#utility.yul\":21161:21170   */\n      dup4\n        /* \"#utility.yul\":21142:21181   */\n      tag_282\n      jump\t// in\n    tag_499:\n        /* \"#utility.yul\":21130:21181   */\n      swap6\n      pop\n        /* \"#utility.yul\":21214:21218   */\n      dup1\n        /* \"#utility.yul\":21210:21219   */\n      not\n        /* \"#utility.yul\":21203:21208   */\n      dup5\n        /* \"#utility.yul\":21199:21220   */\n      and\n        /* \"#utility.yul\":21190:21220   */\n      swap4\n      pop\n        /* \"#utility.yul\":21263:21267   */\n      dup1\n        /* \"#utility.yul\":21253:21261   */\n      dup7\n        /* \"#utility.yul\":21249:21268   */\n      and\n        /* \"#utility.yul\":21242:21247   */\n      dup5\n        /* \"#utility.yul\":21239:21269   */\n      or\n        /* \"#utility.yul\":21229:21269   */\n      swap3\n      pop\n        /* \"#utility.yul\":20958:21275   */\n      pop\n      pop\n        /* \"#utility.yul\":20882:21275   */\n      swap4\n      swap3\n      pop\n      pop\n      pop\n      jump\t// out\n        /* \"#utility.yul\":21281:21341   */\n    tag_284:\n        /* \"#utility.yul\":21309:21312   */\n      0x00\n        /* \"#utility.yul\":21330:21335   */\n      dup2\n        /* \"#utility.yul\":21323:21335   */\n      swap1\n      pop\n        /* \"#utility.yul\":21281:21341   */\n      swap2\n      swap1\n      pop\n      jump\t// out\n        /* \"#utility.yul\":21347:21489   */\n    tag_285:\n        /* \"#utility.yul\":21397:21406   */\n      0x00\n        /* \"#utility.yul\":21430:21483   */\n      tag_502\n        /* \"#utility.yul\":21448:21482   */\n      tag_503\n        /* \"#utility.yul\":21457:21481   */\n      tag_504\n        /* \"#utility.yul\":21475:21480   */\n      dup5\n        /* \"#utility.yul\":21457:21481   */\n      tag_232\n      jump\t// in\n    tag_504:\n        /* \"#utility.yul\":21448:21482   */\n      tag_284\n      jump\t// in\n    tag_503:\n        /* \"#utility.yul\":21430:21483   */\n      tag_232\n      jump\t// in\n    tag_502:\n        /* \"#utility.yul\":21417:21483   */\n      swap1\n      pop\n        /* \"#utility.yul\":21347:21489   */\n      swap2\n      swap1\n      pop\n      jump\t// out\n        /* \"#utility.yul\":21495:21570   */\n    tag_286:\n        /* \"#utility.yul\":21538:21541   */\n      0x00\n        /* \"#utility.yul\":21559:21564   */\n      dup2\n        /* \"#utility.yul\":21552:21564   */\n      swap1\n      pop\n        /* \"#utility.yul\":21495:21570   */\n      swap2\n      swap1\n      pop\n      jump\t// out\n        /* \"#utility.yul\":21576:21845   */\n    tag_287:\n        /* \"#utility.yul\":21686:21725   */\n      tag_507\n        /* \"#utility.yul\":21717:21724   */\n      dup4\n        /* \"#utility.yul\":21686:21725   */\n      tag_285\n      jump\t// in\n    tag_507:\n        /* \"#utility.yul\":21747:21838   */\n      tag_508\n        /* \"#utility.yul\":21796:21837   */\n      tag_509\n        /* \"#utility.yul\":21820:21836   */\n      dup3\n        /* \"#utility.yul\":21796:21837   */\n      tag_286\n      jump\t// in\n    tag_509:\n        /* \"#utility.yul\":21788:21794   */\n      dup5\n        /* \"#utility.yul\":21781:21785   */\n      dup5\n        /* \"#utility.yul\":21775:21786   */\n      sload\n        /* \"#utility.yul\":21747:21838   */\n      tag_283\n      jump\t// in\n    tag_508:\n        /* \"#utility.yul\":21741:21745   */\n      dup3\n        /* \"#utility.yul\":21734:21839   */\n      sstore\n        /* \"#utility.yul\":21652:21845   */\n      pop\n        /* \"#utility.yul\":21576:21845   */\n      pop\n      pop\n      pop\n      jump\t// out\n        /* \"#utility.yul\":21851:21924   */\n    tag_288:\n        /* \"#utility.yul\":21896:21899   */\n      0x00\n        /* \"#utility.yul\":21851:21924   */\n      swap1\n      jump\t// out\n        /* \"#utility.yul\":21930:22119   */\n    tag_289:\n        /* \"#utility.yul\":22007:22039   */\n      tag_512\n      tag_288\n      jump\t// in\n    tag_512:\n        /* \"#utility.yul\":22048:22113   */\n      tag_513\n        /* \"#utility.yul\":22106:22112   */\n      dup2\n        /* \"#utility.yul\":22098:22104   */\n      dup5\n        /* \"#utility.yul\":22092:22096   */\n      dup5\n        /* \"#utility.yul\":22048:22113   */\n      tag_287\n      jump\t// in\n    tag_513:\n        /* \"#utility.yul\":21983:22119   */\n      pop\n        /* \"#utility.yul\":21930:22119   */\n      pop\n      pop\n      jump\t// out\n        /* \"#utility.yul\":22125:22311   */\n    tag_290:\n        /* \"#utility.yul\":22185:22305   */\n    tag_515:\n        /* \"#utility.yul\":22202:22205   */\n      dup2\n        /* \"#utility.yul\":22195:22200   */\n      dup2\n        /* \"#utility.yul\":22192:22206   */\n      lt\n        /* \"#utility.yul\":22185:22305   */\n      iszero\n      tag_517\n      jumpi\n        /* \"#utility.yul\":22256:22295   */\n      tag_518\n        /* \"#utility.yul\":22293:22294   */\n      0x00\n        /* \"#utility.yul\":22286:22291   */\n      dup3\n        /* \"#utility.yul\":22256:22295   */\n      tag_289\n      jump\t// in\n    tag_518:\n        /* \"#utility.yul\":22229:22230   */\n      0x01\n        /* \"#utility.yul\":22222:22227   */\n      dup2\n        /* \"#utility.yul\":22218:22231   */\n      add\n        /* \"#utility.yul\":22209:22231   */\n      swap1\n      pop\n        /* \"#utility.yul\":22185:22305   */\n      jump(tag_515)\n    tag_517:\n        /* \"#utility.yul\":22125:22311   */\n      pop\n      pop\n      jump\t// out\n        /* \"#utility.yul\":22317:22860   */\n    tag_291:\n        /* \"#utility.yul\":22418:22420   */\n      0x1f\n        /* \"#utility.yul\":22413:22416   */\n      dup3\n        /* \"#utility.yul\":22410:22421   */\n      gt\n        /* \"#utility.yul\":22407:22853   */\n      iszero\n      tag_520\n      jumpi\n        /* \"#utility.yul\":22452:22490   */\n      tag_521\n        /* \"#utility.yul\":22484:22489   */\n      dup2\n        /* \"#utility.yul\":22452:22490   */\n      tag_280\n      jump\t// in\n    tag_521:\n        /* \"#utility.yul\":22536:22565   */\n      tag_522\n        /* \"#utility.yul\":22554:22564   */\n      dup5\n        /* \"#utility.yul\":22536:22565   */\n      tag_281\n      jump\t// in\n    tag_522:\n        /* \"#utility.yul\":22526:22534   */\n      dup2\n        /* \"#utility.yul\":22522:22566   */\n      add\n        /* \"#utility.yul\":22719:22721   */\n      0x20\n        /* \"#utility.yul\":22707:22717   */\n      dup6\n        /* \"#utility.yul\":22704:22722   */\n      lt\n        /* \"#utility.yul\":22701:22750   */\n      iszero\n      tag_523\n      jumpi\n        /* \"#utility.yul\":22740:22748   */\n      dup2\n        /* \"#utility.yul\":22725:22748   */\n      swap1\n      pop\n        /* \"#utility.yul\":22701:22750   */\n    tag_523:\n        /* \"#utility.yul\":22763:22843   */\n      tag_524\n        /* \"#utility.yul\":22819:22841   */\n      tag_525\n        /* \"#utility.yul\":22837:22840   */\n      dup6\n        /* \"#utility.yul\":22819:22841   */\n      tag_281\n      jump\t// in\n    tag_525:\n        /* \"#utility.yul\":22809:22817   */\n      dup4\n        /* \"#utility.yul\":22805:22842   */\n      add\n        /* \"#utility.yul\":22792:22803   */\n      dup3\n        /* \"#utility.yul\":22763:22843   */\n      tag_290\n      jump\t// in\n    tag_524:\n        /* \"#utility.yul\":22422:22853   */\n      pop\n      pop\n        /* \"#utility.yul\":22407:22853   */\n    tag_520:\n        /* \"#utility.yul\":22317:22860   */\n      pop\n      pop\n      pop\n      jump\t// out\n        /* \"#utility.yul\":22866:22983   */\n    tag_292:\n        /* \"#utility.yul\":22920:22928   */\n      0x00\n        /* \"#utility.yul\":22970:22975   */\n      dup3\n        /* \"#utility.yul\":22964:22968   */\n      dup3\n        /* \"#utility.yul\":22960:22976   */\n      shr\n        /* \"#utility.yul\":22939:22976   */\n      swap1\n      pop\n        /* \"#utility.yul\":22866:22983   */\n      swap3\n      swap2\n      pop\n      pop\n      jump\t// out\n        /* \"#utility.yul\":22989:23158   */\n    tag_293:\n        /* \"#utility.yul\":23033:23039   */\n      0x00\n        /* \"#utility.yul\":23066:23117   */\n      tag_528\n        /* \"#utility.yul\":23114:23115   */\n      0x00\n        /* \"#utility.yul\":23110:23116   */\n      not\n        /* \"#utility.yul\":23102:23107   */\n      dup5\n        /* \"#utility.yul\":23099:23100   */\n      0x08\n        /* \"#utility.yul\":23095:23108   */\n      mul\n        /* \"#utility.yul\":23066:23117   */\n      tag_292\n      jump\t// in\n    tag_528:\n        /* \"#utility.yul\":23062:23118   */\n      not\n        /* \"#utility.yul\":23147:23151   */\n      dup1\n        /* \"#utility.yul\":23141:23145   */\n      dup4\n        /* \"#utility.yul\":23137:23152   */\n      and\n        /* \"#utility.yul\":23127:23152   */\n      swap2\n      pop\n        /* \"#utility.yul\":23040:23158   */\n      pop\n        /* \"#utility.yul\":22989:23158   */\n      swap3\n      swap2\n      pop\n      pop\n      jump\t// out\n        /* \"#utility.yul\":23163:23458   */\n    tag_294:\n        /* \"#utility.yul\":23239:23243   */\n      0x00\n        /* \"#utility.yul\":23385:23414   */\n      tag_530\n        /* \"#utility.yul\":23410:23413   */\n      dup4\n        /* \"#utility.yul\":23404:23408   */\n      dup4\n        /* \"#utility.yul\":23385:23414   */\n      tag_293\n      jump\t// in\n    tag_530:\n        /* \"#utility.yul\":23377:23414   */\n      swap2\n      pop\n        /* \"#utility.yul\":23447:23450   */\n      dup3\n        /* \"#utility.yul\":23444:23445   */\n      0x02\n        /* \"#utility.yul\":23440:23451   */\n      mul\n        /* \"#utility.yul\":23434:23438   */\n      dup3\n        /* \"#utility.yul\":23431:23452   */\n      or\n        /* \"#utility.yul\":23423:23452   */\n      swap1\n      pop\n        /* \"#utility.yul\":23163:23458   */\n      swap3\n      swap2\n      pop\n      pop\n      jump\t// out\n        /* \"#utility.yul\":23463:24858   */\n    tag_178:\n        /* \"#utility.yul\":23580:23617   */\n      tag_532\n        /* \"#utility.yul\":23613:23616   */\n      dup3\n        /* \"#utility.yul\":23580:23617   */\n      tag_243\n      jump\t// in\n    tag_532:\n        /* \"#utility.yul\":23682:23700   */\n      0xffffffffffffffff\n        /* \"#utility.yul\":23674:23680   */\n      dup2\n        /* \"#utility.yul\":23671:23701   */\n      gt\n        /* \"#utility.yul\":23668:23724   */\n      iszero\n      tag_533\n      jumpi\n        /* \"#utility.yul\":23704:23722   */\n      tag_534\n      tag_257\n      jump\t// in\n    tag_534:\n        /* \"#utility.yul\":23668:23724   */\n    tag_533:\n        /* \"#utility.yul\":23748:23786   */\n      tag_535\n        /* \"#utility.yul\":23780:23784   */\n      dup3\n        /* \"#utility.yul\":23774:23785   */\n      sload\n        /* \"#utility.yul\":23748:23786   */\n      tag_111\n      jump\t// in\n    tag_535:\n        /* \"#utility.yul\":23833:23900   */\n      tag_536\n        /* \"#utility.yul\":23893:23899   */\n      dup3\n        /* \"#utility.yul\":23885:23891   */\n      dup3\n        /* \"#utility.yul\":23879:23883   */\n      dup6\n        /* \"#utility.yul\":23833:23900   */\n      tag_291\n      jump\t// in\n    tag_536:\n        /* \"#utility.yul\":23927:23928   */\n      0x00\n        /* \"#utility.yul\":23951:23955   */\n      0x20\n        /* \"#utility.yul\":23938:23955   */\n      swap1\n      pop\n        /* \"#utility.yul\":23983:23985   */\n      0x1f\n        /* \"#utility.yul\":23975:23981   */\n      dup4\n        /* \"#utility.yul\":23972:23986   */\n      gt\n        /* \"#utility.yul\":24000:24001   */\n      0x01\n        /* \"#utility.yul\":23995:24613   */\n      dup2\n      eq\n      tag_538\n      jumpi\n        /* \"#utility.yul\":24657:24658   */\n      0x00\n        /* \"#utility.yul\":24674:24680   */\n      dup5\n        /* \"#utility.yul\":24671:24748   */\n      iszero\n      tag_539\n      jumpi\n        /* \"#utility.yul\":24723:24732   */\n      dup3\n        /* \"#utility.yul\":24718:24721   */\n      dup8\n        /* \"#utility.yul\":24714:24733   */\n      add\n        /* \"#utility.yul\":24708:24734   */\n      mload\n        /* \"#utility.yul\":24699:24734   */\n      swap1\n      pop\n        /* \"#utility.yul\":24671:24748   */\n    tag_539:\n        /* \"#utility.yul\":24774:24841   */\n      tag_540\n        /* \"#utility.yul\":24834:24840   */\n      dup6\n        /* \"#utility.yul\":24827:24832   */\n      dup3\n        /* \"#utility.yul\":24774:24841   */\n      tag_294\n      jump\t// in\n    tag_540:\n        /* \"#utility.yul\":24768:24772   */\n      dup7\n        /* \"#utility.yul\":24761:24842   */\n      sstore\n        /* \"#utility.yul\":24630:24852   */\n      pop\n        /* \"#utility.yul\":23965:24852   */\n      jump(tag_537)\n        /* \"#utility.yul\":23995:24613   */\n    tag_538:\n        /* \"#utility.yul\":24047:24051   */\n      0x1f\n        /* \"#utility.yul\":24043:24052   */\n      not\n        /* \"#utility.yul\":24035:24041   */\n      dup5\n        /* \"#utility.yul\":24031:24053   */\n      and\n        /* \"#utility.yul\":24081:24118   */\n      tag_541\n        /* \"#utility.yul\":24113:24117   */\n      dup7\n        /* \"#utility.yul\":24081:24118   */\n      tag_280\n      jump\t// in\n    tag_541:\n        /* \"#utility.yul\":24140:24141   */\n      0x00\n        /* \"#utility.yul\":24154:24362   */\n    tag_542:\n        /* \"#utility.yul\":24168:24175   */\n      dup3\n        /* \"#utility.yul\":24165:24166   */\n      dup2\n        /* \"#utility.yul\":24162:24176   */\n      lt\n        /* \"#utility.yul\":24154:24362   */\n      iszero\n      tag_544\n      jumpi\n        /* \"#utility.yul\":24247:24256   */\n      dup5\n        /* \"#utility.yul\":24242:24245   */\n      dup10\n        /* \"#utility.yul\":24238:24257   */\n      add\n        /* \"#utility.yul\":24232:24258   */\n      mload\n        /* \"#utility.yul\":24224:24230   */\n      dup3\n        /* \"#utility.yul\":24217:24259   */\n      sstore\n        /* \"#utility.yul\":24298:24299   */\n      0x01\n        /* \"#utility.yul\":24290:24296   */\n      dup3\n        /* \"#utility.yul\":24286:24300   */\n      add\n        /* \"#utility.yul\":24276:24300   */\n      swap2\n      pop\n        /* \"#utility.yul\":24345:24347   */\n      0x20\n        /* \"#utility.yul\":24334:24343   */\n      dup6\n        /* \"#utility.yul\":24330:24348   */\n      add\n        /* \"#utility.yul\":24317:24348   */\n      swap5\n      pop\n        /* \"#utility.yul\":24191:24195   */\n      0x20\n        /* \"#utility.yul\":24188:24189   */\n      dup2\n        /* \"#utility.yul\":24184:24196   */\n      add\n        /* \"#utility.yul\":24179:24196   */\n      swap1\n      pop\n        /* \"#utility.yul\":24154:24362   */\n      jump(tag_542)\n    tag_544:\n        /* \"#utility.yul\":24390:24396   */\n      dup7\n        /* \"#utility.yul\":24381:24388   */\n      dup4\n        /* \"#utility.yul\":24378:24397   */\n      lt\n        /* \"#utility.yul\":24375:24554   */\n      iszero\n      tag_545\n      jumpi\n        /* \"#utility.yul\":24448:24457   */\n      dup5\n        /* \"#utility.yul\":24443:24446   */\n      dup10\n        /* \"#utility.yul\":24439:24458   */\n      add\n        /* \"#utility.yul\":24433:24459   */\n      mload\n        /* \"#utility.yul\":24491:24539   */\n      tag_546\n        /* \"#utility.yul\":24533:24537   */\n      0x1f\n        /* \"#utility.yul\":24525:24531   */\n      dup10\n        /* \"#utility.yul\":24521:24538   */\n      and\n        /* \"#utility.yul\":24510:24519   */\n      dup3\n        /* \"#utility.yul\":24491:24539   */\n      tag_293\n      jump\t// in\n    tag_546:\n        /* \"#utility.yul\":24483:24489   */\n      dup4\n        /* \"#utility.yul\":24476:24540   */\n      sstore\n        /* \"#utility.yul\":24398:24554   */\n      pop\n        /* \"#utility.yul\":24375:24554   */\n    tag_545:\n        /* \"#utility.yul\":24600:24601   */\n      0x01\n        /* \"#utility.yul\":24596:24597   */\n      0x02\n        /* \"#utility.yul\":24588:24594   */\n      dup9\n        /* \"#utility.yul\":24584:24598   */\n      mul\n        /* \"#utility.yul\":24580:24602   */\n      add\n        /* \"#utility.yul\":24574:24578   */\n      dup9\n        /* \"#utility.yul\":24567:24603   */\n      sstore\n        /* \"#utility.yul\":24002:24613   */\n      pop\n      pop\n      pop\n        /* \"#utility.yul\":23965:24852   */\n    tag_537:\n      pop\n        /* \"#utility.yul\":23555:24858   */\n      pop\n      pop\n      pop\n        /* \"#utility.yul\":23463:24858   */\n      pop\n      pop\n      jump\t// out\n        /* \"#utility.yul\":24864:25599   */\n    tag_182:\n        /* \"#utility.yul\":25081:25085   */\n      0x00\n        /* \"#utility.yul\":25119:25122   */\n      0x80\n        /* \"#utility.yul\":25108:25117   */\n      dup3\n        /* \"#utility.yul\":25104:25123   */\n      add\n        /* \"#utility.yul\":25096:25123   */\n      swap1\n      pop\n        /* \"#utility.yul\":25169:25178   */\n      dup2\n        /* \"#utility.yul\":25163:25167   */\n      dup2\n        /* \"#utility.yul\":25159:25179   */\n      sub\n        /* \"#utility.yul\":25155:25156   */\n      0x00\n        /* \"#utility.yul\":25144:25153   */\n      dup4\n        /* \"#utility.yul\":25140:25157   */\n      add\n        /* \"#utility.yul\":25133:25180   */\n      mstore\n        /* \"#utility.yul\":25197:25275   */\n      tag_548\n        /* \"#utility.yul\":25270:25274   */\n      dup2\n        /* \"#utility.yul\":25261:25267   */\n      dup8\n        /* \"#utility.yul\":25197:25275   */\n      tag_247\n      jump\t// in\n    tag_548:\n        /* \"#utility.yul\":25189:25275   */\n      swap1\n      pop\n        /* \"#utility.yul\":25322:25331   */\n      dup2\n        /* \"#utility.yul\":25316:25320   */\n      dup2\n        /* \"#utility.yul\":25312:25332   */\n      sub\n        /* \"#utility.yul\":25307:25309   */\n      0x20\n        /* \"#utility.yul\":25296:25305   */\n      dup4\n        /* \"#utility.yul\":25292:25310   */\n      add\n        /* \"#utility.yul\":25285:25333   */\n      mstore\n        /* \"#utility.yul\":25350:25428   */\n      tag_549\n        /* \"#utility.yul\":25423:25427   */\n      dup2\n        /* \"#utility.yul\":25414:25420   */\n      dup7\n        /* \"#utility.yul\":25350:25428   */\n      tag_247\n      jump\t// in\n    tag_549:\n        /* \"#utility.yul\":25342:25428   */\n      swap1\n      pop\n        /* \"#utility.yul\":25438:25510   */\n      tag_550\n        /* \"#utility.yul\":25506:25508   */\n      0x40\n        /* \"#utility.yul\":25495:25504   */\n      dup4\n        /* \"#utility.yul\":25491:25509   */\n      add\n        /* \"#utility.yul\":25482:25488   */\n      dup6\n        /* \"#utility.yul\":25438:25510   */\n      tag_242\n      jump\t// in\n    tag_550:\n        /* \"#utility.yul\":25520:25592   */\n      tag_551\n        /* \"#utility.yul\":25588:25590   */\n      0x60\n        /* \"#utility.yul\":25577:25586   */\n      dup4\n        /* \"#utility.yul\":25573:25591   */\n      add\n        /* \"#utility.yul\":25564:25570   */\n      dup5\n        /* \"#utility.yul\":25520:25592   */\n      tag_242\n      jump\t// in\n    tag_551:\n        /* \"#utility.yul\":24864:25599   */\n      swap6\n      swap5\n      pop\n      pop\n      pop\n      pop\n      pop\n      jump\t// out\n\n    auxdata: 0xa264697066735822122054e8c2dce06414f210bbd414d184dd576a873372edf52ecce91fd0e08c780c7964736f6c634300081a0033\n}\n",
				"bytecode": {
					"linkReferences": {},
					"object": "608060405234801561000f575f80fd5b50335f73ffffffffffffffffffffffffffffffffffffffff168173ffffffffffffffffffffffffffffffffffffffff1603610081575f6040517f1e4fbdf70000000000000000000000000000000000000000000000000000000081526004016100789190610196565b60405180910390fd5b6100908161009660201b60201c565b506101af565b5f805f9054906101000a900473ffffffffffffffffffffffffffffffffffffffff169050815f806101000a81548173ffffffffffffffffffffffffffffffffffffffff021916908373ffffffffffffffffffffffffffffffffffffffff1602179055508173ffffffffffffffffffffffffffffffffffffffff168173ffffffffffffffffffffffffffffffffffffffff167f8be0079c531659141344cd1fd0a4f28419497f9722a3daafe3b4186f6b6457e060405160405180910390a35050565b5f73ffffffffffffffffffffffffffffffffffffffff82169050919050565b5f61018082610157565b9050919050565b61019081610176565b82525050565b5f6020820190506101a95f830184610187565b92915050565b611d07806101bc5f395ff3fe6080604052600436106100c1575f3560e01c8063715018a61161007e578063bec0d79911610058578063bec0d7991461025b578063f2fde38b14610283578063f733719c146102ab578063f98520de146102d3576100c1565b8063715018a6146101f15780638da5cb5b146102075780639bd3088314610231576100c1565b8063354528e8146100c55780633af8c2d5146100ef578063513073b81461010b578063590791f2146101475780635ac3e19e1461017157806368744046146101b1575b5f80fd5b3480156100d0575f80fd5b506100d96102fb565b6040516100e6919061106d565b60405180910390f35b610109600480360381019061010491906110c8565b610351565b005b348015610116575f80fd5b50610131600480360381019061012c9190611106565b610543565b60405161013e9190611140565b60405180910390f35b348015610152575f80fd5b5061015b610563565b6040516101689190611140565b60405180910390f35b34801561017c575f80fd5b5061019760048036038101906101929190611106565b610588565b6040516101a89594939291906111e3565b60405180910390f35b3480156101bc575f80fd5b506101d760048036038101906101d29190611106565b610726565b6040516101e8959493929190611242565b60405180910390f35b3480156101fc575f80fd5b50610205610870565b005b348015610212575f80fd5b5061021b610883565b60405161022891906112e0565b60405180910390f35b34801561023c575f80fd5b506102456108aa565b6040516102529190611140565b60405180910390f35b348015610266575f80fd5b50610281600480360381019061027c9190611106565b6108b3565b005b34801561028e575f80fd5b506102a960048036038101906102a49190611323565b610a4b565b005b3480156102b6575f80fd5b506102d160048036038101906102cc919061147a565b610acf565b005b3480156102de575f80fd5b506102f960048036038101906102f491906115ed565b610c2c565b005b6060600380548060200260200160405190810160405280929190818152602001828054801561034757602002820191905f5260205f20905b815481526020019060010190808311610333575b5050505050905090565b5f60025f8481526020019081526020015f209050806002015f9054906101000a900460ff166103b5576040517f08c379a00000000000000000000000000000000000000000000000000000000081526004016103ac9061167e565b60405180910390fd5b81815f015410156103fb576040517f08c379a00000000000000000000000000000000000000000000000000000000081526004016103f2906116e6565b60405180910390fd5b81816001015461040b9190611731565b341461044c576040517f08c379a0000000000000000000000000000000000000000000000000000000008152600401610443906117bc565b60405180910390fd5b81815f015f82825461045e91906117da565b925050819055505f815f01540361048b575f816002015f6101000a81548160ff0219169083151502179055505b8160015f82825461049c919061180d565b925050819055506104ab610883565b73ffffffffffffffffffffffffffffffffffffffff166108fc3490811502906040515f60405180830381858888f193505050501580156104ed573d5f803e3d5ffd5b503373ffffffffffffffffffffffffffffffffffffffff167f439c08b00222293c6073f3ee383214541a4a21aca7dbb0a45963f86fa8e589f78484604051610536929190611840565b60405180910390a2505050565b60038181548110610552575f80fd5b905f5260205f20015f915090505481565b5f61056c610883565b73ffffffffffffffffffffffffffffffffffffffff1631905090565b6060805f805f8060025f8881526020019081526020015f206040518060a00160405290815f820154815260200160018201548152602001600282015f9054906101000a900460ff161515151581526020016003820180546105e890611894565b80601f016020809104026020016040519081016040528092919081815260200182805461061490611894565b801561065f5780601f106106365761010080835404028352916020019161065f565b820191905f5260205f20905b81548152906001019060200180831161064257829003601f168201915b5050505050815260200160048201805461067890611894565b80601f01602080910402602001604051908101604052809291908181526020018280546106a490611894565b80156106ef5780601f106106c6576101008083540402835291602001916106ef565b820191905f5260205f20905b8154815290600101906020018083116106d257829003601f168201915b5050505050815250509050806060015181608001518260200151835f01518460400151955095509550955095505091939590929450565b6002602052805f5260405f205f91509050805f015490806001015490806002015f9054906101000a900460ff169080600301805461076390611894565b80601f016020809104026020016040519081016040528092919081815260200182805461078f90611894565b80156107da5780601f106107b1576101008083540402835291602001916107da565b820191905f5260205f20905b8154815290600101906020018083116107bd57829003601f168201915b5050505050908060040180546107ef90611894565b80601f016020809104026020016040519081016040528092919081815260200182805461081b90611894565b80156108665780601f1061083d57610100808354040283529160200191610866565b820191905f5260205f20905b81548152906001019060200180831161084957829003601f168201915b5050505050905085565b610878610e06565b6108815f610e8d565b565b5f805f9054906101000a900473ffffffffffffffffffffffffffffffffffffffff16905090565b5f600154905090565b6108bb610e06565b5f60025f8381526020019081526020015f206001015403610911576040517f08c379a00000000000000000000000000000000000000000000000000000000081526004016109089061190e565b60405180910390fd5b60025f8281526020019081526020015f205f8082015f9055600182015f9055600282015f6101000a81549060ff0219169055600382015f6109529190610f55565b600482015f6109619190610f55565b50505f5b600380549050811015610a1a5781600382815481106109875761098661192c565b5b905f5260205f20015403610a0d57600360016003805490506109a991906117da565b815481106109ba576109b961192c565b5b905f5260205f200154600382815481106109d7576109d661192c565b5b905f5260205f20018190555060038054806109f5576109f4611959565b5b600190038181905f5260205f20015f90559055610a1a565b8080600101915050610965565b50807f3c5ce13264433bcf97e5d53c97af4fc33800e8c9dd927f965b116d0018d7cddf60405160405180910390a250565b610a53610e06565b5f73ffffffffffffffffffffffffffffffffffffffff168173ffffffffffffffffffffffffffffffffffffffff1603610ac3575f6040517f1e4fbdf7000000000000000000000000000000000000000000000000000000008152600401610aba91906112e0565b60405180910390fd5b610acc81610e8d565b50565b5f60025f8781526020019081526020015f206001015414610b25576040517f08c379a0000000000000000000000000000000000000000000000000000000008152600401610b1c906119f6565b60405180910390fd5b6040518060a001604052808381526020018281526020015f8411151581526020018581526020018481525060025f8781526020019081526020015f205f820151815f0155602082015181600101556040820151816002015f6101000a81548160ff0219169083151502179055506060820151816003019081610ba79190611bb1565b506080820151816004019081610bbd9190611bb1565b50905050600385908060018154018082558091505060019003905f5260205f20015f9091909190915055847f722c04650224f771c04ec5712c74689980b3ddb4eaa233cd8f9c72d7da7fbe2985858585604051610c1d9493929190611c80565b60405180910390a25050505050565b610c34610e06565b5f5b8151811015610dcb575f828281518110610c5357610c5261192c565b5b602002602001015190505f60025f8381526020019081526020015f206001015403610cb3576040517f08c379a0000000000000000000000000000000000000000000000000000000008152600401610caa9061190e565b60405180910390fd5b60025f8281526020019081526020015f205f8082015f9055600182015f9055600282015f6101000a81549060ff0219169055600382015f610cf49190610f55565b600482015f610d039190610f55565b50505f5b600380549050811015610dbc578160038281548110610d2957610d2861192c565b5b905f5260205f20015403610daf5760036001600380549050610d4b91906117da565b81548110610d5c57610d5b61192c565b5b905f5260205f20015460038281548110610d7957610d7861192c565b5b905f5260205f2001819055506003805480610d9757610d96611959565b5b600190038181905f5260205f20015f90559055610dbc565b8080600101915050610d07565b50508080600101915050610c36565b507f7262be1e48c30c363173fcb2fbf2dc2cb38d076dee42cc37cdfbdf62af5c3bed81604051610dfb919061106d565b60405180910390a150565b610e0e610f4e565b73ffffffffffffffffffffffffffffffffffffffff16610e2c610883565b73ffffffffffffffffffffffffffffffffffffffff1614610e8b57610e4f610f4e565b6040517f118cdaa7000000000000000000000000000000000000000000000000000000008152600401610e8291906112e0565b60405180910390fd5b565b5f805f9054906101000a900473ffffffffffffffffffffffffffffffffffffffff169050815f806101000a81548173ffffffffffffffffffffffffffffffffffffffff021916908373ffffffffffffffffffffffffffffffffffffffff1602179055508173ffffffffffffffffffffffffffffffffffffffff168173ffffffffffffffffffffffffffffffffffffffff167f8be0079c531659141344cd1fd0a4f28419497f9722a3daafe3b4186f6b6457e060405160405180910390a35050565b5f33905090565b508054610f6190611894565b5f825580601f10610f725750610f8f565b601f0160209004905f5260205f2090810190610f8e9190610f92565b5b50565b5b80821115610fa9575f815f905550600101610f93565b5090565b5f81519050919050565b5f82825260208201905092915050565b5f819050602082019050919050565b5f819050919050565b610fe881610fd6565b82525050565b5f610ff98383610fdf565b60208301905092915050565b5f602082019050919050565b5f61101b82610fad565b6110258185610fb7565b935061103083610fc7565b805f5b838110156110605781516110478882610fee565b975061105283611005565b925050600181019050611033565b5085935050505092915050565b5f6020820190508181035f8301526110858184611011565b905092915050565b5f604051905090565b5f80fd5b5f80fd5b6110a781610fd6565b81146110b1575f80fd5b50565b5f813590506110c28161109e565b92915050565b5f80604083850312156110de576110dd611096565b5b5f6110eb858286016110b4565b92505060206110fc858286016110b4565b9150509250929050565b5f6020828403121561111b5761111a611096565b5b5f611128848285016110b4565b91505092915050565b61113a81610fd6565b82525050565b5f6020820190506111535f830184611131565b92915050565b5f81519050919050565b5f82825260208201905092915050565b8281835e5f83830152505050565b5f601f19601f8301169050919050565b5f61119b82611159565b6111a58185611163565b93506111b5818560208601611173565b6111be81611181565b840191505092915050565b5f8115159050919050565b6111dd816111c9565b82525050565b5f60a0820190508181035f8301526111fb8188611191565b9050818103602083015261120f8187611191565b905061121e6040830186611131565b61122b6060830185611131565b61123860808301846111d4565b9695505050505050565b5f60a0820190506112555f830188611131565b6112626020830187611131565b61126f60408301866111d4565b81810360608301526112818185611191565b905081810360808301526112958184611191565b90509695505050505050565b5f73ffffffffffffffffffffffffffffffffffffffff82169050919050565b5f6112ca826112a1565b9050919050565b6112da816112c0565b82525050565b5f6020820190506112f35f8301846112d1565b92915050565b611302816112c0565b811461130c575f80fd5b50565b5f8135905061131d816112f9565b92915050565b5f6020828403121561133857611337611096565b5b5f6113458482850161130f565b91505092915050565b5f80fd5b5f80fd5b7f4e487b71000000000000000000000000000000000000000000000000000000005f52604160045260245ffd5b61138c82611181565b810181811067ffffffffffffffff821117156113ab576113aa611356565b5b80604052505050565b5f6113bd61108d565b90506113c98282611383565b919050565b5f67ffffffffffffffff8211156113e8576113e7611356565b5b6113f182611181565b9050602081019050919050565b828183375f83830152505050565b5f61141e611419846113ce565b6113b4565b90508281526020810184848401111561143a57611439611352565b5b6114458482856113fe565b509392505050565b5f82601f8301126114615761146061134e565b5b813561147184826020860161140c565b91505092915050565b5f805f805f60a0868803121561149357611492611096565b5b5f6114a0888289016110b4565b955050602086013567ffffffffffffffff8111156114c1576114c061109a565b5b6114cd8882890161144d565b945050604086013567ffffffffffffffff8111156114ee576114ed61109a565b5b6114fa8882890161144d565b935050606061150b888289016110b4565b925050608061151c888289016110b4565b9150509295509295909350565b5f67ffffffffffffffff82111561154357611542611356565b5b602082029050602081019050919050565b5f80fd5b5f61156a61156584611529565b6113b4565b9050808382526020820190506020840283018581111561158d5761158c611554565b5b835b818110156115b657806115a288826110b4565b84526020840193505060208101905061158f565b5050509392505050565b5f82601f8301126115d4576115d361134e565b5b81356115e4848260208601611558565b91505092915050565b5f6020828403121561160257611601611096565b5b5f82013567ffffffffffffffff81111561161f5761161e61109a565b5b61162b848285016115c0565b91505092915050565b7f5468697320626f6f6b206973206e6f7420617661696c61626c650000000000005f82015250565b5f611668601a83611163565b915061167382611634565b602082019050919050565b5f6020820190508181035f8301526116958161165c565b9050919050565b7f4e6f7420656e6f7567682073746f636b20617661696c61626c650000000000005f82015250565b5f6116d0601a83611163565b91506116db8261169c565b602082019050919050565b5f6020820190508181035f8301526116fd816116c4565b9050919050565b7f4e487b71000000000000000000000000000000000000000000000000000000005f52601160045260245ffd5b5f61173b82610fd6565b915061174683610fd6565b925082820261175481610fd6565b9150828204841483151761176b5761176a611704565b5b5092915050565b7f496e636f7272656374207061796d656e7420616d6f756e7400000000000000005f82015250565b5f6117a6601883611163565b91506117b182611772565b602082019050919050565b5f6020820190508181035f8301526117d38161179a565b9050919050565b5f6117e482610fd6565b91506117ef83610fd6565b925082820390508181111561180757611806611704565b5b92915050565b5f61181782610fd6565b915061182283610fd6565b925082820190508082111561183a57611839611704565b5b92915050565b5f6040820190506118535f830185611131565b6118606020830184611131565b9392505050565b7f4e487b71000000000000000000000000000000000000000000000000000000005f52602260045260245ffd5b5f60028204905060018216806118ab57607f821691505b6020821081036118be576118bd611867565b5b50919050565b7f426f6f6b20646f6573206e6f74206578697374000000000000000000000000005f82015250565b5f6118f8601383611163565b9150611903826118c4565b602082019050919050565b5f6020820190508181035f830152611925816118ec565b9050919050565b7f4e487b71000000000000000000000000000000000000000000000000000000005f52603260045260245ffd5b7f4e487b71000000000000000000000000000000000000000000000000000000005f52603160045260245ffd5b7f43414e4e4f542041444420424f4f4b20495420414c52454144592045584953545f8201527f5300000000000000000000000000000000000000000000000000000000000000602082015250565b5f6119e0602183611163565b91506119eb82611986565b604082019050919050565b5f6020820190508181035f830152611a0d816119d4565b9050919050565b5f819050815f5260205f209050919050565b5f6020601f8301049050919050565b5f82821b905092915050565b5f60088302611a707fffffffffffffffffffffffffffffffffffffffffffffffffffffffffffffffff82611a35565b611a7a8683611a35565b95508019841693508086168417925050509392505050565b5f819050919050565b5f611ab5611ab0611aab84610fd6565b611a92565b610fd6565b9050919050565b5f819050919050565b611ace83611a9b565b611ae2611ada82611abc565b848454611a41565b825550505050565b5f90565b611af6611aea565b611b01818484611ac5565b505050565b5b81811015611b2457611b195f82611aee565b600181019050611b07565b5050565b601f821115611b6957611b3a81611a14565b611b4384611a26565b81016020851015611b52578190505b611b66611b5e85611a26565b830182611b06565b50505b505050565b5f82821c905092915050565b5f611b895f1984600802611b6e565b1980831691505092915050565b5f611ba18383611b7a565b9150826002028217905092915050565b611bba82611159565b67ffffffffffffffff811115611bd357611bd2611356565b5b611bdd8254611894565b611be8828285611b28565b5f60209050601f831160018114611c19575f8415611c07578287015190505b611c118582611b96565b865550611c78565b601f198416611c2786611a14565b5f5b82811015611c4e57848901518255600182019150602085019450602081019050611c29565b86831015611c6b5784890151611c67601f891682611b7a565b8355505b6001600288020188555050505b505050505050565b5f6080820190508181035f830152611c988187611191565b90508181036020830152611cac8186611191565b9050611cbb6040830185611131565b611cc86060830184611131565b9594505050505056fea264697066735822122054e8c2dce06414f210bbd414d184dd576a873372edf52ecce91fd0e08c780c7964736f6c634300081a0033",
					"opcodes": "PUSH1 0x80 PUSH1 0x40 MSTORE CALLVALUE DUP1 ISZERO PUSH2 0xF JUMPI PUSH0 DUP1 REVERT JUMPDEST POP CALLER PUSH0 PUSH20 0xFFFFFFFFFFFFFFFFFFFFFFFFFFFFFFFFFFFFFFFF AND DUP2 PUSH20 0xFFFFFFFFFFFFFFFFFFFFFFFFFFFFFFFFFFFFFFFF AND SUB PUSH2 0x81 JUMPI PUSH0 PUSH1 0x40 MLOAD PUSH32 0x1E4FBDF700000000000000000000000000000000000000000000000000000000 DUP2 MSTORE PUSH1 0x4 ADD PUSH2 0x78 SWAP2 SWAP1 PUSH2 0x196 JUMP JUMPDEST PUSH1 0x40 MLOAD DUP1 SWAP2 SUB SWAP1 REVERT JUMPDEST PUSH2 0x90 DUP2 PUSH2 0x96 PUSH1 0x20 SHL PUSH1 0x20 SHR JUMP JUMPDEST POP PUSH2 0x1AF JUMP JUMPDEST PUSH0 DUP1 PUSH0 SWAP1 SLOAD SWAP1 PUSH2 0x100 EXP SWAP1 DIV PUSH20 0xFFFFFFFFFFFFFFFFFFFFFFFFFFFFFFFFFFFFFFFF AND SWAP1 POP DUP2 PUSH0 DUP1 PUSH2 0x100 EXP DUP2 SLOAD DUP2 PUSH20 0xFFFFFFFFFFFFFFFFFFFFFFFFFFFFFFFFFFFFFFFF MUL NOT AND SWAP1 DUP4 PUSH20 0xFFFFFFFFFFFFFFFFFFFFFFFFFFFFFFFFFFFFFFFF AND MUL OR SWAP1 SSTORE POP DUP2 PUSH20 0xFFFFFFFFFFFFFFFFFFFFFFFFFFFFFFFFFFFFFFFF AND DUP2 PUSH20 0xFFFFFFFFFFFFFFFFFFFFFFFFFFFFFFFFFFFFFFFF AND PUSH32 0x8BE0079C531659141344CD1FD0A4F28419497F9722A3DAAFE3B4186F6B6457E0 PUSH1 0x40 MLOAD PUSH1 0x40 MLOAD DUP1 SWAP2 SUB SWAP1 LOG3 POP POP JUMP JUMPDEST PUSH0 PUSH20 0xFFFFFFFFFFFFFFFFFFFFFFFFFFFFFFFFFFFFFFFF DUP3 AND SWAP1 POP SWAP2 SWAP1 POP JUMP JUMPDEST PUSH0 PUSH2 0x180 DUP3 PUSH2 0x157 JUMP JUMPDEST SWAP1 POP SWAP2 SWAP1 POP JUMP JUMPDEST PUSH2 0x190 DUP2 PUSH2 0x176 JUMP JUMPDEST DUP3 MSTORE POP POP JUMP JUMPDEST PUSH0 PUSH1 0x20 DUP3 ADD SWAP1 POP PUSH2 0x1A9 PUSH0 DUP4 ADD DUP5 PUSH2 0x187 JUMP JUMPDEST SWAP3 SWAP2 POP POP JUMP JUMPDEST PUSH2 0x1D07 DUP1 PUSH2 0x1BC PUSH0 CODECOPY PUSH0 RETURN INVALID PUSH1 0x80 PUSH1 0x40 MSTORE PUSH1 0x4 CALLDATASIZE LT PUSH2 0xC1 JUMPI PUSH0 CALLDATALOAD PUSH1 0xE0 SHR DUP1 PUSH4 0x715018A6 GT PUSH2 0x7E JUMPI DUP1 PUSH4 0xBEC0D799 GT PUSH2 0x58 JUMPI DUP1 PUSH4 0xBEC0D799 EQ PUSH2 0x25B JUMPI DUP1 PUSH4 0xF2FDE38B EQ PUSH2 0x283 JUMPI DUP1 PUSH4 0xF733719C EQ PUSH2 0x2AB JUMPI DUP1 PUSH4 0xF98520DE EQ PUSH2 0x2D3 JUMPI PUSH2 0xC1 JUMP JUMPDEST DUP1 PUSH4 0x715018A6 EQ PUSH2 0x1F1 JUMPI DUP1 PUSH4 0x8DA5CB5B EQ PUSH2 0x207 JUMPI DUP1 PUSH4 0x9BD30883 EQ PUSH2 0x231 JUMPI PUSH2 0xC1 JUMP JUMPDEST DUP1 PUSH4 0x354528E8 EQ PUSH2 0xC5 JUMPI DUP1 PUSH4 0x3AF8C2D5 EQ PUSH2 0xEF JUMPI DUP1 PUSH4 0x513073B8 EQ PUSH2 0x10B JUMPI DUP1 PUSH4 0x590791F2 EQ PUSH2 0x147 JUMPI DUP1 PUSH4 0x5AC3E19E EQ PUSH2 0x171 JUMPI DUP1 PUSH4 0x68744046 EQ PUSH2 0x1B1 JUMPI JUMPDEST PUSH0 DUP1 REVERT JUMPDEST CALLVALUE DUP1 ISZERO PUSH2 0xD0 JUMPI PUSH0 DUP1 REVERT JUMPDEST POP PUSH2 0xD9 PUSH2 0x2FB JUMP JUMPDEST PUSH1 0x40 MLOAD PUSH2 0xE6 SWAP2 SWAP1 PUSH2 0x106D JUMP JUMPDEST PUSH1 0x40 MLOAD DUP1 SWAP2 SUB SWAP1 RETURN JUMPDEST PUSH2 0x109 PUSH1 0x4 DUP1 CALLDATASIZE SUB DUP2 ADD SWAP1 PUSH2 0x104 SWAP2 SWAP1 PUSH2 0x10C8 JUMP JUMPDEST PUSH2 0x351 JUMP JUMPDEST STOP JUMPDEST CALLVALUE DUP1 ISZERO PUSH2 0x116 JUMPI PUSH0 DUP1 REVERT JUMPDEST POP PUSH2 0x131 PUSH1 0x4 DUP1 CALLDATASIZE SUB DUP2 ADD SWAP1 PUSH2 0x12C SWAP2 SWAP1 PUSH2 0x1106 JUMP JUMPDEST PUSH2 0x543 JUMP JUMPDEST PUSH1 0x40 MLOAD PUSH2 0x13E SWAP2 SWAP1 PUSH2 0x1140 JUMP JUMPDEST PUSH1 0x40 MLOAD DUP1 SWAP2 SUB SWAP1 RETURN JUMPDEST CALLVALUE DUP1 ISZERO PUSH2 0x152 JUMPI PUSH0 DUP1 REVERT JUMPDEST POP PUSH2 0x15B PUSH2 0x563 JUMP JUMPDEST PUSH1 0x40 MLOAD PUSH2 0x168 SWAP2 SWAP1 PUSH2 0x1140 JUMP JUMPDEST PUSH1 0x40 MLOAD DUP1 SWAP2 SUB SWAP1 RETURN JUMPDEST CALLVALUE DUP1 ISZERO PUSH2 0x17C JUMPI PUSH0 DUP1 REVERT JUMPDEST POP PUSH2 0x197 PUSH1 0x4 DUP1 CALLDATASIZE SUB DUP2 ADD SWAP1 PUSH2 0x192 SWAP2 SWAP1 PUSH2 0x1106 JUMP JUMPDEST PUSH2 0x588 JUMP JUMPDEST PUSH1 0x40 MLOAD PUSH2 0x1A8 SWAP6 SWAP5 SWAP4 SWAP3 SWAP2 SWAP1 PUSH2 0x11E3 JUMP JUMPDEST PUSH1 0x40 MLOAD DUP1 SWAP2 SUB SWAP1 RETURN JUMPDEST CALLVALUE DUP1 ISZERO PUSH2 0x1BC JUMPI PUSH0 DUP1 REVERT JUMPDEST POP PUSH2 0x1D7 PUSH1 0x4 DUP1 CALLDATASIZE SUB DUP2 ADD SWAP1 PUSH2 0x1D2 SWAP2 SWAP1 PUSH2 0x1106 JUMP JUMPDEST PUSH2 0x726 JUMP JUMPDEST PUSH1 0x40 MLOAD PUSH2 0x1E8 SWAP6 SWAP5 SWAP4 SWAP3 SWAP2 SWAP1 PUSH2 0x1242 JUMP JUMPDEST PUSH1 0x40 MLOAD DUP1 SWAP2 SUB SWAP1 RETURN JUMPDEST CALLVALUE DUP1 ISZERO PUSH2 0x1FC JUMPI PUSH0 DUP1 REVERT JUMPDEST POP PUSH2 0x205 PUSH2 0x870 JUMP JUMPDEST STOP JUMPDEST CALLVALUE DUP1 ISZERO PUSH2 0x212 JUMPI PUSH0 DUP1 REVERT JUMPDEST POP PUSH2 0x21B PUSH2 0x883 JUMP JUMPDEST PUSH1 0x40 MLOAD PUSH2 0x228 SWAP2 SWAP1 PUSH2 0x12E0 JUMP JUMPDEST PUSH1 0x40 MLOAD DUP1 SWAP2 SUB SWAP1 RETURN JUMPDEST CALLVALUE DUP1 ISZERO PUSH2 0x23C JUMPI PUSH0 DUP1 REVERT JUMPDEST POP PUSH2 0x245 PUSH2 0x8AA JUMP JUMPDEST PUSH1 0x40 MLOAD PUSH2 0x252 SWAP2 SWAP1 PUSH2 0x1140 JUMP JUMPDEST PUSH1 0x40 MLOAD DUP1 SWAP2 SUB SWAP1 RETURN JUMPDEST CALLVALUE DUP1 ISZERO PUSH2 0x266 JUMPI PUSH0 DUP1 REVERT JUMPDEST POP PUSH2 0x281 PUSH1 0x4 DUP1 CALLDATASIZE SUB DUP2 ADD SWAP1 PUSH2 0x27C SWAP2 SWAP1 PUSH2 0x1106 JUMP JUMPDEST PUSH2 0x8B3 JUMP JUMPDEST STOP JUMPDEST CALLVALUE DUP1 ISZERO PUSH2 0x28E JUMPI PUSH0 DUP1 REVERT JUMPDEST POP PUSH2 0x2A9 PUSH1 0x4 DUP1 CALLDATASIZE SUB DUP2 ADD SWAP1 PUSH2 0x2A4 SWAP2 SWAP1 PUSH2 0x1323 JUMP JUMPDEST PUSH2 0xA4B JUMP JUMPDEST STOP JUMPDEST CALLVALUE DUP1 ISZERO PUSH2 0x2B6 JUMPI PUSH0 DUP1 REVERT JUMPDEST POP PUSH2 0x2D1 PUSH1 0x4 DUP1 CALLDATASIZE SUB DUP2 ADD SWAP1 PUSH2 0x2CC SWAP2 SWAP1 PUSH2 0x147A JUMP JUMPDEST PUSH2 0xACF JUMP JUMPDEST STOP JUMPDEST CALLVALUE DUP1 ISZERO PUSH2 0x2DE JUMPI PUSH0 DUP1 REVERT JUMPDEST POP PUSH2 0x2F9 PUSH1 0x4 DUP1 CALLDATASIZE SUB DUP2 ADD SWAP1 PUSH2 0x2F4 SWAP2 SWAP1 PUSH2 0x15ED JUMP JUMPDEST PUSH2 0xC2C JUMP JUMPDEST STOP JUMPDEST PUSH1 0x60 PUSH1 0x3 DUP1 SLOAD DUP1 PUSH1 0x20 MUL PUSH1 0x20 ADD PUSH1 0x40 MLOAD SWAP1 DUP2 ADD PUSH1 0x40 MSTORE DUP1 SWAP3 SWAP2 SWAP1 DUP2 DUP2 MSTORE PUSH1 0x20 ADD DUP3 DUP1 SLOAD DUP1 ISZERO PUSH2 0x347 JUMPI PUSH1 0x20 MUL DUP3 ADD SWAP2 SWAP1 PUSH0 MSTORE PUSH1 0x20 PUSH0 KECCAK256 SWAP1 JUMPDEST DUP2 SLOAD DUP2 MSTORE PUSH1 0x20 ADD SWAP1 PUSH1 0x1 ADD SWAP1 DUP1 DUP4 GT PUSH2 0x333 JUMPI JUMPDEST POP POP POP POP POP SWAP1 POP SWAP1 JUMP JUMPDEST PUSH0 PUSH1 0x2 PUSH0 DUP5 DUP2 MSTORE PUSH1 0x20 ADD SWAP1 DUP2 MSTORE PUSH1 0x20 ADD PUSH0 KECCAK256 SWAP1 POP DUP1 PUSH1 0x2 ADD PUSH0 SWAP1 SLOAD SWAP1 PUSH2 0x100 EXP SWAP1 DIV PUSH1 0xFF AND PUSH2 0x3B5 JUMPI PUSH1 0x40 MLOAD PUSH32 0x8C379A000000000000000000000000000000000000000000000000000000000 DUP2 MSTORE PUSH1 0x4 ADD PUSH2 0x3AC SWAP1 PUSH2 0x167E JUMP JUMPDEST PUSH1 0x40 MLOAD DUP1 SWAP2 SUB SWAP1 REVERT JUMPDEST DUP2 DUP2 PUSH0 ADD SLOAD LT ISZERO PUSH2 0x3FB JUMPI PUSH1 0x40 MLOAD PUSH32 0x8C379A000000000000000000000000000000000000000000000000000000000 DUP2 MSTORE PUSH1 0x4 ADD PUSH2 0x3F2 SWAP1 PUSH2 0x16E6 JUMP JUMPDEST PUSH1 0x40 MLOAD DUP1 SWAP2 SUB SWAP1 REVERT JUMPDEST DUP2 DUP2 PUSH1 0x1 ADD SLOAD PUSH2 0x40B SWAP2 SWAP1 PUSH2 0x1731 JUMP JUMPDEST CALLVALUE EQ PUSH2 0x44C JUMPI PUSH1 0x40 MLOAD PUSH32 0x8C379A000000000000000000000000000000000000000000000000000000000 DUP2 MSTORE PUSH1 0x4 ADD PUSH2 0x443 SWAP1 PUSH2 0x17BC JUMP JUMPDEST PUSH1 0x40 MLOAD DUP1 SWAP2 SUB SWAP1 REVERT JUMPDEST DUP2 DUP2 PUSH0 ADD PUSH0 DUP3 DUP3 SLOAD PUSH2 0x45E SWAP2 SWAP1 PUSH2 0x17DA JUMP JUMPDEST SWAP3 POP POP DUP2 SWAP1 SSTORE POP PUSH0 DUP2 PUSH0 ADD SLOAD SUB PUSH2 0x48B JUMPI PUSH0 DUP2 PUSH1 0x2 ADD PUSH0 PUSH2 0x100 EXP DUP2 SLOAD DUP2 PUSH1 0xFF MUL NOT AND SWAP1 DUP4 ISZERO ISZERO MUL OR SWAP1 SSTORE POP JUMPDEST DUP2 PUSH1 0x1 PUSH0 DUP3 DUP3 SLOAD PUSH2 0x49C SWAP2 SWAP1 PUSH2 0x180D JUMP JUMPDEST SWAP3 POP POP DUP2 SWAP1 SSTORE POP PUSH2 0x4AB PUSH2 0x883 JUMP JUMPDEST PUSH20 0xFFFFFFFFFFFFFFFFFFFFFFFFFFFFFFFFFFFFFFFF AND PUSH2 0x8FC CALLVALUE SWAP1 DUP2 ISZERO MUL SWAP1 PUSH1 0x40 MLOAD PUSH0 PUSH1 0x40 MLOAD DUP1 DUP4 SUB DUP2 DUP6 DUP9 DUP9 CALL SWAP4 POP POP POP POP ISZERO DUP1 ISZERO PUSH2 0x4ED JUMPI RETURNDATASIZE PUSH0 DUP1 RETURNDATACOPY RETURNDATASIZE PUSH0 REVERT JUMPDEST POP CALLER PUSH20 0xFFFFFFFFFFFFFFFFFFFFFFFFFFFFFFFFFFFFFFFF AND PUSH32 0x439C08B00222293C6073F3EE383214541A4A21ACA7DBB0A45963F86FA8E589F7 DUP5 DUP5 PUSH1 0x40 MLOAD PUSH2 0x536 SWAP3 SWAP2 SWAP1 PUSH2 0x1840 JUMP JUMPDEST PUSH1 0x40 MLOAD DUP1 SWAP2 SUB SWAP1 LOG2 POP POP POP JUMP JUMPDEST PUSH1 0x3 DUP2 DUP2 SLOAD DUP2 LT PUSH2 0x552 JUMPI PUSH0 DUP1 REVERT JUMPDEST SWAP1 PUSH0 MSTORE PUSH1 0x20 PUSH0 KECCAK256 ADD PUSH0 SWAP2 POP SWAP1 POP SLOAD DUP2 JUMP JUMPDEST PUSH0 PUSH2 0x56C PUSH2 0x883 JUMP JUMPDEST PUSH20 0xFFFFFFFFFFFFFFFFFFFFFFFFFFFFFFFFFFFFFFFF AND BALANCE SWAP1 POP SWAP1 JUMP JUMPDEST PUSH1 0x60 DUP1 PUSH0 DUP1 PUSH0 DUP1 PUSH1 0x2 PUSH0 DUP9 DUP2 MSTORE PUSH1 0x20 ADD SWAP1 DUP2 MSTORE PUSH1 0x20 ADD PUSH0 KECCAK256 PUSH1 0x40 MLOAD DUP1 PUSH1 0xA0 ADD PUSH1 0x40 MSTORE SWAP1 DUP2 PUSH0 DUP3 ADD SLOAD DUP2 MSTORE PUSH1 0x20 ADD PUSH1 0x1 DUP3 ADD SLOAD DUP2 MSTORE PUSH1 0x20 ADD PUSH1 0x2 DUP3 ADD PUSH0 SWAP1 SLOAD SWAP1 PUSH2 0x100 EXP SWAP1 DIV PUSH1 0xFF AND ISZERO ISZERO ISZERO ISZERO DUP2 MSTORE PUSH1 0x20 ADD PUSH1 0x3 DUP3 ADD DUP1 SLOAD PUSH2 0x5E8 SWAP1 PUSH2 0x1894 JUMP JUMPDEST DUP1 PUSH1 0x1F ADD PUSH1 0x20 DUP1 SWAP2 DIV MUL PUSH1 0x20 ADD PUSH1 0x40 MLOAD SWAP1 DUP2 ADD PUSH1 0x40 MSTORE DUP1 SWAP3 SWAP2 SWAP1 DUP2 DUP2 MSTORE PUSH1 0x20 ADD DUP3 DUP1 SLOAD PUSH2 0x614 SWAP1 PUSH2 0x1894 JUMP JUMPDEST DUP1 ISZERO PUSH2 0x65F JUMPI DUP1 PUSH1 0x1F LT PUSH2 0x636 JUMPI PUSH2 0x100 DUP1 DUP4 SLOAD DIV MUL DUP4 MSTORE SWAP2 PUSH1 0x20 ADD SWAP2 PUSH2 0x65F JUMP JUMPDEST DUP3 ADD SWAP2 SWAP1 PUSH0 MSTORE PUSH1 0x20 PUSH0 KECCAK256 SWAP1 JUMPDEST DUP2 SLOAD DUP2 MSTORE SWAP1 PUSH1 0x1 ADD SWAP1 PUSH1 0x20 ADD DUP1 DUP4 GT PUSH2 0x642 JUMPI DUP3 SWAP1 SUB PUSH1 0x1F AND DUP3 ADD SWAP2 JUMPDEST POP POP POP POP POP DUP2 MSTORE PUSH1 0x20 ADD PUSH1 0x4 DUP3 ADD DUP1 SLOAD PUSH2 0x678 SWAP1 PUSH2 0x1894 JUMP JUMPDEST DUP1 PUSH1 0x1F ADD PUSH1 0x20 DUP1 SWAP2 DIV MUL PUSH1 0x20 ADD PUSH1 0x40 MLOAD SWAP1 DUP2 ADD PUSH1 0x40 MSTORE DUP1 SWAP3 SWAP2 SWAP1 DUP2 DUP2 MSTORE PUSH1 0x20 ADD DUP3 DUP1 SLOAD PUSH2 0x6A4 SWAP1 PUSH2 0x1894 JUMP JUMPDEST DUP1 ISZERO PUSH2 0x6EF JUMPI DUP1 PUSH1 0x1F LT PUSH2 0x6C6 JUMPI PUSH2 0x100 DUP1 DUP4 SLOAD DIV MUL DUP4 MSTORE SWAP2 PUSH1 0x20 ADD SWAP2 PUSH2 0x6EF JUMP JUMPDEST DUP3 ADD SWAP2 SWAP1 PUSH0 MSTORE PUSH1 0x20 PUSH0 KECCAK256 SWAP1 JUMPDEST DUP2 SLOAD DUP2 MSTORE SWAP1 PUSH1 0x1 ADD SWAP1 PUSH1 0x20 ADD DUP1 DUP4 GT PUSH2 0x6D2 JUMPI DUP3 SWAP1 SUB PUSH1 0x1F AND DUP3 ADD SWAP2 JUMPDEST POP POP POP POP POP DUP2 MSTORE POP POP SWAP1 POP DUP1 PUSH1 0x60 ADD MLOAD DUP2 PUSH1 0x80 ADD MLOAD DUP3 PUSH1 0x20 ADD MLOAD DUP4 PUSH0 ADD MLOAD DUP5 PUSH1 0x40 ADD MLOAD SWAP6 POP SWAP6 POP SWAP6 POP SWAP6 POP SWAP6 POP POP SWAP2 SWAP4 SWAP6 SWAP1 SWAP3 SWAP5 POP JUMP JUMPDEST PUSH1 0x2 PUSH1 0x20 MSTORE DUP1 PUSH0 MSTORE PUSH1 0x40 PUSH0 KECCAK256 PUSH0 SWAP2 POP SWAP1 POP DUP1 PUSH0 ADD SLOAD SWAP1 DUP1 PUSH1 0x1 ADD SLOAD SWAP1 DUP1 PUSH1 0x2 ADD PUSH0 SWAP1 SLOAD SWAP1 PUSH2 0x100 EXP SWAP1 DIV PUSH1 0xFF AND SWAP1 DUP1 PUSH1 0x3 ADD DUP1 SLOAD PUSH2 0x763 SWAP1 PUSH2 0x1894 JUMP JUMPDEST DUP1 PUSH1 0x1F ADD PUSH1 0x20 DUP1 SWAP2 DIV MUL PUSH1 0x20 ADD PUSH1 0x40 MLOAD SWAP1 DUP2 ADD PUSH1 0x40 MSTORE DUP1 SWAP3 SWAP2 SWAP1 DUP2 DUP2 MSTORE PUSH1 0x20 ADD DUP3 DUP1 SLOAD PUSH2 0x78F SWAP1 PUSH2 0x1894 JUMP JUMPDEST DUP1 ISZERO PUSH2 0x7DA JUMPI DUP1 PUSH1 0x1F LT PUSH2 0x7B1 JUMPI PUSH2 0x100 DUP1 DUP4 SLOAD DIV MUL DUP4 MSTORE SWAP2 PUSH1 0x20 ADD SWAP2 PUSH2 0x7DA JUMP JUMPDEST DUP3 ADD SWAP2 SWAP1 PUSH0 MSTORE PUSH1 0x20 PUSH0 KECCAK256 SWAP1 JUMPDEST DUP2 SLOAD DUP2 MSTORE SWAP1 PUSH1 0x1 ADD SWAP1 PUSH1 0x20 ADD DUP1 DUP4 GT PUSH2 0x7BD JUMPI DUP3 SWAP1 SUB PUSH1 0x1F AND DUP3 ADD SWAP2 JUMPDEST POP POP POP POP POP SWAP1 DUP1 PUSH1 0x4 ADD DUP1 SLOAD PUSH2 0x7EF SWAP1 PUSH2 0x1894 JUMP JUMPDEST DUP1 PUSH1 0x1F ADD PUSH1 0x20 DUP1 SWAP2 DIV MUL PUSH1 0x20 ADD PUSH1 0x40 MLOAD SWAP1 DUP2 ADD PUSH1 0x40 MSTORE DUP1 SWAP3 SWAP2 SWAP1 DUP2 DUP2 MSTORE PUSH1 0x20 ADD DUP3 DUP1 SLOAD PUSH2 0x81B SWAP1 PUSH2 0x1894 JUMP JUMPDEST DUP1 ISZERO PUSH2 0x866 JUMPI DUP1 PUSH1 0x1F LT PUSH2 0x83D JUMPI PUSH2 0x100 DUP1 DUP4 SLOAD DIV MUL DUP4 MSTORE SWAP2 PUSH1 0x20 ADD SWAP2 PUSH2 0x866 JUMP JUMPDEST DUP3 ADD SWAP2 SWAP1 PUSH0 MSTORE PUSH1 0x20 PUSH0 KECCAK256 SWAP1 JUMPDEST DUP2 SLOAD DUP2 MSTORE SWAP1 PUSH1 0x1 ADD SWAP1 PUSH1 0x20 ADD DUP1 DUP4 GT PUSH2 0x849 JUMPI DUP3 SWAP1 SUB PUSH1 0x1F AND DUP3 ADD SWAP2 JUMPDEST POP POP POP POP POP SWAP1 POP DUP6 JUMP JUMPDEST PUSH2 0x878 PUSH2 0xE06 JUMP JUMPDEST PUSH2 0x881 PUSH0 PUSH2 0xE8D JUMP JUMPDEST JUMP JUMPDEST PUSH0 DUP1 PUSH0 SWAP1 SLOAD SWAP1 PUSH2 0x100 EXP SWAP1 DIV PUSH20 0xFFFFFFFFFFFFFFFFFFFFFFFFFFFFFFFFFFFFFFFF AND SWAP1 POP SWAP1 JUMP JUMPDEST PUSH0 PUSH1 0x1 SLOAD SWAP1 POP SWAP1 JUMP JUMPDEST PUSH2 0x8BB PUSH2 0xE06 JUMP JUMPDEST PUSH0 PUSH1 0x2 PUSH0 DUP4 DUP2 MSTORE PUSH1 0x20 ADD SWAP1 DUP2 MSTORE PUSH1 0x20 ADD PUSH0 KECCAK256 PUSH1 0x1 ADD SLOAD SUB PUSH2 0x911 JUMPI PUSH1 0x40 MLOAD PUSH32 0x8C379A000000000000000000000000000000000000000000000000000000000 DUP2 MSTORE PUSH1 0x4 ADD PUSH2 0x908 SWAP1 PUSH2 0x190E JUMP JUMPDEST PUSH1 0x40 MLOAD DUP1 SWAP2 SUB SWAP1 REVERT JUMPDEST PUSH1 0x2 PUSH0 DUP3 DUP2 MSTORE PUSH1 0x20 ADD SWAP1 DUP2 MSTORE PUSH1 0x20 ADD PUSH0 KECCAK256 PUSH0 DUP1 DUP3 ADD PUSH0 SWAP1 SSTORE PUSH1 0x1 DUP3 ADD PUSH0 SWAP1 SSTORE PUSH1 0x2 DUP3 ADD PUSH0 PUSH2 0x100 EXP DUP2 SLOAD SWAP1 PUSH1 0xFF MUL NOT AND SWAP1 SSTORE PUSH1 0x3 DUP3 ADD PUSH0 PUSH2 0x952 SWAP2 SWAP1 PUSH2 0xF55 JUMP JUMPDEST PUSH1 0x4 DUP3 ADD PUSH0 PUSH2 0x961 SWAP2 SWAP1 PUSH2 0xF55 JUMP JUMPDEST POP POP PUSH0 JUMPDEST PUSH1 0x3 DUP1 SLOAD SWAP1 POP DUP2 LT ISZERO PUSH2 0xA1A JUMPI DUP2 PUSH1 0x3 DUP3 DUP2 SLOAD DUP2 LT PUSH2 0x987 JUMPI PUSH2 0x986 PUSH2 0x192C JUMP JUMPDEST JUMPDEST SWAP1 PUSH0 MSTORE PUSH1 0x20 PUSH0 KECCAK256 ADD SLOAD SUB PUSH2 0xA0D JUMPI PUSH1 0x3 PUSH1 0x1 PUSH1 0x3 DUP1 SLOAD SWAP1 POP PUSH2 0x9A9 SWAP2 SWAP1 PUSH2 0x17DA JUMP JUMPDEST DUP2 SLOAD DUP2 LT PUSH2 0x9BA JUMPI PUSH2 0x9B9 PUSH2 0x192C JUMP JUMPDEST JUMPDEST SWAP1 PUSH0 MSTORE PUSH1 0x20 PUSH0 KECCAK256 ADD SLOAD PUSH1 0x3 DUP3 DUP2 SLOAD DUP2 LT PUSH2 0x9D7 JUMPI PUSH2 0x9D6 PUSH2 0x192C JUMP JUMPDEST JUMPDEST SWAP1 PUSH0 MSTORE PUSH1 0x20 PUSH0 KECCAK256 ADD DUP2 SWAP1 SSTORE POP PUSH1 0x3 DUP1 SLOAD DUP1 PUSH2 0x9F5 JUMPI PUSH2 0x9F4 PUSH2 0x1959 JUMP JUMPDEST JUMPDEST PUSH1 0x1 SWAP1 SUB DUP2 DUP2 SWAP1 PUSH0 MSTORE PUSH1 0x20 PUSH0 KECCAK256 ADD PUSH0 SWAP1 SSTORE SWAP1 SSTORE PUSH2 0xA1A JUMP JUMPDEST DUP1 DUP1 PUSH1 0x1 ADD SWAP2 POP POP PUSH2 0x965 JUMP JUMPDEST POP DUP1 PUSH32 0x3C5CE13264433BCF97E5D53C97AF4FC33800E8C9DD927F965B116D0018D7CDDF PUSH1 0x40 MLOAD PUSH1 0x40 MLOAD DUP1 SWAP2 SUB SWAP1 LOG2 POP JUMP JUMPDEST PUSH2 0xA53 PUSH2 0xE06 JUMP JUMPDEST PUSH0 PUSH20 0xFFFFFFFFFFFFFFFFFFFFFFFFFFFFFFFFFFFFFFFF AND DUP2 PUSH20 0xFFFFFFFFFFFFFFFFFFFFFFFFFFFFFFFFFFFFFFFF AND SUB PUSH2 0xAC3 JUMPI PUSH0 PUSH1 0x40 MLOAD PUSH32 0x1E4FBDF700000000000000000000000000000000000000000000000000000000 DUP2 MSTORE PUSH1 0x4 ADD PUSH2 0xABA SWAP2 SWAP1 PUSH2 0x12E0 JUMP JUMPDEST PUSH1 0x40 MLOAD DUP1 SWAP2 SUB SWAP1 REVERT JUMPDEST PUSH2 0xACC DUP2 PUSH2 0xE8D JUMP JUMPDEST POP JUMP JUMPDEST PUSH0 PUSH1 0x2 PUSH0 DUP8 DUP2 MSTORE PUSH1 0x20 ADD SWAP1 DUP2 MSTORE PUSH1 0x20 ADD PUSH0 KECCAK256 PUSH1 0x1 ADD SLOAD EQ PUSH2 0xB25 JUMPI PUSH1 0x40 MLOAD PUSH32 0x8C379A000000000000000000000000000000000000000000000000000000000 DUP2 MSTORE PUSH1 0x4 ADD PUSH2 0xB1C SWAP1 PUSH2 0x19F6 JUMP JUMPDEST PUSH1 0x40 MLOAD DUP1 SWAP2 SUB SWAP1 REVERT JUMPDEST PUSH1 0x40 MLOAD DUP1 PUSH1 0xA0 ADD PUSH1 0x40 MSTORE DUP1 DUP4 DUP2 MSTORE PUSH1 0x20 ADD DUP3 DUP2 MSTORE PUSH1 0x20 ADD PUSH0 DUP5 GT ISZERO ISZERO DUP2 MSTORE PUSH1 0x20 ADD DUP6 DUP2 MSTORE PUSH1 0x20 ADD DUP5 DUP2 MSTORE POP PUSH1 0x2 PUSH0 DUP8 DUP2 MSTORE PUSH1 0x20 ADD SWAP1 DUP2 MSTORE PUSH1 0x20 ADD PUSH0 KECCAK256 PUSH0 DUP3 ADD MLOAD DUP2 PUSH0 ADD SSTORE PUSH1 0x20 DUP3 ADD MLOAD DUP2 PUSH1 0x1 ADD SSTORE PUSH1 0x40 DUP3 ADD MLOAD DUP2 PUSH1 0x2 ADD PUSH0 PUSH2 0x100 EXP DUP2 SLOAD DUP2 PUSH1 0xFF MUL NOT AND SWAP1 DUP4 ISZERO ISZERO MUL OR SWAP1 SSTORE POP PUSH1 0x60 DUP3 ADD MLOAD DUP2 PUSH1 0x3 ADD SWAP1 DUP2 PUSH2 0xBA7 SWAP2 SWAP1 PUSH2 0x1BB1 JUMP JUMPDEST POP PUSH1 0x80 DUP3 ADD MLOAD DUP2 PUSH1 0x4 ADD SWAP1 DUP2 PUSH2 0xBBD SWAP2 SWAP1 PUSH2 0x1BB1 JUMP JUMPDEST POP SWAP1 POP POP PUSH1 0x3 DUP6 SWAP1 DUP1 PUSH1 0x1 DUP2 SLOAD ADD DUP1 DUP3 SSTORE DUP1 SWAP2 POP POP PUSH1 0x1 SWAP1 SUB SWAP1 PUSH0 MSTORE PUSH1 0x20 PUSH0 KECCAK256 ADD PUSH0 SWAP1 SWAP2 SWAP1 SWAP2 SWAP1 SWAP2 POP SSTORE DUP5 PUSH32 0x722C04650224F771C04EC5712C74689980B3DDB4EAA233CD8F9C72D7DA7FBE29 DUP6 DUP6 DUP6 DUP6 PUSH1 0x40 MLOAD PUSH2 0xC1D SWAP5 SWAP4 SWAP3 SWAP2 SWAP1 PUSH2 0x1C80 JUMP JUMPDEST PUSH1 0x40 MLOAD DUP1 SWAP2 SUB SWAP1 LOG2 POP POP POP POP POP JUMP JUMPDEST PUSH2 0xC34 PUSH2 0xE06 JUMP JUMPDEST PUSH0 JUMPDEST DUP2 MLOAD DUP2 LT ISZERO PUSH2 0xDCB JUMPI PUSH0 DUP3 DUP3 DUP2 MLOAD DUP2 LT PUSH2 0xC53 JUMPI PUSH2 0xC52 PUSH2 0x192C JUMP JUMPDEST JUMPDEST PUSH1 0x20 MUL PUSH1 0x20 ADD ADD MLOAD SWAP1 POP PUSH0 PUSH1 0x2 PUSH0 DUP4 DUP2 MSTORE PUSH1 0x20 ADD SWAP1 DUP2 MSTORE PUSH1 0x20 ADD PUSH0 KECCAK256 PUSH1 0x1 ADD SLOAD SUB PUSH2 0xCB3 JUMPI PUSH1 0x40 MLOAD PUSH32 0x8C379A000000000000000000000000000000000000000000000000000000000 DUP2 MSTORE PUSH1 0x4 ADD PUSH2 0xCAA SWAP1 PUSH2 0x190E JUMP JUMPDEST PUSH1 0x40 MLOAD DUP1 SWAP2 SUB SWAP1 REVERT JUMPDEST PUSH1 0x2 PUSH0 DUP3 DUP2 MSTORE PUSH1 0x20 ADD SWAP1 DUP2 MSTORE PUSH1 0x20 ADD PUSH0 KECCAK256 PUSH0 DUP1 DUP3 ADD PUSH0 SWAP1 SSTORE PUSH1 0x1 DUP3 ADD PUSH0 SWAP1 SSTORE PUSH1 0x2 DUP3 ADD PUSH0 PUSH2 0x100 EXP DUP2 SLOAD SWAP1 PUSH1 0xFF MUL NOT AND SWAP1 SSTORE PUSH1 0x3 DUP3 ADD PUSH0 PUSH2 0xCF4 SWAP2 SWAP1 PUSH2 0xF55 JUMP JUMPDEST PUSH1 0x4 DUP3 ADD PUSH0 PUSH2 0xD03 SWAP2 SWAP1 PUSH2 0xF55 JUMP JUMPDEST POP POP PUSH0 JUMPDEST PUSH1 0x3 DUP1 SLOAD SWAP1 POP DUP2 LT ISZERO PUSH2 0xDBC JUMPI DUP2 PUSH1 0x3 DUP3 DUP2 SLOAD DUP2 LT PUSH2 0xD29 JUMPI PUSH2 0xD28 PUSH2 0x192C JUMP JUMPDEST JUMPDEST SWAP1 PUSH0 MSTORE PUSH1 0x20 PUSH0 KECCAK256 ADD SLOAD SUB PUSH2 0xDAF JUMPI PUSH1 0x3 PUSH1 0x1 PUSH1 0x3 DUP1 SLOAD SWAP1 POP PUSH2 0xD4B SWAP2 SWAP1 PUSH2 0x17DA JUMP JUMPDEST DUP2 SLOAD DUP2 LT PUSH2 0xD5C JUMPI PUSH2 0xD5B PUSH2 0x192C JUMP JUMPDEST JUMPDEST SWAP1 PUSH0 MSTORE PUSH1 0x20 PUSH0 KECCAK256 ADD SLOAD PUSH1 0x3 DUP3 DUP2 SLOAD DUP2 LT PUSH2 0xD79 JUMPI PUSH2 0xD78 PUSH2 0x192C JUMP JUMPDEST JUMPDEST SWAP1 PUSH0 MSTORE PUSH1 0x20 PUSH0 KECCAK256 ADD DUP2 SWAP1 SSTORE POP PUSH1 0x3 DUP1 SLOAD DUP1 PUSH2 0xD97 JUMPI PUSH2 0xD96 PUSH2 0x1959 JUMP JUMPDEST JUMPDEST PUSH1 0x1 SWAP1 SUB DUP2 DUP2 SWAP1 PUSH0 MSTORE PUSH1 0x20 PUSH0 KECCAK256 ADD PUSH0 SWAP1 SSTORE SWAP1 SSTORE PUSH2 0xDBC JUMP JUMPDEST DUP1 DUP1 PUSH1 0x1 ADD SWAP2 POP POP PUSH2 0xD07 JUMP JUMPDEST POP POP DUP1 DUP1 PUSH1 0x1 ADD SWAP2 POP POP PUSH2 0xC36 JUMP JUMPDEST POP PUSH32 0x7262BE1E48C30C363173FCB2FBF2DC2CB38D076DEE42CC37CDFBDF62AF5C3BED DUP2 PUSH1 0x40 MLOAD PUSH2 0xDFB SWAP2 SWAP1 PUSH2 0x106D JUMP JUMPDEST PUSH1 0x40 MLOAD DUP1 SWAP2 SUB SWAP1 LOG1 POP JUMP JUMPDEST PUSH2 0xE0E PUSH2 0xF4E JUMP JUMPDEST PUSH20 0xFFFFFFFFFFFFFFFFFFFFFFFFFFFFFFFFFFFFFFFF AND PUSH2 0xE2C PUSH2 0x883 JUMP JUMPDEST PUSH20 0xFFFFFFFFFFFFFFFFFFFFFFFFFFFFFFFFFFFFFFFF AND EQ PUSH2 0xE8B JUMPI PUSH2 0xE4F PUSH2 0xF4E JUMP JUMPDEST PUSH1 0x40 MLOAD PUSH32 0x118CDAA700000000000000000000000000000000000000000000000000000000 DUP2 MSTORE PUSH1 0x4 ADD PUSH2 0xE82 SWAP2 SWAP1 PUSH2 0x12E0 JUMP JUMPDEST PUSH1 0x40 MLOAD DUP1 SWAP2 SUB SWAP1 REVERT JUMPDEST JUMP JUMPDEST PUSH0 DUP1 PUSH0 SWAP1 SLOAD SWAP1 PUSH2 0x100 EXP SWAP1 DIV PUSH20 0xFFFFFFFFFFFFFFFFFFFFFFFFFFFFFFFFFFFFFFFF AND SWAP1 POP DUP2 PUSH0 DUP1 PUSH2 0x100 EXP DUP2 SLOAD DUP2 PUSH20 0xFFFFFFFFFFFFFFFFFFFFFFFFFFFFFFFFFFFFFFFF MUL NOT AND SWAP1 DUP4 PUSH20 0xFFFFFFFFFFFFFFFFFFFFFFFFFFFFFFFFFFFFFFFF AND MUL OR SWAP1 SSTORE POP DUP2 PUSH20 0xFFFFFFFFFFFFFFFFFFFFFFFFFFFFFFFFFFFFFFFF AND DUP2 PUSH20 0xFFFFFFFFFFFFFFFFFFFFFFFFFFFFFFFFFFFFFFFF AND PUSH32 0x8BE0079C531659141344CD1FD0A4F28419497F9722A3DAAFE3B4186F6B6457E0 PUSH1 0x40 MLOAD PUSH1 0x40 MLOAD DUP1 SWAP2 SUB SWAP1 LOG3 POP POP JUMP JUMPDEST PUSH0 CALLER SWAP1 POP SWAP1 JUMP JUMPDEST POP DUP1 SLOAD PUSH2 0xF61 SWAP1 PUSH2 0x1894 JUMP JUMPDEST PUSH0 DUP3 SSTORE DUP1 PUSH1 0x1F LT PUSH2 0xF72 JUMPI POP PUSH2 0xF8F JUMP JUMPDEST PUSH1 0x1F ADD PUSH1 0x20 SWAP1 DIV SWAP1 PUSH0 MSTORE PUSH1 0x20 PUSH0 KECCAK256 SWAP1 DUP2 ADD SWAP1 PUSH2 0xF8E SWAP2 SWAP1 PUSH2 0xF92 JUMP JUMPDEST JUMPDEST POP JUMP JUMPDEST JUMPDEST DUP1 DUP3 GT ISZERO PUSH2 0xFA9 JUMPI PUSH0 DUP2 PUSH0 SWAP1 SSTORE POP PUSH1 0x1 ADD PUSH2 0xF93 JUMP JUMPDEST POP SWAP1 JUMP JUMPDEST PUSH0 DUP2 MLOAD SWAP1 POP SWAP2 SWAP1 POP JUMP JUMPDEST PUSH0 DUP3 DUP3 MSTORE PUSH1 0x20 DUP3 ADD SWAP1 POP SWAP3 SWAP2 POP POP JUMP JUMPDEST PUSH0 DUP2 SWAP1 POP PUSH1 0x20 DUP3 ADD SWAP1 POP SWAP2 SWAP1 POP JUMP JUMPDEST PUSH0 DUP2 SWAP1 POP SWAP2 SWAP1 POP JUMP JUMPDEST PUSH2 0xFE8 DUP2 PUSH2 0xFD6 JUMP JUMPDEST DUP3 MSTORE POP POP JUMP JUMPDEST PUSH0 PUSH2 0xFF9 DUP4 DUP4 PUSH2 0xFDF JUMP JUMPDEST PUSH1 0x20 DUP4 ADD SWAP1 POP SWAP3 SWAP2 POP POP JUMP JUMPDEST PUSH0 PUSH1 0x20 DUP3 ADD SWAP1 POP SWAP2 SWAP1 POP JUMP JUMPDEST PUSH0 PUSH2 0x101B DUP3 PUSH2 0xFAD JUMP JUMPDEST PUSH2 0x1025 DUP2 DUP6 PUSH2 0xFB7 JUMP JUMPDEST SWAP4 POP PUSH2 0x1030 DUP4 PUSH2 0xFC7 JUMP JUMPDEST DUP1 PUSH0 JUMPDEST DUP4 DUP2 LT ISZERO PUSH2 0x1060 JUMPI DUP2 MLOAD PUSH2 0x1047 DUP9 DUP3 PUSH2 0xFEE JUMP JUMPDEST SWAP8 POP PUSH2 0x1052 DUP4 PUSH2 0x1005 JUMP JUMPDEST SWAP3 POP POP PUSH1 0x1 DUP2 ADD SWAP1 POP PUSH2 0x1033 JUMP JUMPDEST POP DUP6 SWAP4 POP POP POP POP SWAP3 SWAP2 POP POP JUMP JUMPDEST PUSH0 PUSH1 0x20 DUP3 ADD SWAP1 POP DUP2 DUP2 SUB PUSH0 DUP4 ADD MSTORE PUSH2 0x1085 DUP2 DUP5 PUSH2 0x1011 JUMP JUMPDEST SWAP1 POP SWAP3 SWAP2 POP POP JUMP JUMPDEST PUSH0 PUSH1 0x40 MLOAD SWAP1 POP SWAP1 JUMP JUMPDEST PUSH0 DUP1 REVERT JUMPDEST PUSH0 DUP1 REVERT JUMPDEST PUSH2 0x10A7 DUP2 PUSH2 0xFD6 JUMP JUMPDEST DUP2 EQ PUSH2 0x10B1 JUMPI PUSH0 DUP1 REVERT JUMPDEST POP JUMP JUMPDEST PUSH0 DUP2 CALLDATALOAD SWAP1 POP PUSH2 0x10C2 DUP2 PUSH2 0x109E JUMP JUMPDEST SWAP3 SWAP2 POP POP JUMP JUMPDEST PUSH0 DUP1 PUSH1 0x40 DUP4 DUP6 SUB SLT ISZERO PUSH2 0x10DE JUMPI PUSH2 0x10DD PUSH2 0x1096 JUMP JUMPDEST JUMPDEST PUSH0 PUSH2 0x10EB DUP6 DUP3 DUP7 ADD PUSH2 0x10B4 JUMP JUMPDEST SWAP3 POP POP PUSH1 0x20 PUSH2 0x10FC DUP6 DUP3 DUP7 ADD PUSH2 0x10B4 JUMP JUMPDEST SWAP2 POP POP SWAP3 POP SWAP3 SWAP1 POP JUMP JUMPDEST PUSH0 PUSH1 0x20 DUP3 DUP5 SUB SLT ISZERO PUSH2 0x111B JUMPI PUSH2 0x111A PUSH2 0x1096 JUMP JUMPDEST JUMPDEST PUSH0 PUSH2 0x1128 DUP5 DUP3 DUP6 ADD PUSH2 0x10B4 JUMP JUMPDEST SWAP2 POP POP SWAP3 SWAP2 POP POP JUMP JUMPDEST PUSH2 0x113A DUP2 PUSH2 0xFD6 JUMP JUMPDEST DUP3 MSTORE POP POP JUMP JUMPDEST PUSH0 PUSH1 0x20 DUP3 ADD SWAP1 POP PUSH2 0x1153 PUSH0 DUP4 ADD DUP5 PUSH2 0x1131 JUMP JUMPDEST SWAP3 SWAP2 POP POP JUMP JUMPDEST PUSH0 DUP2 MLOAD SWAP1 POP SWAP2 SWAP1 POP JUMP JUMPDEST PUSH0 DUP3 DUP3 MSTORE PUSH1 0x20 DUP3 ADD SWAP1 POP SWAP3 SWAP2 POP POP JUMP JUMPDEST DUP3 DUP2 DUP4 MCOPY PUSH0 DUP4 DUP4 ADD MSTORE POP POP POP JUMP JUMPDEST PUSH0 PUSH1 0x1F NOT PUSH1 0x1F DUP4 ADD AND SWAP1 POP SWAP2 SWAP1 POP JUMP JUMPDEST PUSH0 PUSH2 0x119B DUP3 PUSH2 0x1159 JUMP JUMPDEST PUSH2 0x11A5 DUP2 DUP6 PUSH2 0x1163 JUMP JUMPDEST SWAP4 POP PUSH2 0x11B5 DUP2 DUP6 PUSH1 0x20 DUP7 ADD PUSH2 0x1173 JUMP JUMPDEST PUSH2 0x11BE DUP2 PUSH2 0x1181 JUMP JUMPDEST DUP5 ADD SWAP2 POP POP SWAP3 SWAP2 POP POP JUMP JUMPDEST PUSH0 DUP2 ISZERO ISZERO SWAP1 POP SWAP2 SWAP1 POP JUMP JUMPDEST PUSH2 0x11DD DUP2 PUSH2 0x11C9 JUMP JUMPDEST DUP3 MSTORE POP POP JUMP JUMPDEST PUSH0 PUSH1 0xA0 DUP3 ADD SWAP1 POP DUP2 DUP2 SUB PUSH0 DUP4 ADD MSTORE PUSH2 0x11FB DUP2 DUP9 PUSH2 0x1191 JUMP JUMPDEST SWAP1 POP DUP2 DUP2 SUB PUSH1 0x20 DUP4 ADD MSTORE PUSH2 0x120F DUP2 DUP8 PUSH2 0x1191 JUMP JUMPDEST SWAP1 POP PUSH2 0x121E PUSH1 0x40 DUP4 ADD DUP7 PUSH2 0x1131 JUMP JUMPDEST PUSH2 0x122B PUSH1 0x60 DUP4 ADD DUP6 PUSH2 0x1131 JUMP JUMPDEST PUSH2 0x1238 PUSH1 0x80 DUP4 ADD DUP5 PUSH2 0x11D4 JUMP JUMPDEST SWAP7 SWAP6 POP POP POP POP POP POP JUMP JUMPDEST PUSH0 PUSH1 0xA0 DUP3 ADD SWAP1 POP PUSH2 0x1255 PUSH0 DUP4 ADD DUP9 PUSH2 0x1131 JUMP JUMPDEST PUSH2 0x1262 PUSH1 0x20 DUP4 ADD DUP8 PUSH2 0x1131 JUMP JUMPDEST PUSH2 0x126F PUSH1 0x40 DUP4 ADD DUP7 PUSH2 0x11D4 JUMP JUMPDEST DUP2 DUP2 SUB PUSH1 0x60 DUP4 ADD MSTORE PUSH2 0x1281 DUP2 DUP6 PUSH2 0x1191 JUMP JUMPDEST SWAP1 POP DUP2 DUP2 SUB PUSH1 0x80 DUP4 ADD MSTORE PUSH2 0x1295 DUP2 DUP5 PUSH2 0x1191 JUMP JUMPDEST SWAP1 POP SWAP7 SWAP6 POP POP POP POP POP POP JUMP JUMPDEST PUSH0 PUSH20 0xFFFFFFFFFFFFFFFFFFFFFFFFFFFFFFFFFFFFFFFF DUP3 AND SWAP1 POP SWAP2 SWAP1 POP JUMP JUMPDEST PUSH0 PUSH2 0x12CA DUP3 PUSH2 0x12A1 JUMP JUMPDEST SWAP1 POP SWAP2 SWAP1 POP JUMP JUMPDEST PUSH2 0x12DA DUP2 PUSH2 0x12C0 JUMP JUMPDEST DUP3 MSTORE POP POP JUMP JUMPDEST PUSH0 PUSH1 0x20 DUP3 ADD SWAP1 POP PUSH2 0x12F3 PUSH0 DUP4 ADD DUP5 PUSH2 0x12D1 JUMP JUMPDEST SWAP3 SWAP2 POP POP JUMP JUMPDEST PUSH2 0x1302 DUP2 PUSH2 0x12C0 JUMP JUMPDEST DUP2 EQ PUSH2 0x130C JUMPI PUSH0 DUP1 REVERT JUMPDEST POP JUMP JUMPDEST PUSH0 DUP2 CALLDATALOAD SWAP1 POP PUSH2 0x131D DUP2 PUSH2 0x12F9 JUMP JUMPDEST SWAP3 SWAP2 POP POP JUMP JUMPDEST PUSH0 PUSH1 0x20 DUP3 DUP5 SUB SLT ISZERO PUSH2 0x1338 JUMPI PUSH2 0x1337 PUSH2 0x1096 JUMP JUMPDEST JUMPDEST PUSH0 PUSH2 0x1345 DUP5 DUP3 DUP6 ADD PUSH2 0x130F JUMP JUMPDEST SWAP2 POP POP SWAP3 SWAP2 POP POP JUMP JUMPDEST PUSH0 DUP1 REVERT JUMPDEST PUSH0 DUP1 REVERT JUMPDEST PUSH32 0x4E487B7100000000000000000000000000000000000000000000000000000000 PUSH0 MSTORE PUSH1 0x41 PUSH1 0x4 MSTORE PUSH1 0x24 PUSH0 REVERT JUMPDEST PUSH2 0x138C DUP3 PUSH2 0x1181 JUMP JUMPDEST DUP2 ADD DUP2 DUP2 LT PUSH8 0xFFFFFFFFFFFFFFFF DUP3 GT OR ISZERO PUSH2 0x13AB JUMPI PUSH2 0x13AA PUSH2 0x1356 JUMP JUMPDEST JUMPDEST DUP1 PUSH1 0x40 MSTORE POP POP POP JUMP JUMPDEST PUSH0 PUSH2 0x13BD PUSH2 0x108D JUMP JUMPDEST SWAP1 POP PUSH2 0x13C9 DUP3 DUP3 PUSH2 0x1383 JUMP JUMPDEST SWAP2 SWAP1 POP JUMP JUMPDEST PUSH0 PUSH8 0xFFFFFFFFFFFFFFFF DUP3 GT ISZERO PUSH2 0x13E8 JUMPI PUSH2 0x13E7 PUSH2 0x1356 JUMP JUMPDEST JUMPDEST PUSH2 0x13F1 DUP3 PUSH2 0x1181 JUMP JUMPDEST SWAP1 POP PUSH1 0x20 DUP2 ADD SWAP1 POP SWAP2 SWAP1 POP JUMP JUMPDEST DUP3 DUP2 DUP4 CALLDATACOPY PUSH0 DUP4 DUP4 ADD MSTORE POP POP POP JUMP JUMPDEST PUSH0 PUSH2 0x141E PUSH2 0x1419 DUP5 PUSH2 0x13CE JUMP JUMPDEST PUSH2 0x13B4 JUMP JUMPDEST SWAP1 POP DUP3 DUP2 MSTORE PUSH1 0x20 DUP2 ADD DUP5 DUP5 DUP5 ADD GT ISZERO PUSH2 0x143A JUMPI PUSH2 0x1439 PUSH2 0x1352 JUMP JUMPDEST JUMPDEST PUSH2 0x1445 DUP5 DUP3 DUP6 PUSH2 0x13FE JUMP JUMPDEST POP SWAP4 SWAP3 POP POP POP JUMP JUMPDEST PUSH0 DUP3 PUSH1 0x1F DUP4 ADD SLT PUSH2 0x1461 JUMPI PUSH2 0x1460 PUSH2 0x134E JUMP JUMPDEST JUMPDEST DUP2 CALLDATALOAD PUSH2 0x1471 DUP5 DUP3 PUSH1 0x20 DUP7 ADD PUSH2 0x140C JUMP JUMPDEST SWAP2 POP POP SWAP3 SWAP2 POP POP JUMP JUMPDEST PUSH0 DUP1 PUSH0 DUP1 PUSH0 PUSH1 0xA0 DUP7 DUP9 SUB SLT ISZERO PUSH2 0x1493 JUMPI PUSH2 0x1492 PUSH2 0x1096 JUMP JUMPDEST JUMPDEST PUSH0 PUSH2 0x14A0 DUP9 DUP3 DUP10 ADD PUSH2 0x10B4 JUMP JUMPDEST SWAP6 POP POP PUSH1 0x20 DUP7 ADD CALLDATALOAD PUSH8 0xFFFFFFFFFFFFFFFF DUP2 GT ISZERO PUSH2 0x14C1 JUMPI PUSH2 0x14C0 PUSH2 0x109A JUMP JUMPDEST JUMPDEST PUSH2 0x14CD DUP9 DUP3 DUP10 ADD PUSH2 0x144D JUMP JUMPDEST SWAP5 POP POP PUSH1 0x40 DUP7 ADD CALLDATALOAD PUSH8 0xFFFFFFFFFFFFFFFF DUP2 GT ISZERO PUSH2 0x14EE JUMPI PUSH2 0x14ED PUSH2 0x109A JUMP JUMPDEST JUMPDEST PUSH2 0x14FA DUP9 DUP3 DUP10 ADD PUSH2 0x144D JUMP JUMPDEST SWAP4 POP POP PUSH1 0x60 PUSH2 0x150B DUP9 DUP3 DUP10 ADD PUSH2 0x10B4 JUMP JUMPDEST SWAP3 POP POP PUSH1 0x80 PUSH2 0x151C DUP9 DUP3 DUP10 ADD PUSH2 0x10B4 JUMP JUMPDEST SWAP2 POP POP SWAP3 SWAP6 POP SWAP3 SWAP6 SWAP1 SWAP4 POP JUMP JUMPDEST PUSH0 PUSH8 0xFFFFFFFFFFFFFFFF DUP3 GT ISZERO PUSH2 0x1543 JUMPI PUSH2 0x1542 PUSH2 0x1356 JUMP JUMPDEST JUMPDEST PUSH1 0x20 DUP3 MUL SWAP1 POP PUSH1 0x20 DUP2 ADD SWAP1 POP SWAP2 SWAP1 POP JUMP JUMPDEST PUSH0 DUP1 REVERT JUMPDEST PUSH0 PUSH2 0x156A PUSH2 0x1565 DUP5 PUSH2 0x1529 JUMP JUMPDEST PUSH2 0x13B4 JUMP JUMPDEST SWAP1 POP DUP1 DUP4 DUP3 MSTORE PUSH1 0x20 DUP3 ADD SWAP1 POP PUSH1 0x20 DUP5 MUL DUP4 ADD DUP6 DUP2 GT ISZERO PUSH2 0x158D JUMPI PUSH2 0x158C PUSH2 0x1554 JUMP JUMPDEST JUMPDEST DUP4 JUMPDEST DUP2 DUP2 LT ISZERO PUSH2 0x15B6 JUMPI DUP1 PUSH2 0x15A2 DUP9 DUP3 PUSH2 0x10B4 JUMP JUMPDEST DUP5 MSTORE PUSH1 0x20 DUP5 ADD SWAP4 POP POP PUSH1 0x20 DUP2 ADD SWAP1 POP PUSH2 0x158F JUMP JUMPDEST POP POP POP SWAP4 SWAP3 POP POP POP JUMP JUMPDEST PUSH0 DUP3 PUSH1 0x1F DUP4 ADD SLT PUSH2 0x15D4 JUMPI PUSH2 0x15D3 PUSH2 0x134E JUMP JUMPDEST JUMPDEST DUP2 CALLDATALOAD PUSH2 0x15E4 DUP5 DUP3 PUSH1 0x20 DUP7 ADD PUSH2 0x1558 JUMP JUMPDEST SWAP2 POP POP SWAP3 SWAP2 POP POP JUMP JUMPDEST PUSH0 PUSH1 0x20 DUP3 DUP5 SUB SLT ISZERO PUSH2 0x1602 JUMPI PUSH2 0x1601 PUSH2 0x1096 JUMP JUMPDEST JUMPDEST PUSH0 DUP3 ADD CALLDATALOAD PUSH8 0xFFFFFFFFFFFFFFFF DUP2 GT ISZERO PUSH2 0x161F JUMPI PUSH2 0x161E PUSH2 0x109A JUMP JUMPDEST JUMPDEST PUSH2 0x162B DUP5 DUP3 DUP6 ADD PUSH2 0x15C0 JUMP JUMPDEST SWAP2 POP POP SWAP3 SWAP2 POP POP JUMP JUMPDEST PUSH32 0x5468697320626F6F6B206973206E6F7420617661696C61626C65000000000000 PUSH0 DUP3 ADD MSTORE POP JUMP JUMPDEST PUSH0 PUSH2 0x1668 PUSH1 0x1A DUP4 PUSH2 0x1163 JUMP JUMPDEST SWAP2 POP PUSH2 0x1673 DUP3 PUSH2 0x1634 JUMP JUMPDEST PUSH1 0x20 DUP3 ADD SWAP1 POP SWAP2 SWAP1 POP JUMP JUMPDEST PUSH0 PUSH1 0x20 DUP3 ADD SWAP1 POP DUP2 DUP2 SUB PUSH0 DUP4 ADD MSTORE PUSH2 0x1695 DUP2 PUSH2 0x165C JUMP JUMPDEST SWAP1 POP SWAP2 SWAP1 POP JUMP JUMPDEST PUSH32 0x4E6F7420656E6F7567682073746F636B20617661696C61626C65000000000000 PUSH0 DUP3 ADD MSTORE POP JUMP JUMPDEST PUSH0 PUSH2 0x16D0 PUSH1 0x1A DUP4 PUSH2 0x1163 JUMP JUMPDEST SWAP2 POP PUSH2 0x16DB DUP3 PUSH2 0x169C JUMP JUMPDEST PUSH1 0x20 DUP3 ADD SWAP1 POP SWAP2 SWAP1 POP JUMP JUMPDEST PUSH0 PUSH1 0x20 DUP3 ADD SWAP1 POP DUP2 DUP2 SUB PUSH0 DUP4 ADD MSTORE PUSH2 0x16FD DUP2 PUSH2 0x16C4 JUMP JUMPDEST SWAP1 POP SWAP2 SWAP1 POP JUMP JUMPDEST PUSH32 0x4E487B7100000000000000000000000000000000000000000000000000000000 PUSH0 MSTORE PUSH1 0x11 PUSH1 0x4 MSTORE PUSH1 0x24 PUSH0 REVERT JUMPDEST PUSH0 PUSH2 0x173B DUP3 PUSH2 0xFD6 JUMP JUMPDEST SWAP2 POP PUSH2 0x1746 DUP4 PUSH2 0xFD6 JUMP JUMPDEST SWAP3 POP DUP3 DUP3 MUL PUSH2 0x1754 DUP2 PUSH2 0xFD6 JUMP JUMPDEST SWAP2 POP DUP3 DUP3 DIV DUP5 EQ DUP4 ISZERO OR PUSH2 0x176B JUMPI PUSH2 0x176A PUSH2 0x1704 JUMP JUMPDEST JUMPDEST POP SWAP3 SWAP2 POP POP JUMP JUMPDEST PUSH32 0x496E636F7272656374207061796D656E7420616D6F756E740000000000000000 PUSH0 DUP3 ADD MSTORE POP JUMP JUMPDEST PUSH0 PUSH2 0x17A6 PUSH1 0x18 DUP4 PUSH2 0x1163 JUMP JUMPDEST SWAP2 POP PUSH2 0x17B1 DUP3 PUSH2 0x1772 JUMP JUMPDEST PUSH1 0x20 DUP3 ADD SWAP1 POP SWAP2 SWAP1 POP JUMP JUMPDEST PUSH0 PUSH1 0x20 DUP3 ADD SWAP1 POP DUP2 DUP2 SUB PUSH0 DUP4 ADD MSTORE PUSH2 0x17D3 DUP2 PUSH2 0x179A JUMP JUMPDEST SWAP1 POP SWAP2 SWAP1 POP JUMP JUMPDEST PUSH0 PUSH2 0x17E4 DUP3 PUSH2 0xFD6 JUMP JUMPDEST SWAP2 POP PUSH2 0x17EF DUP4 PUSH2 0xFD6 JUMP JUMPDEST SWAP3 POP DUP3 DUP3 SUB SWAP1 POP DUP2 DUP2 GT ISZERO PUSH2 0x1807 JUMPI PUSH2 0x1806 PUSH2 0x1704 JUMP JUMPDEST JUMPDEST SWAP3 SWAP2 POP POP JUMP JUMPDEST PUSH0 PUSH2 0x1817 DUP3 PUSH2 0xFD6 JUMP JUMPDEST SWAP2 POP PUSH2 0x1822 DUP4 PUSH2 0xFD6 JUMP JUMPDEST SWAP3 POP DUP3 DUP3 ADD SWAP1 POP DUP1 DUP3 GT ISZERO PUSH2 0x183A JUMPI PUSH2 0x1839 PUSH2 0x1704 JUMP JUMPDEST JUMPDEST SWAP3 SWAP2 POP POP JUMP JUMPDEST PUSH0 PUSH1 0x40 DUP3 ADD SWAP1 POP PUSH2 0x1853 PUSH0 DUP4 ADD DUP6 PUSH2 0x1131 JUMP JUMPDEST PUSH2 0x1860 PUSH1 0x20 DUP4 ADD DUP5 PUSH2 0x1131 JUMP JUMPDEST SWAP4 SWAP3 POP POP POP JUMP JUMPDEST PUSH32 0x4E487B7100000000000000000000000000000000000000000000000000000000 PUSH0 MSTORE PUSH1 0x22 PUSH1 0x4 MSTORE PUSH1 0x24 PUSH0 REVERT JUMPDEST PUSH0 PUSH1 0x2 DUP3 DIV SWAP1 POP PUSH1 0x1 DUP3 AND DUP1 PUSH2 0x18AB JUMPI PUSH1 0x7F DUP3 AND SWAP2 POP JUMPDEST PUSH1 0x20 DUP3 LT DUP2 SUB PUSH2 0x18BE JUMPI PUSH2 0x18BD PUSH2 0x1867 JUMP JUMPDEST JUMPDEST POP SWAP2 SWAP1 POP JUMP JUMPDEST PUSH32 0x426F6F6B20646F6573206E6F7420657869737400000000000000000000000000 PUSH0 DUP3 ADD MSTORE POP JUMP JUMPDEST PUSH0 PUSH2 0x18F8 PUSH1 0x13 DUP4 PUSH2 0x1163 JUMP JUMPDEST SWAP2 POP PUSH2 0x1903 DUP3 PUSH2 0x18C4 JUMP JUMPDEST PUSH1 0x20 DUP3 ADD SWAP1 POP SWAP2 SWAP1 POP JUMP JUMPDEST PUSH0 PUSH1 0x20 DUP3 ADD SWAP1 POP DUP2 DUP2 SUB PUSH0 DUP4 ADD MSTORE PUSH2 0x1925 DUP2 PUSH2 0x18EC JUMP JUMPDEST SWAP1 POP SWAP2 SWAP1 POP JUMP JUMPDEST PUSH32 0x4E487B7100000000000000000000000000000000000000000000000000000000 PUSH0 MSTORE PUSH1 0x32 PUSH1 0x4 MSTORE PUSH1 0x24 PUSH0 REVERT JUMPDEST PUSH32 0x4E487B7100000000000000000000000000000000000000000000000000000000 PUSH0 MSTORE PUSH1 0x31 PUSH1 0x4 MSTORE PUSH1 0x24 PUSH0 REVERT JUMPDEST PUSH32 0x43414E4E4F542041444420424F4F4B20495420414C5245414459204558495354 PUSH0 DUP3 ADD MSTORE PUSH32 0x5300000000000000000000000000000000000000000000000000000000000000 PUSH1 0x20 DUP3 ADD MSTORE POP JUMP JUMPDEST PUSH0 PUSH2 0x19E0 PUSH1 0x21 DUP4 PUSH2 0x1163 JUMP JUMPDEST SWAP2 POP PUSH2 0x19EB DUP3 PUSH2 0x1986 JUMP JUMPDEST PUSH1 0x40 DUP3 ADD SWAP1 POP SWAP2 SWAP1 POP JUMP JUMPDEST PUSH0 PUSH1 0x20 DUP3 ADD SWAP1 POP DUP2 DUP2 SUB PUSH0 DUP4 ADD MSTORE PUSH2 0x1A0D DUP2 PUSH2 0x19D4 JUMP JUMPDEST SWAP1 POP SWAP2 SWAP1 POP JUMP JUMPDEST PUSH0 DUP2 SWAP1 POP DUP2 PUSH0 MSTORE PUSH1 0x20 PUSH0 KECCAK256 SWAP1 POP SWAP2 SWAP1 POP JUMP JUMPDEST PUSH0 PUSH1 0x20 PUSH1 0x1F DUP4 ADD DIV SWAP1 POP SWAP2 SWAP1 POP JUMP JUMPDEST PUSH0 DUP3 DUP3 SHL SWAP1 POP SWAP3 SWAP2 POP POP JUMP JUMPDEST PUSH0 PUSH1 0x8 DUP4 MUL PUSH2 0x1A70 PUSH32 0xFFFFFFFFFFFFFFFFFFFFFFFFFFFFFFFFFFFFFFFFFFFFFFFFFFFFFFFFFFFFFFFF DUP3 PUSH2 0x1A35 JUMP JUMPDEST PUSH2 0x1A7A DUP7 DUP4 PUSH2 0x1A35 JUMP JUMPDEST SWAP6 POP DUP1 NOT DUP5 AND SWAP4 POP DUP1 DUP7 AND DUP5 OR SWAP3 POP POP POP SWAP4 SWAP3 POP POP POP JUMP JUMPDEST PUSH0 DUP2 SWAP1 POP SWAP2 SWAP1 POP JUMP JUMPDEST PUSH0 PUSH2 0x1AB5 PUSH2 0x1AB0 PUSH2 0x1AAB DUP5 PUSH2 0xFD6 JUMP JUMPDEST PUSH2 0x1A92 JUMP JUMPDEST PUSH2 0xFD6 JUMP JUMPDEST SWAP1 POP SWAP2 SWAP1 POP JUMP JUMPDEST PUSH0 DUP2 SWAP1 POP SWAP2 SWAP1 POP JUMP JUMPDEST PUSH2 0x1ACE DUP4 PUSH2 0x1A9B JUMP JUMPDEST PUSH2 0x1AE2 PUSH2 0x1ADA DUP3 PUSH2 0x1ABC JUMP JUMPDEST DUP5 DUP5 SLOAD PUSH2 0x1A41 JUMP JUMPDEST DUP3 SSTORE POP POP POP POP JUMP JUMPDEST PUSH0 SWAP1 JUMP JUMPDEST PUSH2 0x1AF6 PUSH2 0x1AEA JUMP JUMPDEST PUSH2 0x1B01 DUP2 DUP5 DUP5 PUSH2 0x1AC5 JUMP JUMPDEST POP POP POP JUMP JUMPDEST JUMPDEST DUP2 DUP2 LT ISZERO PUSH2 0x1B24 JUMPI PUSH2 0x1B19 PUSH0 DUP3 PUSH2 0x1AEE JUMP JUMPDEST PUSH1 0x1 DUP2 ADD SWAP1 POP PUSH2 0x1B07 JUMP JUMPDEST POP POP JUMP JUMPDEST PUSH1 0x1F DUP3 GT ISZERO PUSH2 0x1B69 JUMPI PUSH2 0x1B3A DUP2 PUSH2 0x1A14 JUMP JUMPDEST PUSH2 0x1B43 DUP5 PUSH2 0x1A26 JUMP JUMPDEST DUP2 ADD PUSH1 0x20 DUP6 LT ISZERO PUSH2 0x1B52 JUMPI DUP2 SWAP1 POP JUMPDEST PUSH2 0x1B66 PUSH2 0x1B5E DUP6 PUSH2 0x1A26 JUMP JUMPDEST DUP4 ADD DUP3 PUSH2 0x1B06 JUMP JUMPDEST POP POP JUMPDEST POP POP POP JUMP JUMPDEST PUSH0 DUP3 DUP3 SHR SWAP1 POP SWAP3 SWAP2 POP POP JUMP JUMPDEST PUSH0 PUSH2 0x1B89 PUSH0 NOT DUP5 PUSH1 0x8 MUL PUSH2 0x1B6E JUMP JUMPDEST NOT DUP1 DUP4 AND SWAP2 POP POP SWAP3 SWAP2 POP POP JUMP JUMPDEST PUSH0 PUSH2 0x1BA1 DUP4 DUP4 PUSH2 0x1B7A JUMP JUMPDEST SWAP2 POP DUP3 PUSH1 0x2 MUL DUP3 OR SWAP1 POP SWAP3 SWAP2 POP POP JUMP JUMPDEST PUSH2 0x1BBA DUP3 PUSH2 0x1159 JUMP JUMPDEST PUSH8 0xFFFFFFFFFFFFFFFF DUP2 GT ISZERO PUSH2 0x1BD3 JUMPI PUSH2 0x1BD2 PUSH2 0x1356 JUMP JUMPDEST JUMPDEST PUSH2 0x1BDD DUP3 SLOAD PUSH2 0x1894 JUMP JUMPDEST PUSH2 0x1BE8 DUP3 DUP3 DUP6 PUSH2 0x1B28 JUMP JUMPDEST PUSH0 PUSH1 0x20 SWAP1 POP PUSH1 0x1F DUP4 GT PUSH1 0x1 DUP2 EQ PUSH2 0x1C19 JUMPI PUSH0 DUP5 ISZERO PUSH2 0x1C07 JUMPI DUP3 DUP8 ADD MLOAD SWAP1 POP JUMPDEST PUSH2 0x1C11 DUP6 DUP3 PUSH2 0x1B96 JUMP JUMPDEST DUP7 SSTORE POP PUSH2 0x1C78 JUMP JUMPDEST PUSH1 0x1F NOT DUP5 AND PUSH2 0x1C27 DUP7 PUSH2 0x1A14 JUMP JUMPDEST PUSH0 JUMPDEST DUP3 DUP2 LT ISZERO PUSH2 0x1C4E JUMPI DUP5 DUP10 ADD MLOAD DUP3 SSTORE PUSH1 0x1 DUP3 ADD SWAP2 POP PUSH1 0x20 DUP6 ADD SWAP5 POP PUSH1 0x20 DUP2 ADD SWAP1 POP PUSH2 0x1C29 JUMP JUMPDEST DUP7 DUP4 LT ISZERO PUSH2 0x1C6B JUMPI DUP5 DUP10 ADD MLOAD PUSH2 0x1C67 PUSH1 0x1F DUP10 AND DUP3 PUSH2 0x1B7A JUMP JUMPDEST DUP4 SSTORE POP JUMPDEST PUSH1 0x1 PUSH1 0x2 DUP9 MUL ADD DUP9 SSTORE POP POP POP JUMPDEST POP POP POP POP POP POP JUMP JUMPDEST PUSH0 PUSH1 0x80 DUP3 ADD SWAP1 POP DUP2 DUP2 SUB PUSH0 DUP4 ADD MSTORE PUSH2 0x1C98 DUP2 DUP8 PUSH2 0x1191 JUMP JUMPDEST SWAP1 POP DUP2 DUP2 SUB PUSH1 0x20 DUP4 ADD MSTORE PUSH2 0x1CAC DUP2 DUP7 PUSH2 0x1191 JUMP JUMPDEST SWAP1 POP PUSH2 0x1CBB PUSH1 0x40 DUP4 ADD DUP6 PUSH2 0x1131 JUMP JUMPDEST PUSH2 0x1CC8 PUSH1 0x60 DUP4 ADD DUP5 PUSH2 0x1131 JUMP JUMPDEST SWAP6 SWAP5 POP POP POP POP POP JUMP INVALID LOG2 PUSH5 0x6970667358 0x22 SLT KECCAK256 SLOAD 0xE8 0xC2 0xDC 0xE0 PUSH5 0x14F210BBD4 EQ 0xD1 DUP5 0xDD JUMPI PUSH11 0x873372EDF52ECCE91FD0E0 DUP13 PUSH25 0xC7964736F6C634300081A0033000000000000000000000000 "
				},
				"gasEstimates": {
					"creation": {
						"codeDepositCost": "1486200",
						"executionCost": "infinite",
						"totalCost": "infinite"
					},
					"external": {
						"addBook(uint256,string,string,uint256,uint256)": "infinite",
						"bookIds(uint256)": "infinite",
						"books(uint256)": "infinite",
						"buyBook(uint256,uint256)": "infinite",
						"getAllBooks()": "infinite",
						"getBooks(uint256)": "infinite",
						"getOwnerBalance()": "5174",
						"getTotalBooksSold()": "2499",
						"owner()": "2560",
						"removeBook(uint256)": "infinite",
						"removeBooks(uint256[])": "infinite",
						"renounceOwnership()": "infinite",
						"transferOwnership(address)": "infinite"
					}
				},
				"methodIdentifiers": {
					"addBook(uint256,string,string,uint256,uint256)": "f733719c",
					"bookIds(uint256)": "513073b8",
					"books(uint256)": "68744046",
					"buyBook(uint256,uint256)": "3af8c2d5",
					"getAllBooks()": "354528e8",
					"getBooks(uint256)": "5ac3e19e",
					"getOwnerBalance()": "590791f2",
					"getTotalBooksSold()": "9bd30883",
					"owner()": "8da5cb5b",
					"removeBook(uint256)": "bec0d799",
					"removeBooks(uint256[])": "f98520de",
					"renounceOwnership()": "715018a6",
					"transferOwnership(address)": "f2fde38b"
				}
			},
			"storageLayout": {
				"storage": [
					{
						"astId": 8,
						"contract": "contracts/Bookstore.sol:BookStore",
						"label": "_owner",
						"offset": 0,
						"slot": "0",
						"type": "t_address"
					},
					{
						"astId": 184,
						"contract": "contracts/Bookstore.sol:BookStore",
						"label": "totalBooksSold",
						"offset": 0,
						"slot": "1",
						"type": "t_uint256"
					},
					{
						"astId": 208,
						"contract": "contracts/Bookstore.sol:BookStore",
						"label": "books",
						"offset": 0,
						"slot": "2",
						"type": "t_mapping(t_uint256,t_struct(Book)203_storage)"
					},
					{
						"astId": 211,
						"contract": "contracts/Bookstore.sol:BookStore",
						"label": "bookIds",
						"offset": 0,
						"slot": "3",
						"type": "t_array(t_uint256)dyn_storage"
					}
				],
				"types": {
					"t_address": {
						"encoding": "inplace",
						"label": "address",
						"numberOfBytes": "20"
					},
					"t_array(t_uint256)dyn_storage": {
						"base": "t_uint256",
						"encoding": "dynamic_array",
						"label": "uint256[]",
						"numberOfBytes": "32"
					},
					"t_bool": {
						"encoding": "inplace",
						"label": "bool",
						"numberOfBytes": "1"
					},
					"t_mapping(t_uint256,t_struct(Book)203_storage)": {
						"encoding": "mapping",
						"key": "t_uint256",
						"label": "mapping(uint256 => struct BookStore.Book)",
						"numberOfBytes": "32",
						"value": "t_struct(Book)203_storage"
					},
					"t_string_storage": {
						"encoding": "bytes",
						"label": "string",
						"numberOfBytes": "32"
					},
					"t_struct(Book)203_storage": {
						"encoding": "inplace",
						"label": "struct BookStore.Book",
						"members": [
							{
								"astId": 194,
								"contract": "contracts/Bookstore.sol:BookStore",
								"label": "stock",
								"offset": 0,
								"slot": "0",
								"type": "t_uint256"
							},
							{
								"astId": 196,
								"contract": "contracts/Bookstore.sol:BookStore",
								"label": "price",
								"offset": 0,
								"slot": "1",
								"type": "t_uint256"
							},
							{
								"astId": 198,
								"contract": "contracts/Bookstore.sol:BookStore",
								"label": "isAvailable",
								"offset": 0,
								"slot": "2",
								"type": "t_bool"
							},
							{
								"astId": 200,
								"contract": "contracts/Bookstore.sol:BookStore",
								"label": "title",
								"offset": 0,
								"slot": "3",
								"type": "t_string_storage"
							},
							{
								"astId": 202,
								"contract": "contracts/Bookstore.sol:BookStore",
								"label": "author",
								"offset": 0,
								"slot": "4",
								"type": "t_string_storage"
							}
						],
						"numberOfBytes": "160"
					},
					"t_uint256": {
						"encoding": "inplace",
						"label": "uint256",
						"numberOfBytes": "32"
					}
				}
			},
			"userdoc": {
				"kind": "user",
				"methods": {},
				"version": 1
			}
		}
	}
}