{
	"contracts/AdvancedBookstore.sol": {
		"AdvancedBookstore": {
			"abi": [
				{
					"inputs": [
						{
							"internalType": "address",
							"name": "_owner",
							"type": "address"
						}
					],
					"stateMutability": "nonpayable",
					"type": "constructor"
				},
				{
					"inputs": [
						{
							"internalType": "address",
							"name": "owner",
							"type": "address"
						}
					],
					"name": "OwnableInvalidOwner",
					"type": "error"
				},
				{
					"inputs": [
						{
							"internalType": "address",
							"name": "account",
							"type": "address"
						}
					],
					"name": "OwnableUnauthorizedAccount",
					"type": "error"
				},
				{
					"anonymous": false,
					"inputs": [
						{
							"indexed": true,
							"internalType": "uint256",
							"name": "bookId",
							"type": "uint256"
						},
						{
							"indexed": false,
							"internalType": "string",
							"name": "title",
							"type": "string"
						},
						{
							"indexed": false,
							"internalType": "string",
							"name": "author",
							"type": "string"
						},
						{
							"indexed": false,
							"internalType": "uint256",
							"name": "price",
							"type": "uint256"
						},
						{
							"indexed": false,
							"internalType": "uint256",
							"name": "stock",
							"type": "uint256"
						}
					],
					"name": "BookAdded",
					"type": "event"
				},
				{
					"anonymous": false,
					"inputs": [
						{
							"indexed": false,
							"internalType": "uint256[]",
							"name": "bookIds",
							"type": "uint256[]"
						}
					],
					"name": "BookBatchRemoved",
					"type": "event"
				},
				{
					"anonymous": false,
					"inputs": [
						{
							"indexed": true,
							"internalType": "uint256",
							"name": "bookId",
							"type": "uint256"
						}
					],
					"name": "BookMarkedAsBestSeller",
					"type": "event"
				},
				{
					"anonymous": false,
					"inputs": [
						{
							"indexed": false,
							"internalType": "uint256",
							"name": "bookId",
							"type": "uint256"
						},
						{
							"indexed": true,
							"internalType": "address",
							"name": "buyer",
							"type": "address"
						},
						{
							"indexed": false,
							"internalType": "uint256",
							"name": "quantity",
							"type": "uint256"
						}
					],
					"name": "BookPurchased",
					"type": "event"
				},
				{
					"anonymous": false,
					"inputs": [
						{
							"indexed": true,
							"internalType": "uint256",
							"name": "bookId",
							"type": "uint256"
						}
					],
					"name": "BookRemoved",
					"type": "event"
				},
				{
					"anonymous": false,
					"inputs": [
						{
							"indexed": true,
							"internalType": "address",
							"name": "previousOwner",
							"type": "address"
						},
						{
							"indexed": true,
							"internalType": "address",
							"name": "newOwner",
							"type": "address"
						}
					],
					"name": "OwnershipTransferred",
					"type": "event"
				},
				{
					"inputs": [
						{
							"internalType": "uint256",
							"name": "_bookId",
							"type": "uint256"
						},
						{
							"internalType": "string",
							"name": "_title",
							"type": "string"
						},
						{
							"internalType": "string",
							"name": "_author",
							"type": "string"
						},
						{
							"internalType": "uint256",
							"name": "_stock",
							"type": "uint256"
						},
						{
							"internalType": "uint16",
							"name": "_price",
							"type": "uint16"
						}
					],
					"name": "addBook",
					"outputs": [],
					"stateMutability": "nonpayable",
					"type": "function"
				},
				{
					"inputs": [
						{
							"internalType": "uint256",
							"name": "",
							"type": "uint256"
						}
					],
					"name": "bestseller",
					"outputs": [
						{
							"internalType": "bool",
							"name": "",
							"type": "bool"
						}
					],
					"stateMutability": "view",
					"type": "function"
				},
				{
					"inputs": [
						{
							"internalType": "uint256",
							"name": "",
							"type": "uint256"
						}
					],
					"name": "bookIds",
					"outputs": [
						{
							"internalType": "uint256",
							"name": "",
							"type": "uint256"
						}
					],
					"stateMutability": "view",
					"type": "function"
				},
				{
					"inputs": [
						{
							"internalType": "uint256",
							"name": "",
							"type": "uint256"
						}
					],
					"name": "books",
					"outputs": [
						{
							"internalType": "string",
							"name": "title",
							"type": "string"
						},
						{
							"internalType": "string",
							"name": "author",
							"type": "string"
						},
						{
							"internalType": "uint16",
							"name": "price",
							"type": "uint16"
						},
						{
							"internalType": "uint256",
							"name": "stock",
							"type": "uint256"
						},
						{
							"internalType": "bool",
							"name": "isAvailable",
							"type": "bool"
						}
					],
					"stateMutability": "view",
					"type": "function"
				},
				{
					"inputs": [
						{
							"internalType": "uint256",
							"name": "_bookId",
							"type": "uint256"
						},
						{
							"internalType": "uint256",
							"name": "_quantity",
							"type": "uint256"
						},
						{
							"internalType": "uint256",
							"name": "_amount",
							"type": "uint256"
						}
					],
					"name": "buyBook",
					"outputs": [],
					"stateMutability": "payable",
					"type": "function"
				},
				{
					"inputs": [],
					"name": "getAllBooks",
					"outputs": [
						{
							"internalType": "uint256[]",
							"name": "",
							"type": "uint256[]"
						}
					],
					"stateMutability": "view",
					"type": "function"
				},
				{
					"inputs": [
						{
							"internalType": "uint256",
							"name": "_bookId",
							"type": "uint256"
						}
					],
					"name": "getBooks",
					"outputs": [
						{
							"internalType": "string",
							"name": "",
							"type": "string"
						},
						{
							"internalType": "string",
							"name": "",
							"type": "string"
						},
						{
							"internalType": "uint256",
							"name": "",
							"type": "uint256"
						},
						{
							"internalType": "uint256",
							"name": "",
							"type": "uint256"
						},
						{
							"internalType": "bool",
							"name": "",
							"type": "bool"
						}
					],
					"stateMutability": "view",
					"type": "function"
				},
				{
					"inputs": [],
					"name": "getOwnerBalance",
					"outputs": [
						{
							"internalType": "uint256",
							"name": "",
							"type": "uint256"
						}
					],
					"stateMutability": "view",
					"type": "function"
				},
				{
					"inputs": [],
					"name": "getTotalBooksSold",
					"outputs": [
						{
							"internalType": "uint256",
							"name": "",
							"type": "uint256"
						}
					],
					"stateMutability": "view",
					"type": "function"
				},
				{
					"inputs": [
						{
							"internalType": "uint256",
							"name": "bookId",
							"type": "uint256"
						}
					],
					"name": "isBestSeller",
					"outputs": [
						{
							"internalType": "bool",
							"name": "",
							"type": "bool"
						}
					],
					"stateMutability": "view",
					"type": "function"
				},
				{
					"inputs": [
						{
							"internalType": "uint256",
							"name": "bookId",
							"type": "uint256"
						}
					],
					"name": "markBookAsBestSeller",
					"outputs": [],
					"stateMutability": "nonpayable",
					"type": "function"
				},
				{
					"inputs": [],
					"name": "owner",
					"outputs": [
						{
							"internalType": "address",
							"name": "",
							"type": "address"
						}
					],
					"stateMutability": "view",
					"type": "function"
				},
				{
					"inputs": [
						{
							"internalType": "uint256",
							"name": "_bookId",
							"type": "uint256"
						}
					],
					"name": "removeBook",
					"outputs": [],
					"stateMutability": "nonpayable",
					"type": "function"
				},
				{
					"inputs": [
						{
							"internalType": "uint256[]",
							"name": "_bookIds",
							"type": "uint256[]"
						}
					],
					"name": "removeBooks",
					"outputs": [],
					"stateMutability": "nonpayable",
					"type": "function"
				},
				{
					"inputs": [],
					"name": "renounceOwnership",
					"outputs": [],
					"stateMutability": "nonpayable",
					"type": "function"
				},
				{
					"inputs": [
						{
							"internalType": "address",
							"name": "newOwner",
							"type": "address"
						}
					],
					"name": "transferOwnership",
					"outputs": [],
					"stateMutability": "nonpayable",
					"type": "function"
				}
			],
			"devdoc": {
				"errors": {
					"OwnableInvalidOwner(address)": [
						{
							"details": "The owner is not a valid owner account. (eg. `address(0)`)"
						}
					],
					"OwnableUnauthorizedAccount(address)": [
						{
							"details": "The caller account is not authorized to perform an operation."
						}
					]
				},
				"kind": "dev",
				"methods": {
					"owner()": {
						"details": "Returns the address of the current owner."
					},
					"renounceOwnership()": {
						"details": "Leaves the contract without owner. It will not be possible to call `onlyOwner` functions. Can only be called by the current owner. NOTE: Renouncing ownership will leave the contract without an owner, thereby disabling any functionality that is only available to the owner."
					},
					"transferOwnership(address)": {
						"details": "Transfers ownership of the contract to a new account (`newOwner`). Can only be called by the current owner."
					}
				},
				"version": 1
			},
			"evm": {
				"assembly": "    /* \"contracts/AdvancedBookstore.sol\":96:656  contract AdvancedBookstore is BookStore  {... */\n  mstore(0x40, 0x80)\n    /* \"contracts/AdvancedBookstore.sol\":257:300  constructor (address _owner) BookStore() {} */\n  callvalue\n  dup1\n  iszero\n  tag_1\n  jumpi\n  0x00\n  dup1\n  revert\ntag_1:\n  pop\n  mload(0x40)\n  sub(codesize, bytecodeSize)\n  dup1\n  bytecodeSize\n  dup4\n  codecopy\n  dup2\n  dup2\n  add\n  0x40\n  mstore\n  dup2\n  add\n  swap1\n  tag_2\n  swap2\n  swap1\n  tag_3\n  jump\t// in\ntag_2:\n    /* \"contracts/Bookstore.sol\":218:228  msg.sender */\n  caller\n    /* \"@openzeppelin/contracts/access/Ownable.sol\":1297:1298  0 */\n  0x00\n    /* \"@openzeppelin/contracts/access/Ownable.sol\":1273:1299  initialOwner == address(0) */\n  0xffffffffffffffffffffffffffffffffffffffff\n  and\n    /* \"@openzeppelin/contracts/access/Ownable.sol\":1273:1285  initialOwner */\n  dup2\n    /* \"@openzeppelin/contracts/access/Ownable.sol\":1273:1299  initialOwner == address(0) */\n  0xffffffffffffffffffffffffffffffffffffffff\n  and\n  sub\n    /* \"@openzeppelin/contracts/access/Ownable.sol\":1269:1364  if (initialOwner == address(0)) {... */\n  tag_8\n  jumpi\n    /* \"@openzeppelin/contracts/access/Ownable.sol\":1350:1351  0 */\n  0x00\n    /* \"@openzeppelin/contracts/access/Ownable.sol\":1322:1353  OwnableInvalidOwner(address(0)) */\n  mload(0x40)\n  0x1e4fbdf700000000000000000000000000000000000000000000000000000000\n  dup2\n  mstore\n  0x04\n  add\n  tag_9\n  swap2\n  swap1\n  tag_10\n  jump\t// in\ntag_9:\n  mload(0x40)\n  dup1\n  swap2\n  sub\n  swap1\n  revert\n    /* \"@openzeppelin/contracts/access/Ownable.sol\":1269:1364  if (initialOwner == address(0)) {... */\ntag_8:\n    /* \"@openzeppelin/contracts/access/Ownable.sol\":1373:1405  _transferOwnership(initialOwner) */\n  tag_11\n    /* \"@openzeppelin/contracts/access/Ownable.sol\":1392:1404  initialOwner */\n  dup2\n    /* \"@openzeppelin/contracts/access/Ownable.sol\":1373:1391  _transferOwnership */\n  shl(0x20, tag_12)\n    /* \"@openzeppelin/contracts/access/Ownable.sol\":1373:1405  _transferOwnership(initialOwner) */\n  0x20\n  shr\n  jump\t// in\ntag_11:\n    /* \"@openzeppelin/contracts/access/Ownable.sol\":1225:1412  constructor(address initialOwner) {... */\n  pop\n    /* \"contracts/AdvancedBookstore.sol\":257:300  constructor (address _owner) BookStore() {} */\n  pop\n    /* \"contracts/AdvancedBookstore.sol\":96:656  contract AdvancedBookstore is BookStore  {... */\n  jump(tag_15)\n    /* \"@openzeppelin/contracts/access/Ownable.sol\":2912:3099  function _transferOwnership(address newOwner) internal virtual {... */\ntag_12:\n    /* \"@openzeppelin/contracts/access/Ownable.sol\":2985:3001  address oldOwner */\n  0x00\n    /* \"@openzeppelin/contracts/access/Ownable.sol\":3004:3010  _owner */\n  dup1\n  0x00\n  swap1\n  sload\n  swap1\n  0x0100\n  exp\n  swap1\n  div\n  0xffffffffffffffffffffffffffffffffffffffff\n  and\n    /* \"@openzeppelin/contracts/access/Ownable.sol\":2985:3010  address oldOwner = _owner */\n  swap1\n  pop\n    /* \"@openzeppelin/contracts/access/Ownable.sol\":3029:3037  newOwner */\n  dup2\n    /* \"@openzeppelin/contracts/access/Ownable.sol\":3020:3026  _owner */\n  0x00\n  dup1\n    /* \"@openzeppelin/contracts/access/Ownable.sol\":3020:3037  _owner = newOwner */\n  0x0100\n  exp\n  dup2\n  sload\n  dup2\n  0xffffffffffffffffffffffffffffffffffffffff\n  mul\n  not\n  and\n  swap1\n  dup4\n  0xffffffffffffffffffffffffffffffffffffffff\n  and\n  mul\n  or\n  swap1\n  sstore\n  pop\n    /* \"@openzeppelin/contracts/access/Ownable.sol\":3083:3091  newOwner */\n  dup2\n    /* \"@openzeppelin/contracts/access/Ownable.sol\":3052:3092  OwnershipTransferred(oldOwner, newOwner) */\n  0xffffffffffffffffffffffffffffffffffffffff\n  and\n    /* \"@openzeppelin/contracts/access/Ownable.sol\":3073:3081  oldOwner */\n  dup2\n    /* \"@openzeppelin/contracts/access/Ownable.sol\":3052:3092  OwnershipTransferred(oldOwner, newOwner) */\n  0xffffffffffffffffffffffffffffffffffffffff\n  and\n  0x8be0079c531659141344cd1fd0a4f28419497f9722a3daafe3b4186f6b6457e0\n  mload(0x40)\n  mload(0x40)\n  dup1\n  swap2\n  sub\n  swap1\n  log3\n    /* \"@openzeppelin/contracts/access/Ownable.sol\":2975:3099  {... */\n  pop\n    /* \"@openzeppelin/contracts/access/Ownable.sol\":2912:3099  function _transferOwnership(address newOwner) internal virtual {... */\n  pop\n  jump\t// out\n    /* \"#utility.yul\":88:205   */\ntag_18:\n    /* \"#utility.yul\":197:198   */\n  0x00\n    /* \"#utility.yul\":194:195   */\n  dup1\n    /* \"#utility.yul\":187:199   */\n  revert\n    /* \"#utility.yul\":334:460   */\ntag_20:\n    /* \"#utility.yul\":371:378   */\n  0x00\n    /* \"#utility.yul\":411:453   */\n  0xffffffffffffffffffffffffffffffffffffffff\n    /* \"#utility.yul\":404:409   */\n  dup3\n    /* \"#utility.yul\":400:454   */\n  and\n    /* \"#utility.yul\":389:454   */\n  swap1\n  pop\n    /* \"#utility.yul\":334:460   */\n  swap2\n  swap1\n  pop\n  jump\t// out\n    /* \"#utility.yul\":466:562   */\ntag_21:\n    /* \"#utility.yul\":503:510   */\n  0x00\n    /* \"#utility.yul\":532:556   */\n  tag_31\n    /* \"#utility.yul\":550:555   */\n  dup3\n    /* \"#utility.yul\":532:556   */\n  tag_20\n  jump\t// in\ntag_31:\n    /* \"#utility.yul\":521:556   */\n  swap1\n  pop\n    /* \"#utility.yul\":466:562   */\n  swap2\n  swap1\n  pop\n  jump\t// out\n    /* \"#utility.yul\":568:690   */\ntag_22:\n    /* \"#utility.yul\":641:665   */\n  tag_33\n    /* \"#utility.yul\":659:664   */\n  dup2\n    /* \"#utility.yul\":641:665   */\n  tag_21\n  jump\t// in\ntag_33:\n    /* \"#utility.yul\":634:639   */\n  dup2\n    /* \"#utility.yul\":631:666   */\n  eq\n    /* \"#utility.yul\":621:684   */\n  tag_34\n  jumpi\n    /* \"#utility.yul\":680:681   */\n  0x00\n    /* \"#utility.yul\":677:678   */\n  dup1\n    /* \"#utility.yul\":670:682   */\n  revert\n    /* \"#utility.yul\":621:684   */\ntag_34:\n    /* \"#utility.yul\":568:690   */\n  pop\n  jump\t// out\n    /* \"#utility.yul\":696:839   */\ntag_23:\n    /* \"#utility.yul\":753:758   */\n  0x00\n    /* \"#utility.yul\":784:790   */\n  dup2\n    /* \"#utility.yul\":778:791   */\n  mload\n    /* \"#utility.yul\":769:791   */\n  swap1\n  pop\n    /* \"#utility.yul\":800:833   */\n  tag_36\n    /* \"#utility.yul\":827:832   */\n  dup2\n    /* \"#utility.yul\":800:833   */\n  tag_22\n  jump\t// in\ntag_36:\n    /* \"#utility.yul\":696:839   */\n  swap3\n  swap2\n  pop\n  pop\n  jump\t// out\n    /* \"#utility.yul\":845:1196   */\ntag_3:\n    /* \"#utility.yul\":915:921   */\n  0x00\n    /* \"#utility.yul\":964:966   */\n  0x20\n    /* \"#utility.yul\":952:961   */\n  dup3\n    /* \"#utility.yul\":943:950   */\n  dup5\n    /* \"#utility.yul\":939:962   */\n  sub\n    /* \"#utility.yul\":935:967   */\n  slt\n    /* \"#utility.yul\":932:1051   */\n  iszero\n  tag_38\n  jumpi\n    /* \"#utility.yul\":970:1049   */\n  tag_39\n  tag_18\n  jump\t// in\ntag_39:\n    /* \"#utility.yul\":932:1051   */\ntag_38:\n    /* \"#utility.yul\":1090:1091   */\n  0x00\n    /* \"#utility.yul\":1115:1179   */\n  tag_40\n    /* \"#utility.yul\":1171:1178   */\n  dup5\n    /* \"#utility.yul\":1162:1168   */\n  dup3\n    /* \"#utility.yul\":1151:1160   */\n  dup6\n    /* \"#utility.yul\":1147:1169   */\n  add\n    /* \"#utility.yul\":1115:1179   */\n  tag_23\n  jump\t// in\ntag_40:\n    /* \"#utility.yul\":1105:1179   */\n  swap2\n  pop\n    /* \"#utility.yul\":1061:1189   */\n  pop\n    /* \"#utility.yul\":845:1196   */\n  swap3\n  swap2\n  pop\n  pop\n  jump\t// out\n    /* \"#utility.yul\":1202:1320   */\ntag_24:\n    /* \"#utility.yul\":1289:1313   */\n  tag_42\n    /* \"#utility.yul\":1307:1312   */\n  dup2\n    /* \"#utility.yul\":1289:1313   */\n  tag_21\n  jump\t// in\ntag_42:\n    /* \"#utility.yul\":1284:1287   */\n  dup3\n    /* \"#utility.yul\":1277:1314   */\n  mstore\n    /* \"#utility.yul\":1202:1320   */\n  pop\n  pop\n  jump\t// out\n    /* \"#utility.yul\":1326:1548   */\ntag_10:\n    /* \"#utility.yul\":1419:1423   */\n  0x00\n    /* \"#utility.yul\":1457:1459   */\n  0x20\n    /* \"#utility.yul\":1446:1455   */\n  dup3\n    /* \"#utility.yul\":1442:1460   */\n  add\n    /* \"#utility.yul\":1434:1460   */\n  swap1\n  pop\n    /* \"#utility.yul\":1470:1541   */\n  tag_44\n    /* \"#utility.yul\":1538:1539   */\n  0x00\n    /* \"#utility.yul\":1527:1536   */\n  dup4\n    /* \"#utility.yul\":1523:1540   */\n  add\n    /* \"#utility.yul\":1514:1520   */\n  dup5\n    /* \"#utility.yul\":1470:1541   */\n  tag_24\n  jump\t// in\ntag_44:\n    /* \"#utility.yul\":1326:1548   */\n  swap3\n  swap2\n  pop\n  pop\n  jump\t// out\n    /* \"contracts/AdvancedBookstore.sol\":96:656  contract AdvancedBookstore is BookStore  {... */\ntag_15:\n  dataSize(sub_0)\n  dup1\n  dataOffset(sub_0)\n  0x00\n  codecopy\n  0x00\n  return\nstop\n\nsub_0: assembly {\n        /* \"contracts/AdvancedBookstore.sol\":96:656  contract AdvancedBookstore is BookStore  {... */\n      mstore(0x40, 0x80)\n      jumpi(tag_1, lt(calldatasize, 0x04))\n      shr(0xe0, calldataload(0x00))\n      dup1\n      0x8da5cb5b\n      gt\n      tag_18\n      jumpi\n      dup1\n      0xf2fde38b\n      gt\n      tag_19\n      jumpi\n      dup1\n      0xf2fde38b\n      eq\n      tag_14\n      jumpi\n      dup1\n      0xf346e2b7\n      eq\n      tag_15\n      jumpi\n      dup1\n      0xf60560de\n      eq\n      tag_16\n      jumpi\n      dup1\n      0xf98520de\n      eq\n      tag_17\n      jumpi\n      jump(tag_1)\n    tag_19:\n      dup1\n      0x8da5cb5b\n      eq\n      tag_10\n      jumpi\n      dup1\n      0x9bd30883\n      eq\n      tag_11\n      jumpi\n      dup1\n      0xbec0d799\n      eq\n      tag_12\n      jumpi\n      dup1\n      0xd0289085\n      eq\n      tag_13\n      jumpi\n      jump(tag_1)\n    tag_18:\n      dup1\n      0x590791f2\n      gt\n      tag_20\n      jumpi\n      dup1\n      0x590791f2\n      eq\n      tag_6\n      jumpi\n      dup1\n      0x5ac3e19e\n      eq\n      tag_7\n      jumpi\n      dup1\n      0x68744046\n      eq\n      tag_8\n      jumpi\n      dup1\n      0x715018a6\n      eq\n      tag_9\n      jumpi\n      jump(tag_1)\n    tag_20:\n      dup1\n      0x1f9b7ad8\n      eq\n      tag_2\n      jumpi\n      dup1\n      0x354528e8\n      eq\n      tag_3\n      jumpi\n      dup1\n      0x3bf561ed\n      eq\n      tag_4\n      jumpi\n      dup1\n      0x513073b8\n      eq\n      tag_5\n      jumpi\n    tag_1:\n      0x00\n      dup1\n      revert\n        /* \"contracts/AdvancedBookstore.sol\":144:187  mapping (uint256 => bool) public bestseller */\n    tag_2:\n      callvalue\n      dup1\n      iszero\n      tag_21\n      jumpi\n      0x00\n      dup1\n      revert\n    tag_21:\n      pop\n      tag_22\n      0x04\n      dup1\n      calldatasize\n      sub\n      dup2\n      add\n      swap1\n      tag_23\n      swap2\n      swap1\n      tag_24\n      jump\t// in\n    tag_23:\n      tag_25\n      jump\t// in\n    tag_22:\n      mload(0x40)\n      tag_26\n      swap2\n      swap1\n      tag_27\n      jump\t// in\n    tag_26:\n      mload(0x40)\n      dup1\n      swap2\n      sub\n      swap1\n      return\n        /* \"contracts/Bookstore.sol\":1339:1434  function getAllBooks() public view returns (uint256[] memory) {... */\n    tag_3:\n      callvalue\n      dup1\n      iszero\n      tag_28\n      jumpi\n      0x00\n      dup1\n      revert\n    tag_28:\n      pop\n      tag_29\n      tag_30\n      jump\t// in\n    tag_29:\n      mload(0x40)\n      tag_31\n      swap2\n      swap1\n      tag_32\n      jump\t// in\n    tag_31:\n      mload(0x40)\n      dup1\n      swap2\n      sub\n      swap1\n      return\n        /* \"contracts/AdvancedBookstore.sol\":308:533  function markBookAsBestSeller(uint256 bookId) public onlyOwner {... */\n    tag_4:\n      callvalue\n      dup1\n      iszero\n      tag_33\n      jumpi\n      0x00\n      dup1\n      revert\n    tag_33:\n      pop\n      tag_34\n      0x04\n      dup1\n      calldatasize\n      sub\n      dup2\n      add\n      swap1\n      tag_35\n      swap2\n      swap1\n      tag_24\n      jump\t// in\n    tag_35:\n      tag_36\n      jump\t// in\n    tag_34:\n      stop\n        /* \"contracts/Bookstore.sol\":473:497  uint256[] public bookIds */\n    tag_5:\n      callvalue\n      dup1\n      iszero\n      tag_37\n      jumpi\n      0x00\n      dup1\n      revert\n    tag_37:\n      pop\n      tag_38\n      0x04\n      dup1\n      calldatasize\n      sub\n      dup2\n      add\n      swap1\n      tag_39\n      swap2\n      swap1\n      tag_24\n      jump\t// in\n    tag_39:\n      tag_40\n      jump\t// in\n    tag_38:\n      mload(0x40)\n      tag_41\n      swap2\n      swap1\n      tag_42\n      jump\t// in\n    tag_41:\n      mload(0x40)\n      dup1\n      swap2\n      sub\n      swap1\n      return\n        /* \"contracts/Bookstore.sol\":2711:2818  function getOwnerBalance() public view returns (uint256) {... */\n    tag_6:\n      callvalue\n      dup1\n      iszero\n      tag_43\n      jumpi\n      0x00\n      dup1\n      revert\n    tag_43:\n      pop\n      tag_44\n      tag_45\n      jump\t// in\n    tag_44:\n      mload(0x40)\n      tag_46\n      swap2\n      swap1\n      tag_42\n      jump\t// in\n    tag_46:\n      mload(0x40)\n      dup1\n      swap2\n      sub\n      swap1\n      return\n        /* \"contracts/Bookstore.sol\":2975:3222  function getBooks(uint256 _bookId) public view returns (string memory, string memory, uint256, uint256, bool) {... */\n    tag_7:\n      callvalue\n      dup1\n      iszero\n      tag_47\n      jumpi\n      0x00\n      dup1\n      revert\n    tag_47:\n      pop\n      tag_48\n      0x04\n      dup1\n      calldatasize\n      sub\n      dup2\n      add\n      swap1\n      tag_49\n      swap2\n      swap1\n      tag_24\n      jump\t// in\n    tag_49:\n      tag_50\n      jump\t// in\n    tag_48:\n      mload(0x40)\n      tag_51\n      swap6\n      swap5\n      swap4\n      swap3\n      swap2\n      swap1\n      tag_52\n      jump\t// in\n    tag_51:\n      mload(0x40)\n      dup1\n      swap2\n      sub\n      swap1\n      return\n        /* \"contracts/Bookstore.sol\":429:466  mapping(uint256 => Book) public books */\n    tag_8:\n      callvalue\n      dup1\n      iszero\n      tag_53\n      jumpi\n      0x00\n      dup1\n      revert\n    tag_53:\n      pop\n      tag_54\n      0x04\n      dup1\n      calldatasize\n      sub\n      dup2\n      add\n      swap1\n      tag_55\n      swap2\n      swap1\n      tag_24\n      jump\t// in\n    tag_55:\n      tag_56\n      jump\t// in\n    tag_54:\n      mload(0x40)\n      tag_57\n      swap6\n      swap5\n      swap4\n      swap3\n      swap2\n      swap1\n      tag_58\n      jump\t// in\n    tag_57:\n      mload(0x40)\n      dup1\n      swap2\n      sub\n      swap1\n      return\n        /* \"@openzeppelin/contracts/access/Ownable.sol\":2293:2394  function renounceOwnership() public virtual onlyOwner {... */\n    tag_9:\n      callvalue\n      dup1\n      iszero\n      tag_59\n      jumpi\n      0x00\n      dup1\n      revert\n    tag_59:\n      pop\n      tag_60\n      tag_61\n      jump\t// in\n    tag_60:\n      stop\n        /* \"@openzeppelin/contracts/access/Ownable.sol\":1638:1723  function owner() public view virtual returns (address) {... */\n    tag_10:\n      callvalue\n      dup1\n      iszero\n      tag_62\n      jumpi\n      0x00\n      dup1\n      revert\n    tag_62:\n      pop\n      tag_63\n      tag_64\n      jump\t// in\n    tag_63:\n      mload(0x40)\n      tag_65\n      swap2\n      swap1\n      tag_66\n      jump\t// in\n    tag_65:\n      mload(0x40)\n      dup1\n      swap2\n      sub\n      swap1\n      return\n        /* \"contracts/Bookstore.sol\":2868:2967  function getTotalBooksSold() public view returns (uint256) {... */\n    tag_11:\n      callvalue\n      dup1\n      iszero\n      tag_67\n      jumpi\n      0x00\n      dup1\n      revert\n    tag_67:\n      pop\n      tag_68\n      tag_69\n      jump\t// in\n    tag_68:\n      mload(0x40)\n      tag_70\n      swap2\n      swap1\n      tag_42\n      jump\t// in\n    tag_70:\n      mload(0x40)\n      dup1\n      swap2\n      sub\n      swap1\n      return\n        /* \"contracts/Bookstore.sol\":2187:2672  function removeBook(uint256 _bookId) public onlyOwner {... */\n    tag_12:\n      callvalue\n      dup1\n      iszero\n      tag_71\n      jumpi\n      0x00\n      dup1\n      revert\n    tag_71:\n      pop\n      tag_72\n      0x04\n      dup1\n      calldatasize\n      sub\n      dup2\n      add\n      swap1\n      tag_73\n      swap2\n      swap1\n      tag_24\n      jump\t// in\n    tag_73:\n      tag_74\n      jump\t// in\n    tag_72:\n      stop\n        /* \"contracts/Bookstore.sol\":794:1297  function addBook(uint256 _bookId, string memory _title, string memory _author, uint256 _stock, uint16 _price) public {... */\n    tag_13:\n      callvalue\n      dup1\n      iszero\n      tag_75\n      jumpi\n      0x00\n      dup1\n      revert\n    tag_75:\n      pop\n      tag_76\n      0x04\n      dup1\n      calldatasize\n      sub\n      dup2\n      add\n      swap1\n      tag_77\n      swap2\n      swap1\n      tag_78\n      jump\t// in\n    tag_77:\n      tag_79\n      jump\t// in\n    tag_76:\n      stop\n        /* \"@openzeppelin/contracts/access/Ownable.sol\":2543:2758  function transferOwnership(address newOwner) public virtual onlyOwner {... */\n    tag_14:\n      callvalue\n      dup1\n      iszero\n      tag_80\n      jumpi\n      0x00\n      dup1\n      revert\n    tag_80:\n      pop\n      tag_81\n      0x04\n      dup1\n      calldatasize\n      sub\n      dup2\n      add\n      swap1\n      tag_82\n      swap2\n      swap1\n      tag_83\n      jump\t// in\n    tag_82:\n      tag_84\n      jump\t// in\n    tag_81:\n      stop\n        /* \"contracts/Bookstore.sol\":3230:4009  function buyBook(uint256 _bookId, uint256 _quantity, uint256 _amount) public payable {... */\n    tag_15:\n      tag_85\n      0x04\n      dup1\n      calldatasize\n      sub\n      dup2\n      add\n      swap1\n      tag_86\n      swap2\n      swap1\n      tag_87\n      jump\t// in\n    tag_86:\n      tag_88\n      jump\t// in\n    tag_85:\n      stop\n        /* \"contracts/AdvancedBookstore.sol\":541:650  function isBestSeller(uint256 bookId) public view returns (bool) {... */\n    tag_16:\n      callvalue\n      dup1\n      iszero\n      tag_89\n      jumpi\n      0x00\n      dup1\n      revert\n    tag_89:\n      pop\n      tag_90\n      0x04\n      dup1\n      calldatasize\n      sub\n      dup2\n      add\n      swap1\n      tag_91\n      swap2\n      swap1\n      tag_24\n      jump\t// in\n    tag_91:\n      tag_92\n      jump\t// in\n    tag_90:\n      mload(0x40)\n      tag_93\n      swap2\n      swap1\n      tag_27\n      jump\t// in\n    tag_93:\n      mload(0x40)\n      dup1\n      swap2\n      sub\n      swap1\n      return\n        /* \"contracts/Bookstore.sol\":1484:2138  function removeBooks(uint256[] memory _bookIds) public onlyOwner {... */\n    tag_17:\n      callvalue\n      dup1\n      iszero\n      tag_94\n      jumpi\n      0x00\n      dup1\n      revert\n    tag_94:\n      pop\n      tag_95\n      0x04\n      dup1\n      calldatasize\n      sub\n      dup2\n      add\n      swap1\n      tag_96\n      swap2\n      swap1\n      tag_97\n      jump\t// in\n    tag_96:\n      tag_98\n      jump\t// in\n    tag_95:\n      stop\n        /* \"contracts/AdvancedBookstore.sol\":144:187  mapping (uint256 => bool) public bestseller */\n    tag_25:\n      mstore(0x20, 0x04)\n      dup1\n      0x00\n      mstore\n      keccak256(0x00, 0x40)\n      0x00\n      swap2\n      pop\n      sload\n      swap1\n      0x0100\n      exp\n      swap1\n      div\n      0xff\n      and\n      dup2\n      jump\t// out\n        /* \"contracts/Bookstore.sol\":1339:1434  function getAllBooks() public view returns (uint256[] memory) {... */\n    tag_30:\n        /* \"contracts/Bookstore.sol\":1383:1399  uint256[] memory */\n      0x60\n        /* \"contracts/Bookstore.sol\":1419:1426  bookIds */\n      0x03\n        /* \"contracts/Bookstore.sol\":1412:1426  return bookIds */\n      dup1\n      sload\n      dup1\n      0x20\n      mul\n      0x20\n      add\n      mload(0x40)\n      swap1\n      dup2\n      add\n      0x40\n      mstore\n      dup1\n      swap3\n      swap2\n      swap1\n      dup2\n      dup2\n      mstore\n      0x20\n      add\n      dup3\n      dup1\n      sload\n      dup1\n      iszero\n      tag_100\n      jumpi\n      0x20\n      mul\n      dup3\n      add\n      swap2\n      swap1\n      0x00\n      mstore\n      keccak256(0x00, 0x20)\n      swap1\n    tag_101:\n      dup2\n      sload\n      dup2\n      mstore\n      0x20\n      add\n      swap1\n      0x01\n      add\n      swap1\n      dup1\n      dup4\n      gt\n      tag_101\n      jumpi\n    tag_100:\n      pop\n      pop\n      pop\n      pop\n      pop\n      swap1\n      pop\n        /* \"contracts/Bookstore.sol\":1339:1434  function getAllBooks() public view returns (uint256[] memory) {... */\n      swap1\n      jump\t// out\n        /* \"contracts/AdvancedBookstore.sol\":308:533  function markBookAsBestSeller(uint256 bookId) public onlyOwner {... */\n    tag_36:\n        /* \"@openzeppelin/contracts/access/Ownable.sol\":1531:1544  _checkOwner() */\n      tag_103\n        /* \"@openzeppelin/contracts/access/Ownable.sol\":1531:1542  _checkOwner */\n      tag_104\n        /* \"@openzeppelin/contracts/access/Ownable.sol\":1531:1544  _checkOwner() */\n      jump\t// in\n    tag_103:\n        /* \"contracts/AdvancedBookstore.sol\":413:414  0 */\n      0x00\n        /* \"contracts/AdvancedBookstore.sol\":390:395  books */\n      0x02\n        /* \"contracts/AdvancedBookstore.sol\":390:403  books[bookId] */\n      0x00\n        /* \"contracts/AdvancedBookstore.sol\":396:402  bookId */\n      dup4\n        /* \"contracts/AdvancedBookstore.sol\":390:403  books[bookId] */\n      dup2\n      mstore\n      0x20\n      add\n      swap1\n      dup2\n      mstore\n      0x20\n      add\n      0x00\n      keccak256\n        /* \"contracts/AdvancedBookstore.sol\":390:409  books[bookId].price */\n      0x02\n      add\n      0x00\n      swap1\n      sload\n      swap1\n      0x0100\n      exp\n      swap1\n      div\n      0xffff\n      and\n        /* \"contracts/AdvancedBookstore.sol\":390:414  books[bookId].price != 0 */\n      0xffff\n      and\n      sub\n        /* \"contracts/AdvancedBookstore.sol\":382:443  require(books[bookId].price != 0,\"This Book Does Not Exist!\") */\n      tag_106\n      jumpi\n      mload(0x40)\n      0x08c379a000000000000000000000000000000000000000000000000000000000\n      dup2\n      mstore\n      0x04\n      add\n      tag_107\n      swap1\n      tag_108\n      jump\t// in\n    tag_107:\n      mload(0x40)\n      dup1\n      swap2\n      sub\n      swap1\n      revert\n    tag_106:\n        /* \"contracts/AdvancedBookstore.sol\":475:479  true */\n      0x01\n        /* \"contracts/AdvancedBookstore.sol\":454:464  bestseller */\n      0x04\n        /* \"contracts/AdvancedBookstore.sol\":454:472  bestseller[bookId] */\n      0x00\n        /* \"contracts/AdvancedBookstore.sol\":465:471  bookId */\n      dup4\n        /* \"contracts/AdvancedBookstore.sol\":454:472  bestseller[bookId] */\n      dup2\n      mstore\n      0x20\n      add\n      swap1\n      dup2\n      mstore\n      0x20\n      add\n      0x00\n      keccak256\n      0x00\n        /* \"contracts/AdvancedBookstore.sol\":454:479  bestseller[bookId] = true */\n      0x0100\n      exp\n      dup2\n      sload\n      dup2\n      0xff\n      mul\n      not\n      and\n      swap1\n      dup4\n      iszero\n      iszero\n      mul\n      or\n      swap1\n      sstore\n      pop\n        /* \"contracts/AdvancedBookstore.sol\":518:524  bookId */\n      dup1\n        /* \"contracts/AdvancedBookstore.sol\":495:525  BookMarkedAsBestSeller(bookId) */\n      0x086751756703c53d5d7e44bd54604b7d71c6cce159f4525b5f5b6ef93e6afa4d\n      mload(0x40)\n      mload(0x40)\n      dup1\n      swap2\n      sub\n      swap1\n      log2\n        /* \"contracts/AdvancedBookstore.sol\":308:533  function markBookAsBestSeller(uint256 bookId) public onlyOwner {... */\n      pop\n      jump\t// out\n        /* \"contracts/Bookstore.sol\":473:497  uint256[] public bookIds */\n    tag_40:\n      0x03\n      dup2\n      dup2\n      sload\n      dup2\n      lt\n      tag_109\n      jumpi\n      0x00\n      dup1\n      revert\n    tag_109:\n      swap1\n      0x00\n      mstore\n      keccak256(0x00, 0x20)\n      add\n      0x00\n      swap2\n      pop\n      swap1\n      pop\n      sload\n      dup2\n      jump\t// out\n        /* \"contracts/Bookstore.sol\":2711:2818  function getOwnerBalance() public view returns (uint256) {... */\n    tag_45:\n        /* \"contracts/Bookstore.sol\":2759:2766  uint256 */\n      0x00\n        /* \"contracts/Bookstore.sol\":2794:2801  owner() */\n      tag_112\n        /* \"contracts/Bookstore.sol\":2794:2799  owner */\n      tag_64\n        /* \"contracts/Bookstore.sol\":2794:2801  owner() */\n      jump\t// in\n    tag_112:\n        /* \"contracts/Bookstore.sol\":2786:2810  address(owner()).balance */\n      0xffffffffffffffffffffffffffffffffffffffff\n      and\n      balance\n        /* \"contracts/Bookstore.sol\":2779:2810  return address(owner()).balance */\n      swap1\n      pop\n        /* \"contracts/Bookstore.sol\":2711:2818  function getOwnerBalance() public view returns (uint256) {... */\n      swap1\n      jump\t// out\n        /* \"contracts/Bookstore.sol\":2975:3222  function getBooks(uint256 _bookId) public view returns (string memory, string memory, uint256, uint256, bool) {... */\n    tag_50:\n        /* \"contracts/Bookstore.sol\":3031:3044  string memory */\n      0x60\n        /* \"contracts/Bookstore.sol\":3046:3059  string memory */\n      dup1\n        /* \"contracts/Bookstore.sol\":3061:3068  uint256 */\n      0x00\n        /* \"contracts/Bookstore.sol\":3070:3077  uint256 */\n      dup1\n        /* \"contracts/Bookstore.sol\":3079:3083  bool */\n      0x00\n        /* \"contracts/Bookstore.sol\":3096:3112  Book memory book */\n      dup1\n        /* \"contracts/Bookstore.sol\":3115:3120  books */\n      0x02\n        /* \"contracts/Bookstore.sol\":3115:3129  books[_bookId] */\n      0x00\n        /* \"contracts/Bookstore.sol\":3121:3128  _bookId */\n      dup9\n        /* \"contracts/Bookstore.sol\":3115:3129  books[_bookId] */\n      dup2\n      mstore\n      0x20\n      add\n      swap1\n      dup2\n      mstore\n      0x20\n      add\n      0x00\n      keccak256\n        /* \"contracts/Bookstore.sol\":3096:3129  Book memory book = books[_bookId] */\n      mload(0x40)\n      dup1\n      0xa0\n      add\n      0x40\n      mstore\n      swap1\n      dup2\n      0x00\n      dup3\n      add\n      dup1\n      sload\n      tag_114\n      swap1\n      tag_115\n      jump\t// in\n    tag_114:\n      dup1\n      0x1f\n      add\n      0x20\n      dup1\n      swap2\n      div\n      mul\n      0x20\n      add\n      mload(0x40)\n      swap1\n      dup2\n      add\n      0x40\n      mstore\n      dup1\n      swap3\n      swap2\n      swap1\n      dup2\n      dup2\n      mstore\n      0x20\n      add\n      dup3\n      dup1\n      sload\n      tag_116\n      swap1\n      tag_115\n      jump\t// in\n    tag_116:\n      dup1\n      iszero\n      tag_117\n      jumpi\n      dup1\n      0x1f\n      lt\n      tag_118\n      jumpi\n      0x0100\n      dup1\n      dup4\n      sload\n      div\n      mul\n      dup4\n      mstore\n      swap2\n      0x20\n      add\n      swap2\n      jump(tag_117)\n    tag_118:\n      dup3\n      add\n      swap2\n      swap1\n      0x00\n      mstore\n      keccak256(0x00, 0x20)\n      swap1\n    tag_119:\n      dup2\n      sload\n      dup2\n      mstore\n      swap1\n      0x01\n      add\n      swap1\n      0x20\n      add\n      dup1\n      dup4\n      gt\n      tag_119\n      jumpi\n      dup3\n      swap1\n      sub\n      0x1f\n      and\n      dup3\n      add\n      swap2\n    tag_117:\n      pop\n      pop\n      pop\n      pop\n      pop\n      dup2\n      mstore\n      0x20\n      add\n      0x01\n      dup3\n      add\n      dup1\n      sload\n      tag_120\n      swap1\n      tag_115\n      jump\t// in\n    tag_120:\n      dup1\n      0x1f\n      add\n      0x20\n      dup1\n      swap2\n      div\n      mul\n      0x20\n      add\n      mload(0x40)\n      swap1\n      dup2\n      add\n      0x40\n      mstore\n      dup1\n      swap3\n      swap2\n      swap1\n      dup2\n      dup2\n      mstore\n      0x20\n      add\n      dup3\n      dup1\n      sload\n      tag_121\n      swap1\n      tag_115\n      jump\t// in\n    tag_121:\n      dup1\n      iszero\n      tag_122\n      jumpi\n      dup1\n      0x1f\n      lt\n      tag_123\n      jumpi\n      0x0100\n      dup1\n      dup4\n      sload\n      div\n      mul\n      dup4\n      mstore\n      swap2\n      0x20\n      add\n      swap2\n      jump(tag_122)\n    tag_123:\n      dup3\n      add\n      swap2\n      swap1\n      0x00\n      mstore\n      keccak256(0x00, 0x20)\n      swap1\n    tag_124:\n      dup2\n      sload\n      dup2\n      mstore\n      swap1\n      0x01\n      add\n      swap1\n      0x20\n      add\n      dup1\n      dup4\n      gt\n      tag_124\n      jumpi\n      dup3\n      swap1\n      sub\n      0x1f\n      and\n      dup3\n      add\n      swap2\n    tag_122:\n      pop\n      pop\n      pop\n      pop\n      pop\n      dup2\n      mstore\n      0x20\n      add\n      0x02\n      dup3\n      add\n      0x00\n      swap1\n      sload\n      swap1\n      0x0100\n      exp\n      swap1\n      div\n      0xffff\n      and\n      0xffff\n      and\n      0xffff\n      and\n      dup2\n      mstore\n      0x20\n      add\n      0x03\n      dup3\n      add\n      sload\n      dup2\n      mstore\n      0x20\n      add\n      0x04\n      dup3\n      add\n      0x00\n      swap1\n      sload\n      swap1\n      0x0100\n      exp\n      swap1\n      div\n      0xff\n      and\n      iszero\n      iszero\n      iszero\n      iszero\n      dup2\n      mstore\n      pop\n      pop\n      swap1\n      pop\n        /* \"contracts/Bookstore.sol\":3148:3152  book */\n      dup1\n        /* \"contracts/Bookstore.sol\":3148:3158  book.title */\n      0x00\n      add\n      mload\n        /* \"contracts/Bookstore.sol\":3160:3164  book */\n      dup2\n        /* \"contracts/Bookstore.sol\":3160:3171  book.author */\n      0x20\n      add\n      mload\n        /* \"contracts/Bookstore.sol\":3173:3177  book */\n      dup3\n        /* \"contracts/Bookstore.sol\":3173:3183  book.price */\n      0x40\n      add\n      mload\n        /* \"contracts/Bookstore.sol\":3185:3189  book */\n      dup4\n        /* \"contracts/Bookstore.sol\":3185:3195  book.stock */\n      0x60\n      add\n      mload\n        /* \"contracts/Bookstore.sol\":3197:3201  book */\n      dup5\n        /* \"contracts/Bookstore.sol\":3197:3213  book.isAvailable */\n      0x80\n      add\n      mload\n        /* \"contracts/Bookstore.sol\":3140:3214  return (book.title, book.author, book.price, book.stock, book.isAvailable) */\n      dup3\n      0xffff\n      and\n      swap3\n      pop\n      swap6\n      pop\n      swap6\n      pop\n      swap6\n      pop\n      swap6\n      pop\n      swap6\n      pop\n      pop\n        /* \"contracts/Bookstore.sol\":2975:3222  function getBooks(uint256 _bookId) public view returns (string memory, string memory, uint256, uint256, bool) {... */\n      swap2\n      swap4\n      swap6\n      swap1\n      swap3\n      swap5\n      pop\n      jump\t// out\n        /* \"contracts/Bookstore.sol\":429:466  mapping(uint256 => Book) public books */\n    tag_56:\n      mstore(0x20, 0x02)\n      dup1\n      0x00\n      mstore\n      keccak256(0x00, 0x40)\n      0x00\n      swap2\n      pop\n      swap1\n      pop\n      dup1\n      0x00\n      add\n      dup1\n      sload\n      tag_125\n      swap1\n      tag_115\n      jump\t// in\n    tag_125:\n      dup1\n      0x1f\n      add\n      0x20\n      dup1\n      swap2\n      div\n      mul\n      0x20\n      add\n      mload(0x40)\n      swap1\n      dup2\n      add\n      0x40\n      mstore\n      dup1\n      swap3\n      swap2\n      swap1\n      dup2\n      dup2\n      mstore\n      0x20\n      add\n      dup3\n      dup1\n      sload\n      tag_126\n      swap1\n      tag_115\n      jump\t// in\n    tag_126:\n      dup1\n      iszero\n      tag_127\n      jumpi\n      dup1\n      0x1f\n      lt\n      tag_128\n      jumpi\n      0x0100\n      dup1\n      dup4\n      sload\n      div\n      mul\n      dup4\n      mstore\n      swap2\n      0x20\n      add\n      swap2\n      jump(tag_127)\n    tag_128:\n      dup3\n      add\n      swap2\n      swap1\n      0x00\n      mstore\n      keccak256(0x00, 0x20)\n      swap1\n    tag_129:\n      dup2\n      sload\n      dup2\n      mstore\n      swap1\n      0x01\n      add\n      swap1\n      0x20\n      add\n      dup1\n      dup4\n      gt\n      tag_129\n      jumpi\n      dup3\n      swap1\n      sub\n      0x1f\n      and\n      dup3\n      add\n      swap2\n    tag_127:\n      pop\n      pop\n      pop\n      pop\n      pop\n      swap1\n      dup1\n      0x01\n      add\n      dup1\n      sload\n      tag_130\n      swap1\n      tag_115\n      jump\t// in\n    tag_130:\n      dup1\n      0x1f\n      add\n      0x20\n      dup1\n      swap2\n      div\n      mul\n      0x20\n      add\n      mload(0x40)\n      swap1\n      dup2\n      add\n      0x40\n      mstore\n      dup1\n      swap3\n      swap2\n      swap1\n      dup2\n      dup2\n      mstore\n      0x20\n      add\n      dup3\n      dup1\n      sload\n      tag_131\n      swap1\n      tag_115\n      jump\t// in\n    tag_131:\n      dup1\n      iszero\n      tag_132\n      jumpi\n      dup1\n      0x1f\n      lt\n      tag_133\n      jumpi\n      0x0100\n      dup1\n      dup4\n      sload\n      div\n      mul\n      dup4\n      mstore\n      swap2\n      0x20\n      add\n      swap2\n      jump(tag_132)\n    tag_133:\n      dup3\n      add\n      swap2\n      swap1\n      0x00\n      mstore\n      keccak256(0x00, 0x20)\n      swap1\n    tag_134:\n      dup2\n      sload\n      dup2\n      mstore\n      swap1\n      0x01\n      add\n      swap1\n      0x20\n      add\n      dup1\n      dup4\n      gt\n      tag_134\n      jumpi\n      dup3\n      swap1\n      sub\n      0x1f\n      and\n      dup3\n      add\n      swap2\n    tag_132:\n      pop\n      pop\n      pop\n      pop\n      pop\n      swap1\n      dup1\n      0x02\n      add\n      0x00\n      swap1\n      sload\n      swap1\n      0x0100\n      exp\n      swap1\n      div\n      0xffff\n      and\n      swap1\n      dup1\n      0x03\n      add\n      sload\n      swap1\n      dup1\n      0x04\n      add\n      0x00\n      swap1\n      sload\n      swap1\n      0x0100\n      exp\n      swap1\n      div\n      0xff\n      and\n      swap1\n      pop\n      dup6\n      jump\t// out\n        /* \"@openzeppelin/contracts/access/Ownable.sol\":2293:2394  function renounceOwnership() public virtual onlyOwner {... */\n    tag_61:\n        /* \"@openzeppelin/contracts/access/Ownable.sol\":1531:1544  _checkOwner() */\n      tag_136\n        /* \"@openzeppelin/contracts/access/Ownable.sol\":1531:1542  _checkOwner */\n      tag_104\n        /* \"@openzeppelin/contracts/access/Ownable.sol\":1531:1544  _checkOwner() */\n      jump\t// in\n    tag_136:\n        /* \"@openzeppelin/contracts/access/Ownable.sol\":2357:2387  _transferOwnership(address(0)) */\n      tag_138\n        /* \"@openzeppelin/contracts/access/Ownable.sol\":2384:2385  0 */\n      0x00\n        /* \"@openzeppelin/contracts/access/Ownable.sol\":2357:2375  _transferOwnership */\n      tag_139\n        /* \"@openzeppelin/contracts/access/Ownable.sol\":2357:2387  _transferOwnership(address(0)) */\n      jump\t// in\n    tag_138:\n        /* \"@openzeppelin/contracts/access/Ownable.sol\":2293:2394  function renounceOwnership() public virtual onlyOwner {... */\n      jump\t// out\n        /* \"@openzeppelin/contracts/access/Ownable.sol\":1638:1723  function owner() public view virtual returns (address) {... */\n    tag_64:\n        /* \"@openzeppelin/contracts/access/Ownable.sol\":1684:1691  address */\n      0x00\n        /* \"@openzeppelin/contracts/access/Ownable.sol\":1710:1716  _owner */\n      dup1\n      0x00\n      swap1\n      sload\n      swap1\n      0x0100\n      exp\n      swap1\n      div\n      0xffffffffffffffffffffffffffffffffffffffff\n      and\n        /* \"@openzeppelin/contracts/access/Ownable.sol\":1703:1716  return _owner */\n      swap1\n      pop\n        /* \"@openzeppelin/contracts/access/Ownable.sol\":1638:1723  function owner() public view virtual returns (address) {... */\n      swap1\n      jump\t// out\n        /* \"contracts/Bookstore.sol\":2868:2967  function getTotalBooksSold() public view returns (uint256) {... */\n    tag_69:\n        /* \"contracts/Bookstore.sol\":2918:2925  uint256 */\n      0x00\n        /* \"contracts/Bookstore.sol\":2945:2959  totalBooksSold */\n      sload(0x01)\n        /* \"contracts/Bookstore.sol\":2938:2959  return totalBooksSold */\n      swap1\n      pop\n        /* \"contracts/Bookstore.sol\":2868:2967  function getTotalBooksSold() public view returns (uint256) {... */\n      swap1\n      jump\t// out\n        /* \"contracts/Bookstore.sol\":2187:2672  function removeBook(uint256 _bookId) public onlyOwner {... */\n    tag_74:\n        /* \"@openzeppelin/contracts/access/Ownable.sol\":1531:1544  _checkOwner() */\n      tag_143\n        /* \"@openzeppelin/contracts/access/Ownable.sol\":1531:1542  _checkOwner */\n      tag_104\n        /* \"@openzeppelin/contracts/access/Ownable.sol\":1531:1544  _checkOwner() */\n      jump\t// in\n    tag_143:\n        /* \"contracts/Bookstore.sol\":2284:2285  0 */\n      0x00\n        /* \"contracts/Bookstore.sol\":2260:2265  books */\n      0x02\n        /* \"contracts/Bookstore.sol\":2260:2274  books[_bookId] */\n      0x00\n        /* \"contracts/Bookstore.sol\":2266:2273  _bookId */\n      dup4\n        /* \"contracts/Bookstore.sol\":2260:2274  books[_bookId] */\n      dup2\n      mstore\n      0x20\n      add\n      swap1\n      dup2\n      mstore\n      0x20\n      add\n      0x00\n      keccak256\n        /* \"contracts/Bookstore.sol\":2260:2280  books[_bookId].price */\n      0x02\n      add\n      0x00\n      swap1\n      sload\n      swap1\n      0x0100\n      exp\n      swap1\n      div\n      0xffff\n      and\n        /* \"contracts/Bookstore.sol\":2260:2285  books[_bookId].price != 0 */\n      0xffff\n      and\n      sub\n        /* \"contracts/Bookstore.sol\":2252:2309  require(books[_bookId].price != 0, \"Book does not exist\") */\n      tag_145\n      jumpi\n      mload(0x40)\n      0x08c379a000000000000000000000000000000000000000000000000000000000\n      dup2\n      mstore\n      0x04\n      add\n      tag_146\n      swap1\n      tag_147\n      jump\t// in\n    tag_146:\n      mload(0x40)\n      dup1\n      swap2\n      sub\n      swap1\n      revert\n    tag_145:\n        /* \"contracts/Bookstore.sol\":2327:2332  books */\n      0x02\n        /* \"contracts/Bookstore.sol\":2327:2341  books[_bookId] */\n      0x00\n        /* \"contracts/Bookstore.sol\":2333:2340  _bookId */\n      dup3\n        /* \"contracts/Bookstore.sol\":2327:2341  books[_bookId] */\n      dup2\n      mstore\n      0x20\n      add\n      swap1\n      dup2\n      mstore\n      0x20\n      add\n      0x00\n      keccak256\n      0x00\n        /* \"contracts/Bookstore.sol\":2320:2341  delete books[_bookId] */\n      dup1\n      dup3\n      add\n      0x00\n      tag_148\n      swap2\n      swap1\n      tag_149\n      jump\t// in\n    tag_148:\n      0x01\n      dup3\n      add\n      0x00\n      tag_150\n      swap2\n      swap1\n      tag_149\n      jump\t// in\n    tag_150:\n      0x02\n      dup3\n      add\n      exp(0x0100, 0x00)\n      dup2\n      sload\n      swap1\n      0xffff\n      mul\n      not\n      and\n      swap1\n      sstore\n      0x03\n      dup3\n      add\n      0x00\n      swap1\n      sstore\n      0x04\n      dup3\n      add\n      exp(0x0100, 0x00)\n      dup2\n      sload\n      swap1\n      0xff\n      mul\n      not\n      and\n      swap1\n      sstore\n      pop\n      pop\n        /* \"contracts/Bookstore.sol\":2405:2414  uint256 i */\n      0x00\n        /* \"contracts/Bookstore.sol\":2400:2629  for (uint256 i = 0; i < bookIds.length; i++) {... */\n    tag_151:\n        /* \"contracts/Bookstore.sol\":2424:2431  bookIds */\n      0x03\n        /* \"contracts/Bookstore.sol\":2424:2438  bookIds.length */\n      dup1\n      sload\n      swap1\n      pop\n        /* \"contracts/Bookstore.sol\":2420:2421  i */\n      dup2\n        /* \"contracts/Bookstore.sol\":2420:2438  i < bookIds.length */\n      lt\n        /* \"contracts/Bookstore.sol\":2400:2629  for (uint256 i = 0; i < bookIds.length; i++) {... */\n      iszero\n      tag_152\n      jumpi\n        /* \"contracts/Bookstore.sol\":2478:2485  _bookId */\n      dup2\n        /* \"contracts/Bookstore.sol\":2464:2471  bookIds */\n      0x03\n        /* \"contracts/Bookstore.sol\":2472:2473  i */\n      dup3\n        /* \"contracts/Bookstore.sol\":2464:2474  bookIds[i] */\n      dup2\n      sload\n      dup2\n      lt\n      tag_154\n      jumpi\n      tag_155\n      tag_156\n      jump\t// in\n    tag_155:\n    tag_154:\n      swap1\n      0x00\n      mstore\n      keccak256(0x00, 0x20)\n      add\n      sload\n        /* \"contracts/Bookstore.sol\":2464:2485  bookIds[i] == _bookId */\n      sub\n        /* \"contracts/Bookstore.sol\":2460:2618  if (bookIds[i] == _bookId) {... */\n      tag_158\n      jumpi\n        /* \"contracts/Bookstore.sol\":2519:2526  bookIds */\n      0x03\n        /* \"contracts/Bookstore.sol\":2544:2545  1 */\n      0x01\n        /* \"contracts/Bookstore.sol\":2527:2534  bookIds */\n      0x03\n        /* \"contracts/Bookstore.sol\":2527:2541  bookIds.length */\n      dup1\n      sload\n      swap1\n      pop\n        /* \"contracts/Bookstore.sol\":2527:2545  bookIds.length - 1 */\n      tag_159\n      swap2\n      swap1\n      tag_160\n      jump\t// in\n    tag_159:\n        /* \"contracts/Bookstore.sol\":2519:2546  bookIds[bookIds.length - 1] */\n      dup2\n      sload\n      dup2\n      lt\n      tag_161\n      jumpi\n      tag_162\n      tag_156\n      jump\t// in\n    tag_162:\n    tag_161:\n      swap1\n      0x00\n      mstore\n      keccak256(0x00, 0x20)\n      add\n      sload\n        /* \"contracts/Bookstore.sol\":2506:2513  bookIds */\n      0x03\n        /* \"contracts/Bookstore.sol\":2514:2515  i */\n      dup3\n        /* \"contracts/Bookstore.sol\":2506:2516  bookIds[i] */\n      dup2\n      sload\n      dup2\n      lt\n      tag_164\n      jumpi\n      tag_165\n      tag_156\n      jump\t// in\n    tag_165:\n    tag_164:\n      swap1\n      0x00\n      mstore\n      keccak256(0x00, 0x20)\n      add\n        /* \"contracts/Bookstore.sol\":2506:2546  bookIds[i] = bookIds[bookIds.length - 1] */\n      dup2\n      swap1\n      sstore\n      pop\n        /* \"contracts/Bookstore.sol\":2565:2572  bookIds */\n      0x03\n        /* \"contracts/Bookstore.sol\":2565:2578  bookIds.pop() */\n      dup1\n      sload\n      dup1\n      tag_167\n      jumpi\n      tag_168\n      tag_169\n      jump\t// in\n    tag_168:\n    tag_167:\n      0x01\n      swap1\n      sub\n      dup2\n      dup2\n      swap1\n      0x00\n      mstore\n      keccak256(0x00, 0x20)\n      add\n      0x00\n      swap1\n      sstore\n      swap1\n      sstore\n        /* \"contracts/Bookstore.sol\":2597:2602  break */\n      jump(tag_152)\n        /* \"contracts/Bookstore.sol\":2460:2618  if (bookIds[i] == _bookId) {... */\n    tag_158:\n        /* \"contracts/Bookstore.sol\":2440:2443  i++ */\n      dup1\n      dup1\n      0x01\n      add\n      swap2\n      pop\n      pop\n        /* \"contracts/Bookstore.sol\":2400:2629  for (uint256 i = 0; i < bookIds.length; i++) {... */\n      jump(tag_151)\n    tag_152:\n      pop\n        /* \"contracts/Bookstore.sol\":2656:2663  _bookId */\n      dup1\n        /* \"contracts/Bookstore.sol\":2644:2664  BookRemoved(_bookId) */\n      0x3c5ce13264433bcf97e5d53c97af4fc33800e8c9dd927f965b116d0018d7cddf\n      mload(0x40)\n      mload(0x40)\n      dup1\n      swap2\n      sub\n      swap1\n      log2\n        /* \"contracts/Bookstore.sol\":2187:2672  function removeBook(uint256 _bookId) public onlyOwner {... */\n      pop\n      jump\t// out\n        /* \"contracts/Bookstore.sol\":794:1297  function addBook(uint256 _bookId, string memory _title, string memory _author, uint256 _stock, uint16 _price) public {... */\n    tag_79:\n        /* \"contracts/Bookstore.sol\":954:955  0 */\n      0x00\n        /* \"contracts/Bookstore.sol\":930:935  books */\n      0x02\n        /* \"contracts/Bookstore.sol\":930:944  books[_bookId] */\n      0x00\n        /* \"contracts/Bookstore.sol\":936:943  _bookId */\n      dup8\n        /* \"contracts/Bookstore.sol\":930:944  books[_bookId] */\n      dup2\n      mstore\n      0x20\n      add\n      swap1\n      dup2\n      mstore\n      0x20\n      add\n      0x00\n      keccak256\n        /* \"contracts/Bookstore.sol\":930:950  books[_bookId].price */\n      0x02\n      add\n      0x00\n      swap1\n      sload\n      swap1\n      0x0100\n      exp\n      swap1\n      div\n      0xffff\n      and\n        /* \"contracts/Bookstore.sol\":930:955  books[_bookId].price == 0 */\n      0xffff\n      and\n      eq\n        /* \"contracts/Bookstore.sol\":922:993  require(books[_bookId].price == 0, \"CANNOT ADD BOOK IT ALREADY EXISTS\") */\n      tag_172\n      jumpi\n      mload(0x40)\n      0x08c379a000000000000000000000000000000000000000000000000000000000\n      dup2\n      mstore\n      0x04\n      add\n      tag_173\n      swap1\n      tag_174\n      jump\t// in\n    tag_173:\n      mload(0x40)\n      dup1\n      swap2\n      sub\n      swap1\n      revert\n    tag_172:\n        /* \"contracts/Bookstore.sol\":1021:1190  Book({... */\n      mload(0x40)\n      dup1\n      0xa0\n      add\n      0x40\n      mstore\n      dup1\n        /* \"contracts/Bookstore.sol\":1048:1054  _title */\n      dup6\n        /* \"contracts/Bookstore.sol\":1021:1190  Book({... */\n      dup2\n      mstore\n      0x20\n      add\n        /* \"contracts/Bookstore.sol\":1077:1084  _author */\n      dup5\n        /* \"contracts/Bookstore.sol\":1021:1190  Book({... */\n      dup2\n      mstore\n      0x20\n      add\n        /* \"contracts/Bookstore.sol\":1106:1112  _price */\n      dup3\n        /* \"contracts/Bookstore.sol\":1021:1190  Book({... */\n      0xffff\n      and\n      dup2\n      mstore\n      0x20\n      add\n        /* \"contracts/Bookstore.sol\":1134:1140  _stock */\n      dup4\n        /* \"contracts/Bookstore.sol\":1021:1190  Book({... */\n      dup2\n      mstore\n      0x20\n      add\n        /* \"contracts/Bookstore.sol\":1177:1178  0 */\n      0x00\n        /* \"contracts/Bookstore.sol\":1168:1174  _stock */\n      dup5\n        /* \"contracts/Bookstore.sol\":1168:1178  _stock > 0 */\n      gt\n        /* \"contracts/Bookstore.sol\":1021:1190  Book({... */\n      iszero\n      iszero\n      dup2\n      mstore\n      pop\n        /* \"contracts/Bookstore.sol\":1004:1009  books */\n      0x02\n        /* \"contracts/Bookstore.sol\":1004:1018  books[_bookId] */\n      0x00\n        /* \"contracts/Bookstore.sol\":1010:1017  _bookId */\n      dup8\n        /* \"contracts/Bookstore.sol\":1004:1018  books[_bookId] */\n      dup2\n      mstore\n      0x20\n      add\n      swap1\n      dup2\n      mstore\n      0x20\n      add\n      0x00\n      keccak256\n        /* \"contracts/Bookstore.sol\":1004:1190  books[_bookId] = Book({... */\n      0x00\n      dup3\n      add\n      mload\n      dup2\n      0x00\n      add\n      swap1\n      dup2\n      tag_175\n      swap2\n      swap1\n      tag_176\n      jump\t// in\n    tag_175:\n      pop\n      0x20\n      dup3\n      add\n      mload\n      dup2\n      0x01\n      add\n      swap1\n      dup2\n      tag_177\n      swap2\n      swap1\n      tag_176\n      jump\t// in\n    tag_177:\n      pop\n      0x40\n      dup3\n      add\n      mload\n      dup2\n      0x02\n      add\n      exp(0x0100, 0x00)\n      dup2\n      sload\n      dup2\n      0xffff\n      mul\n      not\n      and\n      swap1\n      dup4\n      0xffff\n      and\n      mul\n      or\n      swap1\n      sstore\n      pop\n      0x60\n      dup3\n      add\n      mload\n      dup2\n      0x03\n      add\n      sstore\n      0x80\n      dup3\n      add\n      mload\n      dup2\n      0x04\n      add\n      exp(0x0100, 0x00)\n      dup2\n      sload\n      dup2\n      0xff\n      mul\n      not\n      and\n      swap1\n      dup4\n      iszero\n      iszero\n      mul\n      or\n      swap1\n      sstore\n      pop\n      swap1\n      pop\n      pop\n        /* \"contracts/Bookstore.sol\":1201:1208  bookIds */\n      0x03\n        /* \"contracts/Bookstore.sol\":1214:1221  _bookId */\n      dup6\n        /* \"contracts/Bookstore.sol\":1201:1222  bookIds.push(_bookId) */\n      swap1\n      dup1\n      0x01\n      dup2\n      sload\n      add\n      dup1\n      dup3\n      sstore\n      dup1\n      swap2\n      pop\n      pop\n      0x01\n      swap1\n      sub\n      swap1\n      0x00\n      mstore\n      keccak256(0x00, 0x20)\n      add\n      0x00\n      swap1\n      swap2\n      swap1\n      swap2\n      swap1\n      swap2\n      pop\n      sstore\n        /* \"contracts/Bookstore.sol\":1248:1255  _bookId */\n      dup5\n        /* \"contracts/Bookstore.sol\":1238:1289  BookAdded(_bookId, _title, _author, _stock, _price) */\n      0x722c04650224f771c04ec5712c74689980b3ddb4eaa233cd8f9c72d7da7fbe29\n        /* \"contracts/Bookstore.sol\":1257:1263  _title */\n      dup6\n        /* \"contracts/Bookstore.sol\":1265:1272  _author */\n      dup6\n        /* \"contracts/Bookstore.sol\":1274:1280  _stock */\n      dup6\n        /* \"contracts/Bookstore.sol\":1282:1288  _price */\n      dup6\n        /* \"contracts/Bookstore.sol\":1238:1289  BookAdded(_bookId, _title, _author, _stock, _price) */\n      mload(0x40)\n      tag_179\n      swap5\n      swap4\n      swap3\n      swap2\n      swap1\n      tag_180\n      jump\t// in\n    tag_179:\n      mload(0x40)\n      dup1\n      swap2\n      sub\n      swap1\n      log2\n        /* \"contracts/Bookstore.sol\":794:1297  function addBook(uint256 _bookId, string memory _title, string memory _author, uint256 _stock, uint16 _price) public {... */\n      pop\n      pop\n      pop\n      pop\n      pop\n      jump\t// out\n        /* \"@openzeppelin/contracts/access/Ownable.sol\":2543:2758  function transferOwnership(address newOwner) public virtual onlyOwner {... */\n    tag_84:\n        /* \"@openzeppelin/contracts/access/Ownable.sol\":1531:1544  _checkOwner() */\n      tag_182\n        /* \"@openzeppelin/contracts/access/Ownable.sol\":1531:1542  _checkOwner */\n      tag_104\n        /* \"@openzeppelin/contracts/access/Ownable.sol\":1531:1544  _checkOwner() */\n      jump\t// in\n    tag_182:\n        /* \"@openzeppelin/contracts/access/Ownable.sol\":2647:2648  0 */\n      0x00\n        /* \"@openzeppelin/contracts/access/Ownable.sol\":2627:2649  newOwner == address(0) */\n      0xffffffffffffffffffffffffffffffffffffffff\n      and\n        /* \"@openzeppelin/contracts/access/Ownable.sol\":2627:2635  newOwner */\n      dup2\n        /* \"@openzeppelin/contracts/access/Ownable.sol\":2627:2649  newOwner == address(0) */\n      0xffffffffffffffffffffffffffffffffffffffff\n      and\n      sub\n        /* \"@openzeppelin/contracts/access/Ownable.sol\":2623:2714  if (newOwner == address(0)) {... */\n      tag_184\n      jumpi\n        /* \"@openzeppelin/contracts/access/Ownable.sol\":2700:2701  0 */\n      0x00\n        /* \"@openzeppelin/contracts/access/Ownable.sol\":2672:2703  OwnableInvalidOwner(address(0)) */\n      mload(0x40)\n      0x1e4fbdf700000000000000000000000000000000000000000000000000000000\n      dup2\n      mstore\n      0x04\n      add\n      tag_185\n      swap2\n      swap1\n      tag_66\n      jump\t// in\n    tag_185:\n      mload(0x40)\n      dup1\n      swap2\n      sub\n      swap1\n      revert\n        /* \"@openzeppelin/contracts/access/Ownable.sol\":2623:2714  if (newOwner == address(0)) {... */\n    tag_184:\n        /* \"@openzeppelin/contracts/access/Ownable.sol\":2723:2751  _transferOwnership(newOwner) */\n      tag_186\n        /* \"@openzeppelin/contracts/access/Ownable.sol\":2742:2750  newOwner */\n      dup2\n        /* \"@openzeppelin/contracts/access/Ownable.sol\":2723:2741  _transferOwnership */\n      tag_139\n        /* \"@openzeppelin/contracts/access/Ownable.sol\":2723:2751  _transferOwnership(newOwner) */\n      jump\t// in\n    tag_186:\n        /* \"@openzeppelin/contracts/access/Ownable.sol\":2543:2758  function transferOwnership(address newOwner) public virtual onlyOwner {... */\n      pop\n      jump\t// out\n        /* \"contracts/Bookstore.sol\":3230:4009  function buyBook(uint256 _bookId, uint256 _quantity, uint256 _amount) public payable {... */\n    tag_88:\n        /* \"contracts/Bookstore.sol\":3326:3343  Book storage book */\n      0x00\n        /* \"contracts/Bookstore.sol\":3346:3351  books */\n      0x02\n        /* \"contracts/Bookstore.sol\":3346:3360  books[_bookId] */\n      0x00\n        /* \"contracts/Bookstore.sol\":3352:3359  _bookId */\n      dup6\n        /* \"contracts/Bookstore.sol\":3346:3360  books[_bookId] */\n      dup2\n      mstore\n      0x20\n      add\n      swap1\n      dup2\n      mstore\n      0x20\n      add\n      0x00\n      keccak256\n        /* \"contracts/Bookstore.sol\":3326:3360  Book storage book = books[_bookId] */\n      swap1\n      pop\n        /* \"contracts/Bookstore.sol\":3379:3383  book */\n      dup1\n        /* \"contracts/Bookstore.sol\":3379:3395  book.isAvailable */\n      0x04\n      add\n      0x00\n      swap1\n      sload\n      swap1\n      0x0100\n      exp\n      swap1\n      div\n      0xff\n      and\n        /* \"contracts/Bookstore.sol\":3371:3426  require(book.isAvailable, \"This book is not available\") */\n      tag_188\n      jumpi\n      mload(0x40)\n      0x08c379a000000000000000000000000000000000000000000000000000000000\n      dup2\n      mstore\n      0x04\n      add\n      tag_189\n      swap1\n      tag_190\n      jump\t// in\n    tag_189:\n      mload(0x40)\n      dup1\n      swap2\n      sub\n      swap1\n      revert\n    tag_188:\n        /* \"contracts/Bookstore.sol\":3459:3468  _quantity */\n      dup3\n        /* \"contracts/Bookstore.sol\":3445:3449  book */\n      dup2\n        /* \"contracts/Bookstore.sol\":3445:3455  book.stock */\n      0x03\n      add\n      sload\n        /* \"contracts/Bookstore.sol\":3445:3468  book.stock >= _quantity */\n      lt\n      iszero\n        /* \"contracts/Bookstore.sol\":3437:3499  require(book.stock >= _quantity, \"Not enough stock available\") */\n      tag_191\n      jumpi\n      mload(0x40)\n      0x08c379a000000000000000000000000000000000000000000000000000000000\n      dup2\n      mstore\n      0x04\n      add\n      tag_192\n      swap1\n      tag_193\n      jump\t// in\n    tag_192:\n      mload(0x40)\n      dup1\n      swap2\n      sub\n      swap1\n      revert\n    tag_191:\n        /* \"contracts/Bookstore.sol\":3542:3551  _quantity */\n      dup3\n        /* \"contracts/Bookstore.sol\":3529:3533  book */\n      dup2\n        /* \"contracts/Bookstore.sol\":3529:3539  book.price */\n      0x02\n      add\n      0x00\n      swap1\n      sload\n      swap1\n      0x0100\n      exp\n      swap1\n      div\n      0xffff\n      and\n        /* \"contracts/Bookstore.sol\":3529:3551  book.price * _quantity */\n      0xffff\n      and\n      tag_194\n      swap2\n      swap1\n      tag_195\n      jump\t// in\n    tag_194:\n        /* \"contracts/Bookstore.sol\":3518:3525  _amount */\n      dup3\n        /* \"contracts/Bookstore.sol\":3518:3551  _amount == book.price * _quantity */\n      eq\n        /* \"contracts/Bookstore.sol\":3510:3580  require(_amount == book.price * _quantity, \"Incorrect payment amount\") */\n      tag_196\n      jumpi\n      mload(0x40)\n      0x08c379a000000000000000000000000000000000000000000000000000000000\n      dup2\n      mstore\n      0x04\n      add\n      tag_197\n      swap1\n      tag_198\n      jump\t// in\n    tag_197:\n      mload(0x40)\n      dup1\n      swap2\n      sub\n      swap1\n      revert\n    tag_196:\n        /* \"contracts/Bookstore.sol\":3666:3675  _quantity */\n      dup3\n        /* \"contracts/Bookstore.sol\":3652:3656  book */\n      dup2\n        /* \"contracts/Bookstore.sol\":3652:3662  book.stock */\n      0x03\n      add\n      0x00\n        /* \"contracts/Bookstore.sol\":3652:3675  book.stock -= _quantity */\n      dup3\n      dup3\n      sload\n      tag_199\n      swap2\n      swap1\n      tag_160\n      jump\t// in\n    tag_199:\n      swap3\n      pop\n      pop\n      dup2\n      swap1\n      sstore\n      pop\n        /* \"contracts/Bookstore.sol\":3704:3705  0 */\n      0x00\n        /* \"contracts/Bookstore.sol\":3690:3694  book */\n      dup2\n        /* \"contracts/Bookstore.sol\":3690:3700  book.stock */\n      0x03\n      add\n      sload\n        /* \"contracts/Bookstore.sol\":3690:3705  book.stock == 0 */\n      sub\n        /* \"contracts/Bookstore.sol\":3686:3758  if (book.stock == 0) {... */\n      tag_200\n      jumpi\n        /* \"contracts/Bookstore.sol\":3741:3746  false */\n      0x00\n        /* \"contracts/Bookstore.sol\":3722:3726  book */\n      dup2\n        /* \"contracts/Bookstore.sol\":3722:3738  book.isAvailable */\n      0x04\n      add\n      0x00\n        /* \"contracts/Bookstore.sol\":3722:3746  book.isAvailable = false */\n      0x0100\n      exp\n      dup2\n      sload\n      dup2\n      0xff\n      mul\n      not\n      and\n      swap1\n      dup4\n      iszero\n      iszero\n      mul\n      or\n      swap1\n      sstore\n      pop\n        /* \"contracts/Bookstore.sol\":3686:3758  if (book.stock == 0) {... */\n    tag_200:\n        /* \"contracts/Bookstore.sol\":3832:3841  _quantity */\n      dup3\n        /* \"contracts/Bookstore.sol\":3814:3828  totalBooksSold */\n      0x01\n      0x00\n        /* \"contracts/Bookstore.sol\":3814:3841  totalBooksSold += _quantity */\n      dup3\n      dup3\n      sload\n      tag_201\n      swap2\n      swap1\n      tag_202\n      jump\t// in\n    tag_201:\n      swap3\n      pop\n      pop\n      dup2\n      swap1\n      sstore\n      pop\n        /* \"contracts/Bookstore.sol\":3912:3919  owner() */\n      tag_203\n        /* \"contracts/Bookstore.sol\":3912:3917  owner */\n      tag_64\n        /* \"contracts/Bookstore.sol\":3912:3919  owner() */\n      jump\t// in\n    tag_203:\n        /* \"contracts/Bookstore.sol\":3904:3929  payable(owner()).transfer */\n      0xffffffffffffffffffffffffffffffffffffffff\n      and\n        /* \"contracts/Bookstore.sol\":3904:3940  payable(owner()).transfer(msg.value) */\n      0x08fc\n        /* \"contracts/Bookstore.sol\":3930:3939  msg.value */\n      callvalue\n        /* \"contracts/Bookstore.sol\":3904:3940  payable(owner()).transfer(msg.value) */\n      swap1\n      dup2\n      iszero\n      mul\n      swap1\n      mload(0x40)\n      0x00\n      mload(0x40)\n      dup1\n      dup4\n      sub\n      dup2\n      dup6\n      dup9\n      dup9\n      call\n      swap4\n      pop\n      pop\n      pop\n      pop\n      iszero\n      dup1\n      iszero\n      tag_205\n      jumpi\n      returndatasize\n      0x00\n      dup1\n      returndatacopy\n      revert(0x00, returndatasize)\n    tag_205:\n      pop\n        /* \"contracts/Bookstore.sol\":3979:3989  msg.sender */\n      caller\n        /* \"contracts/Bookstore.sol\":3956:4001  BookPurchased(_bookId, msg.sender, _quantity) */\n      0xffffffffffffffffffffffffffffffffffffffff\n      and\n      0x439c08b00222293c6073f3ee383214541a4a21aca7dbb0a45963f86fa8e589f7\n        /* \"contracts/Bookstore.sol\":3970:3977  _bookId */\n      dup6\n        /* \"contracts/Bookstore.sol\":3991:4000  _quantity */\n      dup6\n        /* \"contracts/Bookstore.sol\":3956:4001  BookPurchased(_bookId, msg.sender, _quantity) */\n      mload(0x40)\n      tag_206\n      swap3\n      swap2\n      swap1\n      tag_207\n      jump\t// in\n    tag_206:\n      mload(0x40)\n      dup1\n      swap2\n      sub\n      swap1\n      log2\n        /* \"contracts/Bookstore.sol\":3315:4009  {... */\n      pop\n        /* \"contracts/Bookstore.sol\":3230:4009  function buyBook(uint256 _bookId, uint256 _quantity, uint256 _amount) public payable {... */\n      pop\n      pop\n      pop\n      jump\t// out\n        /* \"contracts/AdvancedBookstore.sol\":541:650  function isBestSeller(uint256 bookId) public view returns (bool) {... */\n    tag_92:\n        /* \"contracts/AdvancedBookstore.sol\":600:604  bool */\n      0x00\n        /* \"contracts/AdvancedBookstore.sol\":624:634  bestseller */\n      0x04\n        /* \"contracts/AdvancedBookstore.sol\":624:642  bestseller[bookId] */\n      0x00\n        /* \"contracts/AdvancedBookstore.sol\":635:641  bookId */\n      dup4\n        /* \"contracts/AdvancedBookstore.sol\":624:642  bestseller[bookId] */\n      dup2\n      mstore\n      0x20\n      add\n      swap1\n      dup2\n      mstore\n      0x20\n      add\n      0x00\n      keccak256\n      0x00\n      swap1\n      sload\n      swap1\n      0x0100\n      exp\n      swap1\n      div\n      0xff\n      and\n        /* \"contracts/AdvancedBookstore.sol\":617:642  return bestseller[bookId] */\n      swap1\n      pop\n        /* \"contracts/AdvancedBookstore.sol\":541:650  function isBestSeller(uint256 bookId) public view returns (bool) {... */\n      swap2\n      swap1\n      pop\n      jump\t// out\n        /* \"contracts/Bookstore.sol\":1484:2138  function removeBooks(uint256[] memory _bookIds) public onlyOwner {... */\n    tag_98:\n        /* \"@openzeppelin/contracts/access/Ownable.sol\":1531:1544  _checkOwner() */\n      tag_210\n        /* \"@openzeppelin/contracts/access/Ownable.sol\":1531:1542  _checkOwner */\n      tag_104\n        /* \"@openzeppelin/contracts/access/Ownable.sol\":1531:1544  _checkOwner() */\n      jump\t// in\n    tag_210:\n        /* \"contracts/Bookstore.sol\":1565:1574  uint256 i */\n      0x00\n        /* \"contracts/Bookstore.sol\":1560:2089  for (uint256 i = 0; i < _bookIds.length; i++) {... */\n    tag_212:\n        /* \"contracts/Bookstore.sol\":1584:1592  _bookIds */\n      dup2\n        /* \"contracts/Bookstore.sol\":1584:1599  _bookIds.length */\n      mload\n        /* \"contracts/Bookstore.sol\":1580:1581  i */\n      dup2\n        /* \"contracts/Bookstore.sol\":1580:1599  i < _bookIds.length */\n      lt\n        /* \"contracts/Bookstore.sol\":1560:2089  for (uint256 i = 0; i < _bookIds.length; i++) {... */\n      iszero\n      tag_213\n      jumpi\n        /* \"contracts/Bookstore.sol\":1621:1635  uint256 bookId */\n      0x00\n        /* \"contracts/Bookstore.sol\":1638:1646  _bookIds */\n      dup3\n        /* \"contracts/Bookstore.sol\":1647:1648  i */\n      dup3\n        /* \"contracts/Bookstore.sol\":1638:1649  _bookIds[i] */\n      dup2\n      mload\n      dup2\n      lt\n      tag_215\n      jumpi\n      tag_216\n      tag_156\n      jump\t// in\n    tag_216:\n    tag_215:\n      0x20\n      mul\n      0x20\n      add\n      add\n      mload\n        /* \"contracts/Bookstore.sol\":1621:1649  uint256 bookId = _bookIds[i] */\n      swap1\n      pop\n        /* \"contracts/Bookstore.sol\":1695:1696  0 */\n      0x00\n        /* \"contracts/Bookstore.sol\":1672:1677  books */\n      0x02\n        /* \"contracts/Bookstore.sol\":1672:1685  books[bookId] */\n      0x00\n        /* \"contracts/Bookstore.sol\":1678:1684  bookId */\n      dup4\n        /* \"contracts/Bookstore.sol\":1672:1685  books[bookId] */\n      dup2\n      mstore\n      0x20\n      add\n      swap1\n      dup2\n      mstore\n      0x20\n      add\n      0x00\n      keccak256\n        /* \"contracts/Bookstore.sol\":1672:1691  books[bookId].price */\n      0x02\n      add\n      0x00\n      swap1\n      sload\n      swap1\n      0x0100\n      exp\n      swap1\n      div\n      0xffff\n      and\n        /* \"contracts/Bookstore.sol\":1672:1696  books[bookId].price != 0 */\n      0xffff\n      and\n      sub\n        /* \"contracts/Bookstore.sol\":1664:1720  require(books[bookId].price != 0, \"Book does not exist\") */\n      tag_217\n      jumpi\n      mload(0x40)\n      0x08c379a000000000000000000000000000000000000000000000000000000000\n      dup2\n      mstore\n      0x04\n      add\n      tag_218\n      swap1\n      tag_147\n      jump\t// in\n    tag_218:\n      mload(0x40)\n      dup1\n      swap2\n      sub\n      swap1\n      revert\n    tag_217:\n        /* \"contracts/Bookstore.sol\":1742:1747  books */\n      0x02\n        /* \"contracts/Bookstore.sol\":1742:1755  books[bookId] */\n      0x00\n        /* \"contracts/Bookstore.sol\":1748:1754  bookId */\n      dup3\n        /* \"contracts/Bookstore.sol\":1742:1755  books[bookId] */\n      dup2\n      mstore\n      0x20\n      add\n      swap1\n      dup2\n      mstore\n      0x20\n      add\n      0x00\n      keccak256\n      0x00\n        /* \"contracts/Bookstore.sol\":1735:1755  delete books[bookId] */\n      dup1\n      dup3\n      add\n      0x00\n      tag_219\n      swap2\n      swap1\n      tag_149\n      jump\t// in\n    tag_219:\n      0x01\n      dup3\n      add\n      0x00\n      tag_220\n      swap2\n      swap1\n      tag_149\n      jump\t// in\n    tag_220:\n      0x02\n      dup3\n      add\n      exp(0x0100, 0x00)\n      dup2\n      sload\n      swap1\n      0xffff\n      mul\n      not\n      and\n      swap1\n      sstore\n      0x03\n      dup3\n      add\n      0x00\n      swap1\n      sstore\n      0x04\n      dup3\n      add\n      exp(0x0100, 0x00)\n      dup2\n      sload\n      swap1\n      0xff\n      mul\n      not\n      and\n      swap1\n      sstore\n      pop\n      pop\n        /* \"contracts/Bookstore.sol\":1831:1840  uint256 j */\n      0x00\n        /* \"contracts/Bookstore.sol\":1826:2078  for (uint256 j = 0; j < bookIds.length; j++) {... */\n    tag_221:\n        /* \"contracts/Bookstore.sol\":1850:1857  bookIds */\n      0x03\n        /* \"contracts/Bookstore.sol\":1850:1864  bookIds.length */\n      dup1\n      sload\n      swap1\n      pop\n        /* \"contracts/Bookstore.sol\":1846:1847  j */\n      dup2\n        /* \"contracts/Bookstore.sol\":1846:1864  j < bookIds.length */\n      lt\n        /* \"contracts/Bookstore.sol\":1826:2078  for (uint256 j = 0; j < bookIds.length; j++) {... */\n      iszero\n      tag_222\n      jumpi\n        /* \"contracts/Bookstore.sol\":1908:1914  bookId */\n      dup2\n        /* \"contracts/Bookstore.sol\":1894:1901  bookIds */\n      0x03\n        /* \"contracts/Bookstore.sol\":1902:1903  j */\n      dup3\n        /* \"contracts/Bookstore.sol\":1894:1904  bookIds[j] */\n      dup2\n      sload\n      dup2\n      lt\n      tag_224\n      jumpi\n      tag_225\n      tag_156\n      jump\t// in\n    tag_225:\n    tag_224:\n      swap1\n      0x00\n      mstore\n      keccak256(0x00, 0x20)\n      add\n      sload\n        /* \"contracts/Bookstore.sol\":1894:1914  bookIds[j] == bookId */\n      sub\n        /* \"contracts/Bookstore.sol\":1890:2063  if (bookIds[j] == bookId) {... */\n      tag_227\n      jumpi\n        /* \"contracts/Bookstore.sol\":1952:1959  bookIds */\n      0x03\n        /* \"contracts/Bookstore.sol\":1977:1978  1 */\n      0x01\n        /* \"contracts/Bookstore.sol\":1960:1967  bookIds */\n      0x03\n        /* \"contracts/Bookstore.sol\":1960:1974  bookIds.length */\n      dup1\n      sload\n      swap1\n      pop\n        /* \"contracts/Bookstore.sol\":1960:1978  bookIds.length - 1 */\n      tag_228\n      swap2\n      swap1\n      tag_160\n      jump\t// in\n    tag_228:\n        /* \"contracts/Bookstore.sol\":1952:1979  bookIds[bookIds.length - 1] */\n      dup2\n      sload\n      dup2\n      lt\n      tag_229\n      jumpi\n      tag_230\n      tag_156\n      jump\t// in\n    tag_230:\n    tag_229:\n      swap1\n      0x00\n      mstore\n      keccak256(0x00, 0x20)\n      add\n      sload\n        /* \"contracts/Bookstore.sol\":1939:1946  bookIds */\n      0x03\n        /* \"contracts/Bookstore.sol\":1947:1948  j */\n      dup3\n        /* \"contracts/Bookstore.sol\":1939:1949  bookIds[j] */\n      dup2\n      sload\n      dup2\n      lt\n      tag_232\n      jumpi\n      tag_233\n      tag_156\n      jump\t// in\n    tag_233:\n    tag_232:\n      swap1\n      0x00\n      mstore\n      keccak256(0x00, 0x20)\n      add\n        /* \"contracts/Bookstore.sol\":1939:1979  bookIds[j] = bookIds[bookIds.length - 1] */\n      dup2\n      swap1\n      sstore\n      pop\n        /* \"contracts/Bookstore.sol\":2002:2009  bookIds */\n      0x03\n        /* \"contracts/Bookstore.sol\":2002:2015  bookIds.pop() */\n      dup1\n      sload\n      dup1\n      tag_235\n      jumpi\n      tag_236\n      tag_169\n      jump\t// in\n    tag_236:\n    tag_235:\n      0x01\n      swap1\n      sub\n      dup2\n      dup2\n      swap1\n      0x00\n      mstore\n      keccak256(0x00, 0x20)\n      add\n      0x00\n      swap1\n      sstore\n      swap1\n      sstore\n        /* \"contracts/Bookstore.sol\":2038:2043  break */\n      jump(tag_222)\n        /* \"contracts/Bookstore.sol\":1890:2063  if (bookIds[j] == bookId) {... */\n    tag_227:\n        /* \"contracts/Bookstore.sol\":1866:1869  j++ */\n      dup1\n      dup1\n      0x01\n      add\n      swap2\n      pop\n      pop\n        /* \"contracts/Bookstore.sol\":1826:2078  for (uint256 j = 0; j < bookIds.length; j++) {... */\n      jump(tag_221)\n    tag_222:\n      pop\n        /* \"contracts/Bookstore.sol\":1606:2089  {... */\n      pop\n        /* \"contracts/Bookstore.sol\":1601:1604  i++ */\n      dup1\n      dup1\n      0x01\n      add\n      swap2\n      pop\n      pop\n        /* \"contracts/Bookstore.sol\":1560:2089  for (uint256 i = 0; i < _bookIds.length; i++) {... */\n      jump(tag_212)\n    tag_213:\n      pop\n        /* \"contracts/Bookstore.sol\":2104:2130  BookBatchRemoved(_bookIds) */\n      0x7262be1e48c30c363173fcb2fbf2dc2cb38d076dee42cc37cdfbdf62af5c3bed\n        /* \"contracts/Bookstore.sol\":2121:2129  _bookIds */\n      dup2\n        /* \"contracts/Bookstore.sol\":2104:2130  BookBatchRemoved(_bookIds) */\n      mload(0x40)\n      tag_238\n      swap2\n      swap1\n      tag_32\n      jump\t// in\n    tag_238:\n      mload(0x40)\n      dup1\n      swap2\n      sub\n      swap1\n      log1\n        /* \"contracts/Bookstore.sol\":1484:2138  function removeBooks(uint256[] memory _bookIds) public onlyOwner {... */\n      pop\n      jump\t// out\n        /* \"@openzeppelin/contracts/access/Ownable.sol\":1796:1958  function _checkOwner() internal view virtual {... */\n    tag_104:\n        /* \"@openzeppelin/contracts/access/Ownable.sol\":1866:1878  _msgSender() */\n      tag_240\n        /* \"@openzeppelin/contracts/access/Ownable.sol\":1866:1876  _msgSender */\n      tag_241\n        /* \"@openzeppelin/contracts/access/Ownable.sol\":1866:1878  _msgSender() */\n      jump\t// in\n    tag_240:\n        /* \"@openzeppelin/contracts/access/Ownable.sol\":1855:1878  owner() != _msgSender() */\n      0xffffffffffffffffffffffffffffffffffffffff\n      and\n        /* \"@openzeppelin/contracts/access/Ownable.sol\":1855:1862  owner() */\n      tag_242\n        /* \"@openzeppelin/contracts/access/Ownable.sol\":1855:1860  owner */\n      tag_64\n        /* \"@openzeppelin/contracts/access/Ownable.sol\":1855:1862  owner() */\n      jump\t// in\n    tag_242:\n        /* \"@openzeppelin/contracts/access/Ownable.sol\":1855:1878  owner() != _msgSender() */\n      0xffffffffffffffffffffffffffffffffffffffff\n      and\n      eq\n        /* \"@openzeppelin/contracts/access/Ownable.sol\":1851:1952  if (owner() != _msgSender()) {... */\n      tag_243\n      jumpi\n        /* \"@openzeppelin/contracts/access/Ownable.sol\":1928:1940  _msgSender() */\n      tag_244\n        /* \"@openzeppelin/contracts/access/Ownable.sol\":1928:1938  _msgSender */\n      tag_241\n        /* \"@openzeppelin/contracts/access/Ownable.sol\":1928:1940  _msgSender() */\n      jump\t// in\n    tag_244:\n        /* \"@openzeppelin/contracts/access/Ownable.sol\":1901:1941  OwnableUnauthorizedAccount(_msgSender()) */\n      mload(0x40)\n      0x118cdaa700000000000000000000000000000000000000000000000000000000\n      dup2\n      mstore\n      0x04\n      add\n      tag_245\n      swap2\n      swap1\n      tag_66\n      jump\t// in\n    tag_245:\n      mload(0x40)\n      dup1\n      swap2\n      sub\n      swap1\n      revert\n        /* \"@openzeppelin/contracts/access/Ownable.sol\":1851:1952  if (owner() != _msgSender()) {... */\n    tag_243:\n        /* \"@openzeppelin/contracts/access/Ownable.sol\":1796:1958  function _checkOwner() internal view virtual {... */\n      jump\t// out\n        /* \"@openzeppelin/contracts/access/Ownable.sol\":2912:3099  function _transferOwnership(address newOwner) internal virtual {... */\n    tag_139:\n        /* \"@openzeppelin/contracts/access/Ownable.sol\":2985:3001  address oldOwner */\n      0x00\n        /* \"@openzeppelin/contracts/access/Ownable.sol\":3004:3010  _owner */\n      dup1\n      0x00\n      swap1\n      sload\n      swap1\n      0x0100\n      exp\n      swap1\n      div\n      0xffffffffffffffffffffffffffffffffffffffff\n      and\n        /* \"@openzeppelin/contracts/access/Ownable.sol\":2985:3010  address oldOwner = _owner */\n      swap1\n      pop\n        /* \"@openzeppelin/contracts/access/Ownable.sol\":3029:3037  newOwner */\n      dup2\n        /* \"@openzeppelin/contracts/access/Ownable.sol\":3020:3026  _owner */\n      0x00\n      dup1\n        /* \"@openzeppelin/contracts/access/Ownable.sol\":3020:3037  _owner = newOwner */\n      0x0100\n      exp\n      dup2\n      sload\n      dup2\n      0xffffffffffffffffffffffffffffffffffffffff\n      mul\n      not\n      and\n      swap1\n      dup4\n      0xffffffffffffffffffffffffffffffffffffffff\n      and\n      mul\n      or\n      swap1\n      sstore\n      pop\n        /* \"@openzeppelin/contracts/access/Ownable.sol\":3083:3091  newOwner */\n      dup2\n        /* \"@openzeppelin/contracts/access/Ownable.sol\":3052:3092  OwnershipTransferred(oldOwner, newOwner) */\n      0xffffffffffffffffffffffffffffffffffffffff\n      and\n        /* \"@openzeppelin/contracts/access/Ownable.sol\":3073:3081  oldOwner */\n      dup2\n        /* \"@openzeppelin/contracts/access/Ownable.sol\":3052:3092  OwnershipTransferred(oldOwner, newOwner) */\n      0xffffffffffffffffffffffffffffffffffffffff\n      and\n      0x8be0079c531659141344cd1fd0a4f28419497f9722a3daafe3b4186f6b6457e0\n      mload(0x40)\n      mload(0x40)\n      dup1\n      swap2\n      sub\n      swap1\n      log3\n        /* \"@openzeppelin/contracts/access/Ownable.sol\":2975:3099  {... */\n      pop\n        /* \"@openzeppelin/contracts/access/Ownable.sol\":2912:3099  function _transferOwnership(address newOwner) internal virtual {... */\n      pop\n      jump\t// out\n        /* \"@openzeppelin/contracts/utils/Context.sol\":656:752  function _msgSender() internal view virtual returns (address) {... */\n    tag_241:\n        /* \"@openzeppelin/contracts/utils/Context.sol\":709:716  address */\n      0x00\n        /* \"@openzeppelin/contracts/utils/Context.sol\":735:745  msg.sender */\n      caller\n        /* \"@openzeppelin/contracts/utils/Context.sol\":728:745  return msg.sender */\n      swap1\n      pop\n        /* \"@openzeppelin/contracts/utils/Context.sol\":656:752  function _msgSender() internal view virtual returns (address) {... */\n      swap1\n      jump\t// out\n    tag_149:\n      pop\n      dup1\n      sload\n      tag_248\n      swap1\n      tag_115\n      jump\t// in\n    tag_248:\n      0x00\n      dup3\n      sstore\n      dup1\n      0x1f\n      lt\n      tag_250\n      jumpi\n      pop\n      jump(tag_249)\n    tag_250:\n      0x1f\n      add\n      0x20\n      swap1\n      div\n      swap1\n      0x00\n      mstore\n      keccak256(0x00, 0x20)\n      swap1\n      dup2\n      add\n      swap1\n      tag_251\n      swap2\n      swap1\n      tag_252\n      jump\t// in\n    tag_251:\n    tag_249:\n      pop\n      jump\t// out\n    tag_252:\n    tag_253:\n      dup1\n      dup3\n      gt\n      iszero\n      tag_254\n      jumpi\n      0x00\n      dup2\n      0x00\n      swap1\n      sstore\n      pop\n      0x01\n      add\n      jump(tag_253)\n    tag_254:\n      pop\n      swap1\n      jump\t// out\n        /* \"#utility.yul\":7:82   */\n    tag_255:\n        /* \"#utility.yul\":40:46   */\n      0x00\n        /* \"#utility.yul\":73:75   */\n      0x40\n        /* \"#utility.yul\":67:76   */\n      mload\n        /* \"#utility.yul\":57:76   */\n      swap1\n      pop\n        /* \"#utility.yul\":7:82   */\n      swap1\n      jump\t// out\n        /* \"#utility.yul\":88:205   */\n    tag_256:\n        /* \"#utility.yul\":197:198   */\n      0x00\n        /* \"#utility.yul\":194:195   */\n      dup1\n        /* \"#utility.yul\":187:199   */\n      revert\n        /* \"#utility.yul\":211:328   */\n    tag_257:\n        /* \"#utility.yul\":320:321   */\n      0x00\n        /* \"#utility.yul\":317:318   */\n      dup1\n        /* \"#utility.yul\":310:322   */\n      revert\n        /* \"#utility.yul\":334:411   */\n    tag_258:\n        /* \"#utility.yul\":371:378   */\n      0x00\n        /* \"#utility.yul\":400:405   */\n      dup2\n        /* \"#utility.yul\":389:405   */\n      swap1\n      pop\n        /* \"#utility.yul\":334:411   */\n      swap2\n      swap1\n      pop\n      jump\t// out\n        /* \"#utility.yul\":417:539   */\n    tag_259:\n        /* \"#utility.yul\":490:514   */\n      tag_335\n        /* \"#utility.yul\":508:513   */\n      dup2\n        /* \"#utility.yul\":490:514   */\n      tag_258\n      jump\t// in\n    tag_335:\n        /* \"#utility.yul\":483:488   */\n      dup2\n        /* \"#utility.yul\":480:515   */\n      eq\n        /* \"#utility.yul\":470:533   */\n      tag_336\n      jumpi\n        /* \"#utility.yul\":529:530   */\n      0x00\n        /* \"#utility.yul\":526:527   */\n      dup1\n        /* \"#utility.yul\":519:531   */\n      revert\n        /* \"#utility.yul\":470:533   */\n    tag_336:\n        /* \"#utility.yul\":417:539   */\n      pop\n      jump\t// out\n        /* \"#utility.yul\":545:684   */\n    tag_260:\n        /* \"#utility.yul\":591:596   */\n      0x00\n        /* \"#utility.yul\":629:635   */\n      dup2\n        /* \"#utility.yul\":616:636   */\n      calldataload\n        /* \"#utility.yul\":607:636   */\n      swap1\n      pop\n        /* \"#utility.yul\":645:678   */\n      tag_338\n        /* \"#utility.yul\":672:677   */\n      dup2\n        /* \"#utility.yul\":645:678   */\n      tag_259\n      jump\t// in\n    tag_338:\n        /* \"#utility.yul\":545:684   */\n      swap3\n      swap2\n      pop\n      pop\n      jump\t// out\n        /* \"#utility.yul\":690:1019   */\n    tag_24:\n        /* \"#utility.yul\":749:755   */\n      0x00\n        /* \"#utility.yul\":798:800   */\n      0x20\n        /* \"#utility.yul\":786:795   */\n      dup3\n        /* \"#utility.yul\":777:784   */\n      dup5\n        /* \"#utility.yul\":773:796   */\n      sub\n        /* \"#utility.yul\":769:801   */\n      slt\n        /* \"#utility.yul\":766:885   */\n      iszero\n      tag_340\n      jumpi\n        /* \"#utility.yul\":804:883   */\n      tag_341\n      tag_256\n      jump\t// in\n    tag_341:\n        /* \"#utility.yul\":766:885   */\n    tag_340:\n        /* \"#utility.yul\":924:925   */\n      0x00\n        /* \"#utility.yul\":949:1002   */\n      tag_342\n        /* \"#utility.yul\":994:1001   */\n      dup5\n        /* \"#utility.yul\":985:991   */\n      dup3\n        /* \"#utility.yul\":974:983   */\n      dup6\n        /* \"#utility.yul\":970:992   */\n      add\n        /* \"#utility.yul\":949:1002   */\n      tag_260\n      jump\t// in\n    tag_342:\n        /* \"#utility.yul\":939:1002   */\n      swap2\n      pop\n        /* \"#utility.yul\":895:1012   */\n      pop\n        /* \"#utility.yul\":690:1019   */\n      swap3\n      swap2\n      pop\n      pop\n      jump\t// out\n        /* \"#utility.yul\":1025:1115   */\n    tag_261:\n        /* \"#utility.yul\":1059:1066   */\n      0x00\n        /* \"#utility.yul\":1102:1107   */\n      dup2\n        /* \"#utility.yul\":1095:1108   */\n      iszero\n        /* \"#utility.yul\":1088:1109   */\n      iszero\n        /* \"#utility.yul\":1077:1109   */\n      swap1\n      pop\n        /* \"#utility.yul\":1025:1115   */\n      swap2\n      swap1\n      pop\n      jump\t// out\n        /* \"#utility.yul\":1121:1230   */\n    tag_262:\n        /* \"#utility.yul\":1202:1223   */\n      tag_345\n        /* \"#utility.yul\":1217:1222   */\n      dup2\n        /* \"#utility.yul\":1202:1223   */\n      tag_261\n      jump\t// in\n    tag_345:\n        /* \"#utility.yul\":1197:1200   */\n      dup3\n        /* \"#utility.yul\":1190:1224   */\n      mstore\n        /* \"#utility.yul\":1121:1230   */\n      pop\n      pop\n      jump\t// out\n        /* \"#utility.yul\":1236:1446   */\n    tag_27:\n        /* \"#utility.yul\":1323:1327   */\n      0x00\n        /* \"#utility.yul\":1361:1363   */\n      0x20\n        /* \"#utility.yul\":1350:1359   */\n      dup3\n        /* \"#utility.yul\":1346:1364   */\n      add\n        /* \"#utility.yul\":1338:1364   */\n      swap1\n      pop\n        /* \"#utility.yul\":1374:1439   */\n      tag_347\n        /* \"#utility.yul\":1436:1437   */\n      0x00\n        /* \"#utility.yul\":1425:1434   */\n      dup4\n        /* \"#utility.yul\":1421:1438   */\n      add\n        /* \"#utility.yul\":1412:1418   */\n      dup5\n        /* \"#utility.yul\":1374:1439   */\n      tag_262\n      jump\t// in\n    tag_347:\n        /* \"#utility.yul\":1236:1446   */\n      swap3\n      swap2\n      pop\n      pop\n      jump\t// out\n        /* \"#utility.yul\":1452:1566   */\n    tag_263:\n        /* \"#utility.yul\":1519:1525   */\n      0x00\n        /* \"#utility.yul\":1553:1558   */\n      dup2\n        /* \"#utility.yul\":1547:1559   */\n      mload\n        /* \"#utility.yul\":1537:1559   */\n      swap1\n      pop\n        /* \"#utility.yul\":1452:1566   */\n      swap2\n      swap1\n      pop\n      jump\t// out\n        /* \"#utility.yul\":1572:1756   */\n    tag_264:\n        /* \"#utility.yul\":1671:1682   */\n      0x00\n        /* \"#utility.yul\":1705:1711   */\n      dup3\n        /* \"#utility.yul\":1700:1703   */\n      dup3\n        /* \"#utility.yul\":1693:1712   */\n      mstore\n        /* \"#utility.yul\":1745:1749   */\n      0x20\n        /* \"#utility.yul\":1740:1743   */\n      dup3\n        /* \"#utility.yul\":1736:1750   */\n      add\n        /* \"#utility.yul\":1721:1750   */\n      swap1\n      pop\n        /* \"#utility.yul\":1572:1756   */\n      swap3\n      swap2\n      pop\n      pop\n      jump\t// out\n        /* \"#utility.yul\":1762:1894   */\n    tag_265:\n        /* \"#utility.yul\":1829:1833   */\n      0x00\n        /* \"#utility.yul\":1852:1855   */\n      dup2\n        /* \"#utility.yul\":1844:1855   */\n      swap1\n      pop\n        /* \"#utility.yul\":1882:1886   */\n      0x20\n        /* \"#utility.yul\":1877:1880   */\n      dup3\n        /* \"#utility.yul\":1873:1887   */\n      add\n        /* \"#utility.yul\":1865:1887   */\n      swap1\n      pop\n        /* \"#utility.yul\":1762:1894   */\n      swap2\n      swap1\n      pop\n      jump\t// out\n        /* \"#utility.yul\":1900:2008   */\n    tag_266:\n        /* \"#utility.yul\":1977:2001   */\n      tag_352\n        /* \"#utility.yul\":1995:2000   */\n      dup2\n        /* \"#utility.yul\":1977:2001   */\n      tag_258\n      jump\t// in\n    tag_352:\n        /* \"#utility.yul\":1972:1975   */\n      dup3\n        /* \"#utility.yul\":1965:2002   */\n      mstore\n        /* \"#utility.yul\":1900:2008   */\n      pop\n      pop\n      jump\t// out\n        /* \"#utility.yul\":2014:2193   */\n    tag_267:\n        /* \"#utility.yul\":2083:2093   */\n      0x00\n        /* \"#utility.yul\":2104:2150   */\n      tag_354\n        /* \"#utility.yul\":2146:2149   */\n      dup4\n        /* \"#utility.yul\":2138:2144   */\n      dup4\n        /* \"#utility.yul\":2104:2150   */\n      tag_266\n      jump\t// in\n    tag_354:\n        /* \"#utility.yul\":2182:2186   */\n      0x20\n        /* \"#utility.yul\":2177:2180   */\n      dup4\n        /* \"#utility.yul\":2173:2187   */\n      add\n        /* \"#utility.yul\":2159:2187   */\n      swap1\n      pop\n        /* \"#utility.yul\":2014:2193   */\n      swap3\n      swap2\n      pop\n      pop\n      jump\t// out\n        /* \"#utility.yul\":2199:2312   */\n    tag_268:\n        /* \"#utility.yul\":2269:2273   */\n      0x00\n        /* \"#utility.yul\":2301:2305   */\n      0x20\n        /* \"#utility.yul\":2296:2299   */\n      dup3\n        /* \"#utility.yul\":2292:2306   */\n      add\n        /* \"#utility.yul\":2284:2306   */\n      swap1\n      pop\n        /* \"#utility.yul\":2199:2312   */\n      swap2\n      swap1\n      pop\n      jump\t// out\n        /* \"#utility.yul\":2348:3080   */\n    tag_269:\n        /* \"#utility.yul\":2467:2470   */\n      0x00\n        /* \"#utility.yul\":2496:2550   */\n      tag_357\n        /* \"#utility.yul\":2544:2549   */\n      dup3\n        /* \"#utility.yul\":2496:2550   */\n      tag_263\n      jump\t// in\n    tag_357:\n        /* \"#utility.yul\":2566:2652   */\n      tag_358\n        /* \"#utility.yul\":2645:2651   */\n      dup2\n        /* \"#utility.yul\":2640:2643   */\n      dup6\n        /* \"#utility.yul\":2566:2652   */\n      tag_264\n      jump\t// in\n    tag_358:\n        /* \"#utility.yul\":2559:2652   */\n      swap4\n      pop\n        /* \"#utility.yul\":2676:2732   */\n      tag_359\n        /* \"#utility.yul\":2726:2731   */\n      dup4\n        /* \"#utility.yul\":2676:2732   */\n      tag_265\n      jump\t// in\n    tag_359:\n        /* \"#utility.yul\":2755:2762   */\n      dup1\n        /* \"#utility.yul\":2786:2787   */\n      0x00\n        /* \"#utility.yul\":2771:3055   */\n    tag_360:\n        /* \"#utility.yul\":2796:2802   */\n      dup4\n        /* \"#utility.yul\":2793:2794   */\n      dup2\n        /* \"#utility.yul\":2790:2803   */\n      lt\n        /* \"#utility.yul\":2771:3055   */\n      iszero\n      tag_362\n      jumpi\n        /* \"#utility.yul\":2872:2878   */\n      dup2\n        /* \"#utility.yul\":2866:2879   */\n      mload\n        /* \"#utility.yul\":2899:2962   */\n      tag_363\n        /* \"#utility.yul\":2958:2961   */\n      dup9\n        /* \"#utility.yul\":2943:2956   */\n      dup3\n        /* \"#utility.yul\":2899:2962   */\n      tag_267\n      jump\t// in\n    tag_363:\n        /* \"#utility.yul\":2892:2962   */\n      swap8\n      pop\n        /* \"#utility.yul\":2985:3045   */\n      tag_364\n        /* \"#utility.yul\":3038:3044   */\n      dup4\n        /* \"#utility.yul\":2985:3045   */\n      tag_268\n      jump\t// in\n    tag_364:\n        /* \"#utility.yul\":2975:3045   */\n      swap3\n      pop\n        /* \"#utility.yul\":2831:3055   */\n      pop\n        /* \"#utility.yul\":2818:2819   */\n      0x01\n        /* \"#utility.yul\":2815:2816   */\n      dup2\n        /* \"#utility.yul\":2811:2820   */\n      add\n        /* \"#utility.yul\":2806:2820   */\n      swap1\n      pop\n        /* \"#utility.yul\":2771:3055   */\n      jump(tag_360)\n    tag_362:\n        /* \"#utility.yul\":2775:2789   */\n      pop\n        /* \"#utility.yul\":3071:3074   */\n      dup6\n        /* \"#utility.yul\":3064:3074   */\n      swap4\n      pop\n        /* \"#utility.yul\":2472:3080   */\n      pop\n      pop\n      pop\n        /* \"#utility.yul\":2348:3080   */\n      swap3\n      swap2\n      pop\n      pop\n      jump\t// out\n        /* \"#utility.yul\":3086:3459   */\n    tag_32:\n        /* \"#utility.yul\":3229:3233   */\n      0x00\n        /* \"#utility.yul\":3267:3269   */\n      0x20\n        /* \"#utility.yul\":3256:3265   */\n      dup3\n        /* \"#utility.yul\":3252:3270   */\n      add\n        /* \"#utility.yul\":3244:3270   */\n      swap1\n      pop\n        /* \"#utility.yul\":3316:3325   */\n      dup2\n        /* \"#utility.yul\":3310:3314   */\n      dup2\n        /* \"#utility.yul\":3306:3326   */\n      sub\n        /* \"#utility.yul\":3302:3303   */\n      0x00\n        /* \"#utility.yul\":3291:3300   */\n      dup4\n        /* \"#utility.yul\":3287:3304   */\n      add\n        /* \"#utility.yul\":3280:3327   */\n      mstore\n        /* \"#utility.yul\":3344:3452   */\n      tag_366\n        /* \"#utility.yul\":3447:3451   */\n      dup2\n        /* \"#utility.yul\":3438:3444   */\n      dup5\n        /* \"#utility.yul\":3344:3452   */\n      tag_269\n      jump\t// in\n    tag_366:\n        /* \"#utility.yul\":3336:3452   */\n      swap1\n      pop\n        /* \"#utility.yul\":3086:3459   */\n      swap3\n      swap2\n      pop\n      pop\n      jump\t// out\n        /* \"#utility.yul\":3465:3583   */\n    tag_270:\n        /* \"#utility.yul\":3552:3576   */\n      tag_368\n        /* \"#utility.yul\":3570:3575   */\n      dup2\n        /* \"#utility.yul\":3552:3576   */\n      tag_258\n      jump\t// in\n    tag_368:\n        /* \"#utility.yul\":3547:3550   */\n      dup3\n        /* \"#utility.yul\":3540:3577   */\n      mstore\n        /* \"#utility.yul\":3465:3583   */\n      pop\n      pop\n      jump\t// out\n        /* \"#utility.yul\":3589:3811   */\n    tag_42:\n        /* \"#utility.yul\":3682:3686   */\n      0x00\n        /* \"#utility.yul\":3720:3722   */\n      0x20\n        /* \"#utility.yul\":3709:3718   */\n      dup3\n        /* \"#utility.yul\":3705:3723   */\n      add\n        /* \"#utility.yul\":3697:3723   */\n      swap1\n      pop\n        /* \"#utility.yul\":3733:3804   */\n      tag_370\n        /* \"#utility.yul\":3801:3802   */\n      0x00\n        /* \"#utility.yul\":3790:3799   */\n      dup4\n        /* \"#utility.yul\":3786:3803   */\n      add\n        /* \"#utility.yul\":3777:3783   */\n      dup5\n        /* \"#utility.yul\":3733:3804   */\n      tag_270\n      jump\t// in\n    tag_370:\n        /* \"#utility.yul\":3589:3811   */\n      swap3\n      swap2\n      pop\n      pop\n      jump\t// out\n        /* \"#utility.yul\":3817:3916   */\n    tag_271:\n        /* \"#utility.yul\":3869:3875   */\n      0x00\n        /* \"#utility.yul\":3903:3908   */\n      dup2\n        /* \"#utility.yul\":3897:3909   */\n      mload\n        /* \"#utility.yul\":3887:3909   */\n      swap1\n      pop\n        /* \"#utility.yul\":3817:3916   */\n      swap2\n      swap1\n      pop\n      jump\t// out\n        /* \"#utility.yul\":3922:4091   */\n    tag_272:\n        /* \"#utility.yul\":4006:4017   */\n      0x00\n        /* \"#utility.yul\":4040:4046   */\n      dup3\n        /* \"#utility.yul\":4035:4038   */\n      dup3\n        /* \"#utility.yul\":4028:4047   */\n      mstore\n        /* \"#utility.yul\":4080:4084   */\n      0x20\n        /* \"#utility.yul\":4075:4078   */\n      dup3\n        /* \"#utility.yul\":4071:4085   */\n      add\n        /* \"#utility.yul\":4056:4085   */\n      swap1\n      pop\n        /* \"#utility.yul\":3922:4091   */\n      swap3\n      swap2\n      pop\n      pop\n      jump\t// out\n        /* \"#utility.yul\":4097:4236   */\n    tag_273:\n        /* \"#utility.yul\":4186:4192   */\n      dup3\n        /* \"#utility.yul\":4181:4184   */\n      dup2\n        /* \"#utility.yul\":4176:4179   */\n      dup4\n        /* \"#utility.yul\":4170:4193   */\n      mcopy\n        /* \"#utility.yul\":4227:4228   */\n      0x00\n        /* \"#utility.yul\":4218:4224   */\n      dup4\n        /* \"#utility.yul\":4213:4216   */\n      dup4\n        /* \"#utility.yul\":4209:4225   */\n      add\n        /* \"#utility.yul\":4202:4229   */\n      mstore\n        /* \"#utility.yul\":4097:4236   */\n      pop\n      pop\n      pop\n      jump\t// out\n        /* \"#utility.yul\":4242:4344   */\n    tag_274:\n        /* \"#utility.yul\":4283:4289   */\n      0x00\n        /* \"#utility.yul\":4334:4336   */\n      0x1f\n        /* \"#utility.yul\":4330:4337   */\n      not\n        /* \"#utility.yul\":4325:4327   */\n      0x1f\n        /* \"#utility.yul\":4318:4323   */\n      dup4\n        /* \"#utility.yul\":4314:4328   */\n      add\n        /* \"#utility.yul\":4310:4338   */\n      and\n        /* \"#utility.yul\":4300:4338   */\n      swap1\n      pop\n        /* \"#utility.yul\":4242:4344   */\n      swap2\n      swap1\n      pop\n      jump\t// out\n        /* \"#utility.yul\":4350:4727   */\n    tag_275:\n        /* \"#utility.yul\":4438:4441   */\n      0x00\n        /* \"#utility.yul\":4466:4505   */\n      tag_376\n        /* \"#utility.yul\":4499:4504   */\n      dup3\n        /* \"#utility.yul\":4466:4505   */\n      tag_271\n      jump\t// in\n    tag_376:\n        /* \"#utility.yul\":4521:4592   */\n      tag_377\n        /* \"#utility.yul\":4585:4591   */\n      dup2\n        /* \"#utility.yul\":4580:4583   */\n      dup6\n        /* \"#utility.yul\":4521:4592   */\n      tag_272\n      jump\t// in\n    tag_377:\n        /* \"#utility.yul\":4514:4592   */\n      swap4\n      pop\n        /* \"#utility.yul\":4601:4666   */\n      tag_378\n        /* \"#utility.yul\":4659:4665   */\n      dup2\n        /* \"#utility.yul\":4654:4657   */\n      dup6\n        /* \"#utility.yul\":4647:4651   */\n      0x20\n        /* \"#utility.yul\":4640:4645   */\n      dup7\n        /* \"#utility.yul\":4636:4652   */\n      add\n        /* \"#utility.yul\":4601:4666   */\n      tag_273\n      jump\t// in\n    tag_378:\n        /* \"#utility.yul\":4691:4720   */\n      tag_379\n        /* \"#utility.yul\":4713:4719   */\n      dup2\n        /* \"#utility.yul\":4691:4720   */\n      tag_274\n      jump\t// in\n    tag_379:\n        /* \"#utility.yul\":4686:4689   */\n      dup5\n        /* \"#utility.yul\":4682:4721   */\n      add\n        /* \"#utility.yul\":4675:4721   */\n      swap2\n      pop\n        /* \"#utility.yul\":4442:4727   */\n      pop\n        /* \"#utility.yul\":4350:4727   */\n      swap3\n      swap2\n      pop\n      pop\n      jump\t// out\n        /* \"#utility.yul\":4733:5567   */\n    tag_52:\n        /* \"#utility.yul\":4972:4976   */\n      0x00\n        /* \"#utility.yul\":5010:5013   */\n      0xa0\n        /* \"#utility.yul\":4999:5008   */\n      dup3\n        /* \"#utility.yul\":4995:5014   */\n      add\n        /* \"#utility.yul\":4987:5014   */\n      swap1\n      pop\n        /* \"#utility.yul\":5060:5069   */\n      dup2\n        /* \"#utility.yul\":5054:5058   */\n      dup2\n        /* \"#utility.yul\":5050:5070   */\n      sub\n        /* \"#utility.yul\":5046:5047   */\n      0x00\n        /* \"#utility.yul\":5035:5044   */\n      dup4\n        /* \"#utility.yul\":5031:5048   */\n      add\n        /* \"#utility.yul\":5024:5071   */\n      mstore\n        /* \"#utility.yul\":5088:5166   */\n      tag_381\n        /* \"#utility.yul\":5161:5165   */\n      dup2\n        /* \"#utility.yul\":5152:5158   */\n      dup9\n        /* \"#utility.yul\":5088:5166   */\n      tag_275\n      jump\t// in\n    tag_381:\n        /* \"#utility.yul\":5080:5166   */\n      swap1\n      pop\n        /* \"#utility.yul\":5213:5222   */\n      dup2\n        /* \"#utility.yul\":5207:5211   */\n      dup2\n        /* \"#utility.yul\":5203:5223   */\n      sub\n        /* \"#utility.yul\":5198:5200   */\n      0x20\n        /* \"#utility.yul\":5187:5196   */\n      dup4\n        /* \"#utility.yul\":5183:5201   */\n      add\n        /* \"#utility.yul\":5176:5224   */\n      mstore\n        /* \"#utility.yul\":5241:5319   */\n      tag_382\n        /* \"#utility.yul\":5314:5318   */\n      dup2\n        /* \"#utility.yul\":5305:5311   */\n      dup8\n        /* \"#utility.yul\":5241:5319   */\n      tag_275\n      jump\t// in\n    tag_382:\n        /* \"#utility.yul\":5233:5319   */\n      swap1\n      pop\n        /* \"#utility.yul\":5329:5401   */\n      tag_383\n        /* \"#utility.yul\":5397:5399   */\n      0x40\n        /* \"#utility.yul\":5386:5395   */\n      dup4\n        /* \"#utility.yul\":5382:5400   */\n      add\n        /* \"#utility.yul\":5373:5379   */\n      dup7\n        /* \"#utility.yul\":5329:5401   */\n      tag_270\n      jump\t// in\n    tag_383:\n        /* \"#utility.yul\":5411:5483   */\n      tag_384\n        /* \"#utility.yul\":5479:5481   */\n      0x60\n        /* \"#utility.yul\":5468:5477   */\n      dup4\n        /* \"#utility.yul\":5464:5482   */\n      add\n        /* \"#utility.yul\":5455:5461   */\n      dup6\n        /* \"#utility.yul\":5411:5483   */\n      tag_270\n      jump\t// in\n    tag_384:\n        /* \"#utility.yul\":5493:5560   */\n      tag_385\n        /* \"#utility.yul\":5555:5558   */\n      0x80\n        /* \"#utility.yul\":5544:5553   */\n      dup4\n        /* \"#utility.yul\":5540:5559   */\n      add\n        /* \"#utility.yul\":5531:5537   */\n      dup5\n        /* \"#utility.yul\":5493:5560   */\n      tag_262\n      jump\t// in\n    tag_385:\n        /* \"#utility.yul\":4733:5567   */\n      swap7\n      swap6\n      pop\n      pop\n      pop\n      pop\n      pop\n      pop\n      jump\t// out\n        /* \"#utility.yul\":5573:5662   */\n    tag_276:\n        /* \"#utility.yul\":5609:5616   */\n      0x00\n        /* \"#utility.yul\":5649:5655   */\n      0xffff\n        /* \"#utility.yul\":5642:5647   */\n      dup3\n        /* \"#utility.yul\":5638:5656   */\n      and\n        /* \"#utility.yul\":5627:5656   */\n      swap1\n      pop\n        /* \"#utility.yul\":5573:5662   */\n      swap2\n      swap1\n      pop\n      jump\t// out\n        /* \"#utility.yul\":5668:5783   */\n    tag_277:\n        /* \"#utility.yul\":5753:5776   */\n      tag_388\n        /* \"#utility.yul\":5770:5775   */\n      dup2\n        /* \"#utility.yul\":5753:5776   */\n      tag_276\n      jump\t// in\n    tag_388:\n        /* \"#utility.yul\":5748:5751   */\n      dup3\n        /* \"#utility.yul\":5741:5777   */\n      mstore\n        /* \"#utility.yul\":5668:5783   */\n      pop\n      pop\n      jump\t// out\n        /* \"#utility.yul\":5789:6619   */\n    tag_58:\n        /* \"#utility.yul\":6026:6030   */\n      0x00\n        /* \"#utility.yul\":6064:6067   */\n      0xa0\n        /* \"#utility.yul\":6053:6062   */\n      dup3\n        /* \"#utility.yul\":6049:6068   */\n      add\n        /* \"#utility.yul\":6041:6068   */\n      swap1\n      pop\n        /* \"#utility.yul\":6114:6123   */\n      dup2\n        /* \"#utility.yul\":6108:6112   */\n      dup2\n        /* \"#utility.yul\":6104:6124   */\n      sub\n        /* \"#utility.yul\":6100:6101   */\n      0x00\n        /* \"#utility.yul\":6089:6098   */\n      dup4\n        /* \"#utility.yul\":6085:6102   */\n      add\n        /* \"#utility.yul\":6078:6125   */\n      mstore\n        /* \"#utility.yul\":6142:6220   */\n      tag_390\n        /* \"#utility.yul\":6215:6219   */\n      dup2\n        /* \"#utility.yul\":6206:6212   */\n      dup9\n        /* \"#utility.yul\":6142:6220   */\n      tag_275\n      jump\t// in\n    tag_390:\n        /* \"#utility.yul\":6134:6220   */\n      swap1\n      pop\n        /* \"#utility.yul\":6267:6276   */\n      dup2\n        /* \"#utility.yul\":6261:6265   */\n      dup2\n        /* \"#utility.yul\":6257:6277   */\n      sub\n        /* \"#utility.yul\":6252:6254   */\n      0x20\n        /* \"#utility.yul\":6241:6250   */\n      dup4\n        /* \"#utility.yul\":6237:6255   */\n      add\n        /* \"#utility.yul\":6230:6278   */\n      mstore\n        /* \"#utility.yul\":6295:6373   */\n      tag_391\n        /* \"#utility.yul\":6368:6372   */\n      dup2\n        /* \"#utility.yul\":6359:6365   */\n      dup8\n        /* \"#utility.yul\":6295:6373   */\n      tag_275\n      jump\t// in\n    tag_391:\n        /* \"#utility.yul\":6287:6373   */\n      swap1\n      pop\n        /* \"#utility.yul\":6383:6453   */\n      tag_392\n        /* \"#utility.yul\":6449:6451   */\n      0x40\n        /* \"#utility.yul\":6438:6447   */\n      dup4\n        /* \"#utility.yul\":6434:6452   */\n      add\n        /* \"#utility.yul\":6425:6431   */\n      dup7\n        /* \"#utility.yul\":6383:6453   */\n      tag_277\n      jump\t// in\n    tag_392:\n        /* \"#utility.yul\":6463:6535   */\n      tag_393\n        /* \"#utility.yul\":6531:6533   */\n      0x60\n        /* \"#utility.yul\":6520:6529   */\n      dup4\n        /* \"#utility.yul\":6516:6534   */\n      add\n        /* \"#utility.yul\":6507:6513   */\n      dup6\n        /* \"#utility.yul\":6463:6535   */\n      tag_270\n      jump\t// in\n    tag_393:\n        /* \"#utility.yul\":6545:6612   */\n      tag_394\n        /* \"#utility.yul\":6607:6610   */\n      0x80\n        /* \"#utility.yul\":6596:6605   */\n      dup4\n        /* \"#utility.yul\":6592:6611   */\n      add\n        /* \"#utility.yul\":6583:6589   */\n      dup5\n        /* \"#utility.yul\":6545:6612   */\n      tag_262\n      jump\t// in\n    tag_394:\n        /* \"#utility.yul\":5789:6619   */\n      swap7\n      swap6\n      pop\n      pop\n      pop\n      pop\n      pop\n      pop\n      jump\t// out\n        /* \"#utility.yul\":6625:6751   */\n    tag_278:\n        /* \"#utility.yul\":6662:6669   */\n      0x00\n        /* \"#utility.yul\":6702:6744   */\n      0xffffffffffffffffffffffffffffffffffffffff\n        /* \"#utility.yul\":6695:6700   */\n      dup3\n        /* \"#utility.yul\":6691:6745   */\n      and\n        /* \"#utility.yul\":6680:6745   */\n      swap1\n      pop\n        /* \"#utility.yul\":6625:6751   */\n      swap2\n      swap1\n      pop\n      jump\t// out\n        /* \"#utility.yul\":6757:6853   */\n    tag_279:\n        /* \"#utility.yul\":6794:6801   */\n      0x00\n        /* \"#utility.yul\":6823:6847   */\n      tag_397\n        /* \"#utility.yul\":6841:6846   */\n      dup3\n        /* \"#utility.yul\":6823:6847   */\n      tag_278\n      jump\t// in\n    tag_397:\n        /* \"#utility.yul\":6812:6847   */\n      swap1\n      pop\n        /* \"#utility.yul\":6757:6853   */\n      swap2\n      swap1\n      pop\n      jump\t// out\n        /* \"#utility.yul\":6859:6977   */\n    tag_280:\n        /* \"#utility.yul\":6946:6970   */\n      tag_399\n        /* \"#utility.yul\":6964:6969   */\n      dup2\n        /* \"#utility.yul\":6946:6970   */\n      tag_279\n      jump\t// in\n    tag_399:\n        /* \"#utility.yul\":6941:6944   */\n      dup3\n        /* \"#utility.yul\":6934:6971   */\n      mstore\n        /* \"#utility.yul\":6859:6977   */\n      pop\n      pop\n      jump\t// out\n        /* \"#utility.yul\":6983:7205   */\n    tag_66:\n        /* \"#utility.yul\":7076:7080   */\n      0x00\n        /* \"#utility.yul\":7114:7116   */\n      0x20\n        /* \"#utility.yul\":7103:7112   */\n      dup3\n        /* \"#utility.yul\":7099:7117   */\n      add\n        /* \"#utility.yul\":7091:7117   */\n      swap1\n      pop\n        /* \"#utility.yul\":7127:7198   */\n      tag_401\n        /* \"#utility.yul\":7195:7196   */\n      0x00\n        /* \"#utility.yul\":7184:7193   */\n      dup4\n        /* \"#utility.yul\":7180:7197   */\n      add\n        /* \"#utility.yul\":7171:7177   */\n      dup5\n        /* \"#utility.yul\":7127:7198   */\n      tag_280\n      jump\t// in\n    tag_401:\n        /* \"#utility.yul\":6983:7205   */\n      swap3\n      swap2\n      pop\n      pop\n      jump\t// out\n        /* \"#utility.yul\":7211:7328   */\n    tag_281:\n        /* \"#utility.yul\":7320:7321   */\n      0x00\n        /* \"#utility.yul\":7317:7318   */\n      dup1\n        /* \"#utility.yul\":7310:7322   */\n      revert\n        /* \"#utility.yul\":7334:7451   */\n    tag_282:\n        /* \"#utility.yul\":7443:7444   */\n      0x00\n        /* \"#utility.yul\":7440:7441   */\n      dup1\n        /* \"#utility.yul\":7433:7445   */\n      revert\n        /* \"#utility.yul\":7457:7637   */\n    tag_283:\n        /* \"#utility.yul\":7505:7582   */\n      0x4e487b7100000000000000000000000000000000000000000000000000000000\n        /* \"#utility.yul\":7502:7503   */\n      0x00\n        /* \"#utility.yul\":7495:7583   */\n      mstore\n        /* \"#utility.yul\":7602:7606   */\n      0x41\n        /* \"#utility.yul\":7599:7600   */\n      0x04\n        /* \"#utility.yul\":7592:7607   */\n      mstore\n        /* \"#utility.yul\":7626:7630   */\n      0x24\n        /* \"#utility.yul\":7623:7624   */\n      0x00\n        /* \"#utility.yul\":7616:7631   */\n      revert\n        /* \"#utility.yul\":7643:7924   */\n    tag_284:\n        /* \"#utility.yul\":7726:7753   */\n      tag_406\n        /* \"#utility.yul\":7748:7752   */\n      dup3\n        /* \"#utility.yul\":7726:7753   */\n      tag_274\n      jump\t// in\n    tag_406:\n        /* \"#utility.yul\":7718:7724   */\n      dup2\n        /* \"#utility.yul\":7714:7754   */\n      add\n        /* \"#utility.yul\":7856:7862   */\n      dup2\n        /* \"#utility.yul\":7844:7854   */\n      dup2\n        /* \"#utility.yul\":7841:7863   */\n      lt\n        /* \"#utility.yul\":7820:7838   */\n      0xffffffffffffffff\n        /* \"#utility.yul\":7808:7818   */\n      dup3\n        /* \"#utility.yul\":7805:7839   */\n      gt\n        /* \"#utility.yul\":7802:7864   */\n      or\n        /* \"#utility.yul\":7799:7887   */\n      iszero\n      tag_407\n      jumpi\n        /* \"#utility.yul\":7867:7885   */\n      tag_408\n      tag_283\n      jump\t// in\n    tag_408:\n        /* \"#utility.yul\":7799:7887   */\n    tag_407:\n        /* \"#utility.yul\":7907:7917   */\n      dup1\n        /* \"#utility.yul\":7903:7905   */\n      0x40\n        /* \"#utility.yul\":7896:7918   */\n      mstore\n        /* \"#utility.yul\":7686:7924   */\n      pop\n        /* \"#utility.yul\":7643:7924   */\n      pop\n      pop\n      jump\t// out\n        /* \"#utility.yul\":7930:8059   */\n    tag_285:\n        /* \"#utility.yul\":7964:7970   */\n      0x00\n        /* \"#utility.yul\":7991:8011   */\n      tag_410\n      tag_255\n      jump\t// in\n    tag_410:\n        /* \"#utility.yul\":7981:8011   */\n      swap1\n      pop\n        /* \"#utility.yul\":8020:8053   */\n      tag_411\n        /* \"#utility.yul\":8048:8052   */\n      dup3\n        /* \"#utility.yul\":8040:8046   */\n      dup3\n        /* \"#utility.yul\":8020:8053   */\n      tag_284\n      jump\t// in\n    tag_411:\n        /* \"#utility.yul\":7930:8059   */\n      swap2\n      swap1\n      pop\n      jump\t// out\n        /* \"#utility.yul\":8065:8373   */\n    tag_286:\n        /* \"#utility.yul\":8127:8131   */\n      0x00\n        /* \"#utility.yul\":8217:8235   */\n      0xffffffffffffffff\n        /* \"#utility.yul\":8209:8215   */\n      dup3\n        /* \"#utility.yul\":8206:8236   */\n      gt\n        /* \"#utility.yul\":8203:8259   */\n      iszero\n      tag_413\n      jumpi\n        /* \"#utility.yul\":8239:8257   */\n      tag_414\n      tag_283\n      jump\t// in\n    tag_414:\n        /* \"#utility.yul\":8203:8259   */\n    tag_413:\n        /* \"#utility.yul\":8277:8306   */\n      tag_415\n        /* \"#utility.yul\":8299:8305   */\n      dup3\n        /* \"#utility.yul\":8277:8306   */\n      tag_274\n      jump\t// in\n    tag_415:\n        /* \"#utility.yul\":8269:8306   */\n      swap1\n      pop\n        /* \"#utility.yul\":8361:8365   */\n      0x20\n        /* \"#utility.yul\":8355:8359   */\n      dup2\n        /* \"#utility.yul\":8351:8366   */\n      add\n        /* \"#utility.yul\":8343:8366   */\n      swap1\n      pop\n        /* \"#utility.yul\":8065:8373   */\n      swap2\n      swap1\n      pop\n      jump\t// out\n        /* \"#utility.yul\":8379:8527   */\n    tag_287:\n        /* \"#utility.yul\":8477:8483   */\n      dup3\n        /* \"#utility.yul\":8472:8475   */\n      dup2\n        /* \"#utility.yul\":8467:8470   */\n      dup4\n        /* \"#utility.yul\":8454:8484   */\n      calldatacopy\n        /* \"#utility.yul\":8518:8519   */\n      0x00\n        /* \"#utility.yul\":8509:8515   */\n      dup4\n        /* \"#utility.yul\":8504:8507   */\n      dup4\n        /* \"#utility.yul\":8500:8516   */\n      add\n        /* \"#utility.yul\":8493:8520   */\n      mstore\n        /* \"#utility.yul\":8379:8527   */\n      pop\n      pop\n      pop\n      jump\t// out\n        /* \"#utility.yul\":8533:8958   */\n    tag_288:\n        /* \"#utility.yul\":8611:8616   */\n      0x00\n        /* \"#utility.yul\":8636:8702   */\n      tag_418\n        /* \"#utility.yul\":8652:8701   */\n      tag_419\n        /* \"#utility.yul\":8694:8700   */\n      dup5\n        /* \"#utility.yul\":8652:8701   */\n      tag_286\n      jump\t// in\n    tag_419:\n        /* \"#utility.yul\":8636:8702   */\n      tag_285\n      jump\t// in\n    tag_418:\n        /* \"#utility.yul\":8627:8702   */\n      swap1\n      pop\n        /* \"#utility.yul\":8725:8731   */\n      dup3\n        /* \"#utility.yul\":8718:8723   */\n      dup2\n        /* \"#utility.yul\":8711:8732   */\n      mstore\n        /* \"#utility.yul\":8763:8767   */\n      0x20\n        /* \"#utility.yul\":8756:8761   */\n      dup2\n        /* \"#utility.yul\":8752:8768   */\n      add\n        /* \"#utility.yul\":8801:8804   */\n      dup5\n        /* \"#utility.yul\":8792:8798   */\n      dup5\n        /* \"#utility.yul\":8787:8790   */\n      dup5\n        /* \"#utility.yul\":8783:8799   */\n      add\n        /* \"#utility.yul\":8780:8805   */\n      gt\n        /* \"#utility.yul\":8777:8889   */\n      iszero\n      tag_420\n      jumpi\n        /* \"#utility.yul\":8808:8887   */\n      tag_421\n      tag_282\n      jump\t// in\n    tag_421:\n        /* \"#utility.yul\":8777:8889   */\n    tag_420:\n        /* \"#utility.yul\":8898:8952   */\n      tag_422\n        /* \"#utility.yul\":8945:8951   */\n      dup5\n        /* \"#utility.yul\":8940:8943   */\n      dup3\n        /* \"#utility.yul\":8935:8938   */\n      dup6\n        /* \"#utility.yul\":8898:8952   */\n      tag_287\n      jump\t// in\n    tag_422:\n        /* \"#utility.yul\":8617:8958   */\n      pop\n        /* \"#utility.yul\":8533:8958   */\n      swap4\n      swap3\n      pop\n      pop\n      pop\n      jump\t// out\n        /* \"#utility.yul\":8978:9318   */\n    tag_289:\n        /* \"#utility.yul\":9034:9039   */\n      0x00\n        /* \"#utility.yul\":9083:9086   */\n      dup3\n        /* \"#utility.yul\":9076:9080   */\n      0x1f\n        /* \"#utility.yul\":9068:9074   */\n      dup4\n        /* \"#utility.yul\":9064:9081   */\n      add\n        /* \"#utility.yul\":9060:9087   */\n      slt\n        /* \"#utility.yul\":9050:9172   */\n      tag_424\n      jumpi\n        /* \"#utility.yul\":9091:9170   */\n      tag_425\n      tag_281\n      jump\t// in\n    tag_425:\n        /* \"#utility.yul\":9050:9172   */\n    tag_424:\n        /* \"#utility.yul\":9208:9214   */\n      dup2\n        /* \"#utility.yul\":9195:9215   */\n      calldataload\n        /* \"#utility.yul\":9233:9312   */\n      tag_426\n        /* \"#utility.yul\":9308:9311   */\n      dup5\n        /* \"#utility.yul\":9300:9306   */\n      dup3\n        /* \"#utility.yul\":9293:9297   */\n      0x20\n        /* \"#utility.yul\":9285:9291   */\n      dup7\n        /* \"#utility.yul\":9281:9298   */\n      add\n        /* \"#utility.yul\":9233:9312   */\n      tag_288\n      jump\t// in\n    tag_426:\n        /* \"#utility.yul\":9224:9312   */\n      swap2\n      pop\n        /* \"#utility.yul\":9040:9318   */\n      pop\n        /* \"#utility.yul\":8978:9318   */\n      swap3\n      swap2\n      pop\n      pop\n      jump\t// out\n        /* \"#utility.yul\":9324:9444   */\n    tag_290:\n        /* \"#utility.yul\":9396:9419   */\n      tag_428\n        /* \"#utility.yul\":9413:9418   */\n      dup2\n        /* \"#utility.yul\":9396:9419   */\n      tag_276\n      jump\t// in\n    tag_428:\n        /* \"#utility.yul\":9389:9394   */\n      dup2\n        /* \"#utility.yul\":9386:9420   */\n      eq\n        /* \"#utility.yul\":9376:9438   */\n      tag_429\n      jumpi\n        /* \"#utility.yul\":9434:9435   */\n      0x00\n        /* \"#utility.yul\":9431:9432   */\n      dup1\n        /* \"#utility.yul\":9424:9436   */\n      revert\n        /* \"#utility.yul\":9376:9438   */\n    tag_429:\n        /* \"#utility.yul\":9324:9444   */\n      pop\n      jump\t// out\n        /* \"#utility.yul\":9450:9587   */\n    tag_291:\n        /* \"#utility.yul\":9495:9500   */\n      0x00\n        /* \"#utility.yul\":9533:9539   */\n      dup2\n        /* \"#utility.yul\":9520:9540   */\n      calldataload\n        /* \"#utility.yul\":9511:9540   */\n      swap1\n      pop\n        /* \"#utility.yul\":9549:9581   */\n      tag_431\n        /* \"#utility.yul\":9575:9580   */\n      dup2\n        /* \"#utility.yul\":9549:9581   */\n      tag_290\n      jump\t// in\n    tag_431:\n        /* \"#utility.yul\":9450:9587   */\n      swap3\n      swap2\n      pop\n      pop\n      jump\t// out\n        /* \"#utility.yul\":9593:10862   */\n    tag_78:\n        /* \"#utility.yul\":9707:9713   */\n      0x00\n        /* \"#utility.yul\":9715:9721   */\n      dup1\n        /* \"#utility.yul\":9723:9729   */\n      0x00\n        /* \"#utility.yul\":9731:9737   */\n      dup1\n        /* \"#utility.yul\":9739:9745   */\n      0x00\n        /* \"#utility.yul\":9788:9791   */\n      0xa0\n        /* \"#utility.yul\":9776:9785   */\n      dup7\n        /* \"#utility.yul\":9767:9774   */\n      dup9\n        /* \"#utility.yul\":9763:9786   */\n      sub\n        /* \"#utility.yul\":9759:9792   */\n      slt\n        /* \"#utility.yul\":9756:9876   */\n      iszero\n      tag_433\n      jumpi\n        /* \"#utility.yul\":9795:9874   */\n      tag_434\n      tag_256\n      jump\t// in\n    tag_434:\n        /* \"#utility.yul\":9756:9876   */\n    tag_433:\n        /* \"#utility.yul\":9915:9916   */\n      0x00\n        /* \"#utility.yul\":9940:9993   */\n      tag_435\n        /* \"#utility.yul\":9985:9992   */\n      dup9\n        /* \"#utility.yul\":9976:9982   */\n      dup3\n        /* \"#utility.yul\":9965:9974   */\n      dup10\n        /* \"#utility.yul\":9961:9983   */\n      add\n        /* \"#utility.yul\":9940:9993   */\n      tag_260\n      jump\t// in\n    tag_435:\n        /* \"#utility.yul\":9930:9993   */\n      swap6\n      pop\n        /* \"#utility.yul\":9886:10003   */\n      pop\n        /* \"#utility.yul\":10070:10072   */\n      0x20\n        /* \"#utility.yul\":10059:10068   */\n      dup7\n        /* \"#utility.yul\":10055:10073   */\n      add\n        /* \"#utility.yul\":10042:10074   */\n      calldataload\n        /* \"#utility.yul\":10101:10119   */\n      0xffffffffffffffff\n        /* \"#utility.yul\":10093:10099   */\n      dup2\n        /* \"#utility.yul\":10090:10120   */\n      gt\n        /* \"#utility.yul\":10087:10204   */\n      iszero\n      tag_436\n      jumpi\n        /* \"#utility.yul\":10123:10202   */\n      tag_437\n      tag_257\n      jump\t// in\n    tag_437:\n        /* \"#utility.yul\":10087:10204   */\n    tag_436:\n        /* \"#utility.yul\":10228:10291   */\n      tag_438\n        /* \"#utility.yul\":10283:10290   */\n      dup9\n        /* \"#utility.yul\":10274:10280   */\n      dup3\n        /* \"#utility.yul\":10263:10272   */\n      dup10\n        /* \"#utility.yul\":10259:10281   */\n      add\n        /* \"#utility.yul\":10228:10291   */\n      tag_289\n      jump\t// in\n    tag_438:\n        /* \"#utility.yul\":10218:10291   */\n      swap5\n      pop\n        /* \"#utility.yul\":10013:10301   */\n      pop\n        /* \"#utility.yul\":10368:10370   */\n      0x40\n        /* \"#utility.yul\":10357:10366   */\n      dup7\n        /* \"#utility.yul\":10353:10371   */\n      add\n        /* \"#utility.yul\":10340:10372   */\n      calldataload\n        /* \"#utility.yul\":10399:10417   */\n      0xffffffffffffffff\n        /* \"#utility.yul\":10391:10397   */\n      dup2\n        /* \"#utility.yul\":10388:10418   */\n      gt\n        /* \"#utility.yul\":10385:10502   */\n      iszero\n      tag_439\n      jumpi\n        /* \"#utility.yul\":10421:10500   */\n      tag_440\n      tag_257\n      jump\t// in\n    tag_440:\n        /* \"#utility.yul\":10385:10502   */\n    tag_439:\n        /* \"#utility.yul\":10526:10589   */\n      tag_441\n        /* \"#utility.yul\":10581:10588   */\n      dup9\n        /* \"#utility.yul\":10572:10578   */\n      dup3\n        /* \"#utility.yul\":10561:10570   */\n      dup10\n        /* \"#utility.yul\":10557:10579   */\n      add\n        /* \"#utility.yul\":10526:10589   */\n      tag_289\n      jump\t// in\n    tag_441:\n        /* \"#utility.yul\":10516:10589   */\n      swap4\n      pop\n        /* \"#utility.yul\":10311:10599   */\n      pop\n        /* \"#utility.yul\":10638:10640   */\n      0x60\n        /* \"#utility.yul\":10664:10717   */\n      tag_442\n        /* \"#utility.yul\":10709:10716   */\n      dup9\n        /* \"#utility.yul\":10700:10706   */\n      dup3\n        /* \"#utility.yul\":10689:10698   */\n      dup10\n        /* \"#utility.yul\":10685:10707   */\n      add\n        /* \"#utility.yul\":10664:10717   */\n      tag_260\n      jump\t// in\n    tag_442:\n        /* \"#utility.yul\":10654:10717   */\n      swap3\n      pop\n        /* \"#utility.yul\":10609:10727   */\n      pop\n        /* \"#utility.yul\":10766:10769   */\n      0x80\n        /* \"#utility.yul\":10793:10845   */\n      tag_443\n        /* \"#utility.yul\":10837:10844   */\n      dup9\n        /* \"#utility.yul\":10828:10834   */\n      dup3\n        /* \"#utility.yul\":10817:10826   */\n      dup10\n        /* \"#utility.yul\":10813:10835   */\n      add\n        /* \"#utility.yul\":10793:10845   */\n      tag_291\n      jump\t// in\n    tag_443:\n        /* \"#utility.yul\":10783:10845   */\n      swap2\n      pop\n        /* \"#utility.yul\":10737:10855   */\n      pop\n        /* \"#utility.yul\":9593:10862   */\n      swap3\n      swap6\n      pop\n      swap3\n      swap6\n      swap1\n      swap4\n      pop\n      jump\t// out\n        /* \"#utility.yul\":10868:10990   */\n    tag_292:\n        /* \"#utility.yul\":10941:10965   */\n      tag_445\n        /* \"#utility.yul\":10959:10964   */\n      dup2\n        /* \"#utility.yul\":10941:10965   */\n      tag_279\n      jump\t// in\n    tag_445:\n        /* \"#utility.yul\":10934:10939   */\n      dup2\n        /* \"#utility.yul\":10931:10966   */\n      eq\n        /* \"#utility.yul\":10921:10984   */\n      tag_446\n      jumpi\n        /* \"#utility.yul\":10980:10981   */\n      0x00\n        /* \"#utility.yul\":10977:10978   */\n      dup1\n        /* \"#utility.yul\":10970:10982   */\n      revert\n        /* \"#utility.yul\":10921:10984   */\n    tag_446:\n        /* \"#utility.yul\":10868:10990   */\n      pop\n      jump\t// out\n        /* \"#utility.yul\":10996:11135   */\n    tag_293:\n        /* \"#utility.yul\":11042:11047   */\n      0x00\n        /* \"#utility.yul\":11080:11086   */\n      dup2\n        /* \"#utility.yul\":11067:11087   */\n      calldataload\n        /* \"#utility.yul\":11058:11087   */\n      swap1\n      pop\n        /* \"#utility.yul\":11096:11129   */\n      tag_448\n        /* \"#utility.yul\":11123:11128   */\n      dup2\n        /* \"#utility.yul\":11096:11129   */\n      tag_292\n      jump\t// in\n    tag_448:\n        /* \"#utility.yul\":10996:11135   */\n      swap3\n      swap2\n      pop\n      pop\n      jump\t// out\n        /* \"#utility.yul\":11141:11470   */\n    tag_83:\n        /* \"#utility.yul\":11200:11206   */\n      0x00\n        /* \"#utility.yul\":11249:11251   */\n      0x20\n        /* \"#utility.yul\":11237:11246   */\n      dup3\n        /* \"#utility.yul\":11228:11235   */\n      dup5\n        /* \"#utility.yul\":11224:11247   */\n      sub\n        /* \"#utility.yul\":11220:11252   */\n      slt\n        /* \"#utility.yul\":11217:11336   */\n      iszero\n      tag_450\n      jumpi\n        /* \"#utility.yul\":11255:11334   */\n      tag_451\n      tag_256\n      jump\t// in\n    tag_451:\n        /* \"#utility.yul\":11217:11336   */\n    tag_450:\n        /* \"#utility.yul\":11375:11376   */\n      0x00\n        /* \"#utility.yul\":11400:11453   */\n      tag_452\n        /* \"#utility.yul\":11445:11452   */\n      dup5\n        /* \"#utility.yul\":11436:11442   */\n      dup3\n        /* \"#utility.yul\":11425:11434   */\n      dup6\n        /* \"#utility.yul\":11421:11443   */\n      add\n        /* \"#utility.yul\":11400:11453   */\n      tag_293\n      jump\t// in\n    tag_452:\n        /* \"#utility.yul\":11390:11453   */\n      swap2\n      pop\n        /* \"#utility.yul\":11346:11463   */\n      pop\n        /* \"#utility.yul\":11141:11470   */\n      swap3\n      swap2\n      pop\n      pop\n      jump\t// out\n        /* \"#utility.yul\":11476:12095   */\n    tag_87:\n        /* \"#utility.yul\":11553:11559   */\n      0x00\n        /* \"#utility.yul\":11561:11567   */\n      dup1\n        /* \"#utility.yul\":11569:11575   */\n      0x00\n        /* \"#utility.yul\":11618:11620   */\n      0x60\n        /* \"#utility.yul\":11606:11615   */\n      dup5\n        /* \"#utility.yul\":11597:11604   */\n      dup7\n        /* \"#utility.yul\":11593:11616   */\n      sub\n        /* \"#utility.yul\":11589:11621   */\n      slt\n        /* \"#utility.yul\":11586:11705   */\n      iszero\n      tag_454\n      jumpi\n        /* \"#utility.yul\":11624:11703   */\n      tag_455\n      tag_256\n      jump\t// in\n    tag_455:\n        /* \"#utility.yul\":11586:11705   */\n    tag_454:\n        /* \"#utility.yul\":11744:11745   */\n      0x00\n        /* \"#utility.yul\":11769:11822   */\n      tag_456\n        /* \"#utility.yul\":11814:11821   */\n      dup7\n        /* \"#utility.yul\":11805:11811   */\n      dup3\n        /* \"#utility.yul\":11794:11803   */\n      dup8\n        /* \"#utility.yul\":11790:11812   */\n      add\n        /* \"#utility.yul\":11769:11822   */\n      tag_260\n      jump\t// in\n    tag_456:\n        /* \"#utility.yul\":11759:11822   */\n      swap4\n      pop\n        /* \"#utility.yul\":11715:11832   */\n      pop\n        /* \"#utility.yul\":11871:11873   */\n      0x20\n        /* \"#utility.yul\":11897:11950   */\n      tag_457\n        /* \"#utility.yul\":11942:11949   */\n      dup7\n        /* \"#utility.yul\":11933:11939   */\n      dup3\n        /* \"#utility.yul\":11922:11931   */\n      dup8\n        /* \"#utility.yul\":11918:11940   */\n      add\n        /* \"#utility.yul\":11897:11950   */\n      tag_260\n      jump\t// in\n    tag_457:\n        /* \"#utility.yul\":11887:11950   */\n      swap3\n      pop\n        /* \"#utility.yul\":11842:11960   */\n      pop\n        /* \"#utility.yul\":11999:12001   */\n      0x40\n        /* \"#utility.yul\":12025:12078   */\n      tag_458\n        /* \"#utility.yul\":12070:12077   */\n      dup7\n        /* \"#utility.yul\":12061:12067   */\n      dup3\n        /* \"#utility.yul\":12050:12059   */\n      dup8\n        /* \"#utility.yul\":12046:12068   */\n      add\n        /* \"#utility.yul\":12025:12078   */\n      tag_260\n      jump\t// in\n    tag_458:\n        /* \"#utility.yul\":12015:12078   */\n      swap2\n      pop\n        /* \"#utility.yul\":11970:12088   */\n      pop\n        /* \"#utility.yul\":11476:12095   */\n      swap3\n      pop\n      swap3\n      pop\n      swap3\n      jump\t// out\n        /* \"#utility.yul\":12101:12412   */\n    tag_294:\n        /* \"#utility.yul\":12178:12182   */\n      0x00\n        /* \"#utility.yul\":12268:12286   */\n      0xffffffffffffffff\n        /* \"#utility.yul\":12260:12266   */\n      dup3\n        /* \"#utility.yul\":12257:12287   */\n      gt\n        /* \"#utility.yul\":12254:12310   */\n      iszero\n      tag_460\n      jumpi\n        /* \"#utility.yul\":12290:12308   */\n      tag_461\n      tag_283\n      jump\t// in\n    tag_461:\n        /* \"#utility.yul\":12254:12310   */\n    tag_460:\n        /* \"#utility.yul\":12340:12344   */\n      0x20\n        /* \"#utility.yul\":12332:12338   */\n      dup3\n        /* \"#utility.yul\":12328:12345   */\n      mul\n        /* \"#utility.yul\":12320:12345   */\n      swap1\n      pop\n        /* \"#utility.yul\":12400:12404   */\n      0x20\n        /* \"#utility.yul\":12394:12398   */\n      dup2\n        /* \"#utility.yul\":12390:12405   */\n      add\n        /* \"#utility.yul\":12382:12405   */\n      swap1\n      pop\n        /* \"#utility.yul\":12101:12412   */\n      swap2\n      swap1\n      pop\n      jump\t// out\n        /* \"#utility.yul\":12418:12535   */\n    tag_295:\n        /* \"#utility.yul\":12527:12528   */\n      0x00\n        /* \"#utility.yul\":12524:12525   */\n      dup1\n        /* \"#utility.yul\":12517:12529   */\n      revert\n        /* \"#utility.yul\":12558:13268   */\n    tag_296:\n        /* \"#utility.yul\":12654:12659   */\n      0x00\n        /* \"#utility.yul\":12679:12760   */\n      tag_464\n        /* \"#utility.yul\":12695:12759   */\n      tag_465\n        /* \"#utility.yul\":12752:12758   */\n      dup5\n        /* \"#utility.yul\":12695:12759   */\n      tag_294\n      jump\t// in\n    tag_465:\n        /* \"#utility.yul\":12679:12760   */\n      tag_285\n      jump\t// in\n    tag_464:\n        /* \"#utility.yul\":12670:12760   */\n      swap1\n      pop\n        /* \"#utility.yul\":12780:12785   */\n      dup1\n        /* \"#utility.yul\":12809:12815   */\n      dup4\n        /* \"#utility.yul\":12802:12807   */\n      dup3\n        /* \"#utility.yul\":12795:12816   */\n      mstore\n        /* \"#utility.yul\":12843:12847   */\n      0x20\n        /* \"#utility.yul\":12836:12841   */\n      dup3\n        /* \"#utility.yul\":12832:12848   */\n      add\n        /* \"#utility.yul\":12825:12848   */\n      swap1\n      pop\n        /* \"#utility.yul\":12896:12900   */\n      0x20\n        /* \"#utility.yul\":12888:12894   */\n      dup5\n        /* \"#utility.yul\":12884:12901   */\n      mul\n        /* \"#utility.yul\":12876:12882   */\n      dup4\n        /* \"#utility.yul\":12872:12902   */\n      add\n        /* \"#utility.yul\":12925:12928   */\n      dup6\n        /* \"#utility.yul\":12917:12923   */\n      dup2\n        /* \"#utility.yul\":12914:12929   */\n      gt\n        /* \"#utility.yul\":12911:13033   */\n      iszero\n      tag_466\n      jumpi\n        /* \"#utility.yul\":12944:13023   */\n      tag_467\n      tag_295\n      jump\t// in\n    tag_467:\n        /* \"#utility.yul\":12911:13033   */\n    tag_466:\n        /* \"#utility.yul\":13059:13065   */\n      dup4\n        /* \"#utility.yul\":13042:13262   */\n    tag_468:\n        /* \"#utility.yul\":13076:13082   */\n      dup2\n        /* \"#utility.yul\":13071:13074   */\n      dup2\n        /* \"#utility.yul\":13068:13083   */\n      lt\n        /* \"#utility.yul\":13042:13262   */\n      iszero\n      tag_470\n      jumpi\n        /* \"#utility.yul\":13151:13154   */\n      dup1\n        /* \"#utility.yul\":13180:13217   */\n      tag_471\n        /* \"#utility.yul\":13213:13216   */\n      dup9\n        /* \"#utility.yul\":13201:13211   */\n      dup3\n        /* \"#utility.yul\":13180:13217   */\n      tag_260\n      jump\t// in\n    tag_471:\n        /* \"#utility.yul\":13175:13178   */\n      dup5\n        /* \"#utility.yul\":13168:13218   */\n      mstore\n        /* \"#utility.yul\":13247:13251   */\n      0x20\n        /* \"#utility.yul\":13242:13245   */\n      dup5\n        /* \"#utility.yul\":13238:13252   */\n      add\n        /* \"#utility.yul\":13231:13252   */\n      swap4\n      pop\n        /* \"#utility.yul\":13118:13262   */\n      pop\n        /* \"#utility.yul\":13102:13106   */\n      0x20\n        /* \"#utility.yul\":13097:13100   */\n      dup2\n        /* \"#utility.yul\":13093:13107   */\n      add\n        /* \"#utility.yul\":13086:13107   */\n      swap1\n      pop\n        /* \"#utility.yul\":13042:13262   */\n      jump(tag_468)\n    tag_470:\n        /* \"#utility.yul\":13046:13067   */\n      pop\n        /* \"#utility.yul\":12660:13268   */\n      pop\n      pop\n        /* \"#utility.yul\":12558:13268   */\n      swap4\n      swap3\n      pop\n      pop\n      pop\n      jump\t// out\n        /* \"#utility.yul\":13291:13661   */\n    tag_297:\n        /* \"#utility.yul\":13362:13367   */\n      0x00\n        /* \"#utility.yul\":13411:13414   */\n      dup3\n        /* \"#utility.yul\":13404:13408   */\n      0x1f\n        /* \"#utility.yul\":13396:13402   */\n      dup4\n        /* \"#utility.yul\":13392:13409   */\n      add\n        /* \"#utility.yul\":13388:13415   */\n      slt\n        /* \"#utility.yul\":13378:13500   */\n      tag_473\n      jumpi\n        /* \"#utility.yul\":13419:13498   */\n      tag_474\n      tag_281\n      jump\t// in\n    tag_474:\n        /* \"#utility.yul\":13378:13500   */\n    tag_473:\n        /* \"#utility.yul\":13536:13542   */\n      dup2\n        /* \"#utility.yul\":13523:13543   */\n      calldataload\n        /* \"#utility.yul\":13561:13655   */\n      tag_475\n        /* \"#utility.yul\":13651:13654   */\n      dup5\n        /* \"#utility.yul\":13643:13649   */\n      dup3\n        /* \"#utility.yul\":13636:13640   */\n      0x20\n        /* \"#utility.yul\":13628:13634   */\n      dup7\n        /* \"#utility.yul\":13624:13641   */\n      add\n        /* \"#utility.yul\":13561:13655   */\n      tag_296\n      jump\t// in\n    tag_475:\n        /* \"#utility.yul\":13552:13655   */\n      swap2\n      pop\n        /* \"#utility.yul\":13368:13661   */\n      pop\n        /* \"#utility.yul\":13291:13661   */\n      swap3\n      swap2\n      pop\n      pop\n      jump\t// out\n        /* \"#utility.yul\":13667:14206   */\n    tag_97:\n        /* \"#utility.yul\":13751:13757   */\n      0x00\n        /* \"#utility.yul\":13800:13802   */\n      0x20\n        /* \"#utility.yul\":13788:13797   */\n      dup3\n        /* \"#utility.yul\":13779:13786   */\n      dup5\n        /* \"#utility.yul\":13775:13798   */\n      sub\n        /* \"#utility.yul\":13771:13803   */\n      slt\n        /* \"#utility.yul\":13768:13887   */\n      iszero\n      tag_477\n      jumpi\n        /* \"#utility.yul\":13806:13885   */\n      tag_478\n      tag_256\n      jump\t// in\n    tag_478:\n        /* \"#utility.yul\":13768:13887   */\n    tag_477:\n        /* \"#utility.yul\":13954:13955   */\n      0x00\n        /* \"#utility.yul\":13943:13952   */\n      dup3\n        /* \"#utility.yul\":13939:13956   */\n      add\n        /* \"#utility.yul\":13926:13957   */\n      calldataload\n        /* \"#utility.yul\":13984:14002   */\n      0xffffffffffffffff\n        /* \"#utility.yul\":13976:13982   */\n      dup2\n        /* \"#utility.yul\":13973:14003   */\n      gt\n        /* \"#utility.yul\":13970:14087   */\n      iszero\n      tag_479\n      jumpi\n        /* \"#utility.yul\":14006:14085   */\n      tag_480\n      tag_257\n      jump\t// in\n    tag_480:\n        /* \"#utility.yul\":13970:14087   */\n    tag_479:\n        /* \"#utility.yul\":14111:14189   */\n      tag_481\n        /* \"#utility.yul\":14181:14188   */\n      dup5\n        /* \"#utility.yul\":14172:14178   */\n      dup3\n        /* \"#utility.yul\":14161:14170   */\n      dup6\n        /* \"#utility.yul\":14157:14179   */\n      add\n        /* \"#utility.yul\":14111:14189   */\n      tag_297\n      jump\t// in\n    tag_481:\n        /* \"#utility.yul\":14101:14189   */\n      swap2\n      pop\n        /* \"#utility.yul\":13897:14199   */\n      pop\n        /* \"#utility.yul\":13667:14206   */\n      swap3\n      swap2\n      pop\n      pop\n      jump\t// out\n        /* \"#utility.yul\":14212:14387   */\n    tag_298:\n        /* \"#utility.yul\":14352:14379   */\n      0x5468697320426f6f6b20446f6573204e6f742045786973742100000000000000\n        /* \"#utility.yul\":14348:14349   */\n      0x00\n        /* \"#utility.yul\":14340:14346   */\n      dup3\n        /* \"#utility.yul\":14336:14350   */\n      add\n        /* \"#utility.yul\":14329:14380   */\n      mstore\n        /* \"#utility.yul\":14212:14387   */\n      pop\n      jump\t// out\n        /* \"#utility.yul\":14393:14759   */\n    tag_299:\n        /* \"#utility.yul\":14535:14538   */\n      0x00\n        /* \"#utility.yul\":14556:14623   */\n      tag_484\n        /* \"#utility.yul\":14620:14622   */\n      0x19\n        /* \"#utility.yul\":14615:14618   */\n      dup4\n        /* \"#utility.yul\":14556:14623   */\n      tag_272\n      jump\t// in\n    tag_484:\n        /* \"#utility.yul\":14549:14623   */\n      swap2\n      pop\n        /* \"#utility.yul\":14632:14725   */\n      tag_485\n        /* \"#utility.yul\":14721:14724   */\n      dup3\n        /* \"#utility.yul\":14632:14725   */\n      tag_298\n      jump\t// in\n    tag_485:\n        /* \"#utility.yul\":14750:14752   */\n      0x20\n        /* \"#utility.yul\":14745:14748   */\n      dup3\n        /* \"#utility.yul\":14741:14753   */\n      add\n        /* \"#utility.yul\":14734:14753   */\n      swap1\n      pop\n        /* \"#utility.yul\":14393:14759   */\n      swap2\n      swap1\n      pop\n      jump\t// out\n        /* \"#utility.yul\":14765:15184   */\n    tag_108:\n        /* \"#utility.yul\":14931:14935   */\n      0x00\n        /* \"#utility.yul\":14969:14971   */\n      0x20\n        /* \"#utility.yul\":14958:14967   */\n      dup3\n        /* \"#utility.yul\":14954:14972   */\n      add\n        /* \"#utility.yul\":14946:14972   */\n      swap1\n      pop\n        /* \"#utility.yul\":15018:15027   */\n      dup2\n        /* \"#utility.yul\":15012:15016   */\n      dup2\n        /* \"#utility.yul\":15008:15028   */\n      sub\n        /* \"#utility.yul\":15004:15005   */\n      0x00\n        /* \"#utility.yul\":14993:15002   */\n      dup4\n        /* \"#utility.yul\":14989:15006   */\n      add\n        /* \"#utility.yul\":14982:15029   */\n      mstore\n        /* \"#utility.yul\":15046:15177   */\n      tag_487\n        /* \"#utility.yul\":15172:15176   */\n      dup2\n        /* \"#utility.yul\":15046:15177   */\n      tag_299\n      jump\t// in\n    tag_487:\n        /* \"#utility.yul\":15038:15177   */\n      swap1\n      pop\n        /* \"#utility.yul\":14765:15184   */\n      swap2\n      swap1\n      pop\n      jump\t// out\n        /* \"#utility.yul\":15190:15370   */\n    tag_300:\n        /* \"#utility.yul\":15238:15315   */\n      0x4e487b7100000000000000000000000000000000000000000000000000000000\n        /* \"#utility.yul\":15235:15236   */\n      0x00\n        /* \"#utility.yul\":15228:15316   */\n      mstore\n        /* \"#utility.yul\":15335:15339   */\n      0x22\n        /* \"#utility.yul\":15332:15333   */\n      0x04\n        /* \"#utility.yul\":15325:15340   */\n      mstore\n        /* \"#utility.yul\":15359:15363   */\n      0x24\n        /* \"#utility.yul\":15356:15357   */\n      0x00\n        /* \"#utility.yul\":15349:15364   */\n      revert\n        /* \"#utility.yul\":15376:15696   */\n    tag_115:\n        /* \"#utility.yul\":15420:15426   */\n      0x00\n        /* \"#utility.yul\":15457:15458   */\n      0x02\n        /* \"#utility.yul\":15451:15455   */\n      dup3\n        /* \"#utility.yul\":15447:15459   */\n      div\n        /* \"#utility.yul\":15437:15459   */\n      swap1\n      pop\n        /* \"#utility.yul\":15504:15505   */\n      0x01\n        /* \"#utility.yul\":15498:15502   */\n      dup3\n        /* \"#utility.yul\":15494:15506   */\n      and\n        /* \"#utility.yul\":15525:15543   */\n      dup1\n        /* \"#utility.yul\":15515:15596   */\n      tag_490\n      jumpi\n        /* \"#utility.yul\":15581:15585   */\n      0x7f\n        /* \"#utility.yul\":15573:15579   */\n      dup3\n        /* \"#utility.yul\":15569:15586   */\n      and\n        /* \"#utility.yul\":15559:15586   */\n      swap2\n      pop\n        /* \"#utility.yul\":15515:15596   */\n    tag_490:\n        /* \"#utility.yul\":15643:15645   */\n      0x20\n        /* \"#utility.yul\":15635:15641   */\n      dup3\n        /* \"#utility.yul\":15632:15646   */\n      lt\n        /* \"#utility.yul\":15612:15630   */\n      dup2\n        /* \"#utility.yul\":15609:15647   */\n      sub\n        /* \"#utility.yul\":15606:15690   */\n      tag_491\n      jumpi\n        /* \"#utility.yul\":15662:15680   */\n      tag_492\n      tag_300\n      jump\t// in\n    tag_492:\n        /* \"#utility.yul\":15606:15690   */\n    tag_491:\n        /* \"#utility.yul\":15427:15696   */\n      pop\n        /* \"#utility.yul\":15376:15696   */\n      swap2\n      swap1\n      pop\n      jump\t// out\n        /* \"#utility.yul\":15702:15871   */\n    tag_301:\n        /* \"#utility.yul\":15842:15863   */\n      0x426f6f6b20646f6573206e6f7420657869737400000000000000000000000000\n        /* \"#utility.yul\":15838:15839   */\n      0x00\n        /* \"#utility.yul\":15830:15836   */\n      dup3\n        /* \"#utility.yul\":15826:15840   */\n      add\n        /* \"#utility.yul\":15819:15864   */\n      mstore\n        /* \"#utility.yul\":15702:15871   */\n      pop\n      jump\t// out\n        /* \"#utility.yul\":15877:16243   */\n    tag_302:\n        /* \"#utility.yul\":16019:16022   */\n      0x00\n        /* \"#utility.yul\":16040:16107   */\n      tag_495\n        /* \"#utility.yul\":16104:16106   */\n      0x13\n        /* \"#utility.yul\":16099:16102   */\n      dup4\n        /* \"#utility.yul\":16040:16107   */\n      tag_272\n      jump\t// in\n    tag_495:\n        /* \"#utility.yul\":16033:16107   */\n      swap2\n      pop\n        /* \"#utility.yul\":16116:16209   */\n      tag_496\n        /* \"#utility.yul\":16205:16208   */\n      dup3\n        /* \"#utility.yul\":16116:16209   */\n      tag_301\n      jump\t// in\n    tag_496:\n        /* \"#utility.yul\":16234:16236   */\n      0x20\n        /* \"#utility.yul\":16229:16232   */\n      dup3\n        /* \"#utility.yul\":16225:16237   */\n      add\n        /* \"#utility.yul\":16218:16237   */\n      swap1\n      pop\n        /* \"#utility.yul\":15877:16243   */\n      swap2\n      swap1\n      pop\n      jump\t// out\n        /* \"#utility.yul\":16249:16668   */\n    tag_147:\n        /* \"#utility.yul\":16415:16419   */\n      0x00\n        /* \"#utility.yul\":16453:16455   */\n      0x20\n        /* \"#utility.yul\":16442:16451   */\n      dup3\n        /* \"#utility.yul\":16438:16456   */\n      add\n        /* \"#utility.yul\":16430:16456   */\n      swap1\n      pop\n        /* \"#utility.yul\":16502:16511   */\n      dup2\n        /* \"#utility.yul\":16496:16500   */\n      dup2\n        /* \"#utility.yul\":16492:16512   */\n      sub\n        /* \"#utility.yul\":16488:16489   */\n      0x00\n        /* \"#utility.yul\":16477:16486   */\n      dup4\n        /* \"#utility.yul\":16473:16490   */\n      add\n        /* \"#utility.yul\":16466:16513   */\n      mstore\n        /* \"#utility.yul\":16530:16661   */\n      tag_498\n        /* \"#utility.yul\":16656:16660   */\n      dup2\n        /* \"#utility.yul\":16530:16661   */\n      tag_302\n      jump\t// in\n    tag_498:\n        /* \"#utility.yul\":16522:16661   */\n      swap1\n      pop\n        /* \"#utility.yul\":16249:16668   */\n      swap2\n      swap1\n      pop\n      jump\t// out\n        /* \"#utility.yul\":16674:16854   */\n    tag_156:\n        /* \"#utility.yul\":16722:16799   */\n      0x4e487b7100000000000000000000000000000000000000000000000000000000\n        /* \"#utility.yul\":16719:16720   */\n      0x00\n        /* \"#utility.yul\":16712:16800   */\n      mstore\n        /* \"#utility.yul\":16819:16823   */\n      0x32\n        /* \"#utility.yul\":16816:16817   */\n      0x04\n        /* \"#utility.yul\":16809:16824   */\n      mstore\n        /* \"#utility.yul\":16843:16847   */\n      0x24\n        /* \"#utility.yul\":16840:16841   */\n      0x00\n        /* \"#utility.yul\":16833:16848   */\n      revert\n        /* \"#utility.yul\":16860:17040   */\n    tag_303:\n        /* \"#utility.yul\":16908:16985   */\n      0x4e487b7100000000000000000000000000000000000000000000000000000000\n        /* \"#utility.yul\":16905:16906   */\n      0x00\n        /* \"#utility.yul\":16898:16986   */\n      mstore\n        /* \"#utility.yul\":17005:17009   */\n      0x11\n        /* \"#utility.yul\":17002:17003   */\n      0x04\n        /* \"#utility.yul\":16995:17010   */\n      mstore\n        /* \"#utility.yul\":17029:17033   */\n      0x24\n        /* \"#utility.yul\":17026:17027   */\n      0x00\n        /* \"#utility.yul\":17019:17034   */\n      revert\n        /* \"#utility.yul\":17046:17240   */\n    tag_160:\n        /* \"#utility.yul\":17086:17090   */\n      0x00\n        /* \"#utility.yul\":17106:17126   */\n      tag_502\n        /* \"#utility.yul\":17124:17125   */\n      dup3\n        /* \"#utility.yul\":17106:17126   */\n      tag_258\n      jump\t// in\n    tag_502:\n        /* \"#utility.yul\":17101:17126   */\n      swap2\n      pop\n        /* \"#utility.yul\":17140:17160   */\n      tag_503\n        /* \"#utility.yul\":17158:17159   */\n      dup4\n        /* \"#utility.yul\":17140:17160   */\n      tag_258\n      jump\t// in\n    tag_503:\n        /* \"#utility.yul\":17135:17160   */\n      swap3\n      pop\n        /* \"#utility.yul\":17184:17185   */\n      dup3\n        /* \"#utility.yul\":17181:17182   */\n      dup3\n        /* \"#utility.yul\":17177:17186   */\n      sub\n        /* \"#utility.yul\":17169:17186   */\n      swap1\n      pop\n        /* \"#utility.yul\":17208:17209   */\n      dup2\n        /* \"#utility.yul\":17202:17206   */\n      dup2\n        /* \"#utility.yul\":17199:17210   */\n      gt\n        /* \"#utility.yul\":17196:17233   */\n      iszero\n      tag_504\n      jumpi\n        /* \"#utility.yul\":17213:17231   */\n      tag_505\n      tag_303\n      jump\t// in\n    tag_505:\n        /* \"#utility.yul\":17196:17233   */\n    tag_504:\n        /* \"#utility.yul\":17046:17240   */\n      swap3\n      swap2\n      pop\n      pop\n      jump\t// out\n        /* \"#utility.yul\":17246:17426   */\n    tag_169:\n        /* \"#utility.yul\":17294:17371   */\n      0x4e487b7100000000000000000000000000000000000000000000000000000000\n        /* \"#utility.yul\":17291:17292   */\n      0x00\n        /* \"#utility.yul\":17284:17372   */\n      mstore\n        /* \"#utility.yul\":17391:17395   */\n      0x31\n        /* \"#utility.yul\":17388:17389   */\n      0x04\n        /* \"#utility.yul\":17381:17396   */\n      mstore\n        /* \"#utility.yul\":17415:17419   */\n      0x24\n        /* \"#utility.yul\":17412:17413   */\n      0x00\n        /* \"#utility.yul\":17405:17420   */\n      revert\n        /* \"#utility.yul\":17432:17652   */\n    tag_304:\n        /* \"#utility.yul\":17572:17606   */\n      0x43414e4e4f542041444420424f4f4b20495420414c5245414459204558495354\n        /* \"#utility.yul\":17568:17569   */\n      0x00\n        /* \"#utility.yul\":17560:17566   */\n      dup3\n        /* \"#utility.yul\":17556:17570   */\n      add\n        /* \"#utility.yul\":17549:17607   */\n      mstore\n        /* \"#utility.yul\":17641:17644   */\n      0x5300000000000000000000000000000000000000000000000000000000000000\n        /* \"#utility.yul\":17636:17638   */\n      0x20\n        /* \"#utility.yul\":17628:17634   */\n      dup3\n        /* \"#utility.yul\":17624:17639   */\n      add\n        /* \"#utility.yul\":17617:17645   */\n      mstore\n        /* \"#utility.yul\":17432:17652   */\n      pop\n      jump\t// out\n        /* \"#utility.yul\":17658:18024   */\n    tag_305:\n        /* \"#utility.yul\":17800:17803   */\n      0x00\n        /* \"#utility.yul\":17821:17888   */\n      tag_509\n        /* \"#utility.yul\":17885:17887   */\n      0x21\n        /* \"#utility.yul\":17880:17883   */\n      dup4\n        /* \"#utility.yul\":17821:17888   */\n      tag_272\n      jump\t// in\n    tag_509:\n        /* \"#utility.yul\":17814:17888   */\n      swap2\n      pop\n        /* \"#utility.yul\":17897:17990   */\n      tag_510\n        /* \"#utility.yul\":17986:17989   */\n      dup3\n        /* \"#utility.yul\":17897:17990   */\n      tag_304\n      jump\t// in\n    tag_510:\n        /* \"#utility.yul\":18015:18017   */\n      0x40\n        /* \"#utility.yul\":18010:18013   */\n      dup3\n        /* \"#utility.yul\":18006:18018   */\n      add\n        /* \"#utility.yul\":17999:18018   */\n      swap1\n      pop\n        /* \"#utility.yul\":17658:18024   */\n      swap2\n      swap1\n      pop\n      jump\t// out\n        /* \"#utility.yul\":18030:18449   */\n    tag_174:\n        /* \"#utility.yul\":18196:18200   */\n      0x00\n        /* \"#utility.yul\":18234:18236   */\n      0x20\n        /* \"#utility.yul\":18223:18232   */\n      dup3\n        /* \"#utility.yul\":18219:18237   */\n      add\n        /* \"#utility.yul\":18211:18237   */\n      swap1\n      pop\n        /* \"#utility.yul\":18283:18292   */\n      dup2\n        /* \"#utility.yul\":18277:18281   */\n      dup2\n        /* \"#utility.yul\":18273:18293   */\n      sub\n        /* \"#utility.yul\":18269:18270   */\n      0x00\n        /* \"#utility.yul\":18258:18267   */\n      dup4\n        /* \"#utility.yul\":18254:18271   */\n      add\n        /* \"#utility.yul\":18247:18294   */\n      mstore\n        /* \"#utility.yul\":18311:18442   */\n      tag_512\n        /* \"#utility.yul\":18437:18441   */\n      dup2\n        /* \"#utility.yul\":18311:18442   */\n      tag_305\n      jump\t// in\n    tag_512:\n        /* \"#utility.yul\":18303:18442   */\n      swap1\n      pop\n        /* \"#utility.yul\":18030:18449   */\n      swap2\n      swap1\n      pop\n      jump\t// out\n        /* \"#utility.yul\":18455:18596   */\n    tag_306:\n        /* \"#utility.yul\":18504:18508   */\n      0x00\n        /* \"#utility.yul\":18527:18530   */\n      dup2\n        /* \"#utility.yul\":18519:18530   */\n      swap1\n      pop\n        /* \"#utility.yul\":18550:18553   */\n      dup2\n        /* \"#utility.yul\":18547:18548   */\n      0x00\n        /* \"#utility.yul\":18540:18554   */\n      mstore\n        /* \"#utility.yul\":18584:18588   */\n      0x20\n        /* \"#utility.yul\":18581:18582   */\n      0x00\n        /* \"#utility.yul\":18571:18589   */\n      keccak256\n        /* \"#utility.yul\":18563:18589   */\n      swap1\n      pop\n        /* \"#utility.yul\":18455:18596   */\n      swap2\n      swap1\n      pop\n      jump\t// out\n        /* \"#utility.yul\":18602:18695   */\n    tag_307:\n        /* \"#utility.yul\":18639:18645   */\n      0x00\n        /* \"#utility.yul\":18686:18688   */\n      0x20\n        /* \"#utility.yul\":18681:18683   */\n      0x1f\n        /* \"#utility.yul\":18674:18679   */\n      dup4\n        /* \"#utility.yul\":18670:18684   */\n      add\n        /* \"#utility.yul\":18666:18689   */\n      div\n        /* \"#utility.yul\":18656:18689   */\n      swap1\n      pop\n        /* \"#utility.yul\":18602:18695   */\n      swap2\n      swap1\n      pop\n      jump\t// out\n        /* \"#utility.yul\":18701:18808   */\n    tag_308:\n        /* \"#utility.yul\":18745:18753   */\n      0x00\n        /* \"#utility.yul\":18795:18800   */\n      dup3\n        /* \"#utility.yul\":18789:18793   */\n      dup3\n        /* \"#utility.yul\":18785:18801   */\n      shl\n        /* \"#utility.yul\":18764:18801   */\n      swap1\n      pop\n        /* \"#utility.yul\":18701:18808   */\n      swap3\n      swap2\n      pop\n      pop\n      jump\t// out\n        /* \"#utility.yul\":18814:19207   */\n    tag_309:\n        /* \"#utility.yul\":18883:18889   */\n      0x00\n        /* \"#utility.yul\":18933:18934   */\n      0x08\n        /* \"#utility.yul\":18921:18931   */\n      dup4\n        /* \"#utility.yul\":18917:18935   */\n      mul\n        /* \"#utility.yul\":18956:19053   */\n      tag_517\n        /* \"#utility.yul\":18986:19052   */\n      0xffffffffffffffffffffffffffffffffffffffffffffffffffffffffffffffff\n        /* \"#utility.yul\":18975:18984   */\n      dup3\n        /* \"#utility.yul\":18956:19053   */\n      tag_308\n      jump\t// in\n    tag_517:\n        /* \"#utility.yul\":19074:19113   */\n      tag_518\n        /* \"#utility.yul\":19104:19112   */\n      dup7\n        /* \"#utility.yul\":19093:19102   */\n      dup4\n        /* \"#utility.yul\":19074:19113   */\n      tag_308\n      jump\t// in\n    tag_518:\n        /* \"#utility.yul\":19062:19113   */\n      swap6\n      pop\n        /* \"#utility.yul\":19146:19150   */\n      dup1\n        /* \"#utility.yul\":19142:19151   */\n      not\n        /* \"#utility.yul\":19135:19140   */\n      dup5\n        /* \"#utility.yul\":19131:19152   */\n      and\n        /* \"#utility.yul\":19122:19152   */\n      swap4\n      pop\n        /* \"#utility.yul\":19195:19199   */\n      dup1\n        /* \"#utility.yul\":19185:19193   */\n      dup7\n        /* \"#utility.yul\":19181:19200   */\n      and\n        /* \"#utility.yul\":19174:19179   */\n      dup5\n        /* \"#utility.yul\":19171:19201   */\n      or\n        /* \"#utility.yul\":19161:19201   */\n      swap3\n      pop\n        /* \"#utility.yul\":18890:19207   */\n      pop\n      pop\n        /* \"#utility.yul\":18814:19207   */\n      swap4\n      swap3\n      pop\n      pop\n      pop\n      jump\t// out\n        /* \"#utility.yul\":19213:19273   */\n    tag_310:\n        /* \"#utility.yul\":19241:19244   */\n      0x00\n        /* \"#utility.yul\":19262:19267   */\n      dup2\n        /* \"#utility.yul\":19255:19267   */\n      swap1\n      pop\n        /* \"#utility.yul\":19213:19273   */\n      swap2\n      swap1\n      pop\n      jump\t// out\n        /* \"#utility.yul\":19279:19421   */\n    tag_311:\n        /* \"#utility.yul\":19329:19338   */\n      0x00\n        /* \"#utility.yul\":19362:19415   */\n      tag_521\n        /* \"#utility.yul\":19380:19414   */\n      tag_522\n        /* \"#utility.yul\":19389:19413   */\n      tag_523\n        /* \"#utility.yul\":19407:19412   */\n      dup5\n        /* \"#utility.yul\":19389:19413   */\n      tag_258\n      jump\t// in\n    tag_523:\n        /* \"#utility.yul\":19380:19414   */\n      tag_310\n      jump\t// in\n    tag_522:\n        /* \"#utility.yul\":19362:19415   */\n      tag_258\n      jump\t// in\n    tag_521:\n        /* \"#utility.yul\":19349:19415   */\n      swap1\n      pop\n        /* \"#utility.yul\":19279:19421   */\n      swap2\n      swap1\n      pop\n      jump\t// out\n        /* \"#utility.yul\":19427:19502   */\n    tag_312:\n        /* \"#utility.yul\":19470:19473   */\n      0x00\n        /* \"#utility.yul\":19491:19496   */\n      dup2\n        /* \"#utility.yul\":19484:19496   */\n      swap1\n      pop\n        /* \"#utility.yul\":19427:19502   */\n      swap2\n      swap1\n      pop\n      jump\t// out\n        /* \"#utility.yul\":19508:19777   */\n    tag_313:\n        /* \"#utility.yul\":19618:19657   */\n      tag_526\n        /* \"#utility.yul\":19649:19656   */\n      dup4\n        /* \"#utility.yul\":19618:19657   */\n      tag_311\n      jump\t// in\n    tag_526:\n        /* \"#utility.yul\":19679:19770   */\n      tag_527\n        /* \"#utility.yul\":19728:19769   */\n      tag_528\n        /* \"#utility.yul\":19752:19768   */\n      dup3\n        /* \"#utility.yul\":19728:19769   */\n      tag_312\n      jump\t// in\n    tag_528:\n        /* \"#utility.yul\":19720:19726   */\n      dup5\n        /* \"#utility.yul\":19713:19717   */\n      dup5\n        /* \"#utility.yul\":19707:19718   */\n      sload\n        /* \"#utility.yul\":19679:19770   */\n      tag_309\n      jump\t// in\n    tag_527:\n        /* \"#utility.yul\":19673:19677   */\n      dup3\n        /* \"#utility.yul\":19666:19771   */\n      sstore\n        /* \"#utility.yul\":19584:19777   */\n      pop\n        /* \"#utility.yul\":19508:19777   */\n      pop\n      pop\n      pop\n      jump\t// out\n        /* \"#utility.yul\":19783:19856   */\n    tag_314:\n        /* \"#utility.yul\":19828:19831   */\n      0x00\n        /* \"#utility.yul\":19783:19856   */\n      swap1\n      jump\t// out\n        /* \"#utility.yul\":19862:20051   */\n    tag_315:\n        /* \"#utility.yul\":19939:19971   */\n      tag_531\n      tag_314\n      jump\t// in\n    tag_531:\n        /* \"#utility.yul\":19980:20045   */\n      tag_532\n        /* \"#utility.yul\":20038:20044   */\n      dup2\n        /* \"#utility.yul\":20030:20036   */\n      dup5\n        /* \"#utility.yul\":20024:20028   */\n      dup5\n        /* \"#utility.yul\":19980:20045   */\n      tag_313\n      jump\t// in\n    tag_532:\n        /* \"#utility.yul\":19915:20051   */\n      pop\n        /* \"#utility.yul\":19862:20051   */\n      pop\n      pop\n      jump\t// out\n        /* \"#utility.yul\":20057:20243   */\n    tag_316:\n        /* \"#utility.yul\":20117:20237   */\n    tag_534:\n        /* \"#utility.yul\":20134:20137   */\n      dup2\n        /* \"#utility.yul\":20127:20132   */\n      dup2\n        /* \"#utility.yul\":20124:20138   */\n      lt\n        /* \"#utility.yul\":20117:20237   */\n      iszero\n      tag_536\n      jumpi\n        /* \"#utility.yul\":20188:20227   */\n      tag_537\n        /* \"#utility.yul\":20225:20226   */\n      0x00\n        /* \"#utility.yul\":20218:20223   */\n      dup3\n        /* \"#utility.yul\":20188:20227   */\n      tag_315\n      jump\t// in\n    tag_537:\n        /* \"#utility.yul\":20161:20162   */\n      0x01\n        /* \"#utility.yul\":20154:20159   */\n      dup2\n        /* \"#utility.yul\":20150:20163   */\n      add\n        /* \"#utility.yul\":20141:20163   */\n      swap1\n      pop\n        /* \"#utility.yul\":20117:20237   */\n      jump(tag_534)\n    tag_536:\n        /* \"#utility.yul\":20057:20243   */\n      pop\n      pop\n      jump\t// out\n        /* \"#utility.yul\":20249:20792   */\n    tag_317:\n        /* \"#utility.yul\":20350:20352   */\n      0x1f\n        /* \"#utility.yul\":20345:20348   */\n      dup3\n        /* \"#utility.yul\":20342:20353   */\n      gt\n        /* \"#utility.yul\":20339:20785   */\n      iszero\n      tag_539\n      jumpi\n        /* \"#utility.yul\":20384:20422   */\n      tag_540\n        /* \"#utility.yul\":20416:20421   */\n      dup2\n        /* \"#utility.yul\":20384:20422   */\n      tag_306\n      jump\t// in\n    tag_540:\n        /* \"#utility.yul\":20468:20497   */\n      tag_541\n        /* \"#utility.yul\":20486:20496   */\n      dup5\n        /* \"#utility.yul\":20468:20497   */\n      tag_307\n      jump\t// in\n    tag_541:\n        /* \"#utility.yul\":20458:20466   */\n      dup2\n        /* \"#utility.yul\":20454:20498   */\n      add\n        /* \"#utility.yul\":20651:20653   */\n      0x20\n        /* \"#utility.yul\":20639:20649   */\n      dup6\n        /* \"#utility.yul\":20636:20654   */\n      lt\n        /* \"#utility.yul\":20633:20682   */\n      iszero\n      tag_542\n      jumpi\n        /* \"#utility.yul\":20672:20680   */\n      dup2\n        /* \"#utility.yul\":20657:20680   */\n      swap1\n      pop\n        /* \"#utility.yul\":20633:20682   */\n    tag_542:\n        /* \"#utility.yul\":20695:20775   */\n      tag_543\n        /* \"#utility.yul\":20751:20773   */\n      tag_544\n        /* \"#utility.yul\":20769:20772   */\n      dup6\n        /* \"#utility.yul\":20751:20773   */\n      tag_307\n      jump\t// in\n    tag_544:\n        /* \"#utility.yul\":20741:20749   */\n      dup4\n        /* \"#utility.yul\":20737:20774   */\n      add\n        /* \"#utility.yul\":20724:20735   */\n      dup3\n        /* \"#utility.yul\":20695:20775   */\n      tag_316\n      jump\t// in\n    tag_543:\n        /* \"#utility.yul\":20354:20785   */\n      pop\n      pop\n        /* \"#utility.yul\":20339:20785   */\n    tag_539:\n        /* \"#utility.yul\":20249:20792   */\n      pop\n      pop\n      pop\n      jump\t// out\n        /* \"#utility.yul\":20798:20915   */\n    tag_318:\n        /* \"#utility.yul\":20852:20860   */\n      0x00\n        /* \"#utility.yul\":20902:20907   */\n      dup3\n        /* \"#utility.yul\":20896:20900   */\n      dup3\n        /* \"#utility.yul\":20892:20908   */\n      shr\n        /* \"#utility.yul\":20871:20908   */\n      swap1\n      pop\n        /* \"#utility.yul\":20798:20915   */\n      swap3\n      swap2\n      pop\n      pop\n      jump\t// out\n        /* \"#utility.yul\":20921:21090   */\n    tag_319:\n        /* \"#utility.yul\":20965:20971   */\n      0x00\n        /* \"#utility.yul\":20998:21049   */\n      tag_547\n        /* \"#utility.yul\":21046:21047   */\n      0x00\n        /* \"#utility.yul\":21042:21048   */\n      not\n        /* \"#utility.yul\":21034:21039   */\n      dup5\n        /* \"#utility.yul\":21031:21032   */\n      0x08\n        /* \"#utility.yul\":21027:21040   */\n      mul\n        /* \"#utility.yul\":20998:21049   */\n      tag_318\n      jump\t// in\n    tag_547:\n        /* \"#utility.yul\":20994:21050   */\n      not\n        /* \"#utility.yul\":21079:21083   */\n      dup1\n        /* \"#utility.yul\":21073:21077   */\n      dup4\n        /* \"#utility.yul\":21069:21084   */\n      and\n        /* \"#utility.yul\":21059:21084   */\n      swap2\n      pop\n        /* \"#utility.yul\":20972:21090   */\n      pop\n        /* \"#utility.yul\":20921:21090   */\n      swap3\n      swap2\n      pop\n      pop\n      jump\t// out\n        /* \"#utility.yul\":21095:21390   */\n    tag_320:\n        /* \"#utility.yul\":21171:21175   */\n      0x00\n        /* \"#utility.yul\":21317:21346   */\n      tag_549\n        /* \"#utility.yul\":21342:21345   */\n      dup4\n        /* \"#utility.yul\":21336:21340   */\n      dup4\n        /* \"#utility.yul\":21317:21346   */\n      tag_319\n      jump\t// in\n    tag_549:\n        /* \"#utility.yul\":21309:21346   */\n      swap2\n      pop\n        /* \"#utility.yul\":21379:21382   */\n      dup3\n        /* \"#utility.yul\":21376:21377   */\n      0x02\n        /* \"#utility.yul\":21372:21383   */\n      mul\n        /* \"#utility.yul\":21366:21370   */\n      dup3\n        /* \"#utility.yul\":21363:21384   */\n      or\n        /* \"#utility.yul\":21355:21384   */\n      swap1\n      pop\n        /* \"#utility.yul\":21095:21390   */\n      swap3\n      swap2\n      pop\n      pop\n      jump\t// out\n        /* \"#utility.yul\":21395:22790   */\n    tag_176:\n        /* \"#utility.yul\":21512:21549   */\n      tag_551\n        /* \"#utility.yul\":21545:21548   */\n      dup3\n        /* \"#utility.yul\":21512:21549   */\n      tag_271\n      jump\t// in\n    tag_551:\n        /* \"#utility.yul\":21614:21632   */\n      0xffffffffffffffff\n        /* \"#utility.yul\":21606:21612   */\n      dup2\n        /* \"#utility.yul\":21603:21633   */\n      gt\n        /* \"#utility.yul\":21600:21656   */\n      iszero\n      tag_552\n      jumpi\n        /* \"#utility.yul\":21636:21654   */\n      tag_553\n      tag_283\n      jump\t// in\n    tag_553:\n        /* \"#utility.yul\":21600:21656   */\n    tag_552:\n        /* \"#utility.yul\":21680:21718   */\n      tag_554\n        /* \"#utility.yul\":21712:21716   */\n      dup3\n        /* \"#utility.yul\":21706:21717   */\n      sload\n        /* \"#utility.yul\":21680:21718   */\n      tag_115\n      jump\t// in\n    tag_554:\n        /* \"#utility.yul\":21765:21832   */\n      tag_555\n        /* \"#utility.yul\":21825:21831   */\n      dup3\n        /* \"#utility.yul\":21817:21823   */\n      dup3\n        /* \"#utility.yul\":21811:21815   */\n      dup6\n        /* \"#utility.yul\":21765:21832   */\n      tag_317\n      jump\t// in\n    tag_555:\n        /* \"#utility.yul\":21859:21860   */\n      0x00\n        /* \"#utility.yul\":21883:21887   */\n      0x20\n        /* \"#utility.yul\":21870:21887   */\n      swap1\n      pop\n        /* \"#utility.yul\":21915:21917   */\n      0x1f\n        /* \"#utility.yul\":21907:21913   */\n      dup4\n        /* \"#utility.yul\":21904:21918   */\n      gt\n        /* \"#utility.yul\":21932:21933   */\n      0x01\n        /* \"#utility.yul\":21927:22545   */\n      dup2\n      eq\n      tag_557\n      jumpi\n        /* \"#utility.yul\":22589:22590   */\n      0x00\n        /* \"#utility.yul\":22606:22612   */\n      dup5\n        /* \"#utility.yul\":22603:22680   */\n      iszero\n      tag_558\n      jumpi\n        /* \"#utility.yul\":22655:22664   */\n      dup3\n        /* \"#utility.yul\":22650:22653   */\n      dup8\n        /* \"#utility.yul\":22646:22665   */\n      add\n        /* \"#utility.yul\":22640:22666   */\n      mload\n        /* \"#utility.yul\":22631:22666   */\n      swap1\n      pop\n        /* \"#utility.yul\":22603:22680   */\n    tag_558:\n        /* \"#utility.yul\":22706:22773   */\n      tag_559\n        /* \"#utility.yul\":22766:22772   */\n      dup6\n        /* \"#utility.yul\":22759:22764   */\n      dup3\n        /* \"#utility.yul\":22706:22773   */\n      tag_320\n      jump\t// in\n    tag_559:\n        /* \"#utility.yul\":22700:22704   */\n      dup7\n        /* \"#utility.yul\":22693:22774   */\n      sstore\n        /* \"#utility.yul\":22562:22784   */\n      pop\n        /* \"#utility.yul\":21897:22784   */\n      jump(tag_556)\n        /* \"#utility.yul\":21927:22545   */\n    tag_557:\n        /* \"#utility.yul\":21979:21983   */\n      0x1f\n        /* \"#utility.yul\":21975:21984   */\n      not\n        /* \"#utility.yul\":21967:21973   */\n      dup5\n        /* \"#utility.yul\":21963:21985   */\n      and\n        /* \"#utility.yul\":22013:22050   */\n      tag_560\n        /* \"#utility.yul\":22045:22049   */\n      dup7\n        /* \"#utility.yul\":22013:22050   */\n      tag_306\n      jump\t// in\n    tag_560:\n        /* \"#utility.yul\":22072:22073   */\n      0x00\n        /* \"#utility.yul\":22086:22294   */\n    tag_561:\n        /* \"#utility.yul\":22100:22107   */\n      dup3\n        /* \"#utility.yul\":22097:22098   */\n      dup2\n        /* \"#utility.yul\":22094:22108   */\n      lt\n        /* \"#utility.yul\":22086:22294   */\n      iszero\n      tag_563\n      jumpi\n        /* \"#utility.yul\":22179:22188   */\n      dup5\n        /* \"#utility.yul\":22174:22177   */\n      dup10\n        /* \"#utility.yul\":22170:22189   */\n      add\n        /* \"#utility.yul\":22164:22190   */\n      mload\n        /* \"#utility.yul\":22156:22162   */\n      dup3\n        /* \"#utility.yul\":22149:22191   */\n      sstore\n        /* \"#utility.yul\":22230:22231   */\n      0x01\n        /* \"#utility.yul\":22222:22228   */\n      dup3\n        /* \"#utility.yul\":22218:22232   */\n      add\n        /* \"#utility.yul\":22208:22232   */\n      swap2\n      pop\n        /* \"#utility.yul\":22277:22279   */\n      0x20\n        /* \"#utility.yul\":22266:22275   */\n      dup6\n        /* \"#utility.yul\":22262:22280   */\n      add\n        /* \"#utility.yul\":22249:22280   */\n      swap5\n      pop\n        /* \"#utility.yul\":22123:22127   */\n      0x20\n        /* \"#utility.yul\":22120:22121   */\n      dup2\n        /* \"#utility.yul\":22116:22128   */\n      add\n        /* \"#utility.yul\":22111:22128   */\n      swap1\n      pop\n        /* \"#utility.yul\":22086:22294   */\n      jump(tag_561)\n    tag_563:\n        /* \"#utility.yul\":22322:22328   */\n      dup7\n        /* \"#utility.yul\":22313:22320   */\n      dup4\n        /* \"#utility.yul\":22310:22329   */\n      lt\n        /* \"#utility.yul\":22307:22486   */\n      iszero\n      tag_564\n      jumpi\n        /* \"#utility.yul\":22380:22389   */\n      dup5\n        /* \"#utility.yul\":22375:22378   */\n      dup10\n        /* \"#utility.yul\":22371:22390   */\n      add\n        /* \"#utility.yul\":22365:22391   */\n      mload\n        /* \"#utility.yul\":22423:22471   */\n      tag_565\n        /* \"#utility.yul\":22465:22469   */\n      0x1f\n        /* \"#utility.yul\":22457:22463   */\n      dup10\n        /* \"#utility.yul\":22453:22470   */\n      and\n        /* \"#utility.yul\":22442:22451   */\n      dup3\n        /* \"#utility.yul\":22423:22471   */\n      tag_319\n      jump\t// in\n    tag_565:\n        /* \"#utility.yul\":22415:22421   */\n      dup4\n        /* \"#utility.yul\":22408:22472   */\n      sstore\n        /* \"#utility.yul\":22330:22486   */\n      pop\n        /* \"#utility.yul\":22307:22486   */\n    tag_564:\n        /* \"#utility.yul\":22532:22533   */\n      0x01\n        /* \"#utility.yul\":22528:22529   */\n      0x02\n        /* \"#utility.yul\":22520:22526   */\n      dup9\n        /* \"#utility.yul\":22516:22530   */\n      mul\n        /* \"#utility.yul\":22512:22534   */\n      add\n        /* \"#utility.yul\":22506:22510   */\n      dup9\n        /* \"#utility.yul\":22499:22535   */\n      sstore\n        /* \"#utility.yul\":21934:22545   */\n      pop\n      pop\n      pop\n        /* \"#utility.yul\":21897:22784   */\n    tag_556:\n      pop\n        /* \"#utility.yul\":21487:22790   */\n      pop\n      pop\n      pop\n        /* \"#utility.yul\":21395:22790   */\n      pop\n      pop\n      jump\t// out\n        /* \"#utility.yul\":22796:22936   */\n    tag_321:\n        /* \"#utility.yul\":22845:22854   */\n      0x00\n        /* \"#utility.yul\":22878:22930   */\n      tag_567\n        /* \"#utility.yul\":22896:22929   */\n      tag_568\n        /* \"#utility.yul\":22905:22928   */\n      tag_569\n        /* \"#utility.yul\":22922:22927   */\n      dup5\n        /* \"#utility.yul\":22905:22928   */\n      tag_276\n      jump\t// in\n    tag_569:\n        /* \"#utility.yul\":22896:22929   */\n      tag_310\n      jump\t// in\n    tag_568:\n        /* \"#utility.yul\":22878:22930   */\n      tag_258\n      jump\t// in\n    tag_567:\n        /* \"#utility.yul\":22865:22930   */\n      swap1\n      pop\n        /* \"#utility.yul\":22796:22936   */\n      swap2\n      swap1\n      pop\n      jump\t// out\n        /* \"#utility.yul\":22942:23071   */\n    tag_322:\n        /* \"#utility.yul\":23028:23064   */\n      tag_571\n        /* \"#utility.yul\":23058:23063   */\n      dup2\n        /* \"#utility.yul\":23028:23064   */\n      tag_321\n      jump\t// in\n    tag_571:\n        /* \"#utility.yul\":23023:23026   */\n      dup3\n        /* \"#utility.yul\":23016:23065   */\n      mstore\n        /* \"#utility.yul\":22942:23071   */\n      pop\n      pop\n      jump\t// out\n        /* \"#utility.yul\":23077:23810   */\n    tag_180:\n        /* \"#utility.yul\":23293:23297   */\n      0x00\n        /* \"#utility.yul\":23331:23334   */\n      0x80\n        /* \"#utility.yul\":23320:23329   */\n      dup3\n        /* \"#utility.yul\":23316:23335   */\n      add\n        /* \"#utility.yul\":23308:23335   */\n      swap1\n      pop\n        /* \"#utility.yul\":23381:23390   */\n      dup2\n        /* \"#utility.yul\":23375:23379   */\n      dup2\n        /* \"#utility.yul\":23371:23391   */\n      sub\n        /* \"#utility.yul\":23367:23368   */\n      0x00\n        /* \"#utility.yul\":23356:23365   */\n      dup4\n        /* \"#utility.yul\":23352:23369   */\n      add\n        /* \"#utility.yul\":23345:23392   */\n      mstore\n        /* \"#utility.yul\":23409:23487   */\n      tag_573\n        /* \"#utility.yul\":23482:23486   */\n      dup2\n        /* \"#utility.yul\":23473:23479   */\n      dup8\n        /* \"#utility.yul\":23409:23487   */\n      tag_275\n      jump\t// in\n    tag_573:\n        /* \"#utility.yul\":23401:23487   */\n      swap1\n      pop\n        /* \"#utility.yul\":23534:23543   */\n      dup2\n        /* \"#utility.yul\":23528:23532   */\n      dup2\n        /* \"#utility.yul\":23524:23544   */\n      sub\n        /* \"#utility.yul\":23519:23521   */\n      0x20\n        /* \"#utility.yul\":23508:23517   */\n      dup4\n        /* \"#utility.yul\":23504:23522   */\n      add\n        /* \"#utility.yul\":23497:23545   */\n      mstore\n        /* \"#utility.yul\":23562:23640   */\n      tag_574\n        /* \"#utility.yul\":23635:23639   */\n      dup2\n        /* \"#utility.yul\":23626:23632   */\n      dup7\n        /* \"#utility.yul\":23562:23640   */\n      tag_275\n      jump\t// in\n    tag_574:\n        /* \"#utility.yul\":23554:23640   */\n      swap1\n      pop\n        /* \"#utility.yul\":23650:23722   */\n      tag_575\n        /* \"#utility.yul\":23718:23720   */\n      0x40\n        /* \"#utility.yul\":23707:23716   */\n      dup4\n        /* \"#utility.yul\":23703:23721   */\n      add\n        /* \"#utility.yul\":23694:23700   */\n      dup6\n        /* \"#utility.yul\":23650:23722   */\n      tag_270\n      jump\t// in\n    tag_575:\n        /* \"#utility.yul\":23732:23803   */\n      tag_576\n        /* \"#utility.yul\":23799:23801   */\n      0x60\n        /* \"#utility.yul\":23788:23797   */\n      dup4\n        /* \"#utility.yul\":23784:23802   */\n      add\n        /* \"#utility.yul\":23775:23781   */\n      dup5\n        /* \"#utility.yul\":23732:23803   */\n      tag_322\n      jump\t// in\n    tag_576:\n        /* \"#utility.yul\":23077:23810   */\n      swap6\n      swap5\n      pop\n      pop\n      pop\n      pop\n      pop\n      jump\t// out\n        /* \"#utility.yul\":23816:23992   */\n    tag_323:\n        /* \"#utility.yul\":23956:23984   */\n      0x5468697320626f6f6b206973206e6f7420617661696c61626c65000000000000\n        /* \"#utility.yul\":23952:23953   */\n      0x00\n        /* \"#utility.yul\":23944:23950   */\n      dup3\n        /* \"#utility.yul\":23940:23954   */\n      add\n        /* \"#utility.yul\":23933:23985   */\n      mstore\n        /* \"#utility.yul\":23816:23992   */\n      pop\n      jump\t// out\n        /* \"#utility.yul\":23998:24364   */\n    tag_324:\n        /* \"#utility.yul\":24140:24143   */\n      0x00\n        /* \"#utility.yul\":24161:24228   */\n      tag_579\n        /* \"#utility.yul\":24225:24227   */\n      0x1a\n        /* \"#utility.yul\":24220:24223   */\n      dup4\n        /* \"#utility.yul\":24161:24228   */\n      tag_272\n      jump\t// in\n    tag_579:\n        /* \"#utility.yul\":24154:24228   */\n      swap2\n      pop\n        /* \"#utility.yul\":24237:24330   */\n      tag_580\n        /* \"#utility.yul\":24326:24329   */\n      dup3\n        /* \"#utility.yul\":24237:24330   */\n      tag_323\n      jump\t// in\n    tag_580:\n        /* \"#utility.yul\":24355:24357   */\n      0x20\n        /* \"#utility.yul\":24350:24353   */\n      dup3\n        /* \"#utility.yul\":24346:24358   */\n      add\n        /* \"#utility.yul\":24339:24358   */\n      swap1\n      pop\n        /* \"#utility.yul\":23998:24364   */\n      swap2\n      swap1\n      pop\n      jump\t// out\n        /* \"#utility.yul\":24370:24789   */\n    tag_190:\n        /* \"#utility.yul\":24536:24540   */\n      0x00\n        /* \"#utility.yul\":24574:24576   */\n      0x20\n        /* \"#utility.yul\":24563:24572   */\n      dup3\n        /* \"#utility.yul\":24559:24577   */\n      add\n        /* \"#utility.yul\":24551:24577   */\n      swap1\n      pop\n        /* \"#utility.yul\":24623:24632   */\n      dup2\n        /* \"#utility.yul\":24617:24621   */\n      dup2\n        /* \"#utility.yul\":24613:24633   */\n      sub\n        /* \"#utility.yul\":24609:24610   */\n      0x00\n        /* \"#utility.yul\":24598:24607   */\n      dup4\n        /* \"#utility.yul\":24594:24611   */\n      add\n        /* \"#utility.yul\":24587:24634   */\n      mstore\n        /* \"#utility.yul\":24651:24782   */\n      tag_582\n        /* \"#utility.yul\":24777:24781   */\n      dup2\n        /* \"#utility.yul\":24651:24782   */\n      tag_324\n      jump\t// in\n    tag_582:\n        /* \"#utility.yul\":24643:24782   */\n      swap1\n      pop\n        /* \"#utility.yul\":24370:24789   */\n      swap2\n      swap1\n      pop\n      jump\t// out\n        /* \"#utility.yul\":24795:24971   */\n    tag_325:\n        /* \"#utility.yul\":24935:24963   */\n      0x4e6f7420656e6f7567682073746f636b20617661696c61626c65000000000000\n        /* \"#utility.yul\":24931:24932   */\n      0x00\n        /* \"#utility.yul\":24923:24929   */\n      dup3\n        /* \"#utility.yul\":24919:24933   */\n      add\n        /* \"#utility.yul\":24912:24964   */\n      mstore\n        /* \"#utility.yul\":24795:24971   */\n      pop\n      jump\t// out\n        /* \"#utility.yul\":24977:25343   */\n    tag_326:\n        /* \"#utility.yul\":25119:25122   */\n      0x00\n        /* \"#utility.yul\":25140:25207   */\n      tag_585\n        /* \"#utility.yul\":25204:25206   */\n      0x1a\n        /* \"#utility.yul\":25199:25202   */\n      dup4\n        /* \"#utility.yul\":25140:25207   */\n      tag_272\n      jump\t// in\n    tag_585:\n        /* \"#utility.yul\":25133:25207   */\n      swap2\n      pop\n        /* \"#utility.yul\":25216:25309   */\n      tag_586\n        /* \"#utility.yul\":25305:25308   */\n      dup3\n        /* \"#utility.yul\":25216:25309   */\n      tag_325\n      jump\t// in\n    tag_586:\n        /* \"#utility.yul\":25334:25336   */\n      0x20\n        /* \"#utility.yul\":25329:25332   */\n      dup3\n        /* \"#utility.yul\":25325:25337   */\n      add\n        /* \"#utility.yul\":25318:25337   */\n      swap1\n      pop\n        /* \"#utility.yul\":24977:25343   */\n      swap2\n      swap1\n      pop\n      jump\t// out\n        /* \"#utility.yul\":25349:25768   */\n    tag_193:\n        /* \"#utility.yul\":25515:25519   */\n      0x00\n        /* \"#utility.yul\":25553:25555   */\n      0x20\n        /* \"#utility.yul\":25542:25551   */\n      dup3\n        /* \"#utility.yul\":25538:25556   */\n      add\n        /* \"#utility.yul\":25530:25556   */\n      swap1\n      pop\n        /* \"#utility.yul\":25602:25611   */\n      dup2\n        /* \"#utility.yul\":25596:25600   */\n      dup2\n        /* \"#utility.yul\":25592:25612   */\n      sub\n        /* \"#utility.yul\":25588:25589   */\n      0x00\n        /* \"#utility.yul\":25577:25586   */\n      dup4\n        /* \"#utility.yul\":25573:25590   */\n      add\n        /* \"#utility.yul\":25566:25613   */\n      mstore\n        /* \"#utility.yul\":25630:25761   */\n      tag_588\n        /* \"#utility.yul\":25756:25760   */\n      dup2\n        /* \"#utility.yul\":25630:25761   */\n      tag_326\n      jump\t// in\n    tag_588:\n        /* \"#utility.yul\":25622:25761   */\n      swap1\n      pop\n        /* \"#utility.yul\":25349:25768   */\n      swap2\n      swap1\n      pop\n      jump\t// out\n        /* \"#utility.yul\":25774:26184   */\n    tag_195:\n        /* \"#utility.yul\":25814:25821   */\n      0x00\n        /* \"#utility.yul\":25837:25857   */\n      tag_590\n        /* \"#utility.yul\":25855:25856   */\n      dup3\n        /* \"#utility.yul\":25837:25857   */\n      tag_258\n      jump\t// in\n    tag_590:\n        /* \"#utility.yul\":25832:25857   */\n      swap2\n      pop\n        /* \"#utility.yul\":25871:25891   */\n      tag_591\n        /* \"#utility.yul\":25889:25890   */\n      dup4\n        /* \"#utility.yul\":25871:25891   */\n      tag_258\n      jump\t// in\n    tag_591:\n        /* \"#utility.yul\":25866:25891   */\n      swap3\n      pop\n        /* \"#utility.yul\":25926:25927   */\n      dup3\n        /* \"#utility.yul\":25923:25924   */\n      dup3\n        /* \"#utility.yul\":25919:25928   */\n      mul\n        /* \"#utility.yul\":25948:25978   */\n      tag_592\n        /* \"#utility.yul\":25966:25977   */\n      dup2\n        /* \"#utility.yul\":25948:25978   */\n      tag_258\n      jump\t// in\n    tag_592:\n        /* \"#utility.yul\":25937:25978   */\n      swap2\n      pop\n        /* \"#utility.yul\":26127:26128   */\n      dup3\n        /* \"#utility.yul\":26118:26125   */\n      dup3\n        /* \"#utility.yul\":26114:26129   */\n      div\n        /* \"#utility.yul\":26111:26112   */\n      dup5\n        /* \"#utility.yul\":26108:26130   */\n      eq\n        /* \"#utility.yul\":26088:26089   */\n      dup4\n        /* \"#utility.yul\":26081:26090   */\n      iszero\n        /* \"#utility.yul\":26061:26144   */\n      or\n        /* \"#utility.yul\":26038:26177   */\n      tag_593\n      jumpi\n        /* \"#utility.yul\":26157:26175   */\n      tag_594\n      tag_303\n      jump\t// in\n    tag_594:\n        /* \"#utility.yul\":26038:26177   */\n    tag_593:\n        /* \"#utility.yul\":25822:26184   */\n      pop\n        /* \"#utility.yul\":25774:26184   */\n      swap3\n      swap2\n      pop\n      pop\n      jump\t// out\n        /* \"#utility.yul\":26190:26364   */\n    tag_327:\n        /* \"#utility.yul\":26330:26356   */\n      0x496e636f7272656374207061796d656e7420616d6f756e740000000000000000\n        /* \"#utility.yul\":26326:26327   */\n      0x00\n        /* \"#utility.yul\":26318:26324   */\n      dup3\n        /* \"#utility.yul\":26314:26328   */\n      add\n        /* \"#utility.yul\":26307:26357   */\n      mstore\n        /* \"#utility.yul\":26190:26364   */\n      pop\n      jump\t// out\n        /* \"#utility.yul\":26370:26736   */\n    tag_328:\n        /* \"#utility.yul\":26512:26515   */\n      0x00\n        /* \"#utility.yul\":26533:26600   */\n      tag_597\n        /* \"#utility.yul\":26597:26599   */\n      0x18\n        /* \"#utility.yul\":26592:26595   */\n      dup4\n        /* \"#utility.yul\":26533:26600   */\n      tag_272\n      jump\t// in\n    tag_597:\n        /* \"#utility.yul\":26526:26600   */\n      swap2\n      pop\n        /* \"#utility.yul\":26609:26702   */\n      tag_598\n        /* \"#utility.yul\":26698:26701   */\n      dup3\n        /* \"#utility.yul\":26609:26702   */\n      tag_327\n      jump\t// in\n    tag_598:\n        /* \"#utility.yul\":26727:26729   */\n      0x20\n        /* \"#utility.yul\":26722:26725   */\n      dup3\n        /* \"#utility.yul\":26718:26730   */\n      add\n        /* \"#utility.yul\":26711:26730   */\n      swap1\n      pop\n        /* \"#utility.yul\":26370:26736   */\n      swap2\n      swap1\n      pop\n      jump\t// out\n        /* \"#utility.yul\":26742:27161   */\n    tag_198:\n        /* \"#utility.yul\":26908:26912   */\n      0x00\n        /* \"#utility.yul\":26946:26948   */\n      0x20\n        /* \"#utility.yul\":26935:26944   */\n      dup3\n        /* \"#utility.yul\":26931:26949   */\n      add\n        /* \"#utility.yul\":26923:26949   */\n      swap1\n      pop\n        /* \"#utility.yul\":26995:27004   */\n      dup2\n        /* \"#utility.yul\":26989:26993   */\n      dup2\n        /* \"#utility.yul\":26985:27005   */\n      sub\n        /* \"#utility.yul\":26981:26982   */\n      0x00\n        /* \"#utility.yul\":26970:26979   */\n      dup4\n        /* \"#utility.yul\":26966:26983   */\n      add\n        /* \"#utility.yul\":26959:27006   */\n      mstore\n        /* \"#utility.yul\":27023:27154   */\n      tag_600\n        /* \"#utility.yul\":27149:27153   */\n      dup2\n        /* \"#utility.yul\":27023:27154   */\n      tag_328\n      jump\t// in\n    tag_600:\n        /* \"#utility.yul\":27015:27154   */\n      swap1\n      pop\n        /* \"#utility.yul\":26742:27161   */\n      swap2\n      swap1\n      pop\n      jump\t// out\n        /* \"#utility.yul\":27167:27358   */\n    tag_202:\n        /* \"#utility.yul\":27207:27210   */\n      0x00\n        /* \"#utility.yul\":27226:27246   */\n      tag_602\n        /* \"#utility.yul\":27244:27245   */\n      dup3\n        /* \"#utility.yul\":27226:27246   */\n      tag_258\n      jump\t// in\n    tag_602:\n        /* \"#utility.yul\":27221:27246   */\n      swap2\n      pop\n        /* \"#utility.yul\":27260:27280   */\n      tag_603\n        /* \"#utility.yul\":27278:27279   */\n      dup4\n        /* \"#utility.yul\":27260:27280   */\n      tag_258\n      jump\t// in\n    tag_603:\n        /* \"#utility.yul\":27255:27280   */\n      swap3\n      pop\n        /* \"#utility.yul\":27303:27304   */\n      dup3\n        /* \"#utility.yul\":27300:27301   */\n      dup3\n        /* \"#utility.yul\":27296:27305   */\n      add\n        /* \"#utility.yul\":27289:27305   */\n      swap1\n      pop\n        /* \"#utility.yul\":27324:27327   */\n      dup1\n        /* \"#utility.yul\":27321:27322   */\n      dup3\n        /* \"#utility.yul\":27318:27328   */\n      gt\n        /* \"#utility.yul\":27315:27351   */\n      iszero\n      tag_604\n      jumpi\n        /* \"#utility.yul\":27331:27349   */\n      tag_605\n      tag_303\n      jump\t// in\n    tag_605:\n        /* \"#utility.yul\":27315:27351   */\n    tag_604:\n        /* \"#utility.yul\":27167:27358   */\n      swap3\n      swap2\n      pop\n      pop\n      jump\t// out\n        /* \"#utility.yul\":27364:27696   */\n    tag_207:\n        /* \"#utility.yul\":27485:27489   */\n      0x00\n        /* \"#utility.yul\":27523:27525   */\n      0x40\n        /* \"#utility.yul\":27512:27521   */\n      dup3\n        /* \"#utility.yul\":27508:27526   */\n      add\n        /* \"#utility.yul\":27500:27526   */\n      swap1\n      pop\n        /* \"#utility.yul\":27536:27607   */\n      tag_607\n        /* \"#utility.yul\":27604:27605   */\n      0x00\n        /* \"#utility.yul\":27593:27602   */\n      dup4\n        /* \"#utility.yul\":27589:27606   */\n      add\n        /* \"#utility.yul\":27580:27586   */\n      dup6\n        /* \"#utility.yul\":27536:27607   */\n      tag_270\n      jump\t// in\n    tag_607:\n        /* \"#utility.yul\":27617:27689   */\n      tag_608\n        /* \"#utility.yul\":27685:27687   */\n      0x20\n        /* \"#utility.yul\":27674:27683   */\n      dup4\n        /* \"#utility.yul\":27670:27688   */\n      add\n        /* \"#utility.yul\":27661:27667   */\n      dup5\n        /* \"#utility.yul\":27617:27689   */\n      tag_270\n      jump\t// in\n    tag_608:\n        /* \"#utility.yul\":27364:27696   */\n      swap4\n      swap3\n      pop\n      pop\n      pop\n      jump\t// out\n\n    auxdata: 0xa26469706673582212203e231573c7294af9e12521d2e16605cdf5d694d2e38fc4b541bba54f503c1f3d64736f6c634300081a0033\n}\n",
				"bytecode": {
					"linkReferences": {},
					"object": "608060405234801561000f575f80fd5b506040516122ca3803806122ca833981810160405281019061003191906101d7565b335f73ffffffffffffffffffffffffffffffffffffffff168173ffffffffffffffffffffffffffffffffffffffff16036100a2575f6040517f1e4fbdf70000000000000000000000000000000000000000000000000000000081526004016100999190610211565b60405180910390fd5b6100b1816100b860201b60201c565b505061022a565b5f805f9054906101000a900473ffffffffffffffffffffffffffffffffffffffff169050815f806101000a81548173ffffffffffffffffffffffffffffffffffffffff021916908373ffffffffffffffffffffffffffffffffffffffff1602179055508173ffffffffffffffffffffffffffffffffffffffff168173ffffffffffffffffffffffffffffffffffffffff167f8be0079c531659141344cd1fd0a4f28419497f9722a3daafe3b4186f6b6457e060405160405180910390a35050565b5f80fd5b5f73ffffffffffffffffffffffffffffffffffffffff82169050919050565b5f6101a68261017d565b9050919050565b6101b68161019c565b81146101c0575f80fd5b50565b5f815190506101d1816101ad565b92915050565b5f602082840312156101ec576101eb610179565b5b5f6101f9848285016101c3565b91505092915050565b61020b8161019c565b82525050565b5f6020820190506102245f830184610202565b92915050565b612093806102375f395ff3fe6080604052600436106100f2575f3560e01c80638da5cb5b11610089578063f2fde38b11610058578063f2fde38b14610324578063f346e2b71461034c578063f60560de14610368578063f98520de146103a4576100f2565b80638da5cb5b146102805780639bd30883146102aa578063bec0d799146102d4578063d0289085146102fc576100f2565b8063590791f2116100c5578063590791f2146101c05780635ac3e19e146101ea578063687440461461022a578063715018a61461026a576100f2565b80631f9b7ad8146100f6578063354528e8146101325780633bf561ed1461015c578063513073b814610184575b5f80fd5b348015610101575f80fd5b5061011c60048036038101906101179190611274565b6103cc565b60405161012991906112b9565b60405180910390f35b34801561013d575f80fd5b506101466103e9565b6040516101539190611389565b60405180910390f35b348015610167575f80fd5b50610182600480360381019061017d9190611274565b61043f565b005b34801561018f575f80fd5b506101aa60048036038101906101a59190611274565b610507565b6040516101b791906113b8565b60405180910390f35b3480156101cb575f80fd5b506101d4610527565b6040516101e191906113b8565b60405180910390f35b3480156101f5575f80fd5b50610210600480360381019061020b9190611274565b61054c565b604051610221959493929190611441565b60405180910390f35b348015610235575f80fd5b50610250600480360381019061024b9190611274565b610706565b6040516102619594939291906114bc565b60405180910390f35b348015610275575f80fd5b5061027e61085d565b005b34801561028b575f80fd5b50610294610870565b6040516102a1919061155a565b60405180910390f35b3480156102b5575f80fd5b506102be610897565b6040516102cb91906113b8565b60405180910390f35b3480156102df575f80fd5b506102fa60048036038101906102f59190611274565b6108a0565b005b348015610307575f80fd5b50610322600480360381019061031d91906116c9565b610a56565b005b34801561032f575f80fd5b5061034a600480360381019061034591906117a2565b610be0565b005b610366600480360381019061036191906117cd565b610c64565b005b348015610373575f80fd5b5061038e60048036038101906103899190611274565b610e6b565b60405161039b91906112b9565b60405180910390f35b3480156103af575f80fd5b506103ca60048036038101906103c591906118e1565b610e91565b005b6004602052805f5260405f205f915054906101000a900460ff1681565b6060600380548060200260200160405190810160405280929190818152602001828054801561043557602002820191905f5260205f20905b815481526020019060010190808311610421575b5050505050905090565b610447611089565b5f60025f8381526020019081526020015f206002015f9054906101000a900461ffff1661ffff16036104ae576040517f08c379a00000000000000000000000000000000000000000000000000000000081526004016104a590611972565b60405180910390fd5b600160045f8381526020019081526020015f205f6101000a81548160ff021916908315150217905550807f086751756703c53d5d7e44bd54604b7d71c6cce159f4525b5f5b6ef93e6afa4d60405160405180910390a250565b60038181548110610516575f80fd5b905f5260205f20015f915090505481565b5f610530610870565b73ffffffffffffffffffffffffffffffffffffffff1631905090565b6060805f805f8060025f8881526020019081526020015f206040518060a00160405290815f8201805461057e906119bd565b80601f01602080910402602001604051908101604052809291908181526020018280546105aa906119bd565b80156105f55780601f106105cc576101008083540402835291602001916105f5565b820191905f5260205f20905b8154815290600101906020018083116105d857829003601f168201915b5050505050815260200160018201805461060e906119bd565b80601f016020809104026020016040519081016040528092919081815260200182805461063a906119bd565b80156106855780601f1061065c57610100808354040283529160200191610685565b820191905f5260205f20905b81548152906001019060200180831161066857829003601f168201915b50505050508152602001600282015f9054906101000a900461ffff1661ffff1661ffff16815260200160038201548152602001600482015f9054906101000a900460ff1615151515815250509050805f015181602001518260400151836060015184608001518261ffff169250955095509550955095505091939590929450565b6002602052805f5260405f205f91509050805f018054610725906119bd565b80601f0160208091040260200160405190810160405280929190818152602001828054610751906119bd565b801561079c5780601f106107735761010080835404028352916020019161079c565b820191905f5260205f20905b81548152906001019060200180831161077f57829003601f168201915b5050505050908060010180546107b1906119bd565b80601f01602080910402602001604051908101604052809291908181526020018280546107dd906119bd565b80156108285780601f106107ff57610100808354040283529160200191610828565b820191905f5260205f20905b81548152906001019060200180831161080b57829003601f168201915b505050505090806002015f9054906101000a900461ffff1690806003015490806004015f9054906101000a900460ff16905085565b610865611089565b61086e5f611110565b565b5f805f9054906101000a900473ffffffffffffffffffffffffffffffffffffffff16905090565b5f600154905090565b6108a8611089565b5f60025f8381526020019081526020015f206002015f9054906101000a900461ffff1661ffff160361090f576040517f08c379a000000000000000000000000000000000000000000000000000000000815260040161090690611a37565b60405180910390fd5b60025f8281526020019081526020015f205f8082015f61092f91906111d8565b600182015f61093e91906111d8565b600282015f6101000a81549061ffff0219169055600382015f9055600482015f6101000a81549060ff021916905550505f5b600380549050811015610a2557816003828154811061099257610991611a55565b5b905f5260205f20015403610a1857600360016003805490506109b49190611aaf565b815481106109c5576109c4611a55565b5b905f5260205f200154600382815481106109e2576109e1611a55565b5b905f5260205f2001819055506003805480610a00576109ff611ae2565b5b600190038181905f5260205f20015f90559055610a25565b8080600101915050610970565b50807f3c5ce13264433bcf97e5d53c97af4fc33800e8c9dd927f965b116d0018d7cddf60405160405180910390a250565b5f60025f8781526020019081526020015f206002015f9054906101000a900461ffff1661ffff1614610abd576040517f08c379a0000000000000000000000000000000000000000000000000000000008152600401610ab490611b7f565b60405180910390fd5b6040518060a001604052808581526020018481526020018261ffff1681526020018381526020015f8411151581525060025f8781526020019081526020015f205f820151815f019081610b109190611d3a565b506020820151816001019081610b269190611d3a565b506040820151816002015f6101000a81548161ffff021916908361ffff160217905550606082015181600301556080820151816004015f6101000a81548160ff021916908315150217905550905050600385908060018154018082558091505060019003905f5260205f20015f9091909190915055847f722c04650224f771c04ec5712c74689980b3ddb4eaa233cd8f9c72d7da7fbe2985858585604051610bd19493929190611e39565b60405180910390a25050505050565b610be8611089565b5f73ffffffffffffffffffffffffffffffffffffffff168173ffffffffffffffffffffffffffffffffffffffff1603610c58575f6040517f1e4fbdf7000000000000000000000000000000000000000000000000000000008152600401610c4f919061155a565b60405180910390fd5b610c6181611110565b50565b5f60025f8581526020019081526020015f209050806004015f9054906101000a900460ff16610cc8576040517f08c379a0000000000000000000000000000000000000000000000000000000008152600401610cbf90611ed4565b60405180910390fd5b8281600301541015610d0f576040517f08c379a0000000000000000000000000000000000000000000000000000000008152600401610d0690611f3c565b60405180910390fd5b82816002015f9054906101000a900461ffff1661ffff16610d309190611f5a565b8214610d71576040517f08c379a0000000000000000000000000000000000000000000000000000000008152600401610d6890611fe5565b60405180910390fd5b82816003015f828254610d849190611aaf565b925050819055505f816003015403610db2575f816004015f6101000a81548160ff0219169083151502179055505b8260015f828254610dc39190612003565b92505081905550610dd2610870565b73ffffffffffffffffffffffffffffffffffffffff166108fc3490811502906040515f60405180830381858888f19350505050158015610e14573d5f803e3d5ffd5b503373ffffffffffffffffffffffffffffffffffffffff167f439c08b00222293c6073f3ee383214541a4a21aca7dbb0a45963f86fa8e589f78585604051610e5d929190612036565b60405180910390a250505050565b5f60045f8381526020019081526020015f205f9054906101000a900460ff169050919050565b610e99611089565b5f5b815181101561104e575f828281518110610eb857610eb7611a55565b5b602002602001015190505f60025f8381526020019081526020015f206002015f9054906101000a900461ffff1661ffff1603610f29576040517f08c379a0000000000000000000000000000000000000000000000000000000008152600401610f2090611a37565b60405180910390fd5b60025f8281526020019081526020015f205f8082015f610f4991906111d8565b600182015f610f5891906111d8565b600282015f6101000a81549061ffff0219169055600382015f9055600482015f6101000a81549060ff021916905550505f5b60038054905081101561103f578160038281548110610fac57610fab611a55565b5b905f5260205f200154036110325760036001600380549050610fce9190611aaf565b81548110610fdf57610fde611a55565b5b905f5260205f20015460038281548110610ffc57610ffb611a55565b5b905f5260205f200181905550600380548061101a57611019611ae2565b5b600190038181905f5260205f20015f9055905561103f565b8080600101915050610f8a565b50508080600101915050610e9b565b507f7262be1e48c30c363173fcb2fbf2dc2cb38d076dee42cc37cdfbdf62af5c3bed8160405161107e9190611389565b60405180910390a150565b6110916111d1565b73ffffffffffffffffffffffffffffffffffffffff166110af610870565b73ffffffffffffffffffffffffffffffffffffffff161461110e576110d26111d1565b6040517f118cdaa7000000000000000000000000000000000000000000000000000000008152600401611105919061155a565b60405180910390fd5b565b5f805f9054906101000a900473ffffffffffffffffffffffffffffffffffffffff169050815f806101000a81548173ffffffffffffffffffffffffffffffffffffffff021916908373ffffffffffffffffffffffffffffffffffffffff1602179055508173ffffffffffffffffffffffffffffffffffffffff168173ffffffffffffffffffffffffffffffffffffffff167f8be0079c531659141344cd1fd0a4f28419497f9722a3daafe3b4186f6b6457e060405160405180910390a35050565b5f33905090565b5080546111e4906119bd565b5f825580601f106111f55750611212565b601f0160209004905f5260205f20908101906112119190611215565b5b50565b5b8082111561122c575f815f905550600101611216565b5090565b5f604051905090565b5f80fd5b5f80fd5b5f819050919050565b61125381611241565b811461125d575f80fd5b50565b5f8135905061126e8161124a565b92915050565b5f6020828403121561128957611288611239565b5b5f61129684828501611260565b91505092915050565b5f8115159050919050565b6112b38161129f565b82525050565b5f6020820190506112cc5f8301846112aa565b92915050565b5f81519050919050565b5f82825260208201905092915050565b5f819050602082019050919050565b61130481611241565b82525050565b5f61131583836112fb565b60208301905092915050565b5f602082019050919050565b5f611337826112d2565b61134181856112dc565b935061134c836112ec565b805f5b8381101561137c578151611363888261130a565b975061136e83611321565b92505060018101905061134f565b5085935050505092915050565b5f6020820190508181035f8301526113a1818461132d565b905092915050565b6113b281611241565b82525050565b5f6020820190506113cb5f8301846113a9565b92915050565b5f81519050919050565b5f82825260208201905092915050565b8281835e5f83830152505050565b5f601f19601f8301169050919050565b5f611413826113d1565b61141d81856113db565b935061142d8185602086016113eb565b611436816113f9565b840191505092915050565b5f60a0820190508181035f8301526114598188611409565b9050818103602083015261146d8187611409565b905061147c60408301866113a9565b61148960608301856113a9565b61149660808301846112aa565b9695505050505050565b5f61ffff82169050919050565b6114b6816114a0565b82525050565b5f60a0820190508181035f8301526114d48188611409565b905081810360208301526114e88187611409565b90506114f760408301866114ad565b61150460608301856113a9565b61151160808301846112aa565b9695505050505050565b5f73ffffffffffffffffffffffffffffffffffffffff82169050919050565b5f6115448261151b565b9050919050565b6115548161153a565b82525050565b5f60208201905061156d5f83018461154b565b92915050565b5f80fd5b5f80fd5b7f4e487b71000000000000000000000000000000000000000000000000000000005f52604160045260245ffd5b6115b1826113f9565b810181811067ffffffffffffffff821117156115d0576115cf61157b565b5b80604052505050565b5f6115e2611230565b90506115ee82826115a8565b919050565b5f67ffffffffffffffff82111561160d5761160c61157b565b5b611616826113f9565b9050602081019050919050565b828183375f83830152505050565b5f61164361163e846115f3565b6115d9565b90508281526020810184848401111561165f5761165e611577565b5b61166a848285611623565b509392505050565b5f82601f83011261168657611685611573565b5b8135611696848260208601611631565b91505092915050565b6116a8816114a0565b81146116b2575f80fd5b50565b5f813590506116c38161169f565b92915050565b5f805f805f60a086880312156116e2576116e1611239565b5b5f6116ef88828901611260565b955050602086013567ffffffffffffffff8111156117105761170f61123d565b5b61171c88828901611672565b945050604086013567ffffffffffffffff81111561173d5761173c61123d565b5b61174988828901611672565b935050606061175a88828901611260565b925050608061176b888289016116b5565b9150509295509295909350565b6117818161153a565b811461178b575f80fd5b50565b5f8135905061179c81611778565b92915050565b5f602082840312156117b7576117b6611239565b5b5f6117c48482850161178e565b91505092915050565b5f805f606084860312156117e4576117e3611239565b5b5f6117f186828701611260565b935050602061180286828701611260565b925050604061181386828701611260565b9150509250925092565b5f67ffffffffffffffff8211156118375761183661157b565b5b602082029050602081019050919050565b5f80fd5b5f61185e6118598461181d565b6115d9565b9050808382526020820190506020840283018581111561188157611880611848565b5b835b818110156118aa57806118968882611260565b845260208401935050602081019050611883565b5050509392505050565b5f82601f8301126118c8576118c7611573565b5b81356118d884826020860161184c565b91505092915050565b5f602082840312156118f6576118f5611239565b5b5f82013567ffffffffffffffff8111156119135761191261123d565b5b61191f848285016118b4565b91505092915050565b7f5468697320426f6f6b20446f6573204e6f7420457869737421000000000000005f82015250565b5f61195c6019836113db565b915061196782611928565b602082019050919050565b5f6020820190508181035f83015261198981611950565b9050919050565b7f4e487b71000000000000000000000000000000000000000000000000000000005f52602260045260245ffd5b5f60028204905060018216806119d457607f821691505b6020821081036119e7576119e6611990565b5b50919050565b7f426f6f6b20646f6573206e6f74206578697374000000000000000000000000005f82015250565b5f611a216013836113db565b9150611a2c826119ed565b602082019050919050565b5f6020820190508181035f830152611a4e81611a15565b9050919050565b7f4e487b71000000000000000000000000000000000000000000000000000000005f52603260045260245ffd5b7f4e487b71000000000000000000000000000000000000000000000000000000005f52601160045260245ffd5b5f611ab982611241565b9150611ac483611241565b9250828203905081811115611adc57611adb611a82565b5b92915050565b7f4e487b71000000000000000000000000000000000000000000000000000000005f52603160045260245ffd5b7f43414e4e4f542041444420424f4f4b20495420414c52454144592045584953545f8201527f5300000000000000000000000000000000000000000000000000000000000000602082015250565b5f611b696021836113db565b9150611b7482611b0f565b604082019050919050565b5f6020820190508181035f830152611b9681611b5d565b9050919050565b5f819050815f5260205f209050919050565b5f6020601f8301049050919050565b5f82821b905092915050565b5f60088302611bf97fffffffffffffffffffffffffffffffffffffffffffffffffffffffffffffffff82611bbe565b611c038683611bbe565b95508019841693508086168417925050509392505050565b5f819050919050565b5f611c3e611c39611c3484611241565b611c1b565b611241565b9050919050565b5f819050919050565b611c5783611c24565b611c6b611c6382611c45565b848454611bca565b825550505050565b5f90565b611c7f611c73565b611c8a818484611c4e565b505050565b5b81811015611cad57611ca25f82611c77565b600181019050611c90565b5050565b601f821115611cf257611cc381611b9d565b611ccc84611baf565b81016020851015611cdb578190505b611cef611ce785611baf565b830182611c8f565b50505b505050565b5f82821c905092915050565b5f611d125f1984600802611cf7565b1980831691505092915050565b5f611d2a8383611d03565b9150826002028217905092915050565b611d43826113d1565b67ffffffffffffffff811115611d5c57611d5b61157b565b5b611d6682546119bd565b611d71828285611cb1565b5f60209050601f831160018114611da2575f8415611d90578287015190505b611d9a8582611d1f565b865550611e01565b601f198416611db086611b9d565b5f5b82811015611dd757848901518255600182019150602085019450602081019050611db2565b86831015611df45784890151611df0601f891682611d03565b8355505b6001600288020188555050505b505050505050565b5f611e23611e1e611e19846114a0565b611c1b565b611241565b9050919050565b611e3381611e09565b82525050565b5f6080820190508181035f830152611e518187611409565b90508181036020830152611e658186611409565b9050611e7460408301856113a9565b611e816060830184611e2a565b95945050505050565b7f5468697320626f6f6b206973206e6f7420617661696c61626c650000000000005f82015250565b5f611ebe601a836113db565b9150611ec982611e8a565b602082019050919050565b5f6020820190508181035f830152611eeb81611eb2565b9050919050565b7f4e6f7420656e6f7567682073746f636b20617661696c61626c650000000000005f82015250565b5f611f26601a836113db565b9150611f3182611ef2565b602082019050919050565b5f6020820190508181035f830152611f5381611f1a565b9050919050565b5f611f6482611241565b9150611f6f83611241565b9250828202611f7d81611241565b91508282048414831517611f9457611f93611a82565b5b5092915050565b7f496e636f7272656374207061796d656e7420616d6f756e7400000000000000005f82015250565b5f611fcf6018836113db565b9150611fda82611f9b565b602082019050919050565b5f6020820190508181035f830152611ffc81611fc3565b9050919050565b5f61200d82611241565b915061201883611241565b92508282019050808211156120305761202f611a82565b5b92915050565b5f6040820190506120495f8301856113a9565b61205660208301846113a9565b939250505056fea26469706673582212203e231573c7294af9e12521d2e16605cdf5d694d2e38fc4b541bba54f503c1f3d64736f6c634300081a0033",
					"opcodes": "PUSH1 0x80 PUSH1 0x40 MSTORE CALLVALUE DUP1 ISZERO PUSH2 0xF JUMPI PUSH0 DUP1 REVERT JUMPDEST POP PUSH1 0x40 MLOAD PUSH2 0x22CA CODESIZE SUB DUP1 PUSH2 0x22CA DUP4 CODECOPY DUP2 DUP2 ADD PUSH1 0x40 MSTORE DUP2 ADD SWAP1 PUSH2 0x31 SWAP2 SWAP1 PUSH2 0x1D7 JUMP JUMPDEST CALLER PUSH0 PUSH20 0xFFFFFFFFFFFFFFFFFFFFFFFFFFFFFFFFFFFFFFFF AND DUP2 PUSH20 0xFFFFFFFFFFFFFFFFFFFFFFFFFFFFFFFFFFFFFFFF AND SUB PUSH2 0xA2 JUMPI PUSH0 PUSH1 0x40 MLOAD PUSH32 0x1E4FBDF700000000000000000000000000000000000000000000000000000000 DUP2 MSTORE PUSH1 0x4 ADD PUSH2 0x99 SWAP2 SWAP1 PUSH2 0x211 JUMP JUMPDEST PUSH1 0x40 MLOAD DUP1 SWAP2 SUB SWAP1 REVERT JUMPDEST PUSH2 0xB1 DUP2 PUSH2 0xB8 PUSH1 0x20 SHL PUSH1 0x20 SHR JUMP JUMPDEST POP POP PUSH2 0x22A JUMP JUMPDEST PUSH0 DUP1 PUSH0 SWAP1 SLOAD SWAP1 PUSH2 0x100 EXP SWAP1 DIV PUSH20 0xFFFFFFFFFFFFFFFFFFFFFFFFFFFFFFFFFFFFFFFF AND SWAP1 POP DUP2 PUSH0 DUP1 PUSH2 0x100 EXP DUP2 SLOAD DUP2 PUSH20 0xFFFFFFFFFFFFFFFFFFFFFFFFFFFFFFFFFFFFFFFF MUL NOT AND SWAP1 DUP4 PUSH20 0xFFFFFFFFFFFFFFFFFFFFFFFFFFFFFFFFFFFFFFFF AND MUL OR SWAP1 SSTORE POP DUP2 PUSH20 0xFFFFFFFFFFFFFFFFFFFFFFFFFFFFFFFFFFFFFFFF AND DUP2 PUSH20 0xFFFFFFFFFFFFFFFFFFFFFFFFFFFFFFFFFFFFFFFF AND PUSH32 0x8BE0079C531659141344CD1FD0A4F28419497F9722A3DAAFE3B4186F6B6457E0 PUSH1 0x40 MLOAD PUSH1 0x40 MLOAD DUP1 SWAP2 SUB SWAP1 LOG3 POP POP JUMP JUMPDEST PUSH0 DUP1 REVERT JUMPDEST PUSH0 PUSH20 0xFFFFFFFFFFFFFFFFFFFFFFFFFFFFFFFFFFFFFFFF DUP3 AND SWAP1 POP SWAP2 SWAP1 POP JUMP JUMPDEST PUSH0 PUSH2 0x1A6 DUP3 PUSH2 0x17D JUMP JUMPDEST SWAP1 POP SWAP2 SWAP1 POP JUMP JUMPDEST PUSH2 0x1B6 DUP2 PUSH2 0x19C JUMP JUMPDEST DUP2 EQ PUSH2 0x1C0 JUMPI PUSH0 DUP1 REVERT JUMPDEST POP JUMP JUMPDEST PUSH0 DUP2 MLOAD SWAP1 POP PUSH2 0x1D1 DUP2 PUSH2 0x1AD JUMP JUMPDEST SWAP3 SWAP2 POP POP JUMP JUMPDEST PUSH0 PUSH1 0x20 DUP3 DUP5 SUB SLT ISZERO PUSH2 0x1EC JUMPI PUSH2 0x1EB PUSH2 0x179 JUMP JUMPDEST JUMPDEST PUSH0 PUSH2 0x1F9 DUP5 DUP3 DUP6 ADD PUSH2 0x1C3 JUMP JUMPDEST SWAP2 POP POP SWAP3 SWAP2 POP POP JUMP JUMPDEST PUSH2 0x20B DUP2 PUSH2 0x19C JUMP JUMPDEST DUP3 MSTORE POP POP JUMP JUMPDEST PUSH0 PUSH1 0x20 DUP3 ADD SWAP1 POP PUSH2 0x224 PUSH0 DUP4 ADD DUP5 PUSH2 0x202 JUMP JUMPDEST SWAP3 SWAP2 POP POP JUMP JUMPDEST PUSH2 0x2093 DUP1 PUSH2 0x237 PUSH0 CODECOPY PUSH0 RETURN INVALID PUSH1 0x80 PUSH1 0x40 MSTORE PUSH1 0x4 CALLDATASIZE LT PUSH2 0xF2 JUMPI PUSH0 CALLDATALOAD PUSH1 0xE0 SHR DUP1 PUSH4 0x8DA5CB5B GT PUSH2 0x89 JUMPI DUP1 PUSH4 0xF2FDE38B GT PUSH2 0x58 JUMPI DUP1 PUSH4 0xF2FDE38B EQ PUSH2 0x324 JUMPI DUP1 PUSH4 0xF346E2B7 EQ PUSH2 0x34C JUMPI DUP1 PUSH4 0xF60560DE EQ PUSH2 0x368 JUMPI DUP1 PUSH4 0xF98520DE EQ PUSH2 0x3A4 JUMPI PUSH2 0xF2 JUMP JUMPDEST DUP1 PUSH4 0x8DA5CB5B EQ PUSH2 0x280 JUMPI DUP1 PUSH4 0x9BD30883 EQ PUSH2 0x2AA JUMPI DUP1 PUSH4 0xBEC0D799 EQ PUSH2 0x2D4 JUMPI DUP1 PUSH4 0xD0289085 EQ PUSH2 0x2FC JUMPI PUSH2 0xF2 JUMP JUMPDEST DUP1 PUSH4 0x590791F2 GT PUSH2 0xC5 JUMPI DUP1 PUSH4 0x590791F2 EQ PUSH2 0x1C0 JUMPI DUP1 PUSH4 0x5AC3E19E EQ PUSH2 0x1EA JUMPI DUP1 PUSH4 0x68744046 EQ PUSH2 0x22A JUMPI DUP1 PUSH4 0x715018A6 EQ PUSH2 0x26A JUMPI PUSH2 0xF2 JUMP JUMPDEST DUP1 PUSH4 0x1F9B7AD8 EQ PUSH2 0xF6 JUMPI DUP1 PUSH4 0x354528E8 EQ PUSH2 0x132 JUMPI DUP1 PUSH4 0x3BF561ED EQ PUSH2 0x15C JUMPI DUP1 PUSH4 0x513073B8 EQ PUSH2 0x184 JUMPI JUMPDEST PUSH0 DUP1 REVERT JUMPDEST CALLVALUE DUP1 ISZERO PUSH2 0x101 JUMPI PUSH0 DUP1 REVERT JUMPDEST POP PUSH2 0x11C PUSH1 0x4 DUP1 CALLDATASIZE SUB DUP2 ADD SWAP1 PUSH2 0x117 SWAP2 SWAP1 PUSH2 0x1274 JUMP JUMPDEST PUSH2 0x3CC JUMP JUMPDEST PUSH1 0x40 MLOAD PUSH2 0x129 SWAP2 SWAP1 PUSH2 0x12B9 JUMP JUMPDEST PUSH1 0x40 MLOAD DUP1 SWAP2 SUB SWAP1 RETURN JUMPDEST CALLVALUE DUP1 ISZERO PUSH2 0x13D JUMPI PUSH0 DUP1 REVERT JUMPDEST POP PUSH2 0x146 PUSH2 0x3E9 JUMP JUMPDEST PUSH1 0x40 MLOAD PUSH2 0x153 SWAP2 SWAP1 PUSH2 0x1389 JUMP JUMPDEST PUSH1 0x40 MLOAD DUP1 SWAP2 SUB SWAP1 RETURN JUMPDEST CALLVALUE DUP1 ISZERO PUSH2 0x167 JUMPI PUSH0 DUP1 REVERT JUMPDEST POP PUSH2 0x182 PUSH1 0x4 DUP1 CALLDATASIZE SUB DUP2 ADD SWAP1 PUSH2 0x17D SWAP2 SWAP1 PUSH2 0x1274 JUMP JUMPDEST PUSH2 0x43F JUMP JUMPDEST STOP JUMPDEST CALLVALUE DUP1 ISZERO PUSH2 0x18F JUMPI PUSH0 DUP1 REVERT JUMPDEST POP PUSH2 0x1AA PUSH1 0x4 DUP1 CALLDATASIZE SUB DUP2 ADD SWAP1 PUSH2 0x1A5 SWAP2 SWAP1 PUSH2 0x1274 JUMP JUMPDEST PUSH2 0x507 JUMP JUMPDEST PUSH1 0x40 MLOAD PUSH2 0x1B7 SWAP2 SWAP1 PUSH2 0x13B8 JUMP JUMPDEST PUSH1 0x40 MLOAD DUP1 SWAP2 SUB SWAP1 RETURN JUMPDEST CALLVALUE DUP1 ISZERO PUSH2 0x1CB JUMPI PUSH0 DUP1 REVERT JUMPDEST POP PUSH2 0x1D4 PUSH2 0x527 JUMP JUMPDEST PUSH1 0x40 MLOAD PUSH2 0x1E1 SWAP2 SWAP1 PUSH2 0x13B8 JUMP JUMPDEST PUSH1 0x40 MLOAD DUP1 SWAP2 SUB SWAP1 RETURN JUMPDEST CALLVALUE DUP1 ISZERO PUSH2 0x1F5 JUMPI PUSH0 DUP1 REVERT JUMPDEST POP PUSH2 0x210 PUSH1 0x4 DUP1 CALLDATASIZE SUB DUP2 ADD SWAP1 PUSH2 0x20B SWAP2 SWAP1 PUSH2 0x1274 JUMP JUMPDEST PUSH2 0x54C JUMP JUMPDEST PUSH1 0x40 MLOAD PUSH2 0x221 SWAP6 SWAP5 SWAP4 SWAP3 SWAP2 SWAP1 PUSH2 0x1441 JUMP JUMPDEST PUSH1 0x40 MLOAD DUP1 SWAP2 SUB SWAP1 RETURN JUMPDEST CALLVALUE DUP1 ISZERO PUSH2 0x235 JUMPI PUSH0 DUP1 REVERT JUMPDEST POP PUSH2 0x250 PUSH1 0x4 DUP1 CALLDATASIZE SUB DUP2 ADD SWAP1 PUSH2 0x24B SWAP2 SWAP1 PUSH2 0x1274 JUMP JUMPDEST PUSH2 0x706 JUMP JUMPDEST PUSH1 0x40 MLOAD PUSH2 0x261 SWAP6 SWAP5 SWAP4 SWAP3 SWAP2 SWAP1 PUSH2 0x14BC JUMP JUMPDEST PUSH1 0x40 MLOAD DUP1 SWAP2 SUB SWAP1 RETURN JUMPDEST CALLVALUE DUP1 ISZERO PUSH2 0x275 JUMPI PUSH0 DUP1 REVERT JUMPDEST POP PUSH2 0x27E PUSH2 0x85D JUMP JUMPDEST STOP JUMPDEST CALLVALUE DUP1 ISZERO PUSH2 0x28B JUMPI PUSH0 DUP1 REVERT JUMPDEST POP PUSH2 0x294 PUSH2 0x870 JUMP JUMPDEST PUSH1 0x40 MLOAD PUSH2 0x2A1 SWAP2 SWAP1 PUSH2 0x155A JUMP JUMPDEST PUSH1 0x40 MLOAD DUP1 SWAP2 SUB SWAP1 RETURN JUMPDEST CALLVALUE DUP1 ISZERO PUSH2 0x2B5 JUMPI PUSH0 DUP1 REVERT JUMPDEST POP PUSH2 0x2BE PUSH2 0x897 JUMP JUMPDEST PUSH1 0x40 MLOAD PUSH2 0x2CB SWAP2 SWAP1 PUSH2 0x13B8 JUMP JUMPDEST PUSH1 0x40 MLOAD DUP1 SWAP2 SUB SWAP1 RETURN JUMPDEST CALLVALUE DUP1 ISZERO PUSH2 0x2DF JUMPI PUSH0 DUP1 REVERT JUMPDEST POP PUSH2 0x2FA PUSH1 0x4 DUP1 CALLDATASIZE SUB DUP2 ADD SWAP1 PUSH2 0x2F5 SWAP2 SWAP1 PUSH2 0x1274 JUMP JUMPDEST PUSH2 0x8A0 JUMP JUMPDEST STOP JUMPDEST CALLVALUE DUP1 ISZERO PUSH2 0x307 JUMPI PUSH0 DUP1 REVERT JUMPDEST POP PUSH2 0x322 PUSH1 0x4 DUP1 CALLDATASIZE SUB DUP2 ADD SWAP1 PUSH2 0x31D SWAP2 SWAP1 PUSH2 0x16C9 JUMP JUMPDEST PUSH2 0xA56 JUMP JUMPDEST STOP JUMPDEST CALLVALUE DUP1 ISZERO PUSH2 0x32F JUMPI PUSH0 DUP1 REVERT JUMPDEST POP PUSH2 0x34A PUSH1 0x4 DUP1 CALLDATASIZE SUB DUP2 ADD SWAP1 PUSH2 0x345 SWAP2 SWAP1 PUSH2 0x17A2 JUMP JUMPDEST PUSH2 0xBE0 JUMP JUMPDEST STOP JUMPDEST PUSH2 0x366 PUSH1 0x4 DUP1 CALLDATASIZE SUB DUP2 ADD SWAP1 PUSH2 0x361 SWAP2 SWAP1 PUSH2 0x17CD JUMP JUMPDEST PUSH2 0xC64 JUMP JUMPDEST STOP JUMPDEST CALLVALUE DUP1 ISZERO PUSH2 0x373 JUMPI PUSH0 DUP1 REVERT JUMPDEST POP PUSH2 0x38E PUSH1 0x4 DUP1 CALLDATASIZE SUB DUP2 ADD SWAP1 PUSH2 0x389 SWAP2 SWAP1 PUSH2 0x1274 JUMP JUMPDEST PUSH2 0xE6B JUMP JUMPDEST PUSH1 0x40 MLOAD PUSH2 0x39B SWAP2 SWAP1 PUSH2 0x12B9 JUMP JUMPDEST PUSH1 0x40 MLOAD DUP1 SWAP2 SUB SWAP1 RETURN JUMPDEST CALLVALUE DUP1 ISZERO PUSH2 0x3AF JUMPI PUSH0 DUP1 REVERT JUMPDEST POP PUSH2 0x3CA PUSH1 0x4 DUP1 CALLDATASIZE SUB DUP2 ADD SWAP1 PUSH2 0x3C5 SWAP2 SWAP1 PUSH2 0x18E1 JUMP JUMPDEST PUSH2 0xE91 JUMP JUMPDEST STOP JUMPDEST PUSH1 0x4 PUSH1 0x20 MSTORE DUP1 PUSH0 MSTORE PUSH1 0x40 PUSH0 KECCAK256 PUSH0 SWAP2 POP SLOAD SWAP1 PUSH2 0x100 EXP SWAP1 DIV PUSH1 0xFF AND DUP2 JUMP JUMPDEST PUSH1 0x60 PUSH1 0x3 DUP1 SLOAD DUP1 PUSH1 0x20 MUL PUSH1 0x20 ADD PUSH1 0x40 MLOAD SWAP1 DUP2 ADD PUSH1 0x40 MSTORE DUP1 SWAP3 SWAP2 SWAP1 DUP2 DUP2 MSTORE PUSH1 0x20 ADD DUP3 DUP1 SLOAD DUP1 ISZERO PUSH2 0x435 JUMPI PUSH1 0x20 MUL DUP3 ADD SWAP2 SWAP1 PUSH0 MSTORE PUSH1 0x20 PUSH0 KECCAK256 SWAP1 JUMPDEST DUP2 SLOAD DUP2 MSTORE PUSH1 0x20 ADD SWAP1 PUSH1 0x1 ADD SWAP1 DUP1 DUP4 GT PUSH2 0x421 JUMPI JUMPDEST POP POP POP POP POP SWAP1 POP SWAP1 JUMP JUMPDEST PUSH2 0x447 PUSH2 0x1089 JUMP JUMPDEST PUSH0 PUSH1 0x2 PUSH0 DUP4 DUP2 MSTORE PUSH1 0x20 ADD SWAP1 DUP2 MSTORE PUSH1 0x20 ADD PUSH0 KECCAK256 PUSH1 0x2 ADD PUSH0 SWAP1 SLOAD SWAP1 PUSH2 0x100 EXP SWAP1 DIV PUSH2 0xFFFF AND PUSH2 0xFFFF AND SUB PUSH2 0x4AE JUMPI PUSH1 0x40 MLOAD PUSH32 0x8C379A000000000000000000000000000000000000000000000000000000000 DUP2 MSTORE PUSH1 0x4 ADD PUSH2 0x4A5 SWAP1 PUSH2 0x1972 JUMP JUMPDEST PUSH1 0x40 MLOAD DUP1 SWAP2 SUB SWAP1 REVERT JUMPDEST PUSH1 0x1 PUSH1 0x4 PUSH0 DUP4 DUP2 MSTORE PUSH1 0x20 ADD SWAP1 DUP2 MSTORE PUSH1 0x20 ADD PUSH0 KECCAK256 PUSH0 PUSH2 0x100 EXP DUP2 SLOAD DUP2 PUSH1 0xFF MUL NOT AND SWAP1 DUP4 ISZERO ISZERO MUL OR SWAP1 SSTORE POP DUP1 PUSH32 0x86751756703C53D5D7E44BD54604B7D71C6CCE159F4525B5F5B6EF93E6AFA4D PUSH1 0x40 MLOAD PUSH1 0x40 MLOAD DUP1 SWAP2 SUB SWAP1 LOG2 POP JUMP JUMPDEST PUSH1 0x3 DUP2 DUP2 SLOAD DUP2 LT PUSH2 0x516 JUMPI PUSH0 DUP1 REVERT JUMPDEST SWAP1 PUSH0 MSTORE PUSH1 0x20 PUSH0 KECCAK256 ADD PUSH0 SWAP2 POP SWAP1 POP SLOAD DUP2 JUMP JUMPDEST PUSH0 PUSH2 0x530 PUSH2 0x870 JUMP JUMPDEST PUSH20 0xFFFFFFFFFFFFFFFFFFFFFFFFFFFFFFFFFFFFFFFF AND BALANCE SWAP1 POP SWAP1 JUMP JUMPDEST PUSH1 0x60 DUP1 PUSH0 DUP1 PUSH0 DUP1 PUSH1 0x2 PUSH0 DUP9 DUP2 MSTORE PUSH1 0x20 ADD SWAP1 DUP2 MSTORE PUSH1 0x20 ADD PUSH0 KECCAK256 PUSH1 0x40 MLOAD DUP1 PUSH1 0xA0 ADD PUSH1 0x40 MSTORE SWAP1 DUP2 PUSH0 DUP3 ADD DUP1 SLOAD PUSH2 0x57E SWAP1 PUSH2 0x19BD JUMP JUMPDEST DUP1 PUSH1 0x1F ADD PUSH1 0x20 DUP1 SWAP2 DIV MUL PUSH1 0x20 ADD PUSH1 0x40 MLOAD SWAP1 DUP2 ADD PUSH1 0x40 MSTORE DUP1 SWAP3 SWAP2 SWAP1 DUP2 DUP2 MSTORE PUSH1 0x20 ADD DUP3 DUP1 SLOAD PUSH2 0x5AA SWAP1 PUSH2 0x19BD JUMP JUMPDEST DUP1 ISZERO PUSH2 0x5F5 JUMPI DUP1 PUSH1 0x1F LT PUSH2 0x5CC JUMPI PUSH2 0x100 DUP1 DUP4 SLOAD DIV MUL DUP4 MSTORE SWAP2 PUSH1 0x20 ADD SWAP2 PUSH2 0x5F5 JUMP JUMPDEST DUP3 ADD SWAP2 SWAP1 PUSH0 MSTORE PUSH1 0x20 PUSH0 KECCAK256 SWAP1 JUMPDEST DUP2 SLOAD DUP2 MSTORE SWAP1 PUSH1 0x1 ADD SWAP1 PUSH1 0x20 ADD DUP1 DUP4 GT PUSH2 0x5D8 JUMPI DUP3 SWAP1 SUB PUSH1 0x1F AND DUP3 ADD SWAP2 JUMPDEST POP POP POP POP POP DUP2 MSTORE PUSH1 0x20 ADD PUSH1 0x1 DUP3 ADD DUP1 SLOAD PUSH2 0x60E SWAP1 PUSH2 0x19BD JUMP JUMPDEST DUP1 PUSH1 0x1F ADD PUSH1 0x20 DUP1 SWAP2 DIV MUL PUSH1 0x20 ADD PUSH1 0x40 MLOAD SWAP1 DUP2 ADD PUSH1 0x40 MSTORE DUP1 SWAP3 SWAP2 SWAP1 DUP2 DUP2 MSTORE PUSH1 0x20 ADD DUP3 DUP1 SLOAD PUSH2 0x63A SWAP1 PUSH2 0x19BD JUMP JUMPDEST DUP1 ISZERO PUSH2 0x685 JUMPI DUP1 PUSH1 0x1F LT PUSH2 0x65C JUMPI PUSH2 0x100 DUP1 DUP4 SLOAD DIV MUL DUP4 MSTORE SWAP2 PUSH1 0x20 ADD SWAP2 PUSH2 0x685 JUMP JUMPDEST DUP3 ADD SWAP2 SWAP1 PUSH0 MSTORE PUSH1 0x20 PUSH0 KECCAK256 SWAP1 JUMPDEST DUP2 SLOAD DUP2 MSTORE SWAP1 PUSH1 0x1 ADD SWAP1 PUSH1 0x20 ADD DUP1 DUP4 GT PUSH2 0x668 JUMPI DUP3 SWAP1 SUB PUSH1 0x1F AND DUP3 ADD SWAP2 JUMPDEST POP POP POP POP POP DUP2 MSTORE PUSH1 0x20 ADD PUSH1 0x2 DUP3 ADD PUSH0 SWAP1 SLOAD SWAP1 PUSH2 0x100 EXP SWAP1 DIV PUSH2 0xFFFF AND PUSH2 0xFFFF AND PUSH2 0xFFFF AND DUP2 MSTORE PUSH1 0x20 ADD PUSH1 0x3 DUP3 ADD SLOAD DUP2 MSTORE PUSH1 0x20 ADD PUSH1 0x4 DUP3 ADD PUSH0 SWAP1 SLOAD SWAP1 PUSH2 0x100 EXP SWAP1 DIV PUSH1 0xFF AND ISZERO ISZERO ISZERO ISZERO DUP2 MSTORE POP POP SWAP1 POP DUP1 PUSH0 ADD MLOAD DUP2 PUSH1 0x20 ADD MLOAD DUP3 PUSH1 0x40 ADD MLOAD DUP4 PUSH1 0x60 ADD MLOAD DUP5 PUSH1 0x80 ADD MLOAD DUP3 PUSH2 0xFFFF AND SWAP3 POP SWAP6 POP SWAP6 POP SWAP6 POP SWAP6 POP SWAP6 POP POP SWAP2 SWAP4 SWAP6 SWAP1 SWAP3 SWAP5 POP JUMP JUMPDEST PUSH1 0x2 PUSH1 0x20 MSTORE DUP1 PUSH0 MSTORE PUSH1 0x40 PUSH0 KECCAK256 PUSH0 SWAP2 POP SWAP1 POP DUP1 PUSH0 ADD DUP1 SLOAD PUSH2 0x725 SWAP1 PUSH2 0x19BD JUMP JUMPDEST DUP1 PUSH1 0x1F ADD PUSH1 0x20 DUP1 SWAP2 DIV MUL PUSH1 0x20 ADD PUSH1 0x40 MLOAD SWAP1 DUP2 ADD PUSH1 0x40 MSTORE DUP1 SWAP3 SWAP2 SWAP1 DUP2 DUP2 MSTORE PUSH1 0x20 ADD DUP3 DUP1 SLOAD PUSH2 0x751 SWAP1 PUSH2 0x19BD JUMP JUMPDEST DUP1 ISZERO PUSH2 0x79C JUMPI DUP1 PUSH1 0x1F LT PUSH2 0x773 JUMPI PUSH2 0x100 DUP1 DUP4 SLOAD DIV MUL DUP4 MSTORE SWAP2 PUSH1 0x20 ADD SWAP2 PUSH2 0x79C JUMP JUMPDEST DUP3 ADD SWAP2 SWAP1 PUSH0 MSTORE PUSH1 0x20 PUSH0 KECCAK256 SWAP1 JUMPDEST DUP2 SLOAD DUP2 MSTORE SWAP1 PUSH1 0x1 ADD SWAP1 PUSH1 0x20 ADD DUP1 DUP4 GT PUSH2 0x77F JUMPI DUP3 SWAP1 SUB PUSH1 0x1F AND DUP3 ADD SWAP2 JUMPDEST POP POP POP POP POP SWAP1 DUP1 PUSH1 0x1 ADD DUP1 SLOAD PUSH2 0x7B1 SWAP1 PUSH2 0x19BD JUMP JUMPDEST DUP1 PUSH1 0x1F ADD PUSH1 0x20 DUP1 SWAP2 DIV MUL PUSH1 0x20 ADD PUSH1 0x40 MLOAD SWAP1 DUP2 ADD PUSH1 0x40 MSTORE DUP1 SWAP3 SWAP2 SWAP1 DUP2 DUP2 MSTORE PUSH1 0x20 ADD DUP3 DUP1 SLOAD PUSH2 0x7DD SWAP1 PUSH2 0x19BD JUMP JUMPDEST DUP1 ISZERO PUSH2 0x828 JUMPI DUP1 PUSH1 0x1F LT PUSH2 0x7FF JUMPI PUSH2 0x100 DUP1 DUP4 SLOAD DIV MUL DUP4 MSTORE SWAP2 PUSH1 0x20 ADD SWAP2 PUSH2 0x828 JUMP JUMPDEST DUP3 ADD SWAP2 SWAP1 PUSH0 MSTORE PUSH1 0x20 PUSH0 KECCAK256 SWAP1 JUMPDEST DUP2 SLOAD DUP2 MSTORE SWAP1 PUSH1 0x1 ADD SWAP1 PUSH1 0x20 ADD DUP1 DUP4 GT PUSH2 0x80B JUMPI DUP3 SWAP1 SUB PUSH1 0x1F AND DUP3 ADD SWAP2 JUMPDEST POP POP POP POP POP SWAP1 DUP1 PUSH1 0x2 ADD PUSH0 SWAP1 SLOAD SWAP1 PUSH2 0x100 EXP SWAP1 DIV PUSH2 0xFFFF AND SWAP1 DUP1 PUSH1 0x3 ADD SLOAD SWAP1 DUP1 PUSH1 0x4 ADD PUSH0 SWAP1 SLOAD SWAP1 PUSH2 0x100 EXP SWAP1 DIV PUSH1 0xFF AND SWAP1 POP DUP6 JUMP JUMPDEST PUSH2 0x865 PUSH2 0x1089 JUMP JUMPDEST PUSH2 0x86E PUSH0 PUSH2 0x1110 JUMP JUMPDEST JUMP JUMPDEST PUSH0 DUP1 PUSH0 SWAP1 SLOAD SWAP1 PUSH2 0x100 EXP SWAP1 DIV PUSH20 0xFFFFFFFFFFFFFFFFFFFFFFFFFFFFFFFFFFFFFFFF AND SWAP1 POP SWAP1 JUMP JUMPDEST PUSH0 PUSH1 0x1 SLOAD SWAP1 POP SWAP1 JUMP JUMPDEST PUSH2 0x8A8 PUSH2 0x1089 JUMP JUMPDEST PUSH0 PUSH1 0x2 PUSH0 DUP4 DUP2 MSTORE PUSH1 0x20 ADD SWAP1 DUP2 MSTORE PUSH1 0x20 ADD PUSH0 KECCAK256 PUSH1 0x2 ADD PUSH0 SWAP1 SLOAD SWAP1 PUSH2 0x100 EXP SWAP1 DIV PUSH2 0xFFFF AND PUSH2 0xFFFF AND SUB PUSH2 0x90F JUMPI PUSH1 0x40 MLOAD PUSH32 0x8C379A000000000000000000000000000000000000000000000000000000000 DUP2 MSTORE PUSH1 0x4 ADD PUSH2 0x906 SWAP1 PUSH2 0x1A37 JUMP JUMPDEST PUSH1 0x40 MLOAD DUP1 SWAP2 SUB SWAP1 REVERT JUMPDEST PUSH1 0x2 PUSH0 DUP3 DUP2 MSTORE PUSH1 0x20 ADD SWAP1 DUP2 MSTORE PUSH1 0x20 ADD PUSH0 KECCAK256 PUSH0 DUP1 DUP3 ADD PUSH0 PUSH2 0x92F SWAP2 SWAP1 PUSH2 0x11D8 JUMP JUMPDEST PUSH1 0x1 DUP3 ADD PUSH0 PUSH2 0x93E SWAP2 SWAP1 PUSH2 0x11D8 JUMP JUMPDEST PUSH1 0x2 DUP3 ADD PUSH0 PUSH2 0x100 EXP DUP2 SLOAD SWAP1 PUSH2 0xFFFF MUL NOT AND SWAP1 SSTORE PUSH1 0x3 DUP3 ADD PUSH0 SWAP1 SSTORE PUSH1 0x4 DUP3 ADD PUSH0 PUSH2 0x100 EXP DUP2 SLOAD SWAP1 PUSH1 0xFF MUL NOT AND SWAP1 SSTORE POP POP PUSH0 JUMPDEST PUSH1 0x3 DUP1 SLOAD SWAP1 POP DUP2 LT ISZERO PUSH2 0xA25 JUMPI DUP2 PUSH1 0x3 DUP3 DUP2 SLOAD DUP2 LT PUSH2 0x992 JUMPI PUSH2 0x991 PUSH2 0x1A55 JUMP JUMPDEST JUMPDEST SWAP1 PUSH0 MSTORE PUSH1 0x20 PUSH0 KECCAK256 ADD SLOAD SUB PUSH2 0xA18 JUMPI PUSH1 0x3 PUSH1 0x1 PUSH1 0x3 DUP1 SLOAD SWAP1 POP PUSH2 0x9B4 SWAP2 SWAP1 PUSH2 0x1AAF JUMP JUMPDEST DUP2 SLOAD DUP2 LT PUSH2 0x9C5 JUMPI PUSH2 0x9C4 PUSH2 0x1A55 JUMP JUMPDEST JUMPDEST SWAP1 PUSH0 MSTORE PUSH1 0x20 PUSH0 KECCAK256 ADD SLOAD PUSH1 0x3 DUP3 DUP2 SLOAD DUP2 LT PUSH2 0x9E2 JUMPI PUSH2 0x9E1 PUSH2 0x1A55 JUMP JUMPDEST JUMPDEST SWAP1 PUSH0 MSTORE PUSH1 0x20 PUSH0 KECCAK256 ADD DUP2 SWAP1 SSTORE POP PUSH1 0x3 DUP1 SLOAD DUP1 PUSH2 0xA00 JUMPI PUSH2 0x9FF PUSH2 0x1AE2 JUMP JUMPDEST JUMPDEST PUSH1 0x1 SWAP1 SUB DUP2 DUP2 SWAP1 PUSH0 MSTORE PUSH1 0x20 PUSH0 KECCAK256 ADD PUSH0 SWAP1 SSTORE SWAP1 SSTORE PUSH2 0xA25 JUMP JUMPDEST DUP1 DUP1 PUSH1 0x1 ADD SWAP2 POP POP PUSH2 0x970 JUMP JUMPDEST POP DUP1 PUSH32 0x3C5CE13264433BCF97E5D53C97AF4FC33800E8C9DD927F965B116D0018D7CDDF PUSH1 0x40 MLOAD PUSH1 0x40 MLOAD DUP1 SWAP2 SUB SWAP1 LOG2 POP JUMP JUMPDEST PUSH0 PUSH1 0x2 PUSH0 DUP8 DUP2 MSTORE PUSH1 0x20 ADD SWAP1 DUP2 MSTORE PUSH1 0x20 ADD PUSH0 KECCAK256 PUSH1 0x2 ADD PUSH0 SWAP1 SLOAD SWAP1 PUSH2 0x100 EXP SWAP1 DIV PUSH2 0xFFFF AND PUSH2 0xFFFF AND EQ PUSH2 0xABD JUMPI PUSH1 0x40 MLOAD PUSH32 0x8C379A000000000000000000000000000000000000000000000000000000000 DUP2 MSTORE PUSH1 0x4 ADD PUSH2 0xAB4 SWAP1 PUSH2 0x1B7F JUMP JUMPDEST PUSH1 0x40 MLOAD DUP1 SWAP2 SUB SWAP1 REVERT JUMPDEST PUSH1 0x40 MLOAD DUP1 PUSH1 0xA0 ADD PUSH1 0x40 MSTORE DUP1 DUP6 DUP2 MSTORE PUSH1 0x20 ADD DUP5 DUP2 MSTORE PUSH1 0x20 ADD DUP3 PUSH2 0xFFFF AND DUP2 MSTORE PUSH1 0x20 ADD DUP4 DUP2 MSTORE PUSH1 0x20 ADD PUSH0 DUP5 GT ISZERO ISZERO DUP2 MSTORE POP PUSH1 0x2 PUSH0 DUP8 DUP2 MSTORE PUSH1 0x20 ADD SWAP1 DUP2 MSTORE PUSH1 0x20 ADD PUSH0 KECCAK256 PUSH0 DUP3 ADD MLOAD DUP2 PUSH0 ADD SWAP1 DUP2 PUSH2 0xB10 SWAP2 SWAP1 PUSH2 0x1D3A JUMP JUMPDEST POP PUSH1 0x20 DUP3 ADD MLOAD DUP2 PUSH1 0x1 ADD SWAP1 DUP2 PUSH2 0xB26 SWAP2 SWAP1 PUSH2 0x1D3A JUMP JUMPDEST POP PUSH1 0x40 DUP3 ADD MLOAD DUP2 PUSH1 0x2 ADD PUSH0 PUSH2 0x100 EXP DUP2 SLOAD DUP2 PUSH2 0xFFFF MUL NOT AND SWAP1 DUP4 PUSH2 0xFFFF AND MUL OR SWAP1 SSTORE POP PUSH1 0x60 DUP3 ADD MLOAD DUP2 PUSH1 0x3 ADD SSTORE PUSH1 0x80 DUP3 ADD MLOAD DUP2 PUSH1 0x4 ADD PUSH0 PUSH2 0x100 EXP DUP2 SLOAD DUP2 PUSH1 0xFF MUL NOT AND SWAP1 DUP4 ISZERO ISZERO MUL OR SWAP1 SSTORE POP SWAP1 POP POP PUSH1 0x3 DUP6 SWAP1 DUP1 PUSH1 0x1 DUP2 SLOAD ADD DUP1 DUP3 SSTORE DUP1 SWAP2 POP POP PUSH1 0x1 SWAP1 SUB SWAP1 PUSH0 MSTORE PUSH1 0x20 PUSH0 KECCAK256 ADD PUSH0 SWAP1 SWAP2 SWAP1 SWAP2 SWAP1 SWAP2 POP SSTORE DUP5 PUSH32 0x722C04650224F771C04EC5712C74689980B3DDB4EAA233CD8F9C72D7DA7FBE29 DUP6 DUP6 DUP6 DUP6 PUSH1 0x40 MLOAD PUSH2 0xBD1 SWAP5 SWAP4 SWAP3 SWAP2 SWAP1 PUSH2 0x1E39 JUMP JUMPDEST PUSH1 0x40 MLOAD DUP1 SWAP2 SUB SWAP1 LOG2 POP POP POP POP POP JUMP JUMPDEST PUSH2 0xBE8 PUSH2 0x1089 JUMP JUMPDEST PUSH0 PUSH20 0xFFFFFFFFFFFFFFFFFFFFFFFFFFFFFFFFFFFFFFFF AND DUP2 PUSH20 0xFFFFFFFFFFFFFFFFFFFFFFFFFFFFFFFFFFFFFFFF AND SUB PUSH2 0xC58 JUMPI PUSH0 PUSH1 0x40 MLOAD PUSH32 0x1E4FBDF700000000000000000000000000000000000000000000000000000000 DUP2 MSTORE PUSH1 0x4 ADD PUSH2 0xC4F SWAP2 SWAP1 PUSH2 0x155A JUMP JUMPDEST PUSH1 0x40 MLOAD DUP1 SWAP2 SUB SWAP1 REVERT JUMPDEST PUSH2 0xC61 DUP2 PUSH2 0x1110 JUMP JUMPDEST POP JUMP JUMPDEST PUSH0 PUSH1 0x2 PUSH0 DUP6 DUP2 MSTORE PUSH1 0x20 ADD SWAP1 DUP2 MSTORE PUSH1 0x20 ADD PUSH0 KECCAK256 SWAP1 POP DUP1 PUSH1 0x4 ADD PUSH0 SWAP1 SLOAD SWAP1 PUSH2 0x100 EXP SWAP1 DIV PUSH1 0xFF AND PUSH2 0xCC8 JUMPI PUSH1 0x40 MLOAD PUSH32 0x8C379A000000000000000000000000000000000000000000000000000000000 DUP2 MSTORE PUSH1 0x4 ADD PUSH2 0xCBF SWAP1 PUSH2 0x1ED4 JUMP JUMPDEST PUSH1 0x40 MLOAD DUP1 SWAP2 SUB SWAP1 REVERT JUMPDEST DUP3 DUP2 PUSH1 0x3 ADD SLOAD LT ISZERO PUSH2 0xD0F JUMPI PUSH1 0x40 MLOAD PUSH32 0x8C379A000000000000000000000000000000000000000000000000000000000 DUP2 MSTORE PUSH1 0x4 ADD PUSH2 0xD06 SWAP1 PUSH2 0x1F3C JUMP JUMPDEST PUSH1 0x40 MLOAD DUP1 SWAP2 SUB SWAP1 REVERT JUMPDEST DUP3 DUP2 PUSH1 0x2 ADD PUSH0 SWAP1 SLOAD SWAP1 PUSH2 0x100 EXP SWAP1 DIV PUSH2 0xFFFF AND PUSH2 0xFFFF AND PUSH2 0xD30 SWAP2 SWAP1 PUSH2 0x1F5A JUMP JUMPDEST DUP3 EQ PUSH2 0xD71 JUMPI PUSH1 0x40 MLOAD PUSH32 0x8C379A000000000000000000000000000000000000000000000000000000000 DUP2 MSTORE PUSH1 0x4 ADD PUSH2 0xD68 SWAP1 PUSH2 0x1FE5 JUMP JUMPDEST PUSH1 0x40 MLOAD DUP1 SWAP2 SUB SWAP1 REVERT JUMPDEST DUP3 DUP2 PUSH1 0x3 ADD PUSH0 DUP3 DUP3 SLOAD PUSH2 0xD84 SWAP2 SWAP1 PUSH2 0x1AAF JUMP JUMPDEST SWAP3 POP POP DUP2 SWAP1 SSTORE POP PUSH0 DUP2 PUSH1 0x3 ADD SLOAD SUB PUSH2 0xDB2 JUMPI PUSH0 DUP2 PUSH1 0x4 ADD PUSH0 PUSH2 0x100 EXP DUP2 SLOAD DUP2 PUSH1 0xFF MUL NOT AND SWAP1 DUP4 ISZERO ISZERO MUL OR SWAP1 SSTORE POP JUMPDEST DUP3 PUSH1 0x1 PUSH0 DUP3 DUP3 SLOAD PUSH2 0xDC3 SWAP2 SWAP1 PUSH2 0x2003 JUMP JUMPDEST SWAP3 POP POP DUP2 SWAP1 SSTORE POP PUSH2 0xDD2 PUSH2 0x870 JUMP JUMPDEST PUSH20 0xFFFFFFFFFFFFFFFFFFFFFFFFFFFFFFFFFFFFFFFF AND PUSH2 0x8FC CALLVALUE SWAP1 DUP2 ISZERO MUL SWAP1 PUSH1 0x40 MLOAD PUSH0 PUSH1 0x40 MLOAD DUP1 DUP4 SUB DUP2 DUP6 DUP9 DUP9 CALL SWAP4 POP POP POP POP ISZERO DUP1 ISZERO PUSH2 0xE14 JUMPI RETURNDATASIZE PUSH0 DUP1 RETURNDATACOPY RETURNDATASIZE PUSH0 REVERT JUMPDEST POP CALLER PUSH20 0xFFFFFFFFFFFFFFFFFFFFFFFFFFFFFFFFFFFFFFFF AND PUSH32 0x439C08B00222293C6073F3EE383214541A4A21ACA7DBB0A45963F86FA8E589F7 DUP6 DUP6 PUSH1 0x40 MLOAD PUSH2 0xE5D SWAP3 SWAP2 SWAP1 PUSH2 0x2036 JUMP JUMPDEST PUSH1 0x40 MLOAD DUP1 SWAP2 SUB SWAP1 LOG2 POP POP POP POP JUMP JUMPDEST PUSH0 PUSH1 0x4 PUSH0 DUP4 DUP2 MSTORE PUSH1 0x20 ADD SWAP1 DUP2 MSTORE PUSH1 0x20 ADD PUSH0 KECCAK256 PUSH0 SWAP1 SLOAD SWAP1 PUSH2 0x100 EXP SWAP1 DIV PUSH1 0xFF AND SWAP1 POP SWAP2 SWAP1 POP JUMP JUMPDEST PUSH2 0xE99 PUSH2 0x1089 JUMP JUMPDEST PUSH0 JUMPDEST DUP2 MLOAD DUP2 LT ISZERO PUSH2 0x104E JUMPI PUSH0 DUP3 DUP3 DUP2 MLOAD DUP2 LT PUSH2 0xEB8 JUMPI PUSH2 0xEB7 PUSH2 0x1A55 JUMP JUMPDEST JUMPDEST PUSH1 0x20 MUL PUSH1 0x20 ADD ADD MLOAD SWAP1 POP PUSH0 PUSH1 0x2 PUSH0 DUP4 DUP2 MSTORE PUSH1 0x20 ADD SWAP1 DUP2 MSTORE PUSH1 0x20 ADD PUSH0 KECCAK256 PUSH1 0x2 ADD PUSH0 SWAP1 SLOAD SWAP1 PUSH2 0x100 EXP SWAP1 DIV PUSH2 0xFFFF AND PUSH2 0xFFFF AND SUB PUSH2 0xF29 JUMPI PUSH1 0x40 MLOAD PUSH32 0x8C379A000000000000000000000000000000000000000000000000000000000 DUP2 MSTORE PUSH1 0x4 ADD PUSH2 0xF20 SWAP1 PUSH2 0x1A37 JUMP JUMPDEST PUSH1 0x40 MLOAD DUP1 SWAP2 SUB SWAP1 REVERT JUMPDEST PUSH1 0x2 PUSH0 DUP3 DUP2 MSTORE PUSH1 0x20 ADD SWAP1 DUP2 MSTORE PUSH1 0x20 ADD PUSH0 KECCAK256 PUSH0 DUP1 DUP3 ADD PUSH0 PUSH2 0xF49 SWAP2 SWAP1 PUSH2 0x11D8 JUMP JUMPDEST PUSH1 0x1 DUP3 ADD PUSH0 PUSH2 0xF58 SWAP2 SWAP1 PUSH2 0x11D8 JUMP JUMPDEST PUSH1 0x2 DUP3 ADD PUSH0 PUSH2 0x100 EXP DUP2 SLOAD SWAP1 PUSH2 0xFFFF MUL NOT AND SWAP1 SSTORE PUSH1 0x3 DUP3 ADD PUSH0 SWAP1 SSTORE PUSH1 0x4 DUP3 ADD PUSH0 PUSH2 0x100 EXP DUP2 SLOAD SWAP1 PUSH1 0xFF MUL NOT AND SWAP1 SSTORE POP POP PUSH0 JUMPDEST PUSH1 0x3 DUP1 SLOAD SWAP1 POP DUP2 LT ISZERO PUSH2 0x103F JUMPI DUP2 PUSH1 0x3 DUP3 DUP2 SLOAD DUP2 LT PUSH2 0xFAC JUMPI PUSH2 0xFAB PUSH2 0x1A55 JUMP JUMPDEST JUMPDEST SWAP1 PUSH0 MSTORE PUSH1 0x20 PUSH0 KECCAK256 ADD SLOAD SUB PUSH2 0x1032 JUMPI PUSH1 0x3 PUSH1 0x1 PUSH1 0x3 DUP1 SLOAD SWAP1 POP PUSH2 0xFCE SWAP2 SWAP1 PUSH2 0x1AAF JUMP JUMPDEST DUP2 SLOAD DUP2 LT PUSH2 0xFDF JUMPI PUSH2 0xFDE PUSH2 0x1A55 JUMP JUMPDEST JUMPDEST SWAP1 PUSH0 MSTORE PUSH1 0x20 PUSH0 KECCAK256 ADD SLOAD PUSH1 0x3 DUP3 DUP2 SLOAD DUP2 LT PUSH2 0xFFC JUMPI PUSH2 0xFFB PUSH2 0x1A55 JUMP JUMPDEST JUMPDEST SWAP1 PUSH0 MSTORE PUSH1 0x20 PUSH0 KECCAK256 ADD DUP2 SWAP1 SSTORE POP PUSH1 0x3 DUP1 SLOAD DUP1 PUSH2 0x101A JUMPI PUSH2 0x1019 PUSH2 0x1AE2 JUMP JUMPDEST JUMPDEST PUSH1 0x1 SWAP1 SUB DUP2 DUP2 SWAP1 PUSH0 MSTORE PUSH1 0x20 PUSH0 KECCAK256 ADD PUSH0 SWAP1 SSTORE SWAP1 SSTORE PUSH2 0x103F JUMP JUMPDEST DUP1 DUP1 PUSH1 0x1 ADD SWAP2 POP POP PUSH2 0xF8A JUMP JUMPDEST POP POP DUP1 DUP1 PUSH1 0x1 ADD SWAP2 POP POP PUSH2 0xE9B JUMP JUMPDEST POP PUSH32 0x7262BE1E48C30C363173FCB2FBF2DC2CB38D076DEE42CC37CDFBDF62AF5C3BED DUP2 PUSH1 0x40 MLOAD PUSH2 0x107E SWAP2 SWAP1 PUSH2 0x1389 JUMP JUMPDEST PUSH1 0x40 MLOAD DUP1 SWAP2 SUB SWAP1 LOG1 POP JUMP JUMPDEST PUSH2 0x1091 PUSH2 0x11D1 JUMP JUMPDEST PUSH20 0xFFFFFFFFFFFFFFFFFFFFFFFFFFFFFFFFFFFFFFFF AND PUSH2 0x10AF PUSH2 0x870 JUMP JUMPDEST PUSH20 0xFFFFFFFFFFFFFFFFFFFFFFFFFFFFFFFFFFFFFFFF AND EQ PUSH2 0x110E JUMPI PUSH2 0x10D2 PUSH2 0x11D1 JUMP JUMPDEST PUSH1 0x40 MLOAD PUSH32 0x118CDAA700000000000000000000000000000000000000000000000000000000 DUP2 MSTORE PUSH1 0x4 ADD PUSH2 0x1105 SWAP2 SWAP1 PUSH2 0x155A JUMP JUMPDEST PUSH1 0x40 MLOAD DUP1 SWAP2 SUB SWAP1 REVERT JUMPDEST JUMP JUMPDEST PUSH0 DUP1 PUSH0 SWAP1 SLOAD SWAP1 PUSH2 0x100 EXP SWAP1 DIV PUSH20 0xFFFFFFFFFFFFFFFFFFFFFFFFFFFFFFFFFFFFFFFF AND SWAP1 POP DUP2 PUSH0 DUP1 PUSH2 0x100 EXP DUP2 SLOAD DUP2 PUSH20 0xFFFFFFFFFFFFFFFFFFFFFFFFFFFFFFFFFFFFFFFF MUL NOT AND SWAP1 DUP4 PUSH20 0xFFFFFFFFFFFFFFFFFFFFFFFFFFFFFFFFFFFFFFFF AND MUL OR SWAP1 SSTORE POP DUP2 PUSH20 0xFFFFFFFFFFFFFFFFFFFFFFFFFFFFFFFFFFFFFFFF AND DUP2 PUSH20 0xFFFFFFFFFFFFFFFFFFFFFFFFFFFFFFFFFFFFFFFF AND PUSH32 0x8BE0079C531659141344CD1FD0A4F28419497F9722A3DAAFE3B4186F6B6457E0 PUSH1 0x40 MLOAD PUSH1 0x40 MLOAD DUP1 SWAP2 SUB SWAP1 LOG3 POP POP JUMP JUMPDEST PUSH0 CALLER SWAP1 POP SWAP1 JUMP JUMPDEST POP DUP1 SLOAD PUSH2 0x11E4 SWAP1 PUSH2 0x19BD JUMP JUMPDEST PUSH0 DUP3 SSTORE DUP1 PUSH1 0x1F LT PUSH2 0x11F5 JUMPI POP PUSH2 0x1212 JUMP JUMPDEST PUSH1 0x1F ADD PUSH1 0x20 SWAP1 DIV SWAP1 PUSH0 MSTORE PUSH1 0x20 PUSH0 KECCAK256 SWAP1 DUP2 ADD SWAP1 PUSH2 0x1211 SWAP2 SWAP1 PUSH2 0x1215 JUMP JUMPDEST JUMPDEST POP JUMP JUMPDEST JUMPDEST DUP1 DUP3 GT ISZERO PUSH2 0x122C JUMPI PUSH0 DUP2 PUSH0 SWAP1 SSTORE POP PUSH1 0x1 ADD PUSH2 0x1216 JUMP JUMPDEST POP SWAP1 JUMP JUMPDEST PUSH0 PUSH1 0x40 MLOAD SWAP1 POP SWAP1 JUMP JUMPDEST PUSH0 DUP1 REVERT JUMPDEST PUSH0 DUP1 REVERT JUMPDEST PUSH0 DUP2 SWAP1 POP SWAP2 SWAP1 POP JUMP JUMPDEST PUSH2 0x1253 DUP2 PUSH2 0x1241 JUMP JUMPDEST DUP2 EQ PUSH2 0x125D JUMPI PUSH0 DUP1 REVERT JUMPDEST POP JUMP JUMPDEST PUSH0 DUP2 CALLDATALOAD SWAP1 POP PUSH2 0x126E DUP2 PUSH2 0x124A JUMP JUMPDEST SWAP3 SWAP2 POP POP JUMP JUMPDEST PUSH0 PUSH1 0x20 DUP3 DUP5 SUB SLT ISZERO PUSH2 0x1289 JUMPI PUSH2 0x1288 PUSH2 0x1239 JUMP JUMPDEST JUMPDEST PUSH0 PUSH2 0x1296 DUP5 DUP3 DUP6 ADD PUSH2 0x1260 JUMP JUMPDEST SWAP2 POP POP SWAP3 SWAP2 POP POP JUMP JUMPDEST PUSH0 DUP2 ISZERO ISZERO SWAP1 POP SWAP2 SWAP1 POP JUMP JUMPDEST PUSH2 0x12B3 DUP2 PUSH2 0x129F JUMP JUMPDEST DUP3 MSTORE POP POP JUMP JUMPDEST PUSH0 PUSH1 0x20 DUP3 ADD SWAP1 POP PUSH2 0x12CC PUSH0 DUP4 ADD DUP5 PUSH2 0x12AA JUMP JUMPDEST SWAP3 SWAP2 POP POP JUMP JUMPDEST PUSH0 DUP2 MLOAD SWAP1 POP SWAP2 SWAP1 POP JUMP JUMPDEST PUSH0 DUP3 DUP3 MSTORE PUSH1 0x20 DUP3 ADD SWAP1 POP SWAP3 SWAP2 POP POP JUMP JUMPDEST PUSH0 DUP2 SWAP1 POP PUSH1 0x20 DUP3 ADD SWAP1 POP SWAP2 SWAP1 POP JUMP JUMPDEST PUSH2 0x1304 DUP2 PUSH2 0x1241 JUMP JUMPDEST DUP3 MSTORE POP POP JUMP JUMPDEST PUSH0 PUSH2 0x1315 DUP4 DUP4 PUSH2 0x12FB JUMP JUMPDEST PUSH1 0x20 DUP4 ADD SWAP1 POP SWAP3 SWAP2 POP POP JUMP JUMPDEST PUSH0 PUSH1 0x20 DUP3 ADD SWAP1 POP SWAP2 SWAP1 POP JUMP JUMPDEST PUSH0 PUSH2 0x1337 DUP3 PUSH2 0x12D2 JUMP JUMPDEST PUSH2 0x1341 DUP2 DUP6 PUSH2 0x12DC JUMP JUMPDEST SWAP4 POP PUSH2 0x134C DUP4 PUSH2 0x12EC JUMP JUMPDEST DUP1 PUSH0 JUMPDEST DUP4 DUP2 LT ISZERO PUSH2 0x137C JUMPI DUP2 MLOAD PUSH2 0x1363 DUP9 DUP3 PUSH2 0x130A JUMP JUMPDEST SWAP8 POP PUSH2 0x136E DUP4 PUSH2 0x1321 JUMP JUMPDEST SWAP3 POP POP PUSH1 0x1 DUP2 ADD SWAP1 POP PUSH2 0x134F JUMP JUMPDEST POP DUP6 SWAP4 POP POP POP POP SWAP3 SWAP2 POP POP JUMP JUMPDEST PUSH0 PUSH1 0x20 DUP3 ADD SWAP1 POP DUP2 DUP2 SUB PUSH0 DUP4 ADD MSTORE PUSH2 0x13A1 DUP2 DUP5 PUSH2 0x132D JUMP JUMPDEST SWAP1 POP SWAP3 SWAP2 POP POP JUMP JUMPDEST PUSH2 0x13B2 DUP2 PUSH2 0x1241 JUMP JUMPDEST DUP3 MSTORE POP POP JUMP JUMPDEST PUSH0 PUSH1 0x20 DUP3 ADD SWAP1 POP PUSH2 0x13CB PUSH0 DUP4 ADD DUP5 PUSH2 0x13A9 JUMP JUMPDEST SWAP3 SWAP2 POP POP JUMP JUMPDEST PUSH0 DUP2 MLOAD SWAP1 POP SWAP2 SWAP1 POP JUMP JUMPDEST PUSH0 DUP3 DUP3 MSTORE PUSH1 0x20 DUP3 ADD SWAP1 POP SWAP3 SWAP2 POP POP JUMP JUMPDEST DUP3 DUP2 DUP4 MCOPY PUSH0 DUP4 DUP4 ADD MSTORE POP POP POP JUMP JUMPDEST PUSH0 PUSH1 0x1F NOT PUSH1 0x1F DUP4 ADD AND SWAP1 POP SWAP2 SWAP1 POP JUMP JUMPDEST PUSH0 PUSH2 0x1413 DUP3 PUSH2 0x13D1 JUMP JUMPDEST PUSH2 0x141D DUP2 DUP6 PUSH2 0x13DB JUMP JUMPDEST SWAP4 POP PUSH2 0x142D DUP2 DUP6 PUSH1 0x20 DUP7 ADD PUSH2 0x13EB JUMP JUMPDEST PUSH2 0x1436 DUP2 PUSH2 0x13F9 JUMP JUMPDEST DUP5 ADD SWAP2 POP POP SWAP3 SWAP2 POP POP JUMP JUMPDEST PUSH0 PUSH1 0xA0 DUP3 ADD SWAP1 POP DUP2 DUP2 SUB PUSH0 DUP4 ADD MSTORE PUSH2 0x1459 DUP2 DUP9 PUSH2 0x1409 JUMP JUMPDEST SWAP1 POP DUP2 DUP2 SUB PUSH1 0x20 DUP4 ADD MSTORE PUSH2 0x146D DUP2 DUP8 PUSH2 0x1409 JUMP JUMPDEST SWAP1 POP PUSH2 0x147C PUSH1 0x40 DUP4 ADD DUP7 PUSH2 0x13A9 JUMP JUMPDEST PUSH2 0x1489 PUSH1 0x60 DUP4 ADD DUP6 PUSH2 0x13A9 JUMP JUMPDEST PUSH2 0x1496 PUSH1 0x80 DUP4 ADD DUP5 PUSH2 0x12AA JUMP JUMPDEST SWAP7 SWAP6 POP POP POP POP POP POP JUMP JUMPDEST PUSH0 PUSH2 0xFFFF DUP3 AND SWAP1 POP SWAP2 SWAP1 POP JUMP JUMPDEST PUSH2 0x14B6 DUP2 PUSH2 0x14A0 JUMP JUMPDEST DUP3 MSTORE POP POP JUMP JUMPDEST PUSH0 PUSH1 0xA0 DUP3 ADD SWAP1 POP DUP2 DUP2 SUB PUSH0 DUP4 ADD MSTORE PUSH2 0x14D4 DUP2 DUP9 PUSH2 0x1409 JUMP JUMPDEST SWAP1 POP DUP2 DUP2 SUB PUSH1 0x20 DUP4 ADD MSTORE PUSH2 0x14E8 DUP2 DUP8 PUSH2 0x1409 JUMP JUMPDEST SWAP1 POP PUSH2 0x14F7 PUSH1 0x40 DUP4 ADD DUP7 PUSH2 0x14AD JUMP JUMPDEST PUSH2 0x1504 PUSH1 0x60 DUP4 ADD DUP6 PUSH2 0x13A9 JUMP JUMPDEST PUSH2 0x1511 PUSH1 0x80 DUP4 ADD DUP5 PUSH2 0x12AA JUMP JUMPDEST SWAP7 SWAP6 POP POP POP POP POP POP JUMP JUMPDEST PUSH0 PUSH20 0xFFFFFFFFFFFFFFFFFFFFFFFFFFFFFFFFFFFFFFFF DUP3 AND SWAP1 POP SWAP2 SWAP1 POP JUMP JUMPDEST PUSH0 PUSH2 0x1544 DUP3 PUSH2 0x151B JUMP JUMPDEST SWAP1 POP SWAP2 SWAP1 POP JUMP JUMPDEST PUSH2 0x1554 DUP2 PUSH2 0x153A JUMP JUMPDEST DUP3 MSTORE POP POP JUMP JUMPDEST PUSH0 PUSH1 0x20 DUP3 ADD SWAP1 POP PUSH2 0x156D PUSH0 DUP4 ADD DUP5 PUSH2 0x154B JUMP JUMPDEST SWAP3 SWAP2 POP POP JUMP JUMPDEST PUSH0 DUP1 REVERT JUMPDEST PUSH0 DUP1 REVERT JUMPDEST PUSH32 0x4E487B7100000000000000000000000000000000000000000000000000000000 PUSH0 MSTORE PUSH1 0x41 PUSH1 0x4 MSTORE PUSH1 0x24 PUSH0 REVERT JUMPDEST PUSH2 0x15B1 DUP3 PUSH2 0x13F9 JUMP JUMPDEST DUP2 ADD DUP2 DUP2 LT PUSH8 0xFFFFFFFFFFFFFFFF DUP3 GT OR ISZERO PUSH2 0x15D0 JUMPI PUSH2 0x15CF PUSH2 0x157B JUMP JUMPDEST JUMPDEST DUP1 PUSH1 0x40 MSTORE POP POP POP JUMP JUMPDEST PUSH0 PUSH2 0x15E2 PUSH2 0x1230 JUMP JUMPDEST SWAP1 POP PUSH2 0x15EE DUP3 DUP3 PUSH2 0x15A8 JUMP JUMPDEST SWAP2 SWAP1 POP JUMP JUMPDEST PUSH0 PUSH8 0xFFFFFFFFFFFFFFFF DUP3 GT ISZERO PUSH2 0x160D JUMPI PUSH2 0x160C PUSH2 0x157B JUMP JUMPDEST JUMPDEST PUSH2 0x1616 DUP3 PUSH2 0x13F9 JUMP JUMPDEST SWAP1 POP PUSH1 0x20 DUP2 ADD SWAP1 POP SWAP2 SWAP1 POP JUMP JUMPDEST DUP3 DUP2 DUP4 CALLDATACOPY PUSH0 DUP4 DUP4 ADD MSTORE POP POP POP JUMP JUMPDEST PUSH0 PUSH2 0x1643 PUSH2 0x163E DUP5 PUSH2 0x15F3 JUMP JUMPDEST PUSH2 0x15D9 JUMP JUMPDEST SWAP1 POP DUP3 DUP2 MSTORE PUSH1 0x20 DUP2 ADD DUP5 DUP5 DUP5 ADD GT ISZERO PUSH2 0x165F JUMPI PUSH2 0x165E PUSH2 0x1577 JUMP JUMPDEST JUMPDEST PUSH2 0x166A DUP5 DUP3 DUP6 PUSH2 0x1623 JUMP JUMPDEST POP SWAP4 SWAP3 POP POP POP JUMP JUMPDEST PUSH0 DUP3 PUSH1 0x1F DUP4 ADD SLT PUSH2 0x1686 JUMPI PUSH2 0x1685 PUSH2 0x1573 JUMP JUMPDEST JUMPDEST DUP2 CALLDATALOAD PUSH2 0x1696 DUP5 DUP3 PUSH1 0x20 DUP7 ADD PUSH2 0x1631 JUMP JUMPDEST SWAP2 POP POP SWAP3 SWAP2 POP POP JUMP JUMPDEST PUSH2 0x16A8 DUP2 PUSH2 0x14A0 JUMP JUMPDEST DUP2 EQ PUSH2 0x16B2 JUMPI PUSH0 DUP1 REVERT JUMPDEST POP JUMP JUMPDEST PUSH0 DUP2 CALLDATALOAD SWAP1 POP PUSH2 0x16C3 DUP2 PUSH2 0x169F JUMP JUMPDEST SWAP3 SWAP2 POP POP JUMP JUMPDEST PUSH0 DUP1 PUSH0 DUP1 PUSH0 PUSH1 0xA0 DUP7 DUP9 SUB SLT ISZERO PUSH2 0x16E2 JUMPI PUSH2 0x16E1 PUSH2 0x1239 JUMP JUMPDEST JUMPDEST PUSH0 PUSH2 0x16EF DUP9 DUP3 DUP10 ADD PUSH2 0x1260 JUMP JUMPDEST SWAP6 POP POP PUSH1 0x20 DUP7 ADD CALLDATALOAD PUSH8 0xFFFFFFFFFFFFFFFF DUP2 GT ISZERO PUSH2 0x1710 JUMPI PUSH2 0x170F PUSH2 0x123D JUMP JUMPDEST JUMPDEST PUSH2 0x171C DUP9 DUP3 DUP10 ADD PUSH2 0x1672 JUMP JUMPDEST SWAP5 POP POP PUSH1 0x40 DUP7 ADD CALLDATALOAD PUSH8 0xFFFFFFFFFFFFFFFF DUP2 GT ISZERO PUSH2 0x173D JUMPI PUSH2 0x173C PUSH2 0x123D JUMP JUMPDEST JUMPDEST PUSH2 0x1749 DUP9 DUP3 DUP10 ADD PUSH2 0x1672 JUMP JUMPDEST SWAP4 POP POP PUSH1 0x60 PUSH2 0x175A DUP9 DUP3 DUP10 ADD PUSH2 0x1260 JUMP JUMPDEST SWAP3 POP POP PUSH1 0x80 PUSH2 0x176B DUP9 DUP3 DUP10 ADD PUSH2 0x16B5 JUMP JUMPDEST SWAP2 POP POP SWAP3 SWAP6 POP SWAP3 SWAP6 SWAP1 SWAP4 POP JUMP JUMPDEST PUSH2 0x1781 DUP2 PUSH2 0x153A JUMP JUMPDEST DUP2 EQ PUSH2 0x178B JUMPI PUSH0 DUP1 REVERT JUMPDEST POP JUMP JUMPDEST PUSH0 DUP2 CALLDATALOAD SWAP1 POP PUSH2 0x179C DUP2 PUSH2 0x1778 JUMP JUMPDEST SWAP3 SWAP2 POP POP JUMP JUMPDEST PUSH0 PUSH1 0x20 DUP3 DUP5 SUB SLT ISZERO PUSH2 0x17B7 JUMPI PUSH2 0x17B6 PUSH2 0x1239 JUMP JUMPDEST JUMPDEST PUSH0 PUSH2 0x17C4 DUP5 DUP3 DUP6 ADD PUSH2 0x178E JUMP JUMPDEST SWAP2 POP POP SWAP3 SWAP2 POP POP JUMP JUMPDEST PUSH0 DUP1 PUSH0 PUSH1 0x60 DUP5 DUP7 SUB SLT ISZERO PUSH2 0x17E4 JUMPI PUSH2 0x17E3 PUSH2 0x1239 JUMP JUMPDEST JUMPDEST PUSH0 PUSH2 0x17F1 DUP7 DUP3 DUP8 ADD PUSH2 0x1260 JUMP JUMPDEST SWAP4 POP POP PUSH1 0x20 PUSH2 0x1802 DUP7 DUP3 DUP8 ADD PUSH2 0x1260 JUMP JUMPDEST SWAP3 POP POP PUSH1 0x40 PUSH2 0x1813 DUP7 DUP3 DUP8 ADD PUSH2 0x1260 JUMP JUMPDEST SWAP2 POP POP SWAP3 POP SWAP3 POP SWAP3 JUMP JUMPDEST PUSH0 PUSH8 0xFFFFFFFFFFFFFFFF DUP3 GT ISZERO PUSH2 0x1837 JUMPI PUSH2 0x1836 PUSH2 0x157B JUMP JUMPDEST JUMPDEST PUSH1 0x20 DUP3 MUL SWAP1 POP PUSH1 0x20 DUP2 ADD SWAP1 POP SWAP2 SWAP1 POP JUMP JUMPDEST PUSH0 DUP1 REVERT JUMPDEST PUSH0 PUSH2 0x185E PUSH2 0x1859 DUP5 PUSH2 0x181D JUMP JUMPDEST PUSH2 0x15D9 JUMP JUMPDEST SWAP1 POP DUP1 DUP4 DUP3 MSTORE PUSH1 0x20 DUP3 ADD SWAP1 POP PUSH1 0x20 DUP5 MUL DUP4 ADD DUP6 DUP2 GT ISZERO PUSH2 0x1881 JUMPI PUSH2 0x1880 PUSH2 0x1848 JUMP JUMPDEST JUMPDEST DUP4 JUMPDEST DUP2 DUP2 LT ISZERO PUSH2 0x18AA JUMPI DUP1 PUSH2 0x1896 DUP9 DUP3 PUSH2 0x1260 JUMP JUMPDEST DUP5 MSTORE PUSH1 0x20 DUP5 ADD SWAP4 POP POP PUSH1 0x20 DUP2 ADD SWAP1 POP PUSH2 0x1883 JUMP JUMPDEST POP POP POP SWAP4 SWAP3 POP POP POP JUMP JUMPDEST PUSH0 DUP3 PUSH1 0x1F DUP4 ADD SLT PUSH2 0x18C8 JUMPI PUSH2 0x18C7 PUSH2 0x1573 JUMP JUMPDEST JUMPDEST DUP2 CALLDATALOAD PUSH2 0x18D8 DUP5 DUP3 PUSH1 0x20 DUP7 ADD PUSH2 0x184C JUMP JUMPDEST SWAP2 POP POP SWAP3 SWAP2 POP POP JUMP JUMPDEST PUSH0 PUSH1 0x20 DUP3 DUP5 SUB SLT ISZERO PUSH2 0x18F6 JUMPI PUSH2 0x18F5 PUSH2 0x1239 JUMP JUMPDEST JUMPDEST PUSH0 DUP3 ADD CALLDATALOAD PUSH8 0xFFFFFFFFFFFFFFFF DUP2 GT ISZERO PUSH2 0x1913 JUMPI PUSH2 0x1912 PUSH2 0x123D JUMP JUMPDEST JUMPDEST PUSH2 0x191F DUP5 DUP3 DUP6 ADD PUSH2 0x18B4 JUMP JUMPDEST SWAP2 POP POP SWAP3 SWAP2 POP POP JUMP JUMPDEST PUSH32 0x5468697320426F6F6B20446F6573204E6F742045786973742100000000000000 PUSH0 DUP3 ADD MSTORE POP JUMP JUMPDEST PUSH0 PUSH2 0x195C PUSH1 0x19 DUP4 PUSH2 0x13DB JUMP JUMPDEST SWAP2 POP PUSH2 0x1967 DUP3 PUSH2 0x1928 JUMP JUMPDEST PUSH1 0x20 DUP3 ADD SWAP1 POP SWAP2 SWAP1 POP JUMP JUMPDEST PUSH0 PUSH1 0x20 DUP3 ADD SWAP1 POP DUP2 DUP2 SUB PUSH0 DUP4 ADD MSTORE PUSH2 0x1989 DUP2 PUSH2 0x1950 JUMP JUMPDEST SWAP1 POP SWAP2 SWAP1 POP JUMP JUMPDEST PUSH32 0x4E487B7100000000000000000000000000000000000000000000000000000000 PUSH0 MSTORE PUSH1 0x22 PUSH1 0x4 MSTORE PUSH1 0x24 PUSH0 REVERT JUMPDEST PUSH0 PUSH1 0x2 DUP3 DIV SWAP1 POP PUSH1 0x1 DUP3 AND DUP1 PUSH2 0x19D4 JUMPI PUSH1 0x7F DUP3 AND SWAP2 POP JUMPDEST PUSH1 0x20 DUP3 LT DUP2 SUB PUSH2 0x19E7 JUMPI PUSH2 0x19E6 PUSH2 0x1990 JUMP JUMPDEST JUMPDEST POP SWAP2 SWAP1 POP JUMP JUMPDEST PUSH32 0x426F6F6B20646F6573206E6F7420657869737400000000000000000000000000 PUSH0 DUP3 ADD MSTORE POP JUMP JUMPDEST PUSH0 PUSH2 0x1A21 PUSH1 0x13 DUP4 PUSH2 0x13DB JUMP JUMPDEST SWAP2 POP PUSH2 0x1A2C DUP3 PUSH2 0x19ED JUMP JUMPDEST PUSH1 0x20 DUP3 ADD SWAP1 POP SWAP2 SWAP1 POP JUMP JUMPDEST PUSH0 PUSH1 0x20 DUP3 ADD SWAP1 POP DUP2 DUP2 SUB PUSH0 DUP4 ADD MSTORE PUSH2 0x1A4E DUP2 PUSH2 0x1A15 JUMP JUMPDEST SWAP1 POP SWAP2 SWAP1 POP JUMP JUMPDEST PUSH32 0x4E487B7100000000000000000000000000000000000000000000000000000000 PUSH0 MSTORE PUSH1 0x32 PUSH1 0x4 MSTORE PUSH1 0x24 PUSH0 REVERT JUMPDEST PUSH32 0x4E487B7100000000000000000000000000000000000000000000000000000000 PUSH0 MSTORE PUSH1 0x11 PUSH1 0x4 MSTORE PUSH1 0x24 PUSH0 REVERT JUMPDEST PUSH0 PUSH2 0x1AB9 DUP3 PUSH2 0x1241 JUMP JUMPDEST SWAP2 POP PUSH2 0x1AC4 DUP4 PUSH2 0x1241 JUMP JUMPDEST SWAP3 POP DUP3 DUP3 SUB SWAP1 POP DUP2 DUP2 GT ISZERO PUSH2 0x1ADC JUMPI PUSH2 0x1ADB PUSH2 0x1A82 JUMP JUMPDEST JUMPDEST SWAP3 SWAP2 POP POP JUMP JUMPDEST PUSH32 0x4E487B7100000000000000000000000000000000000000000000000000000000 PUSH0 MSTORE PUSH1 0x31 PUSH1 0x4 MSTORE PUSH1 0x24 PUSH0 REVERT JUMPDEST PUSH32 0x43414E4E4F542041444420424F4F4B20495420414C5245414459204558495354 PUSH0 DUP3 ADD MSTORE PUSH32 0x5300000000000000000000000000000000000000000000000000000000000000 PUSH1 0x20 DUP3 ADD MSTORE POP JUMP JUMPDEST PUSH0 PUSH2 0x1B69 PUSH1 0x21 DUP4 PUSH2 0x13DB JUMP JUMPDEST SWAP2 POP PUSH2 0x1B74 DUP3 PUSH2 0x1B0F JUMP JUMPDEST PUSH1 0x40 DUP3 ADD SWAP1 POP SWAP2 SWAP1 POP JUMP JUMPDEST PUSH0 PUSH1 0x20 DUP3 ADD SWAP1 POP DUP2 DUP2 SUB PUSH0 DUP4 ADD MSTORE PUSH2 0x1B96 DUP2 PUSH2 0x1B5D JUMP JUMPDEST SWAP1 POP SWAP2 SWAP1 POP JUMP JUMPDEST PUSH0 DUP2 SWAP1 POP DUP2 PUSH0 MSTORE PUSH1 0x20 PUSH0 KECCAK256 SWAP1 POP SWAP2 SWAP1 POP JUMP JUMPDEST PUSH0 PUSH1 0x20 PUSH1 0x1F DUP4 ADD DIV SWAP1 POP SWAP2 SWAP1 POP JUMP JUMPDEST PUSH0 DUP3 DUP3 SHL SWAP1 POP SWAP3 SWAP2 POP POP JUMP JUMPDEST PUSH0 PUSH1 0x8 DUP4 MUL PUSH2 0x1BF9 PUSH32 0xFFFFFFFFFFFFFFFFFFFFFFFFFFFFFFFFFFFFFFFFFFFFFFFFFFFFFFFFFFFFFFFF DUP3 PUSH2 0x1BBE JUMP JUMPDEST PUSH2 0x1C03 DUP7 DUP4 PUSH2 0x1BBE JUMP JUMPDEST SWAP6 POP DUP1 NOT DUP5 AND SWAP4 POP DUP1 DUP7 AND DUP5 OR SWAP3 POP POP POP SWAP4 SWAP3 POP POP POP JUMP JUMPDEST PUSH0 DUP2 SWAP1 POP SWAP2 SWAP1 POP JUMP JUMPDEST PUSH0 PUSH2 0x1C3E PUSH2 0x1C39 PUSH2 0x1C34 DUP5 PUSH2 0x1241 JUMP JUMPDEST PUSH2 0x1C1B JUMP JUMPDEST PUSH2 0x1241 JUMP JUMPDEST SWAP1 POP SWAP2 SWAP1 POP JUMP JUMPDEST PUSH0 DUP2 SWAP1 POP SWAP2 SWAP1 POP JUMP JUMPDEST PUSH2 0x1C57 DUP4 PUSH2 0x1C24 JUMP JUMPDEST PUSH2 0x1C6B PUSH2 0x1C63 DUP3 PUSH2 0x1C45 JUMP JUMPDEST DUP5 DUP5 SLOAD PUSH2 0x1BCA JUMP JUMPDEST DUP3 SSTORE POP POP POP POP JUMP JUMPDEST PUSH0 SWAP1 JUMP JUMPDEST PUSH2 0x1C7F PUSH2 0x1C73 JUMP JUMPDEST PUSH2 0x1C8A DUP2 DUP5 DUP5 PUSH2 0x1C4E JUMP JUMPDEST POP POP POP JUMP JUMPDEST JUMPDEST DUP2 DUP2 LT ISZERO PUSH2 0x1CAD JUMPI PUSH2 0x1CA2 PUSH0 DUP3 PUSH2 0x1C77 JUMP JUMPDEST PUSH1 0x1 DUP2 ADD SWAP1 POP PUSH2 0x1C90 JUMP JUMPDEST POP POP JUMP JUMPDEST PUSH1 0x1F DUP3 GT ISZERO PUSH2 0x1CF2 JUMPI PUSH2 0x1CC3 DUP2 PUSH2 0x1B9D JUMP JUMPDEST PUSH2 0x1CCC DUP5 PUSH2 0x1BAF JUMP JUMPDEST DUP2 ADD PUSH1 0x20 DUP6 LT ISZERO PUSH2 0x1CDB JUMPI DUP2 SWAP1 POP JUMPDEST PUSH2 0x1CEF PUSH2 0x1CE7 DUP6 PUSH2 0x1BAF JUMP JUMPDEST DUP4 ADD DUP3 PUSH2 0x1C8F JUMP JUMPDEST POP POP JUMPDEST POP POP POP JUMP JUMPDEST PUSH0 DUP3 DUP3 SHR SWAP1 POP SWAP3 SWAP2 POP POP JUMP JUMPDEST PUSH0 PUSH2 0x1D12 PUSH0 NOT DUP5 PUSH1 0x8 MUL PUSH2 0x1CF7 JUMP JUMPDEST NOT DUP1 DUP4 AND SWAP2 POP POP SWAP3 SWAP2 POP POP JUMP JUMPDEST PUSH0 PUSH2 0x1D2A DUP4 DUP4 PUSH2 0x1D03 JUMP JUMPDEST SWAP2 POP DUP3 PUSH1 0x2 MUL DUP3 OR SWAP1 POP SWAP3 SWAP2 POP POP JUMP JUMPDEST PUSH2 0x1D43 DUP3 PUSH2 0x13D1 JUMP JUMPDEST PUSH8 0xFFFFFFFFFFFFFFFF DUP2 GT ISZERO PUSH2 0x1D5C JUMPI PUSH2 0x1D5B PUSH2 0x157B JUMP JUMPDEST JUMPDEST PUSH2 0x1D66 DUP3 SLOAD PUSH2 0x19BD JUMP JUMPDEST PUSH2 0x1D71 DUP3 DUP3 DUP6 PUSH2 0x1CB1 JUMP JUMPDEST PUSH0 PUSH1 0x20 SWAP1 POP PUSH1 0x1F DUP4 GT PUSH1 0x1 DUP2 EQ PUSH2 0x1DA2 JUMPI PUSH0 DUP5 ISZERO PUSH2 0x1D90 JUMPI DUP3 DUP8 ADD MLOAD SWAP1 POP JUMPDEST PUSH2 0x1D9A DUP6 DUP3 PUSH2 0x1D1F JUMP JUMPDEST DUP7 SSTORE POP PUSH2 0x1E01 JUMP JUMPDEST PUSH1 0x1F NOT DUP5 AND PUSH2 0x1DB0 DUP7 PUSH2 0x1B9D JUMP JUMPDEST PUSH0 JUMPDEST DUP3 DUP2 LT ISZERO PUSH2 0x1DD7 JUMPI DUP5 DUP10 ADD MLOAD DUP3 SSTORE PUSH1 0x1 DUP3 ADD SWAP2 POP PUSH1 0x20 DUP6 ADD SWAP5 POP PUSH1 0x20 DUP2 ADD SWAP1 POP PUSH2 0x1DB2 JUMP JUMPDEST DUP7 DUP4 LT ISZERO PUSH2 0x1DF4 JUMPI DUP5 DUP10 ADD MLOAD PUSH2 0x1DF0 PUSH1 0x1F DUP10 AND DUP3 PUSH2 0x1D03 JUMP JUMPDEST DUP4 SSTORE POP JUMPDEST PUSH1 0x1 PUSH1 0x2 DUP9 MUL ADD DUP9 SSTORE POP POP POP JUMPDEST POP POP POP POP POP POP JUMP JUMPDEST PUSH0 PUSH2 0x1E23 PUSH2 0x1E1E PUSH2 0x1E19 DUP5 PUSH2 0x14A0 JUMP JUMPDEST PUSH2 0x1C1B JUMP JUMPDEST PUSH2 0x1241 JUMP JUMPDEST SWAP1 POP SWAP2 SWAP1 POP JUMP JUMPDEST PUSH2 0x1E33 DUP2 PUSH2 0x1E09 JUMP JUMPDEST DUP3 MSTORE POP POP JUMP JUMPDEST PUSH0 PUSH1 0x80 DUP3 ADD SWAP1 POP DUP2 DUP2 SUB PUSH0 DUP4 ADD MSTORE PUSH2 0x1E51 DUP2 DUP8 PUSH2 0x1409 JUMP JUMPDEST SWAP1 POP DUP2 DUP2 SUB PUSH1 0x20 DUP4 ADD MSTORE PUSH2 0x1E65 DUP2 DUP7 PUSH2 0x1409 JUMP JUMPDEST SWAP1 POP PUSH2 0x1E74 PUSH1 0x40 DUP4 ADD DUP6 PUSH2 0x13A9 JUMP JUMPDEST PUSH2 0x1E81 PUSH1 0x60 DUP4 ADD DUP5 PUSH2 0x1E2A JUMP JUMPDEST SWAP6 SWAP5 POP POP POP POP POP JUMP JUMPDEST PUSH32 0x5468697320626F6F6B206973206E6F7420617661696C61626C65000000000000 PUSH0 DUP3 ADD MSTORE POP JUMP JUMPDEST PUSH0 PUSH2 0x1EBE PUSH1 0x1A DUP4 PUSH2 0x13DB JUMP JUMPDEST SWAP2 POP PUSH2 0x1EC9 DUP3 PUSH2 0x1E8A JUMP JUMPDEST PUSH1 0x20 DUP3 ADD SWAP1 POP SWAP2 SWAP1 POP JUMP JUMPDEST PUSH0 PUSH1 0x20 DUP3 ADD SWAP1 POP DUP2 DUP2 SUB PUSH0 DUP4 ADD MSTORE PUSH2 0x1EEB DUP2 PUSH2 0x1EB2 JUMP JUMPDEST SWAP1 POP SWAP2 SWAP1 POP JUMP JUMPDEST PUSH32 0x4E6F7420656E6F7567682073746F636B20617661696C61626C65000000000000 PUSH0 DUP3 ADD MSTORE POP JUMP JUMPDEST PUSH0 PUSH2 0x1F26 PUSH1 0x1A DUP4 PUSH2 0x13DB JUMP JUMPDEST SWAP2 POP PUSH2 0x1F31 DUP3 PUSH2 0x1EF2 JUMP JUMPDEST PUSH1 0x20 DUP3 ADD SWAP1 POP SWAP2 SWAP1 POP JUMP JUMPDEST PUSH0 PUSH1 0x20 DUP3 ADD SWAP1 POP DUP2 DUP2 SUB PUSH0 DUP4 ADD MSTORE PUSH2 0x1F53 DUP2 PUSH2 0x1F1A JUMP JUMPDEST SWAP1 POP SWAP2 SWAP1 POP JUMP JUMPDEST PUSH0 PUSH2 0x1F64 DUP3 PUSH2 0x1241 JUMP JUMPDEST SWAP2 POP PUSH2 0x1F6F DUP4 PUSH2 0x1241 JUMP JUMPDEST SWAP3 POP DUP3 DUP3 MUL PUSH2 0x1F7D DUP2 PUSH2 0x1241 JUMP JUMPDEST SWAP2 POP DUP3 DUP3 DIV DUP5 EQ DUP4 ISZERO OR PUSH2 0x1F94 JUMPI PUSH2 0x1F93 PUSH2 0x1A82 JUMP JUMPDEST JUMPDEST POP SWAP3 SWAP2 POP POP JUMP JUMPDEST PUSH32 0x496E636F7272656374207061796D656E7420616D6F756E740000000000000000 PUSH0 DUP3 ADD MSTORE POP JUMP JUMPDEST PUSH0 PUSH2 0x1FCF PUSH1 0x18 DUP4 PUSH2 0x13DB JUMP JUMPDEST SWAP2 POP PUSH2 0x1FDA DUP3 PUSH2 0x1F9B JUMP JUMPDEST PUSH1 0x20 DUP3 ADD SWAP1 POP SWAP2 SWAP1 POP JUMP JUMPDEST PUSH0 PUSH1 0x20 DUP3 ADD SWAP1 POP DUP2 DUP2 SUB PUSH0 DUP4 ADD MSTORE PUSH2 0x1FFC DUP2 PUSH2 0x1FC3 JUMP JUMPDEST SWAP1 POP SWAP2 SWAP1 POP JUMP JUMPDEST PUSH0 PUSH2 0x200D DUP3 PUSH2 0x1241 JUMP JUMPDEST SWAP2 POP PUSH2 0x2018 DUP4 PUSH2 0x1241 JUMP JUMPDEST SWAP3 POP DUP3 DUP3 ADD SWAP1 POP DUP1 DUP3 GT ISZERO PUSH2 0x2030 JUMPI PUSH2 0x202F PUSH2 0x1A82 JUMP JUMPDEST JUMPDEST SWAP3 SWAP2 POP POP JUMP JUMPDEST PUSH0 PUSH1 0x40 DUP3 ADD SWAP1 POP PUSH2 0x2049 PUSH0 DUP4 ADD DUP6 PUSH2 0x13A9 JUMP JUMPDEST PUSH2 0x2056 PUSH1 0x20 DUP4 ADD DUP5 PUSH2 0x13A9 JUMP JUMPDEST SWAP4 SWAP3 POP POP POP JUMP INVALID LOG2 PUSH5 0x6970667358 0x22 SLT KECCAK256 RETURNDATACOPY 0x23 ISZERO PUSH20 0xC7294AF9E12521D2E16605CDF5D694D2E38FC4B5 COINBASE 0xBB 0xA5 0x4F POP EXTCODECOPY 0x1F RETURNDATASIZE PUSH5 0x736F6C6343 STOP ADDMOD BYTE STOP CALLER "
				},
				"gasEstimates": {
					"creation": {
						"codeDepositCost": "1667800",
						"executionCost": "infinite",
						"totalCost": "infinite"
					},
					"external": {
						"addBook(uint256,string,string,uint256,uint16)": "infinite",
						"bestseller(uint256)": "2809",
						"bookIds(uint256)": "infinite",
						"books(uint256)": "infinite",
						"buyBook(uint256,uint256,uint256)": "infinite",
						"getAllBooks()": "infinite",
						"getBooks(uint256)": "infinite",
						"getOwnerBalance()": "5130",
						"getTotalBooksSold()": "2477",
						"isBestSeller(uint256)": "2876",
						"markBookAsBestSeller(uint256)": "infinite",
						"owner()": "2538",
						"removeBook(uint256)": "infinite",
						"removeBooks(uint256[])": "infinite",
						"renounceOwnership()": "infinite",
						"transferOwnership(address)": "infinite"
					}
				},
				"methodIdentifiers": {
					"addBook(uint256,string,string,uint256,uint16)": "d0289085",
					"bestseller(uint256)": "1f9b7ad8",
					"bookIds(uint256)": "513073b8",
					"books(uint256)": "68744046",
					"buyBook(uint256,uint256,uint256)": "f346e2b7",
					"getAllBooks()": "354528e8",
					"getBooks(uint256)": "5ac3e19e",
					"getOwnerBalance()": "590791f2",
					"getTotalBooksSold()": "9bd30883",
					"isBestSeller(uint256)": "f60560de",
					"markBookAsBestSeller(uint256)": "3bf561ed",
					"owner()": "8da5cb5b",
					"removeBook(uint256)": "bec0d799",
					"removeBooks(uint256[])": "f98520de",
					"renounceOwnership()": "715018a6",
					"transferOwnership(address)": "f2fde38b"
				}
			},
			"storageLayout": {
				"storage": [
					{
						"astId": 8,
						"contract": "contracts/AdvancedBookstore.sol:AdvancedBookstore",
						"label": "_owner",
						"offset": 0,
						"slot": "0",
						"type": "t_address"
					},
					{
						"astId": 246,
						"contract": "contracts/AdvancedBookstore.sol:AdvancedBookstore",
						"label": "totalBooksSold",
						"offset": 0,
						"slot": "1",
						"type": "t_uint256"
					},
					{
						"astId": 270,
						"contract": "contracts/AdvancedBookstore.sol:AdvancedBookstore",
						"label": "books",
						"offset": 0,
						"slot": "2",
						"type": "t_mapping(t_uint256,t_struct(Book)265_storage)"
					},
					{
						"astId": 273,
						"contract": "contracts/AdvancedBookstore.sol:AdvancedBookstore",
						"label": "bookIds",
						"offset": 0,
						"slot": "3",
						"type": "t_array(t_uint256)dyn_storage"
					},
					{
						"astId": 186,
						"contract": "contracts/AdvancedBookstore.sol:AdvancedBookstore",
						"label": "bestseller",
						"offset": 0,
						"slot": "4",
						"type": "t_mapping(t_uint256,t_bool)"
					}
				],
				"types": {
					"t_address": {
						"encoding": "inplace",
						"label": "address",
						"numberOfBytes": "20"
					},
					"t_array(t_uint256)dyn_storage": {
						"base": "t_uint256",
						"encoding": "dynamic_array",
						"label": "uint256[]",
						"numberOfBytes": "32"
					},
					"t_bool": {
						"encoding": "inplace",
						"label": "bool",
						"numberOfBytes": "1"
					},
					"t_mapping(t_uint256,t_bool)": {
						"encoding": "mapping",
						"key": "t_uint256",
						"label": "mapping(uint256 => bool)",
						"numberOfBytes": "32",
						"value": "t_bool"
					},
					"t_mapping(t_uint256,t_struct(Book)265_storage)": {
						"encoding": "mapping",
						"key": "t_uint256",
						"label": "mapping(uint256 => struct BookStore.Book)",
						"numberOfBytes": "32",
						"value": "t_struct(Book)265_storage"
					},
					"t_string_storage": {
						"encoding": "bytes",
						"label": "string",
						"numberOfBytes": "32"
					},
					"t_struct(Book)265_storage": {
						"encoding": "inplace",
						"label": "struct BookStore.Book",
						"members": [
							{
								"astId": 256,
								"contract": "contracts/AdvancedBookstore.sol:AdvancedBookstore",
								"label": "title",
								"offset": 0,
								"slot": "0",
								"type": "t_string_storage"
							},
							{
								"astId": 258,
								"contract": "contracts/AdvancedBookstore.sol:AdvancedBookstore",
								"label": "author",
								"offset": 0,
								"slot": "1",
								"type": "t_string_storage"
							},
							{
								"astId": 260,
								"contract": "contracts/AdvancedBookstore.sol:AdvancedBookstore",
								"label": "price",
								"offset": 0,
								"slot": "2",
								"type": "t_uint16"
							},
							{
								"astId": 262,
								"contract": "contracts/AdvancedBookstore.sol:AdvancedBookstore",
								"label": "stock",
								"offset": 0,
								"slot": "3",
								"type": "t_uint256"
							},
							{
								"astId": 264,
								"contract": "contracts/AdvancedBookstore.sol:AdvancedBookstore",
								"label": "isAvailable",
								"offset": 0,
								"slot": "4",
								"type": "t_bool"
							}
						],
						"numberOfBytes": "160"
					},
					"t_uint16": {
						"encoding": "inplace",
						"label": "uint16",
						"numberOfBytes": "2"
					},
					"t_uint256": {
						"encoding": "inplace",
						"label": "uint256",
						"numberOfBytes": "32"
					}
				}
			},
			"userdoc": {
				"kind": "user",
				"methods": {},
				"version": 1
			}
		}
	}
}