{
	"contracts/DAOProposal.sol": {
		"DaoProposal": {
			"abi": [
				{
					"anonymous": false,
					"inputs": [
						{
							"indexed": true,
							"internalType": "uint256",
							"name": "proposalID",
							"type": "uint256"
						},
						{
							"indexed": false,
							"internalType": "string",
							"name": "title",
							"type": "string"
						},
						{
							"indexed": true,
							"internalType": "address",
							"name": "owner",
							"type": "address"
						},
						{
							"indexed": false,
							"internalType": "uint256",
							"name": "timestamp",
							"type": "uint256"
						}
					],
					"name": "ProposalsCreated",
					"type": "event"
				},
				{
					"anonymous": false,
					"inputs": [
						{
							"indexed": true,
							"internalType": "uint256",
							"name": "proposalID",
							"type": "uint256"
						},
						{
							"indexed": true,
							"internalType": "address",
							"name": "voter",
							"type": "address"
						},
						{
							"indexed": false,
							"internalType": "enum DaoProposal.Vote",
							"name": "vote",
							"type": "uint8"
						},
						{
							"indexed": false,
							"internalType": "uint256",
							"name": "timestamp",
							"type": "uint256"
						}
					],
					"name": "VoteCasted",
					"type": "event"
				},
				{
					"inputs": [],
					"name": "ProposalCount",
					"outputs": [
						{
							"internalType": "uint256",
							"name": "",
							"type": "uint256"
						}
					],
					"stateMutability": "view",
					"type": "function"
				},
				{
					"inputs": [
						{
							"internalType": "uint256",
							"name": "",
							"type": "uint256"
						}
					],
					"name": "Proposals",
					"outputs": [
						{
							"internalType": "address",
							"name": "owner",
							"type": "address"
						},
						{
							"internalType": "string",
							"name": "title",
							"type": "string"
						},
						{
							"internalType": "string",
							"name": "description",
							"type": "string"
						},
						{
							"internalType": "uint256",
							"name": "proposalId",
							"type": "uint256"
						},
						{
							"internalType": "bool",
							"name": "executed",
							"type": "bool"
						},
						{
							"internalType": "uint256",
							"name": "votedYes",
							"type": "uint256"
						},
						{
							"internalType": "uint256",
							"name": "votedNo",
							"type": "uint256"
						},
						{
							"internalType": "string",
							"name": "startTime",
							"type": "string"
						},
						{
							"internalType": "string",
							"name": "endTime",
							"type": "string"
						}
					],
					"stateMutability": "view",
					"type": "function"
				},
				{
					"inputs": [
						{
							"internalType": "string",
							"name": "_title",
							"type": "string"
						},
						{
							"internalType": "string",
							"name": "_description",
							"type": "string"
						},
						{
							"internalType": "string",
							"name": "_startTime",
							"type": "string"
						},
						{
							"internalType": "string",
							"name": "_endTime",
							"type": "string"
						}
					],
					"name": "createProposal",
					"outputs": [
						{
							"internalType": "uint256",
							"name": "",
							"type": "uint256"
						}
					],
					"stateMutability": "nonpayable",
					"type": "function"
				},
				{
					"inputs": [
						{
							"internalType": "uint256",
							"name": "proposalID",
							"type": "uint256"
						},
						{
							"internalType": "enum DaoProposal.Vote",
							"name": "vote",
							"type": "uint8"
						}
					],
					"name": "voteOnProposal",
					"outputs": [],
					"stateMutability": "nonpayable",
					"type": "function"
				}
			],
			"devdoc": {
				"kind": "dev",
				"methods": {},
				"version": 1
			},
			"evm": {
				"assembly": "    /* \"contracts/DAOProposal.sol\":74:2272  contract DaoProposal {... */\n  mstore(0x40, 0x80)\n    /* \"contracts/DAOProposal.sol\":870:871  0 */\n  0x00\n    /* \"contracts/DAOProposal.sol\":839:871  uint256 public ProposalCount = 0 */\n  0x01\n  sstore\n    /* \"contracts/DAOProposal.sol\":74:2272  contract DaoProposal {... */\n  callvalue\n  dup1\n  iszero\n  tag_1\n  jumpi\n  0x00\n  dup1\n  revert\ntag_1:\n  pop\n  dataSize(sub_0)\n  dup1\n  dataOffset(sub_0)\n  0x00\n  codecopy\n  0x00\n  return\nstop\n\nsub_0: assembly {\n        /* \"contracts/DAOProposal.sol\":74:2272  contract DaoProposal {... */\n      mstore(0x40, 0x80)\n      callvalue\n      dup1\n      iszero\n      tag_1\n      jumpi\n      0x00\n      dup1\n      revert\n    tag_1:\n      pop\n      jumpi(tag_2, lt(calldatasize, 0x04))\n      shr(0xe0, calldataload(0x00))\n      dup1\n      0x2a689692\n      eq\n      tag_3\n      jumpi\n      dup1\n      0xbe747c1c\n      eq\n      tag_4\n      jumpi\n      dup1\n      0xd1dbe7d8\n      eq\n      tag_5\n      jumpi\n      dup1\n      0xefafb22e\n      eq\n      tag_6\n      jumpi\n    tag_2:\n      0x00\n      dup1\n      revert\n        /* \"contracts/DAOProposal.sol\":939:1622  function createProposal(string memory _title, string memory _description, string memory _startTime, string memory _endTime) ... */\n    tag_3:\n      tag_7\n      0x04\n      dup1\n      calldatasize\n      sub\n      dup2\n      add\n      swap1\n      tag_8\n      swap2\n      swap1\n      tag_9\n      jump\t// in\n    tag_8:\n      tag_10\n      jump\t// in\n    tag_7:\n      mload(0x40)\n      tag_11\n      swap2\n      swap1\n      tag_12\n      jump\t// in\n    tag_11:\n      mload(0x40)\n      dup1\n      swap2\n      sub\n      swap1\n      return\n        /* \"contracts/DAOProposal.sol\":839:871  uint256 public ProposalCount = 0 */\n    tag_4:\n      tag_13\n      tag_14\n      jump\t// in\n    tag_13:\n      mload(0x40)\n      tag_15\n      swap2\n      swap1\n      tag_12\n      jump\t// in\n    tag_15:\n      mload(0x40)\n      dup1\n      swap2\n      sub\n      swap1\n      return\n        /* \"contracts/DAOProposal.sol\":790:832  mapping(uint => Proposal) public Proposals */\n    tag_5:\n      tag_16\n      0x04\n      dup1\n      calldatasize\n      sub\n      dup2\n      add\n      swap1\n      tag_17\n      swap2\n      swap1\n      tag_18\n      jump\t// in\n    tag_17:\n      tag_19\n      jump\t// in\n    tag_16:\n      mload(0x40)\n      tag_20\n      swap10\n      swap9\n      swap8\n      swap7\n      swap6\n      swap5\n      swap4\n      swap3\n      swap2\n      swap1\n      tag_21\n      jump\t// in\n    tag_20:\n      mload(0x40)\n      dup1\n      swap2\n      sub\n      swap1\n      return\n        /* \"contracts/DAOProposal.sol\":1657:2240  function voteOnProposal(uint proposalID, Vote vote) external {... */\n    tag_6:\n      tag_22\n      0x04\n      dup1\n      calldatasize\n      sub\n      dup2\n      add\n      swap1\n      tag_23\n      swap2\n      swap1\n      tag_24\n      jump\t// in\n    tag_23:\n      tag_25\n      jump\t// in\n    tag_22:\n      stop\n        /* \"contracts/DAOProposal.sol\":939:1622  function createProposal(string memory _title, string memory _description, string memory _startTime, string memory _endTime) ... */\n    tag_10:\n        /* \"contracts/DAOProposal.sol\":1090:1097  uint256 */\n      0x00\n        /* \"contracts/DAOProposal.sol\":1116:1141  Proposal storage proposal */\n      dup1\n        /* \"contracts/DAOProposal.sol\":1144:1153  Proposals */\n      0x00\n        /* \"contracts/DAOProposal.sol\":1144:1168  Proposals[ProposalCount] */\n      dup1\n        /* \"contracts/DAOProposal.sol\":1154:1167  ProposalCount */\n      sload(0x01)\n        /* \"contracts/DAOProposal.sol\":1144:1168  Proposals[ProposalCount] */\n      dup2\n      mstore\n      0x20\n      add\n      swap1\n      dup2\n      mstore\n      0x20\n      add\n      0x00\n      keccak256\n        /* \"contracts/DAOProposal.sol\":1116:1168  Proposal storage proposal = Proposals[ProposalCount] */\n      swap1\n      pop\n        /* \"contracts/DAOProposal.sol\":1196:1206  msg.sender */\n      caller\n        /* \"contracts/DAOProposal.sol\":1179:1187  proposal */\n      dup2\n        /* \"contracts/DAOProposal.sol\":1179:1193  proposal.owner */\n      0x00\n      add\n      0x00\n        /* \"contracts/DAOProposal.sol\":1179:1206  proposal.owner = msg.sender */\n      0x0100\n      exp\n      dup2\n      sload\n      dup2\n      0xffffffffffffffffffffffffffffffffffffffff\n      mul\n      not\n      and\n      swap1\n      dup4\n      0xffffffffffffffffffffffffffffffffffffffff\n      and\n      mul\n      or\n      swap1\n      sstore\n      pop\n        /* \"contracts/DAOProposal.sol\":1239:1252  ProposalCount */\n      sload(0x01)\n        /* \"contracts/DAOProposal.sol\":1217:1225  proposal */\n      dup2\n        /* \"contracts/DAOProposal.sol\":1217:1236  proposal.proposalId */\n      0x03\n      add\n        /* \"contracts/DAOProposal.sol\":1217:1252  proposal.proposalId = ProposalCount */\n      dup2\n      swap1\n      sstore\n      pop\n        /* \"contracts/DAOProposal.sol\":1291:1297  _title */\n      dup6\n        /* \"contracts/DAOProposal.sol\":1274:1282  proposal */\n      dup2\n        /* \"contracts/DAOProposal.sol\":1274:1288  proposal.title */\n      0x01\n      add\n        /* \"contracts/DAOProposal.sol\":1274:1297  proposal.title = _title */\n      swap1\n      dup2\n      tag_27\n      swap2\n      swap1\n      tag_28\n      jump\t// in\n    tag_27:\n      pop\n        /* \"contracts/DAOProposal.sol\":1328:1333  false */\n      0x00\n        /* \"contracts/DAOProposal.sol\":1308:1316  proposal */\n      dup2\n        /* \"contracts/DAOProposal.sol\":1308:1325  proposal.executed */\n      0x04\n      add\n      0x00\n        /* \"contracts/DAOProposal.sol\":1308:1333  proposal.executed = false */\n      0x0100\n      exp\n      dup2\n      sload\n      dup2\n      0xff\n      mul\n      not\n      and\n      swap1\n      dup4\n      iszero\n      iszero\n      mul\n      or\n      swap1\n      sstore\n      pop\n        /* \"contracts/DAOProposal.sol\":1367:1379  _description */\n      dup5\n        /* \"contracts/DAOProposal.sol\":1344:1352  proposal */\n      dup2\n        /* \"contracts/DAOProposal.sol\":1344:1364  proposal.description */\n      0x02\n      add\n        /* \"contracts/DAOProposal.sol\":1344:1379  proposal.description = _description */\n      swap1\n      dup2\n      tag_29\n      swap2\n      swap1\n      tag_28\n      jump\t// in\n    tag_29:\n      pop\n        /* \"contracts/DAOProposal.sol\":1411:1421  _startTime */\n      dup4\n        /* \"contracts/DAOProposal.sol\":1390:1398  proposal */\n      dup2\n        /* \"contracts/DAOProposal.sol\":1390:1408  proposal.startTime */\n      0x07\n      add\n        /* \"contracts/DAOProposal.sol\":1390:1421  proposal.startTime = _startTime */\n      swap1\n      dup2\n      tag_30\n      swap2\n      swap1\n      tag_28\n      jump\t// in\n    tag_30:\n      pop\n        /* \"contracts/DAOProposal.sol\":1451:1459  _endTime */\n      dup3\n        /* \"contracts/DAOProposal.sol\":1432:1440  proposal */\n      dup2\n        /* \"contracts/DAOProposal.sol\":1432:1448  proposal.endTime */\n      0x08\n      add\n        /* \"contracts/DAOProposal.sol\":1432:1459  proposal.endTime = _endTime */\n      swap1\n      dup2\n      tag_31\n      swap2\n      swap1\n      tag_28\n      jump\t// in\n    tag_31:\n      pop\n        /* \"contracts/DAOProposal.sol\":1472:1485  ProposalCount */\n      0x01\n      0x00\n        /* \"contracts/DAOProposal.sol\":1472:1487  ProposalCount++ */\n      dup2\n      sload\n      dup1\n      swap3\n      swap2\n      swap1\n      tag_32\n      swap1\n      tag_33\n      jump\t// in\n    tag_32:\n      swap2\n      swap1\n      pop\n      sstore\n      pop\n        /* \"contracts/DAOProposal.sol\":1549:1559  msg.sender */\n      caller\n        /* \"contracts/DAOProposal.sol\":1505:1577  ProposalsCreated(ProposalCount - 1, _title, msg.sender, block.timestamp) */\n      0xffffffffffffffffffffffffffffffffffffffff\n      and\n        /* \"contracts/DAOProposal.sol\":1538:1539  1 */\n      0x01\n        /* \"contracts/DAOProposal.sol\":1522:1535  ProposalCount */\n      dup1\n      sload\n        /* \"contracts/DAOProposal.sol\":1522:1539  ProposalCount - 1 */\n      tag_34\n      swap2\n      swap1\n      tag_35\n      jump\t// in\n    tag_34:\n        /* \"contracts/DAOProposal.sol\":1505:1577  ProposalsCreated(ProposalCount - 1, _title, msg.sender, block.timestamp) */\n      0xb8ec33a39f0af82926e7839f5e5d30bd98d3036bbc2ffb47ccd2550972355e2e\n        /* \"contracts/DAOProposal.sol\":1541:1547  _title */\n      dup9\n        /* \"contracts/DAOProposal.sol\":1561:1576  block.timestamp */\n      timestamp\n        /* \"contracts/DAOProposal.sol\":1505:1577  ProposalsCreated(ProposalCount - 1, _title, msg.sender, block.timestamp) */\n      mload(0x40)\n      tag_36\n      swap3\n      swap2\n      swap1\n      tag_37\n      jump\t// in\n    tag_36:\n      mload(0x40)\n      dup1\n      swap2\n      sub\n      swap1\n      log3\n        /* \"contracts/DAOProposal.sol\":1613:1614  1 */\n      0x01\n        /* \"contracts/DAOProposal.sol\":1597:1610  ProposalCount */\n      dup1\n      sload\n        /* \"contracts/DAOProposal.sol\":1597:1614  ProposalCount - 1 */\n      tag_38\n      swap2\n      swap1\n      tag_35\n      jump\t// in\n    tag_38:\n        /* \"contracts/DAOProposal.sol\":1590:1614  return ProposalCount - 1 */\n      swap2\n      pop\n      pop\n        /* \"contracts/DAOProposal.sol\":939:1622  function createProposal(string memory _title, string memory _description, string memory _startTime, string memory _endTime) ... */\n      swap5\n      swap4\n      pop\n      pop\n      pop\n      pop\n      jump\t// out\n        /* \"contracts/DAOProposal.sol\":839:871  uint256 public ProposalCount = 0 */\n    tag_14:\n      sload(0x01)\n      dup2\n      jump\t// out\n        /* \"contracts/DAOProposal.sol\":790:832  mapping(uint => Proposal) public Proposals */\n    tag_19:\n      mstore(0x20, 0x00)\n      dup1\n      0x00\n      mstore\n      keccak256(0x00, 0x40)\n      0x00\n      swap2\n      pop\n      swap1\n      pop\n      dup1\n      0x00\n      add\n      0x00\n      swap1\n      sload\n      swap1\n      0x0100\n      exp\n      swap1\n      div\n      0xffffffffffffffffffffffffffffffffffffffff\n      and\n      swap1\n      dup1\n      0x01\n      add\n      dup1\n      sload\n      tag_39\n      swap1\n      tag_40\n      jump\t// in\n    tag_39:\n      dup1\n      0x1f\n      add\n      0x20\n      dup1\n      swap2\n      div\n      mul\n      0x20\n      add\n      mload(0x40)\n      swap1\n      dup2\n      add\n      0x40\n      mstore\n      dup1\n      swap3\n      swap2\n      swap1\n      dup2\n      dup2\n      mstore\n      0x20\n      add\n      dup3\n      dup1\n      sload\n      tag_41\n      swap1\n      tag_40\n      jump\t// in\n    tag_41:\n      dup1\n      iszero\n      tag_42\n      jumpi\n      dup1\n      0x1f\n      lt\n      tag_43\n      jumpi\n      0x0100\n      dup1\n      dup4\n      sload\n      div\n      mul\n      dup4\n      mstore\n      swap2\n      0x20\n      add\n      swap2\n      jump(tag_42)\n    tag_43:\n      dup3\n      add\n      swap2\n      swap1\n      0x00\n      mstore\n      keccak256(0x00, 0x20)\n      swap1\n    tag_44:\n      dup2\n      sload\n      dup2\n      mstore\n      swap1\n      0x01\n      add\n      swap1\n      0x20\n      add\n      dup1\n      dup4\n      gt\n      tag_44\n      jumpi\n      dup3\n      swap1\n      sub\n      0x1f\n      and\n      dup3\n      add\n      swap2\n    tag_42:\n      pop\n      pop\n      pop\n      pop\n      pop\n      swap1\n      dup1\n      0x02\n      add\n      dup1\n      sload\n      tag_45\n      swap1\n      tag_40\n      jump\t// in\n    tag_45:\n      dup1\n      0x1f\n      add\n      0x20\n      dup1\n      swap2\n      div\n      mul\n      0x20\n      add\n      mload(0x40)\n      swap1\n      dup2\n      add\n      0x40\n      mstore\n      dup1\n      swap3\n      swap2\n      swap1\n      dup2\n      dup2\n      mstore\n      0x20\n      add\n      dup3\n      dup1\n      sload\n      tag_46\n      swap1\n      tag_40\n      jump\t// in\n    tag_46:\n      dup1\n      iszero\n      tag_47\n      jumpi\n      dup1\n      0x1f\n      lt\n      tag_48\n      jumpi\n      0x0100\n      dup1\n      dup4\n      sload\n      div\n      mul\n      dup4\n      mstore\n      swap2\n      0x20\n      add\n      swap2\n      jump(tag_47)\n    tag_48:\n      dup3\n      add\n      swap2\n      swap1\n      0x00\n      mstore\n      keccak256(0x00, 0x20)\n      swap1\n    tag_49:\n      dup2\n      sload\n      dup2\n      mstore\n      swap1\n      0x01\n      add\n      swap1\n      0x20\n      add\n      dup1\n      dup4\n      gt\n      tag_49\n      jumpi\n      dup3\n      swap1\n      sub\n      0x1f\n      and\n      dup3\n      add\n      swap2\n    tag_47:\n      pop\n      pop\n      pop\n      pop\n      pop\n      swap1\n      dup1\n      0x03\n      add\n      sload\n      swap1\n      dup1\n      0x04\n      add\n      0x00\n      swap1\n      sload\n      swap1\n      0x0100\n      exp\n      swap1\n      div\n      0xff\n      and\n      swap1\n      dup1\n      0x05\n      add\n      sload\n      swap1\n      dup1\n      0x06\n      add\n      sload\n      swap1\n      dup1\n      0x07\n      add\n      dup1\n      sload\n      tag_50\n      swap1\n      tag_40\n      jump\t// in\n    tag_50:\n      dup1\n      0x1f\n      add\n      0x20\n      dup1\n      swap2\n      div\n      mul\n      0x20\n      add\n      mload(0x40)\n      swap1\n      dup2\n      add\n      0x40\n      mstore\n      dup1\n      swap3\n      swap2\n      swap1\n      dup2\n      dup2\n      mstore\n      0x20\n      add\n      dup3\n      dup1\n      sload\n      tag_51\n      swap1\n      tag_40\n      jump\t// in\n    tag_51:\n      dup1\n      iszero\n      tag_52\n      jumpi\n      dup1\n      0x1f\n      lt\n      tag_53\n      jumpi\n      0x0100\n      dup1\n      dup4\n      sload\n      div\n      mul\n      dup4\n      mstore\n      swap2\n      0x20\n      add\n      swap2\n      jump(tag_52)\n    tag_53:\n      dup3\n      add\n      swap2\n      swap1\n      0x00\n      mstore\n      keccak256(0x00, 0x20)\n      swap1\n    tag_54:\n      dup2\n      sload\n      dup2\n      mstore\n      swap1\n      0x01\n      add\n      swap1\n      0x20\n      add\n      dup1\n      dup4\n      gt\n      tag_54\n      jumpi\n      dup3\n      swap1\n      sub\n      0x1f\n      and\n      dup3\n      add\n      swap2\n    tag_52:\n      pop\n      pop\n      pop\n      pop\n      pop\n      swap1\n      dup1\n      0x08\n      add\n      dup1\n      sload\n      tag_55\n      swap1\n      tag_40\n      jump\t// in\n    tag_55:\n      dup1\n      0x1f\n      add\n      0x20\n      dup1\n      swap2\n      div\n      mul\n      0x20\n      add\n      mload(0x40)\n      swap1\n      dup2\n      add\n      0x40\n      mstore\n      dup1\n      swap3\n      swap2\n      swap1\n      dup2\n      dup2\n      mstore\n      0x20\n      add\n      dup3\n      dup1\n      sload\n      tag_56\n      swap1\n      tag_40\n      jump\t// in\n    tag_56:\n      dup1\n      iszero\n      tag_57\n      jumpi\n      dup1\n      0x1f\n      lt\n      tag_58\n      jumpi\n      0x0100\n      dup1\n      dup4\n      sload\n      div\n      mul\n      dup4\n      mstore\n      swap2\n      0x20\n      add\n      swap2\n      jump(tag_57)\n    tag_58:\n      dup3\n      add\n      swap2\n      swap1\n      0x00\n      mstore\n      keccak256(0x00, 0x20)\n      swap1\n    tag_59:\n      dup2\n      sload\n      dup2\n      mstore\n      swap1\n      0x01\n      add\n      swap1\n      0x20\n      add\n      dup1\n      dup4\n      gt\n      tag_59\n      jumpi\n      dup3\n      swap1\n      sub\n      0x1f\n      and\n      dup3\n      add\n      swap2\n    tag_57:\n      pop\n      pop\n      pop\n      pop\n      pop\n      swap1\n      pop\n      dup10\n      jump\t// out\n        /* \"contracts/DAOProposal.sol\":1657:2240  function voteOnProposal(uint proposalID, Vote vote) external {... */\n    tag_25:\n        /* \"contracts/DAOProposal.sol\":1729:1754  Proposal storage proposal */\n      0x00\n        /* \"contracts/DAOProposal.sol\":1757:1766  Proposals */\n      dup1\n        /* \"contracts/DAOProposal.sol\":1757:1778  Proposals[proposalID] */\n      0x00\n        /* \"contracts/DAOProposal.sol\":1767:1777  proposalID */\n      dup5\n        /* \"contracts/DAOProposal.sol\":1757:1778  Proposals[proposalID] */\n      dup2\n      mstore\n      0x20\n      add\n      swap1\n      dup2\n      mstore\n      0x20\n      add\n      0x00\n      keccak256\n        /* \"contracts/DAOProposal.sol\":1729:1778  Proposal storage proposal = Proposals[proposalID] */\n      swap1\n      pop\n        /* \"contracts/DAOProposal.sol\":1823:1824  0 */\n      0x00\n        /* \"contracts/DAOProposal.sol\":1797:1825  proposal.owner != address(0) */\n      0xffffffffffffffffffffffffffffffffffffffff\n      and\n        /* \"contracts/DAOProposal.sol\":1797:1805  proposal */\n      dup2\n        /* \"contracts/DAOProposal.sol\":1797:1811  proposal.owner */\n      0x00\n      add\n      0x00\n      swap1\n      sload\n      swap1\n      0x0100\n      exp\n      swap1\n      div\n      0xffffffffffffffffffffffffffffffffffffffff\n      and\n        /* \"contracts/DAOProposal.sol\":1797:1825  proposal.owner != address(0) */\n      0xffffffffffffffffffffffffffffffffffffffff\n      and\n      sub\n        /* \"contracts/DAOProposal.sol\":1789:1857  require(proposal.owner != address(0), \"The proposal does not exist\") */\n      tag_61\n      jumpi\n      mload(0x40)\n      0x08c379a000000000000000000000000000000000000000000000000000000000\n      dup2\n      mstore\n      0x04\n      add\n      tag_62\n      swap1\n      tag_63\n      jump\t// in\n    tag_62:\n      mload(0x40)\n      dup1\n      swap2\n      sub\n      swap1\n      revert\n    tag_61:\n        /* \"contracts/DAOProposal.sol\":1918:1923  false */\n      0x00\n        /* \"contracts/DAOProposal.sol\":1876:1923  votes[msg.sender][proposal.proposalId] == false */\n      iszero\n      iszero\n        /* \"contracts/DAOProposal.sol\":1876:1881  votes */\n      0x02\n        /* \"contracts/DAOProposal.sol\":1876:1893  votes[msg.sender] */\n      0x00\n        /* \"contracts/DAOProposal.sol\":1882:1892  msg.sender */\n      caller\n        /* \"contracts/DAOProposal.sol\":1876:1893  votes[msg.sender] */\n      0xffffffffffffffffffffffffffffffffffffffff\n      and\n      0xffffffffffffffffffffffffffffffffffffffff\n      and\n      dup2\n      mstore\n      0x20\n      add\n      swap1\n      dup2\n      mstore\n      0x20\n      add\n      0x00\n      keccak256\n        /* \"contracts/DAOProposal.sol\":1876:1914  votes[msg.sender][proposal.proposalId] */\n      0x00\n        /* \"contracts/DAOProposal.sol\":1894:1902  proposal */\n      dup4\n        /* \"contracts/DAOProposal.sol\":1894:1913  proposal.proposalId */\n      0x03\n      add\n      sload\n        /* \"contracts/DAOProposal.sol\":1876:1914  votes[msg.sender][proposal.proposalId] */\n      dup2\n      mstore\n      0x20\n      add\n      swap1\n      dup2\n      mstore\n      0x20\n      add\n      0x00\n      keccak256\n      0x00\n      swap1\n      sload\n      swap1\n      0x0100\n      exp\n      swap1\n      div\n      0xff\n      and\n        /* \"contracts/DAOProposal.sol\":1876:1923  votes[msg.sender][proposal.proposalId] == false */\n      iszero\n      iszero\n      eq\n        /* \"contracts/DAOProposal.sol\":1868:1967  require(votes[msg.sender][proposal.proposalId] == false, \"You have already voted on this proposal\") */\n      tag_64\n      jumpi\n      mload(0x40)\n      0x08c379a000000000000000000000000000000000000000000000000000000000\n      dup2\n      mstore\n      0x04\n      add\n      tag_65\n      swap1\n      tag_66\n      jump\t// in\n    tag_65:\n      mload(0x40)\n      dup1\n      swap2\n      sub\n      swap1\n      revert\n    tag_64:\n        /* \"contracts/DAOProposal.sol\":1992:2000  Vote.Yes */\n      0x00\n        /* \"contracts/DAOProposal.sol\":1984:2000  vote == Vote.Yes */\n      0x01\n      dup2\n      gt\n      iszero\n      tag_67\n      jumpi\n      tag_68\n      tag_69\n      jump\t// in\n    tag_68:\n    tag_67:\n        /* \"contracts/DAOProposal.sol\":1984:1988  vote */\n      dup3\n        /* \"contracts/DAOProposal.sol\":1984:2000  vote == Vote.Yes */\n      0x01\n      dup2\n      gt\n      iszero\n      tag_70\n      jumpi\n      tag_71\n      tag_69\n      jump\t// in\n    tag_71:\n    tag_70:\n      sub\n        /* \"contracts/DAOProposal.sol\":1980:2100  if (vote == Vote.Yes) {... */\n      tag_72\n      jumpi\n        /* \"contracts/DAOProposal.sol\":2017:2025  proposal */\n      dup1\n        /* \"contracts/DAOProposal.sol\":2017:2034  proposal.votedYes */\n      0x05\n      add\n      0x00\n        /* \"contracts/DAOProposal.sol\":2017:2036  proposal.votedYes++ */\n      dup2\n      sload\n      dup1\n      swap3\n      swap2\n      swap1\n      tag_73\n      swap1\n      tag_33\n      jump\t// in\n    tag_73:\n      swap2\n      swap1\n      pop\n      sstore\n      pop\n        /* \"contracts/DAOProposal.sol\":1980:2100  if (vote == Vote.Yes) {... */\n      jump(tag_74)\n    tag_72:\n        /* \"contracts/DAOProposal.sol\":2069:2077  proposal */\n      dup1\n        /* \"contracts/DAOProposal.sol\":2069:2085  proposal.votedNo */\n      0x06\n      add\n      0x00\n        /* \"contracts/DAOProposal.sol\":2069:2087  proposal.votedNo++ */\n      dup2\n      sload\n      dup1\n      swap3\n      swap2\n      swap1\n      tag_75\n      swap1\n      tag_33\n      jump\t// in\n    tag_75:\n      swap2\n      swap1\n      pop\n      sstore\n      pop\n        /* \"contracts/DAOProposal.sol\":1980:2100  if (vote == Vote.Yes) {... */\n    tag_74:\n        /* \"contracts/DAOProposal.sol\":2153:2157  true */\n      0x01\n        /* \"contracts/DAOProposal.sol\":2112:2117  votes */\n      0x02\n        /* \"contracts/DAOProposal.sol\":2112:2129  votes[msg.sender] */\n      0x00\n        /* \"contracts/DAOProposal.sol\":2118:2128  msg.sender */\n      caller\n        /* \"contracts/DAOProposal.sol\":2112:2129  votes[msg.sender] */\n      0xffffffffffffffffffffffffffffffffffffffff\n      and\n      0xffffffffffffffffffffffffffffffffffffffff\n      and\n      dup2\n      mstore\n      0x20\n      add\n      swap1\n      dup2\n      mstore\n      0x20\n      add\n      0x00\n      keccak256\n        /* \"contracts/DAOProposal.sol\":2112:2150  votes[msg.sender][proposal.proposalId] */\n      0x00\n        /* \"contracts/DAOProposal.sol\":2130:2138  proposal */\n      dup4\n        /* \"contracts/DAOProposal.sol\":2130:2149  proposal.proposalId */\n      0x03\n      add\n      sload\n        /* \"contracts/DAOProposal.sol\":2112:2150  votes[msg.sender][proposal.proposalId] */\n      dup2\n      mstore\n      0x20\n      add\n      swap1\n      dup2\n      mstore\n      0x20\n      add\n      0x00\n      keccak256\n      0x00\n        /* \"contracts/DAOProposal.sol\":2112:2157  votes[msg.sender][proposal.proposalId] = true */\n      0x0100\n      exp\n      dup2\n      sload\n      dup2\n      0xff\n      mul\n      not\n      and\n      swap1\n      dup4\n      iszero\n      iszero\n      mul\n      or\n      swap1\n      sstore\n      pop\n        /* \"contracts/DAOProposal.sol\":2198:2208  msg.sender */\n      caller\n        /* \"contracts/DAOProposal.sol\":2175:2232  VoteCasted(proposalID, msg.sender, vote, block.timestamp) */\n      0xffffffffffffffffffffffffffffffffffffffff\n      and\n        /* \"contracts/DAOProposal.sol\":2186:2196  proposalID */\n      dup4\n        /* \"contracts/DAOProposal.sol\":2175:2232  VoteCasted(proposalID, msg.sender, vote, block.timestamp) */\n      0x2c429843b755aefd47bd35f951ec584e567e65542f31d255ff570e130d0dd404\n        /* \"contracts/DAOProposal.sol\":2210:2214  vote */\n      dup5\n        /* \"contracts/DAOProposal.sol\":2216:2231  block.timestamp */\n      timestamp\n        /* \"contracts/DAOProposal.sol\":2175:2232  VoteCasted(proposalID, msg.sender, vote, block.timestamp) */\n      mload(0x40)\n      tag_76\n      swap3\n      swap2\n      swap1\n      tag_77\n      jump\t// in\n    tag_76:\n      mload(0x40)\n      dup1\n      swap2\n      sub\n      swap1\n      log3\n        /* \"contracts/DAOProposal.sol\":1718:2240  {... */\n      pop\n        /* \"contracts/DAOProposal.sol\":1657:2240  function voteOnProposal(uint proposalID, Vote vote) external {... */\n      pop\n      pop\n      jump\t// out\n        /* \"#utility.yul\":7:82   */\n    tag_78:\n        /* \"#utility.yul\":40:46   */\n      0x00\n        /* \"#utility.yul\":73:75   */\n      0x40\n        /* \"#utility.yul\":67:76   */\n      mload\n        /* \"#utility.yul\":57:76   */\n      swap1\n      pop\n        /* \"#utility.yul\":7:82   */\n      swap1\n      jump\t// out\n        /* \"#utility.yul\":88:205   */\n    tag_79:\n        /* \"#utility.yul\":197:198   */\n      0x00\n        /* \"#utility.yul\":194:195   */\n      dup1\n        /* \"#utility.yul\":187:199   */\n      revert\n        /* \"#utility.yul\":211:328   */\n    tag_80:\n        /* \"#utility.yul\":320:321   */\n      0x00\n        /* \"#utility.yul\":317:318   */\n      dup1\n        /* \"#utility.yul\":310:322   */\n      revert\n        /* \"#utility.yul\":334:451   */\n    tag_81:\n        /* \"#utility.yul\":443:444   */\n      0x00\n        /* \"#utility.yul\":440:441   */\n      dup1\n        /* \"#utility.yul\":433:445   */\n      revert\n        /* \"#utility.yul\":457:574   */\n    tag_82:\n        /* \"#utility.yul\":566:567   */\n      0x00\n        /* \"#utility.yul\":563:564   */\n      dup1\n        /* \"#utility.yul\":556:568   */\n      revert\n        /* \"#utility.yul\":580:682   */\n    tag_83:\n        /* \"#utility.yul\":621:627   */\n      0x00\n        /* \"#utility.yul\":672:674   */\n      0x1f\n        /* \"#utility.yul\":668:675   */\n      not\n        /* \"#utility.yul\":663:665   */\n      0x1f\n        /* \"#utility.yul\":656:661   */\n      dup4\n        /* \"#utility.yul\":652:666   */\n      add\n        /* \"#utility.yul\":648:676   */\n      and\n        /* \"#utility.yul\":638:676   */\n      swap1\n      pop\n        /* \"#utility.yul\":580:682   */\n      swap2\n      swap1\n      pop\n      jump\t// out\n        /* \"#utility.yul\":688:868   */\n    tag_84:\n        /* \"#utility.yul\":736:813   */\n      0x4e487b7100000000000000000000000000000000000000000000000000000000\n        /* \"#utility.yul\":733:734   */\n      0x00\n        /* \"#utility.yul\":726:814   */\n      mstore\n        /* \"#utility.yul\":833:837   */\n      0x41\n        /* \"#utility.yul\":830:831   */\n      0x04\n        /* \"#utility.yul\":823:838   */\n      mstore\n        /* \"#utility.yul\":857:861   */\n      0x24\n        /* \"#utility.yul\":854:855   */\n      0x00\n        /* \"#utility.yul\":847:862   */\n      revert\n        /* \"#utility.yul\":874:1155   */\n    tag_85:\n        /* \"#utility.yul\":957:984   */\n      tag_140\n        /* \"#utility.yul\":979:983   */\n      dup3\n        /* \"#utility.yul\":957:984   */\n      tag_83\n      jump\t// in\n    tag_140:\n        /* \"#utility.yul\":949:955   */\n      dup2\n        /* \"#utility.yul\":945:985   */\n      add\n        /* \"#utility.yul\":1087:1093   */\n      dup2\n        /* \"#utility.yul\":1075:1085   */\n      dup2\n        /* \"#utility.yul\":1072:1094   */\n      lt\n        /* \"#utility.yul\":1051:1069   */\n      0xffffffffffffffff\n        /* \"#utility.yul\":1039:1049   */\n      dup3\n        /* \"#utility.yul\":1036:1070   */\n      gt\n        /* \"#utility.yul\":1033:1095   */\n      or\n        /* \"#utility.yul\":1030:1118   */\n      iszero\n      tag_141\n      jumpi\n        /* \"#utility.yul\":1098:1116   */\n      tag_142\n      tag_84\n      jump\t// in\n    tag_142:\n        /* \"#utility.yul\":1030:1118   */\n    tag_141:\n        /* \"#utility.yul\":1138:1148   */\n      dup1\n        /* \"#utility.yul\":1134:1136   */\n      0x40\n        /* \"#utility.yul\":1127:1149   */\n      mstore\n        /* \"#utility.yul\":917:1155   */\n      pop\n        /* \"#utility.yul\":874:1155   */\n      pop\n      pop\n      jump\t// out\n        /* \"#utility.yul\":1161:1290   */\n    tag_86:\n        /* \"#utility.yul\":1195:1201   */\n      0x00\n        /* \"#utility.yul\":1222:1242   */\n      tag_144\n      tag_78\n      jump\t// in\n    tag_144:\n        /* \"#utility.yul\":1212:1242   */\n      swap1\n      pop\n        /* \"#utility.yul\":1251:1284   */\n      tag_145\n        /* \"#utility.yul\":1279:1283   */\n      dup3\n        /* \"#utility.yul\":1271:1277   */\n      dup3\n        /* \"#utility.yul\":1251:1284   */\n      tag_85\n      jump\t// in\n    tag_145:\n        /* \"#utility.yul\":1161:1290   */\n      swap2\n      swap1\n      pop\n      jump\t// out\n        /* \"#utility.yul\":1296:1604   */\n    tag_87:\n        /* \"#utility.yul\":1358:1362   */\n      0x00\n        /* \"#utility.yul\":1448:1466   */\n      0xffffffffffffffff\n        /* \"#utility.yul\":1440:1446   */\n      dup3\n        /* \"#utility.yul\":1437:1467   */\n      gt\n        /* \"#utility.yul\":1434:1490   */\n      iszero\n      tag_147\n      jumpi\n        /* \"#utility.yul\":1470:1488   */\n      tag_148\n      tag_84\n      jump\t// in\n    tag_148:\n        /* \"#utility.yul\":1434:1490   */\n    tag_147:\n        /* \"#utility.yul\":1508:1537   */\n      tag_149\n        /* \"#utility.yul\":1530:1536   */\n      dup3\n        /* \"#utility.yul\":1508:1537   */\n      tag_83\n      jump\t// in\n    tag_149:\n        /* \"#utility.yul\":1500:1537   */\n      swap1\n      pop\n        /* \"#utility.yul\":1592:1596   */\n      0x20\n        /* \"#utility.yul\":1586:1590   */\n      dup2\n        /* \"#utility.yul\":1582:1597   */\n      add\n        /* \"#utility.yul\":1574:1597   */\n      swap1\n      pop\n        /* \"#utility.yul\":1296:1604   */\n      swap2\n      swap1\n      pop\n      jump\t// out\n        /* \"#utility.yul\":1610:1758   */\n    tag_88:\n        /* \"#utility.yul\":1708:1714   */\n      dup3\n        /* \"#utility.yul\":1703:1706   */\n      dup2\n        /* \"#utility.yul\":1698:1701   */\n      dup4\n        /* \"#utility.yul\":1685:1715   */\n      calldatacopy\n        /* \"#utility.yul\":1749:1750   */\n      0x00\n        /* \"#utility.yul\":1740:1746   */\n      dup4\n        /* \"#utility.yul\":1735:1738   */\n      dup4\n        /* \"#utility.yul\":1731:1747   */\n      add\n        /* \"#utility.yul\":1724:1751   */\n      mstore\n        /* \"#utility.yul\":1610:1758   */\n      pop\n      pop\n      pop\n      jump\t// out\n        /* \"#utility.yul\":1764:2189   */\n    tag_89:\n        /* \"#utility.yul\":1842:1847   */\n      0x00\n        /* \"#utility.yul\":1867:1933   */\n      tag_152\n        /* \"#utility.yul\":1883:1932   */\n      tag_153\n        /* \"#utility.yul\":1925:1931   */\n      dup5\n        /* \"#utility.yul\":1883:1932   */\n      tag_87\n      jump\t// in\n    tag_153:\n        /* \"#utility.yul\":1867:1933   */\n      tag_86\n      jump\t// in\n    tag_152:\n        /* \"#utility.yul\":1858:1933   */\n      swap1\n      pop\n        /* \"#utility.yul\":1956:1962   */\n      dup3\n        /* \"#utility.yul\":1949:1954   */\n      dup2\n        /* \"#utility.yul\":1942:1963   */\n      mstore\n        /* \"#utility.yul\":1994:1998   */\n      0x20\n        /* \"#utility.yul\":1987:1992   */\n      dup2\n        /* \"#utility.yul\":1983:1999   */\n      add\n        /* \"#utility.yul\":2032:2035   */\n      dup5\n        /* \"#utility.yul\":2023:2029   */\n      dup5\n        /* \"#utility.yul\":2018:2021   */\n      dup5\n        /* \"#utility.yul\":2014:2030   */\n      add\n        /* \"#utility.yul\":2011:2036   */\n      gt\n        /* \"#utility.yul\":2008:2120   */\n      iszero\n      tag_154\n      jumpi\n        /* \"#utility.yul\":2039:2118   */\n      tag_155\n      tag_82\n      jump\t// in\n    tag_155:\n        /* \"#utility.yul\":2008:2120   */\n    tag_154:\n        /* \"#utility.yul\":2129:2183   */\n      tag_156\n        /* \"#utility.yul\":2176:2182   */\n      dup5\n        /* \"#utility.yul\":2171:2174   */\n      dup3\n        /* \"#utility.yul\":2166:2169   */\n      dup6\n        /* \"#utility.yul\":2129:2183   */\n      tag_88\n      jump\t// in\n    tag_156:\n        /* \"#utility.yul\":1848:2189   */\n      pop\n        /* \"#utility.yul\":1764:2189   */\n      swap4\n      swap3\n      pop\n      pop\n      pop\n      jump\t// out\n        /* \"#utility.yul\":2209:2549   */\n    tag_90:\n        /* \"#utility.yul\":2265:2270   */\n      0x00\n        /* \"#utility.yul\":2314:2317   */\n      dup3\n        /* \"#utility.yul\":2307:2311   */\n      0x1f\n        /* \"#utility.yul\":2299:2305   */\n      dup4\n        /* \"#utility.yul\":2295:2312   */\n      add\n        /* \"#utility.yul\":2291:2318   */\n      slt\n        /* \"#utility.yul\":2281:2403   */\n      tag_158\n      jumpi\n        /* \"#utility.yul\":2322:2401   */\n      tag_159\n      tag_81\n      jump\t// in\n    tag_159:\n        /* \"#utility.yul\":2281:2403   */\n    tag_158:\n        /* \"#utility.yul\":2439:2445   */\n      dup2\n        /* \"#utility.yul\":2426:2446   */\n      calldataload\n        /* \"#utility.yul\":2464:2543   */\n      tag_160\n        /* \"#utility.yul\":2539:2542   */\n      dup5\n        /* \"#utility.yul\":2531:2537   */\n      dup3\n        /* \"#utility.yul\":2524:2528   */\n      0x20\n        /* \"#utility.yul\":2516:2522   */\n      dup7\n        /* \"#utility.yul\":2512:2529   */\n      add\n        /* \"#utility.yul\":2464:2543   */\n      tag_89\n      jump\t// in\n    tag_160:\n        /* \"#utility.yul\":2455:2543   */\n      swap2\n      pop\n        /* \"#utility.yul\":2271:2549   */\n      pop\n        /* \"#utility.yul\":2209:2549   */\n      swap3\n      swap2\n      pop\n      pop\n      jump\t// out\n        /* \"#utility.yul\":2555:4040   */\n    tag_9:\n        /* \"#utility.yul\":2681:2687   */\n      0x00\n        /* \"#utility.yul\":2689:2695   */\n      dup1\n        /* \"#utility.yul\":2697:2703   */\n      0x00\n        /* \"#utility.yul\":2705:2711   */\n      dup1\n        /* \"#utility.yul\":2754:2757   */\n      0x80\n        /* \"#utility.yul\":2742:2751   */\n      dup6\n        /* \"#utility.yul\":2733:2740   */\n      dup8\n        /* \"#utility.yul\":2729:2752   */\n      sub\n        /* \"#utility.yul\":2725:2758   */\n      slt\n        /* \"#utility.yul\":2722:2842   */\n      iszero\n      tag_162\n      jumpi\n        /* \"#utility.yul\":2761:2840   */\n      tag_163\n      tag_79\n      jump\t// in\n    tag_163:\n        /* \"#utility.yul\":2722:2842   */\n    tag_162:\n        /* \"#utility.yul\":2909:2910   */\n      0x00\n        /* \"#utility.yul\":2898:2907   */\n      dup6\n        /* \"#utility.yul\":2894:2911   */\n      add\n        /* \"#utility.yul\":2881:2912   */\n      calldataload\n        /* \"#utility.yul\":2939:2957   */\n      0xffffffffffffffff\n        /* \"#utility.yul\":2931:2937   */\n      dup2\n        /* \"#utility.yul\":2928:2958   */\n      gt\n        /* \"#utility.yul\":2925:3042   */\n      iszero\n      tag_164\n      jumpi\n        /* \"#utility.yul\":2961:3040   */\n      tag_165\n      tag_80\n      jump\t// in\n    tag_165:\n        /* \"#utility.yul\":2925:3042   */\n    tag_164:\n        /* \"#utility.yul\":3066:3129   */\n      tag_166\n        /* \"#utility.yul\":3121:3128   */\n      dup8\n        /* \"#utility.yul\":3112:3118   */\n      dup3\n        /* \"#utility.yul\":3101:3110   */\n      dup9\n        /* \"#utility.yul\":3097:3119   */\n      add\n        /* \"#utility.yul\":3066:3129   */\n      tag_90\n      jump\t// in\n    tag_166:\n        /* \"#utility.yul\":3056:3129   */\n      swap5\n      pop\n        /* \"#utility.yul\":2852:3139   */\n      pop\n        /* \"#utility.yul\":3206:3208   */\n      0x20\n        /* \"#utility.yul\":3195:3204   */\n      dup6\n        /* \"#utility.yul\":3191:3209   */\n      add\n        /* \"#utility.yul\":3178:3210   */\n      calldataload\n        /* \"#utility.yul\":3237:3255   */\n      0xffffffffffffffff\n        /* \"#utility.yul\":3229:3235   */\n      dup2\n        /* \"#utility.yul\":3226:3256   */\n      gt\n        /* \"#utility.yul\":3223:3340   */\n      iszero\n      tag_167\n      jumpi\n        /* \"#utility.yul\":3259:3338   */\n      tag_168\n      tag_80\n      jump\t// in\n    tag_168:\n        /* \"#utility.yul\":3223:3340   */\n    tag_167:\n        /* \"#utility.yul\":3364:3427   */\n      tag_169\n        /* \"#utility.yul\":3419:3426   */\n      dup8\n        /* \"#utility.yul\":3410:3416   */\n      dup3\n        /* \"#utility.yul\":3399:3408   */\n      dup9\n        /* \"#utility.yul\":3395:3417   */\n      add\n        /* \"#utility.yul\":3364:3427   */\n      tag_90\n      jump\t// in\n    tag_169:\n        /* \"#utility.yul\":3354:3427   */\n      swap4\n      pop\n        /* \"#utility.yul\":3149:3437   */\n      pop\n        /* \"#utility.yul\":3504:3506   */\n      0x40\n        /* \"#utility.yul\":3493:3502   */\n      dup6\n        /* \"#utility.yul\":3489:3507   */\n      add\n        /* \"#utility.yul\":3476:3508   */\n      calldataload\n        /* \"#utility.yul\":3535:3553   */\n      0xffffffffffffffff\n        /* \"#utility.yul\":3527:3533   */\n      dup2\n        /* \"#utility.yul\":3524:3554   */\n      gt\n        /* \"#utility.yul\":3521:3638   */\n      iszero\n      tag_170\n      jumpi\n        /* \"#utility.yul\":3557:3636   */\n      tag_171\n      tag_80\n      jump\t// in\n    tag_171:\n        /* \"#utility.yul\":3521:3638   */\n    tag_170:\n        /* \"#utility.yul\":3662:3725   */\n      tag_172\n        /* \"#utility.yul\":3717:3724   */\n      dup8\n        /* \"#utility.yul\":3708:3714   */\n      dup3\n        /* \"#utility.yul\":3697:3706   */\n      dup9\n        /* \"#utility.yul\":3693:3715   */\n      add\n        /* \"#utility.yul\":3662:3725   */\n      tag_90\n      jump\t// in\n    tag_172:\n        /* \"#utility.yul\":3652:3725   */\n      swap3\n      pop\n        /* \"#utility.yul\":3447:3735   */\n      pop\n        /* \"#utility.yul\":3802:3804   */\n      0x60\n        /* \"#utility.yul\":3791:3800   */\n      dup6\n        /* \"#utility.yul\":3787:3805   */\n      add\n        /* \"#utility.yul\":3774:3806   */\n      calldataload\n        /* \"#utility.yul\":3833:3851   */\n      0xffffffffffffffff\n        /* \"#utility.yul\":3825:3831   */\n      dup2\n        /* \"#utility.yul\":3822:3852   */\n      gt\n        /* \"#utility.yul\":3819:3936   */\n      iszero\n      tag_173\n      jumpi\n        /* \"#utility.yul\":3855:3934   */\n      tag_174\n      tag_80\n      jump\t// in\n    tag_174:\n        /* \"#utility.yul\":3819:3936   */\n    tag_173:\n        /* \"#utility.yul\":3960:4023   */\n      tag_175\n        /* \"#utility.yul\":4015:4022   */\n      dup8\n        /* \"#utility.yul\":4006:4012   */\n      dup3\n        /* \"#utility.yul\":3995:4004   */\n      dup9\n        /* \"#utility.yul\":3991:4013   */\n      add\n        /* \"#utility.yul\":3960:4023   */\n      tag_90\n      jump\t// in\n    tag_175:\n        /* \"#utility.yul\":3950:4023   */\n      swap2\n      pop\n        /* \"#utility.yul\":3745:4033   */\n      pop\n        /* \"#utility.yul\":2555:4040   */\n      swap3\n      swap6\n      swap2\n      swap5\n      pop\n      swap3\n      pop\n      jump\t// out\n        /* \"#utility.yul\":4046:4123   */\n    tag_91:\n        /* \"#utility.yul\":4083:4090   */\n      0x00\n        /* \"#utility.yul\":4112:4117   */\n      dup2\n        /* \"#utility.yul\":4101:4117   */\n      swap1\n      pop\n        /* \"#utility.yul\":4046:4123   */\n      swap2\n      swap1\n      pop\n      jump\t// out\n        /* \"#utility.yul\":4129:4247   */\n    tag_92:\n        /* \"#utility.yul\":4216:4240   */\n      tag_178\n        /* \"#utility.yul\":4234:4239   */\n      dup2\n        /* \"#utility.yul\":4216:4240   */\n      tag_91\n      jump\t// in\n    tag_178:\n        /* \"#utility.yul\":4211:4214   */\n      dup3\n        /* \"#utility.yul\":4204:4241   */\n      mstore\n        /* \"#utility.yul\":4129:4247   */\n      pop\n      pop\n      jump\t// out\n        /* \"#utility.yul\":4253:4475   */\n    tag_12:\n        /* \"#utility.yul\":4346:4350   */\n      0x00\n        /* \"#utility.yul\":4384:4386   */\n      0x20\n        /* \"#utility.yul\":4373:4382   */\n      dup3\n        /* \"#utility.yul\":4369:4387   */\n      add\n        /* \"#utility.yul\":4361:4387   */\n      swap1\n      pop\n        /* \"#utility.yul\":4397:4468   */\n      tag_180\n        /* \"#utility.yul\":4465:4466   */\n      0x00\n        /* \"#utility.yul\":4454:4463   */\n      dup4\n        /* \"#utility.yul\":4450:4467   */\n      add\n        /* \"#utility.yul\":4441:4447   */\n      dup5\n        /* \"#utility.yul\":4397:4468   */\n      tag_92\n      jump\t// in\n    tag_180:\n        /* \"#utility.yul\":4253:4475   */\n      swap3\n      swap2\n      pop\n      pop\n      jump\t// out\n        /* \"#utility.yul\":4481:4603   */\n    tag_93:\n        /* \"#utility.yul\":4554:4578   */\n      tag_182\n        /* \"#utility.yul\":4572:4577   */\n      dup2\n        /* \"#utility.yul\":4554:4578   */\n      tag_91\n      jump\t// in\n    tag_182:\n        /* \"#utility.yul\":4547:4552   */\n      dup2\n        /* \"#utility.yul\":4544:4579   */\n      eq\n        /* \"#utility.yul\":4534:4597   */\n      tag_183\n      jumpi\n        /* \"#utility.yul\":4593:4594   */\n      0x00\n        /* \"#utility.yul\":4590:4591   */\n      dup1\n        /* \"#utility.yul\":4583:4595   */\n      revert\n        /* \"#utility.yul\":4534:4597   */\n    tag_183:\n        /* \"#utility.yul\":4481:4603   */\n      pop\n      jump\t// out\n        /* \"#utility.yul\":4609:4748   */\n    tag_94:\n        /* \"#utility.yul\":4655:4660   */\n      0x00\n        /* \"#utility.yul\":4693:4699   */\n      dup2\n        /* \"#utility.yul\":4680:4700   */\n      calldataload\n        /* \"#utility.yul\":4671:4700   */\n      swap1\n      pop\n        /* \"#utility.yul\":4709:4742   */\n      tag_185\n        /* \"#utility.yul\":4736:4741   */\n      dup2\n        /* \"#utility.yul\":4709:4742   */\n      tag_93\n      jump\t// in\n    tag_185:\n        /* \"#utility.yul\":4609:4748   */\n      swap3\n      swap2\n      pop\n      pop\n      jump\t// out\n        /* \"#utility.yul\":4754:5083   */\n    tag_18:\n        /* \"#utility.yul\":4813:4819   */\n      0x00\n        /* \"#utility.yul\":4862:4864   */\n      0x20\n        /* \"#utility.yul\":4850:4859   */\n      dup3\n        /* \"#utility.yul\":4841:4848   */\n      dup5\n        /* \"#utility.yul\":4837:4860   */\n      sub\n        /* \"#utility.yul\":4833:4865   */\n      slt\n        /* \"#utility.yul\":4830:4949   */\n      iszero\n      tag_187\n      jumpi\n        /* \"#utility.yul\":4868:4947   */\n      tag_188\n      tag_79\n      jump\t// in\n    tag_188:\n        /* \"#utility.yul\":4830:4949   */\n    tag_187:\n        /* \"#utility.yul\":4988:4989   */\n      0x00\n        /* \"#utility.yul\":5013:5066   */\n      tag_189\n        /* \"#utility.yul\":5058:5065   */\n      dup5\n        /* \"#utility.yul\":5049:5055   */\n      dup3\n        /* \"#utility.yul\":5038:5047   */\n      dup6\n        /* \"#utility.yul\":5034:5056   */\n      add\n        /* \"#utility.yul\":5013:5066   */\n      tag_94\n      jump\t// in\n    tag_189:\n        /* \"#utility.yul\":5003:5066   */\n      swap2\n      pop\n        /* \"#utility.yul\":4959:5076   */\n      pop\n        /* \"#utility.yul\":4754:5083   */\n      swap3\n      swap2\n      pop\n      pop\n      jump\t// out\n        /* \"#utility.yul\":5089:5215   */\n    tag_95:\n        /* \"#utility.yul\":5126:5133   */\n      0x00\n        /* \"#utility.yul\":5166:5208   */\n      0xffffffffffffffffffffffffffffffffffffffff\n        /* \"#utility.yul\":5159:5164   */\n      dup3\n        /* \"#utility.yul\":5155:5209   */\n      and\n        /* \"#utility.yul\":5144:5209   */\n      swap1\n      pop\n        /* \"#utility.yul\":5089:5215   */\n      swap2\n      swap1\n      pop\n      jump\t// out\n        /* \"#utility.yul\":5221:5317   */\n    tag_96:\n        /* \"#utility.yul\":5258:5265   */\n      0x00\n        /* \"#utility.yul\":5287:5311   */\n      tag_192\n        /* \"#utility.yul\":5305:5310   */\n      dup3\n        /* \"#utility.yul\":5287:5311   */\n      tag_95\n      jump\t// in\n    tag_192:\n        /* \"#utility.yul\":5276:5311   */\n      swap1\n      pop\n        /* \"#utility.yul\":5221:5317   */\n      swap2\n      swap1\n      pop\n      jump\t// out\n        /* \"#utility.yul\":5323:5441   */\n    tag_97:\n        /* \"#utility.yul\":5410:5434   */\n      tag_194\n        /* \"#utility.yul\":5428:5433   */\n      dup2\n        /* \"#utility.yul\":5410:5434   */\n      tag_96\n      jump\t// in\n    tag_194:\n        /* \"#utility.yul\":5405:5408   */\n      dup3\n        /* \"#utility.yul\":5398:5435   */\n      mstore\n        /* \"#utility.yul\":5323:5441   */\n      pop\n      pop\n      jump\t// out\n        /* \"#utility.yul\":5447:5546   */\n    tag_98:\n        /* \"#utility.yul\":5499:5505   */\n      0x00\n        /* \"#utility.yul\":5533:5538   */\n      dup2\n        /* \"#utility.yul\":5527:5539   */\n      mload\n        /* \"#utility.yul\":5517:5539   */\n      swap1\n      pop\n        /* \"#utility.yul\":5447:5546   */\n      swap2\n      swap1\n      pop\n      jump\t// out\n        /* \"#utility.yul\":5552:5721   */\n    tag_99:\n        /* \"#utility.yul\":5636:5647   */\n      0x00\n        /* \"#utility.yul\":5670:5676   */\n      dup3\n        /* \"#utility.yul\":5665:5668   */\n      dup3\n        /* \"#utility.yul\":5658:5677   */\n      mstore\n        /* \"#utility.yul\":5710:5714   */\n      0x20\n        /* \"#utility.yul\":5705:5708   */\n      dup3\n        /* \"#utility.yul\":5701:5715   */\n      add\n        /* \"#utility.yul\":5686:5715   */\n      swap1\n      pop\n        /* \"#utility.yul\":5552:5721   */\n      swap3\n      swap2\n      pop\n      pop\n      jump\t// out\n        /* \"#utility.yul\":5727:5866   */\n    tag_100:\n        /* \"#utility.yul\":5816:5822   */\n      dup3\n        /* \"#utility.yul\":5811:5814   */\n      dup2\n        /* \"#utility.yul\":5806:5809   */\n      dup4\n        /* \"#utility.yul\":5800:5823   */\n      mcopy\n        /* \"#utility.yul\":5857:5858   */\n      0x00\n        /* \"#utility.yul\":5848:5854   */\n      dup4\n        /* \"#utility.yul\":5843:5846   */\n      dup4\n        /* \"#utility.yul\":5839:5855   */\n      add\n        /* \"#utility.yul\":5832:5859   */\n      mstore\n        /* \"#utility.yul\":5727:5866   */\n      pop\n      pop\n      pop\n      jump\t// out\n        /* \"#utility.yul\":5872:6249   */\n    tag_101:\n        /* \"#utility.yul\":5960:5963   */\n      0x00\n        /* \"#utility.yul\":5988:6027   */\n      tag_199\n        /* \"#utility.yul\":6021:6026   */\n      dup3\n        /* \"#utility.yul\":5988:6027   */\n      tag_98\n      jump\t// in\n    tag_199:\n        /* \"#utility.yul\":6043:6114   */\n      tag_200\n        /* \"#utility.yul\":6107:6113   */\n      dup2\n        /* \"#utility.yul\":6102:6105   */\n      dup6\n        /* \"#utility.yul\":6043:6114   */\n      tag_99\n      jump\t// in\n    tag_200:\n        /* \"#utility.yul\":6036:6114   */\n      swap4\n      pop\n        /* \"#utility.yul\":6123:6188   */\n      tag_201\n        /* \"#utility.yul\":6181:6187   */\n      dup2\n        /* \"#utility.yul\":6176:6179   */\n      dup6\n        /* \"#utility.yul\":6169:6173   */\n      0x20\n        /* \"#utility.yul\":6162:6167   */\n      dup7\n        /* \"#utility.yul\":6158:6174   */\n      add\n        /* \"#utility.yul\":6123:6188   */\n      tag_100\n      jump\t// in\n    tag_201:\n        /* \"#utility.yul\":6213:6242   */\n      tag_202\n        /* \"#utility.yul\":6235:6241   */\n      dup2\n        /* \"#utility.yul\":6213:6242   */\n      tag_83\n      jump\t// in\n    tag_202:\n        /* \"#utility.yul\":6208:6211   */\n      dup5\n        /* \"#utility.yul\":6204:6243   */\n      add\n        /* \"#utility.yul\":6197:6243   */\n      swap2\n      pop\n        /* \"#utility.yul\":5964:6249   */\n      pop\n        /* \"#utility.yul\":5872:6249   */\n      swap3\n      swap2\n      pop\n      pop\n      jump\t// out\n        /* \"#utility.yul\":6255:6345   */\n    tag_102:\n        /* \"#utility.yul\":6289:6296   */\n      0x00\n        /* \"#utility.yul\":6332:6337   */\n      dup2\n        /* \"#utility.yul\":6325:6338   */\n      iszero\n        /* \"#utility.yul\":6318:6339   */\n      iszero\n        /* \"#utility.yul\":6307:6339   */\n      swap1\n      pop\n        /* \"#utility.yul\":6255:6345   */\n      swap2\n      swap1\n      pop\n      jump\t// out\n        /* \"#utility.yul\":6351:6460   */\n    tag_103:\n        /* \"#utility.yul\":6432:6453   */\n      tag_205\n        /* \"#utility.yul\":6447:6452   */\n      dup2\n        /* \"#utility.yul\":6432:6453   */\n      tag_102\n      jump\t// in\n    tag_205:\n        /* \"#utility.yul\":6427:6430   */\n      dup3\n        /* \"#utility.yul\":6420:6454   */\n      mstore\n        /* \"#utility.yul\":6351:6460   */\n      pop\n      pop\n      jump\t// out\n        /* \"#utility.yul\":6466:7926   */\n    tag_21:\n        /* \"#utility.yul\":6857:6861   */\n      0x00\n        /* \"#utility.yul\":6895:6898   */\n      0x0120\n        /* \"#utility.yul\":6884:6893   */\n      dup3\n        /* \"#utility.yul\":6880:6899   */\n      add\n        /* \"#utility.yul\":6872:6899   */\n      swap1\n      pop\n        /* \"#utility.yul\":6909:6980   */\n      tag_207\n        /* \"#utility.yul\":6977:6978   */\n      0x00\n        /* \"#utility.yul\":6966:6975   */\n      dup4\n        /* \"#utility.yul\":6962:6979   */\n      add\n        /* \"#utility.yul\":6953:6959   */\n      dup13\n        /* \"#utility.yul\":6909:6980   */\n      tag_97\n      jump\t// in\n    tag_207:\n        /* \"#utility.yul\":7027:7036   */\n      dup2\n        /* \"#utility.yul\":7021:7025   */\n      dup2\n        /* \"#utility.yul\":7017:7037   */\n      sub\n        /* \"#utility.yul\":7012:7014   */\n      0x20\n        /* \"#utility.yul\":7001:7010   */\n      dup4\n        /* \"#utility.yul\":6997:7015   */\n      add\n        /* \"#utility.yul\":6990:7038   */\n      mstore\n        /* \"#utility.yul\":7055:7133   */\n      tag_208\n        /* \"#utility.yul\":7128:7132   */\n      dup2\n        /* \"#utility.yul\":7119:7125   */\n      dup12\n        /* \"#utility.yul\":7055:7133   */\n      tag_101\n      jump\t// in\n    tag_208:\n        /* \"#utility.yul\":7047:7133   */\n      swap1\n      pop\n        /* \"#utility.yul\":7180:7189   */\n      dup2\n        /* \"#utility.yul\":7174:7178   */\n      dup2\n        /* \"#utility.yul\":7170:7190   */\n      sub\n        /* \"#utility.yul\":7165:7167   */\n      0x40\n        /* \"#utility.yul\":7154:7163   */\n      dup4\n        /* \"#utility.yul\":7150:7168   */\n      add\n        /* \"#utility.yul\":7143:7191   */\n      mstore\n        /* \"#utility.yul\":7208:7286   */\n      tag_209\n        /* \"#utility.yul\":7281:7285   */\n      dup2\n        /* \"#utility.yul\":7272:7278   */\n      dup11\n        /* \"#utility.yul\":7208:7286   */\n      tag_101\n      jump\t// in\n    tag_209:\n        /* \"#utility.yul\":7200:7286   */\n      swap1\n      pop\n        /* \"#utility.yul\":7296:7368   */\n      tag_210\n        /* \"#utility.yul\":7364:7366   */\n      0x60\n        /* \"#utility.yul\":7353:7362   */\n      dup4\n        /* \"#utility.yul\":7349:7367   */\n      add\n        /* \"#utility.yul\":7340:7346   */\n      dup10\n        /* \"#utility.yul\":7296:7368   */\n      tag_92\n      jump\t// in\n    tag_210:\n        /* \"#utility.yul\":7378:7445   */\n      tag_211\n        /* \"#utility.yul\":7440:7443   */\n      0x80\n        /* \"#utility.yul\":7429:7438   */\n      dup4\n        /* \"#utility.yul\":7425:7444   */\n      add\n        /* \"#utility.yul\":7416:7422   */\n      dup9\n        /* \"#utility.yul\":7378:7445   */\n      tag_103\n      jump\t// in\n    tag_211:\n        /* \"#utility.yul\":7455:7528   */\n      tag_212\n        /* \"#utility.yul\":7523:7526   */\n      0xa0\n        /* \"#utility.yul\":7512:7521   */\n      dup4\n        /* \"#utility.yul\":7508:7527   */\n      add\n        /* \"#utility.yul\":7499:7505   */\n      dup8\n        /* \"#utility.yul\":7455:7528   */\n      tag_92\n      jump\t// in\n    tag_212:\n        /* \"#utility.yul\":7538:7611   */\n      tag_213\n        /* \"#utility.yul\":7606:7609   */\n      0xc0\n        /* \"#utility.yul\":7595:7604   */\n      dup4\n        /* \"#utility.yul\":7591:7610   */\n      add\n        /* \"#utility.yul\":7582:7588   */\n      dup7\n        /* \"#utility.yul\":7538:7611   */\n      tag_92\n      jump\t// in\n    tag_213:\n        /* \"#utility.yul\":7659:7668   */\n      dup2\n        /* \"#utility.yul\":7653:7657   */\n      dup2\n        /* \"#utility.yul\":7649:7669   */\n      sub\n        /* \"#utility.yul\":7643:7646   */\n      0xe0\n        /* \"#utility.yul\":7632:7641   */\n      dup4\n        /* \"#utility.yul\":7628:7647   */\n      add\n        /* \"#utility.yul\":7621:7670   */\n      mstore\n        /* \"#utility.yul\":7687:7765   */\n      tag_214\n        /* \"#utility.yul\":7760:7764   */\n      dup2\n        /* \"#utility.yul\":7751:7757   */\n      dup6\n        /* \"#utility.yul\":7687:7765   */\n      tag_101\n      jump\t// in\n    tag_214:\n        /* \"#utility.yul\":7679:7765   */\n      swap1\n      pop\n        /* \"#utility.yul\":7813:7822   */\n      dup2\n        /* \"#utility.yul\":7807:7811   */\n      dup2\n        /* \"#utility.yul\":7803:7823   */\n      sub\n        /* \"#utility.yul\":7797:7800   */\n      0x0100\n        /* \"#utility.yul\":7786:7795   */\n      dup4\n        /* \"#utility.yul\":7782:7801   */\n      add\n        /* \"#utility.yul\":7775:7824   */\n      mstore\n        /* \"#utility.yul\":7841:7919   */\n      tag_215\n        /* \"#utility.yul\":7914:7918   */\n      dup2\n        /* \"#utility.yul\":7905:7911   */\n      dup5\n        /* \"#utility.yul\":7841:7919   */\n      tag_101\n      jump\t// in\n    tag_215:\n        /* \"#utility.yul\":7833:7919   */\n      swap1\n      pop\n        /* \"#utility.yul\":6466:7926   */\n      swap11\n      swap10\n      pop\n      pop\n      pop\n      pop\n      pop\n      pop\n      pop\n      pop\n      pop\n      pop\n      jump\t// out\n        /* \"#utility.yul\":7932:8038   */\n    tag_104:\n        /* \"#utility.yul\":8012:8013   */\n      0x02\n        /* \"#utility.yul\":8005:8010   */\n      dup2\n        /* \"#utility.yul\":8002:8014   */\n      lt\n        /* \"#utility.yul\":7992:8032   */\n      tag_217\n      jumpi\n        /* \"#utility.yul\":8028:8029   */\n      0x00\n        /* \"#utility.yul\":8025:8026   */\n      dup1\n        /* \"#utility.yul\":8018:8030   */\n      revert\n        /* \"#utility.yul\":7992:8032   */\n    tag_217:\n        /* \"#utility.yul\":7932:8038   */\n      pop\n      jump\t// out\n        /* \"#utility.yul\":8044:8197   */\n    tag_105:\n        /* \"#utility.yul\":8097:8102   */\n      0x00\n        /* \"#utility.yul\":8135:8141   */\n      dup2\n        /* \"#utility.yul\":8122:8142   */\n      calldataload\n        /* \"#utility.yul\":8113:8142   */\n      swap1\n      pop\n        /* \"#utility.yul\":8151:8191   */\n      tag_219\n        /* \"#utility.yul\":8185:8190   */\n      dup2\n        /* \"#utility.yul\":8151:8191   */\n      tag_104\n      jump\t// in\n    tag_219:\n        /* \"#utility.yul\":8044:8197   */\n      swap3\n      swap2\n      pop\n      pop\n      jump\t// out\n        /* \"#utility.yul\":8203:8691   */\n    tag_24:\n        /* \"#utility.yul\":8278:8284   */\n      0x00\n        /* \"#utility.yul\":8286:8292   */\n      dup1\n        /* \"#utility.yul\":8335:8337   */\n      0x40\n        /* \"#utility.yul\":8323:8332   */\n      dup4\n        /* \"#utility.yul\":8314:8321   */\n      dup6\n        /* \"#utility.yul\":8310:8333   */\n      sub\n        /* \"#utility.yul\":8306:8338   */\n      slt\n        /* \"#utility.yul\":8303:8422   */\n      iszero\n      tag_221\n      jumpi\n        /* \"#utility.yul\":8341:8420   */\n      tag_222\n      tag_79\n      jump\t// in\n    tag_222:\n        /* \"#utility.yul\":8303:8422   */\n    tag_221:\n        /* \"#utility.yul\":8461:8462   */\n      0x00\n        /* \"#utility.yul\":8486:8539   */\n      tag_223\n        /* \"#utility.yul\":8531:8538   */\n      dup6\n        /* \"#utility.yul\":8522:8528   */\n      dup3\n        /* \"#utility.yul\":8511:8520   */\n      dup7\n        /* \"#utility.yul\":8507:8529   */\n      add\n        /* \"#utility.yul\":8486:8539   */\n      tag_94\n      jump\t// in\n    tag_223:\n        /* \"#utility.yul\":8476:8539   */\n      swap3\n      pop\n        /* \"#utility.yul\":8432:8549   */\n      pop\n        /* \"#utility.yul\":8588:8590   */\n      0x20\n        /* \"#utility.yul\":8614:8674   */\n      tag_224\n        /* \"#utility.yul\":8666:8673   */\n      dup6\n        /* \"#utility.yul\":8657:8663   */\n      dup3\n        /* \"#utility.yul\":8646:8655   */\n      dup7\n        /* \"#utility.yul\":8642:8664   */\n      add\n        /* \"#utility.yul\":8614:8674   */\n      tag_105\n      jump\t// in\n    tag_224:\n        /* \"#utility.yul\":8604:8674   */\n      swap2\n      pop\n        /* \"#utility.yul\":8559:8684   */\n      pop\n        /* \"#utility.yul\":8203:8691   */\n      swap3\n      pop\n      swap3\n      swap1\n      pop\n      jump\t// out\n        /* \"#utility.yul\":8697:8877   */\n    tag_106:\n        /* \"#utility.yul\":8745:8822   */\n      0x4e487b7100000000000000000000000000000000000000000000000000000000\n        /* \"#utility.yul\":8742:8743   */\n      0x00\n        /* \"#utility.yul\":8735:8823   */\n      mstore\n        /* \"#utility.yul\":8842:8846   */\n      0x22\n        /* \"#utility.yul\":8839:8840   */\n      0x04\n        /* \"#utility.yul\":8832:8847   */\n      mstore\n        /* \"#utility.yul\":8866:8870   */\n      0x24\n        /* \"#utility.yul\":8863:8864   */\n      0x00\n        /* \"#utility.yul\":8856:8871   */\n      revert\n        /* \"#utility.yul\":8883:9203   */\n    tag_40:\n        /* \"#utility.yul\":8927:8933   */\n      0x00\n        /* \"#utility.yul\":8964:8965   */\n      0x02\n        /* \"#utility.yul\":8958:8962   */\n      dup3\n        /* \"#utility.yul\":8954:8966   */\n      div\n        /* \"#utility.yul\":8944:8966   */\n      swap1\n      pop\n        /* \"#utility.yul\":9011:9012   */\n      0x01\n        /* \"#utility.yul\":9005:9009   */\n      dup3\n        /* \"#utility.yul\":9001:9013   */\n      and\n        /* \"#utility.yul\":9032:9050   */\n      dup1\n        /* \"#utility.yul\":9022:9103   */\n      tag_227\n      jumpi\n        /* \"#utility.yul\":9088:9092   */\n      0x7f\n        /* \"#utility.yul\":9080:9086   */\n      dup3\n        /* \"#utility.yul\":9076:9093   */\n      and\n        /* \"#utility.yul\":9066:9093   */\n      swap2\n      pop\n        /* \"#utility.yul\":9022:9103   */\n    tag_227:\n        /* \"#utility.yul\":9150:9152   */\n      0x20\n        /* \"#utility.yul\":9142:9148   */\n      dup3\n        /* \"#utility.yul\":9139:9153   */\n      lt\n        /* \"#utility.yul\":9119:9137   */\n      dup2\n        /* \"#utility.yul\":9116:9154   */\n      sub\n        /* \"#utility.yul\":9113:9197   */\n      tag_228\n      jumpi\n        /* \"#utility.yul\":9169:9187   */\n      tag_229\n      tag_106\n      jump\t// in\n    tag_229:\n        /* \"#utility.yul\":9113:9197   */\n    tag_228:\n        /* \"#utility.yul\":8934:9203   */\n      pop\n        /* \"#utility.yul\":8883:9203   */\n      swap2\n      swap1\n      pop\n      jump\t// out\n        /* \"#utility.yul\":9209:9350   */\n    tag_107:\n        /* \"#utility.yul\":9258:9262   */\n      0x00\n        /* \"#utility.yul\":9281:9284   */\n      dup2\n        /* \"#utility.yul\":9273:9284   */\n      swap1\n      pop\n        /* \"#utility.yul\":9304:9307   */\n      dup2\n        /* \"#utility.yul\":9301:9302   */\n      0x00\n        /* \"#utility.yul\":9294:9308   */\n      mstore\n        /* \"#utility.yul\":9338:9342   */\n      0x20\n        /* \"#utility.yul\":9335:9336   */\n      0x00\n        /* \"#utility.yul\":9325:9343   */\n      keccak256\n        /* \"#utility.yul\":9317:9343   */\n      swap1\n      pop\n        /* \"#utility.yul\":9209:9350   */\n      swap2\n      swap1\n      pop\n      jump\t// out\n        /* \"#utility.yul\":9356:9449   */\n    tag_108:\n        /* \"#utility.yul\":9393:9399   */\n      0x00\n        /* \"#utility.yul\":9440:9442   */\n      0x20\n        /* \"#utility.yul\":9435:9437   */\n      0x1f\n        /* \"#utility.yul\":9428:9433   */\n      dup4\n        /* \"#utility.yul\":9424:9438   */\n      add\n        /* \"#utility.yul\":9420:9443   */\n      div\n        /* \"#utility.yul\":9410:9443   */\n      swap1\n      pop\n        /* \"#utility.yul\":9356:9449   */\n      swap2\n      swap1\n      pop\n      jump\t// out\n        /* \"#utility.yul\":9455:9562   */\n    tag_109:\n        /* \"#utility.yul\":9499:9507   */\n      0x00\n        /* \"#utility.yul\":9549:9554   */\n      dup3\n        /* \"#utility.yul\":9543:9547   */\n      dup3\n        /* \"#utility.yul\":9539:9555   */\n      shl\n        /* \"#utility.yul\":9518:9555   */\n      swap1\n      pop\n        /* \"#utility.yul\":9455:9562   */\n      swap3\n      swap2\n      pop\n      pop\n      jump\t// out\n        /* \"#utility.yul\":9568:9961   */\n    tag_110:\n        /* \"#utility.yul\":9637:9643   */\n      0x00\n        /* \"#utility.yul\":9687:9688   */\n      0x08\n        /* \"#utility.yul\":9675:9685   */\n      dup4\n        /* \"#utility.yul\":9671:9689   */\n      mul\n        /* \"#utility.yul\":9710:9807   */\n      tag_234\n        /* \"#utility.yul\":9740:9806   */\n      0xffffffffffffffffffffffffffffffffffffffffffffffffffffffffffffffff\n        /* \"#utility.yul\":9729:9738   */\n      dup3\n        /* \"#utility.yul\":9710:9807   */\n      tag_109\n      jump\t// in\n    tag_234:\n        /* \"#utility.yul\":9828:9867   */\n      tag_235\n        /* \"#utility.yul\":9858:9866   */\n      dup7\n        /* \"#utility.yul\":9847:9856   */\n      dup4\n        /* \"#utility.yul\":9828:9867   */\n      tag_109\n      jump\t// in\n    tag_235:\n        /* \"#utility.yul\":9816:9867   */\n      swap6\n      pop\n        /* \"#utility.yul\":9900:9904   */\n      dup1\n        /* \"#utility.yul\":9896:9905   */\n      not\n        /* \"#utility.yul\":9889:9894   */\n      dup5\n        /* \"#utility.yul\":9885:9906   */\n      and\n        /* \"#utility.yul\":9876:9906   */\n      swap4\n      pop\n        /* \"#utility.yul\":9949:9953   */\n      dup1\n        /* \"#utility.yul\":9939:9947   */\n      dup7\n        /* \"#utility.yul\":9935:9954   */\n      and\n        /* \"#utility.yul\":9928:9933   */\n      dup5\n        /* \"#utility.yul\":9925:9955   */\n      or\n        /* \"#utility.yul\":9915:9955   */\n      swap3\n      pop\n        /* \"#utility.yul\":9644:9961   */\n      pop\n      pop\n        /* \"#utility.yul\":9568:9961   */\n      swap4\n      swap3\n      pop\n      pop\n      pop\n      jump\t// out\n        /* \"#utility.yul\":9967:10027   */\n    tag_111:\n        /* \"#utility.yul\":9995:9998   */\n      0x00\n        /* \"#utility.yul\":10016:10021   */\n      dup2\n        /* \"#utility.yul\":10009:10021   */\n      swap1\n      pop\n        /* \"#utility.yul\":9967:10027   */\n      swap2\n      swap1\n      pop\n      jump\t// out\n        /* \"#utility.yul\":10033:10175   */\n    tag_112:\n        /* \"#utility.yul\":10083:10092   */\n      0x00\n        /* \"#utility.yul\":10116:10169   */\n      tag_238\n        /* \"#utility.yul\":10134:10168   */\n      tag_239\n        /* \"#utility.yul\":10143:10167   */\n      tag_240\n        /* \"#utility.yul\":10161:10166   */\n      dup5\n        /* \"#utility.yul\":10143:10167   */\n      tag_91\n      jump\t// in\n    tag_240:\n        /* \"#utility.yul\":10134:10168   */\n      tag_111\n      jump\t// in\n    tag_239:\n        /* \"#utility.yul\":10116:10169   */\n      tag_91\n      jump\t// in\n    tag_238:\n        /* \"#utility.yul\":10103:10169   */\n      swap1\n      pop\n        /* \"#utility.yul\":10033:10175   */\n      swap2\n      swap1\n      pop\n      jump\t// out\n        /* \"#utility.yul\":10181:10256   */\n    tag_113:\n        /* \"#utility.yul\":10224:10227   */\n      0x00\n        /* \"#utility.yul\":10245:10250   */\n      dup2\n        /* \"#utility.yul\":10238:10250   */\n      swap1\n      pop\n        /* \"#utility.yul\":10181:10256   */\n      swap2\n      swap1\n      pop\n      jump\t// out\n        /* \"#utility.yul\":10262:10531   */\n    tag_114:\n        /* \"#utility.yul\":10372:10411   */\n      tag_243\n        /* \"#utility.yul\":10403:10410   */\n      dup4\n        /* \"#utility.yul\":10372:10411   */\n      tag_112\n      jump\t// in\n    tag_243:\n        /* \"#utility.yul\":10433:10524   */\n      tag_244\n        /* \"#utility.yul\":10482:10523   */\n      tag_245\n        /* \"#utility.yul\":10506:10522   */\n      dup3\n        /* \"#utility.yul\":10482:10523   */\n      tag_113\n      jump\t// in\n    tag_245:\n        /* \"#utility.yul\":10474:10480   */\n      dup5\n        /* \"#utility.yul\":10467:10471   */\n      dup5\n        /* \"#utility.yul\":10461:10472   */\n      sload\n        /* \"#utility.yul\":10433:10524   */\n      tag_110\n      jump\t// in\n    tag_244:\n        /* \"#utility.yul\":10427:10431   */\n      dup3\n        /* \"#utility.yul\":10420:10525   */\n      sstore\n        /* \"#utility.yul\":10338:10531   */\n      pop\n        /* \"#utility.yul\":10262:10531   */\n      pop\n      pop\n      pop\n      jump\t// out\n        /* \"#utility.yul\":10537:10610   */\n    tag_115:\n        /* \"#utility.yul\":10582:10585   */\n      0x00\n        /* \"#utility.yul\":10537:10610   */\n      swap1\n      jump\t// out\n        /* \"#utility.yul\":10616:10805   */\n    tag_116:\n        /* \"#utility.yul\":10693:10725   */\n      tag_248\n      tag_115\n      jump\t// in\n    tag_248:\n        /* \"#utility.yul\":10734:10799   */\n      tag_249\n        /* \"#utility.yul\":10792:10798   */\n      dup2\n        /* \"#utility.yul\":10784:10790   */\n      dup5\n        /* \"#utility.yul\":10778:10782   */\n      dup5\n        /* \"#utility.yul\":10734:10799   */\n      tag_114\n      jump\t// in\n    tag_249:\n        /* \"#utility.yul\":10669:10805   */\n      pop\n        /* \"#utility.yul\":10616:10805   */\n      pop\n      pop\n      jump\t// out\n        /* \"#utility.yul\":10811:10997   */\n    tag_117:\n        /* \"#utility.yul\":10871:10991   */\n    tag_251:\n        /* \"#utility.yul\":10888:10891   */\n      dup2\n        /* \"#utility.yul\":10881:10886   */\n      dup2\n        /* \"#utility.yul\":10878:10892   */\n      lt\n        /* \"#utility.yul\":10871:10991   */\n      iszero\n      tag_253\n      jumpi\n        /* \"#utility.yul\":10942:10981   */\n      tag_254\n        /* \"#utility.yul\":10979:10980   */\n      0x00\n        /* \"#utility.yul\":10972:10977   */\n      dup3\n        /* \"#utility.yul\":10942:10981   */\n      tag_116\n      jump\t// in\n    tag_254:\n        /* \"#utility.yul\":10915:10916   */\n      0x01\n        /* \"#utility.yul\":10908:10913   */\n      dup2\n        /* \"#utility.yul\":10904:10917   */\n      add\n        /* \"#utility.yul\":10895:10917   */\n      swap1\n      pop\n        /* \"#utility.yul\":10871:10991   */\n      jump(tag_251)\n    tag_253:\n        /* \"#utility.yul\":10811:10997   */\n      pop\n      pop\n      jump\t// out\n        /* \"#utility.yul\":11003:11546   */\n    tag_118:\n        /* \"#utility.yul\":11104:11106   */\n      0x1f\n        /* \"#utility.yul\":11099:11102   */\n      dup3\n        /* \"#utility.yul\":11096:11107   */\n      gt\n        /* \"#utility.yul\":11093:11539   */\n      iszero\n      tag_256\n      jumpi\n        /* \"#utility.yul\":11138:11176   */\n      tag_257\n        /* \"#utility.yul\":11170:11175   */\n      dup2\n        /* \"#utility.yul\":11138:11176   */\n      tag_107\n      jump\t// in\n    tag_257:\n        /* \"#utility.yul\":11222:11251   */\n      tag_258\n        /* \"#utility.yul\":11240:11250   */\n      dup5\n        /* \"#utility.yul\":11222:11251   */\n      tag_108\n      jump\t// in\n    tag_258:\n        /* \"#utility.yul\":11212:11220   */\n      dup2\n        /* \"#utility.yul\":11208:11252   */\n      add\n        /* \"#utility.yul\":11405:11407   */\n      0x20\n        /* \"#utility.yul\":11393:11403   */\n      dup6\n        /* \"#utility.yul\":11390:11408   */\n      lt\n        /* \"#utility.yul\":11387:11436   */\n      iszero\n      tag_259\n      jumpi\n        /* \"#utility.yul\":11426:11434   */\n      dup2\n        /* \"#utility.yul\":11411:11434   */\n      swap1\n      pop\n        /* \"#utility.yul\":11387:11436   */\n    tag_259:\n        /* \"#utility.yul\":11449:11529   */\n      tag_260\n        /* \"#utility.yul\":11505:11527   */\n      tag_261\n        /* \"#utility.yul\":11523:11526   */\n      dup6\n        /* \"#utility.yul\":11505:11527   */\n      tag_108\n      jump\t// in\n    tag_261:\n        /* \"#utility.yul\":11495:11503   */\n      dup4\n        /* \"#utility.yul\":11491:11528   */\n      add\n        /* \"#utility.yul\":11478:11489   */\n      dup3\n        /* \"#utility.yul\":11449:11529   */\n      tag_117\n      jump\t// in\n    tag_260:\n        /* \"#utility.yul\":11108:11539   */\n      pop\n      pop\n        /* \"#utility.yul\":11093:11539   */\n    tag_256:\n        /* \"#utility.yul\":11003:11546   */\n      pop\n      pop\n      pop\n      jump\t// out\n        /* \"#utility.yul\":11552:11669   */\n    tag_119:\n        /* \"#utility.yul\":11606:11614   */\n      0x00\n        /* \"#utility.yul\":11656:11661   */\n      dup3\n        /* \"#utility.yul\":11650:11654   */\n      dup3\n        /* \"#utility.yul\":11646:11662   */\n      shr\n        /* \"#utility.yul\":11625:11662   */\n      swap1\n      pop\n        /* \"#utility.yul\":11552:11669   */\n      swap3\n      swap2\n      pop\n      pop\n      jump\t// out\n        /* \"#utility.yul\":11675:11844   */\n    tag_120:\n        /* \"#utility.yul\":11719:11725   */\n      0x00\n        /* \"#utility.yul\":11752:11803   */\n      tag_264\n        /* \"#utility.yul\":11800:11801   */\n      0x00\n        /* \"#utility.yul\":11796:11802   */\n      not\n        /* \"#utility.yul\":11788:11793   */\n      dup5\n        /* \"#utility.yul\":11785:11786   */\n      0x08\n        /* \"#utility.yul\":11781:11794   */\n      mul\n        /* \"#utility.yul\":11752:11803   */\n      tag_119\n      jump\t// in\n    tag_264:\n        /* \"#utility.yul\":11748:11804   */\n      not\n        /* \"#utility.yul\":11833:11837   */\n      dup1\n        /* \"#utility.yul\":11827:11831   */\n      dup4\n        /* \"#utility.yul\":11823:11838   */\n      and\n        /* \"#utility.yul\":11813:11838   */\n      swap2\n      pop\n        /* \"#utility.yul\":11726:11844   */\n      pop\n        /* \"#utility.yul\":11675:11844   */\n      swap3\n      swap2\n      pop\n      pop\n      jump\t// out\n        /* \"#utility.yul\":11849:12144   */\n    tag_121:\n        /* \"#utility.yul\":11925:11929   */\n      0x00\n        /* \"#utility.yul\":12071:12100   */\n      tag_266\n        /* \"#utility.yul\":12096:12099   */\n      dup4\n        /* \"#utility.yul\":12090:12094   */\n      dup4\n        /* \"#utility.yul\":12071:12100   */\n      tag_120\n      jump\t// in\n    tag_266:\n        /* \"#utility.yul\":12063:12100   */\n      swap2\n      pop\n        /* \"#utility.yul\":12133:12136   */\n      dup3\n        /* \"#utility.yul\":12130:12131   */\n      0x02\n        /* \"#utility.yul\":12126:12137   */\n      mul\n        /* \"#utility.yul\":12120:12124   */\n      dup3\n        /* \"#utility.yul\":12117:12138   */\n      or\n        /* \"#utility.yul\":12109:12138   */\n      swap1\n      pop\n        /* \"#utility.yul\":11849:12144   */\n      swap3\n      swap2\n      pop\n      pop\n      jump\t// out\n        /* \"#utility.yul\":12149:13544   */\n    tag_28:\n        /* \"#utility.yul\":12266:12303   */\n      tag_268\n        /* \"#utility.yul\":12299:12302   */\n      dup3\n        /* \"#utility.yul\":12266:12303   */\n      tag_98\n      jump\t// in\n    tag_268:\n        /* \"#utility.yul\":12368:12386   */\n      0xffffffffffffffff\n        /* \"#utility.yul\":12360:12366   */\n      dup2\n        /* \"#utility.yul\":12357:12387   */\n      gt\n        /* \"#utility.yul\":12354:12410   */\n      iszero\n      tag_269\n      jumpi\n        /* \"#utility.yul\":12390:12408   */\n      tag_270\n      tag_84\n      jump\t// in\n    tag_270:\n        /* \"#utility.yul\":12354:12410   */\n    tag_269:\n        /* \"#utility.yul\":12434:12472   */\n      tag_271\n        /* \"#utility.yul\":12466:12470   */\n      dup3\n        /* \"#utility.yul\":12460:12471   */\n      sload\n        /* \"#utility.yul\":12434:12472   */\n      tag_40\n      jump\t// in\n    tag_271:\n        /* \"#utility.yul\":12519:12586   */\n      tag_272\n        /* \"#utility.yul\":12579:12585   */\n      dup3\n        /* \"#utility.yul\":12571:12577   */\n      dup3\n        /* \"#utility.yul\":12565:12569   */\n      dup6\n        /* \"#utility.yul\":12519:12586   */\n      tag_118\n      jump\t// in\n    tag_272:\n        /* \"#utility.yul\":12613:12614   */\n      0x00\n        /* \"#utility.yul\":12637:12641   */\n      0x20\n        /* \"#utility.yul\":12624:12641   */\n      swap1\n      pop\n        /* \"#utility.yul\":12669:12671   */\n      0x1f\n        /* \"#utility.yul\":12661:12667   */\n      dup4\n        /* \"#utility.yul\":12658:12672   */\n      gt\n        /* \"#utility.yul\":12686:12687   */\n      0x01\n        /* \"#utility.yul\":12681:13299   */\n      dup2\n      eq\n      tag_274\n      jumpi\n        /* \"#utility.yul\":13343:13344   */\n      0x00\n        /* \"#utility.yul\":13360:13366   */\n      dup5\n        /* \"#utility.yul\":13357:13434   */\n      iszero\n      tag_275\n      jumpi\n        /* \"#utility.yul\":13409:13418   */\n      dup3\n        /* \"#utility.yul\":13404:13407   */\n      dup8\n        /* \"#utility.yul\":13400:13419   */\n      add\n        /* \"#utility.yul\":13394:13420   */\n      mload\n        /* \"#utility.yul\":13385:13420   */\n      swap1\n      pop\n        /* \"#utility.yul\":13357:13434   */\n    tag_275:\n        /* \"#utility.yul\":13460:13527   */\n      tag_276\n        /* \"#utility.yul\":13520:13526   */\n      dup6\n        /* \"#utility.yul\":13513:13518   */\n      dup3\n        /* \"#utility.yul\":13460:13527   */\n      tag_121\n      jump\t// in\n    tag_276:\n        /* \"#utility.yul\":13454:13458   */\n      dup7\n        /* \"#utility.yul\":13447:13528   */\n      sstore\n        /* \"#utility.yul\":13316:13538   */\n      pop\n        /* \"#utility.yul\":12651:13538   */\n      jump(tag_273)\n        /* \"#utility.yul\":12681:13299   */\n    tag_274:\n        /* \"#utility.yul\":12733:12737   */\n      0x1f\n        /* \"#utility.yul\":12729:12738   */\n      not\n        /* \"#utility.yul\":12721:12727   */\n      dup5\n        /* \"#utility.yul\":12717:12739   */\n      and\n        /* \"#utility.yul\":12767:12804   */\n      tag_277\n        /* \"#utility.yul\":12799:12803   */\n      dup7\n        /* \"#utility.yul\":12767:12804   */\n      tag_107\n      jump\t// in\n    tag_277:\n        /* \"#utility.yul\":12826:12827   */\n      0x00\n        /* \"#utility.yul\":12840:13048   */\n    tag_278:\n        /* \"#utility.yul\":12854:12861   */\n      dup3\n        /* \"#utility.yul\":12851:12852   */\n      dup2\n        /* \"#utility.yul\":12848:12862   */\n      lt\n        /* \"#utility.yul\":12840:13048   */\n      iszero\n      tag_280\n      jumpi\n        /* \"#utility.yul\":12933:12942   */\n      dup5\n        /* \"#utility.yul\":12928:12931   */\n      dup10\n        /* \"#utility.yul\":12924:12943   */\n      add\n        /* \"#utility.yul\":12918:12944   */\n      mload\n        /* \"#utility.yul\":12910:12916   */\n      dup3\n        /* \"#utility.yul\":12903:12945   */\n      sstore\n        /* \"#utility.yul\":12984:12985   */\n      0x01\n        /* \"#utility.yul\":12976:12982   */\n      dup3\n        /* \"#utility.yul\":12972:12986   */\n      add\n        /* \"#utility.yul\":12962:12986   */\n      swap2\n      pop\n        /* \"#utility.yul\":13031:13033   */\n      0x20\n        /* \"#utility.yul\":13020:13029   */\n      dup6\n        /* \"#utility.yul\":13016:13034   */\n      add\n        /* \"#utility.yul\":13003:13034   */\n      swap5\n      pop\n        /* \"#utility.yul\":12877:12881   */\n      0x20\n        /* \"#utility.yul\":12874:12875   */\n      dup2\n        /* \"#utility.yul\":12870:12882   */\n      add\n        /* \"#utility.yul\":12865:12882   */\n      swap1\n      pop\n        /* \"#utility.yul\":12840:13048   */\n      jump(tag_278)\n    tag_280:\n        /* \"#utility.yul\":13076:13082   */\n      dup7\n        /* \"#utility.yul\":13067:13074   */\n      dup4\n        /* \"#utility.yul\":13064:13083   */\n      lt\n        /* \"#utility.yul\":13061:13240   */\n      iszero\n      tag_281\n      jumpi\n        /* \"#utility.yul\":13134:13143   */\n      dup5\n        /* \"#utility.yul\":13129:13132   */\n      dup10\n        /* \"#utility.yul\":13125:13144   */\n      add\n        /* \"#utility.yul\":13119:13145   */\n      mload\n        /* \"#utility.yul\":13177:13225   */\n      tag_282\n        /* \"#utility.yul\":13219:13223   */\n      0x1f\n        /* \"#utility.yul\":13211:13217   */\n      dup10\n        /* \"#utility.yul\":13207:13224   */\n      and\n        /* \"#utility.yul\":13196:13205   */\n      dup3\n        /* \"#utility.yul\":13177:13225   */\n      tag_120\n      jump\t// in\n    tag_282:\n        /* \"#utility.yul\":13169:13175   */\n      dup4\n        /* \"#utility.yul\":13162:13226   */\n      sstore\n        /* \"#utility.yul\":13084:13240   */\n      pop\n        /* \"#utility.yul\":13061:13240   */\n    tag_281:\n        /* \"#utility.yul\":13286:13287   */\n      0x01\n        /* \"#utility.yul\":13282:13283   */\n      0x02\n        /* \"#utility.yul\":13274:13280   */\n      dup9\n        /* \"#utility.yul\":13270:13284   */\n      mul\n        /* \"#utility.yul\":13266:13288   */\n      add\n        /* \"#utility.yul\":13260:13264   */\n      dup9\n        /* \"#utility.yul\":13253:13289   */\n      sstore\n        /* \"#utility.yul\":12688:13299   */\n      pop\n      pop\n      pop\n        /* \"#utility.yul\":12651:13538   */\n    tag_273:\n      pop\n        /* \"#utility.yul\":12241:13544   */\n      pop\n      pop\n      pop\n        /* \"#utility.yul\":12149:13544   */\n      pop\n      pop\n      jump\t// out\n        /* \"#utility.yul\":13550:13730   */\n    tag_122:\n        /* \"#utility.yul\":13598:13675   */\n      0x4e487b7100000000000000000000000000000000000000000000000000000000\n        /* \"#utility.yul\":13595:13596   */\n      0x00\n        /* \"#utility.yul\":13588:13676   */\n      mstore\n        /* \"#utility.yul\":13695:13699   */\n      0x11\n        /* \"#utility.yul\":13692:13693   */\n      0x04\n        /* \"#utility.yul\":13685:13700   */\n      mstore\n        /* \"#utility.yul\":13719:13723   */\n      0x24\n        /* \"#utility.yul\":13716:13717   */\n      0x00\n        /* \"#utility.yul\":13709:13724   */\n      revert\n        /* \"#utility.yul\":13736:13969   */\n    tag_33:\n        /* \"#utility.yul\":13775:13778   */\n      0x00\n        /* \"#utility.yul\":13798:13822   */\n      tag_285\n        /* \"#utility.yul\":13816:13821   */\n      dup3\n        /* \"#utility.yul\":13798:13822   */\n      tag_91\n      jump\t// in\n    tag_285:\n        /* \"#utility.yul\":13789:13822   */\n      swap2\n      pop\n        /* \"#utility.yul\":13844:13910   */\n      0xffffffffffffffffffffffffffffffffffffffffffffffffffffffffffffffff\n        /* \"#utility.yul\":13837:13842   */\n      dup3\n        /* \"#utility.yul\":13834:13911   */\n      sub\n        /* \"#utility.yul\":13831:13934   */\n      tag_286\n      jumpi\n        /* \"#utility.yul\":13914:13932   */\n      tag_287\n      tag_122\n      jump\t// in\n    tag_287:\n        /* \"#utility.yul\":13831:13934   */\n    tag_286:\n        /* \"#utility.yul\":13961:13962   */\n      0x01\n        /* \"#utility.yul\":13954:13959   */\n      dup3\n        /* \"#utility.yul\":13950:13963   */\n      add\n        /* \"#utility.yul\":13943:13963   */\n      swap1\n      pop\n        /* \"#utility.yul\":13736:13969   */\n      swap2\n      swap1\n      pop\n      jump\t// out\n        /* \"#utility.yul\":13975:14169   */\n    tag_35:\n        /* \"#utility.yul\":14015:14019   */\n      0x00\n        /* \"#utility.yul\":14035:14055   */\n      tag_289\n        /* \"#utility.yul\":14053:14054   */\n      dup3\n        /* \"#utility.yul\":14035:14055   */\n      tag_91\n      jump\t// in\n    tag_289:\n        /* \"#utility.yul\":14030:14055   */\n      swap2\n      pop\n        /* \"#utility.yul\":14069:14089   */\n      tag_290\n        /* \"#utility.yul\":14087:14088   */\n      dup4\n        /* \"#utility.yul\":14069:14089   */\n      tag_91\n      jump\t// in\n    tag_290:\n        /* \"#utility.yul\":14064:14089   */\n      swap3\n      pop\n        /* \"#utility.yul\":14113:14114   */\n      dup3\n        /* \"#utility.yul\":14110:14111   */\n      dup3\n        /* \"#utility.yul\":14106:14115   */\n      sub\n        /* \"#utility.yul\":14098:14115   */\n      swap1\n      pop\n        /* \"#utility.yul\":14137:14138   */\n      dup2\n        /* \"#utility.yul\":14131:14135   */\n      dup2\n        /* \"#utility.yul\":14128:14139   */\n      gt\n        /* \"#utility.yul\":14125:14162   */\n      iszero\n      tag_291\n      jumpi\n        /* \"#utility.yul\":14142:14160   */\n      tag_292\n      tag_122\n      jump\t// in\n    tag_292:\n        /* \"#utility.yul\":14125:14162   */\n    tag_291:\n        /* \"#utility.yul\":13975:14169   */\n      swap3\n      swap2\n      pop\n      pop\n      jump\t// out\n        /* \"#utility.yul\":14175:14598   */\n    tag_37:\n        /* \"#utility.yul\":14316:14320   */\n      0x00\n        /* \"#utility.yul\":14354:14356   */\n      0x40\n        /* \"#utility.yul\":14343:14352   */\n      dup3\n        /* \"#utility.yul\":14339:14357   */\n      add\n        /* \"#utility.yul\":14331:14357   */\n      swap1\n      pop\n        /* \"#utility.yul\":14403:14412   */\n      dup2\n        /* \"#utility.yul\":14397:14401   */\n      dup2\n        /* \"#utility.yul\":14393:14413   */\n      sub\n        /* \"#utility.yul\":14389:14390   */\n      0x00\n        /* \"#utility.yul\":14378:14387   */\n      dup4\n        /* \"#utility.yul\":14374:14391   */\n      add\n        /* \"#utility.yul\":14367:14414   */\n      mstore\n        /* \"#utility.yul\":14431:14509   */\n      tag_294\n        /* \"#utility.yul\":14504:14508   */\n      dup2\n        /* \"#utility.yul\":14495:14501   */\n      dup6\n        /* \"#utility.yul\":14431:14509   */\n      tag_101\n      jump\t// in\n    tag_294:\n        /* \"#utility.yul\":14423:14509   */\n      swap1\n      pop\n        /* \"#utility.yul\":14519:14591   */\n      tag_295\n        /* \"#utility.yul\":14587:14589   */\n      0x20\n        /* \"#utility.yul\":14576:14585   */\n      dup4\n        /* \"#utility.yul\":14572:14590   */\n      add\n        /* \"#utility.yul\":14563:14569   */\n      dup5\n        /* \"#utility.yul\":14519:14591   */\n      tag_92\n      jump\t// in\n    tag_295:\n        /* \"#utility.yul\":14175:14598   */\n      swap4\n      swap3\n      pop\n      pop\n      pop\n      jump\t// out\n        /* \"#utility.yul\":14604:14781   */\n    tag_123:\n        /* \"#utility.yul\":14744:14773   */\n      0x5468652070726f706f73616c20646f6573206e6f742065786973740000000000\n        /* \"#utility.yul\":14740:14741   */\n      0x00\n        /* \"#utility.yul\":14732:14738   */\n      dup3\n        /* \"#utility.yul\":14728:14742   */\n      add\n        /* \"#utility.yul\":14721:14774   */\n      mstore\n        /* \"#utility.yul\":14604:14781   */\n      pop\n      jump\t// out\n        /* \"#utility.yul\":14787:15153   */\n    tag_124:\n        /* \"#utility.yul\":14929:14932   */\n      0x00\n        /* \"#utility.yul\":14950:15017   */\n      tag_298\n        /* \"#utility.yul\":15014:15016   */\n      0x1b\n        /* \"#utility.yul\":15009:15012   */\n      dup4\n        /* \"#utility.yul\":14950:15017   */\n      tag_99\n      jump\t// in\n    tag_298:\n        /* \"#utility.yul\":14943:15017   */\n      swap2\n      pop\n        /* \"#utility.yul\":15026:15119   */\n      tag_299\n        /* \"#utility.yul\":15115:15118   */\n      dup3\n        /* \"#utility.yul\":15026:15119   */\n      tag_123\n      jump\t// in\n    tag_299:\n        /* \"#utility.yul\":15144:15146   */\n      0x20\n        /* \"#utility.yul\":15139:15142   */\n      dup3\n        /* \"#utility.yul\":15135:15147   */\n      add\n        /* \"#utility.yul\":15128:15147   */\n      swap1\n      pop\n        /* \"#utility.yul\":14787:15153   */\n      swap2\n      swap1\n      pop\n      jump\t// out\n        /* \"#utility.yul\":15159:15578   */\n    tag_63:\n        /* \"#utility.yul\":15325:15329   */\n      0x00\n        /* \"#utility.yul\":15363:15365   */\n      0x20\n        /* \"#utility.yul\":15352:15361   */\n      dup3\n        /* \"#utility.yul\":15348:15366   */\n      add\n        /* \"#utility.yul\":15340:15366   */\n      swap1\n      pop\n        /* \"#utility.yul\":15412:15421   */\n      dup2\n        /* \"#utility.yul\":15406:15410   */\n      dup2\n        /* \"#utility.yul\":15402:15422   */\n      sub\n        /* \"#utility.yul\":15398:15399   */\n      0x00\n        /* \"#utility.yul\":15387:15396   */\n      dup4\n        /* \"#utility.yul\":15383:15400   */\n      add\n        /* \"#utility.yul\":15376:15423   */\n      mstore\n        /* \"#utility.yul\":15440:15571   */\n      tag_301\n        /* \"#utility.yul\":15566:15570   */\n      dup2\n        /* \"#utility.yul\":15440:15571   */\n      tag_124\n      jump\t// in\n    tag_301:\n        /* \"#utility.yul\":15432:15571   */\n      swap1\n      pop\n        /* \"#utility.yul\":15159:15578   */\n      swap2\n      swap1\n      pop\n      jump\t// out\n        /* \"#utility.yul\":15584:15810   */\n    tag_125:\n        /* \"#utility.yul\":15724:15758   */\n      0x596f75206861766520616c726561647920766f746564206f6e20746869732070\n        /* \"#utility.yul\":15720:15721   */\n      0x00\n        /* \"#utility.yul\":15712:15718   */\n      dup3\n        /* \"#utility.yul\":15708:15722   */\n      add\n        /* \"#utility.yul\":15701:15759   */\n      mstore\n        /* \"#utility.yul\":15793:15802   */\n      0x726f706f73616c00000000000000000000000000000000000000000000000000\n        /* \"#utility.yul\":15788:15790   */\n      0x20\n        /* \"#utility.yul\":15780:15786   */\n      dup3\n        /* \"#utility.yul\":15776:15791   */\n      add\n        /* \"#utility.yul\":15769:15803   */\n      mstore\n        /* \"#utility.yul\":15584:15810   */\n      pop\n      jump\t// out\n        /* \"#utility.yul\":15816:16182   */\n    tag_126:\n        /* \"#utility.yul\":15958:15961   */\n      0x00\n        /* \"#utility.yul\":15979:16046   */\n      tag_304\n        /* \"#utility.yul\":16043:16045   */\n      0x27\n        /* \"#utility.yul\":16038:16041   */\n      dup4\n        /* \"#utility.yul\":15979:16046   */\n      tag_99\n      jump\t// in\n    tag_304:\n        /* \"#utility.yul\":15972:16046   */\n      swap2\n      pop\n        /* \"#utility.yul\":16055:16148   */\n      tag_305\n        /* \"#utility.yul\":16144:16147   */\n      dup3\n        /* \"#utility.yul\":16055:16148   */\n      tag_125\n      jump\t// in\n    tag_305:\n        /* \"#utility.yul\":16173:16175   */\n      0x40\n        /* \"#utility.yul\":16168:16171   */\n      dup3\n        /* \"#utility.yul\":16164:16176   */\n      add\n        /* \"#utility.yul\":16157:16176   */\n      swap1\n      pop\n        /* \"#utility.yul\":15816:16182   */\n      swap2\n      swap1\n      pop\n      jump\t// out\n        /* \"#utility.yul\":16188:16607   */\n    tag_66:\n        /* \"#utility.yul\":16354:16358   */\n      0x00\n        /* \"#utility.yul\":16392:16394   */\n      0x20\n        /* \"#utility.yul\":16381:16390   */\n      dup3\n        /* \"#utility.yul\":16377:16395   */\n      add\n        /* \"#utility.yul\":16369:16395   */\n      swap1\n      pop\n        /* \"#utility.yul\":16441:16450   */\n      dup2\n        /* \"#utility.yul\":16435:16439   */\n      dup2\n        /* \"#utility.yul\":16431:16451   */\n      sub\n        /* \"#utility.yul\":16427:16428   */\n      0x00\n        /* \"#utility.yul\":16416:16425   */\n      dup4\n        /* \"#utility.yul\":16412:16429   */\n      add\n        /* \"#utility.yul\":16405:16452   */\n      mstore\n        /* \"#utility.yul\":16469:16600   */\n      tag_307\n        /* \"#utility.yul\":16595:16599   */\n      dup2\n        /* \"#utility.yul\":16469:16600   */\n      tag_126\n      jump\t// in\n    tag_307:\n        /* \"#utility.yul\":16461:16600   */\n      swap1\n      pop\n        /* \"#utility.yul\":16188:16607   */\n      swap2\n      swap1\n      pop\n      jump\t// out\n        /* \"#utility.yul\":16613:16793   */\n    tag_69:\n        /* \"#utility.yul\":16661:16738   */\n      0x4e487b7100000000000000000000000000000000000000000000000000000000\n        /* \"#utility.yul\":16658:16659   */\n      0x00\n        /* \"#utility.yul\":16651:16739   */\n      mstore\n        /* \"#utility.yul\":16758:16762   */\n      0x21\n        /* \"#utility.yul\":16755:16756   */\n      0x04\n        /* \"#utility.yul\":16748:16763   */\n      mstore\n        /* \"#utility.yul\":16782:16786   */\n      0x24\n        /* \"#utility.yul\":16779:16780   */\n      0x00\n        /* \"#utility.yul\":16772:16787   */\n      revert\n        /* \"#utility.yul\":16799:16911   */\n    tag_127:\n        /* \"#utility.yul\":16879:16880   */\n      0x02\n        /* \"#utility.yul\":16872:16877   */\n      dup2\n        /* \"#utility.yul\":16869:16881   */\n      lt\n        /* \"#utility.yul\":16859:16905   */\n      tag_310\n      jumpi\n        /* \"#utility.yul\":16885:16903   */\n      tag_311\n      tag_69\n      jump\t// in\n    tag_311:\n        /* \"#utility.yul\":16859:16905   */\n    tag_310:\n        /* \"#utility.yul\":16799:16911   */\n      pop\n      jump\t// out\n        /* \"#utility.yul\":16917:17042   */\n    tag_128:\n        /* \"#utility.yul\":16961:16968   */\n      0x00\n        /* \"#utility.yul\":16990:16995   */\n      dup2\n        /* \"#utility.yul\":16979:16995   */\n      swap1\n      pop\n        /* \"#utility.yul\":16996:17036   */\n      tag_313\n        /* \"#utility.yul\":17030:17035   */\n      dup3\n        /* \"#utility.yul\":16996:17036   */\n      tag_127\n      jump\t// in\n    tag_313:\n        /* \"#utility.yul\":16917:17042   */\n      swap2\n      swap1\n      pop\n      jump\t// out\n        /* \"#utility.yul\":17048:17173   */\n    tag_129:\n        /* \"#utility.yul\":17103:17112   */\n      0x00\n        /* \"#utility.yul\":17136:17167   */\n      tag_315\n        /* \"#utility.yul\":17161:17166   */\n      dup3\n        /* \"#utility.yul\":17136:17167   */\n      tag_128\n      jump\t// in\n    tag_315:\n        /* \"#utility.yul\":17123:17167   */\n      swap1\n      pop\n        /* \"#utility.yul\":17048:17173   */\n      swap2\n      swap1\n      pop\n      jump\t// out\n        /* \"#utility.yul\":17179:17320   */\n    tag_130:\n        /* \"#utility.yul\":17271:17313   */\n      tag_317\n        /* \"#utility.yul\":17307:17312   */\n      dup2\n        /* \"#utility.yul\":17271:17313   */\n      tag_129\n      jump\t// in\n    tag_317:\n        /* \"#utility.yul\":17266:17269   */\n      dup3\n        /* \"#utility.yul\":17259:17314   */\n      mstore\n        /* \"#utility.yul\":17179:17320   */\n      pop\n      pop\n      jump\t// out\n        /* \"#utility.yul\":17326:17668   */\n    tag_77:\n        /* \"#utility.yul\":17452:17456   */\n      0x00\n        /* \"#utility.yul\":17490:17492   */\n      0x40\n        /* \"#utility.yul\":17479:17488   */\n      dup3\n        /* \"#utility.yul\":17475:17493   */\n      add\n        /* \"#utility.yul\":17467:17493   */\n      swap1\n      pop\n        /* \"#utility.yul\":17503:17579   */\n      tag_319\n        /* \"#utility.yul\":17576:17577   */\n      0x00\n        /* \"#utility.yul\":17565:17574   */\n      dup4\n        /* \"#utility.yul\":17561:17578   */\n      add\n        /* \"#utility.yul\":17552:17558   */\n      dup6\n        /* \"#utility.yul\":17503:17579   */\n      tag_130\n      jump\t// in\n    tag_319:\n        /* \"#utility.yul\":17589:17661   */\n      tag_320\n        /* \"#utility.yul\":17657:17659   */\n      0x20\n        /* \"#utility.yul\":17646:17655   */\n      dup4\n        /* \"#utility.yul\":17642:17660   */\n      add\n        /* \"#utility.yul\":17633:17639   */\n      dup5\n        /* \"#utility.yul\":17589:17661   */\n      tag_92\n      jump\t// in\n    tag_320:\n        /* \"#utility.yul\":17326:17668   */\n      swap4\n      swap3\n      pop\n      pop\n      pop\n      jump\t// out\n\n    auxdata: 0xa26469706673582212201c5ee715f82b5fe0667f588d4f92d6ccb4e499b59730d25227bd49c13a01db8264736f6c634300081a0033\n}\n",
				"bytecode": {
					"linkReferences": {},
					"object": "60806040525f6001553480156012575f80fd5b50611107806100205f395ff3fe608060405234801561000f575f80fd5b506004361061004a575f3560e01c80632a6896921461004e578063be747c1c1461007e578063d1dbe7d81461009c578063efafb22e146100d4575b5f80fd5b61006860048036038101906100639190610888565b6100f0565b6040516100759190610974565b60405180910390f35b610086610243565b6040516100939190610974565b60405180910390f35b6100b660048036038101906100b191906109b7565b610249565b6040516100cb99989796959493929190610a9b565b60405180910390f35b6100ee60048036038101906100e99190610b65565b6104d5565b005b5f805f8060015481526020019081526020015f20905033815f015f6101000a81548173ffffffffffffffffffffffffffffffffffffffff021916908373ffffffffffffffffffffffffffffffffffffffff1602179055506001548160030181905550858160010190816101639190610d9d565b505f816004015f6101000a81548160ff021916908315150217905550848160020190816101909190610d9d565b50838160070190816101a29190610d9d565b50828160080190816101b49190610d9d565b5060015f8154809291906101c790610e99565b91905055503373ffffffffffffffffffffffffffffffffffffffff16600180546101f19190610ee0565b7fb8ec33a39f0af82926e7839f5e5d30bd98d3036bbc2ffb47ccd2550972355e2e8842604051610222929190610f13565b60405180910390a3600180546102389190610ee0565b915050949350505050565b60015481565b5f602052805f5260405f205f91509050805f015f9054906101000a900473ffffffffffffffffffffffffffffffffffffffff169080600101805461028c90610bd0565b80601f01602080910402602001604051908101604052809291908181526020018280546102b890610bd0565b80156103035780601f106102da57610100808354040283529160200191610303565b820191905f5260205f20905b8154815290600101906020018083116102e657829003601f168201915b50505050509080600201805461031890610bd0565b80601f016020809104026020016040519081016040528092919081815260200182805461034490610bd0565b801561038f5780601f106103665761010080835404028352916020019161038f565b820191905f5260205f20905b81548152906001019060200180831161037257829003601f168201915b505050505090806003015490806004015f9054906101000a900460ff16908060050154908060060154908060070180546103c890610bd0565b80601f01602080910402602001604051908101604052809291908181526020018280546103f490610bd0565b801561043f5780601f106104165761010080835404028352916020019161043f565b820191905f5260205f20905b81548152906001019060200180831161042257829003601f168201915b50505050509080600801805461045490610bd0565b80601f016020809104026020016040519081016040528092919081815260200182805461048090610bd0565b80156104cb5780601f106104a2576101008083540402835291602001916104cb565b820191905f5260205f20905b8154815290600101906020018083116104ae57829003601f168201915b5050505050905089565b5f805f8481526020019081526020015f2090505f73ffffffffffffffffffffffffffffffffffffffff16815f015f9054906101000a900473ffffffffffffffffffffffffffffffffffffffff1673ffffffffffffffffffffffffffffffffffffffff1603610578576040517f08c379a000000000000000000000000000000000000000000000000000000000815260040161056f90610f8b565b60405180910390fd5b5f151560025f3373ffffffffffffffffffffffffffffffffffffffff1673ffffffffffffffffffffffffffffffffffffffff1681526020019081526020015f205f836003015481526020019081526020015f205f9054906101000a900460ff1615151461061a576040517f08c379a000000000000000000000000000000000000000000000000000000000815260040161061190611019565b60405180910390fd5b5f600181111561062d5761062c611037565b5b8260018111156106405761063f611037565b5b0361066357806005015f81548092919061065990610e99565b919050555061067d565b806006015f81548092919061067790610e99565b91905055505b600160025f3373ffffffffffffffffffffffffffffffffffffffff1673ffffffffffffffffffffffffffffffffffffffff1681526020019081526020015f205f836003015481526020019081526020015f205f6101000a81548160ff0219169083151502179055503373ffffffffffffffffffffffffffffffffffffffff16837f2c429843b755aefd47bd35f951ec584e567e65542f31d255ff570e130d0dd404844260405161072e9291906110aa565b60405180910390a3505050565b5f604051905090565b5f80fd5b5f80fd5b5f80fd5b5f80fd5b5f601f19601f8301169050919050565b7f4e487b71000000000000000000000000000000000000000000000000000000005f52604160045260245ffd5b61079a82610754565b810181811067ffffffffffffffff821117156107b9576107b8610764565b5b80604052505050565b5f6107cb61073b565b90506107d78282610791565b919050565b5f67ffffffffffffffff8211156107f6576107f5610764565b5b6107ff82610754565b9050602081019050919050565b828183375f83830152505050565b5f61082c610827846107dc565b6107c2565b90508281526020810184848401111561084857610847610750565b5b61085384828561080c565b509392505050565b5f82601f83011261086f5761086e61074c565b5b813561087f84826020860161081a565b91505092915050565b5f805f80608085870312156108a05761089f610744565b5b5f85013567ffffffffffffffff8111156108bd576108bc610748565b5b6108c98782880161085b565b945050602085013567ffffffffffffffff8111156108ea576108e9610748565b5b6108f68782880161085b565b935050604085013567ffffffffffffffff81111561091757610916610748565b5b6109238782880161085b565b925050606085013567ffffffffffffffff81111561094457610943610748565b5b6109508782880161085b565b91505092959194509250565b5f819050919050565b61096e8161095c565b82525050565b5f6020820190506109875f830184610965565b92915050565b6109968161095c565b81146109a0575f80fd5b50565b5f813590506109b18161098d565b92915050565b5f602082840312156109cc576109cb610744565b5b5f6109d9848285016109a3565b91505092915050565b5f73ffffffffffffffffffffffffffffffffffffffff82169050919050565b5f610a0b826109e2565b9050919050565b610a1b81610a01565b82525050565b5f81519050919050565b5f82825260208201905092915050565b8281835e5f83830152505050565b5f610a5382610a21565b610a5d8185610a2b565b9350610a6d818560208601610a3b565b610a7681610754565b840191505092915050565b5f8115159050919050565b610a9581610a81565b82525050565b5f61012082019050610aaf5f83018c610a12565b8181036020830152610ac1818b610a49565b90508181036040830152610ad5818a610a49565b9050610ae46060830189610965565b610af16080830188610a8c565b610afe60a0830187610965565b610b0b60c0830186610965565b81810360e0830152610b1d8185610a49565b9050818103610100830152610b328184610a49565b90509a9950505050505050505050565b60028110610b4e575f80fd5b50565b5f81359050610b5f81610b42565b92915050565b5f8060408385031215610b7b57610b7a610744565b5b5f610b88858286016109a3565b9250506020610b9985828601610b51565b9150509250929050565b7f4e487b71000000000000000000000000000000000000000000000000000000005f52602260045260245ffd5b5f6002820490506001821680610be757607f821691505b602082108103610bfa57610bf9610ba3565b5b50919050565b5f819050815f5260205f209050919050565b5f6020601f8301049050919050565b5f82821b905092915050565b5f60088302610c5c7fffffffffffffffffffffffffffffffffffffffffffffffffffffffffffffffff82610c21565b610c668683610c21565b95508019841693508086168417925050509392505050565b5f819050919050565b5f610ca1610c9c610c978461095c565b610c7e565b61095c565b9050919050565b5f819050919050565b610cba83610c87565b610cce610cc682610ca8565b848454610c2d565b825550505050565b5f90565b610ce2610cd6565b610ced818484610cb1565b505050565b5b81811015610d1057610d055f82610cda565b600181019050610cf3565b5050565b601f821115610d5557610d2681610c00565b610d2f84610c12565b81016020851015610d3e578190505b610d52610d4a85610c12565b830182610cf2565b50505b505050565b5f82821c905092915050565b5f610d755f1984600802610d5a565b1980831691505092915050565b5f610d8d8383610d66565b9150826002028217905092915050565b610da682610a21565b67ffffffffffffffff811115610dbf57610dbe610764565b5b610dc98254610bd0565b610dd4828285610d14565b5f60209050601f831160018114610e05575f8415610df3578287015190505b610dfd8582610d82565b865550610e64565b601f198416610e1386610c00565b5f5b82811015610e3a57848901518255600182019150602085019450602081019050610e15565b86831015610e575784890151610e53601f891682610d66565b8355505b6001600288020188555050505b505050505050565b7f4e487b71000000000000000000000000000000000000000000000000000000005f52601160045260245ffd5b5f610ea38261095c565b91507fffffffffffffffffffffffffffffffffffffffffffffffffffffffffffffffff8203610ed557610ed4610e6c565b5b600182019050919050565b5f610eea8261095c565b9150610ef58361095c565b9250828203905081811115610f0d57610f0c610e6c565b5b92915050565b5f6040820190508181035f830152610f2b8185610a49565b9050610f3a6020830184610965565b9392505050565b7f5468652070726f706f73616c20646f6573206e6f7420657869737400000000005f82015250565b5f610f75601b83610a2b565b9150610f8082610f41565b602082019050919050565b5f6020820190508181035f830152610fa281610f69565b9050919050565b7f596f75206861766520616c726561647920766f746564206f6e207468697320705f8201527f726f706f73616c00000000000000000000000000000000000000000000000000602082015250565b5f611003602783610a2b565b915061100e82610fa9565b604082019050919050565b5f6020820190508181035f83015261103081610ff7565b9050919050565b7f4e487b71000000000000000000000000000000000000000000000000000000005f52602160045260245ffd5b6002811061107557611074611037565b5b50565b5f81905061108582611064565b919050565b5f61109482611078565b9050919050565b6110a48161108a565b82525050565b5f6040820190506110bd5f83018561109b565b6110ca6020830184610965565b939250505056fea26469706673582212201c5ee715f82b5fe0667f588d4f92d6ccb4e499b59730d25227bd49c13a01db8264736f6c634300081a0033",
					"opcodes": "PUSH1 0x80 PUSH1 0x40 MSTORE PUSH0 PUSH1 0x1 SSTORE CALLVALUE DUP1 ISZERO PUSH1 0x12 JUMPI PUSH0 DUP1 REVERT JUMPDEST POP PUSH2 0x1107 DUP1 PUSH2 0x20 PUSH0 CODECOPY PUSH0 RETURN INVALID PUSH1 0x80 PUSH1 0x40 MSTORE CALLVALUE DUP1 ISZERO PUSH2 0xF JUMPI PUSH0 DUP1 REVERT JUMPDEST POP PUSH1 0x4 CALLDATASIZE LT PUSH2 0x4A JUMPI PUSH0 CALLDATALOAD PUSH1 0xE0 SHR DUP1 PUSH4 0x2A689692 EQ PUSH2 0x4E JUMPI DUP1 PUSH4 0xBE747C1C EQ PUSH2 0x7E JUMPI DUP1 PUSH4 0xD1DBE7D8 EQ PUSH2 0x9C JUMPI DUP1 PUSH4 0xEFAFB22E EQ PUSH2 0xD4 JUMPI JUMPDEST PUSH0 DUP1 REVERT JUMPDEST PUSH2 0x68 PUSH1 0x4 DUP1 CALLDATASIZE SUB DUP2 ADD SWAP1 PUSH2 0x63 SWAP2 SWAP1 PUSH2 0x888 JUMP JUMPDEST PUSH2 0xF0 JUMP JUMPDEST PUSH1 0x40 MLOAD PUSH2 0x75 SWAP2 SWAP1 PUSH2 0x974 JUMP JUMPDEST PUSH1 0x40 MLOAD DUP1 SWAP2 SUB SWAP1 RETURN JUMPDEST PUSH2 0x86 PUSH2 0x243 JUMP JUMPDEST PUSH1 0x40 MLOAD PUSH2 0x93 SWAP2 SWAP1 PUSH2 0x974 JUMP JUMPDEST PUSH1 0x40 MLOAD DUP1 SWAP2 SUB SWAP1 RETURN JUMPDEST PUSH2 0xB6 PUSH1 0x4 DUP1 CALLDATASIZE SUB DUP2 ADD SWAP1 PUSH2 0xB1 SWAP2 SWAP1 PUSH2 0x9B7 JUMP JUMPDEST PUSH2 0x249 JUMP JUMPDEST PUSH1 0x40 MLOAD PUSH2 0xCB SWAP10 SWAP9 SWAP8 SWAP7 SWAP6 SWAP5 SWAP4 SWAP3 SWAP2 SWAP1 PUSH2 0xA9B JUMP JUMPDEST PUSH1 0x40 MLOAD DUP1 SWAP2 SUB SWAP1 RETURN JUMPDEST PUSH2 0xEE PUSH1 0x4 DUP1 CALLDATASIZE SUB DUP2 ADD SWAP1 PUSH2 0xE9 SWAP2 SWAP1 PUSH2 0xB65 JUMP JUMPDEST PUSH2 0x4D5 JUMP JUMPDEST STOP JUMPDEST PUSH0 DUP1 PUSH0 DUP1 PUSH1 0x1 SLOAD DUP2 MSTORE PUSH1 0x20 ADD SWAP1 DUP2 MSTORE PUSH1 0x20 ADD PUSH0 KECCAK256 SWAP1 POP CALLER DUP2 PUSH0 ADD PUSH0 PUSH2 0x100 EXP DUP2 SLOAD DUP2 PUSH20 0xFFFFFFFFFFFFFFFFFFFFFFFFFFFFFFFFFFFFFFFF MUL NOT AND SWAP1 DUP4 PUSH20 0xFFFFFFFFFFFFFFFFFFFFFFFFFFFFFFFFFFFFFFFF AND MUL OR SWAP1 SSTORE POP PUSH1 0x1 SLOAD DUP2 PUSH1 0x3 ADD DUP2 SWAP1 SSTORE POP DUP6 DUP2 PUSH1 0x1 ADD SWAP1 DUP2 PUSH2 0x163 SWAP2 SWAP1 PUSH2 0xD9D JUMP JUMPDEST POP PUSH0 DUP2 PUSH1 0x4 ADD PUSH0 PUSH2 0x100 EXP DUP2 SLOAD DUP2 PUSH1 0xFF MUL NOT AND SWAP1 DUP4 ISZERO ISZERO MUL OR SWAP1 SSTORE POP DUP5 DUP2 PUSH1 0x2 ADD SWAP1 DUP2 PUSH2 0x190 SWAP2 SWAP1 PUSH2 0xD9D JUMP JUMPDEST POP DUP4 DUP2 PUSH1 0x7 ADD SWAP1 DUP2 PUSH2 0x1A2 SWAP2 SWAP1 PUSH2 0xD9D JUMP JUMPDEST POP DUP3 DUP2 PUSH1 0x8 ADD SWAP1 DUP2 PUSH2 0x1B4 SWAP2 SWAP1 PUSH2 0xD9D JUMP JUMPDEST POP PUSH1 0x1 PUSH0 DUP2 SLOAD DUP1 SWAP3 SWAP2 SWAP1 PUSH2 0x1C7 SWAP1 PUSH2 0xE99 JUMP JUMPDEST SWAP2 SWAP1 POP SSTORE POP CALLER PUSH20 0xFFFFFFFFFFFFFFFFFFFFFFFFFFFFFFFFFFFFFFFF AND PUSH1 0x1 DUP1 SLOAD PUSH2 0x1F1 SWAP2 SWAP1 PUSH2 0xEE0 JUMP JUMPDEST PUSH32 0xB8EC33A39F0AF82926E7839F5E5D30BD98D3036BBC2FFB47CCD2550972355E2E DUP9 TIMESTAMP PUSH1 0x40 MLOAD PUSH2 0x222 SWAP3 SWAP2 SWAP1 PUSH2 0xF13 JUMP JUMPDEST PUSH1 0x40 MLOAD DUP1 SWAP2 SUB SWAP1 LOG3 PUSH1 0x1 DUP1 SLOAD PUSH2 0x238 SWAP2 SWAP1 PUSH2 0xEE0 JUMP JUMPDEST SWAP2 POP POP SWAP5 SWAP4 POP POP POP POP JUMP JUMPDEST PUSH1 0x1 SLOAD DUP2 JUMP JUMPDEST PUSH0 PUSH1 0x20 MSTORE DUP1 PUSH0 MSTORE PUSH1 0x40 PUSH0 KECCAK256 PUSH0 SWAP2 POP SWAP1 POP DUP1 PUSH0 ADD PUSH0 SWAP1 SLOAD SWAP1 PUSH2 0x100 EXP SWAP1 DIV PUSH20 0xFFFFFFFFFFFFFFFFFFFFFFFFFFFFFFFFFFFFFFFF AND SWAP1 DUP1 PUSH1 0x1 ADD DUP1 SLOAD PUSH2 0x28C SWAP1 PUSH2 0xBD0 JUMP JUMPDEST DUP1 PUSH1 0x1F ADD PUSH1 0x20 DUP1 SWAP2 DIV MUL PUSH1 0x20 ADD PUSH1 0x40 MLOAD SWAP1 DUP2 ADD PUSH1 0x40 MSTORE DUP1 SWAP3 SWAP2 SWAP1 DUP2 DUP2 MSTORE PUSH1 0x20 ADD DUP3 DUP1 SLOAD PUSH2 0x2B8 SWAP1 PUSH2 0xBD0 JUMP JUMPDEST DUP1 ISZERO PUSH2 0x303 JUMPI DUP1 PUSH1 0x1F LT PUSH2 0x2DA JUMPI PUSH2 0x100 DUP1 DUP4 SLOAD DIV MUL DUP4 MSTORE SWAP2 PUSH1 0x20 ADD SWAP2 PUSH2 0x303 JUMP JUMPDEST DUP3 ADD SWAP2 SWAP1 PUSH0 MSTORE PUSH1 0x20 PUSH0 KECCAK256 SWAP1 JUMPDEST DUP2 SLOAD DUP2 MSTORE SWAP1 PUSH1 0x1 ADD SWAP1 PUSH1 0x20 ADD DUP1 DUP4 GT PUSH2 0x2E6 JUMPI DUP3 SWAP1 SUB PUSH1 0x1F AND DUP3 ADD SWAP2 JUMPDEST POP POP POP POP POP SWAP1 DUP1 PUSH1 0x2 ADD DUP1 SLOAD PUSH2 0x318 SWAP1 PUSH2 0xBD0 JUMP JUMPDEST DUP1 PUSH1 0x1F ADD PUSH1 0x20 DUP1 SWAP2 DIV MUL PUSH1 0x20 ADD PUSH1 0x40 MLOAD SWAP1 DUP2 ADD PUSH1 0x40 MSTORE DUP1 SWAP3 SWAP2 SWAP1 DUP2 DUP2 MSTORE PUSH1 0x20 ADD DUP3 DUP1 SLOAD PUSH2 0x344 SWAP1 PUSH2 0xBD0 JUMP JUMPDEST DUP1 ISZERO PUSH2 0x38F JUMPI DUP1 PUSH1 0x1F LT PUSH2 0x366 JUMPI PUSH2 0x100 DUP1 DUP4 SLOAD DIV MUL DUP4 MSTORE SWAP2 PUSH1 0x20 ADD SWAP2 PUSH2 0x38F JUMP JUMPDEST DUP3 ADD SWAP2 SWAP1 PUSH0 MSTORE PUSH1 0x20 PUSH0 KECCAK256 SWAP1 JUMPDEST DUP2 SLOAD DUP2 MSTORE SWAP1 PUSH1 0x1 ADD SWAP1 PUSH1 0x20 ADD DUP1 DUP4 GT PUSH2 0x372 JUMPI DUP3 SWAP1 SUB PUSH1 0x1F AND DUP3 ADD SWAP2 JUMPDEST POP POP POP POP POP SWAP1 DUP1 PUSH1 0x3 ADD SLOAD SWAP1 DUP1 PUSH1 0x4 ADD PUSH0 SWAP1 SLOAD SWAP1 PUSH2 0x100 EXP SWAP1 DIV PUSH1 0xFF AND SWAP1 DUP1 PUSH1 0x5 ADD SLOAD SWAP1 DUP1 PUSH1 0x6 ADD SLOAD SWAP1 DUP1 PUSH1 0x7 ADD DUP1 SLOAD PUSH2 0x3C8 SWAP1 PUSH2 0xBD0 JUMP JUMPDEST DUP1 PUSH1 0x1F ADD PUSH1 0x20 DUP1 SWAP2 DIV MUL PUSH1 0x20 ADD PUSH1 0x40 MLOAD SWAP1 DUP2 ADD PUSH1 0x40 MSTORE DUP1 SWAP3 SWAP2 SWAP1 DUP2 DUP2 MSTORE PUSH1 0x20 ADD DUP3 DUP1 SLOAD PUSH2 0x3F4 SWAP1 PUSH2 0xBD0 JUMP JUMPDEST DUP1 ISZERO PUSH2 0x43F JUMPI DUP1 PUSH1 0x1F LT PUSH2 0x416 JUMPI PUSH2 0x100 DUP1 DUP4 SLOAD DIV MUL DUP4 MSTORE SWAP2 PUSH1 0x20 ADD SWAP2 PUSH2 0x43F JUMP JUMPDEST DUP3 ADD SWAP2 SWAP1 PUSH0 MSTORE PUSH1 0x20 PUSH0 KECCAK256 SWAP1 JUMPDEST DUP2 SLOAD DUP2 MSTORE SWAP1 PUSH1 0x1 ADD SWAP1 PUSH1 0x20 ADD DUP1 DUP4 GT PUSH2 0x422 JUMPI DUP3 SWAP1 SUB PUSH1 0x1F AND DUP3 ADD SWAP2 JUMPDEST POP POP POP POP POP SWAP1 DUP1 PUSH1 0x8 ADD DUP1 SLOAD PUSH2 0x454 SWAP1 PUSH2 0xBD0 JUMP JUMPDEST DUP1 PUSH1 0x1F ADD PUSH1 0x20 DUP1 SWAP2 DIV MUL PUSH1 0x20 ADD PUSH1 0x40 MLOAD SWAP1 DUP2 ADD PUSH1 0x40 MSTORE DUP1 SWAP3 SWAP2 SWAP1 DUP2 DUP2 MSTORE PUSH1 0x20 ADD DUP3 DUP1 SLOAD PUSH2 0x480 SWAP1 PUSH2 0xBD0 JUMP JUMPDEST DUP1 ISZERO PUSH2 0x4CB JUMPI DUP1 PUSH1 0x1F LT PUSH2 0x4A2 JUMPI PUSH2 0x100 DUP1 DUP4 SLOAD DIV MUL DUP4 MSTORE SWAP2 PUSH1 0x20 ADD SWAP2 PUSH2 0x4CB JUMP JUMPDEST DUP3 ADD SWAP2 SWAP1 PUSH0 MSTORE PUSH1 0x20 PUSH0 KECCAK256 SWAP1 JUMPDEST DUP2 SLOAD DUP2 MSTORE SWAP1 PUSH1 0x1 ADD SWAP1 PUSH1 0x20 ADD DUP1 DUP4 GT PUSH2 0x4AE JUMPI DUP3 SWAP1 SUB PUSH1 0x1F AND DUP3 ADD SWAP2 JUMPDEST POP POP POP POP POP SWAP1 POP DUP10 JUMP JUMPDEST PUSH0 DUP1 PUSH0 DUP5 DUP2 MSTORE PUSH1 0x20 ADD SWAP1 DUP2 MSTORE PUSH1 0x20 ADD PUSH0 KECCAK256 SWAP1 POP PUSH0 PUSH20 0xFFFFFFFFFFFFFFFFFFFFFFFFFFFFFFFFFFFFFFFF AND DUP2 PUSH0 ADD PUSH0 SWAP1 SLOAD SWAP1 PUSH2 0x100 EXP SWAP1 DIV PUSH20 0xFFFFFFFFFFFFFFFFFFFFFFFFFFFFFFFFFFFFFFFF AND PUSH20 0xFFFFFFFFFFFFFFFFFFFFFFFFFFFFFFFFFFFFFFFF AND SUB PUSH2 0x578 JUMPI PUSH1 0x40 MLOAD PUSH32 0x8C379A000000000000000000000000000000000000000000000000000000000 DUP2 MSTORE PUSH1 0x4 ADD PUSH2 0x56F SWAP1 PUSH2 0xF8B JUMP JUMPDEST PUSH1 0x40 MLOAD DUP1 SWAP2 SUB SWAP1 REVERT JUMPDEST PUSH0 ISZERO ISZERO PUSH1 0x2 PUSH0 CALLER PUSH20 0xFFFFFFFFFFFFFFFFFFFFFFFFFFFFFFFFFFFFFFFF AND PUSH20 0xFFFFFFFFFFFFFFFFFFFFFFFFFFFFFFFFFFFFFFFF AND DUP2 MSTORE PUSH1 0x20 ADD SWAP1 DUP2 MSTORE PUSH1 0x20 ADD PUSH0 KECCAK256 PUSH0 DUP4 PUSH1 0x3 ADD SLOAD DUP2 MSTORE PUSH1 0x20 ADD SWAP1 DUP2 MSTORE PUSH1 0x20 ADD PUSH0 KECCAK256 PUSH0 SWAP1 SLOAD SWAP1 PUSH2 0x100 EXP SWAP1 DIV PUSH1 0xFF AND ISZERO ISZERO EQ PUSH2 0x61A JUMPI PUSH1 0x40 MLOAD PUSH32 0x8C379A000000000000000000000000000000000000000000000000000000000 DUP2 MSTORE PUSH1 0x4 ADD PUSH2 0x611 SWAP1 PUSH2 0x1019 JUMP JUMPDEST PUSH1 0x40 MLOAD DUP1 SWAP2 SUB SWAP1 REVERT JUMPDEST PUSH0 PUSH1 0x1 DUP2 GT ISZERO PUSH2 0x62D JUMPI PUSH2 0x62C PUSH2 0x1037 JUMP JUMPDEST JUMPDEST DUP3 PUSH1 0x1 DUP2 GT ISZERO PUSH2 0x640 JUMPI PUSH2 0x63F PUSH2 0x1037 JUMP JUMPDEST JUMPDEST SUB PUSH2 0x663 JUMPI DUP1 PUSH1 0x5 ADD PUSH0 DUP2 SLOAD DUP1 SWAP3 SWAP2 SWAP1 PUSH2 0x659 SWAP1 PUSH2 0xE99 JUMP JUMPDEST SWAP2 SWAP1 POP SSTORE POP PUSH2 0x67D JUMP JUMPDEST DUP1 PUSH1 0x6 ADD PUSH0 DUP2 SLOAD DUP1 SWAP3 SWAP2 SWAP1 PUSH2 0x677 SWAP1 PUSH2 0xE99 JUMP JUMPDEST SWAP2 SWAP1 POP SSTORE POP JUMPDEST PUSH1 0x1 PUSH1 0x2 PUSH0 CALLER PUSH20 0xFFFFFFFFFFFFFFFFFFFFFFFFFFFFFFFFFFFFFFFF AND PUSH20 0xFFFFFFFFFFFFFFFFFFFFFFFFFFFFFFFFFFFFFFFF AND DUP2 MSTORE PUSH1 0x20 ADD SWAP1 DUP2 MSTORE PUSH1 0x20 ADD PUSH0 KECCAK256 PUSH0 DUP4 PUSH1 0x3 ADD SLOAD DUP2 MSTORE PUSH1 0x20 ADD SWAP1 DUP2 MSTORE PUSH1 0x20 ADD PUSH0 KECCAK256 PUSH0 PUSH2 0x100 EXP DUP2 SLOAD DUP2 PUSH1 0xFF MUL NOT AND SWAP1 DUP4 ISZERO ISZERO MUL OR SWAP1 SSTORE POP CALLER PUSH20 0xFFFFFFFFFFFFFFFFFFFFFFFFFFFFFFFFFFFFFFFF AND DUP4 PUSH32 0x2C429843B755AEFD47BD35F951EC584E567E65542F31D255FF570E130D0DD404 DUP5 TIMESTAMP PUSH1 0x40 MLOAD PUSH2 0x72E SWAP3 SWAP2 SWAP1 PUSH2 0x10AA JUMP JUMPDEST PUSH1 0x40 MLOAD DUP1 SWAP2 SUB SWAP1 LOG3 POP POP POP JUMP JUMPDEST PUSH0 PUSH1 0x40 MLOAD SWAP1 POP SWAP1 JUMP JUMPDEST PUSH0 DUP1 REVERT JUMPDEST PUSH0 DUP1 REVERT JUMPDEST PUSH0 DUP1 REVERT JUMPDEST PUSH0 DUP1 REVERT JUMPDEST PUSH0 PUSH1 0x1F NOT PUSH1 0x1F DUP4 ADD AND SWAP1 POP SWAP2 SWAP1 POP JUMP JUMPDEST PUSH32 0x4E487B7100000000000000000000000000000000000000000000000000000000 PUSH0 MSTORE PUSH1 0x41 PUSH1 0x4 MSTORE PUSH1 0x24 PUSH0 REVERT JUMPDEST PUSH2 0x79A DUP3 PUSH2 0x754 JUMP JUMPDEST DUP2 ADD DUP2 DUP2 LT PUSH8 0xFFFFFFFFFFFFFFFF DUP3 GT OR ISZERO PUSH2 0x7B9 JUMPI PUSH2 0x7B8 PUSH2 0x764 JUMP JUMPDEST JUMPDEST DUP1 PUSH1 0x40 MSTORE POP POP POP JUMP JUMPDEST PUSH0 PUSH2 0x7CB PUSH2 0x73B JUMP JUMPDEST SWAP1 POP PUSH2 0x7D7 DUP3 DUP3 PUSH2 0x791 JUMP JUMPDEST SWAP2 SWAP1 POP JUMP JUMPDEST PUSH0 PUSH8 0xFFFFFFFFFFFFFFFF DUP3 GT ISZERO PUSH2 0x7F6 JUMPI PUSH2 0x7F5 PUSH2 0x764 JUMP JUMPDEST JUMPDEST PUSH2 0x7FF DUP3 PUSH2 0x754 JUMP JUMPDEST SWAP1 POP PUSH1 0x20 DUP2 ADD SWAP1 POP SWAP2 SWAP1 POP JUMP JUMPDEST DUP3 DUP2 DUP4 CALLDATACOPY PUSH0 DUP4 DUP4 ADD MSTORE POP POP POP JUMP JUMPDEST PUSH0 PUSH2 0x82C PUSH2 0x827 DUP5 PUSH2 0x7DC JUMP JUMPDEST PUSH2 0x7C2 JUMP JUMPDEST SWAP1 POP DUP3 DUP2 MSTORE PUSH1 0x20 DUP2 ADD DUP5 DUP5 DUP5 ADD GT ISZERO PUSH2 0x848 JUMPI PUSH2 0x847 PUSH2 0x750 JUMP JUMPDEST JUMPDEST PUSH2 0x853 DUP5 DUP3 DUP6 PUSH2 0x80C JUMP JUMPDEST POP SWAP4 SWAP3 POP POP POP JUMP JUMPDEST PUSH0 DUP3 PUSH1 0x1F DUP4 ADD SLT PUSH2 0x86F JUMPI PUSH2 0x86E PUSH2 0x74C JUMP JUMPDEST JUMPDEST DUP2 CALLDATALOAD PUSH2 0x87F DUP5 DUP3 PUSH1 0x20 DUP7 ADD PUSH2 0x81A JUMP JUMPDEST SWAP2 POP POP SWAP3 SWAP2 POP POP JUMP JUMPDEST PUSH0 DUP1 PUSH0 DUP1 PUSH1 0x80 DUP6 DUP8 SUB SLT ISZERO PUSH2 0x8A0 JUMPI PUSH2 0x89F PUSH2 0x744 JUMP JUMPDEST JUMPDEST PUSH0 DUP6 ADD CALLDATALOAD PUSH8 0xFFFFFFFFFFFFFFFF DUP2 GT ISZERO PUSH2 0x8BD JUMPI PUSH2 0x8BC PUSH2 0x748 JUMP JUMPDEST JUMPDEST PUSH2 0x8C9 DUP8 DUP3 DUP9 ADD PUSH2 0x85B JUMP JUMPDEST SWAP5 POP POP PUSH1 0x20 DUP6 ADD CALLDATALOAD PUSH8 0xFFFFFFFFFFFFFFFF DUP2 GT ISZERO PUSH2 0x8EA JUMPI PUSH2 0x8E9 PUSH2 0x748 JUMP JUMPDEST JUMPDEST PUSH2 0x8F6 DUP8 DUP3 DUP9 ADD PUSH2 0x85B JUMP JUMPDEST SWAP4 POP POP PUSH1 0x40 DUP6 ADD CALLDATALOAD PUSH8 0xFFFFFFFFFFFFFFFF DUP2 GT ISZERO PUSH2 0x917 JUMPI PUSH2 0x916 PUSH2 0x748 JUMP JUMPDEST JUMPDEST PUSH2 0x923 DUP8 DUP3 DUP9 ADD PUSH2 0x85B JUMP JUMPDEST SWAP3 POP POP PUSH1 0x60 DUP6 ADD CALLDATALOAD PUSH8 0xFFFFFFFFFFFFFFFF DUP2 GT ISZERO PUSH2 0x944 JUMPI PUSH2 0x943 PUSH2 0x748 JUMP JUMPDEST JUMPDEST PUSH2 0x950 DUP8 DUP3 DUP9 ADD PUSH2 0x85B JUMP JUMPDEST SWAP2 POP POP SWAP3 SWAP6 SWAP2 SWAP5 POP SWAP3 POP JUMP JUMPDEST PUSH0 DUP2 SWAP1 POP SWAP2 SWAP1 POP JUMP JUMPDEST PUSH2 0x96E DUP2 PUSH2 0x95C JUMP JUMPDEST DUP3 MSTORE POP POP JUMP JUMPDEST PUSH0 PUSH1 0x20 DUP3 ADD SWAP1 POP PUSH2 0x987 PUSH0 DUP4 ADD DUP5 PUSH2 0x965 JUMP JUMPDEST SWAP3 SWAP2 POP POP JUMP JUMPDEST PUSH2 0x996 DUP2 PUSH2 0x95C JUMP JUMPDEST DUP2 EQ PUSH2 0x9A0 JUMPI PUSH0 DUP1 REVERT JUMPDEST POP JUMP JUMPDEST PUSH0 DUP2 CALLDATALOAD SWAP1 POP PUSH2 0x9B1 DUP2 PUSH2 0x98D JUMP JUMPDEST SWAP3 SWAP2 POP POP JUMP JUMPDEST PUSH0 PUSH1 0x20 DUP3 DUP5 SUB SLT ISZERO PUSH2 0x9CC JUMPI PUSH2 0x9CB PUSH2 0x744 JUMP JUMPDEST JUMPDEST PUSH0 PUSH2 0x9D9 DUP5 DUP3 DUP6 ADD PUSH2 0x9A3 JUMP JUMPDEST SWAP2 POP POP SWAP3 SWAP2 POP POP JUMP JUMPDEST PUSH0 PUSH20 0xFFFFFFFFFFFFFFFFFFFFFFFFFFFFFFFFFFFFFFFF DUP3 AND SWAP1 POP SWAP2 SWAP1 POP JUMP JUMPDEST PUSH0 PUSH2 0xA0B DUP3 PUSH2 0x9E2 JUMP JUMPDEST SWAP1 POP SWAP2 SWAP1 POP JUMP JUMPDEST PUSH2 0xA1B DUP2 PUSH2 0xA01 JUMP JUMPDEST DUP3 MSTORE POP POP JUMP JUMPDEST PUSH0 DUP2 MLOAD SWAP1 POP SWAP2 SWAP1 POP JUMP JUMPDEST PUSH0 DUP3 DUP3 MSTORE PUSH1 0x20 DUP3 ADD SWAP1 POP SWAP3 SWAP2 POP POP JUMP JUMPDEST DUP3 DUP2 DUP4 MCOPY PUSH0 DUP4 DUP4 ADD MSTORE POP POP POP JUMP JUMPDEST PUSH0 PUSH2 0xA53 DUP3 PUSH2 0xA21 JUMP JUMPDEST PUSH2 0xA5D DUP2 DUP6 PUSH2 0xA2B JUMP JUMPDEST SWAP4 POP PUSH2 0xA6D DUP2 DUP6 PUSH1 0x20 DUP7 ADD PUSH2 0xA3B JUMP JUMPDEST PUSH2 0xA76 DUP2 PUSH2 0x754 JUMP JUMPDEST DUP5 ADD SWAP2 POP POP SWAP3 SWAP2 POP POP JUMP JUMPDEST PUSH0 DUP2 ISZERO ISZERO SWAP1 POP SWAP2 SWAP1 POP JUMP JUMPDEST PUSH2 0xA95 DUP2 PUSH2 0xA81 JUMP JUMPDEST DUP3 MSTORE POP POP JUMP JUMPDEST PUSH0 PUSH2 0x120 DUP3 ADD SWAP1 POP PUSH2 0xAAF PUSH0 DUP4 ADD DUP13 PUSH2 0xA12 JUMP JUMPDEST DUP2 DUP2 SUB PUSH1 0x20 DUP4 ADD MSTORE PUSH2 0xAC1 DUP2 DUP12 PUSH2 0xA49 JUMP JUMPDEST SWAP1 POP DUP2 DUP2 SUB PUSH1 0x40 DUP4 ADD MSTORE PUSH2 0xAD5 DUP2 DUP11 PUSH2 0xA49 JUMP JUMPDEST SWAP1 POP PUSH2 0xAE4 PUSH1 0x60 DUP4 ADD DUP10 PUSH2 0x965 JUMP JUMPDEST PUSH2 0xAF1 PUSH1 0x80 DUP4 ADD DUP9 PUSH2 0xA8C JUMP JUMPDEST PUSH2 0xAFE PUSH1 0xA0 DUP4 ADD DUP8 PUSH2 0x965 JUMP JUMPDEST PUSH2 0xB0B PUSH1 0xC0 DUP4 ADD DUP7 PUSH2 0x965 JUMP JUMPDEST DUP2 DUP2 SUB PUSH1 0xE0 DUP4 ADD MSTORE PUSH2 0xB1D DUP2 DUP6 PUSH2 0xA49 JUMP JUMPDEST SWAP1 POP DUP2 DUP2 SUB PUSH2 0x100 DUP4 ADD MSTORE PUSH2 0xB32 DUP2 DUP5 PUSH2 0xA49 JUMP JUMPDEST SWAP1 POP SWAP11 SWAP10 POP POP POP POP POP POP POP POP POP POP JUMP JUMPDEST PUSH1 0x2 DUP2 LT PUSH2 0xB4E JUMPI PUSH0 DUP1 REVERT JUMPDEST POP JUMP JUMPDEST PUSH0 DUP2 CALLDATALOAD SWAP1 POP PUSH2 0xB5F DUP2 PUSH2 0xB42 JUMP JUMPDEST SWAP3 SWAP2 POP POP JUMP JUMPDEST PUSH0 DUP1 PUSH1 0x40 DUP4 DUP6 SUB SLT ISZERO PUSH2 0xB7B JUMPI PUSH2 0xB7A PUSH2 0x744 JUMP JUMPDEST JUMPDEST PUSH0 PUSH2 0xB88 DUP6 DUP3 DUP7 ADD PUSH2 0x9A3 JUMP JUMPDEST SWAP3 POP POP PUSH1 0x20 PUSH2 0xB99 DUP6 DUP3 DUP7 ADD PUSH2 0xB51 JUMP JUMPDEST SWAP2 POP POP SWAP3 POP SWAP3 SWAP1 POP JUMP JUMPDEST PUSH32 0x4E487B7100000000000000000000000000000000000000000000000000000000 PUSH0 MSTORE PUSH1 0x22 PUSH1 0x4 MSTORE PUSH1 0x24 PUSH0 REVERT JUMPDEST PUSH0 PUSH1 0x2 DUP3 DIV SWAP1 POP PUSH1 0x1 DUP3 AND DUP1 PUSH2 0xBE7 JUMPI PUSH1 0x7F DUP3 AND SWAP2 POP JUMPDEST PUSH1 0x20 DUP3 LT DUP2 SUB PUSH2 0xBFA JUMPI PUSH2 0xBF9 PUSH2 0xBA3 JUMP JUMPDEST JUMPDEST POP SWAP2 SWAP1 POP JUMP JUMPDEST PUSH0 DUP2 SWAP1 POP DUP2 PUSH0 MSTORE PUSH1 0x20 PUSH0 KECCAK256 SWAP1 POP SWAP2 SWAP1 POP JUMP JUMPDEST PUSH0 PUSH1 0x20 PUSH1 0x1F DUP4 ADD DIV SWAP1 POP SWAP2 SWAP1 POP JUMP JUMPDEST PUSH0 DUP3 DUP3 SHL SWAP1 POP SWAP3 SWAP2 POP POP JUMP JUMPDEST PUSH0 PUSH1 0x8 DUP4 MUL PUSH2 0xC5C PUSH32 0xFFFFFFFFFFFFFFFFFFFFFFFFFFFFFFFFFFFFFFFFFFFFFFFFFFFFFFFFFFFFFFFF DUP3 PUSH2 0xC21 JUMP JUMPDEST PUSH2 0xC66 DUP7 DUP4 PUSH2 0xC21 JUMP JUMPDEST SWAP6 POP DUP1 NOT DUP5 AND SWAP4 POP DUP1 DUP7 AND DUP5 OR SWAP3 POP POP POP SWAP4 SWAP3 POP POP POP JUMP JUMPDEST PUSH0 DUP2 SWAP1 POP SWAP2 SWAP1 POP JUMP JUMPDEST PUSH0 PUSH2 0xCA1 PUSH2 0xC9C PUSH2 0xC97 DUP5 PUSH2 0x95C JUMP JUMPDEST PUSH2 0xC7E JUMP JUMPDEST PUSH2 0x95C JUMP JUMPDEST SWAP1 POP SWAP2 SWAP1 POP JUMP JUMPDEST PUSH0 DUP2 SWAP1 POP SWAP2 SWAP1 POP JUMP JUMPDEST PUSH2 0xCBA DUP4 PUSH2 0xC87 JUMP JUMPDEST PUSH2 0xCCE PUSH2 0xCC6 DUP3 PUSH2 0xCA8 JUMP JUMPDEST DUP5 DUP5 SLOAD PUSH2 0xC2D JUMP JUMPDEST DUP3 SSTORE POP POP POP POP JUMP JUMPDEST PUSH0 SWAP1 JUMP JUMPDEST PUSH2 0xCE2 PUSH2 0xCD6 JUMP JUMPDEST PUSH2 0xCED DUP2 DUP5 DUP5 PUSH2 0xCB1 JUMP JUMPDEST POP POP POP JUMP JUMPDEST JUMPDEST DUP2 DUP2 LT ISZERO PUSH2 0xD10 JUMPI PUSH2 0xD05 PUSH0 DUP3 PUSH2 0xCDA JUMP JUMPDEST PUSH1 0x1 DUP2 ADD SWAP1 POP PUSH2 0xCF3 JUMP JUMPDEST POP POP JUMP JUMPDEST PUSH1 0x1F DUP3 GT ISZERO PUSH2 0xD55 JUMPI PUSH2 0xD26 DUP2 PUSH2 0xC00 JUMP JUMPDEST PUSH2 0xD2F DUP5 PUSH2 0xC12 JUMP JUMPDEST DUP2 ADD PUSH1 0x20 DUP6 LT ISZERO PUSH2 0xD3E JUMPI DUP2 SWAP1 POP JUMPDEST PUSH2 0xD52 PUSH2 0xD4A DUP6 PUSH2 0xC12 JUMP JUMPDEST DUP4 ADD DUP3 PUSH2 0xCF2 JUMP JUMPDEST POP POP JUMPDEST POP POP POP JUMP JUMPDEST PUSH0 DUP3 DUP3 SHR SWAP1 POP SWAP3 SWAP2 POP POP JUMP JUMPDEST PUSH0 PUSH2 0xD75 PUSH0 NOT DUP5 PUSH1 0x8 MUL PUSH2 0xD5A JUMP JUMPDEST NOT DUP1 DUP4 AND SWAP2 POP POP SWAP3 SWAP2 POP POP JUMP JUMPDEST PUSH0 PUSH2 0xD8D DUP4 DUP4 PUSH2 0xD66 JUMP JUMPDEST SWAP2 POP DUP3 PUSH1 0x2 MUL DUP3 OR SWAP1 POP SWAP3 SWAP2 POP POP JUMP JUMPDEST PUSH2 0xDA6 DUP3 PUSH2 0xA21 JUMP JUMPDEST PUSH8 0xFFFFFFFFFFFFFFFF DUP2 GT ISZERO PUSH2 0xDBF JUMPI PUSH2 0xDBE PUSH2 0x764 JUMP JUMPDEST JUMPDEST PUSH2 0xDC9 DUP3 SLOAD PUSH2 0xBD0 JUMP JUMPDEST PUSH2 0xDD4 DUP3 DUP3 DUP6 PUSH2 0xD14 JUMP JUMPDEST PUSH0 PUSH1 0x20 SWAP1 POP PUSH1 0x1F DUP4 GT PUSH1 0x1 DUP2 EQ PUSH2 0xE05 JUMPI PUSH0 DUP5 ISZERO PUSH2 0xDF3 JUMPI DUP3 DUP8 ADD MLOAD SWAP1 POP JUMPDEST PUSH2 0xDFD DUP6 DUP3 PUSH2 0xD82 JUMP JUMPDEST DUP7 SSTORE POP PUSH2 0xE64 JUMP JUMPDEST PUSH1 0x1F NOT DUP5 AND PUSH2 0xE13 DUP7 PUSH2 0xC00 JUMP JUMPDEST PUSH0 JUMPDEST DUP3 DUP2 LT ISZERO PUSH2 0xE3A JUMPI DUP5 DUP10 ADD MLOAD DUP3 SSTORE PUSH1 0x1 DUP3 ADD SWAP2 POP PUSH1 0x20 DUP6 ADD SWAP5 POP PUSH1 0x20 DUP2 ADD SWAP1 POP PUSH2 0xE15 JUMP JUMPDEST DUP7 DUP4 LT ISZERO PUSH2 0xE57 JUMPI DUP5 DUP10 ADD MLOAD PUSH2 0xE53 PUSH1 0x1F DUP10 AND DUP3 PUSH2 0xD66 JUMP JUMPDEST DUP4 SSTORE POP JUMPDEST PUSH1 0x1 PUSH1 0x2 DUP9 MUL ADD DUP9 SSTORE POP POP POP JUMPDEST POP POP POP POP POP POP JUMP JUMPDEST PUSH32 0x4E487B7100000000000000000000000000000000000000000000000000000000 PUSH0 MSTORE PUSH1 0x11 PUSH1 0x4 MSTORE PUSH1 0x24 PUSH0 REVERT JUMPDEST PUSH0 PUSH2 0xEA3 DUP3 PUSH2 0x95C JUMP JUMPDEST SWAP2 POP PUSH32 0xFFFFFFFFFFFFFFFFFFFFFFFFFFFFFFFFFFFFFFFFFFFFFFFFFFFFFFFFFFFFFFFF DUP3 SUB PUSH2 0xED5 JUMPI PUSH2 0xED4 PUSH2 0xE6C JUMP JUMPDEST JUMPDEST PUSH1 0x1 DUP3 ADD SWAP1 POP SWAP2 SWAP1 POP JUMP JUMPDEST PUSH0 PUSH2 0xEEA DUP3 PUSH2 0x95C JUMP JUMPDEST SWAP2 POP PUSH2 0xEF5 DUP4 PUSH2 0x95C JUMP JUMPDEST SWAP3 POP DUP3 DUP3 SUB SWAP1 POP DUP2 DUP2 GT ISZERO PUSH2 0xF0D JUMPI PUSH2 0xF0C PUSH2 0xE6C JUMP JUMPDEST JUMPDEST SWAP3 SWAP2 POP POP JUMP JUMPDEST PUSH0 PUSH1 0x40 DUP3 ADD SWAP1 POP DUP2 DUP2 SUB PUSH0 DUP4 ADD MSTORE PUSH2 0xF2B DUP2 DUP6 PUSH2 0xA49 JUMP JUMPDEST SWAP1 POP PUSH2 0xF3A PUSH1 0x20 DUP4 ADD DUP5 PUSH2 0x965 JUMP JUMPDEST SWAP4 SWAP3 POP POP POP JUMP JUMPDEST PUSH32 0x5468652070726F706F73616C20646F6573206E6F742065786973740000000000 PUSH0 DUP3 ADD MSTORE POP JUMP JUMPDEST PUSH0 PUSH2 0xF75 PUSH1 0x1B DUP4 PUSH2 0xA2B JUMP JUMPDEST SWAP2 POP PUSH2 0xF80 DUP3 PUSH2 0xF41 JUMP JUMPDEST PUSH1 0x20 DUP3 ADD SWAP1 POP SWAP2 SWAP1 POP JUMP JUMPDEST PUSH0 PUSH1 0x20 DUP3 ADD SWAP1 POP DUP2 DUP2 SUB PUSH0 DUP4 ADD MSTORE PUSH2 0xFA2 DUP2 PUSH2 0xF69 JUMP JUMPDEST SWAP1 POP SWAP2 SWAP1 POP JUMP JUMPDEST PUSH32 0x596F75206861766520616C726561647920766F746564206F6E20746869732070 PUSH0 DUP3 ADD MSTORE PUSH32 0x726F706F73616C00000000000000000000000000000000000000000000000000 PUSH1 0x20 DUP3 ADD MSTORE POP JUMP JUMPDEST PUSH0 PUSH2 0x1003 PUSH1 0x27 DUP4 PUSH2 0xA2B JUMP JUMPDEST SWAP2 POP PUSH2 0x100E DUP3 PUSH2 0xFA9 JUMP JUMPDEST PUSH1 0x40 DUP3 ADD SWAP1 POP SWAP2 SWAP1 POP JUMP JUMPDEST PUSH0 PUSH1 0x20 DUP3 ADD SWAP1 POP DUP2 DUP2 SUB PUSH0 DUP4 ADD MSTORE PUSH2 0x1030 DUP2 PUSH2 0xFF7 JUMP JUMPDEST SWAP1 POP SWAP2 SWAP1 POP JUMP JUMPDEST PUSH32 0x4E487B7100000000000000000000000000000000000000000000000000000000 PUSH0 MSTORE PUSH1 0x21 PUSH1 0x4 MSTORE PUSH1 0x24 PUSH0 REVERT JUMPDEST PUSH1 0x2 DUP2 LT PUSH2 0x1075 JUMPI PUSH2 0x1074 PUSH2 0x1037 JUMP JUMPDEST JUMPDEST POP JUMP JUMPDEST PUSH0 DUP2 SWAP1 POP PUSH2 0x1085 DUP3 PUSH2 0x1064 JUMP JUMPDEST SWAP2 SWAP1 POP JUMP JUMPDEST PUSH0 PUSH2 0x1094 DUP3 PUSH2 0x1078 JUMP JUMPDEST SWAP1 POP SWAP2 SWAP1 POP JUMP JUMPDEST PUSH2 0x10A4 DUP2 PUSH2 0x108A JUMP JUMPDEST DUP3 MSTORE POP POP JUMP JUMPDEST PUSH0 PUSH1 0x40 DUP3 ADD SWAP1 POP PUSH2 0x10BD PUSH0 DUP4 ADD DUP6 PUSH2 0x109B JUMP JUMPDEST PUSH2 0x10CA PUSH1 0x20 DUP4 ADD DUP5 PUSH2 0x965 JUMP JUMPDEST SWAP4 SWAP3 POP POP POP JUMP INVALID LOG2 PUSH5 0x6970667358 0x22 SLT KECCAK256 SHR MCOPY 0xE7 ISZERO 0xF8 0x2B PUSH0 0xE0 PUSH7 0x7F588D4F92D6CC 0xB4 0xE4 SWAP10 0xB5 SWAP8 ADDRESS 0xD2 MSTORE 0x27 0xBD BLOBHASH 0xC1 GASPRICE ADD 0xDB DUP3 PUSH5 0x736F6C6343 STOP ADDMOD BYTE STOP CALLER "
				},
				"gasEstimates": {
					"creation": {
						"codeDepositCost": "871800",
						"executionCost": "5912",
						"totalCost": "877712"
					},
					"external": {
						"ProposalCount()": "2425",
						"Proposals(uint256)": "infinite",
						"createProposal(string,string,string,string)": "infinite",
						"voteOnProposal(uint256,uint8)": "infinite"
					}
				},
				"methodIdentifiers": {
					"ProposalCount()": "be747c1c",
					"Proposals(uint256)": "d1dbe7d8",
					"createProposal(string,string,string,string)": "2a689692",
					"voteOnProposal(uint256,uint8)": "efafb22e"
				}
			},
			"storageLayout": {
				"storage": [
					{
						"astId": 49,
						"contract": "contracts/DAOProposal.sol:DaoProposal",
						"label": "Proposals",
						"offset": 0,
						"slot": "0",
						"type": "t_mapping(t_uint256,t_struct(Proposal)20_storage)"
					},
					{
						"astId": 52,
						"contract": "contracts/DAOProposal.sol:DaoProposal",
						"label": "ProposalCount",
						"offset": 0,
						"slot": "1",
						"type": "t_uint256"
					},
					{
						"astId": 58,
						"contract": "contracts/DAOProposal.sol:DaoProposal",
						"label": "votes",
						"offset": 0,
						"slot": "2",
						"type": "t_mapping(t_address,t_mapping(t_uint256,t_bool))"
					}
				],
				"types": {
					"t_address": {
						"encoding": "inplace",
						"label": "address",
						"numberOfBytes": "20"
					},
					"t_bool": {
						"encoding": "inplace",
						"label": "bool",
						"numberOfBytes": "1"
					},
					"t_mapping(t_address,t_mapping(t_uint256,t_bool))": {
						"encoding": "mapping",
						"key": "t_address",
						"label": "mapping(address => mapping(uint256 => bool))",
						"numberOfBytes": "32",
						"value": "t_mapping(t_uint256,t_bool)"
					},
					"t_mapping(t_uint256,t_bool)": {
						"encoding": "mapping",
						"key": "t_uint256",
						"label": "mapping(uint256 => bool)",
						"numberOfBytes": "32",
						"value": "t_bool"
					},
					"t_mapping(t_uint256,t_struct(Proposal)20_storage)": {
						"encoding": "mapping",
						"key": "t_uint256",
						"label": "mapping(uint256 => struct DaoProposal.Proposal)",
						"numberOfBytes": "32",
						"value": "t_struct(Proposal)20_storage"
					},
					"t_string_storage": {
						"encoding": "bytes",
						"label": "string",
						"numberOfBytes": "32"
					},
					"t_struct(Proposal)20_storage": {
						"encoding": "inplace",
						"label": "struct DaoProposal.Proposal",
						"members": [
							{
								"astId": 3,
								"contract": "contracts/DAOProposal.sol:DaoProposal",
								"label": "owner",
								"offset": 0,
								"slot": "0",
								"type": "t_address"
							},
							{
								"astId": 5,
								"contract": "contracts/DAOProposal.sol:DaoProposal",
								"label": "title",
								"offset": 0,
								"slot": "1",
								"type": "t_string_storage"
							},
							{
								"astId": 7,
								"contract": "contracts/DAOProposal.sol:DaoProposal",
								"label": "description",
								"offset": 0,
								"slot": "2",
								"type": "t_string_storage"
							},
							{
								"astId": 9,
								"contract": "contracts/DAOProposal.sol:DaoProposal",
								"label": "proposalId",
								"offset": 0,
								"slot": "3",
								"type": "t_uint256"
							},
							{
								"astId": 11,
								"contract": "contracts/DAOProposal.sol:DaoProposal",
								"label": "executed",
								"offset": 0,
								"slot": "4",
								"type": "t_bool"
							},
							{
								"astId": 13,
								"contract": "contracts/DAOProposal.sol:DaoProposal",
								"label": "votedYes",
								"offset": 0,
								"slot": "5",
								"type": "t_uint256"
							},
							{
								"astId": 15,
								"contract": "contracts/DAOProposal.sol:DaoProposal",
								"label": "votedNo",
								"offset": 0,
								"slot": "6",
								"type": "t_uint256"
							},
							{
								"astId": 17,
								"contract": "contracts/DAOProposal.sol:DaoProposal",
								"label": "startTime",
								"offset": 0,
								"slot": "7",
								"type": "t_string_storage"
							},
							{
								"astId": 19,
								"contract": "contracts/DAOProposal.sol:DaoProposal",
								"label": "endTime",
								"offset": 0,
								"slot": "8",
								"type": "t_string_storage"
							}
						],
						"numberOfBytes": "288"
					},
					"t_uint256": {
						"encoding": "inplace",
						"label": "uint256",
						"numberOfBytes": "32"
					}
				}
			},
			"userdoc": {
				"kind": "user",
				"methods": {},
				"version": 1
			}
		}
	}
}