{
	"contracts/DAOProposal.sol": {
		"DaoProposal": {
			"abi": [
				{
					"anonymous": false,
					"inputs": [
						{
							"indexed": true,
							"internalType": "uint256",
							"name": "proposalID",
							"type": "uint256"
						},
						{
							"indexed": false,
							"internalType": "string",
							"name": "title",
							"type": "string"
						},
						{
							"indexed": true,
							"internalType": "address",
							"name": "owner",
							"type": "address"
						},
						{
							"indexed": false,
							"internalType": "uint256",
							"name": "timestamp",
							"type": "uint256"
						}
					],
					"name": "ProposalsCreated",
					"type": "event"
				},
				{
					"anonymous": false,
					"inputs": [
						{
							"indexed": true,
							"internalType": "uint256",
							"name": "proposalID",
							"type": "uint256"
						},
						{
							"indexed": true,
							"internalType": "address",
							"name": "voter",
							"type": "address"
						},
						{
							"indexed": false,
							"internalType": "enum DaoProposal.Vote",
							"name": "vote",
							"type": "uint8"
						},
						{
							"indexed": false,
							"internalType": "uint256",
							"name": "timestamp",
							"type": "uint256"
						}
					],
					"name": "VoteCasted",
					"type": "event"
				},
				{
					"inputs": [],
					"name": "ProposalCount",
					"outputs": [
						{
							"internalType": "uint256",
							"name": "",
							"type": "uint256"
						}
					],
					"stateMutability": "view",
					"type": "function"
				},
				{
					"inputs": [
						{
							"internalType": "uint256",
							"name": "",
							"type": "uint256"
						}
					],
					"name": "Proposals",
					"outputs": [
						{
							"internalType": "address",
							"name": "owner",
							"type": "address"
						},
						{
							"internalType": "string",
							"name": "title",
							"type": "string"
						},
						{
							"internalType": "string",
							"name": "description",
							"type": "string"
						},
						{
							"internalType": "uint256",
							"name": "proposalId",
							"type": "uint256"
						},
						{
							"internalType": "bool",
							"name": "executed",
							"type": "bool"
						},
						{
							"internalType": "uint256",
							"name": "votedYes",
							"type": "uint256"
						},
						{
							"internalType": "uint256",
							"name": "votedNo",
							"type": "uint256"
						},
						{
							"internalType": "uint256",
							"name": "startTime",
							"type": "uint256"
						},
						{
							"internalType": "uint256",
							"name": "endTime",
							"type": "uint256"
						}
					],
					"stateMutability": "view",
					"type": "function"
				},
				{
					"inputs": [
						{
							"internalType": "string",
							"name": "_title",
							"type": "string"
						},
						{
							"internalType": "string",
							"name": "_description",
							"type": "string"
						},
						{
							"internalType": "uint32",
							"name": "duration",
							"type": "uint32"
						}
					],
					"name": "createProposal",
					"outputs": [
						{
							"internalType": "uint256",
							"name": "",
							"type": "uint256"
						}
					],
					"stateMutability": "nonpayable",
					"type": "function"
				},
				{
					"inputs": [
						{
							"internalType": "uint256",
							"name": "proposalID",
							"type": "uint256"
						},
						{
							"internalType": "enum DaoProposal.Vote",
							"name": "vote",
							"type": "uint8"
						}
					],
					"name": "voteOnProposal",
					"outputs": [],
					"stateMutability": "nonpayable",
					"type": "function"
				}
			],
			"devdoc": {
				"kind": "dev",
				"methods": {},
				"version": 1
			},
			"evm": {
				"assembly": "    /* \"contracts/DAOProposal.sol\":74:2275  contract DaoProposal {... */\n  mstore(0x40, 0x80)\n    /* \"contracts/DAOProposal.sol\":872:873  0 */\n  0x00\n    /* \"contracts/DAOProposal.sol\":841:873  uint256 public ProposalCount = 0 */\n  0x01\n  sstore\n    /* \"contracts/DAOProposal.sol\":74:2275  contract DaoProposal {... */\n  callvalue\n  dup1\n  iszero\n  tag_1\n  jumpi\n  0x00\n  dup1\n  revert\ntag_1:\n  pop\n  dataSize(sub_0)\n  dup1\n  dataOffset(sub_0)\n  0x00\n  codecopy\n  0x00\n  return\nstop\n\nsub_0: assembly {\n        /* \"contracts/DAOProposal.sol\":74:2275  contract DaoProposal {... */\n      mstore(0x40, 0x80)\n      callvalue\n      dup1\n      iszero\n      tag_1\n      jumpi\n      0x00\n      dup1\n      revert\n    tag_1:\n      pop\n      jumpi(tag_2, lt(calldatasize, 0x04))\n      shr(0xe0, calldataload(0x00))\n      dup1\n      0xbe747c1c\n      eq\n      tag_3\n      jumpi\n      dup1\n      0xd1dbe7d8\n      eq\n      tag_4\n      jumpi\n      dup1\n      0xd9bc438a\n      eq\n      tag_5\n      jumpi\n      dup1\n      0xefafb22e\n      eq\n      tag_6\n      jumpi\n    tag_2:\n      0x00\n      dup1\n      revert\n        /* \"contracts/DAOProposal.sol\":841:873  uint256 public ProposalCount = 0 */\n    tag_3:\n      tag_7\n      tag_8\n      jump\t// in\n    tag_7:\n      mload(0x40)\n      tag_9\n      swap2\n      swap1\n      tag_10\n      jump\t// in\n    tag_9:\n      mload(0x40)\n      dup1\n      swap2\n      sub\n      swap1\n      return\n        /* \"contracts/DAOProposal.sol\":792:834  mapping(uint => Proposal) public Proposals */\n    tag_4:\n      tag_11\n      0x04\n      dup1\n      calldatasize\n      sub\n      dup2\n      add\n      swap1\n      tag_12\n      swap2\n      swap1\n      tag_13\n      jump\t// in\n    tag_12:\n      tag_14\n      jump\t// in\n    tag_11:\n      mload(0x40)\n      tag_15\n      swap10\n      swap9\n      swap8\n      swap7\n      swap6\n      swap5\n      swap4\n      swap3\n      swap2\n      swap1\n      tag_16\n      jump\t// in\n    tag_15:\n      mload(0x40)\n      dup1\n      swap2\n      sub\n      swap1\n      return\n        /* \"contracts/DAOProposal.sol\":941:1625  function createProposal(string memory _title, string memory _description, uint32 duration) ... */\n    tag_5:\n      tag_17\n      0x04\n      dup1\n      calldatasize\n      sub\n      dup2\n      add\n      swap1\n      tag_18\n      swap2\n      swap1\n      tag_19\n      jump\t// in\n    tag_18:\n      tag_20\n      jump\t// in\n    tag_17:\n      mload(0x40)\n      tag_21\n      swap2\n      swap1\n      tag_10\n      jump\t// in\n    tag_21:\n      mload(0x40)\n      dup1\n      swap2\n      sub\n      swap1\n      return\n        /* \"contracts/DAOProposal.sol\":1660:2243  function voteOnProposal(uint proposalID, Vote vote) external {... */\n    tag_6:\n      tag_22\n      0x04\n      dup1\n      calldatasize\n      sub\n      dup2\n      add\n      swap1\n      tag_23\n      swap2\n      swap1\n      tag_24\n      jump\t// in\n    tag_23:\n      tag_25\n      jump\t// in\n    tag_22:\n      stop\n        /* \"contracts/DAOProposal.sol\":841:873  uint256 public ProposalCount = 0 */\n    tag_8:\n      sload(0x01)\n      dup2\n      jump\t// out\n        /* \"contracts/DAOProposal.sol\":792:834  mapping(uint => Proposal) public Proposals */\n    tag_14:\n      mstore(0x20, 0x00)\n      dup1\n      0x00\n      mstore\n      keccak256(0x00, 0x40)\n      0x00\n      swap2\n      pop\n      swap1\n      pop\n      dup1\n      0x00\n      add\n      0x00\n      swap1\n      sload\n      swap1\n      0x0100\n      exp\n      swap1\n      div\n      0xffffffffffffffffffffffffffffffffffffffff\n      and\n      swap1\n      dup1\n      0x01\n      add\n      dup1\n      sload\n      tag_26\n      swap1\n      tag_27\n      jump\t// in\n    tag_26:\n      dup1\n      0x1f\n      add\n      0x20\n      dup1\n      swap2\n      div\n      mul\n      0x20\n      add\n      mload(0x40)\n      swap1\n      dup2\n      add\n      0x40\n      mstore\n      dup1\n      swap3\n      swap2\n      swap1\n      dup2\n      dup2\n      mstore\n      0x20\n      add\n      dup3\n      dup1\n      sload\n      tag_28\n      swap1\n      tag_27\n      jump\t// in\n    tag_28:\n      dup1\n      iszero\n      tag_29\n      jumpi\n      dup1\n      0x1f\n      lt\n      tag_30\n      jumpi\n      0x0100\n      dup1\n      dup4\n      sload\n      div\n      mul\n      dup4\n      mstore\n      swap2\n      0x20\n      add\n      swap2\n      jump(tag_29)\n    tag_30:\n      dup3\n      add\n      swap2\n      swap1\n      0x00\n      mstore\n      keccak256(0x00, 0x20)\n      swap1\n    tag_31:\n      dup2\n      sload\n      dup2\n      mstore\n      swap1\n      0x01\n      add\n      swap1\n      0x20\n      add\n      dup1\n      dup4\n      gt\n      tag_31\n      jumpi\n      dup3\n      swap1\n      sub\n      0x1f\n      and\n      dup3\n      add\n      swap2\n    tag_29:\n      pop\n      pop\n      pop\n      pop\n      pop\n      swap1\n      dup1\n      0x02\n      add\n      dup1\n      sload\n      tag_32\n      swap1\n      tag_27\n      jump\t// in\n    tag_32:\n      dup1\n      0x1f\n      add\n      0x20\n      dup1\n      swap2\n      div\n      mul\n      0x20\n      add\n      mload(0x40)\n      swap1\n      dup2\n      add\n      0x40\n      mstore\n      dup1\n      swap3\n      swap2\n      swap1\n      dup2\n      dup2\n      mstore\n      0x20\n      add\n      dup3\n      dup1\n      sload\n      tag_33\n      swap1\n      tag_27\n      jump\t// in\n    tag_33:\n      dup1\n      iszero\n      tag_34\n      jumpi\n      dup1\n      0x1f\n      lt\n      tag_35\n      jumpi\n      0x0100\n      dup1\n      dup4\n      sload\n      div\n      mul\n      dup4\n      mstore\n      swap2\n      0x20\n      add\n      swap2\n      jump(tag_34)\n    tag_35:\n      dup3\n      add\n      swap2\n      swap1\n      0x00\n      mstore\n      keccak256(0x00, 0x20)\n      swap1\n    tag_36:\n      dup2\n      sload\n      dup2\n      mstore\n      swap1\n      0x01\n      add\n      swap1\n      0x20\n      add\n      dup1\n      dup4\n      gt\n      tag_36\n      jumpi\n      dup3\n      swap1\n      sub\n      0x1f\n      and\n      dup3\n      add\n      swap2\n    tag_34:\n      pop\n      pop\n      pop\n      pop\n      pop\n      swap1\n      dup1\n      0x03\n      add\n      sload\n      swap1\n      dup1\n      0x04\n      add\n      0x00\n      swap1\n      sload\n      swap1\n      0x0100\n      exp\n      swap1\n      div\n      0xff\n      and\n      swap1\n      dup1\n      0x05\n      add\n      sload\n      swap1\n      dup1\n      0x06\n      add\n      sload\n      swap1\n      dup1\n      0x07\n      add\n      sload\n      swap1\n      dup1\n      0x08\n      add\n      sload\n      swap1\n      pop\n      dup10\n      jump\t// out\n        /* \"contracts/DAOProposal.sol\":941:1625  function createProposal(string memory _title, string memory _description, uint32 duration) ... */\n    tag_20:\n        /* \"contracts/DAOProposal.sol\":1059:1066  uint256 */\n      0x00\n        /* \"contracts/DAOProposal.sol\":1085:1110  Proposal storage proposal */\n      dup1\n        /* \"contracts/DAOProposal.sol\":1113:1122  Proposals */\n      0x00\n        /* \"contracts/DAOProposal.sol\":1113:1137  Proposals[ProposalCount] */\n      dup1\n        /* \"contracts/DAOProposal.sol\":1123:1136  ProposalCount */\n      sload(0x01)\n        /* \"contracts/DAOProposal.sol\":1113:1137  Proposals[ProposalCount] */\n      dup2\n      mstore\n      0x20\n      add\n      swap1\n      dup2\n      mstore\n      0x20\n      add\n      0x00\n      keccak256\n        /* \"contracts/DAOProposal.sol\":1085:1137  Proposal storage proposal = Proposals[ProposalCount] */\n      swap1\n      pop\n        /* \"contracts/DAOProposal.sol\":1165:1175  msg.sender */\n      caller\n        /* \"contracts/DAOProposal.sol\":1148:1156  proposal */\n      dup2\n        /* \"contracts/DAOProposal.sol\":1148:1162  proposal.owner */\n      0x00\n      add\n      0x00\n        /* \"contracts/DAOProposal.sol\":1148:1175  proposal.owner = msg.sender */\n      0x0100\n      exp\n      dup2\n      sload\n      dup2\n      0xffffffffffffffffffffffffffffffffffffffff\n      mul\n      not\n      and\n      swap1\n      dup4\n      0xffffffffffffffffffffffffffffffffffffffff\n      and\n      mul\n      or\n      swap1\n      sstore\n      pop\n        /* \"contracts/DAOProposal.sol\":1208:1221  ProposalCount */\n      sload(0x01)\n        /* \"contracts/DAOProposal.sol\":1186:1194  proposal */\n      dup2\n        /* \"contracts/DAOProposal.sol\":1186:1205  proposal.proposalId */\n      0x03\n      add\n        /* \"contracts/DAOProposal.sol\":1186:1221  proposal.proposalId = ProposalCount */\n      dup2\n      swap1\n      sstore\n      pop\n        /* \"contracts/DAOProposal.sol\":1260:1266  _title */\n      dup5\n        /* \"contracts/DAOProposal.sol\":1243:1251  proposal */\n      dup2\n        /* \"contracts/DAOProposal.sol\":1243:1257  proposal.title */\n      0x01\n      add\n        /* \"contracts/DAOProposal.sol\":1243:1266  proposal.title = _title */\n      swap1\n      dup2\n      tag_38\n      swap2\n      swap1\n      tag_39\n      jump\t// in\n    tag_38:\n      pop\n        /* \"contracts/DAOProposal.sol\":1297:1302  false */\n      0x00\n        /* \"contracts/DAOProposal.sol\":1277:1285  proposal */\n      dup2\n        /* \"contracts/DAOProposal.sol\":1277:1294  proposal.executed */\n      0x04\n      add\n      0x00\n        /* \"contracts/DAOProposal.sol\":1277:1302  proposal.executed = false */\n      0x0100\n      exp\n      dup2\n      sload\n      dup2\n      0xff\n      mul\n      not\n      and\n      swap1\n      dup4\n      iszero\n      iszero\n      mul\n      or\n      swap1\n      sstore\n      pop\n        /* \"contracts/DAOProposal.sol\":1336:1348  _description */\n      dup4\n        /* \"contracts/DAOProposal.sol\":1313:1321  proposal */\n      dup2\n        /* \"contracts/DAOProposal.sol\":1313:1333  proposal.description */\n      0x02\n      add\n        /* \"contracts/DAOProposal.sol\":1313:1348  proposal.description = _description */\n      swap1\n      dup2\n      tag_40\n      swap2\n      swap1\n      tag_39\n      jump\t// in\n    tag_40:\n      pop\n        /* \"contracts/DAOProposal.sol\":1380:1395  block.timestamp */\n      timestamp\n        /* \"contracts/DAOProposal.sol\":1359:1367  proposal */\n      dup2\n        /* \"contracts/DAOProposal.sol\":1359:1377  proposal.startTime */\n      0x07\n      add\n        /* \"contracts/DAOProposal.sol\":1359:1395  proposal.startTime = block.timestamp */\n      dup2\n      swap1\n      sstore\n      pop\n        /* \"contracts/DAOProposal.sol\":1455:1461  1 days */\n      0x015180\n        /* \"contracts/DAOProposal.sol\":1444:1452  duration */\n      dup4\n        /* \"contracts/DAOProposal.sol\":1444:1461  duration * 1 days */\n      tag_41\n      swap2\n      swap1\n      tag_42\n      jump\t// in\n    tag_41:\n        /* \"contracts/DAOProposal.sol\":1425:1462  block.timestamp + (duration * 1 days) */\n      0xffffffff\n      and\n        /* \"contracts/DAOProposal.sol\":1425:1440  block.timestamp */\n      timestamp\n        /* \"contracts/DAOProposal.sol\":1425:1462  block.timestamp + (duration * 1 days) */\n      tag_43\n      swap2\n      swap1\n      tag_44\n      jump\t// in\n    tag_43:\n        /* \"contracts/DAOProposal.sol\":1406:1414  proposal */\n      dup2\n        /* \"contracts/DAOProposal.sol\":1406:1422  proposal.endTime */\n      0x08\n      add\n        /* \"contracts/DAOProposal.sol\":1406:1462  proposal.endTime = block.timestamp + (duration * 1 days) */\n      dup2\n      swap1\n      sstore\n      pop\n        /* \"contracts/DAOProposal.sol\":1475:1488  ProposalCount */\n      0x01\n      0x00\n        /* \"contracts/DAOProposal.sol\":1475:1490  ProposalCount++ */\n      dup2\n      sload\n      dup1\n      swap3\n      swap2\n      swap1\n      tag_45\n      swap1\n      tag_46\n      jump\t// in\n    tag_45:\n      swap2\n      swap1\n      pop\n      sstore\n      pop\n        /* \"contracts/DAOProposal.sol\":1552:1562  msg.sender */\n      caller\n        /* \"contracts/DAOProposal.sol\":1508:1580  ProposalsCreated(ProposalCount - 1, _title, msg.sender, block.timestamp) */\n      0xffffffffffffffffffffffffffffffffffffffff\n      and\n        /* \"contracts/DAOProposal.sol\":1541:1542  1 */\n      0x01\n        /* \"contracts/DAOProposal.sol\":1525:1538  ProposalCount */\n      dup1\n      sload\n        /* \"contracts/DAOProposal.sol\":1525:1542  ProposalCount - 1 */\n      tag_47\n      swap2\n      swap1\n      tag_48\n      jump\t// in\n    tag_47:\n        /* \"contracts/DAOProposal.sol\":1508:1580  ProposalsCreated(ProposalCount - 1, _title, msg.sender, block.timestamp) */\n      0xb8ec33a39f0af82926e7839f5e5d30bd98d3036bbc2ffb47ccd2550972355e2e\n        /* \"contracts/DAOProposal.sol\":1544:1550  _title */\n      dup8\n        /* \"contracts/DAOProposal.sol\":1564:1579  block.timestamp */\n      timestamp\n        /* \"contracts/DAOProposal.sol\":1508:1580  ProposalsCreated(ProposalCount - 1, _title, msg.sender, block.timestamp) */\n      mload(0x40)\n      tag_49\n      swap3\n      swap2\n      swap1\n      tag_50\n      jump\t// in\n    tag_49:\n      mload(0x40)\n      dup1\n      swap2\n      sub\n      swap1\n      log3\n        /* \"contracts/DAOProposal.sol\":1616:1617  1 */\n      0x01\n        /* \"contracts/DAOProposal.sol\":1600:1613  ProposalCount */\n      dup1\n      sload\n        /* \"contracts/DAOProposal.sol\":1600:1617  ProposalCount - 1 */\n      tag_51\n      swap2\n      swap1\n      tag_48\n      jump\t// in\n    tag_51:\n        /* \"contracts/DAOProposal.sol\":1593:1617  return ProposalCount - 1 */\n      swap2\n      pop\n      pop\n        /* \"contracts/DAOProposal.sol\":941:1625  function createProposal(string memory _title, string memory _description, uint32 duration) ... */\n      swap4\n      swap3\n      pop\n      pop\n      pop\n      jump\t// out\n        /* \"contracts/DAOProposal.sol\":1660:2243  function voteOnProposal(uint proposalID, Vote vote) external {... */\n    tag_25:\n        /* \"contracts/DAOProposal.sol\":1732:1757  Proposal storage proposal */\n      0x00\n        /* \"contracts/DAOProposal.sol\":1760:1769  Proposals */\n      dup1\n        /* \"contracts/DAOProposal.sol\":1760:1781  Proposals[proposalID] */\n      0x00\n        /* \"contracts/DAOProposal.sol\":1770:1780  proposalID */\n      dup5\n        /* \"contracts/DAOProposal.sol\":1760:1781  Proposals[proposalID] */\n      dup2\n      mstore\n      0x20\n      add\n      swap1\n      dup2\n      mstore\n      0x20\n      add\n      0x00\n      keccak256\n        /* \"contracts/DAOProposal.sol\":1732:1781  Proposal storage proposal = Proposals[proposalID] */\n      swap1\n      pop\n        /* \"contracts/DAOProposal.sol\":1826:1827  0 */\n      0x00\n        /* \"contracts/DAOProposal.sol\":1800:1828  proposal.owner != address(0) */\n      0xffffffffffffffffffffffffffffffffffffffff\n      and\n        /* \"contracts/DAOProposal.sol\":1800:1808  proposal */\n      dup2\n        /* \"contracts/DAOProposal.sol\":1800:1814  proposal.owner */\n      0x00\n      add\n      0x00\n      swap1\n      sload\n      swap1\n      0x0100\n      exp\n      swap1\n      div\n      0xffffffffffffffffffffffffffffffffffffffff\n      and\n        /* \"contracts/DAOProposal.sol\":1800:1828  proposal.owner != address(0) */\n      0xffffffffffffffffffffffffffffffffffffffff\n      and\n      sub\n        /* \"contracts/DAOProposal.sol\":1792:1860  require(proposal.owner != address(0), \"The proposal does not exist\") */\n      tag_53\n      jumpi\n      mload(0x40)\n      0x08c379a000000000000000000000000000000000000000000000000000000000\n      dup2\n      mstore\n      0x04\n      add\n      tag_54\n      swap1\n      tag_55\n      jump\t// in\n    tag_54:\n      mload(0x40)\n      dup1\n      swap2\n      sub\n      swap1\n      revert\n    tag_53:\n        /* \"contracts/DAOProposal.sol\":1921:1926  false */\n      0x00\n        /* \"contracts/DAOProposal.sol\":1879:1926  votes[msg.sender][proposal.proposalId] == false */\n      iszero\n      iszero\n        /* \"contracts/DAOProposal.sol\":1879:1884  votes */\n      0x02\n        /* \"contracts/DAOProposal.sol\":1879:1896  votes[msg.sender] */\n      0x00\n        /* \"contracts/DAOProposal.sol\":1885:1895  msg.sender */\n      caller\n        /* \"contracts/DAOProposal.sol\":1879:1896  votes[msg.sender] */\n      0xffffffffffffffffffffffffffffffffffffffff\n      and\n      0xffffffffffffffffffffffffffffffffffffffff\n      and\n      dup2\n      mstore\n      0x20\n      add\n      swap1\n      dup2\n      mstore\n      0x20\n      add\n      0x00\n      keccak256\n        /* \"contracts/DAOProposal.sol\":1879:1917  votes[msg.sender][proposal.proposalId] */\n      0x00\n        /* \"contracts/DAOProposal.sol\":1897:1905  proposal */\n      dup4\n        /* \"contracts/DAOProposal.sol\":1897:1916  proposal.proposalId */\n      0x03\n      add\n      sload\n        /* \"contracts/DAOProposal.sol\":1879:1917  votes[msg.sender][proposal.proposalId] */\n      dup2\n      mstore\n      0x20\n      add\n      swap1\n      dup2\n      mstore\n      0x20\n      add\n      0x00\n      keccak256\n      0x00\n      swap1\n      sload\n      swap1\n      0x0100\n      exp\n      swap1\n      div\n      0xff\n      and\n        /* \"contracts/DAOProposal.sol\":1879:1926  votes[msg.sender][proposal.proposalId] == false */\n      iszero\n      iszero\n      eq\n        /* \"contracts/DAOProposal.sol\":1871:1970  require(votes[msg.sender][proposal.proposalId] == false, \"You have already voted on this proposal\") */\n      tag_56\n      jumpi\n      mload(0x40)\n      0x08c379a000000000000000000000000000000000000000000000000000000000\n      dup2\n      mstore\n      0x04\n      add\n      tag_57\n      swap1\n      tag_58\n      jump\t// in\n    tag_57:\n      mload(0x40)\n      dup1\n      swap2\n      sub\n      swap1\n      revert\n    tag_56:\n        /* \"contracts/DAOProposal.sol\":1995:2003  Vote.Yes */\n      0x00\n        /* \"contracts/DAOProposal.sol\":1987:2003  vote == Vote.Yes */\n      0x01\n      dup2\n      gt\n      iszero\n      tag_59\n      jumpi\n      tag_60\n      tag_61\n      jump\t// in\n    tag_60:\n    tag_59:\n        /* \"contracts/DAOProposal.sol\":1987:1991  vote */\n      dup3\n        /* \"contracts/DAOProposal.sol\":1987:2003  vote == Vote.Yes */\n      0x01\n      dup2\n      gt\n      iszero\n      tag_62\n      jumpi\n      tag_63\n      tag_61\n      jump\t// in\n    tag_63:\n    tag_62:\n      sub\n        /* \"contracts/DAOProposal.sol\":1983:2103  if (vote == Vote.Yes) {... */\n      tag_64\n      jumpi\n        /* \"contracts/DAOProposal.sol\":2020:2028  proposal */\n      dup1\n        /* \"contracts/DAOProposal.sol\":2020:2037  proposal.votedYes */\n      0x05\n      add\n      0x00\n        /* \"contracts/DAOProposal.sol\":2020:2039  proposal.votedYes++ */\n      dup2\n      sload\n      dup1\n      swap3\n      swap2\n      swap1\n      tag_65\n      swap1\n      tag_46\n      jump\t// in\n    tag_65:\n      swap2\n      swap1\n      pop\n      sstore\n      pop\n        /* \"contracts/DAOProposal.sol\":1983:2103  if (vote == Vote.Yes) {... */\n      jump(tag_66)\n    tag_64:\n        /* \"contracts/DAOProposal.sol\":2072:2080  proposal */\n      dup1\n        /* \"contracts/DAOProposal.sol\":2072:2088  proposal.votedNo */\n      0x06\n      add\n      0x00\n        /* \"contracts/DAOProposal.sol\":2072:2090  proposal.votedNo++ */\n      dup2\n      sload\n      dup1\n      swap3\n      swap2\n      swap1\n      tag_67\n      swap1\n      tag_46\n      jump\t// in\n    tag_67:\n      swap2\n      swap1\n      pop\n      sstore\n      pop\n        /* \"contracts/DAOProposal.sol\":1983:2103  if (vote == Vote.Yes) {... */\n    tag_66:\n        /* \"contracts/DAOProposal.sol\":2156:2160  true */\n      0x01\n        /* \"contracts/DAOProposal.sol\":2115:2120  votes */\n      0x02\n        /* \"contracts/DAOProposal.sol\":2115:2132  votes[msg.sender] */\n      0x00\n        /* \"contracts/DAOProposal.sol\":2121:2131  msg.sender */\n      caller\n        /* \"contracts/DAOProposal.sol\":2115:2132  votes[msg.sender] */\n      0xffffffffffffffffffffffffffffffffffffffff\n      and\n      0xffffffffffffffffffffffffffffffffffffffff\n      and\n      dup2\n      mstore\n      0x20\n      add\n      swap1\n      dup2\n      mstore\n      0x20\n      add\n      0x00\n      keccak256\n        /* \"contracts/DAOProposal.sol\":2115:2153  votes[msg.sender][proposal.proposalId] */\n      0x00\n        /* \"contracts/DAOProposal.sol\":2133:2141  proposal */\n      dup4\n        /* \"contracts/DAOProposal.sol\":2133:2152  proposal.proposalId */\n      0x03\n      add\n      sload\n        /* \"contracts/DAOProposal.sol\":2115:2153  votes[msg.sender][proposal.proposalId] */\n      dup2\n      mstore\n      0x20\n      add\n      swap1\n      dup2\n      mstore\n      0x20\n      add\n      0x00\n      keccak256\n      0x00\n        /* \"contracts/DAOProposal.sol\":2115:2160  votes[msg.sender][proposal.proposalId] = true */\n      0x0100\n      exp\n      dup2\n      sload\n      dup2\n      0xff\n      mul\n      not\n      and\n      swap1\n      dup4\n      iszero\n      iszero\n      mul\n      or\n      swap1\n      sstore\n      pop\n        /* \"contracts/DAOProposal.sol\":2201:2211  msg.sender */\n      caller\n        /* \"contracts/DAOProposal.sol\":2178:2235  VoteCasted(proposalID, msg.sender, vote, block.timestamp) */\n      0xffffffffffffffffffffffffffffffffffffffff\n      and\n        /* \"contracts/DAOProposal.sol\":2189:2199  proposalID */\n      dup4\n        /* \"contracts/DAOProposal.sol\":2178:2235  VoteCasted(proposalID, msg.sender, vote, block.timestamp) */\n      0x2c429843b755aefd47bd35f951ec584e567e65542f31d255ff570e130d0dd404\n        /* \"contracts/DAOProposal.sol\":2213:2217  vote */\n      dup5\n        /* \"contracts/DAOProposal.sol\":2219:2234  block.timestamp */\n      timestamp\n        /* \"contracts/DAOProposal.sol\":2178:2235  VoteCasted(proposalID, msg.sender, vote, block.timestamp) */\n      mload(0x40)\n      tag_68\n      swap3\n      swap2\n      swap1\n      tag_69\n      jump\t// in\n    tag_68:\n      mload(0x40)\n      dup1\n      swap2\n      sub\n      swap1\n      log3\n        /* \"contracts/DAOProposal.sol\":1721:2243  {... */\n      pop\n        /* \"contracts/DAOProposal.sol\":1660:2243  function voteOnProposal(uint proposalID, Vote vote) external {... */\n      pop\n      pop\n      jump\t// out\n        /* \"#utility.yul\":7:84   */\n    tag_70:\n        /* \"#utility.yul\":44:51   */\n      0x00\n        /* \"#utility.yul\":73:78   */\n      dup2\n        /* \"#utility.yul\":62:78   */\n      swap1\n      pop\n        /* \"#utility.yul\":7:84   */\n      swap2\n      swap1\n      pop\n      jump\t// out\n        /* \"#utility.yul\":90:208   */\n    tag_71:\n        /* \"#utility.yul\":177:201   */\n      tag_129\n        /* \"#utility.yul\":195:200   */\n      dup2\n        /* \"#utility.yul\":177:201   */\n      tag_70\n      jump\t// in\n    tag_129:\n        /* \"#utility.yul\":172:175   */\n      dup3\n        /* \"#utility.yul\":165:202   */\n      mstore\n        /* \"#utility.yul\":90:208   */\n      pop\n      pop\n      jump\t// out\n        /* \"#utility.yul\":214:436   */\n    tag_10:\n        /* \"#utility.yul\":307:311   */\n      0x00\n        /* \"#utility.yul\":345:347   */\n      0x20\n        /* \"#utility.yul\":334:343   */\n      dup3\n        /* \"#utility.yul\":330:348   */\n      add\n        /* \"#utility.yul\":322:348   */\n      swap1\n      pop\n        /* \"#utility.yul\":358:429   */\n      tag_131\n        /* \"#utility.yul\":426:427   */\n      0x00\n        /* \"#utility.yul\":415:424   */\n      dup4\n        /* \"#utility.yul\":411:428   */\n      add\n        /* \"#utility.yul\":402:408   */\n      dup5\n        /* \"#utility.yul\":358:429   */\n      tag_71\n      jump\t// in\n    tag_131:\n        /* \"#utility.yul\":214:436   */\n      swap3\n      swap2\n      pop\n      pop\n      jump\t// out\n        /* \"#utility.yul\":442:517   */\n    tag_72:\n        /* \"#utility.yul\":475:481   */\n      0x00\n        /* \"#utility.yul\":508:510   */\n      0x40\n        /* \"#utility.yul\":502:511   */\n      mload\n        /* \"#utility.yul\":492:511   */\n      swap1\n      pop\n        /* \"#utility.yul\":442:517   */\n      swap1\n      jump\t// out\n        /* \"#utility.yul\":523:640   */\n    tag_73:\n        /* \"#utility.yul\":632:633   */\n      0x00\n        /* \"#utility.yul\":629:630   */\n      dup1\n        /* \"#utility.yul\":622:634   */\n      revert\n        /* \"#utility.yul\":646:763   */\n    tag_74:\n        /* \"#utility.yul\":755:756   */\n      0x00\n        /* \"#utility.yul\":752:753   */\n      dup1\n        /* \"#utility.yul\":745:757   */\n      revert\n        /* \"#utility.yul\":769:891   */\n    tag_75:\n        /* \"#utility.yul\":842:866   */\n      tag_136\n        /* \"#utility.yul\":860:865   */\n      dup2\n        /* \"#utility.yul\":842:866   */\n      tag_70\n      jump\t// in\n    tag_136:\n        /* \"#utility.yul\":835:840   */\n      dup2\n        /* \"#utility.yul\":832:867   */\n      eq\n        /* \"#utility.yul\":822:885   */\n      tag_137\n      jumpi\n        /* \"#utility.yul\":881:882   */\n      0x00\n        /* \"#utility.yul\":878:879   */\n      dup1\n        /* \"#utility.yul\":871:883   */\n      revert\n        /* \"#utility.yul\":822:885   */\n    tag_137:\n        /* \"#utility.yul\":769:891   */\n      pop\n      jump\t// out\n        /* \"#utility.yul\":897:1036   */\n    tag_76:\n        /* \"#utility.yul\":943:948   */\n      0x00\n        /* \"#utility.yul\":981:987   */\n      dup2\n        /* \"#utility.yul\":968:988   */\n      calldataload\n        /* \"#utility.yul\":959:988   */\n      swap1\n      pop\n        /* \"#utility.yul\":997:1030   */\n      tag_139\n        /* \"#utility.yul\":1024:1029   */\n      dup2\n        /* \"#utility.yul\":997:1030   */\n      tag_75\n      jump\t// in\n    tag_139:\n        /* \"#utility.yul\":897:1036   */\n      swap3\n      swap2\n      pop\n      pop\n      jump\t// out\n        /* \"#utility.yul\":1042:1371   */\n    tag_13:\n        /* \"#utility.yul\":1101:1107   */\n      0x00\n        /* \"#utility.yul\":1150:1152   */\n      0x20\n        /* \"#utility.yul\":1138:1147   */\n      dup3\n        /* \"#utility.yul\":1129:1136   */\n      dup5\n        /* \"#utility.yul\":1125:1148   */\n      sub\n        /* \"#utility.yul\":1121:1153   */\n      slt\n        /* \"#utility.yul\":1118:1237   */\n      iszero\n      tag_141\n      jumpi\n        /* \"#utility.yul\":1156:1235   */\n      tag_142\n      tag_73\n      jump\t// in\n    tag_142:\n        /* \"#utility.yul\":1118:1237   */\n    tag_141:\n        /* \"#utility.yul\":1276:1277   */\n      0x00\n        /* \"#utility.yul\":1301:1354   */\n      tag_143\n        /* \"#utility.yul\":1346:1353   */\n      dup5\n        /* \"#utility.yul\":1337:1343   */\n      dup3\n        /* \"#utility.yul\":1326:1335   */\n      dup6\n        /* \"#utility.yul\":1322:1344   */\n      add\n        /* \"#utility.yul\":1301:1354   */\n      tag_76\n      jump\t// in\n    tag_143:\n        /* \"#utility.yul\":1291:1354   */\n      swap2\n      pop\n        /* \"#utility.yul\":1247:1364   */\n      pop\n        /* \"#utility.yul\":1042:1371   */\n      swap3\n      swap2\n      pop\n      pop\n      jump\t// out\n        /* \"#utility.yul\":1377:1503   */\n    tag_77:\n        /* \"#utility.yul\":1414:1421   */\n      0x00\n        /* \"#utility.yul\":1454:1496   */\n      0xffffffffffffffffffffffffffffffffffffffff\n        /* \"#utility.yul\":1447:1452   */\n      dup3\n        /* \"#utility.yul\":1443:1497   */\n      and\n        /* \"#utility.yul\":1432:1497   */\n      swap1\n      pop\n        /* \"#utility.yul\":1377:1503   */\n      swap2\n      swap1\n      pop\n      jump\t// out\n        /* \"#utility.yul\":1509:1605   */\n    tag_78:\n        /* \"#utility.yul\":1546:1553   */\n      0x00\n        /* \"#utility.yul\":1575:1599   */\n      tag_146\n        /* \"#utility.yul\":1593:1598   */\n      dup3\n        /* \"#utility.yul\":1575:1599   */\n      tag_77\n      jump\t// in\n    tag_146:\n        /* \"#utility.yul\":1564:1599   */\n      swap1\n      pop\n        /* \"#utility.yul\":1509:1605   */\n      swap2\n      swap1\n      pop\n      jump\t// out\n        /* \"#utility.yul\":1611:1729   */\n    tag_79:\n        /* \"#utility.yul\":1698:1722   */\n      tag_148\n        /* \"#utility.yul\":1716:1721   */\n      dup2\n        /* \"#utility.yul\":1698:1722   */\n      tag_78\n      jump\t// in\n    tag_148:\n        /* \"#utility.yul\":1693:1696   */\n      dup3\n        /* \"#utility.yul\":1686:1723   */\n      mstore\n        /* \"#utility.yul\":1611:1729   */\n      pop\n      pop\n      jump\t// out\n        /* \"#utility.yul\":1735:1834   */\n    tag_80:\n        /* \"#utility.yul\":1787:1793   */\n      0x00\n        /* \"#utility.yul\":1821:1826   */\n      dup2\n        /* \"#utility.yul\":1815:1827   */\n      mload\n        /* \"#utility.yul\":1805:1827   */\n      swap1\n      pop\n        /* \"#utility.yul\":1735:1834   */\n      swap2\n      swap1\n      pop\n      jump\t// out\n        /* \"#utility.yul\":1840:2009   */\n    tag_81:\n        /* \"#utility.yul\":1924:1935   */\n      0x00\n        /* \"#utility.yul\":1958:1964   */\n      dup3\n        /* \"#utility.yul\":1953:1956   */\n      dup3\n        /* \"#utility.yul\":1946:1965   */\n      mstore\n        /* \"#utility.yul\":1998:2002   */\n      0x20\n        /* \"#utility.yul\":1993:1996   */\n      dup3\n        /* \"#utility.yul\":1989:2003   */\n      add\n        /* \"#utility.yul\":1974:2003   */\n      swap1\n      pop\n        /* \"#utility.yul\":1840:2009   */\n      swap3\n      swap2\n      pop\n      pop\n      jump\t// out\n        /* \"#utility.yul\":2015:2154   */\n    tag_82:\n        /* \"#utility.yul\":2104:2110   */\n      dup3\n        /* \"#utility.yul\":2099:2102   */\n      dup2\n        /* \"#utility.yul\":2094:2097   */\n      dup4\n        /* \"#utility.yul\":2088:2111   */\n      mcopy\n        /* \"#utility.yul\":2145:2146   */\n      0x00\n        /* \"#utility.yul\":2136:2142   */\n      dup4\n        /* \"#utility.yul\":2131:2134   */\n      dup4\n        /* \"#utility.yul\":2127:2143   */\n      add\n        /* \"#utility.yul\":2120:2147   */\n      mstore\n        /* \"#utility.yul\":2015:2154   */\n      pop\n      pop\n      pop\n      jump\t// out\n        /* \"#utility.yul\":2160:2262   */\n    tag_83:\n        /* \"#utility.yul\":2201:2207   */\n      0x00\n        /* \"#utility.yul\":2252:2254   */\n      0x1f\n        /* \"#utility.yul\":2248:2255   */\n      not\n        /* \"#utility.yul\":2243:2245   */\n      0x1f\n        /* \"#utility.yul\":2236:2241   */\n      dup4\n        /* \"#utility.yul\":2232:2246   */\n      add\n        /* \"#utility.yul\":2228:2256   */\n      and\n        /* \"#utility.yul\":2218:2256   */\n      swap1\n      pop\n        /* \"#utility.yul\":2160:2262   */\n      swap2\n      swap1\n      pop\n      jump\t// out\n        /* \"#utility.yul\":2268:2645   */\n    tag_84:\n        /* \"#utility.yul\":2356:2359   */\n      0x00\n        /* \"#utility.yul\":2384:2423   */\n      tag_154\n        /* \"#utility.yul\":2417:2422   */\n      dup3\n        /* \"#utility.yul\":2384:2423   */\n      tag_80\n      jump\t// in\n    tag_154:\n        /* \"#utility.yul\":2439:2510   */\n      tag_155\n        /* \"#utility.yul\":2503:2509   */\n      dup2\n        /* \"#utility.yul\":2498:2501   */\n      dup6\n        /* \"#utility.yul\":2439:2510   */\n      tag_81\n      jump\t// in\n    tag_155:\n        /* \"#utility.yul\":2432:2510   */\n      swap4\n      pop\n        /* \"#utility.yul\":2519:2584   */\n      tag_156\n        /* \"#utility.yul\":2577:2583   */\n      dup2\n        /* \"#utility.yul\":2572:2575   */\n      dup6\n        /* \"#utility.yul\":2565:2569   */\n      0x20\n        /* \"#utility.yul\":2558:2563   */\n      dup7\n        /* \"#utility.yul\":2554:2570   */\n      add\n        /* \"#utility.yul\":2519:2584   */\n      tag_82\n      jump\t// in\n    tag_156:\n        /* \"#utility.yul\":2609:2638   */\n      tag_157\n        /* \"#utility.yul\":2631:2637   */\n      dup2\n        /* \"#utility.yul\":2609:2638   */\n      tag_83\n      jump\t// in\n    tag_157:\n        /* \"#utility.yul\":2604:2607   */\n      dup5\n        /* \"#utility.yul\":2600:2639   */\n      add\n        /* \"#utility.yul\":2593:2639   */\n      swap2\n      pop\n        /* \"#utility.yul\":2360:2645   */\n      pop\n        /* \"#utility.yul\":2268:2645   */\n      swap3\n      swap2\n      pop\n      pop\n      jump\t// out\n        /* \"#utility.yul\":2651:2741   */\n    tag_85:\n        /* \"#utility.yul\":2685:2692   */\n      0x00\n        /* \"#utility.yul\":2728:2733   */\n      dup2\n        /* \"#utility.yul\":2721:2734   */\n      iszero\n        /* \"#utility.yul\":2714:2735   */\n      iszero\n        /* \"#utility.yul\":2703:2735   */\n      swap1\n      pop\n        /* \"#utility.yul\":2651:2741   */\n      swap2\n      swap1\n      pop\n      jump\t// out\n        /* \"#utility.yul\":2747:2856   */\n    tag_86:\n        /* \"#utility.yul\":2828:2849   */\n      tag_160\n        /* \"#utility.yul\":2843:2848   */\n      dup2\n        /* \"#utility.yul\":2828:2849   */\n      tag_85\n      jump\t// in\n    tag_160:\n        /* \"#utility.yul\":2823:2826   */\n      dup3\n        /* \"#utility.yul\":2816:2850   */\n      mstore\n        /* \"#utility.yul\":2747:2856   */\n      pop\n      pop\n      jump\t// out\n        /* \"#utility.yul\":2862:4140   */\n    tag_16:\n        /* \"#utility.yul\":3213:3217   */\n      0x00\n        /* \"#utility.yul\":3251:3254   */\n      0x0120\n        /* \"#utility.yul\":3240:3249   */\n      dup3\n        /* \"#utility.yul\":3236:3255   */\n      add\n        /* \"#utility.yul\":3228:3255   */\n      swap1\n      pop\n        /* \"#utility.yul\":3265:3336   */\n      tag_162\n        /* \"#utility.yul\":3333:3334   */\n      0x00\n        /* \"#utility.yul\":3322:3331   */\n      dup4\n        /* \"#utility.yul\":3318:3335   */\n      add\n        /* \"#utility.yul\":3309:3315   */\n      dup13\n        /* \"#utility.yul\":3265:3336   */\n      tag_79\n      jump\t// in\n    tag_162:\n        /* \"#utility.yul\":3383:3392   */\n      dup2\n        /* \"#utility.yul\":3377:3381   */\n      dup2\n        /* \"#utility.yul\":3373:3393   */\n      sub\n        /* \"#utility.yul\":3368:3370   */\n      0x20\n        /* \"#utility.yul\":3357:3366   */\n      dup4\n        /* \"#utility.yul\":3353:3371   */\n      add\n        /* \"#utility.yul\":3346:3394   */\n      mstore\n        /* \"#utility.yul\":3411:3489   */\n      tag_163\n        /* \"#utility.yul\":3484:3488   */\n      dup2\n        /* \"#utility.yul\":3475:3481   */\n      dup12\n        /* \"#utility.yul\":3411:3489   */\n      tag_84\n      jump\t// in\n    tag_163:\n        /* \"#utility.yul\":3403:3489   */\n      swap1\n      pop\n        /* \"#utility.yul\":3536:3545   */\n      dup2\n        /* \"#utility.yul\":3530:3534   */\n      dup2\n        /* \"#utility.yul\":3526:3546   */\n      sub\n        /* \"#utility.yul\":3521:3523   */\n      0x40\n        /* \"#utility.yul\":3510:3519   */\n      dup4\n        /* \"#utility.yul\":3506:3524   */\n      add\n        /* \"#utility.yul\":3499:3547   */\n      mstore\n        /* \"#utility.yul\":3564:3642   */\n      tag_164\n        /* \"#utility.yul\":3637:3641   */\n      dup2\n        /* \"#utility.yul\":3628:3634   */\n      dup11\n        /* \"#utility.yul\":3564:3642   */\n      tag_84\n      jump\t// in\n    tag_164:\n        /* \"#utility.yul\":3556:3642   */\n      swap1\n      pop\n        /* \"#utility.yul\":3652:3724   */\n      tag_165\n        /* \"#utility.yul\":3720:3722   */\n      0x60\n        /* \"#utility.yul\":3709:3718   */\n      dup4\n        /* \"#utility.yul\":3705:3723   */\n      add\n        /* \"#utility.yul\":3696:3702   */\n      dup10\n        /* \"#utility.yul\":3652:3724   */\n      tag_71\n      jump\t// in\n    tag_165:\n        /* \"#utility.yul\":3734:3801   */\n      tag_166\n        /* \"#utility.yul\":3796:3799   */\n      0x80\n        /* \"#utility.yul\":3785:3794   */\n      dup4\n        /* \"#utility.yul\":3781:3800   */\n      add\n        /* \"#utility.yul\":3772:3778   */\n      dup9\n        /* \"#utility.yul\":3734:3801   */\n      tag_86\n      jump\t// in\n    tag_166:\n        /* \"#utility.yul\":3811:3884   */\n      tag_167\n        /* \"#utility.yul\":3879:3882   */\n      0xa0\n        /* \"#utility.yul\":3868:3877   */\n      dup4\n        /* \"#utility.yul\":3864:3883   */\n      add\n        /* \"#utility.yul\":3855:3861   */\n      dup8\n        /* \"#utility.yul\":3811:3884   */\n      tag_71\n      jump\t// in\n    tag_167:\n        /* \"#utility.yul\":3894:3967   */\n      tag_168\n        /* \"#utility.yul\":3962:3965   */\n      0xc0\n        /* \"#utility.yul\":3951:3960   */\n      dup4\n        /* \"#utility.yul\":3947:3966   */\n      add\n        /* \"#utility.yul\":3938:3944   */\n      dup7\n        /* \"#utility.yul\":3894:3967   */\n      tag_71\n      jump\t// in\n    tag_168:\n        /* \"#utility.yul\":3977:4050   */\n      tag_169\n        /* \"#utility.yul\":4045:4048   */\n      0xe0\n        /* \"#utility.yul\":4034:4043   */\n      dup4\n        /* \"#utility.yul\":4030:4049   */\n      add\n        /* \"#utility.yul\":4021:4027   */\n      dup6\n        /* \"#utility.yul\":3977:4050   */\n      tag_71\n      jump\t// in\n    tag_169:\n        /* \"#utility.yul\":4060:4133   */\n      tag_170\n        /* \"#utility.yul\":4128:4131   */\n      0x0100\n        /* \"#utility.yul\":4117:4126   */\n      dup4\n        /* \"#utility.yul\":4113:4132   */\n      add\n        /* \"#utility.yul\":4104:4110   */\n      dup5\n        /* \"#utility.yul\":4060:4133   */\n      tag_71\n      jump\t// in\n    tag_170:\n        /* \"#utility.yul\":2862:4140   */\n      swap11\n      swap10\n      pop\n      pop\n      pop\n      pop\n      pop\n      pop\n      pop\n      pop\n      pop\n      pop\n      jump\t// out\n        /* \"#utility.yul\":4146:4263   */\n    tag_87:\n        /* \"#utility.yul\":4255:4256   */\n      0x00\n        /* \"#utility.yul\":4252:4253   */\n      dup1\n        /* \"#utility.yul\":4245:4257   */\n      revert\n        /* \"#utility.yul\":4269:4386   */\n    tag_88:\n        /* \"#utility.yul\":4378:4379   */\n      0x00\n        /* \"#utility.yul\":4375:4376   */\n      dup1\n        /* \"#utility.yul\":4368:4380   */\n      revert\n        /* \"#utility.yul\":4392:4572   */\n    tag_89:\n        /* \"#utility.yul\":4440:4517   */\n      0x4e487b7100000000000000000000000000000000000000000000000000000000\n        /* \"#utility.yul\":4437:4438   */\n      0x00\n        /* \"#utility.yul\":4430:4518   */\n      mstore\n        /* \"#utility.yul\":4537:4541   */\n      0x41\n        /* \"#utility.yul\":4534:4535   */\n      0x04\n        /* \"#utility.yul\":4527:4542   */\n      mstore\n        /* \"#utility.yul\":4561:4565   */\n      0x24\n        /* \"#utility.yul\":4558:4559   */\n      0x00\n        /* \"#utility.yul\":4551:4566   */\n      revert\n        /* \"#utility.yul\":4578:4859   */\n    tag_90:\n        /* \"#utility.yul\":4661:4688   */\n      tag_175\n        /* \"#utility.yul\":4683:4687   */\n      dup3\n        /* \"#utility.yul\":4661:4688   */\n      tag_83\n      jump\t// in\n    tag_175:\n        /* \"#utility.yul\":4653:4659   */\n      dup2\n        /* \"#utility.yul\":4649:4689   */\n      add\n        /* \"#utility.yul\":4791:4797   */\n      dup2\n        /* \"#utility.yul\":4779:4789   */\n      dup2\n        /* \"#utility.yul\":4776:4798   */\n      lt\n        /* \"#utility.yul\":4755:4773   */\n      0xffffffffffffffff\n        /* \"#utility.yul\":4743:4753   */\n      dup3\n        /* \"#utility.yul\":4740:4774   */\n      gt\n        /* \"#utility.yul\":4737:4799   */\n      or\n        /* \"#utility.yul\":4734:4822   */\n      iszero\n      tag_176\n      jumpi\n        /* \"#utility.yul\":4802:4820   */\n      tag_177\n      tag_89\n      jump\t// in\n    tag_177:\n        /* \"#utility.yul\":4734:4822   */\n    tag_176:\n        /* \"#utility.yul\":4842:4852   */\n      dup1\n        /* \"#utility.yul\":4838:4840   */\n      0x40\n        /* \"#utility.yul\":4831:4853   */\n      mstore\n        /* \"#utility.yul\":4621:4859   */\n      pop\n        /* \"#utility.yul\":4578:4859   */\n      pop\n      pop\n      jump\t// out\n        /* \"#utility.yul\":4865:4994   */\n    tag_91:\n        /* \"#utility.yul\":4899:4905   */\n      0x00\n        /* \"#utility.yul\":4926:4946   */\n      tag_179\n      tag_72\n      jump\t// in\n    tag_179:\n        /* \"#utility.yul\":4916:4946   */\n      swap1\n      pop\n        /* \"#utility.yul\":4955:4988   */\n      tag_180\n        /* \"#utility.yul\":4983:4987   */\n      dup3\n        /* \"#utility.yul\":4975:4981   */\n      dup3\n        /* \"#utility.yul\":4955:4988   */\n      tag_90\n      jump\t// in\n    tag_180:\n        /* \"#utility.yul\":4865:4994   */\n      swap2\n      swap1\n      pop\n      jump\t// out\n        /* \"#utility.yul\":5000:5308   */\n    tag_92:\n        /* \"#utility.yul\":5062:5066   */\n      0x00\n        /* \"#utility.yul\":5152:5170   */\n      0xffffffffffffffff\n        /* \"#utility.yul\":5144:5150   */\n      dup3\n        /* \"#utility.yul\":5141:5171   */\n      gt\n        /* \"#utility.yul\":5138:5194   */\n      iszero\n      tag_182\n      jumpi\n        /* \"#utility.yul\":5174:5192   */\n      tag_183\n      tag_89\n      jump\t// in\n    tag_183:\n        /* \"#utility.yul\":5138:5194   */\n    tag_182:\n        /* \"#utility.yul\":5212:5241   */\n      tag_184\n        /* \"#utility.yul\":5234:5240   */\n      dup3\n        /* \"#utility.yul\":5212:5241   */\n      tag_83\n      jump\t// in\n    tag_184:\n        /* \"#utility.yul\":5204:5241   */\n      swap1\n      pop\n        /* \"#utility.yul\":5296:5300   */\n      0x20\n        /* \"#utility.yul\":5290:5294   */\n      dup2\n        /* \"#utility.yul\":5286:5301   */\n      add\n        /* \"#utility.yul\":5278:5301   */\n      swap1\n      pop\n        /* \"#utility.yul\":5000:5308   */\n      swap2\n      swap1\n      pop\n      jump\t// out\n        /* \"#utility.yul\":5314:5462   */\n    tag_93:\n        /* \"#utility.yul\":5412:5418   */\n      dup3\n        /* \"#utility.yul\":5407:5410   */\n      dup2\n        /* \"#utility.yul\":5402:5405   */\n      dup4\n        /* \"#utility.yul\":5389:5419   */\n      calldatacopy\n        /* \"#utility.yul\":5453:5454   */\n      0x00\n        /* \"#utility.yul\":5444:5450   */\n      dup4\n        /* \"#utility.yul\":5439:5442   */\n      dup4\n        /* \"#utility.yul\":5435:5451   */\n      add\n        /* \"#utility.yul\":5428:5455   */\n      mstore\n        /* \"#utility.yul\":5314:5462   */\n      pop\n      pop\n      pop\n      jump\t// out\n        /* \"#utility.yul\":5468:5893   */\n    tag_94:\n        /* \"#utility.yul\":5546:5551   */\n      0x00\n        /* \"#utility.yul\":5571:5637   */\n      tag_187\n        /* \"#utility.yul\":5587:5636   */\n      tag_188\n        /* \"#utility.yul\":5629:5635   */\n      dup5\n        /* \"#utility.yul\":5587:5636   */\n      tag_92\n      jump\t// in\n    tag_188:\n        /* \"#utility.yul\":5571:5637   */\n      tag_91\n      jump\t// in\n    tag_187:\n        /* \"#utility.yul\":5562:5637   */\n      swap1\n      pop\n        /* \"#utility.yul\":5660:5666   */\n      dup3\n        /* \"#utility.yul\":5653:5658   */\n      dup2\n        /* \"#utility.yul\":5646:5667   */\n      mstore\n        /* \"#utility.yul\":5698:5702   */\n      0x20\n        /* \"#utility.yul\":5691:5696   */\n      dup2\n        /* \"#utility.yul\":5687:5703   */\n      add\n        /* \"#utility.yul\":5736:5739   */\n      dup5\n        /* \"#utility.yul\":5727:5733   */\n      dup5\n        /* \"#utility.yul\":5722:5725   */\n      dup5\n        /* \"#utility.yul\":5718:5734   */\n      add\n        /* \"#utility.yul\":5715:5740   */\n      gt\n        /* \"#utility.yul\":5712:5824   */\n      iszero\n      tag_189\n      jumpi\n        /* \"#utility.yul\":5743:5822   */\n      tag_190\n      tag_88\n      jump\t// in\n    tag_190:\n        /* \"#utility.yul\":5712:5824   */\n    tag_189:\n        /* \"#utility.yul\":5833:5887   */\n      tag_191\n        /* \"#utility.yul\":5880:5886   */\n      dup5\n        /* \"#utility.yul\":5875:5878   */\n      dup3\n        /* \"#utility.yul\":5870:5873   */\n      dup6\n        /* \"#utility.yul\":5833:5887   */\n      tag_93\n      jump\t// in\n    tag_191:\n        /* \"#utility.yul\":5552:5893   */\n      pop\n        /* \"#utility.yul\":5468:5893   */\n      swap4\n      swap3\n      pop\n      pop\n      pop\n      jump\t// out\n        /* \"#utility.yul\":5913:6253   */\n    tag_95:\n        /* \"#utility.yul\":5969:5974   */\n      0x00\n        /* \"#utility.yul\":6018:6021   */\n      dup3\n        /* \"#utility.yul\":6011:6015   */\n      0x1f\n        /* \"#utility.yul\":6003:6009   */\n      dup4\n        /* \"#utility.yul\":5999:6016   */\n      add\n        /* \"#utility.yul\":5995:6022   */\n      slt\n        /* \"#utility.yul\":5985:6107   */\n      tag_193\n      jumpi\n        /* \"#utility.yul\":6026:6105   */\n      tag_194\n      tag_87\n      jump\t// in\n    tag_194:\n        /* \"#utility.yul\":5985:6107   */\n    tag_193:\n        /* \"#utility.yul\":6143:6149   */\n      dup2\n        /* \"#utility.yul\":6130:6150   */\n      calldataload\n        /* \"#utility.yul\":6168:6247   */\n      tag_195\n        /* \"#utility.yul\":6243:6246   */\n      dup5\n        /* \"#utility.yul\":6235:6241   */\n      dup3\n        /* \"#utility.yul\":6228:6232   */\n      0x20\n        /* \"#utility.yul\":6220:6226   */\n      dup7\n        /* \"#utility.yul\":6216:6233   */\n      add\n        /* \"#utility.yul\":6168:6247   */\n      tag_94\n      jump\t// in\n    tag_195:\n        /* \"#utility.yul\":6159:6247   */\n      swap2\n      pop\n        /* \"#utility.yul\":5975:6253   */\n      pop\n        /* \"#utility.yul\":5913:6253   */\n      swap3\n      swap2\n      pop\n      pop\n      jump\t// out\n        /* \"#utility.yul\":6259:6352   */\n    tag_96:\n        /* \"#utility.yul\":6295:6302   */\n      0x00\n        /* \"#utility.yul\":6335:6345   */\n      0xffffffff\n        /* \"#utility.yul\":6328:6333   */\n      dup3\n        /* \"#utility.yul\":6324:6346   */\n      and\n        /* \"#utility.yul\":6313:6346   */\n      swap1\n      pop\n        /* \"#utility.yul\":6259:6352   */\n      swap2\n      swap1\n      pop\n      jump\t// out\n        /* \"#utility.yul\":6358:6478   */\n    tag_97:\n        /* \"#utility.yul\":6430:6453   */\n      tag_198\n        /* \"#utility.yul\":6447:6452   */\n      dup2\n        /* \"#utility.yul\":6430:6453   */\n      tag_96\n      jump\t// in\n    tag_198:\n        /* \"#utility.yul\":6423:6428   */\n      dup2\n        /* \"#utility.yul\":6420:6454   */\n      eq\n        /* \"#utility.yul\":6410:6472   */\n      tag_199\n      jumpi\n        /* \"#utility.yul\":6468:6469   */\n      0x00\n        /* \"#utility.yul\":6465:6466   */\n      dup1\n        /* \"#utility.yul\":6458:6470   */\n      revert\n        /* \"#utility.yul\":6410:6472   */\n    tag_199:\n        /* \"#utility.yul\":6358:6478   */\n      pop\n      jump\t// out\n        /* \"#utility.yul\":6484:6621   */\n    tag_98:\n        /* \"#utility.yul\":6529:6534   */\n      0x00\n        /* \"#utility.yul\":6567:6573   */\n      dup2\n        /* \"#utility.yul\":6554:6574   */\n      calldataload\n        /* \"#utility.yul\":6545:6574   */\n      swap1\n      pop\n        /* \"#utility.yul\":6583:6615   */\n      tag_201\n        /* \"#utility.yul\":6609:6614   */\n      dup2\n        /* \"#utility.yul\":6583:6615   */\n      tag_97\n      jump\t// in\n    tag_201:\n        /* \"#utility.yul\":6484:6621   */\n      swap3\n      swap2\n      pop\n      pop\n      jump\t// out\n        /* \"#utility.yul\":6627:7604   */\n    tag_19:\n        /* \"#utility.yul\":6723:6729   */\n      0x00\n        /* \"#utility.yul\":6731:6737   */\n      dup1\n        /* \"#utility.yul\":6739:6745   */\n      0x00\n        /* \"#utility.yul\":6788:6790   */\n      0x60\n        /* \"#utility.yul\":6776:6785   */\n      dup5\n        /* \"#utility.yul\":6767:6774   */\n      dup7\n        /* \"#utility.yul\":6763:6786   */\n      sub\n        /* \"#utility.yul\":6759:6791   */\n      slt\n        /* \"#utility.yul\":6756:6875   */\n      iszero\n      tag_203\n      jumpi\n        /* \"#utility.yul\":6794:6873   */\n      tag_204\n      tag_73\n      jump\t// in\n    tag_204:\n        /* \"#utility.yul\":6756:6875   */\n    tag_203:\n        /* \"#utility.yul\":6942:6943   */\n      0x00\n        /* \"#utility.yul\":6931:6940   */\n      dup5\n        /* \"#utility.yul\":6927:6944   */\n      add\n        /* \"#utility.yul\":6914:6945   */\n      calldataload\n        /* \"#utility.yul\":6972:6990   */\n      0xffffffffffffffff\n        /* \"#utility.yul\":6964:6970   */\n      dup2\n        /* \"#utility.yul\":6961:6991   */\n      gt\n        /* \"#utility.yul\":6958:7075   */\n      iszero\n      tag_205\n      jumpi\n        /* \"#utility.yul\":6994:7073   */\n      tag_206\n      tag_74\n      jump\t// in\n    tag_206:\n        /* \"#utility.yul\":6958:7075   */\n    tag_205:\n        /* \"#utility.yul\":7099:7162   */\n      tag_207\n        /* \"#utility.yul\":7154:7161   */\n      dup7\n        /* \"#utility.yul\":7145:7151   */\n      dup3\n        /* \"#utility.yul\":7134:7143   */\n      dup8\n        /* \"#utility.yul\":7130:7152   */\n      add\n        /* \"#utility.yul\":7099:7162   */\n      tag_95\n      jump\t// in\n    tag_207:\n        /* \"#utility.yul\":7089:7162   */\n      swap4\n      pop\n        /* \"#utility.yul\":6885:7172   */\n      pop\n        /* \"#utility.yul\":7239:7241   */\n      0x20\n        /* \"#utility.yul\":7228:7237   */\n      dup5\n        /* \"#utility.yul\":7224:7242   */\n      add\n        /* \"#utility.yul\":7211:7243   */\n      calldataload\n        /* \"#utility.yul\":7270:7288   */\n      0xffffffffffffffff\n        /* \"#utility.yul\":7262:7268   */\n      dup2\n        /* \"#utility.yul\":7259:7289   */\n      gt\n        /* \"#utility.yul\":7256:7373   */\n      iszero\n      tag_208\n      jumpi\n        /* \"#utility.yul\":7292:7371   */\n      tag_209\n      tag_74\n      jump\t// in\n    tag_209:\n        /* \"#utility.yul\":7256:7373   */\n    tag_208:\n        /* \"#utility.yul\":7397:7460   */\n      tag_210\n        /* \"#utility.yul\":7452:7459   */\n      dup7\n        /* \"#utility.yul\":7443:7449   */\n      dup3\n        /* \"#utility.yul\":7432:7441   */\n      dup8\n        /* \"#utility.yul\":7428:7450   */\n      add\n        /* \"#utility.yul\":7397:7460   */\n      tag_95\n      jump\t// in\n    tag_210:\n        /* \"#utility.yul\":7387:7460   */\n      swap3\n      pop\n        /* \"#utility.yul\":7182:7470   */\n      pop\n        /* \"#utility.yul\":7509:7511   */\n      0x40\n        /* \"#utility.yul\":7535:7587   */\n      tag_211\n        /* \"#utility.yul\":7579:7586   */\n      dup7\n        /* \"#utility.yul\":7570:7576   */\n      dup3\n        /* \"#utility.yul\":7559:7568   */\n      dup8\n        /* \"#utility.yul\":7555:7577   */\n      add\n        /* \"#utility.yul\":7535:7587   */\n      tag_98\n      jump\t// in\n    tag_211:\n        /* \"#utility.yul\":7525:7587   */\n      swap2\n      pop\n        /* \"#utility.yul\":7480:7597   */\n      pop\n        /* \"#utility.yul\":6627:7604   */\n      swap3\n      pop\n      swap3\n      pop\n      swap3\n      jump\t// out\n        /* \"#utility.yul\":7610:7716   */\n    tag_99:\n        /* \"#utility.yul\":7690:7691   */\n      0x02\n        /* \"#utility.yul\":7683:7688   */\n      dup2\n        /* \"#utility.yul\":7680:7692   */\n      lt\n        /* \"#utility.yul\":7670:7710   */\n      tag_213\n      jumpi\n        /* \"#utility.yul\":7706:7707   */\n      0x00\n        /* \"#utility.yul\":7703:7704   */\n      dup1\n        /* \"#utility.yul\":7696:7708   */\n      revert\n        /* \"#utility.yul\":7670:7710   */\n    tag_213:\n        /* \"#utility.yul\":7610:7716   */\n      pop\n      jump\t// out\n        /* \"#utility.yul\":7722:7875   */\n    tag_100:\n        /* \"#utility.yul\":7775:7780   */\n      0x00\n        /* \"#utility.yul\":7813:7819   */\n      dup2\n        /* \"#utility.yul\":7800:7820   */\n      calldataload\n        /* \"#utility.yul\":7791:7820   */\n      swap1\n      pop\n        /* \"#utility.yul\":7829:7869   */\n      tag_215\n        /* \"#utility.yul\":7863:7868   */\n      dup2\n        /* \"#utility.yul\":7829:7869   */\n      tag_99\n      jump\t// in\n    tag_215:\n        /* \"#utility.yul\":7722:7875   */\n      swap3\n      swap2\n      pop\n      pop\n      jump\t// out\n        /* \"#utility.yul\":7881:8369   */\n    tag_24:\n        /* \"#utility.yul\":7956:7962   */\n      0x00\n        /* \"#utility.yul\":7964:7970   */\n      dup1\n        /* \"#utility.yul\":8013:8015   */\n      0x40\n        /* \"#utility.yul\":8001:8010   */\n      dup4\n        /* \"#utility.yul\":7992:7999   */\n      dup6\n        /* \"#utility.yul\":7988:8011   */\n      sub\n        /* \"#utility.yul\":7984:8016   */\n      slt\n        /* \"#utility.yul\":7981:8100   */\n      iszero\n      tag_217\n      jumpi\n        /* \"#utility.yul\":8019:8098   */\n      tag_218\n      tag_73\n      jump\t// in\n    tag_218:\n        /* \"#utility.yul\":7981:8100   */\n    tag_217:\n        /* \"#utility.yul\":8139:8140   */\n      0x00\n        /* \"#utility.yul\":8164:8217   */\n      tag_219\n        /* \"#utility.yul\":8209:8216   */\n      dup6\n        /* \"#utility.yul\":8200:8206   */\n      dup3\n        /* \"#utility.yul\":8189:8198   */\n      dup7\n        /* \"#utility.yul\":8185:8207   */\n      add\n        /* \"#utility.yul\":8164:8217   */\n      tag_76\n      jump\t// in\n    tag_219:\n        /* \"#utility.yul\":8154:8217   */\n      swap3\n      pop\n        /* \"#utility.yul\":8110:8227   */\n      pop\n        /* \"#utility.yul\":8266:8268   */\n      0x20\n        /* \"#utility.yul\":8292:8352   */\n      tag_220\n        /* \"#utility.yul\":8344:8351   */\n      dup6\n        /* \"#utility.yul\":8335:8341   */\n      dup3\n        /* \"#utility.yul\":8324:8333   */\n      dup7\n        /* \"#utility.yul\":8320:8342   */\n      add\n        /* \"#utility.yul\":8292:8352   */\n      tag_100\n      jump\t// in\n    tag_220:\n        /* \"#utility.yul\":8282:8352   */\n      swap2\n      pop\n        /* \"#utility.yul\":8237:8362   */\n      pop\n        /* \"#utility.yul\":7881:8369   */\n      swap3\n      pop\n      swap3\n      swap1\n      pop\n      jump\t// out\n        /* \"#utility.yul\":8375:8555   */\n    tag_101:\n        /* \"#utility.yul\":8423:8500   */\n      0x4e487b7100000000000000000000000000000000000000000000000000000000\n        /* \"#utility.yul\":8420:8421   */\n      0x00\n        /* \"#utility.yul\":8413:8501   */\n      mstore\n        /* \"#utility.yul\":8520:8524   */\n      0x22\n        /* \"#utility.yul\":8517:8518   */\n      0x04\n        /* \"#utility.yul\":8510:8525   */\n      mstore\n        /* \"#utility.yul\":8544:8548   */\n      0x24\n        /* \"#utility.yul\":8541:8542   */\n      0x00\n        /* \"#utility.yul\":8534:8549   */\n      revert\n        /* \"#utility.yul\":8561:8881   */\n    tag_27:\n        /* \"#utility.yul\":8605:8611   */\n      0x00\n        /* \"#utility.yul\":8642:8643   */\n      0x02\n        /* \"#utility.yul\":8636:8640   */\n      dup3\n        /* \"#utility.yul\":8632:8644   */\n      div\n        /* \"#utility.yul\":8622:8644   */\n      swap1\n      pop\n        /* \"#utility.yul\":8689:8690   */\n      0x01\n        /* \"#utility.yul\":8683:8687   */\n      dup3\n        /* \"#utility.yul\":8679:8691   */\n      and\n        /* \"#utility.yul\":8710:8728   */\n      dup1\n        /* \"#utility.yul\":8700:8781   */\n      tag_223\n      jumpi\n        /* \"#utility.yul\":8766:8770   */\n      0x7f\n        /* \"#utility.yul\":8758:8764   */\n      dup3\n        /* \"#utility.yul\":8754:8771   */\n      and\n        /* \"#utility.yul\":8744:8771   */\n      swap2\n      pop\n        /* \"#utility.yul\":8700:8781   */\n    tag_223:\n        /* \"#utility.yul\":8828:8830   */\n      0x20\n        /* \"#utility.yul\":8820:8826   */\n      dup3\n        /* \"#utility.yul\":8817:8831   */\n      lt\n        /* \"#utility.yul\":8797:8815   */\n      dup2\n        /* \"#utility.yul\":8794:8832   */\n      sub\n        /* \"#utility.yul\":8791:8875   */\n      tag_224\n      jumpi\n        /* \"#utility.yul\":8847:8865   */\n      tag_225\n      tag_101\n      jump\t// in\n    tag_225:\n        /* \"#utility.yul\":8791:8875   */\n    tag_224:\n        /* \"#utility.yul\":8612:8881   */\n      pop\n        /* \"#utility.yul\":8561:8881   */\n      swap2\n      swap1\n      pop\n      jump\t// out\n        /* \"#utility.yul\":8887:9028   */\n    tag_102:\n        /* \"#utility.yul\":8936:8940   */\n      0x00\n        /* \"#utility.yul\":8959:8962   */\n      dup2\n        /* \"#utility.yul\":8951:8962   */\n      swap1\n      pop\n        /* \"#utility.yul\":8982:8985   */\n      dup2\n        /* \"#utility.yul\":8979:8980   */\n      0x00\n        /* \"#utility.yul\":8972:8986   */\n      mstore\n        /* \"#utility.yul\":9016:9020   */\n      0x20\n        /* \"#utility.yul\":9013:9014   */\n      0x00\n        /* \"#utility.yul\":9003:9021   */\n      keccak256\n        /* \"#utility.yul\":8995:9021   */\n      swap1\n      pop\n        /* \"#utility.yul\":8887:9028   */\n      swap2\n      swap1\n      pop\n      jump\t// out\n        /* \"#utility.yul\":9034:9127   */\n    tag_103:\n        /* \"#utility.yul\":9071:9077   */\n      0x00\n        /* \"#utility.yul\":9118:9120   */\n      0x20\n        /* \"#utility.yul\":9113:9115   */\n      0x1f\n        /* \"#utility.yul\":9106:9111   */\n      dup4\n        /* \"#utility.yul\":9102:9116   */\n      add\n        /* \"#utility.yul\":9098:9121   */\n      div\n        /* \"#utility.yul\":9088:9121   */\n      swap1\n      pop\n        /* \"#utility.yul\":9034:9127   */\n      swap2\n      swap1\n      pop\n      jump\t// out\n        /* \"#utility.yul\":9133:9240   */\n    tag_104:\n        /* \"#utility.yul\":9177:9185   */\n      0x00\n        /* \"#utility.yul\":9227:9232   */\n      dup3\n        /* \"#utility.yul\":9221:9225   */\n      dup3\n        /* \"#utility.yul\":9217:9233   */\n      shl\n        /* \"#utility.yul\":9196:9233   */\n      swap1\n      pop\n        /* \"#utility.yul\":9133:9240   */\n      swap3\n      swap2\n      pop\n      pop\n      jump\t// out\n        /* \"#utility.yul\":9246:9639   */\n    tag_105:\n        /* \"#utility.yul\":9315:9321   */\n      0x00\n        /* \"#utility.yul\":9365:9366   */\n      0x08\n        /* \"#utility.yul\":9353:9363   */\n      dup4\n        /* \"#utility.yul\":9349:9367   */\n      mul\n        /* \"#utility.yul\":9388:9485   */\n      tag_230\n        /* \"#utility.yul\":9418:9484   */\n      0xffffffffffffffffffffffffffffffffffffffffffffffffffffffffffffffff\n        /* \"#utility.yul\":9407:9416   */\n      dup3\n        /* \"#utility.yul\":9388:9485   */\n      tag_104\n      jump\t// in\n    tag_230:\n        /* \"#utility.yul\":9506:9545   */\n      tag_231\n        /* \"#utility.yul\":9536:9544   */\n      dup7\n        /* \"#utility.yul\":9525:9534   */\n      dup4\n        /* \"#utility.yul\":9506:9545   */\n      tag_104\n      jump\t// in\n    tag_231:\n        /* \"#utility.yul\":9494:9545   */\n      swap6\n      pop\n        /* \"#utility.yul\":9578:9582   */\n      dup1\n        /* \"#utility.yul\":9574:9583   */\n      not\n        /* \"#utility.yul\":9567:9572   */\n      dup5\n        /* \"#utility.yul\":9563:9584   */\n      and\n        /* \"#utility.yul\":9554:9584   */\n      swap4\n      pop\n        /* \"#utility.yul\":9627:9631   */\n      dup1\n        /* \"#utility.yul\":9617:9625   */\n      dup7\n        /* \"#utility.yul\":9613:9632   */\n      and\n        /* \"#utility.yul\":9606:9611   */\n      dup5\n        /* \"#utility.yul\":9603:9633   */\n      or\n        /* \"#utility.yul\":9593:9633   */\n      swap3\n      pop\n        /* \"#utility.yul\":9322:9639   */\n      pop\n      pop\n        /* \"#utility.yul\":9246:9639   */\n      swap4\n      swap3\n      pop\n      pop\n      pop\n      jump\t// out\n        /* \"#utility.yul\":9645:9705   */\n    tag_106:\n        /* \"#utility.yul\":9673:9676   */\n      0x00\n        /* \"#utility.yul\":9694:9699   */\n      dup2\n        /* \"#utility.yul\":9687:9699   */\n      swap1\n      pop\n        /* \"#utility.yul\":9645:9705   */\n      swap2\n      swap1\n      pop\n      jump\t// out\n        /* \"#utility.yul\":9711:9853   */\n    tag_107:\n        /* \"#utility.yul\":9761:9770   */\n      0x00\n        /* \"#utility.yul\":9794:9847   */\n      tag_234\n        /* \"#utility.yul\":9812:9846   */\n      tag_235\n        /* \"#utility.yul\":9821:9845   */\n      tag_236\n        /* \"#utility.yul\":9839:9844   */\n      dup5\n        /* \"#utility.yul\":9821:9845   */\n      tag_70\n      jump\t// in\n    tag_236:\n        /* \"#utility.yul\":9812:9846   */\n      tag_106\n      jump\t// in\n    tag_235:\n        /* \"#utility.yul\":9794:9847   */\n      tag_70\n      jump\t// in\n    tag_234:\n        /* \"#utility.yul\":9781:9847   */\n      swap1\n      pop\n        /* \"#utility.yul\":9711:9853   */\n      swap2\n      swap1\n      pop\n      jump\t// out\n        /* \"#utility.yul\":9859:9934   */\n    tag_108:\n        /* \"#utility.yul\":9902:9905   */\n      0x00\n        /* \"#utility.yul\":9923:9928   */\n      dup2\n        /* \"#utility.yul\":9916:9928   */\n      swap1\n      pop\n        /* \"#utility.yul\":9859:9934   */\n      swap2\n      swap1\n      pop\n      jump\t// out\n        /* \"#utility.yul\":9940:10209   */\n    tag_109:\n        /* \"#utility.yul\":10050:10089   */\n      tag_239\n        /* \"#utility.yul\":10081:10088   */\n      dup4\n        /* \"#utility.yul\":10050:10089   */\n      tag_107\n      jump\t// in\n    tag_239:\n        /* \"#utility.yul\":10111:10202   */\n      tag_240\n        /* \"#utility.yul\":10160:10201   */\n      tag_241\n        /* \"#utility.yul\":10184:10200   */\n      dup3\n        /* \"#utility.yul\":10160:10201   */\n      tag_108\n      jump\t// in\n    tag_241:\n        /* \"#utility.yul\":10152:10158   */\n      dup5\n        /* \"#utility.yul\":10145:10149   */\n      dup5\n        /* \"#utility.yul\":10139:10150   */\n      sload\n        /* \"#utility.yul\":10111:10202   */\n      tag_105\n      jump\t// in\n    tag_240:\n        /* \"#utility.yul\":10105:10109   */\n      dup3\n        /* \"#utility.yul\":10098:10203   */\n      sstore\n        /* \"#utility.yul\":10016:10209   */\n      pop\n        /* \"#utility.yul\":9940:10209   */\n      pop\n      pop\n      pop\n      jump\t// out\n        /* \"#utility.yul\":10215:10288   */\n    tag_110:\n        /* \"#utility.yul\":10260:10263   */\n      0x00\n        /* \"#utility.yul\":10215:10288   */\n      swap1\n      jump\t// out\n        /* \"#utility.yul\":10294:10483   */\n    tag_111:\n        /* \"#utility.yul\":10371:10403   */\n      tag_244\n      tag_110\n      jump\t// in\n    tag_244:\n        /* \"#utility.yul\":10412:10477   */\n      tag_245\n        /* \"#utility.yul\":10470:10476   */\n      dup2\n        /* \"#utility.yul\":10462:10468   */\n      dup5\n        /* \"#utility.yul\":10456:10460   */\n      dup5\n        /* \"#utility.yul\":10412:10477   */\n      tag_109\n      jump\t// in\n    tag_245:\n        /* \"#utility.yul\":10347:10483   */\n      pop\n        /* \"#utility.yul\":10294:10483   */\n      pop\n      pop\n      jump\t// out\n        /* \"#utility.yul\":10489:10675   */\n    tag_112:\n        /* \"#utility.yul\":10549:10669   */\n    tag_247:\n        /* \"#utility.yul\":10566:10569   */\n      dup2\n        /* \"#utility.yul\":10559:10564   */\n      dup2\n        /* \"#utility.yul\":10556:10570   */\n      lt\n        /* \"#utility.yul\":10549:10669   */\n      iszero\n      tag_249\n      jumpi\n        /* \"#utility.yul\":10620:10659   */\n      tag_250\n        /* \"#utility.yul\":10657:10658   */\n      0x00\n        /* \"#utility.yul\":10650:10655   */\n      dup3\n        /* \"#utility.yul\":10620:10659   */\n      tag_111\n      jump\t// in\n    tag_250:\n        /* \"#utility.yul\":10593:10594   */\n      0x01\n        /* \"#utility.yul\":10586:10591   */\n      dup2\n        /* \"#utility.yul\":10582:10595   */\n      add\n        /* \"#utility.yul\":10573:10595   */\n      swap1\n      pop\n        /* \"#utility.yul\":10549:10669   */\n      jump(tag_247)\n    tag_249:\n        /* \"#utility.yul\":10489:10675   */\n      pop\n      pop\n      jump\t// out\n        /* \"#utility.yul\":10681:11224   */\n    tag_113:\n        /* \"#utility.yul\":10782:10784   */\n      0x1f\n        /* \"#utility.yul\":10777:10780   */\n      dup3\n        /* \"#utility.yul\":10774:10785   */\n      gt\n        /* \"#utility.yul\":10771:11217   */\n      iszero\n      tag_252\n      jumpi\n        /* \"#utility.yul\":10816:10854   */\n      tag_253\n        /* \"#utility.yul\":10848:10853   */\n      dup2\n        /* \"#utility.yul\":10816:10854   */\n      tag_102\n      jump\t// in\n    tag_253:\n        /* \"#utility.yul\":10900:10929   */\n      tag_254\n        /* \"#utility.yul\":10918:10928   */\n      dup5\n        /* \"#utility.yul\":10900:10929   */\n      tag_103\n      jump\t// in\n    tag_254:\n        /* \"#utility.yul\":10890:10898   */\n      dup2\n        /* \"#utility.yul\":10886:10930   */\n      add\n        /* \"#utility.yul\":11083:11085   */\n      0x20\n        /* \"#utility.yul\":11071:11081   */\n      dup6\n        /* \"#utility.yul\":11068:11086   */\n      lt\n        /* \"#utility.yul\":11065:11114   */\n      iszero\n      tag_255\n      jumpi\n        /* \"#utility.yul\":11104:11112   */\n      dup2\n        /* \"#utility.yul\":11089:11112   */\n      swap1\n      pop\n        /* \"#utility.yul\":11065:11114   */\n    tag_255:\n        /* \"#utility.yul\":11127:11207   */\n      tag_256\n        /* \"#utility.yul\":11183:11205   */\n      tag_257\n        /* \"#utility.yul\":11201:11204   */\n      dup6\n        /* \"#utility.yul\":11183:11205   */\n      tag_103\n      jump\t// in\n    tag_257:\n        /* \"#utility.yul\":11173:11181   */\n      dup4\n        /* \"#utility.yul\":11169:11206   */\n      add\n        /* \"#utility.yul\":11156:11167   */\n      dup3\n        /* \"#utility.yul\":11127:11207   */\n      tag_112\n      jump\t// in\n    tag_256:\n        /* \"#utility.yul\":10786:11217   */\n      pop\n      pop\n        /* \"#utility.yul\":10771:11217   */\n    tag_252:\n        /* \"#utility.yul\":10681:11224   */\n      pop\n      pop\n      pop\n      jump\t// out\n        /* \"#utility.yul\":11230:11347   */\n    tag_114:\n        /* \"#utility.yul\":11284:11292   */\n      0x00\n        /* \"#utility.yul\":11334:11339   */\n      dup3\n        /* \"#utility.yul\":11328:11332   */\n      dup3\n        /* \"#utility.yul\":11324:11340   */\n      shr\n        /* \"#utility.yul\":11303:11340   */\n      swap1\n      pop\n        /* \"#utility.yul\":11230:11347   */\n      swap3\n      swap2\n      pop\n      pop\n      jump\t// out\n        /* \"#utility.yul\":11353:11522   */\n    tag_115:\n        /* \"#utility.yul\":11397:11403   */\n      0x00\n        /* \"#utility.yul\":11430:11481   */\n      tag_260\n        /* \"#utility.yul\":11478:11479   */\n      0x00\n        /* \"#utility.yul\":11474:11480   */\n      not\n        /* \"#utility.yul\":11466:11471   */\n      dup5\n        /* \"#utility.yul\":11463:11464   */\n      0x08\n        /* \"#utility.yul\":11459:11472   */\n      mul\n        /* \"#utility.yul\":11430:11481   */\n      tag_114\n      jump\t// in\n    tag_260:\n        /* \"#utility.yul\":11426:11482   */\n      not\n        /* \"#utility.yul\":11511:11515   */\n      dup1\n        /* \"#utility.yul\":11505:11509   */\n      dup4\n        /* \"#utility.yul\":11501:11516   */\n      and\n        /* \"#utility.yul\":11491:11516   */\n      swap2\n      pop\n        /* \"#utility.yul\":11404:11522   */\n      pop\n        /* \"#utility.yul\":11353:11522   */\n      swap3\n      swap2\n      pop\n      pop\n      jump\t// out\n        /* \"#utility.yul\":11527:11822   */\n    tag_116:\n        /* \"#utility.yul\":11603:11607   */\n      0x00\n        /* \"#utility.yul\":11749:11778   */\n      tag_262\n        /* \"#utility.yul\":11774:11777   */\n      dup4\n        /* \"#utility.yul\":11768:11772   */\n      dup4\n        /* \"#utility.yul\":11749:11778   */\n      tag_115\n      jump\t// in\n    tag_262:\n        /* \"#utility.yul\":11741:11778   */\n      swap2\n      pop\n        /* \"#utility.yul\":11811:11814   */\n      dup3\n        /* \"#utility.yul\":11808:11809   */\n      0x02\n        /* \"#utility.yul\":11804:11815   */\n      mul\n        /* \"#utility.yul\":11798:11802   */\n      dup3\n        /* \"#utility.yul\":11795:11816   */\n      or\n        /* \"#utility.yul\":11787:11816   */\n      swap1\n      pop\n        /* \"#utility.yul\":11527:11822   */\n      swap3\n      swap2\n      pop\n      pop\n      jump\t// out\n        /* \"#utility.yul\":11827:13222   */\n    tag_39:\n        /* \"#utility.yul\":11944:11981   */\n      tag_264\n        /* \"#utility.yul\":11977:11980   */\n      dup3\n        /* \"#utility.yul\":11944:11981   */\n      tag_80\n      jump\t// in\n    tag_264:\n        /* \"#utility.yul\":12046:12064   */\n      0xffffffffffffffff\n        /* \"#utility.yul\":12038:12044   */\n      dup2\n        /* \"#utility.yul\":12035:12065   */\n      gt\n        /* \"#utility.yul\":12032:12088   */\n      iszero\n      tag_265\n      jumpi\n        /* \"#utility.yul\":12068:12086   */\n      tag_266\n      tag_89\n      jump\t// in\n    tag_266:\n        /* \"#utility.yul\":12032:12088   */\n    tag_265:\n        /* \"#utility.yul\":12112:12150   */\n      tag_267\n        /* \"#utility.yul\":12144:12148   */\n      dup3\n        /* \"#utility.yul\":12138:12149   */\n      sload\n        /* \"#utility.yul\":12112:12150   */\n      tag_27\n      jump\t// in\n    tag_267:\n        /* \"#utility.yul\":12197:12264   */\n      tag_268\n        /* \"#utility.yul\":12257:12263   */\n      dup3\n        /* \"#utility.yul\":12249:12255   */\n      dup3\n        /* \"#utility.yul\":12243:12247   */\n      dup6\n        /* \"#utility.yul\":12197:12264   */\n      tag_113\n      jump\t// in\n    tag_268:\n        /* \"#utility.yul\":12291:12292   */\n      0x00\n        /* \"#utility.yul\":12315:12319   */\n      0x20\n        /* \"#utility.yul\":12302:12319   */\n      swap1\n      pop\n        /* \"#utility.yul\":12347:12349   */\n      0x1f\n        /* \"#utility.yul\":12339:12345   */\n      dup4\n        /* \"#utility.yul\":12336:12350   */\n      gt\n        /* \"#utility.yul\":12364:12365   */\n      0x01\n        /* \"#utility.yul\":12359:12977   */\n      dup2\n      eq\n      tag_270\n      jumpi\n        /* \"#utility.yul\":13021:13022   */\n      0x00\n        /* \"#utility.yul\":13038:13044   */\n      dup5\n        /* \"#utility.yul\":13035:13112   */\n      iszero\n      tag_271\n      jumpi\n        /* \"#utility.yul\":13087:13096   */\n      dup3\n        /* \"#utility.yul\":13082:13085   */\n      dup8\n        /* \"#utility.yul\":13078:13097   */\n      add\n        /* \"#utility.yul\":13072:13098   */\n      mload\n        /* \"#utility.yul\":13063:13098   */\n      swap1\n      pop\n        /* \"#utility.yul\":13035:13112   */\n    tag_271:\n        /* \"#utility.yul\":13138:13205   */\n      tag_272\n        /* \"#utility.yul\":13198:13204   */\n      dup6\n        /* \"#utility.yul\":13191:13196   */\n      dup3\n        /* \"#utility.yul\":13138:13205   */\n      tag_116\n      jump\t// in\n    tag_272:\n        /* \"#utility.yul\":13132:13136   */\n      dup7\n        /* \"#utility.yul\":13125:13206   */\n      sstore\n        /* \"#utility.yul\":12994:13216   */\n      pop\n        /* \"#utility.yul\":12329:13216   */\n      jump(tag_269)\n        /* \"#utility.yul\":12359:12977   */\n    tag_270:\n        /* \"#utility.yul\":12411:12415   */\n      0x1f\n        /* \"#utility.yul\":12407:12416   */\n      not\n        /* \"#utility.yul\":12399:12405   */\n      dup5\n        /* \"#utility.yul\":12395:12417   */\n      and\n        /* \"#utility.yul\":12445:12482   */\n      tag_273\n        /* \"#utility.yul\":12477:12481   */\n      dup7\n        /* \"#utility.yul\":12445:12482   */\n      tag_102\n      jump\t// in\n    tag_273:\n        /* \"#utility.yul\":12504:12505   */\n      0x00\n        /* \"#utility.yul\":12518:12726   */\n    tag_274:\n        /* \"#utility.yul\":12532:12539   */\n      dup3\n        /* \"#utility.yul\":12529:12530   */\n      dup2\n        /* \"#utility.yul\":12526:12540   */\n      lt\n        /* \"#utility.yul\":12518:12726   */\n      iszero\n      tag_276\n      jumpi\n        /* \"#utility.yul\":12611:12620   */\n      dup5\n        /* \"#utility.yul\":12606:12609   */\n      dup10\n        /* \"#utility.yul\":12602:12621   */\n      add\n        /* \"#utility.yul\":12596:12622   */\n      mload\n        /* \"#utility.yul\":12588:12594   */\n      dup3\n        /* \"#utility.yul\":12581:12623   */\n      sstore\n        /* \"#utility.yul\":12662:12663   */\n      0x01\n        /* \"#utility.yul\":12654:12660   */\n      dup3\n        /* \"#utility.yul\":12650:12664   */\n      add\n        /* \"#utility.yul\":12640:12664   */\n      swap2\n      pop\n        /* \"#utility.yul\":12709:12711   */\n      0x20\n        /* \"#utility.yul\":12698:12707   */\n      dup6\n        /* \"#utility.yul\":12694:12712   */\n      add\n        /* \"#utility.yul\":12681:12712   */\n      swap5\n      pop\n        /* \"#utility.yul\":12555:12559   */\n      0x20\n        /* \"#utility.yul\":12552:12553   */\n      dup2\n        /* \"#utility.yul\":12548:12560   */\n      add\n        /* \"#utility.yul\":12543:12560   */\n      swap1\n      pop\n        /* \"#utility.yul\":12518:12726   */\n      jump(tag_274)\n    tag_276:\n        /* \"#utility.yul\":12754:12760   */\n      dup7\n        /* \"#utility.yul\":12745:12752   */\n      dup4\n        /* \"#utility.yul\":12742:12761   */\n      lt\n        /* \"#utility.yul\":12739:12918   */\n      iszero\n      tag_277\n      jumpi\n        /* \"#utility.yul\":12812:12821   */\n      dup5\n        /* \"#utility.yul\":12807:12810   */\n      dup10\n        /* \"#utility.yul\":12803:12822   */\n      add\n        /* \"#utility.yul\":12797:12823   */\n      mload\n        /* \"#utility.yul\":12855:12903   */\n      tag_278\n        /* \"#utility.yul\":12897:12901   */\n      0x1f\n        /* \"#utility.yul\":12889:12895   */\n      dup10\n        /* \"#utility.yul\":12885:12902   */\n      and\n        /* \"#utility.yul\":12874:12883   */\n      dup3\n        /* \"#utility.yul\":12855:12903   */\n      tag_115\n      jump\t// in\n    tag_278:\n        /* \"#utility.yul\":12847:12853   */\n      dup4\n        /* \"#utility.yul\":12840:12904   */\n      sstore\n        /* \"#utility.yul\":12762:12918   */\n      pop\n        /* \"#utility.yul\":12739:12918   */\n    tag_277:\n        /* \"#utility.yul\":12964:12965   */\n      0x01\n        /* \"#utility.yul\":12960:12961   */\n      0x02\n        /* \"#utility.yul\":12952:12958   */\n      dup9\n        /* \"#utility.yul\":12948:12962   */\n      mul\n        /* \"#utility.yul\":12944:12966   */\n      add\n        /* \"#utility.yul\":12938:12942   */\n      dup9\n        /* \"#utility.yul\":12931:12967   */\n      sstore\n        /* \"#utility.yul\":12366:12977   */\n      pop\n      pop\n      pop\n        /* \"#utility.yul\":12329:13216   */\n    tag_269:\n      pop\n        /* \"#utility.yul\":11919:13222   */\n      pop\n      pop\n      pop\n        /* \"#utility.yul\":11827:13222   */\n      pop\n      pop\n      jump\t// out\n        /* \"#utility.yul\":13228:13408   */\n    tag_117:\n        /* \"#utility.yul\":13276:13353   */\n      0x4e487b7100000000000000000000000000000000000000000000000000000000\n        /* \"#utility.yul\":13273:13274   */\n      0x00\n        /* \"#utility.yul\":13266:13354   */\n      mstore\n        /* \"#utility.yul\":13373:13377   */\n      0x11\n        /* \"#utility.yul\":13370:13371   */\n      0x04\n        /* \"#utility.yul\":13363:13378   */\n      mstore\n        /* \"#utility.yul\":13397:13401   */\n      0x24\n        /* \"#utility.yul\":13394:13395   */\n      0x00\n        /* \"#utility.yul\":13387:13402   */\n      revert\n        /* \"#utility.yul\":13414:13689   */\n    tag_42:\n        /* \"#utility.yul\":13453:13460   */\n      0x00\n        /* \"#utility.yul\":13476:13495   */\n      tag_281\n        /* \"#utility.yul\":13493:13494   */\n      dup3\n        /* \"#utility.yul\":13476:13495   */\n      tag_96\n      jump\t// in\n    tag_281:\n        /* \"#utility.yul\":13471:13495   */\n      swap2\n      pop\n        /* \"#utility.yul\":13509:13528   */\n      tag_282\n        /* \"#utility.yul\":13526:13527   */\n      dup4\n        /* \"#utility.yul\":13509:13528   */\n      tag_96\n      jump\t// in\n    tag_282:\n        /* \"#utility.yul\":13504:13528   */\n      swap3\n      pop\n        /* \"#utility.yul\":13563:13564   */\n      dup3\n        /* \"#utility.yul\":13560:13561   */\n      dup3\n        /* \"#utility.yul\":13556:13565   */\n      mul\n        /* \"#utility.yul\":13585:13614   */\n      tag_283\n        /* \"#utility.yul\":13602:13613   */\n      dup2\n        /* \"#utility.yul\":13585:13614   */\n      tag_96\n      jump\t// in\n    tag_283:\n        /* \"#utility.yul\":13574:13614   */\n      swap2\n      pop\n        /* \"#utility.yul\":13646:13657   */\n      dup1\n        /* \"#utility.yul\":13637:13644   */\n      dup3\n        /* \"#utility.yul\":13634:13658   */\n      eq\n        /* \"#utility.yul\":13624:13682   */\n      tag_284\n      jumpi\n        /* \"#utility.yul\":13662:13680   */\n      tag_285\n      tag_117\n      jump\t// in\n    tag_285:\n        /* \"#utility.yul\":13624:13682   */\n    tag_284:\n        /* \"#utility.yul\":13461:13689   */\n      pop\n        /* \"#utility.yul\":13414:13689   */\n      swap3\n      swap2\n      pop\n      pop\n      jump\t// out\n        /* \"#utility.yul\":13695:13886   */\n    tag_44:\n        /* \"#utility.yul\":13735:13738   */\n      0x00\n        /* \"#utility.yul\":13754:13774   */\n      tag_287\n        /* \"#utility.yul\":13772:13773   */\n      dup3\n        /* \"#utility.yul\":13754:13774   */\n      tag_70\n      jump\t// in\n    tag_287:\n        /* \"#utility.yul\":13749:13774   */\n      swap2\n      pop\n        /* \"#utility.yul\":13788:13808   */\n      tag_288\n        /* \"#utility.yul\":13806:13807   */\n      dup4\n        /* \"#utility.yul\":13788:13808   */\n      tag_70\n      jump\t// in\n    tag_288:\n        /* \"#utility.yul\":13783:13808   */\n      swap3\n      pop\n        /* \"#utility.yul\":13831:13832   */\n      dup3\n        /* \"#utility.yul\":13828:13829   */\n      dup3\n        /* \"#utility.yul\":13824:13833   */\n      add\n        /* \"#utility.yul\":13817:13833   */\n      swap1\n      pop\n        /* \"#utility.yul\":13852:13855   */\n      dup1\n        /* \"#utility.yul\":13849:13850   */\n      dup3\n        /* \"#utility.yul\":13846:13856   */\n      gt\n        /* \"#utility.yul\":13843:13879   */\n      iszero\n      tag_289\n      jumpi\n        /* \"#utility.yul\":13859:13877   */\n      tag_290\n      tag_117\n      jump\t// in\n    tag_290:\n        /* \"#utility.yul\":13843:13879   */\n    tag_289:\n        /* \"#utility.yul\":13695:13886   */\n      swap3\n      swap2\n      pop\n      pop\n      jump\t// out\n        /* \"#utility.yul\":13892:14125   */\n    tag_46:\n        /* \"#utility.yul\":13931:13934   */\n      0x00\n        /* \"#utility.yul\":13954:13978   */\n      tag_292\n        /* \"#utility.yul\":13972:13977   */\n      dup3\n        /* \"#utility.yul\":13954:13978   */\n      tag_70\n      jump\t// in\n    tag_292:\n        /* \"#utility.yul\":13945:13978   */\n      swap2\n      pop\n        /* \"#utility.yul\":14000:14066   */\n      0xffffffffffffffffffffffffffffffffffffffffffffffffffffffffffffffff\n        /* \"#utility.yul\":13993:13998   */\n      dup3\n        /* \"#utility.yul\":13990:14067   */\n      sub\n        /* \"#utility.yul\":13987:14090   */\n      tag_293\n      jumpi\n        /* \"#utility.yul\":14070:14088   */\n      tag_294\n      tag_117\n      jump\t// in\n    tag_294:\n        /* \"#utility.yul\":13987:14090   */\n    tag_293:\n        /* \"#utility.yul\":14117:14118   */\n      0x01\n        /* \"#utility.yul\":14110:14115   */\n      dup3\n        /* \"#utility.yul\":14106:14119   */\n      add\n        /* \"#utility.yul\":14099:14119   */\n      swap1\n      pop\n        /* \"#utility.yul\":13892:14125   */\n      swap2\n      swap1\n      pop\n      jump\t// out\n        /* \"#utility.yul\":14131:14325   */\n    tag_48:\n        /* \"#utility.yul\":14171:14175   */\n      0x00\n        /* \"#utility.yul\":14191:14211   */\n      tag_296\n        /* \"#utility.yul\":14209:14210   */\n      dup3\n        /* \"#utility.yul\":14191:14211   */\n      tag_70\n      jump\t// in\n    tag_296:\n        /* \"#utility.yul\":14186:14211   */\n      swap2\n      pop\n        /* \"#utility.yul\":14225:14245   */\n      tag_297\n        /* \"#utility.yul\":14243:14244   */\n      dup4\n        /* \"#utility.yul\":14225:14245   */\n      tag_70\n      jump\t// in\n    tag_297:\n        /* \"#utility.yul\":14220:14245   */\n      swap3\n      pop\n        /* \"#utility.yul\":14269:14270   */\n      dup3\n        /* \"#utility.yul\":14266:14267   */\n      dup3\n        /* \"#utility.yul\":14262:14271   */\n      sub\n        /* \"#utility.yul\":14254:14271   */\n      swap1\n      pop\n        /* \"#utility.yul\":14293:14294   */\n      dup2\n        /* \"#utility.yul\":14287:14291   */\n      dup2\n        /* \"#utility.yul\":14284:14295   */\n      gt\n        /* \"#utility.yul\":14281:14318   */\n      iszero\n      tag_298\n      jumpi\n        /* \"#utility.yul\":14298:14316   */\n      tag_299\n      tag_117\n      jump\t// in\n    tag_299:\n        /* \"#utility.yul\":14281:14318   */\n    tag_298:\n        /* \"#utility.yul\":14131:14325   */\n      swap3\n      swap2\n      pop\n      pop\n      jump\t// out\n        /* \"#utility.yul\":14331:14754   */\n    tag_50:\n        /* \"#utility.yul\":14472:14476   */\n      0x00\n        /* \"#utility.yul\":14510:14512   */\n      0x40\n        /* \"#utility.yul\":14499:14508   */\n      dup3\n        /* \"#utility.yul\":14495:14513   */\n      add\n        /* \"#utility.yul\":14487:14513   */\n      swap1\n      pop\n        /* \"#utility.yul\":14559:14568   */\n      dup2\n        /* \"#utility.yul\":14553:14557   */\n      dup2\n        /* \"#utility.yul\":14549:14569   */\n      sub\n        /* \"#utility.yul\":14545:14546   */\n      0x00\n        /* \"#utility.yul\":14534:14543   */\n      dup4\n        /* \"#utility.yul\":14530:14547   */\n      add\n        /* \"#utility.yul\":14523:14570   */\n      mstore\n        /* \"#utility.yul\":14587:14665   */\n      tag_301\n        /* \"#utility.yul\":14660:14664   */\n      dup2\n        /* \"#utility.yul\":14651:14657   */\n      dup6\n        /* \"#utility.yul\":14587:14665   */\n      tag_84\n      jump\t// in\n    tag_301:\n        /* \"#utility.yul\":14579:14665   */\n      swap1\n      pop\n        /* \"#utility.yul\":14675:14747   */\n      tag_302\n        /* \"#utility.yul\":14743:14745   */\n      0x20\n        /* \"#utility.yul\":14732:14741   */\n      dup4\n        /* \"#utility.yul\":14728:14746   */\n      add\n        /* \"#utility.yul\":14719:14725   */\n      dup5\n        /* \"#utility.yul\":14675:14747   */\n      tag_71\n      jump\t// in\n    tag_302:\n        /* \"#utility.yul\":14331:14754   */\n      swap4\n      swap3\n      pop\n      pop\n      pop\n      jump\t// out\n        /* \"#utility.yul\":14760:14937   */\n    tag_118:\n        /* \"#utility.yul\":14900:14929   */\n      0x5468652070726f706f73616c20646f6573206e6f742065786973740000000000\n        /* \"#utility.yul\":14896:14897   */\n      0x00\n        /* \"#utility.yul\":14888:14894   */\n      dup3\n        /* \"#utility.yul\":14884:14898   */\n      add\n        /* \"#utility.yul\":14877:14930   */\n      mstore\n        /* \"#utility.yul\":14760:14937   */\n      pop\n      jump\t// out\n        /* \"#utility.yul\":14943:15309   */\n    tag_119:\n        /* \"#utility.yul\":15085:15088   */\n      0x00\n        /* \"#utility.yul\":15106:15173   */\n      tag_305\n        /* \"#utility.yul\":15170:15172   */\n      0x1b\n        /* \"#utility.yul\":15165:15168   */\n      dup4\n        /* \"#utility.yul\":15106:15173   */\n      tag_81\n      jump\t// in\n    tag_305:\n        /* \"#utility.yul\":15099:15173   */\n      swap2\n      pop\n        /* \"#utility.yul\":15182:15275   */\n      tag_306\n        /* \"#utility.yul\":15271:15274   */\n      dup3\n        /* \"#utility.yul\":15182:15275   */\n      tag_118\n      jump\t// in\n    tag_306:\n        /* \"#utility.yul\":15300:15302   */\n      0x20\n        /* \"#utility.yul\":15295:15298   */\n      dup3\n        /* \"#utility.yul\":15291:15303   */\n      add\n        /* \"#utility.yul\":15284:15303   */\n      swap1\n      pop\n        /* \"#utility.yul\":14943:15309   */\n      swap2\n      swap1\n      pop\n      jump\t// out\n        /* \"#utility.yul\":15315:15734   */\n    tag_55:\n        /* \"#utility.yul\":15481:15485   */\n      0x00\n        /* \"#utility.yul\":15519:15521   */\n      0x20\n        /* \"#utility.yul\":15508:15517   */\n      dup3\n        /* \"#utility.yul\":15504:15522   */\n      add\n        /* \"#utility.yul\":15496:15522   */\n      swap1\n      pop\n        /* \"#utility.yul\":15568:15577   */\n      dup2\n        /* \"#utility.yul\":15562:15566   */\n      dup2\n        /* \"#utility.yul\":15558:15578   */\n      sub\n        /* \"#utility.yul\":15554:15555   */\n      0x00\n        /* \"#utility.yul\":15543:15552   */\n      dup4\n        /* \"#utility.yul\":15539:15556   */\n      add\n        /* \"#utility.yul\":15532:15579   */\n      mstore\n        /* \"#utility.yul\":15596:15727   */\n      tag_308\n        /* \"#utility.yul\":15722:15726   */\n      dup2\n        /* \"#utility.yul\":15596:15727   */\n      tag_119\n      jump\t// in\n    tag_308:\n        /* \"#utility.yul\":15588:15727   */\n      swap1\n      pop\n        /* \"#utility.yul\":15315:15734   */\n      swap2\n      swap1\n      pop\n      jump\t// out\n        /* \"#utility.yul\":15740:15966   */\n    tag_120:\n        /* \"#utility.yul\":15880:15914   */\n      0x596f75206861766520616c726561647920766f746564206f6e20746869732070\n        /* \"#utility.yul\":15876:15877   */\n      0x00\n        /* \"#utility.yul\":15868:15874   */\n      dup3\n        /* \"#utility.yul\":15864:15878   */\n      add\n        /* \"#utility.yul\":15857:15915   */\n      mstore\n        /* \"#utility.yul\":15949:15958   */\n      0x726f706f73616c00000000000000000000000000000000000000000000000000\n        /* \"#utility.yul\":15944:15946   */\n      0x20\n        /* \"#utility.yul\":15936:15942   */\n      dup3\n        /* \"#utility.yul\":15932:15947   */\n      add\n        /* \"#utility.yul\":15925:15959   */\n      mstore\n        /* \"#utility.yul\":15740:15966   */\n      pop\n      jump\t// out\n        /* \"#utility.yul\":15972:16338   */\n    tag_121:\n        /* \"#utility.yul\":16114:16117   */\n      0x00\n        /* \"#utility.yul\":16135:16202   */\n      tag_311\n        /* \"#utility.yul\":16199:16201   */\n      0x27\n        /* \"#utility.yul\":16194:16197   */\n      dup4\n        /* \"#utility.yul\":16135:16202   */\n      tag_81\n      jump\t// in\n    tag_311:\n        /* \"#utility.yul\":16128:16202   */\n      swap2\n      pop\n        /* \"#utility.yul\":16211:16304   */\n      tag_312\n        /* \"#utility.yul\":16300:16303   */\n      dup3\n        /* \"#utility.yul\":16211:16304   */\n      tag_120\n      jump\t// in\n    tag_312:\n        /* \"#utility.yul\":16329:16331   */\n      0x40\n        /* \"#utility.yul\":16324:16327   */\n      dup3\n        /* \"#utility.yul\":16320:16332   */\n      add\n        /* \"#utility.yul\":16313:16332   */\n      swap1\n      pop\n        /* \"#utility.yul\":15972:16338   */\n      swap2\n      swap1\n      pop\n      jump\t// out\n        /* \"#utility.yul\":16344:16763   */\n    tag_58:\n        /* \"#utility.yul\":16510:16514   */\n      0x00\n        /* \"#utility.yul\":16548:16550   */\n      0x20\n        /* \"#utility.yul\":16537:16546   */\n      dup3\n        /* \"#utility.yul\":16533:16551   */\n      add\n        /* \"#utility.yul\":16525:16551   */\n      swap1\n      pop\n        /* \"#utility.yul\":16597:16606   */\n      dup2\n        /* \"#utility.yul\":16591:16595   */\n      dup2\n        /* \"#utility.yul\":16587:16607   */\n      sub\n        /* \"#utility.yul\":16583:16584   */\n      0x00\n        /* \"#utility.yul\":16572:16581   */\n      dup4\n        /* \"#utility.yul\":16568:16585   */\n      add\n        /* \"#utility.yul\":16561:16608   */\n      mstore\n        /* \"#utility.yul\":16625:16756   */\n      tag_314\n        /* \"#utility.yul\":16751:16755   */\n      dup2\n        /* \"#utility.yul\":16625:16756   */\n      tag_121\n      jump\t// in\n    tag_314:\n        /* \"#utility.yul\":16617:16756   */\n      swap1\n      pop\n        /* \"#utility.yul\":16344:16763   */\n      swap2\n      swap1\n      pop\n      jump\t// out\n        /* \"#utility.yul\":16769:16949   */\n    tag_61:\n        /* \"#utility.yul\":16817:16894   */\n      0x4e487b7100000000000000000000000000000000000000000000000000000000\n        /* \"#utility.yul\":16814:16815   */\n      0x00\n        /* \"#utility.yul\":16807:16895   */\n      mstore\n        /* \"#utility.yul\":16914:16918   */\n      0x21\n        /* \"#utility.yul\":16911:16912   */\n      0x04\n        /* \"#utility.yul\":16904:16919   */\n      mstore\n        /* \"#utility.yul\":16938:16942   */\n      0x24\n        /* \"#utility.yul\":16935:16936   */\n      0x00\n        /* \"#utility.yul\":16928:16943   */\n      revert\n        /* \"#utility.yul\":16955:17067   */\n    tag_122:\n        /* \"#utility.yul\":17035:17036   */\n      0x02\n        /* \"#utility.yul\":17028:17033   */\n      dup2\n        /* \"#utility.yul\":17025:17037   */\n      lt\n        /* \"#utility.yul\":17015:17061   */\n      tag_317\n      jumpi\n        /* \"#utility.yul\":17041:17059   */\n      tag_318\n      tag_61\n      jump\t// in\n    tag_318:\n        /* \"#utility.yul\":17015:17061   */\n    tag_317:\n        /* \"#utility.yul\":16955:17067   */\n      pop\n      jump\t// out\n        /* \"#utility.yul\":17073:17198   */\n    tag_123:\n        /* \"#utility.yul\":17117:17124   */\n      0x00\n        /* \"#utility.yul\":17146:17151   */\n      dup2\n        /* \"#utility.yul\":17135:17151   */\n      swap1\n      pop\n        /* \"#utility.yul\":17152:17192   */\n      tag_320\n        /* \"#utility.yul\":17186:17191   */\n      dup3\n        /* \"#utility.yul\":17152:17192   */\n      tag_122\n      jump\t// in\n    tag_320:\n        /* \"#utility.yul\":17073:17198   */\n      swap2\n      swap1\n      pop\n      jump\t// out\n        /* \"#utility.yul\":17204:17329   */\n    tag_124:\n        /* \"#utility.yul\":17259:17268   */\n      0x00\n        /* \"#utility.yul\":17292:17323   */\n      tag_322\n        /* \"#utility.yul\":17317:17322   */\n      dup3\n        /* \"#utility.yul\":17292:17323   */\n      tag_123\n      jump\t// in\n    tag_322:\n        /* \"#utility.yul\":17279:17323   */\n      swap1\n      pop\n        /* \"#utility.yul\":17204:17329   */\n      swap2\n      swap1\n      pop\n      jump\t// out\n        /* \"#utility.yul\":17335:17476   */\n    tag_125:\n        /* \"#utility.yul\":17427:17469   */\n      tag_324\n        /* \"#utility.yul\":17463:17468   */\n      dup2\n        /* \"#utility.yul\":17427:17469   */\n      tag_124\n      jump\t// in\n    tag_324:\n        /* \"#utility.yul\":17422:17425   */\n      dup3\n        /* \"#utility.yul\":17415:17470   */\n      mstore\n        /* \"#utility.yul\":17335:17476   */\n      pop\n      pop\n      jump\t// out\n        /* \"#utility.yul\":17482:17824   */\n    tag_69:\n        /* \"#utility.yul\":17608:17612   */\n      0x00\n        /* \"#utility.yul\":17646:17648   */\n      0x40\n        /* \"#utility.yul\":17635:17644   */\n      dup3\n        /* \"#utility.yul\":17631:17649   */\n      add\n        /* \"#utility.yul\":17623:17649   */\n      swap1\n      pop\n        /* \"#utility.yul\":17659:17735   */\n      tag_326\n        /* \"#utility.yul\":17732:17733   */\n      0x00\n        /* \"#utility.yul\":17721:17730   */\n      dup4\n        /* \"#utility.yul\":17717:17734   */\n      add\n        /* \"#utility.yul\":17708:17714   */\n      dup6\n        /* \"#utility.yul\":17659:17735   */\n      tag_125\n      jump\t// in\n    tag_326:\n        /* \"#utility.yul\":17745:17817   */\n      tag_327\n        /* \"#utility.yul\":17813:17815   */\n      0x20\n        /* \"#utility.yul\":17802:17811   */\n      dup4\n        /* \"#utility.yul\":17798:17816   */\n      add\n        /* \"#utility.yul\":17789:17795   */\n      dup5\n        /* \"#utility.yul\":17745:17817   */\n      tag_71\n      jump\t// in\n    tag_327:\n        /* \"#utility.yul\":17482:17824   */\n      swap4\n      swap3\n      pop\n      pop\n      pop\n      jump\t// out\n\n    auxdata: 0xa264697066735822122098d4b0e59e678f7c220d42107232be1d488a1c9740f00bc7b975415842f008c064736f6c634300081a0033\n}\n",
				"bytecode": {
					"linkReferences": {},
					"object": "60806040525f6001553480156012575f80fd5b50611055806100205f395ff3fe608060405234801561000f575f80fd5b506004361061004a575f3560e01c8063be747c1c1461004e578063d1dbe7d81461006c578063d9bc438a146100a4578063efafb22e146100d4575b5f80fd5b6100566100f0565b6040516100639190610653565b60405180910390f35b610086600480360381019061008191906106a7565b6100f6565b60405161009b9998979695949392919061079b565b60405180910390f35b6100be60048036038101906100b99190610999565b610276565b6040516100cb9190610653565b60405180910390f35b6100ee60048036038101906100e99190610a44565b6103d5565b005b60015481565b5f602052805f5260405f205f91509050805f015f9054906101000a900473ffffffffffffffffffffffffffffffffffffffff169080600101805461013990610aaf565b80601f016020809104026020016040519081016040528092919081815260200182805461016590610aaf565b80156101b05780601f10610187576101008083540402835291602001916101b0565b820191905f5260205f20905b81548152906001019060200180831161019357829003601f168201915b5050505050908060020180546101c590610aaf565b80601f01602080910402602001604051908101604052809291908181526020018280546101f190610aaf565b801561023c5780601f106102135761010080835404028352916020019161023c565b820191905f5260205f20905b81548152906001019060200180831161021f57829003601f168201915b505050505090806003015490806004015f9054906101000a900460ff16908060050154908060060154908060070154908060080154905089565b5f805f8060015481526020019081526020015f20905033815f015f6101000a81548173ffffffffffffffffffffffffffffffffffffffff021916908373ffffffffffffffffffffffffffffffffffffffff1602179055506001548160030181905550848160010190816102e99190610c7c565b505f816004015f6101000a81548160ff021916908315150217905550838160020190816103169190610c7c565b50428160070181905550620151808361032f9190610d78565b63ffffffff16426103409190610db4565b816008018190555060015f81548092919061035a90610de7565b91905055503373ffffffffffffffffffffffffffffffffffffffff16600180546103849190610e2e565b7fb8ec33a39f0af82926e7839f5e5d30bd98d3036bbc2ffb47ccd2550972355e2e87426040516103b5929190610e61565b60405180910390a3600180546103cb9190610e2e565b9150509392505050565b5f805f8481526020019081526020015f2090505f73ffffffffffffffffffffffffffffffffffffffff16815f015f9054906101000a900473ffffffffffffffffffffffffffffffffffffffff1673ffffffffffffffffffffffffffffffffffffffff1603610478576040517f08c379a000000000000000000000000000000000000000000000000000000000815260040161046f90610ed9565b60405180910390fd5b5f151560025f3373ffffffffffffffffffffffffffffffffffffffff1673ffffffffffffffffffffffffffffffffffffffff1681526020019081526020015f205f836003015481526020019081526020015f205f9054906101000a900460ff1615151461051a576040517f08c379a000000000000000000000000000000000000000000000000000000000815260040161051190610f67565b60405180910390fd5b5f600181111561052d5761052c610f85565b5b8260018111156105405761053f610f85565b5b0361056357806005015f81548092919061055990610de7565b919050555061057d565b806006015f81548092919061057790610de7565b91905055505b600160025f3373ffffffffffffffffffffffffffffffffffffffff1673ffffffffffffffffffffffffffffffffffffffff1681526020019081526020015f205f836003015481526020019081526020015f205f6101000a81548160ff0219169083151502179055503373ffffffffffffffffffffffffffffffffffffffff16837f2c429843b755aefd47bd35f951ec584e567e65542f31d255ff570e130d0dd404844260405161062e929190610ff8565b60405180910390a3505050565b5f819050919050565b61064d8161063b565b82525050565b5f6020820190506106665f830184610644565b92915050565b5f604051905090565b5f80fd5b5f80fd5b6106868161063b565b8114610690575f80fd5b50565b5f813590506106a18161067d565b92915050565b5f602082840312156106bc576106bb610675565b5b5f6106c984828501610693565b91505092915050565b5f73ffffffffffffffffffffffffffffffffffffffff82169050919050565b5f6106fb826106d2565b9050919050565b61070b816106f1565b82525050565b5f81519050919050565b5f82825260208201905092915050565b8281835e5f83830152505050565b5f601f19601f8301169050919050565b5f61075382610711565b61075d818561071b565b935061076d81856020860161072b565b61077681610739565b840191505092915050565b5f8115159050919050565b61079581610781565b82525050565b5f610120820190506107af5f83018c610702565b81810360208301526107c1818b610749565b905081810360408301526107d5818a610749565b90506107e46060830189610644565b6107f1608083018861078c565b6107fe60a0830187610644565b61080b60c0830186610644565b61081860e0830185610644565b610826610100830184610644565b9a9950505050505050505050565b5f80fd5b5f80fd5b7f4e487b71000000000000000000000000000000000000000000000000000000005f52604160045260245ffd5b61087282610739565b810181811067ffffffffffffffff821117156108915761089061083c565b5b80604052505050565b5f6108a361066c565b90506108af8282610869565b919050565b5f67ffffffffffffffff8211156108ce576108cd61083c565b5b6108d782610739565b9050602081019050919050565b828183375f83830152505050565b5f6109046108ff846108b4565b61089a565b9050828152602081018484840111156109205761091f610838565b5b61092b8482856108e4565b509392505050565b5f82601f83011261094757610946610834565b5b81356109578482602086016108f2565b91505092915050565b5f63ffffffff82169050919050565b61097881610960565b8114610982575f80fd5b50565b5f813590506109938161096f565b92915050565b5f805f606084860312156109b0576109af610675565b5b5f84013567ffffffffffffffff8111156109cd576109cc610679565b5b6109d986828701610933565b935050602084013567ffffffffffffffff8111156109fa576109f9610679565b5b610a0686828701610933565b9250506040610a1786828701610985565b9150509250925092565b60028110610a2d575f80fd5b50565b5f81359050610a3e81610a21565b92915050565b5f8060408385031215610a5a57610a59610675565b5b5f610a6785828601610693565b9250506020610a7885828601610a30565b9150509250929050565b7f4e487b71000000000000000000000000000000000000000000000000000000005f52602260045260245ffd5b5f6002820490506001821680610ac657607f821691505b602082108103610ad957610ad8610a82565b5b50919050565b5f819050815f5260205f209050919050565b5f6020601f8301049050919050565b5f82821b905092915050565b5f60088302610b3b7fffffffffffffffffffffffffffffffffffffffffffffffffffffffffffffffff82610b00565b610b458683610b00565b95508019841693508086168417925050509392505050565b5f819050919050565b5f610b80610b7b610b768461063b565b610b5d565b61063b565b9050919050565b5f819050919050565b610b9983610b66565b610bad610ba582610b87565b848454610b0c565b825550505050565b5f90565b610bc1610bb5565b610bcc818484610b90565b505050565b5b81811015610bef57610be45f82610bb9565b600181019050610bd2565b5050565b601f821115610c3457610c0581610adf565b610c0e84610af1565b81016020851015610c1d578190505b610c31610c2985610af1565b830182610bd1565b50505b505050565b5f82821c905092915050565b5f610c545f1984600802610c39565b1980831691505092915050565b5f610c6c8383610c45565b9150826002028217905092915050565b610c8582610711565b67ffffffffffffffff811115610c9e57610c9d61083c565b5b610ca88254610aaf565b610cb3828285610bf3565b5f60209050601f831160018114610ce4575f8415610cd2578287015190505b610cdc8582610c61565b865550610d43565b601f198416610cf286610adf565b5f5b82811015610d1957848901518255600182019150602085019450602081019050610cf4565b86831015610d365784890151610d32601f891682610c45565b8355505b6001600288020188555050505b505050505050565b7f4e487b71000000000000000000000000000000000000000000000000000000005f52601160045260245ffd5b5f610d8282610960565b9150610d8d83610960565b9250828202610d9b81610960565b9150808214610dad57610dac610d4b565b5b5092915050565b5f610dbe8261063b565b9150610dc98361063b565b9250828201905080821115610de157610de0610d4b565b5b92915050565b5f610df18261063b565b91507fffffffffffffffffffffffffffffffffffffffffffffffffffffffffffffffff8203610e2357610e22610d4b565b5b600182019050919050565b5f610e388261063b565b9150610e438361063b565b9250828203905081811115610e5b57610e5a610d4b565b5b92915050565b5f6040820190508181035f830152610e798185610749565b9050610e886020830184610644565b9392505050565b7f5468652070726f706f73616c20646f6573206e6f7420657869737400000000005f82015250565b5f610ec3601b8361071b565b9150610ece82610e8f565b602082019050919050565b5f6020820190508181035f830152610ef081610eb7565b9050919050565b7f596f75206861766520616c726561647920766f746564206f6e207468697320705f8201527f726f706f73616c00000000000000000000000000000000000000000000000000602082015250565b5f610f5160278361071b565b9150610f5c82610ef7565b604082019050919050565b5f6020820190508181035f830152610f7e81610f45565b9050919050565b7f4e487b71000000000000000000000000000000000000000000000000000000005f52602160045260245ffd5b60028110610fc357610fc2610f85565b5b50565b5f819050610fd382610fb2565b919050565b5f610fe282610fc6565b9050919050565b610ff281610fd8565b82525050565b5f60408201905061100b5f830185610fe9565b6110186020830184610644565b939250505056fea264697066735822122098d4b0e59e678f7c220d42107232be1d488a1c9740f00bc7b975415842f008c064736f6c634300081a0033",
					"opcodes": "PUSH1 0x80 PUSH1 0x40 MSTORE PUSH0 PUSH1 0x1 SSTORE CALLVALUE DUP1 ISZERO PUSH1 0x12 JUMPI PUSH0 DUP1 REVERT JUMPDEST POP PUSH2 0x1055 DUP1 PUSH2 0x20 PUSH0 CODECOPY PUSH0 RETURN INVALID PUSH1 0x80 PUSH1 0x40 MSTORE CALLVALUE DUP1 ISZERO PUSH2 0xF JUMPI PUSH0 DUP1 REVERT JUMPDEST POP PUSH1 0x4 CALLDATASIZE LT PUSH2 0x4A JUMPI PUSH0 CALLDATALOAD PUSH1 0xE0 SHR DUP1 PUSH4 0xBE747C1C EQ PUSH2 0x4E JUMPI DUP1 PUSH4 0xD1DBE7D8 EQ PUSH2 0x6C JUMPI DUP1 PUSH4 0xD9BC438A EQ PUSH2 0xA4 JUMPI DUP1 PUSH4 0xEFAFB22E EQ PUSH2 0xD4 JUMPI JUMPDEST PUSH0 DUP1 REVERT JUMPDEST PUSH2 0x56 PUSH2 0xF0 JUMP JUMPDEST PUSH1 0x40 MLOAD PUSH2 0x63 SWAP2 SWAP1 PUSH2 0x653 JUMP JUMPDEST PUSH1 0x40 MLOAD DUP1 SWAP2 SUB SWAP1 RETURN JUMPDEST PUSH2 0x86 PUSH1 0x4 DUP1 CALLDATASIZE SUB DUP2 ADD SWAP1 PUSH2 0x81 SWAP2 SWAP1 PUSH2 0x6A7 JUMP JUMPDEST PUSH2 0xF6 JUMP JUMPDEST PUSH1 0x40 MLOAD PUSH2 0x9B SWAP10 SWAP9 SWAP8 SWAP7 SWAP6 SWAP5 SWAP4 SWAP3 SWAP2 SWAP1 PUSH2 0x79B JUMP JUMPDEST PUSH1 0x40 MLOAD DUP1 SWAP2 SUB SWAP1 RETURN JUMPDEST PUSH2 0xBE PUSH1 0x4 DUP1 CALLDATASIZE SUB DUP2 ADD SWAP1 PUSH2 0xB9 SWAP2 SWAP1 PUSH2 0x999 JUMP JUMPDEST PUSH2 0x276 JUMP JUMPDEST PUSH1 0x40 MLOAD PUSH2 0xCB SWAP2 SWAP1 PUSH2 0x653 JUMP JUMPDEST PUSH1 0x40 MLOAD DUP1 SWAP2 SUB SWAP1 RETURN JUMPDEST PUSH2 0xEE PUSH1 0x4 DUP1 CALLDATASIZE SUB DUP2 ADD SWAP1 PUSH2 0xE9 SWAP2 SWAP1 PUSH2 0xA44 JUMP JUMPDEST PUSH2 0x3D5 JUMP JUMPDEST STOP JUMPDEST PUSH1 0x1 SLOAD DUP2 JUMP JUMPDEST PUSH0 PUSH1 0x20 MSTORE DUP1 PUSH0 MSTORE PUSH1 0x40 PUSH0 KECCAK256 PUSH0 SWAP2 POP SWAP1 POP DUP1 PUSH0 ADD PUSH0 SWAP1 SLOAD SWAP1 PUSH2 0x100 EXP SWAP1 DIV PUSH20 0xFFFFFFFFFFFFFFFFFFFFFFFFFFFFFFFFFFFFFFFF AND SWAP1 DUP1 PUSH1 0x1 ADD DUP1 SLOAD PUSH2 0x139 SWAP1 PUSH2 0xAAF JUMP JUMPDEST DUP1 PUSH1 0x1F ADD PUSH1 0x20 DUP1 SWAP2 DIV MUL PUSH1 0x20 ADD PUSH1 0x40 MLOAD SWAP1 DUP2 ADD PUSH1 0x40 MSTORE DUP1 SWAP3 SWAP2 SWAP1 DUP2 DUP2 MSTORE PUSH1 0x20 ADD DUP3 DUP1 SLOAD PUSH2 0x165 SWAP1 PUSH2 0xAAF JUMP JUMPDEST DUP1 ISZERO PUSH2 0x1B0 JUMPI DUP1 PUSH1 0x1F LT PUSH2 0x187 JUMPI PUSH2 0x100 DUP1 DUP4 SLOAD DIV MUL DUP4 MSTORE SWAP2 PUSH1 0x20 ADD SWAP2 PUSH2 0x1B0 JUMP JUMPDEST DUP3 ADD SWAP2 SWAP1 PUSH0 MSTORE PUSH1 0x20 PUSH0 KECCAK256 SWAP1 JUMPDEST DUP2 SLOAD DUP2 MSTORE SWAP1 PUSH1 0x1 ADD SWAP1 PUSH1 0x20 ADD DUP1 DUP4 GT PUSH2 0x193 JUMPI DUP3 SWAP1 SUB PUSH1 0x1F AND DUP3 ADD SWAP2 JUMPDEST POP POP POP POP POP SWAP1 DUP1 PUSH1 0x2 ADD DUP1 SLOAD PUSH2 0x1C5 SWAP1 PUSH2 0xAAF JUMP JUMPDEST DUP1 PUSH1 0x1F ADD PUSH1 0x20 DUP1 SWAP2 DIV MUL PUSH1 0x20 ADD PUSH1 0x40 MLOAD SWAP1 DUP2 ADD PUSH1 0x40 MSTORE DUP1 SWAP3 SWAP2 SWAP1 DUP2 DUP2 MSTORE PUSH1 0x20 ADD DUP3 DUP1 SLOAD PUSH2 0x1F1 SWAP1 PUSH2 0xAAF JUMP JUMPDEST DUP1 ISZERO PUSH2 0x23C JUMPI DUP1 PUSH1 0x1F LT PUSH2 0x213 JUMPI PUSH2 0x100 DUP1 DUP4 SLOAD DIV MUL DUP4 MSTORE SWAP2 PUSH1 0x20 ADD SWAP2 PUSH2 0x23C JUMP JUMPDEST DUP3 ADD SWAP2 SWAP1 PUSH0 MSTORE PUSH1 0x20 PUSH0 KECCAK256 SWAP1 JUMPDEST DUP2 SLOAD DUP2 MSTORE SWAP1 PUSH1 0x1 ADD SWAP1 PUSH1 0x20 ADD DUP1 DUP4 GT PUSH2 0x21F JUMPI DUP3 SWAP1 SUB PUSH1 0x1F AND DUP3 ADD SWAP2 JUMPDEST POP POP POP POP POP SWAP1 DUP1 PUSH1 0x3 ADD SLOAD SWAP1 DUP1 PUSH1 0x4 ADD PUSH0 SWAP1 SLOAD SWAP1 PUSH2 0x100 EXP SWAP1 DIV PUSH1 0xFF AND SWAP1 DUP1 PUSH1 0x5 ADD SLOAD SWAP1 DUP1 PUSH1 0x6 ADD SLOAD SWAP1 DUP1 PUSH1 0x7 ADD SLOAD SWAP1 DUP1 PUSH1 0x8 ADD SLOAD SWAP1 POP DUP10 JUMP JUMPDEST PUSH0 DUP1 PUSH0 DUP1 PUSH1 0x1 SLOAD DUP2 MSTORE PUSH1 0x20 ADD SWAP1 DUP2 MSTORE PUSH1 0x20 ADD PUSH0 KECCAK256 SWAP1 POP CALLER DUP2 PUSH0 ADD PUSH0 PUSH2 0x100 EXP DUP2 SLOAD DUP2 PUSH20 0xFFFFFFFFFFFFFFFFFFFFFFFFFFFFFFFFFFFFFFFF MUL NOT AND SWAP1 DUP4 PUSH20 0xFFFFFFFFFFFFFFFFFFFFFFFFFFFFFFFFFFFFFFFF AND MUL OR SWAP1 SSTORE POP PUSH1 0x1 SLOAD DUP2 PUSH1 0x3 ADD DUP2 SWAP1 SSTORE POP DUP5 DUP2 PUSH1 0x1 ADD SWAP1 DUP2 PUSH2 0x2E9 SWAP2 SWAP1 PUSH2 0xC7C JUMP JUMPDEST POP PUSH0 DUP2 PUSH1 0x4 ADD PUSH0 PUSH2 0x100 EXP DUP2 SLOAD DUP2 PUSH1 0xFF MUL NOT AND SWAP1 DUP4 ISZERO ISZERO MUL OR SWAP1 SSTORE POP DUP4 DUP2 PUSH1 0x2 ADD SWAP1 DUP2 PUSH2 0x316 SWAP2 SWAP1 PUSH2 0xC7C JUMP JUMPDEST POP TIMESTAMP DUP2 PUSH1 0x7 ADD DUP2 SWAP1 SSTORE POP PUSH3 0x15180 DUP4 PUSH2 0x32F SWAP2 SWAP1 PUSH2 0xD78 JUMP JUMPDEST PUSH4 0xFFFFFFFF AND TIMESTAMP PUSH2 0x340 SWAP2 SWAP1 PUSH2 0xDB4 JUMP JUMPDEST DUP2 PUSH1 0x8 ADD DUP2 SWAP1 SSTORE POP PUSH1 0x1 PUSH0 DUP2 SLOAD DUP1 SWAP3 SWAP2 SWAP1 PUSH2 0x35A SWAP1 PUSH2 0xDE7 JUMP JUMPDEST SWAP2 SWAP1 POP SSTORE POP CALLER PUSH20 0xFFFFFFFFFFFFFFFFFFFFFFFFFFFFFFFFFFFFFFFF AND PUSH1 0x1 DUP1 SLOAD PUSH2 0x384 SWAP2 SWAP1 PUSH2 0xE2E JUMP JUMPDEST PUSH32 0xB8EC33A39F0AF82926E7839F5E5D30BD98D3036BBC2FFB47CCD2550972355E2E DUP8 TIMESTAMP PUSH1 0x40 MLOAD PUSH2 0x3B5 SWAP3 SWAP2 SWAP1 PUSH2 0xE61 JUMP JUMPDEST PUSH1 0x40 MLOAD DUP1 SWAP2 SUB SWAP1 LOG3 PUSH1 0x1 DUP1 SLOAD PUSH2 0x3CB SWAP2 SWAP1 PUSH2 0xE2E JUMP JUMPDEST SWAP2 POP POP SWAP4 SWAP3 POP POP POP JUMP JUMPDEST PUSH0 DUP1 PUSH0 DUP5 DUP2 MSTORE PUSH1 0x20 ADD SWAP1 DUP2 MSTORE PUSH1 0x20 ADD PUSH0 KECCAK256 SWAP1 POP PUSH0 PUSH20 0xFFFFFFFFFFFFFFFFFFFFFFFFFFFFFFFFFFFFFFFF AND DUP2 PUSH0 ADD PUSH0 SWAP1 SLOAD SWAP1 PUSH2 0x100 EXP SWAP1 DIV PUSH20 0xFFFFFFFFFFFFFFFFFFFFFFFFFFFFFFFFFFFFFFFF AND PUSH20 0xFFFFFFFFFFFFFFFFFFFFFFFFFFFFFFFFFFFFFFFF AND SUB PUSH2 0x478 JUMPI PUSH1 0x40 MLOAD PUSH32 0x8C379A000000000000000000000000000000000000000000000000000000000 DUP2 MSTORE PUSH1 0x4 ADD PUSH2 0x46F SWAP1 PUSH2 0xED9 JUMP JUMPDEST PUSH1 0x40 MLOAD DUP1 SWAP2 SUB SWAP1 REVERT JUMPDEST PUSH0 ISZERO ISZERO PUSH1 0x2 PUSH0 CALLER PUSH20 0xFFFFFFFFFFFFFFFFFFFFFFFFFFFFFFFFFFFFFFFF AND PUSH20 0xFFFFFFFFFFFFFFFFFFFFFFFFFFFFFFFFFFFFFFFF AND DUP2 MSTORE PUSH1 0x20 ADD SWAP1 DUP2 MSTORE PUSH1 0x20 ADD PUSH0 KECCAK256 PUSH0 DUP4 PUSH1 0x3 ADD SLOAD DUP2 MSTORE PUSH1 0x20 ADD SWAP1 DUP2 MSTORE PUSH1 0x20 ADD PUSH0 KECCAK256 PUSH0 SWAP1 SLOAD SWAP1 PUSH2 0x100 EXP SWAP1 DIV PUSH1 0xFF AND ISZERO ISZERO EQ PUSH2 0x51A JUMPI PUSH1 0x40 MLOAD PUSH32 0x8C379A000000000000000000000000000000000000000000000000000000000 DUP2 MSTORE PUSH1 0x4 ADD PUSH2 0x511 SWAP1 PUSH2 0xF67 JUMP JUMPDEST PUSH1 0x40 MLOAD DUP1 SWAP2 SUB SWAP1 REVERT JUMPDEST PUSH0 PUSH1 0x1 DUP2 GT ISZERO PUSH2 0x52D JUMPI PUSH2 0x52C PUSH2 0xF85 JUMP JUMPDEST JUMPDEST DUP3 PUSH1 0x1 DUP2 GT ISZERO PUSH2 0x540 JUMPI PUSH2 0x53F PUSH2 0xF85 JUMP JUMPDEST JUMPDEST SUB PUSH2 0x563 JUMPI DUP1 PUSH1 0x5 ADD PUSH0 DUP2 SLOAD DUP1 SWAP3 SWAP2 SWAP1 PUSH2 0x559 SWAP1 PUSH2 0xDE7 JUMP JUMPDEST SWAP2 SWAP1 POP SSTORE POP PUSH2 0x57D JUMP JUMPDEST DUP1 PUSH1 0x6 ADD PUSH0 DUP2 SLOAD DUP1 SWAP3 SWAP2 SWAP1 PUSH2 0x577 SWAP1 PUSH2 0xDE7 JUMP JUMPDEST SWAP2 SWAP1 POP SSTORE POP JUMPDEST PUSH1 0x1 PUSH1 0x2 PUSH0 CALLER PUSH20 0xFFFFFFFFFFFFFFFFFFFFFFFFFFFFFFFFFFFFFFFF AND PUSH20 0xFFFFFFFFFFFFFFFFFFFFFFFFFFFFFFFFFFFFFFFF AND DUP2 MSTORE PUSH1 0x20 ADD SWAP1 DUP2 MSTORE PUSH1 0x20 ADD PUSH0 KECCAK256 PUSH0 DUP4 PUSH1 0x3 ADD SLOAD DUP2 MSTORE PUSH1 0x20 ADD SWAP1 DUP2 MSTORE PUSH1 0x20 ADD PUSH0 KECCAK256 PUSH0 PUSH2 0x100 EXP DUP2 SLOAD DUP2 PUSH1 0xFF MUL NOT AND SWAP1 DUP4 ISZERO ISZERO MUL OR SWAP1 SSTORE POP CALLER PUSH20 0xFFFFFFFFFFFFFFFFFFFFFFFFFFFFFFFFFFFFFFFF AND DUP4 PUSH32 0x2C429843B755AEFD47BD35F951EC584E567E65542F31D255FF570E130D0DD404 DUP5 TIMESTAMP PUSH1 0x40 MLOAD PUSH2 0x62E SWAP3 SWAP2 SWAP1 PUSH2 0xFF8 JUMP JUMPDEST PUSH1 0x40 MLOAD DUP1 SWAP2 SUB SWAP1 LOG3 POP POP POP JUMP JUMPDEST PUSH0 DUP2 SWAP1 POP SWAP2 SWAP1 POP JUMP JUMPDEST PUSH2 0x64D DUP2 PUSH2 0x63B JUMP JUMPDEST DUP3 MSTORE POP POP JUMP JUMPDEST PUSH0 PUSH1 0x20 DUP3 ADD SWAP1 POP PUSH2 0x666 PUSH0 DUP4 ADD DUP5 PUSH2 0x644 JUMP JUMPDEST SWAP3 SWAP2 POP POP JUMP JUMPDEST PUSH0 PUSH1 0x40 MLOAD SWAP1 POP SWAP1 JUMP JUMPDEST PUSH0 DUP1 REVERT JUMPDEST PUSH0 DUP1 REVERT JUMPDEST PUSH2 0x686 DUP2 PUSH2 0x63B JUMP JUMPDEST DUP2 EQ PUSH2 0x690 JUMPI PUSH0 DUP1 REVERT JUMPDEST POP JUMP JUMPDEST PUSH0 DUP2 CALLDATALOAD SWAP1 POP PUSH2 0x6A1 DUP2 PUSH2 0x67D JUMP JUMPDEST SWAP3 SWAP2 POP POP JUMP JUMPDEST PUSH0 PUSH1 0x20 DUP3 DUP5 SUB SLT ISZERO PUSH2 0x6BC JUMPI PUSH2 0x6BB PUSH2 0x675 JUMP JUMPDEST JUMPDEST PUSH0 PUSH2 0x6C9 DUP5 DUP3 DUP6 ADD PUSH2 0x693 JUMP JUMPDEST SWAP2 POP POP SWAP3 SWAP2 POP POP JUMP JUMPDEST PUSH0 PUSH20 0xFFFFFFFFFFFFFFFFFFFFFFFFFFFFFFFFFFFFFFFF DUP3 AND SWAP1 POP SWAP2 SWAP1 POP JUMP JUMPDEST PUSH0 PUSH2 0x6FB DUP3 PUSH2 0x6D2 JUMP JUMPDEST SWAP1 POP SWAP2 SWAP1 POP JUMP JUMPDEST PUSH2 0x70B DUP2 PUSH2 0x6F1 JUMP JUMPDEST DUP3 MSTORE POP POP JUMP JUMPDEST PUSH0 DUP2 MLOAD SWAP1 POP SWAP2 SWAP1 POP JUMP JUMPDEST PUSH0 DUP3 DUP3 MSTORE PUSH1 0x20 DUP3 ADD SWAP1 POP SWAP3 SWAP2 POP POP JUMP JUMPDEST DUP3 DUP2 DUP4 MCOPY PUSH0 DUP4 DUP4 ADD MSTORE POP POP POP JUMP JUMPDEST PUSH0 PUSH1 0x1F NOT PUSH1 0x1F DUP4 ADD AND SWAP1 POP SWAP2 SWAP1 POP JUMP JUMPDEST PUSH0 PUSH2 0x753 DUP3 PUSH2 0x711 JUMP JUMPDEST PUSH2 0x75D DUP2 DUP6 PUSH2 0x71B JUMP JUMPDEST SWAP4 POP PUSH2 0x76D DUP2 DUP6 PUSH1 0x20 DUP7 ADD PUSH2 0x72B JUMP JUMPDEST PUSH2 0x776 DUP2 PUSH2 0x739 JUMP JUMPDEST DUP5 ADD SWAP2 POP POP SWAP3 SWAP2 POP POP JUMP JUMPDEST PUSH0 DUP2 ISZERO ISZERO SWAP1 POP SWAP2 SWAP1 POP JUMP JUMPDEST PUSH2 0x795 DUP2 PUSH2 0x781 JUMP JUMPDEST DUP3 MSTORE POP POP JUMP JUMPDEST PUSH0 PUSH2 0x120 DUP3 ADD SWAP1 POP PUSH2 0x7AF PUSH0 DUP4 ADD DUP13 PUSH2 0x702 JUMP JUMPDEST DUP2 DUP2 SUB PUSH1 0x20 DUP4 ADD MSTORE PUSH2 0x7C1 DUP2 DUP12 PUSH2 0x749 JUMP JUMPDEST SWAP1 POP DUP2 DUP2 SUB PUSH1 0x40 DUP4 ADD MSTORE PUSH2 0x7D5 DUP2 DUP11 PUSH2 0x749 JUMP JUMPDEST SWAP1 POP PUSH2 0x7E4 PUSH1 0x60 DUP4 ADD DUP10 PUSH2 0x644 JUMP JUMPDEST PUSH2 0x7F1 PUSH1 0x80 DUP4 ADD DUP9 PUSH2 0x78C JUMP JUMPDEST PUSH2 0x7FE PUSH1 0xA0 DUP4 ADD DUP8 PUSH2 0x644 JUMP JUMPDEST PUSH2 0x80B PUSH1 0xC0 DUP4 ADD DUP7 PUSH2 0x644 JUMP JUMPDEST PUSH2 0x818 PUSH1 0xE0 DUP4 ADD DUP6 PUSH2 0x644 JUMP JUMPDEST PUSH2 0x826 PUSH2 0x100 DUP4 ADD DUP5 PUSH2 0x644 JUMP JUMPDEST SWAP11 SWAP10 POP POP POP POP POP POP POP POP POP POP JUMP JUMPDEST PUSH0 DUP1 REVERT JUMPDEST PUSH0 DUP1 REVERT JUMPDEST PUSH32 0x4E487B7100000000000000000000000000000000000000000000000000000000 PUSH0 MSTORE PUSH1 0x41 PUSH1 0x4 MSTORE PUSH1 0x24 PUSH0 REVERT JUMPDEST PUSH2 0x872 DUP3 PUSH2 0x739 JUMP JUMPDEST DUP2 ADD DUP2 DUP2 LT PUSH8 0xFFFFFFFFFFFFFFFF DUP3 GT OR ISZERO PUSH2 0x891 JUMPI PUSH2 0x890 PUSH2 0x83C JUMP JUMPDEST JUMPDEST DUP1 PUSH1 0x40 MSTORE POP POP POP JUMP JUMPDEST PUSH0 PUSH2 0x8A3 PUSH2 0x66C JUMP JUMPDEST SWAP1 POP PUSH2 0x8AF DUP3 DUP3 PUSH2 0x869 JUMP JUMPDEST SWAP2 SWAP1 POP JUMP JUMPDEST PUSH0 PUSH8 0xFFFFFFFFFFFFFFFF DUP3 GT ISZERO PUSH2 0x8CE JUMPI PUSH2 0x8CD PUSH2 0x83C JUMP JUMPDEST JUMPDEST PUSH2 0x8D7 DUP3 PUSH2 0x739 JUMP JUMPDEST SWAP1 POP PUSH1 0x20 DUP2 ADD SWAP1 POP SWAP2 SWAP1 POP JUMP JUMPDEST DUP3 DUP2 DUP4 CALLDATACOPY PUSH0 DUP4 DUP4 ADD MSTORE POP POP POP JUMP JUMPDEST PUSH0 PUSH2 0x904 PUSH2 0x8FF DUP5 PUSH2 0x8B4 JUMP JUMPDEST PUSH2 0x89A JUMP JUMPDEST SWAP1 POP DUP3 DUP2 MSTORE PUSH1 0x20 DUP2 ADD DUP5 DUP5 DUP5 ADD GT ISZERO PUSH2 0x920 JUMPI PUSH2 0x91F PUSH2 0x838 JUMP JUMPDEST JUMPDEST PUSH2 0x92B DUP5 DUP3 DUP6 PUSH2 0x8E4 JUMP JUMPDEST POP SWAP4 SWAP3 POP POP POP JUMP JUMPDEST PUSH0 DUP3 PUSH1 0x1F DUP4 ADD SLT PUSH2 0x947 JUMPI PUSH2 0x946 PUSH2 0x834 JUMP JUMPDEST JUMPDEST DUP2 CALLDATALOAD PUSH2 0x957 DUP5 DUP3 PUSH1 0x20 DUP7 ADD PUSH2 0x8F2 JUMP JUMPDEST SWAP2 POP POP SWAP3 SWAP2 POP POP JUMP JUMPDEST PUSH0 PUSH4 0xFFFFFFFF DUP3 AND SWAP1 POP SWAP2 SWAP1 POP JUMP JUMPDEST PUSH2 0x978 DUP2 PUSH2 0x960 JUMP JUMPDEST DUP2 EQ PUSH2 0x982 JUMPI PUSH0 DUP1 REVERT JUMPDEST POP JUMP JUMPDEST PUSH0 DUP2 CALLDATALOAD SWAP1 POP PUSH2 0x993 DUP2 PUSH2 0x96F JUMP JUMPDEST SWAP3 SWAP2 POP POP JUMP JUMPDEST PUSH0 DUP1 PUSH0 PUSH1 0x60 DUP5 DUP7 SUB SLT ISZERO PUSH2 0x9B0 JUMPI PUSH2 0x9AF PUSH2 0x675 JUMP JUMPDEST JUMPDEST PUSH0 DUP5 ADD CALLDATALOAD PUSH8 0xFFFFFFFFFFFFFFFF DUP2 GT ISZERO PUSH2 0x9CD JUMPI PUSH2 0x9CC PUSH2 0x679 JUMP JUMPDEST JUMPDEST PUSH2 0x9D9 DUP7 DUP3 DUP8 ADD PUSH2 0x933 JUMP JUMPDEST SWAP4 POP POP PUSH1 0x20 DUP5 ADD CALLDATALOAD PUSH8 0xFFFFFFFFFFFFFFFF DUP2 GT ISZERO PUSH2 0x9FA JUMPI PUSH2 0x9F9 PUSH2 0x679 JUMP JUMPDEST JUMPDEST PUSH2 0xA06 DUP7 DUP3 DUP8 ADD PUSH2 0x933 JUMP JUMPDEST SWAP3 POP POP PUSH1 0x40 PUSH2 0xA17 DUP7 DUP3 DUP8 ADD PUSH2 0x985 JUMP JUMPDEST SWAP2 POP POP SWAP3 POP SWAP3 POP SWAP3 JUMP JUMPDEST PUSH1 0x2 DUP2 LT PUSH2 0xA2D JUMPI PUSH0 DUP1 REVERT JUMPDEST POP JUMP JUMPDEST PUSH0 DUP2 CALLDATALOAD SWAP1 POP PUSH2 0xA3E DUP2 PUSH2 0xA21 JUMP JUMPDEST SWAP3 SWAP2 POP POP JUMP JUMPDEST PUSH0 DUP1 PUSH1 0x40 DUP4 DUP6 SUB SLT ISZERO PUSH2 0xA5A JUMPI PUSH2 0xA59 PUSH2 0x675 JUMP JUMPDEST JUMPDEST PUSH0 PUSH2 0xA67 DUP6 DUP3 DUP7 ADD PUSH2 0x693 JUMP JUMPDEST SWAP3 POP POP PUSH1 0x20 PUSH2 0xA78 DUP6 DUP3 DUP7 ADD PUSH2 0xA30 JUMP JUMPDEST SWAP2 POP POP SWAP3 POP SWAP3 SWAP1 POP JUMP JUMPDEST PUSH32 0x4E487B7100000000000000000000000000000000000000000000000000000000 PUSH0 MSTORE PUSH1 0x22 PUSH1 0x4 MSTORE PUSH1 0x24 PUSH0 REVERT JUMPDEST PUSH0 PUSH1 0x2 DUP3 DIV SWAP1 POP PUSH1 0x1 DUP3 AND DUP1 PUSH2 0xAC6 JUMPI PUSH1 0x7F DUP3 AND SWAP2 POP JUMPDEST PUSH1 0x20 DUP3 LT DUP2 SUB PUSH2 0xAD9 JUMPI PUSH2 0xAD8 PUSH2 0xA82 JUMP JUMPDEST JUMPDEST POP SWAP2 SWAP1 POP JUMP JUMPDEST PUSH0 DUP2 SWAP1 POP DUP2 PUSH0 MSTORE PUSH1 0x20 PUSH0 KECCAK256 SWAP1 POP SWAP2 SWAP1 POP JUMP JUMPDEST PUSH0 PUSH1 0x20 PUSH1 0x1F DUP4 ADD DIV SWAP1 POP SWAP2 SWAP1 POP JUMP JUMPDEST PUSH0 DUP3 DUP3 SHL SWAP1 POP SWAP3 SWAP2 POP POP JUMP JUMPDEST PUSH0 PUSH1 0x8 DUP4 MUL PUSH2 0xB3B PUSH32 0xFFFFFFFFFFFFFFFFFFFFFFFFFFFFFFFFFFFFFFFFFFFFFFFFFFFFFFFFFFFFFFFF DUP3 PUSH2 0xB00 JUMP JUMPDEST PUSH2 0xB45 DUP7 DUP4 PUSH2 0xB00 JUMP JUMPDEST SWAP6 POP DUP1 NOT DUP5 AND SWAP4 POP DUP1 DUP7 AND DUP5 OR SWAP3 POP POP POP SWAP4 SWAP3 POP POP POP JUMP JUMPDEST PUSH0 DUP2 SWAP1 POP SWAP2 SWAP1 POP JUMP JUMPDEST PUSH0 PUSH2 0xB80 PUSH2 0xB7B PUSH2 0xB76 DUP5 PUSH2 0x63B JUMP JUMPDEST PUSH2 0xB5D JUMP JUMPDEST PUSH2 0x63B JUMP JUMPDEST SWAP1 POP SWAP2 SWAP1 POP JUMP JUMPDEST PUSH0 DUP2 SWAP1 POP SWAP2 SWAP1 POP JUMP JUMPDEST PUSH2 0xB99 DUP4 PUSH2 0xB66 JUMP JUMPDEST PUSH2 0xBAD PUSH2 0xBA5 DUP3 PUSH2 0xB87 JUMP JUMPDEST DUP5 DUP5 SLOAD PUSH2 0xB0C JUMP JUMPDEST DUP3 SSTORE POP POP POP POP JUMP JUMPDEST PUSH0 SWAP1 JUMP JUMPDEST PUSH2 0xBC1 PUSH2 0xBB5 JUMP JUMPDEST PUSH2 0xBCC DUP2 DUP5 DUP5 PUSH2 0xB90 JUMP JUMPDEST POP POP POP JUMP JUMPDEST JUMPDEST DUP2 DUP2 LT ISZERO PUSH2 0xBEF JUMPI PUSH2 0xBE4 PUSH0 DUP3 PUSH2 0xBB9 JUMP JUMPDEST PUSH1 0x1 DUP2 ADD SWAP1 POP PUSH2 0xBD2 JUMP JUMPDEST POP POP JUMP JUMPDEST PUSH1 0x1F DUP3 GT ISZERO PUSH2 0xC34 JUMPI PUSH2 0xC05 DUP2 PUSH2 0xADF JUMP JUMPDEST PUSH2 0xC0E DUP5 PUSH2 0xAF1 JUMP JUMPDEST DUP2 ADD PUSH1 0x20 DUP6 LT ISZERO PUSH2 0xC1D JUMPI DUP2 SWAP1 POP JUMPDEST PUSH2 0xC31 PUSH2 0xC29 DUP6 PUSH2 0xAF1 JUMP JUMPDEST DUP4 ADD DUP3 PUSH2 0xBD1 JUMP JUMPDEST POP POP JUMPDEST POP POP POP JUMP JUMPDEST PUSH0 DUP3 DUP3 SHR SWAP1 POP SWAP3 SWAP2 POP POP JUMP JUMPDEST PUSH0 PUSH2 0xC54 PUSH0 NOT DUP5 PUSH1 0x8 MUL PUSH2 0xC39 JUMP JUMPDEST NOT DUP1 DUP4 AND SWAP2 POP POP SWAP3 SWAP2 POP POP JUMP JUMPDEST PUSH0 PUSH2 0xC6C DUP4 DUP4 PUSH2 0xC45 JUMP JUMPDEST SWAP2 POP DUP3 PUSH1 0x2 MUL DUP3 OR SWAP1 POP SWAP3 SWAP2 POP POP JUMP JUMPDEST PUSH2 0xC85 DUP3 PUSH2 0x711 JUMP JUMPDEST PUSH8 0xFFFFFFFFFFFFFFFF DUP2 GT ISZERO PUSH2 0xC9E JUMPI PUSH2 0xC9D PUSH2 0x83C JUMP JUMPDEST JUMPDEST PUSH2 0xCA8 DUP3 SLOAD PUSH2 0xAAF JUMP JUMPDEST PUSH2 0xCB3 DUP3 DUP3 DUP6 PUSH2 0xBF3 JUMP JUMPDEST PUSH0 PUSH1 0x20 SWAP1 POP PUSH1 0x1F DUP4 GT PUSH1 0x1 DUP2 EQ PUSH2 0xCE4 JUMPI PUSH0 DUP5 ISZERO PUSH2 0xCD2 JUMPI DUP3 DUP8 ADD MLOAD SWAP1 POP JUMPDEST PUSH2 0xCDC DUP6 DUP3 PUSH2 0xC61 JUMP JUMPDEST DUP7 SSTORE POP PUSH2 0xD43 JUMP JUMPDEST PUSH1 0x1F NOT DUP5 AND PUSH2 0xCF2 DUP7 PUSH2 0xADF JUMP JUMPDEST PUSH0 JUMPDEST DUP3 DUP2 LT ISZERO PUSH2 0xD19 JUMPI DUP5 DUP10 ADD MLOAD DUP3 SSTORE PUSH1 0x1 DUP3 ADD SWAP2 POP PUSH1 0x20 DUP6 ADD SWAP5 POP PUSH1 0x20 DUP2 ADD SWAP1 POP PUSH2 0xCF4 JUMP JUMPDEST DUP7 DUP4 LT ISZERO PUSH2 0xD36 JUMPI DUP5 DUP10 ADD MLOAD PUSH2 0xD32 PUSH1 0x1F DUP10 AND DUP3 PUSH2 0xC45 JUMP JUMPDEST DUP4 SSTORE POP JUMPDEST PUSH1 0x1 PUSH1 0x2 DUP9 MUL ADD DUP9 SSTORE POP POP POP JUMPDEST POP POP POP POP POP POP JUMP JUMPDEST PUSH32 0x4E487B7100000000000000000000000000000000000000000000000000000000 PUSH0 MSTORE PUSH1 0x11 PUSH1 0x4 MSTORE PUSH1 0x24 PUSH0 REVERT JUMPDEST PUSH0 PUSH2 0xD82 DUP3 PUSH2 0x960 JUMP JUMPDEST SWAP2 POP PUSH2 0xD8D DUP4 PUSH2 0x960 JUMP JUMPDEST SWAP3 POP DUP3 DUP3 MUL PUSH2 0xD9B DUP2 PUSH2 0x960 JUMP JUMPDEST SWAP2 POP DUP1 DUP3 EQ PUSH2 0xDAD JUMPI PUSH2 0xDAC PUSH2 0xD4B JUMP JUMPDEST JUMPDEST POP SWAP3 SWAP2 POP POP JUMP JUMPDEST PUSH0 PUSH2 0xDBE DUP3 PUSH2 0x63B JUMP JUMPDEST SWAP2 POP PUSH2 0xDC9 DUP4 PUSH2 0x63B JUMP JUMPDEST SWAP3 POP DUP3 DUP3 ADD SWAP1 POP DUP1 DUP3 GT ISZERO PUSH2 0xDE1 JUMPI PUSH2 0xDE0 PUSH2 0xD4B JUMP JUMPDEST JUMPDEST SWAP3 SWAP2 POP POP JUMP JUMPDEST PUSH0 PUSH2 0xDF1 DUP3 PUSH2 0x63B JUMP JUMPDEST SWAP2 POP PUSH32 0xFFFFFFFFFFFFFFFFFFFFFFFFFFFFFFFFFFFFFFFFFFFFFFFFFFFFFFFFFFFFFFFF DUP3 SUB PUSH2 0xE23 JUMPI PUSH2 0xE22 PUSH2 0xD4B JUMP JUMPDEST JUMPDEST PUSH1 0x1 DUP3 ADD SWAP1 POP SWAP2 SWAP1 POP JUMP JUMPDEST PUSH0 PUSH2 0xE38 DUP3 PUSH2 0x63B JUMP JUMPDEST SWAP2 POP PUSH2 0xE43 DUP4 PUSH2 0x63B JUMP JUMPDEST SWAP3 POP DUP3 DUP3 SUB SWAP1 POP DUP2 DUP2 GT ISZERO PUSH2 0xE5B JUMPI PUSH2 0xE5A PUSH2 0xD4B JUMP JUMPDEST JUMPDEST SWAP3 SWAP2 POP POP JUMP JUMPDEST PUSH0 PUSH1 0x40 DUP3 ADD SWAP1 POP DUP2 DUP2 SUB PUSH0 DUP4 ADD MSTORE PUSH2 0xE79 DUP2 DUP6 PUSH2 0x749 JUMP JUMPDEST SWAP1 POP PUSH2 0xE88 PUSH1 0x20 DUP4 ADD DUP5 PUSH2 0x644 JUMP JUMPDEST SWAP4 SWAP3 POP POP POP JUMP JUMPDEST PUSH32 0x5468652070726F706F73616C20646F6573206E6F742065786973740000000000 PUSH0 DUP3 ADD MSTORE POP JUMP JUMPDEST PUSH0 PUSH2 0xEC3 PUSH1 0x1B DUP4 PUSH2 0x71B JUMP JUMPDEST SWAP2 POP PUSH2 0xECE DUP3 PUSH2 0xE8F JUMP JUMPDEST PUSH1 0x20 DUP3 ADD SWAP1 POP SWAP2 SWAP1 POP JUMP JUMPDEST PUSH0 PUSH1 0x20 DUP3 ADD SWAP1 POP DUP2 DUP2 SUB PUSH0 DUP4 ADD MSTORE PUSH2 0xEF0 DUP2 PUSH2 0xEB7 JUMP JUMPDEST SWAP1 POP SWAP2 SWAP1 POP JUMP JUMPDEST PUSH32 0x596F75206861766520616C726561647920766F746564206F6E20746869732070 PUSH0 DUP3 ADD MSTORE PUSH32 0x726F706F73616C00000000000000000000000000000000000000000000000000 PUSH1 0x20 DUP3 ADD MSTORE POP JUMP JUMPDEST PUSH0 PUSH2 0xF51 PUSH1 0x27 DUP4 PUSH2 0x71B JUMP JUMPDEST SWAP2 POP PUSH2 0xF5C DUP3 PUSH2 0xEF7 JUMP JUMPDEST PUSH1 0x40 DUP3 ADD SWAP1 POP SWAP2 SWAP1 POP JUMP JUMPDEST PUSH0 PUSH1 0x20 DUP3 ADD SWAP1 POP DUP2 DUP2 SUB PUSH0 DUP4 ADD MSTORE PUSH2 0xF7E DUP2 PUSH2 0xF45 JUMP JUMPDEST SWAP1 POP SWAP2 SWAP1 POP JUMP JUMPDEST PUSH32 0x4E487B7100000000000000000000000000000000000000000000000000000000 PUSH0 MSTORE PUSH1 0x21 PUSH1 0x4 MSTORE PUSH1 0x24 PUSH0 REVERT JUMPDEST PUSH1 0x2 DUP2 LT PUSH2 0xFC3 JUMPI PUSH2 0xFC2 PUSH2 0xF85 JUMP JUMPDEST JUMPDEST POP JUMP JUMPDEST PUSH0 DUP2 SWAP1 POP PUSH2 0xFD3 DUP3 PUSH2 0xFB2 JUMP JUMPDEST SWAP2 SWAP1 POP JUMP JUMPDEST PUSH0 PUSH2 0xFE2 DUP3 PUSH2 0xFC6 JUMP JUMPDEST SWAP1 POP SWAP2 SWAP1 POP JUMP JUMPDEST PUSH2 0xFF2 DUP2 PUSH2 0xFD8 JUMP JUMPDEST DUP3 MSTORE POP POP JUMP JUMPDEST PUSH0 PUSH1 0x40 DUP3 ADD SWAP1 POP PUSH2 0x100B PUSH0 DUP4 ADD DUP6 PUSH2 0xFE9 JUMP JUMPDEST PUSH2 0x1018 PUSH1 0x20 DUP4 ADD DUP5 PUSH2 0x644 JUMP JUMPDEST SWAP4 SWAP3 POP POP POP JUMP INVALID LOG2 PUSH5 0x6970667358 0x22 SLT KECCAK256 SWAP9 0xD4 0xB0 0xE5 SWAP15 PUSH8 0x8F7C220D42107232 0xBE SAR BASEFEE DUP11 SHR SWAP8 BLOCKHASH CREATE SIGNEXTEND 0xC7 0xB9 PUSH22 0x415842F008C064736F6C634300081A00330000000000 "
				},
				"gasEstimates": {
					"creation": {
						"codeDepositCost": "836200",
						"executionCost": "5873",
						"totalCost": "842073"
					},
					"external": {
						"ProposalCount()": "2403",
						"Proposals(uint256)": "infinite",
						"createProposal(string,string,uint32)": "infinite",
						"voteOnProposal(uint256,uint8)": "infinite"
					}
				},
				"methodIdentifiers": {
					"ProposalCount()": "be747c1c",
					"Proposals(uint256)": "d1dbe7d8",
					"createProposal(string,string,uint32)": "d9bc438a",
					"voteOnProposal(uint256,uint8)": "efafb22e"
				}
			},
			"storageLayout": {
				"storage": [
					{
						"astId": 49,
						"contract": "contracts/DAOProposal.sol:DaoProposal",
						"label": "Proposals",
						"offset": 0,
						"slot": "0",
						"type": "t_mapping(t_uint256,t_struct(Proposal)20_storage)"
					},
					{
						"astId": 52,
						"contract": "contracts/DAOProposal.sol:DaoProposal",
						"label": "ProposalCount",
						"offset": 0,
						"slot": "1",
						"type": "t_uint256"
					},
					{
						"astId": 58,
						"contract": "contracts/DAOProposal.sol:DaoProposal",
						"label": "votes",
						"offset": 0,
						"slot": "2",
						"type": "t_mapping(t_address,t_mapping(t_uint256,t_bool))"
					}
				],
				"types": {
					"t_address": {
						"encoding": "inplace",
						"label": "address",
						"numberOfBytes": "20"
					},
					"t_bool": {
						"encoding": "inplace",
						"label": "bool",
						"numberOfBytes": "1"
					},
					"t_mapping(t_address,t_mapping(t_uint256,t_bool))": {
						"encoding": "mapping",
						"key": "t_address",
						"label": "mapping(address => mapping(uint256 => bool))",
						"numberOfBytes": "32",
						"value": "t_mapping(t_uint256,t_bool)"
					},
					"t_mapping(t_uint256,t_bool)": {
						"encoding": "mapping",
						"key": "t_uint256",
						"label": "mapping(uint256 => bool)",
						"numberOfBytes": "32",
						"value": "t_bool"
					},
					"t_mapping(t_uint256,t_struct(Proposal)20_storage)": {
						"encoding": "mapping",
						"key": "t_uint256",
						"label": "mapping(uint256 => struct DaoProposal.Proposal)",
						"numberOfBytes": "32",
						"value": "t_struct(Proposal)20_storage"
					},
					"t_string_storage": {
						"encoding": "bytes",
						"label": "string",
						"numberOfBytes": "32"
					},
					"t_struct(Proposal)20_storage": {
						"encoding": "inplace",
						"label": "struct DaoProposal.Proposal",
						"members": [
							{
								"astId": 3,
								"contract": "contracts/DAOProposal.sol:DaoProposal",
								"label": "owner",
								"offset": 0,
								"slot": "0",
								"type": "t_address"
							},
							{
								"astId": 5,
								"contract": "contracts/DAOProposal.sol:DaoProposal",
								"label": "title",
								"offset": 0,
								"slot": "1",
								"type": "t_string_storage"
							},
							{
								"astId": 7,
								"contract": "contracts/DAOProposal.sol:DaoProposal",
								"label": "description",
								"offset": 0,
								"slot": "2",
								"type": "t_string_storage"
							},
							{
								"astId": 9,
								"contract": "contracts/DAOProposal.sol:DaoProposal",
								"label": "proposalId",
								"offset": 0,
								"slot": "3",
								"type": "t_uint256"
							},
							{
								"astId": 11,
								"contract": "contracts/DAOProposal.sol:DaoProposal",
								"label": "executed",
								"offset": 0,
								"slot": "4",
								"type": "t_bool"
							},
							{
								"astId": 13,
								"contract": "contracts/DAOProposal.sol:DaoProposal",
								"label": "votedYes",
								"offset": 0,
								"slot": "5",
								"type": "t_uint256"
							},
							{
								"astId": 15,
								"contract": "contracts/DAOProposal.sol:DaoProposal",
								"label": "votedNo",
								"offset": 0,
								"slot": "6",
								"type": "t_uint256"
							},
							{
								"astId": 17,
								"contract": "contracts/DAOProposal.sol:DaoProposal",
								"label": "startTime",
								"offset": 0,
								"slot": "7",
								"type": "t_uint256"
							},
							{
								"astId": 19,
								"contract": "contracts/DAOProposal.sol:DaoProposal",
								"label": "endTime",
								"offset": 0,
								"slot": "8",
								"type": "t_uint256"
							}
						],
						"numberOfBytes": "288"
					},
					"t_uint256": {
						"encoding": "inplace",
						"label": "uint256",
						"numberOfBytes": "32"
					}
				}
			},
			"userdoc": {
				"kind": "user",
				"methods": {},
				"version": 1
			}
		}
	}
}