{
	"contracts/BookStore.sol": {
		"BookStore": {
			"abi": [
				{
					"inputs": [],
					"stateMutability": "nonpayable",
					"type": "constructor"
				},
				{
					"inputs": [
						{
							"internalType": "address",
							"name": "owner",
							"type": "address"
						}
					],
					"name": "OwnableInvalidOwner",
					"type": "error"
				},
				{
					"inputs": [
						{
							"internalType": "address",
							"name": "account",
							"type": "address"
						}
					],
					"name": "OwnableUnauthorizedAccount",
					"type": "error"
				},
				{
					"anonymous": false,
					"inputs": [
						{
							"indexed": true,
							"internalType": "uint256",
							"name": "bookId",
							"type": "uint256"
						},
						{
							"indexed": false,
							"internalType": "string",
							"name": "title",
							"type": "string"
						},
						{
							"indexed": false,
							"internalType": "string",
							"name": "author",
							"type": "string"
						},
						{
							"indexed": false,
							"internalType": "uint96",
							"name": "price",
							"type": "uint96"
						},
						{
							"indexed": false,
							"internalType": "uint96",
							"name": "stock",
							"type": "uint96"
						}
					],
					"name": "BookAdded",
					"type": "event"
				},
				{
					"anonymous": false,
					"inputs": [
						{
							"indexed": false,
							"internalType": "uint256[]",
							"name": "bookIds",
							"type": "uint256[]"
						}
					],
					"name": "BookBatchRemoved",
					"type": "event"
				},
				{
					"anonymous": false,
					"inputs": [
						{
							"indexed": true,
							"internalType": "uint256",
							"name": "bookId",
							"type": "uint256"
						},
						{
							"indexed": true,
							"internalType": "address",
							"name": "buyer",
							"type": "address"
						},
						{
							"indexed": false,
							"internalType": "uint96",
							"name": "quantity",
							"type": "uint96"
						}
					],
					"name": "BookPurchased",
					"type": "event"
				},
				{
					"anonymous": false,
					"inputs": [
						{
							"indexed": true,
							"internalType": "uint256",
							"name": "bookId",
							"type": "uint256"
						}
					],
					"name": "BookRemoved",
					"type": "event"
				},
				{
					"anonymous": false,
					"inputs": [
						{
							"indexed": true,
							"internalType": "address",
							"name": "previousOwner",
							"type": "address"
						},
						{
							"indexed": true,
							"internalType": "address",
							"name": "newOwner",
							"type": "address"
						}
					],
					"name": "OwnershipTransferred",
					"type": "event"
				},
				{
					"inputs": [
						{
							"internalType": "uint256",
							"name": "_bookId",
							"type": "uint256"
						},
						{
							"internalType": "string",
							"name": "_title",
							"type": "string"
						},
						{
							"internalType": "string",
							"name": "_author",
							"type": "string"
						},
						{
							"internalType": "uint96",
							"name": "_stock",
							"type": "uint96"
						},
						{
							"internalType": "uint96",
							"name": "_price",
							"type": "uint96"
						}
					],
					"name": "addBook",
					"outputs": [],
					"stateMutability": "nonpayable",
					"type": "function"
				},
				{
					"inputs": [
						{
							"internalType": "uint256",
							"name": "",
							"type": "uint256"
						}
					],
					"name": "books",
					"outputs": [
						{
							"internalType": "uint96",
							"name": "stock",
							"type": "uint96"
						},
						{
							"internalType": "uint96",
							"name": "price",
							"type": "uint96"
						},
						{
							"internalType": "bool",
							"name": "isAvailable",
							"type": "bool"
						},
						{
							"internalType": "string",
							"name": "title",
							"type": "string"
						},
						{
							"internalType": "string",
							"name": "author",
							"type": "string"
						}
					],
					"stateMutability": "view",
					"type": "function"
				},
				{
					"inputs": [
						{
							"internalType": "uint256",
							"name": "_bookId",
							"type": "uint256"
						},
						{
							"internalType": "uint96",
							"name": "_quantity",
							"type": "uint96"
						}
					],
					"name": "buyBook",
					"outputs": [],
					"stateMutability": "payable",
					"type": "function"
				},
				{
					"inputs": [],
					"name": "getAllBooks",
					"outputs": [
						{
							"internalType": "uint256[]",
							"name": "",
							"type": "uint256[]"
						}
					],
					"stateMutability": "view",
					"type": "function"
				},
				{
					"inputs": [
						{
							"internalType": "uint256",
							"name": "_bookId",
							"type": "uint256"
						}
					],
					"name": "getBooks",
					"outputs": [
						{
							"internalType": "string",
							"name": "title",
							"type": "string"
						},
						{
							"internalType": "string",
							"name": "author",
							"type": "string"
						},
						{
							"internalType": "uint96",
							"name": "price",
							"type": "uint96"
						},
						{
							"internalType": "uint96",
							"name": "stock",
							"type": "uint96"
						},
						{
							"internalType": "bool",
							"name": "isAvailable",
							"type": "bool"
						}
					],
					"stateMutability": "view",
					"type": "function"
				},
				{
					"inputs": [],
					"name": "getOwnerBalance",
					"outputs": [
						{
							"internalType": "uint256",
							"name": "",
							"type": "uint256"
						}
					],
					"stateMutability": "view",
					"type": "function"
				},
				{
					"inputs": [],
					"name": "getTotalBooksSold",
					"outputs": [
						{
							"internalType": "uint96",
							"name": "",
							"type": "uint96"
						}
					],
					"stateMutability": "view",
					"type": "function"
				},
				{
					"inputs": [],
					"name": "owner",
					"outputs": [
						{
							"internalType": "address",
							"name": "",
							"type": "address"
						}
					],
					"stateMutability": "view",
					"type": "function"
				},
				{
					"inputs": [
						{
							"internalType": "uint256",
							"name": "_bookId",
							"type": "uint256"
						}
					],
					"name": "removeBook",
					"outputs": [],
					"stateMutability": "nonpayable",
					"type": "function"
				},
				{
					"inputs": [
						{
							"internalType": "uint256[]",
							"name": "_bookIds",
							"type": "uint256[]"
						}
					],
					"name": "removeBooks",
					"outputs": [],
					"stateMutability": "nonpayable",
					"type": "function"
				},
				{
					"inputs": [],
					"name": "renounceOwnership",
					"outputs": [],
					"stateMutability": "nonpayable",
					"type": "function"
				},
				{
					"inputs": [
						{
							"internalType": "address",
							"name": "newOwner",
							"type": "address"
						}
					],
					"name": "transferOwnership",
					"outputs": [],
					"stateMutability": "nonpayable",
					"type": "function"
				}
			],
			"devdoc": {
				"errors": {
					"OwnableInvalidOwner(address)": [
						{
							"details": "The owner is not a valid owner account. (eg. `address(0)`)"
						}
					],
					"OwnableUnauthorizedAccount(address)": [
						{
							"details": "The caller account is not authorized to perform an operation."
						}
					]
				},
				"kind": "dev",
				"methods": {
					"owner()": {
						"details": "Returns the address of the current owner."
					},
					"renounceOwnership()": {
						"details": "Leaves the contract without owner. It will not be possible to call `onlyOwner` functions. Can only be called by the current owner. NOTE: Renouncing ownership will leave the contract without an owner, thereby disabling any functionality that is only available to the owner."
					},
					"transferOwnership(address)": {
						"details": "Transfers ownership of the contract to a new account (`newOwner`). Can only be called by the current owner."
					}
				},
				"version": 1
			},
			"evm": {
				"assembly": "    /* \"contracts/BookStore.sol\":117:3805  contract BookStore is Ownable {... */\n  mstore(0x40, 0x80)\n    /* \"contracts/BookStore.sol\":824:860  constructor() Ownable(msg.sender) {} */\n  callvalue\n  dup1\n  iszero\n  tag_1\n  jumpi\n  0x00\n  dup1\n  revert\ntag_1:\n  pop\n    /* \"contracts/BookStore.sol\":846:856  msg.sender */\n  caller\n    /* \"@openzeppelin/contracts/access/Ownable.sol\":1297:1298  0 */\n  0x00\n    /* \"@openzeppelin/contracts/access/Ownable.sol\":1273:1299  initialOwner == address(0) */\n  0xffffffffffffffffffffffffffffffffffffffff\n  and\n    /* \"@openzeppelin/contracts/access/Ownable.sol\":1273:1285  initialOwner */\n  dup2\n    /* \"@openzeppelin/contracts/access/Ownable.sol\":1273:1299  initialOwner == address(0) */\n  0xffffffffffffffffffffffffffffffffffffffff\n  and\n  sub\n    /* \"@openzeppelin/contracts/access/Ownable.sol\":1269:1364  if (initialOwner == address(0)) {... */\n  tag_5\n  jumpi\n    /* \"@openzeppelin/contracts/access/Ownable.sol\":1350:1351  0 */\n  0x00\n    /* \"@openzeppelin/contracts/access/Ownable.sol\":1322:1353  OwnableInvalidOwner(address(0)) */\n  mload(0x40)\n  0x1e4fbdf700000000000000000000000000000000000000000000000000000000\n  dup2\n  mstore\n  0x04\n  add\n  tag_6\n  swap2\n  swap1\n  tag_7\n  jump\t// in\ntag_6:\n  mload(0x40)\n  dup1\n  swap2\n  sub\n  swap1\n  revert\n    /* \"@openzeppelin/contracts/access/Ownable.sol\":1269:1364  if (initialOwner == address(0)) {... */\ntag_5:\n    /* \"@openzeppelin/contracts/access/Ownable.sol\":1373:1405  _transferOwnership(initialOwner) */\n  tag_8\n    /* \"@openzeppelin/contracts/access/Ownable.sol\":1392:1404  initialOwner */\n  dup2\n    /* \"@openzeppelin/contracts/access/Ownable.sol\":1373:1391  _transferOwnership */\n  shl(0x20, tag_9)\n    /* \"@openzeppelin/contracts/access/Ownable.sol\":1373:1405  _transferOwnership(initialOwner) */\n  0x20\n  shr\n  jump\t// in\ntag_8:\n    /* \"@openzeppelin/contracts/access/Ownable.sol\":1225:1412  constructor(address initialOwner) {... */\n  pop\n    /* \"contracts/BookStore.sol\":117:3805  contract BookStore is Ownable {... */\n  jump(tag_11)\n    /* \"@openzeppelin/contracts/access/Ownable.sol\":2912:3099  function _transferOwnership(address newOwner) internal virtual {... */\ntag_9:\n    /* \"@openzeppelin/contracts/access/Ownable.sol\":2985:3001  address oldOwner */\n  0x00\n    /* \"@openzeppelin/contracts/access/Ownable.sol\":3004:3010  _owner */\n  dup1\n  0x00\n  swap1\n  sload\n  swap1\n  0x0100\n  exp\n  swap1\n  div\n  0xffffffffffffffffffffffffffffffffffffffff\n  and\n    /* \"@openzeppelin/contracts/access/Ownable.sol\":2985:3010  address oldOwner = _owner */\n  swap1\n  pop\n    /* \"@openzeppelin/contracts/access/Ownable.sol\":3029:3037  newOwner */\n  dup2\n    /* \"@openzeppelin/contracts/access/Ownable.sol\":3020:3026  _owner */\n  0x00\n  dup1\n    /* \"@openzeppelin/contracts/access/Ownable.sol\":3020:3037  _owner = newOwner */\n  0x0100\n  exp\n  dup2\n  sload\n  dup2\n  0xffffffffffffffffffffffffffffffffffffffff\n  mul\n  not\n  and\n  swap1\n  dup4\n  0xffffffffffffffffffffffffffffffffffffffff\n  and\n  mul\n  or\n  swap1\n  sstore\n  pop\n    /* \"@openzeppelin/contracts/access/Ownable.sol\":3083:3091  newOwner */\n  dup2\n    /* \"@openzeppelin/contracts/access/Ownable.sol\":3052:3092  OwnershipTransferred(oldOwner, newOwner) */\n  0xffffffffffffffffffffffffffffffffffffffff\n  and\n    /* \"@openzeppelin/contracts/access/Ownable.sol\":3073:3081  oldOwner */\n  dup2\n    /* \"@openzeppelin/contracts/access/Ownable.sol\":3052:3092  OwnershipTransferred(oldOwner, newOwner) */\n  0xffffffffffffffffffffffffffffffffffffffff\n  and\n  0x8be0079c531659141344cd1fd0a4f28419497f9722a3daafe3b4186f6b6457e0\n  mload(0x40)\n  mload(0x40)\n  dup1\n  swap2\n  sub\n  swap1\n  log3\n    /* \"@openzeppelin/contracts/access/Ownable.sol\":2975:3099  {... */\n  pop\n    /* \"@openzeppelin/contracts/access/Ownable.sol\":2912:3099  function _transferOwnership(address newOwner) internal virtual {... */\n  pop\n  jump\t// out\n    /* \"#utility.yul\":7:133   */\ntag_13:\n    /* \"#utility.yul\":44:51   */\n  0x00\n    /* \"#utility.yul\":84:126   */\n  0xffffffffffffffffffffffffffffffffffffffff\n    /* \"#utility.yul\":77:82   */\n  dup3\n    /* \"#utility.yul\":73:127   */\n  and\n    /* \"#utility.yul\":62:127   */\n  swap1\n  pop\n    /* \"#utility.yul\":7:133   */\n  swap2\n  swap1\n  pop\n  jump\t// out\n    /* \"#utility.yul\":139:235   */\ntag_14:\n    /* \"#utility.yul\":176:183   */\n  0x00\n    /* \"#utility.yul\":205:229   */\n  tag_19\n    /* \"#utility.yul\":223:228   */\n  dup3\n    /* \"#utility.yul\":205:229   */\n  tag_13\n  jump\t// in\ntag_19:\n    /* \"#utility.yul\":194:229   */\n  swap1\n  pop\n    /* \"#utility.yul\":139:235   */\n  swap2\n  swap1\n  pop\n  jump\t// out\n    /* \"#utility.yul\":241:359   */\ntag_15:\n    /* \"#utility.yul\":328:352   */\n  tag_21\n    /* \"#utility.yul\":346:351   */\n  dup2\n    /* \"#utility.yul\":328:352   */\n  tag_14\n  jump\t// in\ntag_21:\n    /* \"#utility.yul\":323:326   */\n  dup3\n    /* \"#utility.yul\":316:353   */\n  mstore\n    /* \"#utility.yul\":241:359   */\n  pop\n  pop\n  jump\t// out\n    /* \"#utility.yul\":365:587   */\ntag_7:\n    /* \"#utility.yul\":458:462   */\n  0x00\n    /* \"#utility.yul\":496:498   */\n  0x20\n    /* \"#utility.yul\":485:494   */\n  dup3\n    /* \"#utility.yul\":481:499   */\n  add\n    /* \"#utility.yul\":473:499   */\n  swap1\n  pop\n    /* \"#utility.yul\":509:580   */\n  tag_23\n    /* \"#utility.yul\":577:578   */\n  0x00\n    /* \"#utility.yul\":566:575   */\n  dup4\n    /* \"#utility.yul\":562:579   */\n  add\n    /* \"#utility.yul\":553:559   */\n  dup5\n    /* \"#utility.yul\":509:580   */\n  tag_15\n  jump\t// in\ntag_23:\n    /* \"#utility.yul\":365:587   */\n  swap3\n  swap2\n  pop\n  pop\n  jump\t// out\n    /* \"contracts/BookStore.sol\":117:3805  contract BookStore is Ownable {... */\ntag_11:\n  dataSize(sub_0)\n  dup1\n  dataOffset(sub_0)\n  0x00\n  codecopy\n  0x00\n  return\nstop\n\nsub_0: assembly {\n        /* \"contracts/BookStore.sol\":117:3805  contract BookStore is Ownable {... */\n      mstore(0x40, 0x80)\n      jumpi(tag_1, lt(calldatasize, 0x04))\n      shr(0xe0, calldataload(0x00))\n      dup1\n      0x8da5cb5b\n      gt\n      tag_14\n      jumpi\n      dup1\n      0x8da5cb5b\n      eq\n      tag_8\n      jumpi\n      dup1\n      0x9bd30883\n      eq\n      tag_9\n      jumpi\n      dup1\n      0xbec0d799\n      eq\n      tag_10\n      jumpi\n      dup1\n      0xf2fde38b\n      eq\n      tag_11\n      jumpi\n      dup1\n      0xf46de7d4\n      eq\n      tag_12\n      jumpi\n      dup1\n      0xf98520de\n      eq\n      tag_13\n      jumpi\n      jump(tag_1)\n    tag_14:\n      dup1\n      0x21e6de9d\n      eq\n      tag_2\n      jumpi\n      dup1\n      0x354528e8\n      eq\n      tag_3\n      jumpi\n      dup1\n      0x590791f2\n      eq\n      tag_4\n      jumpi\n      dup1\n      0x5ac3e19e\n      eq\n      tag_5\n      jumpi\n      dup1\n      0x68744046\n      eq\n      tag_6\n      jumpi\n      dup1\n      0x715018a6\n      eq\n      tag_7\n      jumpi\n    tag_1:\n      0x00\n      dup1\n      revert\n        /* \"contracts/BookStore.sol\":868:1354  function addBook(uint256 _bookId, string calldata _title, string calldata _author, uint96 _stock, uint96 _price) external {... */\n    tag_2:\n      callvalue\n      dup1\n      iszero\n      tag_15\n      jumpi\n      0x00\n      dup1\n      revert\n    tag_15:\n      pop\n      tag_16\n      0x04\n      dup1\n      calldatasize\n      sub\n      dup2\n      add\n      swap1\n      tag_17\n      swap2\n      swap1\n      tag_18\n      jump\t// in\n    tag_17:\n      tag_19\n      jump\t// in\n    tag_16:\n      stop\n        /* \"contracts/BookStore.sol\":1362:1459  function getAllBooks() external view returns (uint256[] memory) {... */\n    tag_3:\n      callvalue\n      dup1\n      iszero\n      tag_20\n      jumpi\n      0x00\n      dup1\n      revert\n    tag_20:\n      pop\n      tag_21\n      tag_22\n      jump\t// in\n    tag_21:\n      mload(0x40)\n      tag_23\n      swap2\n      swap1\n      tag_24\n      jump\t// in\n    tag_23:\n      mload(0x40)\n      dup1\n      swap2\n      sub\n      swap1\n      return\n        /* \"contracts/BookStore.sol\":2690:2799  function getOwnerBalance() external view returns (uint256) {... */\n    tag_4:\n      callvalue\n      dup1\n      iszero\n      tag_25\n      jumpi\n      0x00\n      dup1\n      revert\n    tag_25:\n      pop\n      tag_26\n      tag_27\n      jump\t// in\n    tag_26:\n      mload(0x40)\n      tag_28\n      swap2\n      swap1\n      tag_29\n      jump\t// in\n    tag_28:\n      mload(0x40)\n      dup1\n      swap2\n      sub\n      swap1\n      return\n        /* \"contracts/BookStore.sol\":2915:3200  function getBooks(uint256 _bookId) external view returns (string memory title, string memory author, uint96 price, uint96 stock, bool isAvailable) {... */\n    tag_5:\n      callvalue\n      dup1\n      iszero\n      tag_30\n      jumpi\n      0x00\n      dup1\n      revert\n    tag_30:\n      pop\n      tag_31\n      0x04\n      dup1\n      calldatasize\n      sub\n      dup2\n      add\n      swap1\n      tag_32\n      swap2\n      swap1\n      tag_33\n      jump\t// in\n    tag_32:\n      tag_34\n      jump\t// in\n    tag_31:\n      mload(0x40)\n      tag_35\n      swap6\n      swap5\n      swap4\n      swap3\n      swap2\n      swap1\n      tag_36\n      jump\t// in\n    tag_35:\n      mload(0x40)\n      dup1\n      swap2\n      sub\n      swap1\n      return\n        /* \"contracts/BookStore.sol\":455:492  mapping(uint256 => Book) public books */\n    tag_6:\n      callvalue\n      dup1\n      iszero\n      tag_37\n      jumpi\n      0x00\n      dup1\n      revert\n    tag_37:\n      pop\n      tag_38\n      0x04\n      dup1\n      calldatasize\n      sub\n      dup2\n      add\n      swap1\n      tag_39\n      swap2\n      swap1\n      tag_33\n      jump\t// in\n    tag_39:\n      tag_40\n      jump\t// in\n    tag_38:\n      mload(0x40)\n      tag_41\n      swap6\n      swap5\n      swap4\n      swap3\n      swap2\n      swap1\n      tag_42\n      jump\t// in\n    tag_41:\n      mload(0x40)\n      dup1\n      swap2\n      sub\n      swap1\n      return\n        /* \"@openzeppelin/contracts/access/Ownable.sol\":2293:2394  function renounceOwnership() public virtual onlyOwner {... */\n    tag_7:\n      callvalue\n      dup1\n      iszero\n      tag_43\n      jumpi\n      0x00\n      dup1\n      revert\n    tag_43:\n      pop\n      tag_44\n      tag_45\n      jump\t// in\n    tag_44:\n      stop\n        /* \"@openzeppelin/contracts/access/Ownable.sol\":1638:1723  function owner() public view virtual returns (address) {... */\n    tag_8:\n      callvalue\n      dup1\n      iszero\n      tag_46\n      jumpi\n      0x00\n      dup1\n      revert\n    tag_46:\n      pop\n      tag_47\n      tag_48\n      jump\t// in\n    tag_47:\n      mload(0x40)\n      tag_49\n      swap2\n      swap1\n      tag_50\n      jump\t// in\n    tag_49:\n      mload(0x40)\n      dup1\n      swap2\n      sub\n      swap1\n      return\n        /* \"contracts/BookStore.sol\":2807:2907  function getTotalBooksSold() external view returns (uint96) {... */\n    tag_9:\n      callvalue\n      dup1\n      iszero\n      tag_51\n      jumpi\n      0x00\n      dup1\n      revert\n    tag_51:\n      pop\n      tag_52\n      tag_53\n      jump\t// in\n    tag_52:\n      mload(0x40)\n      tag_54\n      swap2\n      swap1\n      tag_55\n      jump\t// in\n    tag_54:\n      mload(0x40)\n      dup1\n      swap2\n      sub\n      swap1\n      return\n        /* \"contracts/BookStore.sol\":2214:2682  function removeBook(uint256 _bookId) external onlyOwner {... */\n    tag_10:\n      callvalue\n      dup1\n      iszero\n      tag_56\n      jumpi\n      0x00\n      dup1\n      revert\n    tag_56:\n      pop\n      tag_57\n      0x04\n      dup1\n      calldatasize\n      sub\n      dup2\n      add\n      swap1\n      tag_58\n      swap2\n      swap1\n      tag_33\n      jump\t// in\n    tag_58:\n      tag_59\n      jump\t// in\n    tag_57:\n      stop\n        /* \"@openzeppelin/contracts/access/Ownable.sol\":2543:2758  function transferOwnership(address newOwner) public virtual onlyOwner {... */\n    tag_11:\n      callvalue\n      dup1\n      iszero\n      tag_60\n      jumpi\n      0x00\n      dup1\n      revert\n    tag_60:\n      pop\n      tag_61\n      0x04\n      dup1\n      calldatasize\n      sub\n      dup2\n      add\n      swap1\n      tag_62\n      swap2\n      swap1\n      tag_63\n      jump\t// in\n    tag_62:\n      tag_64\n      jump\t// in\n    tag_61:\n      stop\n        /* \"contracts/BookStore.sol\":3208:3802  function buyBook(uint256 _bookId, uint96 _quantity) external payable {... */\n    tag_12:\n      tag_65\n      0x04\n      dup1\n      calldatasize\n      sub\n      dup2\n      add\n      swap1\n      tag_66\n      swap2\n      swap1\n      tag_67\n      jump\t// in\n    tag_66:\n      tag_68\n      jump\t// in\n    tag_65:\n      stop\n        /* \"contracts/BookStore.sol\":1467:2206  function removeBooks(uint256[] calldata _bookIds) external onlyOwner {... */\n    tag_13:\n      callvalue\n      dup1\n      iszero\n      tag_69\n      jumpi\n      0x00\n      dup1\n      revert\n    tag_69:\n      pop\n      tag_70\n      0x04\n      dup1\n      calldatasize\n      sub\n      dup2\n      add\n      swap1\n      tag_71\n      swap2\n      swap1\n      tag_72\n      jump\t// in\n    tag_71:\n      tag_73\n      jump\t// in\n    tag_70:\n      stop\n        /* \"contracts/BookStore.sol\":868:1354  function addBook(uint256 _bookId, string calldata _title, string calldata _author, uint96 _stock, uint96 _price) external {... */\n    tag_19:\n        /* \"contracts/BookStore.sol\":1033:1034  0 */\n      0x00\n        /* \"contracts/BookStore.sol\":1009:1014  books */\n      0x01\n        /* \"contracts/BookStore.sol\":1009:1023  books[_bookId] */\n      0x00\n        /* \"contracts/BookStore.sol\":1015:1022  _bookId */\n      dup10\n        /* \"contracts/BookStore.sol\":1009:1023  books[_bookId] */\n      dup2\n      mstore\n      0x20\n      add\n      swap1\n      dup2\n      mstore\n      0x20\n      add\n      0x00\n      keccak256\n        /* \"contracts/BookStore.sol\":1009:1029  books[_bookId].price */\n      0x00\n      add\n      0x0c\n      swap1\n      sload\n      swap1\n      0x0100\n      exp\n      swap1\n      div\n      0xffffffffffffffffffffffff\n      and\n        /* \"contracts/BookStore.sol\":1009:1034  books[_bookId].price == 0 */\n      0xffffffffffffffffffffffff\n      and\n      eq\n        /* \"contracts/BookStore.sol\":1001:1050  require(books[_bookId].price == 0, \"Book exists\") */\n      tag_75\n      jumpi\n      mload(0x40)\n      0x08c379a000000000000000000000000000000000000000000000000000000000\n      dup2\n      mstore\n      0x04\n      add\n      tag_76\n      swap1\n      tag_77\n      jump\t// in\n    tag_76:\n      mload(0x40)\n      dup1\n      swap2\n      sub\n      swap1\n      revert\n    tag_75:\n        /* \"contracts/BookStore.sol\":1078:1247  Book({... */\n      mload(0x40)\n      dup1\n      0xa0\n      add\n      0x40\n      mstore\n      dup1\n        /* \"contracts/BookStore.sol\":1105:1111  _stock */\n      dup4\n        /* \"contracts/BookStore.sol\":1078:1247  Book({... */\n      0xffffffffffffffffffffffff\n      and\n      dup2\n      mstore\n      0x20\n      add\n        /* \"contracts/BookStore.sol\":1133:1139  _price */\n      dup3\n        /* \"contracts/BookStore.sol\":1078:1247  Book({... */\n      0xffffffffffffffffffffffff\n      and\n      dup2\n      mstore\n      0x20\n      add\n        /* \"contracts/BookStore.sol\":1176:1177  0 */\n      0x00\n        /* \"contracts/BookStore.sol\":1167:1173  _stock */\n      dup5\n        /* \"contracts/BookStore.sol\":1167:1177  _stock > 0 */\n      0xffffffffffffffffffffffff\n      and\n      gt\n        /* \"contracts/BookStore.sol\":1078:1247  Book({... */\n      iszero\n      iszero\n      dup2\n      mstore\n      0x20\n      add\n        /* \"contracts/BookStore.sol\":1199:1205  _title */\n      dup8\n      dup8\n        /* \"contracts/BookStore.sol\":1078:1247  Book({... */\n      dup1\n      dup1\n      0x1f\n      add\n      0x20\n      dup1\n      swap2\n      div\n      mul\n      0x20\n      add\n      mload(0x40)\n      swap1\n      dup2\n      add\n      0x40\n      mstore\n      dup1\n      swap4\n      swap3\n      swap2\n      swap1\n      dup2\n      dup2\n      mstore\n      0x20\n      add\n      dup4\n      dup4\n      dup1\n      dup3\n      dup5\n      calldatacopy\n      0x00\n      dup2\n      dup5\n      add\n      mstore\n      not(0x1f)\n      0x1f\n      dup3\n      add\n      and\n      swap1\n      pop\n      dup1\n      dup4\n      add\n      swap3\n      pop\n      pop\n      pop\n      pop\n      pop\n      pop\n      pop\n      dup2\n      mstore\n      0x20\n      add\n        /* \"contracts/BookStore.sol\":1228:1235  _author */\n      dup6\n      dup6\n        /* \"contracts/BookStore.sol\":1078:1247  Book({... */\n      dup1\n      dup1\n      0x1f\n      add\n      0x20\n      dup1\n      swap2\n      div\n      mul\n      0x20\n      add\n      mload(0x40)\n      swap1\n      dup2\n      add\n      0x40\n      mstore\n      dup1\n      swap4\n      swap3\n      swap2\n      swap1\n      dup2\n      dup2\n      mstore\n      0x20\n      add\n      dup4\n      dup4\n      dup1\n      dup3\n      dup5\n      calldatacopy\n      0x00\n      dup2\n      dup5\n      add\n      mstore\n      not(0x1f)\n      0x1f\n      dup3\n      add\n      and\n      swap1\n      pop\n      dup1\n      dup4\n      add\n      swap3\n      pop\n      pop\n      pop\n      pop\n      pop\n      pop\n      pop\n      dup2\n      mstore\n      pop\n        /* \"contracts/BookStore.sol\":1061:1066  books */\n      0x01\n        /* \"contracts/BookStore.sol\":1061:1075  books[_bookId] */\n      0x00\n        /* \"contracts/BookStore.sol\":1067:1074  _bookId */\n      dup10\n        /* \"contracts/BookStore.sol\":1061:1075  books[_bookId] */\n      dup2\n      mstore\n      0x20\n      add\n      swap1\n      dup2\n      mstore\n      0x20\n      add\n      0x00\n      keccak256\n        /* \"contracts/BookStore.sol\":1061:1247  books[_bookId] = Book({... */\n      0x00\n      dup3\n      add\n      mload\n      dup2\n      0x00\n      add\n      exp(0x0100, 0x00)\n      dup2\n      sload\n      dup2\n      0xffffffffffffffffffffffff\n      mul\n      not\n      and\n      swap1\n      dup4\n      0xffffffffffffffffffffffff\n      and\n      mul\n      or\n      swap1\n      sstore\n      pop\n      0x20\n      dup3\n      add\n      mload\n      dup2\n      0x00\n      add\n      exp(0x0100, 0x0c)\n      dup2\n      sload\n      dup2\n      0xffffffffffffffffffffffff\n      mul\n      not\n      and\n      swap1\n      dup4\n      0xffffffffffffffffffffffff\n      and\n      mul\n      or\n      swap1\n      sstore\n      pop\n      0x40\n      dup3\n      add\n      mload\n      dup2\n      0x00\n      add\n      exp(0x0100, 0x18)\n      dup2\n      sload\n      dup2\n      0xff\n      mul\n      not\n      and\n      swap1\n      dup4\n      iszero\n      iszero\n      mul\n      or\n      swap1\n      sstore\n      pop\n      0x60\n      dup3\n      add\n      mload\n      dup2\n      0x01\n      add\n      swap1\n      dup2\n      tag_78\n      swap2\n      swap1\n      tag_79\n      jump\t// in\n    tag_78:\n      pop\n      0x80\n      dup3\n      add\n      mload\n      dup2\n      0x02\n      add\n      swap1\n      dup2\n      tag_80\n      swap2\n      swap1\n      tag_79\n      jump\t// in\n    tag_80:\n      pop\n      swap1\n      pop\n      pop\n        /* \"contracts/BookStore.sol\":1258:1265  bookIds */\n      0x02\n        /* \"contracts/BookStore.sol\":1271:1278  _bookId */\n      dup8\n        /* \"contracts/BookStore.sol\":1258:1279  bookIds.push(_bookId) */\n      swap1\n      dup1\n      0x01\n      dup2\n      sload\n      add\n      dup1\n      dup3\n      sstore\n      dup1\n      swap2\n      pop\n      pop\n      0x01\n      swap1\n      sub\n      swap1\n      0x00\n      mstore\n      keccak256(0x00, 0x20)\n      add\n      0x00\n      swap1\n      swap2\n      swap1\n      swap2\n      swap1\n      swap2\n      pop\n      sstore\n        /* \"contracts/BookStore.sol\":1305:1312  _bookId */\n      dup7\n        /* \"contracts/BookStore.sol\":1295:1346  BookAdded(_bookId, _title, _author, _price, _stock) */\n      0x907463480edcb1016ad34b5c752a56e18c2aea6ed1dd0e18ec287d63d670d88f\n        /* \"contracts/BookStore.sol\":1314:1320  _title */\n      dup8\n      dup8\n        /* \"contracts/BookStore.sol\":1322:1329  _author */\n      dup8\n      dup8\n        /* \"contracts/BookStore.sol\":1331:1337  _price */\n      dup7\n        /* \"contracts/BookStore.sol\":1339:1345  _stock */\n      dup9\n        /* \"contracts/BookStore.sol\":1295:1346  BookAdded(_bookId, _title, _author, _price, _stock) */\n      mload(0x40)\n      tag_82\n      swap7\n      swap6\n      swap5\n      swap4\n      swap3\n      swap2\n      swap1\n      tag_83\n      jump\t// in\n    tag_82:\n      mload(0x40)\n      dup1\n      swap2\n      sub\n      swap1\n      log2\n        /* \"contracts/BookStore.sol\":868:1354  function addBook(uint256 _bookId, string calldata _title, string calldata _author, uint96 _stock, uint96 _price) external {... */\n      pop\n      pop\n      pop\n      pop\n      pop\n      pop\n      pop\n      jump\t// out\n        /* \"contracts/BookStore.sol\":1362:1459  function getAllBooks() external view returns (uint256[] memory) {... */\n    tag_22:\n        /* \"contracts/BookStore.sol\":1408:1424  uint256[] memory */\n      0x60\n        /* \"contracts/BookStore.sol\":1444:1451  bookIds */\n      0x02\n        /* \"contracts/BookStore.sol\":1437:1451  return bookIds */\n      dup1\n      sload\n      dup1\n      0x20\n      mul\n      0x20\n      add\n      mload(0x40)\n      swap1\n      dup2\n      add\n      0x40\n      mstore\n      dup1\n      swap3\n      swap2\n      swap1\n      dup2\n      dup2\n      mstore\n      0x20\n      add\n      dup3\n      dup1\n      sload\n      dup1\n      iszero\n      tag_85\n      jumpi\n      0x20\n      mul\n      dup3\n      add\n      swap2\n      swap1\n      0x00\n      mstore\n      keccak256(0x00, 0x20)\n      swap1\n    tag_86:\n      dup2\n      sload\n      dup2\n      mstore\n      0x20\n      add\n      swap1\n      0x01\n      add\n      swap1\n      dup1\n      dup4\n      gt\n      tag_86\n      jumpi\n    tag_85:\n      pop\n      pop\n      pop\n      pop\n      pop\n      swap1\n      pop\n        /* \"contracts/BookStore.sol\":1362:1459  function getAllBooks() external view returns (uint256[] memory) {... */\n      swap1\n      jump\t// out\n        /* \"contracts/BookStore.sol\":2690:2799  function getOwnerBalance() external view returns (uint256) {... */\n    tag_27:\n        /* \"contracts/BookStore.sol\":2740:2747  uint256 */\n      0x00\n        /* \"contracts/BookStore.sol\":2775:2782  owner() */\n      tag_88\n        /* \"contracts/BookStore.sol\":2775:2780  owner */\n      tag_48\n        /* \"contracts/BookStore.sol\":2775:2782  owner() */\n      jump\t// in\n    tag_88:\n        /* \"contracts/BookStore.sol\":2767:2791  address(owner()).balance */\n      0xffffffffffffffffffffffffffffffffffffffff\n      and\n      balance\n        /* \"contracts/BookStore.sol\":2760:2791  return address(owner()).balance */\n      swap1\n      pop\n        /* \"contracts/BookStore.sol\":2690:2799  function getOwnerBalance() external view returns (uint256) {... */\n      swap1\n      jump\t// out\n        /* \"contracts/BookStore.sol\":2915:3200  function getBooks(uint256 _bookId) external view returns (string memory title, string memory author, uint96 price, uint96 stock, bool isAvailable) {... */\n    tag_34:\n        /* \"contracts/BookStore.sol\":2973:2992  string memory title */\n      0x60\n        /* \"contracts/BookStore.sol\":2994:3014  string memory author */\n      dup1\n        /* \"contracts/BookStore.sol\":3016:3028  uint96 price */\n      0x00\n        /* \"contracts/BookStore.sol\":3030:3042  uint96 stock */\n      dup1\n        /* \"contracts/BookStore.sol\":3044:3060  bool isAvailable */\n      0x00\n        /* \"contracts/BookStore.sol\":3073:3090  Book storage book */\n      dup1\n        /* \"contracts/BookStore.sol\":3093:3098  books */\n      0x01\n        /* \"contracts/BookStore.sol\":3093:3107  books[_bookId] */\n      0x00\n        /* \"contracts/BookStore.sol\":3099:3106  _bookId */\n      dup9\n        /* \"contracts/BookStore.sol\":3093:3107  books[_bookId] */\n      dup2\n      mstore\n      0x20\n      add\n      swap1\n      dup2\n      mstore\n      0x20\n      add\n      0x00\n      keccak256\n        /* \"contracts/BookStore.sol\":3073:3107  Book storage book = books[_bookId] */\n      swap1\n      pop\n        /* \"contracts/BookStore.sol\":3126:3130  book */\n      dup1\n        /* \"contracts/BookStore.sol\":3126:3136  book.title */\n      0x01\n      add\n        /* \"contracts/BookStore.sol\":3138:3142  book */\n      dup2\n        /* \"contracts/BookStore.sol\":3138:3149  book.author */\n      0x02\n      add\n        /* \"contracts/BookStore.sol\":3151:3155  book */\n      dup3\n        /* \"contracts/BookStore.sol\":3151:3161  book.price */\n      0x00\n      add\n      0x0c\n      swap1\n      sload\n      swap1\n      0x0100\n      exp\n      swap1\n      div\n      0xffffffffffffffffffffffff\n      and\n        /* \"contracts/BookStore.sol\":3163:3167  book */\n      dup4\n        /* \"contracts/BookStore.sol\":3163:3173  book.stock */\n      0x00\n      add\n      0x00\n      swap1\n      sload\n      swap1\n      0x0100\n      exp\n      swap1\n      div\n      0xffffffffffffffffffffffff\n      and\n        /* \"contracts/BookStore.sol\":3175:3179  book */\n      dup5\n        /* \"contracts/BookStore.sol\":3175:3191  book.isAvailable */\n      0x00\n      add\n      0x18\n      swap1\n      sload\n      swap1\n      0x0100\n      exp\n      swap1\n      div\n      0xff\n      and\n        /* \"contracts/BookStore.sol\":3118:3192  return (book.title, book.author, book.price, book.stock, book.isAvailable) */\n      dup5\n      dup1\n      sload\n      tag_90\n      swap1\n      tag_91\n      jump\t// in\n    tag_90:\n      dup1\n      0x1f\n      add\n      0x20\n      dup1\n      swap2\n      div\n      mul\n      0x20\n      add\n      mload(0x40)\n      swap1\n      dup2\n      add\n      0x40\n      mstore\n      dup1\n      swap3\n      swap2\n      swap1\n      dup2\n      dup2\n      mstore\n      0x20\n      add\n      dup3\n      dup1\n      sload\n      tag_92\n      swap1\n      tag_91\n      jump\t// in\n    tag_92:\n      dup1\n      iszero\n      tag_93\n      jumpi\n      dup1\n      0x1f\n      lt\n      tag_94\n      jumpi\n      0x0100\n      dup1\n      dup4\n      sload\n      div\n      mul\n      dup4\n      mstore\n      swap2\n      0x20\n      add\n      swap2\n      jump(tag_93)\n    tag_94:\n      dup3\n      add\n      swap2\n      swap1\n      0x00\n      mstore\n      keccak256(0x00, 0x20)\n      swap1\n    tag_95:\n      dup2\n      sload\n      dup2\n      mstore\n      swap1\n      0x01\n      add\n      swap1\n      0x20\n      add\n      dup1\n      dup4\n      gt\n      tag_95\n      jumpi\n      dup3\n      swap1\n      sub\n      0x1f\n      and\n      dup3\n      add\n      swap2\n    tag_93:\n      pop\n      pop\n      pop\n      pop\n      pop\n      swap5\n      pop\n      dup4\n      dup1\n      sload\n      tag_96\n      swap1\n      tag_91\n      jump\t// in\n    tag_96:\n      dup1\n      0x1f\n      add\n      0x20\n      dup1\n      swap2\n      div\n      mul\n      0x20\n      add\n      mload(0x40)\n      swap1\n      dup2\n      add\n      0x40\n      mstore\n      dup1\n      swap3\n      swap2\n      swap1\n      dup2\n      dup2\n      mstore\n      0x20\n      add\n      dup3\n      dup1\n      sload\n      tag_97\n      swap1\n      tag_91\n      jump\t// in\n    tag_97:\n      dup1\n      iszero\n      tag_98\n      jumpi\n      dup1\n      0x1f\n      lt\n      tag_99\n      jumpi\n      0x0100\n      dup1\n      dup4\n      sload\n      div\n      mul\n      dup4\n      mstore\n      swap2\n      0x20\n      add\n      swap2\n      jump(tag_98)\n    tag_99:\n      dup3\n      add\n      swap2\n      swap1\n      0x00\n      mstore\n      keccak256(0x00, 0x20)\n      swap1\n    tag_100:\n      dup2\n      sload\n      dup2\n      mstore\n      swap1\n      0x01\n      add\n      swap1\n      0x20\n      add\n      dup1\n      dup4\n      gt\n      tag_100\n      jumpi\n      dup3\n      swap1\n      sub\n      0x1f\n      and\n      dup3\n      add\n      swap2\n    tag_98:\n      pop\n      pop\n      pop\n      pop\n      pop\n      swap4\n      pop\n      swap6\n      pop\n      swap6\n      pop\n      swap6\n      pop\n      swap6\n      pop\n      swap6\n      pop\n      pop\n        /* \"contracts/BookStore.sol\":2915:3200  function getBooks(uint256 _bookId) external view returns (string memory title, string memory author, uint96 price, uint96 stock, bool isAvailable) {... */\n      swap2\n      swap4\n      swap6\n      swap1\n      swap3\n      swap5\n      pop\n      jump\t// out\n        /* \"contracts/BookStore.sol\":455:492  mapping(uint256 => Book) public books */\n    tag_40:\n      mstore(0x20, 0x01)\n      dup1\n      0x00\n      mstore\n      keccak256(0x00, 0x40)\n      0x00\n      swap2\n      pop\n      swap1\n      pop\n      dup1\n      0x00\n      add\n      0x00\n      swap1\n      sload\n      swap1\n      0x0100\n      exp\n      swap1\n      div\n      0xffffffffffffffffffffffff\n      and\n      swap1\n      dup1\n      0x00\n      add\n      0x0c\n      swap1\n      sload\n      swap1\n      0x0100\n      exp\n      swap1\n      div\n      0xffffffffffffffffffffffff\n      and\n      swap1\n      dup1\n      0x00\n      add\n      0x18\n      swap1\n      sload\n      swap1\n      0x0100\n      exp\n      swap1\n      div\n      0xff\n      and\n      swap1\n      dup1\n      0x01\n      add\n      dup1\n      sload\n      tag_101\n      swap1\n      tag_91\n      jump\t// in\n    tag_101:\n      dup1\n      0x1f\n      add\n      0x20\n      dup1\n      swap2\n      div\n      mul\n      0x20\n      add\n      mload(0x40)\n      swap1\n      dup2\n      add\n      0x40\n      mstore\n      dup1\n      swap3\n      swap2\n      swap1\n      dup2\n      dup2\n      mstore\n      0x20\n      add\n      dup3\n      dup1\n      sload\n      tag_102\n      swap1\n      tag_91\n      jump\t// in\n    tag_102:\n      dup1\n      iszero\n      tag_103\n      jumpi\n      dup1\n      0x1f\n      lt\n      tag_104\n      jumpi\n      0x0100\n      dup1\n      dup4\n      sload\n      div\n      mul\n      dup4\n      mstore\n      swap2\n      0x20\n      add\n      swap2\n      jump(tag_103)\n    tag_104:\n      dup3\n      add\n      swap2\n      swap1\n      0x00\n      mstore\n      keccak256(0x00, 0x20)\n      swap1\n    tag_105:\n      dup2\n      sload\n      dup2\n      mstore\n      swap1\n      0x01\n      add\n      swap1\n      0x20\n      add\n      dup1\n      dup4\n      gt\n      tag_105\n      jumpi\n      dup3\n      swap1\n      sub\n      0x1f\n      and\n      dup3\n      add\n      swap2\n    tag_103:\n      pop\n      pop\n      pop\n      pop\n      pop\n      swap1\n      dup1\n      0x02\n      add\n      dup1\n      sload\n      tag_106\n      swap1\n      tag_91\n      jump\t// in\n    tag_106:\n      dup1\n      0x1f\n      add\n      0x20\n      dup1\n      swap2\n      div\n      mul\n      0x20\n      add\n      mload(0x40)\n      swap1\n      dup2\n      add\n      0x40\n      mstore\n      dup1\n      swap3\n      swap2\n      swap1\n      dup2\n      dup2\n      mstore\n      0x20\n      add\n      dup3\n      dup1\n      sload\n      tag_107\n      swap1\n      tag_91\n      jump\t// in\n    tag_107:\n      dup1\n      iszero\n      tag_108\n      jumpi\n      dup1\n      0x1f\n      lt\n      tag_109\n      jumpi\n      0x0100\n      dup1\n      dup4\n      sload\n      div\n      mul\n      dup4\n      mstore\n      swap2\n      0x20\n      add\n      swap2\n      jump(tag_108)\n    tag_109:\n      dup3\n      add\n      swap2\n      swap1\n      0x00\n      mstore\n      keccak256(0x00, 0x20)\n      swap1\n    tag_110:\n      dup2\n      sload\n      dup2\n      mstore\n      swap1\n      0x01\n      add\n      swap1\n      0x20\n      add\n      dup1\n      dup4\n      gt\n      tag_110\n      jumpi\n      dup3\n      swap1\n      sub\n      0x1f\n      and\n      dup3\n      add\n      swap2\n    tag_108:\n      pop\n      pop\n      pop\n      pop\n      pop\n      swap1\n      pop\n      dup6\n      jump\t// out\n        /* \"@openzeppelin/contracts/access/Ownable.sol\":2293:2394  function renounceOwnership() public virtual onlyOwner {... */\n    tag_45:\n        /* \"@openzeppelin/contracts/access/Ownable.sol\":1531:1544  _checkOwner() */\n      tag_112\n        /* \"@openzeppelin/contracts/access/Ownable.sol\":1531:1542  _checkOwner */\n      tag_113\n        /* \"@openzeppelin/contracts/access/Ownable.sol\":1531:1544  _checkOwner() */\n      jump\t// in\n    tag_112:\n        /* \"@openzeppelin/contracts/access/Ownable.sol\":2357:2387  _transferOwnership(address(0)) */\n      tag_115\n        /* \"@openzeppelin/contracts/access/Ownable.sol\":2384:2385  0 */\n      0x00\n        /* \"@openzeppelin/contracts/access/Ownable.sol\":2357:2375  _transferOwnership */\n      tag_116\n        /* \"@openzeppelin/contracts/access/Ownable.sol\":2357:2387  _transferOwnership(address(0)) */\n      jump\t// in\n    tag_115:\n        /* \"@openzeppelin/contracts/access/Ownable.sol\":2293:2394  function renounceOwnership() public virtual onlyOwner {... */\n      jump\t// out\n        /* \"@openzeppelin/contracts/access/Ownable.sol\":1638:1723  function owner() public view virtual returns (address) {... */\n    tag_48:\n        /* \"@openzeppelin/contracts/access/Ownable.sol\":1684:1691  address */\n      0x00\n        /* \"@openzeppelin/contracts/access/Ownable.sol\":1710:1716  _owner */\n      dup1\n      0x00\n      swap1\n      sload\n      swap1\n      0x0100\n      exp\n      swap1\n      div\n      0xffffffffffffffffffffffffffffffffffffffff\n      and\n        /* \"@openzeppelin/contracts/access/Ownable.sol\":1703:1716  return _owner */\n      swap1\n      pop\n        /* \"@openzeppelin/contracts/access/Ownable.sol\":1638:1723  function owner() public view virtual returns (address) {... */\n      swap1\n      jump\t// out\n        /* \"contracts/BookStore.sol\":2807:2907  function getTotalBooksSold() external view returns (uint96) {... */\n    tag_53:\n        /* \"contracts/BookStore.sol\":2859:2865  uint96 */\n      0x00\n        /* \"contracts/BookStore.sol\":2885:2899  totalBooksSold */\n      dup1\n      0x14\n      swap1\n      sload\n      swap1\n      0x0100\n      exp\n      swap1\n      div\n      0xffffffffffffffffffffffff\n      and\n        /* \"contracts/BookStore.sol\":2878:2899  return totalBooksSold */\n      swap1\n      pop\n        /* \"contracts/BookStore.sol\":2807:2907  function getTotalBooksSold() external view returns (uint96) {... */\n      swap1\n      jump\t// out\n        /* \"contracts/BookStore.sol\":2214:2682  function removeBook(uint256 _bookId) external onlyOwner {... */\n    tag_59:\n        /* \"@openzeppelin/contracts/access/Ownable.sol\":1531:1544  _checkOwner() */\n      tag_120\n        /* \"@openzeppelin/contracts/access/Ownable.sol\":1531:1542  _checkOwner */\n      tag_113\n        /* \"@openzeppelin/contracts/access/Ownable.sol\":1531:1544  _checkOwner() */\n      jump\t// in\n    tag_120:\n        /* \"contracts/BookStore.sol\":2313:2314  0 */\n      0x00\n        /* \"contracts/BookStore.sol\":2289:2294  books */\n      0x01\n        /* \"contracts/BookStore.sol\":2289:2303  books[_bookId] */\n      0x00\n        /* \"contracts/BookStore.sol\":2295:2302  _bookId */\n      dup4\n        /* \"contracts/BookStore.sol\":2289:2303  books[_bookId] */\n      dup2\n      mstore\n      0x20\n      add\n      swap1\n      dup2\n      mstore\n      0x20\n      add\n      0x00\n      keccak256\n        /* \"contracts/BookStore.sol\":2289:2309  books[_bookId].price */\n      0x00\n      add\n      0x0c\n      swap1\n      sload\n      swap1\n      0x0100\n      exp\n      swap1\n      div\n      0xffffffffffffffffffffffff\n      and\n        /* \"contracts/BookStore.sol\":2289:2314  books[_bookId].price != 0 */\n      0xffffffffffffffffffffffff\n      and\n      sub\n        /* \"contracts/BookStore.sol\":2281:2333  require(books[_bookId].price != 0, \"Book not exist\") */\n      tag_122\n      jumpi\n      mload(0x40)\n      0x08c379a000000000000000000000000000000000000000000000000000000000\n      dup2\n      mstore\n      0x04\n      add\n      tag_123\n      swap1\n      tag_124\n      jump\t// in\n    tag_123:\n      mload(0x40)\n      dup1\n      swap2\n      sub\n      swap1\n      revert\n    tag_122:\n        /* \"contracts/BookStore.sol\":2351:2356  books */\n      0x01\n        /* \"contracts/BookStore.sol\":2351:2365  books[_bookId] */\n      0x00\n        /* \"contracts/BookStore.sol\":2357:2364  _bookId */\n      dup3\n        /* \"contracts/BookStore.sol\":2351:2365  books[_bookId] */\n      dup2\n      mstore\n      0x20\n      add\n      swap1\n      dup2\n      mstore\n      0x20\n      add\n      0x00\n      keccak256\n      0x00\n        /* \"contracts/BookStore.sol\":2344:2365  delete books[_bookId] */\n      dup1\n      dup3\n      add\n      exp(0x0100, 0x00)\n      dup2\n      sload\n      swap1\n      0xffffffffffffffffffffffff\n      mul\n      not\n      and\n      swap1\n      sstore\n      0x00\n      dup3\n      add\n      exp(0x0100, 0x0c)\n      dup2\n      sload\n      swap1\n      0xffffffffffffffffffffffff\n      mul\n      not\n      and\n      swap1\n      sstore\n      0x00\n      dup3\n      add\n      exp(0x0100, 0x18)\n      dup2\n      sload\n      swap1\n      0xff\n      mul\n      not\n      and\n      swap1\n      sstore\n      0x01\n      dup3\n      add\n      0x00\n      tag_125\n      swap2\n      swap1\n      tag_126\n      jump\t// in\n    tag_125:\n      0x02\n      dup3\n      add\n      0x00\n      tag_127\n      swap2\n      swap1\n      tag_126\n      jump\t// in\n    tag_127:\n      pop\n      pop\n        /* \"contracts/BookStore.sol\":2391:2400  uint256 i */\n      0x00\n        /* \"contracts/BookStore.sol\":2386:2639  for (uint256 i; i < bookIds.length;) {... */\n    tag_128:\n        /* \"contracts/BookStore.sol\":2406:2413  bookIds */\n      0x02\n        /* \"contracts/BookStore.sol\":2406:2420  bookIds.length */\n      dup1\n      sload\n      swap1\n      pop\n        /* \"contracts/BookStore.sol\":2402:2403  i */\n      dup2\n        /* \"contracts/BookStore.sol\":2402:2420  i < bookIds.length */\n      lt\n        /* \"contracts/BookStore.sol\":2386:2639  for (uint256 i; i < bookIds.length;) {... */\n      iszero\n      tag_129\n      jumpi\n        /* \"contracts/BookStore.sol\":2456:2463  _bookId */\n      dup2\n        /* \"contracts/BookStore.sol\":2442:2449  bookIds */\n      0x02\n        /* \"contracts/BookStore.sol\":2450:2451  i */\n      dup3\n        /* \"contracts/BookStore.sol\":2442:2452  bookIds[i] */\n      dup2\n      sload\n      dup2\n      lt\n      tag_131\n      jumpi\n      tag_132\n      tag_133\n      jump\t// in\n    tag_132:\n    tag_131:\n      swap1\n      0x00\n      mstore\n      keccak256(0x00, 0x20)\n      add\n      sload\n        /* \"contracts/BookStore.sol\":2442:2463  bookIds[i] == _bookId */\n      sub\n        /* \"contracts/BookStore.sol\":2438:2596  if (bookIds[i] == _bookId) {... */\n      tag_135\n      jumpi\n        /* \"contracts/BookStore.sol\":2497:2504  bookIds */\n      0x02\n        /* \"contracts/BookStore.sol\":2522:2523  1 */\n      0x01\n        /* \"contracts/BookStore.sol\":2505:2512  bookIds */\n      0x02\n        /* \"contracts/BookStore.sol\":2505:2519  bookIds.length */\n      dup1\n      sload\n      swap1\n      pop\n        /* \"contracts/BookStore.sol\":2505:2523  bookIds.length - 1 */\n      tag_136\n      swap2\n      swap1\n      tag_137\n      jump\t// in\n    tag_136:\n        /* \"contracts/BookStore.sol\":2497:2524  bookIds[bookIds.length - 1] */\n      dup2\n      sload\n      dup2\n      lt\n      tag_138\n      jumpi\n      tag_139\n      tag_133\n      jump\t// in\n    tag_139:\n    tag_138:\n      swap1\n      0x00\n      mstore\n      keccak256(0x00, 0x20)\n      add\n      sload\n        /* \"contracts/BookStore.sol\":2484:2491  bookIds */\n      0x02\n        /* \"contracts/BookStore.sol\":2492:2493  i */\n      dup3\n        /* \"contracts/BookStore.sol\":2484:2494  bookIds[i] */\n      dup2\n      sload\n      dup2\n      lt\n      tag_141\n      jumpi\n      tag_142\n      tag_133\n      jump\t// in\n    tag_142:\n    tag_141:\n      swap1\n      0x00\n      mstore\n      keccak256(0x00, 0x20)\n      add\n        /* \"contracts/BookStore.sol\":2484:2524  bookIds[i] = bookIds[bookIds.length - 1] */\n      dup2\n      swap1\n      sstore\n      pop\n        /* \"contracts/BookStore.sol\":2543:2550  bookIds */\n      0x02\n        /* \"contracts/BookStore.sol\":2543:2556  bookIds.pop() */\n      dup1\n      sload\n      dup1\n      tag_144\n      jumpi\n      tag_145\n      tag_146\n      jump\t// in\n    tag_145:\n    tag_144:\n      0x01\n      swap1\n      sub\n      dup2\n      dup2\n      swap1\n      0x00\n      mstore\n      keccak256(0x00, 0x20)\n      add\n      0x00\n      swap1\n      sstore\n      swap1\n      sstore\n        /* \"contracts/BookStore.sol\":2575:2580  break */\n      jump(tag_129)\n        /* \"contracts/BookStore.sol\":2438:2596  if (bookIds[i] == _bookId) {... */\n    tag_135:\n        /* \"contracts/BookStore.sol\":2622:2625  ++i */\n      dup1\n      0x01\n      add\n      swap1\n      pop\n        /* \"contracts/BookStore.sol\":2386:2639  for (uint256 i; i < bookIds.length;) {... */\n      jump(tag_128)\n    tag_129:\n      pop\n        /* \"contracts/BookStore.sol\":2666:2673  _bookId */\n      dup1\n        /* \"contracts/BookStore.sol\":2654:2674  BookRemoved(_bookId) */\n      0x3c5ce13264433bcf97e5d53c97af4fc33800e8c9dd927f965b116d0018d7cddf\n      mload(0x40)\n      mload(0x40)\n      dup1\n      swap2\n      sub\n      swap1\n      log2\n        /* \"contracts/BookStore.sol\":2214:2682  function removeBook(uint256 _bookId) external onlyOwner {... */\n      pop\n      jump\t// out\n        /* \"@openzeppelin/contracts/access/Ownable.sol\":2543:2758  function transferOwnership(address newOwner) public virtual onlyOwner {... */\n    tag_64:\n        /* \"@openzeppelin/contracts/access/Ownable.sol\":1531:1544  _checkOwner() */\n      tag_149\n        /* \"@openzeppelin/contracts/access/Ownable.sol\":1531:1542  _checkOwner */\n      tag_113\n        /* \"@openzeppelin/contracts/access/Ownable.sol\":1531:1544  _checkOwner() */\n      jump\t// in\n    tag_149:\n        /* \"@openzeppelin/contracts/access/Ownable.sol\":2647:2648  0 */\n      0x00\n        /* \"@openzeppelin/contracts/access/Ownable.sol\":2627:2649  newOwner == address(0) */\n      0xffffffffffffffffffffffffffffffffffffffff\n      and\n        /* \"@openzeppelin/contracts/access/Ownable.sol\":2627:2635  newOwner */\n      dup2\n        /* \"@openzeppelin/contracts/access/Ownable.sol\":2627:2649  newOwner == address(0) */\n      0xffffffffffffffffffffffffffffffffffffffff\n      and\n      sub\n        /* \"@openzeppelin/contracts/access/Ownable.sol\":2623:2714  if (newOwner == address(0)) {... */\n      tag_151\n      jumpi\n        /* \"@openzeppelin/contracts/access/Ownable.sol\":2700:2701  0 */\n      0x00\n        /* \"@openzeppelin/contracts/access/Ownable.sol\":2672:2703  OwnableInvalidOwner(address(0)) */\n      mload(0x40)\n      0x1e4fbdf700000000000000000000000000000000000000000000000000000000\n      dup2\n      mstore\n      0x04\n      add\n      tag_152\n      swap2\n      swap1\n      tag_50\n      jump\t// in\n    tag_152:\n      mload(0x40)\n      dup1\n      swap2\n      sub\n      swap1\n      revert\n        /* \"@openzeppelin/contracts/access/Ownable.sol\":2623:2714  if (newOwner == address(0)) {... */\n    tag_151:\n        /* \"@openzeppelin/contracts/access/Ownable.sol\":2723:2751  _transferOwnership(newOwner) */\n      tag_153\n        /* \"@openzeppelin/contracts/access/Ownable.sol\":2742:2750  newOwner */\n      dup2\n        /* \"@openzeppelin/contracts/access/Ownable.sol\":2723:2741  _transferOwnership */\n      tag_116\n        /* \"@openzeppelin/contracts/access/Ownable.sol\":2723:2751  _transferOwnership(newOwner) */\n      jump\t// in\n    tag_153:\n        /* \"@openzeppelin/contracts/access/Ownable.sol\":2543:2758  function transferOwnership(address newOwner) public virtual onlyOwner {... */\n      pop\n      jump\t// out\n        /* \"contracts/BookStore.sol\":3208:3802  function buyBook(uint256 _bookId, uint96 _quantity) external payable {... */\n    tag_68:\n        /* \"contracts/BookStore.sol\":3288:3305  Book storage book */\n      0x00\n        /* \"contracts/BookStore.sol\":3308:3313  books */\n      0x01\n        /* \"contracts/BookStore.sol\":3308:3322  books[_bookId] */\n      0x00\n        /* \"contracts/BookStore.sol\":3314:3321  _bookId */\n      dup5\n        /* \"contracts/BookStore.sol\":3308:3322  books[_bookId] */\n      dup2\n      mstore\n      0x20\n      add\n      swap1\n      dup2\n      mstore\n      0x20\n      add\n      0x00\n      keccak256\n        /* \"contracts/BookStore.sol\":3288:3322  Book storage book = books[_bookId] */\n      swap1\n      pop\n        /* \"contracts/BookStore.sol\":3341:3345  book */\n      dup1\n        /* \"contracts/BookStore.sol\":3341:3357  book.isAvailable */\n      0x00\n      add\n      0x18\n      swap1\n      sload\n      swap1\n      0x0100\n      exp\n      swap1\n      div\n      0xff\n      and\n        /* \"contracts/BookStore.sol\":3333:3375  require(book.isAvailable, \"Not available\") */\n      tag_155\n      jumpi\n      mload(0x40)\n      0x08c379a000000000000000000000000000000000000000000000000000000000\n      dup2\n      mstore\n      0x04\n      add\n      tag_156\n      swap1\n      tag_157\n      jump\t// in\n    tag_156:\n      mload(0x40)\n      dup1\n      swap2\n      sub\n      swap1\n      revert\n    tag_155:\n        /* \"contracts/BookStore.sol\":3408:3417  _quantity */\n      dup2\n        /* \"contracts/BookStore.sol\":3394:3417  book.stock >= _quantity */\n      0xffffffffffffffffffffffff\n      and\n        /* \"contracts/BookStore.sol\":3394:3398  book */\n      dup2\n        /* \"contracts/BookStore.sol\":3394:3404  book.stock */\n      0x00\n      add\n      0x00\n      swap1\n      sload\n      swap1\n      0x0100\n      exp\n      swap1\n      div\n      0xffffffffffffffffffffffff\n      and\n        /* \"contracts/BookStore.sol\":3394:3417  book.stock >= _quantity */\n      0xffffffffffffffffffffffff\n      and\n      lt\n      iszero\n        /* \"contracts/BookStore.sol\":3386:3438  require(book.stock >= _quantity, \"Not enough stock\") */\n      tag_158\n      jumpi\n      mload(0x40)\n      0x08c379a000000000000000000000000000000000000000000000000000000000\n      dup2\n      mstore\n      0x04\n      add\n      tag_159\n      swap1\n      tag_160\n      jump\t// in\n    tag_159:\n      mload(0x40)\n      dup1\n      swap2\n      sub\n      swap1\n      revert\n    tag_158:\n        /* \"contracts/BookStore.sol\":3483:3492  _quantity */\n      dup2\n        /* \"contracts/BookStore.sol\":3470:3474  book */\n      dup2\n        /* \"contracts/BookStore.sol\":3470:3480  book.price */\n      0x00\n      add\n      0x0c\n      swap1\n      sload\n      swap1\n      0x0100\n      exp\n      swap1\n      div\n      0xffffffffffffffffffffffff\n      and\n        /* \"contracts/BookStore.sol\":3470:3492  book.price * _quantity */\n      tag_161\n      swap2\n      swap1\n      tag_162\n      jump\t// in\n    tag_161:\n        /* \"contracts/BookStore.sol\":3457:3492  msg.value == book.price * _quantity */\n      0xffffffffffffffffffffffff\n      and\n        /* \"contracts/BookStore.sol\":3457:3466  msg.value */\n      callvalue\n        /* \"contracts/BookStore.sol\":3457:3492  msg.value == book.price * _quantity */\n      eq\n        /* \"contracts/BookStore.sol\":3449:3510  require(msg.value == book.price * _quantity, \"Wrong payment\") */\n      tag_163\n      jumpi\n      mload(0x40)\n      0x08c379a000000000000000000000000000000000000000000000000000000000\n      dup2\n      mstore\n      0x04\n      add\n      tag_164\n      swap1\n      tag_165\n      jump\t// in\n    tag_164:\n      mload(0x40)\n      dup1\n      swap2\n      sub\n      swap1\n      revert\n    tag_163:\n        /* \"contracts/BookStore.sol\":3570:3579  _quantity */\n      dup2\n        /* \"contracts/BookStore.sol\":3556:3560  book */\n      dup2\n        /* \"contracts/BookStore.sol\":3556:3566  book.stock */\n      0x00\n      add\n      0x00\n        /* \"contracts/BookStore.sol\":3556:3579  book.stock -= _quantity */\n      dup3\n      dup3\n      dup3\n      swap1\n      sload\n      swap1\n      0x0100\n      exp\n      swap1\n      div\n      0xffffffffffffffffffffffff\n      and\n      sub\n      swap3\n      pop\n      0x0100\n      exp\n      dup2\n      sload\n      dup2\n      0xffffffffffffffffffffffff\n      mul\n      not\n      and\n      swap1\n      dup4\n      0xffffffffffffffffffffffff\n      and\n      mul\n      or\n      swap1\n      sstore\n      pop\n        /* \"contracts/BookStore.sol\":3612:3621  _quantity */\n      dup2\n        /* \"contracts/BookStore.sol\":3594:3608  totalBooksSold */\n      0x00\n      0x14\n        /* \"contracts/BookStore.sol\":3594:3621  totalBooksSold += _quantity */\n      dup3\n      dup3\n      dup3\n      swap1\n      sload\n      swap1\n      0x0100\n      exp\n      swap1\n      div\n      0xffffffffffffffffffffffff\n      and\n      add\n      swap3\n      pop\n      0x0100\n      exp\n      dup2\n      sload\n      dup2\n      0xffffffffffffffffffffffff\n      mul\n      not\n      and\n      swap1\n      dup4\n      0xffffffffffffffffffffffff\n      and\n      mul\n      or\n      swap1\n      sstore\n      pop\n        /* \"contracts/BookStore.sol\":3685:3686  0 */\n      0x00\n        /* \"contracts/BookStore.sol\":3672:3676  book */\n      dup2\n        /* \"contracts/BookStore.sol\":3672:3682  book.stock */\n      0x00\n      add\n      0x00\n      swap1\n      sload\n      swap1\n      0x0100\n      exp\n      swap1\n      div\n      0xffffffffffffffffffffffff\n      and\n        /* \"contracts/BookStore.sol\":3672:3686  book.stock > 0 */\n      0xffffffffffffffffffffffff\n      and\n      gt\n        /* \"contracts/BookStore.sol\":3653:3657  book */\n      dup2\n        /* \"contracts/BookStore.sol\":3653:3669  book.isAvailable */\n      0x00\n      add\n      0x18\n        /* \"contracts/BookStore.sol\":3653:3686  book.isAvailable = book.stock > 0 */\n      0x0100\n      exp\n      dup2\n      sload\n      dup2\n      0xff\n      mul\n      not\n      and\n      swap1\n      dup4\n      iszero\n      iszero\n      mul\n      or\n      swap1\n      sstore\n      pop\n        /* \"contracts/BookStore.sol\":3705:3712  owner() */\n      tag_166\n        /* \"contracts/BookStore.sol\":3705:3710  owner */\n      tag_48\n        /* \"contracts/BookStore.sol\":3705:3712  owner() */\n      jump\t// in\n    tag_166:\n        /* \"contracts/BookStore.sol\":3697:3722  payable(owner()).transfer */\n      0xffffffffffffffffffffffffffffffffffffffff\n      and\n        /* \"contracts/BookStore.sol\":3697:3733  payable(owner()).transfer(msg.value) */\n      0x08fc\n        /* \"contracts/BookStore.sol\":3723:3732  msg.value */\n      callvalue\n        /* \"contracts/BookStore.sol\":3697:3733  payable(owner()).transfer(msg.value) */\n      swap1\n      dup2\n      iszero\n      mul\n      swap1\n      mload(0x40)\n      0x00\n      mload(0x40)\n      dup1\n      dup4\n      sub\n      dup2\n      dup6\n      dup9\n      dup9\n      call\n      swap4\n      pop\n      pop\n      pop\n      pop\n      iszero\n      dup1\n      iszero\n      tag_168\n      jumpi\n      returndatasize\n      0x00\n      dup1\n      returndatacopy\n      revert(0x00, returndatasize)\n    tag_168:\n      pop\n        /* \"contracts/BookStore.sol\":3772:3782  msg.sender */\n      caller\n        /* \"contracts/BookStore.sol\":3749:3794  BookPurchased(_bookId, msg.sender, _quantity) */\n      0xffffffffffffffffffffffffffffffffffffffff\n      and\n        /* \"contracts/BookStore.sol\":3763:3770  _bookId */\n      dup4\n        /* \"contracts/BookStore.sol\":3749:3794  BookPurchased(_bookId, msg.sender, _quantity) */\n      0x4e8e9bc53224dd7f5549d1a97fe174d12e6ff0064e2ccb78d886fc515c98859d\n        /* \"contracts/BookStore.sol\":3784:3793  _quantity */\n      dup5\n        /* \"contracts/BookStore.sol\":3749:3794  BookPurchased(_bookId, msg.sender, _quantity) */\n      mload(0x40)\n      tag_169\n      swap2\n      swap1\n      tag_55\n      jump\t// in\n    tag_169:\n      mload(0x40)\n      dup1\n      swap2\n      sub\n      swap1\n      log3\n        /* \"contracts/BookStore.sol\":3277:3802  {... */\n      pop\n        /* \"contracts/BookStore.sol\":3208:3802  function buyBook(uint256 _bookId, uint96 _quantity) external payable {... */\n      pop\n      pop\n      jump\t// out\n        /* \"contracts/BookStore.sol\":1467:2206  function removeBooks(uint256[] calldata _bookIds) external onlyOwner {... */\n    tag_73:\n        /* \"@openzeppelin/contracts/access/Ownable.sol\":1531:1544  _checkOwner() */\n      tag_171\n        /* \"@openzeppelin/contracts/access/Ownable.sol\":1531:1542  _checkOwner */\n      tag_113\n        /* \"@openzeppelin/contracts/access/Ownable.sol\":1531:1544  _checkOwner() */\n      jump\t// in\n    tag_171:\n        /* \"contracts/BookStore.sol\":1547:1561  uint256 length */\n      0x00\n        /* \"contracts/BookStore.sol\":1564:1572  _bookIds */\n      dup3\n      dup3\n        /* \"contracts/BookStore.sol\":1564:1579  _bookIds.length */\n      swap1\n      pop\n        /* \"contracts/BookStore.sol\":1547:1579  uint256 length = _bookIds.length */\n      swap1\n      pop\n        /* \"contracts/BookStore.sol\":1595:1604  uint256 i */\n      0x00\n        /* \"contracts/BookStore.sol\":1590:2157  for (uint256 i; i < length;) {... */\n    tag_173:\n        /* \"contracts/BookStore.sol\":1610:1616  length */\n      dup2\n        /* \"contracts/BookStore.sol\":1606:1607  i */\n      dup2\n        /* \"contracts/BookStore.sol\":1606:1616  i < length */\n      lt\n        /* \"contracts/BookStore.sol\":1590:2157  for (uint256 i; i < length;) {... */\n      iszero\n      tag_174\n      jumpi\n        /* \"contracts/BookStore.sol\":1634:1648  uint256 bookId */\n      0x00\n        /* \"contracts/BookStore.sol\":1651:1659  _bookIds */\n      dup5\n      dup5\n        /* \"contracts/BookStore.sol\":1660:1661  i */\n      dup4\n        /* \"contracts/BookStore.sol\":1651:1662  _bookIds[i] */\n      dup2\n      dup2\n      lt\n      tag_176\n      jumpi\n      tag_177\n      tag_133\n      jump\t// in\n    tag_177:\n    tag_176:\n      swap1\n      pop\n      0x20\n      mul\n      add\n      calldataload\n        /* \"contracts/BookStore.sol\":1634:1662  uint256 bookId = _bookIds[i] */\n      swap1\n      pop\n        /* \"contracts/BookStore.sol\":1708:1709  0 */\n      0x00\n        /* \"contracts/BookStore.sol\":1685:1690  books */\n      0x01\n        /* \"contracts/BookStore.sol\":1685:1698  books[bookId] */\n      0x00\n        /* \"contracts/BookStore.sol\":1691:1697  bookId */\n      dup4\n        /* \"contracts/BookStore.sol\":1685:1698  books[bookId] */\n      dup2\n      mstore\n      0x20\n      add\n      swap1\n      dup2\n      mstore\n      0x20\n      add\n      0x00\n      keccak256\n        /* \"contracts/BookStore.sol\":1685:1704  books[bookId].price */\n      0x00\n      add\n      0x0c\n      swap1\n      sload\n      swap1\n      0x0100\n      exp\n      swap1\n      div\n      0xffffffffffffffffffffffff\n      and\n        /* \"contracts/BookStore.sol\":1685:1709  books[bookId].price != 0 */\n      0xffffffffffffffffffffffff\n      and\n      sub\n        /* \"contracts/BookStore.sol\":1677:1728  require(books[bookId].price != 0, \"Book not exist\") */\n      tag_178\n      jumpi\n      mload(0x40)\n      0x08c379a000000000000000000000000000000000000000000000000000000000\n      dup2\n      mstore\n      0x04\n      add\n      tag_179\n      swap1\n      tag_124\n      jump\t// in\n    tag_179:\n      mload(0x40)\n      dup1\n      swap2\n      sub\n      swap1\n      revert\n    tag_178:\n        /* \"contracts/BookStore.sol\":1750:1755  books */\n      0x01\n        /* \"contracts/BookStore.sol\":1750:1763  books[bookId] */\n      0x00\n        /* \"contracts/BookStore.sol\":1756:1762  bookId */\n      dup3\n        /* \"contracts/BookStore.sol\":1750:1763  books[bookId] */\n      dup2\n      mstore\n      0x20\n      add\n      swap1\n      dup2\n      mstore\n      0x20\n      add\n      0x00\n      keccak256\n      0x00\n        /* \"contracts/BookStore.sol\":1743:1763  delete books[bookId] */\n      dup1\n      dup3\n      add\n      exp(0x0100, 0x00)\n      dup2\n      sload\n      swap1\n      0xffffffffffffffffffffffff\n      mul\n      not\n      and\n      swap1\n      sstore\n      0x00\n      dup3\n      add\n      exp(0x0100, 0x0c)\n      dup2\n      sload\n      swap1\n      0xffffffffffffffffffffffff\n      mul\n      not\n      and\n      swap1\n      sstore\n      0x00\n      dup3\n      add\n      exp(0x0100, 0x18)\n      dup2\n      sload\n      swap1\n      0xff\n      mul\n      not\n      and\n      swap1\n      sstore\n      0x01\n      dup3\n      add\n      0x00\n      tag_180\n      swap2\n      swap1\n      tag_126\n      jump\t// in\n    tag_180:\n      0x02\n      dup3\n      add\n      0x00\n      tag_181\n      swap2\n      swap1\n      tag_126\n      jump\t// in\n    tag_181:\n      pop\n      pop\n        /* \"contracts/BookStore.sol\":1839:1848  uint256 j */\n      0x00\n        /* \"contracts/BookStore.sol\":1834:2114  for (uint256 j; j < bookIds.length;) {... */\n    tag_182:\n        /* \"contracts/BookStore.sol\":1854:1861  bookIds */\n      0x02\n        /* \"contracts/BookStore.sol\":1854:1868  bookIds.length */\n      dup1\n      sload\n      swap1\n      pop\n        /* \"contracts/BookStore.sol\":1850:1851  j */\n      dup2\n        /* \"contracts/BookStore.sol\":1850:1868  j < bookIds.length */\n      lt\n        /* \"contracts/BookStore.sol\":1834:2114  for (uint256 j; j < bookIds.length;) {... */\n      iszero\n      tag_183\n      jumpi\n        /* \"contracts/BookStore.sol\":1908:1914  bookId */\n      dup2\n        /* \"contracts/BookStore.sol\":1894:1901  bookIds */\n      0x02\n        /* \"contracts/BookStore.sol\":1902:1903  j */\n      dup3\n        /* \"contracts/BookStore.sol\":1894:1904  bookIds[j] */\n      dup2\n      sload\n      dup2\n      lt\n      tag_185\n      jumpi\n      tag_186\n      tag_133\n      jump\t// in\n    tag_186:\n    tag_185:\n      swap1\n      0x00\n      mstore\n      keccak256(0x00, 0x20)\n      add\n      sload\n        /* \"contracts/BookStore.sol\":1894:1914  bookIds[j] == bookId */\n      sub\n        /* \"contracts/BookStore.sol\":1890:2063  if (bookIds[j] == bookId) {... */\n      tag_188\n      jumpi\n        /* \"contracts/BookStore.sol\":1952:1959  bookIds */\n      0x02\n        /* \"contracts/BookStore.sol\":1977:1978  1 */\n      0x01\n        /* \"contracts/BookStore.sol\":1960:1967  bookIds */\n      0x02\n        /* \"contracts/BookStore.sol\":1960:1974  bookIds.length */\n      dup1\n      sload\n      swap1\n      pop\n        /* \"contracts/BookStore.sol\":1960:1978  bookIds.length - 1 */\n      tag_189\n      swap2\n      swap1\n      tag_137\n      jump\t// in\n    tag_189:\n        /* \"contracts/BookStore.sol\":1952:1979  bookIds[bookIds.length - 1] */\n      dup2\n      sload\n      dup2\n      lt\n      tag_190\n      jumpi\n      tag_191\n      tag_133\n      jump\t// in\n    tag_191:\n    tag_190:\n      swap1\n      0x00\n      mstore\n      keccak256(0x00, 0x20)\n      add\n      sload\n        /* \"contracts/BookStore.sol\":1939:1946  bookIds */\n      0x02\n        /* \"contracts/BookStore.sol\":1947:1948  j */\n      dup3\n        /* \"contracts/BookStore.sol\":1939:1949  bookIds[j] */\n      dup2\n      sload\n      dup2\n      lt\n      tag_193\n      jumpi\n      tag_194\n      tag_133\n      jump\t// in\n    tag_194:\n    tag_193:\n      swap1\n      0x00\n      mstore\n      keccak256(0x00, 0x20)\n      add\n        /* \"contracts/BookStore.sol\":1939:1979  bookIds[j] = bookIds[bookIds.length - 1] */\n      dup2\n      swap1\n      sstore\n      pop\n        /* \"contracts/BookStore.sol\":2002:2009  bookIds */\n      0x02\n        /* \"contracts/BookStore.sol\":2002:2015  bookIds.pop() */\n      dup1\n      sload\n      dup1\n      tag_196\n      jumpi\n      tag_197\n      tag_146\n      jump\t// in\n    tag_197:\n    tag_196:\n      0x01\n      swap1\n      sub\n      dup2\n      dup2\n      swap1\n      0x00\n      mstore\n      keccak256(0x00, 0x20)\n      add\n      0x00\n      swap1\n      sstore\n      swap1\n      sstore\n        /* \"contracts/BookStore.sol\":2038:2043  break */\n      jump(tag_183)\n        /* \"contracts/BookStore.sol\":1890:2063  if (bookIds[j] == bookId) {... */\n    tag_188:\n        /* \"contracts/BookStore.sol\":2093:2096  ++j */\n      dup1\n      0x01\n      add\n      swap1\n      pop\n        /* \"contracts/BookStore.sol\":1834:2114  for (uint256 j; j < bookIds.length;) {... */\n      jump(tag_182)\n    tag_183:\n      pop\n        /* \"contracts/BookStore.sol\":2140:2143  ++i */\n      dup2\n      0x01\n      add\n      swap2\n      pop\n        /* \"contracts/BookStore.sol\":1619:2157  {... */\n      pop\n        /* \"contracts/BookStore.sol\":1590:2157  for (uint256 i; i < length;) {... */\n      jump(tag_173)\n    tag_174:\n      pop\n        /* \"contracts/BookStore.sol\":2172:2198  BookBatchRemoved(_bookIds) */\n      0x7262be1e48c30c363173fcb2fbf2dc2cb38d076dee42cc37cdfbdf62af5c3bed\n        /* \"contracts/BookStore.sol\":2189:2197  _bookIds */\n      dup4\n      dup4\n        /* \"contracts/BookStore.sol\":2172:2198  BookBatchRemoved(_bookIds) */\n      mload(0x40)\n      tag_199\n      swap3\n      swap2\n      swap1\n      tag_200\n      jump\t// in\n    tag_199:\n      mload(0x40)\n      dup1\n      swap2\n      sub\n      swap1\n      log1\n        /* \"contracts/BookStore.sol\":1536:2206  {... */\n      pop\n        /* \"contracts/BookStore.sol\":1467:2206  function removeBooks(uint256[] calldata _bookIds) external onlyOwner {... */\n      pop\n      pop\n      jump\t// out\n        /* \"@openzeppelin/contracts/access/Ownable.sol\":1796:1958  function _checkOwner() internal view virtual {... */\n    tag_113:\n        /* \"@openzeppelin/contracts/access/Ownable.sol\":1866:1878  _msgSender() */\n      tag_202\n        /* \"@openzeppelin/contracts/access/Ownable.sol\":1866:1876  _msgSender */\n      tag_203\n        /* \"@openzeppelin/contracts/access/Ownable.sol\":1866:1878  _msgSender() */\n      jump\t// in\n    tag_202:\n        /* \"@openzeppelin/contracts/access/Ownable.sol\":1855:1878  owner() != _msgSender() */\n      0xffffffffffffffffffffffffffffffffffffffff\n      and\n        /* \"@openzeppelin/contracts/access/Ownable.sol\":1855:1862  owner() */\n      tag_204\n        /* \"@openzeppelin/contracts/access/Ownable.sol\":1855:1860  owner */\n      tag_48\n        /* \"@openzeppelin/contracts/access/Ownable.sol\":1855:1862  owner() */\n      jump\t// in\n    tag_204:\n        /* \"@openzeppelin/contracts/access/Ownable.sol\":1855:1878  owner() != _msgSender() */\n      0xffffffffffffffffffffffffffffffffffffffff\n      and\n      eq\n        /* \"@openzeppelin/contracts/access/Ownable.sol\":1851:1952  if (owner() != _msgSender()) {... */\n      tag_205\n      jumpi\n        /* \"@openzeppelin/contracts/access/Ownable.sol\":1928:1940  _msgSender() */\n      tag_206\n        /* \"@openzeppelin/contracts/access/Ownable.sol\":1928:1938  _msgSender */\n      tag_203\n        /* \"@openzeppelin/contracts/access/Ownable.sol\":1928:1940  _msgSender() */\n      jump\t// in\n    tag_206:\n        /* \"@openzeppelin/contracts/access/Ownable.sol\":1901:1941  OwnableUnauthorizedAccount(_msgSender()) */\n      mload(0x40)\n      0x118cdaa700000000000000000000000000000000000000000000000000000000\n      dup2\n      mstore\n      0x04\n      add\n      tag_207\n      swap2\n      swap1\n      tag_50\n      jump\t// in\n    tag_207:\n      mload(0x40)\n      dup1\n      swap2\n      sub\n      swap1\n      revert\n        /* \"@openzeppelin/contracts/access/Ownable.sol\":1851:1952  if (owner() != _msgSender()) {... */\n    tag_205:\n        /* \"@openzeppelin/contracts/access/Ownable.sol\":1796:1958  function _checkOwner() internal view virtual {... */\n      jump\t// out\n        /* \"@openzeppelin/contracts/access/Ownable.sol\":2912:3099  function _transferOwnership(address newOwner) internal virtual {... */\n    tag_116:\n        /* \"@openzeppelin/contracts/access/Ownable.sol\":2985:3001  address oldOwner */\n      0x00\n        /* \"@openzeppelin/contracts/access/Ownable.sol\":3004:3010  _owner */\n      dup1\n      0x00\n      swap1\n      sload\n      swap1\n      0x0100\n      exp\n      swap1\n      div\n      0xffffffffffffffffffffffffffffffffffffffff\n      and\n        /* \"@openzeppelin/contracts/access/Ownable.sol\":2985:3010  address oldOwner = _owner */\n      swap1\n      pop\n        /* \"@openzeppelin/contracts/access/Ownable.sol\":3029:3037  newOwner */\n      dup2\n        /* \"@openzeppelin/contracts/access/Ownable.sol\":3020:3026  _owner */\n      0x00\n      dup1\n        /* \"@openzeppelin/contracts/access/Ownable.sol\":3020:3037  _owner = newOwner */\n      0x0100\n      exp\n      dup2\n      sload\n      dup2\n      0xffffffffffffffffffffffffffffffffffffffff\n      mul\n      not\n      and\n      swap1\n      dup4\n      0xffffffffffffffffffffffffffffffffffffffff\n      and\n      mul\n      or\n      swap1\n      sstore\n      pop\n        /* \"@openzeppelin/contracts/access/Ownable.sol\":3083:3091  newOwner */\n      dup2\n        /* \"@openzeppelin/contracts/access/Ownable.sol\":3052:3092  OwnershipTransferred(oldOwner, newOwner) */\n      0xffffffffffffffffffffffffffffffffffffffff\n      and\n        /* \"@openzeppelin/contracts/access/Ownable.sol\":3073:3081  oldOwner */\n      dup2\n        /* \"@openzeppelin/contracts/access/Ownable.sol\":3052:3092  OwnershipTransferred(oldOwner, newOwner) */\n      0xffffffffffffffffffffffffffffffffffffffff\n      and\n      0x8be0079c531659141344cd1fd0a4f28419497f9722a3daafe3b4186f6b6457e0\n      mload(0x40)\n      mload(0x40)\n      dup1\n      swap2\n      sub\n      swap1\n      log3\n        /* \"@openzeppelin/contracts/access/Ownable.sol\":2975:3099  {... */\n      pop\n        /* \"@openzeppelin/contracts/access/Ownable.sol\":2912:3099  function _transferOwnership(address newOwner) internal virtual {... */\n      pop\n      jump\t// out\n        /* \"@openzeppelin/contracts/utils/Context.sol\":656:752  function _msgSender() internal view virtual returns (address) {... */\n    tag_203:\n        /* \"@openzeppelin/contracts/utils/Context.sol\":709:716  address */\n      0x00\n        /* \"@openzeppelin/contracts/utils/Context.sol\":735:745  msg.sender */\n      caller\n        /* \"@openzeppelin/contracts/utils/Context.sol\":728:745  return msg.sender */\n      swap1\n      pop\n        /* \"@openzeppelin/contracts/utils/Context.sol\":656:752  function _msgSender() internal view virtual returns (address) {... */\n      swap1\n      jump\t// out\n    tag_126:\n      pop\n      dup1\n      sload\n      tag_210\n      swap1\n      tag_91\n      jump\t// in\n    tag_210:\n      0x00\n      dup3\n      sstore\n      dup1\n      0x1f\n      lt\n      tag_212\n      jumpi\n      pop\n      jump(tag_211)\n    tag_212:\n      0x1f\n      add\n      0x20\n      swap1\n      div\n      swap1\n      0x00\n      mstore\n      keccak256(0x00, 0x20)\n      swap1\n      dup2\n      add\n      swap1\n      tag_213\n      swap2\n      swap1\n      tag_214\n      jump\t// in\n    tag_213:\n    tag_211:\n      pop\n      jump\t// out\n    tag_214:\n    tag_215:\n      dup1\n      dup3\n      gt\n      iszero\n      tag_216\n      jumpi\n      0x00\n      dup2\n      0x00\n      swap1\n      sstore\n      pop\n      0x01\n      add\n      jump(tag_215)\n    tag_216:\n      pop\n      swap1\n      jump\t// out\n        /* \"#utility.yul\":88:205   */\n    tag_218:\n        /* \"#utility.yul\":197:198   */\n      0x00\n        /* \"#utility.yul\":194:195   */\n      dup1\n        /* \"#utility.yul\":187:199   */\n      revert\n        /* \"#utility.yul\":211:328   */\n    tag_219:\n        /* \"#utility.yul\":320:321   */\n      0x00\n        /* \"#utility.yul\":317:318   */\n      dup1\n        /* \"#utility.yul\":310:322   */\n      revert\n        /* \"#utility.yul\":334:411   */\n    tag_220:\n        /* \"#utility.yul\":371:378   */\n      0x00\n        /* \"#utility.yul\":400:405   */\n      dup2\n        /* \"#utility.yul\":389:405   */\n      swap1\n      pop\n        /* \"#utility.yul\":334:411   */\n      swap2\n      swap1\n      pop\n      jump\t// out\n        /* \"#utility.yul\":417:539   */\n    tag_221:\n        /* \"#utility.yul\":490:514   */\n      tag_291\n        /* \"#utility.yul\":508:513   */\n      dup2\n        /* \"#utility.yul\":490:514   */\n      tag_220\n      jump\t// in\n    tag_291:\n        /* \"#utility.yul\":483:488   */\n      dup2\n        /* \"#utility.yul\":480:515   */\n      eq\n        /* \"#utility.yul\":470:533   */\n      tag_292\n      jumpi\n        /* \"#utility.yul\":529:530   */\n      0x00\n        /* \"#utility.yul\":526:527   */\n      dup1\n        /* \"#utility.yul\":519:531   */\n      revert\n        /* \"#utility.yul\":470:533   */\n    tag_292:\n        /* \"#utility.yul\":417:539   */\n      pop\n      jump\t// out\n        /* \"#utility.yul\":545:684   */\n    tag_222:\n        /* \"#utility.yul\":591:596   */\n      0x00\n        /* \"#utility.yul\":629:635   */\n      dup2\n        /* \"#utility.yul\":616:636   */\n      calldataload\n        /* \"#utility.yul\":607:636   */\n      swap1\n      pop\n        /* \"#utility.yul\":645:678   */\n      tag_294\n        /* \"#utility.yul\":672:677   */\n      dup2\n        /* \"#utility.yul\":645:678   */\n      tag_221\n      jump\t// in\n    tag_294:\n        /* \"#utility.yul\":545:684   */\n      swap3\n      swap2\n      pop\n      pop\n      jump\t// out\n        /* \"#utility.yul\":690:807   */\n    tag_223:\n        /* \"#utility.yul\":799:800   */\n      0x00\n        /* \"#utility.yul\":796:797   */\n      dup1\n        /* \"#utility.yul\":789:801   */\n      revert\n        /* \"#utility.yul\":813:930   */\n    tag_224:\n        /* \"#utility.yul\":922:923   */\n      0x00\n        /* \"#utility.yul\":919:920   */\n      dup1\n        /* \"#utility.yul\":912:924   */\n      revert\n        /* \"#utility.yul\":936:1053   */\n    tag_225:\n        /* \"#utility.yul\":1045:1046   */\n      0x00\n        /* \"#utility.yul\":1042:1043   */\n      dup1\n        /* \"#utility.yul\":1035:1047   */\n      revert\n        /* \"#utility.yul\":1073:1626   */\n    tag_226:\n        /* \"#utility.yul\":1131:1139   */\n      0x00\n        /* \"#utility.yul\":1141:1147   */\n      dup1\n        /* \"#utility.yul\":1191:1194   */\n      dup4\n        /* \"#utility.yul\":1184:1188   */\n      0x1f\n        /* \"#utility.yul\":1176:1182   */\n      dup5\n        /* \"#utility.yul\":1172:1189   */\n      add\n        /* \"#utility.yul\":1168:1195   */\n      slt\n        /* \"#utility.yul\":1158:1280   */\n      tag_299\n      jumpi\n        /* \"#utility.yul\":1199:1278   */\n      tag_300\n      tag_223\n      jump\t// in\n    tag_300:\n        /* \"#utility.yul\":1158:1280   */\n    tag_299:\n        /* \"#utility.yul\":1312:1318   */\n      dup3\n        /* \"#utility.yul\":1299:1319   */\n      calldataload\n        /* \"#utility.yul\":1289:1319   */\n      swap1\n      pop\n        /* \"#utility.yul\":1342:1360   */\n      0xffffffffffffffff\n        /* \"#utility.yul\":1334:1340   */\n      dup2\n        /* \"#utility.yul\":1331:1361   */\n      gt\n        /* \"#utility.yul\":1328:1445   */\n      iszero\n      tag_301\n      jumpi\n        /* \"#utility.yul\":1364:1443   */\n      tag_302\n      tag_224\n      jump\t// in\n    tag_302:\n        /* \"#utility.yul\":1328:1445   */\n    tag_301:\n        /* \"#utility.yul\":1478:1482   */\n      0x20\n        /* \"#utility.yul\":1470:1476   */\n      dup4\n        /* \"#utility.yul\":1466:1483   */\n      add\n        /* \"#utility.yul\":1454:1483   */\n      swap2\n      pop\n        /* \"#utility.yul\":1532:1535   */\n      dup4\n        /* \"#utility.yul\":1524:1528   */\n      0x01\n        /* \"#utility.yul\":1516:1522   */\n      dup3\n        /* \"#utility.yul\":1512:1529   */\n      mul\n        /* \"#utility.yul\":1502:1510   */\n      dup4\n        /* \"#utility.yul\":1498:1530   */\n      add\n        /* \"#utility.yul\":1495:1536   */\n      gt\n        /* \"#utility.yul\":1492:1620   */\n      iszero\n      tag_303\n      jumpi\n        /* \"#utility.yul\":1539:1618   */\n      tag_304\n      tag_225\n      jump\t// in\n    tag_304:\n        /* \"#utility.yul\":1492:1620   */\n    tag_303:\n        /* \"#utility.yul\":1073:1626   */\n      swap3\n      pop\n      swap3\n      swap1\n      pop\n      jump\t// out\n        /* \"#utility.yul\":1632:1741   */\n    tag_227:\n        /* \"#utility.yul\":1668:1675   */\n      0x00\n        /* \"#utility.yul\":1708:1734   */\n      0xffffffffffffffffffffffff\n        /* \"#utility.yul\":1701:1706   */\n      dup3\n        /* \"#utility.yul\":1697:1735   */\n      and\n        /* \"#utility.yul\":1686:1735   */\n      swap1\n      pop\n        /* \"#utility.yul\":1632:1741   */\n      swap2\n      swap1\n      pop\n      jump\t// out\n        /* \"#utility.yul\":1747:1867   */\n    tag_228:\n        /* \"#utility.yul\":1819:1842   */\n      tag_307\n        /* \"#utility.yul\":1836:1841   */\n      dup2\n        /* \"#utility.yul\":1819:1842   */\n      tag_227\n      jump\t// in\n    tag_307:\n        /* \"#utility.yul\":1812:1817   */\n      dup2\n        /* \"#utility.yul\":1809:1843   */\n      eq\n        /* \"#utility.yul\":1799:1861   */\n      tag_308\n      jumpi\n        /* \"#utility.yul\":1857:1858   */\n      0x00\n        /* \"#utility.yul\":1854:1855   */\n      dup1\n        /* \"#utility.yul\":1847:1859   */\n      revert\n        /* \"#utility.yul\":1799:1861   */\n    tag_308:\n        /* \"#utility.yul\":1747:1867   */\n      pop\n      jump\t// out\n        /* \"#utility.yul\":1873:2010   */\n    tag_229:\n        /* \"#utility.yul\":1918:1923   */\n      0x00\n        /* \"#utility.yul\":1956:1962   */\n      dup2\n        /* \"#utility.yul\":1943:1963   */\n      calldataload\n        /* \"#utility.yul\":1934:1963   */\n      swap1\n      pop\n        /* \"#utility.yul\":1972:2004   */\n      tag_310\n        /* \"#utility.yul\":1998:2003   */\n      dup2\n        /* \"#utility.yul\":1972:2004   */\n      tag_228\n      jump\t// in\n    tag_310:\n        /* \"#utility.yul\":1873:2010   */\n      swap3\n      swap2\n      pop\n      pop\n      jump\t// out\n        /* \"#utility.yul\":2016:3323   */\n    tag_18:\n        /* \"#utility.yul\":2133:2139   */\n      0x00\n        /* \"#utility.yul\":2141:2147   */\n      dup1\n        /* \"#utility.yul\":2149:2155   */\n      0x00\n        /* \"#utility.yul\":2157:2163   */\n      dup1\n        /* \"#utility.yul\":2165:2171   */\n      0x00\n        /* \"#utility.yul\":2173:2179   */\n      dup1\n        /* \"#utility.yul\":2181:2187   */\n      0x00\n        /* \"#utility.yul\":2230:2233   */\n      0xa0\n        /* \"#utility.yul\":2218:2227   */\n      dup9\n        /* \"#utility.yul\":2209:2216   */\n      dup11\n        /* \"#utility.yul\":2205:2228   */\n      sub\n        /* \"#utility.yul\":2201:2234   */\n      slt\n        /* \"#utility.yul\":2198:2318   */\n      iszero\n      tag_312\n      jumpi\n        /* \"#utility.yul\":2237:2316   */\n      tag_313\n      tag_218\n      jump\t// in\n    tag_313:\n        /* \"#utility.yul\":2198:2318   */\n    tag_312:\n        /* \"#utility.yul\":2357:2358   */\n      0x00\n        /* \"#utility.yul\":2382:2435   */\n      tag_314\n        /* \"#utility.yul\":2427:2434   */\n      dup11\n        /* \"#utility.yul\":2418:2424   */\n      dup3\n        /* \"#utility.yul\":2407:2416   */\n      dup12\n        /* \"#utility.yul\":2403:2425   */\n      add\n        /* \"#utility.yul\":2382:2435   */\n      tag_222\n      jump\t// in\n    tag_314:\n        /* \"#utility.yul\":2372:2435   */\n      swap8\n      pop\n        /* \"#utility.yul\":2328:2445   */\n      pop\n        /* \"#utility.yul\":2512:2514   */\n      0x20\n        /* \"#utility.yul\":2501:2510   */\n      dup9\n        /* \"#utility.yul\":2497:2515   */\n      add\n        /* \"#utility.yul\":2484:2516   */\n      calldataload\n        /* \"#utility.yul\":2543:2561   */\n      0xffffffffffffffff\n        /* \"#utility.yul\":2535:2541   */\n      dup2\n        /* \"#utility.yul\":2532:2562   */\n      gt\n        /* \"#utility.yul\":2529:2646   */\n      iszero\n      tag_315\n      jumpi\n        /* \"#utility.yul\":2565:2644   */\n      tag_316\n      tag_219\n      jump\t// in\n    tag_316:\n        /* \"#utility.yul\":2529:2646   */\n    tag_315:\n        /* \"#utility.yul\":2678:2743   */\n      tag_317\n        /* \"#utility.yul\":2735:2742   */\n      dup11\n        /* \"#utility.yul\":2726:2732   */\n      dup3\n        /* \"#utility.yul\":2715:2724   */\n      dup12\n        /* \"#utility.yul\":2711:2733   */\n      add\n        /* \"#utility.yul\":2678:2743   */\n      tag_226\n      jump\t// in\n    tag_317:\n        /* \"#utility.yul\":2660:2743   */\n      swap7\n      pop\n      swap7\n      pop\n        /* \"#utility.yul\":2455:2753   */\n      pop\n        /* \"#utility.yul\":2820:2822   */\n      0x40\n        /* \"#utility.yul\":2809:2818   */\n      dup9\n        /* \"#utility.yul\":2805:2823   */\n      add\n        /* \"#utility.yul\":2792:2824   */\n      calldataload\n        /* \"#utility.yul\":2851:2869   */\n      0xffffffffffffffff\n        /* \"#utility.yul\":2843:2849   */\n      dup2\n        /* \"#utility.yul\":2840:2870   */\n      gt\n        /* \"#utility.yul\":2837:2954   */\n      iszero\n      tag_318\n      jumpi\n        /* \"#utility.yul\":2873:2952   */\n      tag_319\n      tag_219\n      jump\t// in\n    tag_319:\n        /* \"#utility.yul\":2837:2954   */\n    tag_318:\n        /* \"#utility.yul\":2986:3051   */\n      tag_320\n        /* \"#utility.yul\":3043:3050   */\n      dup11\n        /* \"#utility.yul\":3034:3040   */\n      dup3\n        /* \"#utility.yul\":3023:3032   */\n      dup12\n        /* \"#utility.yul\":3019:3041   */\n      add\n        /* \"#utility.yul\":2986:3051   */\n      tag_226\n      jump\t// in\n    tag_320:\n        /* \"#utility.yul\":2968:3051   */\n      swap5\n      pop\n      swap5\n      pop\n        /* \"#utility.yul\":2763:3061   */\n      pop\n        /* \"#utility.yul\":3100:3102   */\n      0x60\n        /* \"#utility.yul\":3126:3178   */\n      tag_321\n        /* \"#utility.yul\":3170:3177   */\n      dup11\n        /* \"#utility.yul\":3161:3167   */\n      dup3\n        /* \"#utility.yul\":3150:3159   */\n      dup12\n        /* \"#utility.yul\":3146:3168   */\n      add\n        /* \"#utility.yul\":3126:3178   */\n      tag_229\n      jump\t// in\n    tag_321:\n        /* \"#utility.yul\":3116:3178   */\n      swap3\n      pop\n        /* \"#utility.yul\":3071:3188   */\n      pop\n        /* \"#utility.yul\":3227:3230   */\n      0x80\n        /* \"#utility.yul\":3254:3306   */\n      tag_322\n        /* \"#utility.yul\":3298:3305   */\n      dup11\n        /* \"#utility.yul\":3289:3295   */\n      dup3\n        /* \"#utility.yul\":3278:3287   */\n      dup12\n        /* \"#utility.yul\":3274:3296   */\n      add\n        /* \"#utility.yul\":3254:3306   */\n      tag_229\n      jump\t// in\n    tag_322:\n        /* \"#utility.yul\":3244:3306   */\n      swap2\n      pop\n        /* \"#utility.yul\":3198:3316   */\n      pop\n        /* \"#utility.yul\":2016:3323   */\n      swap3\n      swap6\n      swap9\n      swap2\n      swap5\n      swap8\n      pop\n      swap3\n      swap6\n      pop\n      jump\t// out\n        /* \"#utility.yul\":3329:3443   */\n    tag_230:\n        /* \"#utility.yul\":3396:3402   */\n      0x00\n        /* \"#utility.yul\":3430:3435   */\n      dup2\n        /* \"#utility.yul\":3424:3436   */\n      mload\n        /* \"#utility.yul\":3414:3436   */\n      swap1\n      pop\n        /* \"#utility.yul\":3329:3443   */\n      swap2\n      swap1\n      pop\n      jump\t// out\n        /* \"#utility.yul\":3449:3633   */\n    tag_231:\n        /* \"#utility.yul\":3548:3559   */\n      0x00\n        /* \"#utility.yul\":3582:3588   */\n      dup3\n        /* \"#utility.yul\":3577:3580   */\n      dup3\n        /* \"#utility.yul\":3570:3589   */\n      mstore\n        /* \"#utility.yul\":3622:3626   */\n      0x20\n        /* \"#utility.yul\":3617:3620   */\n      dup3\n        /* \"#utility.yul\":3613:3627   */\n      add\n        /* \"#utility.yul\":3598:3627   */\n      swap1\n      pop\n        /* \"#utility.yul\":3449:3633   */\n      swap3\n      swap2\n      pop\n      pop\n      jump\t// out\n        /* \"#utility.yul\":3639:3771   */\n    tag_232:\n        /* \"#utility.yul\":3706:3710   */\n      0x00\n        /* \"#utility.yul\":3729:3732   */\n      dup2\n        /* \"#utility.yul\":3721:3732   */\n      swap1\n      pop\n        /* \"#utility.yul\":3759:3763   */\n      0x20\n        /* \"#utility.yul\":3754:3757   */\n      dup3\n        /* \"#utility.yul\":3750:3764   */\n      add\n        /* \"#utility.yul\":3742:3764   */\n      swap1\n      pop\n        /* \"#utility.yul\":3639:3771   */\n      swap2\n      swap1\n      pop\n      jump\t// out\n        /* \"#utility.yul\":3777:3885   */\n    tag_233:\n        /* \"#utility.yul\":3854:3878   */\n      tag_327\n        /* \"#utility.yul\":3872:3877   */\n      dup2\n        /* \"#utility.yul\":3854:3878   */\n      tag_220\n      jump\t// in\n    tag_327:\n        /* \"#utility.yul\":3849:3852   */\n      dup3\n        /* \"#utility.yul\":3842:3879   */\n      mstore\n        /* \"#utility.yul\":3777:3885   */\n      pop\n      pop\n      jump\t// out\n        /* \"#utility.yul\":3891:4070   */\n    tag_234:\n        /* \"#utility.yul\":3960:3970   */\n      0x00\n        /* \"#utility.yul\":3981:4027   */\n      tag_329\n        /* \"#utility.yul\":4023:4026   */\n      dup4\n        /* \"#utility.yul\":4015:4021   */\n      dup4\n        /* \"#utility.yul\":3981:4027   */\n      tag_233\n      jump\t// in\n    tag_329:\n        /* \"#utility.yul\":4059:4063   */\n      0x20\n        /* \"#utility.yul\":4054:4057   */\n      dup4\n        /* \"#utility.yul\":4050:4064   */\n      add\n        /* \"#utility.yul\":4036:4064   */\n      swap1\n      pop\n        /* \"#utility.yul\":3891:4070   */\n      swap3\n      swap2\n      pop\n      pop\n      jump\t// out\n        /* \"#utility.yul\":4076:4189   */\n    tag_235:\n        /* \"#utility.yul\":4146:4150   */\n      0x00\n        /* \"#utility.yul\":4178:4182   */\n      0x20\n        /* \"#utility.yul\":4173:4176   */\n      dup3\n        /* \"#utility.yul\":4169:4183   */\n      add\n        /* \"#utility.yul\":4161:4183   */\n      swap1\n      pop\n        /* \"#utility.yul\":4076:4189   */\n      swap2\n      swap1\n      pop\n      jump\t// out\n        /* \"#utility.yul\":4225:4957   */\n    tag_236:\n        /* \"#utility.yul\":4344:4347   */\n      0x00\n        /* \"#utility.yul\":4373:4427   */\n      tag_332\n        /* \"#utility.yul\":4421:4426   */\n      dup3\n        /* \"#utility.yul\":4373:4427   */\n      tag_230\n      jump\t// in\n    tag_332:\n        /* \"#utility.yul\":4443:4529   */\n      tag_333\n        /* \"#utility.yul\":4522:4528   */\n      dup2\n        /* \"#utility.yul\":4517:4520   */\n      dup6\n        /* \"#utility.yul\":4443:4529   */\n      tag_231\n      jump\t// in\n    tag_333:\n        /* \"#utility.yul\":4436:4529   */\n      swap4\n      pop\n        /* \"#utility.yul\":4553:4609   */\n      tag_334\n        /* \"#utility.yul\":4603:4608   */\n      dup4\n        /* \"#utility.yul\":4553:4609   */\n      tag_232\n      jump\t// in\n    tag_334:\n        /* \"#utility.yul\":4632:4639   */\n      dup1\n        /* \"#utility.yul\":4663:4664   */\n      0x00\n        /* \"#utility.yul\":4648:4932   */\n    tag_335:\n        /* \"#utility.yul\":4673:4679   */\n      dup4\n        /* \"#utility.yul\":4670:4671   */\n      dup2\n        /* \"#utility.yul\":4667:4680   */\n      lt\n        /* \"#utility.yul\":4648:4932   */\n      iszero\n      tag_337\n      jumpi\n        /* \"#utility.yul\":4749:4755   */\n      dup2\n        /* \"#utility.yul\":4743:4756   */\n      mload\n        /* \"#utility.yul\":4776:4839   */\n      tag_338\n        /* \"#utility.yul\":4835:4838   */\n      dup9\n        /* \"#utility.yul\":4820:4833   */\n      dup3\n        /* \"#utility.yul\":4776:4839   */\n      tag_234\n      jump\t// in\n    tag_338:\n        /* \"#utility.yul\":4769:4839   */\n      swap8\n      pop\n        /* \"#utility.yul\":4862:4922   */\n      tag_339\n        /* \"#utility.yul\":4915:4921   */\n      dup4\n        /* \"#utility.yul\":4862:4922   */\n      tag_235\n      jump\t// in\n    tag_339:\n        /* \"#utility.yul\":4852:4922   */\n      swap3\n      pop\n        /* \"#utility.yul\":4708:4932   */\n      pop\n        /* \"#utility.yul\":4695:4696   */\n      0x01\n        /* \"#utility.yul\":4692:4693   */\n      dup2\n        /* \"#utility.yul\":4688:4697   */\n      add\n        /* \"#utility.yul\":4683:4697   */\n      swap1\n      pop\n        /* \"#utility.yul\":4648:4932   */\n      jump(tag_335)\n    tag_337:\n        /* \"#utility.yul\":4652:4666   */\n      pop\n        /* \"#utility.yul\":4948:4951   */\n      dup6\n        /* \"#utility.yul\":4941:4951   */\n      swap4\n      pop\n        /* \"#utility.yul\":4349:4957   */\n      pop\n      pop\n      pop\n        /* \"#utility.yul\":4225:4957   */\n      swap3\n      swap2\n      pop\n      pop\n      jump\t// out\n        /* \"#utility.yul\":4963:5336   */\n    tag_24:\n        /* \"#utility.yul\":5106:5110   */\n      0x00\n        /* \"#utility.yul\":5144:5146   */\n      0x20\n        /* \"#utility.yul\":5133:5142   */\n      dup3\n        /* \"#utility.yul\":5129:5147   */\n      add\n        /* \"#utility.yul\":5121:5147   */\n      swap1\n      pop\n        /* \"#utility.yul\":5193:5202   */\n      dup2\n        /* \"#utility.yul\":5187:5191   */\n      dup2\n        /* \"#utility.yul\":5183:5203   */\n      sub\n        /* \"#utility.yul\":5179:5180   */\n      0x00\n        /* \"#utility.yul\":5168:5177   */\n      dup4\n        /* \"#utility.yul\":5164:5181   */\n      add\n        /* \"#utility.yul\":5157:5204   */\n      mstore\n        /* \"#utility.yul\":5221:5329   */\n      tag_341\n        /* \"#utility.yul\":5324:5328   */\n      dup2\n        /* \"#utility.yul\":5315:5321   */\n      dup5\n        /* \"#utility.yul\":5221:5329   */\n      tag_236\n      jump\t// in\n    tag_341:\n        /* \"#utility.yul\":5213:5329   */\n      swap1\n      pop\n        /* \"#utility.yul\":4963:5336   */\n      swap3\n      swap2\n      pop\n      pop\n      jump\t// out\n        /* \"#utility.yul\":5342:5460   */\n    tag_237:\n        /* \"#utility.yul\":5429:5453   */\n      tag_343\n        /* \"#utility.yul\":5447:5452   */\n      dup2\n        /* \"#utility.yul\":5429:5453   */\n      tag_220\n      jump\t// in\n    tag_343:\n        /* \"#utility.yul\":5424:5427   */\n      dup3\n        /* \"#utility.yul\":5417:5454   */\n      mstore\n        /* \"#utility.yul\":5342:5460   */\n      pop\n      pop\n      jump\t// out\n        /* \"#utility.yul\":5466:5688   */\n    tag_29:\n        /* \"#utility.yul\":5559:5563   */\n      0x00\n        /* \"#utility.yul\":5597:5599   */\n      0x20\n        /* \"#utility.yul\":5586:5595   */\n      dup3\n        /* \"#utility.yul\":5582:5600   */\n      add\n        /* \"#utility.yul\":5574:5600   */\n      swap1\n      pop\n        /* \"#utility.yul\":5610:5681   */\n      tag_345\n        /* \"#utility.yul\":5678:5679   */\n      0x00\n        /* \"#utility.yul\":5667:5676   */\n      dup4\n        /* \"#utility.yul\":5663:5680   */\n      add\n        /* \"#utility.yul\":5654:5660   */\n      dup5\n        /* \"#utility.yul\":5610:5681   */\n      tag_237\n      jump\t// in\n    tag_345:\n        /* \"#utility.yul\":5466:5688   */\n      swap3\n      swap2\n      pop\n      pop\n      jump\t// out\n        /* \"#utility.yul\":5694:6023   */\n    tag_33:\n        /* \"#utility.yul\":5753:5759   */\n      0x00\n        /* \"#utility.yul\":5802:5804   */\n      0x20\n        /* \"#utility.yul\":5790:5799   */\n      dup3\n        /* \"#utility.yul\":5781:5788   */\n      dup5\n        /* \"#utility.yul\":5777:5800   */\n      sub\n        /* \"#utility.yul\":5773:5805   */\n      slt\n        /* \"#utility.yul\":5770:5889   */\n      iszero\n      tag_347\n      jumpi\n        /* \"#utility.yul\":5808:5887   */\n      tag_348\n      tag_218\n      jump\t// in\n    tag_348:\n        /* \"#utility.yul\":5770:5889   */\n    tag_347:\n        /* \"#utility.yul\":5928:5929   */\n      0x00\n        /* \"#utility.yul\":5953:6006   */\n      tag_349\n        /* \"#utility.yul\":5998:6005   */\n      dup5\n        /* \"#utility.yul\":5989:5995   */\n      dup3\n        /* \"#utility.yul\":5978:5987   */\n      dup6\n        /* \"#utility.yul\":5974:5996   */\n      add\n        /* \"#utility.yul\":5953:6006   */\n      tag_222\n      jump\t// in\n    tag_349:\n        /* \"#utility.yul\":5943:6006   */\n      swap2\n      pop\n        /* \"#utility.yul\":5899:6016   */\n      pop\n        /* \"#utility.yul\":5694:6023   */\n      swap3\n      swap2\n      pop\n      pop\n      jump\t// out\n        /* \"#utility.yul\":6029:6128   */\n    tag_238:\n        /* \"#utility.yul\":6081:6087   */\n      0x00\n        /* \"#utility.yul\":6115:6120   */\n      dup2\n        /* \"#utility.yul\":6109:6121   */\n      mload\n        /* \"#utility.yul\":6099:6121   */\n      swap1\n      pop\n        /* \"#utility.yul\":6029:6128   */\n      swap2\n      swap1\n      pop\n      jump\t// out\n        /* \"#utility.yul\":6134:6303   */\n    tag_239:\n        /* \"#utility.yul\":6218:6229   */\n      0x00\n        /* \"#utility.yul\":6252:6258   */\n      dup3\n        /* \"#utility.yul\":6247:6250   */\n      dup3\n        /* \"#utility.yul\":6240:6259   */\n      mstore\n        /* \"#utility.yul\":6292:6296   */\n      0x20\n        /* \"#utility.yul\":6287:6290   */\n      dup3\n        /* \"#utility.yul\":6283:6297   */\n      add\n        /* \"#utility.yul\":6268:6297   */\n      swap1\n      pop\n        /* \"#utility.yul\":6134:6303   */\n      swap3\n      swap2\n      pop\n      pop\n      jump\t// out\n        /* \"#utility.yul\":6309:6448   */\n    tag_240:\n        /* \"#utility.yul\":6398:6404   */\n      dup3\n        /* \"#utility.yul\":6393:6396   */\n      dup2\n        /* \"#utility.yul\":6388:6391   */\n      dup4\n        /* \"#utility.yul\":6382:6405   */\n      mcopy\n        /* \"#utility.yul\":6439:6440   */\n      0x00\n        /* \"#utility.yul\":6430:6436   */\n      dup4\n        /* \"#utility.yul\":6425:6428   */\n      dup4\n        /* \"#utility.yul\":6421:6437   */\n      add\n        /* \"#utility.yul\":6414:6441   */\n      mstore\n        /* \"#utility.yul\":6309:6448   */\n      pop\n      pop\n      pop\n      jump\t// out\n        /* \"#utility.yul\":6454:6556   */\n    tag_241:\n        /* \"#utility.yul\":6495:6501   */\n      0x00\n        /* \"#utility.yul\":6546:6548   */\n      0x1f\n        /* \"#utility.yul\":6542:6549   */\n      not\n        /* \"#utility.yul\":6537:6539   */\n      0x1f\n        /* \"#utility.yul\":6530:6535   */\n      dup4\n        /* \"#utility.yul\":6526:6540   */\n      add\n        /* \"#utility.yul\":6522:6550   */\n      and\n        /* \"#utility.yul\":6512:6550   */\n      swap1\n      pop\n        /* \"#utility.yul\":6454:6556   */\n      swap2\n      swap1\n      pop\n      jump\t// out\n        /* \"#utility.yul\":6562:6939   */\n    tag_242:\n        /* \"#utility.yul\":6650:6653   */\n      0x00\n        /* \"#utility.yul\":6678:6717   */\n      tag_355\n        /* \"#utility.yul\":6711:6716   */\n      dup3\n        /* \"#utility.yul\":6678:6717   */\n      tag_238\n      jump\t// in\n    tag_355:\n        /* \"#utility.yul\":6733:6804   */\n      tag_356\n        /* \"#utility.yul\":6797:6803   */\n      dup2\n        /* \"#utility.yul\":6792:6795   */\n      dup6\n        /* \"#utility.yul\":6733:6804   */\n      tag_239\n      jump\t// in\n    tag_356:\n        /* \"#utility.yul\":6726:6804   */\n      swap4\n      pop\n        /* \"#utility.yul\":6813:6878   */\n      tag_357\n        /* \"#utility.yul\":6871:6877   */\n      dup2\n        /* \"#utility.yul\":6866:6869   */\n      dup6\n        /* \"#utility.yul\":6859:6863   */\n      0x20\n        /* \"#utility.yul\":6852:6857   */\n      dup7\n        /* \"#utility.yul\":6848:6864   */\n      add\n        /* \"#utility.yul\":6813:6878   */\n      tag_240\n      jump\t// in\n    tag_357:\n        /* \"#utility.yul\":6903:6932   */\n      tag_358\n        /* \"#utility.yul\":6925:6931   */\n      dup2\n        /* \"#utility.yul\":6903:6932   */\n      tag_241\n      jump\t// in\n    tag_358:\n        /* \"#utility.yul\":6898:6901   */\n      dup5\n        /* \"#utility.yul\":6894:6933   */\n      add\n        /* \"#utility.yul\":6887:6933   */\n      swap2\n      pop\n        /* \"#utility.yul\":6654:6939   */\n      pop\n        /* \"#utility.yul\":6562:6939   */\n      swap3\n      swap2\n      pop\n      pop\n      jump\t// out\n        /* \"#utility.yul\":6945:7060   */\n    tag_243:\n        /* \"#utility.yul\":7030:7053   */\n      tag_360\n        /* \"#utility.yul\":7047:7052   */\n      dup2\n        /* \"#utility.yul\":7030:7053   */\n      tag_227\n      jump\t// in\n    tag_360:\n        /* \"#utility.yul\":7025:7028   */\n      dup3\n        /* \"#utility.yul\":7018:7054   */\n      mstore\n        /* \"#utility.yul\":6945:7060   */\n      pop\n      pop\n      jump\t// out\n        /* \"#utility.yul\":7066:7156   */\n    tag_244:\n        /* \"#utility.yul\":7100:7107   */\n      0x00\n        /* \"#utility.yul\":7143:7148   */\n      dup2\n        /* \"#utility.yul\":7136:7149   */\n      iszero\n        /* \"#utility.yul\":7129:7150   */\n      iszero\n        /* \"#utility.yul\":7118:7150   */\n      swap1\n      pop\n        /* \"#utility.yul\":7066:7156   */\n      swap2\n      swap1\n      pop\n      jump\t// out\n        /* \"#utility.yul\":7162:7271   */\n    tag_245:\n        /* \"#utility.yul\":7243:7264   */\n      tag_363\n        /* \"#utility.yul\":7258:7263   */\n      dup2\n        /* \"#utility.yul\":7243:7264   */\n      tag_244\n      jump\t// in\n    tag_363:\n        /* \"#utility.yul\":7238:7241   */\n      dup3\n        /* \"#utility.yul\":7231:7265   */\n      mstore\n        /* \"#utility.yul\":7162:7271   */\n      pop\n      pop\n      jump\t// out\n        /* \"#utility.yul\":7277:8103   */\n    tag_36:\n        /* \"#utility.yul\":7512:7516   */\n      0x00\n        /* \"#utility.yul\":7550:7553   */\n      0xa0\n        /* \"#utility.yul\":7539:7548   */\n      dup3\n        /* \"#utility.yul\":7535:7554   */\n      add\n        /* \"#utility.yul\":7527:7554   */\n      swap1\n      pop\n        /* \"#utility.yul\":7600:7609   */\n      dup2\n        /* \"#utility.yul\":7594:7598   */\n      dup2\n        /* \"#utility.yul\":7590:7610   */\n      sub\n        /* \"#utility.yul\":7586:7587   */\n      0x00\n        /* \"#utility.yul\":7575:7584   */\n      dup4\n        /* \"#utility.yul\":7571:7588   */\n      add\n        /* \"#utility.yul\":7564:7611   */\n      mstore\n        /* \"#utility.yul\":7628:7706   */\n      tag_365\n        /* \"#utility.yul\":7701:7705   */\n      dup2\n        /* \"#utility.yul\":7692:7698   */\n      dup9\n        /* \"#utility.yul\":7628:7706   */\n      tag_242\n      jump\t// in\n    tag_365:\n        /* \"#utility.yul\":7620:7706   */\n      swap1\n      pop\n        /* \"#utility.yul\":7753:7762   */\n      dup2\n        /* \"#utility.yul\":7747:7751   */\n      dup2\n        /* \"#utility.yul\":7743:7763   */\n      sub\n        /* \"#utility.yul\":7738:7740   */\n      0x20\n        /* \"#utility.yul\":7727:7736   */\n      dup4\n        /* \"#utility.yul\":7723:7741   */\n      add\n        /* \"#utility.yul\":7716:7764   */\n      mstore\n        /* \"#utility.yul\":7781:7859   */\n      tag_366\n        /* \"#utility.yul\":7854:7858   */\n      dup2\n        /* \"#utility.yul\":7845:7851   */\n      dup8\n        /* \"#utility.yul\":7781:7859   */\n      tag_242\n      jump\t// in\n    tag_366:\n        /* \"#utility.yul\":7773:7859   */\n      swap1\n      pop\n        /* \"#utility.yul\":7869:7939   */\n      tag_367\n        /* \"#utility.yul\":7935:7937   */\n      0x40\n        /* \"#utility.yul\":7924:7933   */\n      dup4\n        /* \"#utility.yul\":7920:7938   */\n      add\n        /* \"#utility.yul\":7911:7917   */\n      dup7\n        /* \"#utility.yul\":7869:7939   */\n      tag_243\n      jump\t// in\n    tag_367:\n        /* \"#utility.yul\":7949:8019   */\n      tag_368\n        /* \"#utility.yul\":8015:8017   */\n      0x60\n        /* \"#utility.yul\":8004:8013   */\n      dup4\n        /* \"#utility.yul\":8000:8018   */\n      add\n        /* \"#utility.yul\":7991:7997   */\n      dup6\n        /* \"#utility.yul\":7949:8019   */\n      tag_243\n      jump\t// in\n    tag_368:\n        /* \"#utility.yul\":8029:8096   */\n      tag_369\n        /* \"#utility.yul\":8091:8094   */\n      0x80\n        /* \"#utility.yul\":8080:8089   */\n      dup4\n        /* \"#utility.yul\":8076:8095   */\n      add\n        /* \"#utility.yul\":8067:8073   */\n      dup5\n        /* \"#utility.yul\":8029:8096   */\n      tag_245\n      jump\t// in\n    tag_369:\n        /* \"#utility.yul\":7277:8103   */\n      swap7\n      swap6\n      pop\n      pop\n      pop\n      pop\n      pop\n      pop\n      jump\t// out\n        /* \"#utility.yul\":8109:8935   */\n    tag_42:\n        /* \"#utility.yul\":8344:8348   */\n      0x00\n        /* \"#utility.yul\":8382:8385   */\n      0xa0\n        /* \"#utility.yul\":8371:8380   */\n      dup3\n        /* \"#utility.yul\":8367:8386   */\n      add\n        /* \"#utility.yul\":8359:8386   */\n      swap1\n      pop\n        /* \"#utility.yul\":8396:8465   */\n      tag_371\n        /* \"#utility.yul\":8462:8463   */\n      0x00\n        /* \"#utility.yul\":8451:8460   */\n      dup4\n        /* \"#utility.yul\":8447:8464   */\n      add\n        /* \"#utility.yul\":8438:8444   */\n      dup9\n        /* \"#utility.yul\":8396:8465   */\n      tag_243\n      jump\t// in\n    tag_371:\n        /* \"#utility.yul\":8475:8545   */\n      tag_372\n        /* \"#utility.yul\":8541:8543   */\n      0x20\n        /* \"#utility.yul\":8530:8539   */\n      dup4\n        /* \"#utility.yul\":8526:8544   */\n      add\n        /* \"#utility.yul\":8517:8523   */\n      dup8\n        /* \"#utility.yul\":8475:8545   */\n      tag_243\n      jump\t// in\n    tag_372:\n        /* \"#utility.yul\":8555:8621   */\n      tag_373\n        /* \"#utility.yul\":8617:8619   */\n      0x40\n        /* \"#utility.yul\":8606:8615   */\n      dup4\n        /* \"#utility.yul\":8602:8620   */\n      add\n        /* \"#utility.yul\":8593:8599   */\n      dup7\n        /* \"#utility.yul\":8555:8621   */\n      tag_245\n      jump\t// in\n    tag_373:\n        /* \"#utility.yul\":8668:8677   */\n      dup2\n        /* \"#utility.yul\":8662:8666   */\n      dup2\n        /* \"#utility.yul\":8658:8678   */\n      sub\n        /* \"#utility.yul\":8653:8655   */\n      0x60\n        /* \"#utility.yul\":8642:8651   */\n      dup4\n        /* \"#utility.yul\":8638:8656   */\n      add\n        /* \"#utility.yul\":8631:8679   */\n      mstore\n        /* \"#utility.yul\":8696:8774   */\n      tag_374\n        /* \"#utility.yul\":8769:8773   */\n      dup2\n        /* \"#utility.yul\":8760:8766   */\n      dup6\n        /* \"#utility.yul\":8696:8774   */\n      tag_242\n      jump\t// in\n    tag_374:\n        /* \"#utility.yul\":8688:8774   */\n      swap1\n      pop\n        /* \"#utility.yul\":8822:8831   */\n      dup2\n        /* \"#utility.yul\":8816:8820   */\n      dup2\n        /* \"#utility.yul\":8812:8832   */\n      sub\n        /* \"#utility.yul\":8806:8809   */\n      0x80\n        /* \"#utility.yul\":8795:8804   */\n      dup4\n        /* \"#utility.yul\":8791:8810   */\n      add\n        /* \"#utility.yul\":8784:8833   */\n      mstore\n        /* \"#utility.yul\":8850:8928   */\n      tag_375\n        /* \"#utility.yul\":8923:8927   */\n      dup2\n        /* \"#utility.yul\":8914:8920   */\n      dup5\n        /* \"#utility.yul\":8850:8928   */\n      tag_242\n      jump\t// in\n    tag_375:\n        /* \"#utility.yul\":8842:8928   */\n      swap1\n      pop\n        /* \"#utility.yul\":8109:8935   */\n      swap7\n      swap6\n      pop\n      pop\n      pop\n      pop\n      pop\n      pop\n      jump\t// out\n        /* \"#utility.yul\":8941:9067   */\n    tag_246:\n        /* \"#utility.yul\":8978:8985   */\n      0x00\n        /* \"#utility.yul\":9018:9060   */\n      0xffffffffffffffffffffffffffffffffffffffff\n        /* \"#utility.yul\":9011:9016   */\n      dup3\n        /* \"#utility.yul\":9007:9061   */\n      and\n        /* \"#utility.yul\":8996:9061   */\n      swap1\n      pop\n        /* \"#utility.yul\":8941:9067   */\n      swap2\n      swap1\n      pop\n      jump\t// out\n        /* \"#utility.yul\":9073:9169   */\n    tag_247:\n        /* \"#utility.yul\":9110:9117   */\n      0x00\n        /* \"#utility.yul\":9139:9163   */\n      tag_378\n        /* \"#utility.yul\":9157:9162   */\n      dup3\n        /* \"#utility.yul\":9139:9163   */\n      tag_246\n      jump\t// in\n    tag_378:\n        /* \"#utility.yul\":9128:9163   */\n      swap1\n      pop\n        /* \"#utility.yul\":9073:9169   */\n      swap2\n      swap1\n      pop\n      jump\t// out\n        /* \"#utility.yul\":9175:9293   */\n    tag_248:\n        /* \"#utility.yul\":9262:9286   */\n      tag_380\n        /* \"#utility.yul\":9280:9285   */\n      dup2\n        /* \"#utility.yul\":9262:9286   */\n      tag_247\n      jump\t// in\n    tag_380:\n        /* \"#utility.yul\":9257:9260   */\n      dup3\n        /* \"#utility.yul\":9250:9287   */\n      mstore\n        /* \"#utility.yul\":9175:9293   */\n      pop\n      pop\n      jump\t// out\n        /* \"#utility.yul\":9299:9521   */\n    tag_50:\n        /* \"#utility.yul\":9392:9396   */\n      0x00\n        /* \"#utility.yul\":9430:9432   */\n      0x20\n        /* \"#utility.yul\":9419:9428   */\n      dup3\n        /* \"#utility.yul\":9415:9433   */\n      add\n        /* \"#utility.yul\":9407:9433   */\n      swap1\n      pop\n        /* \"#utility.yul\":9443:9514   */\n      tag_382\n        /* \"#utility.yul\":9511:9512   */\n      0x00\n        /* \"#utility.yul\":9500:9509   */\n      dup4\n        /* \"#utility.yul\":9496:9513   */\n      add\n        /* \"#utility.yul\":9487:9493   */\n      dup5\n        /* \"#utility.yul\":9443:9514   */\n      tag_248\n      jump\t// in\n    tag_382:\n        /* \"#utility.yul\":9299:9521   */\n      swap3\n      swap2\n      pop\n      pop\n      jump\t// out\n        /* \"#utility.yul\":9527:9745   */\n    tag_55:\n        /* \"#utility.yul\":9618:9622   */\n      0x00\n        /* \"#utility.yul\":9656:9658   */\n      0x20\n        /* \"#utility.yul\":9645:9654   */\n      dup3\n        /* \"#utility.yul\":9641:9659   */\n      add\n        /* \"#utility.yul\":9633:9659   */\n      swap1\n      pop\n        /* \"#utility.yul\":9669:9738   */\n      tag_384\n        /* \"#utility.yul\":9735:9736   */\n      0x00\n        /* \"#utility.yul\":9724:9733   */\n      dup4\n        /* \"#utility.yul\":9720:9737   */\n      add\n        /* \"#utility.yul\":9711:9717   */\n      dup5\n        /* \"#utility.yul\":9669:9738   */\n      tag_243\n      jump\t// in\n    tag_384:\n        /* \"#utility.yul\":9527:9745   */\n      swap3\n      swap2\n      pop\n      pop\n      jump\t// out\n        /* \"#utility.yul\":9751:9873   */\n    tag_249:\n        /* \"#utility.yul\":9824:9848   */\n      tag_386\n        /* \"#utility.yul\":9842:9847   */\n      dup2\n        /* \"#utility.yul\":9824:9848   */\n      tag_247\n      jump\t// in\n    tag_386:\n        /* \"#utility.yul\":9817:9822   */\n      dup2\n        /* \"#utility.yul\":9814:9849   */\n      eq\n        /* \"#utility.yul\":9804:9867   */\n      tag_387\n      jumpi\n        /* \"#utility.yul\":9863:9864   */\n      0x00\n        /* \"#utility.yul\":9860:9861   */\n      dup1\n        /* \"#utility.yul\":9853:9865   */\n      revert\n        /* \"#utility.yul\":9804:9867   */\n    tag_387:\n        /* \"#utility.yul\":9751:9873   */\n      pop\n      jump\t// out\n        /* \"#utility.yul\":9879:10018   */\n    tag_250:\n        /* \"#utility.yul\":9925:9930   */\n      0x00\n        /* \"#utility.yul\":9963:9969   */\n      dup2\n        /* \"#utility.yul\":9950:9970   */\n      calldataload\n        /* \"#utility.yul\":9941:9970   */\n      swap1\n      pop\n        /* \"#utility.yul\":9979:10012   */\n      tag_389\n        /* \"#utility.yul\":10006:10011   */\n      dup2\n        /* \"#utility.yul\":9979:10012   */\n      tag_249\n      jump\t// in\n    tag_389:\n        /* \"#utility.yul\":9879:10018   */\n      swap3\n      swap2\n      pop\n      pop\n      jump\t// out\n        /* \"#utility.yul\":10024:10353   */\n    tag_63:\n        /* \"#utility.yul\":10083:10089   */\n      0x00\n        /* \"#utility.yul\":10132:10134   */\n      0x20\n        /* \"#utility.yul\":10120:10129   */\n      dup3\n        /* \"#utility.yul\":10111:10118   */\n      dup5\n        /* \"#utility.yul\":10107:10130   */\n      sub\n        /* \"#utility.yul\":10103:10135   */\n      slt\n        /* \"#utility.yul\":10100:10219   */\n      iszero\n      tag_391\n      jumpi\n        /* \"#utility.yul\":10138:10217   */\n      tag_392\n      tag_218\n      jump\t// in\n    tag_392:\n        /* \"#utility.yul\":10100:10219   */\n    tag_391:\n        /* \"#utility.yul\":10258:10259   */\n      0x00\n        /* \"#utility.yul\":10283:10336   */\n      tag_393\n        /* \"#utility.yul\":10328:10335   */\n      dup5\n        /* \"#utility.yul\":10319:10325   */\n      dup3\n        /* \"#utility.yul\":10308:10317   */\n      dup6\n        /* \"#utility.yul\":10304:10326   */\n      add\n        /* \"#utility.yul\":10283:10336   */\n      tag_250\n      jump\t// in\n    tag_393:\n        /* \"#utility.yul\":10273:10336   */\n      swap2\n      pop\n        /* \"#utility.yul\":10229:10346   */\n      pop\n        /* \"#utility.yul\":10024:10353   */\n      swap3\n      swap2\n      pop\n      pop\n      jump\t// out\n        /* \"#utility.yul\":10359:10831   */\n    tag_67:\n        /* \"#utility.yul\":10426:10432   */\n      0x00\n        /* \"#utility.yul\":10434:10440   */\n      dup1\n        /* \"#utility.yul\":10483:10485   */\n      0x40\n        /* \"#utility.yul\":10471:10480   */\n      dup4\n        /* \"#utility.yul\":10462:10469   */\n      dup6\n        /* \"#utility.yul\":10458:10481   */\n      sub\n        /* \"#utility.yul\":10454:10486   */\n      slt\n        /* \"#utility.yul\":10451:10570   */\n      iszero\n      tag_395\n      jumpi\n        /* \"#utility.yul\":10489:10568   */\n      tag_396\n      tag_218\n      jump\t// in\n    tag_396:\n        /* \"#utility.yul\":10451:10570   */\n    tag_395:\n        /* \"#utility.yul\":10609:10610   */\n      0x00\n        /* \"#utility.yul\":10634:10687   */\n      tag_397\n        /* \"#utility.yul\":10679:10686   */\n      dup6\n        /* \"#utility.yul\":10670:10676   */\n      dup3\n        /* \"#utility.yul\":10659:10668   */\n      dup7\n        /* \"#utility.yul\":10655:10677   */\n      add\n        /* \"#utility.yul\":10634:10687   */\n      tag_222\n      jump\t// in\n    tag_397:\n        /* \"#utility.yul\":10624:10687   */\n      swap3\n      pop\n        /* \"#utility.yul\":10580:10697   */\n      pop\n        /* \"#utility.yul\":10736:10738   */\n      0x20\n        /* \"#utility.yul\":10762:10814   */\n      tag_398\n        /* \"#utility.yul\":10806:10813   */\n      dup6\n        /* \"#utility.yul\":10797:10803   */\n      dup3\n        /* \"#utility.yul\":10786:10795   */\n      dup7\n        /* \"#utility.yul\":10782:10804   */\n      add\n        /* \"#utility.yul\":10762:10814   */\n      tag_229\n      jump\t// in\n    tag_398:\n        /* \"#utility.yul\":10752:10814   */\n      swap2\n      pop\n        /* \"#utility.yul\":10707:10824   */\n      pop\n        /* \"#utility.yul\":10359:10831   */\n      swap3\n      pop\n      swap3\n      swap1\n      pop\n      jump\t// out\n        /* \"#utility.yul\":10854:11422   */\n    tag_251:\n        /* \"#utility.yul\":10927:10935   */\n      0x00\n        /* \"#utility.yul\":10937:10943   */\n      dup1\n        /* \"#utility.yul\":10987:10990   */\n      dup4\n        /* \"#utility.yul\":10980:10984   */\n      0x1f\n        /* \"#utility.yul\":10972:10978   */\n      dup5\n        /* \"#utility.yul\":10968:10985   */\n      add\n        /* \"#utility.yul\":10964:10991   */\n      slt\n        /* \"#utility.yul\":10954:11076   */\n      tag_400\n      jumpi\n        /* \"#utility.yul\":10995:11074   */\n      tag_401\n      tag_223\n      jump\t// in\n    tag_401:\n        /* \"#utility.yul\":10954:11076   */\n    tag_400:\n        /* \"#utility.yul\":11108:11114   */\n      dup3\n        /* \"#utility.yul\":11095:11115   */\n      calldataload\n        /* \"#utility.yul\":11085:11115   */\n      swap1\n      pop\n        /* \"#utility.yul\":11138:11156   */\n      0xffffffffffffffff\n        /* \"#utility.yul\":11130:11136   */\n      dup2\n        /* \"#utility.yul\":11127:11157   */\n      gt\n        /* \"#utility.yul\":11124:11241   */\n      iszero\n      tag_402\n      jumpi\n        /* \"#utility.yul\":11160:11239   */\n      tag_403\n      tag_224\n      jump\t// in\n    tag_403:\n        /* \"#utility.yul\":11124:11241   */\n    tag_402:\n        /* \"#utility.yul\":11274:11278   */\n      0x20\n        /* \"#utility.yul\":11266:11272   */\n      dup4\n        /* \"#utility.yul\":11262:11279   */\n      add\n        /* \"#utility.yul\":11250:11279   */\n      swap2\n      pop\n        /* \"#utility.yul\":11328:11331   */\n      dup4\n        /* \"#utility.yul\":11320:11324   */\n      0x20\n        /* \"#utility.yul\":11312:11318   */\n      dup3\n        /* \"#utility.yul\":11308:11325   */\n      mul\n        /* \"#utility.yul\":11298:11306   */\n      dup4\n        /* \"#utility.yul\":11294:11326   */\n      add\n        /* \"#utility.yul\":11291:11332   */\n      gt\n        /* \"#utility.yul\":11288:11416   */\n      iszero\n      tag_404\n      jumpi\n        /* \"#utility.yul\":11335:11414   */\n      tag_405\n      tag_225\n      jump\t// in\n    tag_405:\n        /* \"#utility.yul\":11288:11416   */\n    tag_404:\n        /* \"#utility.yul\":10854:11422   */\n      swap3\n      pop\n      swap3\n      swap1\n      pop\n      jump\t// out\n        /* \"#utility.yul\":11428:11987   */\n    tag_72:\n        /* \"#utility.yul\":11514:11520   */\n      0x00\n        /* \"#utility.yul\":11522:11528   */\n      dup1\n        /* \"#utility.yul\":11571:11573   */\n      0x20\n        /* \"#utility.yul\":11559:11568   */\n      dup4\n        /* \"#utility.yul\":11550:11557   */\n      dup6\n        /* \"#utility.yul\":11546:11569   */\n      sub\n        /* \"#utility.yul\":11542:11574   */\n      slt\n        /* \"#utility.yul\":11539:11658   */\n      iszero\n      tag_407\n      jumpi\n        /* \"#utility.yul\":11577:11656   */\n      tag_408\n      tag_218\n      jump\t// in\n    tag_408:\n        /* \"#utility.yul\":11539:11658   */\n    tag_407:\n        /* \"#utility.yul\":11725:11726   */\n      0x00\n        /* \"#utility.yul\":11714:11723   */\n      dup4\n        /* \"#utility.yul\":11710:11727   */\n      add\n        /* \"#utility.yul\":11697:11728   */\n      calldataload\n        /* \"#utility.yul\":11755:11773   */\n      0xffffffffffffffff\n        /* \"#utility.yul\":11747:11753   */\n      dup2\n        /* \"#utility.yul\":11744:11774   */\n      gt\n        /* \"#utility.yul\":11741:11858   */\n      iszero\n      tag_409\n      jumpi\n        /* \"#utility.yul\":11777:11856   */\n      tag_410\n      tag_219\n      jump\t// in\n    tag_410:\n        /* \"#utility.yul\":11741:11858   */\n    tag_409:\n        /* \"#utility.yul\":11890:11970   */\n      tag_411\n        /* \"#utility.yul\":11962:11969   */\n      dup6\n        /* \"#utility.yul\":11953:11959   */\n      dup3\n        /* \"#utility.yul\":11942:11951   */\n      dup7\n        /* \"#utility.yul\":11938:11960   */\n      add\n        /* \"#utility.yul\":11890:11970   */\n      tag_251\n      jump\t// in\n    tag_411:\n        /* \"#utility.yul\":11872:11970   */\n      swap3\n      pop\n      swap3\n      pop\n        /* \"#utility.yul\":11668:11980   */\n      pop\n        /* \"#utility.yul\":11428:11987   */\n      swap3\n      pop\n      swap3\n      swap1\n      pop\n      jump\t// out\n        /* \"#utility.yul\":11993:12154   */\n    tag_252:\n        /* \"#utility.yul\":12133:12146   */\n      0x426f6f6b20657869737473000000000000000000000000000000000000000000\n        /* \"#utility.yul\":12129:12130   */\n      0x00\n        /* \"#utility.yul\":12121:12127   */\n      dup3\n        /* \"#utility.yul\":12117:12131   */\n      add\n        /* \"#utility.yul\":12110:12147   */\n      mstore\n        /* \"#utility.yul\":11993:12154   */\n      pop\n      jump\t// out\n        /* \"#utility.yul\":12160:12526   */\n    tag_253:\n        /* \"#utility.yul\":12302:12305   */\n      0x00\n        /* \"#utility.yul\":12323:12390   */\n      tag_414\n        /* \"#utility.yul\":12387:12389   */\n      0x0b\n        /* \"#utility.yul\":12382:12385   */\n      dup4\n        /* \"#utility.yul\":12323:12390   */\n      tag_239\n      jump\t// in\n    tag_414:\n        /* \"#utility.yul\":12316:12390   */\n      swap2\n      pop\n        /* \"#utility.yul\":12399:12492   */\n      tag_415\n        /* \"#utility.yul\":12488:12491   */\n      dup3\n        /* \"#utility.yul\":12399:12492   */\n      tag_252\n      jump\t// in\n    tag_415:\n        /* \"#utility.yul\":12517:12519   */\n      0x20\n        /* \"#utility.yul\":12512:12515   */\n      dup3\n        /* \"#utility.yul\":12508:12520   */\n      add\n        /* \"#utility.yul\":12501:12520   */\n      swap1\n      pop\n        /* \"#utility.yul\":12160:12526   */\n      swap2\n      swap1\n      pop\n      jump\t// out\n        /* \"#utility.yul\":12532:12951   */\n    tag_77:\n        /* \"#utility.yul\":12698:12702   */\n      0x00\n        /* \"#utility.yul\":12736:12738   */\n      0x20\n        /* \"#utility.yul\":12725:12734   */\n      dup3\n        /* \"#utility.yul\":12721:12739   */\n      add\n        /* \"#utility.yul\":12713:12739   */\n      swap1\n      pop\n        /* \"#utility.yul\":12785:12794   */\n      dup2\n        /* \"#utility.yul\":12779:12783   */\n      dup2\n        /* \"#utility.yul\":12775:12795   */\n      sub\n        /* \"#utility.yul\":12771:12772   */\n      0x00\n        /* \"#utility.yul\":12760:12769   */\n      dup4\n        /* \"#utility.yul\":12756:12773   */\n      add\n        /* \"#utility.yul\":12749:12796   */\n      mstore\n        /* \"#utility.yul\":12813:12944   */\n      tag_417\n        /* \"#utility.yul\":12939:12943   */\n      dup2\n        /* \"#utility.yul\":12813:12944   */\n      tag_253\n      jump\t// in\n    tag_417:\n        /* \"#utility.yul\":12805:12944   */\n      swap1\n      pop\n        /* \"#utility.yul\":12532:12951   */\n      swap2\n      swap1\n      pop\n      jump\t// out\n        /* \"#utility.yul\":12957:13137   */\n    tag_254:\n        /* \"#utility.yul\":13005:13082   */\n      0x4e487b7100000000000000000000000000000000000000000000000000000000\n        /* \"#utility.yul\":13002:13003   */\n      0x00\n        /* \"#utility.yul\":12995:13083   */\n      mstore\n        /* \"#utility.yul\":13102:13106   */\n      0x41\n        /* \"#utility.yul\":13099:13100   */\n      0x04\n        /* \"#utility.yul\":13092:13107   */\n      mstore\n        /* \"#utility.yul\":13126:13130   */\n      0x24\n        /* \"#utility.yul\":13123:13124   */\n      0x00\n        /* \"#utility.yul\":13116:13131   */\n      revert\n        /* \"#utility.yul\":13143:13323   */\n    tag_255:\n        /* \"#utility.yul\":13191:13268   */\n      0x4e487b7100000000000000000000000000000000000000000000000000000000\n        /* \"#utility.yul\":13188:13189   */\n      0x00\n        /* \"#utility.yul\":13181:13269   */\n      mstore\n        /* \"#utility.yul\":13288:13292   */\n      0x22\n        /* \"#utility.yul\":13285:13286   */\n      0x04\n        /* \"#utility.yul\":13278:13293   */\n      mstore\n        /* \"#utility.yul\":13312:13316   */\n      0x24\n        /* \"#utility.yul\":13309:13310   */\n      0x00\n        /* \"#utility.yul\":13302:13317   */\n      revert\n        /* \"#utility.yul\":13329:13649   */\n    tag_91:\n        /* \"#utility.yul\":13373:13379   */\n      0x00\n        /* \"#utility.yul\":13410:13411   */\n      0x02\n        /* \"#utility.yul\":13404:13408   */\n      dup3\n        /* \"#utility.yul\":13400:13412   */\n      div\n        /* \"#utility.yul\":13390:13412   */\n      swap1\n      pop\n        /* \"#utility.yul\":13457:13458   */\n      0x01\n        /* \"#utility.yul\":13451:13455   */\n      dup3\n        /* \"#utility.yul\":13447:13459   */\n      and\n        /* \"#utility.yul\":13478:13496   */\n      dup1\n        /* \"#utility.yul\":13468:13549   */\n      tag_421\n      jumpi\n        /* \"#utility.yul\":13534:13538   */\n      0x7f\n        /* \"#utility.yul\":13526:13532   */\n      dup3\n        /* \"#utility.yul\":13522:13539   */\n      and\n        /* \"#utility.yul\":13512:13539   */\n      swap2\n      pop\n        /* \"#utility.yul\":13468:13549   */\n    tag_421:\n        /* \"#utility.yul\":13596:13598   */\n      0x20\n        /* \"#utility.yul\":13588:13594   */\n      dup3\n        /* \"#utility.yul\":13585:13599   */\n      lt\n        /* \"#utility.yul\":13565:13583   */\n      dup2\n        /* \"#utility.yul\":13562:13600   */\n      sub\n        /* \"#utility.yul\":13559:13643   */\n      tag_422\n      jumpi\n        /* \"#utility.yul\":13615:13633   */\n      tag_423\n      tag_255\n      jump\t// in\n    tag_423:\n        /* \"#utility.yul\":13559:13643   */\n    tag_422:\n        /* \"#utility.yul\":13380:13649   */\n      pop\n        /* \"#utility.yul\":13329:13649   */\n      swap2\n      swap1\n      pop\n      jump\t// out\n        /* \"#utility.yul\":13655:13796   */\n    tag_256:\n        /* \"#utility.yul\":13704:13708   */\n      0x00\n        /* \"#utility.yul\":13727:13730   */\n      dup2\n        /* \"#utility.yul\":13719:13730   */\n      swap1\n      pop\n        /* \"#utility.yul\":13750:13753   */\n      dup2\n        /* \"#utility.yul\":13747:13748   */\n      0x00\n        /* \"#utility.yul\":13740:13754   */\n      mstore\n        /* \"#utility.yul\":13784:13788   */\n      0x20\n        /* \"#utility.yul\":13781:13782   */\n      0x00\n        /* \"#utility.yul\":13771:13789   */\n      keccak256\n        /* \"#utility.yul\":13763:13789   */\n      swap1\n      pop\n        /* \"#utility.yul\":13655:13796   */\n      swap2\n      swap1\n      pop\n      jump\t// out\n        /* \"#utility.yul\":13802:13895   */\n    tag_257:\n        /* \"#utility.yul\":13839:13845   */\n      0x00\n        /* \"#utility.yul\":13886:13888   */\n      0x20\n        /* \"#utility.yul\":13881:13883   */\n      0x1f\n        /* \"#utility.yul\":13874:13879   */\n      dup4\n        /* \"#utility.yul\":13870:13884   */\n      add\n        /* \"#utility.yul\":13866:13889   */\n      div\n        /* \"#utility.yul\":13856:13889   */\n      swap1\n      pop\n        /* \"#utility.yul\":13802:13895   */\n      swap2\n      swap1\n      pop\n      jump\t// out\n        /* \"#utility.yul\":13901:14008   */\n    tag_258:\n        /* \"#utility.yul\":13945:13953   */\n      0x00\n        /* \"#utility.yul\":13995:14000   */\n      dup3\n        /* \"#utility.yul\":13989:13993   */\n      dup3\n        /* \"#utility.yul\":13985:14001   */\n      shl\n        /* \"#utility.yul\":13964:14001   */\n      swap1\n      pop\n        /* \"#utility.yul\":13901:14008   */\n      swap3\n      swap2\n      pop\n      pop\n      jump\t// out\n        /* \"#utility.yul\":14014:14407   */\n    tag_259:\n        /* \"#utility.yul\":14083:14089   */\n      0x00\n        /* \"#utility.yul\":14133:14134   */\n      0x08\n        /* \"#utility.yul\":14121:14131   */\n      dup4\n        /* \"#utility.yul\":14117:14135   */\n      mul\n        /* \"#utility.yul\":14156:14253   */\n      tag_428\n        /* \"#utility.yul\":14186:14252   */\n      0xffffffffffffffffffffffffffffffffffffffffffffffffffffffffffffffff\n        /* \"#utility.yul\":14175:14184   */\n      dup3\n        /* \"#utility.yul\":14156:14253   */\n      tag_258\n      jump\t// in\n    tag_428:\n        /* \"#utility.yul\":14274:14313   */\n      tag_429\n        /* \"#utility.yul\":14304:14312   */\n      dup7\n        /* \"#utility.yul\":14293:14302   */\n      dup4\n        /* \"#utility.yul\":14274:14313   */\n      tag_258\n      jump\t// in\n    tag_429:\n        /* \"#utility.yul\":14262:14313   */\n      swap6\n      pop\n        /* \"#utility.yul\":14346:14350   */\n      dup1\n        /* \"#utility.yul\":14342:14351   */\n      not\n        /* \"#utility.yul\":14335:14340   */\n      dup5\n        /* \"#utility.yul\":14331:14352   */\n      and\n        /* \"#utility.yul\":14322:14352   */\n      swap4\n      pop\n        /* \"#utility.yul\":14395:14399   */\n      dup1\n        /* \"#utility.yul\":14385:14393   */\n      dup7\n        /* \"#utility.yul\":14381:14400   */\n      and\n        /* \"#utility.yul\":14374:14379   */\n      dup5\n        /* \"#utility.yul\":14371:14401   */\n      or\n        /* \"#utility.yul\":14361:14401   */\n      swap3\n      pop\n        /* \"#utility.yul\":14090:14407   */\n      pop\n      pop\n        /* \"#utility.yul\":14014:14407   */\n      swap4\n      swap3\n      pop\n      pop\n      pop\n      jump\t// out\n        /* \"#utility.yul\":14413:14473   */\n    tag_260:\n        /* \"#utility.yul\":14441:14444   */\n      0x00\n        /* \"#utility.yul\":14462:14467   */\n      dup2\n        /* \"#utility.yul\":14455:14467   */\n      swap1\n      pop\n        /* \"#utility.yul\":14413:14473   */\n      swap2\n      swap1\n      pop\n      jump\t// out\n        /* \"#utility.yul\":14479:14621   */\n    tag_261:\n        /* \"#utility.yul\":14529:14538   */\n      0x00\n        /* \"#utility.yul\":14562:14615   */\n      tag_432\n        /* \"#utility.yul\":14580:14614   */\n      tag_433\n        /* \"#utility.yul\":14589:14613   */\n      tag_434\n        /* \"#utility.yul\":14607:14612   */\n      dup5\n        /* \"#utility.yul\":14589:14613   */\n      tag_220\n      jump\t// in\n    tag_434:\n        /* \"#utility.yul\":14580:14614   */\n      tag_260\n      jump\t// in\n    tag_433:\n        /* \"#utility.yul\":14562:14615   */\n      tag_220\n      jump\t// in\n    tag_432:\n        /* \"#utility.yul\":14549:14615   */\n      swap1\n      pop\n        /* \"#utility.yul\":14479:14621   */\n      swap2\n      swap1\n      pop\n      jump\t// out\n        /* \"#utility.yul\":14627:14702   */\n    tag_262:\n        /* \"#utility.yul\":14670:14673   */\n      0x00\n        /* \"#utility.yul\":14691:14696   */\n      dup2\n        /* \"#utility.yul\":14684:14696   */\n      swap1\n      pop\n        /* \"#utility.yul\":14627:14702   */\n      swap2\n      swap1\n      pop\n      jump\t// out\n        /* \"#utility.yul\":14708:14977   */\n    tag_263:\n        /* \"#utility.yul\":14818:14857   */\n      tag_437\n        /* \"#utility.yul\":14849:14856   */\n      dup4\n        /* \"#utility.yul\":14818:14857   */\n      tag_261\n      jump\t// in\n    tag_437:\n        /* \"#utility.yul\":14879:14970   */\n      tag_438\n        /* \"#utility.yul\":14928:14969   */\n      tag_439\n        /* \"#utility.yul\":14952:14968   */\n      dup3\n        /* \"#utility.yul\":14928:14969   */\n      tag_262\n      jump\t// in\n    tag_439:\n        /* \"#utility.yul\":14920:14926   */\n      dup5\n        /* \"#utility.yul\":14913:14917   */\n      dup5\n        /* \"#utility.yul\":14907:14918   */\n      sload\n        /* \"#utility.yul\":14879:14970   */\n      tag_259\n      jump\t// in\n    tag_438:\n        /* \"#utility.yul\":14873:14877   */\n      dup3\n        /* \"#utility.yul\":14866:14971   */\n      sstore\n        /* \"#utility.yul\":14784:14977   */\n      pop\n        /* \"#utility.yul\":14708:14977   */\n      pop\n      pop\n      pop\n      jump\t// out\n        /* \"#utility.yul\":14983:15056   */\n    tag_264:\n        /* \"#utility.yul\":15028:15031   */\n      0x00\n        /* \"#utility.yul\":14983:15056   */\n      swap1\n      jump\t// out\n        /* \"#utility.yul\":15062:15251   */\n    tag_265:\n        /* \"#utility.yul\":15139:15171   */\n      tag_442\n      tag_264\n      jump\t// in\n    tag_442:\n        /* \"#utility.yul\":15180:15245   */\n      tag_443\n        /* \"#utility.yul\":15238:15244   */\n      dup2\n        /* \"#utility.yul\":15230:15236   */\n      dup5\n        /* \"#utility.yul\":15224:15228   */\n      dup5\n        /* \"#utility.yul\":15180:15245   */\n      tag_263\n      jump\t// in\n    tag_443:\n        /* \"#utility.yul\":15115:15251   */\n      pop\n        /* \"#utility.yul\":15062:15251   */\n      pop\n      pop\n      jump\t// out\n        /* \"#utility.yul\":15257:15443   */\n    tag_266:\n        /* \"#utility.yul\":15317:15437   */\n    tag_445:\n        /* \"#utility.yul\":15334:15337   */\n      dup2\n        /* \"#utility.yul\":15327:15332   */\n      dup2\n        /* \"#utility.yul\":15324:15338   */\n      lt\n        /* \"#utility.yul\":15317:15437   */\n      iszero\n      tag_447\n      jumpi\n        /* \"#utility.yul\":15388:15427   */\n      tag_448\n        /* \"#utility.yul\":15425:15426   */\n      0x00\n        /* \"#utility.yul\":15418:15423   */\n      dup3\n        /* \"#utility.yul\":15388:15427   */\n      tag_265\n      jump\t// in\n    tag_448:\n        /* \"#utility.yul\":15361:15362   */\n      0x01\n        /* \"#utility.yul\":15354:15359   */\n      dup2\n        /* \"#utility.yul\":15350:15363   */\n      add\n        /* \"#utility.yul\":15341:15363   */\n      swap1\n      pop\n        /* \"#utility.yul\":15317:15437   */\n      jump(tag_445)\n    tag_447:\n        /* \"#utility.yul\":15257:15443   */\n      pop\n      pop\n      jump\t// out\n        /* \"#utility.yul\":15449:15992   */\n    tag_267:\n        /* \"#utility.yul\":15550:15552   */\n      0x1f\n        /* \"#utility.yul\":15545:15548   */\n      dup3\n        /* \"#utility.yul\":15542:15553   */\n      gt\n        /* \"#utility.yul\":15539:15985   */\n      iszero\n      tag_450\n      jumpi\n        /* \"#utility.yul\":15584:15622   */\n      tag_451\n        /* \"#utility.yul\":15616:15621   */\n      dup2\n        /* \"#utility.yul\":15584:15622   */\n      tag_256\n      jump\t// in\n    tag_451:\n        /* \"#utility.yul\":15668:15697   */\n      tag_452\n        /* \"#utility.yul\":15686:15696   */\n      dup5\n        /* \"#utility.yul\":15668:15697   */\n      tag_257\n      jump\t// in\n    tag_452:\n        /* \"#utility.yul\":15658:15666   */\n      dup2\n        /* \"#utility.yul\":15654:15698   */\n      add\n        /* \"#utility.yul\":15851:15853   */\n      0x20\n        /* \"#utility.yul\":15839:15849   */\n      dup6\n        /* \"#utility.yul\":15836:15854   */\n      lt\n        /* \"#utility.yul\":15833:15882   */\n      iszero\n      tag_453\n      jumpi\n        /* \"#utility.yul\":15872:15880   */\n      dup2\n        /* \"#utility.yul\":15857:15880   */\n      swap1\n      pop\n        /* \"#utility.yul\":15833:15882   */\n    tag_453:\n        /* \"#utility.yul\":15895:15975   */\n      tag_454\n        /* \"#utility.yul\":15951:15973   */\n      tag_455\n        /* \"#utility.yul\":15969:15972   */\n      dup6\n        /* \"#utility.yul\":15951:15973   */\n      tag_257\n      jump\t// in\n    tag_455:\n        /* \"#utility.yul\":15941:15949   */\n      dup4\n        /* \"#utility.yul\":15937:15974   */\n      add\n        /* \"#utility.yul\":15924:15935   */\n      dup3\n        /* \"#utility.yul\":15895:15975   */\n      tag_266\n      jump\t// in\n    tag_454:\n        /* \"#utility.yul\":15554:15985   */\n      pop\n      pop\n        /* \"#utility.yul\":15539:15985   */\n    tag_450:\n        /* \"#utility.yul\":15449:15992   */\n      pop\n      pop\n      pop\n      jump\t// out\n        /* \"#utility.yul\":15998:16115   */\n    tag_268:\n        /* \"#utility.yul\":16052:16060   */\n      0x00\n        /* \"#utility.yul\":16102:16107   */\n      dup3\n        /* \"#utility.yul\":16096:16100   */\n      dup3\n        /* \"#utility.yul\":16092:16108   */\n      shr\n        /* \"#utility.yul\":16071:16108   */\n      swap1\n      pop\n        /* \"#utility.yul\":15998:16115   */\n      swap3\n      swap2\n      pop\n      pop\n      jump\t// out\n        /* \"#utility.yul\":16121:16290   */\n    tag_269:\n        /* \"#utility.yul\":16165:16171   */\n      0x00\n        /* \"#utility.yul\":16198:16249   */\n      tag_458\n        /* \"#utility.yul\":16246:16247   */\n      0x00\n        /* \"#utility.yul\":16242:16248   */\n      not\n        /* \"#utility.yul\":16234:16239   */\n      dup5\n        /* \"#utility.yul\":16231:16232   */\n      0x08\n        /* \"#utility.yul\":16227:16240   */\n      mul\n        /* \"#utility.yul\":16198:16249   */\n      tag_268\n      jump\t// in\n    tag_458:\n        /* \"#utility.yul\":16194:16250   */\n      not\n        /* \"#utility.yul\":16279:16283   */\n      dup1\n        /* \"#utility.yul\":16273:16277   */\n      dup4\n        /* \"#utility.yul\":16269:16284   */\n      and\n        /* \"#utility.yul\":16259:16284   */\n      swap2\n      pop\n        /* \"#utility.yul\":16172:16290   */\n      pop\n        /* \"#utility.yul\":16121:16290   */\n      swap3\n      swap2\n      pop\n      pop\n      jump\t// out\n        /* \"#utility.yul\":16295:16590   */\n    tag_270:\n        /* \"#utility.yul\":16371:16375   */\n      0x00\n        /* \"#utility.yul\":16517:16546   */\n      tag_460\n        /* \"#utility.yul\":16542:16545   */\n      dup4\n        /* \"#utility.yul\":16536:16540   */\n      dup4\n        /* \"#utility.yul\":16517:16546   */\n      tag_269\n      jump\t// in\n    tag_460:\n        /* \"#utility.yul\":16509:16546   */\n      swap2\n      pop\n        /* \"#utility.yul\":16579:16582   */\n      dup3\n        /* \"#utility.yul\":16576:16577   */\n      0x02\n        /* \"#utility.yul\":16572:16583   */\n      mul\n        /* \"#utility.yul\":16566:16570   */\n      dup3\n        /* \"#utility.yul\":16563:16584   */\n      or\n        /* \"#utility.yul\":16555:16584   */\n      swap1\n      pop\n        /* \"#utility.yul\":16295:16590   */\n      swap3\n      swap2\n      pop\n      pop\n      jump\t// out\n        /* \"#utility.yul\":16595:17990   */\n    tag_79:\n        /* \"#utility.yul\":16712:16749   */\n      tag_462\n        /* \"#utility.yul\":16745:16748   */\n      dup3\n        /* \"#utility.yul\":16712:16749   */\n      tag_238\n      jump\t// in\n    tag_462:\n        /* \"#utility.yul\":16814:16832   */\n      0xffffffffffffffff\n        /* \"#utility.yul\":16806:16812   */\n      dup2\n        /* \"#utility.yul\":16803:16833   */\n      gt\n        /* \"#utility.yul\":16800:16856   */\n      iszero\n      tag_463\n      jumpi\n        /* \"#utility.yul\":16836:16854   */\n      tag_464\n      tag_254\n      jump\t// in\n    tag_464:\n        /* \"#utility.yul\":16800:16856   */\n    tag_463:\n        /* \"#utility.yul\":16880:16918   */\n      tag_465\n        /* \"#utility.yul\":16912:16916   */\n      dup3\n        /* \"#utility.yul\":16906:16917   */\n      sload\n        /* \"#utility.yul\":16880:16918   */\n      tag_91\n      jump\t// in\n    tag_465:\n        /* \"#utility.yul\":16965:17032   */\n      tag_466\n        /* \"#utility.yul\":17025:17031   */\n      dup3\n        /* \"#utility.yul\":17017:17023   */\n      dup3\n        /* \"#utility.yul\":17011:17015   */\n      dup6\n        /* \"#utility.yul\":16965:17032   */\n      tag_267\n      jump\t// in\n    tag_466:\n        /* \"#utility.yul\":17059:17060   */\n      0x00\n        /* \"#utility.yul\":17083:17087   */\n      0x20\n        /* \"#utility.yul\":17070:17087   */\n      swap1\n      pop\n        /* \"#utility.yul\":17115:17117   */\n      0x1f\n        /* \"#utility.yul\":17107:17113   */\n      dup4\n        /* \"#utility.yul\":17104:17118   */\n      gt\n        /* \"#utility.yul\":17132:17133   */\n      0x01\n        /* \"#utility.yul\":17127:17745   */\n      dup2\n      eq\n      tag_468\n      jumpi\n        /* \"#utility.yul\":17789:17790   */\n      0x00\n        /* \"#utility.yul\":17806:17812   */\n      dup5\n        /* \"#utility.yul\":17803:17880   */\n      iszero\n      tag_469\n      jumpi\n        /* \"#utility.yul\":17855:17864   */\n      dup3\n        /* \"#utility.yul\":17850:17853   */\n      dup8\n        /* \"#utility.yul\":17846:17865   */\n      add\n        /* \"#utility.yul\":17840:17866   */\n      mload\n        /* \"#utility.yul\":17831:17866   */\n      swap1\n      pop\n        /* \"#utility.yul\":17803:17880   */\n    tag_469:\n        /* \"#utility.yul\":17906:17973   */\n      tag_470\n        /* \"#utility.yul\":17966:17972   */\n      dup6\n        /* \"#utility.yul\":17959:17964   */\n      dup3\n        /* \"#utility.yul\":17906:17973   */\n      tag_270\n      jump\t// in\n    tag_470:\n        /* \"#utility.yul\":17900:17904   */\n      dup7\n        /* \"#utility.yul\":17893:17974   */\n      sstore\n        /* \"#utility.yul\":17762:17984   */\n      pop\n        /* \"#utility.yul\":17097:17984   */\n      jump(tag_467)\n        /* \"#utility.yul\":17127:17745   */\n    tag_468:\n        /* \"#utility.yul\":17179:17183   */\n      0x1f\n        /* \"#utility.yul\":17175:17184   */\n      not\n        /* \"#utility.yul\":17167:17173   */\n      dup5\n        /* \"#utility.yul\":17163:17185   */\n      and\n        /* \"#utility.yul\":17213:17250   */\n      tag_471\n        /* \"#utility.yul\":17245:17249   */\n      dup7\n        /* \"#utility.yul\":17213:17250   */\n      tag_256\n      jump\t// in\n    tag_471:\n        /* \"#utility.yul\":17272:17273   */\n      0x00\n        /* \"#utility.yul\":17286:17494   */\n    tag_472:\n        /* \"#utility.yul\":17300:17307   */\n      dup3\n        /* \"#utility.yul\":17297:17298   */\n      dup2\n        /* \"#utility.yul\":17294:17308   */\n      lt\n        /* \"#utility.yul\":17286:17494   */\n      iszero\n      tag_474\n      jumpi\n        /* \"#utility.yul\":17379:17388   */\n      dup5\n        /* \"#utility.yul\":17374:17377   */\n      dup10\n        /* \"#utility.yul\":17370:17389   */\n      add\n        /* \"#utility.yul\":17364:17390   */\n      mload\n        /* \"#utility.yul\":17356:17362   */\n      dup3\n        /* \"#utility.yul\":17349:17391   */\n      sstore\n        /* \"#utility.yul\":17430:17431   */\n      0x01\n        /* \"#utility.yul\":17422:17428   */\n      dup3\n        /* \"#utility.yul\":17418:17432   */\n      add\n        /* \"#utility.yul\":17408:17432   */\n      swap2\n      pop\n        /* \"#utility.yul\":17477:17479   */\n      0x20\n        /* \"#utility.yul\":17466:17475   */\n      dup6\n        /* \"#utility.yul\":17462:17480   */\n      add\n        /* \"#utility.yul\":17449:17480   */\n      swap5\n      pop\n        /* \"#utility.yul\":17323:17327   */\n      0x20\n        /* \"#utility.yul\":17320:17321   */\n      dup2\n        /* \"#utility.yul\":17316:17328   */\n      add\n        /* \"#utility.yul\":17311:17328   */\n      swap1\n      pop\n        /* \"#utility.yul\":17286:17494   */\n      jump(tag_472)\n    tag_474:\n        /* \"#utility.yul\":17522:17528   */\n      dup7\n        /* \"#utility.yul\":17513:17520   */\n      dup4\n        /* \"#utility.yul\":17510:17529   */\n      lt\n        /* \"#utility.yul\":17507:17686   */\n      iszero\n      tag_475\n      jumpi\n        /* \"#utility.yul\":17580:17589   */\n      dup5\n        /* \"#utility.yul\":17575:17578   */\n      dup10\n        /* \"#utility.yul\":17571:17590   */\n      add\n        /* \"#utility.yul\":17565:17591   */\n      mload\n        /* \"#utility.yul\":17623:17671   */\n      tag_476\n        /* \"#utility.yul\":17665:17669   */\n      0x1f\n        /* \"#utility.yul\":17657:17663   */\n      dup10\n        /* \"#utility.yul\":17653:17670   */\n      and\n        /* \"#utility.yul\":17642:17651   */\n      dup3\n        /* \"#utility.yul\":17623:17671   */\n      tag_269\n      jump\t// in\n    tag_476:\n        /* \"#utility.yul\":17615:17621   */\n      dup4\n        /* \"#utility.yul\":17608:17672   */\n      sstore\n        /* \"#utility.yul\":17530:17686   */\n      pop\n        /* \"#utility.yul\":17507:17686   */\n    tag_475:\n        /* \"#utility.yul\":17732:17733   */\n      0x01\n        /* \"#utility.yul\":17728:17729   */\n      0x02\n        /* \"#utility.yul\":17720:17726   */\n      dup9\n        /* \"#utility.yul\":17716:17730   */\n      mul\n        /* \"#utility.yul\":17712:17734   */\n      add\n        /* \"#utility.yul\":17706:17710   */\n      dup9\n        /* \"#utility.yul\":17699:17735   */\n      sstore\n        /* \"#utility.yul\":17134:17745   */\n      pop\n      pop\n      pop\n        /* \"#utility.yul\":17097:17984   */\n    tag_467:\n      pop\n        /* \"#utility.yul\":16687:17990   */\n      pop\n      pop\n      pop\n        /* \"#utility.yul\":16595:17990   */\n      pop\n      pop\n      jump\t// out\n        /* \"#utility.yul\":17996:18144   */\n    tag_271:\n        /* \"#utility.yul\":18094:18100   */\n      dup3\n        /* \"#utility.yul\":18089:18092   */\n      dup2\n        /* \"#utility.yul\":18084:18087   */\n      dup4\n        /* \"#utility.yul\":18071:18101   */\n      calldatacopy\n        /* \"#utility.yul\":18135:18136   */\n      0x00\n        /* \"#utility.yul\":18126:18132   */\n      dup4\n        /* \"#utility.yul\":18121:18124   */\n      dup4\n        /* \"#utility.yul\":18117:18133   */\n      add\n        /* \"#utility.yul\":18110:18137   */\n      mstore\n        /* \"#utility.yul\":17996:18144   */\n      pop\n      pop\n      pop\n      jump\t// out\n        /* \"#utility.yul\":18174:18491   */\n    tag_272:\n        /* \"#utility.yul\":18272:18275   */\n      0x00\n        /* \"#utility.yul\":18293:18364   */\n      tag_479\n        /* \"#utility.yul\":18357:18363   */\n      dup4\n        /* \"#utility.yul\":18352:18355   */\n      dup6\n        /* \"#utility.yul\":18293:18364   */\n      tag_239\n      jump\t// in\n    tag_479:\n        /* \"#utility.yul\":18286:18364   */\n      swap4\n      pop\n        /* \"#utility.yul\":18374:18430   */\n      tag_480\n        /* \"#utility.yul\":18423:18429   */\n      dup4\n        /* \"#utility.yul\":18418:18421   */\n      dup6\n        /* \"#utility.yul\":18411:18416   */\n      dup5\n        /* \"#utility.yul\":18374:18430   */\n      tag_271\n      jump\t// in\n    tag_480:\n        /* \"#utility.yul\":18455:18484   */\n      tag_481\n        /* \"#utility.yul\":18477:18483   */\n      dup4\n        /* \"#utility.yul\":18455:18484   */\n      tag_241\n      jump\t// in\n    tag_481:\n        /* \"#utility.yul\":18450:18453   */\n      dup5\n        /* \"#utility.yul\":18446:18485   */\n      add\n        /* \"#utility.yul\":18439:18485   */\n      swap1\n      pop\n        /* \"#utility.yul\":18174:18491   */\n      swap4\n      swap3\n      pop\n      pop\n      pop\n      jump\t// out\n        /* \"#utility.yul\":18497:19264   */\n    tag_83:\n        /* \"#utility.yul\":18730:18734   */\n      0x00\n        /* \"#utility.yul\":18768:18771   */\n      0x80\n        /* \"#utility.yul\":18757:18766   */\n      dup3\n        /* \"#utility.yul\":18753:18772   */\n      add\n        /* \"#utility.yul\":18745:18772   */\n      swap1\n      pop\n        /* \"#utility.yul\":18818:18827   */\n      dup2\n        /* \"#utility.yul\":18812:18816   */\n      dup2\n        /* \"#utility.yul\":18808:18828   */\n      sub\n        /* \"#utility.yul\":18804:18805   */\n      0x00\n        /* \"#utility.yul\":18793:18802   */\n      dup4\n        /* \"#utility.yul\":18789:18806   */\n      add\n        /* \"#utility.yul\":18782:18829   */\n      mstore\n        /* \"#utility.yul\":18846:18934   */\n      tag_483\n        /* \"#utility.yul\":18929:18933   */\n      dup2\n        /* \"#utility.yul\":18920:18926   */\n      dup9\n        /* \"#utility.yul\":18912:18918   */\n      dup11\n        /* \"#utility.yul\":18846:18934   */\n      tag_272\n      jump\t// in\n    tag_483:\n        /* \"#utility.yul\":18838:18934   */\n      swap1\n      pop\n        /* \"#utility.yul\":18981:18990   */\n      dup2\n        /* \"#utility.yul\":18975:18979   */\n      dup2\n        /* \"#utility.yul\":18971:18991   */\n      sub\n        /* \"#utility.yul\":18966:18968   */\n      0x20\n        /* \"#utility.yul\":18955:18964   */\n      dup4\n        /* \"#utility.yul\":18951:18969   */\n      add\n        /* \"#utility.yul\":18944:18992   */\n      mstore\n        /* \"#utility.yul\":19009:19097   */\n      tag_484\n        /* \"#utility.yul\":19092:19096   */\n      dup2\n        /* \"#utility.yul\":19083:19089   */\n      dup7\n        /* \"#utility.yul\":19075:19081   */\n      dup9\n        /* \"#utility.yul\":19009:19097   */\n      tag_272\n      jump\t// in\n    tag_484:\n        /* \"#utility.yul\":19001:19097   */\n      swap1\n      pop\n        /* \"#utility.yul\":19107:19177   */\n      tag_485\n        /* \"#utility.yul\":19173:19175   */\n      0x40\n        /* \"#utility.yul\":19162:19171   */\n      dup4\n        /* \"#utility.yul\":19158:19176   */\n      add\n        /* \"#utility.yul\":19149:19155   */\n      dup6\n        /* \"#utility.yul\":19107:19177   */\n      tag_243\n      jump\t// in\n    tag_485:\n        /* \"#utility.yul\":19187:19257   */\n      tag_486\n        /* \"#utility.yul\":19253:19255   */\n      0x60\n        /* \"#utility.yul\":19242:19251   */\n      dup4\n        /* \"#utility.yul\":19238:19256   */\n      add\n        /* \"#utility.yul\":19229:19235   */\n      dup5\n        /* \"#utility.yul\":19187:19257   */\n      tag_243\n      jump\t// in\n    tag_486:\n        /* \"#utility.yul\":18497:19264   */\n      swap8\n      swap7\n      pop\n      pop\n      pop\n      pop\n      pop\n      pop\n      pop\n      jump\t// out\n        /* \"#utility.yul\":19270:19434   */\n    tag_273:\n        /* \"#utility.yul\":19410:19426   */\n      0x426f6f6b206e6f74206578697374000000000000000000000000000000000000\n        /* \"#utility.yul\":19406:19407   */\n      0x00\n        /* \"#utility.yul\":19398:19404   */\n      dup3\n        /* \"#utility.yul\":19394:19408   */\n      add\n        /* \"#utility.yul\":19387:19427   */\n      mstore\n        /* \"#utility.yul\":19270:19434   */\n      pop\n      jump\t// out\n        /* \"#utility.yul\":19440:19806   */\n    tag_274:\n        /* \"#utility.yul\":19582:19585   */\n      0x00\n        /* \"#utility.yul\":19603:19670   */\n      tag_489\n        /* \"#utility.yul\":19667:19669   */\n      0x0e\n        /* \"#utility.yul\":19662:19665   */\n      dup4\n        /* \"#utility.yul\":19603:19670   */\n      tag_239\n      jump\t// in\n    tag_489:\n        /* \"#utility.yul\":19596:19670   */\n      swap2\n      pop\n        /* \"#utility.yul\":19679:19772   */\n      tag_490\n        /* \"#utility.yul\":19768:19771   */\n      dup3\n        /* \"#utility.yul\":19679:19772   */\n      tag_273\n      jump\t// in\n    tag_490:\n        /* \"#utility.yul\":19797:19799   */\n      0x20\n        /* \"#utility.yul\":19792:19795   */\n      dup3\n        /* \"#utility.yul\":19788:19800   */\n      add\n        /* \"#utility.yul\":19781:19800   */\n      swap1\n      pop\n        /* \"#utility.yul\":19440:19806   */\n      swap2\n      swap1\n      pop\n      jump\t// out\n        /* \"#utility.yul\":19812:20231   */\n    tag_124:\n        /* \"#utility.yul\":19978:19982   */\n      0x00\n        /* \"#utility.yul\":20016:20018   */\n      0x20\n        /* \"#utility.yul\":20005:20014   */\n      dup3\n        /* \"#utility.yul\":20001:20019   */\n      add\n        /* \"#utility.yul\":19993:20019   */\n      swap1\n      pop\n        /* \"#utility.yul\":20065:20074   */\n      dup2\n        /* \"#utility.yul\":20059:20063   */\n      dup2\n        /* \"#utility.yul\":20055:20075   */\n      sub\n        /* \"#utility.yul\":20051:20052   */\n      0x00\n        /* \"#utility.yul\":20040:20049   */\n      dup4\n        /* \"#utility.yul\":20036:20053   */\n      add\n        /* \"#utility.yul\":20029:20076   */\n      mstore\n        /* \"#utility.yul\":20093:20224   */\n      tag_492\n        /* \"#utility.yul\":20219:20223   */\n      dup2\n        /* \"#utility.yul\":20093:20224   */\n      tag_274\n      jump\t// in\n    tag_492:\n        /* \"#utility.yul\":20085:20224   */\n      swap1\n      pop\n        /* \"#utility.yul\":19812:20231   */\n      swap2\n      swap1\n      pop\n      jump\t// out\n        /* \"#utility.yul\":20237:20417   */\n    tag_133:\n        /* \"#utility.yul\":20285:20362   */\n      0x4e487b7100000000000000000000000000000000000000000000000000000000\n        /* \"#utility.yul\":20282:20283   */\n      0x00\n        /* \"#utility.yul\":20275:20363   */\n      mstore\n        /* \"#utility.yul\":20382:20386   */\n      0x32\n        /* \"#utility.yul\":20379:20380   */\n      0x04\n        /* \"#utility.yul\":20372:20387   */\n      mstore\n        /* \"#utility.yul\":20406:20410   */\n      0x24\n        /* \"#utility.yul\":20403:20404   */\n      0x00\n        /* \"#utility.yul\":20396:20411   */\n      revert\n        /* \"#utility.yul\":20423:20603   */\n    tag_275:\n        /* \"#utility.yul\":20471:20548   */\n      0x4e487b7100000000000000000000000000000000000000000000000000000000\n        /* \"#utility.yul\":20468:20469   */\n      0x00\n        /* \"#utility.yul\":20461:20549   */\n      mstore\n        /* \"#utility.yul\":20568:20572   */\n      0x11\n        /* \"#utility.yul\":20565:20566   */\n      0x04\n        /* \"#utility.yul\":20558:20573   */\n      mstore\n        /* \"#utility.yul\":20592:20596   */\n      0x24\n        /* \"#utility.yul\":20589:20590   */\n      0x00\n        /* \"#utility.yul\":20582:20597   */\n      revert\n        /* \"#utility.yul\":20609:20803   */\n    tag_137:\n        /* \"#utility.yul\":20649:20653   */\n      0x00\n        /* \"#utility.yul\":20669:20689   */\n      tag_496\n        /* \"#utility.yul\":20687:20688   */\n      dup3\n        /* \"#utility.yul\":20669:20689   */\n      tag_220\n      jump\t// in\n    tag_496:\n        /* \"#utility.yul\":20664:20689   */\n      swap2\n      pop\n        /* \"#utility.yul\":20703:20723   */\n      tag_497\n        /* \"#utility.yul\":20721:20722   */\n      dup4\n        /* \"#utility.yul\":20703:20723   */\n      tag_220\n      jump\t// in\n    tag_497:\n        /* \"#utility.yul\":20698:20723   */\n      swap3\n      pop\n        /* \"#utility.yul\":20747:20748   */\n      dup3\n        /* \"#utility.yul\":20744:20745   */\n      dup3\n        /* \"#utility.yul\":20740:20749   */\n      sub\n        /* \"#utility.yul\":20732:20749   */\n      swap1\n      pop\n        /* \"#utility.yul\":20771:20772   */\n      dup2\n        /* \"#utility.yul\":20765:20769   */\n      dup2\n        /* \"#utility.yul\":20762:20773   */\n      gt\n        /* \"#utility.yul\":20759:20796   */\n      iszero\n      tag_498\n      jumpi\n        /* \"#utility.yul\":20776:20794   */\n      tag_499\n      tag_275\n      jump\t// in\n    tag_499:\n        /* \"#utility.yul\":20759:20796   */\n    tag_498:\n        /* \"#utility.yul\":20609:20803   */\n      swap3\n      swap2\n      pop\n      pop\n      jump\t// out\n        /* \"#utility.yul\":20809:20989   */\n    tag_146:\n        /* \"#utility.yul\":20857:20934   */\n      0x4e487b7100000000000000000000000000000000000000000000000000000000\n        /* \"#utility.yul\":20854:20855   */\n      0x00\n        /* \"#utility.yul\":20847:20935   */\n      mstore\n        /* \"#utility.yul\":20954:20958   */\n      0x31\n        /* \"#utility.yul\":20951:20952   */\n      0x04\n        /* \"#utility.yul\":20944:20959   */\n      mstore\n        /* \"#utility.yul\":20978:20982   */\n      0x24\n        /* \"#utility.yul\":20975:20976   */\n      0x00\n        /* \"#utility.yul\":20968:20983   */\n      revert\n        /* \"#utility.yul\":20995:21158   */\n    tag_276:\n        /* \"#utility.yul\":21135:21150   */\n      0x4e6f7420617661696c61626c6500000000000000000000000000000000000000\n        /* \"#utility.yul\":21131:21132   */\n      0x00\n        /* \"#utility.yul\":21123:21129   */\n      dup3\n        /* \"#utility.yul\":21119:21133   */\n      add\n        /* \"#utility.yul\":21112:21151   */\n      mstore\n        /* \"#utility.yul\":20995:21158   */\n      pop\n      jump\t// out\n        /* \"#utility.yul\":21164:21530   */\n    tag_277:\n        /* \"#utility.yul\":21306:21309   */\n      0x00\n        /* \"#utility.yul\":21327:21394   */\n      tag_503\n        /* \"#utility.yul\":21391:21393   */\n      0x0d\n        /* \"#utility.yul\":21386:21389   */\n      dup4\n        /* \"#utility.yul\":21327:21394   */\n      tag_239\n      jump\t// in\n    tag_503:\n        /* \"#utility.yul\":21320:21394   */\n      swap2\n      pop\n        /* \"#utility.yul\":21403:21496   */\n      tag_504\n        /* \"#utility.yul\":21492:21495   */\n      dup3\n        /* \"#utility.yul\":21403:21496   */\n      tag_276\n      jump\t// in\n    tag_504:\n        /* \"#utility.yul\":21521:21523   */\n      0x20\n        /* \"#utility.yul\":21516:21519   */\n      dup3\n        /* \"#utility.yul\":21512:21524   */\n      add\n        /* \"#utility.yul\":21505:21524   */\n      swap1\n      pop\n        /* \"#utility.yul\":21164:21530   */\n      swap2\n      swap1\n      pop\n      jump\t// out\n        /* \"#utility.yul\":21536:21955   */\n    tag_157:\n        /* \"#utility.yul\":21702:21706   */\n      0x00\n        /* \"#utility.yul\":21740:21742   */\n      0x20\n        /* \"#utility.yul\":21729:21738   */\n      dup3\n        /* \"#utility.yul\":21725:21743   */\n      add\n        /* \"#utility.yul\":21717:21743   */\n      swap1\n      pop\n        /* \"#utility.yul\":21789:21798   */\n      dup2\n        /* \"#utility.yul\":21783:21787   */\n      dup2\n        /* \"#utility.yul\":21779:21799   */\n      sub\n        /* \"#utility.yul\":21775:21776   */\n      0x00\n        /* \"#utility.yul\":21764:21773   */\n      dup4\n        /* \"#utility.yul\":21760:21777   */\n      add\n        /* \"#utility.yul\":21753:21800   */\n      mstore\n        /* \"#utility.yul\":21817:21948   */\n      tag_506\n        /* \"#utility.yul\":21943:21947   */\n      dup2\n        /* \"#utility.yul\":21817:21948   */\n      tag_277\n      jump\t// in\n    tag_506:\n        /* \"#utility.yul\":21809:21948   */\n      swap1\n      pop\n        /* \"#utility.yul\":21536:21955   */\n      swap2\n      swap1\n      pop\n      jump\t// out\n        /* \"#utility.yul\":21961:22127   */\n    tag_278:\n        /* \"#utility.yul\":22101:22119   */\n      0x4e6f7420656e6f7567682073746f636b00000000000000000000000000000000\n        /* \"#utility.yul\":22097:22098   */\n      0x00\n        /* \"#utility.yul\":22089:22095   */\n      dup3\n        /* \"#utility.yul\":22085:22099   */\n      add\n        /* \"#utility.yul\":22078:22120   */\n      mstore\n        /* \"#utility.yul\":21961:22127   */\n      pop\n      jump\t// out\n        /* \"#utility.yul\":22133:22499   */\n    tag_279:\n        /* \"#utility.yul\":22275:22278   */\n      0x00\n        /* \"#utility.yul\":22296:22363   */\n      tag_509\n        /* \"#utility.yul\":22360:22362   */\n      0x10\n        /* \"#utility.yul\":22355:22358   */\n      dup4\n        /* \"#utility.yul\":22296:22363   */\n      tag_239\n      jump\t// in\n    tag_509:\n        /* \"#utility.yul\":22289:22363   */\n      swap2\n      pop\n        /* \"#utility.yul\":22372:22465   */\n      tag_510\n        /* \"#utility.yul\":22461:22464   */\n      dup3\n        /* \"#utility.yul\":22372:22465   */\n      tag_278\n      jump\t// in\n    tag_510:\n        /* \"#utility.yul\":22490:22492   */\n      0x20\n        /* \"#utility.yul\":22485:22488   */\n      dup3\n        /* \"#utility.yul\":22481:22493   */\n      add\n        /* \"#utility.yul\":22474:22493   */\n      swap1\n      pop\n        /* \"#utility.yul\":22133:22499   */\n      swap2\n      swap1\n      pop\n      jump\t// out\n        /* \"#utility.yul\":22505:22924   */\n    tag_160:\n        /* \"#utility.yul\":22671:22675   */\n      0x00\n        /* \"#utility.yul\":22709:22711   */\n      0x20\n        /* \"#utility.yul\":22698:22707   */\n      dup3\n        /* \"#utility.yul\":22694:22712   */\n      add\n        /* \"#utility.yul\":22686:22712   */\n      swap1\n      pop\n        /* \"#utility.yul\":22758:22767   */\n      dup2\n        /* \"#utility.yul\":22752:22756   */\n      dup2\n        /* \"#utility.yul\":22748:22768   */\n      sub\n        /* \"#utility.yul\":22744:22745   */\n      0x00\n        /* \"#utility.yul\":22733:22742   */\n      dup4\n        /* \"#utility.yul\":22729:22746   */\n      add\n        /* \"#utility.yul\":22722:22769   */\n      mstore\n        /* \"#utility.yul\":22786:22917   */\n      tag_512\n        /* \"#utility.yul\":22912:22916   */\n      dup2\n        /* \"#utility.yul\":22786:22917   */\n      tag_279\n      jump\t// in\n    tag_512:\n        /* \"#utility.yul\":22778:22917   */\n      swap1\n      pop\n        /* \"#utility.yul\":22505:22924   */\n      swap2\n      swap1\n      pop\n      jump\t// out\n        /* \"#utility.yul\":22930:23205   */\n    tag_162:\n        /* \"#utility.yul\":22969:22976   */\n      0x00\n        /* \"#utility.yul\":22992:23011   */\n      tag_514\n        /* \"#utility.yul\":23009:23010   */\n      dup3\n        /* \"#utility.yul\":22992:23011   */\n      tag_227\n      jump\t// in\n    tag_514:\n        /* \"#utility.yul\":22987:23011   */\n      swap2\n      pop\n        /* \"#utility.yul\":23025:23044   */\n      tag_515\n        /* \"#utility.yul\":23042:23043   */\n      dup4\n        /* \"#utility.yul\":23025:23044   */\n      tag_227\n      jump\t// in\n    tag_515:\n        /* \"#utility.yul\":23020:23044   */\n      swap3\n      pop\n        /* \"#utility.yul\":23079:23080   */\n      dup3\n        /* \"#utility.yul\":23076:23077   */\n      dup3\n        /* \"#utility.yul\":23072:23081   */\n      mul\n        /* \"#utility.yul\":23101:23130   */\n      tag_516\n        /* \"#utility.yul\":23118:23129   */\n      dup2\n        /* \"#utility.yul\":23101:23130   */\n      tag_227\n      jump\t// in\n    tag_516:\n        /* \"#utility.yul\":23090:23130   */\n      swap2\n      pop\n        /* \"#utility.yul\":23162:23173   */\n      dup1\n        /* \"#utility.yul\":23153:23160   */\n      dup3\n        /* \"#utility.yul\":23150:23174   */\n      eq\n        /* \"#utility.yul\":23140:23198   */\n      tag_517\n      jumpi\n        /* \"#utility.yul\":23178:23196   */\n      tag_518\n      tag_275\n      jump\t// in\n    tag_518:\n        /* \"#utility.yul\":23140:23198   */\n    tag_517:\n        /* \"#utility.yul\":22977:23205   */\n      pop\n        /* \"#utility.yul\":22930:23205   */\n      swap3\n      swap2\n      pop\n      pop\n      jump\t// out\n        /* \"#utility.yul\":23211:23374   */\n    tag_280:\n        /* \"#utility.yul\":23351:23366   */\n      0x57726f6e67207061796d656e7400000000000000000000000000000000000000\n        /* \"#utility.yul\":23347:23348   */\n      0x00\n        /* \"#utility.yul\":23339:23345   */\n      dup3\n        /* \"#utility.yul\":23335:23349   */\n      add\n        /* \"#utility.yul\":23328:23367   */\n      mstore\n        /* \"#utility.yul\":23211:23374   */\n      pop\n      jump\t// out\n        /* \"#utility.yul\":23380:23746   */\n    tag_281:\n        /* \"#utility.yul\":23522:23525   */\n      0x00\n        /* \"#utility.yul\":23543:23610   */\n      tag_521\n        /* \"#utility.yul\":23607:23609   */\n      0x0d\n        /* \"#utility.yul\":23602:23605   */\n      dup4\n        /* \"#utility.yul\":23543:23610   */\n      tag_239\n      jump\t// in\n    tag_521:\n        /* \"#utility.yul\":23536:23610   */\n      swap2\n      pop\n        /* \"#utility.yul\":23619:23712   */\n      tag_522\n        /* \"#utility.yul\":23708:23711   */\n      dup3\n        /* \"#utility.yul\":23619:23712   */\n      tag_280\n      jump\t// in\n    tag_522:\n        /* \"#utility.yul\":23737:23739   */\n      0x20\n        /* \"#utility.yul\":23732:23735   */\n      dup3\n        /* \"#utility.yul\":23728:23740   */\n      add\n        /* \"#utility.yul\":23721:23740   */\n      swap1\n      pop\n        /* \"#utility.yul\":23380:23746   */\n      swap2\n      swap1\n      pop\n      jump\t// out\n        /* \"#utility.yul\":23752:24171   */\n    tag_165:\n        /* \"#utility.yul\":23918:23922   */\n      0x00\n        /* \"#utility.yul\":23956:23958   */\n      0x20\n        /* \"#utility.yul\":23945:23954   */\n      dup3\n        /* \"#utility.yul\":23941:23959   */\n      add\n        /* \"#utility.yul\":23933:23959   */\n      swap1\n      pop\n        /* \"#utility.yul\":24005:24014   */\n      dup2\n        /* \"#utility.yul\":23999:24003   */\n      dup2\n        /* \"#utility.yul\":23995:24015   */\n      sub\n        /* \"#utility.yul\":23991:23992   */\n      0x00\n        /* \"#utility.yul\":23980:23989   */\n      dup4\n        /* \"#utility.yul\":23976:23993   */\n      add\n        /* \"#utility.yul\":23969:24016   */\n      mstore\n        /* \"#utility.yul\":24033:24164   */\n      tag_524\n        /* \"#utility.yul\":24159:24163   */\n      dup2\n        /* \"#utility.yul\":24033:24164   */\n      tag_281\n      jump\t// in\n    tag_524:\n        /* \"#utility.yul\":24025:24164   */\n      swap1\n      pop\n        /* \"#utility.yul\":23752:24171   */\n      swap2\n      swap1\n      pop\n      jump\t// out\n        /* \"#utility.yul\":24177:24294   */\n    tag_282:\n        /* \"#utility.yul\":24286:24287   */\n      0x00\n        /* \"#utility.yul\":24283:24284   */\n      dup1\n        /* \"#utility.yul\":24276:24288   */\n      revert\n        /* \"#utility.yul\":24300:24399   */\n    tag_283:\n        /* \"#utility.yul\":24385:24391   */\n      dup3\n        /* \"#utility.yul\":24380:24383   */\n      dup2\n        /* \"#utility.yul\":24375:24378   */\n      dup4\n        /* \"#utility.yul\":24362:24392   */\n      calldatacopy\n        /* \"#utility.yul\":24300:24399   */\n      pop\n      pop\n      pop\n      jump\t// out\n        /* \"#utility.yul\":24435:24972   */\n    tag_284:\n        /* \"#utility.yul\":24563:24566   */\n      0x00\n        /* \"#utility.yul\":24584:24670   */\n      tag_528\n        /* \"#utility.yul\":24663:24669   */\n      dup4\n        /* \"#utility.yul\":24658:24661   */\n      dup6\n        /* \"#utility.yul\":24584:24670   */\n      tag_231\n      jump\t// in\n    tag_528:\n        /* \"#utility.yul\":24577:24670   */\n      swap4\n      pop\n        /* \"#utility.yul\":24694:24760   */\n      0x07ffffffffffffffffffffffffffffffffffffffffffffffffffffffffffffff\n        /* \"#utility.yul\":24686:24692   */\n      dup4\n        /* \"#utility.yul\":24683:24761   */\n      gt\n        /* \"#utility.yul\":24680:24845   */\n      iszero\n      tag_529\n      jumpi\n        /* \"#utility.yul\":24764:24843   */\n      tag_530\n      tag_282\n      jump\t// in\n    tag_530:\n        /* \"#utility.yul\":24680:24845   */\n    tag_529:\n        /* \"#utility.yul\":24876:24880   */\n      0x20\n        /* \"#utility.yul\":24868:24874   */\n      dup4\n        /* \"#utility.yul\":24864:24881   */\n      mul\n        /* \"#utility.yul\":24854:24881   */\n      swap3\n      pop\n        /* \"#utility.yul\":24891:24934   */\n      tag_531\n        /* \"#utility.yul\":24927:24933   */\n      dup4\n        /* \"#utility.yul\":24922:24925   */\n      dup6\n        /* \"#utility.yul\":24915:24920   */\n      dup5\n        /* \"#utility.yul\":24891:24934   */\n      tag_283\n      jump\t// in\n    tag_531:\n        /* \"#utility.yul\":24959:24965   */\n      dup3\n        /* \"#utility.yul\":24954:24957   */\n      dup5\n        /* \"#utility.yul\":24950:24966   */\n      add\n        /* \"#utility.yul\":24943:24966   */\n      swap1\n      pop\n        /* \"#utility.yul\":24435:24972   */\n      swap4\n      swap3\n      pop\n      pop\n      pop\n      jump\t// out\n        /* \"#utility.yul\":24978:25371   */\n    tag_200:\n        /* \"#utility.yul\":25131:25135   */\n      0x00\n        /* \"#utility.yul\":25169:25171   */\n      0x20\n        /* \"#utility.yul\":25158:25167   */\n      dup3\n        /* \"#utility.yul\":25154:25172   */\n      add\n        /* \"#utility.yul\":25146:25172   */\n      swap1\n      pop\n        /* \"#utility.yul\":25218:25227   */\n      dup2\n        /* \"#utility.yul\":25212:25216   */\n      dup2\n        /* \"#utility.yul\":25208:25228   */\n      sub\n        /* \"#utility.yul\":25204:25205   */\n      0x00\n        /* \"#utility.yul\":25193:25202   */\n      dup4\n        /* \"#utility.yul\":25189:25206   */\n      add\n        /* \"#utility.yul\":25182:25229   */\n      mstore\n        /* \"#utility.yul\":25246:25364   */\n      tag_533\n        /* \"#utility.yul\":25359:25363   */\n      dup2\n        /* \"#utility.yul\":25350:25356   */\n      dup5\n        /* \"#utility.yul\":25342:25348   */\n      dup7\n        /* \"#utility.yul\":25246:25364   */\n      tag_284\n      jump\t// in\n    tag_533:\n        /* \"#utility.yul\":25238:25364   */\n      swap1\n      pop\n        /* \"#utility.yul\":24978:25371   */\n      swap4\n      swap3\n      pop\n      pop\n      pop\n      jump\t// out\n\n    auxdata: 0xa2646970667358221220fa63fd34ec4ec7892deb9c4c4fa5e1c085636e8bdaa4b53005d572ac5fcb446d64736f6c634300081a0033\n}\n",
				"bytecode": {
					"linkReferences": {},
					"object": "608060405234801561000f575f80fd5b50335f73ffffffffffffffffffffffffffffffffffffffff168173ffffffffffffffffffffffffffffffffffffffff1603610081575f6040517f1e4fbdf70000000000000000000000000000000000000000000000000000000081526004016100789190610196565b60405180910390fd5b6100908161009660201b60201c565b506101af565b5f805f9054906101000a900473ffffffffffffffffffffffffffffffffffffffff169050815f806101000a81548173ffffffffffffffffffffffffffffffffffffffff021916908373ffffffffffffffffffffffffffffffffffffffff1602179055508173ffffffffffffffffffffffffffffffffffffffff168173ffffffffffffffffffffffffffffffffffffffff167f8be0079c531659141344cd1fd0a4f28419497f9722a3daafe3b4186f6b6457e060405160405180910390a35050565b5f73ffffffffffffffffffffffffffffffffffffffff82169050919050565b5f61018082610157565b9050919050565b61019081610176565b82525050565b5f6020820190506101a95f830184610187565b92915050565b611f27806101bc5f395ff3fe6080604052600436106100a6575f3560e01c80638da5cb5b116100635780638da5cb5b146101bc5780639bd30883146101e6578063bec0d79914610210578063f2fde38b14610238578063f46de7d414610260578063f98520de1461027c576100a6565b806321e6de9d146100aa578063354528e8146100d2578063590791f2146100fc5780635ac3e19e146101265780636874404614610166578063715018a6146101a6575b5f80fd5b3480156100b5575f80fd5b506100d060048036038101906100cb9190611308565b6102a4565b005b3480156100dd575f80fd5b506100e6610534565b6040516100f39190611476565b60405180910390f35b348015610107575f80fd5b5061011061058a565b60405161011d91906114a5565b60405180910390f35b348015610131575f80fd5b5061014c600480360381019061014791906114be565b6105af565b60405161015d959493929190611582565b60405180910390f35b348015610171575f80fd5b5061018c600480360381019061018791906114be565b610741565b60405161019d9594939291906115e1565b60405180910390f35b3480156101b1575f80fd5b506101ba6108b9565b005b3480156101c7575f80fd5b506101d06108cc565b6040516101dd919061167f565b60405180910390f35b3480156101f1575f80fd5b506101fa6108f3565b6040516102079190611698565b60405180910390f35b34801561021b575f80fd5b50610236600480360381019061023191906114be565b610913565b005b348015610243575f80fd5b5061025e600480360381019061025991906116db565b610afc565b005b61027a60048036038101906102759190611706565b610b80565b005b348015610287575f80fd5b506102a2600480360381019061029d9190611799565b610e52565b005b5f60015f8981526020019081526020015f205f01600c9054906101000a90046bffffffffffffffffffffffff166bffffffffffffffffffffffff161461031f576040517f08c379a00000000000000000000000000000000000000000000000000000000081526004016103169061182e565b60405180910390fd5b6040518060a00160405280836bffffffffffffffffffffffff168152602001826bffffffffffffffffffffffff1681526020015f846bffffffffffffffffffffffff16111515815260200187878080601f0160208091040260200160405190810160405280939291908181526020018383808284375f81840152601f19601f82011690508083019250505050505050815260200185858080601f0160208091040260200160405190810160405280939291908181526020018383808284375f81840152601f19601f8201169050808301925050505050505081525060015f8981526020019081526020015f205f820151815f015f6101000a8154816bffffffffffffffffffffffff02191690836bffffffffffffffffffffffff1602179055506020820151815f01600c6101000a8154816bffffffffffffffffffffffff02191690836bffffffffffffffffffffffff1602179055506040820151815f0160186101000a81548160ff02191690831515021790555060608201518160010190816104a99190611a73565b5060808201518160020190816104bf9190611a73565b50905050600287908060018154018082558091505060019003905f5260205f20015f9091909190915055867f907463480edcb1016ad34b5c752a56e18c2aea6ed1dd0e18ec287d63d670d88f87878787868860405161052396959493929190611b7c565b60405180910390a250505050505050565b6060600280548060200260200160405190810160405280929190818152602001828054801561058057602002820191905f5260205f20905b81548152602001906001019080831161056c575b5050505050905090565b5f6105936108cc565b73ffffffffffffffffffffffffffffffffffffffff1631905090565b6060805f805f8060015f8881526020019081526020015f2090508060010181600201825f01600c9054906101000a90046bffffffffffffffffffffffff16835f015f9054906101000a90046bffffffffffffffffffffffff16845f0160189054906101000a900460ff16848054610625906118a6565b80601f0160208091040260200160405190810160405280929190818152602001828054610651906118a6565b801561069c5780601f106106735761010080835404028352916020019161069c565b820191905f5260205f20905b81548152906001019060200180831161067f57829003601f168201915b505050505094508380546106af906118a6565b80601f01602080910402602001604051908101604052809291908181526020018280546106db906118a6565b80156107265780601f106106fd57610100808354040283529160200191610726565b820191905f5260205f20905b81548152906001019060200180831161070957829003601f168201915b50505050509350955095509550955095505091939590929450565b6001602052805f5260405f205f91509050805f015f9054906101000a90046bffffffffffffffffffffffff1690805f01600c9054906101000a90046bffffffffffffffffffffffff1690805f0160189054906101000a900460ff16908060010180546107ac906118a6565b80601f01602080910402602001604051908101604052809291908181526020018280546107d8906118a6565b80156108235780601f106107fa57610100808354040283529160200191610823565b820191905f5260205f20905b81548152906001019060200180831161080657829003601f168201915b505050505090806002018054610838906118a6565b80601f0160208091040260200160405190810160405280929190818152602001828054610864906118a6565b80156108af5780601f10610886576101008083540402835291602001916108af565b820191905f5260205f20905b81548152906001019060200180831161089257829003601f168201915b5050505050905085565b6108c1611084565b6108ca5f61110b565b565b5f805f9054906101000a900473ffffffffffffffffffffffffffffffffffffffff16905090565b5f8060149054906101000a90046bffffffffffffffffffffffff16905090565b61091b611084565b5f60015f8381526020019081526020015f205f01600c9054906101000a90046bffffffffffffffffffffffff166bffffffffffffffffffffffff1603610996576040517f08c379a000000000000000000000000000000000000000000000000000000000815260040161098d90611c1b565b60405180910390fd5b60015f8281526020019081526020015f205f8082015f6101000a8154906bffffffffffffffffffffffff02191690555f8201600c6101000a8154906bffffffffffffffffffffffff02191690555f820160186101000a81549060ff0219169055600182015f610a0591906111d3565b600282015f610a1491906111d3565b50505f5b600280549050811015610acb578160028281548110610a3a57610a39611c39565b5b905f5260205f20015403610ac05760026001600280549050610a5c9190611c93565b81548110610a6d57610a6c611c39565b5b905f5260205f20015460028281548110610a8a57610a89611c39565b5b905f5260205f2001819055506002805480610aa857610aa7611cc6565b5b600190038181905f5260205f20015f90559055610acb565b806001019050610a18565b50807f3c5ce13264433bcf97e5d53c97af4fc33800e8c9dd927f965b116d0018d7cddf60405160405180910390a250565b610b04611084565b5f73ffffffffffffffffffffffffffffffffffffffff168173ffffffffffffffffffffffffffffffffffffffff1603610b74575f6040517f1e4fbdf7000000000000000000000000000000000000000000000000000000008152600401610b6b919061167f565b60405180910390fd5b610b7d8161110b565b50565b5f60015f8481526020019081526020015f209050805f0160189054906101000a900460ff16610be4576040517f08c379a0000000000000000000000000000000000000000000000000000000008152600401610bdb90611d3d565b60405180910390fd5b816bffffffffffffffffffffffff16815f015f9054906101000a90046bffffffffffffffffffffffff166bffffffffffffffffffffffff161015610c5d576040517f08c379a0000000000000000000000000000000000000000000000000000000008152600401610c5490611da5565b60405180910390fd5b81815f01600c9054906101000a90046bffffffffffffffffffffffff16610c849190611dc3565b6bffffffffffffffffffffffff163414610cd3576040517f08c379a0000000000000000000000000000000000000000000000000000000008152600401610cca90611e49565b60405180910390fd5b81815f015f8282829054906101000a90046bffffffffffffffffffffffff160392506101000a8154816bffffffffffffffffffffffff02191690836bffffffffffffffffffffffff160217905550815f60148282829054906101000a90046bffffffffffffffffffffffff160192506101000a8154816bffffffffffffffffffffffff02191690836bffffffffffffffffffffffff1602179055505f815f015f9054906101000a90046bffffffffffffffffffffffff166bffffffffffffffffffffffff1611815f0160186101000a81548160ff021916908315150217905550610dbb6108cc565b73ffffffffffffffffffffffffffffffffffffffff166108fc3490811502906040515f60405180830381858888f19350505050158015610dfd573d5f803e3d5ffd5b503373ffffffffffffffffffffffffffffffffffffffff16837f4e8e9bc53224dd7f5549d1a97fe174d12e6ff0064e2ccb78d886fc515c98859d84604051610e459190611698565b60405180910390a3505050565b610e5a611084565b5f8282905090505f5b81811015611045575f848483818110610e7f57610e7e611c39565b5b9050602002013590505f60015f8381526020019081526020015f205f01600c9054906101000a90046bffffffffffffffffffffffff166bffffffffffffffffffffffff1603610f03576040517f08c379a0000000000000000000000000000000000000000000000000000000008152600401610efa90611c1b565b60405180910390fd5b60015f8281526020019081526020015f205f8082015f6101000a8154906bffffffffffffffffffffffff02191690555f8201600c6101000a8154906bffffffffffffffffffffffff02191690555f820160186101000a81549060ff0219169055600182015f610f7291906111d3565b600282015f610f8191906111d3565b50505f5b600280549050811015611038578160028281548110610fa757610fa6611c39565b5b905f5260205f2001540361102d5760026001600280549050610fc99190611c93565b81548110610fda57610fd9611c39565b5b905f5260205f20015460028281548110610ff757610ff6611c39565b5b905f5260205f200181905550600280548061101557611014611cc6565b5b600190038181905f5260205f20015f90559055611038565b806001019050610f85565b5081600101915050610e63565b507f7262be1e48c30c363173fcb2fbf2dc2cb38d076dee42cc37cdfbdf62af5c3bed8383604051611077929190611ecf565b60405180910390a1505050565b61108c6111cc565b73ffffffffffffffffffffffffffffffffffffffff166110aa6108cc565b73ffffffffffffffffffffffffffffffffffffffff1614611109576110cd6111cc565b6040517f118cdaa7000000000000000000000000000000000000000000000000000000008152600401611100919061167f565b60405180910390fd5b565b5f805f9054906101000a900473ffffffffffffffffffffffffffffffffffffffff169050815f806101000a81548173ffffffffffffffffffffffffffffffffffffffff021916908373ffffffffffffffffffffffffffffffffffffffff1602179055508173ffffffffffffffffffffffffffffffffffffffff168173ffffffffffffffffffffffffffffffffffffffff167f8be0079c531659141344cd1fd0a4f28419497f9722a3daafe3b4186f6b6457e060405160405180910390a35050565b5f33905090565b5080546111df906118a6565b5f825580601f106111f0575061120d565b601f0160209004905f5260205f209081019061120c9190611210565b5b50565b5b80821115611227575f815f905550600101611211565b5090565b5f80fd5b5f80fd5b5f819050919050565b61124581611233565b811461124f575f80fd5b50565b5f813590506112608161123c565b92915050565b5f80fd5b5f80fd5b5f80fd5b5f8083601f84011261128757611286611266565b5b8235905067ffffffffffffffff8111156112a4576112a361126a565b5b6020830191508360018202830111156112c0576112bf61126e565b5b9250929050565b5f6bffffffffffffffffffffffff82169050919050565b6112e7816112c7565b81146112f1575f80fd5b50565b5f81359050611302816112de565b92915050565b5f805f805f805f60a0888a0312156113235761132261122b565b5b5f6113308a828b01611252565b975050602088013567ffffffffffffffff8111156113515761135061122f565b5b61135d8a828b01611272565b9650965050604088013567ffffffffffffffff8111156113805761137f61122f565b5b61138c8a828b01611272565b9450945050606061139f8a828b016112f4565b92505060806113b08a828b016112f4565b91505092959891949750929550565b5f81519050919050565b5f82825260208201905092915050565b5f819050602082019050919050565b6113f181611233565b82525050565b5f61140283836113e8565b60208301905092915050565b5f602082019050919050565b5f611424826113bf565b61142e81856113c9565b9350611439836113d9565b805f5b8381101561146957815161145088826113f7565b975061145b8361140e565b92505060018101905061143c565b5085935050505092915050565b5f6020820190508181035f83015261148e818461141a565b905092915050565b61149f81611233565b82525050565b5f6020820190506114b85f830184611496565b92915050565b5f602082840312156114d3576114d261122b565b5b5f6114e084828501611252565b91505092915050565b5f81519050919050565b5f82825260208201905092915050565b8281835e5f83830152505050565b5f601f19601f8301169050919050565b5f61152b826114e9565b61153581856114f3565b9350611545818560208601611503565b61154e81611511565b840191505092915050565b611562816112c7565b82525050565b5f8115159050919050565b61157c81611568565b82525050565b5f60a0820190508181035f83015261159a8188611521565b905081810360208301526115ae8187611521565b90506115bd6040830186611559565b6115ca6060830185611559565b6115d76080830184611573565b9695505050505050565b5f60a0820190506115f45f830188611559565b6116016020830187611559565b61160e6040830186611573565b81810360608301526116208185611521565b905081810360808301526116348184611521565b90509695505050505050565b5f73ffffffffffffffffffffffffffffffffffffffff82169050919050565b5f61166982611640565b9050919050565b6116798161165f565b82525050565b5f6020820190506116925f830184611670565b92915050565b5f6020820190506116ab5f830184611559565b92915050565b6116ba8161165f565b81146116c4575f80fd5b50565b5f813590506116d5816116b1565b92915050565b5f602082840312156116f0576116ef61122b565b5b5f6116fd848285016116c7565b91505092915050565b5f806040838503121561171c5761171b61122b565b5b5f61172985828601611252565b925050602061173a858286016112f4565b9150509250929050565b5f8083601f84011261175957611758611266565b5b8235905067ffffffffffffffff8111156117765761177561126a565b5b6020830191508360208202830111156117925761179161126e565b5b9250929050565b5f80602083850312156117af576117ae61122b565b5b5f83013567ffffffffffffffff8111156117cc576117cb61122f565b5b6117d885828601611744565b92509250509250929050565b7f426f6f6b206578697374730000000000000000000000000000000000000000005f82015250565b5f611818600b836114f3565b9150611823826117e4565b602082019050919050565b5f6020820190508181035f8301526118458161180c565b9050919050565b7f4e487b71000000000000000000000000000000000000000000000000000000005f52604160045260245ffd5b7f4e487b71000000000000000000000000000000000000000000000000000000005f52602260045260245ffd5b5f60028204905060018216806118bd57607f821691505b6020821081036118d0576118cf611879565b5b50919050565b5f819050815f5260205f209050919050565b5f6020601f8301049050919050565b5f82821b905092915050565b5f600883026119327fffffffffffffffffffffffffffffffffffffffffffffffffffffffffffffffff826118f7565b61193c86836118f7565b95508019841693508086168417925050509392505050565b5f819050919050565b5f61197761197261196d84611233565b611954565b611233565b9050919050565b5f819050919050565b6119908361195d565b6119a461199c8261197e565b848454611903565b825550505050565b5f90565b6119b86119ac565b6119c3818484611987565b505050565b5b818110156119e6576119db5f826119b0565b6001810190506119c9565b5050565b601f821115611a2b576119fc816118d6565b611a05846118e8565b81016020851015611a14578190505b611a28611a20856118e8565b8301826119c8565b50505b505050565b5f82821c905092915050565b5f611a4b5f1984600802611a30565b1980831691505092915050565b5f611a638383611a3c565b9150826002028217905092915050565b611a7c826114e9565b67ffffffffffffffff811115611a9557611a9461184c565b5b611a9f82546118a6565b611aaa8282856119ea565b5f60209050601f831160018114611adb575f8415611ac9578287015190505b611ad38582611a58565b865550611b3a565b601f198416611ae9866118d6565b5f5b82811015611b1057848901518255600182019150602085019450602081019050611aeb565b86831015611b2d5784890151611b29601f891682611a3c565b8355505b6001600288020188555050505b505050505050565b828183375f83830152505050565b5f611b5b83856114f3565b9350611b68838584611b42565b611b7183611511565b840190509392505050565b5f6080820190508181035f830152611b9581888a611b50565b90508181036020830152611baa818688611b50565b9050611bb96040830185611559565b611bc66060830184611559565b979650505050505050565b7f426f6f6b206e6f742065786973740000000000000000000000000000000000005f82015250565b5f611c05600e836114f3565b9150611c1082611bd1565b602082019050919050565b5f6020820190508181035f830152611c3281611bf9565b9050919050565b7f4e487b71000000000000000000000000000000000000000000000000000000005f52603260045260245ffd5b7f4e487b71000000000000000000000000000000000000000000000000000000005f52601160045260245ffd5b5f611c9d82611233565b9150611ca883611233565b9250828203905081811115611cc057611cbf611c66565b5b92915050565b7f4e487b71000000000000000000000000000000000000000000000000000000005f52603160045260245ffd5b7f4e6f7420617661696c61626c65000000000000000000000000000000000000005f82015250565b5f611d27600d836114f3565b9150611d3282611cf3565b602082019050919050565b5f6020820190508181035f830152611d5481611d1b565b9050919050565b7f4e6f7420656e6f7567682073746f636b000000000000000000000000000000005f82015250565b5f611d8f6010836114f3565b9150611d9a82611d5b565b602082019050919050565b5f6020820190508181035f830152611dbc81611d83565b9050919050565b5f611dcd826112c7565b9150611dd8836112c7565b9250828202611de6816112c7565b9150808214611df857611df7611c66565b5b5092915050565b7f57726f6e67207061796d656e74000000000000000000000000000000000000005f82015250565b5f611e33600d836114f3565b9150611e3e82611dff565b602082019050919050565b5f6020820190508181035f830152611e6081611e27565b9050919050565b5f80fd5b82818337505050565b5f611e7f83856113c9565b93507f07ffffffffffffffffffffffffffffffffffffffffffffffffffffffffffffff831115611eb257611eb1611e67565b5b602083029250611ec3838584611e6b565b82840190509392505050565b5f6020820190508181035f830152611ee8818486611e74565b9050939250505056fea2646970667358221220fa63fd34ec4ec7892deb9c4c4fa5e1c085636e8bdaa4b53005d572ac5fcb446d64736f6c634300081a0033",
					"opcodes": "PUSH1 0x80 PUSH1 0x40 MSTORE CALLVALUE DUP1 ISZERO PUSH2 0xF JUMPI PUSH0 DUP1 REVERT JUMPDEST POP CALLER PUSH0 PUSH20 0xFFFFFFFFFFFFFFFFFFFFFFFFFFFFFFFFFFFFFFFF AND DUP2 PUSH20 0xFFFFFFFFFFFFFFFFFFFFFFFFFFFFFFFFFFFFFFFF AND SUB PUSH2 0x81 JUMPI PUSH0 PUSH1 0x40 MLOAD PUSH32 0x1E4FBDF700000000000000000000000000000000000000000000000000000000 DUP2 MSTORE PUSH1 0x4 ADD PUSH2 0x78 SWAP2 SWAP1 PUSH2 0x196 JUMP JUMPDEST PUSH1 0x40 MLOAD DUP1 SWAP2 SUB SWAP1 REVERT JUMPDEST PUSH2 0x90 DUP2 PUSH2 0x96 PUSH1 0x20 SHL PUSH1 0x20 SHR JUMP JUMPDEST POP PUSH2 0x1AF JUMP JUMPDEST PUSH0 DUP1 PUSH0 SWAP1 SLOAD SWAP1 PUSH2 0x100 EXP SWAP1 DIV PUSH20 0xFFFFFFFFFFFFFFFFFFFFFFFFFFFFFFFFFFFFFFFF AND SWAP1 POP DUP2 PUSH0 DUP1 PUSH2 0x100 EXP DUP2 SLOAD DUP2 PUSH20 0xFFFFFFFFFFFFFFFFFFFFFFFFFFFFFFFFFFFFFFFF MUL NOT AND SWAP1 DUP4 PUSH20 0xFFFFFFFFFFFFFFFFFFFFFFFFFFFFFFFFFFFFFFFF AND MUL OR SWAP1 SSTORE POP DUP2 PUSH20 0xFFFFFFFFFFFFFFFFFFFFFFFFFFFFFFFFFFFFFFFF AND DUP2 PUSH20 0xFFFFFFFFFFFFFFFFFFFFFFFFFFFFFFFFFFFFFFFF AND PUSH32 0x8BE0079C531659141344CD1FD0A4F28419497F9722A3DAAFE3B4186F6B6457E0 PUSH1 0x40 MLOAD PUSH1 0x40 MLOAD DUP1 SWAP2 SUB SWAP1 LOG3 POP POP JUMP JUMPDEST PUSH0 PUSH20 0xFFFFFFFFFFFFFFFFFFFFFFFFFFFFFFFFFFFFFFFF DUP3 AND SWAP1 POP SWAP2 SWAP1 POP JUMP JUMPDEST PUSH0 PUSH2 0x180 DUP3 PUSH2 0x157 JUMP JUMPDEST SWAP1 POP SWAP2 SWAP1 POP JUMP JUMPDEST PUSH2 0x190 DUP2 PUSH2 0x176 JUMP JUMPDEST DUP3 MSTORE POP POP JUMP JUMPDEST PUSH0 PUSH1 0x20 DUP3 ADD SWAP1 POP PUSH2 0x1A9 PUSH0 DUP4 ADD DUP5 PUSH2 0x187 JUMP JUMPDEST SWAP3 SWAP2 POP POP JUMP JUMPDEST PUSH2 0x1F27 DUP1 PUSH2 0x1BC PUSH0 CODECOPY PUSH0 RETURN INVALID PUSH1 0x80 PUSH1 0x40 MSTORE PUSH1 0x4 CALLDATASIZE LT PUSH2 0xA6 JUMPI PUSH0 CALLDATALOAD PUSH1 0xE0 SHR DUP1 PUSH4 0x8DA5CB5B GT PUSH2 0x63 JUMPI DUP1 PUSH4 0x8DA5CB5B EQ PUSH2 0x1BC JUMPI DUP1 PUSH4 0x9BD30883 EQ PUSH2 0x1E6 JUMPI DUP1 PUSH4 0xBEC0D799 EQ PUSH2 0x210 JUMPI DUP1 PUSH4 0xF2FDE38B EQ PUSH2 0x238 JUMPI DUP1 PUSH4 0xF46DE7D4 EQ PUSH2 0x260 JUMPI DUP1 PUSH4 0xF98520DE EQ PUSH2 0x27C JUMPI PUSH2 0xA6 JUMP JUMPDEST DUP1 PUSH4 0x21E6DE9D EQ PUSH2 0xAA JUMPI DUP1 PUSH4 0x354528E8 EQ PUSH2 0xD2 JUMPI DUP1 PUSH4 0x590791F2 EQ PUSH2 0xFC JUMPI DUP1 PUSH4 0x5AC3E19E EQ PUSH2 0x126 JUMPI DUP1 PUSH4 0x68744046 EQ PUSH2 0x166 JUMPI DUP1 PUSH4 0x715018A6 EQ PUSH2 0x1A6 JUMPI JUMPDEST PUSH0 DUP1 REVERT JUMPDEST CALLVALUE DUP1 ISZERO PUSH2 0xB5 JUMPI PUSH0 DUP1 REVERT JUMPDEST POP PUSH2 0xD0 PUSH1 0x4 DUP1 CALLDATASIZE SUB DUP2 ADD SWAP1 PUSH2 0xCB SWAP2 SWAP1 PUSH2 0x1308 JUMP JUMPDEST PUSH2 0x2A4 JUMP JUMPDEST STOP JUMPDEST CALLVALUE DUP1 ISZERO PUSH2 0xDD JUMPI PUSH0 DUP1 REVERT JUMPDEST POP PUSH2 0xE6 PUSH2 0x534 JUMP JUMPDEST PUSH1 0x40 MLOAD PUSH2 0xF3 SWAP2 SWAP1 PUSH2 0x1476 JUMP JUMPDEST PUSH1 0x40 MLOAD DUP1 SWAP2 SUB SWAP1 RETURN JUMPDEST CALLVALUE DUP1 ISZERO PUSH2 0x107 JUMPI PUSH0 DUP1 REVERT JUMPDEST POP PUSH2 0x110 PUSH2 0x58A JUMP JUMPDEST PUSH1 0x40 MLOAD PUSH2 0x11D SWAP2 SWAP1 PUSH2 0x14A5 JUMP JUMPDEST PUSH1 0x40 MLOAD DUP1 SWAP2 SUB SWAP1 RETURN JUMPDEST CALLVALUE DUP1 ISZERO PUSH2 0x131 JUMPI PUSH0 DUP1 REVERT JUMPDEST POP PUSH2 0x14C PUSH1 0x4 DUP1 CALLDATASIZE SUB DUP2 ADD SWAP1 PUSH2 0x147 SWAP2 SWAP1 PUSH2 0x14BE JUMP JUMPDEST PUSH2 0x5AF JUMP JUMPDEST PUSH1 0x40 MLOAD PUSH2 0x15D SWAP6 SWAP5 SWAP4 SWAP3 SWAP2 SWAP1 PUSH2 0x1582 JUMP JUMPDEST PUSH1 0x40 MLOAD DUP1 SWAP2 SUB SWAP1 RETURN JUMPDEST CALLVALUE DUP1 ISZERO PUSH2 0x171 JUMPI PUSH0 DUP1 REVERT JUMPDEST POP PUSH2 0x18C PUSH1 0x4 DUP1 CALLDATASIZE SUB DUP2 ADD SWAP1 PUSH2 0x187 SWAP2 SWAP1 PUSH2 0x14BE JUMP JUMPDEST PUSH2 0x741 JUMP JUMPDEST PUSH1 0x40 MLOAD PUSH2 0x19D SWAP6 SWAP5 SWAP4 SWAP3 SWAP2 SWAP1 PUSH2 0x15E1 JUMP JUMPDEST PUSH1 0x40 MLOAD DUP1 SWAP2 SUB SWAP1 RETURN JUMPDEST CALLVALUE DUP1 ISZERO PUSH2 0x1B1 JUMPI PUSH0 DUP1 REVERT JUMPDEST POP PUSH2 0x1BA PUSH2 0x8B9 JUMP JUMPDEST STOP JUMPDEST CALLVALUE DUP1 ISZERO PUSH2 0x1C7 JUMPI PUSH0 DUP1 REVERT JUMPDEST POP PUSH2 0x1D0 PUSH2 0x8CC JUMP JUMPDEST PUSH1 0x40 MLOAD PUSH2 0x1DD SWAP2 SWAP1 PUSH2 0x167F JUMP JUMPDEST PUSH1 0x40 MLOAD DUP1 SWAP2 SUB SWAP1 RETURN JUMPDEST CALLVALUE DUP1 ISZERO PUSH2 0x1F1 JUMPI PUSH0 DUP1 REVERT JUMPDEST POP PUSH2 0x1FA PUSH2 0x8F3 JUMP JUMPDEST PUSH1 0x40 MLOAD PUSH2 0x207 SWAP2 SWAP1 PUSH2 0x1698 JUMP JUMPDEST PUSH1 0x40 MLOAD DUP1 SWAP2 SUB SWAP1 RETURN JUMPDEST CALLVALUE DUP1 ISZERO PUSH2 0x21B JUMPI PUSH0 DUP1 REVERT JUMPDEST POP PUSH2 0x236 PUSH1 0x4 DUP1 CALLDATASIZE SUB DUP2 ADD SWAP1 PUSH2 0x231 SWAP2 SWAP1 PUSH2 0x14BE JUMP JUMPDEST PUSH2 0x913 JUMP JUMPDEST STOP JUMPDEST CALLVALUE DUP1 ISZERO PUSH2 0x243 JUMPI PUSH0 DUP1 REVERT JUMPDEST POP PUSH2 0x25E PUSH1 0x4 DUP1 CALLDATASIZE SUB DUP2 ADD SWAP1 PUSH2 0x259 SWAP2 SWAP1 PUSH2 0x16DB JUMP JUMPDEST PUSH2 0xAFC JUMP JUMPDEST STOP JUMPDEST PUSH2 0x27A PUSH1 0x4 DUP1 CALLDATASIZE SUB DUP2 ADD SWAP1 PUSH2 0x275 SWAP2 SWAP1 PUSH2 0x1706 JUMP JUMPDEST PUSH2 0xB80 JUMP JUMPDEST STOP JUMPDEST CALLVALUE DUP1 ISZERO PUSH2 0x287 JUMPI PUSH0 DUP1 REVERT JUMPDEST POP PUSH2 0x2A2 PUSH1 0x4 DUP1 CALLDATASIZE SUB DUP2 ADD SWAP1 PUSH2 0x29D SWAP2 SWAP1 PUSH2 0x1799 JUMP JUMPDEST PUSH2 0xE52 JUMP JUMPDEST STOP JUMPDEST PUSH0 PUSH1 0x1 PUSH0 DUP10 DUP2 MSTORE PUSH1 0x20 ADD SWAP1 DUP2 MSTORE PUSH1 0x20 ADD PUSH0 KECCAK256 PUSH0 ADD PUSH1 0xC SWAP1 SLOAD SWAP1 PUSH2 0x100 EXP SWAP1 DIV PUSH12 0xFFFFFFFFFFFFFFFFFFFFFFFF AND PUSH12 0xFFFFFFFFFFFFFFFFFFFFFFFF AND EQ PUSH2 0x31F JUMPI PUSH1 0x40 MLOAD PUSH32 0x8C379A000000000000000000000000000000000000000000000000000000000 DUP2 MSTORE PUSH1 0x4 ADD PUSH2 0x316 SWAP1 PUSH2 0x182E JUMP JUMPDEST PUSH1 0x40 MLOAD DUP1 SWAP2 SUB SWAP1 REVERT JUMPDEST PUSH1 0x40 MLOAD DUP1 PUSH1 0xA0 ADD PUSH1 0x40 MSTORE DUP1 DUP4 PUSH12 0xFFFFFFFFFFFFFFFFFFFFFFFF AND DUP2 MSTORE PUSH1 0x20 ADD DUP3 PUSH12 0xFFFFFFFFFFFFFFFFFFFFFFFF AND DUP2 MSTORE PUSH1 0x20 ADD PUSH0 DUP5 PUSH12 0xFFFFFFFFFFFFFFFFFFFFFFFF AND GT ISZERO ISZERO DUP2 MSTORE PUSH1 0x20 ADD DUP8 DUP8 DUP1 DUP1 PUSH1 0x1F ADD PUSH1 0x20 DUP1 SWAP2 DIV MUL PUSH1 0x20 ADD PUSH1 0x40 MLOAD SWAP1 DUP2 ADD PUSH1 0x40 MSTORE DUP1 SWAP4 SWAP3 SWAP2 SWAP1 DUP2 DUP2 MSTORE PUSH1 0x20 ADD DUP4 DUP4 DUP1 DUP3 DUP5 CALLDATACOPY PUSH0 DUP2 DUP5 ADD MSTORE PUSH1 0x1F NOT PUSH1 0x1F DUP3 ADD AND SWAP1 POP DUP1 DUP4 ADD SWAP3 POP POP POP POP POP POP POP DUP2 MSTORE PUSH1 0x20 ADD DUP6 DUP6 DUP1 DUP1 PUSH1 0x1F ADD PUSH1 0x20 DUP1 SWAP2 DIV MUL PUSH1 0x20 ADD PUSH1 0x40 MLOAD SWAP1 DUP2 ADD PUSH1 0x40 MSTORE DUP1 SWAP4 SWAP3 SWAP2 SWAP1 DUP2 DUP2 MSTORE PUSH1 0x20 ADD DUP4 DUP4 DUP1 DUP3 DUP5 CALLDATACOPY PUSH0 DUP2 DUP5 ADD MSTORE PUSH1 0x1F NOT PUSH1 0x1F DUP3 ADD AND SWAP1 POP DUP1 DUP4 ADD SWAP3 POP POP POP POP POP POP POP DUP2 MSTORE POP PUSH1 0x1 PUSH0 DUP10 DUP2 MSTORE PUSH1 0x20 ADD SWAP1 DUP2 MSTORE PUSH1 0x20 ADD PUSH0 KECCAK256 PUSH0 DUP3 ADD MLOAD DUP2 PUSH0 ADD PUSH0 PUSH2 0x100 EXP DUP2 SLOAD DUP2 PUSH12 0xFFFFFFFFFFFFFFFFFFFFFFFF MUL NOT AND SWAP1 DUP4 PUSH12 0xFFFFFFFFFFFFFFFFFFFFFFFF AND MUL OR SWAP1 SSTORE POP PUSH1 0x20 DUP3 ADD MLOAD DUP2 PUSH0 ADD PUSH1 0xC PUSH2 0x100 EXP DUP2 SLOAD DUP2 PUSH12 0xFFFFFFFFFFFFFFFFFFFFFFFF MUL NOT AND SWAP1 DUP4 PUSH12 0xFFFFFFFFFFFFFFFFFFFFFFFF AND MUL OR SWAP1 SSTORE POP PUSH1 0x40 DUP3 ADD MLOAD DUP2 PUSH0 ADD PUSH1 0x18 PUSH2 0x100 EXP DUP2 SLOAD DUP2 PUSH1 0xFF MUL NOT AND SWAP1 DUP4 ISZERO ISZERO MUL OR SWAP1 SSTORE POP PUSH1 0x60 DUP3 ADD MLOAD DUP2 PUSH1 0x1 ADD SWAP1 DUP2 PUSH2 0x4A9 SWAP2 SWAP1 PUSH2 0x1A73 JUMP JUMPDEST POP PUSH1 0x80 DUP3 ADD MLOAD DUP2 PUSH1 0x2 ADD SWAP1 DUP2 PUSH2 0x4BF SWAP2 SWAP1 PUSH2 0x1A73 JUMP JUMPDEST POP SWAP1 POP POP PUSH1 0x2 DUP8 SWAP1 DUP1 PUSH1 0x1 DUP2 SLOAD ADD DUP1 DUP3 SSTORE DUP1 SWAP2 POP POP PUSH1 0x1 SWAP1 SUB SWAP1 PUSH0 MSTORE PUSH1 0x20 PUSH0 KECCAK256 ADD PUSH0 SWAP1 SWAP2 SWAP1 SWAP2 SWAP1 SWAP2 POP SSTORE DUP7 PUSH32 0x907463480EDCB1016AD34B5C752A56E18C2AEA6ED1DD0E18EC287D63D670D88F DUP8 DUP8 DUP8 DUP8 DUP7 DUP9 PUSH1 0x40 MLOAD PUSH2 0x523 SWAP7 SWAP6 SWAP5 SWAP4 SWAP3 SWAP2 SWAP1 PUSH2 0x1B7C JUMP JUMPDEST PUSH1 0x40 MLOAD DUP1 SWAP2 SUB SWAP1 LOG2 POP POP POP POP POP POP POP JUMP JUMPDEST PUSH1 0x60 PUSH1 0x2 DUP1 SLOAD DUP1 PUSH1 0x20 MUL PUSH1 0x20 ADD PUSH1 0x40 MLOAD SWAP1 DUP2 ADD PUSH1 0x40 MSTORE DUP1 SWAP3 SWAP2 SWAP1 DUP2 DUP2 MSTORE PUSH1 0x20 ADD DUP3 DUP1 SLOAD DUP1 ISZERO PUSH2 0x580 JUMPI PUSH1 0x20 MUL DUP3 ADD SWAP2 SWAP1 PUSH0 MSTORE PUSH1 0x20 PUSH0 KECCAK256 SWAP1 JUMPDEST DUP2 SLOAD DUP2 MSTORE PUSH1 0x20 ADD SWAP1 PUSH1 0x1 ADD SWAP1 DUP1 DUP4 GT PUSH2 0x56C JUMPI JUMPDEST POP POP POP POP POP SWAP1 POP SWAP1 JUMP JUMPDEST PUSH0 PUSH2 0x593 PUSH2 0x8CC JUMP JUMPDEST PUSH20 0xFFFFFFFFFFFFFFFFFFFFFFFFFFFFFFFFFFFFFFFF AND BALANCE SWAP1 POP SWAP1 JUMP JUMPDEST PUSH1 0x60 DUP1 PUSH0 DUP1 PUSH0 DUP1 PUSH1 0x1 PUSH0 DUP9 DUP2 MSTORE PUSH1 0x20 ADD SWAP1 DUP2 MSTORE PUSH1 0x20 ADD PUSH0 KECCAK256 SWAP1 POP DUP1 PUSH1 0x1 ADD DUP2 PUSH1 0x2 ADD DUP3 PUSH0 ADD PUSH1 0xC SWAP1 SLOAD SWAP1 PUSH2 0x100 EXP SWAP1 DIV PUSH12 0xFFFFFFFFFFFFFFFFFFFFFFFF AND DUP4 PUSH0 ADD PUSH0 SWAP1 SLOAD SWAP1 PUSH2 0x100 EXP SWAP1 DIV PUSH12 0xFFFFFFFFFFFFFFFFFFFFFFFF AND DUP5 PUSH0 ADD PUSH1 0x18 SWAP1 SLOAD SWAP1 PUSH2 0x100 EXP SWAP1 DIV PUSH1 0xFF AND DUP5 DUP1 SLOAD PUSH2 0x625 SWAP1 PUSH2 0x18A6 JUMP JUMPDEST DUP1 PUSH1 0x1F ADD PUSH1 0x20 DUP1 SWAP2 DIV MUL PUSH1 0x20 ADD PUSH1 0x40 MLOAD SWAP1 DUP2 ADD PUSH1 0x40 MSTORE DUP1 SWAP3 SWAP2 SWAP1 DUP2 DUP2 MSTORE PUSH1 0x20 ADD DUP3 DUP1 SLOAD PUSH2 0x651 SWAP1 PUSH2 0x18A6 JUMP JUMPDEST DUP1 ISZERO PUSH2 0x69C JUMPI DUP1 PUSH1 0x1F LT PUSH2 0x673 JUMPI PUSH2 0x100 DUP1 DUP4 SLOAD DIV MUL DUP4 MSTORE SWAP2 PUSH1 0x20 ADD SWAP2 PUSH2 0x69C JUMP JUMPDEST DUP3 ADD SWAP2 SWAP1 PUSH0 MSTORE PUSH1 0x20 PUSH0 KECCAK256 SWAP1 JUMPDEST DUP2 SLOAD DUP2 MSTORE SWAP1 PUSH1 0x1 ADD SWAP1 PUSH1 0x20 ADD DUP1 DUP4 GT PUSH2 0x67F JUMPI DUP3 SWAP1 SUB PUSH1 0x1F AND DUP3 ADD SWAP2 JUMPDEST POP POP POP POP POP SWAP5 POP DUP4 DUP1 SLOAD PUSH2 0x6AF SWAP1 PUSH2 0x18A6 JUMP JUMPDEST DUP1 PUSH1 0x1F ADD PUSH1 0x20 DUP1 SWAP2 DIV MUL PUSH1 0x20 ADD PUSH1 0x40 MLOAD SWAP1 DUP2 ADD PUSH1 0x40 MSTORE DUP1 SWAP3 SWAP2 SWAP1 DUP2 DUP2 MSTORE PUSH1 0x20 ADD DUP3 DUP1 SLOAD PUSH2 0x6DB SWAP1 PUSH2 0x18A6 JUMP JUMPDEST DUP1 ISZERO PUSH2 0x726 JUMPI DUP1 PUSH1 0x1F LT PUSH2 0x6FD JUMPI PUSH2 0x100 DUP1 DUP4 SLOAD DIV MUL DUP4 MSTORE SWAP2 PUSH1 0x20 ADD SWAP2 PUSH2 0x726 JUMP JUMPDEST DUP3 ADD SWAP2 SWAP1 PUSH0 MSTORE PUSH1 0x20 PUSH0 KECCAK256 SWAP1 JUMPDEST DUP2 SLOAD DUP2 MSTORE SWAP1 PUSH1 0x1 ADD SWAP1 PUSH1 0x20 ADD DUP1 DUP4 GT PUSH2 0x709 JUMPI DUP3 SWAP1 SUB PUSH1 0x1F AND DUP3 ADD SWAP2 JUMPDEST POP POP POP POP POP SWAP4 POP SWAP6 POP SWAP6 POP SWAP6 POP SWAP6 POP SWAP6 POP POP SWAP2 SWAP4 SWAP6 SWAP1 SWAP3 SWAP5 POP JUMP JUMPDEST PUSH1 0x1 PUSH1 0x20 MSTORE DUP1 PUSH0 MSTORE PUSH1 0x40 PUSH0 KECCAK256 PUSH0 SWAP2 POP SWAP1 POP DUP1 PUSH0 ADD PUSH0 SWAP1 SLOAD SWAP1 PUSH2 0x100 EXP SWAP1 DIV PUSH12 0xFFFFFFFFFFFFFFFFFFFFFFFF AND SWAP1 DUP1 PUSH0 ADD PUSH1 0xC SWAP1 SLOAD SWAP1 PUSH2 0x100 EXP SWAP1 DIV PUSH12 0xFFFFFFFFFFFFFFFFFFFFFFFF AND SWAP1 DUP1 PUSH0 ADD PUSH1 0x18 SWAP1 SLOAD SWAP1 PUSH2 0x100 EXP SWAP1 DIV PUSH1 0xFF AND SWAP1 DUP1 PUSH1 0x1 ADD DUP1 SLOAD PUSH2 0x7AC SWAP1 PUSH2 0x18A6 JUMP JUMPDEST DUP1 PUSH1 0x1F ADD PUSH1 0x20 DUP1 SWAP2 DIV MUL PUSH1 0x20 ADD PUSH1 0x40 MLOAD SWAP1 DUP2 ADD PUSH1 0x40 MSTORE DUP1 SWAP3 SWAP2 SWAP1 DUP2 DUP2 MSTORE PUSH1 0x20 ADD DUP3 DUP1 SLOAD PUSH2 0x7D8 SWAP1 PUSH2 0x18A6 JUMP JUMPDEST DUP1 ISZERO PUSH2 0x823 JUMPI DUP1 PUSH1 0x1F LT PUSH2 0x7FA JUMPI PUSH2 0x100 DUP1 DUP4 SLOAD DIV MUL DUP4 MSTORE SWAP2 PUSH1 0x20 ADD SWAP2 PUSH2 0x823 JUMP JUMPDEST DUP3 ADD SWAP2 SWAP1 PUSH0 MSTORE PUSH1 0x20 PUSH0 KECCAK256 SWAP1 JUMPDEST DUP2 SLOAD DUP2 MSTORE SWAP1 PUSH1 0x1 ADD SWAP1 PUSH1 0x20 ADD DUP1 DUP4 GT PUSH2 0x806 JUMPI DUP3 SWAP1 SUB PUSH1 0x1F AND DUP3 ADD SWAP2 JUMPDEST POP POP POP POP POP SWAP1 DUP1 PUSH1 0x2 ADD DUP1 SLOAD PUSH2 0x838 SWAP1 PUSH2 0x18A6 JUMP JUMPDEST DUP1 PUSH1 0x1F ADD PUSH1 0x20 DUP1 SWAP2 DIV MUL PUSH1 0x20 ADD PUSH1 0x40 MLOAD SWAP1 DUP2 ADD PUSH1 0x40 MSTORE DUP1 SWAP3 SWAP2 SWAP1 DUP2 DUP2 MSTORE PUSH1 0x20 ADD DUP3 DUP1 SLOAD PUSH2 0x864 SWAP1 PUSH2 0x18A6 JUMP JUMPDEST DUP1 ISZERO PUSH2 0x8AF JUMPI DUP1 PUSH1 0x1F LT PUSH2 0x886 JUMPI PUSH2 0x100 DUP1 DUP4 SLOAD DIV MUL DUP4 MSTORE SWAP2 PUSH1 0x20 ADD SWAP2 PUSH2 0x8AF JUMP JUMPDEST DUP3 ADD SWAP2 SWAP1 PUSH0 MSTORE PUSH1 0x20 PUSH0 KECCAK256 SWAP1 JUMPDEST DUP2 SLOAD DUP2 MSTORE SWAP1 PUSH1 0x1 ADD SWAP1 PUSH1 0x20 ADD DUP1 DUP4 GT PUSH2 0x892 JUMPI DUP3 SWAP1 SUB PUSH1 0x1F AND DUP3 ADD SWAP2 JUMPDEST POP POP POP POP POP SWAP1 POP DUP6 JUMP JUMPDEST PUSH2 0x8C1 PUSH2 0x1084 JUMP JUMPDEST PUSH2 0x8CA PUSH0 PUSH2 0x110B JUMP JUMPDEST JUMP JUMPDEST PUSH0 DUP1 PUSH0 SWAP1 SLOAD SWAP1 PUSH2 0x100 EXP SWAP1 DIV PUSH20 0xFFFFFFFFFFFFFFFFFFFFFFFFFFFFFFFFFFFFFFFF AND SWAP1 POP SWAP1 JUMP JUMPDEST PUSH0 DUP1 PUSH1 0x14 SWAP1 SLOAD SWAP1 PUSH2 0x100 EXP SWAP1 DIV PUSH12 0xFFFFFFFFFFFFFFFFFFFFFFFF AND SWAP1 POP SWAP1 JUMP JUMPDEST PUSH2 0x91B PUSH2 0x1084 JUMP JUMPDEST PUSH0 PUSH1 0x1 PUSH0 DUP4 DUP2 MSTORE PUSH1 0x20 ADD SWAP1 DUP2 MSTORE PUSH1 0x20 ADD PUSH0 KECCAK256 PUSH0 ADD PUSH1 0xC SWAP1 SLOAD SWAP1 PUSH2 0x100 EXP SWAP1 DIV PUSH12 0xFFFFFFFFFFFFFFFFFFFFFFFF AND PUSH12 0xFFFFFFFFFFFFFFFFFFFFFFFF AND SUB PUSH2 0x996 JUMPI PUSH1 0x40 MLOAD PUSH32 0x8C379A000000000000000000000000000000000000000000000000000000000 DUP2 MSTORE PUSH1 0x4 ADD PUSH2 0x98D SWAP1 PUSH2 0x1C1B JUMP JUMPDEST PUSH1 0x40 MLOAD DUP1 SWAP2 SUB SWAP1 REVERT JUMPDEST PUSH1 0x1 PUSH0 DUP3 DUP2 MSTORE PUSH1 0x20 ADD SWAP1 DUP2 MSTORE PUSH1 0x20 ADD PUSH0 KECCAK256 PUSH0 DUP1 DUP3 ADD PUSH0 PUSH2 0x100 EXP DUP2 SLOAD SWAP1 PUSH12 0xFFFFFFFFFFFFFFFFFFFFFFFF MUL NOT AND SWAP1 SSTORE PUSH0 DUP3 ADD PUSH1 0xC PUSH2 0x100 EXP DUP2 SLOAD SWAP1 PUSH12 0xFFFFFFFFFFFFFFFFFFFFFFFF MUL NOT AND SWAP1 SSTORE PUSH0 DUP3 ADD PUSH1 0x18 PUSH2 0x100 EXP DUP2 SLOAD SWAP1 PUSH1 0xFF MUL NOT AND SWAP1 SSTORE PUSH1 0x1 DUP3 ADD PUSH0 PUSH2 0xA05 SWAP2 SWAP1 PUSH2 0x11D3 JUMP JUMPDEST PUSH1 0x2 DUP3 ADD PUSH0 PUSH2 0xA14 SWAP2 SWAP1 PUSH2 0x11D3 JUMP JUMPDEST POP POP PUSH0 JUMPDEST PUSH1 0x2 DUP1 SLOAD SWAP1 POP DUP2 LT ISZERO PUSH2 0xACB JUMPI DUP2 PUSH1 0x2 DUP3 DUP2 SLOAD DUP2 LT PUSH2 0xA3A JUMPI PUSH2 0xA39 PUSH2 0x1C39 JUMP JUMPDEST JUMPDEST SWAP1 PUSH0 MSTORE PUSH1 0x20 PUSH0 KECCAK256 ADD SLOAD SUB PUSH2 0xAC0 JUMPI PUSH1 0x2 PUSH1 0x1 PUSH1 0x2 DUP1 SLOAD SWAP1 POP PUSH2 0xA5C SWAP2 SWAP1 PUSH2 0x1C93 JUMP JUMPDEST DUP2 SLOAD DUP2 LT PUSH2 0xA6D JUMPI PUSH2 0xA6C PUSH2 0x1C39 JUMP JUMPDEST JUMPDEST SWAP1 PUSH0 MSTORE PUSH1 0x20 PUSH0 KECCAK256 ADD SLOAD PUSH1 0x2 DUP3 DUP2 SLOAD DUP2 LT PUSH2 0xA8A JUMPI PUSH2 0xA89 PUSH2 0x1C39 JUMP JUMPDEST JUMPDEST SWAP1 PUSH0 MSTORE PUSH1 0x20 PUSH0 KECCAK256 ADD DUP2 SWAP1 SSTORE POP PUSH1 0x2 DUP1 SLOAD DUP1 PUSH2 0xAA8 JUMPI PUSH2 0xAA7 PUSH2 0x1CC6 JUMP JUMPDEST JUMPDEST PUSH1 0x1 SWAP1 SUB DUP2 DUP2 SWAP1 PUSH0 MSTORE PUSH1 0x20 PUSH0 KECCAK256 ADD PUSH0 SWAP1 SSTORE SWAP1 SSTORE PUSH2 0xACB JUMP JUMPDEST DUP1 PUSH1 0x1 ADD SWAP1 POP PUSH2 0xA18 JUMP JUMPDEST POP DUP1 PUSH32 0x3C5CE13264433BCF97E5D53C97AF4FC33800E8C9DD927F965B116D0018D7CDDF PUSH1 0x40 MLOAD PUSH1 0x40 MLOAD DUP1 SWAP2 SUB SWAP1 LOG2 POP JUMP JUMPDEST PUSH2 0xB04 PUSH2 0x1084 JUMP JUMPDEST PUSH0 PUSH20 0xFFFFFFFFFFFFFFFFFFFFFFFFFFFFFFFFFFFFFFFF AND DUP2 PUSH20 0xFFFFFFFFFFFFFFFFFFFFFFFFFFFFFFFFFFFFFFFF AND SUB PUSH2 0xB74 JUMPI PUSH0 PUSH1 0x40 MLOAD PUSH32 0x1E4FBDF700000000000000000000000000000000000000000000000000000000 DUP2 MSTORE PUSH1 0x4 ADD PUSH2 0xB6B SWAP2 SWAP1 PUSH2 0x167F JUMP JUMPDEST PUSH1 0x40 MLOAD DUP1 SWAP2 SUB SWAP1 REVERT JUMPDEST PUSH2 0xB7D DUP2 PUSH2 0x110B JUMP JUMPDEST POP JUMP JUMPDEST PUSH0 PUSH1 0x1 PUSH0 DUP5 DUP2 MSTORE PUSH1 0x20 ADD SWAP1 DUP2 MSTORE PUSH1 0x20 ADD PUSH0 KECCAK256 SWAP1 POP DUP1 PUSH0 ADD PUSH1 0x18 SWAP1 SLOAD SWAP1 PUSH2 0x100 EXP SWAP1 DIV PUSH1 0xFF AND PUSH2 0xBE4 JUMPI PUSH1 0x40 MLOAD PUSH32 0x8C379A000000000000000000000000000000000000000000000000000000000 DUP2 MSTORE PUSH1 0x4 ADD PUSH2 0xBDB SWAP1 PUSH2 0x1D3D JUMP JUMPDEST PUSH1 0x40 MLOAD DUP1 SWAP2 SUB SWAP1 REVERT JUMPDEST DUP2 PUSH12 0xFFFFFFFFFFFFFFFFFFFFFFFF AND DUP2 PUSH0 ADD PUSH0 SWAP1 SLOAD SWAP1 PUSH2 0x100 EXP SWAP1 DIV PUSH12 0xFFFFFFFFFFFFFFFFFFFFFFFF AND PUSH12 0xFFFFFFFFFFFFFFFFFFFFFFFF AND LT ISZERO PUSH2 0xC5D JUMPI PUSH1 0x40 MLOAD PUSH32 0x8C379A000000000000000000000000000000000000000000000000000000000 DUP2 MSTORE PUSH1 0x4 ADD PUSH2 0xC54 SWAP1 PUSH2 0x1DA5 JUMP JUMPDEST PUSH1 0x40 MLOAD DUP1 SWAP2 SUB SWAP1 REVERT JUMPDEST DUP2 DUP2 PUSH0 ADD PUSH1 0xC SWAP1 SLOAD SWAP1 PUSH2 0x100 EXP SWAP1 DIV PUSH12 0xFFFFFFFFFFFFFFFFFFFFFFFF AND PUSH2 0xC84 SWAP2 SWAP1 PUSH2 0x1DC3 JUMP JUMPDEST PUSH12 0xFFFFFFFFFFFFFFFFFFFFFFFF AND CALLVALUE EQ PUSH2 0xCD3 JUMPI PUSH1 0x40 MLOAD PUSH32 0x8C379A000000000000000000000000000000000000000000000000000000000 DUP2 MSTORE PUSH1 0x4 ADD PUSH2 0xCCA SWAP1 PUSH2 0x1E49 JUMP JUMPDEST PUSH1 0x40 MLOAD DUP1 SWAP2 SUB SWAP1 REVERT JUMPDEST DUP2 DUP2 PUSH0 ADD PUSH0 DUP3 DUP3 DUP3 SWAP1 SLOAD SWAP1 PUSH2 0x100 EXP SWAP1 DIV PUSH12 0xFFFFFFFFFFFFFFFFFFFFFFFF AND SUB SWAP3 POP PUSH2 0x100 EXP DUP2 SLOAD DUP2 PUSH12 0xFFFFFFFFFFFFFFFFFFFFFFFF MUL NOT AND SWAP1 DUP4 PUSH12 0xFFFFFFFFFFFFFFFFFFFFFFFF AND MUL OR SWAP1 SSTORE POP DUP2 PUSH0 PUSH1 0x14 DUP3 DUP3 DUP3 SWAP1 SLOAD SWAP1 PUSH2 0x100 EXP SWAP1 DIV PUSH12 0xFFFFFFFFFFFFFFFFFFFFFFFF AND ADD SWAP3 POP PUSH2 0x100 EXP DUP2 SLOAD DUP2 PUSH12 0xFFFFFFFFFFFFFFFFFFFFFFFF MUL NOT AND SWAP1 DUP4 PUSH12 0xFFFFFFFFFFFFFFFFFFFFFFFF AND MUL OR SWAP1 SSTORE POP PUSH0 DUP2 PUSH0 ADD PUSH0 SWAP1 SLOAD SWAP1 PUSH2 0x100 EXP SWAP1 DIV PUSH12 0xFFFFFFFFFFFFFFFFFFFFFFFF AND PUSH12 0xFFFFFFFFFFFFFFFFFFFFFFFF AND GT DUP2 PUSH0 ADD PUSH1 0x18 PUSH2 0x100 EXP DUP2 SLOAD DUP2 PUSH1 0xFF MUL NOT AND SWAP1 DUP4 ISZERO ISZERO MUL OR SWAP1 SSTORE POP PUSH2 0xDBB PUSH2 0x8CC JUMP JUMPDEST PUSH20 0xFFFFFFFFFFFFFFFFFFFFFFFFFFFFFFFFFFFFFFFF AND PUSH2 0x8FC CALLVALUE SWAP1 DUP2 ISZERO MUL SWAP1 PUSH1 0x40 MLOAD PUSH0 PUSH1 0x40 MLOAD DUP1 DUP4 SUB DUP2 DUP6 DUP9 DUP9 CALL SWAP4 POP POP POP POP ISZERO DUP1 ISZERO PUSH2 0xDFD JUMPI RETURNDATASIZE PUSH0 DUP1 RETURNDATACOPY RETURNDATASIZE PUSH0 REVERT JUMPDEST POP CALLER PUSH20 0xFFFFFFFFFFFFFFFFFFFFFFFFFFFFFFFFFFFFFFFF AND DUP4 PUSH32 0x4E8E9BC53224DD7F5549D1A97FE174D12E6FF0064E2CCB78D886FC515C98859D DUP5 PUSH1 0x40 MLOAD PUSH2 0xE45 SWAP2 SWAP1 PUSH2 0x1698 JUMP JUMPDEST PUSH1 0x40 MLOAD DUP1 SWAP2 SUB SWAP1 LOG3 POP POP POP JUMP JUMPDEST PUSH2 0xE5A PUSH2 0x1084 JUMP JUMPDEST PUSH0 DUP3 DUP3 SWAP1 POP SWAP1 POP PUSH0 JUMPDEST DUP2 DUP2 LT ISZERO PUSH2 0x1045 JUMPI PUSH0 DUP5 DUP5 DUP4 DUP2 DUP2 LT PUSH2 0xE7F JUMPI PUSH2 0xE7E PUSH2 0x1C39 JUMP JUMPDEST JUMPDEST SWAP1 POP PUSH1 0x20 MUL ADD CALLDATALOAD SWAP1 POP PUSH0 PUSH1 0x1 PUSH0 DUP4 DUP2 MSTORE PUSH1 0x20 ADD SWAP1 DUP2 MSTORE PUSH1 0x20 ADD PUSH0 KECCAK256 PUSH0 ADD PUSH1 0xC SWAP1 SLOAD SWAP1 PUSH2 0x100 EXP SWAP1 DIV PUSH12 0xFFFFFFFFFFFFFFFFFFFFFFFF AND PUSH12 0xFFFFFFFFFFFFFFFFFFFFFFFF AND SUB PUSH2 0xF03 JUMPI PUSH1 0x40 MLOAD PUSH32 0x8C379A000000000000000000000000000000000000000000000000000000000 DUP2 MSTORE PUSH1 0x4 ADD PUSH2 0xEFA SWAP1 PUSH2 0x1C1B JUMP JUMPDEST PUSH1 0x40 MLOAD DUP1 SWAP2 SUB SWAP1 REVERT JUMPDEST PUSH1 0x1 PUSH0 DUP3 DUP2 MSTORE PUSH1 0x20 ADD SWAP1 DUP2 MSTORE PUSH1 0x20 ADD PUSH0 KECCAK256 PUSH0 DUP1 DUP3 ADD PUSH0 PUSH2 0x100 EXP DUP2 SLOAD SWAP1 PUSH12 0xFFFFFFFFFFFFFFFFFFFFFFFF MUL NOT AND SWAP1 SSTORE PUSH0 DUP3 ADD PUSH1 0xC PUSH2 0x100 EXP DUP2 SLOAD SWAP1 PUSH12 0xFFFFFFFFFFFFFFFFFFFFFFFF MUL NOT AND SWAP1 SSTORE PUSH0 DUP3 ADD PUSH1 0x18 PUSH2 0x100 EXP DUP2 SLOAD SWAP1 PUSH1 0xFF MUL NOT AND SWAP1 SSTORE PUSH1 0x1 DUP3 ADD PUSH0 PUSH2 0xF72 SWAP2 SWAP1 PUSH2 0x11D3 JUMP JUMPDEST PUSH1 0x2 DUP3 ADD PUSH0 PUSH2 0xF81 SWAP2 SWAP1 PUSH2 0x11D3 JUMP JUMPDEST POP POP PUSH0 JUMPDEST PUSH1 0x2 DUP1 SLOAD SWAP1 POP DUP2 LT ISZERO PUSH2 0x1038 JUMPI DUP2 PUSH1 0x2 DUP3 DUP2 SLOAD DUP2 LT PUSH2 0xFA7 JUMPI PUSH2 0xFA6 PUSH2 0x1C39 JUMP JUMPDEST JUMPDEST SWAP1 PUSH0 MSTORE PUSH1 0x20 PUSH0 KECCAK256 ADD SLOAD SUB PUSH2 0x102D JUMPI PUSH1 0x2 PUSH1 0x1 PUSH1 0x2 DUP1 SLOAD SWAP1 POP PUSH2 0xFC9 SWAP2 SWAP1 PUSH2 0x1C93 JUMP JUMPDEST DUP2 SLOAD DUP2 LT PUSH2 0xFDA JUMPI PUSH2 0xFD9 PUSH2 0x1C39 JUMP JUMPDEST JUMPDEST SWAP1 PUSH0 MSTORE PUSH1 0x20 PUSH0 KECCAK256 ADD SLOAD PUSH1 0x2 DUP3 DUP2 SLOAD DUP2 LT PUSH2 0xFF7 JUMPI PUSH2 0xFF6 PUSH2 0x1C39 JUMP JUMPDEST JUMPDEST SWAP1 PUSH0 MSTORE PUSH1 0x20 PUSH0 KECCAK256 ADD DUP2 SWAP1 SSTORE POP PUSH1 0x2 DUP1 SLOAD DUP1 PUSH2 0x1015 JUMPI PUSH2 0x1014 PUSH2 0x1CC6 JUMP JUMPDEST JUMPDEST PUSH1 0x1 SWAP1 SUB DUP2 DUP2 SWAP1 PUSH0 MSTORE PUSH1 0x20 PUSH0 KECCAK256 ADD PUSH0 SWAP1 SSTORE SWAP1 SSTORE PUSH2 0x1038 JUMP JUMPDEST DUP1 PUSH1 0x1 ADD SWAP1 POP PUSH2 0xF85 JUMP JUMPDEST POP DUP2 PUSH1 0x1 ADD SWAP2 POP POP PUSH2 0xE63 JUMP JUMPDEST POP PUSH32 0x7262BE1E48C30C363173FCB2FBF2DC2CB38D076DEE42CC37CDFBDF62AF5C3BED DUP4 DUP4 PUSH1 0x40 MLOAD PUSH2 0x1077 SWAP3 SWAP2 SWAP1 PUSH2 0x1ECF JUMP JUMPDEST PUSH1 0x40 MLOAD DUP1 SWAP2 SUB SWAP1 LOG1 POP POP POP JUMP JUMPDEST PUSH2 0x108C PUSH2 0x11CC JUMP JUMPDEST PUSH20 0xFFFFFFFFFFFFFFFFFFFFFFFFFFFFFFFFFFFFFFFF AND PUSH2 0x10AA PUSH2 0x8CC JUMP JUMPDEST PUSH20 0xFFFFFFFFFFFFFFFFFFFFFFFFFFFFFFFFFFFFFFFF AND EQ PUSH2 0x1109 JUMPI PUSH2 0x10CD PUSH2 0x11CC JUMP JUMPDEST PUSH1 0x40 MLOAD PUSH32 0x118CDAA700000000000000000000000000000000000000000000000000000000 DUP2 MSTORE PUSH1 0x4 ADD PUSH2 0x1100 SWAP2 SWAP1 PUSH2 0x167F JUMP JUMPDEST PUSH1 0x40 MLOAD DUP1 SWAP2 SUB SWAP1 REVERT JUMPDEST JUMP JUMPDEST PUSH0 DUP1 PUSH0 SWAP1 SLOAD SWAP1 PUSH2 0x100 EXP SWAP1 DIV PUSH20 0xFFFFFFFFFFFFFFFFFFFFFFFFFFFFFFFFFFFFFFFF AND SWAP1 POP DUP2 PUSH0 DUP1 PUSH2 0x100 EXP DUP2 SLOAD DUP2 PUSH20 0xFFFFFFFFFFFFFFFFFFFFFFFFFFFFFFFFFFFFFFFF MUL NOT AND SWAP1 DUP4 PUSH20 0xFFFFFFFFFFFFFFFFFFFFFFFFFFFFFFFFFFFFFFFF AND MUL OR SWAP1 SSTORE POP DUP2 PUSH20 0xFFFFFFFFFFFFFFFFFFFFFFFFFFFFFFFFFFFFFFFF AND DUP2 PUSH20 0xFFFFFFFFFFFFFFFFFFFFFFFFFFFFFFFFFFFFFFFF AND PUSH32 0x8BE0079C531659141344CD1FD0A4F28419497F9722A3DAAFE3B4186F6B6457E0 PUSH1 0x40 MLOAD PUSH1 0x40 MLOAD DUP1 SWAP2 SUB SWAP1 LOG3 POP POP JUMP JUMPDEST PUSH0 CALLER SWAP1 POP SWAP1 JUMP JUMPDEST POP DUP1 SLOAD PUSH2 0x11DF SWAP1 PUSH2 0x18A6 JUMP JUMPDEST PUSH0 DUP3 SSTORE DUP1 PUSH1 0x1F LT PUSH2 0x11F0 JUMPI POP PUSH2 0x120D JUMP JUMPDEST PUSH1 0x1F ADD PUSH1 0x20 SWAP1 DIV SWAP1 PUSH0 MSTORE PUSH1 0x20 PUSH0 KECCAK256 SWAP1 DUP2 ADD SWAP1 PUSH2 0x120C SWAP2 SWAP1 PUSH2 0x1210 JUMP JUMPDEST JUMPDEST POP JUMP JUMPDEST JUMPDEST DUP1 DUP3 GT ISZERO PUSH2 0x1227 JUMPI PUSH0 DUP2 PUSH0 SWAP1 SSTORE POP PUSH1 0x1 ADD PUSH2 0x1211 JUMP JUMPDEST POP SWAP1 JUMP JUMPDEST PUSH0 DUP1 REVERT JUMPDEST PUSH0 DUP1 REVERT JUMPDEST PUSH0 DUP2 SWAP1 POP SWAP2 SWAP1 POP JUMP JUMPDEST PUSH2 0x1245 DUP2 PUSH2 0x1233 JUMP JUMPDEST DUP2 EQ PUSH2 0x124F JUMPI PUSH0 DUP1 REVERT JUMPDEST POP JUMP JUMPDEST PUSH0 DUP2 CALLDATALOAD SWAP1 POP PUSH2 0x1260 DUP2 PUSH2 0x123C JUMP JUMPDEST SWAP3 SWAP2 POP POP JUMP JUMPDEST PUSH0 DUP1 REVERT JUMPDEST PUSH0 DUP1 REVERT JUMPDEST PUSH0 DUP1 REVERT JUMPDEST PUSH0 DUP1 DUP4 PUSH1 0x1F DUP5 ADD SLT PUSH2 0x1287 JUMPI PUSH2 0x1286 PUSH2 0x1266 JUMP JUMPDEST JUMPDEST DUP3 CALLDATALOAD SWAP1 POP PUSH8 0xFFFFFFFFFFFFFFFF DUP2 GT ISZERO PUSH2 0x12A4 JUMPI PUSH2 0x12A3 PUSH2 0x126A JUMP JUMPDEST JUMPDEST PUSH1 0x20 DUP4 ADD SWAP2 POP DUP4 PUSH1 0x1 DUP3 MUL DUP4 ADD GT ISZERO PUSH2 0x12C0 JUMPI PUSH2 0x12BF PUSH2 0x126E JUMP JUMPDEST JUMPDEST SWAP3 POP SWAP3 SWAP1 POP JUMP JUMPDEST PUSH0 PUSH12 0xFFFFFFFFFFFFFFFFFFFFFFFF DUP3 AND SWAP1 POP SWAP2 SWAP1 POP JUMP JUMPDEST PUSH2 0x12E7 DUP2 PUSH2 0x12C7 JUMP JUMPDEST DUP2 EQ PUSH2 0x12F1 JUMPI PUSH0 DUP1 REVERT JUMPDEST POP JUMP JUMPDEST PUSH0 DUP2 CALLDATALOAD SWAP1 POP PUSH2 0x1302 DUP2 PUSH2 0x12DE JUMP JUMPDEST SWAP3 SWAP2 POP POP JUMP JUMPDEST PUSH0 DUP1 PUSH0 DUP1 PUSH0 DUP1 PUSH0 PUSH1 0xA0 DUP9 DUP11 SUB SLT ISZERO PUSH2 0x1323 JUMPI PUSH2 0x1322 PUSH2 0x122B JUMP JUMPDEST JUMPDEST PUSH0 PUSH2 0x1330 DUP11 DUP3 DUP12 ADD PUSH2 0x1252 JUMP JUMPDEST SWAP8 POP POP PUSH1 0x20 DUP9 ADD CALLDATALOAD PUSH8 0xFFFFFFFFFFFFFFFF DUP2 GT ISZERO PUSH2 0x1351 JUMPI PUSH2 0x1350 PUSH2 0x122F JUMP JUMPDEST JUMPDEST PUSH2 0x135D DUP11 DUP3 DUP12 ADD PUSH2 0x1272 JUMP JUMPDEST SWAP7 POP SWAP7 POP POP PUSH1 0x40 DUP9 ADD CALLDATALOAD PUSH8 0xFFFFFFFFFFFFFFFF DUP2 GT ISZERO PUSH2 0x1380 JUMPI PUSH2 0x137F PUSH2 0x122F JUMP JUMPDEST JUMPDEST PUSH2 0x138C DUP11 DUP3 DUP12 ADD PUSH2 0x1272 JUMP JUMPDEST SWAP5 POP SWAP5 POP POP PUSH1 0x60 PUSH2 0x139F DUP11 DUP3 DUP12 ADD PUSH2 0x12F4 JUMP JUMPDEST SWAP3 POP POP PUSH1 0x80 PUSH2 0x13B0 DUP11 DUP3 DUP12 ADD PUSH2 0x12F4 JUMP JUMPDEST SWAP2 POP POP SWAP3 SWAP6 SWAP9 SWAP2 SWAP5 SWAP8 POP SWAP3 SWAP6 POP JUMP JUMPDEST PUSH0 DUP2 MLOAD SWAP1 POP SWAP2 SWAP1 POP JUMP JUMPDEST PUSH0 DUP3 DUP3 MSTORE PUSH1 0x20 DUP3 ADD SWAP1 POP SWAP3 SWAP2 POP POP JUMP JUMPDEST PUSH0 DUP2 SWAP1 POP PUSH1 0x20 DUP3 ADD SWAP1 POP SWAP2 SWAP1 POP JUMP JUMPDEST PUSH2 0x13F1 DUP2 PUSH2 0x1233 JUMP JUMPDEST DUP3 MSTORE POP POP JUMP JUMPDEST PUSH0 PUSH2 0x1402 DUP4 DUP4 PUSH2 0x13E8 JUMP JUMPDEST PUSH1 0x20 DUP4 ADD SWAP1 POP SWAP3 SWAP2 POP POP JUMP JUMPDEST PUSH0 PUSH1 0x20 DUP3 ADD SWAP1 POP SWAP2 SWAP1 POP JUMP JUMPDEST PUSH0 PUSH2 0x1424 DUP3 PUSH2 0x13BF JUMP JUMPDEST PUSH2 0x142E DUP2 DUP6 PUSH2 0x13C9 JUMP JUMPDEST SWAP4 POP PUSH2 0x1439 DUP4 PUSH2 0x13D9 JUMP JUMPDEST DUP1 PUSH0 JUMPDEST DUP4 DUP2 LT ISZERO PUSH2 0x1469 JUMPI DUP2 MLOAD PUSH2 0x1450 DUP9 DUP3 PUSH2 0x13F7 JUMP JUMPDEST SWAP8 POP PUSH2 0x145B DUP4 PUSH2 0x140E JUMP JUMPDEST SWAP3 POP POP PUSH1 0x1 DUP2 ADD SWAP1 POP PUSH2 0x143C JUMP JUMPDEST POP DUP6 SWAP4 POP POP POP POP SWAP3 SWAP2 POP POP JUMP JUMPDEST PUSH0 PUSH1 0x20 DUP3 ADD SWAP1 POP DUP2 DUP2 SUB PUSH0 DUP4 ADD MSTORE PUSH2 0x148E DUP2 DUP5 PUSH2 0x141A JUMP JUMPDEST SWAP1 POP SWAP3 SWAP2 POP POP JUMP JUMPDEST PUSH2 0x149F DUP2 PUSH2 0x1233 JUMP JUMPDEST DUP3 MSTORE POP POP JUMP JUMPDEST PUSH0 PUSH1 0x20 DUP3 ADD SWAP1 POP PUSH2 0x14B8 PUSH0 DUP4 ADD DUP5 PUSH2 0x1496 JUMP JUMPDEST SWAP3 SWAP2 POP POP JUMP JUMPDEST PUSH0 PUSH1 0x20 DUP3 DUP5 SUB SLT ISZERO PUSH2 0x14D3 JUMPI PUSH2 0x14D2 PUSH2 0x122B JUMP JUMPDEST JUMPDEST PUSH0 PUSH2 0x14E0 DUP5 DUP3 DUP6 ADD PUSH2 0x1252 JUMP JUMPDEST SWAP2 POP POP SWAP3 SWAP2 POP POP JUMP JUMPDEST PUSH0 DUP2 MLOAD SWAP1 POP SWAP2 SWAP1 POP JUMP JUMPDEST PUSH0 DUP3 DUP3 MSTORE PUSH1 0x20 DUP3 ADD SWAP1 POP SWAP3 SWAP2 POP POP JUMP JUMPDEST DUP3 DUP2 DUP4 MCOPY PUSH0 DUP4 DUP4 ADD MSTORE POP POP POP JUMP JUMPDEST PUSH0 PUSH1 0x1F NOT PUSH1 0x1F DUP4 ADD AND SWAP1 POP SWAP2 SWAP1 POP JUMP JUMPDEST PUSH0 PUSH2 0x152B DUP3 PUSH2 0x14E9 JUMP JUMPDEST PUSH2 0x1535 DUP2 DUP6 PUSH2 0x14F3 JUMP JUMPDEST SWAP4 POP PUSH2 0x1545 DUP2 DUP6 PUSH1 0x20 DUP7 ADD PUSH2 0x1503 JUMP JUMPDEST PUSH2 0x154E DUP2 PUSH2 0x1511 JUMP JUMPDEST DUP5 ADD SWAP2 POP POP SWAP3 SWAP2 POP POP JUMP JUMPDEST PUSH2 0x1562 DUP2 PUSH2 0x12C7 JUMP JUMPDEST DUP3 MSTORE POP POP JUMP JUMPDEST PUSH0 DUP2 ISZERO ISZERO SWAP1 POP SWAP2 SWAP1 POP JUMP JUMPDEST PUSH2 0x157C DUP2 PUSH2 0x1568 JUMP JUMPDEST DUP3 MSTORE POP POP JUMP JUMPDEST PUSH0 PUSH1 0xA0 DUP3 ADD SWAP1 POP DUP2 DUP2 SUB PUSH0 DUP4 ADD MSTORE PUSH2 0x159A DUP2 DUP9 PUSH2 0x1521 JUMP JUMPDEST SWAP1 POP DUP2 DUP2 SUB PUSH1 0x20 DUP4 ADD MSTORE PUSH2 0x15AE DUP2 DUP8 PUSH2 0x1521 JUMP JUMPDEST SWAP1 POP PUSH2 0x15BD PUSH1 0x40 DUP4 ADD DUP7 PUSH2 0x1559 JUMP JUMPDEST PUSH2 0x15CA PUSH1 0x60 DUP4 ADD DUP6 PUSH2 0x1559 JUMP JUMPDEST PUSH2 0x15D7 PUSH1 0x80 DUP4 ADD DUP5 PUSH2 0x1573 JUMP JUMPDEST SWAP7 SWAP6 POP POP POP POP POP POP JUMP JUMPDEST PUSH0 PUSH1 0xA0 DUP3 ADD SWAP1 POP PUSH2 0x15F4 PUSH0 DUP4 ADD DUP9 PUSH2 0x1559 JUMP JUMPDEST PUSH2 0x1601 PUSH1 0x20 DUP4 ADD DUP8 PUSH2 0x1559 JUMP JUMPDEST PUSH2 0x160E PUSH1 0x40 DUP4 ADD DUP7 PUSH2 0x1573 JUMP JUMPDEST DUP2 DUP2 SUB PUSH1 0x60 DUP4 ADD MSTORE PUSH2 0x1620 DUP2 DUP6 PUSH2 0x1521 JUMP JUMPDEST SWAP1 POP DUP2 DUP2 SUB PUSH1 0x80 DUP4 ADD MSTORE PUSH2 0x1634 DUP2 DUP5 PUSH2 0x1521 JUMP JUMPDEST SWAP1 POP SWAP7 SWAP6 POP POP POP POP POP POP JUMP JUMPDEST PUSH0 PUSH20 0xFFFFFFFFFFFFFFFFFFFFFFFFFFFFFFFFFFFFFFFF DUP3 AND SWAP1 POP SWAP2 SWAP1 POP JUMP JUMPDEST PUSH0 PUSH2 0x1669 DUP3 PUSH2 0x1640 JUMP JUMPDEST SWAP1 POP SWAP2 SWAP1 POP JUMP JUMPDEST PUSH2 0x1679 DUP2 PUSH2 0x165F JUMP JUMPDEST DUP3 MSTORE POP POP JUMP JUMPDEST PUSH0 PUSH1 0x20 DUP3 ADD SWAP1 POP PUSH2 0x1692 PUSH0 DUP4 ADD DUP5 PUSH2 0x1670 JUMP JUMPDEST SWAP3 SWAP2 POP POP JUMP JUMPDEST PUSH0 PUSH1 0x20 DUP3 ADD SWAP1 POP PUSH2 0x16AB PUSH0 DUP4 ADD DUP5 PUSH2 0x1559 JUMP JUMPDEST SWAP3 SWAP2 POP POP JUMP JUMPDEST PUSH2 0x16BA DUP2 PUSH2 0x165F JUMP JUMPDEST DUP2 EQ PUSH2 0x16C4 JUMPI PUSH0 DUP1 REVERT JUMPDEST POP JUMP JUMPDEST PUSH0 DUP2 CALLDATALOAD SWAP1 POP PUSH2 0x16D5 DUP2 PUSH2 0x16B1 JUMP JUMPDEST SWAP3 SWAP2 POP POP JUMP JUMPDEST PUSH0 PUSH1 0x20 DUP3 DUP5 SUB SLT ISZERO PUSH2 0x16F0 JUMPI PUSH2 0x16EF PUSH2 0x122B JUMP JUMPDEST JUMPDEST PUSH0 PUSH2 0x16FD DUP5 DUP3 DUP6 ADD PUSH2 0x16C7 JUMP JUMPDEST SWAP2 POP POP SWAP3 SWAP2 POP POP JUMP JUMPDEST PUSH0 DUP1 PUSH1 0x40 DUP4 DUP6 SUB SLT ISZERO PUSH2 0x171C JUMPI PUSH2 0x171B PUSH2 0x122B JUMP JUMPDEST JUMPDEST PUSH0 PUSH2 0x1729 DUP6 DUP3 DUP7 ADD PUSH2 0x1252 JUMP JUMPDEST SWAP3 POP POP PUSH1 0x20 PUSH2 0x173A DUP6 DUP3 DUP7 ADD PUSH2 0x12F4 JUMP JUMPDEST SWAP2 POP POP SWAP3 POP SWAP3 SWAP1 POP JUMP JUMPDEST PUSH0 DUP1 DUP4 PUSH1 0x1F DUP5 ADD SLT PUSH2 0x1759 JUMPI PUSH2 0x1758 PUSH2 0x1266 JUMP JUMPDEST JUMPDEST DUP3 CALLDATALOAD SWAP1 POP PUSH8 0xFFFFFFFFFFFFFFFF DUP2 GT ISZERO PUSH2 0x1776 JUMPI PUSH2 0x1775 PUSH2 0x126A JUMP JUMPDEST JUMPDEST PUSH1 0x20 DUP4 ADD SWAP2 POP DUP4 PUSH1 0x20 DUP3 MUL DUP4 ADD GT ISZERO PUSH2 0x1792 JUMPI PUSH2 0x1791 PUSH2 0x126E JUMP JUMPDEST JUMPDEST SWAP3 POP SWAP3 SWAP1 POP JUMP JUMPDEST PUSH0 DUP1 PUSH1 0x20 DUP4 DUP6 SUB SLT ISZERO PUSH2 0x17AF JUMPI PUSH2 0x17AE PUSH2 0x122B JUMP JUMPDEST JUMPDEST PUSH0 DUP4 ADD CALLDATALOAD PUSH8 0xFFFFFFFFFFFFFFFF DUP2 GT ISZERO PUSH2 0x17CC JUMPI PUSH2 0x17CB PUSH2 0x122F JUMP JUMPDEST JUMPDEST PUSH2 0x17D8 DUP6 DUP3 DUP7 ADD PUSH2 0x1744 JUMP JUMPDEST SWAP3 POP SWAP3 POP POP SWAP3 POP SWAP3 SWAP1 POP JUMP JUMPDEST PUSH32 0x426F6F6B20657869737473000000000000000000000000000000000000000000 PUSH0 DUP3 ADD MSTORE POP JUMP JUMPDEST PUSH0 PUSH2 0x1818 PUSH1 0xB DUP4 PUSH2 0x14F3 JUMP JUMPDEST SWAP2 POP PUSH2 0x1823 DUP3 PUSH2 0x17E4 JUMP JUMPDEST PUSH1 0x20 DUP3 ADD SWAP1 POP SWAP2 SWAP1 POP JUMP JUMPDEST PUSH0 PUSH1 0x20 DUP3 ADD SWAP1 POP DUP2 DUP2 SUB PUSH0 DUP4 ADD MSTORE PUSH2 0x1845 DUP2 PUSH2 0x180C JUMP JUMPDEST SWAP1 POP SWAP2 SWAP1 POP JUMP JUMPDEST PUSH32 0x4E487B7100000000000000000000000000000000000000000000000000000000 PUSH0 MSTORE PUSH1 0x41 PUSH1 0x4 MSTORE PUSH1 0x24 PUSH0 REVERT JUMPDEST PUSH32 0x4E487B7100000000000000000000000000000000000000000000000000000000 PUSH0 MSTORE PUSH1 0x22 PUSH1 0x4 MSTORE PUSH1 0x24 PUSH0 REVERT JUMPDEST PUSH0 PUSH1 0x2 DUP3 DIV SWAP1 POP PUSH1 0x1 DUP3 AND DUP1 PUSH2 0x18BD JUMPI PUSH1 0x7F DUP3 AND SWAP2 POP JUMPDEST PUSH1 0x20 DUP3 LT DUP2 SUB PUSH2 0x18D0 JUMPI PUSH2 0x18CF PUSH2 0x1879 JUMP JUMPDEST JUMPDEST POP SWAP2 SWAP1 POP JUMP JUMPDEST PUSH0 DUP2 SWAP1 POP DUP2 PUSH0 MSTORE PUSH1 0x20 PUSH0 KECCAK256 SWAP1 POP SWAP2 SWAP1 POP JUMP JUMPDEST PUSH0 PUSH1 0x20 PUSH1 0x1F DUP4 ADD DIV SWAP1 POP SWAP2 SWAP1 POP JUMP JUMPDEST PUSH0 DUP3 DUP3 SHL SWAP1 POP SWAP3 SWAP2 POP POP JUMP JUMPDEST PUSH0 PUSH1 0x8 DUP4 MUL PUSH2 0x1932 PUSH32 0xFFFFFFFFFFFFFFFFFFFFFFFFFFFFFFFFFFFFFFFFFFFFFFFFFFFFFFFFFFFFFFFF DUP3 PUSH2 0x18F7 JUMP JUMPDEST PUSH2 0x193C DUP7 DUP4 PUSH2 0x18F7 JUMP JUMPDEST SWAP6 POP DUP1 NOT DUP5 AND SWAP4 POP DUP1 DUP7 AND DUP5 OR SWAP3 POP POP POP SWAP4 SWAP3 POP POP POP JUMP JUMPDEST PUSH0 DUP2 SWAP1 POP SWAP2 SWAP1 POP JUMP JUMPDEST PUSH0 PUSH2 0x1977 PUSH2 0x1972 PUSH2 0x196D DUP5 PUSH2 0x1233 JUMP JUMPDEST PUSH2 0x1954 JUMP JUMPDEST PUSH2 0x1233 JUMP JUMPDEST SWAP1 POP SWAP2 SWAP1 POP JUMP JUMPDEST PUSH0 DUP2 SWAP1 POP SWAP2 SWAP1 POP JUMP JUMPDEST PUSH2 0x1990 DUP4 PUSH2 0x195D JUMP JUMPDEST PUSH2 0x19A4 PUSH2 0x199C DUP3 PUSH2 0x197E JUMP JUMPDEST DUP5 DUP5 SLOAD PUSH2 0x1903 JUMP JUMPDEST DUP3 SSTORE POP POP POP POP JUMP JUMPDEST PUSH0 SWAP1 JUMP JUMPDEST PUSH2 0x19B8 PUSH2 0x19AC JUMP JUMPDEST PUSH2 0x19C3 DUP2 DUP5 DUP5 PUSH2 0x1987 JUMP JUMPDEST POP POP POP JUMP JUMPDEST JUMPDEST DUP2 DUP2 LT ISZERO PUSH2 0x19E6 JUMPI PUSH2 0x19DB PUSH0 DUP3 PUSH2 0x19B0 JUMP JUMPDEST PUSH1 0x1 DUP2 ADD SWAP1 POP PUSH2 0x19C9 JUMP JUMPDEST POP POP JUMP JUMPDEST PUSH1 0x1F DUP3 GT ISZERO PUSH2 0x1A2B JUMPI PUSH2 0x19FC DUP2 PUSH2 0x18D6 JUMP JUMPDEST PUSH2 0x1A05 DUP5 PUSH2 0x18E8 JUMP JUMPDEST DUP2 ADD PUSH1 0x20 DUP6 LT ISZERO PUSH2 0x1A14 JUMPI DUP2 SWAP1 POP JUMPDEST PUSH2 0x1A28 PUSH2 0x1A20 DUP6 PUSH2 0x18E8 JUMP JUMPDEST DUP4 ADD DUP3 PUSH2 0x19C8 JUMP JUMPDEST POP POP JUMPDEST POP POP POP JUMP JUMPDEST PUSH0 DUP3 DUP3 SHR SWAP1 POP SWAP3 SWAP2 POP POP JUMP JUMPDEST PUSH0 PUSH2 0x1A4B PUSH0 NOT DUP5 PUSH1 0x8 MUL PUSH2 0x1A30 JUMP JUMPDEST NOT DUP1 DUP4 AND SWAP2 POP POP SWAP3 SWAP2 POP POP JUMP JUMPDEST PUSH0 PUSH2 0x1A63 DUP4 DUP4 PUSH2 0x1A3C JUMP JUMPDEST SWAP2 POP DUP3 PUSH1 0x2 MUL DUP3 OR SWAP1 POP SWAP3 SWAP2 POP POP JUMP JUMPDEST PUSH2 0x1A7C DUP3 PUSH2 0x14E9 JUMP JUMPDEST PUSH8 0xFFFFFFFFFFFFFFFF DUP2 GT ISZERO PUSH2 0x1A95 JUMPI PUSH2 0x1A94 PUSH2 0x184C JUMP JUMPDEST JUMPDEST PUSH2 0x1A9F DUP3 SLOAD PUSH2 0x18A6 JUMP JUMPDEST PUSH2 0x1AAA DUP3 DUP3 DUP6 PUSH2 0x19EA JUMP JUMPDEST PUSH0 PUSH1 0x20 SWAP1 POP PUSH1 0x1F DUP4 GT PUSH1 0x1 DUP2 EQ PUSH2 0x1ADB JUMPI PUSH0 DUP5 ISZERO PUSH2 0x1AC9 JUMPI DUP3 DUP8 ADD MLOAD SWAP1 POP JUMPDEST PUSH2 0x1AD3 DUP6 DUP3 PUSH2 0x1A58 JUMP JUMPDEST DUP7 SSTORE POP PUSH2 0x1B3A JUMP JUMPDEST PUSH1 0x1F NOT DUP5 AND PUSH2 0x1AE9 DUP7 PUSH2 0x18D6 JUMP JUMPDEST PUSH0 JUMPDEST DUP3 DUP2 LT ISZERO PUSH2 0x1B10 JUMPI DUP5 DUP10 ADD MLOAD DUP3 SSTORE PUSH1 0x1 DUP3 ADD SWAP2 POP PUSH1 0x20 DUP6 ADD SWAP5 POP PUSH1 0x20 DUP2 ADD SWAP1 POP PUSH2 0x1AEB JUMP JUMPDEST DUP7 DUP4 LT ISZERO PUSH2 0x1B2D JUMPI DUP5 DUP10 ADD MLOAD PUSH2 0x1B29 PUSH1 0x1F DUP10 AND DUP3 PUSH2 0x1A3C JUMP JUMPDEST DUP4 SSTORE POP JUMPDEST PUSH1 0x1 PUSH1 0x2 DUP9 MUL ADD DUP9 SSTORE POP POP POP JUMPDEST POP POP POP POP POP POP JUMP JUMPDEST DUP3 DUP2 DUP4 CALLDATACOPY PUSH0 DUP4 DUP4 ADD MSTORE POP POP POP JUMP JUMPDEST PUSH0 PUSH2 0x1B5B DUP4 DUP6 PUSH2 0x14F3 JUMP JUMPDEST SWAP4 POP PUSH2 0x1B68 DUP4 DUP6 DUP5 PUSH2 0x1B42 JUMP JUMPDEST PUSH2 0x1B71 DUP4 PUSH2 0x1511 JUMP JUMPDEST DUP5 ADD SWAP1 POP SWAP4 SWAP3 POP POP POP JUMP JUMPDEST PUSH0 PUSH1 0x80 DUP3 ADD SWAP1 POP DUP2 DUP2 SUB PUSH0 DUP4 ADD MSTORE PUSH2 0x1B95 DUP2 DUP9 DUP11 PUSH2 0x1B50 JUMP JUMPDEST SWAP1 POP DUP2 DUP2 SUB PUSH1 0x20 DUP4 ADD MSTORE PUSH2 0x1BAA DUP2 DUP7 DUP9 PUSH2 0x1B50 JUMP JUMPDEST SWAP1 POP PUSH2 0x1BB9 PUSH1 0x40 DUP4 ADD DUP6 PUSH2 0x1559 JUMP JUMPDEST PUSH2 0x1BC6 PUSH1 0x60 DUP4 ADD DUP5 PUSH2 0x1559 JUMP JUMPDEST SWAP8 SWAP7 POP POP POP POP POP POP POP JUMP JUMPDEST PUSH32 0x426F6F6B206E6F74206578697374000000000000000000000000000000000000 PUSH0 DUP3 ADD MSTORE POP JUMP JUMPDEST PUSH0 PUSH2 0x1C05 PUSH1 0xE DUP4 PUSH2 0x14F3 JUMP JUMPDEST SWAP2 POP PUSH2 0x1C10 DUP3 PUSH2 0x1BD1 JUMP JUMPDEST PUSH1 0x20 DUP3 ADD SWAP1 POP SWAP2 SWAP1 POP JUMP JUMPDEST PUSH0 PUSH1 0x20 DUP3 ADD SWAP1 POP DUP2 DUP2 SUB PUSH0 DUP4 ADD MSTORE PUSH2 0x1C32 DUP2 PUSH2 0x1BF9 JUMP JUMPDEST SWAP1 POP SWAP2 SWAP1 POP JUMP JUMPDEST PUSH32 0x4E487B7100000000000000000000000000000000000000000000000000000000 PUSH0 MSTORE PUSH1 0x32 PUSH1 0x4 MSTORE PUSH1 0x24 PUSH0 REVERT JUMPDEST PUSH32 0x4E487B7100000000000000000000000000000000000000000000000000000000 PUSH0 MSTORE PUSH1 0x11 PUSH1 0x4 MSTORE PUSH1 0x24 PUSH0 REVERT JUMPDEST PUSH0 PUSH2 0x1C9D DUP3 PUSH2 0x1233 JUMP JUMPDEST SWAP2 POP PUSH2 0x1CA8 DUP4 PUSH2 0x1233 JUMP JUMPDEST SWAP3 POP DUP3 DUP3 SUB SWAP1 POP DUP2 DUP2 GT ISZERO PUSH2 0x1CC0 JUMPI PUSH2 0x1CBF PUSH2 0x1C66 JUMP JUMPDEST JUMPDEST SWAP3 SWAP2 POP POP JUMP JUMPDEST PUSH32 0x4E487B7100000000000000000000000000000000000000000000000000000000 PUSH0 MSTORE PUSH1 0x31 PUSH1 0x4 MSTORE PUSH1 0x24 PUSH0 REVERT JUMPDEST PUSH32 0x4E6F7420617661696C61626C6500000000000000000000000000000000000000 PUSH0 DUP3 ADD MSTORE POP JUMP JUMPDEST PUSH0 PUSH2 0x1D27 PUSH1 0xD DUP4 PUSH2 0x14F3 JUMP JUMPDEST SWAP2 POP PUSH2 0x1D32 DUP3 PUSH2 0x1CF3 JUMP JUMPDEST PUSH1 0x20 DUP3 ADD SWAP1 POP SWAP2 SWAP1 POP JUMP JUMPDEST PUSH0 PUSH1 0x20 DUP3 ADD SWAP1 POP DUP2 DUP2 SUB PUSH0 DUP4 ADD MSTORE PUSH2 0x1D54 DUP2 PUSH2 0x1D1B JUMP JUMPDEST SWAP1 POP SWAP2 SWAP1 POP JUMP JUMPDEST PUSH32 0x4E6F7420656E6F7567682073746F636B00000000000000000000000000000000 PUSH0 DUP3 ADD MSTORE POP JUMP JUMPDEST PUSH0 PUSH2 0x1D8F PUSH1 0x10 DUP4 PUSH2 0x14F3 JUMP JUMPDEST SWAP2 POP PUSH2 0x1D9A DUP3 PUSH2 0x1D5B JUMP JUMPDEST PUSH1 0x20 DUP3 ADD SWAP1 POP SWAP2 SWAP1 POP JUMP JUMPDEST PUSH0 PUSH1 0x20 DUP3 ADD SWAP1 POP DUP2 DUP2 SUB PUSH0 DUP4 ADD MSTORE PUSH2 0x1DBC DUP2 PUSH2 0x1D83 JUMP JUMPDEST SWAP1 POP SWAP2 SWAP1 POP JUMP JUMPDEST PUSH0 PUSH2 0x1DCD DUP3 PUSH2 0x12C7 JUMP JUMPDEST SWAP2 POP PUSH2 0x1DD8 DUP4 PUSH2 0x12C7 JUMP JUMPDEST SWAP3 POP DUP3 DUP3 MUL PUSH2 0x1DE6 DUP2 PUSH2 0x12C7 JUMP JUMPDEST SWAP2 POP DUP1 DUP3 EQ PUSH2 0x1DF8 JUMPI PUSH2 0x1DF7 PUSH2 0x1C66 JUMP JUMPDEST JUMPDEST POP SWAP3 SWAP2 POP POP JUMP JUMPDEST PUSH32 0x57726F6E67207061796D656E7400000000000000000000000000000000000000 PUSH0 DUP3 ADD MSTORE POP JUMP JUMPDEST PUSH0 PUSH2 0x1E33 PUSH1 0xD DUP4 PUSH2 0x14F3 JUMP JUMPDEST SWAP2 POP PUSH2 0x1E3E DUP3 PUSH2 0x1DFF JUMP JUMPDEST PUSH1 0x20 DUP3 ADD SWAP1 POP SWAP2 SWAP1 POP JUMP JUMPDEST PUSH0 PUSH1 0x20 DUP3 ADD SWAP1 POP DUP2 DUP2 SUB PUSH0 DUP4 ADD MSTORE PUSH2 0x1E60 DUP2 PUSH2 0x1E27 JUMP JUMPDEST SWAP1 POP SWAP2 SWAP1 POP JUMP JUMPDEST PUSH0 DUP1 REVERT JUMPDEST DUP3 DUP2 DUP4 CALLDATACOPY POP POP POP JUMP JUMPDEST PUSH0 PUSH2 0x1E7F DUP4 DUP6 PUSH2 0x13C9 JUMP JUMPDEST SWAP4 POP PUSH32 0x7FFFFFFFFFFFFFFFFFFFFFFFFFFFFFFFFFFFFFFFFFFFFFFFFFFFFFFFFFFFFFF DUP4 GT ISZERO PUSH2 0x1EB2 JUMPI PUSH2 0x1EB1 PUSH2 0x1E67 JUMP JUMPDEST JUMPDEST PUSH1 0x20 DUP4 MUL SWAP3 POP PUSH2 0x1EC3 DUP4 DUP6 DUP5 PUSH2 0x1E6B JUMP JUMPDEST DUP3 DUP5 ADD SWAP1 POP SWAP4 SWAP3 POP POP POP JUMP JUMPDEST PUSH0 PUSH1 0x20 DUP3 ADD SWAP1 POP DUP2 DUP2 SUB PUSH0 DUP4 ADD MSTORE PUSH2 0x1EE8 DUP2 DUP5 DUP7 PUSH2 0x1E74 JUMP JUMPDEST SWAP1 POP SWAP4 SWAP3 POP POP POP JUMP INVALID LOG2 PUSH5 0x6970667358 0x22 SLT KECCAK256 STATICCALL PUSH4 0xFD34EC4E 0xC7 DUP10 0x2D 0xEB SWAP13 0x4C 0x4F 0xA5 0xE1 0xC0 DUP6 PUSH4 0x6E8BDAA4 0xB5 ADDRESS SDIV 0xD5 PUSH19 0xAC5FCB446D64736F6C634300081A0033000000 "
				},
				"gasEstimates": {
					"creation": {
						"codeDepositCost": "1595000",
						"executionCost": "infinite",
						"totalCost": "infinite"
					},
					"external": {
						"addBook(uint256,string,string,uint96,uint96)": "infinite",
						"books(uint256)": "infinite",
						"buyBook(uint256,uint96)": "infinite",
						"getAllBooks()": "infinite",
						"getBooks(uint256)": "infinite",
						"getOwnerBalance()": "5152",
						"getTotalBooksSold()": "2546",
						"owner()": "2515",
						"removeBook(uint256)": "infinite",
						"removeBooks(uint256[])": "infinite",
						"renounceOwnership()": "infinite",
						"transferOwnership(address)": "infinite"
					}
				},
				"methodIdentifiers": {
					"addBook(uint256,string,string,uint96,uint96)": "21e6de9d",
					"books(uint256)": "68744046",
					"buyBook(uint256,uint96)": "f46de7d4",
					"getAllBooks()": "354528e8",
					"getBooks(uint256)": "5ac3e19e",
					"getOwnerBalance()": "590791f2",
					"getTotalBooksSold()": "9bd30883",
					"owner()": "8da5cb5b",
					"removeBook(uint256)": "bec0d799",
					"removeBooks(uint256[])": "f98520de",
					"renounceOwnership()": "715018a6",
					"transferOwnership(address)": "f2fde38b"
				}
			},
			"storageLayout": {
				"storage": [
					{
						"astId": 8,
						"contract": "contracts/BookStore.sol:BookStore",
						"label": "_owner",
						"offset": 0,
						"slot": "0",
						"type": "t_address"
					},
					{
						"astId": 195,
						"contract": "contracts/BookStore.sol:BookStore",
						"label": "totalBooksSold",
						"offset": 20,
						"slot": "0",
						"type": "t_uint96"
					},
					{
						"astId": 200,
						"contract": "contracts/BookStore.sol:BookStore",
						"label": "books",
						"offset": 0,
						"slot": "1",
						"type": "t_mapping(t_uint256,t_struct(Book)193_storage)"
					},
					{
						"astId": 203,
						"contract": "contracts/BookStore.sol:BookStore",
						"label": "bookIds",
						"offset": 0,
						"slot": "2",
						"type": "t_array(t_uint256)dyn_storage"
					}
				],
				"types": {
					"t_address": {
						"encoding": "inplace",
						"label": "address",
						"numberOfBytes": "20"
					},
					"t_array(t_uint256)dyn_storage": {
						"base": "t_uint256",
						"encoding": "dynamic_array",
						"label": "uint256[]",
						"numberOfBytes": "32"
					},
					"t_bool": {
						"encoding": "inplace",
						"label": "bool",
						"numberOfBytes": "1"
					},
					"t_mapping(t_uint256,t_struct(Book)193_storage)": {
						"encoding": "mapping",
						"key": "t_uint256",
						"label": "mapping(uint256 => struct BookStore.Book)",
						"numberOfBytes": "32",
						"value": "t_struct(Book)193_storage"
					},
					"t_string_storage": {
						"encoding": "bytes",
						"label": "string",
						"numberOfBytes": "32"
					},
					"t_struct(Book)193_storage": {
						"encoding": "inplace",
						"label": "struct BookStore.Book",
						"members": [
							{
								"astId": 184,
								"contract": "contracts/BookStore.sol:BookStore",
								"label": "stock",
								"offset": 0,
								"slot": "0",
								"type": "t_uint96"
							},
							{
								"astId": 186,
								"contract": "contracts/BookStore.sol:BookStore",
								"label": "price",
								"offset": 12,
								"slot": "0",
								"type": "t_uint96"
							},
							{
								"astId": 188,
								"contract": "contracts/BookStore.sol:BookStore",
								"label": "isAvailable",
								"offset": 24,
								"slot": "0",
								"type": "t_bool"
							},
							{
								"astId": 190,
								"contract": "contracts/BookStore.sol:BookStore",
								"label": "title",
								"offset": 0,
								"slot": "1",
								"type": "t_string_storage"
							},
							{
								"astId": 192,
								"contract": "contracts/BookStore.sol:BookStore",
								"label": "author",
								"offset": 0,
								"slot": "2",
								"type": "t_string_storage"
							}
						],
						"numberOfBytes": "96"
					},
					"t_uint256": {
						"encoding": "inplace",
						"label": "uint256",
						"numberOfBytes": "32"
					},
					"t_uint96": {
						"encoding": "inplace",
						"label": "uint96",
						"numberOfBytes": "12"
					}
				}
			},
			"userdoc": {
				"kind": "user",
				"methods": {},
				"version": 1
			}
		}
	}
}