{
	"data": {
		"bytecode": {
			"linkReferences": {},
			"object": "608060405234801561000f575f80fd5b5060405161215a38038061215a833981810160405281019061003191906100d4565b335f806101000a81548173ffffffffffffffffffffffffffffffffffffffff021916908373ffffffffffffffffffffffffffffffffffffffff160217905550506100ff565b5f80fd5b5f73ffffffffffffffffffffffffffffffffffffffff82169050919050565b5f6100a38261007a565b9050919050565b6100b381610099565b81146100bd575f80fd5b50565b5f815190506100ce816100aa565b92915050565b5f602082840312156100e9576100e8610076565b5b5f6100f6848285016100c0565b91505092915050565b61204e8061010c5f395ff3fe6080604052600436106100dc575f3560e01c80638da5cb5b1161007e578063d028908511610058578063d0289085146102d0578063f346e2b7146102f8578063f60560de14610314578063f98520de14610350576100dc565b80638da5cb5b146102545780639bd308831461027e578063bec0d799146102a8576100dc565b8063513073b8116100ba578063513073b81461016e578063590791f2146101aa5780635ac3e19e146101d45780636874404614610214576100dc565b80631f9b7ad8146100e0578063354528e81461011c5780633bf561ed14610146575b5f80fd5b3480156100eb575f80fd5b50610106600480360381019061010191906111f6565b610378565b604051610113919061123b565b60405180910390f35b348015610127575f80fd5b50610130610395565b60405161013d919061130b565b60405180910390f35b348015610151575f80fd5b5061016c600480360381019061016791906111f6565b6103eb565b005b348015610179575f80fd5b50610194600480360381019061018f91906111f6565b610538565b6040516101a1919061133a565b60405180910390f35b3480156101b5575f80fd5b506101be610558565b6040516101cb919061133a565b60405180910390f35b3480156101df575f80fd5b506101fa60048036038101906101f591906111f6565b610596565b60405161020b9594939291906113c3565b60405180910390f35b34801561021f575f80fd5b5061023a600480360381019061023591906111f6565b610750565b60405161024b95949392919061143e565b60405180910390f35b34801561025f575f80fd5b506102686108a7565b60405161027591906114dc565b60405180910390f35b348015610289575f80fd5b506102926108ca565b60405161029f919061133a565b60405180910390f35b3480156102b3575f80fd5b506102ce60048036038101906102c991906111f6565b6108d3565b005b3480156102db575f80fd5b506102f660048036038101906102f1919061164b565b610b0e565b005b610312600480360381019061030d91906116fa565b610c98565b005b34801561031f575f80fd5b5061033a600480360381019061033591906111f6565b610eb7565b604051610347919061123b565b60405180910390f35b34801561035b575f80fd5b506103766004803603810190610371919061180e565b610edd565b005b6004602052805f5260405f205f915054906101000a900460ff1681565b606060038054806020026020016040519081016040528092919081815260200182805480156103e157602002820191905f5260205f20905b8154815260200190600101908083116103cd575b5050505050905090565b5f8054906101000a900473ffffffffffffffffffffffffffffffffffffffff1673ffffffffffffffffffffffffffffffffffffffff163373ffffffffffffffffffffffffffffffffffffffff1614610478576040517f08c379a000000000000000000000000000000000000000000000000000000000815260040161046f906118c5565b60405180910390fd5b5f60025f8381526020019081526020015f206002015f9054906101000a900461ffff1661ffff16036104df576040517f08c379a00000000000000000000000000000000000000000000000000000000081526004016104d69061192d565b60405180910390fd5b600160045f8381526020019081526020015f205f6101000a81548160ff021916908315150217905550807f086751756703c53d5d7e44bd54604b7d71c6cce159f4525b5f5b6ef93e6afa4d60405160405180910390a250565b60038181548110610547575f80fd5b905f5260205f20015f915090505481565b5f805f9054906101000a900473ffffffffffffffffffffffffffffffffffffffff1673ffffffffffffffffffffffffffffffffffffffff1631905090565b6060805f805f8060025f8881526020019081526020015f206040518060a00160405290815f820180546105c890611978565b80601f01602080910402602001604051908101604052809291908181526020018280546105f490611978565b801561063f5780601f106106165761010080835404028352916020019161063f565b820191905f5260205f20905b81548152906001019060200180831161062257829003601f168201915b5050505050815260200160018201805461065890611978565b80601f016020809104026020016040519081016040528092919081815260200182805461068490611978565b80156106cf5780601f106106a6576101008083540402835291602001916106cf565b820191905f5260205f20905b8154815290600101906020018083116106b257829003601f168201915b50505050508152602001600282015f9054906101000a900461ffff1661ffff1661ffff16815260200160038201548152602001600482015f9054906101000a900460ff1615151515815250509050805f015181602001518260400151836060015184608001518261ffff169250955095509550955095505091939590929450565b6002602052805f5260405f205f91509050805f01805461076f90611978565b80601f016020809104026020016040519081016040528092919081815260200182805461079b90611978565b80156107e65780601f106107bd576101008083540402835291602001916107e6565b820191905f5260205f20905b8154815290600101906020018083116107c957829003601f168201915b5050505050908060010180546107fb90611978565b80601f016020809104026020016040519081016040528092919081815260200182805461082790611978565b80156108725780601f1061084957610100808354040283529160200191610872565b820191905f5260205f20905b81548152906001019060200180831161085557829003601f168201915b505050505090806002015f9054906101000a900461ffff1690806003015490806004015f9054906101000a900460ff16905085565b5f8054906101000a900473ffffffffffffffffffffffffffffffffffffffff1681565b5f600154905090565b5f8054906101000a900473ffffffffffffffffffffffffffffffffffffffff1673ffffffffffffffffffffffffffffffffffffffff163373ffffffffffffffffffffffffffffffffffffffff1614610960576040517f08c379a0000000000000000000000000000000000000000000000000000000008152600401610957906118c5565b60405180910390fd5b5f60025f8381526020019081526020015f206002015f9054906101000a900461ffff1661ffff16036109c7576040517f08c379a00000000000000000000000000000000000000000000000000000000081526004016109be906119f2565b60405180910390fd5b60025f8281526020019081526020015f205f8082015f6109e7919061115a565b600182015f6109f6919061115a565b600282015f6101000a81549061ffff0219169055600382015f9055600482015f6101000a81549060ff021916905550505f5b600380549050811015610add578160038281548110610a4a57610a49611a10565b5b905f5260205f20015403610ad05760036001600380549050610a6c9190611a6a565b81548110610a7d57610a7c611a10565b5b905f5260205f20015460038281548110610a9a57610a99611a10565b5b905f5260205f2001819055506003805480610ab857610ab7611a9d565b5b600190038181905f5260205f20015f90559055610add565b8080600101915050610a28565b50807f3c5ce13264433bcf97e5d53c97af4fc33800e8c9dd927f965b116d0018d7cddf60405160405180910390a250565b5f60025f8781526020019081526020015f206002015f9054906101000a900461ffff1661ffff1614610b75576040517f08c379a0000000000000000000000000000000000000000000000000000000008152600401610b6c90611b3a565b60405180910390fd5b6040518060a001604052808581526020018481526020018261ffff1681526020018381526020015f8411151581525060025f8781526020019081526020015f205f820151815f019081610bc89190611cf5565b506020820151816001019081610bde9190611cf5565b506040820151816002015f6101000a81548161ffff021916908361ffff160217905550606082015181600301556080820151816004015f6101000a81548160ff021916908315150217905550905050600385908060018154018082558091505060019003905f5260205f20015f9091909190915055847f722c04650224f771c04ec5712c74689980b3ddb4eaa233cd8f9c72d7da7fbe2985858585604051610c899493929190611df4565b60405180910390a25050505050565b5f60025f8581526020019081526020015f209050806004015f9054906101000a900460ff16610cfc576040517f08c379a0000000000000000000000000000000000000000000000000000000008152600401610cf390611e8f565b60405180910390fd5b8281600301541015610d43576040517f08c379a0000000000000000000000000000000000000000000000000000000008152600401610d3a90611ef7565b60405180910390fd5b82816002015f9054906101000a900461ffff1661ffff16610d649190611f15565b8214610da5576040517f08c379a0000000000000000000000000000000000000000000000000000000008152600401610d9c90611fa0565b60405180910390fd5b82816003015f828254610db89190611a6a565b925050819055505f816003015403610de6575f816004015f6101000a81548160ff0219169083151502179055505b8260015f828254610df79190611fbe565b925050819055505f8054906101000a900473ffffffffffffffffffffffffffffffffffffffff1673ffffffffffffffffffffffffffffffffffffffff166108fc3490811502906040515f60405180830381858888f19350505050158015610e60573d5f803e3d5ffd5b503373ffffffffffffffffffffffffffffffffffffffff167f439c08b00222293c6073f3ee383214541a4a21aca7dbb0a45963f86fa8e589f78585604051610ea9929190611ff1565b60405180910390a250505050565b5f60045f8381526020019081526020015f205f9054906101000a900460ff169050919050565b5f8054906101000a900473ffffffffffffffffffffffffffffffffffffffff1673ffffffffffffffffffffffffffffffffffffffff163373ffffffffffffffffffffffffffffffffffffffff1614610f6a576040517f08c379a0000000000000000000000000000000000000000000000000000000008152600401610f61906118c5565b60405180910390fd5b5f5b815181101561111f575f828281518110610f8957610f88611a10565b5b602002602001015190505f60025f8381526020019081526020015f206002015f9054906101000a900461ffff1661ffff1603610ffa576040517f08c379a0000000000000000000000000000000000000000000000000000000008152600401610ff1906119f2565b60405180910390fd5b60025f8281526020019081526020015f205f8082015f61101a919061115a565b600182015f611029919061115a565b600282015f6101000a81549061ffff0219169055600382015f9055600482015f6101000a81549060ff021916905550505f5b60038054905081101561111057816003828154811061107d5761107c611a10565b5b905f5260205f20015403611103576003600160038054905061109f9190611a6a565b815481106110b0576110af611a10565b5b905f5260205f200154600382815481106110cd576110cc611a10565b5b905f5260205f20018190555060038054806110eb576110ea611a9d565b5b600190038181905f5260205f20015f90559055611110565b808060010191505061105b565b50508080600101915050610f6c565b507f7262be1e48c30c363173fcb2fbf2dc2cb38d076dee42cc37cdfbdf62af5c3bed8160405161114f919061130b565b60405180910390a150565b50805461116690611978565b5f825580601f106111775750611194565b601f0160209004905f5260205f20908101906111939190611197565b5b50565b5b808211156111ae575f815f905550600101611198565b5090565b5f604051905090565b5f80fd5b5f80fd5b5f819050919050565b6111d5816111c3565b81146111df575f80fd5b50565b5f813590506111f0816111cc565b92915050565b5f6020828403121561120b5761120a6111bb565b5b5f611218848285016111e2565b91505092915050565b5f8115159050919050565b61123581611221565b82525050565b5f60208201905061124e5f83018461122c565b92915050565b5f81519050919050565b5f82825260208201905092915050565b5f819050602082019050919050565b611286816111c3565b82525050565b5f611297838361127d565b60208301905092915050565b5f602082019050919050565b5f6112b982611254565b6112c3818561125e565b93506112ce8361126e565b805f5b838110156112fe5781516112e5888261128c565b97506112f0836112a3565b9250506001810190506112d1565b5085935050505092915050565b5f6020820190508181035f83015261132381846112af565b905092915050565b611334816111c3565b82525050565b5f60208201905061134d5f83018461132b565b92915050565b5f81519050919050565b5f82825260208201905092915050565b8281835e5f83830152505050565b5f601f19601f8301169050919050565b5f61139582611353565b61139f818561135d565b93506113af81856020860161136d565b6113b88161137b565b840191505092915050565b5f60a0820190508181035f8301526113db818861138b565b905081810360208301526113ef818761138b565b90506113fe604083018661132b565b61140b606083018561132b565b611418608083018461122c565b9695505050505050565b5f61ffff82169050919050565b61143881611422565b82525050565b5f60a0820190508181035f830152611456818861138b565b9050818103602083015261146a818761138b565b9050611479604083018661142f565b611486606083018561132b565b611493608083018461122c565b9695505050505050565b5f73ffffffffffffffffffffffffffffffffffffffff82169050919050565b5f6114c68261149d565b9050919050565b6114d6816114bc565b82525050565b5f6020820190506114ef5f8301846114cd565b92915050565b5f80fd5b5f80fd5b7f4e487b71000000000000000000000000000000000000000000000000000000005f52604160045260245ffd5b6115338261137b565b810181811067ffffffffffffffff82111715611552576115516114fd565b5b80604052505050565b5f6115646111b2565b9050611570828261152a565b919050565b5f67ffffffffffffffff82111561158f5761158e6114fd565b5b6115988261137b565b9050602081019050919050565b828183375f83830152505050565b5f6115c56115c084611575565b61155b565b9050828152602081018484840111156115e1576115e06114f9565b5b6115ec8482856115a5565b509392505050565b5f82601f830112611608576116076114f5565b5b81356116188482602086016115b3565b91505092915050565b61162a81611422565b8114611634575f80fd5b50565b5f8135905061164581611621565b92915050565b5f805f805f60a08688031215611664576116636111bb565b5b5f611671888289016111e2565b955050602086013567ffffffffffffffff811115611692576116916111bf565b5b61169e888289016115f4565b945050604086013567ffffffffffffffff8111156116bf576116be6111bf565b5b6116cb888289016115f4565b93505060606116dc888289016111e2565b92505060806116ed88828901611637565b9150509295509295909350565b5f805f60608486031215611711576117106111bb565b5b5f61171e868287016111e2565b935050602061172f868287016111e2565b9250506040611740868287016111e2565b9150509250925092565b5f67ffffffffffffffff821115611764576117636114fd565b5b602082029050602081019050919050565b5f80fd5b5f61178b6117868461174a565b61155b565b905080838252602082019050602084028301858111156117ae576117ad611775565b5b835b818110156117d757806117c388826111e2565b8452602084019350506020810190506117b0565b5050509392505050565b5f82601f8301126117f5576117f46114f5565b5b8135611805848260208601611779565b91505092915050565b5f60208284031215611823576118226111bb565b5b5f82013567ffffffffffffffff8111156118405761183f6111bf565b5b61184c848285016117e1565b91505092915050565b7f4f6e6c79206f776e65722063616e20706572666f726d207468697320616374695f8201527f6f6e000000000000000000000000000000000000000000000000000000000000602082015250565b5f6118af60228361135d565b91506118ba82611855565b604082019050919050565b5f6020820190508181035f8301526118dc816118a3565b9050919050565b7f5468697320426f6f6b20446f6573204e6f7420457869737421000000000000005f82015250565b5f61191760198361135d565b9150611922826118e3565b602082019050919050565b5f6020820190508181035f8301526119448161190b565b9050919050565b7f4e487b71000000000000000000000000000000000000000000000000000000005f52602260045260245ffd5b5f600282049050600182168061198f57607f821691505b6020821081036119a2576119a161194b565b5b50919050565b7f426f6f6b20646f6573206e6f74206578697374000000000000000000000000005f82015250565b5f6119dc60138361135d565b91506119e7826119a8565b602082019050919050565b5f6020820190508181035f830152611a09816119d0565b9050919050565b7f4e487b71000000000000000000000000000000000000000000000000000000005f52603260045260245ffd5b7f4e487b71000000000000000000000000000000000000000000000000000000005f52601160045260245ffd5b5f611a74826111c3565b9150611a7f836111c3565b9250828203905081811115611a9757611a96611a3d565b5b92915050565b7f4e487b71000000000000000000000000000000000000000000000000000000005f52603160045260245ffd5b7f43414e4e4f542041444420424f4f4b20495420414c52454144592045584953545f8201527f5300000000000000000000000000000000000000000000000000000000000000602082015250565b5f611b2460218361135d565b9150611b2f82611aca565b604082019050919050565b5f6020820190508181035f830152611b5181611b18565b9050919050565b5f819050815f5260205f209050919050565b5f6020601f8301049050919050565b5f82821b905092915050565b5f60088302611bb47fffffffffffffffffffffffffffffffffffffffffffffffffffffffffffffffff82611b79565b611bbe8683611b79565b95508019841693508086168417925050509392505050565b5f819050919050565b5f611bf9611bf4611bef846111c3565b611bd6565b6111c3565b9050919050565b5f819050919050565b611c1283611bdf565b611c26611c1e82611c00565b848454611b85565b825550505050565b5f90565b611c3a611c2e565b611c45818484611c09565b505050565b5b81811015611c6857611c5d5f82611c32565b600181019050611c4b565b5050565b601f821115611cad57611c7e81611b58565b611c8784611b6a565b81016020851015611c96578190505b611caa611ca285611b6a565b830182611c4a565b50505b505050565b5f82821c905092915050565b5f611ccd5f1984600802611cb2565b1980831691505092915050565b5f611ce58383611cbe565b9150826002028217905092915050565b611cfe82611353565b67ffffffffffffffff811115611d1757611d166114fd565b5b611d218254611978565b611d2c828285611c6c565b5f60209050601f831160018114611d5d575f8415611d4b578287015190505b611d558582611cda565b865550611dbc565b601f198416611d6b86611b58565b5f5b82811015611d9257848901518255600182019150602085019450602081019050611d6d565b86831015611daf5784890151611dab601f891682611cbe565b8355505b6001600288020188555050505b505050505050565b5f611dde611dd9611dd484611422565b611bd6565b6111c3565b9050919050565b611dee81611dc4565b82525050565b5f6080820190508181035f830152611e0c818761138b565b90508181036020830152611e20818661138b565b9050611e2f604083018561132b565b611e3c6060830184611de5565b95945050505050565b7f5468697320626f6f6b206973206e6f7420617661696c61626c650000000000005f82015250565b5f611e79601a8361135d565b9150611e8482611e45565b602082019050919050565b5f6020820190508181035f830152611ea681611e6d565b9050919050565b7f4e6f7420656e6f7567682073746f636b20617661696c61626c650000000000005f82015250565b5f611ee1601a8361135d565b9150611eec82611ead565b602082019050919050565b5f6020820190508181035f830152611f0e81611ed5565b9050919050565b5f611f1f826111c3565b9150611f2a836111c3565b9250828202611f38816111c3565b91508282048414831517611f4f57611f4e611a3d565b5b5092915050565b7f496e636f7272656374207061796d656e7420616d6f756e7400000000000000005f82015250565b5f611f8a60188361135d565b9150611f9582611f56565b602082019050919050565b5f6020820190508181035f830152611fb781611f7e565b9050919050565b5f611fc8826111c3565b9150611fd3836111c3565b9250828201905080821115611feb57611fea611a3d565b5b92915050565b5f6040820190506120045f83018561132b565b612011602083018461132b565b939250505056fea26469706673582212209d93e9c43b297e15075b396d5eedf9c3120d69b7a2c0f66449080bca0494b5d764736f6c634300081a0033",
			"opcodes": "PUSH1 0x80 PUSH1 0x40 MSTORE CALLVALUE DUP1 ISZERO PUSH2 0xF JUMPI PUSH0 DUP1 REVERT JUMPDEST POP PUSH1 0x40 MLOAD PUSH2 0x215A CODESIZE SUB DUP1 PUSH2 0x215A DUP4 CODECOPY DUP2 DUP2 ADD PUSH1 0x40 MSTORE DUP2 ADD SWAP1 PUSH2 0x31 SWAP2 SWAP1 PUSH2 0xD4 JUMP JUMPDEST CALLER PUSH0 DUP1 PUSH2 0x100 EXP DUP2 SLOAD DUP2 PUSH20 0xFFFFFFFFFFFFFFFFFFFFFFFFFFFFFFFFFFFFFFFF MUL NOT AND SWAP1 DUP4 PUSH20 0xFFFFFFFFFFFFFFFFFFFFFFFFFFFFFFFFFFFFFFFF AND MUL OR SWAP1 SSTORE POP POP PUSH2 0xFF JUMP JUMPDEST PUSH0 DUP1 REVERT JUMPDEST PUSH0 PUSH20 0xFFFFFFFFFFFFFFFFFFFFFFFFFFFFFFFFFFFFFFFF DUP3 AND SWAP1 POP SWAP2 SWAP1 POP JUMP JUMPDEST PUSH0 PUSH2 0xA3 DUP3 PUSH2 0x7A JUMP JUMPDEST SWAP1 POP SWAP2 SWAP1 POP JUMP JUMPDEST PUSH2 0xB3 DUP2 PUSH2 0x99 JUMP JUMPDEST DUP2 EQ PUSH2 0xBD JUMPI PUSH0 DUP1 REVERT JUMPDEST POP JUMP JUMPDEST PUSH0 DUP2 MLOAD SWAP1 POP PUSH2 0xCE DUP2 PUSH2 0xAA JUMP JUMPDEST SWAP3 SWAP2 POP POP JUMP JUMPDEST PUSH0 PUSH1 0x20 DUP3 DUP5 SUB SLT ISZERO PUSH2 0xE9 JUMPI PUSH2 0xE8 PUSH2 0x76 JUMP JUMPDEST JUMPDEST PUSH0 PUSH2 0xF6 DUP5 DUP3 DUP6 ADD PUSH2 0xC0 JUMP JUMPDEST SWAP2 POP POP SWAP3 SWAP2 POP POP JUMP JUMPDEST PUSH2 0x204E DUP1 PUSH2 0x10C PUSH0 CODECOPY PUSH0 RETURN INVALID PUSH1 0x80 PUSH1 0x40 MSTORE PUSH1 0x4 CALLDATASIZE LT PUSH2 0xDC JUMPI PUSH0 CALLDATALOAD PUSH1 0xE0 SHR DUP1 PUSH4 0x8DA5CB5B GT PUSH2 0x7E JUMPI DUP1 PUSH4 0xD0289085 GT PUSH2 0x58 JUMPI DUP1 PUSH4 0xD0289085 EQ PUSH2 0x2D0 JUMPI DUP1 PUSH4 0xF346E2B7 EQ PUSH2 0x2F8 JUMPI DUP1 PUSH4 0xF60560DE EQ PUSH2 0x314 JUMPI DUP1 PUSH4 0xF98520DE EQ PUSH2 0x350 JUMPI PUSH2 0xDC JUMP JUMPDEST DUP1 PUSH4 0x8DA5CB5B EQ PUSH2 0x254 JUMPI DUP1 PUSH4 0x9BD30883 EQ PUSH2 0x27E JUMPI DUP1 PUSH4 0xBEC0D799 EQ PUSH2 0x2A8 JUMPI PUSH2 0xDC JUMP JUMPDEST DUP1 PUSH4 0x513073B8 GT PUSH2 0xBA JUMPI DUP1 PUSH4 0x513073B8 EQ PUSH2 0x16E JUMPI DUP1 PUSH4 0x590791F2 EQ PUSH2 0x1AA JUMPI DUP1 PUSH4 0x5AC3E19E EQ PUSH2 0x1D4 JUMPI DUP1 PUSH4 0x68744046 EQ PUSH2 0x214 JUMPI PUSH2 0xDC JUMP JUMPDEST DUP1 PUSH4 0x1F9B7AD8 EQ PUSH2 0xE0 JUMPI DUP1 PUSH4 0x354528E8 EQ PUSH2 0x11C JUMPI DUP1 PUSH4 0x3BF561ED EQ PUSH2 0x146 JUMPI JUMPDEST PUSH0 DUP1 REVERT JUMPDEST CALLVALUE DUP1 ISZERO PUSH2 0xEB JUMPI PUSH0 DUP1 REVERT JUMPDEST POP PUSH2 0x106 PUSH1 0x4 DUP1 CALLDATASIZE SUB DUP2 ADD SWAP1 PUSH2 0x101 SWAP2 SWAP1 PUSH2 0x11F6 JUMP JUMPDEST PUSH2 0x378 JUMP JUMPDEST PUSH1 0x40 MLOAD PUSH2 0x113 SWAP2 SWAP1 PUSH2 0x123B JUMP JUMPDEST PUSH1 0x40 MLOAD DUP1 SWAP2 SUB SWAP1 RETURN JUMPDEST CALLVALUE DUP1 ISZERO PUSH2 0x127 JUMPI PUSH0 DUP1 REVERT JUMPDEST POP PUSH2 0x130 PUSH2 0x395 JUMP JUMPDEST PUSH1 0x40 MLOAD PUSH2 0x13D SWAP2 SWAP1 PUSH2 0x130B JUMP JUMPDEST PUSH1 0x40 MLOAD DUP1 SWAP2 SUB SWAP1 RETURN JUMPDEST CALLVALUE DUP1 ISZERO PUSH2 0x151 JUMPI PUSH0 DUP1 REVERT JUMPDEST POP PUSH2 0x16C PUSH1 0x4 DUP1 CALLDATASIZE SUB DUP2 ADD SWAP1 PUSH2 0x167 SWAP2 SWAP1 PUSH2 0x11F6 JUMP JUMPDEST PUSH2 0x3EB JUMP JUMPDEST STOP JUMPDEST CALLVALUE DUP1 ISZERO PUSH2 0x179 JUMPI PUSH0 DUP1 REVERT JUMPDEST POP PUSH2 0x194 PUSH1 0x4 DUP1 CALLDATASIZE SUB DUP2 ADD SWAP1 PUSH2 0x18F SWAP2 SWAP1 PUSH2 0x11F6 JUMP JUMPDEST PUSH2 0x538 JUMP JUMPDEST PUSH1 0x40 MLOAD PUSH2 0x1A1 SWAP2 SWAP1 PUSH2 0x133A JUMP JUMPDEST PUSH1 0x40 MLOAD DUP1 SWAP2 SUB SWAP1 RETURN JUMPDEST CALLVALUE DUP1 ISZERO PUSH2 0x1B5 JUMPI PUSH0 DUP1 REVERT JUMPDEST POP PUSH2 0x1BE PUSH2 0x558 JUMP JUMPDEST PUSH1 0x40 MLOAD PUSH2 0x1CB SWAP2 SWAP1 PUSH2 0x133A JUMP JUMPDEST PUSH1 0x40 MLOAD DUP1 SWAP2 SUB SWAP1 RETURN JUMPDEST CALLVALUE DUP1 ISZERO PUSH2 0x1DF JUMPI PUSH0 DUP1 REVERT JUMPDEST POP PUSH2 0x1FA PUSH1 0x4 DUP1 CALLDATASIZE SUB DUP2 ADD SWAP1 PUSH2 0x1F5 SWAP2 SWAP1 PUSH2 0x11F6 JUMP JUMPDEST PUSH2 0x596 JUMP JUMPDEST PUSH1 0x40 MLOAD PUSH2 0x20B SWAP6 SWAP5 SWAP4 SWAP3 SWAP2 SWAP1 PUSH2 0x13C3 JUMP JUMPDEST PUSH1 0x40 MLOAD DUP1 SWAP2 SUB SWAP1 RETURN JUMPDEST CALLVALUE DUP1 ISZERO PUSH2 0x21F JUMPI PUSH0 DUP1 REVERT JUMPDEST POP PUSH2 0x23A PUSH1 0x4 DUP1 CALLDATASIZE SUB DUP2 ADD SWAP1 PUSH2 0x235 SWAP2 SWAP1 PUSH2 0x11F6 JUMP JUMPDEST PUSH2 0x750 JUMP JUMPDEST PUSH1 0x40 MLOAD PUSH2 0x24B SWAP6 SWAP5 SWAP4 SWAP3 SWAP2 SWAP1 PUSH2 0x143E JUMP JUMPDEST PUSH1 0x40 MLOAD DUP1 SWAP2 SUB SWAP1 RETURN JUMPDEST CALLVALUE DUP1 ISZERO PUSH2 0x25F JUMPI PUSH0 DUP1 REVERT JUMPDEST POP PUSH2 0x268 PUSH2 0x8A7 JUMP JUMPDEST PUSH1 0x40 MLOAD PUSH2 0x275 SWAP2 SWAP1 PUSH2 0x14DC JUMP JUMPDEST PUSH1 0x40 MLOAD DUP1 SWAP2 SUB SWAP1 RETURN JUMPDEST CALLVALUE DUP1 ISZERO PUSH2 0x289 JUMPI PUSH0 DUP1 REVERT JUMPDEST POP PUSH2 0x292 PUSH2 0x8CA JUMP JUMPDEST PUSH1 0x40 MLOAD PUSH2 0x29F SWAP2 SWAP1 PUSH2 0x133A JUMP JUMPDEST PUSH1 0x40 MLOAD DUP1 SWAP2 SUB SWAP1 RETURN JUMPDEST CALLVALUE DUP1 ISZERO PUSH2 0x2B3 JUMPI PUSH0 DUP1 REVERT JUMPDEST POP PUSH2 0x2CE PUSH1 0x4 DUP1 CALLDATASIZE SUB DUP2 ADD SWAP1 PUSH2 0x2C9 SWAP2 SWAP1 PUSH2 0x11F6 JUMP JUMPDEST PUSH2 0x8D3 JUMP JUMPDEST STOP JUMPDEST CALLVALUE DUP1 ISZERO PUSH2 0x2DB JUMPI PUSH0 DUP1 REVERT JUMPDEST POP PUSH2 0x2F6 PUSH1 0x4 DUP1 CALLDATASIZE SUB DUP2 ADD SWAP1 PUSH2 0x2F1 SWAP2 SWAP1 PUSH2 0x164B JUMP JUMPDEST PUSH2 0xB0E JUMP JUMPDEST STOP JUMPDEST PUSH2 0x312 PUSH1 0x4 DUP1 CALLDATASIZE SUB DUP2 ADD SWAP1 PUSH2 0x30D SWAP2 SWAP1 PUSH2 0x16FA JUMP JUMPDEST PUSH2 0xC98 JUMP JUMPDEST STOP JUMPDEST CALLVALUE DUP1 ISZERO PUSH2 0x31F JUMPI PUSH0 DUP1 REVERT JUMPDEST POP PUSH2 0x33A PUSH1 0x4 DUP1 CALLDATASIZE SUB DUP2 ADD SWAP1 PUSH2 0x335 SWAP2 SWAP1 PUSH2 0x11F6 JUMP JUMPDEST PUSH2 0xEB7 JUMP JUMPDEST PUSH1 0x40 MLOAD PUSH2 0x347 SWAP2 SWAP1 PUSH2 0x123B JUMP JUMPDEST PUSH1 0x40 MLOAD DUP1 SWAP2 SUB SWAP1 RETURN JUMPDEST CALLVALUE DUP1 ISZERO PUSH2 0x35B JUMPI PUSH0 DUP1 REVERT JUMPDEST POP PUSH2 0x376 PUSH1 0x4 DUP1 CALLDATASIZE SUB DUP2 ADD SWAP1 PUSH2 0x371 SWAP2 SWAP1 PUSH2 0x180E JUMP JUMPDEST PUSH2 0xEDD JUMP JUMPDEST STOP JUMPDEST PUSH1 0x4 PUSH1 0x20 MSTORE DUP1 PUSH0 MSTORE PUSH1 0x40 PUSH0 KECCAK256 PUSH0 SWAP2 POP SLOAD SWAP1 PUSH2 0x100 EXP SWAP1 DIV PUSH1 0xFF AND DUP2 JUMP JUMPDEST PUSH1 0x60 PUSH1 0x3 DUP1 SLOAD DUP1 PUSH1 0x20 MUL PUSH1 0x20 ADD PUSH1 0x40 MLOAD SWAP1 DUP2 ADD PUSH1 0x40 MSTORE DUP1 SWAP3 SWAP2 SWAP1 DUP2 DUP2 MSTORE PUSH1 0x20 ADD DUP3 DUP1 SLOAD DUP1 ISZERO PUSH2 0x3E1 JUMPI PUSH1 0x20 MUL DUP3 ADD SWAP2 SWAP1 PUSH0 MSTORE PUSH1 0x20 PUSH0 KECCAK256 SWAP1 JUMPDEST DUP2 SLOAD DUP2 MSTORE PUSH1 0x20 ADD SWAP1 PUSH1 0x1 ADD SWAP1 DUP1 DUP4 GT PUSH2 0x3CD JUMPI JUMPDEST POP POP POP POP POP SWAP1 POP SWAP1 JUMP JUMPDEST PUSH0 DUP1 SLOAD SWAP1 PUSH2 0x100 EXP SWAP1 DIV PUSH20 0xFFFFFFFFFFFFFFFFFFFFFFFFFFFFFFFFFFFFFFFF AND PUSH20 0xFFFFFFFFFFFFFFFFFFFFFFFFFFFFFFFFFFFFFFFF AND CALLER PUSH20 0xFFFFFFFFFFFFFFFFFFFFFFFFFFFFFFFFFFFFFFFF AND EQ PUSH2 0x478 JUMPI PUSH1 0x40 MLOAD PUSH32 0x8C379A000000000000000000000000000000000000000000000000000000000 DUP2 MSTORE PUSH1 0x4 ADD PUSH2 0x46F SWAP1 PUSH2 0x18C5 JUMP JUMPDEST PUSH1 0x40 MLOAD DUP1 SWAP2 SUB SWAP1 REVERT JUMPDEST PUSH0 PUSH1 0x2 PUSH0 DUP4 DUP2 MSTORE PUSH1 0x20 ADD SWAP1 DUP2 MSTORE PUSH1 0x20 ADD PUSH0 KECCAK256 PUSH1 0x2 ADD PUSH0 SWAP1 SLOAD SWAP1 PUSH2 0x100 EXP SWAP1 DIV PUSH2 0xFFFF AND PUSH2 0xFFFF AND SUB PUSH2 0x4DF JUMPI PUSH1 0x40 MLOAD PUSH32 0x8C379A000000000000000000000000000000000000000000000000000000000 DUP2 MSTORE PUSH1 0x4 ADD PUSH2 0x4D6 SWAP1 PUSH2 0x192D JUMP JUMPDEST PUSH1 0x40 MLOAD DUP1 SWAP2 SUB SWAP1 REVERT JUMPDEST PUSH1 0x1 PUSH1 0x4 PUSH0 DUP4 DUP2 MSTORE PUSH1 0x20 ADD SWAP1 DUP2 MSTORE PUSH1 0x20 ADD PUSH0 KECCAK256 PUSH0 PUSH2 0x100 EXP DUP2 SLOAD DUP2 PUSH1 0xFF MUL NOT AND SWAP1 DUP4 ISZERO ISZERO MUL OR SWAP1 SSTORE POP DUP1 PUSH32 0x86751756703C53D5D7E44BD54604B7D71C6CCE159F4525B5F5B6EF93E6AFA4D PUSH1 0x40 MLOAD PUSH1 0x40 MLOAD DUP1 SWAP2 SUB SWAP1 LOG2 POP JUMP JUMPDEST PUSH1 0x3 DUP2 DUP2 SLOAD DUP2 LT PUSH2 0x547 JUMPI PUSH0 DUP1 REVERT JUMPDEST SWAP1 PUSH0 MSTORE PUSH1 0x20 PUSH0 KECCAK256 ADD PUSH0 SWAP2 POP SWAP1 POP SLOAD DUP2 JUMP JUMPDEST PUSH0 DUP1 PUSH0 SWAP1 SLOAD SWAP1 PUSH2 0x100 EXP SWAP1 DIV PUSH20 0xFFFFFFFFFFFFFFFFFFFFFFFFFFFFFFFFFFFFFFFF AND PUSH20 0xFFFFFFFFFFFFFFFFFFFFFFFFFFFFFFFFFFFFFFFF AND BALANCE SWAP1 POP SWAP1 JUMP JUMPDEST PUSH1 0x60 DUP1 PUSH0 DUP1 PUSH0 DUP1 PUSH1 0x2 PUSH0 DUP9 DUP2 MSTORE PUSH1 0x20 ADD SWAP1 DUP2 MSTORE PUSH1 0x20 ADD PUSH0 KECCAK256 PUSH1 0x40 MLOAD DUP1 PUSH1 0xA0 ADD PUSH1 0x40 MSTORE SWAP1 DUP2 PUSH0 DUP3 ADD DUP1 SLOAD PUSH2 0x5C8 SWAP1 PUSH2 0x1978 JUMP JUMPDEST DUP1 PUSH1 0x1F ADD PUSH1 0x20 DUP1 SWAP2 DIV MUL PUSH1 0x20 ADD PUSH1 0x40 MLOAD SWAP1 DUP2 ADD PUSH1 0x40 MSTORE DUP1 SWAP3 SWAP2 SWAP1 DUP2 DUP2 MSTORE PUSH1 0x20 ADD DUP3 DUP1 SLOAD PUSH2 0x5F4 SWAP1 PUSH2 0x1978 JUMP JUMPDEST DUP1 ISZERO PUSH2 0x63F JUMPI DUP1 PUSH1 0x1F LT PUSH2 0x616 JUMPI PUSH2 0x100 DUP1 DUP4 SLOAD DIV MUL DUP4 MSTORE SWAP2 PUSH1 0x20 ADD SWAP2 PUSH2 0x63F JUMP JUMPDEST DUP3 ADD SWAP2 SWAP1 PUSH0 MSTORE PUSH1 0x20 PUSH0 KECCAK256 SWAP1 JUMPDEST DUP2 SLOAD DUP2 MSTORE SWAP1 PUSH1 0x1 ADD SWAP1 PUSH1 0x20 ADD DUP1 DUP4 GT PUSH2 0x622 JUMPI DUP3 SWAP1 SUB PUSH1 0x1F AND DUP3 ADD SWAP2 JUMPDEST POP POP POP POP POP DUP2 MSTORE PUSH1 0x20 ADD PUSH1 0x1 DUP3 ADD DUP1 SLOAD PUSH2 0x658 SWAP1 PUSH2 0x1978 JUMP JUMPDEST DUP1 PUSH1 0x1F ADD PUSH1 0x20 DUP1 SWAP2 DIV MUL PUSH1 0x20 ADD PUSH1 0x40 MLOAD SWAP1 DUP2 ADD PUSH1 0x40 MSTORE DUP1 SWAP3 SWAP2 SWAP1 DUP2 DUP2 MSTORE PUSH1 0x20 ADD DUP3 DUP1 SLOAD PUSH2 0x684 SWAP1 PUSH2 0x1978 JUMP JUMPDEST DUP1 ISZERO PUSH2 0x6CF JUMPI DUP1 PUSH1 0x1F LT PUSH2 0x6A6 JUMPI PUSH2 0x100 DUP1 DUP4 SLOAD DIV MUL DUP4 MSTORE SWAP2 PUSH1 0x20 ADD SWAP2 PUSH2 0x6CF JUMP JUMPDEST DUP3 ADD SWAP2 SWAP1 PUSH0 MSTORE PUSH1 0x20 PUSH0 KECCAK256 SWAP1 JUMPDEST DUP2 SLOAD DUP2 MSTORE SWAP1 PUSH1 0x1 ADD SWAP1 PUSH1 0x20 ADD DUP1 DUP4 GT PUSH2 0x6B2 JUMPI DUP3 SWAP1 SUB PUSH1 0x1F AND DUP3 ADD SWAP2 JUMPDEST POP POP POP POP POP DUP2 MSTORE PUSH1 0x20 ADD PUSH1 0x2 DUP3 ADD PUSH0 SWAP1 SLOAD SWAP1 PUSH2 0x100 EXP SWAP1 DIV PUSH2 0xFFFF AND PUSH2 0xFFFF AND PUSH2 0xFFFF AND DUP2 MSTORE PUSH1 0x20 ADD PUSH1 0x3 DUP3 ADD SLOAD DUP2 MSTORE PUSH1 0x20 ADD PUSH1 0x4 DUP3 ADD PUSH0 SWAP1 SLOAD SWAP1 PUSH2 0x100 EXP SWAP1 DIV PUSH1 0xFF AND ISZERO ISZERO ISZERO ISZERO DUP2 MSTORE POP POP SWAP1 POP DUP1 PUSH0 ADD MLOAD DUP2 PUSH1 0x20 ADD MLOAD DUP3 PUSH1 0x40 ADD MLOAD DUP4 PUSH1 0x60 ADD MLOAD DUP5 PUSH1 0x80 ADD MLOAD DUP3 PUSH2 0xFFFF AND SWAP3 POP SWAP6 POP SWAP6 POP SWAP6 POP SWAP6 POP SWAP6 POP POP SWAP2 SWAP4 SWAP6 SWAP1 SWAP3 SWAP5 POP JUMP JUMPDEST PUSH1 0x2 PUSH1 0x20 MSTORE DUP1 PUSH0 MSTORE PUSH1 0x40 PUSH0 KECCAK256 PUSH0 SWAP2 POP SWAP1 POP DUP1 PUSH0 ADD DUP1 SLOAD PUSH2 0x76F SWAP1 PUSH2 0x1978 JUMP JUMPDEST DUP1 PUSH1 0x1F ADD PUSH1 0x20 DUP1 SWAP2 DIV MUL PUSH1 0x20 ADD PUSH1 0x40 MLOAD SWAP1 DUP2 ADD PUSH1 0x40 MSTORE DUP1 SWAP3 SWAP2 SWAP1 DUP2 DUP2 MSTORE PUSH1 0x20 ADD DUP3 DUP1 SLOAD PUSH2 0x79B SWAP1 PUSH2 0x1978 JUMP JUMPDEST DUP1 ISZERO PUSH2 0x7E6 JUMPI DUP1 PUSH1 0x1F LT PUSH2 0x7BD JUMPI PUSH2 0x100 DUP1 DUP4 SLOAD DIV MUL DUP4 MSTORE SWAP2 PUSH1 0x20 ADD SWAP2 PUSH2 0x7E6 JUMP JUMPDEST DUP3 ADD SWAP2 SWAP1 PUSH0 MSTORE PUSH1 0x20 PUSH0 KECCAK256 SWAP1 JUMPDEST DUP2 SLOAD DUP2 MSTORE SWAP1 PUSH1 0x1 ADD SWAP1 PUSH1 0x20 ADD DUP1 DUP4 GT PUSH2 0x7C9 JUMPI DUP3 SWAP1 SUB PUSH1 0x1F AND DUP3 ADD SWAP2 JUMPDEST POP POP POP POP POP SWAP1 DUP1 PUSH1 0x1 ADD DUP1 SLOAD PUSH2 0x7FB SWAP1 PUSH2 0x1978 JUMP JUMPDEST DUP1 PUSH1 0x1F ADD PUSH1 0x20 DUP1 SWAP2 DIV MUL PUSH1 0x20 ADD PUSH1 0x40 MLOAD SWAP1 DUP2 ADD PUSH1 0x40 MSTORE DUP1 SWAP3 SWAP2 SWAP1 DUP2 DUP2 MSTORE PUSH1 0x20 ADD DUP3 DUP1 SLOAD PUSH2 0x827 SWAP1 PUSH2 0x1978 JUMP JUMPDEST DUP1 ISZERO PUSH2 0x872 JUMPI DUP1 PUSH1 0x1F LT PUSH2 0x849 JUMPI PUSH2 0x100 DUP1 DUP4 SLOAD DIV MUL DUP4 MSTORE SWAP2 PUSH1 0x20 ADD SWAP2 PUSH2 0x872 JUMP JUMPDEST DUP3 ADD SWAP2 SWAP1 PUSH0 MSTORE PUSH1 0x20 PUSH0 KECCAK256 SWAP1 JUMPDEST DUP2 SLOAD DUP2 MSTORE SWAP1 PUSH1 0x1 ADD SWAP1 PUSH1 0x20 ADD DUP1 DUP4 GT PUSH2 0x855 JUMPI DUP3 SWAP1 SUB PUSH1 0x1F AND DUP3 ADD SWAP2 JUMPDEST POP POP POP POP POP SWAP1 DUP1 PUSH1 0x2 ADD PUSH0 SWAP1 SLOAD SWAP1 PUSH2 0x100 EXP SWAP1 DIV PUSH2 0xFFFF AND SWAP1 DUP1 PUSH1 0x3 ADD SLOAD SWAP1 DUP1 PUSH1 0x4 ADD PUSH0 SWAP1 SLOAD SWAP1 PUSH2 0x100 EXP SWAP1 DIV PUSH1 0xFF AND SWAP1 POP DUP6 JUMP JUMPDEST PUSH0 DUP1 SLOAD SWAP1 PUSH2 0x100 EXP SWAP1 DIV PUSH20 0xFFFFFFFFFFFFFFFFFFFFFFFFFFFFFFFFFFFFFFFF AND DUP2 JUMP JUMPDEST PUSH0 PUSH1 0x1 SLOAD SWAP1 POP SWAP1 JUMP JUMPDEST PUSH0 DUP1 SLOAD SWAP1 PUSH2 0x100 EXP SWAP1 DIV PUSH20 0xFFFFFFFFFFFFFFFFFFFFFFFFFFFFFFFFFFFFFFFF AND PUSH20 0xFFFFFFFFFFFFFFFFFFFFFFFFFFFFFFFFFFFFFFFF AND CALLER PUSH20 0xFFFFFFFFFFFFFFFFFFFFFFFFFFFFFFFFFFFFFFFF AND EQ PUSH2 0x960 JUMPI PUSH1 0x40 MLOAD PUSH32 0x8C379A000000000000000000000000000000000000000000000000000000000 DUP2 MSTORE PUSH1 0x4 ADD PUSH2 0x957 SWAP1 PUSH2 0x18C5 JUMP JUMPDEST PUSH1 0x40 MLOAD DUP1 SWAP2 SUB SWAP1 REVERT JUMPDEST PUSH0 PUSH1 0x2 PUSH0 DUP4 DUP2 MSTORE PUSH1 0x20 ADD SWAP1 DUP2 MSTORE PUSH1 0x20 ADD PUSH0 KECCAK256 PUSH1 0x2 ADD PUSH0 SWAP1 SLOAD SWAP1 PUSH2 0x100 EXP SWAP1 DIV PUSH2 0xFFFF AND PUSH2 0xFFFF AND SUB PUSH2 0x9C7 JUMPI PUSH1 0x40 MLOAD PUSH32 0x8C379A000000000000000000000000000000000000000000000000000000000 DUP2 MSTORE PUSH1 0x4 ADD PUSH2 0x9BE SWAP1 PUSH2 0x19F2 JUMP JUMPDEST PUSH1 0x40 MLOAD DUP1 SWAP2 SUB SWAP1 REVERT JUMPDEST PUSH1 0x2 PUSH0 DUP3 DUP2 MSTORE PUSH1 0x20 ADD SWAP1 DUP2 MSTORE PUSH1 0x20 ADD PUSH0 KECCAK256 PUSH0 DUP1 DUP3 ADD PUSH0 PUSH2 0x9E7 SWAP2 SWAP1 PUSH2 0x115A JUMP JUMPDEST PUSH1 0x1 DUP3 ADD PUSH0 PUSH2 0x9F6 SWAP2 SWAP1 PUSH2 0x115A JUMP JUMPDEST PUSH1 0x2 DUP3 ADD PUSH0 PUSH2 0x100 EXP DUP2 SLOAD SWAP1 PUSH2 0xFFFF MUL NOT AND SWAP1 SSTORE PUSH1 0x3 DUP3 ADD PUSH0 SWAP1 SSTORE PUSH1 0x4 DUP3 ADD PUSH0 PUSH2 0x100 EXP DUP2 SLOAD SWAP1 PUSH1 0xFF MUL NOT AND SWAP1 SSTORE POP POP PUSH0 JUMPDEST PUSH1 0x3 DUP1 SLOAD SWAP1 POP DUP2 LT ISZERO PUSH2 0xADD JUMPI DUP2 PUSH1 0x3 DUP3 DUP2 SLOAD DUP2 LT PUSH2 0xA4A JUMPI PUSH2 0xA49 PUSH2 0x1A10 JUMP JUMPDEST JUMPDEST SWAP1 PUSH0 MSTORE PUSH1 0x20 PUSH0 KECCAK256 ADD SLOAD SUB PUSH2 0xAD0 JUMPI PUSH1 0x3 PUSH1 0x1 PUSH1 0x3 DUP1 SLOAD SWAP1 POP PUSH2 0xA6C SWAP2 SWAP1 PUSH2 0x1A6A JUMP JUMPDEST DUP2 SLOAD DUP2 LT PUSH2 0xA7D JUMPI PUSH2 0xA7C PUSH2 0x1A10 JUMP JUMPDEST JUMPDEST SWAP1 PUSH0 MSTORE PUSH1 0x20 PUSH0 KECCAK256 ADD SLOAD PUSH1 0x3 DUP3 DUP2 SLOAD DUP2 LT PUSH2 0xA9A JUMPI PUSH2 0xA99 PUSH2 0x1A10 JUMP JUMPDEST JUMPDEST SWAP1 PUSH0 MSTORE PUSH1 0x20 PUSH0 KECCAK256 ADD DUP2 SWAP1 SSTORE POP PUSH1 0x3 DUP1 SLOAD DUP1 PUSH2 0xAB8 JUMPI PUSH2 0xAB7 PUSH2 0x1A9D JUMP JUMPDEST JUMPDEST PUSH1 0x1 SWAP1 SUB DUP2 DUP2 SWAP1 PUSH0 MSTORE PUSH1 0x20 PUSH0 KECCAK256 ADD PUSH0 SWAP1 SSTORE SWAP1 SSTORE PUSH2 0xADD JUMP JUMPDEST DUP1 DUP1 PUSH1 0x1 ADD SWAP2 POP POP PUSH2 0xA28 JUMP JUMPDEST POP DUP1 PUSH32 0x3C5CE13264433BCF97E5D53C97AF4FC33800E8C9DD927F965B116D0018D7CDDF PUSH1 0x40 MLOAD PUSH1 0x40 MLOAD DUP1 SWAP2 SUB SWAP1 LOG2 POP JUMP JUMPDEST PUSH0 PUSH1 0x2 PUSH0 DUP8 DUP2 MSTORE PUSH1 0x20 ADD SWAP1 DUP2 MSTORE PUSH1 0x20 ADD PUSH0 KECCAK256 PUSH1 0x2 ADD PUSH0 SWAP1 SLOAD SWAP1 PUSH2 0x100 EXP SWAP1 DIV PUSH2 0xFFFF AND PUSH2 0xFFFF AND EQ PUSH2 0xB75 JUMPI PUSH1 0x40 MLOAD PUSH32 0x8C379A000000000000000000000000000000000000000000000000000000000 DUP2 MSTORE PUSH1 0x4 ADD PUSH2 0xB6C SWAP1 PUSH2 0x1B3A JUMP JUMPDEST PUSH1 0x40 MLOAD DUP1 SWAP2 SUB SWAP1 REVERT JUMPDEST PUSH1 0x40 MLOAD DUP1 PUSH1 0xA0 ADD PUSH1 0x40 MSTORE DUP1 DUP6 DUP2 MSTORE PUSH1 0x20 ADD DUP5 DUP2 MSTORE PUSH1 0x20 ADD DUP3 PUSH2 0xFFFF AND DUP2 MSTORE PUSH1 0x20 ADD DUP4 DUP2 MSTORE PUSH1 0x20 ADD PUSH0 DUP5 GT ISZERO ISZERO DUP2 MSTORE POP PUSH1 0x2 PUSH0 DUP8 DUP2 MSTORE PUSH1 0x20 ADD SWAP1 DUP2 MSTORE PUSH1 0x20 ADD PUSH0 KECCAK256 PUSH0 DUP3 ADD MLOAD DUP2 PUSH0 ADD SWAP1 DUP2 PUSH2 0xBC8 SWAP2 SWAP1 PUSH2 0x1CF5 JUMP JUMPDEST POP PUSH1 0x20 DUP3 ADD MLOAD DUP2 PUSH1 0x1 ADD SWAP1 DUP2 PUSH2 0xBDE SWAP2 SWAP1 PUSH2 0x1CF5 JUMP JUMPDEST POP PUSH1 0x40 DUP3 ADD MLOAD DUP2 PUSH1 0x2 ADD PUSH0 PUSH2 0x100 EXP DUP2 SLOAD DUP2 PUSH2 0xFFFF MUL NOT AND SWAP1 DUP4 PUSH2 0xFFFF AND MUL OR SWAP1 SSTORE POP PUSH1 0x60 DUP3 ADD MLOAD DUP2 PUSH1 0x3 ADD SSTORE PUSH1 0x80 DUP3 ADD MLOAD DUP2 PUSH1 0x4 ADD PUSH0 PUSH2 0x100 EXP DUP2 SLOAD DUP2 PUSH1 0xFF MUL NOT AND SWAP1 DUP4 ISZERO ISZERO MUL OR SWAP1 SSTORE POP SWAP1 POP POP PUSH1 0x3 DUP6 SWAP1 DUP1 PUSH1 0x1 DUP2 SLOAD ADD DUP1 DUP3 SSTORE DUP1 SWAP2 POP POP PUSH1 0x1 SWAP1 SUB SWAP1 PUSH0 MSTORE PUSH1 0x20 PUSH0 KECCAK256 ADD PUSH0 SWAP1 SWAP2 SWAP1 SWAP2 SWAP1 SWAP2 POP SSTORE DUP5 PUSH32 0x722C04650224F771C04EC5712C74689980B3DDB4EAA233CD8F9C72D7DA7FBE29 DUP6 DUP6 DUP6 DUP6 PUSH1 0x40 MLOAD PUSH2 0xC89 SWAP5 SWAP4 SWAP3 SWAP2 SWAP1 PUSH2 0x1DF4 JUMP JUMPDEST PUSH1 0x40 MLOAD DUP1 SWAP2 SUB SWAP1 LOG2 POP POP POP POP POP JUMP JUMPDEST PUSH0 PUSH1 0x2 PUSH0 DUP6 DUP2 MSTORE PUSH1 0x20 ADD SWAP1 DUP2 MSTORE PUSH1 0x20 ADD PUSH0 KECCAK256 SWAP1 POP DUP1 PUSH1 0x4 ADD PUSH0 SWAP1 SLOAD SWAP1 PUSH2 0x100 EXP SWAP1 DIV PUSH1 0xFF AND PUSH2 0xCFC JUMPI PUSH1 0x40 MLOAD PUSH32 0x8C379A000000000000000000000000000000000000000000000000000000000 DUP2 MSTORE PUSH1 0x4 ADD PUSH2 0xCF3 SWAP1 PUSH2 0x1E8F JUMP JUMPDEST PUSH1 0x40 MLOAD DUP1 SWAP2 SUB SWAP1 REVERT JUMPDEST DUP3 DUP2 PUSH1 0x3 ADD SLOAD LT ISZERO PUSH2 0xD43 JUMPI PUSH1 0x40 MLOAD PUSH32 0x8C379A000000000000000000000000000000000000000000000000000000000 DUP2 MSTORE PUSH1 0x4 ADD PUSH2 0xD3A SWAP1 PUSH2 0x1EF7 JUMP JUMPDEST PUSH1 0x40 MLOAD DUP1 SWAP2 SUB SWAP1 REVERT JUMPDEST DUP3 DUP2 PUSH1 0x2 ADD PUSH0 SWAP1 SLOAD SWAP1 PUSH2 0x100 EXP SWAP1 DIV PUSH2 0xFFFF AND PUSH2 0xFFFF AND PUSH2 0xD64 SWAP2 SWAP1 PUSH2 0x1F15 JUMP JUMPDEST DUP3 EQ PUSH2 0xDA5 JUMPI PUSH1 0x40 MLOAD PUSH32 0x8C379A000000000000000000000000000000000000000000000000000000000 DUP2 MSTORE PUSH1 0x4 ADD PUSH2 0xD9C SWAP1 PUSH2 0x1FA0 JUMP JUMPDEST PUSH1 0x40 MLOAD DUP1 SWAP2 SUB SWAP1 REVERT JUMPDEST DUP3 DUP2 PUSH1 0x3 ADD PUSH0 DUP3 DUP3 SLOAD PUSH2 0xDB8 SWAP2 SWAP1 PUSH2 0x1A6A JUMP JUMPDEST SWAP3 POP POP DUP2 SWAP1 SSTORE POP PUSH0 DUP2 PUSH1 0x3 ADD SLOAD SUB PUSH2 0xDE6 JUMPI PUSH0 DUP2 PUSH1 0x4 ADD PUSH0 PUSH2 0x100 EXP DUP2 SLOAD DUP2 PUSH1 0xFF MUL NOT AND SWAP1 DUP4 ISZERO ISZERO MUL OR SWAP1 SSTORE POP JUMPDEST DUP3 PUSH1 0x1 PUSH0 DUP3 DUP3 SLOAD PUSH2 0xDF7 SWAP2 SWAP1 PUSH2 0x1FBE JUMP JUMPDEST SWAP3 POP POP DUP2 SWAP1 SSTORE POP PUSH0 DUP1 SLOAD SWAP1 PUSH2 0x100 EXP SWAP1 DIV PUSH20 0xFFFFFFFFFFFFFFFFFFFFFFFFFFFFFFFFFFFFFFFF AND PUSH20 0xFFFFFFFFFFFFFFFFFFFFFFFFFFFFFFFFFFFFFFFF AND PUSH2 0x8FC CALLVALUE SWAP1 DUP2 ISZERO MUL SWAP1 PUSH1 0x40 MLOAD PUSH0 PUSH1 0x40 MLOAD DUP1 DUP4 SUB DUP2 DUP6 DUP9 DUP9 CALL SWAP4 POP POP POP POP ISZERO DUP1 ISZERO PUSH2 0xE60 JUMPI RETURNDATASIZE PUSH0 DUP1 RETURNDATACOPY RETURNDATASIZE PUSH0 REVERT JUMPDEST POP CALLER PUSH20 0xFFFFFFFFFFFFFFFFFFFFFFFFFFFFFFFFFFFFFFFF AND PUSH32 0x439C08B00222293C6073F3EE383214541A4A21ACA7DBB0A45963F86FA8E589F7 DUP6 DUP6 PUSH1 0x40 MLOAD PUSH2 0xEA9 SWAP3 SWAP2 SWAP1 PUSH2 0x1FF1 JUMP JUMPDEST PUSH1 0x40 MLOAD DUP1 SWAP2 SUB SWAP1 LOG2 POP POP POP POP JUMP JUMPDEST PUSH0 PUSH1 0x4 PUSH0 DUP4 DUP2 MSTORE PUSH1 0x20 ADD SWAP1 DUP2 MSTORE PUSH1 0x20 ADD PUSH0 KECCAK256 PUSH0 SWAP1 SLOAD SWAP1 PUSH2 0x100 EXP SWAP1 DIV PUSH1 0xFF AND SWAP1 POP SWAP2 SWAP1 POP JUMP JUMPDEST PUSH0 DUP1 SLOAD SWAP1 PUSH2 0x100 EXP SWAP1 DIV PUSH20 0xFFFFFFFFFFFFFFFFFFFFFFFFFFFFFFFFFFFFFFFF AND PUSH20 0xFFFFFFFFFFFFFFFFFFFFFFFFFFFFFFFFFFFFFFFF AND CALLER PUSH20 0xFFFFFFFFFFFFFFFFFFFFFFFFFFFFFFFFFFFFFFFF AND EQ PUSH2 0xF6A JUMPI PUSH1 0x40 MLOAD PUSH32 0x8C379A000000000000000000000000000000000000000000000000000000000 DUP2 MSTORE PUSH1 0x4 ADD PUSH2 0xF61 SWAP1 PUSH2 0x18C5 JUMP JUMPDEST PUSH1 0x40 MLOAD DUP1 SWAP2 SUB SWAP1 REVERT JUMPDEST PUSH0 JUMPDEST DUP2 MLOAD DUP2 LT ISZERO PUSH2 0x111F JUMPI PUSH0 DUP3 DUP3 DUP2 MLOAD DUP2 LT PUSH2 0xF89 JUMPI PUSH2 0xF88 PUSH2 0x1A10 JUMP JUMPDEST JUMPDEST PUSH1 0x20 MUL PUSH1 0x20 ADD ADD MLOAD SWAP1 POP PUSH0 PUSH1 0x2 PUSH0 DUP4 DUP2 MSTORE PUSH1 0x20 ADD SWAP1 DUP2 MSTORE PUSH1 0x20 ADD PUSH0 KECCAK256 PUSH1 0x2 ADD PUSH0 SWAP1 SLOAD SWAP1 PUSH2 0x100 EXP SWAP1 DIV PUSH2 0xFFFF AND PUSH2 0xFFFF AND SUB PUSH2 0xFFA JUMPI PUSH1 0x40 MLOAD PUSH32 0x8C379A000000000000000000000000000000000000000000000000000000000 DUP2 MSTORE PUSH1 0x4 ADD PUSH2 0xFF1 SWAP1 PUSH2 0x19F2 JUMP JUMPDEST PUSH1 0x40 MLOAD DUP1 SWAP2 SUB SWAP1 REVERT JUMPDEST PUSH1 0x2 PUSH0 DUP3 DUP2 MSTORE PUSH1 0x20 ADD SWAP1 DUP2 MSTORE PUSH1 0x20 ADD PUSH0 KECCAK256 PUSH0 DUP1 DUP3 ADD PUSH0 PUSH2 0x101A SWAP2 SWAP1 PUSH2 0x115A JUMP JUMPDEST PUSH1 0x1 DUP3 ADD PUSH0 PUSH2 0x1029 SWAP2 SWAP1 PUSH2 0x115A JUMP JUMPDEST PUSH1 0x2 DUP3 ADD PUSH0 PUSH2 0x100 EXP DUP2 SLOAD SWAP1 PUSH2 0xFFFF MUL NOT AND SWAP1 SSTORE PUSH1 0x3 DUP3 ADD PUSH0 SWAP1 SSTORE PUSH1 0x4 DUP3 ADD PUSH0 PUSH2 0x100 EXP DUP2 SLOAD SWAP1 PUSH1 0xFF MUL NOT AND SWAP1 SSTORE POP POP PUSH0 JUMPDEST PUSH1 0x3 DUP1 SLOAD SWAP1 POP DUP2 LT ISZERO PUSH2 0x1110 JUMPI DUP2 PUSH1 0x3 DUP3 DUP2 SLOAD DUP2 LT PUSH2 0x107D JUMPI PUSH2 0x107C PUSH2 0x1A10 JUMP JUMPDEST JUMPDEST SWAP1 PUSH0 MSTORE PUSH1 0x20 PUSH0 KECCAK256 ADD SLOAD SUB PUSH2 0x1103 JUMPI PUSH1 0x3 PUSH1 0x1 PUSH1 0x3 DUP1 SLOAD SWAP1 POP PUSH2 0x109F SWAP2 SWAP1 PUSH2 0x1A6A JUMP JUMPDEST DUP2 SLOAD DUP2 LT PUSH2 0x10B0 JUMPI PUSH2 0x10AF PUSH2 0x1A10 JUMP JUMPDEST JUMPDEST SWAP1 PUSH0 MSTORE PUSH1 0x20 PUSH0 KECCAK256 ADD SLOAD PUSH1 0x3 DUP3 DUP2 SLOAD DUP2 LT PUSH2 0x10CD JUMPI PUSH2 0x10CC PUSH2 0x1A10 JUMP JUMPDEST JUMPDEST SWAP1 PUSH0 MSTORE PUSH1 0x20 PUSH0 KECCAK256 ADD DUP2 SWAP1 SSTORE POP PUSH1 0x3 DUP1 SLOAD DUP1 PUSH2 0x10EB JUMPI PUSH2 0x10EA PUSH2 0x1A9D JUMP JUMPDEST JUMPDEST PUSH1 0x1 SWAP1 SUB DUP2 DUP2 SWAP1 PUSH0 MSTORE PUSH1 0x20 PUSH0 KECCAK256 ADD PUSH0 SWAP1 SSTORE SWAP1 SSTORE PUSH2 0x1110 JUMP JUMPDEST DUP1 DUP1 PUSH1 0x1 ADD SWAP2 POP POP PUSH2 0x105B JUMP JUMPDEST POP POP DUP1 DUP1 PUSH1 0x1 ADD SWAP2 POP POP PUSH2 0xF6C JUMP JUMPDEST POP PUSH32 0x7262BE1E48C30C363173FCB2FBF2DC2CB38D076DEE42CC37CDFBDF62AF5C3BED DUP2 PUSH1 0x40 MLOAD PUSH2 0x114F SWAP2 SWAP1 PUSH2 0x130B JUMP JUMPDEST PUSH1 0x40 MLOAD DUP1 SWAP2 SUB SWAP1 LOG1 POP JUMP JUMPDEST POP DUP1 SLOAD PUSH2 0x1166 SWAP1 PUSH2 0x1978 JUMP JUMPDEST PUSH0 DUP3 SSTORE DUP1 PUSH1 0x1F LT PUSH2 0x1177 JUMPI POP PUSH2 0x1194 JUMP JUMPDEST PUSH1 0x1F ADD PUSH1 0x20 SWAP1 DIV SWAP1 PUSH0 MSTORE PUSH1 0x20 PUSH0 KECCAK256 SWAP1 DUP2 ADD SWAP1 PUSH2 0x1193 SWAP2 SWAP1 PUSH2 0x1197 JUMP JUMPDEST JUMPDEST POP JUMP JUMPDEST JUMPDEST DUP1 DUP3 GT ISZERO PUSH2 0x11AE JUMPI PUSH0 DUP2 PUSH0 SWAP1 SSTORE POP PUSH1 0x1 ADD PUSH2 0x1198 JUMP JUMPDEST POP SWAP1 JUMP JUMPDEST PUSH0 PUSH1 0x40 MLOAD SWAP1 POP SWAP1 JUMP JUMPDEST PUSH0 DUP1 REVERT JUMPDEST PUSH0 DUP1 REVERT JUMPDEST PUSH0 DUP2 SWAP1 POP SWAP2 SWAP1 POP JUMP JUMPDEST PUSH2 0x11D5 DUP2 PUSH2 0x11C3 JUMP JUMPDEST DUP2 EQ PUSH2 0x11DF JUMPI PUSH0 DUP1 REVERT JUMPDEST POP JUMP JUMPDEST PUSH0 DUP2 CALLDATALOAD SWAP1 POP PUSH2 0x11F0 DUP2 PUSH2 0x11CC JUMP JUMPDEST SWAP3 SWAP2 POP POP JUMP JUMPDEST PUSH0 PUSH1 0x20 DUP3 DUP5 SUB SLT ISZERO PUSH2 0x120B JUMPI PUSH2 0x120A PUSH2 0x11BB JUMP JUMPDEST JUMPDEST PUSH0 PUSH2 0x1218 DUP5 DUP3 DUP6 ADD PUSH2 0x11E2 JUMP JUMPDEST SWAP2 POP POP SWAP3 SWAP2 POP POP JUMP JUMPDEST PUSH0 DUP2 ISZERO ISZERO SWAP1 POP SWAP2 SWAP1 POP JUMP JUMPDEST PUSH2 0x1235 DUP2 PUSH2 0x1221 JUMP JUMPDEST DUP3 MSTORE POP POP JUMP JUMPDEST PUSH0 PUSH1 0x20 DUP3 ADD SWAP1 POP PUSH2 0x124E PUSH0 DUP4 ADD DUP5 PUSH2 0x122C JUMP JUMPDEST SWAP3 SWAP2 POP POP JUMP JUMPDEST PUSH0 DUP2 MLOAD SWAP1 POP SWAP2 SWAP1 POP JUMP JUMPDEST PUSH0 DUP3 DUP3 MSTORE PUSH1 0x20 DUP3 ADD SWAP1 POP SWAP3 SWAP2 POP POP JUMP JUMPDEST PUSH0 DUP2 SWAP1 POP PUSH1 0x20 DUP3 ADD SWAP1 POP SWAP2 SWAP1 POP JUMP JUMPDEST PUSH2 0x1286 DUP2 PUSH2 0x11C3 JUMP JUMPDEST DUP3 MSTORE POP POP JUMP JUMPDEST PUSH0 PUSH2 0x1297 DUP4 DUP4 PUSH2 0x127D JUMP JUMPDEST PUSH1 0x20 DUP4 ADD SWAP1 POP SWAP3 SWAP2 POP POP JUMP JUMPDEST PUSH0 PUSH1 0x20 DUP3 ADD SWAP1 POP SWAP2 SWAP1 POP JUMP JUMPDEST PUSH0 PUSH2 0x12B9 DUP3 PUSH2 0x1254 JUMP JUMPDEST PUSH2 0x12C3 DUP2 DUP6 PUSH2 0x125E JUMP JUMPDEST SWAP4 POP PUSH2 0x12CE DUP4 PUSH2 0x126E JUMP JUMPDEST DUP1 PUSH0 JUMPDEST DUP4 DUP2 LT ISZERO PUSH2 0x12FE JUMPI DUP2 MLOAD PUSH2 0x12E5 DUP9 DUP3 PUSH2 0x128C JUMP JUMPDEST SWAP8 POP PUSH2 0x12F0 DUP4 PUSH2 0x12A3 JUMP JUMPDEST SWAP3 POP POP PUSH1 0x1 DUP2 ADD SWAP1 POP PUSH2 0x12D1 JUMP JUMPDEST POP DUP6 SWAP4 POP POP POP POP SWAP3 SWAP2 POP POP JUMP JUMPDEST PUSH0 PUSH1 0x20 DUP3 ADD SWAP1 POP DUP2 DUP2 SUB PUSH0 DUP4 ADD MSTORE PUSH2 0x1323 DUP2 DUP5 PUSH2 0x12AF JUMP JUMPDEST SWAP1 POP SWAP3 SWAP2 POP POP JUMP JUMPDEST PUSH2 0x1334 DUP2 PUSH2 0x11C3 JUMP JUMPDEST DUP3 MSTORE POP POP JUMP JUMPDEST PUSH0 PUSH1 0x20 DUP3 ADD SWAP1 POP PUSH2 0x134D PUSH0 DUP4 ADD DUP5 PUSH2 0x132B JUMP JUMPDEST SWAP3 SWAP2 POP POP JUMP JUMPDEST PUSH0 DUP2 MLOAD SWAP1 POP SWAP2 SWAP1 POP JUMP JUMPDEST PUSH0 DUP3 DUP3 MSTORE PUSH1 0x20 DUP3 ADD SWAP1 POP SWAP3 SWAP2 POP POP JUMP JUMPDEST DUP3 DUP2 DUP4 MCOPY PUSH0 DUP4 DUP4 ADD MSTORE POP POP POP JUMP JUMPDEST PUSH0 PUSH1 0x1F NOT PUSH1 0x1F DUP4 ADD AND SWAP1 POP SWAP2 SWAP1 POP JUMP JUMPDEST PUSH0 PUSH2 0x1395 DUP3 PUSH2 0x1353 JUMP JUMPDEST PUSH2 0x139F DUP2 DUP6 PUSH2 0x135D JUMP JUMPDEST SWAP4 POP PUSH2 0x13AF DUP2 DUP6 PUSH1 0x20 DUP7 ADD PUSH2 0x136D JUMP JUMPDEST PUSH2 0x13B8 DUP2 PUSH2 0x137B JUMP JUMPDEST DUP5 ADD SWAP2 POP POP SWAP3 SWAP2 POP POP JUMP JUMPDEST PUSH0 PUSH1 0xA0 DUP3 ADD SWAP1 POP DUP2 DUP2 SUB PUSH0 DUP4 ADD MSTORE PUSH2 0x13DB DUP2 DUP9 PUSH2 0x138B JUMP JUMPDEST SWAP1 POP DUP2 DUP2 SUB PUSH1 0x20 DUP4 ADD MSTORE PUSH2 0x13EF DUP2 DUP8 PUSH2 0x138B JUMP JUMPDEST SWAP1 POP PUSH2 0x13FE PUSH1 0x40 DUP4 ADD DUP7 PUSH2 0x132B JUMP JUMPDEST PUSH2 0x140B PUSH1 0x60 DUP4 ADD DUP6 PUSH2 0x132B JUMP JUMPDEST PUSH2 0x1418 PUSH1 0x80 DUP4 ADD DUP5 PUSH2 0x122C JUMP JUMPDEST SWAP7 SWAP6 POP POP POP POP POP POP JUMP JUMPDEST PUSH0 PUSH2 0xFFFF DUP3 AND SWAP1 POP SWAP2 SWAP1 POP JUMP JUMPDEST PUSH2 0x1438 DUP2 PUSH2 0x1422 JUMP JUMPDEST DUP3 MSTORE POP POP JUMP JUMPDEST PUSH0 PUSH1 0xA0 DUP3 ADD SWAP1 POP DUP2 DUP2 SUB PUSH0 DUP4 ADD MSTORE PUSH2 0x1456 DUP2 DUP9 PUSH2 0x138B JUMP JUMPDEST SWAP1 POP DUP2 DUP2 SUB PUSH1 0x20 DUP4 ADD MSTORE PUSH2 0x146A DUP2 DUP8 PUSH2 0x138B JUMP JUMPDEST SWAP1 POP PUSH2 0x1479 PUSH1 0x40 DUP4 ADD DUP7 PUSH2 0x142F JUMP JUMPDEST PUSH2 0x1486 PUSH1 0x60 DUP4 ADD DUP6 PUSH2 0x132B JUMP JUMPDEST PUSH2 0x1493 PUSH1 0x80 DUP4 ADD DUP5 PUSH2 0x122C JUMP JUMPDEST SWAP7 SWAP6 POP POP POP POP POP POP JUMP JUMPDEST PUSH0 PUSH20 0xFFFFFFFFFFFFFFFFFFFFFFFFFFFFFFFFFFFFFFFF DUP3 AND SWAP1 POP SWAP2 SWAP1 POP JUMP JUMPDEST PUSH0 PUSH2 0x14C6 DUP3 PUSH2 0x149D JUMP JUMPDEST SWAP1 POP SWAP2 SWAP1 POP JUMP JUMPDEST PUSH2 0x14D6 DUP2 PUSH2 0x14BC JUMP JUMPDEST DUP3 MSTORE POP POP JUMP JUMPDEST PUSH0 PUSH1 0x20 DUP3 ADD SWAP1 POP PUSH2 0x14EF PUSH0 DUP4 ADD DUP5 PUSH2 0x14CD JUMP JUMPDEST SWAP3 SWAP2 POP POP JUMP JUMPDEST PUSH0 DUP1 REVERT JUMPDEST PUSH0 DUP1 REVERT JUMPDEST PUSH32 0x4E487B7100000000000000000000000000000000000000000000000000000000 PUSH0 MSTORE PUSH1 0x41 PUSH1 0x4 MSTORE PUSH1 0x24 PUSH0 REVERT JUMPDEST PUSH2 0x1533 DUP3 PUSH2 0x137B JUMP JUMPDEST DUP2 ADD DUP2 DUP2 LT PUSH8 0xFFFFFFFFFFFFFFFF DUP3 GT OR ISZERO PUSH2 0x1552 JUMPI PUSH2 0x1551 PUSH2 0x14FD JUMP JUMPDEST JUMPDEST DUP1 PUSH1 0x40 MSTORE POP POP POP JUMP JUMPDEST PUSH0 PUSH2 0x1564 PUSH2 0x11B2 JUMP JUMPDEST SWAP1 POP PUSH2 0x1570 DUP3 DUP3 PUSH2 0x152A JUMP JUMPDEST SWAP2 SWAP1 POP JUMP JUMPDEST PUSH0 PUSH8 0xFFFFFFFFFFFFFFFF DUP3 GT ISZERO PUSH2 0x158F JUMPI PUSH2 0x158E PUSH2 0x14FD JUMP JUMPDEST JUMPDEST PUSH2 0x1598 DUP3 PUSH2 0x137B JUMP JUMPDEST SWAP1 POP PUSH1 0x20 DUP2 ADD SWAP1 POP SWAP2 SWAP1 POP JUMP JUMPDEST DUP3 DUP2 DUP4 CALLDATACOPY PUSH0 DUP4 DUP4 ADD MSTORE POP POP POP JUMP JUMPDEST PUSH0 PUSH2 0x15C5 PUSH2 0x15C0 DUP5 PUSH2 0x1575 JUMP JUMPDEST PUSH2 0x155B JUMP JUMPDEST SWAP1 POP DUP3 DUP2 MSTORE PUSH1 0x20 DUP2 ADD DUP5 DUP5 DUP5 ADD GT ISZERO PUSH2 0x15E1 JUMPI PUSH2 0x15E0 PUSH2 0x14F9 JUMP JUMPDEST JUMPDEST PUSH2 0x15EC DUP5 DUP3 DUP6 PUSH2 0x15A5 JUMP JUMPDEST POP SWAP4 SWAP3 POP POP POP JUMP JUMPDEST PUSH0 DUP3 PUSH1 0x1F DUP4 ADD SLT PUSH2 0x1608 JUMPI PUSH2 0x1607 PUSH2 0x14F5 JUMP JUMPDEST JUMPDEST DUP2 CALLDATALOAD PUSH2 0x1618 DUP5 DUP3 PUSH1 0x20 DUP7 ADD PUSH2 0x15B3 JUMP JUMPDEST SWAP2 POP POP SWAP3 SWAP2 POP POP JUMP JUMPDEST PUSH2 0x162A DUP2 PUSH2 0x1422 JUMP JUMPDEST DUP2 EQ PUSH2 0x1634 JUMPI PUSH0 DUP1 REVERT JUMPDEST POP JUMP JUMPDEST PUSH0 DUP2 CALLDATALOAD SWAP1 POP PUSH2 0x1645 DUP2 PUSH2 0x1621 JUMP JUMPDEST SWAP3 SWAP2 POP POP JUMP JUMPDEST PUSH0 DUP1 PUSH0 DUP1 PUSH0 PUSH1 0xA0 DUP7 DUP9 SUB SLT ISZERO PUSH2 0x1664 JUMPI PUSH2 0x1663 PUSH2 0x11BB JUMP JUMPDEST JUMPDEST PUSH0 PUSH2 0x1671 DUP9 DUP3 DUP10 ADD PUSH2 0x11E2 JUMP JUMPDEST SWAP6 POP POP PUSH1 0x20 DUP7 ADD CALLDATALOAD PUSH8 0xFFFFFFFFFFFFFFFF DUP2 GT ISZERO PUSH2 0x1692 JUMPI PUSH2 0x1691 PUSH2 0x11BF JUMP JUMPDEST JUMPDEST PUSH2 0x169E DUP9 DUP3 DUP10 ADD PUSH2 0x15F4 JUMP JUMPDEST SWAP5 POP POP PUSH1 0x40 DUP7 ADD CALLDATALOAD PUSH8 0xFFFFFFFFFFFFFFFF DUP2 GT ISZERO PUSH2 0x16BF JUMPI PUSH2 0x16BE PUSH2 0x11BF JUMP JUMPDEST JUMPDEST PUSH2 0x16CB DUP9 DUP3 DUP10 ADD PUSH2 0x15F4 JUMP JUMPDEST SWAP4 POP POP PUSH1 0x60 PUSH2 0x16DC DUP9 DUP3 DUP10 ADD PUSH2 0x11E2 JUMP JUMPDEST SWAP3 POP POP PUSH1 0x80 PUSH2 0x16ED DUP9 DUP3 DUP10 ADD PUSH2 0x1637 JUMP JUMPDEST SWAP2 POP POP SWAP3 SWAP6 POP SWAP3 SWAP6 SWAP1 SWAP4 POP JUMP JUMPDEST PUSH0 DUP1 PUSH0 PUSH1 0x60 DUP5 DUP7 SUB SLT ISZERO PUSH2 0x1711 JUMPI PUSH2 0x1710 PUSH2 0x11BB JUMP JUMPDEST JUMPDEST PUSH0 PUSH2 0x171E DUP7 DUP3 DUP8 ADD PUSH2 0x11E2 JUMP JUMPDEST SWAP4 POP POP PUSH1 0x20 PUSH2 0x172F DUP7 DUP3 DUP8 ADD PUSH2 0x11E2 JUMP JUMPDEST SWAP3 POP POP PUSH1 0x40 PUSH2 0x1740 DUP7 DUP3 DUP8 ADD PUSH2 0x11E2 JUMP JUMPDEST SWAP2 POP POP SWAP3 POP SWAP3 POP SWAP3 JUMP JUMPDEST PUSH0 PUSH8 0xFFFFFFFFFFFFFFFF DUP3 GT ISZERO PUSH2 0x1764 JUMPI PUSH2 0x1763 PUSH2 0x14FD JUMP JUMPDEST JUMPDEST PUSH1 0x20 DUP3 MUL SWAP1 POP PUSH1 0x20 DUP2 ADD SWAP1 POP SWAP2 SWAP1 POP JUMP JUMPDEST PUSH0 DUP1 REVERT JUMPDEST PUSH0 PUSH2 0x178B PUSH2 0x1786 DUP5 PUSH2 0x174A JUMP JUMPDEST PUSH2 0x155B JUMP JUMPDEST SWAP1 POP DUP1 DUP4 DUP3 MSTORE PUSH1 0x20 DUP3 ADD SWAP1 POP PUSH1 0x20 DUP5 MUL DUP4 ADD DUP6 DUP2 GT ISZERO PUSH2 0x17AE JUMPI PUSH2 0x17AD PUSH2 0x1775 JUMP JUMPDEST JUMPDEST DUP4 JUMPDEST DUP2 DUP2 LT ISZERO PUSH2 0x17D7 JUMPI DUP1 PUSH2 0x17C3 DUP9 DUP3 PUSH2 0x11E2 JUMP JUMPDEST DUP5 MSTORE PUSH1 0x20 DUP5 ADD SWAP4 POP POP PUSH1 0x20 DUP2 ADD SWAP1 POP PUSH2 0x17B0 JUMP JUMPDEST POP POP POP SWAP4 SWAP3 POP POP POP JUMP JUMPDEST PUSH0 DUP3 PUSH1 0x1F DUP4 ADD SLT PUSH2 0x17F5 JUMPI PUSH2 0x17F4 PUSH2 0x14F5 JUMP JUMPDEST JUMPDEST DUP2 CALLDATALOAD PUSH2 0x1805 DUP5 DUP3 PUSH1 0x20 DUP7 ADD PUSH2 0x1779 JUMP JUMPDEST SWAP2 POP POP SWAP3 SWAP2 POP POP JUMP JUMPDEST PUSH0 PUSH1 0x20 DUP3 DUP5 SUB SLT ISZERO PUSH2 0x1823 JUMPI PUSH2 0x1822 PUSH2 0x11BB JUMP JUMPDEST JUMPDEST PUSH0 DUP3 ADD CALLDATALOAD PUSH8 0xFFFFFFFFFFFFFFFF DUP2 GT ISZERO PUSH2 0x1840 JUMPI PUSH2 0x183F PUSH2 0x11BF JUMP JUMPDEST JUMPDEST PUSH2 0x184C DUP5 DUP3 DUP6 ADD PUSH2 0x17E1 JUMP JUMPDEST SWAP2 POP POP SWAP3 SWAP2 POP POP JUMP JUMPDEST PUSH32 0x4F6E6C79206F776E65722063616E20706572666F726D20746869732061637469 PUSH0 DUP3 ADD MSTORE PUSH32 0x6F6E000000000000000000000000000000000000000000000000000000000000 PUSH1 0x20 DUP3 ADD MSTORE POP JUMP JUMPDEST PUSH0 PUSH2 0x18AF PUSH1 0x22 DUP4 PUSH2 0x135D JUMP JUMPDEST SWAP2 POP PUSH2 0x18BA DUP3 PUSH2 0x1855 JUMP JUMPDEST PUSH1 0x40 DUP3 ADD SWAP1 POP SWAP2 SWAP1 POP JUMP JUMPDEST PUSH0 PUSH1 0x20 DUP3 ADD SWAP1 POP DUP2 DUP2 SUB PUSH0 DUP4 ADD MSTORE PUSH2 0x18DC DUP2 PUSH2 0x18A3 JUMP JUMPDEST SWAP1 POP SWAP2 SWAP1 POP JUMP JUMPDEST PUSH32 0x5468697320426F6F6B20446F6573204E6F742045786973742100000000000000 PUSH0 DUP3 ADD MSTORE POP JUMP JUMPDEST PUSH0 PUSH2 0x1917 PUSH1 0x19 DUP4 PUSH2 0x135D JUMP JUMPDEST SWAP2 POP PUSH2 0x1922 DUP3 PUSH2 0x18E3 JUMP JUMPDEST PUSH1 0x20 DUP3 ADD SWAP1 POP SWAP2 SWAP1 POP JUMP JUMPDEST PUSH0 PUSH1 0x20 DUP3 ADD SWAP1 POP DUP2 DUP2 SUB PUSH0 DUP4 ADD MSTORE PUSH2 0x1944 DUP2 PUSH2 0x190B JUMP JUMPDEST SWAP1 POP SWAP2 SWAP1 POP JUMP JUMPDEST PUSH32 0x4E487B7100000000000000000000000000000000000000000000000000000000 PUSH0 MSTORE PUSH1 0x22 PUSH1 0x4 MSTORE PUSH1 0x24 PUSH0 REVERT JUMPDEST PUSH0 PUSH1 0x2 DUP3 DIV SWAP1 POP PUSH1 0x1 DUP3 AND DUP1 PUSH2 0x198F JUMPI PUSH1 0x7F DUP3 AND SWAP2 POP JUMPDEST PUSH1 0x20 DUP3 LT DUP2 SUB PUSH2 0x19A2 JUMPI PUSH2 0x19A1 PUSH2 0x194B JUMP JUMPDEST JUMPDEST POP SWAP2 SWAP1 POP JUMP JUMPDEST PUSH32 0x426F6F6B20646F6573206E6F7420657869737400000000000000000000000000 PUSH0 DUP3 ADD MSTORE POP JUMP JUMPDEST PUSH0 PUSH2 0x19DC PUSH1 0x13 DUP4 PUSH2 0x135D JUMP JUMPDEST SWAP2 POP PUSH2 0x19E7 DUP3 PUSH2 0x19A8 JUMP JUMPDEST PUSH1 0x20 DUP3 ADD SWAP1 POP SWAP2 SWAP1 POP JUMP JUMPDEST PUSH0 PUSH1 0x20 DUP3 ADD SWAP1 POP DUP2 DUP2 SUB PUSH0 DUP4 ADD MSTORE PUSH2 0x1A09 DUP2 PUSH2 0x19D0 JUMP JUMPDEST SWAP1 POP SWAP2 SWAP1 POP JUMP JUMPDEST PUSH32 0x4E487B7100000000000000000000000000000000000000000000000000000000 PUSH0 MSTORE PUSH1 0x32 PUSH1 0x4 MSTORE PUSH1 0x24 PUSH0 REVERT JUMPDEST PUSH32 0x4E487B7100000000000000000000000000000000000000000000000000000000 PUSH0 MSTORE PUSH1 0x11 PUSH1 0x4 MSTORE PUSH1 0x24 PUSH0 REVERT JUMPDEST PUSH0 PUSH2 0x1A74 DUP3 PUSH2 0x11C3 JUMP JUMPDEST SWAP2 POP PUSH2 0x1A7F DUP4 PUSH2 0x11C3 JUMP JUMPDEST SWAP3 POP DUP3 DUP3 SUB SWAP1 POP DUP2 DUP2 GT ISZERO PUSH2 0x1A97 JUMPI PUSH2 0x1A96 PUSH2 0x1A3D JUMP JUMPDEST JUMPDEST SWAP3 SWAP2 POP POP JUMP JUMPDEST PUSH32 0x4E487B7100000000000000000000000000000000000000000000000000000000 PUSH0 MSTORE PUSH1 0x31 PUSH1 0x4 MSTORE PUSH1 0x24 PUSH0 REVERT JUMPDEST PUSH32 0x43414E4E4F542041444420424F4F4B20495420414C5245414459204558495354 PUSH0 DUP3 ADD MSTORE PUSH32 0x5300000000000000000000000000000000000000000000000000000000000000 PUSH1 0x20 DUP3 ADD MSTORE POP JUMP JUMPDEST PUSH0 PUSH2 0x1B24 PUSH1 0x21 DUP4 PUSH2 0x135D JUMP JUMPDEST SWAP2 POP PUSH2 0x1B2F DUP3 PUSH2 0x1ACA JUMP JUMPDEST PUSH1 0x40 DUP3 ADD SWAP1 POP SWAP2 SWAP1 POP JUMP JUMPDEST PUSH0 PUSH1 0x20 DUP3 ADD SWAP1 POP DUP2 DUP2 SUB PUSH0 DUP4 ADD MSTORE PUSH2 0x1B51 DUP2 PUSH2 0x1B18 JUMP JUMPDEST SWAP1 POP SWAP2 SWAP1 POP JUMP JUMPDEST PUSH0 DUP2 SWAP1 POP DUP2 PUSH0 MSTORE PUSH1 0x20 PUSH0 KECCAK256 SWAP1 POP SWAP2 SWAP1 POP JUMP JUMPDEST PUSH0 PUSH1 0x20 PUSH1 0x1F DUP4 ADD DIV SWAP1 POP SWAP2 SWAP1 POP JUMP JUMPDEST PUSH0 DUP3 DUP3 SHL SWAP1 POP SWAP3 SWAP2 POP POP JUMP JUMPDEST PUSH0 PUSH1 0x8 DUP4 MUL PUSH2 0x1BB4 PUSH32 0xFFFFFFFFFFFFFFFFFFFFFFFFFFFFFFFFFFFFFFFFFFFFFFFFFFFFFFFFFFFFFFFF DUP3 PUSH2 0x1B79 JUMP JUMPDEST PUSH2 0x1BBE DUP7 DUP4 PUSH2 0x1B79 JUMP JUMPDEST SWAP6 POP DUP1 NOT DUP5 AND SWAP4 POP DUP1 DUP7 AND DUP5 OR SWAP3 POP POP POP SWAP4 SWAP3 POP POP POP JUMP JUMPDEST PUSH0 DUP2 SWAP1 POP SWAP2 SWAP1 POP JUMP JUMPDEST PUSH0 PUSH2 0x1BF9 PUSH2 0x1BF4 PUSH2 0x1BEF DUP5 PUSH2 0x11C3 JUMP JUMPDEST PUSH2 0x1BD6 JUMP JUMPDEST PUSH2 0x11C3 JUMP JUMPDEST SWAP1 POP SWAP2 SWAP1 POP JUMP JUMPDEST PUSH0 DUP2 SWAP1 POP SWAP2 SWAP1 POP JUMP JUMPDEST PUSH2 0x1C12 DUP4 PUSH2 0x1BDF JUMP JUMPDEST PUSH2 0x1C26 PUSH2 0x1C1E DUP3 PUSH2 0x1C00 JUMP JUMPDEST DUP5 DUP5 SLOAD PUSH2 0x1B85 JUMP JUMPDEST DUP3 SSTORE POP POP POP POP JUMP JUMPDEST PUSH0 SWAP1 JUMP JUMPDEST PUSH2 0x1C3A PUSH2 0x1C2E JUMP JUMPDEST PUSH2 0x1C45 DUP2 DUP5 DUP5 PUSH2 0x1C09 JUMP JUMPDEST POP POP POP JUMP JUMPDEST JUMPDEST DUP2 DUP2 LT ISZERO PUSH2 0x1C68 JUMPI PUSH2 0x1C5D PUSH0 DUP3 PUSH2 0x1C32 JUMP JUMPDEST PUSH1 0x1 DUP2 ADD SWAP1 POP PUSH2 0x1C4B JUMP JUMPDEST POP POP JUMP JUMPDEST PUSH1 0x1F DUP3 GT ISZERO PUSH2 0x1CAD JUMPI PUSH2 0x1C7E DUP2 PUSH2 0x1B58 JUMP JUMPDEST PUSH2 0x1C87 DUP5 PUSH2 0x1B6A JUMP JUMPDEST DUP2 ADD PUSH1 0x20 DUP6 LT ISZERO PUSH2 0x1C96 JUMPI DUP2 SWAP1 POP JUMPDEST PUSH2 0x1CAA PUSH2 0x1CA2 DUP6 PUSH2 0x1B6A JUMP JUMPDEST DUP4 ADD DUP3 PUSH2 0x1C4A JUMP JUMPDEST POP POP JUMPDEST POP POP POP JUMP JUMPDEST PUSH0 DUP3 DUP3 SHR SWAP1 POP SWAP3 SWAP2 POP POP JUMP JUMPDEST PUSH0 PUSH2 0x1CCD PUSH0 NOT DUP5 PUSH1 0x8 MUL PUSH2 0x1CB2 JUMP JUMPDEST NOT DUP1 DUP4 AND SWAP2 POP POP SWAP3 SWAP2 POP POP JUMP JUMPDEST PUSH0 PUSH2 0x1CE5 DUP4 DUP4 PUSH2 0x1CBE JUMP JUMPDEST SWAP2 POP DUP3 PUSH1 0x2 MUL DUP3 OR SWAP1 POP SWAP3 SWAP2 POP POP JUMP JUMPDEST PUSH2 0x1CFE DUP3 PUSH2 0x1353 JUMP JUMPDEST PUSH8 0xFFFFFFFFFFFFFFFF DUP2 GT ISZERO PUSH2 0x1D17 JUMPI PUSH2 0x1D16 PUSH2 0x14FD JUMP JUMPDEST JUMPDEST PUSH2 0x1D21 DUP3 SLOAD PUSH2 0x1978 JUMP JUMPDEST PUSH2 0x1D2C DUP3 DUP3 DUP6 PUSH2 0x1C6C JUMP JUMPDEST PUSH0 PUSH1 0x20 SWAP1 POP PUSH1 0x1F DUP4 GT PUSH1 0x1 DUP2 EQ PUSH2 0x1D5D JUMPI PUSH0 DUP5 ISZERO PUSH2 0x1D4B JUMPI DUP3 DUP8 ADD MLOAD SWAP1 POP JUMPDEST PUSH2 0x1D55 DUP6 DUP3 PUSH2 0x1CDA JUMP JUMPDEST DUP7 SSTORE POP PUSH2 0x1DBC JUMP JUMPDEST PUSH1 0x1F NOT DUP5 AND PUSH2 0x1D6B DUP7 PUSH2 0x1B58 JUMP JUMPDEST PUSH0 JUMPDEST DUP3 DUP2 LT ISZERO PUSH2 0x1D92 JUMPI DUP5 DUP10 ADD MLOAD DUP3 SSTORE PUSH1 0x1 DUP3 ADD SWAP2 POP PUSH1 0x20 DUP6 ADD SWAP5 POP PUSH1 0x20 DUP2 ADD SWAP1 POP PUSH2 0x1D6D JUMP JUMPDEST DUP7 DUP4 LT ISZERO PUSH2 0x1DAF JUMPI DUP5 DUP10 ADD MLOAD PUSH2 0x1DAB PUSH1 0x1F DUP10 AND DUP3 PUSH2 0x1CBE JUMP JUMPDEST DUP4 SSTORE POP JUMPDEST PUSH1 0x1 PUSH1 0x2 DUP9 MUL ADD DUP9 SSTORE POP POP POP JUMPDEST POP POP POP POP POP POP JUMP JUMPDEST PUSH0 PUSH2 0x1DDE PUSH2 0x1DD9 PUSH2 0x1DD4 DUP5 PUSH2 0x1422 JUMP JUMPDEST PUSH2 0x1BD6 JUMP JUMPDEST PUSH2 0x11C3 JUMP JUMPDEST SWAP1 POP SWAP2 SWAP1 POP JUMP JUMPDEST PUSH2 0x1DEE DUP2 PUSH2 0x1DC4 JUMP JUMPDEST DUP3 MSTORE POP POP JUMP JUMPDEST PUSH0 PUSH1 0x80 DUP3 ADD SWAP1 POP DUP2 DUP2 SUB PUSH0 DUP4 ADD MSTORE PUSH2 0x1E0C DUP2 DUP8 PUSH2 0x138B JUMP JUMPDEST SWAP1 POP DUP2 DUP2 SUB PUSH1 0x20 DUP4 ADD MSTORE PUSH2 0x1E20 DUP2 DUP7 PUSH2 0x138B JUMP JUMPDEST SWAP1 POP PUSH2 0x1E2F PUSH1 0x40 DUP4 ADD DUP6 PUSH2 0x132B JUMP JUMPDEST PUSH2 0x1E3C PUSH1 0x60 DUP4 ADD DUP5 PUSH2 0x1DE5 JUMP JUMPDEST SWAP6 SWAP5 POP POP POP POP POP JUMP JUMPDEST PUSH32 0x5468697320626F6F6B206973206E6F7420617661696C61626C65000000000000 PUSH0 DUP3 ADD MSTORE POP JUMP JUMPDEST PUSH0 PUSH2 0x1E79 PUSH1 0x1A DUP4 PUSH2 0x135D JUMP JUMPDEST SWAP2 POP PUSH2 0x1E84 DUP3 PUSH2 0x1E45 JUMP JUMPDEST PUSH1 0x20 DUP3 ADD SWAP1 POP SWAP2 SWAP1 POP JUMP JUMPDEST PUSH0 PUSH1 0x20 DUP3 ADD SWAP1 POP DUP2 DUP2 SUB PUSH0 DUP4 ADD MSTORE PUSH2 0x1EA6 DUP2 PUSH2 0x1E6D JUMP JUMPDEST SWAP1 POP SWAP2 SWAP1 POP JUMP JUMPDEST PUSH32 0x4E6F7420656E6F7567682073746F636B20617661696C61626C65000000000000 PUSH0 DUP3 ADD MSTORE POP JUMP JUMPDEST PUSH0 PUSH2 0x1EE1 PUSH1 0x1A DUP4 PUSH2 0x135D JUMP JUMPDEST SWAP2 POP PUSH2 0x1EEC DUP3 PUSH2 0x1EAD JUMP JUMPDEST PUSH1 0x20 DUP3 ADD SWAP1 POP SWAP2 SWAP1 POP JUMP JUMPDEST PUSH0 PUSH1 0x20 DUP3 ADD SWAP1 POP DUP2 DUP2 SUB PUSH0 DUP4 ADD MSTORE PUSH2 0x1F0E DUP2 PUSH2 0x1ED5 JUMP JUMPDEST SWAP1 POP SWAP2 SWAP1 POP JUMP JUMPDEST PUSH0 PUSH2 0x1F1F DUP3 PUSH2 0x11C3 JUMP JUMPDEST SWAP2 POP PUSH2 0x1F2A DUP4 PUSH2 0x11C3 JUMP JUMPDEST SWAP3 POP DUP3 DUP3 MUL PUSH2 0x1F38 DUP2 PUSH2 0x11C3 JUMP JUMPDEST SWAP2 POP DUP3 DUP3 DIV DUP5 EQ DUP4 ISZERO OR PUSH2 0x1F4F JUMPI PUSH2 0x1F4E PUSH2 0x1A3D JUMP JUMPDEST JUMPDEST POP SWAP3 SWAP2 POP POP JUMP JUMPDEST PUSH32 0x496E636F7272656374207061796D656E7420616D6F756E740000000000000000 PUSH0 DUP3 ADD MSTORE POP JUMP JUMPDEST PUSH0 PUSH2 0x1F8A PUSH1 0x18 DUP4 PUSH2 0x135D JUMP JUMPDEST SWAP2 POP PUSH2 0x1F95 DUP3 PUSH2 0x1F56 JUMP JUMPDEST PUSH1 0x20 DUP3 ADD SWAP1 POP SWAP2 SWAP1 POP JUMP JUMPDEST PUSH0 PUSH1 0x20 DUP3 ADD SWAP1 POP DUP2 DUP2 SUB PUSH0 DUP4 ADD MSTORE PUSH2 0x1FB7 DUP2 PUSH2 0x1F7E JUMP JUMPDEST SWAP1 POP SWAP2 SWAP1 POP JUMP JUMPDEST PUSH0 PUSH2 0x1FC8 DUP3 PUSH2 0x11C3 JUMP JUMPDEST SWAP2 POP PUSH2 0x1FD3 DUP4 PUSH2 0x11C3 JUMP JUMPDEST SWAP3 POP DUP3 DUP3 ADD SWAP1 POP DUP1 DUP3 GT ISZERO PUSH2 0x1FEB JUMPI PUSH2 0x1FEA PUSH2 0x1A3D JUMP JUMPDEST JUMPDEST SWAP3 SWAP2 POP POP JUMP JUMPDEST PUSH0 PUSH1 0x40 DUP3 ADD SWAP1 POP PUSH2 0x2004 PUSH0 DUP4 ADD DUP6 PUSH2 0x132B JUMP JUMPDEST PUSH2 0x2011 PUSH1 0x20 DUP4 ADD DUP5 PUSH2 0x132B JUMP JUMPDEST SWAP4 SWAP3 POP POP POP JUMP INVALID LOG2 PUSH5 0x6970667358 0x22 SLT KECCAK256 SWAP14 SWAP4 0xE9 0xC4 EXTCODESIZE 0x29 PUSH31 0x15075B396D5EEDF9C3120D69B7A2C0F66449080BCA0494B5D764736F6C6343 STOP ADDMOD BYTE STOP CALLER "
		},
		"gasEstimates": {
			"creation": {
				"codeDepositCost": "1654000",
				"executionCost": "infinite",
				"totalCost": "infinite"
			},
			"external": {
				"addBook(uint256,string,string,uint256,uint16)": "infinite",
				"bestseller(uint256)": "2809",
				"bookIds(uint256)": "infinite",
				"books(uint256)": "infinite",
				"buyBook(uint256,uint256,uint256)": "infinite",
				"getAllBooks()": "infinite",
				"getBooks(uint256)": "infinite",
				"getOwnerBalance()": "5118",
				"getTotalBooksSold()": "2477",
				"isBestSeller(uint256)": "2876",
				"markBookAsBestSeller(uint256)": "30377",
				"owner()": "2528",
				"removeBook(uint256)": "infinite",
				"removeBooks(uint256[])": "infinite"
			}
		},
		"methodIdentifiers": {
			"addBook(uint256,string,string,uint256,uint16)": "d0289085",
			"bestseller(uint256)": "1f9b7ad8",
			"bookIds(uint256)": "513073b8",
			"books(uint256)": "68744046",
			"buyBook(uint256,uint256,uint256)": "f346e2b7",
			"getAllBooks()": "354528e8",
			"getBooks(uint256)": "5ac3e19e",
			"getOwnerBalance()": "590791f2",
			"getTotalBooksSold()": "9bd30883",
			"isBestSeller(uint256)": "f60560de",
			"markBookAsBestSeller(uint256)": "3bf561ed",
			"owner()": "8da5cb5b",
			"removeBook(uint256)": "bec0d799",
			"removeBooks(uint256[])": "f98520de"
		}
	},
	"abi": [
		{
			"inputs": [
				{
					"internalType": "address",
					"name": "_owner",
					"type": "address"
				}
			],
			"stateMutability": "nonpayable",
			"type": "constructor"
		},
		{
			"anonymous": false,
			"inputs": [
				{
					"indexed": true,
					"internalType": "uint256",
					"name": "bookId",
					"type": "uint256"
				},
				{
					"indexed": false,
					"internalType": "string",
					"name": "title",
					"type": "string"
				},
				{
					"indexed": false,
					"internalType": "string",
					"name": "author",
					"type": "string"
				},
				{
					"indexed": false,
					"internalType": "uint256",
					"name": "price",
					"type": "uint256"
				},
				{
					"indexed": false,
					"internalType": "uint256",
					"name": "stock",
					"type": "uint256"
				}
			],
			"name": "BookAdded",
			"type": "event"
		},
		{
			"anonymous": false,
			"inputs": [
				{
					"indexed": false,
					"internalType": "uint256[]",
					"name": "bookIds",
					"type": "uint256[]"
				}
			],
			"name": "BookBatchRemoved",
			"type": "event"
		},
		{
			"anonymous": false,
			"inputs": [
				{
					"indexed": true,
					"internalType": "uint256",
					"name": "bookId",
					"type": "uint256"
				}
			],
			"name": "BookMarkedAsBestSeller",
			"type": "event"
		},
		{
			"anonymous": false,
			"inputs": [
				{
					"indexed": false,
					"internalType": "uint256",
					"name": "bookId",
					"type": "uint256"
				},
				{
					"indexed": true,
					"internalType": "address",
					"name": "buyer",
					"type": "address"
				},
				{
					"indexed": false,
					"internalType": "uint256",
					"name": "quantity",
					"type": "uint256"
				}
			],
			"name": "BookPurchased",
			"type": "event"
		},
		{
			"anonymous": false,
			"inputs": [
				{
					"indexed": true,
					"internalType": "uint256",
					"name": "bookId",
					"type": "uint256"
				}
			],
			"name": "BookRemoved",
			"type": "event"
		},
		{
			"inputs": [
				{
					"internalType": "uint256",
					"name": "_bookId",
					"type": "uint256"
				},
				{
					"internalType": "string",
					"name": "_title",
					"type": "string"
				},
				{
					"internalType": "string",
					"name": "_author",
					"type": "string"
				},
				{
					"internalType": "uint256",
					"name": "_stock",
					"type": "uint256"
				},
				{
					"internalType": "uint16",
					"name": "_price",
					"type": "uint16"
				}
			],
			"name": "addBook",
			"outputs": [],
			"stateMutability": "nonpayable",
			"type": "function"
		},
		{
			"inputs": [
				{
					"internalType": "uint256",
					"name": "",
					"type": "uint256"
				}
			],
			"name": "bestseller",
			"outputs": [
				{
					"internalType": "bool",
					"name": "",
					"type": "bool"
				}
			],
			"stateMutability": "view",
			"type": "function"
		},
		{
			"inputs": [
				{
					"internalType": "uint256",
					"name": "",
					"type": "uint256"
				}
			],
			"name": "bookIds",
			"outputs": [
				{
					"internalType": "uint256",
					"name": "",
					"type": "uint256"
				}
			],
			"stateMutability": "view",
			"type": "function"
		},
		{
			"inputs": [
				{
					"internalType": "uint256",
					"name": "",
					"type": "uint256"
				}
			],
			"name": "books",
			"outputs": [
				{
					"internalType": "string",
					"name": "title",
					"type": "string"
				},
				{
					"internalType": "string",
					"name": "author",
					"type": "string"
				},
				{
					"internalType": "uint16",
					"name": "price",
					"type": "uint16"
				},
				{
					"internalType": "uint256",
					"name": "stock",
					"type": "uint256"
				},
				{
					"internalType": "bool",
					"name": "isAvailable",
					"type": "bool"
				}
			],
			"stateMutability": "view",
			"type": "function"
		},
		{
			"inputs": [
				{
					"internalType": "uint256",
					"name": "_bookId",
					"type": "uint256"
				},
				{
					"internalType": "uint256",
					"name": "_quantity",
					"type": "uint256"
				},
				{
					"internalType": "uint256",
					"name": "_amount",
					"type": "uint256"
				}
			],
			"name": "buyBook",
			"outputs": [],
			"stateMutability": "payable",
			"type": "function"
		},
		{
			"inputs": [],
			"name": "getAllBooks",
			"outputs": [
				{
					"internalType": "uint256[]",
					"name": "",
					"type": "uint256[]"
				}
			],
			"stateMutability": "view",
			"type": "function"
		},
		{
			"inputs": [
				{
					"internalType": "uint256",
					"name": "_bookId",
					"type": "uint256"
				}
			],
			"name": "getBooks",
			"outputs": [
				{
					"internalType": "string",
					"name": "",
					"type": "string"
				},
				{
					"internalType": "string",
					"name": "",
					"type": "string"
				},
				{
					"internalType": "uint256",
					"name": "",
					"type": "uint256"
				},
				{
					"internalType": "uint256",
					"name": "",
					"type": "uint256"
				},
				{
					"internalType": "bool",
					"name": "",
					"type": "bool"
				}
			],
			"stateMutability": "view",
			"type": "function"
		},
		{
			"inputs": [],
			"name": "getOwnerBalance",
			"outputs": [
				{
					"internalType": "uint256",
					"name": "",
					"type": "uint256"
				}
			],
			"stateMutability": "view",
			"type": "function"
		},
		{
			"inputs": [],
			"name": "getTotalBooksSold",
			"outputs": [
				{
					"internalType": "uint256",
					"name": "",
					"type": "uint256"
				}
			],
			"stateMutability": "view",
			"type": "function"
		},
		{
			"inputs": [
				{
					"internalType": "uint256",
					"name": "bookId",
					"type": "uint256"
				}
			],
			"name": "isBestSeller",
			"outputs": [
				{
					"internalType": "bool",
					"name": "",
					"type": "bool"
				}
			],
			"stateMutability": "view",
			"type": "function"
		},
		{
			"inputs": [
				{
					"internalType": "uint256",
					"name": "bookId",
					"type": "uint256"
				}
			],
			"name": "markBookAsBestSeller",
			"outputs": [],
			"stateMutability": "nonpayable",
			"type": "function"
		},
		{
			"inputs": [],
			"name": "owner",
			"outputs": [
				{
					"internalType": "address",
					"name": "",
					"type": "address"
				}
			],
			"stateMutability": "view",
			"type": "function"
		},
		{
			"inputs": [
				{
					"internalType": "uint256",
					"name": "_bookId",
					"type": "uint256"
				}
			],
			"name": "removeBook",
			"outputs": [],
			"stateMutability": "nonpayable",
			"type": "function"
		},
		{
			"inputs": [
				{
					"internalType": "uint256[]",
					"name": "_bookIds",
					"type": "uint256[]"
				}
			],
			"name": "removeBooks",
			"outputs": [],
			"stateMutability": "nonpayable",
			"type": "function"
		}
	]
}