{
	"data": {
		"bytecode": {
			"linkReferences": {},
			"object": "608060405234801561000f575f80fd5b50335f73ffffffffffffffffffffffffffffffffffffffff168173ffffffffffffffffffffffffffffffffffffffff1603610081575f6040517f1e4fbdf70000000000000000000000000000000000000000000000000000000081526004016100789190610196565b60405180910390fd5b6100908161009660201b60201c565b506101af565b5f805f9054906101000a900473ffffffffffffffffffffffffffffffffffffffff169050815f806101000a81548173ffffffffffffffffffffffffffffffffffffffff021916908373ffffffffffffffffffffffffffffffffffffffff1602179055508173ffffffffffffffffffffffffffffffffffffffff168173ffffffffffffffffffffffffffffffffffffffff167f8be0079c531659141344cd1fd0a4f28419497f9722a3daafe3b4186f6b6457e060405160405180910390a35050565b5f73ffffffffffffffffffffffffffffffffffffffff82169050919050565b5f61018082610157565b9050919050565b61019081610176565b82525050565b5f6020820190506101a95f830184610187565b92915050565b612b52806101bc5f395ff3fe608060405260043610610113575f3560e01c8063715018a61161009f578063e06ec38411610063578063e06ec384146103a9578063e5ca5302146103e5578063f2fde38b1461040d578063f46de7d414610435578063f98520de1461045157610113565b8063715018a6146102db5780638da5cb5b146102f15780639bd308831461031b578063a33c513214610345578063bec0d7991461038157610113565b8063590791f2116100e6578063590791f2146101cd57806359c75898146101f75780635ac3e19e1461023357806368744046146102735780636c42b8cd146102b357610113565b80631aec2cf91461011757806321e6de9d1461013f578063354528e8146101675780635745ae2814610191575b5f80fd5b348015610122575f80fd5b5061013d60048036038101906101389190611c33565b610479565b005b34801561014a575f80fd5b5061016560048036038101906101609190611d33565b61059e565b005b348015610172575f80fd5b5061017b610841565b6040516101889190611f15565b60405180910390f35b34801561019c575f80fd5b506101b760048036038101906101b29190611c33565b610997565b6040516101c49190611f4f565b60405180910390f35b3480156101d8575f80fd5b506101e16109b4565b6040516101ee9190611f77565b60405180910390f35b348015610202575f80fd5b5061021d60048036038101906102189190611c33565b6109d9565b60405161022a9190611f4f565b60405180910390f35b34801561023e575f80fd5b5061025960048036038101906102549190611f90565b610ab4565b60405161026a959493929190612012565b60405180910390f35b34801561027e575f80fd5b5061029960048036038101906102949190611f90565b610c46565b6040516102aa959493929190612071565b60405180910390f35b3480156102be575f80fd5b506102d960048036038101906102d491906120d0565b610dbe565b005b3480156102e6575f80fd5b506102ef611049565b005b3480156102fc575f80fd5b5061030561105c565b604051610312919061211d565b60405180910390f35b348015610326575f80fd5b5061032f611083565b60405161033c9190612136565b60405180910390f35b348015610350575f80fd5b5061036b60048036038101906103669190611c33565b6110a3565b6040516103789190611f77565b60405180910390f35b34801561038c575f80fd5b506103a760048036038101906103a29190611f90565b6110bd565b005b3480156103b4575f80fd5b506103cf60048036038101906103ca9190611c33565b6112a6565b6040516103dc9190611f77565b60405180910390f35b3480156103f0575f80fd5b5061040b60048036038101906104069190611c33565b61136f565b005b348015610418575f80fd5b50610433600480360381019061042e9190611c33565b61148a565b005b61044f600480360381019061044a919061214f565b61150e565b005b34801561045c575f80fd5b50610477600480360381019061047291906121e2565b611526565b005b60025f8273ffffffffffffffffffffffffffffffffffffffff1673ffffffffffffffffffffffffffffffffffffffff1681526020019081526020015f205f9054906101000a900460ff1615610503576040517f08c379a00000000000000000000000000000000000000000000000000000000081526004016104fa90612277565b60405180910390fd5b600160025f8373ffffffffffffffffffffffffffffffffffffffff1673ffffffffffffffffffffffffffffffffffffffff1681526020019081526020015f205f6101000a81548160ff0219169083151502179055508073ffffffffffffffffffffffffffffffffffffffff167f64814cf4dee184dc70c8d41b259875da94b26650e5dd3955eb0741764d1b445560405160405180910390a250565b5f60015f8981526020019081526020015f205f01600c9054906101000a90046bffffffffffffffffffffffff166bffffffffffffffffffffffff1614610619576040517f08c379a0000000000000000000000000000000000000000000000000000000008152600401610610906122df565b60405180910390fd5b6040518060a00160405280836bffffffffffffffffffffffff168152602001670de0b6b3a76400008361064c919061232a565b6bffffffffffffffffffffffff1681526020015f846bffffffffffffffffffffffff16111515815260200187878080601f0160208091040260200160405190810160405280939291908181526020018383808284375f81840152601f19601f82011690508083019250505050505050815260200185858080601f0160208091040260200160405190810160405280939291908181526020018383808284375f81840152601f19601f8201169050808301925050505050505081525060015f8981526020019081526020015f205f820151815f015f6101000a8154816bffffffffffffffffffffffff02191690836bffffffffffffffffffffffff1602179055506020820151815f01600c6101000a8154816bffffffffffffffffffffffff02191690836bffffffffffffffffffffffff1602179055506040820151815f0160186101000a81548160ff02191690831515021790555060608201518160010190816107b6919061258d565b5060808201518160020190816107cc919061258d565b50905050600387908060018154018082558091505060019003905f5260205f20015f9091909190915055867f907463480edcb1016ad34b5c752a56e18c2aea6ed1dd0e18ec287d63d670d88f87878787868860405161083096959493929190612696565b60405180910390a250505050505050565b60605f60038054905067ffffffffffffffff81111561086357610862612366565b5b60405190808252806020026020018201604052801561089657816020015b60608152602001906001900390816108815790505b5090505f5b60038054905081101561098f575f60015f600384815481106108c0576108bf6126eb565b5b905f5260205f20015481526020019081526020015f2090508060010180546108e7906123c0565b80601f0160208091040260200160405190810160405280929190818152602001828054610913906123c0565b801561095e5780601f106109355761010080835404028352916020019161095e565b820191905f5260205f20905b81548152906001019060200180831161094157829003601f168201915b5050505050838381518110610976576109756126eb565b5b602002602001018190525081806001019250505061089b565b508091505090565b6002602052805f5260405f205f915054906101000a900460ff1681565b5f6109bd61105c565b73ffffffffffffffffffffffffffffffffffffffff1631905090565b5f60025f8373ffffffffffffffffffffffffffffffffffffffff1673ffffffffffffffffffffffffffffffffffffffff1681526020019081526020015f205f9054906101000a900460ff16610a63576040517f08c379a0000000000000000000000000000000000000000000000000000000008152600401610a5a90612762565b60405180910390fd5b60025f8373ffffffffffffffffffffffffffffffffffffffff1673ffffffffffffffffffffffffffffffffffffffff1681526020019081526020015f205f9054906101000a900460ff169050919050565b6060805f805f8060015f8881526020019081526020015f2090508060010181600201825f01600c9054906101000a90046bffffffffffffffffffffffff16835f015f9054906101000a90046bffffffffffffffffffffffff16845f0160189054906101000a900460ff16848054610b2a906123c0565b80601f0160208091040260200160405190810160405280929190818152602001828054610b56906123c0565b8015610ba15780601f10610b7857610100808354040283529160200191610ba1565b820191905f5260205f20905b815481529060010190602001808311610b8457829003601f168201915b50505050509450838054610bb4906123c0565b80601f0160208091040260200160405190810160405280929190818152602001828054610be0906123c0565b8015610c2b5780601f10610c0257610100808354040283529160200191610c2b565b820191905f5260205f20905b815481529060010190602001808311610c0e57829003601f168201915b50505050509350955095509550955095505091939590929450565b6001602052805f5260405f205f91509050805f015f9054906101000a90046bffffffffffffffffffffffff1690805f01600c9054906101000a90046bffffffffffffffffffffffff1690805f0160189054906101000a900460ff1690806001018054610cb1906123c0565b80601f0160208091040260200160405190810160405280929190818152602001828054610cdd906123c0565b8015610d285780601f10610cff57610100808354040283529160200191610d28565b820191905f5260205f20905b815481529060010190602001808311610d0b57829003601f168201915b505050505090806002018054610d3d906123c0565b80601f0160208091040260200160405190810160405280929190818152602001828054610d69906123c0565b8015610db45780601f10610d8b57610100808354040283529160200191610db4565b820191905f5260205f20905b815481529060010190602001808311610d9757829003601f168201915b5050505050905085565b5f80670de0b6b3a7640000905080831015610ddc57600a9150610ea4565b808310158015610df75750806003610df49190612780565b83105b15610e0557600f9150610ea3565b806003610e129190612780565b8310158015610e2c5750806005610e299190612780565b83105b15610e3a5760149150610ea2565b806005610e479190612780565b8310158015610e615750806008610e5e9190612780565b83105b15610e6f5760199150610ea1565b806008610e7c9190612780565b8310158015610e96575080600a610e939190612780565b83105b15610ea057601e91505b5b5b5b5b5f60055f8673ffffffffffffffffffffffffffffffffffffffff1673ffffffffffffffffffffffffffffffffffffffff1681526020019081526020015f206040518060200160405290815f8201548152505090505f815f01511115610f5d578260055f8773ffffffffffffffffffffffffffffffffffffffff1673ffffffffffffffffffffffffffffffffffffffff1681526020019081526020015f205f015f828254610f5191906127c1565b92505081905550610fb5565b60405180602001604052808481525060055f8773ffffffffffffffffffffffffffffffffffffffff1673ffffffffffffffffffffffffffffffffffffffff1681526020019081526020015f205f820151815f01559050505b8473ffffffffffffffffffffffffffffffffffffffff167f2e09d9493c8a88b72578fd23604d9b5425c9be0fa86f8b58c76e2be94bcee6a960055f8873ffffffffffffffffffffffffffffffffffffffff1673ffffffffffffffffffffffffffffffffffffffff1681526020019081526020015f205f015460405161103a9190611f77565b60405180910390a25050505050565b611051611758565b61105a5f6117df565b565b5f805f9054906101000a900473ffffffffffffffffffffffffffffffffffffffff16905090565b5f60045f9054906101000a90046bffffffffffffffffffffffff16905090565b6005602052805f5260405f205f91509050805f0154905081565b6110c5611758565b5f60015f8381526020019081526020015f205f01600c9054906101000a90046bffffffffffffffffffffffff166bffffffffffffffffffffffff1603611140576040517f08c379a00000000000000000000000000000000000000000000000000000000081526004016111379061283e565b60405180910390fd5b60015f8281526020019081526020015f205f8082015f6101000a8154906bffffffffffffffffffffffff02191690555f8201600c6101000a8154906bffffffffffffffffffffffff02191690555f820160186101000a81549060ff0219169055600182015f6111af9190611b79565b600282015f6111be9190611b79565b50505f5b6003805490508110156112755781600382815481106111e4576111e36126eb565b5b905f5260205f2001540361126a5760036001600380549050611206919061285c565b81548110611217576112166126eb565b5b905f5260205f20015460038281548110611234576112336126eb565b5b905f5260205f20018190555060038054806112525761125161288f565b5b600190038181905f5260205f20015f90559055611275565b8060010190506111c2565b50807f3c5ce13264433bcf97e5d53c97af4fc33800e8c9dd927f965b116d0018d7cddf60405160405180910390a250565b5f8060055f8473ffffffffffffffffffffffffffffffffffffffff1673ffffffffffffffffffffffffffffffffffffffff1681526020019081526020015f205f015411611328576040517f08c379a000000000000000000000000000000000000000000000000000000000815260040161131f9061292c565b60405180910390fd5b60055f8373ffffffffffffffffffffffffffffffffffffffff1673ffffffffffffffffffffffffffffffffffffffff1681526020019081526020015f205f01549050919050565b60025f8273ffffffffffffffffffffffffffffffffffffffff1673ffffffffffffffffffffffffffffffffffffffff1681526020019081526020015f205f9054906101000a900460ff166113f8576040517f08c379a00000000000000000000000000000000000000000000000000000000081526004016113ef90612762565b60405180910390fd5b60025f8273ffffffffffffffffffffffffffffffffffffffff1673ffffffffffffffffffffffffffffffffffffffff1681526020019081526020015f205f6101000a81549060ff02191690558073ffffffffffffffffffffffffffffffffffffffff167f5aaa4a885fe8afe482f8bb71a9c6e47dfcd1598f5f7eeee4a57f0ccb9e2b76b560405160405180910390a250565b611492611758565b5f73ffffffffffffffffffffffffffffffffffffffff168173ffffffffffffffffffffffffffffffffffffffff1603611502575f6040517f1e4fbdf70000000000000000000000000000000000000000000000000000000081526004016114f9919061211d565b60405180910390fd5b61150b816117df565b50565b61151882826118a0565b6115223334610dbe565b5050565b61152e611758565b5f8282905090505f5b81811015611719575f848483818110611553576115526126eb565b5b9050602002013590505f60015f8381526020019081526020015f205f01600c9054906101000a90046bffffffffffffffffffffffff166bffffffffffffffffffffffff16036115d7576040517f08c379a00000000000000000000000000000000000000000000000000000000081526004016115ce9061283e565b60405180910390fd5b60015f8281526020019081526020015f205f8082015f6101000a8154906bffffffffffffffffffffffff02191690555f8201600c6101000a8154906bffffffffffffffffffffffff02191690555f820160186101000a81549060ff0219169055600182015f6116469190611b79565b600282015f6116559190611b79565b50505f5b60038054905081101561170c57816003828154811061167b5761167a6126eb565b5b905f5260205f20015403611701576003600160038054905061169d919061285c565b815481106116ae576116ad6126eb565b5b905f5260205f200154600382815481106116cb576116ca6126eb565b5b905f5260205f20018190555060038054806116e9576116e861288f565b5b600190038181905f5260205f20015f9055905561170c565b806001019050611659565b5081600101915050611537565b507f7262be1e48c30c363173fcb2fbf2dc2cb38d076dee42cc37cdfbdf62af5c3bed838360405161174b9291906129c2565b60405180910390a1505050565b611760611b72565b73ffffffffffffffffffffffffffffffffffffffff1661177e61105c565b73ffffffffffffffffffffffffffffffffffffffff16146117dd576117a1611b72565b6040517f118cdaa70000000000000000000000000000000000000000000000000000000081526004016117d4919061211d565b60405180910390fd5b565b5f805f9054906101000a900473ffffffffffffffffffffffffffffffffffffffff169050815f806101000a81548173ffffffffffffffffffffffffffffffffffffffff021916908373ffffffffffffffffffffffffffffffffffffffff1602179055508173ffffffffffffffffffffffffffffffffffffffff168173ffffffffffffffffffffffffffffffffffffffff167f8be0079c531659141344cd1fd0a4f28419497f9722a3daafe3b4186f6b6457e060405160405180910390a35050565b5f60015f8481526020019081526020015f209050805f0160189054906101000a900460ff16611904576040517f08c379a00000000000000000000000000000000000000000000000000000000081526004016118fb90612a2e565b60405180910390fd5b816bffffffffffffffffffffffff16815f015f9054906101000a90046bffffffffffffffffffffffff166bffffffffffffffffffffffff16101561197d576040517f08c379a000000000000000000000000000000000000000000000000000000000815260040161197490612a96565b60405180910390fd5b81815f01600c9054906101000a90046bffffffffffffffffffffffff166119a4919061232a565b6bffffffffffffffffffffffff1634146119f3576040517f08c379a00000000000000000000000000000000000000000000000000000000081526004016119ea90612afe565b60405180910390fd5b81815f015f8282829054906101000a90046bffffffffffffffffffffffff160392506101000a8154816bffffffffffffffffffffffff02191690836bffffffffffffffffffffffff1602179055508160045f8282829054906101000a90046bffffffffffffffffffffffff160192506101000a8154816bffffffffffffffffffffffff02191690836bffffffffffffffffffffffff1602179055505f815f015f9054906101000a90046bffffffffffffffffffffffff166bffffffffffffffffffffffff1611815f0160186101000a81548160ff021916908315150217905550611adb61105c565b73ffffffffffffffffffffffffffffffffffffffff166108fc3490811502906040515f60405180830381858888f19350505050158015611b1d573d5f803e3d5ffd5b503373ffffffffffffffffffffffffffffffffffffffff16837f4e8e9bc53224dd7f5549d1a97fe174d12e6ff0064e2ccb78d886fc515c98859d84604051611b659190612136565b60405180910390a3505050565b5f33905090565b508054611b85906123c0565b5f825580601f10611b965750611bb3565b601f0160209004905f5260205f2090810190611bb29190611bb6565b5b50565b5b80821115611bcd575f815f905550600101611bb7565b5090565b5f80fd5b5f80fd5b5f73ffffffffffffffffffffffffffffffffffffffff82169050919050565b5f611c0282611bd9565b9050919050565b611c1281611bf8565b8114611c1c575f80fd5b50565b5f81359050611c2d81611c09565b92915050565b5f60208284031215611c4857611c47611bd1565b5b5f611c5584828501611c1f565b91505092915050565b5f819050919050565b611c7081611c5e565b8114611c7a575f80fd5b50565b5f81359050611c8b81611c67565b92915050565b5f80fd5b5f80fd5b5f80fd5b5f8083601f840112611cb257611cb1611c91565b5b8235905067ffffffffffffffff811115611ccf57611cce611c95565b5b602083019150836001820283011115611ceb57611cea611c99565b5b9250929050565b5f6bffffffffffffffffffffffff82169050919050565b611d1281611cf2565b8114611d1c575f80fd5b50565b5f81359050611d2d81611d09565b92915050565b5f805f805f805f60a0888a031215611d4e57611d4d611bd1565b5b5f611d5b8a828b01611c7d565b975050602088013567ffffffffffffffff811115611d7c57611d7b611bd5565b5b611d888a828b01611c9d565b9650965050604088013567ffffffffffffffff811115611dab57611daa611bd5565b5b611db78a828b01611c9d565b94509450506060611dca8a828b01611d1f565b9250506080611ddb8a828b01611d1f565b91505092959891949750929550565b5f81519050919050565b5f82825260208201905092915050565b5f819050602082019050919050565b5f81519050919050565b5f82825260208201905092915050565b8281835e5f83830152505050565b5f601f19601f8301169050919050565b5f611e5582611e13565b611e5f8185611e1d565b9350611e6f818560208601611e2d565b611e7881611e3b565b840191505092915050565b5f611e8e8383611e4b565b905092915050565b5f602082019050919050565b5f611eac82611dea565b611eb68185611df4565b935083602082028501611ec885611e04565b805f5b85811015611f035784840389528151611ee48582611e83565b9450611eef83611e96565b925060208a01995050600181019050611ecb565b50829750879550505050505092915050565b5f6020820190508181035f830152611f2d8184611ea2565b905092915050565b5f8115159050919050565b611f4981611f35565b82525050565b5f602082019050611f625f830184611f40565b92915050565b611f7181611c5e565b82525050565b5f602082019050611f8a5f830184611f68565b92915050565b5f60208284031215611fa557611fa4611bd1565b5b5f611fb284828501611c7d565b91505092915050565b5f82825260208201905092915050565b5f611fd582611e13565b611fdf8185611fbb565b9350611fef818560208601611e2d565b611ff881611e3b565b840191505092915050565b61200c81611cf2565b82525050565b5f60a0820190508181035f83015261202a8188611fcb565b9050818103602083015261203e8187611fcb565b905061204d6040830186612003565b61205a6060830185612003565b6120676080830184611f40565b9695505050505050565b5f60a0820190506120845f830188612003565b6120916020830187612003565b61209e6040830186611f40565b81810360608301526120b08185611fcb565b905081810360808301526120c48184611fcb565b90509695505050505050565b5f80604083850312156120e6576120e5611bd1565b5b5f6120f385828601611c1f565b925050602061210485828601611c7d565b9150509250929050565b61211781611bf8565b82525050565b5f6020820190506121305f83018461210e565b92915050565b5f6020820190506121495f830184612003565b92915050565b5f806040838503121561216557612164611bd1565b5b5f61217285828601611c7d565b925050602061218385828601611d1f565b9150509250929050565b5f8083601f8401126121a2576121a1611c91565b5b8235905067ffffffffffffffff8111156121bf576121be611c95565b5b6020830191508360208202830111156121db576121da611c99565b5b9250929050565b5f80602083850312156121f8576121f7611bd1565b5b5f83013567ffffffffffffffff81111561221557612214611bd5565b5b6122218582860161218d565b92509250509250929050565b7f437573746f6d657220497320416c7265616479205375627363726962656421005f82015250565b5f612261601f83611fbb565b915061226c8261222d565b602082019050919050565b5f6020820190508181035f83015261228e81612255565b9050919050565b7f426f6f6b206578697374730000000000000000000000000000000000000000005f82015250565b5f6122c9600b83611fbb565b91506122d482612295565b602082019050919050565b5f6020820190508181035f8301526122f6816122bd565b9050919050565b7f4e487b71000000000000000000000000000000000000000000000000000000005f52601160045260245ffd5b5f61233482611cf2565b915061233f83611cf2565b925082820261234d81611cf2565b915080821461235f5761235e6122fd565b5b5092915050565b7f4e487b71000000000000000000000000000000000000000000000000000000005f52604160045260245ffd5b7f4e487b71000000000000000000000000000000000000000000000000000000005f52602260045260245ffd5b5f60028204905060018216806123d757607f821691505b6020821081036123ea576123e9612393565b5b50919050565b5f819050815f5260205f209050919050565b5f6020601f8301049050919050565b5f82821b905092915050565b5f6008830261244c7fffffffffffffffffffffffffffffffffffffffffffffffffffffffffffffffff82612411565b6124568683612411565b95508019841693508086168417925050509392505050565b5f819050919050565b5f61249161248c61248784611c5e565b61246e565b611c5e565b9050919050565b5f819050919050565b6124aa83612477565b6124be6124b682612498565b84845461241d565b825550505050565b5f90565b6124d26124c6565b6124dd8184846124a1565b505050565b5b81811015612500576124f55f826124ca565b6001810190506124e3565b5050565b601f82111561254557612516816123f0565b61251f84612402565b8101602085101561252e578190505b61254261253a85612402565b8301826124e2565b50505b505050565b5f82821c905092915050565b5f6125655f198460080261254a565b1980831691505092915050565b5f61257d8383612556565b9150826002028217905092915050565b61259682611e13565b67ffffffffffffffff8111156125af576125ae612366565b5b6125b982546123c0565b6125c4828285612504565b5f60209050601f8311600181146125f5575f84156125e3578287015190505b6125ed8582612572565b865550612654565b601f198416612603866123f0565b5f5b8281101561262a57848901518255600182019150602085019450602081019050612605565b868310156126475784890151612643601f891682612556565b8355505b6001600288020188555050505b505050505050565b828183375f83830152505050565b5f6126758385611fbb565b935061268283858461265c565b61268b83611e3b565b840190509392505050565b5f6080820190508181035f8301526126af81888a61266a565b905081810360208301526126c481868861266a565b90506126d36040830185612003565b6126e06060830184612003565b979650505050505050565b7f4e487b71000000000000000000000000000000000000000000000000000000005f52603260045260245ffd5b7f437573746f6d6572204973204e6f7420537562736372696265642100000000005f82015250565b5f61274c601b83611fbb565b915061275782612718565b602082019050919050565b5f6020820190508181035f83015261277981612740565b9050919050565b5f61278a82611c5e565b915061279583611c5e565b92508282026127a381611c5e565b915082820484148315176127ba576127b96122fd565b5b5092915050565b5f6127cb82611c5e565b91506127d683611c5e565b92508282019050808211156127ee576127ed6122fd565b5b92915050565b7f426f6f6b206e6f742065786973740000000000000000000000000000000000005f82015250565b5f612828600e83611fbb565b9150612833826127f4565b602082019050919050565b5f6020820190508181035f8301526128558161281c565b9050919050565b5f61286682611c5e565b915061287183611c5e565b9250828203905081811115612889576128886122fd565b5b92915050565b7f4e487b71000000000000000000000000000000000000000000000000000000005f52603160045260245ffd5b7f437573746f6d657220486173204e6f74204a6f696e656420546865204c6f79615f8201527f6c74792050726f6772616d210000000000000000000000000000000000000000602082015250565b5f612916602c83611fbb565b9150612921826128bc565b604082019050919050565b5f6020820190508181035f8301526129438161290a565b9050919050565b5f82825260208201905092915050565b5f80fd5b82818337505050565b5f612972838561294a565b93507f07ffffffffffffffffffffffffffffffffffffffffffffffffffffffffffffff8311156129a5576129a461295a565b5b6020830292506129b683858461295e565b82840190509392505050565b5f6020820190508181035f8301526129db818486612967565b90509392505050565b7f4e6f7420617661696c61626c65000000000000000000000000000000000000005f82015250565b5f612a18600d83611fbb565b9150612a23826129e4565b602082019050919050565b5f6020820190508181035f830152612a4581612a0c565b9050919050565b7f4e6f7420656e6f7567682073746f636b000000000000000000000000000000005f82015250565b5f612a80601083611fbb565b9150612a8b82612a4c565b602082019050919050565b5f6020820190508181035f830152612aad81612a74565b9050919050565b7f57726f6e67207061796d656e74000000000000000000000000000000000000005f82015250565b5f612ae8600d83611fbb565b9150612af382612ab4565b602082019050919050565b5f6020820190508181035f830152612b1581612adc565b905091905056fea2646970667358221220430ad3c6ec51772e8edd733a87cc71b63c92cb4f6da935986260b0d9c5312a8664736f6c634300081a0033",
			"opcodes": "PUSH1 0x80 PUSH1 0x40 MSTORE CALLVALUE DUP1 ISZERO PUSH2 0xF JUMPI PUSH0 DUP1 REVERT JUMPDEST POP CALLER PUSH0 PUSH20 0xFFFFFFFFFFFFFFFFFFFFFFFFFFFFFFFFFFFFFFFF AND DUP2 PUSH20 0xFFFFFFFFFFFFFFFFFFFFFFFFFFFFFFFFFFFFFFFF AND SUB PUSH2 0x81 JUMPI PUSH0 PUSH1 0x40 MLOAD PUSH32 0x1E4FBDF700000000000000000000000000000000000000000000000000000000 DUP2 MSTORE PUSH1 0x4 ADD PUSH2 0x78 SWAP2 SWAP1 PUSH2 0x196 JUMP JUMPDEST PUSH1 0x40 MLOAD DUP1 SWAP2 SUB SWAP1 REVERT JUMPDEST PUSH2 0x90 DUP2 PUSH2 0x96 PUSH1 0x20 SHL PUSH1 0x20 SHR JUMP JUMPDEST POP PUSH2 0x1AF JUMP JUMPDEST PUSH0 DUP1 PUSH0 SWAP1 SLOAD SWAP1 PUSH2 0x100 EXP SWAP1 DIV PUSH20 0xFFFFFFFFFFFFFFFFFFFFFFFFFFFFFFFFFFFFFFFF AND SWAP1 POP DUP2 PUSH0 DUP1 PUSH2 0x100 EXP DUP2 SLOAD DUP2 PUSH20 0xFFFFFFFFFFFFFFFFFFFFFFFFFFFFFFFFFFFFFFFF MUL NOT AND SWAP1 DUP4 PUSH20 0xFFFFFFFFFFFFFFFFFFFFFFFFFFFFFFFFFFFFFFFF AND MUL OR SWAP1 SSTORE POP DUP2 PUSH20 0xFFFFFFFFFFFFFFFFFFFFFFFFFFFFFFFFFFFFFFFF AND DUP2 PUSH20 0xFFFFFFFFFFFFFFFFFFFFFFFFFFFFFFFFFFFFFFFF AND PUSH32 0x8BE0079C531659141344CD1FD0A4F28419497F9722A3DAAFE3B4186F6B6457E0 PUSH1 0x40 MLOAD PUSH1 0x40 MLOAD DUP1 SWAP2 SUB SWAP1 LOG3 POP POP JUMP JUMPDEST PUSH0 PUSH20 0xFFFFFFFFFFFFFFFFFFFFFFFFFFFFFFFFFFFFFFFF DUP3 AND SWAP1 POP SWAP2 SWAP1 POP JUMP JUMPDEST PUSH0 PUSH2 0x180 DUP3 PUSH2 0x157 JUMP JUMPDEST SWAP1 POP SWAP2 SWAP1 POP JUMP JUMPDEST PUSH2 0x190 DUP2 PUSH2 0x176 JUMP JUMPDEST DUP3 MSTORE POP POP JUMP JUMPDEST PUSH0 PUSH1 0x20 DUP3 ADD SWAP1 POP PUSH2 0x1A9 PUSH0 DUP4 ADD DUP5 PUSH2 0x187 JUMP JUMPDEST SWAP3 SWAP2 POP POP JUMP JUMPDEST PUSH2 0x2B52 DUP1 PUSH2 0x1BC PUSH0 CODECOPY PUSH0 RETURN INVALID PUSH1 0x80 PUSH1 0x40 MSTORE PUSH1 0x4 CALLDATASIZE LT PUSH2 0x113 JUMPI PUSH0 CALLDATALOAD PUSH1 0xE0 SHR DUP1 PUSH4 0x715018A6 GT PUSH2 0x9F JUMPI DUP1 PUSH4 0xE06EC384 GT PUSH2 0x63 JUMPI DUP1 PUSH4 0xE06EC384 EQ PUSH2 0x3A9 JUMPI DUP1 PUSH4 0xE5CA5302 EQ PUSH2 0x3E5 JUMPI DUP1 PUSH4 0xF2FDE38B EQ PUSH2 0x40D JUMPI DUP1 PUSH4 0xF46DE7D4 EQ PUSH2 0x435 JUMPI DUP1 PUSH4 0xF98520DE EQ PUSH2 0x451 JUMPI PUSH2 0x113 JUMP JUMPDEST DUP1 PUSH4 0x715018A6 EQ PUSH2 0x2DB JUMPI DUP1 PUSH4 0x8DA5CB5B EQ PUSH2 0x2F1 JUMPI DUP1 PUSH4 0x9BD30883 EQ PUSH2 0x31B JUMPI DUP1 PUSH4 0xA33C5132 EQ PUSH2 0x345 JUMPI DUP1 PUSH4 0xBEC0D799 EQ PUSH2 0x381 JUMPI PUSH2 0x113 JUMP JUMPDEST DUP1 PUSH4 0x590791F2 GT PUSH2 0xE6 JUMPI DUP1 PUSH4 0x590791F2 EQ PUSH2 0x1CD JUMPI DUP1 PUSH4 0x59C75898 EQ PUSH2 0x1F7 JUMPI DUP1 PUSH4 0x5AC3E19E EQ PUSH2 0x233 JUMPI DUP1 PUSH4 0x68744046 EQ PUSH2 0x273 JUMPI DUP1 PUSH4 0x6C42B8CD EQ PUSH2 0x2B3 JUMPI PUSH2 0x113 JUMP JUMPDEST DUP1 PUSH4 0x1AEC2CF9 EQ PUSH2 0x117 JUMPI DUP1 PUSH4 0x21E6DE9D EQ PUSH2 0x13F JUMPI DUP1 PUSH4 0x354528E8 EQ PUSH2 0x167 JUMPI DUP1 PUSH4 0x5745AE28 EQ PUSH2 0x191 JUMPI JUMPDEST PUSH0 DUP1 REVERT JUMPDEST CALLVALUE DUP1 ISZERO PUSH2 0x122 JUMPI PUSH0 DUP1 REVERT JUMPDEST POP PUSH2 0x13D PUSH1 0x4 DUP1 CALLDATASIZE SUB DUP2 ADD SWAP1 PUSH2 0x138 SWAP2 SWAP1 PUSH2 0x1C33 JUMP JUMPDEST PUSH2 0x479 JUMP JUMPDEST STOP JUMPDEST CALLVALUE DUP1 ISZERO PUSH2 0x14A JUMPI PUSH0 DUP1 REVERT JUMPDEST POP PUSH2 0x165 PUSH1 0x4 DUP1 CALLDATASIZE SUB DUP2 ADD SWAP1 PUSH2 0x160 SWAP2 SWAP1 PUSH2 0x1D33 JUMP JUMPDEST PUSH2 0x59E JUMP JUMPDEST STOP JUMPDEST CALLVALUE DUP1 ISZERO PUSH2 0x172 JUMPI PUSH0 DUP1 REVERT JUMPDEST POP PUSH2 0x17B PUSH2 0x841 JUMP JUMPDEST PUSH1 0x40 MLOAD PUSH2 0x188 SWAP2 SWAP1 PUSH2 0x1F15 JUMP JUMPDEST PUSH1 0x40 MLOAD DUP1 SWAP2 SUB SWAP1 RETURN JUMPDEST CALLVALUE DUP1 ISZERO PUSH2 0x19C JUMPI PUSH0 DUP1 REVERT JUMPDEST POP PUSH2 0x1B7 PUSH1 0x4 DUP1 CALLDATASIZE SUB DUP2 ADD SWAP1 PUSH2 0x1B2 SWAP2 SWAP1 PUSH2 0x1C33 JUMP JUMPDEST PUSH2 0x997 JUMP JUMPDEST PUSH1 0x40 MLOAD PUSH2 0x1C4 SWAP2 SWAP1 PUSH2 0x1F4F JUMP JUMPDEST PUSH1 0x40 MLOAD DUP1 SWAP2 SUB SWAP1 RETURN JUMPDEST CALLVALUE DUP1 ISZERO PUSH2 0x1D8 JUMPI PUSH0 DUP1 REVERT JUMPDEST POP PUSH2 0x1E1 PUSH2 0x9B4 JUMP JUMPDEST PUSH1 0x40 MLOAD PUSH2 0x1EE SWAP2 SWAP1 PUSH2 0x1F77 JUMP JUMPDEST PUSH1 0x40 MLOAD DUP1 SWAP2 SUB SWAP1 RETURN JUMPDEST CALLVALUE DUP1 ISZERO PUSH2 0x202 JUMPI PUSH0 DUP1 REVERT JUMPDEST POP PUSH2 0x21D PUSH1 0x4 DUP1 CALLDATASIZE SUB DUP2 ADD SWAP1 PUSH2 0x218 SWAP2 SWAP1 PUSH2 0x1C33 JUMP JUMPDEST PUSH2 0x9D9 JUMP JUMPDEST PUSH1 0x40 MLOAD PUSH2 0x22A SWAP2 SWAP1 PUSH2 0x1F4F JUMP JUMPDEST PUSH1 0x40 MLOAD DUP1 SWAP2 SUB SWAP1 RETURN JUMPDEST CALLVALUE DUP1 ISZERO PUSH2 0x23E JUMPI PUSH0 DUP1 REVERT JUMPDEST POP PUSH2 0x259 PUSH1 0x4 DUP1 CALLDATASIZE SUB DUP2 ADD SWAP1 PUSH2 0x254 SWAP2 SWAP1 PUSH2 0x1F90 JUMP JUMPDEST PUSH2 0xAB4 JUMP JUMPDEST PUSH1 0x40 MLOAD PUSH2 0x26A SWAP6 SWAP5 SWAP4 SWAP3 SWAP2 SWAP1 PUSH2 0x2012 JUMP JUMPDEST PUSH1 0x40 MLOAD DUP1 SWAP2 SUB SWAP1 RETURN JUMPDEST CALLVALUE DUP1 ISZERO PUSH2 0x27E JUMPI PUSH0 DUP1 REVERT JUMPDEST POP PUSH2 0x299 PUSH1 0x4 DUP1 CALLDATASIZE SUB DUP2 ADD SWAP1 PUSH2 0x294 SWAP2 SWAP1 PUSH2 0x1F90 JUMP JUMPDEST PUSH2 0xC46 JUMP JUMPDEST PUSH1 0x40 MLOAD PUSH2 0x2AA SWAP6 SWAP5 SWAP4 SWAP3 SWAP2 SWAP1 PUSH2 0x2071 JUMP JUMPDEST PUSH1 0x40 MLOAD DUP1 SWAP2 SUB SWAP1 RETURN JUMPDEST CALLVALUE DUP1 ISZERO PUSH2 0x2BE JUMPI PUSH0 DUP1 REVERT JUMPDEST POP PUSH2 0x2D9 PUSH1 0x4 DUP1 CALLDATASIZE SUB DUP2 ADD SWAP1 PUSH2 0x2D4 SWAP2 SWAP1 PUSH2 0x20D0 JUMP JUMPDEST PUSH2 0xDBE JUMP JUMPDEST STOP JUMPDEST CALLVALUE DUP1 ISZERO PUSH2 0x2E6 JUMPI PUSH0 DUP1 REVERT JUMPDEST POP PUSH2 0x2EF PUSH2 0x1049 JUMP JUMPDEST STOP JUMPDEST CALLVALUE DUP1 ISZERO PUSH2 0x2FC JUMPI PUSH0 DUP1 REVERT JUMPDEST POP PUSH2 0x305 PUSH2 0x105C JUMP JUMPDEST PUSH1 0x40 MLOAD PUSH2 0x312 SWAP2 SWAP1 PUSH2 0x211D JUMP JUMPDEST PUSH1 0x40 MLOAD DUP1 SWAP2 SUB SWAP1 RETURN JUMPDEST CALLVALUE DUP1 ISZERO PUSH2 0x326 JUMPI PUSH0 DUP1 REVERT JUMPDEST POP PUSH2 0x32F PUSH2 0x1083 JUMP JUMPDEST PUSH1 0x40 MLOAD PUSH2 0x33C SWAP2 SWAP1 PUSH2 0x2136 JUMP JUMPDEST PUSH1 0x40 MLOAD DUP1 SWAP2 SUB SWAP1 RETURN JUMPDEST CALLVALUE DUP1 ISZERO PUSH2 0x350 JUMPI PUSH0 DUP1 REVERT JUMPDEST POP PUSH2 0x36B PUSH1 0x4 DUP1 CALLDATASIZE SUB DUP2 ADD SWAP1 PUSH2 0x366 SWAP2 SWAP1 PUSH2 0x1C33 JUMP JUMPDEST PUSH2 0x10A3 JUMP JUMPDEST PUSH1 0x40 MLOAD PUSH2 0x378 SWAP2 SWAP1 PUSH2 0x1F77 JUMP JUMPDEST PUSH1 0x40 MLOAD DUP1 SWAP2 SUB SWAP1 RETURN JUMPDEST CALLVALUE DUP1 ISZERO PUSH2 0x38C JUMPI PUSH0 DUP1 REVERT JUMPDEST POP PUSH2 0x3A7 PUSH1 0x4 DUP1 CALLDATASIZE SUB DUP2 ADD SWAP1 PUSH2 0x3A2 SWAP2 SWAP1 PUSH2 0x1F90 JUMP JUMPDEST PUSH2 0x10BD JUMP JUMPDEST STOP JUMPDEST CALLVALUE DUP1 ISZERO PUSH2 0x3B4 JUMPI PUSH0 DUP1 REVERT JUMPDEST POP PUSH2 0x3CF PUSH1 0x4 DUP1 CALLDATASIZE SUB DUP2 ADD SWAP1 PUSH2 0x3CA SWAP2 SWAP1 PUSH2 0x1C33 JUMP JUMPDEST PUSH2 0x12A6 JUMP JUMPDEST PUSH1 0x40 MLOAD PUSH2 0x3DC SWAP2 SWAP1 PUSH2 0x1F77 JUMP JUMPDEST PUSH1 0x40 MLOAD DUP1 SWAP2 SUB SWAP1 RETURN JUMPDEST CALLVALUE DUP1 ISZERO PUSH2 0x3F0 JUMPI PUSH0 DUP1 REVERT JUMPDEST POP PUSH2 0x40B PUSH1 0x4 DUP1 CALLDATASIZE SUB DUP2 ADD SWAP1 PUSH2 0x406 SWAP2 SWAP1 PUSH2 0x1C33 JUMP JUMPDEST PUSH2 0x136F JUMP JUMPDEST STOP JUMPDEST CALLVALUE DUP1 ISZERO PUSH2 0x418 JUMPI PUSH0 DUP1 REVERT JUMPDEST POP PUSH2 0x433 PUSH1 0x4 DUP1 CALLDATASIZE SUB DUP2 ADD SWAP1 PUSH2 0x42E SWAP2 SWAP1 PUSH2 0x1C33 JUMP JUMPDEST PUSH2 0x148A JUMP JUMPDEST STOP JUMPDEST PUSH2 0x44F PUSH1 0x4 DUP1 CALLDATASIZE SUB DUP2 ADD SWAP1 PUSH2 0x44A SWAP2 SWAP1 PUSH2 0x214F JUMP JUMPDEST PUSH2 0x150E JUMP JUMPDEST STOP JUMPDEST CALLVALUE DUP1 ISZERO PUSH2 0x45C JUMPI PUSH0 DUP1 REVERT JUMPDEST POP PUSH2 0x477 PUSH1 0x4 DUP1 CALLDATASIZE SUB DUP2 ADD SWAP1 PUSH2 0x472 SWAP2 SWAP1 PUSH2 0x21E2 JUMP JUMPDEST PUSH2 0x1526 JUMP JUMPDEST STOP JUMPDEST PUSH1 0x2 PUSH0 DUP3 PUSH20 0xFFFFFFFFFFFFFFFFFFFFFFFFFFFFFFFFFFFFFFFF AND PUSH20 0xFFFFFFFFFFFFFFFFFFFFFFFFFFFFFFFFFFFFFFFF AND DUP2 MSTORE PUSH1 0x20 ADD SWAP1 DUP2 MSTORE PUSH1 0x20 ADD PUSH0 KECCAK256 PUSH0 SWAP1 SLOAD SWAP1 PUSH2 0x100 EXP SWAP1 DIV PUSH1 0xFF AND ISZERO PUSH2 0x503 JUMPI PUSH1 0x40 MLOAD PUSH32 0x8C379A000000000000000000000000000000000000000000000000000000000 DUP2 MSTORE PUSH1 0x4 ADD PUSH2 0x4FA SWAP1 PUSH2 0x2277 JUMP JUMPDEST PUSH1 0x40 MLOAD DUP1 SWAP2 SUB SWAP1 REVERT JUMPDEST PUSH1 0x1 PUSH1 0x2 PUSH0 DUP4 PUSH20 0xFFFFFFFFFFFFFFFFFFFFFFFFFFFFFFFFFFFFFFFF AND PUSH20 0xFFFFFFFFFFFFFFFFFFFFFFFFFFFFFFFFFFFFFFFF AND DUP2 MSTORE PUSH1 0x20 ADD SWAP1 DUP2 MSTORE PUSH1 0x20 ADD PUSH0 KECCAK256 PUSH0 PUSH2 0x100 EXP DUP2 SLOAD DUP2 PUSH1 0xFF MUL NOT AND SWAP1 DUP4 ISZERO ISZERO MUL OR SWAP1 SSTORE POP DUP1 PUSH20 0xFFFFFFFFFFFFFFFFFFFFFFFFFFFFFFFFFFFFFFFF AND PUSH32 0x64814CF4DEE184DC70C8D41B259875DA94B26650E5DD3955EB0741764D1B4455 PUSH1 0x40 MLOAD PUSH1 0x40 MLOAD DUP1 SWAP2 SUB SWAP1 LOG2 POP JUMP JUMPDEST PUSH0 PUSH1 0x1 PUSH0 DUP10 DUP2 MSTORE PUSH1 0x20 ADD SWAP1 DUP2 MSTORE PUSH1 0x20 ADD PUSH0 KECCAK256 PUSH0 ADD PUSH1 0xC SWAP1 SLOAD SWAP1 PUSH2 0x100 EXP SWAP1 DIV PUSH12 0xFFFFFFFFFFFFFFFFFFFFFFFF AND PUSH12 0xFFFFFFFFFFFFFFFFFFFFFFFF AND EQ PUSH2 0x619 JUMPI PUSH1 0x40 MLOAD PUSH32 0x8C379A000000000000000000000000000000000000000000000000000000000 DUP2 MSTORE PUSH1 0x4 ADD PUSH2 0x610 SWAP1 PUSH2 0x22DF JUMP JUMPDEST PUSH1 0x40 MLOAD DUP1 SWAP2 SUB SWAP1 REVERT JUMPDEST PUSH1 0x40 MLOAD DUP1 PUSH1 0xA0 ADD PUSH1 0x40 MSTORE DUP1 DUP4 PUSH12 0xFFFFFFFFFFFFFFFFFFFFFFFF AND DUP2 MSTORE PUSH1 0x20 ADD PUSH8 0xDE0B6B3A7640000 DUP4 PUSH2 0x64C SWAP2 SWAP1 PUSH2 0x232A JUMP JUMPDEST PUSH12 0xFFFFFFFFFFFFFFFFFFFFFFFF AND DUP2 MSTORE PUSH1 0x20 ADD PUSH0 DUP5 PUSH12 0xFFFFFFFFFFFFFFFFFFFFFFFF AND GT ISZERO ISZERO DUP2 MSTORE PUSH1 0x20 ADD DUP8 DUP8 DUP1 DUP1 PUSH1 0x1F ADD PUSH1 0x20 DUP1 SWAP2 DIV MUL PUSH1 0x20 ADD PUSH1 0x40 MLOAD SWAP1 DUP2 ADD PUSH1 0x40 MSTORE DUP1 SWAP4 SWAP3 SWAP2 SWAP1 DUP2 DUP2 MSTORE PUSH1 0x20 ADD DUP4 DUP4 DUP1 DUP3 DUP5 CALLDATACOPY PUSH0 DUP2 DUP5 ADD MSTORE PUSH1 0x1F NOT PUSH1 0x1F DUP3 ADD AND SWAP1 POP DUP1 DUP4 ADD SWAP3 POP POP POP POP POP POP POP DUP2 MSTORE PUSH1 0x20 ADD DUP6 DUP6 DUP1 DUP1 PUSH1 0x1F ADD PUSH1 0x20 DUP1 SWAP2 DIV MUL PUSH1 0x20 ADD PUSH1 0x40 MLOAD SWAP1 DUP2 ADD PUSH1 0x40 MSTORE DUP1 SWAP4 SWAP3 SWAP2 SWAP1 DUP2 DUP2 MSTORE PUSH1 0x20 ADD DUP4 DUP4 DUP1 DUP3 DUP5 CALLDATACOPY PUSH0 DUP2 DUP5 ADD MSTORE PUSH1 0x1F NOT PUSH1 0x1F DUP3 ADD AND SWAP1 POP DUP1 DUP4 ADD SWAP3 POP POP POP POP POP POP POP DUP2 MSTORE POP PUSH1 0x1 PUSH0 DUP10 DUP2 MSTORE PUSH1 0x20 ADD SWAP1 DUP2 MSTORE PUSH1 0x20 ADD PUSH0 KECCAK256 PUSH0 DUP3 ADD MLOAD DUP2 PUSH0 ADD PUSH0 PUSH2 0x100 EXP DUP2 SLOAD DUP2 PUSH12 0xFFFFFFFFFFFFFFFFFFFFFFFF MUL NOT AND SWAP1 DUP4 PUSH12 0xFFFFFFFFFFFFFFFFFFFFFFFF AND MUL OR SWAP1 SSTORE POP PUSH1 0x20 DUP3 ADD MLOAD DUP2 PUSH0 ADD PUSH1 0xC PUSH2 0x100 EXP DUP2 SLOAD DUP2 PUSH12 0xFFFFFFFFFFFFFFFFFFFFFFFF MUL NOT AND SWAP1 DUP4 PUSH12 0xFFFFFFFFFFFFFFFFFFFFFFFF AND MUL OR SWAP1 SSTORE POP PUSH1 0x40 DUP3 ADD MLOAD DUP2 PUSH0 ADD PUSH1 0x18 PUSH2 0x100 EXP DUP2 SLOAD DUP2 PUSH1 0xFF MUL NOT AND SWAP1 DUP4 ISZERO ISZERO MUL OR SWAP1 SSTORE POP PUSH1 0x60 DUP3 ADD MLOAD DUP2 PUSH1 0x1 ADD SWAP1 DUP2 PUSH2 0x7B6 SWAP2 SWAP1 PUSH2 0x258D JUMP JUMPDEST POP PUSH1 0x80 DUP3 ADD MLOAD DUP2 PUSH1 0x2 ADD SWAP1 DUP2 PUSH2 0x7CC SWAP2 SWAP1 PUSH2 0x258D JUMP JUMPDEST POP SWAP1 POP POP PUSH1 0x3 DUP8 SWAP1 DUP1 PUSH1 0x1 DUP2 SLOAD ADD DUP1 DUP3 SSTORE DUP1 SWAP2 POP POP PUSH1 0x1 SWAP1 SUB SWAP1 PUSH0 MSTORE PUSH1 0x20 PUSH0 KECCAK256 ADD PUSH0 SWAP1 SWAP2 SWAP1 SWAP2 SWAP1 SWAP2 POP SSTORE DUP7 PUSH32 0x907463480EDCB1016AD34B5C752A56E18C2AEA6ED1DD0E18EC287D63D670D88F DUP8 DUP8 DUP8 DUP8 DUP7 DUP9 PUSH1 0x40 MLOAD PUSH2 0x830 SWAP7 SWAP6 SWAP5 SWAP4 SWAP3 SWAP2 SWAP1 PUSH2 0x2696 JUMP JUMPDEST PUSH1 0x40 MLOAD DUP1 SWAP2 SUB SWAP1 LOG2 POP POP POP POP POP POP POP JUMP JUMPDEST PUSH1 0x60 PUSH0 PUSH1 0x3 DUP1 SLOAD SWAP1 POP PUSH8 0xFFFFFFFFFFFFFFFF DUP2 GT ISZERO PUSH2 0x863 JUMPI PUSH2 0x862 PUSH2 0x2366 JUMP JUMPDEST JUMPDEST PUSH1 0x40 MLOAD SWAP1 DUP1 DUP3 MSTORE DUP1 PUSH1 0x20 MUL PUSH1 0x20 ADD DUP3 ADD PUSH1 0x40 MSTORE DUP1 ISZERO PUSH2 0x896 JUMPI DUP2 PUSH1 0x20 ADD JUMPDEST PUSH1 0x60 DUP2 MSTORE PUSH1 0x20 ADD SWAP1 PUSH1 0x1 SWAP1 SUB SWAP1 DUP2 PUSH2 0x881 JUMPI SWAP1 POP JUMPDEST POP SWAP1 POP PUSH0 JUMPDEST PUSH1 0x3 DUP1 SLOAD SWAP1 POP DUP2 LT ISZERO PUSH2 0x98F JUMPI PUSH0 PUSH1 0x1 PUSH0 PUSH1 0x3 DUP5 DUP2 SLOAD DUP2 LT PUSH2 0x8C0 JUMPI PUSH2 0x8BF PUSH2 0x26EB JUMP JUMPDEST JUMPDEST SWAP1 PUSH0 MSTORE PUSH1 0x20 PUSH0 KECCAK256 ADD SLOAD DUP2 MSTORE PUSH1 0x20 ADD SWAP1 DUP2 MSTORE PUSH1 0x20 ADD PUSH0 KECCAK256 SWAP1 POP DUP1 PUSH1 0x1 ADD DUP1 SLOAD PUSH2 0x8E7 SWAP1 PUSH2 0x23C0 JUMP JUMPDEST DUP1 PUSH1 0x1F ADD PUSH1 0x20 DUP1 SWAP2 DIV MUL PUSH1 0x20 ADD PUSH1 0x40 MLOAD SWAP1 DUP2 ADD PUSH1 0x40 MSTORE DUP1 SWAP3 SWAP2 SWAP1 DUP2 DUP2 MSTORE PUSH1 0x20 ADD DUP3 DUP1 SLOAD PUSH2 0x913 SWAP1 PUSH2 0x23C0 JUMP JUMPDEST DUP1 ISZERO PUSH2 0x95E JUMPI DUP1 PUSH1 0x1F LT PUSH2 0x935 JUMPI PUSH2 0x100 DUP1 DUP4 SLOAD DIV MUL DUP4 MSTORE SWAP2 PUSH1 0x20 ADD SWAP2 PUSH2 0x95E JUMP JUMPDEST DUP3 ADD SWAP2 SWAP1 PUSH0 MSTORE PUSH1 0x20 PUSH0 KECCAK256 SWAP1 JUMPDEST DUP2 SLOAD DUP2 MSTORE SWAP1 PUSH1 0x1 ADD SWAP1 PUSH1 0x20 ADD DUP1 DUP4 GT PUSH2 0x941 JUMPI DUP3 SWAP1 SUB PUSH1 0x1F AND DUP3 ADD SWAP2 JUMPDEST POP POP POP POP POP DUP4 DUP4 DUP2 MLOAD DUP2 LT PUSH2 0x976 JUMPI PUSH2 0x975 PUSH2 0x26EB JUMP JUMPDEST JUMPDEST PUSH1 0x20 MUL PUSH1 0x20 ADD ADD DUP2 SWAP1 MSTORE POP DUP2 DUP1 PUSH1 0x1 ADD SWAP3 POP POP POP PUSH2 0x89B JUMP JUMPDEST POP DUP1 SWAP2 POP POP SWAP1 JUMP JUMPDEST PUSH1 0x2 PUSH1 0x20 MSTORE DUP1 PUSH0 MSTORE PUSH1 0x40 PUSH0 KECCAK256 PUSH0 SWAP2 POP SLOAD SWAP1 PUSH2 0x100 EXP SWAP1 DIV PUSH1 0xFF AND DUP2 JUMP JUMPDEST PUSH0 PUSH2 0x9BD PUSH2 0x105C JUMP JUMPDEST PUSH20 0xFFFFFFFFFFFFFFFFFFFFFFFFFFFFFFFFFFFFFFFF AND BALANCE SWAP1 POP SWAP1 JUMP JUMPDEST PUSH0 PUSH1 0x2 PUSH0 DUP4 PUSH20 0xFFFFFFFFFFFFFFFFFFFFFFFFFFFFFFFFFFFFFFFF AND PUSH20 0xFFFFFFFFFFFFFFFFFFFFFFFFFFFFFFFFFFFFFFFF AND DUP2 MSTORE PUSH1 0x20 ADD SWAP1 DUP2 MSTORE PUSH1 0x20 ADD PUSH0 KECCAK256 PUSH0 SWAP1 SLOAD SWAP1 PUSH2 0x100 EXP SWAP1 DIV PUSH1 0xFF AND PUSH2 0xA63 JUMPI PUSH1 0x40 MLOAD PUSH32 0x8C379A000000000000000000000000000000000000000000000000000000000 DUP2 MSTORE PUSH1 0x4 ADD PUSH2 0xA5A SWAP1 PUSH2 0x2762 JUMP JUMPDEST PUSH1 0x40 MLOAD DUP1 SWAP2 SUB SWAP1 REVERT JUMPDEST PUSH1 0x2 PUSH0 DUP4 PUSH20 0xFFFFFFFFFFFFFFFFFFFFFFFFFFFFFFFFFFFFFFFF AND PUSH20 0xFFFFFFFFFFFFFFFFFFFFFFFFFFFFFFFFFFFFFFFF AND DUP2 MSTORE PUSH1 0x20 ADD SWAP1 DUP2 MSTORE PUSH1 0x20 ADD PUSH0 KECCAK256 PUSH0 SWAP1 SLOAD SWAP1 PUSH2 0x100 EXP SWAP1 DIV PUSH1 0xFF AND SWAP1 POP SWAP2 SWAP1 POP JUMP JUMPDEST PUSH1 0x60 DUP1 PUSH0 DUP1 PUSH0 DUP1 PUSH1 0x1 PUSH0 DUP9 DUP2 MSTORE PUSH1 0x20 ADD SWAP1 DUP2 MSTORE PUSH1 0x20 ADD PUSH0 KECCAK256 SWAP1 POP DUP1 PUSH1 0x1 ADD DUP2 PUSH1 0x2 ADD DUP3 PUSH0 ADD PUSH1 0xC SWAP1 SLOAD SWAP1 PUSH2 0x100 EXP SWAP1 DIV PUSH12 0xFFFFFFFFFFFFFFFFFFFFFFFF AND DUP4 PUSH0 ADD PUSH0 SWAP1 SLOAD SWAP1 PUSH2 0x100 EXP SWAP1 DIV PUSH12 0xFFFFFFFFFFFFFFFFFFFFFFFF AND DUP5 PUSH0 ADD PUSH1 0x18 SWAP1 SLOAD SWAP1 PUSH2 0x100 EXP SWAP1 DIV PUSH1 0xFF AND DUP5 DUP1 SLOAD PUSH2 0xB2A SWAP1 PUSH2 0x23C0 JUMP JUMPDEST DUP1 PUSH1 0x1F ADD PUSH1 0x20 DUP1 SWAP2 DIV MUL PUSH1 0x20 ADD PUSH1 0x40 MLOAD SWAP1 DUP2 ADD PUSH1 0x40 MSTORE DUP1 SWAP3 SWAP2 SWAP1 DUP2 DUP2 MSTORE PUSH1 0x20 ADD DUP3 DUP1 SLOAD PUSH2 0xB56 SWAP1 PUSH2 0x23C0 JUMP JUMPDEST DUP1 ISZERO PUSH2 0xBA1 JUMPI DUP1 PUSH1 0x1F LT PUSH2 0xB78 JUMPI PUSH2 0x100 DUP1 DUP4 SLOAD DIV MUL DUP4 MSTORE SWAP2 PUSH1 0x20 ADD SWAP2 PUSH2 0xBA1 JUMP JUMPDEST DUP3 ADD SWAP2 SWAP1 PUSH0 MSTORE PUSH1 0x20 PUSH0 KECCAK256 SWAP1 JUMPDEST DUP2 SLOAD DUP2 MSTORE SWAP1 PUSH1 0x1 ADD SWAP1 PUSH1 0x20 ADD DUP1 DUP4 GT PUSH2 0xB84 JUMPI DUP3 SWAP1 SUB PUSH1 0x1F AND DUP3 ADD SWAP2 JUMPDEST POP POP POP POP POP SWAP5 POP DUP4 DUP1 SLOAD PUSH2 0xBB4 SWAP1 PUSH2 0x23C0 JUMP JUMPDEST DUP1 PUSH1 0x1F ADD PUSH1 0x20 DUP1 SWAP2 DIV MUL PUSH1 0x20 ADD PUSH1 0x40 MLOAD SWAP1 DUP2 ADD PUSH1 0x40 MSTORE DUP1 SWAP3 SWAP2 SWAP1 DUP2 DUP2 MSTORE PUSH1 0x20 ADD DUP3 DUP1 SLOAD PUSH2 0xBE0 SWAP1 PUSH2 0x23C0 JUMP JUMPDEST DUP1 ISZERO PUSH2 0xC2B JUMPI DUP1 PUSH1 0x1F LT PUSH2 0xC02 JUMPI PUSH2 0x100 DUP1 DUP4 SLOAD DIV MUL DUP4 MSTORE SWAP2 PUSH1 0x20 ADD SWAP2 PUSH2 0xC2B JUMP JUMPDEST DUP3 ADD SWAP2 SWAP1 PUSH0 MSTORE PUSH1 0x20 PUSH0 KECCAK256 SWAP1 JUMPDEST DUP2 SLOAD DUP2 MSTORE SWAP1 PUSH1 0x1 ADD SWAP1 PUSH1 0x20 ADD DUP1 DUP4 GT PUSH2 0xC0E JUMPI DUP3 SWAP1 SUB PUSH1 0x1F AND DUP3 ADD SWAP2 JUMPDEST POP POP POP POP POP SWAP4 POP SWAP6 POP SWAP6 POP SWAP6 POP SWAP6 POP SWAP6 POP POP SWAP2 SWAP4 SWAP6 SWAP1 SWAP3 SWAP5 POP JUMP JUMPDEST PUSH1 0x1 PUSH1 0x20 MSTORE DUP1 PUSH0 MSTORE PUSH1 0x40 PUSH0 KECCAK256 PUSH0 SWAP2 POP SWAP1 POP DUP1 PUSH0 ADD PUSH0 SWAP1 SLOAD SWAP1 PUSH2 0x100 EXP SWAP1 DIV PUSH12 0xFFFFFFFFFFFFFFFFFFFFFFFF AND SWAP1 DUP1 PUSH0 ADD PUSH1 0xC SWAP1 SLOAD SWAP1 PUSH2 0x100 EXP SWAP1 DIV PUSH12 0xFFFFFFFFFFFFFFFFFFFFFFFF AND SWAP1 DUP1 PUSH0 ADD PUSH1 0x18 SWAP1 SLOAD SWAP1 PUSH2 0x100 EXP SWAP1 DIV PUSH1 0xFF AND SWAP1 DUP1 PUSH1 0x1 ADD DUP1 SLOAD PUSH2 0xCB1 SWAP1 PUSH2 0x23C0 JUMP JUMPDEST DUP1 PUSH1 0x1F ADD PUSH1 0x20 DUP1 SWAP2 DIV MUL PUSH1 0x20 ADD PUSH1 0x40 MLOAD SWAP1 DUP2 ADD PUSH1 0x40 MSTORE DUP1 SWAP3 SWAP2 SWAP1 DUP2 DUP2 MSTORE PUSH1 0x20 ADD DUP3 DUP1 SLOAD PUSH2 0xCDD SWAP1 PUSH2 0x23C0 JUMP JUMPDEST DUP1 ISZERO PUSH2 0xD28 JUMPI DUP1 PUSH1 0x1F LT PUSH2 0xCFF JUMPI PUSH2 0x100 DUP1 DUP4 SLOAD DIV MUL DUP4 MSTORE SWAP2 PUSH1 0x20 ADD SWAP2 PUSH2 0xD28 JUMP JUMPDEST DUP3 ADD SWAP2 SWAP1 PUSH0 MSTORE PUSH1 0x20 PUSH0 KECCAK256 SWAP1 JUMPDEST DUP2 SLOAD DUP2 MSTORE SWAP1 PUSH1 0x1 ADD SWAP1 PUSH1 0x20 ADD DUP1 DUP4 GT PUSH2 0xD0B JUMPI DUP3 SWAP1 SUB PUSH1 0x1F AND DUP3 ADD SWAP2 JUMPDEST POP POP POP POP POP SWAP1 DUP1 PUSH1 0x2 ADD DUP1 SLOAD PUSH2 0xD3D SWAP1 PUSH2 0x23C0 JUMP JUMPDEST DUP1 PUSH1 0x1F ADD PUSH1 0x20 DUP1 SWAP2 DIV MUL PUSH1 0x20 ADD PUSH1 0x40 MLOAD SWAP1 DUP2 ADD PUSH1 0x40 MSTORE DUP1 SWAP3 SWAP2 SWAP1 DUP2 DUP2 MSTORE PUSH1 0x20 ADD DUP3 DUP1 SLOAD PUSH2 0xD69 SWAP1 PUSH2 0x23C0 JUMP JUMPDEST DUP1 ISZERO PUSH2 0xDB4 JUMPI DUP1 PUSH1 0x1F LT PUSH2 0xD8B JUMPI PUSH2 0x100 DUP1 DUP4 SLOAD DIV MUL DUP4 MSTORE SWAP2 PUSH1 0x20 ADD SWAP2 PUSH2 0xDB4 JUMP JUMPDEST DUP3 ADD SWAP2 SWAP1 PUSH0 MSTORE PUSH1 0x20 PUSH0 KECCAK256 SWAP1 JUMPDEST DUP2 SLOAD DUP2 MSTORE SWAP1 PUSH1 0x1 ADD SWAP1 PUSH1 0x20 ADD DUP1 DUP4 GT PUSH2 0xD97 JUMPI DUP3 SWAP1 SUB PUSH1 0x1F AND DUP3 ADD SWAP2 JUMPDEST POP POP POP POP POP SWAP1 POP DUP6 JUMP JUMPDEST PUSH0 DUP1 PUSH8 0xDE0B6B3A7640000 SWAP1 POP DUP1 DUP4 LT ISZERO PUSH2 0xDDC JUMPI PUSH1 0xA SWAP2 POP PUSH2 0xEA4 JUMP JUMPDEST DUP1 DUP4 LT ISZERO DUP1 ISZERO PUSH2 0xDF7 JUMPI POP DUP1 PUSH1 0x3 PUSH2 0xDF4 SWAP2 SWAP1 PUSH2 0x2780 JUMP JUMPDEST DUP4 LT JUMPDEST ISZERO PUSH2 0xE05 JUMPI PUSH1 0xF SWAP2 POP PUSH2 0xEA3 JUMP JUMPDEST DUP1 PUSH1 0x3 PUSH2 0xE12 SWAP2 SWAP1 PUSH2 0x2780 JUMP JUMPDEST DUP4 LT ISZERO DUP1 ISZERO PUSH2 0xE2C JUMPI POP DUP1 PUSH1 0x5 PUSH2 0xE29 SWAP2 SWAP1 PUSH2 0x2780 JUMP JUMPDEST DUP4 LT JUMPDEST ISZERO PUSH2 0xE3A JUMPI PUSH1 0x14 SWAP2 POP PUSH2 0xEA2 JUMP JUMPDEST DUP1 PUSH1 0x5 PUSH2 0xE47 SWAP2 SWAP1 PUSH2 0x2780 JUMP JUMPDEST DUP4 LT ISZERO DUP1 ISZERO PUSH2 0xE61 JUMPI POP DUP1 PUSH1 0x8 PUSH2 0xE5E SWAP2 SWAP1 PUSH2 0x2780 JUMP JUMPDEST DUP4 LT JUMPDEST ISZERO PUSH2 0xE6F JUMPI PUSH1 0x19 SWAP2 POP PUSH2 0xEA1 JUMP JUMPDEST DUP1 PUSH1 0x8 PUSH2 0xE7C SWAP2 SWAP1 PUSH2 0x2780 JUMP JUMPDEST DUP4 LT ISZERO DUP1 ISZERO PUSH2 0xE96 JUMPI POP DUP1 PUSH1 0xA PUSH2 0xE93 SWAP2 SWAP1 PUSH2 0x2780 JUMP JUMPDEST DUP4 LT JUMPDEST ISZERO PUSH2 0xEA0 JUMPI PUSH1 0x1E SWAP2 POP JUMPDEST JUMPDEST JUMPDEST JUMPDEST JUMPDEST PUSH0 PUSH1 0x5 PUSH0 DUP7 PUSH20 0xFFFFFFFFFFFFFFFFFFFFFFFFFFFFFFFFFFFFFFFF AND PUSH20 0xFFFFFFFFFFFFFFFFFFFFFFFFFFFFFFFFFFFFFFFF AND DUP2 MSTORE PUSH1 0x20 ADD SWAP1 DUP2 MSTORE PUSH1 0x20 ADD PUSH0 KECCAK256 PUSH1 0x40 MLOAD DUP1 PUSH1 0x20 ADD PUSH1 0x40 MSTORE SWAP1 DUP2 PUSH0 DUP3 ADD SLOAD DUP2 MSTORE POP POP SWAP1 POP PUSH0 DUP2 PUSH0 ADD MLOAD GT ISZERO PUSH2 0xF5D JUMPI DUP3 PUSH1 0x5 PUSH0 DUP8 PUSH20 0xFFFFFFFFFFFFFFFFFFFFFFFFFFFFFFFFFFFFFFFF AND PUSH20 0xFFFFFFFFFFFFFFFFFFFFFFFFFFFFFFFFFFFFFFFF AND DUP2 MSTORE PUSH1 0x20 ADD SWAP1 DUP2 MSTORE PUSH1 0x20 ADD PUSH0 KECCAK256 PUSH0 ADD PUSH0 DUP3 DUP3 SLOAD PUSH2 0xF51 SWAP2 SWAP1 PUSH2 0x27C1 JUMP JUMPDEST SWAP3 POP POP DUP2 SWAP1 SSTORE POP PUSH2 0xFB5 JUMP JUMPDEST PUSH1 0x40 MLOAD DUP1 PUSH1 0x20 ADD PUSH1 0x40 MSTORE DUP1 DUP5 DUP2 MSTORE POP PUSH1 0x5 PUSH0 DUP8 PUSH20 0xFFFFFFFFFFFFFFFFFFFFFFFFFFFFFFFFFFFFFFFF AND PUSH20 0xFFFFFFFFFFFFFFFFFFFFFFFFFFFFFFFFFFFFFFFF AND DUP2 MSTORE PUSH1 0x20 ADD SWAP1 DUP2 MSTORE PUSH1 0x20 ADD PUSH0 KECCAK256 PUSH0 DUP3 ADD MLOAD DUP2 PUSH0 ADD SSTORE SWAP1 POP POP JUMPDEST DUP5 PUSH20 0xFFFFFFFFFFFFFFFFFFFFFFFFFFFFFFFFFFFFFFFF AND PUSH32 0x2E09D9493C8A88B72578FD23604D9B5425C9BE0FA86F8B58C76E2BE94BCEE6A9 PUSH1 0x5 PUSH0 DUP9 PUSH20 0xFFFFFFFFFFFFFFFFFFFFFFFFFFFFFFFFFFFFFFFF AND PUSH20 0xFFFFFFFFFFFFFFFFFFFFFFFFFFFFFFFFFFFFFFFF AND DUP2 MSTORE PUSH1 0x20 ADD SWAP1 DUP2 MSTORE PUSH1 0x20 ADD PUSH0 KECCAK256 PUSH0 ADD SLOAD PUSH1 0x40 MLOAD PUSH2 0x103A SWAP2 SWAP1 PUSH2 0x1F77 JUMP JUMPDEST PUSH1 0x40 MLOAD DUP1 SWAP2 SUB SWAP1 LOG2 POP POP POP POP POP JUMP JUMPDEST PUSH2 0x1051 PUSH2 0x1758 JUMP JUMPDEST PUSH2 0x105A PUSH0 PUSH2 0x17DF JUMP JUMPDEST JUMP JUMPDEST PUSH0 DUP1 PUSH0 SWAP1 SLOAD SWAP1 PUSH2 0x100 EXP SWAP1 DIV PUSH20 0xFFFFFFFFFFFFFFFFFFFFFFFFFFFFFFFFFFFFFFFF AND SWAP1 POP SWAP1 JUMP JUMPDEST PUSH0 PUSH1 0x4 PUSH0 SWAP1 SLOAD SWAP1 PUSH2 0x100 EXP SWAP1 DIV PUSH12 0xFFFFFFFFFFFFFFFFFFFFFFFF AND SWAP1 POP SWAP1 JUMP JUMPDEST PUSH1 0x5 PUSH1 0x20 MSTORE DUP1 PUSH0 MSTORE PUSH1 0x40 PUSH0 KECCAK256 PUSH0 SWAP2 POP SWAP1 POP DUP1 PUSH0 ADD SLOAD SWAP1 POP DUP2 JUMP JUMPDEST PUSH2 0x10C5 PUSH2 0x1758 JUMP JUMPDEST PUSH0 PUSH1 0x1 PUSH0 DUP4 DUP2 MSTORE PUSH1 0x20 ADD SWAP1 DUP2 MSTORE PUSH1 0x20 ADD PUSH0 KECCAK256 PUSH0 ADD PUSH1 0xC SWAP1 SLOAD SWAP1 PUSH2 0x100 EXP SWAP1 DIV PUSH12 0xFFFFFFFFFFFFFFFFFFFFFFFF AND PUSH12 0xFFFFFFFFFFFFFFFFFFFFFFFF AND SUB PUSH2 0x1140 JUMPI PUSH1 0x40 MLOAD PUSH32 0x8C379A000000000000000000000000000000000000000000000000000000000 DUP2 MSTORE PUSH1 0x4 ADD PUSH2 0x1137 SWAP1 PUSH2 0x283E JUMP JUMPDEST PUSH1 0x40 MLOAD DUP1 SWAP2 SUB SWAP1 REVERT JUMPDEST PUSH1 0x1 PUSH0 DUP3 DUP2 MSTORE PUSH1 0x20 ADD SWAP1 DUP2 MSTORE PUSH1 0x20 ADD PUSH0 KECCAK256 PUSH0 DUP1 DUP3 ADD PUSH0 PUSH2 0x100 EXP DUP2 SLOAD SWAP1 PUSH12 0xFFFFFFFFFFFFFFFFFFFFFFFF MUL NOT AND SWAP1 SSTORE PUSH0 DUP3 ADD PUSH1 0xC PUSH2 0x100 EXP DUP2 SLOAD SWAP1 PUSH12 0xFFFFFFFFFFFFFFFFFFFFFFFF MUL NOT AND SWAP1 SSTORE PUSH0 DUP3 ADD PUSH1 0x18 PUSH2 0x100 EXP DUP2 SLOAD SWAP1 PUSH1 0xFF MUL NOT AND SWAP1 SSTORE PUSH1 0x1 DUP3 ADD PUSH0 PUSH2 0x11AF SWAP2 SWAP1 PUSH2 0x1B79 JUMP JUMPDEST PUSH1 0x2 DUP3 ADD PUSH0 PUSH2 0x11BE SWAP2 SWAP1 PUSH2 0x1B79 JUMP JUMPDEST POP POP PUSH0 JUMPDEST PUSH1 0x3 DUP1 SLOAD SWAP1 POP DUP2 LT ISZERO PUSH2 0x1275 JUMPI DUP2 PUSH1 0x3 DUP3 DUP2 SLOAD DUP2 LT PUSH2 0x11E4 JUMPI PUSH2 0x11E3 PUSH2 0x26EB JUMP JUMPDEST JUMPDEST SWAP1 PUSH0 MSTORE PUSH1 0x20 PUSH0 KECCAK256 ADD SLOAD SUB PUSH2 0x126A JUMPI PUSH1 0x3 PUSH1 0x1 PUSH1 0x3 DUP1 SLOAD SWAP1 POP PUSH2 0x1206 SWAP2 SWAP1 PUSH2 0x285C JUMP JUMPDEST DUP2 SLOAD DUP2 LT PUSH2 0x1217 JUMPI PUSH2 0x1216 PUSH2 0x26EB JUMP JUMPDEST JUMPDEST SWAP1 PUSH0 MSTORE PUSH1 0x20 PUSH0 KECCAK256 ADD SLOAD PUSH1 0x3 DUP3 DUP2 SLOAD DUP2 LT PUSH2 0x1234 JUMPI PUSH2 0x1233 PUSH2 0x26EB JUMP JUMPDEST JUMPDEST SWAP1 PUSH0 MSTORE PUSH1 0x20 PUSH0 KECCAK256 ADD DUP2 SWAP1 SSTORE POP PUSH1 0x3 DUP1 SLOAD DUP1 PUSH2 0x1252 JUMPI PUSH2 0x1251 PUSH2 0x288F JUMP JUMPDEST JUMPDEST PUSH1 0x1 SWAP1 SUB DUP2 DUP2 SWAP1 PUSH0 MSTORE PUSH1 0x20 PUSH0 KECCAK256 ADD PUSH0 SWAP1 SSTORE SWAP1 SSTORE PUSH2 0x1275 JUMP JUMPDEST DUP1 PUSH1 0x1 ADD SWAP1 POP PUSH2 0x11C2 JUMP JUMPDEST POP DUP1 PUSH32 0x3C5CE13264433BCF97E5D53C97AF4FC33800E8C9DD927F965B116D0018D7CDDF PUSH1 0x40 MLOAD PUSH1 0x40 MLOAD DUP1 SWAP2 SUB SWAP1 LOG2 POP JUMP JUMPDEST PUSH0 DUP1 PUSH1 0x5 PUSH0 DUP5 PUSH20 0xFFFFFFFFFFFFFFFFFFFFFFFFFFFFFFFFFFFFFFFF AND PUSH20 0xFFFFFFFFFFFFFFFFFFFFFFFFFFFFFFFFFFFFFFFF AND DUP2 MSTORE PUSH1 0x20 ADD SWAP1 DUP2 MSTORE PUSH1 0x20 ADD PUSH0 KECCAK256 PUSH0 ADD SLOAD GT PUSH2 0x1328 JUMPI PUSH1 0x40 MLOAD PUSH32 0x8C379A000000000000000000000000000000000000000000000000000000000 DUP2 MSTORE PUSH1 0x4 ADD PUSH2 0x131F SWAP1 PUSH2 0x292C JUMP JUMPDEST PUSH1 0x40 MLOAD DUP1 SWAP2 SUB SWAP1 REVERT JUMPDEST PUSH1 0x5 PUSH0 DUP4 PUSH20 0xFFFFFFFFFFFFFFFFFFFFFFFFFFFFFFFFFFFFFFFF AND PUSH20 0xFFFFFFFFFFFFFFFFFFFFFFFFFFFFFFFFFFFFFFFF AND DUP2 MSTORE PUSH1 0x20 ADD SWAP1 DUP2 MSTORE PUSH1 0x20 ADD PUSH0 KECCAK256 PUSH0 ADD SLOAD SWAP1 POP SWAP2 SWAP1 POP JUMP JUMPDEST PUSH1 0x2 PUSH0 DUP3 PUSH20 0xFFFFFFFFFFFFFFFFFFFFFFFFFFFFFFFFFFFFFFFF AND PUSH20 0xFFFFFFFFFFFFFFFFFFFFFFFFFFFFFFFFFFFFFFFF AND DUP2 MSTORE PUSH1 0x20 ADD SWAP1 DUP2 MSTORE PUSH1 0x20 ADD PUSH0 KECCAK256 PUSH0 SWAP1 SLOAD SWAP1 PUSH2 0x100 EXP SWAP1 DIV PUSH1 0xFF AND PUSH2 0x13F8 JUMPI PUSH1 0x40 MLOAD PUSH32 0x8C379A000000000000000000000000000000000000000000000000000000000 DUP2 MSTORE PUSH1 0x4 ADD PUSH2 0x13EF SWAP1 PUSH2 0x2762 JUMP JUMPDEST PUSH1 0x40 MLOAD DUP1 SWAP2 SUB SWAP1 REVERT JUMPDEST PUSH1 0x2 PUSH0 DUP3 PUSH20 0xFFFFFFFFFFFFFFFFFFFFFFFFFFFFFFFFFFFFFFFF AND PUSH20 0xFFFFFFFFFFFFFFFFFFFFFFFFFFFFFFFFFFFFFFFF AND DUP2 MSTORE PUSH1 0x20 ADD SWAP1 DUP2 MSTORE PUSH1 0x20 ADD PUSH0 KECCAK256 PUSH0 PUSH2 0x100 EXP DUP2 SLOAD SWAP1 PUSH1 0xFF MUL NOT AND SWAP1 SSTORE DUP1 PUSH20 0xFFFFFFFFFFFFFFFFFFFFFFFFFFFFFFFFFFFFFFFF AND PUSH32 0x5AAA4A885FE8AFE482F8BB71A9C6E47DFCD1598F5F7EEEE4A57F0CCB9E2B76B5 PUSH1 0x40 MLOAD PUSH1 0x40 MLOAD DUP1 SWAP2 SUB SWAP1 LOG2 POP JUMP JUMPDEST PUSH2 0x1492 PUSH2 0x1758 JUMP JUMPDEST PUSH0 PUSH20 0xFFFFFFFFFFFFFFFFFFFFFFFFFFFFFFFFFFFFFFFF AND DUP2 PUSH20 0xFFFFFFFFFFFFFFFFFFFFFFFFFFFFFFFFFFFFFFFF AND SUB PUSH2 0x1502 JUMPI PUSH0 PUSH1 0x40 MLOAD PUSH32 0x1E4FBDF700000000000000000000000000000000000000000000000000000000 DUP2 MSTORE PUSH1 0x4 ADD PUSH2 0x14F9 SWAP2 SWAP1 PUSH2 0x211D JUMP JUMPDEST PUSH1 0x40 MLOAD DUP1 SWAP2 SUB SWAP1 REVERT JUMPDEST PUSH2 0x150B DUP2 PUSH2 0x17DF JUMP JUMPDEST POP JUMP JUMPDEST PUSH2 0x1518 DUP3 DUP3 PUSH2 0x18A0 JUMP JUMPDEST PUSH2 0x1522 CALLER CALLVALUE PUSH2 0xDBE JUMP JUMPDEST POP POP JUMP JUMPDEST PUSH2 0x152E PUSH2 0x1758 JUMP JUMPDEST PUSH0 DUP3 DUP3 SWAP1 POP SWAP1 POP PUSH0 JUMPDEST DUP2 DUP2 LT ISZERO PUSH2 0x1719 JUMPI PUSH0 DUP5 DUP5 DUP4 DUP2 DUP2 LT PUSH2 0x1553 JUMPI PUSH2 0x1552 PUSH2 0x26EB JUMP JUMPDEST JUMPDEST SWAP1 POP PUSH1 0x20 MUL ADD CALLDATALOAD SWAP1 POP PUSH0 PUSH1 0x1 PUSH0 DUP4 DUP2 MSTORE PUSH1 0x20 ADD SWAP1 DUP2 MSTORE PUSH1 0x20 ADD PUSH0 KECCAK256 PUSH0 ADD PUSH1 0xC SWAP1 SLOAD SWAP1 PUSH2 0x100 EXP SWAP1 DIV PUSH12 0xFFFFFFFFFFFFFFFFFFFFFFFF AND PUSH12 0xFFFFFFFFFFFFFFFFFFFFFFFF AND SUB PUSH2 0x15D7 JUMPI PUSH1 0x40 MLOAD PUSH32 0x8C379A000000000000000000000000000000000000000000000000000000000 DUP2 MSTORE PUSH1 0x4 ADD PUSH2 0x15CE SWAP1 PUSH2 0x283E JUMP JUMPDEST PUSH1 0x40 MLOAD DUP1 SWAP2 SUB SWAP1 REVERT JUMPDEST PUSH1 0x1 PUSH0 DUP3 DUP2 MSTORE PUSH1 0x20 ADD SWAP1 DUP2 MSTORE PUSH1 0x20 ADD PUSH0 KECCAK256 PUSH0 DUP1 DUP3 ADD PUSH0 PUSH2 0x100 EXP DUP2 SLOAD SWAP1 PUSH12 0xFFFFFFFFFFFFFFFFFFFFFFFF MUL NOT AND SWAP1 SSTORE PUSH0 DUP3 ADD PUSH1 0xC PUSH2 0x100 EXP DUP2 SLOAD SWAP1 PUSH12 0xFFFFFFFFFFFFFFFFFFFFFFFF MUL NOT AND SWAP1 SSTORE PUSH0 DUP3 ADD PUSH1 0x18 PUSH2 0x100 EXP DUP2 SLOAD SWAP1 PUSH1 0xFF MUL NOT AND SWAP1 SSTORE PUSH1 0x1 DUP3 ADD PUSH0 PUSH2 0x1646 SWAP2 SWAP1 PUSH2 0x1B79 JUMP JUMPDEST PUSH1 0x2 DUP3 ADD PUSH0 PUSH2 0x1655 SWAP2 SWAP1 PUSH2 0x1B79 JUMP JUMPDEST POP POP PUSH0 JUMPDEST PUSH1 0x3 DUP1 SLOAD SWAP1 POP DUP2 LT ISZERO PUSH2 0x170C JUMPI DUP2 PUSH1 0x3 DUP3 DUP2 SLOAD DUP2 LT PUSH2 0x167B JUMPI PUSH2 0x167A PUSH2 0x26EB JUMP JUMPDEST JUMPDEST SWAP1 PUSH0 MSTORE PUSH1 0x20 PUSH0 KECCAK256 ADD SLOAD SUB PUSH2 0x1701 JUMPI PUSH1 0x3 PUSH1 0x1 PUSH1 0x3 DUP1 SLOAD SWAP1 POP PUSH2 0x169D SWAP2 SWAP1 PUSH2 0x285C JUMP JUMPDEST DUP2 SLOAD DUP2 LT PUSH2 0x16AE JUMPI PUSH2 0x16AD PUSH2 0x26EB JUMP JUMPDEST JUMPDEST SWAP1 PUSH0 MSTORE PUSH1 0x20 PUSH0 KECCAK256 ADD SLOAD PUSH1 0x3 DUP3 DUP2 SLOAD DUP2 LT PUSH2 0x16CB JUMPI PUSH2 0x16CA PUSH2 0x26EB JUMP JUMPDEST JUMPDEST SWAP1 PUSH0 MSTORE PUSH1 0x20 PUSH0 KECCAK256 ADD DUP2 SWAP1 SSTORE POP PUSH1 0x3 DUP1 SLOAD DUP1 PUSH2 0x16E9 JUMPI PUSH2 0x16E8 PUSH2 0x288F JUMP JUMPDEST JUMPDEST PUSH1 0x1 SWAP1 SUB DUP2 DUP2 SWAP1 PUSH0 MSTORE PUSH1 0x20 PUSH0 KECCAK256 ADD PUSH0 SWAP1 SSTORE SWAP1 SSTORE PUSH2 0x170C JUMP JUMPDEST DUP1 PUSH1 0x1 ADD SWAP1 POP PUSH2 0x1659 JUMP JUMPDEST POP DUP2 PUSH1 0x1 ADD SWAP2 POP POP PUSH2 0x1537 JUMP JUMPDEST POP PUSH32 0x7262BE1E48C30C363173FCB2FBF2DC2CB38D076DEE42CC37CDFBDF62AF5C3BED DUP4 DUP4 PUSH1 0x40 MLOAD PUSH2 0x174B SWAP3 SWAP2 SWAP1 PUSH2 0x29C2 JUMP JUMPDEST PUSH1 0x40 MLOAD DUP1 SWAP2 SUB SWAP1 LOG1 POP POP POP JUMP JUMPDEST PUSH2 0x1760 PUSH2 0x1B72 JUMP JUMPDEST PUSH20 0xFFFFFFFFFFFFFFFFFFFFFFFFFFFFFFFFFFFFFFFF AND PUSH2 0x177E PUSH2 0x105C JUMP JUMPDEST PUSH20 0xFFFFFFFFFFFFFFFFFFFFFFFFFFFFFFFFFFFFFFFF AND EQ PUSH2 0x17DD JUMPI PUSH2 0x17A1 PUSH2 0x1B72 JUMP JUMPDEST PUSH1 0x40 MLOAD PUSH32 0x118CDAA700000000000000000000000000000000000000000000000000000000 DUP2 MSTORE PUSH1 0x4 ADD PUSH2 0x17D4 SWAP2 SWAP1 PUSH2 0x211D JUMP JUMPDEST PUSH1 0x40 MLOAD DUP1 SWAP2 SUB SWAP1 REVERT JUMPDEST JUMP JUMPDEST PUSH0 DUP1 PUSH0 SWAP1 SLOAD SWAP1 PUSH2 0x100 EXP SWAP1 DIV PUSH20 0xFFFFFFFFFFFFFFFFFFFFFFFFFFFFFFFFFFFFFFFF AND SWAP1 POP DUP2 PUSH0 DUP1 PUSH2 0x100 EXP DUP2 SLOAD DUP2 PUSH20 0xFFFFFFFFFFFFFFFFFFFFFFFFFFFFFFFFFFFFFFFF MUL NOT AND SWAP1 DUP4 PUSH20 0xFFFFFFFFFFFFFFFFFFFFFFFFFFFFFFFFFFFFFFFF AND MUL OR SWAP1 SSTORE POP DUP2 PUSH20 0xFFFFFFFFFFFFFFFFFFFFFFFFFFFFFFFFFFFFFFFF AND DUP2 PUSH20 0xFFFFFFFFFFFFFFFFFFFFFFFFFFFFFFFFFFFFFFFF AND PUSH32 0x8BE0079C531659141344CD1FD0A4F28419497F9722A3DAAFE3B4186F6B6457E0 PUSH1 0x40 MLOAD PUSH1 0x40 MLOAD DUP1 SWAP2 SUB SWAP1 LOG3 POP POP JUMP JUMPDEST PUSH0 PUSH1 0x1 PUSH0 DUP5 DUP2 MSTORE PUSH1 0x20 ADD SWAP1 DUP2 MSTORE PUSH1 0x20 ADD PUSH0 KECCAK256 SWAP1 POP DUP1 PUSH0 ADD PUSH1 0x18 SWAP1 SLOAD SWAP1 PUSH2 0x100 EXP SWAP1 DIV PUSH1 0xFF AND PUSH2 0x1904 JUMPI PUSH1 0x40 MLOAD PUSH32 0x8C379A000000000000000000000000000000000000000000000000000000000 DUP2 MSTORE PUSH1 0x4 ADD PUSH2 0x18FB SWAP1 PUSH2 0x2A2E JUMP JUMPDEST PUSH1 0x40 MLOAD DUP1 SWAP2 SUB SWAP1 REVERT JUMPDEST DUP2 PUSH12 0xFFFFFFFFFFFFFFFFFFFFFFFF AND DUP2 PUSH0 ADD PUSH0 SWAP1 SLOAD SWAP1 PUSH2 0x100 EXP SWAP1 DIV PUSH12 0xFFFFFFFFFFFFFFFFFFFFFFFF AND PUSH12 0xFFFFFFFFFFFFFFFFFFFFFFFF AND LT ISZERO PUSH2 0x197D JUMPI PUSH1 0x40 MLOAD PUSH32 0x8C379A000000000000000000000000000000000000000000000000000000000 DUP2 MSTORE PUSH1 0x4 ADD PUSH2 0x1974 SWAP1 PUSH2 0x2A96 JUMP JUMPDEST PUSH1 0x40 MLOAD DUP1 SWAP2 SUB SWAP1 REVERT JUMPDEST DUP2 DUP2 PUSH0 ADD PUSH1 0xC SWAP1 SLOAD SWAP1 PUSH2 0x100 EXP SWAP1 DIV PUSH12 0xFFFFFFFFFFFFFFFFFFFFFFFF AND PUSH2 0x19A4 SWAP2 SWAP1 PUSH2 0x232A JUMP JUMPDEST PUSH12 0xFFFFFFFFFFFFFFFFFFFFFFFF AND CALLVALUE EQ PUSH2 0x19F3 JUMPI PUSH1 0x40 MLOAD PUSH32 0x8C379A000000000000000000000000000000000000000000000000000000000 DUP2 MSTORE PUSH1 0x4 ADD PUSH2 0x19EA SWAP1 PUSH2 0x2AFE JUMP JUMPDEST PUSH1 0x40 MLOAD DUP1 SWAP2 SUB SWAP1 REVERT JUMPDEST DUP2 DUP2 PUSH0 ADD PUSH0 DUP3 DUP3 DUP3 SWAP1 SLOAD SWAP1 PUSH2 0x100 EXP SWAP1 DIV PUSH12 0xFFFFFFFFFFFFFFFFFFFFFFFF AND SUB SWAP3 POP PUSH2 0x100 EXP DUP2 SLOAD DUP2 PUSH12 0xFFFFFFFFFFFFFFFFFFFFFFFF MUL NOT AND SWAP1 DUP4 PUSH12 0xFFFFFFFFFFFFFFFFFFFFFFFF AND MUL OR SWAP1 SSTORE POP DUP2 PUSH1 0x4 PUSH0 DUP3 DUP3 DUP3 SWAP1 SLOAD SWAP1 PUSH2 0x100 EXP SWAP1 DIV PUSH12 0xFFFFFFFFFFFFFFFFFFFFFFFF AND ADD SWAP3 POP PUSH2 0x100 EXP DUP2 SLOAD DUP2 PUSH12 0xFFFFFFFFFFFFFFFFFFFFFFFF MUL NOT AND SWAP1 DUP4 PUSH12 0xFFFFFFFFFFFFFFFFFFFFFFFF AND MUL OR SWAP1 SSTORE POP PUSH0 DUP2 PUSH0 ADD PUSH0 SWAP1 SLOAD SWAP1 PUSH2 0x100 EXP SWAP1 DIV PUSH12 0xFFFFFFFFFFFFFFFFFFFFFFFF AND PUSH12 0xFFFFFFFFFFFFFFFFFFFFFFFF AND GT DUP2 PUSH0 ADD PUSH1 0x18 PUSH2 0x100 EXP DUP2 SLOAD DUP2 PUSH1 0xFF MUL NOT AND SWAP1 DUP4 ISZERO ISZERO MUL OR SWAP1 SSTORE POP PUSH2 0x1ADB PUSH2 0x105C JUMP JUMPDEST PUSH20 0xFFFFFFFFFFFFFFFFFFFFFFFFFFFFFFFFFFFFFFFF AND PUSH2 0x8FC CALLVALUE SWAP1 DUP2 ISZERO MUL SWAP1 PUSH1 0x40 MLOAD PUSH0 PUSH1 0x40 MLOAD DUP1 DUP4 SUB DUP2 DUP6 DUP9 DUP9 CALL SWAP4 POP POP POP POP ISZERO DUP1 ISZERO PUSH2 0x1B1D JUMPI RETURNDATASIZE PUSH0 DUP1 RETURNDATACOPY RETURNDATASIZE PUSH0 REVERT JUMPDEST POP CALLER PUSH20 0xFFFFFFFFFFFFFFFFFFFFFFFFFFFFFFFFFFFFFFFF AND DUP4 PUSH32 0x4E8E9BC53224DD7F5549D1A97FE174D12E6FF0064E2CCB78D886FC515C98859D DUP5 PUSH1 0x40 MLOAD PUSH2 0x1B65 SWAP2 SWAP1 PUSH2 0x2136 JUMP JUMPDEST PUSH1 0x40 MLOAD DUP1 SWAP2 SUB SWAP1 LOG3 POP POP POP JUMP JUMPDEST PUSH0 CALLER SWAP1 POP SWAP1 JUMP JUMPDEST POP DUP1 SLOAD PUSH2 0x1B85 SWAP1 PUSH2 0x23C0 JUMP JUMPDEST PUSH0 DUP3 SSTORE DUP1 PUSH1 0x1F LT PUSH2 0x1B96 JUMPI POP PUSH2 0x1BB3 JUMP JUMPDEST PUSH1 0x1F ADD PUSH1 0x20 SWAP1 DIV SWAP1 PUSH0 MSTORE PUSH1 0x20 PUSH0 KECCAK256 SWAP1 DUP2 ADD SWAP1 PUSH2 0x1BB2 SWAP2 SWAP1 PUSH2 0x1BB6 JUMP JUMPDEST JUMPDEST POP JUMP JUMPDEST JUMPDEST DUP1 DUP3 GT ISZERO PUSH2 0x1BCD JUMPI PUSH0 DUP2 PUSH0 SWAP1 SSTORE POP PUSH1 0x1 ADD PUSH2 0x1BB7 JUMP JUMPDEST POP SWAP1 JUMP JUMPDEST PUSH0 DUP1 REVERT JUMPDEST PUSH0 DUP1 REVERT JUMPDEST PUSH0 PUSH20 0xFFFFFFFFFFFFFFFFFFFFFFFFFFFFFFFFFFFFFFFF DUP3 AND SWAP1 POP SWAP2 SWAP1 POP JUMP JUMPDEST PUSH0 PUSH2 0x1C02 DUP3 PUSH2 0x1BD9 JUMP JUMPDEST SWAP1 POP SWAP2 SWAP1 POP JUMP JUMPDEST PUSH2 0x1C12 DUP2 PUSH2 0x1BF8 JUMP JUMPDEST DUP2 EQ PUSH2 0x1C1C JUMPI PUSH0 DUP1 REVERT JUMPDEST POP JUMP JUMPDEST PUSH0 DUP2 CALLDATALOAD SWAP1 POP PUSH2 0x1C2D DUP2 PUSH2 0x1C09 JUMP JUMPDEST SWAP3 SWAP2 POP POP JUMP JUMPDEST PUSH0 PUSH1 0x20 DUP3 DUP5 SUB SLT ISZERO PUSH2 0x1C48 JUMPI PUSH2 0x1C47 PUSH2 0x1BD1 JUMP JUMPDEST JUMPDEST PUSH0 PUSH2 0x1C55 DUP5 DUP3 DUP6 ADD PUSH2 0x1C1F JUMP JUMPDEST SWAP2 POP POP SWAP3 SWAP2 POP POP JUMP JUMPDEST PUSH0 DUP2 SWAP1 POP SWAP2 SWAP1 POP JUMP JUMPDEST PUSH2 0x1C70 DUP2 PUSH2 0x1C5E JUMP JUMPDEST DUP2 EQ PUSH2 0x1C7A JUMPI PUSH0 DUP1 REVERT JUMPDEST POP JUMP JUMPDEST PUSH0 DUP2 CALLDATALOAD SWAP1 POP PUSH2 0x1C8B DUP2 PUSH2 0x1C67 JUMP JUMPDEST SWAP3 SWAP2 POP POP JUMP JUMPDEST PUSH0 DUP1 REVERT JUMPDEST PUSH0 DUP1 REVERT JUMPDEST PUSH0 DUP1 REVERT JUMPDEST PUSH0 DUP1 DUP4 PUSH1 0x1F DUP5 ADD SLT PUSH2 0x1CB2 JUMPI PUSH2 0x1CB1 PUSH2 0x1C91 JUMP JUMPDEST JUMPDEST DUP3 CALLDATALOAD SWAP1 POP PUSH8 0xFFFFFFFFFFFFFFFF DUP2 GT ISZERO PUSH2 0x1CCF JUMPI PUSH2 0x1CCE PUSH2 0x1C95 JUMP JUMPDEST JUMPDEST PUSH1 0x20 DUP4 ADD SWAP2 POP DUP4 PUSH1 0x1 DUP3 MUL DUP4 ADD GT ISZERO PUSH2 0x1CEB JUMPI PUSH2 0x1CEA PUSH2 0x1C99 JUMP JUMPDEST JUMPDEST SWAP3 POP SWAP3 SWAP1 POP JUMP JUMPDEST PUSH0 PUSH12 0xFFFFFFFFFFFFFFFFFFFFFFFF DUP3 AND SWAP1 POP SWAP2 SWAP1 POP JUMP JUMPDEST PUSH2 0x1D12 DUP2 PUSH2 0x1CF2 JUMP JUMPDEST DUP2 EQ PUSH2 0x1D1C JUMPI PUSH0 DUP1 REVERT JUMPDEST POP JUMP JUMPDEST PUSH0 DUP2 CALLDATALOAD SWAP1 POP PUSH2 0x1D2D DUP2 PUSH2 0x1D09 JUMP JUMPDEST SWAP3 SWAP2 POP POP JUMP JUMPDEST PUSH0 DUP1 PUSH0 DUP1 PUSH0 DUP1 PUSH0 PUSH1 0xA0 DUP9 DUP11 SUB SLT ISZERO PUSH2 0x1D4E JUMPI PUSH2 0x1D4D PUSH2 0x1BD1 JUMP JUMPDEST JUMPDEST PUSH0 PUSH2 0x1D5B DUP11 DUP3 DUP12 ADD PUSH2 0x1C7D JUMP JUMPDEST SWAP8 POP POP PUSH1 0x20 DUP9 ADD CALLDATALOAD PUSH8 0xFFFFFFFFFFFFFFFF DUP2 GT ISZERO PUSH2 0x1D7C JUMPI PUSH2 0x1D7B PUSH2 0x1BD5 JUMP JUMPDEST JUMPDEST PUSH2 0x1D88 DUP11 DUP3 DUP12 ADD PUSH2 0x1C9D JUMP JUMPDEST SWAP7 POP SWAP7 POP POP PUSH1 0x40 DUP9 ADD CALLDATALOAD PUSH8 0xFFFFFFFFFFFFFFFF DUP2 GT ISZERO PUSH2 0x1DAB JUMPI PUSH2 0x1DAA PUSH2 0x1BD5 JUMP JUMPDEST JUMPDEST PUSH2 0x1DB7 DUP11 DUP3 DUP12 ADD PUSH2 0x1C9D JUMP JUMPDEST SWAP5 POP SWAP5 POP POP PUSH1 0x60 PUSH2 0x1DCA DUP11 DUP3 DUP12 ADD PUSH2 0x1D1F JUMP JUMPDEST SWAP3 POP POP PUSH1 0x80 PUSH2 0x1DDB DUP11 DUP3 DUP12 ADD PUSH2 0x1D1F JUMP JUMPDEST SWAP2 POP POP SWAP3 SWAP6 SWAP9 SWAP2 SWAP5 SWAP8 POP SWAP3 SWAP6 POP JUMP JUMPDEST PUSH0 DUP2 MLOAD SWAP1 POP SWAP2 SWAP1 POP JUMP JUMPDEST PUSH0 DUP3 DUP3 MSTORE PUSH1 0x20 DUP3 ADD SWAP1 POP SWAP3 SWAP2 POP POP JUMP JUMPDEST PUSH0 DUP2 SWAP1 POP PUSH1 0x20 DUP3 ADD SWAP1 POP SWAP2 SWAP1 POP JUMP JUMPDEST PUSH0 DUP2 MLOAD SWAP1 POP SWAP2 SWAP1 POP JUMP JUMPDEST PUSH0 DUP3 DUP3 MSTORE PUSH1 0x20 DUP3 ADD SWAP1 POP SWAP3 SWAP2 POP POP JUMP JUMPDEST DUP3 DUP2 DUP4 MCOPY PUSH0 DUP4 DUP4 ADD MSTORE POP POP POP JUMP JUMPDEST PUSH0 PUSH1 0x1F NOT PUSH1 0x1F DUP4 ADD AND SWAP1 POP SWAP2 SWAP1 POP JUMP JUMPDEST PUSH0 PUSH2 0x1E55 DUP3 PUSH2 0x1E13 JUMP JUMPDEST PUSH2 0x1E5F DUP2 DUP6 PUSH2 0x1E1D JUMP JUMPDEST SWAP4 POP PUSH2 0x1E6F DUP2 DUP6 PUSH1 0x20 DUP7 ADD PUSH2 0x1E2D JUMP JUMPDEST PUSH2 0x1E78 DUP2 PUSH2 0x1E3B JUMP JUMPDEST DUP5 ADD SWAP2 POP POP SWAP3 SWAP2 POP POP JUMP JUMPDEST PUSH0 PUSH2 0x1E8E DUP4 DUP4 PUSH2 0x1E4B JUMP JUMPDEST SWAP1 POP SWAP3 SWAP2 POP POP JUMP JUMPDEST PUSH0 PUSH1 0x20 DUP3 ADD SWAP1 POP SWAP2 SWAP1 POP JUMP JUMPDEST PUSH0 PUSH2 0x1EAC DUP3 PUSH2 0x1DEA JUMP JUMPDEST PUSH2 0x1EB6 DUP2 DUP6 PUSH2 0x1DF4 JUMP JUMPDEST SWAP4 POP DUP4 PUSH1 0x20 DUP3 MUL DUP6 ADD PUSH2 0x1EC8 DUP6 PUSH2 0x1E04 JUMP JUMPDEST DUP1 PUSH0 JUMPDEST DUP6 DUP2 LT ISZERO PUSH2 0x1F03 JUMPI DUP5 DUP5 SUB DUP10 MSTORE DUP2 MLOAD PUSH2 0x1EE4 DUP6 DUP3 PUSH2 0x1E83 JUMP JUMPDEST SWAP5 POP PUSH2 0x1EEF DUP4 PUSH2 0x1E96 JUMP JUMPDEST SWAP3 POP PUSH1 0x20 DUP11 ADD SWAP10 POP POP PUSH1 0x1 DUP2 ADD SWAP1 POP PUSH2 0x1ECB JUMP JUMPDEST POP DUP3 SWAP8 POP DUP8 SWAP6 POP POP POP POP POP POP SWAP3 SWAP2 POP POP JUMP JUMPDEST PUSH0 PUSH1 0x20 DUP3 ADD SWAP1 POP DUP2 DUP2 SUB PUSH0 DUP4 ADD MSTORE PUSH2 0x1F2D DUP2 DUP5 PUSH2 0x1EA2 JUMP JUMPDEST SWAP1 POP SWAP3 SWAP2 POP POP JUMP JUMPDEST PUSH0 DUP2 ISZERO ISZERO SWAP1 POP SWAP2 SWAP1 POP JUMP JUMPDEST PUSH2 0x1F49 DUP2 PUSH2 0x1F35 JUMP JUMPDEST DUP3 MSTORE POP POP JUMP JUMPDEST PUSH0 PUSH1 0x20 DUP3 ADD SWAP1 POP PUSH2 0x1F62 PUSH0 DUP4 ADD DUP5 PUSH2 0x1F40 JUMP JUMPDEST SWAP3 SWAP2 POP POP JUMP JUMPDEST PUSH2 0x1F71 DUP2 PUSH2 0x1C5E JUMP JUMPDEST DUP3 MSTORE POP POP JUMP JUMPDEST PUSH0 PUSH1 0x20 DUP3 ADD SWAP1 POP PUSH2 0x1F8A PUSH0 DUP4 ADD DUP5 PUSH2 0x1F68 JUMP JUMPDEST SWAP3 SWAP2 POP POP JUMP JUMPDEST PUSH0 PUSH1 0x20 DUP3 DUP5 SUB SLT ISZERO PUSH2 0x1FA5 JUMPI PUSH2 0x1FA4 PUSH2 0x1BD1 JUMP JUMPDEST JUMPDEST PUSH0 PUSH2 0x1FB2 DUP5 DUP3 DUP6 ADD PUSH2 0x1C7D JUMP JUMPDEST SWAP2 POP POP SWAP3 SWAP2 POP POP JUMP JUMPDEST PUSH0 DUP3 DUP3 MSTORE PUSH1 0x20 DUP3 ADD SWAP1 POP SWAP3 SWAP2 POP POP JUMP JUMPDEST PUSH0 PUSH2 0x1FD5 DUP3 PUSH2 0x1E13 JUMP JUMPDEST PUSH2 0x1FDF DUP2 DUP6 PUSH2 0x1FBB JUMP JUMPDEST SWAP4 POP PUSH2 0x1FEF DUP2 DUP6 PUSH1 0x20 DUP7 ADD PUSH2 0x1E2D JUMP JUMPDEST PUSH2 0x1FF8 DUP2 PUSH2 0x1E3B JUMP JUMPDEST DUP5 ADD SWAP2 POP POP SWAP3 SWAP2 POP POP JUMP JUMPDEST PUSH2 0x200C DUP2 PUSH2 0x1CF2 JUMP JUMPDEST DUP3 MSTORE POP POP JUMP JUMPDEST PUSH0 PUSH1 0xA0 DUP3 ADD SWAP1 POP DUP2 DUP2 SUB PUSH0 DUP4 ADD MSTORE PUSH2 0x202A DUP2 DUP9 PUSH2 0x1FCB JUMP JUMPDEST SWAP1 POP DUP2 DUP2 SUB PUSH1 0x20 DUP4 ADD MSTORE PUSH2 0x203E DUP2 DUP8 PUSH2 0x1FCB JUMP JUMPDEST SWAP1 POP PUSH2 0x204D PUSH1 0x40 DUP4 ADD DUP7 PUSH2 0x2003 JUMP JUMPDEST PUSH2 0x205A PUSH1 0x60 DUP4 ADD DUP6 PUSH2 0x2003 JUMP JUMPDEST PUSH2 0x2067 PUSH1 0x80 DUP4 ADD DUP5 PUSH2 0x1F40 JUMP JUMPDEST SWAP7 SWAP6 POP POP POP POP POP POP JUMP JUMPDEST PUSH0 PUSH1 0xA0 DUP3 ADD SWAP1 POP PUSH2 0x2084 PUSH0 DUP4 ADD DUP9 PUSH2 0x2003 JUMP JUMPDEST PUSH2 0x2091 PUSH1 0x20 DUP4 ADD DUP8 PUSH2 0x2003 JUMP JUMPDEST PUSH2 0x209E PUSH1 0x40 DUP4 ADD DUP7 PUSH2 0x1F40 JUMP JUMPDEST DUP2 DUP2 SUB PUSH1 0x60 DUP4 ADD MSTORE PUSH2 0x20B0 DUP2 DUP6 PUSH2 0x1FCB JUMP JUMPDEST SWAP1 POP DUP2 DUP2 SUB PUSH1 0x80 DUP4 ADD MSTORE PUSH2 0x20C4 DUP2 DUP5 PUSH2 0x1FCB JUMP JUMPDEST SWAP1 POP SWAP7 SWAP6 POP POP POP POP POP POP JUMP JUMPDEST PUSH0 DUP1 PUSH1 0x40 DUP4 DUP6 SUB SLT ISZERO PUSH2 0x20E6 JUMPI PUSH2 0x20E5 PUSH2 0x1BD1 JUMP JUMPDEST JUMPDEST PUSH0 PUSH2 0x20F3 DUP6 DUP3 DUP7 ADD PUSH2 0x1C1F JUMP JUMPDEST SWAP3 POP POP PUSH1 0x20 PUSH2 0x2104 DUP6 DUP3 DUP7 ADD PUSH2 0x1C7D JUMP JUMPDEST SWAP2 POP POP SWAP3 POP SWAP3 SWAP1 POP JUMP JUMPDEST PUSH2 0x2117 DUP2 PUSH2 0x1BF8 JUMP JUMPDEST DUP3 MSTORE POP POP JUMP JUMPDEST PUSH0 PUSH1 0x20 DUP3 ADD SWAP1 POP PUSH2 0x2130 PUSH0 DUP4 ADD DUP5 PUSH2 0x210E JUMP JUMPDEST SWAP3 SWAP2 POP POP JUMP JUMPDEST PUSH0 PUSH1 0x20 DUP3 ADD SWAP1 POP PUSH2 0x2149 PUSH0 DUP4 ADD DUP5 PUSH2 0x2003 JUMP JUMPDEST SWAP3 SWAP2 POP POP JUMP JUMPDEST PUSH0 DUP1 PUSH1 0x40 DUP4 DUP6 SUB SLT ISZERO PUSH2 0x2165 JUMPI PUSH2 0x2164 PUSH2 0x1BD1 JUMP JUMPDEST JUMPDEST PUSH0 PUSH2 0x2172 DUP6 DUP3 DUP7 ADD PUSH2 0x1C7D JUMP JUMPDEST SWAP3 POP POP PUSH1 0x20 PUSH2 0x2183 DUP6 DUP3 DUP7 ADD PUSH2 0x1D1F JUMP JUMPDEST SWAP2 POP POP SWAP3 POP SWAP3 SWAP1 POP JUMP JUMPDEST PUSH0 DUP1 DUP4 PUSH1 0x1F DUP5 ADD SLT PUSH2 0x21A2 JUMPI PUSH2 0x21A1 PUSH2 0x1C91 JUMP JUMPDEST JUMPDEST DUP3 CALLDATALOAD SWAP1 POP PUSH8 0xFFFFFFFFFFFFFFFF DUP2 GT ISZERO PUSH2 0x21BF JUMPI PUSH2 0x21BE PUSH2 0x1C95 JUMP JUMPDEST JUMPDEST PUSH1 0x20 DUP4 ADD SWAP2 POP DUP4 PUSH1 0x20 DUP3 MUL DUP4 ADD GT ISZERO PUSH2 0x21DB JUMPI PUSH2 0x21DA PUSH2 0x1C99 JUMP JUMPDEST JUMPDEST SWAP3 POP SWAP3 SWAP1 POP JUMP JUMPDEST PUSH0 DUP1 PUSH1 0x20 DUP4 DUP6 SUB SLT ISZERO PUSH2 0x21F8 JUMPI PUSH2 0x21F7 PUSH2 0x1BD1 JUMP JUMPDEST JUMPDEST PUSH0 DUP4 ADD CALLDATALOAD PUSH8 0xFFFFFFFFFFFFFFFF DUP2 GT ISZERO PUSH2 0x2215 JUMPI PUSH2 0x2214 PUSH2 0x1BD5 JUMP JUMPDEST JUMPDEST PUSH2 0x2221 DUP6 DUP3 DUP7 ADD PUSH2 0x218D JUMP JUMPDEST SWAP3 POP SWAP3 POP POP SWAP3 POP SWAP3 SWAP1 POP JUMP JUMPDEST PUSH32 0x437573746F6D657220497320416C726561647920537562736372696265642100 PUSH0 DUP3 ADD MSTORE POP JUMP JUMPDEST PUSH0 PUSH2 0x2261 PUSH1 0x1F DUP4 PUSH2 0x1FBB JUMP JUMPDEST SWAP2 POP PUSH2 0x226C DUP3 PUSH2 0x222D JUMP JUMPDEST PUSH1 0x20 DUP3 ADD SWAP1 POP SWAP2 SWAP1 POP JUMP JUMPDEST PUSH0 PUSH1 0x20 DUP3 ADD SWAP1 POP DUP2 DUP2 SUB PUSH0 DUP4 ADD MSTORE PUSH2 0x228E DUP2 PUSH2 0x2255 JUMP JUMPDEST SWAP1 POP SWAP2 SWAP1 POP JUMP JUMPDEST PUSH32 0x426F6F6B20657869737473000000000000000000000000000000000000000000 PUSH0 DUP3 ADD MSTORE POP JUMP JUMPDEST PUSH0 PUSH2 0x22C9 PUSH1 0xB DUP4 PUSH2 0x1FBB JUMP JUMPDEST SWAP2 POP PUSH2 0x22D4 DUP3 PUSH2 0x2295 JUMP JUMPDEST PUSH1 0x20 DUP3 ADD SWAP1 POP SWAP2 SWAP1 POP JUMP JUMPDEST PUSH0 PUSH1 0x20 DUP3 ADD SWAP1 POP DUP2 DUP2 SUB PUSH0 DUP4 ADD MSTORE PUSH2 0x22F6 DUP2 PUSH2 0x22BD JUMP JUMPDEST SWAP1 POP SWAP2 SWAP1 POP JUMP JUMPDEST PUSH32 0x4E487B7100000000000000000000000000000000000000000000000000000000 PUSH0 MSTORE PUSH1 0x11 PUSH1 0x4 MSTORE PUSH1 0x24 PUSH0 REVERT JUMPDEST PUSH0 PUSH2 0x2334 DUP3 PUSH2 0x1CF2 JUMP JUMPDEST SWAP2 POP PUSH2 0x233F DUP4 PUSH2 0x1CF2 JUMP JUMPDEST SWAP3 POP DUP3 DUP3 MUL PUSH2 0x234D DUP2 PUSH2 0x1CF2 JUMP JUMPDEST SWAP2 POP DUP1 DUP3 EQ PUSH2 0x235F JUMPI PUSH2 0x235E PUSH2 0x22FD JUMP JUMPDEST JUMPDEST POP SWAP3 SWAP2 POP POP JUMP JUMPDEST PUSH32 0x4E487B7100000000000000000000000000000000000000000000000000000000 PUSH0 MSTORE PUSH1 0x41 PUSH1 0x4 MSTORE PUSH1 0x24 PUSH0 REVERT JUMPDEST PUSH32 0x4E487B7100000000000000000000000000000000000000000000000000000000 PUSH0 MSTORE PUSH1 0x22 PUSH1 0x4 MSTORE PUSH1 0x24 PUSH0 REVERT JUMPDEST PUSH0 PUSH1 0x2 DUP3 DIV SWAP1 POP PUSH1 0x1 DUP3 AND DUP1 PUSH2 0x23D7 JUMPI PUSH1 0x7F DUP3 AND SWAP2 POP JUMPDEST PUSH1 0x20 DUP3 LT DUP2 SUB PUSH2 0x23EA JUMPI PUSH2 0x23E9 PUSH2 0x2393 JUMP JUMPDEST JUMPDEST POP SWAP2 SWAP1 POP JUMP JUMPDEST PUSH0 DUP2 SWAP1 POP DUP2 PUSH0 MSTORE PUSH1 0x20 PUSH0 KECCAK256 SWAP1 POP SWAP2 SWAP1 POP JUMP JUMPDEST PUSH0 PUSH1 0x20 PUSH1 0x1F DUP4 ADD DIV SWAP1 POP SWAP2 SWAP1 POP JUMP JUMPDEST PUSH0 DUP3 DUP3 SHL SWAP1 POP SWAP3 SWAP2 POP POP JUMP JUMPDEST PUSH0 PUSH1 0x8 DUP4 MUL PUSH2 0x244C PUSH32 0xFFFFFFFFFFFFFFFFFFFFFFFFFFFFFFFFFFFFFFFFFFFFFFFFFFFFFFFFFFFFFFFF DUP3 PUSH2 0x2411 JUMP JUMPDEST PUSH2 0x2456 DUP7 DUP4 PUSH2 0x2411 JUMP JUMPDEST SWAP6 POP DUP1 NOT DUP5 AND SWAP4 POP DUP1 DUP7 AND DUP5 OR SWAP3 POP POP POP SWAP4 SWAP3 POP POP POP JUMP JUMPDEST PUSH0 DUP2 SWAP1 POP SWAP2 SWAP1 POP JUMP JUMPDEST PUSH0 PUSH2 0x2491 PUSH2 0x248C PUSH2 0x2487 DUP5 PUSH2 0x1C5E JUMP JUMPDEST PUSH2 0x246E JUMP JUMPDEST PUSH2 0x1C5E JUMP JUMPDEST SWAP1 POP SWAP2 SWAP1 POP JUMP JUMPDEST PUSH0 DUP2 SWAP1 POP SWAP2 SWAP1 POP JUMP JUMPDEST PUSH2 0x24AA DUP4 PUSH2 0x2477 JUMP JUMPDEST PUSH2 0x24BE PUSH2 0x24B6 DUP3 PUSH2 0x2498 JUMP JUMPDEST DUP5 DUP5 SLOAD PUSH2 0x241D JUMP JUMPDEST DUP3 SSTORE POP POP POP POP JUMP JUMPDEST PUSH0 SWAP1 JUMP JUMPDEST PUSH2 0x24D2 PUSH2 0x24C6 JUMP JUMPDEST PUSH2 0x24DD DUP2 DUP5 DUP5 PUSH2 0x24A1 JUMP JUMPDEST POP POP POP JUMP JUMPDEST JUMPDEST DUP2 DUP2 LT ISZERO PUSH2 0x2500 JUMPI PUSH2 0x24F5 PUSH0 DUP3 PUSH2 0x24CA JUMP JUMPDEST PUSH1 0x1 DUP2 ADD SWAP1 POP PUSH2 0x24E3 JUMP JUMPDEST POP POP JUMP JUMPDEST PUSH1 0x1F DUP3 GT ISZERO PUSH2 0x2545 JUMPI PUSH2 0x2516 DUP2 PUSH2 0x23F0 JUMP JUMPDEST PUSH2 0x251F DUP5 PUSH2 0x2402 JUMP JUMPDEST DUP2 ADD PUSH1 0x20 DUP6 LT ISZERO PUSH2 0x252E JUMPI DUP2 SWAP1 POP JUMPDEST PUSH2 0x2542 PUSH2 0x253A DUP6 PUSH2 0x2402 JUMP JUMPDEST DUP4 ADD DUP3 PUSH2 0x24E2 JUMP JUMPDEST POP POP JUMPDEST POP POP POP JUMP JUMPDEST PUSH0 DUP3 DUP3 SHR SWAP1 POP SWAP3 SWAP2 POP POP JUMP JUMPDEST PUSH0 PUSH2 0x2565 PUSH0 NOT DUP5 PUSH1 0x8 MUL PUSH2 0x254A JUMP JUMPDEST NOT DUP1 DUP4 AND SWAP2 POP POP SWAP3 SWAP2 POP POP JUMP JUMPDEST PUSH0 PUSH2 0x257D DUP4 DUP4 PUSH2 0x2556 JUMP JUMPDEST SWAP2 POP DUP3 PUSH1 0x2 MUL DUP3 OR SWAP1 POP SWAP3 SWAP2 POP POP JUMP JUMPDEST PUSH2 0x2596 DUP3 PUSH2 0x1E13 JUMP JUMPDEST PUSH8 0xFFFFFFFFFFFFFFFF DUP2 GT ISZERO PUSH2 0x25AF JUMPI PUSH2 0x25AE PUSH2 0x2366 JUMP JUMPDEST JUMPDEST PUSH2 0x25B9 DUP3 SLOAD PUSH2 0x23C0 JUMP JUMPDEST PUSH2 0x25C4 DUP3 DUP3 DUP6 PUSH2 0x2504 JUMP JUMPDEST PUSH0 PUSH1 0x20 SWAP1 POP PUSH1 0x1F DUP4 GT PUSH1 0x1 DUP2 EQ PUSH2 0x25F5 JUMPI PUSH0 DUP5 ISZERO PUSH2 0x25E3 JUMPI DUP3 DUP8 ADD MLOAD SWAP1 POP JUMPDEST PUSH2 0x25ED DUP6 DUP3 PUSH2 0x2572 JUMP JUMPDEST DUP7 SSTORE POP PUSH2 0x2654 JUMP JUMPDEST PUSH1 0x1F NOT DUP5 AND PUSH2 0x2603 DUP7 PUSH2 0x23F0 JUMP JUMPDEST PUSH0 JUMPDEST DUP3 DUP2 LT ISZERO PUSH2 0x262A JUMPI DUP5 DUP10 ADD MLOAD DUP3 SSTORE PUSH1 0x1 DUP3 ADD SWAP2 POP PUSH1 0x20 DUP6 ADD SWAP5 POP PUSH1 0x20 DUP2 ADD SWAP1 POP PUSH2 0x2605 JUMP JUMPDEST DUP7 DUP4 LT ISZERO PUSH2 0x2647 JUMPI DUP5 DUP10 ADD MLOAD PUSH2 0x2643 PUSH1 0x1F DUP10 AND DUP3 PUSH2 0x2556 JUMP JUMPDEST DUP4 SSTORE POP JUMPDEST PUSH1 0x1 PUSH1 0x2 DUP9 MUL ADD DUP9 SSTORE POP POP POP JUMPDEST POP POP POP POP POP POP JUMP JUMPDEST DUP3 DUP2 DUP4 CALLDATACOPY PUSH0 DUP4 DUP4 ADD MSTORE POP POP POP JUMP JUMPDEST PUSH0 PUSH2 0x2675 DUP4 DUP6 PUSH2 0x1FBB JUMP JUMPDEST SWAP4 POP PUSH2 0x2682 DUP4 DUP6 DUP5 PUSH2 0x265C JUMP JUMPDEST PUSH2 0x268B DUP4 PUSH2 0x1E3B JUMP JUMPDEST DUP5 ADD SWAP1 POP SWAP4 SWAP3 POP POP POP JUMP JUMPDEST PUSH0 PUSH1 0x80 DUP3 ADD SWAP1 POP DUP2 DUP2 SUB PUSH0 DUP4 ADD MSTORE PUSH2 0x26AF DUP2 DUP9 DUP11 PUSH2 0x266A JUMP JUMPDEST SWAP1 POP DUP2 DUP2 SUB PUSH1 0x20 DUP4 ADD MSTORE PUSH2 0x26C4 DUP2 DUP7 DUP9 PUSH2 0x266A JUMP JUMPDEST SWAP1 POP PUSH2 0x26D3 PUSH1 0x40 DUP4 ADD DUP6 PUSH2 0x2003 JUMP JUMPDEST PUSH2 0x26E0 PUSH1 0x60 DUP4 ADD DUP5 PUSH2 0x2003 JUMP JUMPDEST SWAP8 SWAP7 POP POP POP POP POP POP POP JUMP JUMPDEST PUSH32 0x4E487B7100000000000000000000000000000000000000000000000000000000 PUSH0 MSTORE PUSH1 0x32 PUSH1 0x4 MSTORE PUSH1 0x24 PUSH0 REVERT JUMPDEST PUSH32 0x437573746F6D6572204973204E6F742053756273637269626564210000000000 PUSH0 DUP3 ADD MSTORE POP JUMP JUMPDEST PUSH0 PUSH2 0x274C PUSH1 0x1B DUP4 PUSH2 0x1FBB JUMP JUMPDEST SWAP2 POP PUSH2 0x2757 DUP3 PUSH2 0x2718 JUMP JUMPDEST PUSH1 0x20 DUP3 ADD SWAP1 POP SWAP2 SWAP1 POP JUMP JUMPDEST PUSH0 PUSH1 0x20 DUP3 ADD SWAP1 POP DUP2 DUP2 SUB PUSH0 DUP4 ADD MSTORE PUSH2 0x2779 DUP2 PUSH2 0x2740 JUMP JUMPDEST SWAP1 POP SWAP2 SWAP1 POP JUMP JUMPDEST PUSH0 PUSH2 0x278A DUP3 PUSH2 0x1C5E JUMP JUMPDEST SWAP2 POP PUSH2 0x2795 DUP4 PUSH2 0x1C5E JUMP JUMPDEST SWAP3 POP DUP3 DUP3 MUL PUSH2 0x27A3 DUP2 PUSH2 0x1C5E JUMP JUMPDEST SWAP2 POP DUP3 DUP3 DIV DUP5 EQ DUP4 ISZERO OR PUSH2 0x27BA JUMPI PUSH2 0x27B9 PUSH2 0x22FD JUMP JUMPDEST JUMPDEST POP SWAP3 SWAP2 POP POP JUMP JUMPDEST PUSH0 PUSH2 0x27CB DUP3 PUSH2 0x1C5E JUMP JUMPDEST SWAP2 POP PUSH2 0x27D6 DUP4 PUSH2 0x1C5E JUMP JUMPDEST SWAP3 POP DUP3 DUP3 ADD SWAP1 POP DUP1 DUP3 GT ISZERO PUSH2 0x27EE JUMPI PUSH2 0x27ED PUSH2 0x22FD JUMP JUMPDEST JUMPDEST SWAP3 SWAP2 POP POP JUMP JUMPDEST PUSH32 0x426F6F6B206E6F74206578697374000000000000000000000000000000000000 PUSH0 DUP3 ADD MSTORE POP JUMP JUMPDEST PUSH0 PUSH2 0x2828 PUSH1 0xE DUP4 PUSH2 0x1FBB JUMP JUMPDEST SWAP2 POP PUSH2 0x2833 DUP3 PUSH2 0x27F4 JUMP JUMPDEST PUSH1 0x20 DUP3 ADD SWAP1 POP SWAP2 SWAP1 POP JUMP JUMPDEST PUSH0 PUSH1 0x20 DUP3 ADD SWAP1 POP DUP2 DUP2 SUB PUSH0 DUP4 ADD MSTORE PUSH2 0x2855 DUP2 PUSH2 0x281C JUMP JUMPDEST SWAP1 POP SWAP2 SWAP1 POP JUMP JUMPDEST PUSH0 PUSH2 0x2866 DUP3 PUSH2 0x1C5E JUMP JUMPDEST SWAP2 POP PUSH2 0x2871 DUP4 PUSH2 0x1C5E JUMP JUMPDEST SWAP3 POP DUP3 DUP3 SUB SWAP1 POP DUP2 DUP2 GT ISZERO PUSH2 0x2889 JUMPI PUSH2 0x2888 PUSH2 0x22FD JUMP JUMPDEST JUMPDEST SWAP3 SWAP2 POP POP JUMP JUMPDEST PUSH32 0x4E487B7100000000000000000000000000000000000000000000000000000000 PUSH0 MSTORE PUSH1 0x31 PUSH1 0x4 MSTORE PUSH1 0x24 PUSH0 REVERT JUMPDEST PUSH32 0x437573746F6D657220486173204E6F74204A6F696E656420546865204C6F7961 PUSH0 DUP3 ADD MSTORE PUSH32 0x6C74792050726F6772616D210000000000000000000000000000000000000000 PUSH1 0x20 DUP3 ADD MSTORE POP JUMP JUMPDEST PUSH0 PUSH2 0x2916 PUSH1 0x2C DUP4 PUSH2 0x1FBB JUMP JUMPDEST SWAP2 POP PUSH2 0x2921 DUP3 PUSH2 0x28BC JUMP JUMPDEST PUSH1 0x40 DUP3 ADD SWAP1 POP SWAP2 SWAP1 POP JUMP JUMPDEST PUSH0 PUSH1 0x20 DUP3 ADD SWAP1 POP DUP2 DUP2 SUB PUSH0 DUP4 ADD MSTORE PUSH2 0x2943 DUP2 PUSH2 0x290A JUMP JUMPDEST SWAP1 POP SWAP2 SWAP1 POP JUMP JUMPDEST PUSH0 DUP3 DUP3 MSTORE PUSH1 0x20 DUP3 ADD SWAP1 POP SWAP3 SWAP2 POP POP JUMP JUMPDEST PUSH0 DUP1 REVERT JUMPDEST DUP3 DUP2 DUP4 CALLDATACOPY POP POP POP JUMP JUMPDEST PUSH0 PUSH2 0x2972 DUP4 DUP6 PUSH2 0x294A JUMP JUMPDEST SWAP4 POP PUSH32 0x7FFFFFFFFFFFFFFFFFFFFFFFFFFFFFFFFFFFFFFFFFFFFFFFFFFFFFFFFFFFFFF DUP4 GT ISZERO PUSH2 0x29A5 JUMPI PUSH2 0x29A4 PUSH2 0x295A JUMP JUMPDEST JUMPDEST PUSH1 0x20 DUP4 MUL SWAP3 POP PUSH2 0x29B6 DUP4 DUP6 DUP5 PUSH2 0x295E JUMP JUMPDEST DUP3 DUP5 ADD SWAP1 POP SWAP4 SWAP3 POP POP POP JUMP JUMPDEST PUSH0 PUSH1 0x20 DUP3 ADD SWAP1 POP DUP2 DUP2 SUB PUSH0 DUP4 ADD MSTORE PUSH2 0x29DB DUP2 DUP5 DUP7 PUSH2 0x2967 JUMP JUMPDEST SWAP1 POP SWAP4 SWAP3 POP POP POP JUMP JUMPDEST PUSH32 0x4E6F7420617661696C61626C6500000000000000000000000000000000000000 PUSH0 DUP3 ADD MSTORE POP JUMP JUMPDEST PUSH0 PUSH2 0x2A18 PUSH1 0xD DUP4 PUSH2 0x1FBB JUMP JUMPDEST SWAP2 POP PUSH2 0x2A23 DUP3 PUSH2 0x29E4 JUMP JUMPDEST PUSH1 0x20 DUP3 ADD SWAP1 POP SWAP2 SWAP1 POP JUMP JUMPDEST PUSH0 PUSH1 0x20 DUP3 ADD SWAP1 POP DUP2 DUP2 SUB PUSH0 DUP4 ADD MSTORE PUSH2 0x2A45 DUP2 PUSH2 0x2A0C JUMP JUMPDEST SWAP1 POP SWAP2 SWAP1 POP JUMP JUMPDEST PUSH32 0x4E6F7420656E6F7567682073746F636B00000000000000000000000000000000 PUSH0 DUP3 ADD MSTORE POP JUMP JUMPDEST PUSH0 PUSH2 0x2A80 PUSH1 0x10 DUP4 PUSH2 0x1FBB JUMP JUMPDEST SWAP2 POP PUSH2 0x2A8B DUP3 PUSH2 0x2A4C JUMP JUMPDEST PUSH1 0x20 DUP3 ADD SWAP1 POP SWAP2 SWAP1 POP JUMP JUMPDEST PUSH0 PUSH1 0x20 DUP3 ADD SWAP1 POP DUP2 DUP2 SUB PUSH0 DUP4 ADD MSTORE PUSH2 0x2AAD DUP2 PUSH2 0x2A74 JUMP JUMPDEST SWAP1 POP SWAP2 SWAP1 POP JUMP JUMPDEST PUSH32 0x57726F6E67207061796D656E7400000000000000000000000000000000000000 PUSH0 DUP3 ADD MSTORE POP JUMP JUMPDEST PUSH0 PUSH2 0x2AE8 PUSH1 0xD DUP4 PUSH2 0x1FBB JUMP JUMPDEST SWAP2 POP PUSH2 0x2AF3 DUP3 PUSH2 0x2AB4 JUMP JUMPDEST PUSH1 0x20 DUP3 ADD SWAP1 POP SWAP2 SWAP1 POP JUMP JUMPDEST PUSH0 PUSH1 0x20 DUP3 ADD SWAP1 POP DUP2 DUP2 SUB PUSH0 DUP4 ADD MSTORE PUSH2 0x2B15 DUP2 PUSH2 0x2ADC JUMP JUMPDEST SWAP1 POP SWAP2 SWAP1 POP JUMP INVALID LOG2 PUSH5 0x6970667358 0x22 SLT KECCAK256 NUMBER EXP 0xD3 0xC6 0xEC MLOAD PUSH24 0x2E8EDD733A87CC71B63C92CB4F6DA935986260B0D9C5312A DUP7 PUSH5 0x736F6C6343 STOP ADDMOD BYTE STOP CALLER "
		},
		"gasEstimates": {
			"creation": {
				"codeDepositCost": "2218000",
				"executionCost": "infinite",
				"totalCost": "infinite"
			},
			"external": {
				"Subscribe(address)": "28231",
				"Unsubcribe(address)": "28223",
				"addBook(uint256,string,string,uint96,uint96)": "infinite",
				"addCustomerPoints(address,uint256)": "infinite",
				"books(uint256)": "infinite",
				"buyBook(uint256,uint96)": "infinite",
				"checkIfSubscribed(address)": "5155",
				"customerewards(address)": "2904",
				"getAllBooks()": "infinite",
				"getBooks(uint256)": "infinite",
				"getCustomerPoints(address)": "5072",
				"getOwnerBalance()": "5130",
				"getTotalBooksSold()": "2540",
				"owner()": "2560",
				"removeBook(uint256)": "infinite",
				"removeBooks(uint256[])": "infinite",
				"renounceOwnership()": "infinite",
				"subscribers(address)": "2923",
				"transferOwnership(address)": "infinite"
			}
		},
		"methodIdentifiers": {
			"Subscribe(address)": "1aec2cf9",
			"Unsubcribe(address)": "e5ca5302",
			"addBook(uint256,string,string,uint96,uint96)": "21e6de9d",
			"addCustomerPoints(address,uint256)": "6c42b8cd",
			"books(uint256)": "68744046",
			"buyBook(uint256,uint96)": "f46de7d4",
			"checkIfSubscribed(address)": "59c75898",
			"customerewards(address)": "a33c5132",
			"getAllBooks()": "354528e8",
			"getBooks(uint256)": "5ac3e19e",
			"getCustomerPoints(address)": "e06ec384",
			"getOwnerBalance()": "590791f2",
			"getTotalBooksSold()": "9bd30883",
			"owner()": "8da5cb5b",
			"removeBook(uint256)": "bec0d799",
			"removeBooks(uint256[])": "f98520de",
			"renounceOwnership()": "715018a6",
			"subscribers(address)": "5745ae28",
			"transferOwnership(address)": "f2fde38b"
		}
	},
	"abi": [
		{
			"inputs": [],
			"stateMutability": "nonpayable",
			"type": "constructor"
		},
		{
			"inputs": [
				{
					"internalType": "address",
					"name": "owner",
					"type": "address"
				}
			],
			"name": "OwnableInvalidOwner",
			"type": "error"
		},
		{
			"inputs": [
				{
					"internalType": "address",
					"name": "account",
					"type": "address"
				}
			],
			"name": "OwnableUnauthorizedAccount",
			"type": "error"
		},
		{
			"anonymous": false,
			"inputs": [
				{
					"indexed": true,
					"internalType": "uint256",
					"name": "bookId",
					"type": "uint256"
				},
				{
					"indexed": false,
					"internalType": "string",
					"name": "title",
					"type": "string"
				},
				{
					"indexed": false,
					"internalType": "string",
					"name": "author",
					"type": "string"
				},
				{
					"indexed": false,
					"internalType": "uint96",
					"name": "price",
					"type": "uint96"
				},
				{
					"indexed": false,
					"internalType": "uint96",
					"name": "stock",
					"type": "uint96"
				}
			],
			"name": "BookAdded",
			"type": "event"
		},
		{
			"anonymous": false,
			"inputs": [
				{
					"indexed": false,
					"internalType": "uint256[]",
					"name": "bookIds",
					"type": "uint256[]"
				}
			],
			"name": "BookBatchRemoved",
			"type": "event"
		},
		{
			"anonymous": false,
			"inputs": [
				{
					"indexed": true,
					"internalType": "uint256",
					"name": "bookId",
					"type": "uint256"
				},
				{
					"indexed": true,
					"internalType": "address",
					"name": "buyer",
					"type": "address"
				},
				{
					"indexed": false,
					"internalType": "uint96",
					"name": "quantity",
					"type": "uint96"
				}
			],
			"name": "BookPurchased",
			"type": "event"
		},
		{
			"anonymous": false,
			"inputs": [
				{
					"indexed": true,
					"internalType": "uint256",
					"name": "bookId",
					"type": "uint256"
				}
			],
			"name": "BookRemoved",
			"type": "event"
		},
		{
			"anonymous": false,
			"inputs": [
				{
					"indexed": true,
					"internalType": "address",
					"name": "previousOwner",
					"type": "address"
				},
				{
					"indexed": true,
					"internalType": "address",
					"name": "newOwner",
					"type": "address"
				}
			],
			"name": "OwnershipTransferred",
			"type": "event"
		},
		{
			"anonymous": false,
			"inputs": [
				{
					"indexed": true,
					"internalType": "address",
					"name": "subscriber",
					"type": "address"
				}
			],
			"name": "SubscriptionAdded",
			"type": "event"
		},
		{
			"anonymous": false,
			"inputs": [
				{
					"indexed": true,
					"internalType": "address",
					"name": "subscriber",
					"type": "address"
				}
			],
			"name": "SubscriptionRemoved",
			"type": "event"
		},
		{
			"anonymous": false,
			"inputs": [
				{
					"indexed": true,
					"internalType": "address",
					"name": "customer",
					"type": "address"
				},
				{
					"indexed": false,
					"internalType": "uint256",
					"name": "points",
					"type": "uint256"
				}
			],
			"name": "pointsAdded",
			"type": "event"
		},
		{
			"inputs": [
				{
					"internalType": "address",
					"name": "_customer",
					"type": "address"
				}
			],
			"name": "Subscribe",
			"outputs": [],
			"stateMutability": "nonpayable",
			"type": "function"
		},
		{
			"inputs": [
				{
					"internalType": "address",
					"name": "_customer",
					"type": "address"
				}
			],
			"name": "Unsubcribe",
			"outputs": [],
			"stateMutability": "nonpayable",
			"type": "function"
		},
		{
			"inputs": [
				{
					"internalType": "uint256",
					"name": "_bookId",
					"type": "uint256"
				},
				{
					"internalType": "string",
					"name": "_title",
					"type": "string"
				},
				{
					"internalType": "string",
					"name": "_author",
					"type": "string"
				},
				{
					"internalType": "uint96",
					"name": "_stock",
					"type": "uint96"
				},
				{
					"internalType": "uint96",
					"name": "_price",
					"type": "uint96"
				}
			],
			"name": "addBook",
			"outputs": [],
			"stateMutability": "nonpayable",
			"type": "function"
		},
		{
			"inputs": [
				{
					"internalType": "address",
					"name": "_customer",
					"type": "address"
				},
				{
					"internalType": "uint256",
					"name": "_amount",
					"type": "uint256"
				}
			],
			"name": "addCustomerPoints",
			"outputs": [],
			"stateMutability": "nonpayable",
			"type": "function"
		},
		{
			"inputs": [
				{
					"internalType": "uint256",
					"name": "",
					"type": "uint256"
				}
			],
			"name": "books",
			"outputs": [
				{
					"internalType": "uint96",
					"name": "stock",
					"type": "uint96"
				},
				{
					"internalType": "uint96",
					"name": "price",
					"type": "uint96"
				},
				{
					"internalType": "bool",
					"name": "isAvailable",
					"type": "bool"
				},
				{
					"internalType": "string",
					"name": "title",
					"type": "string"
				},
				{
					"internalType": "string",
					"name": "author",
					"type": "string"
				}
			],
			"stateMutability": "view",
			"type": "function"
		},
		{
			"inputs": [
				{
					"internalType": "uint256",
					"name": "_bookId",
					"type": "uint256"
				},
				{
					"internalType": "uint96",
					"name": "_quantity",
					"type": "uint96"
				}
			],
			"name": "buyBook",
			"outputs": [],
			"stateMutability": "payable",
			"type": "function"
		},
		{
			"inputs": [
				{
					"internalType": "address",
					"name": "_customer",
					"type": "address"
				}
			],
			"name": "checkIfSubscribed",
			"outputs": [
				{
					"internalType": "bool",
					"name": "",
					"type": "bool"
				}
			],
			"stateMutability": "view",
			"type": "function"
		},
		{
			"inputs": [
				{
					"internalType": "address",
					"name": "",
					"type": "address"
				}
			],
			"name": "customerewards",
			"outputs": [
				{
					"internalType": "uint256",
					"name": "points",
					"type": "uint256"
				}
			],
			"stateMutability": "view",
			"type": "function"
		},
		{
			"inputs": [],
			"name": "getAllBooks",
			"outputs": [
				{
					"internalType": "string[]",
					"name": "",
					"type": "string[]"
				}
			],
			"stateMutability": "view",
			"type": "function"
		},
		{
			"inputs": [
				{
					"internalType": "uint256",
					"name": "_bookId",
					"type": "uint256"
				}
			],
			"name": "getBooks",
			"outputs": [
				{
					"internalType": "string",
					"name": "title",
					"type": "string"
				},
				{
					"internalType": "string",
					"name": "author",
					"type": "string"
				},
				{
					"internalType": "uint96",
					"name": "price",
					"type": "uint96"
				},
				{
					"internalType": "uint96",
					"name": "stock",
					"type": "uint96"
				},
				{
					"internalType": "bool",
					"name": "isAvailable",
					"type": "bool"
				}
			],
			"stateMutability": "view",
			"type": "function"
		},
		{
			"inputs": [
				{
					"internalType": "address",
					"name": "_customer",
					"type": "address"
				}
			],
			"name": "getCustomerPoints",
			"outputs": [
				{
					"internalType": "uint256",
					"name": "",
					"type": "uint256"
				}
			],
			"stateMutability": "view",
			"type": "function"
		},
		{
			"inputs": [],
			"name": "getOwnerBalance",
			"outputs": [
				{
					"internalType": "uint256",
					"name": "",
					"type": "uint256"
				}
			],
			"stateMutability": "view",
			"type": "function"
		},
		{
			"inputs": [],
			"name": "getTotalBooksSold",
			"outputs": [
				{
					"internalType": "uint96",
					"name": "",
					"type": "uint96"
				}
			],
			"stateMutability": "view",
			"type": "function"
		},
		{
			"inputs": [],
			"name": "owner",
			"outputs": [
				{
					"internalType": "address",
					"name": "",
					"type": "address"
				}
			],
			"stateMutability": "view",
			"type": "function"
		},
		{
			"inputs": [
				{
					"internalType": "uint256",
					"name": "_bookId",
					"type": "uint256"
				}
			],
			"name": "removeBook",
			"outputs": [],
			"stateMutability": "nonpayable",
			"type": "function"
		},
		{
			"inputs": [
				{
					"internalType": "uint256[]",
					"name": "_bookIds",
					"type": "uint256[]"
				}
			],
			"name": "removeBooks",
			"outputs": [],
			"stateMutability": "nonpayable",
			"type": "function"
		},
		{
			"inputs": [],
			"name": "renounceOwnership",
			"outputs": [],
			"stateMutability": "nonpayable",
			"type": "function"
		},
		{
			"inputs": [
				{
					"internalType": "address",
					"name": "",
					"type": "address"
				}
			],
			"name": "subscribers",
			"outputs": [
				{
					"internalType": "bool",
					"name": "",
					"type": "bool"
				}
			],
			"stateMutability": "view",
			"type": "function"
		},
		{
			"inputs": [
				{
					"internalType": "address",
					"name": "newOwner",
					"type": "address"
				}
			],
			"name": "transferOwnership",
			"outputs": [],
			"stateMutability": "nonpayable",
			"type": "function"
		}
	]
}