{
	"contracts/BookStoreCls.sol": {
		"BookStore": {
			"abi": [
				{
					"inputs": [
						{
							"internalType": "address",
							"name": "initialOwner",
							"type": "address"
						}
					],
					"stateMutability": "nonpayable",
					"type": "constructor"
				},
				{
					"inputs": [
						{
							"internalType": "address",
							"name": "owner",
							"type": "address"
						}
					],
					"name": "OwnableInvalidOwner",
					"type": "error"
				},
				{
					"inputs": [
						{
							"internalType": "address",
							"name": "account",
							"type": "address"
						}
					],
					"name": "OwnableUnauthorizedAccount",
					"type": "error"
				},
				{
					"anonymous": false,
					"inputs": [
						{
							"indexed": true,
							"internalType": "uint256",
							"name": "bookId",
							"type": "uint256"
						},
						{
							"indexed": false,
							"internalType": "string",
							"name": "title",
							"type": "string"
						},
						{
							"indexed": false,
							"internalType": "string",
							"name": "author",
							"type": "string"
						},
						{
							"indexed": false,
							"internalType": "uint256",
							"name": "price",
							"type": "uint256"
						},
						{
							"indexed": false,
							"internalType": "uint256",
							"name": "stock",
							"type": "uint256"
						}
					],
					"name": "BookAdded",
					"type": "event"
				},
				{
					"anonymous": false,
					"inputs": [
						{
							"indexed": true,
							"internalType": "address",
							"name": "previousOwner",
							"type": "address"
						},
						{
							"indexed": true,
							"internalType": "address",
							"name": "newOwner",
							"type": "address"
						}
					],
					"name": "OwnershipTransferred",
					"type": "event"
				},
				{
					"anonymous": false,
					"inputs": [
						{
							"indexed": true,
							"internalType": "uint256",
							"name": "bookId",
							"type": "uint256"
						},
						{
							"indexed": true,
							"internalType": "address",
							"name": "buyer",
							"type": "address"
						},
						{
							"indexed": true,
							"internalType": "address",
							"name": "seller",
							"type": "address"
						},
						{
							"indexed": false,
							"internalType": "uint256",
							"name": "quantity",
							"type": "uint256"
						}
					],
					"name": "PurchaseConfirmed",
					"type": "event"
				},
				{
					"anonymous": false,
					"inputs": [
						{
							"indexed": true,
							"internalType": "uint256",
							"name": "bookId",
							"type": "uint256"
						},
						{
							"indexed": true,
							"internalType": "address",
							"name": "buyer",
							"type": "address"
						},
						{
							"indexed": true,
							"internalType": "address",
							"name": "seller",
							"type": "address"
						},
						{
							"indexed": false,
							"internalType": "uint256",
							"name": "quantity",
							"type": "uint256"
						}
					],
					"name": "PurchaseIntiated",
					"type": "event"
				},
				{
					"anonymous": false,
					"inputs": [
						{
							"indexed": true,
							"internalType": "address",
							"name": "subscriber",
							"type": "address"
						}
					],
					"name": "SubscriptionAdded",
					"type": "event"
				},
				{
					"anonymous": false,
					"inputs": [
						{
							"indexed": true,
							"internalType": "address",
							"name": "subscriber",
							"type": "address"
						}
					],
					"name": "SubscriptionRemoved",
					"type": "event"
				},
				{
					"inputs": [
						{
							"internalType": "uint256",
							"name": "_bookId",
							"type": "uint256"
						},
						{
							"internalType": "string",
							"name": "_title",
							"type": "string"
						},
						{
							"internalType": "string",
							"name": "_author",
							"type": "string"
						},
						{
							"internalType": "uint256",
							"name": "_price",
							"type": "uint256"
						},
						{
							"internalType": "uint256",
							"name": "_stock",
							"type": "uint256"
						}
					],
					"name": "addBook",
					"outputs": [],
					"stateMutability": "nonpayable",
					"type": "function"
				},
				{
					"inputs": [
						{
							"internalType": "uint256",
							"name": "",
							"type": "uint256"
						}
					],
					"name": "bookIds",
					"outputs": [
						{
							"internalType": "uint256",
							"name": "",
							"type": "uint256"
						}
					],
					"stateMutability": "view",
					"type": "function"
				},
				{
					"inputs": [
						{
							"internalType": "uint256",
							"name": "",
							"type": "uint256"
						}
					],
					"name": "books",
					"outputs": [
						{
							"internalType": "string",
							"name": "title",
							"type": "string"
						},
						{
							"internalType": "string",
							"name": "author",
							"type": "string"
						},
						{
							"internalType": "uint256",
							"name": "price",
							"type": "uint256"
						},
						{
							"internalType": "uint256",
							"name": "stock",
							"type": "uint256"
						},
						{
							"internalType": "bool",
							"name": "isAvailable",
							"type": "bool"
						}
					],
					"stateMutability": "view",
					"type": "function"
				},
				{
					"inputs": [
						{
							"internalType": "uint256",
							"name": "_bookId",
							"type": "uint256"
						},
						{
							"internalType": "uint256",
							"name": "_quantity",
							"type": "uint256"
						}
					],
					"name": "buyBook",
					"outputs": [],
					"stateMutability": "payable",
					"type": "function"
				},
				{
					"inputs": [
						{
							"internalType": "uint256",
							"name": "_bookId",
							"type": "uint256"
						},
						{
							"internalType": "uint256",
							"name": "_quantity",
							"type": "uint256"
						}
					],
					"name": "confirmPurchase",
					"outputs": [],
					"stateMutability": "nonpayable",
					"type": "function"
				},
				{
					"inputs": [
						{
							"internalType": "uint256",
							"name": "_bookId",
							"type": "uint256"
						}
					],
					"name": "getBooks",
					"outputs": [
						{
							"internalType": "string",
							"name": "",
							"type": "string"
						},
						{
							"internalType": "string",
							"name": "",
							"type": "string"
						},
						{
							"internalType": "uint256",
							"name": "",
							"type": "uint256"
						},
						{
							"internalType": "uint256",
							"name": "",
							"type": "uint256"
						},
						{
							"internalType": "bool",
							"name": "",
							"type": "bool"
						}
					],
					"stateMutability": "view",
					"type": "function"
				},
				{
					"inputs": [],
					"name": "owner",
					"outputs": [
						{
							"internalType": "address",
							"name": "",
							"type": "address"
						}
					],
					"stateMutability": "view",
					"type": "function"
				},
				{
					"inputs": [],
					"name": "renounceOwnership",
					"outputs": [],
					"stateMutability": "nonpayable",
					"type": "function"
				},
				{
					"inputs": [
						{
							"internalType": "uint256",
							"name": "",
							"type": "uint256"
						}
					],
					"name": "subscriberList",
					"outputs": [
						{
							"internalType": "address",
							"name": "",
							"type": "address"
						}
					],
					"stateMutability": "view",
					"type": "function"
				},
				{
					"inputs": [
						{
							"internalType": "address",
							"name": "",
							"type": "address"
						}
					],
					"name": "subscribers",
					"outputs": [
						{
							"internalType": "bool",
							"name": "",
							"type": "bool"
						}
					],
					"stateMutability": "view",
					"type": "function"
				},
				{
					"inputs": [
						{
							"internalType": "address",
							"name": "newOwner",
							"type": "address"
						}
					],
					"name": "transferOwnership",
					"outputs": [],
					"stateMutability": "nonpayable",
					"type": "function"
				}
			],
			"devdoc": {
				"errors": {
					"OwnableInvalidOwner(address)": [
						{
							"details": "The owner is not a valid owner account. (eg. `address(0)`)"
						}
					],
					"OwnableUnauthorizedAccount(address)": [
						{
							"details": "The caller account is not authorized to perform an operation."
						}
					]
				},
				"kind": "dev",
				"methods": {
					"owner()": {
						"details": "Returns the address of the current owner."
					},
					"renounceOwnership()": {
						"details": "Leaves the contract without owner. It will not be possible to call `onlyOwner` functions. Can only be called by the current owner. NOTE: Renouncing ownership will leave the contract without an owner, thereby disabling any functionality that is only available to the owner."
					},
					"transferOwnership(address)": {
						"details": "Transfers ownership of the contract to a new account (`newOwner`). Can only be called by the current owner."
					}
				},
				"version": 1
			},
			"evm": {
				"assembly": "    /* \"contracts/BookStoreCls.sol\":1830:4967  contract BookStore is Ownable {... */\n  mstore(0x40, 0x80)\n    /* \"contracts/BookStoreCls.sol\":2752:2819  constructor(address initialOwner) Ownable(initialOwner) {... */\n  callvalue\n  dup1\n  iszero\n  tag_1\n  jumpi\n  0x00\n  dup1\n  revert\ntag_1:\n  pop\n  mload(0x40)\n  sub(codesize, bytecodeSize)\n  dup1\n  bytecodeSize\n  dup4\n  codecopy\n  dup2\n  dup2\n  add\n  0x40\n  mstore\n  dup2\n  add\n  swap1\n  tag_2\n  swap2\n  swap1\n  tag_3\n  jump\t// in\ntag_2:\n    /* \"contracts/BookStoreCls.sol\":2794:2806  initialOwner */\n  dup1\n    /* \"@openzeppelin/contracts/access/Ownable.sol\":1297:1298  0 */\n  0x00\n    /* \"@openzeppelin/contracts/access/Ownable.sol\":1273:1299  initialOwner == address(0) */\n  0xffffffffffffffffffffffffffffffffffffffff\n  and\n    /* \"@openzeppelin/contracts/access/Ownable.sol\":1273:1285  initialOwner */\n  dup2\n    /* \"@openzeppelin/contracts/access/Ownable.sol\":1273:1299  initialOwner == address(0) */\n  0xffffffffffffffffffffffffffffffffffffffff\n  and\n  sub\n    /* \"@openzeppelin/contracts/access/Ownable.sol\":1269:1364  if (initialOwner == address(0)) {... */\n  tag_7\n  jumpi\n    /* \"@openzeppelin/contracts/access/Ownable.sol\":1350:1351  0 */\n  0x00\n    /* \"@openzeppelin/contracts/access/Ownable.sol\":1322:1353  OwnableInvalidOwner(address(0)) */\n  mload(0x40)\n  0x1e4fbdf700000000000000000000000000000000000000000000000000000000\n  dup2\n  mstore\n  0x04\n  add\n  tag_8\n  swap2\n  swap1\n  tag_9\n  jump\t// in\ntag_8:\n  mload(0x40)\n  dup1\n  swap2\n  sub\n  swap1\n  revert\n    /* \"@openzeppelin/contracts/access/Ownable.sol\":1269:1364  if (initialOwner == address(0)) {... */\ntag_7:\n    /* \"@openzeppelin/contracts/access/Ownable.sol\":1373:1405  _transferOwnership(initialOwner) */\n  tag_10\n    /* \"@openzeppelin/contracts/access/Ownable.sol\":1392:1404  initialOwner */\n  dup2\n    /* \"@openzeppelin/contracts/access/Ownable.sol\":1373:1391  _transferOwnership */\n  shl(0x20, tag_11)\n    /* \"@openzeppelin/contracts/access/Ownable.sol\":1373:1405  _transferOwnership(initialOwner) */\n  0x20\n  shr\n  jump\t// in\ntag_10:\n    /* \"@openzeppelin/contracts/access/Ownable.sol\":1225:1412  constructor(address initialOwner) {... */\n  pop\n    /* \"contracts/BookStoreCls.sol\":2752:2819  constructor(address initialOwner) Ownable(initialOwner) {... */\n  pop\n    /* \"contracts/BookStoreCls.sol\":1830:4967  contract BookStore is Ownable {... */\n  jump(tag_13)\n    /* \"@openzeppelin/contracts/access/Ownable.sol\":2912:3099  function _transferOwnership(address newOwner) internal virtual {... */\ntag_11:\n    /* \"@openzeppelin/contracts/access/Ownable.sol\":2985:3001  address oldOwner */\n  0x00\n    /* \"@openzeppelin/contracts/access/Ownable.sol\":3004:3010  _owner */\n  dup1\n  0x00\n  swap1\n  sload\n  swap1\n  0x0100\n  exp\n  swap1\n  div\n  0xffffffffffffffffffffffffffffffffffffffff\n  and\n    /* \"@openzeppelin/contracts/access/Ownable.sol\":2985:3010  address oldOwner = _owner */\n  swap1\n  pop\n    /* \"@openzeppelin/contracts/access/Ownable.sol\":3029:3037  newOwner */\n  dup2\n    /* \"@openzeppelin/contracts/access/Ownable.sol\":3020:3026  _owner */\n  0x00\n  dup1\n    /* \"@openzeppelin/contracts/access/Ownable.sol\":3020:3037  _owner = newOwner */\n  0x0100\n  exp\n  dup2\n  sload\n  dup2\n  0xffffffffffffffffffffffffffffffffffffffff\n  mul\n  not\n  and\n  swap1\n  dup4\n  0xffffffffffffffffffffffffffffffffffffffff\n  and\n  mul\n  or\n  swap1\n  sstore\n  pop\n    /* \"@openzeppelin/contracts/access/Ownable.sol\":3083:3091  newOwner */\n  dup2\n    /* \"@openzeppelin/contracts/access/Ownable.sol\":3052:3092  OwnershipTransferred(oldOwner, newOwner) */\n  0xffffffffffffffffffffffffffffffffffffffff\n  and\n    /* \"@openzeppelin/contracts/access/Ownable.sol\":3073:3081  oldOwner */\n  dup2\n    /* \"@openzeppelin/contracts/access/Ownable.sol\":3052:3092  OwnershipTransferred(oldOwner, newOwner) */\n  0xffffffffffffffffffffffffffffffffffffffff\n  and\n  0x8be0079c531659141344cd1fd0a4f28419497f9722a3daafe3b4186f6b6457e0\n  mload(0x40)\n  mload(0x40)\n  dup1\n  swap2\n  sub\n  swap1\n  log3\n    /* \"@openzeppelin/contracts/access/Ownable.sol\":2975:3099  {... */\n  pop\n    /* \"@openzeppelin/contracts/access/Ownable.sol\":2912:3099  function _transferOwnership(address newOwner) internal virtual {... */\n  pop\n  jump\t// out\n    /* \"#utility.yul\":88:205   */\ntag_16:\n    /* \"#utility.yul\":197:198   */\n  0x00\n    /* \"#utility.yul\":194:195   */\n  dup1\n    /* \"#utility.yul\":187:199   */\n  revert\n    /* \"#utility.yul\":334:460   */\ntag_18:\n    /* \"#utility.yul\":371:378   */\n  0x00\n    /* \"#utility.yul\":411:453   */\n  0xffffffffffffffffffffffffffffffffffffffff\n    /* \"#utility.yul\":404:409   */\n  dup3\n    /* \"#utility.yul\":400:454   */\n  and\n    /* \"#utility.yul\":389:454   */\n  swap1\n  pop\n    /* \"#utility.yul\":334:460   */\n  swap2\n  swap1\n  pop\n  jump\t// out\n    /* \"#utility.yul\":466:562   */\ntag_19:\n    /* \"#utility.yul\":503:510   */\n  0x00\n    /* \"#utility.yul\":532:556   */\n  tag_29\n    /* \"#utility.yul\":550:555   */\n  dup3\n    /* \"#utility.yul\":532:556   */\n  tag_18\n  jump\t// in\ntag_29:\n    /* \"#utility.yul\":521:556   */\n  swap1\n  pop\n    /* \"#utility.yul\":466:562   */\n  swap2\n  swap1\n  pop\n  jump\t// out\n    /* \"#utility.yul\":568:690   */\ntag_20:\n    /* \"#utility.yul\":641:665   */\n  tag_31\n    /* \"#utility.yul\":659:664   */\n  dup2\n    /* \"#utility.yul\":641:665   */\n  tag_19\n  jump\t// in\ntag_31:\n    /* \"#utility.yul\":634:639   */\n  dup2\n    /* \"#utility.yul\":631:666   */\n  eq\n    /* \"#utility.yul\":621:684   */\n  tag_32\n  jumpi\n    /* \"#utility.yul\":680:681   */\n  0x00\n    /* \"#utility.yul\":677:678   */\n  dup1\n    /* \"#utility.yul\":670:682   */\n  revert\n    /* \"#utility.yul\":621:684   */\ntag_32:\n    /* \"#utility.yul\":568:690   */\n  pop\n  jump\t// out\n    /* \"#utility.yul\":696:839   */\ntag_21:\n    /* \"#utility.yul\":753:758   */\n  0x00\n    /* \"#utility.yul\":784:790   */\n  dup2\n    /* \"#utility.yul\":778:791   */\n  mload\n    /* \"#utility.yul\":769:791   */\n  swap1\n  pop\n    /* \"#utility.yul\":800:833   */\n  tag_34\n    /* \"#utility.yul\":827:832   */\n  dup2\n    /* \"#utility.yul\":800:833   */\n  tag_20\n  jump\t// in\ntag_34:\n    /* \"#utility.yul\":696:839   */\n  swap3\n  swap2\n  pop\n  pop\n  jump\t// out\n    /* \"#utility.yul\":845:1196   */\ntag_3:\n    /* \"#utility.yul\":915:921   */\n  0x00\n    /* \"#utility.yul\":964:966   */\n  0x20\n    /* \"#utility.yul\":952:961   */\n  dup3\n    /* \"#utility.yul\":943:950   */\n  dup5\n    /* \"#utility.yul\":939:962   */\n  sub\n    /* \"#utility.yul\":935:967   */\n  slt\n    /* \"#utility.yul\":932:1051   */\n  iszero\n  tag_36\n  jumpi\n    /* \"#utility.yul\":970:1049   */\n  tag_37\n  tag_16\n  jump\t// in\ntag_37:\n    /* \"#utility.yul\":932:1051   */\ntag_36:\n    /* \"#utility.yul\":1090:1091   */\n  0x00\n    /* \"#utility.yul\":1115:1179   */\n  tag_38\n    /* \"#utility.yul\":1171:1178   */\n  dup5\n    /* \"#utility.yul\":1162:1168   */\n  dup3\n    /* \"#utility.yul\":1151:1160   */\n  dup6\n    /* \"#utility.yul\":1147:1169   */\n  add\n    /* \"#utility.yul\":1115:1179   */\n  tag_21\n  jump\t// in\ntag_38:\n    /* \"#utility.yul\":1105:1179   */\n  swap2\n  pop\n    /* \"#utility.yul\":1061:1189   */\n  pop\n    /* \"#utility.yul\":845:1196   */\n  swap3\n  swap2\n  pop\n  pop\n  jump\t// out\n    /* \"#utility.yul\":1202:1320   */\ntag_22:\n    /* \"#utility.yul\":1289:1313   */\n  tag_40\n    /* \"#utility.yul\":1307:1312   */\n  dup2\n    /* \"#utility.yul\":1289:1313   */\n  tag_19\n  jump\t// in\ntag_40:\n    /* \"#utility.yul\":1284:1287   */\n  dup3\n    /* \"#utility.yul\":1277:1314   */\n  mstore\n    /* \"#utility.yul\":1202:1320   */\n  pop\n  pop\n  jump\t// out\n    /* \"#utility.yul\":1326:1548   */\ntag_9:\n    /* \"#utility.yul\":1419:1423   */\n  0x00\n    /* \"#utility.yul\":1457:1459   */\n  0x20\n    /* \"#utility.yul\":1446:1455   */\n  dup3\n    /* \"#utility.yul\":1442:1460   */\n  add\n    /* \"#utility.yul\":1434:1460   */\n  swap1\n  pop\n    /* \"#utility.yul\":1470:1541   */\n  tag_42\n    /* \"#utility.yul\":1538:1539   */\n  0x00\n    /* \"#utility.yul\":1527:1536   */\n  dup4\n    /* \"#utility.yul\":1523:1540   */\n  add\n    /* \"#utility.yul\":1514:1520   */\n  dup5\n    /* \"#utility.yul\":1470:1541   */\n  tag_22\n  jump\t// in\ntag_42:\n    /* \"#utility.yul\":1326:1548   */\n  swap3\n  swap2\n  pop\n  pop\n  jump\t// out\n    /* \"contracts/BookStoreCls.sol\":1830:4967  contract BookStore is Ownable {... */\ntag_13:\n  dataSize(sub_0)\n  dup1\n  dataOffset(sub_0)\n  0x00\n  codecopy\n  0x00\n  return\nstop\n\nsub_0: assembly {\n        /* \"contracts/BookStoreCls.sol\":1830:4967  contract BookStore is Ownable {... */\n      mstore(0x40, 0x80)\n      jumpi(tag_1, lt(calldatasize, 0x04))\n      shr(0xe0, calldataload(0x00))\n      dup1\n      0x715018a6\n      gt\n      tag_13\n      jumpi\n      dup1\n      0x715018a6\n      eq\n      tag_7\n      jumpi\n      dup1\n      0x83c2eaba\n      eq\n      tag_8\n      jumpi\n      dup1\n      0x8c1af2e0\n      eq\n      tag_9\n      jumpi\n      dup1\n      0x8da5cb5b\n      eq\n      tag_10\n      jumpi\n      dup1\n      0xf2fde38b\n      eq\n      tag_11\n      jumpi\n      dup1\n      0xf733719c\n      eq\n      tag_12\n      jumpi\n      jump(tag_1)\n    tag_13:\n      dup1\n      0x3af8c2d5\n      eq\n      tag_2\n      jumpi\n      dup1\n      0x513073b8\n      eq\n      tag_3\n      jumpi\n      dup1\n      0x5745ae28\n      eq\n      tag_4\n      jumpi\n      dup1\n      0x5ac3e19e\n      eq\n      tag_5\n      jumpi\n      dup1\n      0x68744046\n      eq\n      tag_6\n      jumpi\n    tag_1:\n      0x00\n      dup1\n      revert\n        /* \"contracts/BookStoreCls.sol\":3907:4537  function buyBook(uint256 _bookId, uint256 _quantity) public payable {... */\n    tag_2:\n      tag_14\n      0x04\n      dup1\n      calldatasize\n      sub\n      dup2\n      add\n      swap1\n      tag_15\n      swap2\n      swap1\n      tag_16\n      jump\t// in\n    tag_15:\n      tag_17\n      jump\t// in\n    tag_14:\n      stop\n        /* \"contracts/BookStoreCls.sol\":2154:2178  uint256[] public bookIds */\n    tag_3:\n      callvalue\n      dup1\n      iszero\n      tag_18\n      jumpi\n      0x00\n      dup1\n      revert\n    tag_18:\n      pop\n      tag_19\n      0x04\n      dup1\n      calldatasize\n      sub\n      dup2\n      add\n      swap1\n      tag_20\n      swap2\n      swap1\n      tag_21\n      jump\t// in\n    tag_20:\n      tag_22\n      jump\t// in\n    tag_19:\n      mload(0x40)\n      tag_23\n      swap2\n      swap1\n      tag_24\n      jump\t// in\n    tag_23:\n      mload(0x40)\n      dup1\n      swap2\n      sub\n      swap1\n      return\n        /* \"contracts/BookStoreCls.sol\":2060:2103  mapping(address => bool) public subscribers */\n    tag_4:\n      callvalue\n      dup1\n      iszero\n      tag_25\n      jumpi\n      0x00\n      dup1\n      revert\n    tag_25:\n      pop\n      tag_26\n      0x04\n      dup1\n      calldatasize\n      sub\n      dup2\n      add\n      swap1\n      tag_27\n      swap2\n      swap1\n      tag_28\n      jump\t// in\n    tag_27:\n      tag_29\n      jump\t// in\n    tag_26:\n      mload(0x40)\n      tag_30\n      swap2\n      swap1\n      tag_31\n      jump\t// in\n    tag_30:\n      mload(0x40)\n      dup1\n      swap2\n      sub\n      swap1\n      return\n        /* \"contracts/BookStoreCls.sol\":3435:3682  function getBooks(uint256 _bookId) public view returns (string memory, string memory, uint256, uint256, bool) {... */\n    tag_5:\n      callvalue\n      dup1\n      iszero\n      tag_32\n      jumpi\n      0x00\n      dup1\n      revert\n    tag_32:\n      pop\n      tag_33\n      0x04\n      dup1\n      calldatasize\n      sub\n      dup2\n      add\n      swap1\n      tag_34\n      swap2\n      swap1\n      tag_21\n      jump\t// in\n    tag_34:\n      tag_35\n      jump\t// in\n    tag_33:\n      mload(0x40)\n      tag_36\n      swap6\n      swap5\n      swap4\n      swap3\n      swap2\n      swap1\n      tag_37\n      jump\t// in\n    tag_36:\n      mload(0x40)\n      dup1\n      swap2\n      sub\n      swap1\n      return\n        /* \"contracts/BookStoreCls.sol\":2016:2053  mapping(uint256 => Book) public books */\n    tag_6:\n      callvalue\n      dup1\n      iszero\n      tag_38\n      jumpi\n      0x00\n      dup1\n      revert\n    tag_38:\n      pop\n      tag_39\n      0x04\n      dup1\n      calldatasize\n      sub\n      dup2\n      add\n      swap1\n      tag_40\n      swap2\n      swap1\n      tag_21\n      jump\t// in\n    tag_40:\n      tag_41\n      jump\t// in\n    tag_39:\n      mload(0x40)\n      tag_42\n      swap6\n      swap5\n      swap4\n      swap3\n      swap2\n      swap1\n      tag_37\n      jump\t// in\n    tag_42:\n      mload(0x40)\n      dup1\n      swap2\n      sub\n      swap1\n      return\n        /* \"@openzeppelin/contracts/access/Ownable.sol\":2293:2394  function renounceOwnership() public virtual onlyOwner {... */\n    tag_7:\n      callvalue\n      dup1\n      iszero\n      tag_43\n      jumpi\n      0x00\n      dup1\n      revert\n    tag_43:\n      pop\n      tag_44\n      tag_45\n      jump\t// in\n    tag_44:\n      stop\n        /* \"contracts/BookStoreCls.sol\":2116:2147  address[] public subscriberList */\n    tag_8:\n      callvalue\n      dup1\n      iszero\n      tag_46\n      jumpi\n      0x00\n      dup1\n      revert\n    tag_46:\n      pop\n      tag_47\n      0x04\n      dup1\n      calldatasize\n      sub\n      dup2\n      add\n      swap1\n      tag_48\n      swap2\n      swap1\n      tag_21\n      jump\t// in\n    tag_48:\n      tag_49\n      jump\t// in\n    tag_47:\n      mload(0x40)\n      tag_50\n      swap2\n      swap1\n      tag_51\n      jump\t// in\n    tag_50:\n      mload(0x40)\n      dup1\n      swap2\n      sub\n      swap1\n      return\n        /* \"contracts/BookStoreCls.sol\":4545:4962  function confirmPurchase(uint256 _bookId, uint256 _quantity) public onlyOwner {... */\n    tag_9:\n      callvalue\n      dup1\n      iszero\n      tag_52\n      jumpi\n      0x00\n      dup1\n      revert\n    tag_52:\n      pop\n      tag_53\n      0x04\n      dup1\n      calldatasize\n      sub\n      dup2\n      add\n      swap1\n      tag_54\n      swap2\n      swap1\n      tag_16\n      jump\t// in\n    tag_54:\n      tag_55\n      jump\t// in\n    tag_53:\n      stop\n        /* \"@openzeppelin/contracts/access/Ownable.sol\":1638:1723  function owner() public view virtual returns (address) {... */\n    tag_10:\n      callvalue\n      dup1\n      iszero\n      tag_56\n      jumpi\n      0x00\n      dup1\n      revert\n    tag_56:\n      pop\n      tag_57\n      tag_58\n      jump\t// in\n    tag_57:\n      mload(0x40)\n      tag_59\n      swap2\n      swap1\n      tag_51\n      jump\t// in\n    tag_59:\n      mload(0x40)\n      dup1\n      swap2\n      sub\n      swap1\n      return\n        /* \"@openzeppelin/contracts/access/Ownable.sol\":2543:2758  function transferOwnership(address newOwner) public virtual onlyOwner {... */\n    tag_11:\n      callvalue\n      dup1\n      iszero\n      tag_60\n      jumpi\n      0x00\n      dup1\n      revert\n    tag_60:\n      pop\n      tag_61\n      0x04\n      dup1\n      calldatasize\n      sub\n      dup2\n      add\n      swap1\n      tag_62\n      swap2\n      swap1\n      tag_28\n      jump\t// in\n    tag_62:\n      tag_63\n      jump\t// in\n    tag_61:\n      stop\n        /* \"contracts/BookStoreCls.sol\":2828:3423  function addBook(uint256 _bookId, string memory _title, string memory _author, uint256 _price, uint256 _stock) public onlyOwner {... */\n    tag_12:\n      callvalue\n      dup1\n      iszero\n      tag_64\n      jumpi\n      0x00\n      dup1\n      revert\n    tag_64:\n      pop\n      tag_65\n      0x04\n      dup1\n      calldatasize\n      sub\n      dup2\n      add\n      swap1\n      tag_66\n      swap2\n      swap1\n      tag_67\n      jump\t// in\n    tag_66:\n      tag_68\n      jump\t// in\n    tag_65:\n      stop\n        /* \"contracts/BookStoreCls.sol\":3907:4537  function buyBook(uint256 _bookId, uint256 _quantity) public payable {... */\n    tag_17:\n        /* \"contracts/BookStoreCls.sol\":3986:4003  Book storage book */\n      0x00\n        /* \"contracts/BookStoreCls.sol\":4006:4011  books */\n      0x01\n        /* \"contracts/BookStoreCls.sol\":4006:4020  books[_bookId] */\n      0x00\n        /* \"contracts/BookStoreCls.sol\":4012:4019  _bookId */\n      dup5\n        /* \"contracts/BookStoreCls.sol\":4006:4020  books[_bookId] */\n      dup2\n      mstore\n      0x20\n      add\n      swap1\n      dup2\n      mstore\n      0x20\n      add\n      0x00\n      keccak256\n        /* \"contracts/BookStoreCls.sol\":3986:4020  Book storage book = books[_bookId] */\n      swap1\n      pop\n        /* \"contracts/BookStoreCls.sol\":4039:4043  book */\n      dup1\n        /* \"contracts/BookStoreCls.sol\":4039:4055  book.isAvailable */\n      0x04\n      add\n      0x00\n      swap1\n      sload\n      swap1\n      0x0100\n      exp\n      swap1\n      div\n      0xff\n      and\n        /* \"contracts/BookStoreCls.sol\":4031:4087  require(book.isAvailable, \"This book is not available.\") */\n      tag_70\n      jumpi\n      mload(0x40)\n      0x08c379a000000000000000000000000000000000000000000000000000000000\n      dup2\n      mstore\n      0x04\n      add\n      tag_71\n      swap1\n      tag_72\n      jump\t// in\n    tag_71:\n      mload(0x40)\n      dup1\n      swap2\n      sub\n      swap1\n      revert\n    tag_70:\n        /* \"contracts/BookStoreCls.sol\":4120:4129  _quantity */\n      dup2\n        /* \"contracts/BookStoreCls.sol\":4106:4110  book */\n      dup2\n        /* \"contracts/BookStoreCls.sol\":4106:4116  book.stock */\n      0x03\n      add\n      sload\n        /* \"contracts/BookStoreCls.sol\":4106:4129  book.stock >= _quantity */\n      lt\n      iszero\n        /* \"contracts/BookStoreCls.sol\":4098:4161  require(book.stock >= _quantity, \"Not enough stock available.\") */\n      tag_73\n      jumpi\n      mload(0x40)\n      0x08c379a000000000000000000000000000000000000000000000000000000000\n      dup2\n      mstore\n      0x04\n      add\n      tag_74\n      swap1\n      tag_75\n      jump\t// in\n    tag_74:\n      mload(0x40)\n      dup1\n      swap2\n      sub\n      swap1\n      revert\n    tag_73:\n        /* \"contracts/BookStoreCls.sol\":4174:4192  uint256 totalPrice */\n      0x00\n        /* \"contracts/BookStoreCls.sol\":4208:4217  _quantity */\n      dup3\n        /* \"contracts/BookStoreCls.sol\":4195:4199  book */\n      dup3\n        /* \"contracts/BookStoreCls.sol\":4195:4205  book.price */\n      0x02\n      add\n      sload\n        /* \"contracts/BookStoreCls.sol\":4195:4217  book.price * _quantity */\n      tag_76\n      swap2\n      swap1\n      tag_77\n      jump\t// in\n    tag_76:\n        /* \"contracts/BookStoreCls.sol\":4174:4217  uint256 totalPrice = book.price * _quantity */\n      swap1\n      pop\n        /* \"contracts/BookStoreCls.sol\":4249:4259  totalPrice */\n      dup1\n        /* \"contracts/BookStoreCls.sol\":4236:4245  msg.value */\n      callvalue\n        /* \"contracts/BookStoreCls.sol\":4236:4259  msg.value == totalPrice */\n      eq\n        /* \"contracts/BookStoreCls.sol\":4228:4289  require(msg.value == totalPrice, \"Incorrect payment amount.\") */\n      tag_78\n      jumpi\n      mload(0x40)\n      0x08c379a000000000000000000000000000000000000000000000000000000000\n      dup2\n      mstore\n      0x04\n      add\n      tag_79\n      swap1\n      tag_80\n      jump\t// in\n    tag_79:\n      mload(0x40)\n      dup1\n      swap2\n      sub\n      swap1\n      revert\n    tag_78:\n        /* \"contracts/BookStoreCls.sol\":4321:4331  totalPrice */\n      dup1\n        /* \"contracts/BookStoreCls.sol\":4308:4317  msg.value */\n      callvalue\n        /* \"contracts/BookStoreCls.sol\":4308:4331  msg.value <= totalPrice */\n      gt\n      iszero\n        /* \"contracts/BookStoreCls.sol\":4300:4363  require(msg.value <= totalPrice, \"Overpaid for book purchase.\") */\n      tag_81\n      jumpi\n      mload(0x40)\n      0x08c379a000000000000000000000000000000000000000000000000000000000\n      dup2\n      mstore\n      0x04\n      add\n      tag_82\n      swap1\n      tag_83\n      jump\t// in\n    tag_82:\n      mload(0x40)\n      dup1\n      swap2\n      sub\n      swap1\n      revert\n    tag_81:\n        /* \"contracts/BookStoreCls.sol\":4419:4426  owner() */\n      tag_84\n        /* \"contracts/BookStoreCls.sol\":4419:4424  owner */\n      tag_58\n        /* \"contracts/BookStoreCls.sol\":4419:4426  owner() */\n      jump\t// in\n    tag_84:\n        /* \"contracts/BookStoreCls.sol\":4381:4438  PurchaseIntiated(_bookId, msg.sender, owner(), _quantity) */\n      0xffffffffffffffffffffffffffffffffffffffff\n      and\n        /* \"contracts/BookStoreCls.sol\":4407:4417  msg.sender */\n      caller\n        /* \"contracts/BookStoreCls.sol\":4381:4438  PurchaseIntiated(_bookId, msg.sender, owner(), _quantity) */\n      0xffffffffffffffffffffffffffffffffffffffff\n      and\n        /* \"contracts/BookStoreCls.sol\":4398:4405  _bookId */\n      dup6\n        /* \"contracts/BookStoreCls.sol\":4381:4438  PurchaseIntiated(_bookId, msg.sender, owner(), _quantity) */\n      0x795c01707eea3be54397e23c120afce586e315e3148eb7ea2a28d3331ab57f67\n        /* \"contracts/BookStoreCls.sol\":4428:4437  _quantity */\n      dup7\n        /* \"contracts/BookStoreCls.sol\":4381:4438  PurchaseIntiated(_bookId, msg.sender, owner(), _quantity) */\n      mload(0x40)\n      tag_85\n      swap2\n      swap1\n      tag_24\n      jump\t// in\n    tag_85:\n      mload(0x40)\n      dup1\n      swap2\n      sub\n      swap1\n      log4\n        /* \"contracts/BookStoreCls.sol\":4501:4508  owner() */\n      tag_86\n        /* \"contracts/BookStoreCls.sol\":4501:4506  owner */\n      tag_58\n        /* \"contracts/BookStoreCls.sol\":4501:4508  owner() */\n      jump\t// in\n    tag_86:\n        /* \"contracts/BookStoreCls.sol\":4493:4518  payable(owner()).transfer */\n      0xffffffffffffffffffffffffffffffffffffffff\n      and\n        /* \"contracts/BookStoreCls.sol\":4493:4529  payable(owner()).transfer(msg.value) */\n      0x08fc\n        /* \"contracts/BookStoreCls.sol\":4519:4528  msg.value */\n      callvalue\n        /* \"contracts/BookStoreCls.sol\":4493:4529  payable(owner()).transfer(msg.value) */\n      swap1\n      dup2\n      iszero\n      mul\n      swap1\n      mload(0x40)\n      0x00\n      mload(0x40)\n      dup1\n      dup4\n      sub\n      dup2\n      dup6\n      dup9\n      dup9\n      call\n      swap4\n      pop\n      pop\n      pop\n      pop\n      iszero\n      dup1\n      iszero\n      tag_88\n      jumpi\n      returndatasize\n      0x00\n      dup1\n      returndatacopy\n      revert(0x00, returndatasize)\n    tag_88:\n      pop\n        /* \"contracts/BookStoreCls.sol\":3975:4537  {... */\n      pop\n      pop\n        /* \"contracts/BookStoreCls.sol\":3907:4537  function buyBook(uint256 _bookId, uint256 _quantity) public payable {... */\n      pop\n      pop\n      jump\t// out\n        /* \"contracts/BookStoreCls.sol\":2154:2178  uint256[] public bookIds */\n    tag_22:\n      0x04\n      dup2\n      dup2\n      sload\n      dup2\n      lt\n      tag_89\n      jumpi\n      0x00\n      dup1\n      revert\n    tag_89:\n      swap1\n      0x00\n      mstore\n      keccak256(0x00, 0x20)\n      add\n      0x00\n      swap2\n      pop\n      swap1\n      pop\n      sload\n      dup2\n      jump\t// out\n        /* \"contracts/BookStoreCls.sol\":2060:2103  mapping(address => bool) public subscribers */\n    tag_29:\n      mstore(0x20, 0x02)\n      dup1\n      0x00\n      mstore\n      keccak256(0x00, 0x40)\n      0x00\n      swap2\n      pop\n      sload\n      swap1\n      0x0100\n      exp\n      swap1\n      div\n      0xff\n      and\n      dup2\n      jump\t// out\n        /* \"contracts/BookStoreCls.sol\":3435:3682  function getBooks(uint256 _bookId) public view returns (string memory, string memory, uint256, uint256, bool) {... */\n    tag_35:\n        /* \"contracts/BookStoreCls.sol\":3491:3504  string memory */\n      0x60\n        /* \"contracts/BookStoreCls.sol\":3506:3519  string memory */\n      dup1\n        /* \"contracts/BookStoreCls.sol\":3521:3528  uint256 */\n      0x00\n        /* \"contracts/BookStoreCls.sol\":3530:3537  uint256 */\n      dup1\n        /* \"contracts/BookStoreCls.sol\":3539:3543  bool */\n      0x00\n        /* \"contracts/BookStoreCls.sol\":3556:3572  Book memory book */\n      dup1\n        /* \"contracts/BookStoreCls.sol\":3575:3580  books */\n      0x01\n        /* \"contracts/BookStoreCls.sol\":3575:3589  books[_bookId] */\n      0x00\n        /* \"contracts/BookStoreCls.sol\":3581:3588  _bookId */\n      dup9\n        /* \"contracts/BookStoreCls.sol\":3575:3589  books[_bookId] */\n      dup2\n      mstore\n      0x20\n      add\n      swap1\n      dup2\n      mstore\n      0x20\n      add\n      0x00\n      keccak256\n        /* \"contracts/BookStoreCls.sol\":3556:3589  Book memory book = books[_bookId] */\n      mload(0x40)\n      dup1\n      0xa0\n      add\n      0x40\n      mstore\n      swap1\n      dup2\n      0x00\n      dup3\n      add\n      dup1\n      sload\n      tag_92\n      swap1\n      tag_93\n      jump\t// in\n    tag_92:\n      dup1\n      0x1f\n      add\n      0x20\n      dup1\n      swap2\n      div\n      mul\n      0x20\n      add\n      mload(0x40)\n      swap1\n      dup2\n      add\n      0x40\n      mstore\n      dup1\n      swap3\n      swap2\n      swap1\n      dup2\n      dup2\n      mstore\n      0x20\n      add\n      dup3\n      dup1\n      sload\n      tag_94\n      swap1\n      tag_93\n      jump\t// in\n    tag_94:\n      dup1\n      iszero\n      tag_95\n      jumpi\n      dup1\n      0x1f\n      lt\n      tag_96\n      jumpi\n      0x0100\n      dup1\n      dup4\n      sload\n      div\n      mul\n      dup4\n      mstore\n      swap2\n      0x20\n      add\n      swap2\n      jump(tag_95)\n    tag_96:\n      dup3\n      add\n      swap2\n      swap1\n      0x00\n      mstore\n      keccak256(0x00, 0x20)\n      swap1\n    tag_97:\n      dup2\n      sload\n      dup2\n      mstore\n      swap1\n      0x01\n      add\n      swap1\n      0x20\n      add\n      dup1\n      dup4\n      gt\n      tag_97\n      jumpi\n      dup3\n      swap1\n      sub\n      0x1f\n      and\n      dup3\n      add\n      swap2\n    tag_95:\n      pop\n      pop\n      pop\n      pop\n      pop\n      dup2\n      mstore\n      0x20\n      add\n      0x01\n      dup3\n      add\n      dup1\n      sload\n      tag_98\n      swap1\n      tag_93\n      jump\t// in\n    tag_98:\n      dup1\n      0x1f\n      add\n      0x20\n      dup1\n      swap2\n      div\n      mul\n      0x20\n      add\n      mload(0x40)\n      swap1\n      dup2\n      add\n      0x40\n      mstore\n      dup1\n      swap3\n      swap2\n      swap1\n      dup2\n      dup2\n      mstore\n      0x20\n      add\n      dup3\n      dup1\n      sload\n      tag_99\n      swap1\n      tag_93\n      jump\t// in\n    tag_99:\n      dup1\n      iszero\n      tag_100\n      jumpi\n      dup1\n      0x1f\n      lt\n      tag_101\n      jumpi\n      0x0100\n      dup1\n      dup4\n      sload\n      div\n      mul\n      dup4\n      mstore\n      swap2\n      0x20\n      add\n      swap2\n      jump(tag_100)\n    tag_101:\n      dup3\n      add\n      swap2\n      swap1\n      0x00\n      mstore\n      keccak256(0x00, 0x20)\n      swap1\n    tag_102:\n      dup2\n      sload\n      dup2\n      mstore\n      swap1\n      0x01\n      add\n      swap1\n      0x20\n      add\n      dup1\n      dup4\n      gt\n      tag_102\n      jumpi\n      dup3\n      swap1\n      sub\n      0x1f\n      and\n      dup3\n      add\n      swap2\n    tag_100:\n      pop\n      pop\n      pop\n      pop\n      pop\n      dup2\n      mstore\n      0x20\n      add\n      0x02\n      dup3\n      add\n      sload\n      dup2\n      mstore\n      0x20\n      add\n      0x03\n      dup3\n      add\n      sload\n      dup2\n      mstore\n      0x20\n      add\n      0x04\n      dup3\n      add\n      0x00\n      swap1\n      sload\n      swap1\n      0x0100\n      exp\n      swap1\n      div\n      0xff\n      and\n      iszero\n      iszero\n      iszero\n      iszero\n      dup2\n      mstore\n      pop\n      pop\n      swap1\n      pop\n        /* \"contracts/BookStoreCls.sol\":3608:3612  book */\n      dup1\n        /* \"contracts/BookStoreCls.sol\":3608:3618  book.title */\n      0x00\n      add\n      mload\n        /* \"contracts/BookStoreCls.sol\":3620:3624  book */\n      dup2\n        /* \"contracts/BookStoreCls.sol\":3620:3631  book.author */\n      0x20\n      add\n      mload\n        /* \"contracts/BookStoreCls.sol\":3633:3637  book */\n      dup3\n        /* \"contracts/BookStoreCls.sol\":3633:3643  book.price */\n      0x40\n      add\n      mload\n        /* \"contracts/BookStoreCls.sol\":3645:3649  book */\n      dup4\n        /* \"contracts/BookStoreCls.sol\":3645:3655  book.stock */\n      0x60\n      add\n      mload\n        /* \"contracts/BookStoreCls.sol\":3657:3661  book */\n      dup5\n        /* \"contracts/BookStoreCls.sol\":3657:3673  book.isAvailable */\n      0x80\n      add\n      mload\n        /* \"contracts/BookStoreCls.sol\":3600:3674  return (book.title, book.author, book.price, book.stock, book.isAvailable) */\n      swap6\n      pop\n      swap6\n      pop\n      swap6\n      pop\n      swap6\n      pop\n      swap6\n      pop\n      pop\n        /* \"contracts/BookStoreCls.sol\":3435:3682  function getBooks(uint256 _bookId) public view returns (string memory, string memory, uint256, uint256, bool) {... */\n      swap2\n      swap4\n      swap6\n      swap1\n      swap3\n      swap5\n      pop\n      jump\t// out\n        /* \"contracts/BookStoreCls.sol\":2016:2053  mapping(uint256 => Book) public books */\n    tag_41:\n      mstore(0x20, 0x01)\n      dup1\n      0x00\n      mstore\n      keccak256(0x00, 0x40)\n      0x00\n      swap2\n      pop\n      swap1\n      pop\n      dup1\n      0x00\n      add\n      dup1\n      sload\n      tag_103\n      swap1\n      tag_93\n      jump\t// in\n    tag_103:\n      dup1\n      0x1f\n      add\n      0x20\n      dup1\n      swap2\n      div\n      mul\n      0x20\n      add\n      mload(0x40)\n      swap1\n      dup2\n      add\n      0x40\n      mstore\n      dup1\n      swap3\n      swap2\n      swap1\n      dup2\n      dup2\n      mstore\n      0x20\n      add\n      dup3\n      dup1\n      sload\n      tag_104\n      swap1\n      tag_93\n      jump\t// in\n    tag_104:\n      dup1\n      iszero\n      tag_105\n      jumpi\n      dup1\n      0x1f\n      lt\n      tag_106\n      jumpi\n      0x0100\n      dup1\n      dup4\n      sload\n      div\n      mul\n      dup4\n      mstore\n      swap2\n      0x20\n      add\n      swap2\n      jump(tag_105)\n    tag_106:\n      dup3\n      add\n      swap2\n      swap1\n      0x00\n      mstore\n      keccak256(0x00, 0x20)\n      swap1\n    tag_107:\n      dup2\n      sload\n      dup2\n      mstore\n      swap1\n      0x01\n      add\n      swap1\n      0x20\n      add\n      dup1\n      dup4\n      gt\n      tag_107\n      jumpi\n      dup3\n      swap1\n      sub\n      0x1f\n      and\n      dup3\n      add\n      swap2\n    tag_105:\n      pop\n      pop\n      pop\n      pop\n      pop\n      swap1\n      dup1\n      0x01\n      add\n      dup1\n      sload\n      tag_108\n      swap1\n      tag_93\n      jump\t// in\n    tag_108:\n      dup1\n      0x1f\n      add\n      0x20\n      dup1\n      swap2\n      div\n      mul\n      0x20\n      add\n      mload(0x40)\n      swap1\n      dup2\n      add\n      0x40\n      mstore\n      dup1\n      swap3\n      swap2\n      swap1\n      dup2\n      dup2\n      mstore\n      0x20\n      add\n      dup3\n      dup1\n      sload\n      tag_109\n      swap1\n      tag_93\n      jump\t// in\n    tag_109:\n      dup1\n      iszero\n      tag_110\n      jumpi\n      dup1\n      0x1f\n      lt\n      tag_111\n      jumpi\n      0x0100\n      dup1\n      dup4\n      sload\n      div\n      mul\n      dup4\n      mstore\n      swap2\n      0x20\n      add\n      swap2\n      jump(tag_110)\n    tag_111:\n      dup3\n      add\n      swap2\n      swap1\n      0x00\n      mstore\n      keccak256(0x00, 0x20)\n      swap1\n    tag_112:\n      dup2\n      sload\n      dup2\n      mstore\n      swap1\n      0x01\n      add\n      swap1\n      0x20\n      add\n      dup1\n      dup4\n      gt\n      tag_112\n      jumpi\n      dup3\n      swap1\n      sub\n      0x1f\n      and\n      dup3\n      add\n      swap2\n    tag_110:\n      pop\n      pop\n      pop\n      pop\n      pop\n      swap1\n      dup1\n      0x02\n      add\n      sload\n      swap1\n      dup1\n      0x03\n      add\n      sload\n      swap1\n      dup1\n      0x04\n      add\n      0x00\n      swap1\n      sload\n      swap1\n      0x0100\n      exp\n      swap1\n      div\n      0xff\n      and\n      swap1\n      pop\n      dup6\n      jump\t// out\n        /* \"@openzeppelin/contracts/access/Ownable.sol\":2293:2394  function renounceOwnership() public virtual onlyOwner {... */\n    tag_45:\n        /* \"@openzeppelin/contracts/access/Ownable.sol\":1531:1544  _checkOwner() */\n      tag_114\n        /* \"@openzeppelin/contracts/access/Ownable.sol\":1531:1542  _checkOwner */\n      tag_115\n        /* \"@openzeppelin/contracts/access/Ownable.sol\":1531:1544  _checkOwner() */\n      jump\t// in\n    tag_114:\n        /* \"@openzeppelin/contracts/access/Ownable.sol\":2357:2387  _transferOwnership(address(0)) */\n      tag_117\n        /* \"@openzeppelin/contracts/access/Ownable.sol\":2384:2385  0 */\n      0x00\n        /* \"@openzeppelin/contracts/access/Ownable.sol\":2357:2375  _transferOwnership */\n      tag_118\n        /* \"@openzeppelin/contracts/access/Ownable.sol\":2357:2387  _transferOwnership(address(0)) */\n      jump\t// in\n    tag_117:\n        /* \"@openzeppelin/contracts/access/Ownable.sol\":2293:2394  function renounceOwnership() public virtual onlyOwner {... */\n      jump\t// out\n        /* \"contracts/BookStoreCls.sol\":2116:2147  address[] public subscriberList */\n    tag_49:\n      0x03\n      dup2\n      dup2\n      sload\n      dup2\n      lt\n      tag_119\n      jumpi\n      0x00\n      dup1\n      revert\n    tag_119:\n      swap1\n      0x00\n      mstore\n      keccak256(0x00, 0x20)\n      add\n      0x00\n      swap2\n      pop\n      sload\n      swap1\n      0x0100\n      exp\n      swap1\n      div\n      0xffffffffffffffffffffffffffffffffffffffff\n      and\n      dup2\n      jump\t// out\n        /* \"contracts/BookStoreCls.sol\":4545:4962  function confirmPurchase(uint256 _bookId, uint256 _quantity) public onlyOwner {... */\n    tag_55:\n        /* \"@openzeppelin/contracts/access/Ownable.sol\":1531:1544  _checkOwner() */\n      tag_122\n        /* \"@openzeppelin/contracts/access/Ownable.sol\":1531:1542  _checkOwner */\n      tag_115\n        /* \"@openzeppelin/contracts/access/Ownable.sol\":1531:1544  _checkOwner() */\n      jump\t// in\n    tag_122:\n        /* \"contracts/BookStoreCls.sol\":4634:4651  Book storage book */\n      0x00\n        /* \"contracts/BookStoreCls.sol\":4654:4659  books */\n      0x01\n        /* \"contracts/BookStoreCls.sol\":4654:4668  books[_bookId] */\n      0x00\n        /* \"contracts/BookStoreCls.sol\":4660:4667  _bookId */\n      dup5\n        /* \"contracts/BookStoreCls.sol\":4654:4668  books[_bookId] */\n      dup2\n      mstore\n      0x20\n      add\n      swap1\n      dup2\n      mstore\n      0x20\n      add\n      0x00\n      keccak256\n        /* \"contracts/BookStoreCls.sol\":4634:4668  Book storage book = books[_bookId] */\n      swap1\n      pop\n        /* \"contracts/BookStoreCls.sol\":4701:4710  _quantity */\n      dup2\n        /* \"contracts/BookStoreCls.sol\":4687:4691  book */\n      dup2\n        /* \"contracts/BookStoreCls.sol\":4687:4697  book.stock */\n      0x03\n      add\n      sload\n        /* \"contracts/BookStoreCls.sol\":4687:4710  book.stock >= _quantity */\n      lt\n      iszero\n        /* \"contracts/BookStoreCls.sol\":4679:4752  require(book.stock >= _quantity, \"Not enough stock to confirm purchase.\") */\n      tag_124\n      jumpi\n      mload(0x40)\n      0x08c379a000000000000000000000000000000000000000000000000000000000\n      dup2\n      mstore\n      0x04\n      add\n      tag_125\n      swap1\n      tag_126\n      jump\t// in\n    tag_125:\n      mload(0x40)\n      dup1\n      swap2\n      sub\n      swap1\n      revert\n    tag_124:\n        /* \"contracts/BookStoreCls.sol\":4787:4796  _quantity */\n      dup2\n        /* \"contracts/BookStoreCls.sol\":4773:4777  book */\n      dup2\n        /* \"contracts/BookStoreCls.sol\":4773:4783  book.stock */\n      0x03\n      add\n      0x00\n        /* \"contracts/BookStoreCls.sol\":4773:4796  book.stock -= _quantity */\n      dup3\n      dup3\n      sload\n      tag_127\n      swap2\n      swap1\n      tag_128\n      jump\t// in\n    tag_127:\n      swap3\n      pop\n      pop\n      dup2\n      swap1\n      sstore\n      pop\n        /* \"contracts/BookStoreCls.sol\":4825:4826  0 */\n      0x00\n        /* \"contracts/BookStoreCls.sol\":4811:4815  book */\n      dup2\n        /* \"contracts/BookStoreCls.sol\":4811:4821  book.stock */\n      0x03\n      add\n      sload\n        /* \"contracts/BookStoreCls.sol\":4811:4826  book.stock == 0 */\n      sub\n        /* \"contracts/BookStoreCls.sol\":4807:4879  if (book.stock == 0) {... */\n      tag_129\n      jumpi\n        /* \"contracts/BookStoreCls.sol\":4862:4867  false */\n      0x00\n        /* \"contracts/BookStoreCls.sol\":4843:4847  book */\n      dup2\n        /* \"contracts/BookStoreCls.sol\":4843:4859  book.isAvailable */\n      0x04\n      add\n      0x00\n        /* \"contracts/BookStoreCls.sol\":4843:4867  book.isAvailable = false */\n      0x0100\n      exp\n      dup2\n      sload\n      dup2\n      0xff\n      mul\n      not\n      and\n      swap1\n      dup4\n      iszero\n      iszero\n      mul\n      or\n      swap1\n      sstore\n      pop\n        /* \"contracts/BookStoreCls.sol\":4807:4879  if (book.stock == 0) {... */\n    tag_129:\n        /* \"contracts/BookStoreCls.sol\":4935:4942  owner() */\n      tag_130\n        /* \"contracts/BookStoreCls.sol\":4935:4940  owner */\n      tag_58\n        /* \"contracts/BookStoreCls.sol\":4935:4942  owner() */\n      jump\t// in\n    tag_130:\n        /* \"contracts/BookStoreCls.sol\":4896:4954  PurchaseConfirmed(_bookId, msg.sender, owner(), _quantity) */\n      0xffffffffffffffffffffffffffffffffffffffff\n      and\n        /* \"contracts/BookStoreCls.sol\":4923:4933  msg.sender */\n      caller\n        /* \"contracts/BookStoreCls.sol\":4896:4954  PurchaseConfirmed(_bookId, msg.sender, owner(), _quantity) */\n      0xffffffffffffffffffffffffffffffffffffffff\n      and\n        /* \"contracts/BookStoreCls.sol\":4914:4921  _bookId */\n      dup5\n        /* \"contracts/BookStoreCls.sol\":4896:4954  PurchaseConfirmed(_bookId, msg.sender, owner(), _quantity) */\n      0xa91bf27de3b2ac5c122e315cfb7ee965404a4738b4e79f4ed1dc5d12a494a42a\n        /* \"contracts/BookStoreCls.sol\":4944:4953  _quantity */\n      dup6\n        /* \"contracts/BookStoreCls.sol\":4896:4954  PurchaseConfirmed(_bookId, msg.sender, owner(), _quantity) */\n      mload(0x40)\n      tag_131\n      swap2\n      swap1\n      tag_24\n      jump\t// in\n    tag_131:\n      mload(0x40)\n      dup1\n      swap2\n      sub\n      swap1\n      log4\n        /* \"contracts/BookStoreCls.sol\":4623:4962  {... */\n      pop\n        /* \"contracts/BookStoreCls.sol\":4545:4962  function confirmPurchase(uint256 _bookId, uint256 _quantity) public onlyOwner {... */\n      pop\n      pop\n      jump\t// out\n        /* \"@openzeppelin/contracts/access/Ownable.sol\":1638:1723  function owner() public view virtual returns (address) {... */\n    tag_58:\n        /* \"@openzeppelin/contracts/access/Ownable.sol\":1684:1691  address */\n      0x00\n        /* \"@openzeppelin/contracts/access/Ownable.sol\":1710:1716  _owner */\n      dup1\n      0x00\n      swap1\n      sload\n      swap1\n      0x0100\n      exp\n      swap1\n      div\n      0xffffffffffffffffffffffffffffffffffffffff\n      and\n        /* \"@openzeppelin/contracts/access/Ownable.sol\":1703:1716  return _owner */\n      swap1\n      pop\n        /* \"@openzeppelin/contracts/access/Ownable.sol\":1638:1723  function owner() public view virtual returns (address) {... */\n      swap1\n      jump\t// out\n        /* \"@openzeppelin/contracts/access/Ownable.sol\":2543:2758  function transferOwnership(address newOwner) public virtual onlyOwner {... */\n    tag_63:\n        /* \"@openzeppelin/contracts/access/Ownable.sol\":1531:1544  _checkOwner() */\n      tag_134\n        /* \"@openzeppelin/contracts/access/Ownable.sol\":1531:1542  _checkOwner */\n      tag_115\n        /* \"@openzeppelin/contracts/access/Ownable.sol\":1531:1544  _checkOwner() */\n      jump\t// in\n    tag_134:\n        /* \"@openzeppelin/contracts/access/Ownable.sol\":2647:2648  0 */\n      0x00\n        /* \"@openzeppelin/contracts/access/Ownable.sol\":2627:2649  newOwner == address(0) */\n      0xffffffffffffffffffffffffffffffffffffffff\n      and\n        /* \"@openzeppelin/contracts/access/Ownable.sol\":2627:2635  newOwner */\n      dup2\n        /* \"@openzeppelin/contracts/access/Ownable.sol\":2627:2649  newOwner == address(0) */\n      0xffffffffffffffffffffffffffffffffffffffff\n      and\n      sub\n        /* \"@openzeppelin/contracts/access/Ownable.sol\":2623:2714  if (newOwner == address(0)) {... */\n      tag_136\n      jumpi\n        /* \"@openzeppelin/contracts/access/Ownable.sol\":2700:2701  0 */\n      0x00\n        /* \"@openzeppelin/contracts/access/Ownable.sol\":2672:2703  OwnableInvalidOwner(address(0)) */\n      mload(0x40)\n      0x1e4fbdf700000000000000000000000000000000000000000000000000000000\n      dup2\n      mstore\n      0x04\n      add\n      tag_137\n      swap2\n      swap1\n      tag_51\n      jump\t// in\n    tag_137:\n      mload(0x40)\n      dup1\n      swap2\n      sub\n      swap1\n      revert\n        /* \"@openzeppelin/contracts/access/Ownable.sol\":2623:2714  if (newOwner == address(0)) {... */\n    tag_136:\n        /* \"@openzeppelin/contracts/access/Ownable.sol\":2723:2751  _transferOwnership(newOwner) */\n      tag_138\n        /* \"@openzeppelin/contracts/access/Ownable.sol\":2742:2750  newOwner */\n      dup2\n        /* \"@openzeppelin/contracts/access/Ownable.sol\":2723:2741  _transferOwnership */\n      tag_118\n        /* \"@openzeppelin/contracts/access/Ownable.sol\":2723:2751  _transferOwnership(newOwner) */\n      jump\t// in\n    tag_138:\n        /* \"@openzeppelin/contracts/access/Ownable.sol\":2543:2758  function transferOwnership(address newOwner) public virtual onlyOwner {... */\n      pop\n      jump\t// out\n        /* \"contracts/BookStoreCls.sol\":2828:3423  function addBook(uint256 _bookId, string memory _title, string memory _author, uint256 _price, uint256 _stock) public onlyOwner {... */\n    tag_68:\n        /* \"@openzeppelin/contracts/access/Ownable.sol\":1531:1544  _checkOwner() */\n      tag_140\n        /* \"@openzeppelin/contracts/access/Ownable.sol\":1531:1542  _checkOwner */\n      tag_115\n        /* \"@openzeppelin/contracts/access/Ownable.sol\":1531:1544  _checkOwner() */\n      jump\t// in\n    tag_140:\n        /* \"contracts/BookStoreCls.sol\":2999:3000  0 */\n      0x00\n        /* \"contracts/BookStoreCls.sol\":2975:2980  books */\n      0x01\n        /* \"contracts/BookStoreCls.sol\":2975:2989  books[_bookId] */\n      0x00\n        /* \"contracts/BookStoreCls.sol\":2981:2988  _bookId */\n      dup8\n        /* \"contracts/BookStoreCls.sol\":2975:2989  books[_bookId] */\n      dup2\n      mstore\n      0x20\n      add\n      swap1\n      dup2\n      mstore\n      0x20\n      add\n      0x00\n      keccak256\n        /* \"contracts/BookStoreCls.sol\":2975:2995  books[_bookId].price */\n      0x02\n      add\n      sload\n        /* \"contracts/BookStoreCls.sol\":2975:3000  books[_bookId].price == 0 */\n      eq\n        /* \"contracts/BookStoreCls.sol\":2967:3038  require(books[_bookId].price == 0, \"Book already exists with this ID.\") */\n      tag_142\n      jumpi\n      mload(0x40)\n      0x08c379a000000000000000000000000000000000000000000000000000000000\n      dup2\n      mstore\n      0x04\n      add\n      tag_143\n      swap1\n      tag_144\n      jump\t// in\n    tag_143:\n      mload(0x40)\n      dup1\n      swap2\n      sub\n      swap1\n      revert\n    tag_142:\n        /* \"contracts/BookStoreCls.sol\":3066:3295  Book({... */\n      mload(0x40)\n      dup1\n      0xa0\n      add\n      0x40\n      mstore\n      dup1\n        /* \"contracts/BookStoreCls.sol\":3093:3099  _title */\n      dup6\n        /* \"contracts/BookStoreCls.sol\":3066:3295  Book({... */\n      dup2\n      mstore\n      0x20\n      add\n        /* \"contracts/BookStoreCls.sol\":3122:3129  _author */\n      dup5\n        /* \"contracts/BookStoreCls.sol\":3066:3295  Book({... */\n      dup2\n      mstore\n      0x20\n      add\n        /* \"contracts/BookStoreCls.sol\":3160:3167  1 ether */\n      0x0de0b6b3a7640000\n        /* \"contracts/BookStoreCls.sol\":3151:3157  _price */\n      dup5\n        /* \"contracts/BookStoreCls.sol\":3151:3167  _price * 1 ether */\n      tag_145\n      swap2\n      swap1\n      tag_77\n      jump\t// in\n    tag_145:\n        /* \"contracts/BookStoreCls.sol\":3066:3295  Book({... */\n      dup2\n      mstore\n      0x20\n      add\n        /* \"contracts/BookStoreCls.sol\":3239:3245  _stock */\n      dup3\n        /* \"contracts/BookStoreCls.sol\":3066:3295  Book({... */\n      dup2\n      mstore\n      0x20\n      add\n        /* \"contracts/BookStoreCls.sol\":3282:3283  0 */\n      0x00\n        /* \"contracts/BookStoreCls.sol\":3273:3279  _stock */\n      dup4\n        /* \"contracts/BookStoreCls.sol\":3273:3283  _stock > 0 */\n      gt\n        /* \"contracts/BookStoreCls.sol\":3066:3295  Book({... */\n      iszero\n      iszero\n      dup2\n      mstore\n      pop\n        /* \"contracts/BookStoreCls.sol\":3049:3054  books */\n      0x01\n        /* \"contracts/BookStoreCls.sol\":3049:3063  books[_bookId] */\n      0x00\n        /* \"contracts/BookStoreCls.sol\":3055:3062  _bookId */\n      dup8\n        /* \"contracts/BookStoreCls.sol\":3049:3063  books[_bookId] */\n      dup2\n      mstore\n      0x20\n      add\n      swap1\n      dup2\n      mstore\n      0x20\n      add\n      0x00\n      keccak256\n        /* \"contracts/BookStoreCls.sol\":3049:3295  books[_bookId] = Book({... */\n      0x00\n      dup3\n      add\n      mload\n      dup2\n      0x00\n      add\n      swap1\n      dup2\n      tag_146\n      swap2\n      swap1\n      tag_147\n      jump\t// in\n    tag_146:\n      pop\n      0x20\n      dup3\n      add\n      mload\n      dup2\n      0x01\n      add\n      swap1\n      dup2\n      tag_148\n      swap2\n      swap1\n      tag_147\n      jump\t// in\n    tag_148:\n      pop\n      0x40\n      dup3\n      add\n      mload\n      dup2\n      0x02\n      add\n      sstore\n      0x60\n      dup3\n      add\n      mload\n      dup2\n      0x03\n      add\n      sstore\n      0x80\n      dup3\n      add\n      mload\n      dup2\n      0x04\n      add\n      exp(0x0100, 0x00)\n      dup2\n      sload\n      dup2\n      0xff\n      mul\n      not\n      and\n      swap1\n      dup4\n      iszero\n      iszero\n      mul\n      or\n      swap1\n      sstore\n      pop\n      swap1\n      pop\n      pop\n        /* \"contracts/BookStoreCls.sol\":3306:3313  bookIds */\n      0x04\n        /* \"contracts/BookStoreCls.sol\":3319:3326  _bookId */\n      dup6\n        /* \"contracts/BookStoreCls.sol\":3306:3327  bookIds.push(_bookId) */\n      swap1\n      dup1\n      0x01\n      dup2\n      sload\n      add\n      dup1\n      dup3\n      sstore\n      dup1\n      swap2\n      pop\n      pop\n      0x01\n      swap1\n      sub\n      swap1\n      0x00\n      mstore\n      keccak256(0x00, 0x20)\n      add\n      0x00\n      swap1\n      swap2\n      swap1\n      swap2\n      swap1\n      swap2\n      pop\n      sstore\n        /* \"contracts/BookStoreCls.sol\":3374:3381  _bookId */\n      dup5\n        /* \"contracts/BookStoreCls.sol\":3364:3415  BookAdded(_bookId, _title, _author, _price, _stock) */\n      0x722c04650224f771c04ec5712c74689980b3ddb4eaa233cd8f9c72d7da7fbe29\n        /* \"contracts/BookStoreCls.sol\":3383:3389  _title */\n      dup6\n        /* \"contracts/BookStoreCls.sol\":3391:3398  _author */\n      dup6\n        /* \"contracts/BookStoreCls.sol\":3400:3406  _price */\n      dup6\n        /* \"contracts/BookStoreCls.sol\":3408:3414  _stock */\n      dup6\n        /* \"contracts/BookStoreCls.sol\":3364:3415  BookAdded(_bookId, _title, _author, _price, _stock) */\n      mload(0x40)\n      tag_150\n      swap5\n      swap4\n      swap3\n      swap2\n      swap1\n      tag_151\n      jump\t// in\n    tag_150:\n      mload(0x40)\n      dup1\n      swap2\n      sub\n      swap1\n      log2\n        /* \"contracts/BookStoreCls.sol\":2828:3423  function addBook(uint256 _bookId, string memory _title, string memory _author, uint256 _price, uint256 _stock) public onlyOwner {... */\n      pop\n      pop\n      pop\n      pop\n      pop\n      jump\t// out\n        /* \"@openzeppelin/contracts/access/Ownable.sol\":1796:1958  function _checkOwner() internal view virtual {... */\n    tag_115:\n        /* \"@openzeppelin/contracts/access/Ownable.sol\":1866:1878  _msgSender() */\n      tag_153\n        /* \"@openzeppelin/contracts/access/Ownable.sol\":1866:1876  _msgSender */\n      tag_154\n        /* \"@openzeppelin/contracts/access/Ownable.sol\":1866:1878  _msgSender() */\n      jump\t// in\n    tag_153:\n        /* \"@openzeppelin/contracts/access/Ownable.sol\":1855:1878  owner() != _msgSender() */\n      0xffffffffffffffffffffffffffffffffffffffff\n      and\n        /* \"@openzeppelin/contracts/access/Ownable.sol\":1855:1862  owner() */\n      tag_155\n        /* \"@openzeppelin/contracts/access/Ownable.sol\":1855:1860  owner */\n      tag_58\n        /* \"@openzeppelin/contracts/access/Ownable.sol\":1855:1862  owner() */\n      jump\t// in\n    tag_155:\n        /* \"@openzeppelin/contracts/access/Ownable.sol\":1855:1878  owner() != _msgSender() */\n      0xffffffffffffffffffffffffffffffffffffffff\n      and\n      eq\n        /* \"@openzeppelin/contracts/access/Ownable.sol\":1851:1952  if (owner() != _msgSender()) {... */\n      tag_156\n      jumpi\n        /* \"@openzeppelin/contracts/access/Ownable.sol\":1928:1940  _msgSender() */\n      tag_157\n        /* \"@openzeppelin/contracts/access/Ownable.sol\":1928:1938  _msgSender */\n      tag_154\n        /* \"@openzeppelin/contracts/access/Ownable.sol\":1928:1940  _msgSender() */\n      jump\t// in\n    tag_157:\n        /* \"@openzeppelin/contracts/access/Ownable.sol\":1901:1941  OwnableUnauthorizedAccount(_msgSender()) */\n      mload(0x40)\n      0x118cdaa700000000000000000000000000000000000000000000000000000000\n      dup2\n      mstore\n      0x04\n      add\n      tag_158\n      swap2\n      swap1\n      tag_51\n      jump\t// in\n    tag_158:\n      mload(0x40)\n      dup1\n      swap2\n      sub\n      swap1\n      revert\n        /* \"@openzeppelin/contracts/access/Ownable.sol\":1851:1952  if (owner() != _msgSender()) {... */\n    tag_156:\n        /* \"@openzeppelin/contracts/access/Ownable.sol\":1796:1958  function _checkOwner() internal view virtual {... */\n      jump\t// out\n        /* \"@openzeppelin/contracts/access/Ownable.sol\":2912:3099  function _transferOwnership(address newOwner) internal virtual {... */\n    tag_118:\n        /* \"@openzeppelin/contracts/access/Ownable.sol\":2985:3001  address oldOwner */\n      0x00\n        /* \"@openzeppelin/contracts/access/Ownable.sol\":3004:3010  _owner */\n      dup1\n      0x00\n      swap1\n      sload\n      swap1\n      0x0100\n      exp\n      swap1\n      div\n      0xffffffffffffffffffffffffffffffffffffffff\n      and\n        /* \"@openzeppelin/contracts/access/Ownable.sol\":2985:3010  address oldOwner = _owner */\n      swap1\n      pop\n        /* \"@openzeppelin/contracts/access/Ownable.sol\":3029:3037  newOwner */\n      dup2\n        /* \"@openzeppelin/contracts/access/Ownable.sol\":3020:3026  _owner */\n      0x00\n      dup1\n        /* \"@openzeppelin/contracts/access/Ownable.sol\":3020:3037  _owner = newOwner */\n      0x0100\n      exp\n      dup2\n      sload\n      dup2\n      0xffffffffffffffffffffffffffffffffffffffff\n      mul\n      not\n      and\n      swap1\n      dup4\n      0xffffffffffffffffffffffffffffffffffffffff\n      and\n      mul\n      or\n      swap1\n      sstore\n      pop\n        /* \"@openzeppelin/contracts/access/Ownable.sol\":3083:3091  newOwner */\n      dup2\n        /* \"@openzeppelin/contracts/access/Ownable.sol\":3052:3092  OwnershipTransferred(oldOwner, newOwner) */\n      0xffffffffffffffffffffffffffffffffffffffff\n      and\n        /* \"@openzeppelin/contracts/access/Ownable.sol\":3073:3081  oldOwner */\n      dup2\n        /* \"@openzeppelin/contracts/access/Ownable.sol\":3052:3092  OwnershipTransferred(oldOwner, newOwner) */\n      0xffffffffffffffffffffffffffffffffffffffff\n      and\n      0x8be0079c531659141344cd1fd0a4f28419497f9722a3daafe3b4186f6b6457e0\n      mload(0x40)\n      mload(0x40)\n      dup1\n      swap2\n      sub\n      swap1\n      log3\n        /* \"@openzeppelin/contracts/access/Ownable.sol\":2975:3099  {... */\n      pop\n        /* \"@openzeppelin/contracts/access/Ownable.sol\":2912:3099  function _transferOwnership(address newOwner) internal virtual {... */\n      pop\n      jump\t// out\n        /* \"@openzeppelin/contracts/utils/Context.sol\":656:752  function _msgSender() internal view virtual returns (address) {... */\n    tag_154:\n        /* \"@openzeppelin/contracts/utils/Context.sol\":709:716  address */\n      0x00\n        /* \"@openzeppelin/contracts/utils/Context.sol\":735:745  msg.sender */\n      caller\n        /* \"@openzeppelin/contracts/utils/Context.sol\":728:745  return msg.sender */\n      swap1\n      pop\n        /* \"@openzeppelin/contracts/utils/Context.sol\":656:752  function _msgSender() internal view virtual returns (address) {... */\n      swap1\n      jump\t// out\n        /* \"#utility.yul\":7:82   */\n    tag_161:\n        /* \"#utility.yul\":40:46   */\n      0x00\n        /* \"#utility.yul\":73:75   */\n      0x40\n        /* \"#utility.yul\":67:76   */\n      mload\n        /* \"#utility.yul\":57:76   */\n      swap1\n      pop\n        /* \"#utility.yul\":7:82   */\n      swap1\n      jump\t// out\n        /* \"#utility.yul\":88:205   */\n    tag_162:\n        /* \"#utility.yul\":197:198   */\n      0x00\n        /* \"#utility.yul\":194:195   */\n      dup1\n        /* \"#utility.yul\":187:199   */\n      revert\n        /* \"#utility.yul\":211:328   */\n    tag_163:\n        /* \"#utility.yul\":320:321   */\n      0x00\n        /* \"#utility.yul\":317:318   */\n      dup1\n        /* \"#utility.yul\":310:322   */\n      revert\n        /* \"#utility.yul\":334:411   */\n    tag_164:\n        /* \"#utility.yul\":371:378   */\n      0x00\n        /* \"#utility.yul\":400:405   */\n      dup2\n        /* \"#utility.yul\":389:405   */\n      swap1\n      pop\n        /* \"#utility.yul\":334:411   */\n      swap2\n      swap1\n      pop\n      jump\t// out\n        /* \"#utility.yul\":417:539   */\n    tag_165:\n        /* \"#utility.yul\":490:514   */\n      tag_224\n        /* \"#utility.yul\":508:513   */\n      dup2\n        /* \"#utility.yul\":490:514   */\n      tag_164\n      jump\t// in\n    tag_224:\n        /* \"#utility.yul\":483:488   */\n      dup2\n        /* \"#utility.yul\":480:515   */\n      eq\n        /* \"#utility.yul\":470:533   */\n      tag_225\n      jumpi\n        /* \"#utility.yul\":529:530   */\n      0x00\n        /* \"#utility.yul\":526:527   */\n      dup1\n        /* \"#utility.yul\":519:531   */\n      revert\n        /* \"#utility.yul\":470:533   */\n    tag_225:\n        /* \"#utility.yul\":417:539   */\n      pop\n      jump\t// out\n        /* \"#utility.yul\":545:684   */\n    tag_166:\n        /* \"#utility.yul\":591:596   */\n      0x00\n        /* \"#utility.yul\":629:635   */\n      dup2\n        /* \"#utility.yul\":616:636   */\n      calldataload\n        /* \"#utility.yul\":607:636   */\n      swap1\n      pop\n        /* \"#utility.yul\":645:678   */\n      tag_227\n        /* \"#utility.yul\":672:677   */\n      dup2\n        /* \"#utility.yul\":645:678   */\n      tag_165\n      jump\t// in\n    tag_227:\n        /* \"#utility.yul\":545:684   */\n      swap3\n      swap2\n      pop\n      pop\n      jump\t// out\n        /* \"#utility.yul\":690:1164   */\n    tag_16:\n        /* \"#utility.yul\":758:764   */\n      0x00\n        /* \"#utility.yul\":766:772   */\n      dup1\n        /* \"#utility.yul\":815:817   */\n      0x40\n        /* \"#utility.yul\":803:812   */\n      dup4\n        /* \"#utility.yul\":794:801   */\n      dup6\n        /* \"#utility.yul\":790:813   */\n      sub\n        /* \"#utility.yul\":786:818   */\n      slt\n        /* \"#utility.yul\":783:902   */\n      iszero\n      tag_229\n      jumpi\n        /* \"#utility.yul\":821:900   */\n      tag_230\n      tag_162\n      jump\t// in\n    tag_230:\n        /* \"#utility.yul\":783:902   */\n    tag_229:\n        /* \"#utility.yul\":941:942   */\n      0x00\n        /* \"#utility.yul\":966:1019   */\n      tag_231\n        /* \"#utility.yul\":1011:1018   */\n      dup6\n        /* \"#utility.yul\":1002:1008   */\n      dup3\n        /* \"#utility.yul\":991:1000   */\n      dup7\n        /* \"#utility.yul\":987:1009   */\n      add\n        /* \"#utility.yul\":966:1019   */\n      tag_166\n      jump\t// in\n    tag_231:\n        /* \"#utility.yul\":956:1019   */\n      swap3\n      pop\n        /* \"#utility.yul\":912:1029   */\n      pop\n        /* \"#utility.yul\":1068:1070   */\n      0x20\n        /* \"#utility.yul\":1094:1147   */\n      tag_232\n        /* \"#utility.yul\":1139:1146   */\n      dup6\n        /* \"#utility.yul\":1130:1136   */\n      dup3\n        /* \"#utility.yul\":1119:1128   */\n      dup7\n        /* \"#utility.yul\":1115:1137   */\n      add\n        /* \"#utility.yul\":1094:1147   */\n      tag_166\n      jump\t// in\n    tag_232:\n        /* \"#utility.yul\":1084:1147   */\n      swap2\n      pop\n        /* \"#utility.yul\":1039:1157   */\n      pop\n        /* \"#utility.yul\":690:1164   */\n      swap3\n      pop\n      swap3\n      swap1\n      pop\n      jump\t// out\n        /* \"#utility.yul\":1170:1499   */\n    tag_21:\n        /* \"#utility.yul\":1229:1235   */\n      0x00\n        /* \"#utility.yul\":1278:1280   */\n      0x20\n        /* \"#utility.yul\":1266:1275   */\n      dup3\n        /* \"#utility.yul\":1257:1264   */\n      dup5\n        /* \"#utility.yul\":1253:1276   */\n      sub\n        /* \"#utility.yul\":1249:1281   */\n      slt\n        /* \"#utility.yul\":1246:1365   */\n      iszero\n      tag_234\n      jumpi\n        /* \"#utility.yul\":1284:1363   */\n      tag_235\n      tag_162\n      jump\t// in\n    tag_235:\n        /* \"#utility.yul\":1246:1365   */\n    tag_234:\n        /* \"#utility.yul\":1404:1405   */\n      0x00\n        /* \"#utility.yul\":1429:1482   */\n      tag_236\n        /* \"#utility.yul\":1474:1481   */\n      dup5\n        /* \"#utility.yul\":1465:1471   */\n      dup3\n        /* \"#utility.yul\":1454:1463   */\n      dup6\n        /* \"#utility.yul\":1450:1472   */\n      add\n        /* \"#utility.yul\":1429:1482   */\n      tag_166\n      jump\t// in\n    tag_236:\n        /* \"#utility.yul\":1419:1482   */\n      swap2\n      pop\n        /* \"#utility.yul\":1375:1492   */\n      pop\n        /* \"#utility.yul\":1170:1499   */\n      swap3\n      swap2\n      pop\n      pop\n      jump\t// out\n        /* \"#utility.yul\":1505:1623   */\n    tag_167:\n        /* \"#utility.yul\":1592:1616   */\n      tag_238\n        /* \"#utility.yul\":1610:1615   */\n      dup2\n        /* \"#utility.yul\":1592:1616   */\n      tag_164\n      jump\t// in\n    tag_238:\n        /* \"#utility.yul\":1587:1590   */\n      dup3\n        /* \"#utility.yul\":1580:1617   */\n      mstore\n        /* \"#utility.yul\":1505:1623   */\n      pop\n      pop\n      jump\t// out\n        /* \"#utility.yul\":1629:1851   */\n    tag_24:\n        /* \"#utility.yul\":1722:1726   */\n      0x00\n        /* \"#utility.yul\":1760:1762   */\n      0x20\n        /* \"#utility.yul\":1749:1758   */\n      dup3\n        /* \"#utility.yul\":1745:1763   */\n      add\n        /* \"#utility.yul\":1737:1763   */\n      swap1\n      pop\n        /* \"#utility.yul\":1773:1844   */\n      tag_240\n        /* \"#utility.yul\":1841:1842   */\n      0x00\n        /* \"#utility.yul\":1830:1839   */\n      dup4\n        /* \"#utility.yul\":1826:1843   */\n      add\n        /* \"#utility.yul\":1817:1823   */\n      dup5\n        /* \"#utility.yul\":1773:1844   */\n      tag_167\n      jump\t// in\n    tag_240:\n        /* \"#utility.yul\":1629:1851   */\n      swap3\n      swap2\n      pop\n      pop\n      jump\t// out\n        /* \"#utility.yul\":1857:1983   */\n    tag_168:\n        /* \"#utility.yul\":1894:1901   */\n      0x00\n        /* \"#utility.yul\":1934:1976   */\n      0xffffffffffffffffffffffffffffffffffffffff\n        /* \"#utility.yul\":1927:1932   */\n      dup3\n        /* \"#utility.yul\":1923:1977   */\n      and\n        /* \"#utility.yul\":1912:1977   */\n      swap1\n      pop\n        /* \"#utility.yul\":1857:1983   */\n      swap2\n      swap1\n      pop\n      jump\t// out\n        /* \"#utility.yul\":1989:2085   */\n    tag_169:\n        /* \"#utility.yul\":2026:2033   */\n      0x00\n        /* \"#utility.yul\":2055:2079   */\n      tag_243\n        /* \"#utility.yul\":2073:2078   */\n      dup3\n        /* \"#utility.yul\":2055:2079   */\n      tag_168\n      jump\t// in\n    tag_243:\n        /* \"#utility.yul\":2044:2079   */\n      swap1\n      pop\n        /* \"#utility.yul\":1989:2085   */\n      swap2\n      swap1\n      pop\n      jump\t// out\n        /* \"#utility.yul\":2091:2213   */\n    tag_170:\n        /* \"#utility.yul\":2164:2188   */\n      tag_245\n        /* \"#utility.yul\":2182:2187   */\n      dup2\n        /* \"#utility.yul\":2164:2188   */\n      tag_169\n      jump\t// in\n    tag_245:\n        /* \"#utility.yul\":2157:2162   */\n      dup2\n        /* \"#utility.yul\":2154:2189   */\n      eq\n        /* \"#utility.yul\":2144:2207   */\n      tag_246\n      jumpi\n        /* \"#utility.yul\":2203:2204   */\n      0x00\n        /* \"#utility.yul\":2200:2201   */\n      dup1\n        /* \"#utility.yul\":2193:2205   */\n      revert\n        /* \"#utility.yul\":2144:2207   */\n    tag_246:\n        /* \"#utility.yul\":2091:2213   */\n      pop\n      jump\t// out\n        /* \"#utility.yul\":2219:2358   */\n    tag_171:\n        /* \"#utility.yul\":2265:2270   */\n      0x00\n        /* \"#utility.yul\":2303:2309   */\n      dup2\n        /* \"#utility.yul\":2290:2310   */\n      calldataload\n        /* \"#utility.yul\":2281:2310   */\n      swap1\n      pop\n        /* \"#utility.yul\":2319:2352   */\n      tag_248\n        /* \"#utility.yul\":2346:2351   */\n      dup2\n        /* \"#utility.yul\":2319:2352   */\n      tag_170\n      jump\t// in\n    tag_248:\n        /* \"#utility.yul\":2219:2358   */\n      swap3\n      swap2\n      pop\n      pop\n      jump\t// out\n        /* \"#utility.yul\":2364:2693   */\n    tag_28:\n        /* \"#utility.yul\":2423:2429   */\n      0x00\n        /* \"#utility.yul\":2472:2474   */\n      0x20\n        /* \"#utility.yul\":2460:2469   */\n      dup3\n        /* \"#utility.yul\":2451:2458   */\n      dup5\n        /* \"#utility.yul\":2447:2470   */\n      sub\n        /* \"#utility.yul\":2443:2475   */\n      slt\n        /* \"#utility.yul\":2440:2559   */\n      iszero\n      tag_250\n      jumpi\n        /* \"#utility.yul\":2478:2557   */\n      tag_251\n      tag_162\n      jump\t// in\n    tag_251:\n        /* \"#utility.yul\":2440:2559   */\n    tag_250:\n        /* \"#utility.yul\":2598:2599   */\n      0x00\n        /* \"#utility.yul\":2623:2676   */\n      tag_252\n        /* \"#utility.yul\":2668:2675   */\n      dup5\n        /* \"#utility.yul\":2659:2665   */\n      dup3\n        /* \"#utility.yul\":2648:2657   */\n      dup6\n        /* \"#utility.yul\":2644:2666   */\n      add\n        /* \"#utility.yul\":2623:2676   */\n      tag_171\n      jump\t// in\n    tag_252:\n        /* \"#utility.yul\":2613:2676   */\n      swap2\n      pop\n        /* \"#utility.yul\":2569:2686   */\n      pop\n        /* \"#utility.yul\":2364:2693   */\n      swap3\n      swap2\n      pop\n      pop\n      jump\t// out\n        /* \"#utility.yul\":2699:2789   */\n    tag_172:\n        /* \"#utility.yul\":2733:2740   */\n      0x00\n        /* \"#utility.yul\":2776:2781   */\n      dup2\n        /* \"#utility.yul\":2769:2782   */\n      iszero\n        /* \"#utility.yul\":2762:2783   */\n      iszero\n        /* \"#utility.yul\":2751:2783   */\n      swap1\n      pop\n        /* \"#utility.yul\":2699:2789   */\n      swap2\n      swap1\n      pop\n      jump\t// out\n        /* \"#utility.yul\":2795:2904   */\n    tag_173:\n        /* \"#utility.yul\":2876:2897   */\n      tag_255\n        /* \"#utility.yul\":2891:2896   */\n      dup2\n        /* \"#utility.yul\":2876:2897   */\n      tag_172\n      jump\t// in\n    tag_255:\n        /* \"#utility.yul\":2871:2874   */\n      dup3\n        /* \"#utility.yul\":2864:2898   */\n      mstore\n        /* \"#utility.yul\":2795:2904   */\n      pop\n      pop\n      jump\t// out\n        /* \"#utility.yul\":2910:3120   */\n    tag_31:\n        /* \"#utility.yul\":2997:3001   */\n      0x00\n        /* \"#utility.yul\":3035:3037   */\n      0x20\n        /* \"#utility.yul\":3024:3033   */\n      dup3\n        /* \"#utility.yul\":3020:3038   */\n      add\n        /* \"#utility.yul\":3012:3038   */\n      swap1\n      pop\n        /* \"#utility.yul\":3048:3113   */\n      tag_257\n        /* \"#utility.yul\":3110:3111   */\n      0x00\n        /* \"#utility.yul\":3099:3108   */\n      dup4\n        /* \"#utility.yul\":3095:3112   */\n      add\n        /* \"#utility.yul\":3086:3092   */\n      dup5\n        /* \"#utility.yul\":3048:3113   */\n      tag_173\n      jump\t// in\n    tag_257:\n        /* \"#utility.yul\":2910:3120   */\n      swap3\n      swap2\n      pop\n      pop\n      jump\t// out\n        /* \"#utility.yul\":3126:3225   */\n    tag_174:\n        /* \"#utility.yul\":3178:3184   */\n      0x00\n        /* \"#utility.yul\":3212:3217   */\n      dup2\n        /* \"#utility.yul\":3206:3218   */\n      mload\n        /* \"#utility.yul\":3196:3218   */\n      swap1\n      pop\n        /* \"#utility.yul\":3126:3225   */\n      swap2\n      swap1\n      pop\n      jump\t// out\n        /* \"#utility.yul\":3231:3400   */\n    tag_175:\n        /* \"#utility.yul\":3315:3326   */\n      0x00\n        /* \"#utility.yul\":3349:3355   */\n      dup3\n        /* \"#utility.yul\":3344:3347   */\n      dup3\n        /* \"#utility.yul\":3337:3356   */\n      mstore\n        /* \"#utility.yul\":3389:3393   */\n      0x20\n        /* \"#utility.yul\":3384:3387   */\n      dup3\n        /* \"#utility.yul\":3380:3394   */\n      add\n        /* \"#utility.yul\":3365:3394   */\n      swap1\n      pop\n        /* \"#utility.yul\":3231:3400   */\n      swap3\n      swap2\n      pop\n      pop\n      jump\t// out\n        /* \"#utility.yul\":3406:3545   */\n    tag_176:\n        /* \"#utility.yul\":3495:3501   */\n      dup3\n        /* \"#utility.yul\":3490:3493   */\n      dup2\n        /* \"#utility.yul\":3485:3488   */\n      dup4\n        /* \"#utility.yul\":3479:3502   */\n      mcopy\n        /* \"#utility.yul\":3536:3537   */\n      0x00\n        /* \"#utility.yul\":3527:3533   */\n      dup4\n        /* \"#utility.yul\":3522:3525   */\n      dup4\n        /* \"#utility.yul\":3518:3534   */\n      add\n        /* \"#utility.yul\":3511:3538   */\n      mstore\n        /* \"#utility.yul\":3406:3545   */\n      pop\n      pop\n      pop\n      jump\t// out\n        /* \"#utility.yul\":3551:3653   */\n    tag_177:\n        /* \"#utility.yul\":3592:3598   */\n      0x00\n        /* \"#utility.yul\":3643:3645   */\n      0x1f\n        /* \"#utility.yul\":3639:3646   */\n      not\n        /* \"#utility.yul\":3634:3636   */\n      0x1f\n        /* \"#utility.yul\":3627:3632   */\n      dup4\n        /* \"#utility.yul\":3623:3637   */\n      add\n        /* \"#utility.yul\":3619:3647   */\n      and\n        /* \"#utility.yul\":3609:3647   */\n      swap1\n      pop\n        /* \"#utility.yul\":3551:3653   */\n      swap2\n      swap1\n      pop\n      jump\t// out\n        /* \"#utility.yul\":3659:4036   */\n    tag_178:\n        /* \"#utility.yul\":3747:3750   */\n      0x00\n        /* \"#utility.yul\":3775:3814   */\n      tag_263\n        /* \"#utility.yul\":3808:3813   */\n      dup3\n        /* \"#utility.yul\":3775:3814   */\n      tag_174\n      jump\t// in\n    tag_263:\n        /* \"#utility.yul\":3830:3901   */\n      tag_264\n        /* \"#utility.yul\":3894:3900   */\n      dup2\n        /* \"#utility.yul\":3889:3892   */\n      dup6\n        /* \"#utility.yul\":3830:3901   */\n      tag_175\n      jump\t// in\n    tag_264:\n        /* \"#utility.yul\":3823:3901   */\n      swap4\n      pop\n        /* \"#utility.yul\":3910:3975   */\n      tag_265\n        /* \"#utility.yul\":3968:3974   */\n      dup2\n        /* \"#utility.yul\":3963:3966   */\n      dup6\n        /* \"#utility.yul\":3956:3960   */\n      0x20\n        /* \"#utility.yul\":3949:3954   */\n      dup7\n        /* \"#utility.yul\":3945:3961   */\n      add\n        /* \"#utility.yul\":3910:3975   */\n      tag_176\n      jump\t// in\n    tag_265:\n        /* \"#utility.yul\":4000:4029   */\n      tag_266\n        /* \"#utility.yul\":4022:4028   */\n      dup2\n        /* \"#utility.yul\":4000:4029   */\n      tag_177\n      jump\t// in\n    tag_266:\n        /* \"#utility.yul\":3995:3998   */\n      dup5\n        /* \"#utility.yul\":3991:4030   */\n      add\n        /* \"#utility.yul\":3984:4030   */\n      swap2\n      pop\n        /* \"#utility.yul\":3751:4036   */\n      pop\n        /* \"#utility.yul\":3659:4036   */\n      swap3\n      swap2\n      pop\n      pop\n      jump\t// out\n        /* \"#utility.yul\":4042:4876   */\n    tag_37:\n        /* \"#utility.yul\":4281:4285   */\n      0x00\n        /* \"#utility.yul\":4319:4322   */\n      0xa0\n        /* \"#utility.yul\":4308:4317   */\n      dup3\n        /* \"#utility.yul\":4304:4323   */\n      add\n        /* \"#utility.yul\":4296:4323   */\n      swap1\n      pop\n        /* \"#utility.yul\":4369:4378   */\n      dup2\n        /* \"#utility.yul\":4363:4367   */\n      dup2\n        /* \"#utility.yul\":4359:4379   */\n      sub\n        /* \"#utility.yul\":4355:4356   */\n      0x00\n        /* \"#utility.yul\":4344:4353   */\n      dup4\n        /* \"#utility.yul\":4340:4357   */\n      add\n        /* \"#utility.yul\":4333:4380   */\n      mstore\n        /* \"#utility.yul\":4397:4475   */\n      tag_268\n        /* \"#utility.yul\":4470:4474   */\n      dup2\n        /* \"#utility.yul\":4461:4467   */\n      dup9\n        /* \"#utility.yul\":4397:4475   */\n      tag_178\n      jump\t// in\n    tag_268:\n        /* \"#utility.yul\":4389:4475   */\n      swap1\n      pop\n        /* \"#utility.yul\":4522:4531   */\n      dup2\n        /* \"#utility.yul\":4516:4520   */\n      dup2\n        /* \"#utility.yul\":4512:4532   */\n      sub\n        /* \"#utility.yul\":4507:4509   */\n      0x20\n        /* \"#utility.yul\":4496:4505   */\n      dup4\n        /* \"#utility.yul\":4492:4510   */\n      add\n        /* \"#utility.yul\":4485:4533   */\n      mstore\n        /* \"#utility.yul\":4550:4628   */\n      tag_269\n        /* \"#utility.yul\":4623:4627   */\n      dup2\n        /* \"#utility.yul\":4614:4620   */\n      dup8\n        /* \"#utility.yul\":4550:4628   */\n      tag_178\n      jump\t// in\n    tag_269:\n        /* \"#utility.yul\":4542:4628   */\n      swap1\n      pop\n        /* \"#utility.yul\":4638:4710   */\n      tag_270\n        /* \"#utility.yul\":4706:4708   */\n      0x40\n        /* \"#utility.yul\":4695:4704   */\n      dup4\n        /* \"#utility.yul\":4691:4709   */\n      add\n        /* \"#utility.yul\":4682:4688   */\n      dup7\n        /* \"#utility.yul\":4638:4710   */\n      tag_167\n      jump\t// in\n    tag_270:\n        /* \"#utility.yul\":4720:4792   */\n      tag_271\n        /* \"#utility.yul\":4788:4790   */\n      0x60\n        /* \"#utility.yul\":4777:4786   */\n      dup4\n        /* \"#utility.yul\":4773:4791   */\n      add\n        /* \"#utility.yul\":4764:4770   */\n      dup6\n        /* \"#utility.yul\":4720:4792   */\n      tag_167\n      jump\t// in\n    tag_271:\n        /* \"#utility.yul\":4802:4869   */\n      tag_272\n        /* \"#utility.yul\":4864:4867   */\n      0x80\n        /* \"#utility.yul\":4853:4862   */\n      dup4\n        /* \"#utility.yul\":4849:4868   */\n      add\n        /* \"#utility.yul\":4840:4846   */\n      dup5\n        /* \"#utility.yul\":4802:4869   */\n      tag_173\n      jump\t// in\n    tag_272:\n        /* \"#utility.yul\":4042:4876   */\n      swap7\n      swap6\n      pop\n      pop\n      pop\n      pop\n      pop\n      pop\n      jump\t// out\n        /* \"#utility.yul\":4882:5000   */\n    tag_179:\n        /* \"#utility.yul\":4969:4993   */\n      tag_274\n        /* \"#utility.yul\":4987:4992   */\n      dup2\n        /* \"#utility.yul\":4969:4993   */\n      tag_169\n      jump\t// in\n    tag_274:\n        /* \"#utility.yul\":4964:4967   */\n      dup3\n        /* \"#utility.yul\":4957:4994   */\n      mstore\n        /* \"#utility.yul\":4882:5000   */\n      pop\n      pop\n      jump\t// out\n        /* \"#utility.yul\":5006:5228   */\n    tag_51:\n        /* \"#utility.yul\":5099:5103   */\n      0x00\n        /* \"#utility.yul\":5137:5139   */\n      0x20\n        /* \"#utility.yul\":5126:5135   */\n      dup3\n        /* \"#utility.yul\":5122:5140   */\n      add\n        /* \"#utility.yul\":5114:5140   */\n      swap1\n      pop\n        /* \"#utility.yul\":5150:5221   */\n      tag_276\n        /* \"#utility.yul\":5218:5219   */\n      0x00\n        /* \"#utility.yul\":5207:5216   */\n      dup4\n        /* \"#utility.yul\":5203:5220   */\n      add\n        /* \"#utility.yul\":5194:5200   */\n      dup5\n        /* \"#utility.yul\":5150:5221   */\n      tag_179\n      jump\t// in\n    tag_276:\n        /* \"#utility.yul\":5006:5228   */\n      swap3\n      swap2\n      pop\n      pop\n      jump\t// out\n        /* \"#utility.yul\":5234:5351   */\n    tag_180:\n        /* \"#utility.yul\":5343:5344   */\n      0x00\n        /* \"#utility.yul\":5340:5341   */\n      dup1\n        /* \"#utility.yul\":5333:5345   */\n      revert\n        /* \"#utility.yul\":5357:5474   */\n    tag_181:\n        /* \"#utility.yul\":5466:5467   */\n      0x00\n        /* \"#utility.yul\":5463:5464   */\n      dup1\n        /* \"#utility.yul\":5456:5468   */\n      revert\n        /* \"#utility.yul\":5480:5660   */\n    tag_182:\n        /* \"#utility.yul\":5528:5605   */\n      0x4e487b7100000000000000000000000000000000000000000000000000000000\n        /* \"#utility.yul\":5525:5526   */\n      0x00\n        /* \"#utility.yul\":5518:5606   */\n      mstore\n        /* \"#utility.yul\":5625:5629   */\n      0x41\n        /* \"#utility.yul\":5622:5623   */\n      0x04\n        /* \"#utility.yul\":5615:5630   */\n      mstore\n        /* \"#utility.yul\":5649:5653   */\n      0x24\n        /* \"#utility.yul\":5646:5647   */\n      0x00\n        /* \"#utility.yul\":5639:5654   */\n      revert\n        /* \"#utility.yul\":5666:5947   */\n    tag_183:\n        /* \"#utility.yul\":5749:5776   */\n      tag_281\n        /* \"#utility.yul\":5771:5775   */\n      dup3\n        /* \"#utility.yul\":5749:5776   */\n      tag_177\n      jump\t// in\n    tag_281:\n        /* \"#utility.yul\":5741:5747   */\n      dup2\n        /* \"#utility.yul\":5737:5777   */\n      add\n        /* \"#utility.yul\":5879:5885   */\n      dup2\n        /* \"#utility.yul\":5867:5877   */\n      dup2\n        /* \"#utility.yul\":5864:5886   */\n      lt\n        /* \"#utility.yul\":5843:5861   */\n      0xffffffffffffffff\n        /* \"#utility.yul\":5831:5841   */\n      dup3\n        /* \"#utility.yul\":5828:5862   */\n      gt\n        /* \"#utility.yul\":5825:5887   */\n      or\n        /* \"#utility.yul\":5822:5910   */\n      iszero\n      tag_282\n      jumpi\n        /* \"#utility.yul\":5890:5908   */\n      tag_283\n      tag_182\n      jump\t// in\n    tag_283:\n        /* \"#utility.yul\":5822:5910   */\n    tag_282:\n        /* \"#utility.yul\":5930:5940   */\n      dup1\n        /* \"#utility.yul\":5926:5928   */\n      0x40\n        /* \"#utility.yul\":5919:5941   */\n      mstore\n        /* \"#utility.yul\":5709:5947   */\n      pop\n        /* \"#utility.yul\":5666:5947   */\n      pop\n      pop\n      jump\t// out\n        /* \"#utility.yul\":5953:6082   */\n    tag_184:\n        /* \"#utility.yul\":5987:5993   */\n      0x00\n        /* \"#utility.yul\":6014:6034   */\n      tag_285\n      tag_161\n      jump\t// in\n    tag_285:\n        /* \"#utility.yul\":6004:6034   */\n      swap1\n      pop\n        /* \"#utility.yul\":6043:6076   */\n      tag_286\n        /* \"#utility.yul\":6071:6075   */\n      dup3\n        /* \"#utility.yul\":6063:6069   */\n      dup3\n        /* \"#utility.yul\":6043:6076   */\n      tag_183\n      jump\t// in\n    tag_286:\n        /* \"#utility.yul\":5953:6082   */\n      swap2\n      swap1\n      pop\n      jump\t// out\n        /* \"#utility.yul\":6088:6396   */\n    tag_185:\n        /* \"#utility.yul\":6150:6154   */\n      0x00\n        /* \"#utility.yul\":6240:6258   */\n      0xffffffffffffffff\n        /* \"#utility.yul\":6232:6238   */\n      dup3\n        /* \"#utility.yul\":6229:6259   */\n      gt\n        /* \"#utility.yul\":6226:6282   */\n      iszero\n      tag_288\n      jumpi\n        /* \"#utility.yul\":6262:6280   */\n      tag_289\n      tag_182\n      jump\t// in\n    tag_289:\n        /* \"#utility.yul\":6226:6282   */\n    tag_288:\n        /* \"#utility.yul\":6300:6329   */\n      tag_290\n        /* \"#utility.yul\":6322:6328   */\n      dup3\n        /* \"#utility.yul\":6300:6329   */\n      tag_177\n      jump\t// in\n    tag_290:\n        /* \"#utility.yul\":6292:6329   */\n      swap1\n      pop\n        /* \"#utility.yul\":6384:6388   */\n      0x20\n        /* \"#utility.yul\":6378:6382   */\n      dup2\n        /* \"#utility.yul\":6374:6389   */\n      add\n        /* \"#utility.yul\":6366:6389   */\n      swap1\n      pop\n        /* \"#utility.yul\":6088:6396   */\n      swap2\n      swap1\n      pop\n      jump\t// out\n        /* \"#utility.yul\":6402:6550   */\n    tag_186:\n        /* \"#utility.yul\":6500:6506   */\n      dup3\n        /* \"#utility.yul\":6495:6498   */\n      dup2\n        /* \"#utility.yul\":6490:6493   */\n      dup4\n        /* \"#utility.yul\":6477:6507   */\n      calldatacopy\n        /* \"#utility.yul\":6541:6542   */\n      0x00\n        /* \"#utility.yul\":6532:6538   */\n      dup4\n        /* \"#utility.yul\":6527:6530   */\n      dup4\n        /* \"#utility.yul\":6523:6539   */\n      add\n        /* \"#utility.yul\":6516:6543   */\n      mstore\n        /* \"#utility.yul\":6402:6550   */\n      pop\n      pop\n      pop\n      jump\t// out\n        /* \"#utility.yul\":6556:6981   */\n    tag_187:\n        /* \"#utility.yul\":6634:6639   */\n      0x00\n        /* \"#utility.yul\":6659:6725   */\n      tag_293\n        /* \"#utility.yul\":6675:6724   */\n      tag_294\n        /* \"#utility.yul\":6717:6723   */\n      dup5\n        /* \"#utility.yul\":6675:6724   */\n      tag_185\n      jump\t// in\n    tag_294:\n        /* \"#utility.yul\":6659:6725   */\n      tag_184\n      jump\t// in\n    tag_293:\n        /* \"#utility.yul\":6650:6725   */\n      swap1\n      pop\n        /* \"#utility.yul\":6748:6754   */\n      dup3\n        /* \"#utility.yul\":6741:6746   */\n      dup2\n        /* \"#utility.yul\":6734:6755   */\n      mstore\n        /* \"#utility.yul\":6786:6790   */\n      0x20\n        /* \"#utility.yul\":6779:6784   */\n      dup2\n        /* \"#utility.yul\":6775:6791   */\n      add\n        /* \"#utility.yul\":6824:6827   */\n      dup5\n        /* \"#utility.yul\":6815:6821   */\n      dup5\n        /* \"#utility.yul\":6810:6813   */\n      dup5\n        /* \"#utility.yul\":6806:6822   */\n      add\n        /* \"#utility.yul\":6803:6828   */\n      gt\n        /* \"#utility.yul\":6800:6912   */\n      iszero\n      tag_295\n      jumpi\n        /* \"#utility.yul\":6831:6910   */\n      tag_296\n      tag_181\n      jump\t// in\n    tag_296:\n        /* \"#utility.yul\":6800:6912   */\n    tag_295:\n        /* \"#utility.yul\":6921:6975   */\n      tag_297\n        /* \"#utility.yul\":6968:6974   */\n      dup5\n        /* \"#utility.yul\":6963:6966   */\n      dup3\n        /* \"#utility.yul\":6958:6961   */\n      dup6\n        /* \"#utility.yul\":6921:6975   */\n      tag_186\n      jump\t// in\n    tag_297:\n        /* \"#utility.yul\":6640:6981   */\n      pop\n        /* \"#utility.yul\":6556:6981   */\n      swap4\n      swap3\n      pop\n      pop\n      pop\n      jump\t// out\n        /* \"#utility.yul\":7001:7341   */\n    tag_188:\n        /* \"#utility.yul\":7057:7062   */\n      0x00\n        /* \"#utility.yul\":7106:7109   */\n      dup3\n        /* \"#utility.yul\":7099:7103   */\n      0x1f\n        /* \"#utility.yul\":7091:7097   */\n      dup4\n        /* \"#utility.yul\":7087:7104   */\n      add\n        /* \"#utility.yul\":7083:7110   */\n      slt\n        /* \"#utility.yul\":7073:7195   */\n      tag_299\n      jumpi\n        /* \"#utility.yul\":7114:7193   */\n      tag_300\n      tag_180\n      jump\t// in\n    tag_300:\n        /* \"#utility.yul\":7073:7195   */\n    tag_299:\n        /* \"#utility.yul\":7231:7237   */\n      dup2\n        /* \"#utility.yul\":7218:7238   */\n      calldataload\n        /* \"#utility.yul\":7256:7335   */\n      tag_301\n        /* \"#utility.yul\":7331:7334   */\n      dup5\n        /* \"#utility.yul\":7323:7329   */\n      dup3\n        /* \"#utility.yul\":7316:7320   */\n      0x20\n        /* \"#utility.yul\":7308:7314   */\n      dup7\n        /* \"#utility.yul\":7304:7321   */\n      add\n        /* \"#utility.yul\":7256:7335   */\n      tag_187\n      jump\t// in\n    tag_301:\n        /* \"#utility.yul\":7247:7335   */\n      swap2\n      pop\n        /* \"#utility.yul\":7063:7341   */\n      pop\n        /* \"#utility.yul\":7001:7341   */\n      swap3\n      swap2\n      pop\n      pop\n      jump\t// out\n        /* \"#utility.yul\":7347:8618   */\n    tag_67:\n        /* \"#utility.yul\":7462:7468   */\n      0x00\n        /* \"#utility.yul\":7470:7476   */\n      dup1\n        /* \"#utility.yul\":7478:7484   */\n      0x00\n        /* \"#utility.yul\":7486:7492   */\n      dup1\n        /* \"#utility.yul\":7494:7500   */\n      0x00\n        /* \"#utility.yul\":7543:7546   */\n      0xa0\n        /* \"#utility.yul\":7531:7540   */\n      dup7\n        /* \"#utility.yul\":7522:7529   */\n      dup9\n        /* \"#utility.yul\":7518:7541   */\n      sub\n        /* \"#utility.yul\":7514:7547   */\n      slt\n        /* \"#utility.yul\":7511:7631   */\n      iszero\n      tag_303\n      jumpi\n        /* \"#utility.yul\":7550:7629   */\n      tag_304\n      tag_162\n      jump\t// in\n    tag_304:\n        /* \"#utility.yul\":7511:7631   */\n    tag_303:\n        /* \"#utility.yul\":7670:7671   */\n      0x00\n        /* \"#utility.yul\":7695:7748   */\n      tag_305\n        /* \"#utility.yul\":7740:7747   */\n      dup9\n        /* \"#utility.yul\":7731:7737   */\n      dup3\n        /* \"#utility.yul\":7720:7729   */\n      dup10\n        /* \"#utility.yul\":7716:7738   */\n      add\n        /* \"#utility.yul\":7695:7748   */\n      tag_166\n      jump\t// in\n    tag_305:\n        /* \"#utility.yul\":7685:7748   */\n      swap6\n      pop\n        /* \"#utility.yul\":7641:7758   */\n      pop\n        /* \"#utility.yul\":7825:7827   */\n      0x20\n        /* \"#utility.yul\":7814:7823   */\n      dup7\n        /* \"#utility.yul\":7810:7828   */\n      add\n        /* \"#utility.yul\":7797:7829   */\n      calldataload\n        /* \"#utility.yul\":7856:7874   */\n      0xffffffffffffffff\n        /* \"#utility.yul\":7848:7854   */\n      dup2\n        /* \"#utility.yul\":7845:7875   */\n      gt\n        /* \"#utility.yul\":7842:7959   */\n      iszero\n      tag_306\n      jumpi\n        /* \"#utility.yul\":7878:7957   */\n      tag_307\n      tag_163\n      jump\t// in\n    tag_307:\n        /* \"#utility.yul\":7842:7959   */\n    tag_306:\n        /* \"#utility.yul\":7983:8046   */\n      tag_308\n        /* \"#utility.yul\":8038:8045   */\n      dup9\n        /* \"#utility.yul\":8029:8035   */\n      dup3\n        /* \"#utility.yul\":8018:8027   */\n      dup10\n        /* \"#utility.yul\":8014:8036   */\n      add\n        /* \"#utility.yul\":7983:8046   */\n      tag_188\n      jump\t// in\n    tag_308:\n        /* \"#utility.yul\":7973:8046   */\n      swap5\n      pop\n        /* \"#utility.yul\":7768:8056   */\n      pop\n        /* \"#utility.yul\":8123:8125   */\n      0x40\n        /* \"#utility.yul\":8112:8121   */\n      dup7\n        /* \"#utility.yul\":8108:8126   */\n      add\n        /* \"#utility.yul\":8095:8127   */\n      calldataload\n        /* \"#utility.yul\":8154:8172   */\n      0xffffffffffffffff\n        /* \"#utility.yul\":8146:8152   */\n      dup2\n        /* \"#utility.yul\":8143:8173   */\n      gt\n        /* \"#utility.yul\":8140:8257   */\n      iszero\n      tag_309\n      jumpi\n        /* \"#utility.yul\":8176:8255   */\n      tag_310\n      tag_163\n      jump\t// in\n    tag_310:\n        /* \"#utility.yul\":8140:8257   */\n    tag_309:\n        /* \"#utility.yul\":8281:8344   */\n      tag_311\n        /* \"#utility.yul\":8336:8343   */\n      dup9\n        /* \"#utility.yul\":8327:8333   */\n      dup3\n        /* \"#utility.yul\":8316:8325   */\n      dup10\n        /* \"#utility.yul\":8312:8334   */\n      add\n        /* \"#utility.yul\":8281:8344   */\n      tag_188\n      jump\t// in\n    tag_311:\n        /* \"#utility.yul\":8271:8344   */\n      swap4\n      pop\n        /* \"#utility.yul\":8066:8354   */\n      pop\n        /* \"#utility.yul\":8393:8395   */\n      0x60\n        /* \"#utility.yul\":8419:8472   */\n      tag_312\n        /* \"#utility.yul\":8464:8471   */\n      dup9\n        /* \"#utility.yul\":8455:8461   */\n      dup3\n        /* \"#utility.yul\":8444:8453   */\n      dup10\n        /* \"#utility.yul\":8440:8462   */\n      add\n        /* \"#utility.yul\":8419:8472   */\n      tag_166\n      jump\t// in\n    tag_312:\n        /* \"#utility.yul\":8409:8472   */\n      swap3\n      pop\n        /* \"#utility.yul\":8364:8482   */\n      pop\n        /* \"#utility.yul\":8521:8524   */\n      0x80\n        /* \"#utility.yul\":8548:8601   */\n      tag_313\n        /* \"#utility.yul\":8593:8600   */\n      dup9\n        /* \"#utility.yul\":8584:8590   */\n      dup3\n        /* \"#utility.yul\":8573:8582   */\n      dup10\n        /* \"#utility.yul\":8569:8591   */\n      add\n        /* \"#utility.yul\":8548:8601   */\n      tag_166\n      jump\t// in\n    tag_313:\n        /* \"#utility.yul\":8538:8601   */\n      swap2\n      pop\n        /* \"#utility.yul\":8492:8611   */\n      pop\n        /* \"#utility.yul\":7347:8618   */\n      swap3\n      swap6\n      pop\n      swap3\n      swap6\n      swap1\n      swap4\n      pop\n      jump\t// out\n        /* \"#utility.yul\":8624:8801   */\n    tag_189:\n        /* \"#utility.yul\":8764:8793   */\n      0x5468697320626f6f6b206973206e6f7420617661696c61626c652e0000000000\n        /* \"#utility.yul\":8760:8761   */\n      0x00\n        /* \"#utility.yul\":8752:8758   */\n      dup3\n        /* \"#utility.yul\":8748:8762   */\n      add\n        /* \"#utility.yul\":8741:8794   */\n      mstore\n        /* \"#utility.yul\":8624:8801   */\n      pop\n      jump\t// out\n        /* \"#utility.yul\":8807:9173   */\n    tag_190:\n        /* \"#utility.yul\":8949:8952   */\n      0x00\n        /* \"#utility.yul\":8970:9037   */\n      tag_316\n        /* \"#utility.yul\":9034:9036   */\n      0x1b\n        /* \"#utility.yul\":9029:9032   */\n      dup4\n        /* \"#utility.yul\":8970:9037   */\n      tag_175\n      jump\t// in\n    tag_316:\n        /* \"#utility.yul\":8963:9037   */\n      swap2\n      pop\n        /* \"#utility.yul\":9046:9139   */\n      tag_317\n        /* \"#utility.yul\":9135:9138   */\n      dup3\n        /* \"#utility.yul\":9046:9139   */\n      tag_189\n      jump\t// in\n    tag_317:\n        /* \"#utility.yul\":9164:9166   */\n      0x20\n        /* \"#utility.yul\":9159:9162   */\n      dup3\n        /* \"#utility.yul\":9155:9167   */\n      add\n        /* \"#utility.yul\":9148:9167   */\n      swap1\n      pop\n        /* \"#utility.yul\":8807:9173   */\n      swap2\n      swap1\n      pop\n      jump\t// out\n        /* \"#utility.yul\":9179:9598   */\n    tag_72:\n        /* \"#utility.yul\":9345:9349   */\n      0x00\n        /* \"#utility.yul\":9383:9385   */\n      0x20\n        /* \"#utility.yul\":9372:9381   */\n      dup3\n        /* \"#utility.yul\":9368:9386   */\n      add\n        /* \"#utility.yul\":9360:9386   */\n      swap1\n      pop\n        /* \"#utility.yul\":9432:9441   */\n      dup2\n        /* \"#utility.yul\":9426:9430   */\n      dup2\n        /* \"#utility.yul\":9422:9442   */\n      sub\n        /* \"#utility.yul\":9418:9419   */\n      0x00\n        /* \"#utility.yul\":9407:9416   */\n      dup4\n        /* \"#utility.yul\":9403:9420   */\n      add\n        /* \"#utility.yul\":9396:9443   */\n      mstore\n        /* \"#utility.yul\":9460:9591   */\n      tag_319\n        /* \"#utility.yul\":9586:9590   */\n      dup2\n        /* \"#utility.yul\":9460:9591   */\n      tag_190\n      jump\t// in\n    tag_319:\n        /* \"#utility.yul\":9452:9591   */\n      swap1\n      pop\n        /* \"#utility.yul\":9179:9598   */\n      swap2\n      swap1\n      pop\n      jump\t// out\n        /* \"#utility.yul\":9604:9781   */\n    tag_191:\n        /* \"#utility.yul\":9744:9773   */\n      0x4e6f7420656e6f7567682073746f636b20617661696c61626c652e0000000000\n        /* \"#utility.yul\":9740:9741   */\n      0x00\n        /* \"#utility.yul\":9732:9738   */\n      dup3\n        /* \"#utility.yul\":9728:9742   */\n      add\n        /* \"#utility.yul\":9721:9774   */\n      mstore\n        /* \"#utility.yul\":9604:9781   */\n      pop\n      jump\t// out\n        /* \"#utility.yul\":9787:10153   */\n    tag_192:\n        /* \"#utility.yul\":9929:9932   */\n      0x00\n        /* \"#utility.yul\":9950:10017   */\n      tag_322\n        /* \"#utility.yul\":10014:10016   */\n      0x1b\n        /* \"#utility.yul\":10009:10012   */\n      dup4\n        /* \"#utility.yul\":9950:10017   */\n      tag_175\n      jump\t// in\n    tag_322:\n        /* \"#utility.yul\":9943:10017   */\n      swap2\n      pop\n        /* \"#utility.yul\":10026:10119   */\n      tag_323\n        /* \"#utility.yul\":10115:10118   */\n      dup3\n        /* \"#utility.yul\":10026:10119   */\n      tag_191\n      jump\t// in\n    tag_323:\n        /* \"#utility.yul\":10144:10146   */\n      0x20\n        /* \"#utility.yul\":10139:10142   */\n      dup3\n        /* \"#utility.yul\":10135:10147   */\n      add\n        /* \"#utility.yul\":10128:10147   */\n      swap1\n      pop\n        /* \"#utility.yul\":9787:10153   */\n      swap2\n      swap1\n      pop\n      jump\t// out\n        /* \"#utility.yul\":10159:10578   */\n    tag_75:\n        /* \"#utility.yul\":10325:10329   */\n      0x00\n        /* \"#utility.yul\":10363:10365   */\n      0x20\n        /* \"#utility.yul\":10352:10361   */\n      dup3\n        /* \"#utility.yul\":10348:10366   */\n      add\n        /* \"#utility.yul\":10340:10366   */\n      swap1\n      pop\n        /* \"#utility.yul\":10412:10421   */\n      dup2\n        /* \"#utility.yul\":10406:10410   */\n      dup2\n        /* \"#utility.yul\":10402:10422   */\n      sub\n        /* \"#utility.yul\":10398:10399   */\n      0x00\n        /* \"#utility.yul\":10387:10396   */\n      dup4\n        /* \"#utility.yul\":10383:10400   */\n      add\n        /* \"#utility.yul\":10376:10423   */\n      mstore\n        /* \"#utility.yul\":10440:10571   */\n      tag_325\n        /* \"#utility.yul\":10566:10570   */\n      dup2\n        /* \"#utility.yul\":10440:10571   */\n      tag_192\n      jump\t// in\n    tag_325:\n        /* \"#utility.yul\":10432:10571   */\n      swap1\n      pop\n        /* \"#utility.yul\":10159:10578   */\n      swap2\n      swap1\n      pop\n      jump\t// out\n        /* \"#utility.yul\":10584:10764   */\n    tag_193:\n        /* \"#utility.yul\":10632:10709   */\n      0x4e487b7100000000000000000000000000000000000000000000000000000000\n        /* \"#utility.yul\":10629:10630   */\n      0x00\n        /* \"#utility.yul\":10622:10710   */\n      mstore\n        /* \"#utility.yul\":10729:10733   */\n      0x11\n        /* \"#utility.yul\":10726:10727   */\n      0x04\n        /* \"#utility.yul\":10719:10734   */\n      mstore\n        /* \"#utility.yul\":10753:10757   */\n      0x24\n        /* \"#utility.yul\":10750:10751   */\n      0x00\n        /* \"#utility.yul\":10743:10758   */\n      revert\n        /* \"#utility.yul\":10770:11180   */\n    tag_77:\n        /* \"#utility.yul\":10810:10817   */\n      0x00\n        /* \"#utility.yul\":10833:10853   */\n      tag_328\n        /* \"#utility.yul\":10851:10852   */\n      dup3\n        /* \"#utility.yul\":10833:10853   */\n      tag_164\n      jump\t// in\n    tag_328:\n        /* \"#utility.yul\":10828:10853   */\n      swap2\n      pop\n        /* \"#utility.yul\":10867:10887   */\n      tag_329\n        /* \"#utility.yul\":10885:10886   */\n      dup4\n        /* \"#utility.yul\":10867:10887   */\n      tag_164\n      jump\t// in\n    tag_329:\n        /* \"#utility.yul\":10862:10887   */\n      swap3\n      pop\n        /* \"#utility.yul\":10922:10923   */\n      dup3\n        /* \"#utility.yul\":10919:10920   */\n      dup3\n        /* \"#utility.yul\":10915:10924   */\n      mul\n        /* \"#utility.yul\":10944:10974   */\n      tag_330\n        /* \"#utility.yul\":10962:10973   */\n      dup2\n        /* \"#utility.yul\":10944:10974   */\n      tag_164\n      jump\t// in\n    tag_330:\n        /* \"#utility.yul\":10933:10974   */\n      swap2\n      pop\n        /* \"#utility.yul\":11123:11124   */\n      dup3\n        /* \"#utility.yul\":11114:11121   */\n      dup3\n        /* \"#utility.yul\":11110:11125   */\n      div\n        /* \"#utility.yul\":11107:11108   */\n      dup5\n        /* \"#utility.yul\":11104:11126   */\n      eq\n        /* \"#utility.yul\":11084:11085   */\n      dup4\n        /* \"#utility.yul\":11077:11086   */\n      iszero\n        /* \"#utility.yul\":11057:11140   */\n      or\n        /* \"#utility.yul\":11034:11173   */\n      tag_331\n      jumpi\n        /* \"#utility.yul\":11153:11171   */\n      tag_332\n      tag_193\n      jump\t// in\n    tag_332:\n        /* \"#utility.yul\":11034:11173   */\n    tag_331:\n        /* \"#utility.yul\":10818:11180   */\n      pop\n        /* \"#utility.yul\":10770:11180   */\n      swap3\n      swap2\n      pop\n      pop\n      jump\t// out\n        /* \"#utility.yul\":11186:11361   */\n    tag_194:\n        /* \"#utility.yul\":11326:11353   */\n      0x496e636f7272656374207061796d656e7420616d6f756e742e00000000000000\n        /* \"#utility.yul\":11322:11323   */\n      0x00\n        /* \"#utility.yul\":11314:11320   */\n      dup3\n        /* \"#utility.yul\":11310:11324   */\n      add\n        /* \"#utility.yul\":11303:11354   */\n      mstore\n        /* \"#utility.yul\":11186:11361   */\n      pop\n      jump\t// out\n        /* \"#utility.yul\":11367:11733   */\n    tag_195:\n        /* \"#utility.yul\":11509:11512   */\n      0x00\n        /* \"#utility.yul\":11530:11597   */\n      tag_335\n        /* \"#utility.yul\":11594:11596   */\n      0x19\n        /* \"#utility.yul\":11589:11592   */\n      dup4\n        /* \"#utility.yul\":11530:11597   */\n      tag_175\n      jump\t// in\n    tag_335:\n        /* \"#utility.yul\":11523:11597   */\n      swap2\n      pop\n        /* \"#utility.yul\":11606:11699   */\n      tag_336\n        /* \"#utility.yul\":11695:11698   */\n      dup3\n        /* \"#utility.yul\":11606:11699   */\n      tag_194\n      jump\t// in\n    tag_336:\n        /* \"#utility.yul\":11724:11726   */\n      0x20\n        /* \"#utility.yul\":11719:11722   */\n      dup3\n        /* \"#utility.yul\":11715:11727   */\n      add\n        /* \"#utility.yul\":11708:11727   */\n      swap1\n      pop\n        /* \"#utility.yul\":11367:11733   */\n      swap2\n      swap1\n      pop\n      jump\t// out\n        /* \"#utility.yul\":11739:12158   */\n    tag_80:\n        /* \"#utility.yul\":11905:11909   */\n      0x00\n        /* \"#utility.yul\":11943:11945   */\n      0x20\n        /* \"#utility.yul\":11932:11941   */\n      dup3\n        /* \"#utility.yul\":11928:11946   */\n      add\n        /* \"#utility.yul\":11920:11946   */\n      swap1\n      pop\n        /* \"#utility.yul\":11992:12001   */\n      dup2\n        /* \"#utility.yul\":11986:11990   */\n      dup2\n        /* \"#utility.yul\":11982:12002   */\n      sub\n        /* \"#utility.yul\":11978:11979   */\n      0x00\n        /* \"#utility.yul\":11967:11976   */\n      dup4\n        /* \"#utility.yul\":11963:11980   */\n      add\n        /* \"#utility.yul\":11956:12003   */\n      mstore\n        /* \"#utility.yul\":12020:12151   */\n      tag_338\n        /* \"#utility.yul\":12146:12150   */\n      dup2\n        /* \"#utility.yul\":12020:12151   */\n      tag_195\n      jump\t// in\n    tag_338:\n        /* \"#utility.yul\":12012:12151   */\n      swap1\n      pop\n        /* \"#utility.yul\":11739:12158   */\n      swap2\n      swap1\n      pop\n      jump\t// out\n        /* \"#utility.yul\":12164:12341   */\n    tag_196:\n        /* \"#utility.yul\":12304:12333   */\n      0x4f7665727061696420666f7220626f6f6b2070757263686173652e0000000000\n        /* \"#utility.yul\":12300:12301   */\n      0x00\n        /* \"#utility.yul\":12292:12298   */\n      dup3\n        /* \"#utility.yul\":12288:12302   */\n      add\n        /* \"#utility.yul\":12281:12334   */\n      mstore\n        /* \"#utility.yul\":12164:12341   */\n      pop\n      jump\t// out\n        /* \"#utility.yul\":12347:12713   */\n    tag_197:\n        /* \"#utility.yul\":12489:12492   */\n      0x00\n        /* \"#utility.yul\":12510:12577   */\n      tag_341\n        /* \"#utility.yul\":12574:12576   */\n      0x1b\n        /* \"#utility.yul\":12569:12572   */\n      dup4\n        /* \"#utility.yul\":12510:12577   */\n      tag_175\n      jump\t// in\n    tag_341:\n        /* \"#utility.yul\":12503:12577   */\n      swap2\n      pop\n        /* \"#utility.yul\":12586:12679   */\n      tag_342\n        /* \"#utility.yul\":12675:12678   */\n      dup3\n        /* \"#utility.yul\":12586:12679   */\n      tag_196\n      jump\t// in\n    tag_342:\n        /* \"#utility.yul\":12704:12706   */\n      0x20\n        /* \"#utility.yul\":12699:12702   */\n      dup3\n        /* \"#utility.yul\":12695:12707   */\n      add\n        /* \"#utility.yul\":12688:12707   */\n      swap1\n      pop\n        /* \"#utility.yul\":12347:12713   */\n      swap2\n      swap1\n      pop\n      jump\t// out\n        /* \"#utility.yul\":12719:13138   */\n    tag_83:\n        /* \"#utility.yul\":12885:12889   */\n      0x00\n        /* \"#utility.yul\":12923:12925   */\n      0x20\n        /* \"#utility.yul\":12912:12921   */\n      dup3\n        /* \"#utility.yul\":12908:12926   */\n      add\n        /* \"#utility.yul\":12900:12926   */\n      swap1\n      pop\n        /* \"#utility.yul\":12972:12981   */\n      dup2\n        /* \"#utility.yul\":12966:12970   */\n      dup2\n        /* \"#utility.yul\":12962:12982   */\n      sub\n        /* \"#utility.yul\":12958:12959   */\n      0x00\n        /* \"#utility.yul\":12947:12956   */\n      dup4\n        /* \"#utility.yul\":12943:12960   */\n      add\n        /* \"#utility.yul\":12936:12983   */\n      mstore\n        /* \"#utility.yul\":13000:13131   */\n      tag_344\n        /* \"#utility.yul\":13126:13130   */\n      dup2\n        /* \"#utility.yul\":13000:13131   */\n      tag_197\n      jump\t// in\n    tag_344:\n        /* \"#utility.yul\":12992:13131   */\n      swap1\n      pop\n        /* \"#utility.yul\":12719:13138   */\n      swap2\n      swap1\n      pop\n      jump\t// out\n        /* \"#utility.yul\":13144:13324   */\n    tag_198:\n        /* \"#utility.yul\":13192:13269   */\n      0x4e487b7100000000000000000000000000000000000000000000000000000000\n        /* \"#utility.yul\":13189:13190   */\n      0x00\n        /* \"#utility.yul\":13182:13270   */\n      mstore\n        /* \"#utility.yul\":13289:13293   */\n      0x22\n        /* \"#utility.yul\":13286:13287   */\n      0x04\n        /* \"#utility.yul\":13279:13294   */\n      mstore\n        /* \"#utility.yul\":13313:13317   */\n      0x24\n        /* \"#utility.yul\":13310:13311   */\n      0x00\n        /* \"#utility.yul\":13303:13318   */\n      revert\n        /* \"#utility.yul\":13330:13650   */\n    tag_93:\n        /* \"#utility.yul\":13374:13380   */\n      0x00\n        /* \"#utility.yul\":13411:13412   */\n      0x02\n        /* \"#utility.yul\":13405:13409   */\n      dup3\n        /* \"#utility.yul\":13401:13413   */\n      div\n        /* \"#utility.yul\":13391:13413   */\n      swap1\n      pop\n        /* \"#utility.yul\":13458:13459   */\n      0x01\n        /* \"#utility.yul\":13452:13456   */\n      dup3\n        /* \"#utility.yul\":13448:13460   */\n      and\n        /* \"#utility.yul\":13479:13497   */\n      dup1\n        /* \"#utility.yul\":13469:13550   */\n      tag_347\n      jumpi\n        /* \"#utility.yul\":13535:13539   */\n      0x7f\n        /* \"#utility.yul\":13527:13533   */\n      dup3\n        /* \"#utility.yul\":13523:13540   */\n      and\n        /* \"#utility.yul\":13513:13540   */\n      swap2\n      pop\n        /* \"#utility.yul\":13469:13550   */\n    tag_347:\n        /* \"#utility.yul\":13597:13599   */\n      0x20\n        /* \"#utility.yul\":13589:13595   */\n      dup3\n        /* \"#utility.yul\":13586:13600   */\n      lt\n        /* \"#utility.yul\":13566:13584   */\n      dup2\n        /* \"#utility.yul\":13563:13601   */\n      sub\n        /* \"#utility.yul\":13560:13644   */\n      tag_348\n      jumpi\n        /* \"#utility.yul\":13616:13634   */\n      tag_349\n      tag_198\n      jump\t// in\n    tag_349:\n        /* \"#utility.yul\":13560:13644   */\n    tag_348:\n        /* \"#utility.yul\":13381:13650   */\n      pop\n        /* \"#utility.yul\":13330:13650   */\n      swap2\n      swap1\n      pop\n      jump\t// out\n        /* \"#utility.yul\":13656:13880   */\n    tag_199:\n        /* \"#utility.yul\":13796:13830   */\n      0x4e6f7420656e6f7567682073746f636b20746f20636f6e6669726d2070757263\n        /* \"#utility.yul\":13792:13793   */\n      0x00\n        /* \"#utility.yul\":13784:13790   */\n      dup3\n        /* \"#utility.yul\":13780:13794   */\n      add\n        /* \"#utility.yul\":13773:13831   */\n      mstore\n        /* \"#utility.yul\":13865:13872   */\n      0x686173652e000000000000000000000000000000000000000000000000000000\n        /* \"#utility.yul\":13860:13862   */\n      0x20\n        /* \"#utility.yul\":13852:13858   */\n      dup3\n        /* \"#utility.yul\":13848:13863   */\n      add\n        /* \"#utility.yul\":13841:13873   */\n      mstore\n        /* \"#utility.yul\":13656:13880   */\n      pop\n      jump\t// out\n        /* \"#utility.yul\":13886:14252   */\n    tag_200:\n        /* \"#utility.yul\":14028:14031   */\n      0x00\n        /* \"#utility.yul\":14049:14116   */\n      tag_352\n        /* \"#utility.yul\":14113:14115   */\n      0x25\n        /* \"#utility.yul\":14108:14111   */\n      dup4\n        /* \"#utility.yul\":14049:14116   */\n      tag_175\n      jump\t// in\n    tag_352:\n        /* \"#utility.yul\":14042:14116   */\n      swap2\n      pop\n        /* \"#utility.yul\":14125:14218   */\n      tag_353\n        /* \"#utility.yul\":14214:14217   */\n      dup3\n        /* \"#utility.yul\":14125:14218   */\n      tag_199\n      jump\t// in\n    tag_353:\n        /* \"#utility.yul\":14243:14245   */\n      0x40\n        /* \"#utility.yul\":14238:14241   */\n      dup3\n        /* \"#utility.yul\":14234:14246   */\n      add\n        /* \"#utility.yul\":14227:14246   */\n      swap1\n      pop\n        /* \"#utility.yul\":13886:14252   */\n      swap2\n      swap1\n      pop\n      jump\t// out\n        /* \"#utility.yul\":14258:14677   */\n    tag_126:\n        /* \"#utility.yul\":14424:14428   */\n      0x00\n        /* \"#utility.yul\":14462:14464   */\n      0x20\n        /* \"#utility.yul\":14451:14460   */\n      dup3\n        /* \"#utility.yul\":14447:14465   */\n      add\n        /* \"#utility.yul\":14439:14465   */\n      swap1\n      pop\n        /* \"#utility.yul\":14511:14520   */\n      dup2\n        /* \"#utility.yul\":14505:14509   */\n      dup2\n        /* \"#utility.yul\":14501:14521   */\n      sub\n        /* \"#utility.yul\":14497:14498   */\n      0x00\n        /* \"#utility.yul\":14486:14495   */\n      dup4\n        /* \"#utility.yul\":14482:14499   */\n      add\n        /* \"#utility.yul\":14475:14522   */\n      mstore\n        /* \"#utility.yul\":14539:14670   */\n      tag_355\n        /* \"#utility.yul\":14665:14669   */\n      dup2\n        /* \"#utility.yul\":14539:14670   */\n      tag_200\n      jump\t// in\n    tag_355:\n        /* \"#utility.yul\":14531:14670   */\n      swap1\n      pop\n        /* \"#utility.yul\":14258:14677   */\n      swap2\n      swap1\n      pop\n      jump\t// out\n        /* \"#utility.yul\":14683:14877   */\n    tag_128:\n        /* \"#utility.yul\":14723:14727   */\n      0x00\n        /* \"#utility.yul\":14743:14763   */\n      tag_357\n        /* \"#utility.yul\":14761:14762   */\n      dup3\n        /* \"#utility.yul\":14743:14763   */\n      tag_164\n      jump\t// in\n    tag_357:\n        /* \"#utility.yul\":14738:14763   */\n      swap2\n      pop\n        /* \"#utility.yul\":14777:14797   */\n      tag_358\n        /* \"#utility.yul\":14795:14796   */\n      dup4\n        /* \"#utility.yul\":14777:14797   */\n      tag_164\n      jump\t// in\n    tag_358:\n        /* \"#utility.yul\":14772:14797   */\n      swap3\n      pop\n        /* \"#utility.yul\":14821:14822   */\n      dup3\n        /* \"#utility.yul\":14818:14819   */\n      dup3\n        /* \"#utility.yul\":14814:14823   */\n      sub\n        /* \"#utility.yul\":14806:14823   */\n      swap1\n      pop\n        /* \"#utility.yul\":14845:14846   */\n      dup2\n        /* \"#utility.yul\":14839:14843   */\n      dup2\n        /* \"#utility.yul\":14836:14847   */\n      gt\n        /* \"#utility.yul\":14833:14870   */\n      iszero\n      tag_359\n      jumpi\n        /* \"#utility.yul\":14850:14868   */\n      tag_360\n      tag_193\n      jump\t// in\n    tag_360:\n        /* \"#utility.yul\":14833:14870   */\n    tag_359:\n        /* \"#utility.yul\":14683:14877   */\n      swap3\n      swap2\n      pop\n      pop\n      jump\t// out\n        /* \"#utility.yul\":14883:15103   */\n    tag_201:\n        /* \"#utility.yul\":15023:15057   */\n      0x426f6f6b20616c72656164792065786973747320776974682074686973204944\n        /* \"#utility.yul\":15019:15020   */\n      0x00\n        /* \"#utility.yul\":15011:15017   */\n      dup3\n        /* \"#utility.yul\":15007:15021   */\n      add\n        /* \"#utility.yul\":15000:15058   */\n      mstore\n        /* \"#utility.yul\":15092:15095   */\n      0x2e00000000000000000000000000000000000000000000000000000000000000\n        /* \"#utility.yul\":15087:15089   */\n      0x20\n        /* \"#utility.yul\":15079:15085   */\n      dup3\n        /* \"#utility.yul\":15075:15090   */\n      add\n        /* \"#utility.yul\":15068:15096   */\n      mstore\n        /* \"#utility.yul\":14883:15103   */\n      pop\n      jump\t// out\n        /* \"#utility.yul\":15109:15475   */\n    tag_202:\n        /* \"#utility.yul\":15251:15254   */\n      0x00\n        /* \"#utility.yul\":15272:15339   */\n      tag_363\n        /* \"#utility.yul\":15336:15338   */\n      0x21\n        /* \"#utility.yul\":15331:15334   */\n      dup4\n        /* \"#utility.yul\":15272:15339   */\n      tag_175\n      jump\t// in\n    tag_363:\n        /* \"#utility.yul\":15265:15339   */\n      swap2\n      pop\n        /* \"#utility.yul\":15348:15441   */\n      tag_364\n        /* \"#utility.yul\":15437:15440   */\n      dup3\n        /* \"#utility.yul\":15348:15441   */\n      tag_201\n      jump\t// in\n    tag_364:\n        /* \"#utility.yul\":15466:15468   */\n      0x40\n        /* \"#utility.yul\":15461:15464   */\n      dup3\n        /* \"#utility.yul\":15457:15469   */\n      add\n        /* \"#utility.yul\":15450:15469   */\n      swap1\n      pop\n        /* \"#utility.yul\":15109:15475   */\n      swap2\n      swap1\n      pop\n      jump\t// out\n        /* \"#utility.yul\":15481:15900   */\n    tag_144:\n        /* \"#utility.yul\":15647:15651   */\n      0x00\n        /* \"#utility.yul\":15685:15687   */\n      0x20\n        /* \"#utility.yul\":15674:15683   */\n      dup3\n        /* \"#utility.yul\":15670:15688   */\n      add\n        /* \"#utility.yul\":15662:15688   */\n      swap1\n      pop\n        /* \"#utility.yul\":15734:15743   */\n      dup2\n        /* \"#utility.yul\":15728:15732   */\n      dup2\n        /* \"#utility.yul\":15724:15744   */\n      sub\n        /* \"#utility.yul\":15720:15721   */\n      0x00\n        /* \"#utility.yul\":15709:15718   */\n      dup4\n        /* \"#utility.yul\":15705:15722   */\n      add\n        /* \"#utility.yul\":15698:15745   */\n      mstore\n        /* \"#utility.yul\":15762:15893   */\n      tag_366\n        /* \"#utility.yul\":15888:15892   */\n      dup2\n        /* \"#utility.yul\":15762:15893   */\n      tag_202\n      jump\t// in\n    tag_366:\n        /* \"#utility.yul\":15754:15893   */\n      swap1\n      pop\n        /* \"#utility.yul\":15481:15900   */\n      swap2\n      swap1\n      pop\n      jump\t// out\n        /* \"#utility.yul\":15906:16047   */\n    tag_203:\n        /* \"#utility.yul\":15955:15959   */\n      0x00\n        /* \"#utility.yul\":15978:15981   */\n      dup2\n        /* \"#utility.yul\":15970:15981   */\n      swap1\n      pop\n        /* \"#utility.yul\":16001:16004   */\n      dup2\n        /* \"#utility.yul\":15998:15999   */\n      0x00\n        /* \"#utility.yul\":15991:16005   */\n      mstore\n        /* \"#utility.yul\":16035:16039   */\n      0x20\n        /* \"#utility.yul\":16032:16033   */\n      0x00\n        /* \"#utility.yul\":16022:16040   */\n      keccak256\n        /* \"#utility.yul\":16014:16040   */\n      swap1\n      pop\n        /* \"#utility.yul\":15906:16047   */\n      swap2\n      swap1\n      pop\n      jump\t// out\n        /* \"#utility.yul\":16053:16146   */\n    tag_204:\n        /* \"#utility.yul\":16090:16096   */\n      0x00\n        /* \"#utility.yul\":16137:16139   */\n      0x20\n        /* \"#utility.yul\":16132:16134   */\n      0x1f\n        /* \"#utility.yul\":16125:16130   */\n      dup4\n        /* \"#utility.yul\":16121:16135   */\n      add\n        /* \"#utility.yul\":16117:16140   */\n      div\n        /* \"#utility.yul\":16107:16140   */\n      swap1\n      pop\n        /* \"#utility.yul\":16053:16146   */\n      swap2\n      swap1\n      pop\n      jump\t// out\n        /* \"#utility.yul\":16152:16259   */\n    tag_205:\n        /* \"#utility.yul\":16196:16204   */\n      0x00\n        /* \"#utility.yul\":16246:16251   */\n      dup3\n        /* \"#utility.yul\":16240:16244   */\n      dup3\n        /* \"#utility.yul\":16236:16252   */\n      shl\n        /* \"#utility.yul\":16215:16252   */\n      swap1\n      pop\n        /* \"#utility.yul\":16152:16259   */\n      swap3\n      swap2\n      pop\n      pop\n      jump\t// out\n        /* \"#utility.yul\":16265:16658   */\n    tag_206:\n        /* \"#utility.yul\":16334:16340   */\n      0x00\n        /* \"#utility.yul\":16384:16385   */\n      0x08\n        /* \"#utility.yul\":16372:16382   */\n      dup4\n        /* \"#utility.yul\":16368:16386   */\n      mul\n        /* \"#utility.yul\":16407:16504   */\n      tag_371\n        /* \"#utility.yul\":16437:16503   */\n      0xffffffffffffffffffffffffffffffffffffffffffffffffffffffffffffffff\n        /* \"#utility.yul\":16426:16435   */\n      dup3\n        /* \"#utility.yul\":16407:16504   */\n      tag_205\n      jump\t// in\n    tag_371:\n        /* \"#utility.yul\":16525:16564   */\n      tag_372\n        /* \"#utility.yul\":16555:16563   */\n      dup7\n        /* \"#utility.yul\":16544:16553   */\n      dup4\n        /* \"#utility.yul\":16525:16564   */\n      tag_205\n      jump\t// in\n    tag_372:\n        /* \"#utility.yul\":16513:16564   */\n      swap6\n      pop\n        /* \"#utility.yul\":16597:16601   */\n      dup1\n        /* \"#utility.yul\":16593:16602   */\n      not\n        /* \"#utility.yul\":16586:16591   */\n      dup5\n        /* \"#utility.yul\":16582:16603   */\n      and\n        /* \"#utility.yul\":16573:16603   */\n      swap4\n      pop\n        /* \"#utility.yul\":16646:16650   */\n      dup1\n        /* \"#utility.yul\":16636:16644   */\n      dup7\n        /* \"#utility.yul\":16632:16651   */\n      and\n        /* \"#utility.yul\":16625:16630   */\n      dup5\n        /* \"#utility.yul\":16622:16652   */\n      or\n        /* \"#utility.yul\":16612:16652   */\n      swap3\n      pop\n        /* \"#utility.yul\":16341:16658   */\n      pop\n      pop\n        /* \"#utility.yul\":16265:16658   */\n      swap4\n      swap3\n      pop\n      pop\n      pop\n      jump\t// out\n        /* \"#utility.yul\":16664:16724   */\n    tag_207:\n        /* \"#utility.yul\":16692:16695   */\n      0x00\n        /* \"#utility.yul\":16713:16718   */\n      dup2\n        /* \"#utility.yul\":16706:16718   */\n      swap1\n      pop\n        /* \"#utility.yul\":16664:16724   */\n      swap2\n      swap1\n      pop\n      jump\t// out\n        /* \"#utility.yul\":16730:16872   */\n    tag_208:\n        /* \"#utility.yul\":16780:16789   */\n      0x00\n        /* \"#utility.yul\":16813:16866   */\n      tag_375\n        /* \"#utility.yul\":16831:16865   */\n      tag_376\n        /* \"#utility.yul\":16840:16864   */\n      tag_377\n        /* \"#utility.yul\":16858:16863   */\n      dup5\n        /* \"#utility.yul\":16840:16864   */\n      tag_164\n      jump\t// in\n    tag_377:\n        /* \"#utility.yul\":16831:16865   */\n      tag_207\n      jump\t// in\n    tag_376:\n        /* \"#utility.yul\":16813:16866   */\n      tag_164\n      jump\t// in\n    tag_375:\n        /* \"#utility.yul\":16800:16866   */\n      swap1\n      pop\n        /* \"#utility.yul\":16730:16872   */\n      swap2\n      swap1\n      pop\n      jump\t// out\n        /* \"#utility.yul\":16878:16953   */\n    tag_209:\n        /* \"#utility.yul\":16921:16924   */\n      0x00\n        /* \"#utility.yul\":16942:16947   */\n      dup2\n        /* \"#utility.yul\":16935:16947   */\n      swap1\n      pop\n        /* \"#utility.yul\":16878:16953   */\n      swap2\n      swap1\n      pop\n      jump\t// out\n        /* \"#utility.yul\":16959:17228   */\n    tag_210:\n        /* \"#utility.yul\":17069:17108   */\n      tag_380\n        /* \"#utility.yul\":17100:17107   */\n      dup4\n        /* \"#utility.yul\":17069:17108   */\n      tag_208\n      jump\t// in\n    tag_380:\n        /* \"#utility.yul\":17130:17221   */\n      tag_381\n        /* \"#utility.yul\":17179:17220   */\n      tag_382\n        /* \"#utility.yul\":17203:17219   */\n      dup3\n        /* \"#utility.yul\":17179:17220   */\n      tag_209\n      jump\t// in\n    tag_382:\n        /* \"#utility.yul\":17171:17177   */\n      dup5\n        /* \"#utility.yul\":17164:17168   */\n      dup5\n        /* \"#utility.yul\":17158:17169   */\n      sload\n        /* \"#utility.yul\":17130:17221   */\n      tag_206\n      jump\t// in\n    tag_381:\n        /* \"#utility.yul\":17124:17128   */\n      dup3\n        /* \"#utility.yul\":17117:17222   */\n      sstore\n        /* \"#utility.yul\":17035:17228   */\n      pop\n        /* \"#utility.yul\":16959:17228   */\n      pop\n      pop\n      pop\n      jump\t// out\n        /* \"#utility.yul\":17234:17307   */\n    tag_211:\n        /* \"#utility.yul\":17279:17282   */\n      0x00\n        /* \"#utility.yul\":17234:17307   */\n      swap1\n      jump\t// out\n        /* \"#utility.yul\":17313:17502   */\n    tag_212:\n        /* \"#utility.yul\":17390:17422   */\n      tag_385\n      tag_211\n      jump\t// in\n    tag_385:\n        /* \"#utility.yul\":17431:17496   */\n      tag_386\n        /* \"#utility.yul\":17489:17495   */\n      dup2\n        /* \"#utility.yul\":17481:17487   */\n      dup5\n        /* \"#utility.yul\":17475:17479   */\n      dup5\n        /* \"#utility.yul\":17431:17496   */\n      tag_210\n      jump\t// in\n    tag_386:\n        /* \"#utility.yul\":17366:17502   */\n      pop\n        /* \"#utility.yul\":17313:17502   */\n      pop\n      pop\n      jump\t// out\n        /* \"#utility.yul\":17508:17694   */\n    tag_213:\n        /* \"#utility.yul\":17568:17688   */\n    tag_388:\n        /* \"#utility.yul\":17585:17588   */\n      dup2\n        /* \"#utility.yul\":17578:17583   */\n      dup2\n        /* \"#utility.yul\":17575:17589   */\n      lt\n        /* \"#utility.yul\":17568:17688   */\n      iszero\n      tag_390\n      jumpi\n        /* \"#utility.yul\":17639:17678   */\n      tag_391\n        /* \"#utility.yul\":17676:17677   */\n      0x00\n        /* \"#utility.yul\":17669:17674   */\n      dup3\n        /* \"#utility.yul\":17639:17678   */\n      tag_212\n      jump\t// in\n    tag_391:\n        /* \"#utility.yul\":17612:17613   */\n      0x01\n        /* \"#utility.yul\":17605:17610   */\n      dup2\n        /* \"#utility.yul\":17601:17614   */\n      add\n        /* \"#utility.yul\":17592:17614   */\n      swap1\n      pop\n        /* \"#utility.yul\":17568:17688   */\n      jump(tag_388)\n    tag_390:\n        /* \"#utility.yul\":17508:17694   */\n      pop\n      pop\n      jump\t// out\n        /* \"#utility.yul\":17700:18243   */\n    tag_214:\n        /* \"#utility.yul\":17801:17803   */\n      0x1f\n        /* \"#utility.yul\":17796:17799   */\n      dup3\n        /* \"#utility.yul\":17793:17804   */\n      gt\n        /* \"#utility.yul\":17790:18236   */\n      iszero\n      tag_393\n      jumpi\n        /* \"#utility.yul\":17835:17873   */\n      tag_394\n        /* \"#utility.yul\":17867:17872   */\n      dup2\n        /* \"#utility.yul\":17835:17873   */\n      tag_203\n      jump\t// in\n    tag_394:\n        /* \"#utility.yul\":17919:17948   */\n      tag_395\n        /* \"#utility.yul\":17937:17947   */\n      dup5\n        /* \"#utility.yul\":17919:17948   */\n      tag_204\n      jump\t// in\n    tag_395:\n        /* \"#utility.yul\":17909:17917   */\n      dup2\n        /* \"#utility.yul\":17905:17949   */\n      add\n        /* \"#utility.yul\":18102:18104   */\n      0x20\n        /* \"#utility.yul\":18090:18100   */\n      dup6\n        /* \"#utility.yul\":18087:18105   */\n      lt\n        /* \"#utility.yul\":18084:18133   */\n      iszero\n      tag_396\n      jumpi\n        /* \"#utility.yul\":18123:18131   */\n      dup2\n        /* \"#utility.yul\":18108:18131   */\n      swap1\n      pop\n        /* \"#utility.yul\":18084:18133   */\n    tag_396:\n        /* \"#utility.yul\":18146:18226   */\n      tag_397\n        /* \"#utility.yul\":18202:18224   */\n      tag_398\n        /* \"#utility.yul\":18220:18223   */\n      dup6\n        /* \"#utility.yul\":18202:18224   */\n      tag_204\n      jump\t// in\n    tag_398:\n        /* \"#utility.yul\":18192:18200   */\n      dup4\n        /* \"#utility.yul\":18188:18225   */\n      add\n        /* \"#utility.yul\":18175:18186   */\n      dup3\n        /* \"#utility.yul\":18146:18226   */\n      tag_213\n      jump\t// in\n    tag_397:\n        /* \"#utility.yul\":17805:18236   */\n      pop\n      pop\n        /* \"#utility.yul\":17790:18236   */\n    tag_393:\n        /* \"#utility.yul\":17700:18243   */\n      pop\n      pop\n      pop\n      jump\t// out\n        /* \"#utility.yul\":18249:18366   */\n    tag_215:\n        /* \"#utility.yul\":18303:18311   */\n      0x00\n        /* \"#utility.yul\":18353:18358   */\n      dup3\n        /* \"#utility.yul\":18347:18351   */\n      dup3\n        /* \"#utility.yul\":18343:18359   */\n      shr\n        /* \"#utility.yul\":18322:18359   */\n      swap1\n      pop\n        /* \"#utility.yul\":18249:18366   */\n      swap3\n      swap2\n      pop\n      pop\n      jump\t// out\n        /* \"#utility.yul\":18372:18541   */\n    tag_216:\n        /* \"#utility.yul\":18416:18422   */\n      0x00\n        /* \"#utility.yul\":18449:18500   */\n      tag_401\n        /* \"#utility.yul\":18497:18498   */\n      0x00\n        /* \"#utility.yul\":18493:18499   */\n      not\n        /* \"#utility.yul\":18485:18490   */\n      dup5\n        /* \"#utility.yul\":18482:18483   */\n      0x08\n        /* \"#utility.yul\":18478:18491   */\n      mul\n        /* \"#utility.yul\":18449:18500   */\n      tag_215\n      jump\t// in\n    tag_401:\n        /* \"#utility.yul\":18445:18501   */\n      not\n        /* \"#utility.yul\":18530:18534   */\n      dup1\n        /* \"#utility.yul\":18524:18528   */\n      dup4\n        /* \"#utility.yul\":18520:18535   */\n      and\n        /* \"#utility.yul\":18510:18535   */\n      swap2\n      pop\n        /* \"#utility.yul\":18423:18541   */\n      pop\n        /* \"#utility.yul\":18372:18541   */\n      swap3\n      swap2\n      pop\n      pop\n      jump\t// out\n        /* \"#utility.yul\":18546:18841   */\n    tag_217:\n        /* \"#utility.yul\":18622:18626   */\n      0x00\n        /* \"#utility.yul\":18768:18797   */\n      tag_403\n        /* \"#utility.yul\":18793:18796   */\n      dup4\n        /* \"#utility.yul\":18787:18791   */\n      dup4\n        /* \"#utility.yul\":18768:18797   */\n      tag_216\n      jump\t// in\n    tag_403:\n        /* \"#utility.yul\":18760:18797   */\n      swap2\n      pop\n        /* \"#utility.yul\":18830:18833   */\n      dup3\n        /* \"#utility.yul\":18827:18828   */\n      0x02\n        /* \"#utility.yul\":18823:18834   */\n      mul\n        /* \"#utility.yul\":18817:18821   */\n      dup3\n        /* \"#utility.yul\":18814:18835   */\n      or\n        /* \"#utility.yul\":18806:18835   */\n      swap1\n      pop\n        /* \"#utility.yul\":18546:18841   */\n      swap3\n      swap2\n      pop\n      pop\n      jump\t// out\n        /* \"#utility.yul\":18846:20241   */\n    tag_147:\n        /* \"#utility.yul\":18963:19000   */\n      tag_405\n        /* \"#utility.yul\":18996:18999   */\n      dup3\n        /* \"#utility.yul\":18963:19000   */\n      tag_174\n      jump\t// in\n    tag_405:\n        /* \"#utility.yul\":19065:19083   */\n      0xffffffffffffffff\n        /* \"#utility.yul\":19057:19063   */\n      dup2\n        /* \"#utility.yul\":19054:19084   */\n      gt\n        /* \"#utility.yul\":19051:19107   */\n      iszero\n      tag_406\n      jumpi\n        /* \"#utility.yul\":19087:19105   */\n      tag_407\n      tag_182\n      jump\t// in\n    tag_407:\n        /* \"#utility.yul\":19051:19107   */\n    tag_406:\n        /* \"#utility.yul\":19131:19169   */\n      tag_408\n        /* \"#utility.yul\":19163:19167   */\n      dup3\n        /* \"#utility.yul\":19157:19168   */\n      sload\n        /* \"#utility.yul\":19131:19169   */\n      tag_93\n      jump\t// in\n    tag_408:\n        /* \"#utility.yul\":19216:19283   */\n      tag_409\n        /* \"#utility.yul\":19276:19282   */\n      dup3\n        /* \"#utility.yul\":19268:19274   */\n      dup3\n        /* \"#utility.yul\":19262:19266   */\n      dup6\n        /* \"#utility.yul\":19216:19283   */\n      tag_214\n      jump\t// in\n    tag_409:\n        /* \"#utility.yul\":19310:19311   */\n      0x00\n        /* \"#utility.yul\":19334:19338   */\n      0x20\n        /* \"#utility.yul\":19321:19338   */\n      swap1\n      pop\n        /* \"#utility.yul\":19366:19368   */\n      0x1f\n        /* \"#utility.yul\":19358:19364   */\n      dup4\n        /* \"#utility.yul\":19355:19369   */\n      gt\n        /* \"#utility.yul\":19383:19384   */\n      0x01\n        /* \"#utility.yul\":19378:19996   */\n      dup2\n      eq\n      tag_411\n      jumpi\n        /* \"#utility.yul\":20040:20041   */\n      0x00\n        /* \"#utility.yul\":20057:20063   */\n      dup5\n        /* \"#utility.yul\":20054:20131   */\n      iszero\n      tag_412\n      jumpi\n        /* \"#utility.yul\":20106:20115   */\n      dup3\n        /* \"#utility.yul\":20101:20104   */\n      dup8\n        /* \"#utility.yul\":20097:20116   */\n      add\n        /* \"#utility.yul\":20091:20117   */\n      mload\n        /* \"#utility.yul\":20082:20117   */\n      swap1\n      pop\n        /* \"#utility.yul\":20054:20131   */\n    tag_412:\n        /* \"#utility.yul\":20157:20224   */\n      tag_413\n        /* \"#utility.yul\":20217:20223   */\n      dup6\n        /* \"#utility.yul\":20210:20215   */\n      dup3\n        /* \"#utility.yul\":20157:20224   */\n      tag_217\n      jump\t// in\n    tag_413:\n        /* \"#utility.yul\":20151:20155   */\n      dup7\n        /* \"#utility.yul\":20144:20225   */\n      sstore\n        /* \"#utility.yul\":20013:20235   */\n      pop\n        /* \"#utility.yul\":19348:20235   */\n      jump(tag_410)\n        /* \"#utility.yul\":19378:19996   */\n    tag_411:\n        /* \"#utility.yul\":19430:19434   */\n      0x1f\n        /* \"#utility.yul\":19426:19435   */\n      not\n        /* \"#utility.yul\":19418:19424   */\n      dup5\n        /* \"#utility.yul\":19414:19436   */\n      and\n        /* \"#utility.yul\":19464:19501   */\n      tag_414\n        /* \"#utility.yul\":19496:19500   */\n      dup7\n        /* \"#utility.yul\":19464:19501   */\n      tag_203\n      jump\t// in\n    tag_414:\n        /* \"#utility.yul\":19523:19524   */\n      0x00\n        /* \"#utility.yul\":19537:19745   */\n    tag_415:\n        /* \"#utility.yul\":19551:19558   */\n      dup3\n        /* \"#utility.yul\":19548:19549   */\n      dup2\n        /* \"#utility.yul\":19545:19559   */\n      lt\n        /* \"#utility.yul\":19537:19745   */\n      iszero\n      tag_417\n      jumpi\n        /* \"#utility.yul\":19630:19639   */\n      dup5\n        /* \"#utility.yul\":19625:19628   */\n      dup10\n        /* \"#utility.yul\":19621:19640   */\n      add\n        /* \"#utility.yul\":19615:19641   */\n      mload\n        /* \"#utility.yul\":19607:19613   */\n      dup3\n        /* \"#utility.yul\":19600:19642   */\n      sstore\n        /* \"#utility.yul\":19681:19682   */\n      0x01\n        /* \"#utility.yul\":19673:19679   */\n      dup3\n        /* \"#utility.yul\":19669:19683   */\n      add\n        /* \"#utility.yul\":19659:19683   */\n      swap2\n      pop\n        /* \"#utility.yul\":19728:19730   */\n      0x20\n        /* \"#utility.yul\":19717:19726   */\n      dup6\n        /* \"#utility.yul\":19713:19731   */\n      add\n        /* \"#utility.yul\":19700:19731   */\n      swap5\n      pop\n        /* \"#utility.yul\":19574:19578   */\n      0x20\n        /* \"#utility.yul\":19571:19572   */\n      dup2\n        /* \"#utility.yul\":19567:19579   */\n      add\n        /* \"#utility.yul\":19562:19579   */\n      swap1\n      pop\n        /* \"#utility.yul\":19537:19745   */\n      jump(tag_415)\n    tag_417:\n        /* \"#utility.yul\":19773:19779   */\n      dup7\n        /* \"#utility.yul\":19764:19771   */\n      dup4\n        /* \"#utility.yul\":19761:19780   */\n      lt\n        /* \"#utility.yul\":19758:19937   */\n      iszero\n      tag_418\n      jumpi\n        /* \"#utility.yul\":19831:19840   */\n      dup5\n        /* \"#utility.yul\":19826:19829   */\n      dup10\n        /* \"#utility.yul\":19822:19841   */\n      add\n        /* \"#utility.yul\":19816:19842   */\n      mload\n        /* \"#utility.yul\":19874:19922   */\n      tag_419\n        /* \"#utility.yul\":19916:19920   */\n      0x1f\n        /* \"#utility.yul\":19908:19914   */\n      dup10\n        /* \"#utility.yul\":19904:19921   */\n      and\n        /* \"#utility.yul\":19893:19902   */\n      dup3\n        /* \"#utility.yul\":19874:19922   */\n      tag_216\n      jump\t// in\n    tag_419:\n        /* \"#utility.yul\":19866:19872   */\n      dup4\n        /* \"#utility.yul\":19859:19923   */\n      sstore\n        /* \"#utility.yul\":19781:19937   */\n      pop\n        /* \"#utility.yul\":19758:19937   */\n    tag_418:\n        /* \"#utility.yul\":19983:19984   */\n      0x01\n        /* \"#utility.yul\":19979:19980   */\n      0x02\n        /* \"#utility.yul\":19971:19977   */\n      dup9\n        /* \"#utility.yul\":19967:19981   */\n      mul\n        /* \"#utility.yul\":19963:19985   */\n      add\n        /* \"#utility.yul\":19957:19961   */\n      dup9\n        /* \"#utility.yul\":19950:19986   */\n      sstore\n        /* \"#utility.yul\":19385:19996   */\n      pop\n      pop\n      pop\n        /* \"#utility.yul\":19348:20235   */\n    tag_410:\n      pop\n        /* \"#utility.yul\":18938:20241   */\n      pop\n      pop\n      pop\n        /* \"#utility.yul\":18846:20241   */\n      pop\n      pop\n      jump\t// out\n        /* \"#utility.yul\":20247:20982   */\n    tag_151:\n        /* \"#utility.yul\":20464:20468   */\n      0x00\n        /* \"#utility.yul\":20502:20505   */\n      0x80\n        /* \"#utility.yul\":20491:20500   */\n      dup3\n        /* \"#utility.yul\":20487:20506   */\n      add\n        /* \"#utility.yul\":20479:20506   */\n      swap1\n      pop\n        /* \"#utility.yul\":20552:20561   */\n      dup2\n        /* \"#utility.yul\":20546:20550   */\n      dup2\n        /* \"#utility.yul\":20542:20562   */\n      sub\n        /* \"#utility.yul\":20538:20539   */\n      0x00\n        /* \"#utility.yul\":20527:20536   */\n      dup4\n        /* \"#utility.yul\":20523:20540   */\n      add\n        /* \"#utility.yul\":20516:20563   */\n      mstore\n        /* \"#utility.yul\":20580:20658   */\n      tag_421\n        /* \"#utility.yul\":20653:20657   */\n      dup2\n        /* \"#utility.yul\":20644:20650   */\n      dup8\n        /* \"#utility.yul\":20580:20658   */\n      tag_178\n      jump\t// in\n    tag_421:\n        /* \"#utility.yul\":20572:20658   */\n      swap1\n      pop\n        /* \"#utility.yul\":20705:20714   */\n      dup2\n        /* \"#utility.yul\":20699:20703   */\n      dup2\n        /* \"#utility.yul\":20695:20715   */\n      sub\n        /* \"#utility.yul\":20690:20692   */\n      0x20\n        /* \"#utility.yul\":20679:20688   */\n      dup4\n        /* \"#utility.yul\":20675:20693   */\n      add\n        /* \"#utility.yul\":20668:20716   */\n      mstore\n        /* \"#utility.yul\":20733:20811   */\n      tag_422\n        /* \"#utility.yul\":20806:20810   */\n      dup2\n        /* \"#utility.yul\":20797:20803   */\n      dup7\n        /* \"#utility.yul\":20733:20811   */\n      tag_178\n      jump\t// in\n    tag_422:\n        /* \"#utility.yul\":20725:20811   */\n      swap1\n      pop\n        /* \"#utility.yul\":20821:20893   */\n      tag_423\n        /* \"#utility.yul\":20889:20891   */\n      0x40\n        /* \"#utility.yul\":20878:20887   */\n      dup4\n        /* \"#utility.yul\":20874:20892   */\n      add\n        /* \"#utility.yul\":20865:20871   */\n      dup6\n        /* \"#utility.yul\":20821:20893   */\n      tag_167\n      jump\t// in\n    tag_423:\n        /* \"#utility.yul\":20903:20975   */\n      tag_424\n        /* \"#utility.yul\":20971:20973   */\n      0x60\n        /* \"#utility.yul\":20960:20969   */\n      dup4\n        /* \"#utility.yul\":20956:20974   */\n      add\n        /* \"#utility.yul\":20947:20953   */\n      dup5\n        /* \"#utility.yul\":20903:20975   */\n      tag_167\n      jump\t// in\n    tag_424:\n        /* \"#utility.yul\":20247:20982   */\n      swap6\n      swap5\n      pop\n      pop\n      pop\n      pop\n      pop\n      jump\t// out\n\n    auxdata: 0xa26469706673582212204b2463f30a374bd25c9de040286761c90274b049ba304544e37f7f70e8dc7ed864736f6c634300081a0033\n}\n",
				"bytecode": {
					"linkReferences": {},
					"object": "608060405234801561000f575f80fd5b506040516119e63803806119e6833981810160405281019061003191906101d7565b805f73ffffffffffffffffffffffffffffffffffffffff168173ffffffffffffffffffffffffffffffffffffffff16036100a2575f6040517f1e4fbdf70000000000000000000000000000000000000000000000000000000081526004016100999190610211565b60405180910390fd5b6100b1816100b860201b60201c565b505061022a565b5f805f9054906101000a900473ffffffffffffffffffffffffffffffffffffffff169050815f806101000a81548173ffffffffffffffffffffffffffffffffffffffff021916908373ffffffffffffffffffffffffffffffffffffffff1602179055508173ffffffffffffffffffffffffffffffffffffffff168173ffffffffffffffffffffffffffffffffffffffff167f8be0079c531659141344cd1fd0a4f28419497f9722a3daafe3b4186f6b6457e060405160405180910390a35050565b5f80fd5b5f73ffffffffffffffffffffffffffffffffffffffff82169050919050565b5f6101a68261017d565b9050919050565b6101b68161019c565b81146101c0575f80fd5b50565b5f815190506101d1816101ad565b92915050565b5f602082840312156101ec576101eb610179565b5b5f6101f9848285016101c3565b91505092915050565b61020b8161019c565b82525050565b5f6020820190506102245f830184610202565b92915050565b6117af806102375f395ff3fe60806040526004361061009b575f3560e01c8063715018a611610063578063715018a6146101b357806383c2eaba146101c95780638c1af2e0146102055780638da5cb5b1461022d578063f2fde38b14610257578063f733719c1461027f5761009b565b80633af8c2d51461009f578063513073b8146100bb5780635745ae28146100f75780635ac3e19e146101335780636874404614610173575b5f80fd5b6100b960048036038101906100b49190610ce7565b6102a7565b005b3480156100c6575f80fd5b506100e160048036038101906100dc9190610d25565b6104a8565b6040516100ee9190610d5f565b60405180910390f35b348015610102575f80fd5b5061011d60048036038101906101189190610dd2565b6104c8565b60405161012a9190610e17565b60405180910390f35b34801561013e575f80fd5b5061015960048036038101906101549190610d25565b6104e5565b60405161016a959493929190610ea0565b60405180910390f35b34801561017e575f80fd5b5061019960048036038101906101949190610d25565b610683565b6040516101aa959493929190610ea0565b60405180910390f35b3480156101be575f80fd5b506101c76107cd565b005b3480156101d4575f80fd5b506101ef60048036038101906101ea9190610d25565b6107e0565b6040516101fc9190610f0e565b60405180910390f35b348015610210575f80fd5b5061022b60048036038101906102269190610ce7565b61081b565b005b348015610238575f80fd5b50610241610931565b60405161024e9190610f0e565b60405180910390f35b348015610262575f80fd5b5061027d60048036038101906102789190610dd2565b610958565b005b34801561028a575f80fd5b506102a560048036038101906102a09190611053565b6109dc565b005b5f60015f8481526020019081526020015f209050806004015f9054906101000a900460ff1661030b576040517f08c379a00000000000000000000000000000000000000000000000000000000081526004016103029061114c565b60405180910390fd5b8181600301541015610352576040517f08c379a0000000000000000000000000000000000000000000000000000000008152600401610349906111b4565b60405180910390fd5b5f82826002015461036391906111ff565b90508034146103a7576040517f08c379a000000000000000000000000000000000000000000000000000000000815260040161039e9061128a565b60405180910390fd5b803411156103ea576040517f08c379a00000000000000000000000000000000000000000000000000000000081526004016103e1906112f2565b60405180910390fd5b6103f2610931565b73ffffffffffffffffffffffffffffffffffffffff163373ffffffffffffffffffffffffffffffffffffffff16857f795c01707eea3be54397e23c120afce586e315e3148eb7ea2a28d3331ab57f678660405161044f9190610d5f565b60405180910390a461045f610931565b73ffffffffffffffffffffffffffffffffffffffff166108fc3490811502906040515f60405180830381858888f193505050501580156104a1573d5f803e3d5ffd5b5050505050565b600481815481106104b7575f80fd5b905f5260205f20015f915090505481565b6002602052805f5260405f205f915054906101000a900460ff1681565b6060805f805f8060015f8881526020019081526020015f206040518060a00160405290815f820180546105179061133d565b80601f01602080910402602001604051908101604052809291908181526020018280546105439061133d565b801561058e5780601f106105655761010080835404028352916020019161058e565b820191905f5260205f20905b81548152906001019060200180831161057157829003601f168201915b505050505081526020016001820180546105a79061133d565b80601f01602080910402602001604051908101604052809291908181526020018280546105d39061133d565b801561061e5780601f106105f55761010080835404028352916020019161061e565b820191905f5260205f20905b81548152906001019060200180831161060157829003601f168201915b505050505081526020016002820154815260200160038201548152602001600482015f9054906101000a900460ff1615151515815250509050805f01518160200151826040015183606001518460800151955095509550955095505091939590929450565b6001602052805f5260405f205f91509050805f0180546106a29061133d565b80601f01602080910402602001604051908101604052809291908181526020018280546106ce9061133d565b80156107195780601f106106f057610100808354040283529160200191610719565b820191905f5260205f20905b8154815290600101906020018083116106fc57829003601f168201915b50505050509080600101805461072e9061133d565b80601f016020809104026020016040519081016040528092919081815260200182805461075a9061133d565b80156107a55780601f1061077c576101008083540402835291602001916107a5565b820191905f5260205f20905b81548152906001019060200180831161078857829003601f168201915b505050505090806002015490806003015490806004015f9054906101000a900460ff16905085565b6107d5610b54565b6107de5f610bdb565b565b600381815481106107ef575f80fd5b905f5260205f20015f915054906101000a900473ffffffffffffffffffffffffffffffffffffffff1681565b610823610b54565b5f60015f8481526020019081526020015f209050818160030154101561087e576040517f08c379a0000000000000000000000000000000000000000000000000000000008152600401610875906113dd565b60405180910390fd5b81816003015f82825461089191906113fb565b925050819055505f8160030154036108bf575f816004015f6101000a81548160ff0219169083151502179055505b6108c7610931565b73ffffffffffffffffffffffffffffffffffffffff163373ffffffffffffffffffffffffffffffffffffffff16847fa91bf27de3b2ac5c122e315cfb7ee965404a4738b4e79f4ed1dc5d12a494a42a856040516109249190610d5f565b60405180910390a4505050565b5f805f9054906101000a900473ffffffffffffffffffffffffffffffffffffffff16905090565b610960610b54565b5f73ffffffffffffffffffffffffffffffffffffffff168173ffffffffffffffffffffffffffffffffffffffff16036109d0575f6040517f1e4fbdf70000000000000000000000000000000000000000000000000000000081526004016109c79190610f0e565b60405180910390fd5b6109d981610bdb565b50565b6109e4610b54565b5f60015f8781526020019081526020015f206002015414610a3a576040517f08c379a0000000000000000000000000000000000000000000000000000000008152600401610a319061149e565b60405180910390fd5b6040518060a00160405280858152602001848152602001670de0b6b3a764000084610a6591906111ff565b81526020018281526020015f8311151581525060015f8781526020019081526020015f205f820151815f019081610a9c9190611659565b506020820151816001019081610ab29190611659565b5060408201518160020155606082015181600301556080820151816004015f6101000a81548160ff021916908315150217905550905050600485908060018154018082558091505060019003905f5260205f20015f9091909190915055847f722c04650224f771c04ec5712c74689980b3ddb4eaa233cd8f9c72d7da7fbe2985858585604051610b459493929190611728565b60405180910390a25050505050565b610b5c610c9c565b73ffffffffffffffffffffffffffffffffffffffff16610b7a610931565b73ffffffffffffffffffffffffffffffffffffffff1614610bd957610b9d610c9c565b6040517f118cdaa7000000000000000000000000000000000000000000000000000000008152600401610bd09190610f0e565b60405180910390fd5b565b5f805f9054906101000a900473ffffffffffffffffffffffffffffffffffffffff169050815f806101000a81548173ffffffffffffffffffffffffffffffffffffffff021916908373ffffffffffffffffffffffffffffffffffffffff1602179055508173ffffffffffffffffffffffffffffffffffffffff168173ffffffffffffffffffffffffffffffffffffffff167f8be0079c531659141344cd1fd0a4f28419497f9722a3daafe3b4186f6b6457e060405160405180910390a35050565b5f33905090565b5f604051905090565b5f80fd5b5f80fd5b5f819050919050565b610cc681610cb4565b8114610cd0575f80fd5b50565b5f81359050610ce181610cbd565b92915050565b5f8060408385031215610cfd57610cfc610cac565b5b5f610d0a85828601610cd3565b9250506020610d1b85828601610cd3565b9150509250929050565b5f60208284031215610d3a57610d39610cac565b5b5f610d4784828501610cd3565b91505092915050565b610d5981610cb4565b82525050565b5f602082019050610d725f830184610d50565b92915050565b5f73ffffffffffffffffffffffffffffffffffffffff82169050919050565b5f610da182610d78565b9050919050565b610db181610d97565b8114610dbb575f80fd5b50565b5f81359050610dcc81610da8565b92915050565b5f60208284031215610de757610de6610cac565b5b5f610df484828501610dbe565b91505092915050565b5f8115159050919050565b610e1181610dfd565b82525050565b5f602082019050610e2a5f830184610e08565b92915050565b5f81519050919050565b5f82825260208201905092915050565b8281835e5f83830152505050565b5f601f19601f8301169050919050565b5f610e7282610e30565b610e7c8185610e3a565b9350610e8c818560208601610e4a565b610e9581610e58565b840191505092915050565b5f60a0820190508181035f830152610eb88188610e68565b90508181036020830152610ecc8187610e68565b9050610edb6040830186610d50565b610ee86060830185610d50565b610ef56080830184610e08565b9695505050505050565b610f0881610d97565b82525050565b5f602082019050610f215f830184610eff565b92915050565b5f80fd5b5f80fd5b7f4e487b71000000000000000000000000000000000000000000000000000000005f52604160045260245ffd5b610f6582610e58565b810181811067ffffffffffffffff82111715610f8457610f83610f2f565b5b80604052505050565b5f610f96610ca3565b9050610fa28282610f5c565b919050565b5f67ffffffffffffffff821115610fc157610fc0610f2f565b5b610fca82610e58565b9050602081019050919050565b828183375f83830152505050565b5f610ff7610ff284610fa7565b610f8d565b90508281526020810184848401111561101357611012610f2b565b5b61101e848285610fd7565b509392505050565b5f82601f83011261103a57611039610f27565b5b813561104a848260208601610fe5565b91505092915050565b5f805f805f60a0868803121561106c5761106b610cac565b5b5f61107988828901610cd3565b955050602086013567ffffffffffffffff81111561109a57611099610cb0565b5b6110a688828901611026565b945050604086013567ffffffffffffffff8111156110c7576110c6610cb0565b5b6110d388828901611026565b93505060606110e488828901610cd3565b92505060806110f588828901610cd3565b9150509295509295909350565b7f5468697320626f6f6b206973206e6f7420617661696c61626c652e00000000005f82015250565b5f611136601b83610e3a565b915061114182611102565b602082019050919050565b5f6020820190508181035f8301526111638161112a565b9050919050565b7f4e6f7420656e6f7567682073746f636b20617661696c61626c652e00000000005f82015250565b5f61119e601b83610e3a565b91506111a98261116a565b602082019050919050565b5f6020820190508181035f8301526111cb81611192565b9050919050565b7f4e487b71000000000000000000000000000000000000000000000000000000005f52601160045260245ffd5b5f61120982610cb4565b915061121483610cb4565b925082820261122281610cb4565b91508282048414831517611239576112386111d2565b5b5092915050565b7f496e636f7272656374207061796d656e7420616d6f756e742e000000000000005f82015250565b5f611274601983610e3a565b915061127f82611240565b602082019050919050565b5f6020820190508181035f8301526112a181611268565b9050919050565b7f4f7665727061696420666f7220626f6f6b2070757263686173652e00000000005f82015250565b5f6112dc601b83610e3a565b91506112e7826112a8565b602082019050919050565b5f6020820190508181035f830152611309816112d0565b9050919050565b7f4e487b71000000000000000000000000000000000000000000000000000000005f52602260045260245ffd5b5f600282049050600182168061135457607f821691505b60208210810361136757611366611310565b5b50919050565b7f4e6f7420656e6f7567682073746f636b20746f20636f6e6669726d20707572635f8201527f686173652e000000000000000000000000000000000000000000000000000000602082015250565b5f6113c7602583610e3a565b91506113d28261136d565b604082019050919050565b5f6020820190508181035f8301526113f4816113bb565b9050919050565b5f61140582610cb4565b915061141083610cb4565b9250828203905081811115611428576114276111d2565b5b92915050565b7f426f6f6b20616c726561647920657869737473207769746820746869732049445f8201527f2e00000000000000000000000000000000000000000000000000000000000000602082015250565b5f611488602183610e3a565b91506114938261142e565b604082019050919050565b5f6020820190508181035f8301526114b58161147c565b9050919050565b5f819050815f5260205f209050919050565b5f6020601f8301049050919050565b5f82821b905092915050565b5f600883026115187fffffffffffffffffffffffffffffffffffffffffffffffffffffffffffffffff826114dd565b61152286836114dd565b95508019841693508086168417925050509392505050565b5f819050919050565b5f61155d61155861155384610cb4565b61153a565b610cb4565b9050919050565b5f819050919050565b61157683611543565b61158a61158282611564565b8484546114e9565b825550505050565b5f90565b61159e611592565b6115a981848461156d565b505050565b5b818110156115cc576115c15f82611596565b6001810190506115af565b5050565b601f821115611611576115e2816114bc565b6115eb846114ce565b810160208510156115fa578190505b61160e611606856114ce565b8301826115ae565b50505b505050565b5f82821c905092915050565b5f6116315f1984600802611616565b1980831691505092915050565b5f6116498383611622565b9150826002028217905092915050565b61166282610e30565b67ffffffffffffffff81111561167b5761167a610f2f565b5b611685825461133d565b6116908282856115d0565b5f60209050601f8311600181146116c1575f84156116af578287015190505b6116b9858261163e565b865550611720565b601f1984166116cf866114bc565b5f5b828110156116f6578489015182556001820191506020850194506020810190506116d1565b86831015611713578489015161170f601f891682611622565b8355505b6001600288020188555050505b505050505050565b5f6080820190508181035f8301526117408187610e68565b905081810360208301526117548186610e68565b90506117636040830185610d50565b6117706060830184610d50565b9594505050505056fea26469706673582212204b2463f30a374bd25c9de040286761c90274b049ba304544e37f7f70e8dc7ed864736f6c634300081a0033",
					"opcodes": "PUSH1 0x80 PUSH1 0x40 MSTORE CALLVALUE DUP1 ISZERO PUSH2 0xF JUMPI PUSH0 DUP1 REVERT JUMPDEST POP PUSH1 0x40 MLOAD PUSH2 0x19E6 CODESIZE SUB DUP1 PUSH2 0x19E6 DUP4 CODECOPY DUP2 DUP2 ADD PUSH1 0x40 MSTORE DUP2 ADD SWAP1 PUSH2 0x31 SWAP2 SWAP1 PUSH2 0x1D7 JUMP JUMPDEST DUP1 PUSH0 PUSH20 0xFFFFFFFFFFFFFFFFFFFFFFFFFFFFFFFFFFFFFFFF AND DUP2 PUSH20 0xFFFFFFFFFFFFFFFFFFFFFFFFFFFFFFFFFFFFFFFF AND SUB PUSH2 0xA2 JUMPI PUSH0 PUSH1 0x40 MLOAD PUSH32 0x1E4FBDF700000000000000000000000000000000000000000000000000000000 DUP2 MSTORE PUSH1 0x4 ADD PUSH2 0x99 SWAP2 SWAP1 PUSH2 0x211 JUMP JUMPDEST PUSH1 0x40 MLOAD DUP1 SWAP2 SUB SWAP1 REVERT JUMPDEST PUSH2 0xB1 DUP2 PUSH2 0xB8 PUSH1 0x20 SHL PUSH1 0x20 SHR JUMP JUMPDEST POP POP PUSH2 0x22A JUMP JUMPDEST PUSH0 DUP1 PUSH0 SWAP1 SLOAD SWAP1 PUSH2 0x100 EXP SWAP1 DIV PUSH20 0xFFFFFFFFFFFFFFFFFFFFFFFFFFFFFFFFFFFFFFFF AND SWAP1 POP DUP2 PUSH0 DUP1 PUSH2 0x100 EXP DUP2 SLOAD DUP2 PUSH20 0xFFFFFFFFFFFFFFFFFFFFFFFFFFFFFFFFFFFFFFFF MUL NOT AND SWAP1 DUP4 PUSH20 0xFFFFFFFFFFFFFFFFFFFFFFFFFFFFFFFFFFFFFFFF AND MUL OR SWAP1 SSTORE POP DUP2 PUSH20 0xFFFFFFFFFFFFFFFFFFFFFFFFFFFFFFFFFFFFFFFF AND DUP2 PUSH20 0xFFFFFFFFFFFFFFFFFFFFFFFFFFFFFFFFFFFFFFFF AND PUSH32 0x8BE0079C531659141344CD1FD0A4F28419497F9722A3DAAFE3B4186F6B6457E0 PUSH1 0x40 MLOAD PUSH1 0x40 MLOAD DUP1 SWAP2 SUB SWAP1 LOG3 POP POP JUMP JUMPDEST PUSH0 DUP1 REVERT JUMPDEST PUSH0 PUSH20 0xFFFFFFFFFFFFFFFFFFFFFFFFFFFFFFFFFFFFFFFF DUP3 AND SWAP1 POP SWAP2 SWAP1 POP JUMP JUMPDEST PUSH0 PUSH2 0x1A6 DUP3 PUSH2 0x17D JUMP JUMPDEST SWAP1 POP SWAP2 SWAP1 POP JUMP JUMPDEST PUSH2 0x1B6 DUP2 PUSH2 0x19C JUMP JUMPDEST DUP2 EQ PUSH2 0x1C0 JUMPI PUSH0 DUP1 REVERT JUMPDEST POP JUMP JUMPDEST PUSH0 DUP2 MLOAD SWAP1 POP PUSH2 0x1D1 DUP2 PUSH2 0x1AD JUMP JUMPDEST SWAP3 SWAP2 POP POP JUMP JUMPDEST PUSH0 PUSH1 0x20 DUP3 DUP5 SUB SLT ISZERO PUSH2 0x1EC JUMPI PUSH2 0x1EB PUSH2 0x179 JUMP JUMPDEST JUMPDEST PUSH0 PUSH2 0x1F9 DUP5 DUP3 DUP6 ADD PUSH2 0x1C3 JUMP JUMPDEST SWAP2 POP POP SWAP3 SWAP2 POP POP JUMP JUMPDEST PUSH2 0x20B DUP2 PUSH2 0x19C JUMP JUMPDEST DUP3 MSTORE POP POP JUMP JUMPDEST PUSH0 PUSH1 0x20 DUP3 ADD SWAP1 POP PUSH2 0x224 PUSH0 DUP4 ADD DUP5 PUSH2 0x202 JUMP JUMPDEST SWAP3 SWAP2 POP POP JUMP JUMPDEST PUSH2 0x17AF DUP1 PUSH2 0x237 PUSH0 CODECOPY PUSH0 RETURN INVALID PUSH1 0x80 PUSH1 0x40 MSTORE PUSH1 0x4 CALLDATASIZE LT PUSH2 0x9B JUMPI PUSH0 CALLDATALOAD PUSH1 0xE0 SHR DUP1 PUSH4 0x715018A6 GT PUSH2 0x63 JUMPI DUP1 PUSH4 0x715018A6 EQ PUSH2 0x1B3 JUMPI DUP1 PUSH4 0x83C2EABA EQ PUSH2 0x1C9 JUMPI DUP1 PUSH4 0x8C1AF2E0 EQ PUSH2 0x205 JUMPI DUP1 PUSH4 0x8DA5CB5B EQ PUSH2 0x22D JUMPI DUP1 PUSH4 0xF2FDE38B EQ PUSH2 0x257 JUMPI DUP1 PUSH4 0xF733719C EQ PUSH2 0x27F JUMPI PUSH2 0x9B JUMP JUMPDEST DUP1 PUSH4 0x3AF8C2D5 EQ PUSH2 0x9F JUMPI DUP1 PUSH4 0x513073B8 EQ PUSH2 0xBB JUMPI DUP1 PUSH4 0x5745AE28 EQ PUSH2 0xF7 JUMPI DUP1 PUSH4 0x5AC3E19E EQ PUSH2 0x133 JUMPI DUP1 PUSH4 0x68744046 EQ PUSH2 0x173 JUMPI JUMPDEST PUSH0 DUP1 REVERT JUMPDEST PUSH2 0xB9 PUSH1 0x4 DUP1 CALLDATASIZE SUB DUP2 ADD SWAP1 PUSH2 0xB4 SWAP2 SWAP1 PUSH2 0xCE7 JUMP JUMPDEST PUSH2 0x2A7 JUMP JUMPDEST STOP JUMPDEST CALLVALUE DUP1 ISZERO PUSH2 0xC6 JUMPI PUSH0 DUP1 REVERT JUMPDEST POP PUSH2 0xE1 PUSH1 0x4 DUP1 CALLDATASIZE SUB DUP2 ADD SWAP1 PUSH2 0xDC SWAP2 SWAP1 PUSH2 0xD25 JUMP JUMPDEST PUSH2 0x4A8 JUMP JUMPDEST PUSH1 0x40 MLOAD PUSH2 0xEE SWAP2 SWAP1 PUSH2 0xD5F JUMP JUMPDEST PUSH1 0x40 MLOAD DUP1 SWAP2 SUB SWAP1 RETURN JUMPDEST CALLVALUE DUP1 ISZERO PUSH2 0x102 JUMPI PUSH0 DUP1 REVERT JUMPDEST POP PUSH2 0x11D PUSH1 0x4 DUP1 CALLDATASIZE SUB DUP2 ADD SWAP1 PUSH2 0x118 SWAP2 SWAP1 PUSH2 0xDD2 JUMP JUMPDEST PUSH2 0x4C8 JUMP JUMPDEST PUSH1 0x40 MLOAD PUSH2 0x12A SWAP2 SWAP1 PUSH2 0xE17 JUMP JUMPDEST PUSH1 0x40 MLOAD DUP1 SWAP2 SUB SWAP1 RETURN JUMPDEST CALLVALUE DUP1 ISZERO PUSH2 0x13E JUMPI PUSH0 DUP1 REVERT JUMPDEST POP PUSH2 0x159 PUSH1 0x4 DUP1 CALLDATASIZE SUB DUP2 ADD SWAP1 PUSH2 0x154 SWAP2 SWAP1 PUSH2 0xD25 JUMP JUMPDEST PUSH2 0x4E5 JUMP JUMPDEST PUSH1 0x40 MLOAD PUSH2 0x16A SWAP6 SWAP5 SWAP4 SWAP3 SWAP2 SWAP1 PUSH2 0xEA0 JUMP JUMPDEST PUSH1 0x40 MLOAD DUP1 SWAP2 SUB SWAP1 RETURN JUMPDEST CALLVALUE DUP1 ISZERO PUSH2 0x17E JUMPI PUSH0 DUP1 REVERT JUMPDEST POP PUSH2 0x199 PUSH1 0x4 DUP1 CALLDATASIZE SUB DUP2 ADD SWAP1 PUSH2 0x194 SWAP2 SWAP1 PUSH2 0xD25 JUMP JUMPDEST PUSH2 0x683 JUMP JUMPDEST PUSH1 0x40 MLOAD PUSH2 0x1AA SWAP6 SWAP5 SWAP4 SWAP3 SWAP2 SWAP1 PUSH2 0xEA0 JUMP JUMPDEST PUSH1 0x40 MLOAD DUP1 SWAP2 SUB SWAP1 RETURN JUMPDEST CALLVALUE DUP1 ISZERO PUSH2 0x1BE JUMPI PUSH0 DUP1 REVERT JUMPDEST POP PUSH2 0x1C7 PUSH2 0x7CD JUMP JUMPDEST STOP JUMPDEST CALLVALUE DUP1 ISZERO PUSH2 0x1D4 JUMPI PUSH0 DUP1 REVERT JUMPDEST POP PUSH2 0x1EF PUSH1 0x4 DUP1 CALLDATASIZE SUB DUP2 ADD SWAP1 PUSH2 0x1EA SWAP2 SWAP1 PUSH2 0xD25 JUMP JUMPDEST PUSH2 0x7E0 JUMP JUMPDEST PUSH1 0x40 MLOAD PUSH2 0x1FC SWAP2 SWAP1 PUSH2 0xF0E JUMP JUMPDEST PUSH1 0x40 MLOAD DUP1 SWAP2 SUB SWAP1 RETURN JUMPDEST CALLVALUE DUP1 ISZERO PUSH2 0x210 JUMPI PUSH0 DUP1 REVERT JUMPDEST POP PUSH2 0x22B PUSH1 0x4 DUP1 CALLDATASIZE SUB DUP2 ADD SWAP1 PUSH2 0x226 SWAP2 SWAP1 PUSH2 0xCE7 JUMP JUMPDEST PUSH2 0x81B JUMP JUMPDEST STOP JUMPDEST CALLVALUE DUP1 ISZERO PUSH2 0x238 JUMPI PUSH0 DUP1 REVERT JUMPDEST POP PUSH2 0x241 PUSH2 0x931 JUMP JUMPDEST PUSH1 0x40 MLOAD PUSH2 0x24E SWAP2 SWAP1 PUSH2 0xF0E JUMP JUMPDEST PUSH1 0x40 MLOAD DUP1 SWAP2 SUB SWAP1 RETURN JUMPDEST CALLVALUE DUP1 ISZERO PUSH2 0x262 JUMPI PUSH0 DUP1 REVERT JUMPDEST POP PUSH2 0x27D PUSH1 0x4 DUP1 CALLDATASIZE SUB DUP2 ADD SWAP1 PUSH2 0x278 SWAP2 SWAP1 PUSH2 0xDD2 JUMP JUMPDEST PUSH2 0x958 JUMP JUMPDEST STOP JUMPDEST CALLVALUE DUP1 ISZERO PUSH2 0x28A JUMPI PUSH0 DUP1 REVERT JUMPDEST POP PUSH2 0x2A5 PUSH1 0x4 DUP1 CALLDATASIZE SUB DUP2 ADD SWAP1 PUSH2 0x2A0 SWAP2 SWAP1 PUSH2 0x1053 JUMP JUMPDEST PUSH2 0x9DC JUMP JUMPDEST STOP JUMPDEST PUSH0 PUSH1 0x1 PUSH0 DUP5 DUP2 MSTORE PUSH1 0x20 ADD SWAP1 DUP2 MSTORE PUSH1 0x20 ADD PUSH0 KECCAK256 SWAP1 POP DUP1 PUSH1 0x4 ADD PUSH0 SWAP1 SLOAD SWAP1 PUSH2 0x100 EXP SWAP1 DIV PUSH1 0xFF AND PUSH2 0x30B JUMPI PUSH1 0x40 MLOAD PUSH32 0x8C379A000000000000000000000000000000000000000000000000000000000 DUP2 MSTORE PUSH1 0x4 ADD PUSH2 0x302 SWAP1 PUSH2 0x114C JUMP JUMPDEST PUSH1 0x40 MLOAD DUP1 SWAP2 SUB SWAP1 REVERT JUMPDEST DUP2 DUP2 PUSH1 0x3 ADD SLOAD LT ISZERO PUSH2 0x352 JUMPI PUSH1 0x40 MLOAD PUSH32 0x8C379A000000000000000000000000000000000000000000000000000000000 DUP2 MSTORE PUSH1 0x4 ADD PUSH2 0x349 SWAP1 PUSH2 0x11B4 JUMP JUMPDEST PUSH1 0x40 MLOAD DUP1 SWAP2 SUB SWAP1 REVERT JUMPDEST PUSH0 DUP3 DUP3 PUSH1 0x2 ADD SLOAD PUSH2 0x363 SWAP2 SWAP1 PUSH2 0x11FF JUMP JUMPDEST SWAP1 POP DUP1 CALLVALUE EQ PUSH2 0x3A7 JUMPI PUSH1 0x40 MLOAD PUSH32 0x8C379A000000000000000000000000000000000000000000000000000000000 DUP2 MSTORE PUSH1 0x4 ADD PUSH2 0x39E SWAP1 PUSH2 0x128A JUMP JUMPDEST PUSH1 0x40 MLOAD DUP1 SWAP2 SUB SWAP1 REVERT JUMPDEST DUP1 CALLVALUE GT ISZERO PUSH2 0x3EA JUMPI PUSH1 0x40 MLOAD PUSH32 0x8C379A000000000000000000000000000000000000000000000000000000000 DUP2 MSTORE PUSH1 0x4 ADD PUSH2 0x3E1 SWAP1 PUSH2 0x12F2 JUMP JUMPDEST PUSH1 0x40 MLOAD DUP1 SWAP2 SUB SWAP1 REVERT JUMPDEST PUSH2 0x3F2 PUSH2 0x931 JUMP JUMPDEST PUSH20 0xFFFFFFFFFFFFFFFFFFFFFFFFFFFFFFFFFFFFFFFF AND CALLER PUSH20 0xFFFFFFFFFFFFFFFFFFFFFFFFFFFFFFFFFFFFFFFF AND DUP6 PUSH32 0x795C01707EEA3BE54397E23C120AFCE586E315E3148EB7EA2A28D3331AB57F67 DUP7 PUSH1 0x40 MLOAD PUSH2 0x44F SWAP2 SWAP1 PUSH2 0xD5F JUMP JUMPDEST PUSH1 0x40 MLOAD DUP1 SWAP2 SUB SWAP1 LOG4 PUSH2 0x45F PUSH2 0x931 JUMP JUMPDEST PUSH20 0xFFFFFFFFFFFFFFFFFFFFFFFFFFFFFFFFFFFFFFFF AND PUSH2 0x8FC CALLVALUE SWAP1 DUP2 ISZERO MUL SWAP1 PUSH1 0x40 MLOAD PUSH0 PUSH1 0x40 MLOAD DUP1 DUP4 SUB DUP2 DUP6 DUP9 DUP9 CALL SWAP4 POP POP POP POP ISZERO DUP1 ISZERO PUSH2 0x4A1 JUMPI RETURNDATASIZE PUSH0 DUP1 RETURNDATACOPY RETURNDATASIZE PUSH0 REVERT JUMPDEST POP POP POP POP POP JUMP JUMPDEST PUSH1 0x4 DUP2 DUP2 SLOAD DUP2 LT PUSH2 0x4B7 JUMPI PUSH0 DUP1 REVERT JUMPDEST SWAP1 PUSH0 MSTORE PUSH1 0x20 PUSH0 KECCAK256 ADD PUSH0 SWAP2 POP SWAP1 POP SLOAD DUP2 JUMP JUMPDEST PUSH1 0x2 PUSH1 0x20 MSTORE DUP1 PUSH0 MSTORE PUSH1 0x40 PUSH0 KECCAK256 PUSH0 SWAP2 POP SLOAD SWAP1 PUSH2 0x100 EXP SWAP1 DIV PUSH1 0xFF AND DUP2 JUMP JUMPDEST PUSH1 0x60 DUP1 PUSH0 DUP1 PUSH0 DUP1 PUSH1 0x1 PUSH0 DUP9 DUP2 MSTORE PUSH1 0x20 ADD SWAP1 DUP2 MSTORE PUSH1 0x20 ADD PUSH0 KECCAK256 PUSH1 0x40 MLOAD DUP1 PUSH1 0xA0 ADD PUSH1 0x40 MSTORE SWAP1 DUP2 PUSH0 DUP3 ADD DUP1 SLOAD PUSH2 0x517 SWAP1 PUSH2 0x133D JUMP JUMPDEST DUP1 PUSH1 0x1F ADD PUSH1 0x20 DUP1 SWAP2 DIV MUL PUSH1 0x20 ADD PUSH1 0x40 MLOAD SWAP1 DUP2 ADD PUSH1 0x40 MSTORE DUP1 SWAP3 SWAP2 SWAP1 DUP2 DUP2 MSTORE PUSH1 0x20 ADD DUP3 DUP1 SLOAD PUSH2 0x543 SWAP1 PUSH2 0x133D JUMP JUMPDEST DUP1 ISZERO PUSH2 0x58E JUMPI DUP1 PUSH1 0x1F LT PUSH2 0x565 JUMPI PUSH2 0x100 DUP1 DUP4 SLOAD DIV MUL DUP4 MSTORE SWAP2 PUSH1 0x20 ADD SWAP2 PUSH2 0x58E JUMP JUMPDEST DUP3 ADD SWAP2 SWAP1 PUSH0 MSTORE PUSH1 0x20 PUSH0 KECCAK256 SWAP1 JUMPDEST DUP2 SLOAD DUP2 MSTORE SWAP1 PUSH1 0x1 ADD SWAP1 PUSH1 0x20 ADD DUP1 DUP4 GT PUSH2 0x571 JUMPI DUP3 SWAP1 SUB PUSH1 0x1F AND DUP3 ADD SWAP2 JUMPDEST POP POP POP POP POP DUP2 MSTORE PUSH1 0x20 ADD PUSH1 0x1 DUP3 ADD DUP1 SLOAD PUSH2 0x5A7 SWAP1 PUSH2 0x133D JUMP JUMPDEST DUP1 PUSH1 0x1F ADD PUSH1 0x20 DUP1 SWAP2 DIV MUL PUSH1 0x20 ADD PUSH1 0x40 MLOAD SWAP1 DUP2 ADD PUSH1 0x40 MSTORE DUP1 SWAP3 SWAP2 SWAP1 DUP2 DUP2 MSTORE PUSH1 0x20 ADD DUP3 DUP1 SLOAD PUSH2 0x5D3 SWAP1 PUSH2 0x133D JUMP JUMPDEST DUP1 ISZERO PUSH2 0x61E JUMPI DUP1 PUSH1 0x1F LT PUSH2 0x5F5 JUMPI PUSH2 0x100 DUP1 DUP4 SLOAD DIV MUL DUP4 MSTORE SWAP2 PUSH1 0x20 ADD SWAP2 PUSH2 0x61E JUMP JUMPDEST DUP3 ADD SWAP2 SWAP1 PUSH0 MSTORE PUSH1 0x20 PUSH0 KECCAK256 SWAP1 JUMPDEST DUP2 SLOAD DUP2 MSTORE SWAP1 PUSH1 0x1 ADD SWAP1 PUSH1 0x20 ADD DUP1 DUP4 GT PUSH2 0x601 JUMPI DUP3 SWAP1 SUB PUSH1 0x1F AND DUP3 ADD SWAP2 JUMPDEST POP POP POP POP POP DUP2 MSTORE PUSH1 0x20 ADD PUSH1 0x2 DUP3 ADD SLOAD DUP2 MSTORE PUSH1 0x20 ADD PUSH1 0x3 DUP3 ADD SLOAD DUP2 MSTORE PUSH1 0x20 ADD PUSH1 0x4 DUP3 ADD PUSH0 SWAP1 SLOAD SWAP1 PUSH2 0x100 EXP SWAP1 DIV PUSH1 0xFF AND ISZERO ISZERO ISZERO ISZERO DUP2 MSTORE POP POP SWAP1 POP DUP1 PUSH0 ADD MLOAD DUP2 PUSH1 0x20 ADD MLOAD DUP3 PUSH1 0x40 ADD MLOAD DUP4 PUSH1 0x60 ADD MLOAD DUP5 PUSH1 0x80 ADD MLOAD SWAP6 POP SWAP6 POP SWAP6 POP SWAP6 POP SWAP6 POP POP SWAP2 SWAP4 SWAP6 SWAP1 SWAP3 SWAP5 POP JUMP JUMPDEST PUSH1 0x1 PUSH1 0x20 MSTORE DUP1 PUSH0 MSTORE PUSH1 0x40 PUSH0 KECCAK256 PUSH0 SWAP2 POP SWAP1 POP DUP1 PUSH0 ADD DUP1 SLOAD PUSH2 0x6A2 SWAP1 PUSH2 0x133D JUMP JUMPDEST DUP1 PUSH1 0x1F ADD PUSH1 0x20 DUP1 SWAP2 DIV MUL PUSH1 0x20 ADD PUSH1 0x40 MLOAD SWAP1 DUP2 ADD PUSH1 0x40 MSTORE DUP1 SWAP3 SWAP2 SWAP1 DUP2 DUP2 MSTORE PUSH1 0x20 ADD DUP3 DUP1 SLOAD PUSH2 0x6CE SWAP1 PUSH2 0x133D JUMP JUMPDEST DUP1 ISZERO PUSH2 0x719 JUMPI DUP1 PUSH1 0x1F LT PUSH2 0x6F0 JUMPI PUSH2 0x100 DUP1 DUP4 SLOAD DIV MUL DUP4 MSTORE SWAP2 PUSH1 0x20 ADD SWAP2 PUSH2 0x719 JUMP JUMPDEST DUP3 ADD SWAP2 SWAP1 PUSH0 MSTORE PUSH1 0x20 PUSH0 KECCAK256 SWAP1 JUMPDEST DUP2 SLOAD DUP2 MSTORE SWAP1 PUSH1 0x1 ADD SWAP1 PUSH1 0x20 ADD DUP1 DUP4 GT PUSH2 0x6FC JUMPI DUP3 SWAP1 SUB PUSH1 0x1F AND DUP3 ADD SWAP2 JUMPDEST POP POP POP POP POP SWAP1 DUP1 PUSH1 0x1 ADD DUP1 SLOAD PUSH2 0x72E SWAP1 PUSH2 0x133D JUMP JUMPDEST DUP1 PUSH1 0x1F ADD PUSH1 0x20 DUP1 SWAP2 DIV MUL PUSH1 0x20 ADD PUSH1 0x40 MLOAD SWAP1 DUP2 ADD PUSH1 0x40 MSTORE DUP1 SWAP3 SWAP2 SWAP1 DUP2 DUP2 MSTORE PUSH1 0x20 ADD DUP3 DUP1 SLOAD PUSH2 0x75A SWAP1 PUSH2 0x133D JUMP JUMPDEST DUP1 ISZERO PUSH2 0x7A5 JUMPI DUP1 PUSH1 0x1F LT PUSH2 0x77C JUMPI PUSH2 0x100 DUP1 DUP4 SLOAD DIV MUL DUP4 MSTORE SWAP2 PUSH1 0x20 ADD SWAP2 PUSH2 0x7A5 JUMP JUMPDEST DUP3 ADD SWAP2 SWAP1 PUSH0 MSTORE PUSH1 0x20 PUSH0 KECCAK256 SWAP1 JUMPDEST DUP2 SLOAD DUP2 MSTORE SWAP1 PUSH1 0x1 ADD SWAP1 PUSH1 0x20 ADD DUP1 DUP4 GT PUSH2 0x788 JUMPI DUP3 SWAP1 SUB PUSH1 0x1F AND DUP3 ADD SWAP2 JUMPDEST POP POP POP POP POP SWAP1 DUP1 PUSH1 0x2 ADD SLOAD SWAP1 DUP1 PUSH1 0x3 ADD SLOAD SWAP1 DUP1 PUSH1 0x4 ADD PUSH0 SWAP1 SLOAD SWAP1 PUSH2 0x100 EXP SWAP1 DIV PUSH1 0xFF AND SWAP1 POP DUP6 JUMP JUMPDEST PUSH2 0x7D5 PUSH2 0xB54 JUMP JUMPDEST PUSH2 0x7DE PUSH0 PUSH2 0xBDB JUMP JUMPDEST JUMP JUMPDEST PUSH1 0x3 DUP2 DUP2 SLOAD DUP2 LT PUSH2 0x7EF JUMPI PUSH0 DUP1 REVERT JUMPDEST SWAP1 PUSH0 MSTORE PUSH1 0x20 PUSH0 KECCAK256 ADD PUSH0 SWAP2 POP SLOAD SWAP1 PUSH2 0x100 EXP SWAP1 DIV PUSH20 0xFFFFFFFFFFFFFFFFFFFFFFFFFFFFFFFFFFFFFFFF AND DUP2 JUMP JUMPDEST PUSH2 0x823 PUSH2 0xB54 JUMP JUMPDEST PUSH0 PUSH1 0x1 PUSH0 DUP5 DUP2 MSTORE PUSH1 0x20 ADD SWAP1 DUP2 MSTORE PUSH1 0x20 ADD PUSH0 KECCAK256 SWAP1 POP DUP2 DUP2 PUSH1 0x3 ADD SLOAD LT ISZERO PUSH2 0x87E JUMPI PUSH1 0x40 MLOAD PUSH32 0x8C379A000000000000000000000000000000000000000000000000000000000 DUP2 MSTORE PUSH1 0x4 ADD PUSH2 0x875 SWAP1 PUSH2 0x13DD JUMP JUMPDEST PUSH1 0x40 MLOAD DUP1 SWAP2 SUB SWAP1 REVERT JUMPDEST DUP2 DUP2 PUSH1 0x3 ADD PUSH0 DUP3 DUP3 SLOAD PUSH2 0x891 SWAP2 SWAP1 PUSH2 0x13FB JUMP JUMPDEST SWAP3 POP POP DUP2 SWAP1 SSTORE POP PUSH0 DUP2 PUSH1 0x3 ADD SLOAD SUB PUSH2 0x8BF JUMPI PUSH0 DUP2 PUSH1 0x4 ADD PUSH0 PUSH2 0x100 EXP DUP2 SLOAD DUP2 PUSH1 0xFF MUL NOT AND SWAP1 DUP4 ISZERO ISZERO MUL OR SWAP1 SSTORE POP JUMPDEST PUSH2 0x8C7 PUSH2 0x931 JUMP JUMPDEST PUSH20 0xFFFFFFFFFFFFFFFFFFFFFFFFFFFFFFFFFFFFFFFF AND CALLER PUSH20 0xFFFFFFFFFFFFFFFFFFFFFFFFFFFFFFFFFFFFFFFF AND DUP5 PUSH32 0xA91BF27DE3B2AC5C122E315CFB7EE965404A4738B4E79F4ED1DC5D12A494A42A DUP6 PUSH1 0x40 MLOAD PUSH2 0x924 SWAP2 SWAP1 PUSH2 0xD5F JUMP JUMPDEST PUSH1 0x40 MLOAD DUP1 SWAP2 SUB SWAP1 LOG4 POP POP POP JUMP JUMPDEST PUSH0 DUP1 PUSH0 SWAP1 SLOAD SWAP1 PUSH2 0x100 EXP SWAP1 DIV PUSH20 0xFFFFFFFFFFFFFFFFFFFFFFFFFFFFFFFFFFFFFFFF AND SWAP1 POP SWAP1 JUMP JUMPDEST PUSH2 0x960 PUSH2 0xB54 JUMP JUMPDEST PUSH0 PUSH20 0xFFFFFFFFFFFFFFFFFFFFFFFFFFFFFFFFFFFFFFFF AND DUP2 PUSH20 0xFFFFFFFFFFFFFFFFFFFFFFFFFFFFFFFFFFFFFFFF AND SUB PUSH2 0x9D0 JUMPI PUSH0 PUSH1 0x40 MLOAD PUSH32 0x1E4FBDF700000000000000000000000000000000000000000000000000000000 DUP2 MSTORE PUSH1 0x4 ADD PUSH2 0x9C7 SWAP2 SWAP1 PUSH2 0xF0E JUMP JUMPDEST PUSH1 0x40 MLOAD DUP1 SWAP2 SUB SWAP1 REVERT JUMPDEST PUSH2 0x9D9 DUP2 PUSH2 0xBDB JUMP JUMPDEST POP JUMP JUMPDEST PUSH2 0x9E4 PUSH2 0xB54 JUMP JUMPDEST PUSH0 PUSH1 0x1 PUSH0 DUP8 DUP2 MSTORE PUSH1 0x20 ADD SWAP1 DUP2 MSTORE PUSH1 0x20 ADD PUSH0 KECCAK256 PUSH1 0x2 ADD SLOAD EQ PUSH2 0xA3A JUMPI PUSH1 0x40 MLOAD PUSH32 0x8C379A000000000000000000000000000000000000000000000000000000000 DUP2 MSTORE PUSH1 0x4 ADD PUSH2 0xA31 SWAP1 PUSH2 0x149E JUMP JUMPDEST PUSH1 0x40 MLOAD DUP1 SWAP2 SUB SWAP1 REVERT JUMPDEST PUSH1 0x40 MLOAD DUP1 PUSH1 0xA0 ADD PUSH1 0x40 MSTORE DUP1 DUP6 DUP2 MSTORE PUSH1 0x20 ADD DUP5 DUP2 MSTORE PUSH1 0x20 ADD PUSH8 0xDE0B6B3A7640000 DUP5 PUSH2 0xA65 SWAP2 SWAP1 PUSH2 0x11FF JUMP JUMPDEST DUP2 MSTORE PUSH1 0x20 ADD DUP3 DUP2 MSTORE PUSH1 0x20 ADD PUSH0 DUP4 GT ISZERO ISZERO DUP2 MSTORE POP PUSH1 0x1 PUSH0 DUP8 DUP2 MSTORE PUSH1 0x20 ADD SWAP1 DUP2 MSTORE PUSH1 0x20 ADD PUSH0 KECCAK256 PUSH0 DUP3 ADD MLOAD DUP2 PUSH0 ADD SWAP1 DUP2 PUSH2 0xA9C SWAP2 SWAP1 PUSH2 0x1659 JUMP JUMPDEST POP PUSH1 0x20 DUP3 ADD MLOAD DUP2 PUSH1 0x1 ADD SWAP1 DUP2 PUSH2 0xAB2 SWAP2 SWAP1 PUSH2 0x1659 JUMP JUMPDEST POP PUSH1 0x40 DUP3 ADD MLOAD DUP2 PUSH1 0x2 ADD SSTORE PUSH1 0x60 DUP3 ADD MLOAD DUP2 PUSH1 0x3 ADD SSTORE PUSH1 0x80 DUP3 ADD MLOAD DUP2 PUSH1 0x4 ADD PUSH0 PUSH2 0x100 EXP DUP2 SLOAD DUP2 PUSH1 0xFF MUL NOT AND SWAP1 DUP4 ISZERO ISZERO MUL OR SWAP1 SSTORE POP SWAP1 POP POP PUSH1 0x4 DUP6 SWAP1 DUP1 PUSH1 0x1 DUP2 SLOAD ADD DUP1 DUP3 SSTORE DUP1 SWAP2 POP POP PUSH1 0x1 SWAP1 SUB SWAP1 PUSH0 MSTORE PUSH1 0x20 PUSH0 KECCAK256 ADD PUSH0 SWAP1 SWAP2 SWAP1 SWAP2 SWAP1 SWAP2 POP SSTORE DUP5 PUSH32 0x722C04650224F771C04EC5712C74689980B3DDB4EAA233CD8F9C72D7DA7FBE29 DUP6 DUP6 DUP6 DUP6 PUSH1 0x40 MLOAD PUSH2 0xB45 SWAP5 SWAP4 SWAP3 SWAP2 SWAP1 PUSH2 0x1728 JUMP JUMPDEST PUSH1 0x40 MLOAD DUP1 SWAP2 SUB SWAP1 LOG2 POP POP POP POP POP JUMP JUMPDEST PUSH2 0xB5C PUSH2 0xC9C JUMP JUMPDEST PUSH20 0xFFFFFFFFFFFFFFFFFFFFFFFFFFFFFFFFFFFFFFFF AND PUSH2 0xB7A PUSH2 0x931 JUMP JUMPDEST PUSH20 0xFFFFFFFFFFFFFFFFFFFFFFFFFFFFFFFFFFFFFFFF AND EQ PUSH2 0xBD9 JUMPI PUSH2 0xB9D PUSH2 0xC9C JUMP JUMPDEST PUSH1 0x40 MLOAD PUSH32 0x118CDAA700000000000000000000000000000000000000000000000000000000 DUP2 MSTORE PUSH1 0x4 ADD PUSH2 0xBD0 SWAP2 SWAP1 PUSH2 0xF0E JUMP JUMPDEST PUSH1 0x40 MLOAD DUP1 SWAP2 SUB SWAP1 REVERT JUMPDEST JUMP JUMPDEST PUSH0 DUP1 PUSH0 SWAP1 SLOAD SWAP1 PUSH2 0x100 EXP SWAP1 DIV PUSH20 0xFFFFFFFFFFFFFFFFFFFFFFFFFFFFFFFFFFFFFFFF AND SWAP1 POP DUP2 PUSH0 DUP1 PUSH2 0x100 EXP DUP2 SLOAD DUP2 PUSH20 0xFFFFFFFFFFFFFFFFFFFFFFFFFFFFFFFFFFFFFFFF MUL NOT AND SWAP1 DUP4 PUSH20 0xFFFFFFFFFFFFFFFFFFFFFFFFFFFFFFFFFFFFFFFF AND MUL OR SWAP1 SSTORE POP DUP2 PUSH20 0xFFFFFFFFFFFFFFFFFFFFFFFFFFFFFFFFFFFFFFFF AND DUP2 PUSH20 0xFFFFFFFFFFFFFFFFFFFFFFFFFFFFFFFFFFFFFFFF AND PUSH32 0x8BE0079C531659141344CD1FD0A4F28419497F9722A3DAAFE3B4186F6B6457E0 PUSH1 0x40 MLOAD PUSH1 0x40 MLOAD DUP1 SWAP2 SUB SWAP1 LOG3 POP POP JUMP JUMPDEST PUSH0 CALLER SWAP1 POP SWAP1 JUMP JUMPDEST PUSH0 PUSH1 0x40 MLOAD SWAP1 POP SWAP1 JUMP JUMPDEST PUSH0 DUP1 REVERT JUMPDEST PUSH0 DUP1 REVERT JUMPDEST PUSH0 DUP2 SWAP1 POP SWAP2 SWAP1 POP JUMP JUMPDEST PUSH2 0xCC6 DUP2 PUSH2 0xCB4 JUMP JUMPDEST DUP2 EQ PUSH2 0xCD0 JUMPI PUSH0 DUP1 REVERT JUMPDEST POP JUMP JUMPDEST PUSH0 DUP2 CALLDATALOAD SWAP1 POP PUSH2 0xCE1 DUP2 PUSH2 0xCBD JUMP JUMPDEST SWAP3 SWAP2 POP POP JUMP JUMPDEST PUSH0 DUP1 PUSH1 0x40 DUP4 DUP6 SUB SLT ISZERO PUSH2 0xCFD JUMPI PUSH2 0xCFC PUSH2 0xCAC JUMP JUMPDEST JUMPDEST PUSH0 PUSH2 0xD0A DUP6 DUP3 DUP7 ADD PUSH2 0xCD3 JUMP JUMPDEST SWAP3 POP POP PUSH1 0x20 PUSH2 0xD1B DUP6 DUP3 DUP7 ADD PUSH2 0xCD3 JUMP JUMPDEST SWAP2 POP POP SWAP3 POP SWAP3 SWAP1 POP JUMP JUMPDEST PUSH0 PUSH1 0x20 DUP3 DUP5 SUB SLT ISZERO PUSH2 0xD3A JUMPI PUSH2 0xD39 PUSH2 0xCAC JUMP JUMPDEST JUMPDEST PUSH0 PUSH2 0xD47 DUP5 DUP3 DUP6 ADD PUSH2 0xCD3 JUMP JUMPDEST SWAP2 POP POP SWAP3 SWAP2 POP POP JUMP JUMPDEST PUSH2 0xD59 DUP2 PUSH2 0xCB4 JUMP JUMPDEST DUP3 MSTORE POP POP JUMP JUMPDEST PUSH0 PUSH1 0x20 DUP3 ADD SWAP1 POP PUSH2 0xD72 PUSH0 DUP4 ADD DUP5 PUSH2 0xD50 JUMP JUMPDEST SWAP3 SWAP2 POP POP JUMP JUMPDEST PUSH0 PUSH20 0xFFFFFFFFFFFFFFFFFFFFFFFFFFFFFFFFFFFFFFFF DUP3 AND SWAP1 POP SWAP2 SWAP1 POP JUMP JUMPDEST PUSH0 PUSH2 0xDA1 DUP3 PUSH2 0xD78 JUMP JUMPDEST SWAP1 POP SWAP2 SWAP1 POP JUMP JUMPDEST PUSH2 0xDB1 DUP2 PUSH2 0xD97 JUMP JUMPDEST DUP2 EQ PUSH2 0xDBB JUMPI PUSH0 DUP1 REVERT JUMPDEST POP JUMP JUMPDEST PUSH0 DUP2 CALLDATALOAD SWAP1 POP PUSH2 0xDCC DUP2 PUSH2 0xDA8 JUMP JUMPDEST SWAP3 SWAP2 POP POP JUMP JUMPDEST PUSH0 PUSH1 0x20 DUP3 DUP5 SUB SLT ISZERO PUSH2 0xDE7 JUMPI PUSH2 0xDE6 PUSH2 0xCAC JUMP JUMPDEST JUMPDEST PUSH0 PUSH2 0xDF4 DUP5 DUP3 DUP6 ADD PUSH2 0xDBE JUMP JUMPDEST SWAP2 POP POP SWAP3 SWAP2 POP POP JUMP JUMPDEST PUSH0 DUP2 ISZERO ISZERO SWAP1 POP SWAP2 SWAP1 POP JUMP JUMPDEST PUSH2 0xE11 DUP2 PUSH2 0xDFD JUMP JUMPDEST DUP3 MSTORE POP POP JUMP JUMPDEST PUSH0 PUSH1 0x20 DUP3 ADD SWAP1 POP PUSH2 0xE2A PUSH0 DUP4 ADD DUP5 PUSH2 0xE08 JUMP JUMPDEST SWAP3 SWAP2 POP POP JUMP JUMPDEST PUSH0 DUP2 MLOAD SWAP1 POP SWAP2 SWAP1 POP JUMP JUMPDEST PUSH0 DUP3 DUP3 MSTORE PUSH1 0x20 DUP3 ADD SWAP1 POP SWAP3 SWAP2 POP POP JUMP JUMPDEST DUP3 DUP2 DUP4 MCOPY PUSH0 DUP4 DUP4 ADD MSTORE POP POP POP JUMP JUMPDEST PUSH0 PUSH1 0x1F NOT PUSH1 0x1F DUP4 ADD AND SWAP1 POP SWAP2 SWAP1 POP JUMP JUMPDEST PUSH0 PUSH2 0xE72 DUP3 PUSH2 0xE30 JUMP JUMPDEST PUSH2 0xE7C DUP2 DUP6 PUSH2 0xE3A JUMP JUMPDEST SWAP4 POP PUSH2 0xE8C DUP2 DUP6 PUSH1 0x20 DUP7 ADD PUSH2 0xE4A JUMP JUMPDEST PUSH2 0xE95 DUP2 PUSH2 0xE58 JUMP JUMPDEST DUP5 ADD SWAP2 POP POP SWAP3 SWAP2 POP POP JUMP JUMPDEST PUSH0 PUSH1 0xA0 DUP3 ADD SWAP1 POP DUP2 DUP2 SUB PUSH0 DUP4 ADD MSTORE PUSH2 0xEB8 DUP2 DUP9 PUSH2 0xE68 JUMP JUMPDEST SWAP1 POP DUP2 DUP2 SUB PUSH1 0x20 DUP4 ADD MSTORE PUSH2 0xECC DUP2 DUP8 PUSH2 0xE68 JUMP JUMPDEST SWAP1 POP PUSH2 0xEDB PUSH1 0x40 DUP4 ADD DUP7 PUSH2 0xD50 JUMP JUMPDEST PUSH2 0xEE8 PUSH1 0x60 DUP4 ADD DUP6 PUSH2 0xD50 JUMP JUMPDEST PUSH2 0xEF5 PUSH1 0x80 DUP4 ADD DUP5 PUSH2 0xE08 JUMP JUMPDEST SWAP7 SWAP6 POP POP POP POP POP POP JUMP JUMPDEST PUSH2 0xF08 DUP2 PUSH2 0xD97 JUMP JUMPDEST DUP3 MSTORE POP POP JUMP JUMPDEST PUSH0 PUSH1 0x20 DUP3 ADD SWAP1 POP PUSH2 0xF21 PUSH0 DUP4 ADD DUP5 PUSH2 0xEFF JUMP JUMPDEST SWAP3 SWAP2 POP POP JUMP JUMPDEST PUSH0 DUP1 REVERT JUMPDEST PUSH0 DUP1 REVERT JUMPDEST PUSH32 0x4E487B7100000000000000000000000000000000000000000000000000000000 PUSH0 MSTORE PUSH1 0x41 PUSH1 0x4 MSTORE PUSH1 0x24 PUSH0 REVERT JUMPDEST PUSH2 0xF65 DUP3 PUSH2 0xE58 JUMP JUMPDEST DUP2 ADD DUP2 DUP2 LT PUSH8 0xFFFFFFFFFFFFFFFF DUP3 GT OR ISZERO PUSH2 0xF84 JUMPI PUSH2 0xF83 PUSH2 0xF2F JUMP JUMPDEST JUMPDEST DUP1 PUSH1 0x40 MSTORE POP POP POP JUMP JUMPDEST PUSH0 PUSH2 0xF96 PUSH2 0xCA3 JUMP JUMPDEST SWAP1 POP PUSH2 0xFA2 DUP3 DUP3 PUSH2 0xF5C JUMP JUMPDEST SWAP2 SWAP1 POP JUMP JUMPDEST PUSH0 PUSH8 0xFFFFFFFFFFFFFFFF DUP3 GT ISZERO PUSH2 0xFC1 JUMPI PUSH2 0xFC0 PUSH2 0xF2F JUMP JUMPDEST JUMPDEST PUSH2 0xFCA DUP3 PUSH2 0xE58 JUMP JUMPDEST SWAP1 POP PUSH1 0x20 DUP2 ADD SWAP1 POP SWAP2 SWAP1 POP JUMP JUMPDEST DUP3 DUP2 DUP4 CALLDATACOPY PUSH0 DUP4 DUP4 ADD MSTORE POP POP POP JUMP JUMPDEST PUSH0 PUSH2 0xFF7 PUSH2 0xFF2 DUP5 PUSH2 0xFA7 JUMP JUMPDEST PUSH2 0xF8D JUMP JUMPDEST SWAP1 POP DUP3 DUP2 MSTORE PUSH1 0x20 DUP2 ADD DUP5 DUP5 DUP5 ADD GT ISZERO PUSH2 0x1013 JUMPI PUSH2 0x1012 PUSH2 0xF2B JUMP JUMPDEST JUMPDEST PUSH2 0x101E DUP5 DUP3 DUP6 PUSH2 0xFD7 JUMP JUMPDEST POP SWAP4 SWAP3 POP POP POP JUMP JUMPDEST PUSH0 DUP3 PUSH1 0x1F DUP4 ADD SLT PUSH2 0x103A JUMPI PUSH2 0x1039 PUSH2 0xF27 JUMP JUMPDEST JUMPDEST DUP2 CALLDATALOAD PUSH2 0x104A DUP5 DUP3 PUSH1 0x20 DUP7 ADD PUSH2 0xFE5 JUMP JUMPDEST SWAP2 POP POP SWAP3 SWAP2 POP POP JUMP JUMPDEST PUSH0 DUP1 PUSH0 DUP1 PUSH0 PUSH1 0xA0 DUP7 DUP9 SUB SLT ISZERO PUSH2 0x106C JUMPI PUSH2 0x106B PUSH2 0xCAC JUMP JUMPDEST JUMPDEST PUSH0 PUSH2 0x1079 DUP9 DUP3 DUP10 ADD PUSH2 0xCD3 JUMP JUMPDEST SWAP6 POP POP PUSH1 0x20 DUP7 ADD CALLDATALOAD PUSH8 0xFFFFFFFFFFFFFFFF DUP2 GT ISZERO PUSH2 0x109A JUMPI PUSH2 0x1099 PUSH2 0xCB0 JUMP JUMPDEST JUMPDEST PUSH2 0x10A6 DUP9 DUP3 DUP10 ADD PUSH2 0x1026 JUMP JUMPDEST SWAP5 POP POP PUSH1 0x40 DUP7 ADD CALLDATALOAD PUSH8 0xFFFFFFFFFFFFFFFF DUP2 GT ISZERO PUSH2 0x10C7 JUMPI PUSH2 0x10C6 PUSH2 0xCB0 JUMP JUMPDEST JUMPDEST PUSH2 0x10D3 DUP9 DUP3 DUP10 ADD PUSH2 0x1026 JUMP JUMPDEST SWAP4 POP POP PUSH1 0x60 PUSH2 0x10E4 DUP9 DUP3 DUP10 ADD PUSH2 0xCD3 JUMP JUMPDEST SWAP3 POP POP PUSH1 0x80 PUSH2 0x10F5 DUP9 DUP3 DUP10 ADD PUSH2 0xCD3 JUMP JUMPDEST SWAP2 POP POP SWAP3 SWAP6 POP SWAP3 SWAP6 SWAP1 SWAP4 POP JUMP JUMPDEST PUSH32 0x5468697320626F6F6B206973206E6F7420617661696C61626C652E0000000000 PUSH0 DUP3 ADD MSTORE POP JUMP JUMPDEST PUSH0 PUSH2 0x1136 PUSH1 0x1B DUP4 PUSH2 0xE3A JUMP JUMPDEST SWAP2 POP PUSH2 0x1141 DUP3 PUSH2 0x1102 JUMP JUMPDEST PUSH1 0x20 DUP3 ADD SWAP1 POP SWAP2 SWAP1 POP JUMP JUMPDEST PUSH0 PUSH1 0x20 DUP3 ADD SWAP1 POP DUP2 DUP2 SUB PUSH0 DUP4 ADD MSTORE PUSH2 0x1163 DUP2 PUSH2 0x112A JUMP JUMPDEST SWAP1 POP SWAP2 SWAP1 POP JUMP JUMPDEST PUSH32 0x4E6F7420656E6F7567682073746F636B20617661696C61626C652E0000000000 PUSH0 DUP3 ADD MSTORE POP JUMP JUMPDEST PUSH0 PUSH2 0x119E PUSH1 0x1B DUP4 PUSH2 0xE3A JUMP JUMPDEST SWAP2 POP PUSH2 0x11A9 DUP3 PUSH2 0x116A JUMP JUMPDEST PUSH1 0x20 DUP3 ADD SWAP1 POP SWAP2 SWAP1 POP JUMP JUMPDEST PUSH0 PUSH1 0x20 DUP3 ADD SWAP1 POP DUP2 DUP2 SUB PUSH0 DUP4 ADD MSTORE PUSH2 0x11CB DUP2 PUSH2 0x1192 JUMP JUMPDEST SWAP1 POP SWAP2 SWAP1 POP JUMP JUMPDEST PUSH32 0x4E487B7100000000000000000000000000000000000000000000000000000000 PUSH0 MSTORE PUSH1 0x11 PUSH1 0x4 MSTORE PUSH1 0x24 PUSH0 REVERT JUMPDEST PUSH0 PUSH2 0x1209 DUP3 PUSH2 0xCB4 JUMP JUMPDEST SWAP2 POP PUSH2 0x1214 DUP4 PUSH2 0xCB4 JUMP JUMPDEST SWAP3 POP DUP3 DUP3 MUL PUSH2 0x1222 DUP2 PUSH2 0xCB4 JUMP JUMPDEST SWAP2 POP DUP3 DUP3 DIV DUP5 EQ DUP4 ISZERO OR PUSH2 0x1239 JUMPI PUSH2 0x1238 PUSH2 0x11D2 JUMP JUMPDEST JUMPDEST POP SWAP3 SWAP2 POP POP JUMP JUMPDEST PUSH32 0x496E636F7272656374207061796D656E7420616D6F756E742E00000000000000 PUSH0 DUP3 ADD MSTORE POP JUMP JUMPDEST PUSH0 PUSH2 0x1274 PUSH1 0x19 DUP4 PUSH2 0xE3A JUMP JUMPDEST SWAP2 POP PUSH2 0x127F DUP3 PUSH2 0x1240 JUMP JUMPDEST PUSH1 0x20 DUP3 ADD SWAP1 POP SWAP2 SWAP1 POP JUMP JUMPDEST PUSH0 PUSH1 0x20 DUP3 ADD SWAP1 POP DUP2 DUP2 SUB PUSH0 DUP4 ADD MSTORE PUSH2 0x12A1 DUP2 PUSH2 0x1268 JUMP JUMPDEST SWAP1 POP SWAP2 SWAP1 POP JUMP JUMPDEST PUSH32 0x4F7665727061696420666F7220626F6F6B2070757263686173652E0000000000 PUSH0 DUP3 ADD MSTORE POP JUMP JUMPDEST PUSH0 PUSH2 0x12DC PUSH1 0x1B DUP4 PUSH2 0xE3A JUMP JUMPDEST SWAP2 POP PUSH2 0x12E7 DUP3 PUSH2 0x12A8 JUMP JUMPDEST PUSH1 0x20 DUP3 ADD SWAP1 POP SWAP2 SWAP1 POP JUMP JUMPDEST PUSH0 PUSH1 0x20 DUP3 ADD SWAP1 POP DUP2 DUP2 SUB PUSH0 DUP4 ADD MSTORE PUSH2 0x1309 DUP2 PUSH2 0x12D0 JUMP JUMPDEST SWAP1 POP SWAP2 SWAP1 POP JUMP JUMPDEST PUSH32 0x4E487B7100000000000000000000000000000000000000000000000000000000 PUSH0 MSTORE PUSH1 0x22 PUSH1 0x4 MSTORE PUSH1 0x24 PUSH0 REVERT JUMPDEST PUSH0 PUSH1 0x2 DUP3 DIV SWAP1 POP PUSH1 0x1 DUP3 AND DUP1 PUSH2 0x1354 JUMPI PUSH1 0x7F DUP3 AND SWAP2 POP JUMPDEST PUSH1 0x20 DUP3 LT DUP2 SUB PUSH2 0x1367 JUMPI PUSH2 0x1366 PUSH2 0x1310 JUMP JUMPDEST JUMPDEST POP SWAP2 SWAP1 POP JUMP JUMPDEST PUSH32 0x4E6F7420656E6F7567682073746F636B20746F20636F6E6669726D2070757263 PUSH0 DUP3 ADD MSTORE PUSH32 0x686173652E000000000000000000000000000000000000000000000000000000 PUSH1 0x20 DUP3 ADD MSTORE POP JUMP JUMPDEST PUSH0 PUSH2 0x13C7 PUSH1 0x25 DUP4 PUSH2 0xE3A JUMP JUMPDEST SWAP2 POP PUSH2 0x13D2 DUP3 PUSH2 0x136D JUMP JUMPDEST PUSH1 0x40 DUP3 ADD SWAP1 POP SWAP2 SWAP1 POP JUMP JUMPDEST PUSH0 PUSH1 0x20 DUP3 ADD SWAP1 POP DUP2 DUP2 SUB PUSH0 DUP4 ADD MSTORE PUSH2 0x13F4 DUP2 PUSH2 0x13BB JUMP JUMPDEST SWAP1 POP SWAP2 SWAP1 POP JUMP JUMPDEST PUSH0 PUSH2 0x1405 DUP3 PUSH2 0xCB4 JUMP JUMPDEST SWAP2 POP PUSH2 0x1410 DUP4 PUSH2 0xCB4 JUMP JUMPDEST SWAP3 POP DUP3 DUP3 SUB SWAP1 POP DUP2 DUP2 GT ISZERO PUSH2 0x1428 JUMPI PUSH2 0x1427 PUSH2 0x11D2 JUMP JUMPDEST JUMPDEST SWAP3 SWAP2 POP POP JUMP JUMPDEST PUSH32 0x426F6F6B20616C72656164792065786973747320776974682074686973204944 PUSH0 DUP3 ADD MSTORE PUSH32 0x2E00000000000000000000000000000000000000000000000000000000000000 PUSH1 0x20 DUP3 ADD MSTORE POP JUMP JUMPDEST PUSH0 PUSH2 0x1488 PUSH1 0x21 DUP4 PUSH2 0xE3A JUMP JUMPDEST SWAP2 POP PUSH2 0x1493 DUP3 PUSH2 0x142E JUMP JUMPDEST PUSH1 0x40 DUP3 ADD SWAP1 POP SWAP2 SWAP1 POP JUMP JUMPDEST PUSH0 PUSH1 0x20 DUP3 ADD SWAP1 POP DUP2 DUP2 SUB PUSH0 DUP4 ADD MSTORE PUSH2 0x14B5 DUP2 PUSH2 0x147C JUMP JUMPDEST SWAP1 POP SWAP2 SWAP1 POP JUMP JUMPDEST PUSH0 DUP2 SWAP1 POP DUP2 PUSH0 MSTORE PUSH1 0x20 PUSH0 KECCAK256 SWAP1 POP SWAP2 SWAP1 POP JUMP JUMPDEST PUSH0 PUSH1 0x20 PUSH1 0x1F DUP4 ADD DIV SWAP1 POP SWAP2 SWAP1 POP JUMP JUMPDEST PUSH0 DUP3 DUP3 SHL SWAP1 POP SWAP3 SWAP2 POP POP JUMP JUMPDEST PUSH0 PUSH1 0x8 DUP4 MUL PUSH2 0x1518 PUSH32 0xFFFFFFFFFFFFFFFFFFFFFFFFFFFFFFFFFFFFFFFFFFFFFFFFFFFFFFFFFFFFFFFF DUP3 PUSH2 0x14DD JUMP JUMPDEST PUSH2 0x1522 DUP7 DUP4 PUSH2 0x14DD JUMP JUMPDEST SWAP6 POP DUP1 NOT DUP5 AND SWAP4 POP DUP1 DUP7 AND DUP5 OR SWAP3 POP POP POP SWAP4 SWAP3 POP POP POP JUMP JUMPDEST PUSH0 DUP2 SWAP1 POP SWAP2 SWAP1 POP JUMP JUMPDEST PUSH0 PUSH2 0x155D PUSH2 0x1558 PUSH2 0x1553 DUP5 PUSH2 0xCB4 JUMP JUMPDEST PUSH2 0x153A JUMP JUMPDEST PUSH2 0xCB4 JUMP JUMPDEST SWAP1 POP SWAP2 SWAP1 POP JUMP JUMPDEST PUSH0 DUP2 SWAP1 POP SWAP2 SWAP1 POP JUMP JUMPDEST PUSH2 0x1576 DUP4 PUSH2 0x1543 JUMP JUMPDEST PUSH2 0x158A PUSH2 0x1582 DUP3 PUSH2 0x1564 JUMP JUMPDEST DUP5 DUP5 SLOAD PUSH2 0x14E9 JUMP JUMPDEST DUP3 SSTORE POP POP POP POP JUMP JUMPDEST PUSH0 SWAP1 JUMP JUMPDEST PUSH2 0x159E PUSH2 0x1592 JUMP JUMPDEST PUSH2 0x15A9 DUP2 DUP5 DUP5 PUSH2 0x156D JUMP JUMPDEST POP POP POP JUMP JUMPDEST JUMPDEST DUP2 DUP2 LT ISZERO PUSH2 0x15CC JUMPI PUSH2 0x15C1 PUSH0 DUP3 PUSH2 0x1596 JUMP JUMPDEST PUSH1 0x1 DUP2 ADD SWAP1 POP PUSH2 0x15AF JUMP JUMPDEST POP POP JUMP JUMPDEST PUSH1 0x1F DUP3 GT ISZERO PUSH2 0x1611 JUMPI PUSH2 0x15E2 DUP2 PUSH2 0x14BC JUMP JUMPDEST PUSH2 0x15EB DUP5 PUSH2 0x14CE JUMP JUMPDEST DUP2 ADD PUSH1 0x20 DUP6 LT ISZERO PUSH2 0x15FA JUMPI DUP2 SWAP1 POP JUMPDEST PUSH2 0x160E PUSH2 0x1606 DUP6 PUSH2 0x14CE JUMP JUMPDEST DUP4 ADD DUP3 PUSH2 0x15AE JUMP JUMPDEST POP POP JUMPDEST POP POP POP JUMP JUMPDEST PUSH0 DUP3 DUP3 SHR SWAP1 POP SWAP3 SWAP2 POP POP JUMP JUMPDEST PUSH0 PUSH2 0x1631 PUSH0 NOT DUP5 PUSH1 0x8 MUL PUSH2 0x1616 JUMP JUMPDEST NOT DUP1 DUP4 AND SWAP2 POP POP SWAP3 SWAP2 POP POP JUMP JUMPDEST PUSH0 PUSH2 0x1649 DUP4 DUP4 PUSH2 0x1622 JUMP JUMPDEST SWAP2 POP DUP3 PUSH1 0x2 MUL DUP3 OR SWAP1 POP SWAP3 SWAP2 POP POP JUMP JUMPDEST PUSH2 0x1662 DUP3 PUSH2 0xE30 JUMP JUMPDEST PUSH8 0xFFFFFFFFFFFFFFFF DUP2 GT ISZERO PUSH2 0x167B JUMPI PUSH2 0x167A PUSH2 0xF2F JUMP JUMPDEST JUMPDEST PUSH2 0x1685 DUP3 SLOAD PUSH2 0x133D JUMP JUMPDEST PUSH2 0x1690 DUP3 DUP3 DUP6 PUSH2 0x15D0 JUMP JUMPDEST PUSH0 PUSH1 0x20 SWAP1 POP PUSH1 0x1F DUP4 GT PUSH1 0x1 DUP2 EQ PUSH2 0x16C1 JUMPI PUSH0 DUP5 ISZERO PUSH2 0x16AF JUMPI DUP3 DUP8 ADD MLOAD SWAP1 POP JUMPDEST PUSH2 0x16B9 DUP6 DUP3 PUSH2 0x163E JUMP JUMPDEST DUP7 SSTORE POP PUSH2 0x1720 JUMP JUMPDEST PUSH1 0x1F NOT DUP5 AND PUSH2 0x16CF DUP7 PUSH2 0x14BC JUMP JUMPDEST PUSH0 JUMPDEST DUP3 DUP2 LT ISZERO PUSH2 0x16F6 JUMPI DUP5 DUP10 ADD MLOAD DUP3 SSTORE PUSH1 0x1 DUP3 ADD SWAP2 POP PUSH1 0x20 DUP6 ADD SWAP5 POP PUSH1 0x20 DUP2 ADD SWAP1 POP PUSH2 0x16D1 JUMP JUMPDEST DUP7 DUP4 LT ISZERO PUSH2 0x1713 JUMPI DUP5 DUP10 ADD MLOAD PUSH2 0x170F PUSH1 0x1F DUP10 AND DUP3 PUSH2 0x1622 JUMP JUMPDEST DUP4 SSTORE POP JUMPDEST PUSH1 0x1 PUSH1 0x2 DUP9 MUL ADD DUP9 SSTORE POP POP POP JUMPDEST POP POP POP POP POP POP JUMP JUMPDEST PUSH0 PUSH1 0x80 DUP3 ADD SWAP1 POP DUP2 DUP2 SUB PUSH0 DUP4 ADD MSTORE PUSH2 0x1740 DUP2 DUP8 PUSH2 0xE68 JUMP JUMPDEST SWAP1 POP DUP2 DUP2 SUB PUSH1 0x20 DUP4 ADD MSTORE PUSH2 0x1754 DUP2 DUP7 PUSH2 0xE68 JUMP JUMPDEST SWAP1 POP PUSH2 0x1763 PUSH1 0x40 DUP4 ADD DUP6 PUSH2 0xD50 JUMP JUMPDEST PUSH2 0x1770 PUSH1 0x60 DUP4 ADD DUP5 PUSH2 0xD50 JUMP JUMPDEST SWAP6 SWAP5 POP POP POP POP POP JUMP INVALID LOG2 PUSH5 0x6970667358 0x22 SLT KECCAK256 0x4B 0x24 PUSH4 0xF30A374B 0xD2 TLOAD SWAP14 0xE0 BLOCKHASH 0x28 PUSH8 0x61C90274B049BA30 GASLIMIT PREVRANDAO 0xE3 PUSH32 0x7F70E8DC7ED864736F6C634300081A0033000000000000000000000000000000 "
				},
				"gasEstimates": {
					"creation": {
						"codeDepositCost": "1212600",
						"executionCost": "infinite",
						"totalCost": "infinite"
					},
					"external": {
						"addBook(uint256,string,string,uint256,uint256)": "infinite",
						"bookIds(uint256)": "infinite",
						"books(uint256)": "infinite",
						"buyBook(uint256,uint256)": "infinite",
						"confirmPurchase(uint256,uint256)": "infinite",
						"getBooks(uint256)": "infinite",
						"owner()": "2581",
						"renounceOwnership()": "infinite",
						"subscriberList(uint256)": "4966",
						"subscribers(address)": "2878",
						"transferOwnership(address)": "infinite"
					}
				},
				"methodIdentifiers": {
					"addBook(uint256,string,string,uint256,uint256)": "f733719c",
					"bookIds(uint256)": "513073b8",
					"books(uint256)": "68744046",
					"buyBook(uint256,uint256)": "3af8c2d5",
					"confirmPurchase(uint256,uint256)": "8c1af2e0",
					"getBooks(uint256)": "5ac3e19e",
					"owner()": "8da5cb5b",
					"renounceOwnership()": "715018a6",
					"subscriberList(uint256)": "83c2eaba",
					"subscribers(address)": "5745ae28",
					"transferOwnership(address)": "f2fde38b"
				}
			},
			"storageLayout": {
				"storage": [
					{
						"astId": 8,
						"contract": "contracts/BookStoreCls.sol:BookStore",
						"label": "_owner",
						"offset": 0,
						"slot": "0",
						"type": "t_address"
					},
					{
						"astId": 198,
						"contract": "contracts/BookStoreCls.sol:BookStore",
						"label": "books",
						"offset": 0,
						"slot": "1",
						"type": "t_mapping(t_uint256,t_struct(Book)193_storage)"
					},
					{
						"astId": 202,
						"contract": "contracts/BookStoreCls.sol:BookStore",
						"label": "subscribers",
						"offset": 0,
						"slot": "2",
						"type": "t_mapping(t_address,t_bool)"
					},
					{
						"astId": 205,
						"contract": "contracts/BookStoreCls.sol:BookStore",
						"label": "subscriberList",
						"offset": 0,
						"slot": "3",
						"type": "t_array(t_address)dyn_storage"
					},
					{
						"astId": 208,
						"contract": "contracts/BookStoreCls.sol:BookStore",
						"label": "bookIds",
						"offset": 0,
						"slot": "4",
						"type": "t_array(t_uint256)dyn_storage"
					}
				],
				"types": {
					"t_address": {
						"encoding": "inplace",
						"label": "address",
						"numberOfBytes": "20"
					},
					"t_array(t_address)dyn_storage": {
						"base": "t_address",
						"encoding": "dynamic_array",
						"label": "address[]",
						"numberOfBytes": "32"
					},
					"t_array(t_uint256)dyn_storage": {
						"base": "t_uint256",
						"encoding": "dynamic_array",
						"label": "uint256[]",
						"numberOfBytes": "32"
					},
					"t_bool": {
						"encoding": "inplace",
						"label": "bool",
						"numberOfBytes": "1"
					},
					"t_mapping(t_address,t_bool)": {
						"encoding": "mapping",
						"key": "t_address",
						"label": "mapping(address => bool)",
						"numberOfBytes": "32",
						"value": "t_bool"
					},
					"t_mapping(t_uint256,t_struct(Book)193_storage)": {
						"encoding": "mapping",
						"key": "t_uint256",
						"label": "mapping(uint256 => struct BookStore.Book)",
						"numberOfBytes": "32",
						"value": "t_struct(Book)193_storage"
					},
					"t_string_storage": {
						"encoding": "bytes",
						"label": "string",
						"numberOfBytes": "32"
					},
					"t_struct(Book)193_storage": {
						"encoding": "inplace",
						"label": "struct BookStore.Book",
						"members": [
							{
								"astId": 184,
								"contract": "contracts/BookStoreCls.sol:BookStore",
								"label": "title",
								"offset": 0,
								"slot": "0",
								"type": "t_string_storage"
							},
							{
								"astId": 186,
								"contract": "contracts/BookStoreCls.sol:BookStore",
								"label": "author",
								"offset": 0,
								"slot": "1",
								"type": "t_string_storage"
							},
							{
								"astId": 188,
								"contract": "contracts/BookStoreCls.sol:BookStore",
								"label": "price",
								"offset": 0,
								"slot": "2",
								"type": "t_uint256"
							},
							{
								"astId": 190,
								"contract": "contracts/BookStoreCls.sol:BookStore",
								"label": "stock",
								"offset": 0,
								"slot": "3",
								"type": "t_uint256"
							},
							{
								"astId": 192,
								"contract": "contracts/BookStoreCls.sol:BookStore",
								"label": "isAvailable",
								"offset": 0,
								"slot": "4",
								"type": "t_bool"
							}
						],
						"numberOfBytes": "160"
					},
					"t_uint256": {
						"encoding": "inplace",
						"label": "uint256",
						"numberOfBytes": "32"
					}
				}
			},
			"userdoc": {
				"kind": "user",
				"methods": {},
				"version": 1
			}
		}
	}
}