{
	"contracts/Bookstore.sol": {
		"BookStore": {
			"abi": [
				{
					"inputs": [],
					"stateMutability": "nonpayable",
					"type": "constructor"
				},
				{
					"anonymous": false,
					"inputs": [
						{
							"indexed": true,
							"internalType": "uint256",
							"name": "bookId",
							"type": "uint256"
						},
						{
							"indexed": false,
							"internalType": "string",
							"name": "title",
							"type": "string"
						},
						{
							"indexed": false,
							"internalType": "string",
							"name": "author",
							"type": "string"
						},
						{
							"indexed": false,
							"internalType": "uint256",
							"name": "price",
							"type": "uint256"
						},
						{
							"indexed": false,
							"internalType": "uint256",
							"name": "stock",
							"type": "uint256"
						}
					],
					"name": "BookAdded",
					"type": "event"
				},
				{
					"anonymous": false,
					"inputs": [
						{
							"indexed": false,
							"internalType": "uint256[]",
							"name": "bookIds",
							"type": "uint256[]"
						}
					],
					"name": "BookBatchRemoved",
					"type": "event"
				},
				{
					"anonymous": false,
					"inputs": [
						{
							"indexed": false,
							"internalType": "uint256",
							"name": "bookId",
							"type": "uint256"
						},
						{
							"indexed": true,
							"internalType": "address",
							"name": "buyer",
							"type": "address"
						},
						{
							"indexed": false,
							"internalType": "uint256",
							"name": "quantity",
							"type": "uint256"
						}
					],
					"name": "BookPurchased",
					"type": "event"
				},
				{
					"anonymous": false,
					"inputs": [
						{
							"indexed": true,
							"internalType": "uint256",
							"name": "bookId",
							"type": "uint256"
						}
					],
					"name": "BookRemoved",
					"type": "event"
				},
				{
					"inputs": [
						{
							"internalType": "uint256",
							"name": "_bookId",
							"type": "uint256"
						},
						{
							"internalType": "string",
							"name": "_title",
							"type": "string"
						},
						{
							"internalType": "string",
							"name": "_author",
							"type": "string"
						},
						{
							"internalType": "uint256",
							"name": "_stock",
							"type": "uint256"
						},
						{
							"internalType": "uint16",
							"name": "_price",
							"type": "uint16"
						}
					],
					"name": "addBook",
					"outputs": [],
					"stateMutability": "nonpayable",
					"type": "function"
				},
				{
					"inputs": [
						{
							"internalType": "uint256",
							"name": "",
							"type": "uint256"
						}
					],
					"name": "bookIds",
					"outputs": [
						{
							"internalType": "uint256",
							"name": "",
							"type": "uint256"
						}
					],
					"stateMutability": "view",
					"type": "function"
				},
				{
					"inputs": [
						{
							"internalType": "uint256",
							"name": "",
							"type": "uint256"
						}
					],
					"name": "books",
					"outputs": [
						{
							"internalType": "string",
							"name": "title",
							"type": "string"
						},
						{
							"internalType": "string",
							"name": "author",
							"type": "string"
						},
						{
							"internalType": "uint16",
							"name": "price",
							"type": "uint16"
						},
						{
							"internalType": "uint256",
							"name": "stock",
							"type": "uint256"
						},
						{
							"internalType": "bool",
							"name": "isAvailable",
							"type": "bool"
						}
					],
					"stateMutability": "view",
					"type": "function"
				},
				{
					"inputs": [
						{
							"internalType": "uint256",
							"name": "_bookId",
							"type": "uint256"
						},
						{
							"internalType": "uint256",
							"name": "_quantity",
							"type": "uint256"
						},
						{
							"internalType": "uint256",
							"name": "_amount",
							"type": "uint256"
						}
					],
					"name": "buyBook",
					"outputs": [],
					"stateMutability": "payable",
					"type": "function"
				},
				{
					"inputs": [],
					"name": "getAllBooks",
					"outputs": [
						{
							"internalType": "uint256[]",
							"name": "",
							"type": "uint256[]"
						}
					],
					"stateMutability": "view",
					"type": "function"
				},
				{
					"inputs": [
						{
							"internalType": "uint256",
							"name": "_bookId",
							"type": "uint256"
						}
					],
					"name": "getBooks",
					"outputs": [
						{
							"internalType": "string",
							"name": "",
							"type": "string"
						},
						{
							"internalType": "string",
							"name": "",
							"type": "string"
						},
						{
							"internalType": "uint256",
							"name": "",
							"type": "uint256"
						},
						{
							"internalType": "uint256",
							"name": "",
							"type": "uint256"
						},
						{
							"internalType": "bool",
							"name": "",
							"type": "bool"
						}
					],
					"stateMutability": "view",
					"type": "function"
				},
				{
					"inputs": [],
					"name": "getOwnerBalance",
					"outputs": [
						{
							"internalType": "uint256",
							"name": "",
							"type": "uint256"
						}
					],
					"stateMutability": "view",
					"type": "function"
				},
				{
					"inputs": [],
					"name": "getTotalBooksSold",
					"outputs": [
						{
							"internalType": "uint256",
							"name": "",
							"type": "uint256"
						}
					],
					"stateMutability": "view",
					"type": "function"
				},
				{
					"inputs": [],
					"name": "owner",
					"outputs": [
						{
							"internalType": "address",
							"name": "",
							"type": "address"
						}
					],
					"stateMutability": "view",
					"type": "function"
				},
				{
					"inputs": [
						{
							"internalType": "uint256",
							"name": "_bookId",
							"type": "uint256"
						}
					],
					"name": "removeBook",
					"outputs": [],
					"stateMutability": "nonpayable",
					"type": "function"
				},
				{
					"inputs": [
						{
							"internalType": "uint256[]",
							"name": "_bookIds",
							"type": "uint256[]"
						}
					],
					"name": "removeBooks",
					"outputs": [],
					"stateMutability": "nonpayable",
					"type": "function"
				}
			],
			"devdoc": {
				"kind": "dev",
				"methods": {},
				"version": 1
			},
			"evm": {
				"assembly": "    /* \"contracts/Bookstore.sol\":69:4112  contract BookStore {... */\n  mstore(0x40, 0x80)\n    /* \"contracts/Bookstore.sol\":161:212  constructor() {... */\n  callvalue\n  dup1\n  iszero\n  tag_1\n  jumpi\n  0x00\n  dup1\n  revert\ntag_1:\n  pop\n    /* \"contracts/Bookstore.sol\":194:204  msg.sender */\n  caller\n    /* \"contracts/Bookstore.sol\":186:191  owner */\n  0x00\n  dup1\n    /* \"contracts/Bookstore.sol\":186:204  owner = msg.sender */\n  0x0100\n  exp\n  dup2\n  sload\n  dup2\n  0xffffffffffffffffffffffffffffffffffffffff\n  mul\n  not\n  and\n  swap1\n  dup4\n  0xffffffffffffffffffffffffffffffffffffffff\n  and\n  mul\n  or\n  swap1\n  sstore\n  pop\n    /* \"contracts/Bookstore.sol\":69:4112  contract BookStore {... */\n  dataSize(sub_0)\n  dup1\n  dataOffset(sub_0)\n  0x00\n  codecopy\n  0x00\n  return\nstop\n\nsub_0: assembly {\n        /* \"contracts/Bookstore.sol\":69:4112  contract BookStore {... */\n      mstore(0x40, 0x80)\n      jumpi(tag_1, lt(calldatasize, 0x04))\n      shr(0xe0, calldataload(0x00))\n      dup1\n      0x8da5cb5b\n      gt\n      tag_13\n      jumpi\n      dup1\n      0x8da5cb5b\n      eq\n      tag_7\n      jumpi\n      dup1\n      0x9bd30883\n      eq\n      tag_8\n      jumpi\n      dup1\n      0xbec0d799\n      eq\n      tag_9\n      jumpi\n      dup1\n      0xd0289085\n      eq\n      tag_10\n      jumpi\n      dup1\n      0xf346e2b7\n      eq\n      tag_11\n      jumpi\n      dup1\n      0xf98520de\n      eq\n      tag_12\n      jumpi\n      jump(tag_1)\n    tag_13:\n      dup1\n      0x354528e8\n      eq\n      tag_2\n      jumpi\n      dup1\n      0x513073b8\n      eq\n      tag_3\n      jumpi\n      dup1\n      0x590791f2\n      eq\n      tag_4\n      jumpi\n      dup1\n      0x5ac3e19e\n      eq\n      tag_5\n      jumpi\n      dup1\n      0x68744046\n      eq\n      tag_6\n      jumpi\n    tag_1:\n      0x00\n      dup1\n      revert\n        /* \"contracts/Bookstore.sol\":1443:1538  function getAllBooks() public view returns (uint256[] memory) {... */\n    tag_2:\n      callvalue\n      dup1\n      iszero\n      tag_14\n      jumpi\n      0x00\n      dup1\n      revert\n    tag_14:\n      pop\n      tag_15\n      tag_16\n      jump\t// in\n    tag_15:\n      mload(0x40)\n      tag_17\n      swap2\n      swap1\n      tag_18\n      jump\t// in\n    tag_17:\n      mload(0x40)\n      dup1\n      swap2\n      sub\n      swap1\n      return\n        /* \"contracts/Bookstore.sol\":453:477  uint256[] public bookIds */\n    tag_3:\n      callvalue\n      dup1\n      iszero\n      tag_19\n      jumpi\n      0x00\n      dup1\n      revert\n    tag_19:\n      pop\n      tag_20\n      0x04\n      dup1\n      calldatasize\n      sub\n      dup2\n      add\n      swap1\n      tag_21\n      swap2\n      swap1\n      tag_22\n      jump\t// in\n    tag_21:\n      tag_23\n      jump\t// in\n    tag_20:\n      mload(0x40)\n      tag_24\n      swap2\n      swap1\n      tag_25\n      jump\t// in\n    tag_24:\n      mload(0x40)\n      dup1\n      swap2\n      sub\n      swap1\n      return\n        /* \"contracts/Bookstore.sol\":2815:2920  function getOwnerBalance() public view returns (uint256) {... */\n    tag_4:\n      callvalue\n      dup1\n      iszero\n      tag_26\n      jumpi\n      0x00\n      dup1\n      revert\n    tag_26:\n      pop\n      tag_27\n      tag_28\n      jump\t// in\n    tag_27:\n      mload(0x40)\n      tag_29\n      swap2\n      swap1\n      tag_25\n      jump\t// in\n    tag_29:\n      mload(0x40)\n      dup1\n      swap2\n      sub\n      swap1\n      return\n        /* \"contracts/Bookstore.sol\":3077:3324  function getBooks(uint256 _bookId) public view returns (string memory, string memory, uint256, uint256, bool) {... */\n    tag_5:\n      callvalue\n      dup1\n      iszero\n      tag_30\n      jumpi\n      0x00\n      dup1\n      revert\n    tag_30:\n      pop\n      tag_31\n      0x04\n      dup1\n      calldatasize\n      sub\n      dup2\n      add\n      swap1\n      tag_32\n      swap2\n      swap1\n      tag_22\n      jump\t// in\n    tag_32:\n      tag_33\n      jump\t// in\n    tag_31:\n      mload(0x40)\n      tag_34\n      swap6\n      swap5\n      swap4\n      swap3\n      swap2\n      swap1\n      tag_35\n      jump\t// in\n    tag_34:\n      mload(0x40)\n      dup1\n      swap2\n      sub\n      swap1\n      return\n        /* \"contracts/Bookstore.sol\":409:446  mapping(uint256 => Book) public books */\n    tag_6:\n      callvalue\n      dup1\n      iszero\n      tag_36\n      jumpi\n      0x00\n      dup1\n      revert\n    tag_36:\n      pop\n      tag_37\n      0x04\n      dup1\n      calldatasize\n      sub\n      dup2\n      add\n      swap1\n      tag_38\n      swap2\n      swap1\n      tag_22\n      jump\t// in\n    tag_38:\n      tag_39\n      jump\t// in\n    tag_37:\n      mload(0x40)\n      tag_40\n      swap6\n      swap5\n      swap4\n      swap3\n      swap2\n      swap1\n      tag_41\n      jump\t// in\n    tag_40:\n      mload(0x40)\n      dup1\n      swap2\n      sub\n      swap1\n      return\n        /* \"contracts/Bookstore.sol\":95:115  address public owner */\n    tag_7:\n      callvalue\n      dup1\n      iszero\n      tag_42\n      jumpi\n      0x00\n      dup1\n      revert\n    tag_42:\n      pop\n      tag_43\n      tag_44\n      jump\t// in\n    tag_43:\n      mload(0x40)\n      tag_45\n      swap2\n      swap1\n      tag_46\n      jump\t// in\n    tag_45:\n      mload(0x40)\n      dup1\n      swap2\n      sub\n      swap1\n      return\n        /* \"contracts/Bookstore.sol\":2970:3069  function getTotalBooksSold() public view returns (uint256) {... */\n    tag_8:\n      callvalue\n      dup1\n      iszero\n      tag_47\n      jumpi\n      0x00\n      dup1\n      revert\n    tag_47:\n      pop\n      tag_48\n      tag_49\n      jump\t// in\n    tag_48:\n      mload(0x40)\n      tag_50\n      swap2\n      swap1\n      tag_25\n      jump\t// in\n    tag_50:\n      mload(0x40)\n      dup1\n      swap2\n      sub\n      swap1\n      return\n        /* \"contracts/Bookstore.sol\":2291:2776  function removeBook(uint256 _bookId) public onlyOwner {... */\n    tag_9:\n      callvalue\n      dup1\n      iszero\n      tag_51\n      jumpi\n      0x00\n      dup1\n      revert\n    tag_51:\n      pop\n      tag_52\n      0x04\n      dup1\n      calldatasize\n      sub\n      dup2\n      add\n      swap1\n      tag_53\n      swap2\n      swap1\n      tag_22\n      jump\t// in\n    tag_53:\n      tag_54\n      jump\t// in\n    tag_52:\n      stop\n        /* \"contracts/Bookstore.sol\":898:1401  function addBook(uint256 _bookId, string memory _title, string memory _author, uint256 _stock, uint16 _price) public {... */\n    tag_10:\n      callvalue\n      dup1\n      iszero\n      tag_55\n      jumpi\n      0x00\n      dup1\n      revert\n    tag_55:\n      pop\n      tag_56\n      0x04\n      dup1\n      calldatasize\n      sub\n      dup2\n      add\n      swap1\n      tag_57\n      swap2\n      swap1\n      tag_58\n      jump\t// in\n    tag_57:\n      tag_59\n      jump\t// in\n    tag_56:\n      stop\n        /* \"contracts/Bookstore.sol\":3332:4109  function buyBook(uint256 _bookId, uint256 _quantity, uint256 _amount) public payable {... */\n    tag_11:\n      tag_60\n      0x04\n      dup1\n      calldatasize\n      sub\n      dup2\n      add\n      swap1\n      tag_61\n      swap2\n      swap1\n      tag_62\n      jump\t// in\n    tag_61:\n      tag_63\n      jump\t// in\n    tag_60:\n      stop\n        /* \"contracts/Bookstore.sol\":1588:2242  function removeBooks(uint256[] memory _bookIds) public onlyOwner {... */\n    tag_12:\n      callvalue\n      dup1\n      iszero\n      tag_64\n      jumpi\n      0x00\n      dup1\n      revert\n    tag_64:\n      pop\n      tag_65\n      0x04\n      dup1\n      calldatasize\n      sub\n      dup2\n      add\n      swap1\n      tag_66\n      swap2\n      swap1\n      tag_67\n      jump\t// in\n    tag_66:\n      tag_68\n      jump\t// in\n    tag_65:\n      stop\n        /* \"contracts/Bookstore.sol\":1443:1538  function getAllBooks() public view returns (uint256[] memory) {... */\n    tag_16:\n        /* \"contracts/Bookstore.sol\":1487:1503  uint256[] memory */\n      0x60\n        /* \"contracts/Bookstore.sol\":1523:1530  bookIds */\n      0x03\n        /* \"contracts/Bookstore.sol\":1516:1530  return bookIds */\n      dup1\n      sload\n      dup1\n      0x20\n      mul\n      0x20\n      add\n      mload(0x40)\n      swap1\n      dup2\n      add\n      0x40\n      mstore\n      dup1\n      swap3\n      swap2\n      swap1\n      dup2\n      dup2\n      mstore\n      0x20\n      add\n      dup3\n      dup1\n      sload\n      dup1\n      iszero\n      tag_70\n      jumpi\n      0x20\n      mul\n      dup3\n      add\n      swap2\n      swap1\n      0x00\n      mstore\n      keccak256(0x00, 0x20)\n      swap1\n    tag_71:\n      dup2\n      sload\n      dup2\n      mstore\n      0x20\n      add\n      swap1\n      0x01\n      add\n      swap1\n      dup1\n      dup4\n      gt\n      tag_71\n      jumpi\n    tag_70:\n      pop\n      pop\n      pop\n      pop\n      pop\n      swap1\n      pop\n        /* \"contracts/Bookstore.sol\":1443:1538  function getAllBooks() public view returns (uint256[] memory) {... */\n      swap1\n      jump\t// out\n        /* \"contracts/Bookstore.sol\":453:477  uint256[] public bookIds */\n    tag_23:\n      0x03\n      dup2\n      dup2\n      sload\n      dup2\n      lt\n      tag_72\n      jumpi\n      0x00\n      dup1\n      revert\n    tag_72:\n      swap1\n      0x00\n      mstore\n      keccak256(0x00, 0x20)\n      add\n      0x00\n      swap2\n      pop\n      swap1\n      pop\n      sload\n      dup2\n      jump\t// out\n        /* \"contracts/Bookstore.sol\":2815:2920  function getOwnerBalance() public view returns (uint256) {... */\n    tag_28:\n        /* \"contracts/Bookstore.sol\":2863:2870  uint256 */\n      0x00\n        /* \"contracts/Bookstore.sol\":2898:2903  owner */\n      dup1\n      0x00\n      swap1\n      sload\n      swap1\n      0x0100\n      exp\n      swap1\n      div\n      0xffffffffffffffffffffffffffffffffffffffff\n      and\n        /* \"contracts/Bookstore.sol\":2890:2912  address(owner).balance */\n      0xffffffffffffffffffffffffffffffffffffffff\n      and\n      balance\n        /* \"contracts/Bookstore.sol\":2883:2912  return address(owner).balance */\n      swap1\n      pop\n        /* \"contracts/Bookstore.sol\":2815:2920  function getOwnerBalance() public view returns (uint256) {... */\n      swap1\n      jump\t// out\n        /* \"contracts/Bookstore.sol\":3077:3324  function getBooks(uint256 _bookId) public view returns (string memory, string memory, uint256, uint256, bool) {... */\n    tag_33:\n        /* \"contracts/Bookstore.sol\":3133:3146  string memory */\n      0x60\n        /* \"contracts/Bookstore.sol\":3148:3161  string memory */\n      dup1\n        /* \"contracts/Bookstore.sol\":3163:3170  uint256 */\n      0x00\n        /* \"contracts/Bookstore.sol\":3172:3179  uint256 */\n      dup1\n        /* \"contracts/Bookstore.sol\":3181:3185  bool */\n      0x00\n        /* \"contracts/Bookstore.sol\":3198:3214  Book memory book */\n      dup1\n        /* \"contracts/Bookstore.sol\":3217:3222  books */\n      0x02\n        /* \"contracts/Bookstore.sol\":3217:3231  books[_bookId] */\n      0x00\n        /* \"contracts/Bookstore.sol\":3223:3230  _bookId */\n      dup9\n        /* \"contracts/Bookstore.sol\":3217:3231  books[_bookId] */\n      dup2\n      mstore\n      0x20\n      add\n      swap1\n      dup2\n      mstore\n      0x20\n      add\n      0x00\n      keccak256\n        /* \"contracts/Bookstore.sol\":3198:3231  Book memory book = books[_bookId] */\n      mload(0x40)\n      dup1\n      0xa0\n      add\n      0x40\n      mstore\n      swap1\n      dup2\n      0x00\n      dup3\n      add\n      dup1\n      sload\n      tag_76\n      swap1\n      tag_77\n      jump\t// in\n    tag_76:\n      dup1\n      0x1f\n      add\n      0x20\n      dup1\n      swap2\n      div\n      mul\n      0x20\n      add\n      mload(0x40)\n      swap1\n      dup2\n      add\n      0x40\n      mstore\n      dup1\n      swap3\n      swap2\n      swap1\n      dup2\n      dup2\n      mstore\n      0x20\n      add\n      dup3\n      dup1\n      sload\n      tag_78\n      swap1\n      tag_77\n      jump\t// in\n    tag_78:\n      dup1\n      iszero\n      tag_79\n      jumpi\n      dup1\n      0x1f\n      lt\n      tag_80\n      jumpi\n      0x0100\n      dup1\n      dup4\n      sload\n      div\n      mul\n      dup4\n      mstore\n      swap2\n      0x20\n      add\n      swap2\n      jump(tag_79)\n    tag_80:\n      dup3\n      add\n      swap2\n      swap1\n      0x00\n      mstore\n      keccak256(0x00, 0x20)\n      swap1\n    tag_81:\n      dup2\n      sload\n      dup2\n      mstore\n      swap1\n      0x01\n      add\n      swap1\n      0x20\n      add\n      dup1\n      dup4\n      gt\n      tag_81\n      jumpi\n      dup3\n      swap1\n      sub\n      0x1f\n      and\n      dup3\n      add\n      swap2\n    tag_79:\n      pop\n      pop\n      pop\n      pop\n      pop\n      dup2\n      mstore\n      0x20\n      add\n      0x01\n      dup3\n      add\n      dup1\n      sload\n      tag_82\n      swap1\n      tag_77\n      jump\t// in\n    tag_82:\n      dup1\n      0x1f\n      add\n      0x20\n      dup1\n      swap2\n      div\n      mul\n      0x20\n      add\n      mload(0x40)\n      swap1\n      dup2\n      add\n      0x40\n      mstore\n      dup1\n      swap3\n      swap2\n      swap1\n      dup2\n      dup2\n      mstore\n      0x20\n      add\n      dup3\n      dup1\n      sload\n      tag_83\n      swap1\n      tag_77\n      jump\t// in\n    tag_83:\n      dup1\n      iszero\n      tag_84\n      jumpi\n      dup1\n      0x1f\n      lt\n      tag_85\n      jumpi\n      0x0100\n      dup1\n      dup4\n      sload\n      div\n      mul\n      dup4\n      mstore\n      swap2\n      0x20\n      add\n      swap2\n      jump(tag_84)\n    tag_85:\n      dup3\n      add\n      swap2\n      swap1\n      0x00\n      mstore\n      keccak256(0x00, 0x20)\n      swap1\n    tag_86:\n      dup2\n      sload\n      dup2\n      mstore\n      swap1\n      0x01\n      add\n      swap1\n      0x20\n      add\n      dup1\n      dup4\n      gt\n      tag_86\n      jumpi\n      dup3\n      swap1\n      sub\n      0x1f\n      and\n      dup3\n      add\n      swap2\n    tag_84:\n      pop\n      pop\n      pop\n      pop\n      pop\n      dup2\n      mstore\n      0x20\n      add\n      0x02\n      dup3\n      add\n      0x00\n      swap1\n      sload\n      swap1\n      0x0100\n      exp\n      swap1\n      div\n      0xffff\n      and\n      0xffff\n      and\n      0xffff\n      and\n      dup2\n      mstore\n      0x20\n      add\n      0x03\n      dup3\n      add\n      sload\n      dup2\n      mstore\n      0x20\n      add\n      0x04\n      dup3\n      add\n      0x00\n      swap1\n      sload\n      swap1\n      0x0100\n      exp\n      swap1\n      div\n      0xff\n      and\n      iszero\n      iszero\n      iszero\n      iszero\n      dup2\n      mstore\n      pop\n      pop\n      swap1\n      pop\n        /* \"contracts/Bookstore.sol\":3250:3254  book */\n      dup1\n        /* \"contracts/Bookstore.sol\":3250:3260  book.title */\n      0x00\n      add\n      mload\n        /* \"contracts/Bookstore.sol\":3262:3266  book */\n      dup2\n        /* \"contracts/Bookstore.sol\":3262:3273  book.author */\n      0x20\n      add\n      mload\n        /* \"contracts/Bookstore.sol\":3275:3279  book */\n      dup3\n        /* \"contracts/Bookstore.sol\":3275:3285  book.price */\n      0x40\n      add\n      mload\n        /* \"contracts/Bookstore.sol\":3287:3291  book */\n      dup4\n        /* \"contracts/Bookstore.sol\":3287:3297  book.stock */\n      0x60\n      add\n      mload\n        /* \"contracts/Bookstore.sol\":3299:3303  book */\n      dup5\n        /* \"contracts/Bookstore.sol\":3299:3315  book.isAvailable */\n      0x80\n      add\n      mload\n        /* \"contracts/Bookstore.sol\":3242:3316  return (book.title, book.author, book.price, book.stock, book.isAvailable) */\n      dup3\n      0xffff\n      and\n      swap3\n      pop\n      swap6\n      pop\n      swap6\n      pop\n      swap6\n      pop\n      swap6\n      pop\n      swap6\n      pop\n      pop\n        /* \"contracts/Bookstore.sol\":3077:3324  function getBooks(uint256 _bookId) public view returns (string memory, string memory, uint256, uint256, bool) {... */\n      swap2\n      swap4\n      swap6\n      swap1\n      swap3\n      swap5\n      pop\n      jump\t// out\n        /* \"contracts/Bookstore.sol\":409:446  mapping(uint256 => Book) public books */\n    tag_39:\n      mstore(0x20, 0x02)\n      dup1\n      0x00\n      mstore\n      keccak256(0x00, 0x40)\n      0x00\n      swap2\n      pop\n      swap1\n      pop\n      dup1\n      0x00\n      add\n      dup1\n      sload\n      tag_87\n      swap1\n      tag_77\n      jump\t// in\n    tag_87:\n      dup1\n      0x1f\n      add\n      0x20\n      dup1\n      swap2\n      div\n      mul\n      0x20\n      add\n      mload(0x40)\n      swap1\n      dup2\n      add\n      0x40\n      mstore\n      dup1\n      swap3\n      swap2\n      swap1\n      dup2\n      dup2\n      mstore\n      0x20\n      add\n      dup3\n      dup1\n      sload\n      tag_88\n      swap1\n      tag_77\n      jump\t// in\n    tag_88:\n      dup1\n      iszero\n      tag_89\n      jumpi\n      dup1\n      0x1f\n      lt\n      tag_90\n      jumpi\n      0x0100\n      dup1\n      dup4\n      sload\n      div\n      mul\n      dup4\n      mstore\n      swap2\n      0x20\n      add\n      swap2\n      jump(tag_89)\n    tag_90:\n      dup3\n      add\n      swap2\n      swap1\n      0x00\n      mstore\n      keccak256(0x00, 0x20)\n      swap1\n    tag_91:\n      dup2\n      sload\n      dup2\n      mstore\n      swap1\n      0x01\n      add\n      swap1\n      0x20\n      add\n      dup1\n      dup4\n      gt\n      tag_91\n      jumpi\n      dup3\n      swap1\n      sub\n      0x1f\n      and\n      dup3\n      add\n      swap2\n    tag_89:\n      pop\n      pop\n      pop\n      pop\n      pop\n      swap1\n      dup1\n      0x01\n      add\n      dup1\n      sload\n      tag_92\n      swap1\n      tag_77\n      jump\t// in\n    tag_92:\n      dup1\n      0x1f\n      add\n      0x20\n      dup1\n      swap2\n      div\n      mul\n      0x20\n      add\n      mload(0x40)\n      swap1\n      dup2\n      add\n      0x40\n      mstore\n      dup1\n      swap3\n      swap2\n      swap1\n      dup2\n      dup2\n      mstore\n      0x20\n      add\n      dup3\n      dup1\n      sload\n      tag_93\n      swap1\n      tag_77\n      jump\t// in\n    tag_93:\n      dup1\n      iszero\n      tag_94\n      jumpi\n      dup1\n      0x1f\n      lt\n      tag_95\n      jumpi\n      0x0100\n      dup1\n      dup4\n      sload\n      div\n      mul\n      dup4\n      mstore\n      swap2\n      0x20\n      add\n      swap2\n      jump(tag_94)\n    tag_95:\n      dup3\n      add\n      swap2\n      swap1\n      0x00\n      mstore\n      keccak256(0x00, 0x20)\n      swap1\n    tag_96:\n      dup2\n      sload\n      dup2\n      mstore\n      swap1\n      0x01\n      add\n      swap1\n      0x20\n      add\n      dup1\n      dup4\n      gt\n      tag_96\n      jumpi\n      dup3\n      swap1\n      sub\n      0x1f\n      and\n      dup3\n      add\n      swap2\n    tag_94:\n      pop\n      pop\n      pop\n      pop\n      pop\n      swap1\n      dup1\n      0x02\n      add\n      0x00\n      swap1\n      sload\n      swap1\n      0x0100\n      exp\n      swap1\n      div\n      0xffff\n      and\n      swap1\n      dup1\n      0x03\n      add\n      sload\n      swap1\n      dup1\n      0x04\n      add\n      0x00\n      swap1\n      sload\n      swap1\n      0x0100\n      exp\n      swap1\n      div\n      0xff\n      and\n      swap1\n      pop\n      dup6\n      jump\t// out\n        /* \"contracts/Bookstore.sol\":95:115  address public owner */\n    tag_44:\n      0x00\n      dup1\n      sload\n      swap1\n      0x0100\n      exp\n      swap1\n      div\n      0xffffffffffffffffffffffffffffffffffffffff\n      and\n      dup2\n      jump\t// out\n        /* \"contracts/Bookstore.sol\":2970:3069  function getTotalBooksSold() public view returns (uint256) {... */\n    tag_49:\n        /* \"contracts/Bookstore.sol\":3020:3027  uint256 */\n      0x00\n        /* \"contracts/Bookstore.sol\":3047:3061  totalBooksSold */\n      sload(0x01)\n        /* \"contracts/Bookstore.sol\":3040:3061  return totalBooksSold */\n      swap1\n      pop\n        /* \"contracts/Bookstore.sol\":2970:3069  function getTotalBooksSold() public view returns (uint256) {... */\n      swap1\n      jump\t// out\n        /* \"contracts/Bookstore.sol\":2291:2776  function removeBook(uint256 _bookId) public onlyOwner {... */\n    tag_54:\n        /* \"contracts/Bookstore.sol\":826:831  owner */\n      0x00\n      dup1\n      sload\n      swap1\n      0x0100\n      exp\n      swap1\n      div\n      0xffffffffffffffffffffffffffffffffffffffff\n      and\n        /* \"contracts/Bookstore.sol\":812:831  msg.sender == owner */\n      0xffffffffffffffffffffffffffffffffffffffff\n      and\n        /* \"contracts/Bookstore.sol\":812:822  msg.sender */\n      caller\n        /* \"contracts/Bookstore.sol\":812:831  msg.sender == owner */\n      0xffffffffffffffffffffffffffffffffffffffff\n      and\n      eq\n        /* \"contracts/Bookstore.sol\":804:870  require(msg.sender == owner, \"Only owner can perform this action\") */\n      tag_99\n      jumpi\n      mload(0x40)\n      0x08c379a000000000000000000000000000000000000000000000000000000000\n      dup2\n      mstore\n      0x04\n      add\n      tag_100\n      swap1\n      tag_101\n      jump\t// in\n    tag_100:\n      mload(0x40)\n      dup1\n      swap2\n      sub\n      swap1\n      revert\n    tag_99:\n        /* \"contracts/Bookstore.sol\":2388:2389  0 */\n      0x00\n        /* \"contracts/Bookstore.sol\":2364:2369  books */\n      0x02\n        /* \"contracts/Bookstore.sol\":2364:2378  books[_bookId] */\n      0x00\n        /* \"contracts/Bookstore.sol\":2370:2377  _bookId */\n      dup4\n        /* \"contracts/Bookstore.sol\":2364:2378  books[_bookId] */\n      dup2\n      mstore\n      0x20\n      add\n      swap1\n      dup2\n      mstore\n      0x20\n      add\n      0x00\n      keccak256\n        /* \"contracts/Bookstore.sol\":2364:2384  books[_bookId].price */\n      0x02\n      add\n      0x00\n      swap1\n      sload\n      swap1\n      0x0100\n      exp\n      swap1\n      div\n      0xffff\n      and\n        /* \"contracts/Bookstore.sol\":2364:2389  books[_bookId].price != 0 */\n      0xffff\n      and\n      sub\n        /* \"contracts/Bookstore.sol\":2356:2413  require(books[_bookId].price != 0, \"Book does not exist\") */\n      tag_103\n      jumpi\n      mload(0x40)\n      0x08c379a000000000000000000000000000000000000000000000000000000000\n      dup2\n      mstore\n      0x04\n      add\n      tag_104\n      swap1\n      tag_105\n      jump\t// in\n    tag_104:\n      mload(0x40)\n      dup1\n      swap2\n      sub\n      swap1\n      revert\n    tag_103:\n        /* \"contracts/Bookstore.sol\":2431:2436  books */\n      0x02\n        /* \"contracts/Bookstore.sol\":2431:2445  books[_bookId] */\n      0x00\n        /* \"contracts/Bookstore.sol\":2437:2444  _bookId */\n      dup3\n        /* \"contracts/Bookstore.sol\":2431:2445  books[_bookId] */\n      dup2\n      mstore\n      0x20\n      add\n      swap1\n      dup2\n      mstore\n      0x20\n      add\n      0x00\n      keccak256\n      0x00\n        /* \"contracts/Bookstore.sol\":2424:2445  delete books[_bookId] */\n      dup1\n      dup3\n      add\n      0x00\n      tag_106\n      swap2\n      swap1\n      tag_107\n      jump\t// in\n    tag_106:\n      0x01\n      dup3\n      add\n      0x00\n      tag_108\n      swap2\n      swap1\n      tag_107\n      jump\t// in\n    tag_108:\n      0x02\n      dup3\n      add\n      exp(0x0100, 0x00)\n      dup2\n      sload\n      swap1\n      0xffff\n      mul\n      not\n      and\n      swap1\n      sstore\n      0x03\n      dup3\n      add\n      0x00\n      swap1\n      sstore\n      0x04\n      dup3\n      add\n      exp(0x0100, 0x00)\n      dup2\n      sload\n      swap1\n      0xff\n      mul\n      not\n      and\n      swap1\n      sstore\n      pop\n      pop\n        /* \"contracts/Bookstore.sol\":2509:2518  uint256 i */\n      0x00\n        /* \"contracts/Bookstore.sol\":2504:2733  for (uint256 i = 0; i < bookIds.length; i++) {... */\n    tag_109:\n        /* \"contracts/Bookstore.sol\":2528:2535  bookIds */\n      0x03\n        /* \"contracts/Bookstore.sol\":2528:2542  bookIds.length */\n      dup1\n      sload\n      swap1\n      pop\n        /* \"contracts/Bookstore.sol\":2524:2525  i */\n      dup2\n        /* \"contracts/Bookstore.sol\":2524:2542  i < bookIds.length */\n      lt\n        /* \"contracts/Bookstore.sol\":2504:2733  for (uint256 i = 0; i < bookIds.length; i++) {... */\n      iszero\n      tag_110\n      jumpi\n        /* \"contracts/Bookstore.sol\":2582:2589  _bookId */\n      dup2\n        /* \"contracts/Bookstore.sol\":2568:2575  bookIds */\n      0x03\n        /* \"contracts/Bookstore.sol\":2576:2577  i */\n      dup3\n        /* \"contracts/Bookstore.sol\":2568:2578  bookIds[i] */\n      dup2\n      sload\n      dup2\n      lt\n      tag_112\n      jumpi\n      tag_113\n      tag_114\n      jump\t// in\n    tag_113:\n    tag_112:\n      swap1\n      0x00\n      mstore\n      keccak256(0x00, 0x20)\n      add\n      sload\n        /* \"contracts/Bookstore.sol\":2568:2589  bookIds[i] == _bookId */\n      sub\n        /* \"contracts/Bookstore.sol\":2564:2722  if (bookIds[i] == _bookId) {... */\n      tag_116\n      jumpi\n        /* \"contracts/Bookstore.sol\":2623:2630  bookIds */\n      0x03\n        /* \"contracts/Bookstore.sol\":2648:2649  1 */\n      0x01\n        /* \"contracts/Bookstore.sol\":2631:2638  bookIds */\n      0x03\n        /* \"contracts/Bookstore.sol\":2631:2645  bookIds.length */\n      dup1\n      sload\n      swap1\n      pop\n        /* \"contracts/Bookstore.sol\":2631:2649  bookIds.length - 1 */\n      tag_117\n      swap2\n      swap1\n      tag_118\n      jump\t// in\n    tag_117:\n        /* \"contracts/Bookstore.sol\":2623:2650  bookIds[bookIds.length - 1] */\n      dup2\n      sload\n      dup2\n      lt\n      tag_119\n      jumpi\n      tag_120\n      tag_114\n      jump\t// in\n    tag_120:\n    tag_119:\n      swap1\n      0x00\n      mstore\n      keccak256(0x00, 0x20)\n      add\n      sload\n        /* \"contracts/Bookstore.sol\":2610:2617  bookIds */\n      0x03\n        /* \"contracts/Bookstore.sol\":2618:2619  i */\n      dup3\n        /* \"contracts/Bookstore.sol\":2610:2620  bookIds[i] */\n      dup2\n      sload\n      dup2\n      lt\n      tag_122\n      jumpi\n      tag_123\n      tag_114\n      jump\t// in\n    tag_123:\n    tag_122:\n      swap1\n      0x00\n      mstore\n      keccak256(0x00, 0x20)\n      add\n        /* \"contracts/Bookstore.sol\":2610:2650  bookIds[i] = bookIds[bookIds.length - 1] */\n      dup2\n      swap1\n      sstore\n      pop\n        /* \"contracts/Bookstore.sol\":2669:2676  bookIds */\n      0x03\n        /* \"contracts/Bookstore.sol\":2669:2682  bookIds.pop() */\n      dup1\n      sload\n      dup1\n      tag_125\n      jumpi\n      tag_126\n      tag_127\n      jump\t// in\n    tag_126:\n    tag_125:\n      0x01\n      swap1\n      sub\n      dup2\n      dup2\n      swap1\n      0x00\n      mstore\n      keccak256(0x00, 0x20)\n      add\n      0x00\n      swap1\n      sstore\n      swap1\n      sstore\n        /* \"contracts/Bookstore.sol\":2701:2706  break */\n      jump(tag_110)\n        /* \"contracts/Bookstore.sol\":2564:2722  if (bookIds[i] == _bookId) {... */\n    tag_116:\n        /* \"contracts/Bookstore.sol\":2544:2547  i++ */\n      dup1\n      dup1\n      0x01\n      add\n      swap2\n      pop\n      pop\n        /* \"contracts/Bookstore.sol\":2504:2733  for (uint256 i = 0; i < bookIds.length; i++) {... */\n      jump(tag_109)\n    tag_110:\n      pop\n        /* \"contracts/Bookstore.sol\":2760:2767  _bookId */\n      dup1\n        /* \"contracts/Bookstore.sol\":2748:2768  BookRemoved(_bookId) */\n      0x3c5ce13264433bcf97e5d53c97af4fc33800e8c9dd927f965b116d0018d7cddf\n      mload(0x40)\n      mload(0x40)\n      dup1\n      swap2\n      sub\n      swap1\n      log2\n        /* \"contracts/Bookstore.sol\":2291:2776  function removeBook(uint256 _bookId) public onlyOwner {... */\n      pop\n      jump\t// out\n        /* \"contracts/Bookstore.sol\":898:1401  function addBook(uint256 _bookId, string memory _title, string memory _author, uint256 _stock, uint16 _price) public {... */\n    tag_59:\n        /* \"contracts/Bookstore.sol\":1058:1059  0 */\n      0x00\n        /* \"contracts/Bookstore.sol\":1034:1039  books */\n      0x02\n        /* \"contracts/Bookstore.sol\":1034:1048  books[_bookId] */\n      0x00\n        /* \"contracts/Bookstore.sol\":1040:1047  _bookId */\n      dup8\n        /* \"contracts/Bookstore.sol\":1034:1048  books[_bookId] */\n      dup2\n      mstore\n      0x20\n      add\n      swap1\n      dup2\n      mstore\n      0x20\n      add\n      0x00\n      keccak256\n        /* \"contracts/Bookstore.sol\":1034:1054  books[_bookId].price */\n      0x02\n      add\n      0x00\n      swap1\n      sload\n      swap1\n      0x0100\n      exp\n      swap1\n      div\n      0xffff\n      and\n        /* \"contracts/Bookstore.sol\":1034:1059  books[_bookId].price == 0 */\n      0xffff\n      and\n      eq\n        /* \"contracts/Bookstore.sol\":1026:1097  require(books[_bookId].price == 0, \"CANNOT ADD BOOK IT ALREADY EXISTS\") */\n      tag_130\n      jumpi\n      mload(0x40)\n      0x08c379a000000000000000000000000000000000000000000000000000000000\n      dup2\n      mstore\n      0x04\n      add\n      tag_131\n      swap1\n      tag_132\n      jump\t// in\n    tag_131:\n      mload(0x40)\n      dup1\n      swap2\n      sub\n      swap1\n      revert\n    tag_130:\n        /* \"contracts/Bookstore.sol\":1125:1294  Book({... */\n      mload(0x40)\n      dup1\n      0xa0\n      add\n      0x40\n      mstore\n      dup1\n        /* \"contracts/Bookstore.sol\":1152:1158  _title */\n      dup6\n        /* \"contracts/Bookstore.sol\":1125:1294  Book({... */\n      dup2\n      mstore\n      0x20\n      add\n        /* \"contracts/Bookstore.sol\":1181:1188  _author */\n      dup5\n        /* \"contracts/Bookstore.sol\":1125:1294  Book({... */\n      dup2\n      mstore\n      0x20\n      add\n        /* \"contracts/Bookstore.sol\":1210:1216  _price */\n      dup3\n        /* \"contracts/Bookstore.sol\":1125:1294  Book({... */\n      0xffff\n      and\n      dup2\n      mstore\n      0x20\n      add\n        /* \"contracts/Bookstore.sol\":1238:1244  _stock */\n      dup4\n        /* \"contracts/Bookstore.sol\":1125:1294  Book({... */\n      dup2\n      mstore\n      0x20\n      add\n        /* \"contracts/Bookstore.sol\":1281:1282  0 */\n      0x00\n        /* \"contracts/Bookstore.sol\":1272:1278  _stock */\n      dup5\n        /* \"contracts/Bookstore.sol\":1272:1282  _stock > 0 */\n      gt\n        /* \"contracts/Bookstore.sol\":1125:1294  Book({... */\n      iszero\n      iszero\n      dup2\n      mstore\n      pop\n        /* \"contracts/Bookstore.sol\":1108:1113  books */\n      0x02\n        /* \"contracts/Bookstore.sol\":1108:1122  books[_bookId] */\n      0x00\n        /* \"contracts/Bookstore.sol\":1114:1121  _bookId */\n      dup8\n        /* \"contracts/Bookstore.sol\":1108:1122  books[_bookId] */\n      dup2\n      mstore\n      0x20\n      add\n      swap1\n      dup2\n      mstore\n      0x20\n      add\n      0x00\n      keccak256\n        /* \"contracts/Bookstore.sol\":1108:1294  books[_bookId] = Book({... */\n      0x00\n      dup3\n      add\n      mload\n      dup2\n      0x00\n      add\n      swap1\n      dup2\n      tag_133\n      swap2\n      swap1\n      tag_134\n      jump\t// in\n    tag_133:\n      pop\n      0x20\n      dup3\n      add\n      mload\n      dup2\n      0x01\n      add\n      swap1\n      dup2\n      tag_135\n      swap2\n      swap1\n      tag_134\n      jump\t// in\n    tag_135:\n      pop\n      0x40\n      dup3\n      add\n      mload\n      dup2\n      0x02\n      add\n      exp(0x0100, 0x00)\n      dup2\n      sload\n      dup2\n      0xffff\n      mul\n      not\n      and\n      swap1\n      dup4\n      0xffff\n      and\n      mul\n      or\n      swap1\n      sstore\n      pop\n      0x60\n      dup3\n      add\n      mload\n      dup2\n      0x03\n      add\n      sstore\n      0x80\n      dup3\n      add\n      mload\n      dup2\n      0x04\n      add\n      exp(0x0100, 0x00)\n      dup2\n      sload\n      dup2\n      0xff\n      mul\n      not\n      and\n      swap1\n      dup4\n      iszero\n      iszero\n      mul\n      or\n      swap1\n      sstore\n      pop\n      swap1\n      pop\n      pop\n        /* \"contracts/Bookstore.sol\":1305:1312  bookIds */\n      0x03\n        /* \"contracts/Bookstore.sol\":1318:1325  _bookId */\n      dup6\n        /* \"contracts/Bookstore.sol\":1305:1326  bookIds.push(_bookId) */\n      swap1\n      dup1\n      0x01\n      dup2\n      sload\n      add\n      dup1\n      dup3\n      sstore\n      dup1\n      swap2\n      pop\n      pop\n      0x01\n      swap1\n      sub\n      swap1\n      0x00\n      mstore\n      keccak256(0x00, 0x20)\n      add\n      0x00\n      swap1\n      swap2\n      swap1\n      swap2\n      swap1\n      swap2\n      pop\n      sstore\n        /* \"contracts/Bookstore.sol\":1352:1359  _bookId */\n      dup5\n        /* \"contracts/Bookstore.sol\":1342:1393  BookAdded(_bookId, _title, _author, _stock, _price) */\n      0x722c04650224f771c04ec5712c74689980b3ddb4eaa233cd8f9c72d7da7fbe29\n        /* \"contracts/Bookstore.sol\":1361:1367  _title */\n      dup6\n        /* \"contracts/Bookstore.sol\":1369:1376  _author */\n      dup6\n        /* \"contracts/Bookstore.sol\":1378:1384  _stock */\n      dup6\n        /* \"contracts/Bookstore.sol\":1386:1392  _price */\n      dup6\n        /* \"contracts/Bookstore.sol\":1342:1393  BookAdded(_bookId, _title, _author, _stock, _price) */\n      mload(0x40)\n      tag_137\n      swap5\n      swap4\n      swap3\n      swap2\n      swap1\n      tag_138\n      jump\t// in\n    tag_137:\n      mload(0x40)\n      dup1\n      swap2\n      sub\n      swap1\n      log2\n        /* \"contracts/Bookstore.sol\":898:1401  function addBook(uint256 _bookId, string memory _title, string memory _author, uint256 _stock, uint16 _price) public {... */\n      pop\n      pop\n      pop\n      pop\n      pop\n      jump\t// out\n        /* \"contracts/Bookstore.sol\":3332:4109  function buyBook(uint256 _bookId, uint256 _quantity, uint256 _amount) public payable {... */\n    tag_63:\n        /* \"contracts/Bookstore.sol\":3428:3445  Book storage book */\n      0x00\n        /* \"contracts/Bookstore.sol\":3448:3453  books */\n      0x02\n        /* \"contracts/Bookstore.sol\":3448:3462  books[_bookId] */\n      0x00\n        /* \"contracts/Bookstore.sol\":3454:3461  _bookId */\n      dup6\n        /* \"contracts/Bookstore.sol\":3448:3462  books[_bookId] */\n      dup2\n      mstore\n      0x20\n      add\n      swap1\n      dup2\n      mstore\n      0x20\n      add\n      0x00\n      keccak256\n        /* \"contracts/Bookstore.sol\":3428:3462  Book storage book = books[_bookId] */\n      swap1\n      pop\n        /* \"contracts/Bookstore.sol\":3481:3485  book */\n      dup1\n        /* \"contracts/Bookstore.sol\":3481:3497  book.isAvailable */\n      0x04\n      add\n      0x00\n      swap1\n      sload\n      swap1\n      0x0100\n      exp\n      swap1\n      div\n      0xff\n      and\n        /* \"contracts/Bookstore.sol\":3473:3528  require(book.isAvailable, \"This book is not available\") */\n      tag_140\n      jumpi\n      mload(0x40)\n      0x08c379a000000000000000000000000000000000000000000000000000000000\n      dup2\n      mstore\n      0x04\n      add\n      tag_141\n      swap1\n      tag_142\n      jump\t// in\n    tag_141:\n      mload(0x40)\n      dup1\n      swap2\n      sub\n      swap1\n      revert\n    tag_140:\n        /* \"contracts/Bookstore.sol\":3561:3570  _quantity */\n      dup3\n        /* \"contracts/Bookstore.sol\":3547:3551  book */\n      dup2\n        /* \"contracts/Bookstore.sol\":3547:3557  book.stock */\n      0x03\n      add\n      sload\n        /* \"contracts/Bookstore.sol\":3547:3570  book.stock >= _quantity */\n      lt\n      iszero\n        /* \"contracts/Bookstore.sol\":3539:3601  require(book.stock >= _quantity, \"Not enough stock available\") */\n      tag_143\n      jumpi\n      mload(0x40)\n      0x08c379a000000000000000000000000000000000000000000000000000000000\n      dup2\n      mstore\n      0x04\n      add\n      tag_144\n      swap1\n      tag_145\n      jump\t// in\n    tag_144:\n      mload(0x40)\n      dup1\n      swap2\n      sub\n      swap1\n      revert\n    tag_143:\n        /* \"contracts/Bookstore.sol\":3644:3653  _quantity */\n      dup3\n        /* \"contracts/Bookstore.sol\":3631:3635  book */\n      dup2\n        /* \"contracts/Bookstore.sol\":3631:3641  book.price */\n      0x02\n      add\n      0x00\n      swap1\n      sload\n      swap1\n      0x0100\n      exp\n      swap1\n      div\n      0xffff\n      and\n        /* \"contracts/Bookstore.sol\":3631:3653  book.price * _quantity */\n      0xffff\n      and\n      tag_146\n      swap2\n      swap1\n      tag_147\n      jump\t// in\n    tag_146:\n        /* \"contracts/Bookstore.sol\":3620:3627  _amount */\n      dup3\n        /* \"contracts/Bookstore.sol\":3620:3653  _amount == book.price * _quantity */\n      eq\n        /* \"contracts/Bookstore.sol\":3612:3682  require(_amount == book.price * _quantity, \"Incorrect payment amount\") */\n      tag_148\n      jumpi\n      mload(0x40)\n      0x08c379a000000000000000000000000000000000000000000000000000000000\n      dup2\n      mstore\n      0x04\n      add\n      tag_149\n      swap1\n      tag_150\n      jump\t// in\n    tag_149:\n      mload(0x40)\n      dup1\n      swap2\n      sub\n      swap1\n      revert\n    tag_148:\n        /* \"contracts/Bookstore.sol\":3768:3777  _quantity */\n      dup3\n        /* \"contracts/Bookstore.sol\":3754:3758  book */\n      dup2\n        /* \"contracts/Bookstore.sol\":3754:3764  book.stock */\n      0x03\n      add\n      0x00\n        /* \"contracts/Bookstore.sol\":3754:3777  book.stock -= _quantity */\n      dup3\n      dup3\n      sload\n      tag_151\n      swap2\n      swap1\n      tag_118\n      jump\t// in\n    tag_151:\n      swap3\n      pop\n      pop\n      dup2\n      swap1\n      sstore\n      pop\n        /* \"contracts/Bookstore.sol\":3806:3807  0 */\n      0x00\n        /* \"contracts/Bookstore.sol\":3792:3796  book */\n      dup2\n        /* \"contracts/Bookstore.sol\":3792:3802  book.stock */\n      0x03\n      add\n      sload\n        /* \"contracts/Bookstore.sol\":3792:3807  book.stock == 0 */\n      sub\n        /* \"contracts/Bookstore.sol\":3788:3860  if (book.stock == 0) {... */\n      tag_152\n      jumpi\n        /* \"contracts/Bookstore.sol\":3843:3848  false */\n      0x00\n        /* \"contracts/Bookstore.sol\":3824:3828  book */\n      dup2\n        /* \"contracts/Bookstore.sol\":3824:3840  book.isAvailable */\n      0x04\n      add\n      0x00\n        /* \"contracts/Bookstore.sol\":3824:3848  book.isAvailable = false */\n      0x0100\n      exp\n      dup2\n      sload\n      dup2\n      0xff\n      mul\n      not\n      and\n      swap1\n      dup4\n      iszero\n      iszero\n      mul\n      or\n      swap1\n      sstore\n      pop\n        /* \"contracts/Bookstore.sol\":3788:3860  if (book.stock == 0) {... */\n    tag_152:\n        /* \"contracts/Bookstore.sol\":3934:3943  _quantity */\n      dup3\n        /* \"contracts/Bookstore.sol\":3916:3930  totalBooksSold */\n      0x01\n      0x00\n        /* \"contracts/Bookstore.sol\":3916:3943  totalBooksSold += _quantity */\n      dup3\n      dup3\n      sload\n      tag_153\n      swap2\n      swap1\n      tag_154\n      jump\t// in\n    tag_153:\n      swap3\n      pop\n      pop\n      dup2\n      swap1\n      sstore\n      pop\n        /* \"contracts/Bookstore.sol\":4014:4019  owner */\n      0x00\n      dup1\n      sload\n      swap1\n      0x0100\n      exp\n      swap1\n      div\n      0xffffffffffffffffffffffffffffffffffffffff\n      and\n        /* \"contracts/Bookstore.sol\":4006:4029  payable(owner).transfer */\n      0xffffffffffffffffffffffffffffffffffffffff\n      and\n        /* \"contracts/Bookstore.sol\":4006:4040  payable(owner).transfer(msg.value) */\n      0x08fc\n        /* \"contracts/Bookstore.sol\":4030:4039  msg.value */\n      callvalue\n        /* \"contracts/Bookstore.sol\":4006:4040  payable(owner).transfer(msg.value) */\n      swap1\n      dup2\n      iszero\n      mul\n      swap1\n      mload(0x40)\n      0x00\n      mload(0x40)\n      dup1\n      dup4\n      sub\n      dup2\n      dup6\n      dup9\n      dup9\n      call\n      swap4\n      pop\n      pop\n      pop\n      pop\n      iszero\n      dup1\n      iszero\n      tag_156\n      jumpi\n      returndatasize\n      0x00\n      dup1\n      returndatacopy\n      revert(0x00, returndatasize)\n    tag_156:\n      pop\n        /* \"contracts/Bookstore.sol\":4079:4089  msg.sender */\n      caller\n        /* \"contracts/Bookstore.sol\":4056:4101  BookPurchased(_bookId, msg.sender, _quantity) */\n      0xffffffffffffffffffffffffffffffffffffffff\n      and\n      0x439c08b00222293c6073f3ee383214541a4a21aca7dbb0a45963f86fa8e589f7\n        /* \"contracts/Bookstore.sol\":4070:4077  _bookId */\n      dup6\n        /* \"contracts/Bookstore.sol\":4091:4100  _quantity */\n      dup6\n        /* \"contracts/Bookstore.sol\":4056:4101  BookPurchased(_bookId, msg.sender, _quantity) */\n      mload(0x40)\n      tag_157\n      swap3\n      swap2\n      swap1\n      tag_158\n      jump\t// in\n    tag_157:\n      mload(0x40)\n      dup1\n      swap2\n      sub\n      swap1\n      log2\n        /* \"contracts/Bookstore.sol\":3417:4109  {... */\n      pop\n        /* \"contracts/Bookstore.sol\":3332:4109  function buyBook(uint256 _bookId, uint256 _quantity, uint256 _amount) public payable {... */\n      pop\n      pop\n      pop\n      jump\t// out\n        /* \"contracts/Bookstore.sol\":1588:2242  function removeBooks(uint256[] memory _bookIds) public onlyOwner {... */\n    tag_68:\n        /* \"contracts/Bookstore.sol\":826:831  owner */\n      0x00\n      dup1\n      sload\n      swap1\n      0x0100\n      exp\n      swap1\n      div\n      0xffffffffffffffffffffffffffffffffffffffff\n      and\n        /* \"contracts/Bookstore.sol\":812:831  msg.sender == owner */\n      0xffffffffffffffffffffffffffffffffffffffff\n      and\n        /* \"contracts/Bookstore.sol\":812:822  msg.sender */\n      caller\n        /* \"contracts/Bookstore.sol\":812:831  msg.sender == owner */\n      0xffffffffffffffffffffffffffffffffffffffff\n      and\n      eq\n        /* \"contracts/Bookstore.sol\":804:870  require(msg.sender == owner, \"Only owner can perform this action\") */\n      tag_160\n      jumpi\n      mload(0x40)\n      0x08c379a000000000000000000000000000000000000000000000000000000000\n      dup2\n      mstore\n      0x04\n      add\n      tag_161\n      swap1\n      tag_101\n      jump\t// in\n    tag_161:\n      mload(0x40)\n      dup1\n      swap2\n      sub\n      swap1\n      revert\n    tag_160:\n        /* \"contracts/Bookstore.sol\":1669:1678  uint256 i */\n      0x00\n        /* \"contracts/Bookstore.sol\":1664:2193  for (uint256 i = 0; i < _bookIds.length; i++) {... */\n    tag_163:\n        /* \"contracts/Bookstore.sol\":1688:1696  _bookIds */\n      dup2\n        /* \"contracts/Bookstore.sol\":1688:1703  _bookIds.length */\n      mload\n        /* \"contracts/Bookstore.sol\":1684:1685  i */\n      dup2\n        /* \"contracts/Bookstore.sol\":1684:1703  i < _bookIds.length */\n      lt\n        /* \"contracts/Bookstore.sol\":1664:2193  for (uint256 i = 0; i < _bookIds.length; i++) {... */\n      iszero\n      tag_164\n      jumpi\n        /* \"contracts/Bookstore.sol\":1725:1739  uint256 bookId */\n      0x00\n        /* \"contracts/Bookstore.sol\":1742:1750  _bookIds */\n      dup3\n        /* \"contracts/Bookstore.sol\":1751:1752  i */\n      dup3\n        /* \"contracts/Bookstore.sol\":1742:1753  _bookIds[i] */\n      dup2\n      mload\n      dup2\n      lt\n      tag_166\n      jumpi\n      tag_167\n      tag_114\n      jump\t// in\n    tag_167:\n    tag_166:\n      0x20\n      mul\n      0x20\n      add\n      add\n      mload\n        /* \"contracts/Bookstore.sol\":1725:1753  uint256 bookId = _bookIds[i] */\n      swap1\n      pop\n        /* \"contracts/Bookstore.sol\":1799:1800  0 */\n      0x00\n        /* \"contracts/Bookstore.sol\":1776:1781  books */\n      0x02\n        /* \"contracts/Bookstore.sol\":1776:1789  books[bookId] */\n      0x00\n        /* \"contracts/Bookstore.sol\":1782:1788  bookId */\n      dup4\n        /* \"contracts/Bookstore.sol\":1776:1789  books[bookId] */\n      dup2\n      mstore\n      0x20\n      add\n      swap1\n      dup2\n      mstore\n      0x20\n      add\n      0x00\n      keccak256\n        /* \"contracts/Bookstore.sol\":1776:1795  books[bookId].price */\n      0x02\n      add\n      0x00\n      swap1\n      sload\n      swap1\n      0x0100\n      exp\n      swap1\n      div\n      0xffff\n      and\n        /* \"contracts/Bookstore.sol\":1776:1800  books[bookId].price != 0 */\n      0xffff\n      and\n      sub\n        /* \"contracts/Bookstore.sol\":1768:1824  require(books[bookId].price != 0, \"Book does not exist\") */\n      tag_168\n      jumpi\n      mload(0x40)\n      0x08c379a000000000000000000000000000000000000000000000000000000000\n      dup2\n      mstore\n      0x04\n      add\n      tag_169\n      swap1\n      tag_105\n      jump\t// in\n    tag_169:\n      mload(0x40)\n      dup1\n      swap2\n      sub\n      swap1\n      revert\n    tag_168:\n        /* \"contracts/Bookstore.sol\":1846:1851  books */\n      0x02\n        /* \"contracts/Bookstore.sol\":1846:1859  books[bookId] */\n      0x00\n        /* \"contracts/Bookstore.sol\":1852:1858  bookId */\n      dup3\n        /* \"contracts/Bookstore.sol\":1846:1859  books[bookId] */\n      dup2\n      mstore\n      0x20\n      add\n      swap1\n      dup2\n      mstore\n      0x20\n      add\n      0x00\n      keccak256\n      0x00\n        /* \"contracts/Bookstore.sol\":1839:1859  delete books[bookId] */\n      dup1\n      dup3\n      add\n      0x00\n      tag_170\n      swap2\n      swap1\n      tag_107\n      jump\t// in\n    tag_170:\n      0x01\n      dup3\n      add\n      0x00\n      tag_171\n      swap2\n      swap1\n      tag_107\n      jump\t// in\n    tag_171:\n      0x02\n      dup3\n      add\n      exp(0x0100, 0x00)\n      dup2\n      sload\n      swap1\n      0xffff\n      mul\n      not\n      and\n      swap1\n      sstore\n      0x03\n      dup3\n      add\n      0x00\n      swap1\n      sstore\n      0x04\n      dup3\n      add\n      exp(0x0100, 0x00)\n      dup2\n      sload\n      swap1\n      0xff\n      mul\n      not\n      and\n      swap1\n      sstore\n      pop\n      pop\n        /* \"contracts/Bookstore.sol\":1935:1944  uint256 j */\n      0x00\n        /* \"contracts/Bookstore.sol\":1930:2182  for (uint256 j = 0; j < bookIds.length; j++) {... */\n    tag_172:\n        /* \"contracts/Bookstore.sol\":1954:1961  bookIds */\n      0x03\n        /* \"contracts/Bookstore.sol\":1954:1968  bookIds.length */\n      dup1\n      sload\n      swap1\n      pop\n        /* \"contracts/Bookstore.sol\":1950:1951  j */\n      dup2\n        /* \"contracts/Bookstore.sol\":1950:1968  j < bookIds.length */\n      lt\n        /* \"contracts/Bookstore.sol\":1930:2182  for (uint256 j = 0; j < bookIds.length; j++) {... */\n      iszero\n      tag_173\n      jumpi\n        /* \"contracts/Bookstore.sol\":2012:2018  bookId */\n      dup2\n        /* \"contracts/Bookstore.sol\":1998:2005  bookIds */\n      0x03\n        /* \"contracts/Bookstore.sol\":2006:2007  j */\n      dup3\n        /* \"contracts/Bookstore.sol\":1998:2008  bookIds[j] */\n      dup2\n      sload\n      dup2\n      lt\n      tag_175\n      jumpi\n      tag_176\n      tag_114\n      jump\t// in\n    tag_176:\n    tag_175:\n      swap1\n      0x00\n      mstore\n      keccak256(0x00, 0x20)\n      add\n      sload\n        /* \"contracts/Bookstore.sol\":1998:2018  bookIds[j] == bookId */\n      sub\n        /* \"contracts/Bookstore.sol\":1994:2167  if (bookIds[j] == bookId) {... */\n      tag_178\n      jumpi\n        /* \"contracts/Bookstore.sol\":2056:2063  bookIds */\n      0x03\n        /* \"contracts/Bookstore.sol\":2081:2082  1 */\n      0x01\n        /* \"contracts/Bookstore.sol\":2064:2071  bookIds */\n      0x03\n        /* \"contracts/Bookstore.sol\":2064:2078  bookIds.length */\n      dup1\n      sload\n      swap1\n      pop\n        /* \"contracts/Bookstore.sol\":2064:2082  bookIds.length - 1 */\n      tag_179\n      swap2\n      swap1\n      tag_118\n      jump\t// in\n    tag_179:\n        /* \"contracts/Bookstore.sol\":2056:2083  bookIds[bookIds.length - 1] */\n      dup2\n      sload\n      dup2\n      lt\n      tag_180\n      jumpi\n      tag_181\n      tag_114\n      jump\t// in\n    tag_181:\n    tag_180:\n      swap1\n      0x00\n      mstore\n      keccak256(0x00, 0x20)\n      add\n      sload\n        /* \"contracts/Bookstore.sol\":2043:2050  bookIds */\n      0x03\n        /* \"contracts/Bookstore.sol\":2051:2052  j */\n      dup3\n        /* \"contracts/Bookstore.sol\":2043:2053  bookIds[j] */\n      dup2\n      sload\n      dup2\n      lt\n      tag_183\n      jumpi\n      tag_184\n      tag_114\n      jump\t// in\n    tag_184:\n    tag_183:\n      swap1\n      0x00\n      mstore\n      keccak256(0x00, 0x20)\n      add\n        /* \"contracts/Bookstore.sol\":2043:2083  bookIds[j] = bookIds[bookIds.length - 1] */\n      dup2\n      swap1\n      sstore\n      pop\n        /* \"contracts/Bookstore.sol\":2106:2113  bookIds */\n      0x03\n        /* \"contracts/Bookstore.sol\":2106:2119  bookIds.pop() */\n      dup1\n      sload\n      dup1\n      tag_186\n      jumpi\n      tag_187\n      tag_127\n      jump\t// in\n    tag_187:\n    tag_186:\n      0x01\n      swap1\n      sub\n      dup2\n      dup2\n      swap1\n      0x00\n      mstore\n      keccak256(0x00, 0x20)\n      add\n      0x00\n      swap1\n      sstore\n      swap1\n      sstore\n        /* \"contracts/Bookstore.sol\":2142:2147  break */\n      jump(tag_173)\n        /* \"contracts/Bookstore.sol\":1994:2167  if (bookIds[j] == bookId) {... */\n    tag_178:\n        /* \"contracts/Bookstore.sol\":1970:1973  j++ */\n      dup1\n      dup1\n      0x01\n      add\n      swap2\n      pop\n      pop\n        /* \"contracts/Bookstore.sol\":1930:2182  for (uint256 j = 0; j < bookIds.length; j++) {... */\n      jump(tag_172)\n    tag_173:\n      pop\n        /* \"contracts/Bookstore.sol\":1710:2193  {... */\n      pop\n        /* \"contracts/Bookstore.sol\":1705:1708  i++ */\n      dup1\n      dup1\n      0x01\n      add\n      swap2\n      pop\n      pop\n        /* \"contracts/Bookstore.sol\":1664:2193  for (uint256 i = 0; i < _bookIds.length; i++) {... */\n      jump(tag_163)\n    tag_164:\n      pop\n        /* \"contracts/Bookstore.sol\":2208:2234  BookBatchRemoved(_bookIds) */\n      0x7262be1e48c30c363173fcb2fbf2dc2cb38d076dee42cc37cdfbdf62af5c3bed\n        /* \"contracts/Bookstore.sol\":2225:2233  _bookIds */\n      dup2\n        /* \"contracts/Bookstore.sol\":2208:2234  BookBatchRemoved(_bookIds) */\n      mload(0x40)\n      tag_189\n      swap2\n      swap1\n      tag_18\n      jump\t// in\n    tag_189:\n      mload(0x40)\n      dup1\n      swap2\n      sub\n      swap1\n      log1\n        /* \"contracts/Bookstore.sol\":1588:2242  function removeBooks(uint256[] memory _bookIds) public onlyOwner {... */\n      pop\n      jump\t// out\n    tag_107:\n      pop\n      dup1\n      sload\n      tag_190\n      swap1\n      tag_77\n      jump\t// in\n    tag_190:\n      0x00\n      dup3\n      sstore\n      dup1\n      0x1f\n      lt\n      tag_192\n      jumpi\n      pop\n      jump(tag_191)\n    tag_192:\n      0x1f\n      add\n      0x20\n      swap1\n      div\n      swap1\n      0x00\n      mstore\n      keccak256(0x00, 0x20)\n      swap1\n      dup2\n      add\n      swap1\n      tag_193\n      swap2\n      swap1\n      tag_194\n      jump\t// in\n    tag_193:\n    tag_191:\n      pop\n      jump\t// out\n    tag_194:\n    tag_195:\n      dup1\n      dup3\n      gt\n      iszero\n      tag_196\n      jumpi\n      0x00\n      dup2\n      0x00\n      swap1\n      sstore\n      pop\n      0x01\n      add\n      jump(tag_195)\n    tag_196:\n      pop\n      swap1\n      jump\t// out\n        /* \"#utility.yul\":7:121   */\n    tag_197:\n        /* \"#utility.yul\":74:80   */\n      0x00\n        /* \"#utility.yul\":108:113   */\n      dup2\n        /* \"#utility.yul\":102:114   */\n      mload\n        /* \"#utility.yul\":92:114   */\n      swap1\n      pop\n        /* \"#utility.yul\":7:121   */\n      swap2\n      swap1\n      pop\n      jump\t// out\n        /* \"#utility.yul\":127:311   */\n    tag_198:\n        /* \"#utility.yul\":226:237   */\n      0x00\n        /* \"#utility.yul\":260:266   */\n      dup3\n        /* \"#utility.yul\":255:258   */\n      dup3\n        /* \"#utility.yul\":248:267   */\n      mstore\n        /* \"#utility.yul\":300:304   */\n      0x20\n        /* \"#utility.yul\":295:298   */\n      dup3\n        /* \"#utility.yul\":291:305   */\n      add\n        /* \"#utility.yul\":276:305   */\n      swap1\n      pop\n        /* \"#utility.yul\":127:311   */\n      swap3\n      swap2\n      pop\n      pop\n      jump\t// out\n        /* \"#utility.yul\":317:449   */\n    tag_199:\n        /* \"#utility.yul\":384:388   */\n      0x00\n        /* \"#utility.yul\":407:410   */\n      dup2\n        /* \"#utility.yul\":399:410   */\n      swap1\n      pop\n        /* \"#utility.yul\":437:441   */\n      0x20\n        /* \"#utility.yul\":432:435   */\n      dup3\n        /* \"#utility.yul\":428:442   */\n      add\n        /* \"#utility.yul\":420:442   */\n      swap1\n      pop\n        /* \"#utility.yul\":317:449   */\n      swap2\n      swap1\n      pop\n      jump\t// out\n        /* \"#utility.yul\":455:532   */\n    tag_200:\n        /* \"#utility.yul\":492:499   */\n      0x00\n        /* \"#utility.yul\":521:526   */\n      dup2\n        /* \"#utility.yul\":510:526   */\n      swap1\n      pop\n        /* \"#utility.yul\":455:532   */\n      swap2\n      swap1\n      pop\n      jump\t// out\n        /* \"#utility.yul\":538:646   */\n    tag_201:\n        /* \"#utility.yul\":615:639   */\n      tag_275\n        /* \"#utility.yul\":633:638   */\n      dup2\n        /* \"#utility.yul\":615:639   */\n      tag_200\n      jump\t// in\n    tag_275:\n        /* \"#utility.yul\":610:613   */\n      dup3\n        /* \"#utility.yul\":603:640   */\n      mstore\n        /* \"#utility.yul\":538:646   */\n      pop\n      pop\n      jump\t// out\n        /* \"#utility.yul\":652:831   */\n    tag_202:\n        /* \"#utility.yul\":721:731   */\n      0x00\n        /* \"#utility.yul\":742:788   */\n      tag_277\n        /* \"#utility.yul\":784:787   */\n      dup4\n        /* \"#utility.yul\":776:782   */\n      dup4\n        /* \"#utility.yul\":742:788   */\n      tag_201\n      jump\t// in\n    tag_277:\n        /* \"#utility.yul\":820:824   */\n      0x20\n        /* \"#utility.yul\":815:818   */\n      dup4\n        /* \"#utility.yul\":811:825   */\n      add\n        /* \"#utility.yul\":797:825   */\n      swap1\n      pop\n        /* \"#utility.yul\":652:831   */\n      swap3\n      swap2\n      pop\n      pop\n      jump\t// out\n        /* \"#utility.yul\":837:950   */\n    tag_203:\n        /* \"#utility.yul\":907:911   */\n      0x00\n        /* \"#utility.yul\":939:943   */\n      0x20\n        /* \"#utility.yul\":934:937   */\n      dup3\n        /* \"#utility.yul\":930:944   */\n      add\n        /* \"#utility.yul\":922:944   */\n      swap1\n      pop\n        /* \"#utility.yul\":837:950   */\n      swap2\n      swap1\n      pop\n      jump\t// out\n        /* \"#utility.yul\":986:1718   */\n    tag_204:\n        /* \"#utility.yul\":1105:1108   */\n      0x00\n        /* \"#utility.yul\":1134:1188   */\n      tag_280\n        /* \"#utility.yul\":1182:1187   */\n      dup3\n        /* \"#utility.yul\":1134:1188   */\n      tag_197\n      jump\t// in\n    tag_280:\n        /* \"#utility.yul\":1204:1290   */\n      tag_281\n        /* \"#utility.yul\":1283:1289   */\n      dup2\n        /* \"#utility.yul\":1278:1281   */\n      dup6\n        /* \"#utility.yul\":1204:1290   */\n      tag_198\n      jump\t// in\n    tag_281:\n        /* \"#utility.yul\":1197:1290   */\n      swap4\n      pop\n        /* \"#utility.yul\":1314:1370   */\n      tag_282\n        /* \"#utility.yul\":1364:1369   */\n      dup4\n        /* \"#utility.yul\":1314:1370   */\n      tag_199\n      jump\t// in\n    tag_282:\n        /* \"#utility.yul\":1393:1400   */\n      dup1\n        /* \"#utility.yul\":1424:1425   */\n      0x00\n        /* \"#utility.yul\":1409:1693   */\n    tag_283:\n        /* \"#utility.yul\":1434:1440   */\n      dup4\n        /* \"#utility.yul\":1431:1432   */\n      dup2\n        /* \"#utility.yul\":1428:1441   */\n      lt\n        /* \"#utility.yul\":1409:1693   */\n      iszero\n      tag_285\n      jumpi\n        /* \"#utility.yul\":1510:1516   */\n      dup2\n        /* \"#utility.yul\":1504:1517   */\n      mload\n        /* \"#utility.yul\":1537:1600   */\n      tag_286\n        /* \"#utility.yul\":1596:1599   */\n      dup9\n        /* \"#utility.yul\":1581:1594   */\n      dup3\n        /* \"#utility.yul\":1537:1600   */\n      tag_202\n      jump\t// in\n    tag_286:\n        /* \"#utility.yul\":1530:1600   */\n      swap8\n      pop\n        /* \"#utility.yul\":1623:1683   */\n      tag_287\n        /* \"#utility.yul\":1676:1682   */\n      dup4\n        /* \"#utility.yul\":1623:1683   */\n      tag_203\n      jump\t// in\n    tag_287:\n        /* \"#utility.yul\":1613:1683   */\n      swap3\n      pop\n        /* \"#utility.yul\":1469:1693   */\n      pop\n        /* \"#utility.yul\":1456:1457   */\n      0x01\n        /* \"#utility.yul\":1453:1454   */\n      dup2\n        /* \"#utility.yul\":1449:1458   */\n      add\n        /* \"#utility.yul\":1444:1458   */\n      swap1\n      pop\n        /* \"#utility.yul\":1409:1693   */\n      jump(tag_283)\n    tag_285:\n        /* \"#utility.yul\":1413:1427   */\n      pop\n        /* \"#utility.yul\":1709:1712   */\n      dup6\n        /* \"#utility.yul\":1702:1712   */\n      swap4\n      pop\n        /* \"#utility.yul\":1110:1718   */\n      pop\n      pop\n      pop\n        /* \"#utility.yul\":986:1718   */\n      swap3\n      swap2\n      pop\n      pop\n      jump\t// out\n        /* \"#utility.yul\":1724:2097   */\n    tag_18:\n        /* \"#utility.yul\":1867:1871   */\n      0x00\n        /* \"#utility.yul\":1905:1907   */\n      0x20\n        /* \"#utility.yul\":1894:1903   */\n      dup3\n        /* \"#utility.yul\":1890:1908   */\n      add\n        /* \"#utility.yul\":1882:1908   */\n      swap1\n      pop\n        /* \"#utility.yul\":1954:1963   */\n      dup2\n        /* \"#utility.yul\":1948:1952   */\n      dup2\n        /* \"#utility.yul\":1944:1964   */\n      sub\n        /* \"#utility.yul\":1940:1941   */\n      0x00\n        /* \"#utility.yul\":1929:1938   */\n      dup4\n        /* \"#utility.yul\":1925:1942   */\n      add\n        /* \"#utility.yul\":1918:1965   */\n      mstore\n        /* \"#utility.yul\":1982:2090   */\n      tag_289\n        /* \"#utility.yul\":2085:2089   */\n      dup2\n        /* \"#utility.yul\":2076:2082   */\n      dup5\n        /* \"#utility.yul\":1982:2090   */\n      tag_204\n      jump\t// in\n    tag_289:\n        /* \"#utility.yul\":1974:2090   */\n      swap1\n      pop\n        /* \"#utility.yul\":1724:2097   */\n      swap3\n      swap2\n      pop\n      pop\n      jump\t// out\n        /* \"#utility.yul\":2103:2178   */\n    tag_205:\n        /* \"#utility.yul\":2136:2142   */\n      0x00\n        /* \"#utility.yul\":2169:2171   */\n      0x40\n        /* \"#utility.yul\":2163:2172   */\n      mload\n        /* \"#utility.yul\":2153:2172   */\n      swap1\n      pop\n        /* \"#utility.yul\":2103:2178   */\n      swap1\n      jump\t// out\n        /* \"#utility.yul\":2184:2301   */\n    tag_206:\n        /* \"#utility.yul\":2293:2294   */\n      0x00\n        /* \"#utility.yul\":2290:2291   */\n      dup1\n        /* \"#utility.yul\":2283:2295   */\n      revert\n        /* \"#utility.yul\":2307:2424   */\n    tag_207:\n        /* \"#utility.yul\":2416:2417   */\n      0x00\n        /* \"#utility.yul\":2413:2414   */\n      dup1\n        /* \"#utility.yul\":2406:2418   */\n      revert\n        /* \"#utility.yul\":2430:2552   */\n    tag_208:\n        /* \"#utility.yul\":2503:2527   */\n      tag_294\n        /* \"#utility.yul\":2521:2526   */\n      dup2\n        /* \"#utility.yul\":2503:2527   */\n      tag_200\n      jump\t// in\n    tag_294:\n        /* \"#utility.yul\":2496:2501   */\n      dup2\n        /* \"#utility.yul\":2493:2528   */\n      eq\n        /* \"#utility.yul\":2483:2546   */\n      tag_295\n      jumpi\n        /* \"#utility.yul\":2542:2543   */\n      0x00\n        /* \"#utility.yul\":2539:2540   */\n      dup1\n        /* \"#utility.yul\":2532:2544   */\n      revert\n        /* \"#utility.yul\":2483:2546   */\n    tag_295:\n        /* \"#utility.yul\":2430:2552   */\n      pop\n      jump\t// out\n        /* \"#utility.yul\":2558:2697   */\n    tag_209:\n        /* \"#utility.yul\":2604:2609   */\n      0x00\n        /* \"#utility.yul\":2642:2648   */\n      dup2\n        /* \"#utility.yul\":2629:2649   */\n      calldataload\n        /* \"#utility.yul\":2620:2649   */\n      swap1\n      pop\n        /* \"#utility.yul\":2658:2691   */\n      tag_297\n        /* \"#utility.yul\":2685:2690   */\n      dup2\n        /* \"#utility.yul\":2658:2691   */\n      tag_208\n      jump\t// in\n    tag_297:\n        /* \"#utility.yul\":2558:2697   */\n      swap3\n      swap2\n      pop\n      pop\n      jump\t// out\n        /* \"#utility.yul\":2703:3032   */\n    tag_22:\n        /* \"#utility.yul\":2762:2768   */\n      0x00\n        /* \"#utility.yul\":2811:2813   */\n      0x20\n        /* \"#utility.yul\":2799:2808   */\n      dup3\n        /* \"#utility.yul\":2790:2797   */\n      dup5\n        /* \"#utility.yul\":2786:2809   */\n      sub\n        /* \"#utility.yul\":2782:2814   */\n      slt\n        /* \"#utility.yul\":2779:2898   */\n      iszero\n      tag_299\n      jumpi\n        /* \"#utility.yul\":2817:2896   */\n      tag_300\n      tag_206\n      jump\t// in\n    tag_300:\n        /* \"#utility.yul\":2779:2898   */\n    tag_299:\n        /* \"#utility.yul\":2937:2938   */\n      0x00\n        /* \"#utility.yul\":2962:3015   */\n      tag_301\n        /* \"#utility.yul\":3007:3014   */\n      dup5\n        /* \"#utility.yul\":2998:3004   */\n      dup3\n        /* \"#utility.yul\":2987:2996   */\n      dup6\n        /* \"#utility.yul\":2983:3005   */\n      add\n        /* \"#utility.yul\":2962:3015   */\n      tag_209\n      jump\t// in\n    tag_301:\n        /* \"#utility.yul\":2952:3015   */\n      swap2\n      pop\n        /* \"#utility.yul\":2908:3025   */\n      pop\n        /* \"#utility.yul\":2703:3032   */\n      swap3\n      swap2\n      pop\n      pop\n      jump\t// out\n        /* \"#utility.yul\":3038:3156   */\n    tag_210:\n        /* \"#utility.yul\":3125:3149   */\n      tag_303\n        /* \"#utility.yul\":3143:3148   */\n      dup2\n        /* \"#utility.yul\":3125:3149   */\n      tag_200\n      jump\t// in\n    tag_303:\n        /* \"#utility.yul\":3120:3123   */\n      dup3\n        /* \"#utility.yul\":3113:3150   */\n      mstore\n        /* \"#utility.yul\":3038:3156   */\n      pop\n      pop\n      jump\t// out\n        /* \"#utility.yul\":3162:3384   */\n    tag_25:\n        /* \"#utility.yul\":3255:3259   */\n      0x00\n        /* \"#utility.yul\":3293:3295   */\n      0x20\n        /* \"#utility.yul\":3282:3291   */\n      dup3\n        /* \"#utility.yul\":3278:3296   */\n      add\n        /* \"#utility.yul\":3270:3296   */\n      swap1\n      pop\n        /* \"#utility.yul\":3306:3377   */\n      tag_305\n        /* \"#utility.yul\":3374:3375   */\n      0x00\n        /* \"#utility.yul\":3363:3372   */\n      dup4\n        /* \"#utility.yul\":3359:3376   */\n      add\n        /* \"#utility.yul\":3350:3356   */\n      dup5\n        /* \"#utility.yul\":3306:3377   */\n      tag_210\n      jump\t// in\n    tag_305:\n        /* \"#utility.yul\":3162:3384   */\n      swap3\n      swap2\n      pop\n      pop\n      jump\t// out\n        /* \"#utility.yul\":3390:3489   */\n    tag_211:\n        /* \"#utility.yul\":3442:3448   */\n      0x00\n        /* \"#utility.yul\":3476:3481   */\n      dup2\n        /* \"#utility.yul\":3470:3482   */\n      mload\n        /* \"#utility.yul\":3460:3482   */\n      swap1\n      pop\n        /* \"#utility.yul\":3390:3489   */\n      swap2\n      swap1\n      pop\n      jump\t// out\n        /* \"#utility.yul\":3495:3664   */\n    tag_212:\n        /* \"#utility.yul\":3579:3590   */\n      0x00\n        /* \"#utility.yul\":3613:3619   */\n      dup3\n        /* \"#utility.yul\":3608:3611   */\n      dup3\n        /* \"#utility.yul\":3601:3620   */\n      mstore\n        /* \"#utility.yul\":3653:3657   */\n      0x20\n        /* \"#utility.yul\":3648:3651   */\n      dup3\n        /* \"#utility.yul\":3644:3658   */\n      add\n        /* \"#utility.yul\":3629:3658   */\n      swap1\n      pop\n        /* \"#utility.yul\":3495:3664   */\n      swap3\n      swap2\n      pop\n      pop\n      jump\t// out\n        /* \"#utility.yul\":3670:3809   */\n    tag_213:\n        /* \"#utility.yul\":3759:3765   */\n      dup3\n        /* \"#utility.yul\":3754:3757   */\n      dup2\n        /* \"#utility.yul\":3749:3752   */\n      dup4\n        /* \"#utility.yul\":3743:3766   */\n      mcopy\n        /* \"#utility.yul\":3800:3801   */\n      0x00\n        /* \"#utility.yul\":3791:3797   */\n      dup4\n        /* \"#utility.yul\":3786:3789   */\n      dup4\n        /* \"#utility.yul\":3782:3798   */\n      add\n        /* \"#utility.yul\":3775:3802   */\n      mstore\n        /* \"#utility.yul\":3670:3809   */\n      pop\n      pop\n      pop\n      jump\t// out\n        /* \"#utility.yul\":3815:3917   */\n    tag_214:\n        /* \"#utility.yul\":3856:3862   */\n      0x00\n        /* \"#utility.yul\":3907:3909   */\n      0x1f\n        /* \"#utility.yul\":3903:3910   */\n      not\n        /* \"#utility.yul\":3898:3900   */\n      0x1f\n        /* \"#utility.yul\":3891:3896   */\n      dup4\n        /* \"#utility.yul\":3887:3901   */\n      add\n        /* \"#utility.yul\":3883:3911   */\n      and\n        /* \"#utility.yul\":3873:3911   */\n      swap1\n      pop\n        /* \"#utility.yul\":3815:3917   */\n      swap2\n      swap1\n      pop\n      jump\t// out\n        /* \"#utility.yul\":3923:4300   */\n    tag_215:\n        /* \"#utility.yul\":4011:4014   */\n      0x00\n        /* \"#utility.yul\":4039:4078   */\n      tag_311\n        /* \"#utility.yul\":4072:4077   */\n      dup3\n        /* \"#utility.yul\":4039:4078   */\n      tag_211\n      jump\t// in\n    tag_311:\n        /* \"#utility.yul\":4094:4165   */\n      tag_312\n        /* \"#utility.yul\":4158:4164   */\n      dup2\n        /* \"#utility.yul\":4153:4156   */\n      dup6\n        /* \"#utility.yul\":4094:4165   */\n      tag_212\n      jump\t// in\n    tag_312:\n        /* \"#utility.yul\":4087:4165   */\n      swap4\n      pop\n        /* \"#utility.yul\":4174:4239   */\n      tag_313\n        /* \"#utility.yul\":4232:4238   */\n      dup2\n        /* \"#utility.yul\":4227:4230   */\n      dup6\n        /* \"#utility.yul\":4220:4224   */\n      0x20\n        /* \"#utility.yul\":4213:4218   */\n      dup7\n        /* \"#utility.yul\":4209:4225   */\n      add\n        /* \"#utility.yul\":4174:4239   */\n      tag_213\n      jump\t// in\n    tag_313:\n        /* \"#utility.yul\":4264:4293   */\n      tag_314\n        /* \"#utility.yul\":4286:4292   */\n      dup2\n        /* \"#utility.yul\":4264:4293   */\n      tag_214\n      jump\t// in\n    tag_314:\n        /* \"#utility.yul\":4259:4262   */\n      dup5\n        /* \"#utility.yul\":4255:4294   */\n      add\n        /* \"#utility.yul\":4248:4294   */\n      swap2\n      pop\n        /* \"#utility.yul\":4015:4300   */\n      pop\n        /* \"#utility.yul\":3923:4300   */\n      swap3\n      swap2\n      pop\n      pop\n      jump\t// out\n        /* \"#utility.yul\":4306:4396   */\n    tag_216:\n        /* \"#utility.yul\":4340:4347   */\n      0x00\n        /* \"#utility.yul\":4383:4388   */\n      dup2\n        /* \"#utility.yul\":4376:4389   */\n      iszero\n        /* \"#utility.yul\":4369:4390   */\n      iszero\n        /* \"#utility.yul\":4358:4390   */\n      swap1\n      pop\n        /* \"#utility.yul\":4306:4396   */\n      swap2\n      swap1\n      pop\n      jump\t// out\n        /* \"#utility.yul\":4402:4511   */\n    tag_217:\n        /* \"#utility.yul\":4483:4504   */\n      tag_317\n        /* \"#utility.yul\":4498:4503   */\n      dup2\n        /* \"#utility.yul\":4483:4504   */\n      tag_216\n      jump\t// in\n    tag_317:\n        /* \"#utility.yul\":4478:4481   */\n      dup3\n        /* \"#utility.yul\":4471:4505   */\n      mstore\n        /* \"#utility.yul\":4402:4511   */\n      pop\n      pop\n      jump\t// out\n        /* \"#utility.yul\":4517:5351   */\n    tag_35:\n        /* \"#utility.yul\":4756:4760   */\n      0x00\n        /* \"#utility.yul\":4794:4797   */\n      0xa0\n        /* \"#utility.yul\":4783:4792   */\n      dup3\n        /* \"#utility.yul\":4779:4798   */\n      add\n        /* \"#utility.yul\":4771:4798   */\n      swap1\n      pop\n        /* \"#utility.yul\":4844:4853   */\n      dup2\n        /* \"#utility.yul\":4838:4842   */\n      dup2\n        /* \"#utility.yul\":4834:4854   */\n      sub\n        /* \"#utility.yul\":4830:4831   */\n      0x00\n        /* \"#utility.yul\":4819:4828   */\n      dup4\n        /* \"#utility.yul\":4815:4832   */\n      add\n        /* \"#utility.yul\":4808:4855   */\n      mstore\n        /* \"#utility.yul\":4872:4950   */\n      tag_319\n        /* \"#utility.yul\":4945:4949   */\n      dup2\n        /* \"#utility.yul\":4936:4942   */\n      dup9\n        /* \"#utility.yul\":4872:4950   */\n      tag_215\n      jump\t// in\n    tag_319:\n        /* \"#utility.yul\":4864:4950   */\n      swap1\n      pop\n        /* \"#utility.yul\":4997:5006   */\n      dup2\n        /* \"#utility.yul\":4991:4995   */\n      dup2\n        /* \"#utility.yul\":4987:5007   */\n      sub\n        /* \"#utility.yul\":4982:4984   */\n      0x20\n        /* \"#utility.yul\":4971:4980   */\n      dup4\n        /* \"#utility.yul\":4967:4985   */\n      add\n        /* \"#utility.yul\":4960:5008   */\n      mstore\n        /* \"#utility.yul\":5025:5103   */\n      tag_320\n        /* \"#utility.yul\":5098:5102   */\n      dup2\n        /* \"#utility.yul\":5089:5095   */\n      dup8\n        /* \"#utility.yul\":5025:5103   */\n      tag_215\n      jump\t// in\n    tag_320:\n        /* \"#utility.yul\":5017:5103   */\n      swap1\n      pop\n        /* \"#utility.yul\":5113:5185   */\n      tag_321\n        /* \"#utility.yul\":5181:5183   */\n      0x40\n        /* \"#utility.yul\":5170:5179   */\n      dup4\n        /* \"#utility.yul\":5166:5184   */\n      add\n        /* \"#utility.yul\":5157:5163   */\n      dup7\n        /* \"#utility.yul\":5113:5185   */\n      tag_210\n      jump\t// in\n    tag_321:\n        /* \"#utility.yul\":5195:5267   */\n      tag_322\n        /* \"#utility.yul\":5263:5265   */\n      0x60\n        /* \"#utility.yul\":5252:5261   */\n      dup4\n        /* \"#utility.yul\":5248:5266   */\n      add\n        /* \"#utility.yul\":5239:5245   */\n      dup6\n        /* \"#utility.yul\":5195:5267   */\n      tag_210\n      jump\t// in\n    tag_322:\n        /* \"#utility.yul\":5277:5344   */\n      tag_323\n        /* \"#utility.yul\":5339:5342   */\n      0x80\n        /* \"#utility.yul\":5328:5337   */\n      dup4\n        /* \"#utility.yul\":5324:5343   */\n      add\n        /* \"#utility.yul\":5315:5321   */\n      dup5\n        /* \"#utility.yul\":5277:5344   */\n      tag_217\n      jump\t// in\n    tag_323:\n        /* \"#utility.yul\":4517:5351   */\n      swap7\n      swap6\n      pop\n      pop\n      pop\n      pop\n      pop\n      pop\n      jump\t// out\n        /* \"#utility.yul\":5357:5446   */\n    tag_218:\n        /* \"#utility.yul\":5393:5400   */\n      0x00\n        /* \"#utility.yul\":5433:5439   */\n      0xffff\n        /* \"#utility.yul\":5426:5431   */\n      dup3\n        /* \"#utility.yul\":5422:5440   */\n      and\n        /* \"#utility.yul\":5411:5440   */\n      swap1\n      pop\n        /* \"#utility.yul\":5357:5446   */\n      swap2\n      swap1\n      pop\n      jump\t// out\n        /* \"#utility.yul\":5452:5567   */\n    tag_219:\n        /* \"#utility.yul\":5537:5560   */\n      tag_326\n        /* \"#utility.yul\":5554:5559   */\n      dup2\n        /* \"#utility.yul\":5537:5560   */\n      tag_218\n      jump\t// in\n    tag_326:\n        /* \"#utility.yul\":5532:5535   */\n      dup3\n        /* \"#utility.yul\":5525:5561   */\n      mstore\n        /* \"#utility.yul\":5452:5567   */\n      pop\n      pop\n      jump\t// out\n        /* \"#utility.yul\":5573:6403   */\n    tag_41:\n        /* \"#utility.yul\":5810:5814   */\n      0x00\n        /* \"#utility.yul\":5848:5851   */\n      0xa0\n        /* \"#utility.yul\":5837:5846   */\n      dup3\n        /* \"#utility.yul\":5833:5852   */\n      add\n        /* \"#utility.yul\":5825:5852   */\n      swap1\n      pop\n        /* \"#utility.yul\":5898:5907   */\n      dup2\n        /* \"#utility.yul\":5892:5896   */\n      dup2\n        /* \"#utility.yul\":5888:5908   */\n      sub\n        /* \"#utility.yul\":5884:5885   */\n      0x00\n        /* \"#utility.yul\":5873:5882   */\n      dup4\n        /* \"#utility.yul\":5869:5886   */\n      add\n        /* \"#utility.yul\":5862:5909   */\n      mstore\n        /* \"#utility.yul\":5926:6004   */\n      tag_328\n        /* \"#utility.yul\":5999:6003   */\n      dup2\n        /* \"#utility.yul\":5990:5996   */\n      dup9\n        /* \"#utility.yul\":5926:6004   */\n      tag_215\n      jump\t// in\n    tag_328:\n        /* \"#utility.yul\":5918:6004   */\n      swap1\n      pop\n        /* \"#utility.yul\":6051:6060   */\n      dup2\n        /* \"#utility.yul\":6045:6049   */\n      dup2\n        /* \"#utility.yul\":6041:6061   */\n      sub\n        /* \"#utility.yul\":6036:6038   */\n      0x20\n        /* \"#utility.yul\":6025:6034   */\n      dup4\n        /* \"#utility.yul\":6021:6039   */\n      add\n        /* \"#utility.yul\":6014:6062   */\n      mstore\n        /* \"#utility.yul\":6079:6157   */\n      tag_329\n        /* \"#utility.yul\":6152:6156   */\n      dup2\n        /* \"#utility.yul\":6143:6149   */\n      dup8\n        /* \"#utility.yul\":6079:6157   */\n      tag_215\n      jump\t// in\n    tag_329:\n        /* \"#utility.yul\":6071:6157   */\n      swap1\n      pop\n        /* \"#utility.yul\":6167:6237   */\n      tag_330\n        /* \"#utility.yul\":6233:6235   */\n      0x40\n        /* \"#utility.yul\":6222:6231   */\n      dup4\n        /* \"#utility.yul\":6218:6236   */\n      add\n        /* \"#utility.yul\":6209:6215   */\n      dup7\n        /* \"#utility.yul\":6167:6237   */\n      tag_219\n      jump\t// in\n    tag_330:\n        /* \"#utility.yul\":6247:6319   */\n      tag_331\n        /* \"#utility.yul\":6315:6317   */\n      0x60\n        /* \"#utility.yul\":6304:6313   */\n      dup4\n        /* \"#utility.yul\":6300:6318   */\n      add\n        /* \"#utility.yul\":6291:6297   */\n      dup6\n        /* \"#utility.yul\":6247:6319   */\n      tag_210\n      jump\t// in\n    tag_331:\n        /* \"#utility.yul\":6329:6396   */\n      tag_332\n        /* \"#utility.yul\":6391:6394   */\n      0x80\n        /* \"#utility.yul\":6380:6389   */\n      dup4\n        /* \"#utility.yul\":6376:6395   */\n      add\n        /* \"#utility.yul\":6367:6373   */\n      dup5\n        /* \"#utility.yul\":6329:6396   */\n      tag_217\n      jump\t// in\n    tag_332:\n        /* \"#utility.yul\":5573:6403   */\n      swap7\n      swap6\n      pop\n      pop\n      pop\n      pop\n      pop\n      pop\n      jump\t// out\n        /* \"#utility.yul\":6409:6535   */\n    tag_220:\n        /* \"#utility.yul\":6446:6453   */\n      0x00\n        /* \"#utility.yul\":6486:6528   */\n      0xffffffffffffffffffffffffffffffffffffffff\n        /* \"#utility.yul\":6479:6484   */\n      dup3\n        /* \"#utility.yul\":6475:6529   */\n      and\n        /* \"#utility.yul\":6464:6529   */\n      swap1\n      pop\n        /* \"#utility.yul\":6409:6535   */\n      swap2\n      swap1\n      pop\n      jump\t// out\n        /* \"#utility.yul\":6541:6637   */\n    tag_221:\n        /* \"#utility.yul\":6578:6585   */\n      0x00\n        /* \"#utility.yul\":6607:6631   */\n      tag_335\n        /* \"#utility.yul\":6625:6630   */\n      dup3\n        /* \"#utility.yul\":6607:6631   */\n      tag_220\n      jump\t// in\n    tag_335:\n        /* \"#utility.yul\":6596:6631   */\n      swap1\n      pop\n        /* \"#utility.yul\":6541:6637   */\n      swap2\n      swap1\n      pop\n      jump\t// out\n        /* \"#utility.yul\":6643:6761   */\n    tag_222:\n        /* \"#utility.yul\":6730:6754   */\n      tag_337\n        /* \"#utility.yul\":6748:6753   */\n      dup2\n        /* \"#utility.yul\":6730:6754   */\n      tag_221\n      jump\t// in\n    tag_337:\n        /* \"#utility.yul\":6725:6728   */\n      dup3\n        /* \"#utility.yul\":6718:6755   */\n      mstore\n        /* \"#utility.yul\":6643:6761   */\n      pop\n      pop\n      jump\t// out\n        /* \"#utility.yul\":6767:6989   */\n    tag_46:\n        /* \"#utility.yul\":6860:6864   */\n      0x00\n        /* \"#utility.yul\":6898:6900   */\n      0x20\n        /* \"#utility.yul\":6887:6896   */\n      dup3\n        /* \"#utility.yul\":6883:6901   */\n      add\n        /* \"#utility.yul\":6875:6901   */\n      swap1\n      pop\n        /* \"#utility.yul\":6911:6982   */\n      tag_339\n        /* \"#utility.yul\":6979:6980   */\n      0x00\n        /* \"#utility.yul\":6968:6977   */\n      dup4\n        /* \"#utility.yul\":6964:6981   */\n      add\n        /* \"#utility.yul\":6955:6961   */\n      dup5\n        /* \"#utility.yul\":6911:6982   */\n      tag_222\n      jump\t// in\n    tag_339:\n        /* \"#utility.yul\":6767:6989   */\n      swap3\n      swap2\n      pop\n      pop\n      jump\t// out\n        /* \"#utility.yul\":6995:7112   */\n    tag_223:\n        /* \"#utility.yul\":7104:7105   */\n      0x00\n        /* \"#utility.yul\":7101:7102   */\n      dup1\n        /* \"#utility.yul\":7094:7106   */\n      revert\n        /* \"#utility.yul\":7118:7235   */\n    tag_224:\n        /* \"#utility.yul\":7227:7228   */\n      0x00\n        /* \"#utility.yul\":7224:7225   */\n      dup1\n        /* \"#utility.yul\":7217:7229   */\n      revert\n        /* \"#utility.yul\":7241:7421   */\n    tag_225:\n        /* \"#utility.yul\":7289:7366   */\n      0x4e487b7100000000000000000000000000000000000000000000000000000000\n        /* \"#utility.yul\":7286:7287   */\n      0x00\n        /* \"#utility.yul\":7279:7367   */\n      mstore\n        /* \"#utility.yul\":7386:7390   */\n      0x41\n        /* \"#utility.yul\":7383:7384   */\n      0x04\n        /* \"#utility.yul\":7376:7391   */\n      mstore\n        /* \"#utility.yul\":7410:7414   */\n      0x24\n        /* \"#utility.yul\":7407:7408   */\n      0x00\n        /* \"#utility.yul\":7400:7415   */\n      revert\n        /* \"#utility.yul\":7427:7708   */\n    tag_226:\n        /* \"#utility.yul\":7510:7537   */\n      tag_344\n        /* \"#utility.yul\":7532:7536   */\n      dup3\n        /* \"#utility.yul\":7510:7537   */\n      tag_214\n      jump\t// in\n    tag_344:\n        /* \"#utility.yul\":7502:7508   */\n      dup2\n        /* \"#utility.yul\":7498:7538   */\n      add\n        /* \"#utility.yul\":7640:7646   */\n      dup2\n        /* \"#utility.yul\":7628:7638   */\n      dup2\n        /* \"#utility.yul\":7625:7647   */\n      lt\n        /* \"#utility.yul\":7604:7622   */\n      0xffffffffffffffff\n        /* \"#utility.yul\":7592:7602   */\n      dup3\n        /* \"#utility.yul\":7589:7623   */\n      gt\n        /* \"#utility.yul\":7586:7648   */\n      or\n        /* \"#utility.yul\":7583:7671   */\n      iszero\n      tag_345\n      jumpi\n        /* \"#utility.yul\":7651:7669   */\n      tag_346\n      tag_225\n      jump\t// in\n    tag_346:\n        /* \"#utility.yul\":7583:7671   */\n    tag_345:\n        /* \"#utility.yul\":7691:7701   */\n      dup1\n        /* \"#utility.yul\":7687:7689   */\n      0x40\n        /* \"#utility.yul\":7680:7702   */\n      mstore\n        /* \"#utility.yul\":7470:7708   */\n      pop\n        /* \"#utility.yul\":7427:7708   */\n      pop\n      pop\n      jump\t// out\n        /* \"#utility.yul\":7714:7843   */\n    tag_227:\n        /* \"#utility.yul\":7748:7754   */\n      0x00\n        /* \"#utility.yul\":7775:7795   */\n      tag_348\n      tag_205\n      jump\t// in\n    tag_348:\n        /* \"#utility.yul\":7765:7795   */\n      swap1\n      pop\n        /* \"#utility.yul\":7804:7837   */\n      tag_349\n        /* \"#utility.yul\":7832:7836   */\n      dup3\n        /* \"#utility.yul\":7824:7830   */\n      dup3\n        /* \"#utility.yul\":7804:7837   */\n      tag_226\n      jump\t// in\n    tag_349:\n        /* \"#utility.yul\":7714:7843   */\n      swap2\n      swap1\n      pop\n      jump\t// out\n        /* \"#utility.yul\":7849:8157   */\n    tag_228:\n        /* \"#utility.yul\":7911:7915   */\n      0x00\n        /* \"#utility.yul\":8001:8019   */\n      0xffffffffffffffff\n        /* \"#utility.yul\":7993:7999   */\n      dup3\n        /* \"#utility.yul\":7990:8020   */\n      gt\n        /* \"#utility.yul\":7987:8043   */\n      iszero\n      tag_351\n      jumpi\n        /* \"#utility.yul\":8023:8041   */\n      tag_352\n      tag_225\n      jump\t// in\n    tag_352:\n        /* \"#utility.yul\":7987:8043   */\n    tag_351:\n        /* \"#utility.yul\":8061:8090   */\n      tag_353\n        /* \"#utility.yul\":8083:8089   */\n      dup3\n        /* \"#utility.yul\":8061:8090   */\n      tag_214\n      jump\t// in\n    tag_353:\n        /* \"#utility.yul\":8053:8090   */\n      swap1\n      pop\n        /* \"#utility.yul\":8145:8149   */\n      0x20\n        /* \"#utility.yul\":8139:8143   */\n      dup2\n        /* \"#utility.yul\":8135:8150   */\n      add\n        /* \"#utility.yul\":8127:8150   */\n      swap1\n      pop\n        /* \"#utility.yul\":7849:8157   */\n      swap2\n      swap1\n      pop\n      jump\t// out\n        /* \"#utility.yul\":8163:8311   */\n    tag_229:\n        /* \"#utility.yul\":8261:8267   */\n      dup3\n        /* \"#utility.yul\":8256:8259   */\n      dup2\n        /* \"#utility.yul\":8251:8254   */\n      dup4\n        /* \"#utility.yul\":8238:8268   */\n      calldatacopy\n        /* \"#utility.yul\":8302:8303   */\n      0x00\n        /* \"#utility.yul\":8293:8299   */\n      dup4\n        /* \"#utility.yul\":8288:8291   */\n      dup4\n        /* \"#utility.yul\":8284:8300   */\n      add\n        /* \"#utility.yul\":8277:8304   */\n      mstore\n        /* \"#utility.yul\":8163:8311   */\n      pop\n      pop\n      pop\n      jump\t// out\n        /* \"#utility.yul\":8317:8742   */\n    tag_230:\n        /* \"#utility.yul\":8395:8400   */\n      0x00\n        /* \"#utility.yul\":8420:8486   */\n      tag_356\n        /* \"#utility.yul\":8436:8485   */\n      tag_357\n        /* \"#utility.yul\":8478:8484   */\n      dup5\n        /* \"#utility.yul\":8436:8485   */\n      tag_228\n      jump\t// in\n    tag_357:\n        /* \"#utility.yul\":8420:8486   */\n      tag_227\n      jump\t// in\n    tag_356:\n        /* \"#utility.yul\":8411:8486   */\n      swap1\n      pop\n        /* \"#utility.yul\":8509:8515   */\n      dup3\n        /* \"#utility.yul\":8502:8507   */\n      dup2\n        /* \"#utility.yul\":8495:8516   */\n      mstore\n        /* \"#utility.yul\":8547:8551   */\n      0x20\n        /* \"#utility.yul\":8540:8545   */\n      dup2\n        /* \"#utility.yul\":8536:8552   */\n      add\n        /* \"#utility.yul\":8585:8588   */\n      dup5\n        /* \"#utility.yul\":8576:8582   */\n      dup5\n        /* \"#utility.yul\":8571:8574   */\n      dup5\n        /* \"#utility.yul\":8567:8583   */\n      add\n        /* \"#utility.yul\":8564:8589   */\n      gt\n        /* \"#utility.yul\":8561:8673   */\n      iszero\n      tag_358\n      jumpi\n        /* \"#utility.yul\":8592:8671   */\n      tag_359\n      tag_224\n      jump\t// in\n    tag_359:\n        /* \"#utility.yul\":8561:8673   */\n    tag_358:\n        /* \"#utility.yul\":8682:8736   */\n      tag_360\n        /* \"#utility.yul\":8729:8735   */\n      dup5\n        /* \"#utility.yul\":8724:8727   */\n      dup3\n        /* \"#utility.yul\":8719:8722   */\n      dup6\n        /* \"#utility.yul\":8682:8736   */\n      tag_229\n      jump\t// in\n    tag_360:\n        /* \"#utility.yul\":8401:8742   */\n      pop\n        /* \"#utility.yul\":8317:8742   */\n      swap4\n      swap3\n      pop\n      pop\n      pop\n      jump\t// out\n        /* \"#utility.yul\":8762:9102   */\n    tag_231:\n        /* \"#utility.yul\":8818:8823   */\n      0x00\n        /* \"#utility.yul\":8867:8870   */\n      dup3\n        /* \"#utility.yul\":8860:8864   */\n      0x1f\n        /* \"#utility.yul\":8852:8858   */\n      dup4\n        /* \"#utility.yul\":8848:8865   */\n      add\n        /* \"#utility.yul\":8844:8871   */\n      slt\n        /* \"#utility.yul\":8834:8956   */\n      tag_362\n      jumpi\n        /* \"#utility.yul\":8875:8954   */\n      tag_363\n      tag_223\n      jump\t// in\n    tag_363:\n        /* \"#utility.yul\":8834:8956   */\n    tag_362:\n        /* \"#utility.yul\":8992:8998   */\n      dup2\n        /* \"#utility.yul\":8979:8999   */\n      calldataload\n        /* \"#utility.yul\":9017:9096   */\n      tag_364\n        /* \"#utility.yul\":9092:9095   */\n      dup5\n        /* \"#utility.yul\":9084:9090   */\n      dup3\n        /* \"#utility.yul\":9077:9081   */\n      0x20\n        /* \"#utility.yul\":9069:9075   */\n      dup7\n        /* \"#utility.yul\":9065:9082   */\n      add\n        /* \"#utility.yul\":9017:9096   */\n      tag_230\n      jump\t// in\n    tag_364:\n        /* \"#utility.yul\":9008:9096   */\n      swap2\n      pop\n        /* \"#utility.yul\":8824:9102   */\n      pop\n        /* \"#utility.yul\":8762:9102   */\n      swap3\n      swap2\n      pop\n      pop\n      jump\t// out\n        /* \"#utility.yul\":9108:9228   */\n    tag_232:\n        /* \"#utility.yul\":9180:9203   */\n      tag_366\n        /* \"#utility.yul\":9197:9202   */\n      dup2\n        /* \"#utility.yul\":9180:9203   */\n      tag_218\n      jump\t// in\n    tag_366:\n        /* \"#utility.yul\":9173:9178   */\n      dup2\n        /* \"#utility.yul\":9170:9204   */\n      eq\n        /* \"#utility.yul\":9160:9222   */\n      tag_367\n      jumpi\n        /* \"#utility.yul\":9218:9219   */\n      0x00\n        /* \"#utility.yul\":9215:9216   */\n      dup1\n        /* \"#utility.yul\":9208:9220   */\n      revert\n        /* \"#utility.yul\":9160:9222   */\n    tag_367:\n        /* \"#utility.yul\":9108:9228   */\n      pop\n      jump\t// out\n        /* \"#utility.yul\":9234:9371   */\n    tag_233:\n        /* \"#utility.yul\":9279:9284   */\n      0x00\n        /* \"#utility.yul\":9317:9323   */\n      dup2\n        /* \"#utility.yul\":9304:9324   */\n      calldataload\n        /* \"#utility.yul\":9295:9324   */\n      swap1\n      pop\n        /* \"#utility.yul\":9333:9365   */\n      tag_369\n        /* \"#utility.yul\":9359:9364   */\n      dup2\n        /* \"#utility.yul\":9333:9365   */\n      tag_232\n      jump\t// in\n    tag_369:\n        /* \"#utility.yul\":9234:9371   */\n      swap3\n      swap2\n      pop\n      pop\n      jump\t// out\n        /* \"#utility.yul\":9377:10646   */\n    tag_58:\n        /* \"#utility.yul\":9491:9497   */\n      0x00\n        /* \"#utility.yul\":9499:9505   */\n      dup1\n        /* \"#utility.yul\":9507:9513   */\n      0x00\n        /* \"#utility.yul\":9515:9521   */\n      dup1\n        /* \"#utility.yul\":9523:9529   */\n      0x00\n        /* \"#utility.yul\":9572:9575   */\n      0xa0\n        /* \"#utility.yul\":9560:9569   */\n      dup7\n        /* \"#utility.yul\":9551:9558   */\n      dup9\n        /* \"#utility.yul\":9547:9570   */\n      sub\n        /* \"#utility.yul\":9543:9576   */\n      slt\n        /* \"#utility.yul\":9540:9660   */\n      iszero\n      tag_371\n      jumpi\n        /* \"#utility.yul\":9579:9658   */\n      tag_372\n      tag_206\n      jump\t// in\n    tag_372:\n        /* \"#utility.yul\":9540:9660   */\n    tag_371:\n        /* \"#utility.yul\":9699:9700   */\n      0x00\n        /* \"#utility.yul\":9724:9777   */\n      tag_373\n        /* \"#utility.yul\":9769:9776   */\n      dup9\n        /* \"#utility.yul\":9760:9766   */\n      dup3\n        /* \"#utility.yul\":9749:9758   */\n      dup10\n        /* \"#utility.yul\":9745:9767   */\n      add\n        /* \"#utility.yul\":9724:9777   */\n      tag_209\n      jump\t// in\n    tag_373:\n        /* \"#utility.yul\":9714:9777   */\n      swap6\n      pop\n        /* \"#utility.yul\":9670:9787   */\n      pop\n        /* \"#utility.yul\":9854:9856   */\n      0x20\n        /* \"#utility.yul\":9843:9852   */\n      dup7\n        /* \"#utility.yul\":9839:9857   */\n      add\n        /* \"#utility.yul\":9826:9858   */\n      calldataload\n        /* \"#utility.yul\":9885:9903   */\n      0xffffffffffffffff\n        /* \"#utility.yul\":9877:9883   */\n      dup2\n        /* \"#utility.yul\":9874:9904   */\n      gt\n        /* \"#utility.yul\":9871:9988   */\n      iszero\n      tag_374\n      jumpi\n        /* \"#utility.yul\":9907:9986   */\n      tag_375\n      tag_207\n      jump\t// in\n    tag_375:\n        /* \"#utility.yul\":9871:9988   */\n    tag_374:\n        /* \"#utility.yul\":10012:10075   */\n      tag_376\n        /* \"#utility.yul\":10067:10074   */\n      dup9\n        /* \"#utility.yul\":10058:10064   */\n      dup3\n        /* \"#utility.yul\":10047:10056   */\n      dup10\n        /* \"#utility.yul\":10043:10065   */\n      add\n        /* \"#utility.yul\":10012:10075   */\n      tag_231\n      jump\t// in\n    tag_376:\n        /* \"#utility.yul\":10002:10075   */\n      swap5\n      pop\n        /* \"#utility.yul\":9797:10085   */\n      pop\n        /* \"#utility.yul\":10152:10154   */\n      0x40\n        /* \"#utility.yul\":10141:10150   */\n      dup7\n        /* \"#utility.yul\":10137:10155   */\n      add\n        /* \"#utility.yul\":10124:10156   */\n      calldataload\n        /* \"#utility.yul\":10183:10201   */\n      0xffffffffffffffff\n        /* \"#utility.yul\":10175:10181   */\n      dup2\n        /* \"#utility.yul\":10172:10202   */\n      gt\n        /* \"#utility.yul\":10169:10286   */\n      iszero\n      tag_377\n      jumpi\n        /* \"#utility.yul\":10205:10284   */\n      tag_378\n      tag_207\n      jump\t// in\n    tag_378:\n        /* \"#utility.yul\":10169:10286   */\n    tag_377:\n        /* \"#utility.yul\":10310:10373   */\n      tag_379\n        /* \"#utility.yul\":10365:10372   */\n      dup9\n        /* \"#utility.yul\":10356:10362   */\n      dup3\n        /* \"#utility.yul\":10345:10354   */\n      dup10\n        /* \"#utility.yul\":10341:10363   */\n      add\n        /* \"#utility.yul\":10310:10373   */\n      tag_231\n      jump\t// in\n    tag_379:\n        /* \"#utility.yul\":10300:10373   */\n      swap4\n      pop\n        /* \"#utility.yul\":10095:10383   */\n      pop\n        /* \"#utility.yul\":10422:10424   */\n      0x60\n        /* \"#utility.yul\":10448:10501   */\n      tag_380\n        /* \"#utility.yul\":10493:10500   */\n      dup9\n        /* \"#utility.yul\":10484:10490   */\n      dup3\n        /* \"#utility.yul\":10473:10482   */\n      dup10\n        /* \"#utility.yul\":10469:10491   */\n      add\n        /* \"#utility.yul\":10448:10501   */\n      tag_209\n      jump\t// in\n    tag_380:\n        /* \"#utility.yul\":10438:10501   */\n      swap3\n      pop\n        /* \"#utility.yul\":10393:10511   */\n      pop\n        /* \"#utility.yul\":10550:10553   */\n      0x80\n        /* \"#utility.yul\":10577:10629   */\n      tag_381\n        /* \"#utility.yul\":10621:10628   */\n      dup9\n        /* \"#utility.yul\":10612:10618   */\n      dup3\n        /* \"#utility.yul\":10601:10610   */\n      dup10\n        /* \"#utility.yul\":10597:10619   */\n      add\n        /* \"#utility.yul\":10577:10629   */\n      tag_233\n      jump\t// in\n    tag_381:\n        /* \"#utility.yul\":10567:10629   */\n      swap2\n      pop\n        /* \"#utility.yul\":10521:10639   */\n      pop\n        /* \"#utility.yul\":9377:10646   */\n      swap3\n      swap6\n      pop\n      swap3\n      swap6\n      swap1\n      swap4\n      pop\n      jump\t// out\n        /* \"#utility.yul\":10652:11271   */\n    tag_62:\n        /* \"#utility.yul\":10729:10735   */\n      0x00\n        /* \"#utility.yul\":10737:10743   */\n      dup1\n        /* \"#utility.yul\":10745:10751   */\n      0x00\n        /* \"#utility.yul\":10794:10796   */\n      0x60\n        /* \"#utility.yul\":10782:10791   */\n      dup5\n        /* \"#utility.yul\":10773:10780   */\n      dup7\n        /* \"#utility.yul\":10769:10792   */\n      sub\n        /* \"#utility.yul\":10765:10797   */\n      slt\n        /* \"#utility.yul\":10762:10881   */\n      iszero\n      tag_383\n      jumpi\n        /* \"#utility.yul\":10800:10879   */\n      tag_384\n      tag_206\n      jump\t// in\n    tag_384:\n        /* \"#utility.yul\":10762:10881   */\n    tag_383:\n        /* \"#utility.yul\":10920:10921   */\n      0x00\n        /* \"#utility.yul\":10945:10998   */\n      tag_385\n        /* \"#utility.yul\":10990:10997   */\n      dup7\n        /* \"#utility.yul\":10981:10987   */\n      dup3\n        /* \"#utility.yul\":10970:10979   */\n      dup8\n        /* \"#utility.yul\":10966:10988   */\n      add\n        /* \"#utility.yul\":10945:10998   */\n      tag_209\n      jump\t// in\n    tag_385:\n        /* \"#utility.yul\":10935:10998   */\n      swap4\n      pop\n        /* \"#utility.yul\":10891:11008   */\n      pop\n        /* \"#utility.yul\":11047:11049   */\n      0x20\n        /* \"#utility.yul\":11073:11126   */\n      tag_386\n        /* \"#utility.yul\":11118:11125   */\n      dup7\n        /* \"#utility.yul\":11109:11115   */\n      dup3\n        /* \"#utility.yul\":11098:11107   */\n      dup8\n        /* \"#utility.yul\":11094:11116   */\n      add\n        /* \"#utility.yul\":11073:11126   */\n      tag_209\n      jump\t// in\n    tag_386:\n        /* \"#utility.yul\":11063:11126   */\n      swap3\n      pop\n        /* \"#utility.yul\":11018:11136   */\n      pop\n        /* \"#utility.yul\":11175:11177   */\n      0x40\n        /* \"#utility.yul\":11201:11254   */\n      tag_387\n        /* \"#utility.yul\":11246:11253   */\n      dup7\n        /* \"#utility.yul\":11237:11243   */\n      dup3\n        /* \"#utility.yul\":11226:11235   */\n      dup8\n        /* \"#utility.yul\":11222:11244   */\n      add\n        /* \"#utility.yul\":11201:11254   */\n      tag_209\n      jump\t// in\n    tag_387:\n        /* \"#utility.yul\":11191:11254   */\n      swap2\n      pop\n        /* \"#utility.yul\":11146:11264   */\n      pop\n        /* \"#utility.yul\":10652:11271   */\n      swap3\n      pop\n      swap3\n      pop\n      swap3\n      jump\t// out\n        /* \"#utility.yul\":11277:11588   */\n    tag_234:\n        /* \"#utility.yul\":11354:11358   */\n      0x00\n        /* \"#utility.yul\":11444:11462   */\n      0xffffffffffffffff\n        /* \"#utility.yul\":11436:11442   */\n      dup3\n        /* \"#utility.yul\":11433:11463   */\n      gt\n        /* \"#utility.yul\":11430:11486   */\n      iszero\n      tag_389\n      jumpi\n        /* \"#utility.yul\":11466:11484   */\n      tag_390\n      tag_225\n      jump\t// in\n    tag_390:\n        /* \"#utility.yul\":11430:11486   */\n    tag_389:\n        /* \"#utility.yul\":11516:11520   */\n      0x20\n        /* \"#utility.yul\":11508:11514   */\n      dup3\n        /* \"#utility.yul\":11504:11521   */\n      mul\n        /* \"#utility.yul\":11496:11521   */\n      swap1\n      pop\n        /* \"#utility.yul\":11576:11580   */\n      0x20\n        /* \"#utility.yul\":11570:11574   */\n      dup2\n        /* \"#utility.yul\":11566:11581   */\n      add\n        /* \"#utility.yul\":11558:11581   */\n      swap1\n      pop\n        /* \"#utility.yul\":11277:11588   */\n      swap2\n      swap1\n      pop\n      jump\t// out\n        /* \"#utility.yul\":11594:11711   */\n    tag_235:\n        /* \"#utility.yul\":11703:11704   */\n      0x00\n        /* \"#utility.yul\":11700:11701   */\n      dup1\n        /* \"#utility.yul\":11693:11705   */\n      revert\n        /* \"#utility.yul\":11734:12444   */\n    tag_236:\n        /* \"#utility.yul\":11830:11835   */\n      0x00\n        /* \"#utility.yul\":11855:11936   */\n      tag_393\n        /* \"#utility.yul\":11871:11935   */\n      tag_394\n        /* \"#utility.yul\":11928:11934   */\n      dup5\n        /* \"#utility.yul\":11871:11935   */\n      tag_234\n      jump\t// in\n    tag_394:\n        /* \"#utility.yul\":11855:11936   */\n      tag_227\n      jump\t// in\n    tag_393:\n        /* \"#utility.yul\":11846:11936   */\n      swap1\n      pop\n        /* \"#utility.yul\":11956:11961   */\n      dup1\n        /* \"#utility.yul\":11985:11991   */\n      dup4\n        /* \"#utility.yul\":11978:11983   */\n      dup3\n        /* \"#utility.yul\":11971:11992   */\n      mstore\n        /* \"#utility.yul\":12019:12023   */\n      0x20\n        /* \"#utility.yul\":12012:12017   */\n      dup3\n        /* \"#utility.yul\":12008:12024   */\n      add\n        /* \"#utility.yul\":12001:12024   */\n      swap1\n      pop\n        /* \"#utility.yul\":12072:12076   */\n      0x20\n        /* \"#utility.yul\":12064:12070   */\n      dup5\n        /* \"#utility.yul\":12060:12077   */\n      mul\n        /* \"#utility.yul\":12052:12058   */\n      dup4\n        /* \"#utility.yul\":12048:12078   */\n      add\n        /* \"#utility.yul\":12101:12104   */\n      dup6\n        /* \"#utility.yul\":12093:12099   */\n      dup2\n        /* \"#utility.yul\":12090:12105   */\n      gt\n        /* \"#utility.yul\":12087:12209   */\n      iszero\n      tag_395\n      jumpi\n        /* \"#utility.yul\":12120:12199   */\n      tag_396\n      tag_235\n      jump\t// in\n    tag_396:\n        /* \"#utility.yul\":12087:12209   */\n    tag_395:\n        /* \"#utility.yul\":12235:12241   */\n      dup4\n        /* \"#utility.yul\":12218:12438   */\n    tag_397:\n        /* \"#utility.yul\":12252:12258   */\n      dup2\n        /* \"#utility.yul\":12247:12250   */\n      dup2\n        /* \"#utility.yul\":12244:12259   */\n      lt\n        /* \"#utility.yul\":12218:12438   */\n      iszero\n      tag_399\n      jumpi\n        /* \"#utility.yul\":12327:12330   */\n      dup1\n        /* \"#utility.yul\":12356:12393   */\n      tag_400\n        /* \"#utility.yul\":12389:12392   */\n      dup9\n        /* \"#utility.yul\":12377:12387   */\n      dup3\n        /* \"#utility.yul\":12356:12393   */\n      tag_209\n      jump\t// in\n    tag_400:\n        /* \"#utility.yul\":12351:12354   */\n      dup5\n        /* \"#utility.yul\":12344:12394   */\n      mstore\n        /* \"#utility.yul\":12423:12427   */\n      0x20\n        /* \"#utility.yul\":12418:12421   */\n      dup5\n        /* \"#utility.yul\":12414:12428   */\n      add\n        /* \"#utility.yul\":12407:12428   */\n      swap4\n      pop\n        /* \"#utility.yul\":12294:12438   */\n      pop\n        /* \"#utility.yul\":12278:12282   */\n      0x20\n        /* \"#utility.yul\":12273:12276   */\n      dup2\n        /* \"#utility.yul\":12269:12283   */\n      add\n        /* \"#utility.yul\":12262:12283   */\n      swap1\n      pop\n        /* \"#utility.yul\":12218:12438   */\n      jump(tag_397)\n    tag_399:\n        /* \"#utility.yul\":12222:12243   */\n      pop\n        /* \"#utility.yul\":11836:12444   */\n      pop\n      pop\n        /* \"#utility.yul\":11734:12444   */\n      swap4\n      swap3\n      pop\n      pop\n      pop\n      jump\t// out\n        /* \"#utility.yul\":12467:12837   */\n    tag_237:\n        /* \"#utility.yul\":12538:12543   */\n      0x00\n        /* \"#utility.yul\":12587:12590   */\n      dup3\n        /* \"#utility.yul\":12580:12584   */\n      0x1f\n        /* \"#utility.yul\":12572:12578   */\n      dup4\n        /* \"#utility.yul\":12568:12585   */\n      add\n        /* \"#utility.yul\":12564:12591   */\n      slt\n        /* \"#utility.yul\":12554:12676   */\n      tag_402\n      jumpi\n        /* \"#utility.yul\":12595:12674   */\n      tag_403\n      tag_223\n      jump\t// in\n    tag_403:\n        /* \"#utility.yul\":12554:12676   */\n    tag_402:\n        /* \"#utility.yul\":12712:12718   */\n      dup2\n        /* \"#utility.yul\":12699:12719   */\n      calldataload\n        /* \"#utility.yul\":12737:12831   */\n      tag_404\n        /* \"#utility.yul\":12827:12830   */\n      dup5\n        /* \"#utility.yul\":12819:12825   */\n      dup3\n        /* \"#utility.yul\":12812:12816   */\n      0x20\n        /* \"#utility.yul\":12804:12810   */\n      dup7\n        /* \"#utility.yul\":12800:12817   */\n      add\n        /* \"#utility.yul\":12737:12831   */\n      tag_236\n      jump\t// in\n    tag_404:\n        /* \"#utility.yul\":12728:12831   */\n      swap2\n      pop\n        /* \"#utility.yul\":12544:12837   */\n      pop\n        /* \"#utility.yul\":12467:12837   */\n      swap3\n      swap2\n      pop\n      pop\n      jump\t// out\n        /* \"#utility.yul\":12843:13382   */\n    tag_67:\n        /* \"#utility.yul\":12927:12933   */\n      0x00\n        /* \"#utility.yul\":12976:12978   */\n      0x20\n        /* \"#utility.yul\":12964:12973   */\n      dup3\n        /* \"#utility.yul\":12955:12962   */\n      dup5\n        /* \"#utility.yul\":12951:12974   */\n      sub\n        /* \"#utility.yul\":12947:12979   */\n      slt\n        /* \"#utility.yul\":12944:13063   */\n      iszero\n      tag_406\n      jumpi\n        /* \"#utility.yul\":12982:13061   */\n      tag_407\n      tag_206\n      jump\t// in\n    tag_407:\n        /* \"#utility.yul\":12944:13063   */\n    tag_406:\n        /* \"#utility.yul\":13130:13131   */\n      0x00\n        /* \"#utility.yul\":13119:13128   */\n      dup3\n        /* \"#utility.yul\":13115:13132   */\n      add\n        /* \"#utility.yul\":13102:13133   */\n      calldataload\n        /* \"#utility.yul\":13160:13178   */\n      0xffffffffffffffff\n        /* \"#utility.yul\":13152:13158   */\n      dup2\n        /* \"#utility.yul\":13149:13179   */\n      gt\n        /* \"#utility.yul\":13146:13263   */\n      iszero\n      tag_408\n      jumpi\n        /* \"#utility.yul\":13182:13261   */\n      tag_409\n      tag_207\n      jump\t// in\n    tag_409:\n        /* \"#utility.yul\":13146:13263   */\n    tag_408:\n        /* \"#utility.yul\":13287:13365   */\n      tag_410\n        /* \"#utility.yul\":13357:13364   */\n      dup5\n        /* \"#utility.yul\":13348:13354   */\n      dup3\n        /* \"#utility.yul\":13337:13346   */\n      dup6\n        /* \"#utility.yul\":13333:13355   */\n      add\n        /* \"#utility.yul\":13287:13365   */\n      tag_237\n      jump\t// in\n    tag_410:\n        /* \"#utility.yul\":13277:13365   */\n      swap2\n      pop\n        /* \"#utility.yul\":13073:13375   */\n      pop\n        /* \"#utility.yul\":12843:13382   */\n      swap3\n      swap2\n      pop\n      pop\n      jump\t// out\n        /* \"#utility.yul\":13388:13568   */\n    tag_238:\n        /* \"#utility.yul\":13436:13513   */\n      0x4e487b7100000000000000000000000000000000000000000000000000000000\n        /* \"#utility.yul\":13433:13434   */\n      0x00\n        /* \"#utility.yul\":13426:13514   */\n      mstore\n        /* \"#utility.yul\":13533:13537   */\n      0x22\n        /* \"#utility.yul\":13530:13531   */\n      0x04\n        /* \"#utility.yul\":13523:13538   */\n      mstore\n        /* \"#utility.yul\":13557:13561   */\n      0x24\n        /* \"#utility.yul\":13554:13555   */\n      0x00\n        /* \"#utility.yul\":13547:13562   */\n      revert\n        /* \"#utility.yul\":13574:13894   */\n    tag_77:\n        /* \"#utility.yul\":13618:13624   */\n      0x00\n        /* \"#utility.yul\":13655:13656   */\n      0x02\n        /* \"#utility.yul\":13649:13653   */\n      dup3\n        /* \"#utility.yul\":13645:13657   */\n      div\n        /* \"#utility.yul\":13635:13657   */\n      swap1\n      pop\n        /* \"#utility.yul\":13702:13703   */\n      0x01\n        /* \"#utility.yul\":13696:13700   */\n      dup3\n        /* \"#utility.yul\":13692:13704   */\n      and\n        /* \"#utility.yul\":13723:13741   */\n      dup1\n        /* \"#utility.yul\":13713:13794   */\n      tag_413\n      jumpi\n        /* \"#utility.yul\":13779:13783   */\n      0x7f\n        /* \"#utility.yul\":13771:13777   */\n      dup3\n        /* \"#utility.yul\":13767:13784   */\n      and\n        /* \"#utility.yul\":13757:13784   */\n      swap2\n      pop\n        /* \"#utility.yul\":13713:13794   */\n    tag_413:\n        /* \"#utility.yul\":13841:13843   */\n      0x20\n        /* \"#utility.yul\":13833:13839   */\n      dup3\n        /* \"#utility.yul\":13830:13844   */\n      lt\n        /* \"#utility.yul\":13810:13828   */\n      dup2\n        /* \"#utility.yul\":13807:13845   */\n      sub\n        /* \"#utility.yul\":13804:13888   */\n      tag_414\n      jumpi\n        /* \"#utility.yul\":13860:13878   */\n      tag_415\n      tag_238\n      jump\t// in\n    tag_415:\n        /* \"#utility.yul\":13804:13888   */\n    tag_414:\n        /* \"#utility.yul\":13625:13894   */\n      pop\n        /* \"#utility.yul\":13574:13894   */\n      swap2\n      swap1\n      pop\n      jump\t// out\n        /* \"#utility.yul\":13900:14121   */\n    tag_239:\n        /* \"#utility.yul\":14040:14074   */\n      0x4f6e6c79206f776e65722063616e20706572666f726d20746869732061637469\n        /* \"#utility.yul\":14036:14037   */\n      0x00\n        /* \"#utility.yul\":14028:14034   */\n      dup3\n        /* \"#utility.yul\":14024:14038   */\n      add\n        /* \"#utility.yul\":14017:14075   */\n      mstore\n        /* \"#utility.yul\":14109:14113   */\n      0x6f6e000000000000000000000000000000000000000000000000000000000000\n        /* \"#utility.yul\":14104:14106   */\n      0x20\n        /* \"#utility.yul\":14096:14102   */\n      dup3\n        /* \"#utility.yul\":14092:14107   */\n      add\n        /* \"#utility.yul\":14085:14114   */\n      mstore\n        /* \"#utility.yul\":13900:14121   */\n      pop\n      jump\t// out\n        /* \"#utility.yul\":14127:14493   */\n    tag_240:\n        /* \"#utility.yul\":14269:14272   */\n      0x00\n        /* \"#utility.yul\":14290:14357   */\n      tag_418\n        /* \"#utility.yul\":14354:14356   */\n      0x22\n        /* \"#utility.yul\":14349:14352   */\n      dup4\n        /* \"#utility.yul\":14290:14357   */\n      tag_212\n      jump\t// in\n    tag_418:\n        /* \"#utility.yul\":14283:14357   */\n      swap2\n      pop\n        /* \"#utility.yul\":14366:14459   */\n      tag_419\n        /* \"#utility.yul\":14455:14458   */\n      dup3\n        /* \"#utility.yul\":14366:14459   */\n      tag_239\n      jump\t// in\n    tag_419:\n        /* \"#utility.yul\":14484:14486   */\n      0x40\n        /* \"#utility.yul\":14479:14482   */\n      dup3\n        /* \"#utility.yul\":14475:14487   */\n      add\n        /* \"#utility.yul\":14468:14487   */\n      swap1\n      pop\n        /* \"#utility.yul\":14127:14493   */\n      swap2\n      swap1\n      pop\n      jump\t// out\n        /* \"#utility.yul\":14499:14918   */\n    tag_101:\n        /* \"#utility.yul\":14665:14669   */\n      0x00\n        /* \"#utility.yul\":14703:14705   */\n      0x20\n        /* \"#utility.yul\":14692:14701   */\n      dup3\n        /* \"#utility.yul\":14688:14706   */\n      add\n        /* \"#utility.yul\":14680:14706   */\n      swap1\n      pop\n        /* \"#utility.yul\":14752:14761   */\n      dup2\n        /* \"#utility.yul\":14746:14750   */\n      dup2\n        /* \"#utility.yul\":14742:14762   */\n      sub\n        /* \"#utility.yul\":14738:14739   */\n      0x00\n        /* \"#utility.yul\":14727:14736   */\n      dup4\n        /* \"#utility.yul\":14723:14740   */\n      add\n        /* \"#utility.yul\":14716:14763   */\n      mstore\n        /* \"#utility.yul\":14780:14911   */\n      tag_421\n        /* \"#utility.yul\":14906:14910   */\n      dup2\n        /* \"#utility.yul\":14780:14911   */\n      tag_240\n      jump\t// in\n    tag_421:\n        /* \"#utility.yul\":14772:14911   */\n      swap1\n      pop\n        /* \"#utility.yul\":14499:14918   */\n      swap2\n      swap1\n      pop\n      jump\t// out\n        /* \"#utility.yul\":14924:15093   */\n    tag_241:\n        /* \"#utility.yul\":15064:15085   */\n      0x426f6f6b20646f6573206e6f7420657869737400000000000000000000000000\n        /* \"#utility.yul\":15060:15061   */\n      0x00\n        /* \"#utility.yul\":15052:15058   */\n      dup3\n        /* \"#utility.yul\":15048:15062   */\n      add\n        /* \"#utility.yul\":15041:15086   */\n      mstore\n        /* \"#utility.yul\":14924:15093   */\n      pop\n      jump\t// out\n        /* \"#utility.yul\":15099:15465   */\n    tag_242:\n        /* \"#utility.yul\":15241:15244   */\n      0x00\n        /* \"#utility.yul\":15262:15329   */\n      tag_424\n        /* \"#utility.yul\":15326:15328   */\n      0x13\n        /* \"#utility.yul\":15321:15324   */\n      dup4\n        /* \"#utility.yul\":15262:15329   */\n      tag_212\n      jump\t// in\n    tag_424:\n        /* \"#utility.yul\":15255:15329   */\n      swap2\n      pop\n        /* \"#utility.yul\":15338:15431   */\n      tag_425\n        /* \"#utility.yul\":15427:15430   */\n      dup3\n        /* \"#utility.yul\":15338:15431   */\n      tag_241\n      jump\t// in\n    tag_425:\n        /* \"#utility.yul\":15456:15458   */\n      0x20\n        /* \"#utility.yul\":15451:15454   */\n      dup3\n        /* \"#utility.yul\":15447:15459   */\n      add\n        /* \"#utility.yul\":15440:15459   */\n      swap1\n      pop\n        /* \"#utility.yul\":15099:15465   */\n      swap2\n      swap1\n      pop\n      jump\t// out\n        /* \"#utility.yul\":15471:15890   */\n    tag_105:\n        /* \"#utility.yul\":15637:15641   */\n      0x00\n        /* \"#utility.yul\":15675:15677   */\n      0x20\n        /* \"#utility.yul\":15664:15673   */\n      dup3\n        /* \"#utility.yul\":15660:15678   */\n      add\n        /* \"#utility.yul\":15652:15678   */\n      swap1\n      pop\n        /* \"#utility.yul\":15724:15733   */\n      dup2\n        /* \"#utility.yul\":15718:15722   */\n      dup2\n        /* \"#utility.yul\":15714:15734   */\n      sub\n        /* \"#utility.yul\":15710:15711   */\n      0x00\n        /* \"#utility.yul\":15699:15708   */\n      dup4\n        /* \"#utility.yul\":15695:15712   */\n      add\n        /* \"#utility.yul\":15688:15735   */\n      mstore\n        /* \"#utility.yul\":15752:15883   */\n      tag_427\n        /* \"#utility.yul\":15878:15882   */\n      dup2\n        /* \"#utility.yul\":15752:15883   */\n      tag_242\n      jump\t// in\n    tag_427:\n        /* \"#utility.yul\":15744:15883   */\n      swap1\n      pop\n        /* \"#utility.yul\":15471:15890   */\n      swap2\n      swap1\n      pop\n      jump\t// out\n        /* \"#utility.yul\":15896:16076   */\n    tag_114:\n        /* \"#utility.yul\":15944:16021   */\n      0x4e487b7100000000000000000000000000000000000000000000000000000000\n        /* \"#utility.yul\":15941:15942   */\n      0x00\n        /* \"#utility.yul\":15934:16022   */\n      mstore\n        /* \"#utility.yul\":16041:16045   */\n      0x32\n        /* \"#utility.yul\":16038:16039   */\n      0x04\n        /* \"#utility.yul\":16031:16046   */\n      mstore\n        /* \"#utility.yul\":16065:16069   */\n      0x24\n        /* \"#utility.yul\":16062:16063   */\n      0x00\n        /* \"#utility.yul\":16055:16070   */\n      revert\n        /* \"#utility.yul\":16082:16262   */\n    tag_243:\n        /* \"#utility.yul\":16130:16207   */\n      0x4e487b7100000000000000000000000000000000000000000000000000000000\n        /* \"#utility.yul\":16127:16128   */\n      0x00\n        /* \"#utility.yul\":16120:16208   */\n      mstore\n        /* \"#utility.yul\":16227:16231   */\n      0x11\n        /* \"#utility.yul\":16224:16225   */\n      0x04\n        /* \"#utility.yul\":16217:16232   */\n      mstore\n        /* \"#utility.yul\":16251:16255   */\n      0x24\n        /* \"#utility.yul\":16248:16249   */\n      0x00\n        /* \"#utility.yul\":16241:16256   */\n      revert\n        /* \"#utility.yul\":16268:16462   */\n    tag_118:\n        /* \"#utility.yul\":16308:16312   */\n      0x00\n        /* \"#utility.yul\":16328:16348   */\n      tag_431\n        /* \"#utility.yul\":16346:16347   */\n      dup3\n        /* \"#utility.yul\":16328:16348   */\n      tag_200\n      jump\t// in\n    tag_431:\n        /* \"#utility.yul\":16323:16348   */\n      swap2\n      pop\n        /* \"#utility.yul\":16362:16382   */\n      tag_432\n        /* \"#utility.yul\":16380:16381   */\n      dup4\n        /* \"#utility.yul\":16362:16382   */\n      tag_200\n      jump\t// in\n    tag_432:\n        /* \"#utility.yul\":16357:16382   */\n      swap3\n      pop\n        /* \"#utility.yul\":16406:16407   */\n      dup3\n        /* \"#utility.yul\":16403:16404   */\n      dup3\n        /* \"#utility.yul\":16399:16408   */\n      sub\n        /* \"#utility.yul\":16391:16408   */\n      swap1\n      pop\n        /* \"#utility.yul\":16430:16431   */\n      dup2\n        /* \"#utility.yul\":16424:16428   */\n      dup2\n        /* \"#utility.yul\":16421:16432   */\n      gt\n        /* \"#utility.yul\":16418:16455   */\n      iszero\n      tag_433\n      jumpi\n        /* \"#utility.yul\":16435:16453   */\n      tag_434\n      tag_243\n      jump\t// in\n    tag_434:\n        /* \"#utility.yul\":16418:16455   */\n    tag_433:\n        /* \"#utility.yul\":16268:16462   */\n      swap3\n      swap2\n      pop\n      pop\n      jump\t// out\n        /* \"#utility.yul\":16468:16648   */\n    tag_127:\n        /* \"#utility.yul\":16516:16593   */\n      0x4e487b7100000000000000000000000000000000000000000000000000000000\n        /* \"#utility.yul\":16513:16514   */\n      0x00\n        /* \"#utility.yul\":16506:16594   */\n      mstore\n        /* \"#utility.yul\":16613:16617   */\n      0x31\n        /* \"#utility.yul\":16610:16611   */\n      0x04\n        /* \"#utility.yul\":16603:16618   */\n      mstore\n        /* \"#utility.yul\":16637:16641   */\n      0x24\n        /* \"#utility.yul\":16634:16635   */\n      0x00\n        /* \"#utility.yul\":16627:16642   */\n      revert\n        /* \"#utility.yul\":16654:16874   */\n    tag_244:\n        /* \"#utility.yul\":16794:16828   */\n      0x43414e4e4f542041444420424f4f4b20495420414c5245414459204558495354\n        /* \"#utility.yul\":16790:16791   */\n      0x00\n        /* \"#utility.yul\":16782:16788   */\n      dup3\n        /* \"#utility.yul\":16778:16792   */\n      add\n        /* \"#utility.yul\":16771:16829   */\n      mstore\n        /* \"#utility.yul\":16863:16866   */\n      0x5300000000000000000000000000000000000000000000000000000000000000\n        /* \"#utility.yul\":16858:16860   */\n      0x20\n        /* \"#utility.yul\":16850:16856   */\n      dup3\n        /* \"#utility.yul\":16846:16861   */\n      add\n        /* \"#utility.yul\":16839:16867   */\n      mstore\n        /* \"#utility.yul\":16654:16874   */\n      pop\n      jump\t// out\n        /* \"#utility.yul\":16880:17246   */\n    tag_245:\n        /* \"#utility.yul\":17022:17025   */\n      0x00\n        /* \"#utility.yul\":17043:17110   */\n      tag_438\n        /* \"#utility.yul\":17107:17109   */\n      0x21\n        /* \"#utility.yul\":17102:17105   */\n      dup4\n        /* \"#utility.yul\":17043:17110   */\n      tag_212\n      jump\t// in\n    tag_438:\n        /* \"#utility.yul\":17036:17110   */\n      swap2\n      pop\n        /* \"#utility.yul\":17119:17212   */\n      tag_439\n        /* \"#utility.yul\":17208:17211   */\n      dup3\n        /* \"#utility.yul\":17119:17212   */\n      tag_244\n      jump\t// in\n    tag_439:\n        /* \"#utility.yul\":17237:17239   */\n      0x40\n        /* \"#utility.yul\":17232:17235   */\n      dup3\n        /* \"#utility.yul\":17228:17240   */\n      add\n        /* \"#utility.yul\":17221:17240   */\n      swap1\n      pop\n        /* \"#utility.yul\":16880:17246   */\n      swap2\n      swap1\n      pop\n      jump\t// out\n        /* \"#utility.yul\":17252:17671   */\n    tag_132:\n        /* \"#utility.yul\":17418:17422   */\n      0x00\n        /* \"#utility.yul\":17456:17458   */\n      0x20\n        /* \"#utility.yul\":17445:17454   */\n      dup3\n        /* \"#utility.yul\":17441:17459   */\n      add\n        /* \"#utility.yul\":17433:17459   */\n      swap1\n      pop\n        /* \"#utility.yul\":17505:17514   */\n      dup2\n        /* \"#utility.yul\":17499:17503   */\n      dup2\n        /* \"#utility.yul\":17495:17515   */\n      sub\n        /* \"#utility.yul\":17491:17492   */\n      0x00\n        /* \"#utility.yul\":17480:17489   */\n      dup4\n        /* \"#utility.yul\":17476:17493   */\n      add\n        /* \"#utility.yul\":17469:17516   */\n      mstore\n        /* \"#utility.yul\":17533:17664   */\n      tag_441\n        /* \"#utility.yul\":17659:17663   */\n      dup2\n        /* \"#utility.yul\":17533:17664   */\n      tag_245\n      jump\t// in\n    tag_441:\n        /* \"#utility.yul\":17525:17664   */\n      swap1\n      pop\n        /* \"#utility.yul\":17252:17671   */\n      swap2\n      swap1\n      pop\n      jump\t// out\n        /* \"#utility.yul\":17677:17818   */\n    tag_246:\n        /* \"#utility.yul\":17726:17730   */\n      0x00\n        /* \"#utility.yul\":17749:17752   */\n      dup2\n        /* \"#utility.yul\":17741:17752   */\n      swap1\n      pop\n        /* \"#utility.yul\":17772:17775   */\n      dup2\n        /* \"#utility.yul\":17769:17770   */\n      0x00\n        /* \"#utility.yul\":17762:17776   */\n      mstore\n        /* \"#utility.yul\":17806:17810   */\n      0x20\n        /* \"#utility.yul\":17803:17804   */\n      0x00\n        /* \"#utility.yul\":17793:17811   */\n      keccak256\n        /* \"#utility.yul\":17785:17811   */\n      swap1\n      pop\n        /* \"#utility.yul\":17677:17818   */\n      swap2\n      swap1\n      pop\n      jump\t// out\n        /* \"#utility.yul\":17824:17917   */\n    tag_247:\n        /* \"#utility.yul\":17861:17867   */\n      0x00\n        /* \"#utility.yul\":17908:17910   */\n      0x20\n        /* \"#utility.yul\":17903:17905   */\n      0x1f\n        /* \"#utility.yul\":17896:17901   */\n      dup4\n        /* \"#utility.yul\":17892:17906   */\n      add\n        /* \"#utility.yul\":17888:17911   */\n      div\n        /* \"#utility.yul\":17878:17911   */\n      swap1\n      pop\n        /* \"#utility.yul\":17824:17917   */\n      swap2\n      swap1\n      pop\n      jump\t// out\n        /* \"#utility.yul\":17923:18030   */\n    tag_248:\n        /* \"#utility.yul\":17967:17975   */\n      0x00\n        /* \"#utility.yul\":18017:18022   */\n      dup3\n        /* \"#utility.yul\":18011:18015   */\n      dup3\n        /* \"#utility.yul\":18007:18023   */\n      shl\n        /* \"#utility.yul\":17986:18023   */\n      swap1\n      pop\n        /* \"#utility.yul\":17923:18030   */\n      swap3\n      swap2\n      pop\n      pop\n      jump\t// out\n        /* \"#utility.yul\":18036:18429   */\n    tag_249:\n        /* \"#utility.yul\":18105:18111   */\n      0x00\n        /* \"#utility.yul\":18155:18156   */\n      0x08\n        /* \"#utility.yul\":18143:18153   */\n      dup4\n        /* \"#utility.yul\":18139:18157   */\n      mul\n        /* \"#utility.yul\":18178:18275   */\n      tag_446\n        /* \"#utility.yul\":18208:18274   */\n      0xffffffffffffffffffffffffffffffffffffffffffffffffffffffffffffffff\n        /* \"#utility.yul\":18197:18206   */\n      dup3\n        /* \"#utility.yul\":18178:18275   */\n      tag_248\n      jump\t// in\n    tag_446:\n        /* \"#utility.yul\":18296:18335   */\n      tag_447\n        /* \"#utility.yul\":18326:18334   */\n      dup7\n        /* \"#utility.yul\":18315:18324   */\n      dup4\n        /* \"#utility.yul\":18296:18335   */\n      tag_248\n      jump\t// in\n    tag_447:\n        /* \"#utility.yul\":18284:18335   */\n      swap6\n      pop\n        /* \"#utility.yul\":18368:18372   */\n      dup1\n        /* \"#utility.yul\":18364:18373   */\n      not\n        /* \"#utility.yul\":18357:18362   */\n      dup5\n        /* \"#utility.yul\":18353:18374   */\n      and\n        /* \"#utility.yul\":18344:18374   */\n      swap4\n      pop\n        /* \"#utility.yul\":18417:18421   */\n      dup1\n        /* \"#utility.yul\":18407:18415   */\n      dup7\n        /* \"#utility.yul\":18403:18422   */\n      and\n        /* \"#utility.yul\":18396:18401   */\n      dup5\n        /* \"#utility.yul\":18393:18423   */\n      or\n        /* \"#utility.yul\":18383:18423   */\n      swap3\n      pop\n        /* \"#utility.yul\":18112:18429   */\n      pop\n      pop\n        /* \"#utility.yul\":18036:18429   */\n      swap4\n      swap3\n      pop\n      pop\n      pop\n      jump\t// out\n        /* \"#utility.yul\":18435:18495   */\n    tag_250:\n        /* \"#utility.yul\":18463:18466   */\n      0x00\n        /* \"#utility.yul\":18484:18489   */\n      dup2\n        /* \"#utility.yul\":18477:18489   */\n      swap1\n      pop\n        /* \"#utility.yul\":18435:18495   */\n      swap2\n      swap1\n      pop\n      jump\t// out\n        /* \"#utility.yul\":18501:18643   */\n    tag_251:\n        /* \"#utility.yul\":18551:18560   */\n      0x00\n        /* \"#utility.yul\":18584:18637   */\n      tag_450\n        /* \"#utility.yul\":18602:18636   */\n      tag_451\n        /* \"#utility.yul\":18611:18635   */\n      tag_452\n        /* \"#utility.yul\":18629:18634   */\n      dup5\n        /* \"#utility.yul\":18611:18635   */\n      tag_200\n      jump\t// in\n    tag_452:\n        /* \"#utility.yul\":18602:18636   */\n      tag_250\n      jump\t// in\n    tag_451:\n        /* \"#utility.yul\":18584:18637   */\n      tag_200\n      jump\t// in\n    tag_450:\n        /* \"#utility.yul\":18571:18637   */\n      swap1\n      pop\n        /* \"#utility.yul\":18501:18643   */\n      swap2\n      swap1\n      pop\n      jump\t// out\n        /* \"#utility.yul\":18649:18724   */\n    tag_252:\n        /* \"#utility.yul\":18692:18695   */\n      0x00\n        /* \"#utility.yul\":18713:18718   */\n      dup2\n        /* \"#utility.yul\":18706:18718   */\n      swap1\n      pop\n        /* \"#utility.yul\":18649:18724   */\n      swap2\n      swap1\n      pop\n      jump\t// out\n        /* \"#utility.yul\":18730:18999   */\n    tag_253:\n        /* \"#utility.yul\":18840:18879   */\n      tag_455\n        /* \"#utility.yul\":18871:18878   */\n      dup4\n        /* \"#utility.yul\":18840:18879   */\n      tag_251\n      jump\t// in\n    tag_455:\n        /* \"#utility.yul\":18901:18992   */\n      tag_456\n        /* \"#utility.yul\":18950:18991   */\n      tag_457\n        /* \"#utility.yul\":18974:18990   */\n      dup3\n        /* \"#utility.yul\":18950:18991   */\n      tag_252\n      jump\t// in\n    tag_457:\n        /* \"#utility.yul\":18942:18948   */\n      dup5\n        /* \"#utility.yul\":18935:18939   */\n      dup5\n        /* \"#utility.yul\":18929:18940   */\n      sload\n        /* \"#utility.yul\":18901:18992   */\n      tag_249\n      jump\t// in\n    tag_456:\n        /* \"#utility.yul\":18895:18899   */\n      dup3\n        /* \"#utility.yul\":18888:18993   */\n      sstore\n        /* \"#utility.yul\":18806:18999   */\n      pop\n        /* \"#utility.yul\":18730:18999   */\n      pop\n      pop\n      pop\n      jump\t// out\n        /* \"#utility.yul\":19005:19078   */\n    tag_254:\n        /* \"#utility.yul\":19050:19053   */\n      0x00\n        /* \"#utility.yul\":19005:19078   */\n      swap1\n      jump\t// out\n        /* \"#utility.yul\":19084:19273   */\n    tag_255:\n        /* \"#utility.yul\":19161:19193   */\n      tag_460\n      tag_254\n      jump\t// in\n    tag_460:\n        /* \"#utility.yul\":19202:19267   */\n      tag_461\n        /* \"#utility.yul\":19260:19266   */\n      dup2\n        /* \"#utility.yul\":19252:19258   */\n      dup5\n        /* \"#utility.yul\":19246:19250   */\n      dup5\n        /* \"#utility.yul\":19202:19267   */\n      tag_253\n      jump\t// in\n    tag_461:\n        /* \"#utility.yul\":19137:19273   */\n      pop\n        /* \"#utility.yul\":19084:19273   */\n      pop\n      pop\n      jump\t// out\n        /* \"#utility.yul\":19279:19465   */\n    tag_256:\n        /* \"#utility.yul\":19339:19459   */\n    tag_463:\n        /* \"#utility.yul\":19356:19359   */\n      dup2\n        /* \"#utility.yul\":19349:19354   */\n      dup2\n        /* \"#utility.yul\":19346:19360   */\n      lt\n        /* \"#utility.yul\":19339:19459   */\n      iszero\n      tag_465\n      jumpi\n        /* \"#utility.yul\":19410:19449   */\n      tag_466\n        /* \"#utility.yul\":19447:19448   */\n      0x00\n        /* \"#utility.yul\":19440:19445   */\n      dup3\n        /* \"#utility.yul\":19410:19449   */\n      tag_255\n      jump\t// in\n    tag_466:\n        /* \"#utility.yul\":19383:19384   */\n      0x01\n        /* \"#utility.yul\":19376:19381   */\n      dup2\n        /* \"#utility.yul\":19372:19385   */\n      add\n        /* \"#utility.yul\":19363:19385   */\n      swap1\n      pop\n        /* \"#utility.yul\":19339:19459   */\n      jump(tag_463)\n    tag_465:\n        /* \"#utility.yul\":19279:19465   */\n      pop\n      pop\n      jump\t// out\n        /* \"#utility.yul\":19471:20014   */\n    tag_257:\n        /* \"#utility.yul\":19572:19574   */\n      0x1f\n        /* \"#utility.yul\":19567:19570   */\n      dup3\n        /* \"#utility.yul\":19564:19575   */\n      gt\n        /* \"#utility.yul\":19561:20007   */\n      iszero\n      tag_468\n      jumpi\n        /* \"#utility.yul\":19606:19644   */\n      tag_469\n        /* \"#utility.yul\":19638:19643   */\n      dup2\n        /* \"#utility.yul\":19606:19644   */\n      tag_246\n      jump\t// in\n    tag_469:\n        /* \"#utility.yul\":19690:19719   */\n      tag_470\n        /* \"#utility.yul\":19708:19718   */\n      dup5\n        /* \"#utility.yul\":19690:19719   */\n      tag_247\n      jump\t// in\n    tag_470:\n        /* \"#utility.yul\":19680:19688   */\n      dup2\n        /* \"#utility.yul\":19676:19720   */\n      add\n        /* \"#utility.yul\":19873:19875   */\n      0x20\n        /* \"#utility.yul\":19861:19871   */\n      dup6\n        /* \"#utility.yul\":19858:19876   */\n      lt\n        /* \"#utility.yul\":19855:19904   */\n      iszero\n      tag_471\n      jumpi\n        /* \"#utility.yul\":19894:19902   */\n      dup2\n        /* \"#utility.yul\":19879:19902   */\n      swap1\n      pop\n        /* \"#utility.yul\":19855:19904   */\n    tag_471:\n        /* \"#utility.yul\":19917:19997   */\n      tag_472\n        /* \"#utility.yul\":19973:19995   */\n      tag_473\n        /* \"#utility.yul\":19991:19994   */\n      dup6\n        /* \"#utility.yul\":19973:19995   */\n      tag_247\n      jump\t// in\n    tag_473:\n        /* \"#utility.yul\":19963:19971   */\n      dup4\n        /* \"#utility.yul\":19959:19996   */\n      add\n        /* \"#utility.yul\":19946:19957   */\n      dup3\n        /* \"#utility.yul\":19917:19997   */\n      tag_256\n      jump\t// in\n    tag_472:\n        /* \"#utility.yul\":19576:20007   */\n      pop\n      pop\n        /* \"#utility.yul\":19561:20007   */\n    tag_468:\n        /* \"#utility.yul\":19471:20014   */\n      pop\n      pop\n      pop\n      jump\t// out\n        /* \"#utility.yul\":20020:20137   */\n    tag_258:\n        /* \"#utility.yul\":20074:20082   */\n      0x00\n        /* \"#utility.yul\":20124:20129   */\n      dup3\n        /* \"#utility.yul\":20118:20122   */\n      dup3\n        /* \"#utility.yul\":20114:20130   */\n      shr\n        /* \"#utility.yul\":20093:20130   */\n      swap1\n      pop\n        /* \"#utility.yul\":20020:20137   */\n      swap3\n      swap2\n      pop\n      pop\n      jump\t// out\n        /* \"#utility.yul\":20143:20312   */\n    tag_259:\n        /* \"#utility.yul\":20187:20193   */\n      0x00\n        /* \"#utility.yul\":20220:20271   */\n      tag_476\n        /* \"#utility.yul\":20268:20269   */\n      0x00\n        /* \"#utility.yul\":20264:20270   */\n      not\n        /* \"#utility.yul\":20256:20261   */\n      dup5\n        /* \"#utility.yul\":20253:20254   */\n      0x08\n        /* \"#utility.yul\":20249:20262   */\n      mul\n        /* \"#utility.yul\":20220:20271   */\n      tag_258\n      jump\t// in\n    tag_476:\n        /* \"#utility.yul\":20216:20272   */\n      not\n        /* \"#utility.yul\":20301:20305   */\n      dup1\n        /* \"#utility.yul\":20295:20299   */\n      dup4\n        /* \"#utility.yul\":20291:20306   */\n      and\n        /* \"#utility.yul\":20281:20306   */\n      swap2\n      pop\n        /* \"#utility.yul\":20194:20312   */\n      pop\n        /* \"#utility.yul\":20143:20312   */\n      swap3\n      swap2\n      pop\n      pop\n      jump\t// out\n        /* \"#utility.yul\":20317:20612   */\n    tag_260:\n        /* \"#utility.yul\":20393:20397   */\n      0x00\n        /* \"#utility.yul\":20539:20568   */\n      tag_478\n        /* \"#utility.yul\":20564:20567   */\n      dup4\n        /* \"#utility.yul\":20558:20562   */\n      dup4\n        /* \"#utility.yul\":20539:20568   */\n      tag_259\n      jump\t// in\n    tag_478:\n        /* \"#utility.yul\":20531:20568   */\n      swap2\n      pop\n        /* \"#utility.yul\":20601:20604   */\n      dup3\n        /* \"#utility.yul\":20598:20599   */\n      0x02\n        /* \"#utility.yul\":20594:20605   */\n      mul\n        /* \"#utility.yul\":20588:20592   */\n      dup3\n        /* \"#utility.yul\":20585:20606   */\n      or\n        /* \"#utility.yul\":20577:20606   */\n      swap1\n      pop\n        /* \"#utility.yul\":20317:20612   */\n      swap3\n      swap2\n      pop\n      pop\n      jump\t// out\n        /* \"#utility.yul\":20617:22012   */\n    tag_134:\n        /* \"#utility.yul\":20734:20771   */\n      tag_480\n        /* \"#utility.yul\":20767:20770   */\n      dup3\n        /* \"#utility.yul\":20734:20771   */\n      tag_211\n      jump\t// in\n    tag_480:\n        /* \"#utility.yul\":20836:20854   */\n      0xffffffffffffffff\n        /* \"#utility.yul\":20828:20834   */\n      dup2\n        /* \"#utility.yul\":20825:20855   */\n      gt\n        /* \"#utility.yul\":20822:20878   */\n      iszero\n      tag_481\n      jumpi\n        /* \"#utility.yul\":20858:20876   */\n      tag_482\n      tag_225\n      jump\t// in\n    tag_482:\n        /* \"#utility.yul\":20822:20878   */\n    tag_481:\n        /* \"#utility.yul\":20902:20940   */\n      tag_483\n        /* \"#utility.yul\":20934:20938   */\n      dup3\n        /* \"#utility.yul\":20928:20939   */\n      sload\n        /* \"#utility.yul\":20902:20940   */\n      tag_77\n      jump\t// in\n    tag_483:\n        /* \"#utility.yul\":20987:21054   */\n      tag_484\n        /* \"#utility.yul\":21047:21053   */\n      dup3\n        /* \"#utility.yul\":21039:21045   */\n      dup3\n        /* \"#utility.yul\":21033:21037   */\n      dup6\n        /* \"#utility.yul\":20987:21054   */\n      tag_257\n      jump\t// in\n    tag_484:\n        /* \"#utility.yul\":21081:21082   */\n      0x00\n        /* \"#utility.yul\":21105:21109   */\n      0x20\n        /* \"#utility.yul\":21092:21109   */\n      swap1\n      pop\n        /* \"#utility.yul\":21137:21139   */\n      0x1f\n        /* \"#utility.yul\":21129:21135   */\n      dup4\n        /* \"#utility.yul\":21126:21140   */\n      gt\n        /* \"#utility.yul\":21154:21155   */\n      0x01\n        /* \"#utility.yul\":21149:21767   */\n      dup2\n      eq\n      tag_486\n      jumpi\n        /* \"#utility.yul\":21811:21812   */\n      0x00\n        /* \"#utility.yul\":21828:21834   */\n      dup5\n        /* \"#utility.yul\":21825:21902   */\n      iszero\n      tag_487\n      jumpi\n        /* \"#utility.yul\":21877:21886   */\n      dup3\n        /* \"#utility.yul\":21872:21875   */\n      dup8\n        /* \"#utility.yul\":21868:21887   */\n      add\n        /* \"#utility.yul\":21862:21888   */\n      mload\n        /* \"#utility.yul\":21853:21888   */\n      swap1\n      pop\n        /* \"#utility.yul\":21825:21902   */\n    tag_487:\n        /* \"#utility.yul\":21928:21995   */\n      tag_488\n        /* \"#utility.yul\":21988:21994   */\n      dup6\n        /* \"#utility.yul\":21981:21986   */\n      dup3\n        /* \"#utility.yul\":21928:21995   */\n      tag_260\n      jump\t// in\n    tag_488:\n        /* \"#utility.yul\":21922:21926   */\n      dup7\n        /* \"#utility.yul\":21915:21996   */\n      sstore\n        /* \"#utility.yul\":21784:22006   */\n      pop\n        /* \"#utility.yul\":21119:22006   */\n      jump(tag_485)\n        /* \"#utility.yul\":21149:21767   */\n    tag_486:\n        /* \"#utility.yul\":21201:21205   */\n      0x1f\n        /* \"#utility.yul\":21197:21206   */\n      not\n        /* \"#utility.yul\":21189:21195   */\n      dup5\n        /* \"#utility.yul\":21185:21207   */\n      and\n        /* \"#utility.yul\":21235:21272   */\n      tag_489\n        /* \"#utility.yul\":21267:21271   */\n      dup7\n        /* \"#utility.yul\":21235:21272   */\n      tag_246\n      jump\t// in\n    tag_489:\n        /* \"#utility.yul\":21294:21295   */\n      0x00\n        /* \"#utility.yul\":21308:21516   */\n    tag_490:\n        /* \"#utility.yul\":21322:21329   */\n      dup3\n        /* \"#utility.yul\":21319:21320   */\n      dup2\n        /* \"#utility.yul\":21316:21330   */\n      lt\n        /* \"#utility.yul\":21308:21516   */\n      iszero\n      tag_492\n      jumpi\n        /* \"#utility.yul\":21401:21410   */\n      dup5\n        /* \"#utility.yul\":21396:21399   */\n      dup10\n        /* \"#utility.yul\":21392:21411   */\n      add\n        /* \"#utility.yul\":21386:21412   */\n      mload\n        /* \"#utility.yul\":21378:21384   */\n      dup3\n        /* \"#utility.yul\":21371:21413   */\n      sstore\n        /* \"#utility.yul\":21452:21453   */\n      0x01\n        /* \"#utility.yul\":21444:21450   */\n      dup3\n        /* \"#utility.yul\":21440:21454   */\n      add\n        /* \"#utility.yul\":21430:21454   */\n      swap2\n      pop\n        /* \"#utility.yul\":21499:21501   */\n      0x20\n        /* \"#utility.yul\":21488:21497   */\n      dup6\n        /* \"#utility.yul\":21484:21502   */\n      add\n        /* \"#utility.yul\":21471:21502   */\n      swap5\n      pop\n        /* \"#utility.yul\":21345:21349   */\n      0x20\n        /* \"#utility.yul\":21342:21343   */\n      dup2\n        /* \"#utility.yul\":21338:21350   */\n      add\n        /* \"#utility.yul\":21333:21350   */\n      swap1\n      pop\n        /* \"#utility.yul\":21308:21516   */\n      jump(tag_490)\n    tag_492:\n        /* \"#utility.yul\":21544:21550   */\n      dup7\n        /* \"#utility.yul\":21535:21542   */\n      dup4\n        /* \"#utility.yul\":21532:21551   */\n      lt\n        /* \"#utility.yul\":21529:21708   */\n      iszero\n      tag_493\n      jumpi\n        /* \"#utility.yul\":21602:21611   */\n      dup5\n        /* \"#utility.yul\":21597:21600   */\n      dup10\n        /* \"#utility.yul\":21593:21612   */\n      add\n        /* \"#utility.yul\":21587:21613   */\n      mload\n        /* \"#utility.yul\":21645:21693   */\n      tag_494\n        /* \"#utility.yul\":21687:21691   */\n      0x1f\n        /* \"#utility.yul\":21679:21685   */\n      dup10\n        /* \"#utility.yul\":21675:21692   */\n      and\n        /* \"#utility.yul\":21664:21673   */\n      dup3\n        /* \"#utility.yul\":21645:21693   */\n      tag_259\n      jump\t// in\n    tag_494:\n        /* \"#utility.yul\":21637:21643   */\n      dup4\n        /* \"#utility.yul\":21630:21694   */\n      sstore\n        /* \"#utility.yul\":21552:21708   */\n      pop\n        /* \"#utility.yul\":21529:21708   */\n    tag_493:\n        /* \"#utility.yul\":21754:21755   */\n      0x01\n        /* \"#utility.yul\":21750:21751   */\n      0x02\n        /* \"#utility.yul\":21742:21748   */\n      dup9\n        /* \"#utility.yul\":21738:21752   */\n      mul\n        /* \"#utility.yul\":21734:21756   */\n      add\n        /* \"#utility.yul\":21728:21732   */\n      dup9\n        /* \"#utility.yul\":21721:21757   */\n      sstore\n        /* \"#utility.yul\":21156:21767   */\n      pop\n      pop\n      pop\n        /* \"#utility.yul\":21119:22006   */\n    tag_485:\n      pop\n        /* \"#utility.yul\":20709:22012   */\n      pop\n      pop\n      pop\n        /* \"#utility.yul\":20617:22012   */\n      pop\n      pop\n      jump\t// out\n        /* \"#utility.yul\":22018:22158   */\n    tag_261:\n        /* \"#utility.yul\":22067:22076   */\n      0x00\n        /* \"#utility.yul\":22100:22152   */\n      tag_496\n        /* \"#utility.yul\":22118:22151   */\n      tag_497\n        /* \"#utility.yul\":22127:22150   */\n      tag_498\n        /* \"#utility.yul\":22144:22149   */\n      dup5\n        /* \"#utility.yul\":22127:22150   */\n      tag_218\n      jump\t// in\n    tag_498:\n        /* \"#utility.yul\":22118:22151   */\n      tag_250\n      jump\t// in\n    tag_497:\n        /* \"#utility.yul\":22100:22152   */\n      tag_200\n      jump\t// in\n    tag_496:\n        /* \"#utility.yul\":22087:22152   */\n      swap1\n      pop\n        /* \"#utility.yul\":22018:22158   */\n      swap2\n      swap1\n      pop\n      jump\t// out\n        /* \"#utility.yul\":22164:22293   */\n    tag_262:\n        /* \"#utility.yul\":22250:22286   */\n      tag_500\n        /* \"#utility.yul\":22280:22285   */\n      dup2\n        /* \"#utility.yul\":22250:22286   */\n      tag_261\n      jump\t// in\n    tag_500:\n        /* \"#utility.yul\":22245:22248   */\n      dup3\n        /* \"#utility.yul\":22238:22287   */\n      mstore\n        /* \"#utility.yul\":22164:22293   */\n      pop\n      pop\n      jump\t// out\n        /* \"#utility.yul\":22299:23032   */\n    tag_138:\n        /* \"#utility.yul\":22515:22519   */\n      0x00\n        /* \"#utility.yul\":22553:22556   */\n      0x80\n        /* \"#utility.yul\":22542:22551   */\n      dup3\n        /* \"#utility.yul\":22538:22557   */\n      add\n        /* \"#utility.yul\":22530:22557   */\n      swap1\n      pop\n        /* \"#utility.yul\":22603:22612   */\n      dup2\n        /* \"#utility.yul\":22597:22601   */\n      dup2\n        /* \"#utility.yul\":22593:22613   */\n      sub\n        /* \"#utility.yul\":22589:22590   */\n      0x00\n        /* \"#utility.yul\":22578:22587   */\n      dup4\n        /* \"#utility.yul\":22574:22591   */\n      add\n        /* \"#utility.yul\":22567:22614   */\n      mstore\n        /* \"#utility.yul\":22631:22709   */\n      tag_502\n        /* \"#utility.yul\":22704:22708   */\n      dup2\n        /* \"#utility.yul\":22695:22701   */\n      dup8\n        /* \"#utility.yul\":22631:22709   */\n      tag_215\n      jump\t// in\n    tag_502:\n        /* \"#utility.yul\":22623:22709   */\n      swap1\n      pop\n        /* \"#utility.yul\":22756:22765   */\n      dup2\n        /* \"#utility.yul\":22750:22754   */\n      dup2\n        /* \"#utility.yul\":22746:22766   */\n      sub\n        /* \"#utility.yul\":22741:22743   */\n      0x20\n        /* \"#utility.yul\":22730:22739   */\n      dup4\n        /* \"#utility.yul\":22726:22744   */\n      add\n        /* \"#utility.yul\":22719:22767   */\n      mstore\n        /* \"#utility.yul\":22784:22862   */\n      tag_503\n        /* \"#utility.yul\":22857:22861   */\n      dup2\n        /* \"#utility.yul\":22848:22854   */\n      dup7\n        /* \"#utility.yul\":22784:22862   */\n      tag_215\n      jump\t// in\n    tag_503:\n        /* \"#utility.yul\":22776:22862   */\n      swap1\n      pop\n        /* \"#utility.yul\":22872:22944   */\n      tag_504\n        /* \"#utility.yul\":22940:22942   */\n      0x40\n        /* \"#utility.yul\":22929:22938   */\n      dup4\n        /* \"#utility.yul\":22925:22943   */\n      add\n        /* \"#utility.yul\":22916:22922   */\n      dup6\n        /* \"#utility.yul\":22872:22944   */\n      tag_210\n      jump\t// in\n    tag_504:\n        /* \"#utility.yul\":22954:23025   */\n      tag_505\n        /* \"#utility.yul\":23021:23023   */\n      0x60\n        /* \"#utility.yul\":23010:23019   */\n      dup4\n        /* \"#utility.yul\":23006:23024   */\n      add\n        /* \"#utility.yul\":22997:23003   */\n      dup5\n        /* \"#utility.yul\":22954:23025   */\n      tag_262\n      jump\t// in\n    tag_505:\n        /* \"#utility.yul\":22299:23032   */\n      swap6\n      swap5\n      pop\n      pop\n      pop\n      pop\n      pop\n      jump\t// out\n        /* \"#utility.yul\":23038:23214   */\n    tag_263:\n        /* \"#utility.yul\":23178:23206   */\n      0x5468697320626f6f6b206973206e6f7420617661696c61626c65000000000000\n        /* \"#utility.yul\":23174:23175   */\n      0x00\n        /* \"#utility.yul\":23166:23172   */\n      dup3\n        /* \"#utility.yul\":23162:23176   */\n      add\n        /* \"#utility.yul\":23155:23207   */\n      mstore\n        /* \"#utility.yul\":23038:23214   */\n      pop\n      jump\t// out\n        /* \"#utility.yul\":23220:23586   */\n    tag_264:\n        /* \"#utility.yul\":23362:23365   */\n      0x00\n        /* \"#utility.yul\":23383:23450   */\n      tag_508\n        /* \"#utility.yul\":23447:23449   */\n      0x1a\n        /* \"#utility.yul\":23442:23445   */\n      dup4\n        /* \"#utility.yul\":23383:23450   */\n      tag_212\n      jump\t// in\n    tag_508:\n        /* \"#utility.yul\":23376:23450   */\n      swap2\n      pop\n        /* \"#utility.yul\":23459:23552   */\n      tag_509\n        /* \"#utility.yul\":23548:23551   */\n      dup3\n        /* \"#utility.yul\":23459:23552   */\n      tag_263\n      jump\t// in\n    tag_509:\n        /* \"#utility.yul\":23577:23579   */\n      0x20\n        /* \"#utility.yul\":23572:23575   */\n      dup3\n        /* \"#utility.yul\":23568:23580   */\n      add\n        /* \"#utility.yul\":23561:23580   */\n      swap1\n      pop\n        /* \"#utility.yul\":23220:23586   */\n      swap2\n      swap1\n      pop\n      jump\t// out\n        /* \"#utility.yul\":23592:24011   */\n    tag_142:\n        /* \"#utility.yul\":23758:23762   */\n      0x00\n        /* \"#utility.yul\":23796:23798   */\n      0x20\n        /* \"#utility.yul\":23785:23794   */\n      dup3\n        /* \"#utility.yul\":23781:23799   */\n      add\n        /* \"#utility.yul\":23773:23799   */\n      swap1\n      pop\n        /* \"#utility.yul\":23845:23854   */\n      dup2\n        /* \"#utility.yul\":23839:23843   */\n      dup2\n        /* \"#utility.yul\":23835:23855   */\n      sub\n        /* \"#utility.yul\":23831:23832   */\n      0x00\n        /* \"#utility.yul\":23820:23829   */\n      dup4\n        /* \"#utility.yul\":23816:23833   */\n      add\n        /* \"#utility.yul\":23809:23856   */\n      mstore\n        /* \"#utility.yul\":23873:24004   */\n      tag_511\n        /* \"#utility.yul\":23999:24003   */\n      dup2\n        /* \"#utility.yul\":23873:24004   */\n      tag_264\n      jump\t// in\n    tag_511:\n        /* \"#utility.yul\":23865:24004   */\n      swap1\n      pop\n        /* \"#utility.yul\":23592:24011   */\n      swap2\n      swap1\n      pop\n      jump\t// out\n        /* \"#utility.yul\":24017:24193   */\n    tag_265:\n        /* \"#utility.yul\":24157:24185   */\n      0x4e6f7420656e6f7567682073746f636b20617661696c61626c65000000000000\n        /* \"#utility.yul\":24153:24154   */\n      0x00\n        /* \"#utility.yul\":24145:24151   */\n      dup3\n        /* \"#utility.yul\":24141:24155   */\n      add\n        /* \"#utility.yul\":24134:24186   */\n      mstore\n        /* \"#utility.yul\":24017:24193   */\n      pop\n      jump\t// out\n        /* \"#utility.yul\":24199:24565   */\n    tag_266:\n        /* \"#utility.yul\":24341:24344   */\n      0x00\n        /* \"#utility.yul\":24362:24429   */\n      tag_514\n        /* \"#utility.yul\":24426:24428   */\n      0x1a\n        /* \"#utility.yul\":24421:24424   */\n      dup4\n        /* \"#utility.yul\":24362:24429   */\n      tag_212\n      jump\t// in\n    tag_514:\n        /* \"#utility.yul\":24355:24429   */\n      swap2\n      pop\n        /* \"#utility.yul\":24438:24531   */\n      tag_515\n        /* \"#utility.yul\":24527:24530   */\n      dup3\n        /* \"#utility.yul\":24438:24531   */\n      tag_265\n      jump\t// in\n    tag_515:\n        /* \"#utility.yul\":24556:24558   */\n      0x20\n        /* \"#utility.yul\":24551:24554   */\n      dup3\n        /* \"#utility.yul\":24547:24559   */\n      add\n        /* \"#utility.yul\":24540:24559   */\n      swap1\n      pop\n        /* \"#utility.yul\":24199:24565   */\n      swap2\n      swap1\n      pop\n      jump\t// out\n        /* \"#utility.yul\":24571:24990   */\n    tag_145:\n        /* \"#utility.yul\":24737:24741   */\n      0x00\n        /* \"#utility.yul\":24775:24777   */\n      0x20\n        /* \"#utility.yul\":24764:24773   */\n      dup3\n        /* \"#utility.yul\":24760:24778   */\n      add\n        /* \"#utility.yul\":24752:24778   */\n      swap1\n      pop\n        /* \"#utility.yul\":24824:24833   */\n      dup2\n        /* \"#utility.yul\":24818:24822   */\n      dup2\n        /* \"#utility.yul\":24814:24834   */\n      sub\n        /* \"#utility.yul\":24810:24811   */\n      0x00\n        /* \"#utility.yul\":24799:24808   */\n      dup4\n        /* \"#utility.yul\":24795:24812   */\n      add\n        /* \"#utility.yul\":24788:24835   */\n      mstore\n        /* \"#utility.yul\":24852:24983   */\n      tag_517\n        /* \"#utility.yul\":24978:24982   */\n      dup2\n        /* \"#utility.yul\":24852:24983   */\n      tag_266\n      jump\t// in\n    tag_517:\n        /* \"#utility.yul\":24844:24983   */\n      swap1\n      pop\n        /* \"#utility.yul\":24571:24990   */\n      swap2\n      swap1\n      pop\n      jump\t// out\n        /* \"#utility.yul\":24996:25406   */\n    tag_147:\n        /* \"#utility.yul\":25036:25043   */\n      0x00\n        /* \"#utility.yul\":25059:25079   */\n      tag_519\n        /* \"#utility.yul\":25077:25078   */\n      dup3\n        /* \"#utility.yul\":25059:25079   */\n      tag_200\n      jump\t// in\n    tag_519:\n        /* \"#utility.yul\":25054:25079   */\n      swap2\n      pop\n        /* \"#utility.yul\":25093:25113   */\n      tag_520\n        /* \"#utility.yul\":25111:25112   */\n      dup4\n        /* \"#utility.yul\":25093:25113   */\n      tag_200\n      jump\t// in\n    tag_520:\n        /* \"#utility.yul\":25088:25113   */\n      swap3\n      pop\n        /* \"#utility.yul\":25148:25149   */\n      dup3\n        /* \"#utility.yul\":25145:25146   */\n      dup3\n        /* \"#utility.yul\":25141:25150   */\n      mul\n        /* \"#utility.yul\":25170:25200   */\n      tag_521\n        /* \"#utility.yul\":25188:25199   */\n      dup2\n        /* \"#utility.yul\":25170:25200   */\n      tag_200\n      jump\t// in\n    tag_521:\n        /* \"#utility.yul\":25159:25200   */\n      swap2\n      pop\n        /* \"#utility.yul\":25349:25350   */\n      dup3\n        /* \"#utility.yul\":25340:25347   */\n      dup3\n        /* \"#utility.yul\":25336:25351   */\n      div\n        /* \"#utility.yul\":25333:25334   */\n      dup5\n        /* \"#utility.yul\":25330:25352   */\n      eq\n        /* \"#utility.yul\":25310:25311   */\n      dup4\n        /* \"#utility.yul\":25303:25312   */\n      iszero\n        /* \"#utility.yul\":25283:25366   */\n      or\n        /* \"#utility.yul\":25260:25399   */\n      tag_522\n      jumpi\n        /* \"#utility.yul\":25379:25397   */\n      tag_523\n      tag_243\n      jump\t// in\n    tag_523:\n        /* \"#utility.yul\":25260:25399   */\n    tag_522:\n        /* \"#utility.yul\":25044:25406   */\n      pop\n        /* \"#utility.yul\":24996:25406   */\n      swap3\n      swap2\n      pop\n      pop\n      jump\t// out\n        /* \"#utility.yul\":25412:25586   */\n    tag_267:\n        /* \"#utility.yul\":25552:25578   */\n      0x496e636f7272656374207061796d656e7420616d6f756e740000000000000000\n        /* \"#utility.yul\":25548:25549   */\n      0x00\n        /* \"#utility.yul\":25540:25546   */\n      dup3\n        /* \"#utility.yul\":25536:25550   */\n      add\n        /* \"#utility.yul\":25529:25579   */\n      mstore\n        /* \"#utility.yul\":25412:25586   */\n      pop\n      jump\t// out\n        /* \"#utility.yul\":25592:25958   */\n    tag_268:\n        /* \"#utility.yul\":25734:25737   */\n      0x00\n        /* \"#utility.yul\":25755:25822   */\n      tag_526\n        /* \"#utility.yul\":25819:25821   */\n      0x18\n        /* \"#utility.yul\":25814:25817   */\n      dup4\n        /* \"#utility.yul\":25755:25822   */\n      tag_212\n      jump\t// in\n    tag_526:\n        /* \"#utility.yul\":25748:25822   */\n      swap2\n      pop\n        /* \"#utility.yul\":25831:25924   */\n      tag_527\n        /* \"#utility.yul\":25920:25923   */\n      dup3\n        /* \"#utility.yul\":25831:25924   */\n      tag_267\n      jump\t// in\n    tag_527:\n        /* \"#utility.yul\":25949:25951   */\n      0x20\n        /* \"#utility.yul\":25944:25947   */\n      dup3\n        /* \"#utility.yul\":25940:25952   */\n      add\n        /* \"#utility.yul\":25933:25952   */\n      swap1\n      pop\n        /* \"#utility.yul\":25592:25958   */\n      swap2\n      swap1\n      pop\n      jump\t// out\n        /* \"#utility.yul\":25964:26383   */\n    tag_150:\n        /* \"#utility.yul\":26130:26134   */\n      0x00\n        /* \"#utility.yul\":26168:26170   */\n      0x20\n        /* \"#utility.yul\":26157:26166   */\n      dup3\n        /* \"#utility.yul\":26153:26171   */\n      add\n        /* \"#utility.yul\":26145:26171   */\n      swap1\n      pop\n        /* \"#utility.yul\":26217:26226   */\n      dup2\n        /* \"#utility.yul\":26211:26215   */\n      dup2\n        /* \"#utility.yul\":26207:26227   */\n      sub\n        /* \"#utility.yul\":26203:26204   */\n      0x00\n        /* \"#utility.yul\":26192:26201   */\n      dup4\n        /* \"#utility.yul\":26188:26205   */\n      add\n        /* \"#utility.yul\":26181:26228   */\n      mstore\n        /* \"#utility.yul\":26245:26376   */\n      tag_529\n        /* \"#utility.yul\":26371:26375   */\n      dup2\n        /* \"#utility.yul\":26245:26376   */\n      tag_268\n      jump\t// in\n    tag_529:\n        /* \"#utility.yul\":26237:26376   */\n      swap1\n      pop\n        /* \"#utility.yul\":25964:26383   */\n      swap2\n      swap1\n      pop\n      jump\t// out\n        /* \"#utility.yul\":26389:26580   */\n    tag_154:\n        /* \"#utility.yul\":26429:26432   */\n      0x00\n        /* \"#utility.yul\":26448:26468   */\n      tag_531\n        /* \"#utility.yul\":26466:26467   */\n      dup3\n        /* \"#utility.yul\":26448:26468   */\n      tag_200\n      jump\t// in\n    tag_531:\n        /* \"#utility.yul\":26443:26468   */\n      swap2\n      pop\n        /* \"#utility.yul\":26482:26502   */\n      tag_532\n        /* \"#utility.yul\":26500:26501   */\n      dup4\n        /* \"#utility.yul\":26482:26502   */\n      tag_200\n      jump\t// in\n    tag_532:\n        /* \"#utility.yul\":26477:26502   */\n      swap3\n      pop\n        /* \"#utility.yul\":26525:26526   */\n      dup3\n        /* \"#utility.yul\":26522:26523   */\n      dup3\n        /* \"#utility.yul\":26518:26527   */\n      add\n        /* \"#utility.yul\":26511:26527   */\n      swap1\n      pop\n        /* \"#utility.yul\":26546:26549   */\n      dup1\n        /* \"#utility.yul\":26543:26544   */\n      dup3\n        /* \"#utility.yul\":26540:26550   */\n      gt\n        /* \"#utility.yul\":26537:26573   */\n      iszero\n      tag_533\n      jumpi\n        /* \"#utility.yul\":26553:26571   */\n      tag_534\n      tag_243\n      jump\t// in\n    tag_534:\n        /* \"#utility.yul\":26537:26573   */\n    tag_533:\n        /* \"#utility.yul\":26389:26580   */\n      swap3\n      swap2\n      pop\n      pop\n      jump\t// out\n        /* \"#utility.yul\":26586:26918   */\n    tag_158:\n        /* \"#utility.yul\":26707:26711   */\n      0x00\n        /* \"#utility.yul\":26745:26747   */\n      0x40\n        /* \"#utility.yul\":26734:26743   */\n      dup3\n        /* \"#utility.yul\":26730:26748   */\n      add\n        /* \"#utility.yul\":26722:26748   */\n      swap1\n      pop\n        /* \"#utility.yul\":26758:26829   */\n      tag_536\n        /* \"#utility.yul\":26826:26827   */\n      0x00\n        /* \"#utility.yul\":26815:26824   */\n      dup4\n        /* \"#utility.yul\":26811:26828   */\n      add\n        /* \"#utility.yul\":26802:26808   */\n      dup6\n        /* \"#utility.yul\":26758:26829   */\n      tag_210\n      jump\t// in\n    tag_536:\n        /* \"#utility.yul\":26839:26911   */\n      tag_537\n        /* \"#utility.yul\":26907:26909   */\n      0x20\n        /* \"#utility.yul\":26896:26905   */\n      dup4\n        /* \"#utility.yul\":26892:26910   */\n      add\n        /* \"#utility.yul\":26883:26889   */\n      dup5\n        /* \"#utility.yul\":26839:26911   */\n      tag_210\n      jump\t// in\n    tag_537:\n        /* \"#utility.yul\":26586:26918   */\n      swap4\n      swap3\n      pop\n      pop\n      pop\n      jump\t// out\n\n    auxdata: 0xa26469706673582212204fd14790911ddaa1fb8ac9ea340dab34dd1bdf9842e56d383641d3c4e3155bd864736f6c634300081a0033\n}\n",
				"bytecode": {
					"linkReferences": {},
					"object": "6080604052348015600e575f80fd5b50335f806101000a81548173ffffffffffffffffffffffffffffffffffffffff021916908373ffffffffffffffffffffffffffffffffffffffff160217905550611d5c8061005b5f395ff3fe60806040526004361061009b575f3560e01c80638da5cb5b116100635780638da5cb5b146101af5780639bd30883146101d9578063bec0d79914610203578063d02890851461022b578063f346e2b714610253578063f98520de1461026f5761009b565b8063354528e81461009f578063513073b8146100c9578063590791f2146101055780635ac3e19e1461012f578063687440461461016f575b5f80fd5b3480156100aa575f80fd5b506100b3610297565b6040516100c09190611001565b60405180910390f35b3480156100d4575f80fd5b506100ef60048036038101906100ea919061105c565b6102ed565b6040516100fc9190611096565b60405180910390f35b348015610110575f80fd5b5061011961030d565b6040516101269190611096565b60405180910390f35b34801561013a575f80fd5b506101556004803603810190610150919061105c565b61034b565b604051610166959493929190611139565b60405180910390f35b34801561017a575f80fd5b506101956004803603810190610190919061105c565b610505565b6040516101a69594939291906111b4565b60405180910390f35b3480156101ba575f80fd5b506101c361065c565b6040516101d09190611252565b60405180910390f35b3480156101e4575f80fd5b506101ed61067f565b6040516101fa9190611096565b60405180910390f35b34801561020e575f80fd5b506102296004803603810190610224919061105c565b610688565b005b348015610236575f80fd5b50610251600480360381019061024c91906113c1565b6108c3565b005b61026d60048036038101906102689190611470565b610a4d565b005b34801561027a575f80fd5b5061029560048036038101906102909190611584565b610c6c565b005b606060038054806020026020016040519081016040528092919081815260200182805480156102e357602002820191905f5260205f20905b8154815260200190600101908083116102cf575b5050505050905090565b600381815481106102fc575f80fd5b905f5260205f20015f915090505481565b5f805f9054906101000a900473ffffffffffffffffffffffffffffffffffffffff1673ffffffffffffffffffffffffffffffffffffffff1631905090565b6060805f805f8060025f8881526020019081526020015f206040518060a00160405290815f8201805461037d906115f8565b80601f01602080910402602001604051908101604052809291908181526020018280546103a9906115f8565b80156103f45780601f106103cb576101008083540402835291602001916103f4565b820191905f5260205f20905b8154815290600101906020018083116103d757829003601f168201915b5050505050815260200160018201805461040d906115f8565b80601f0160208091040260200160405190810160405280929190818152602001828054610439906115f8565b80156104845780601f1061045b57610100808354040283529160200191610484565b820191905f5260205f20905b81548152906001019060200180831161046757829003601f168201915b50505050508152602001600282015f9054906101000a900461ffff1661ffff1661ffff16815260200160038201548152602001600482015f9054906101000a900460ff1615151515815250509050805f015181602001518260400151836060015184608001518261ffff169250955095509550955095505091939590929450565b6002602052805f5260405f205f91509050805f018054610524906115f8565b80601f0160208091040260200160405190810160405280929190818152602001828054610550906115f8565b801561059b5780601f106105725761010080835404028352916020019161059b565b820191905f5260205f20905b81548152906001019060200180831161057e57829003601f168201915b5050505050908060010180546105b0906115f8565b80601f01602080910402602001604051908101604052809291908181526020018280546105dc906115f8565b80156106275780601f106105fe57610100808354040283529160200191610627565b820191905f5260205f20905b81548152906001019060200180831161060a57829003601f168201915b505050505090806002015f9054906101000a900461ffff1690806003015490806004015f9054906101000a900460ff16905085565b5f8054906101000a900473ffffffffffffffffffffffffffffffffffffffff1681565b5f600154905090565b5f8054906101000a900473ffffffffffffffffffffffffffffffffffffffff1673ffffffffffffffffffffffffffffffffffffffff163373ffffffffffffffffffffffffffffffffffffffff1614610715576040517f08c379a000000000000000000000000000000000000000000000000000000000815260040161070c90611698565b60405180910390fd5b5f60025f8381526020019081526020015f206002015f9054906101000a900461ffff1661ffff160361077c576040517f08c379a000000000000000000000000000000000000000000000000000000000815260040161077390611700565b60405180910390fd5b60025f8281526020019081526020015f205f8082015f61079c9190610ee9565b600182015f6107ab9190610ee9565b600282015f6101000a81549061ffff0219169055600382015f9055600482015f6101000a81549060ff021916905550505f5b6003805490508110156108925781600382815481106107ff576107fe61171e565b5b905f5260205f2001540361088557600360016003805490506108219190611778565b815481106108325761083161171e565b5b905f5260205f2001546003828154811061084f5761084e61171e565b5b905f5260205f200181905550600380548061086d5761086c6117ab565b5b600190038181905f5260205f20015f90559055610892565b80806001019150506107dd565b50807f3c5ce13264433bcf97e5d53c97af4fc33800e8c9dd927f965b116d0018d7cddf60405160405180910390a250565b5f60025f8781526020019081526020015f206002015f9054906101000a900461ffff1661ffff161461092a576040517f08c379a000000000000000000000000000000000000000000000000000000000815260040161092190611848565b60405180910390fd5b6040518060a001604052808581526020018481526020018261ffff1681526020018381526020015f8411151581525060025f8781526020019081526020015f205f820151815f01908161097d9190611a03565b5060208201518160010190816109939190611a03565b506040820151816002015f6101000a81548161ffff021916908361ffff160217905550606082015181600301556080820151816004015f6101000a81548160ff021916908315150217905550905050600385908060018154018082558091505060019003905f5260205f20015f9091909190915055847f722c04650224f771c04ec5712c74689980b3ddb4eaa233cd8f9c72d7da7fbe2985858585604051610a3e9493929190611b02565b60405180910390a25050505050565b5f60025f8581526020019081526020015f209050806004015f9054906101000a900460ff16610ab1576040517f08c379a0000000000000000000000000000000000000000000000000000000008152600401610aa890611b9d565b60405180910390fd5b8281600301541015610af8576040517f08c379a0000000000000000000000000000000000000000000000000000000008152600401610aef90611c05565b60405180910390fd5b82816002015f9054906101000a900461ffff1661ffff16610b199190611c23565b8214610b5a576040517f08c379a0000000000000000000000000000000000000000000000000000000008152600401610b5190611cae565b60405180910390fd5b82816003015f828254610b6d9190611778565b925050819055505f816003015403610b9b575f816004015f6101000a81548160ff0219169083151502179055505b8260015f828254610bac9190611ccc565b925050819055505f8054906101000a900473ffffffffffffffffffffffffffffffffffffffff1673ffffffffffffffffffffffffffffffffffffffff166108fc3490811502906040515f60405180830381858888f19350505050158015610c15573d5f803e3d5ffd5b503373ffffffffffffffffffffffffffffffffffffffff167f439c08b00222293c6073f3ee383214541a4a21aca7dbb0a45963f86fa8e589f78585604051610c5e929190611cff565b60405180910390a250505050565b5f8054906101000a900473ffffffffffffffffffffffffffffffffffffffff1673ffffffffffffffffffffffffffffffffffffffff163373ffffffffffffffffffffffffffffffffffffffff1614610cf9576040517f08c379a0000000000000000000000000000000000000000000000000000000008152600401610cf090611698565b60405180910390fd5b5f5b8151811015610eae575f828281518110610d1857610d1761171e565b5b602002602001015190505f60025f8381526020019081526020015f206002015f9054906101000a900461ffff1661ffff1603610d89576040517f08c379a0000000000000000000000000000000000000000000000000000000008152600401610d8090611700565b60405180910390fd5b60025f8281526020019081526020015f205f8082015f610da99190610ee9565b600182015f610db89190610ee9565b600282015f6101000a81549061ffff0219169055600382015f9055600482015f6101000a81549060ff021916905550505f5b600380549050811015610e9f578160038281548110610e0c57610e0b61171e565b5b905f5260205f20015403610e925760036001600380549050610e2e9190611778565b81548110610e3f57610e3e61171e565b5b905f5260205f20015460038281548110610e5c57610e5b61171e565b5b905f5260205f2001819055506003805480610e7a57610e796117ab565b5b600190038181905f5260205f20015f90559055610e9f565b8080600101915050610dea565b50508080600101915050610cfb565b507f7262be1e48c30c363173fcb2fbf2dc2cb38d076dee42cc37cdfbdf62af5c3bed81604051610ede9190611001565b60405180910390a150565b508054610ef5906115f8565b5f825580601f10610f065750610f23565b601f0160209004905f5260205f2090810190610f229190610f26565b5b50565b5b80821115610f3d575f815f905550600101610f27565b5090565b5f81519050919050565b5f82825260208201905092915050565b5f819050602082019050919050565b5f819050919050565b610f7c81610f6a565b82525050565b5f610f8d8383610f73565b60208301905092915050565b5f602082019050919050565b5f610faf82610f41565b610fb98185610f4b565b9350610fc483610f5b565b805f5b83811015610ff4578151610fdb8882610f82565b9750610fe683610f99565b925050600181019050610fc7565b5085935050505092915050565b5f6020820190508181035f8301526110198184610fa5565b905092915050565b5f604051905090565b5f80fd5b5f80fd5b61103b81610f6a565b8114611045575f80fd5b50565b5f8135905061105681611032565b92915050565b5f602082840312156110715761107061102a565b5b5f61107e84828501611048565b91505092915050565b61109081610f6a565b82525050565b5f6020820190506110a95f830184611087565b92915050565b5f81519050919050565b5f82825260208201905092915050565b8281835e5f83830152505050565b5f601f19601f8301169050919050565b5f6110f1826110af565b6110fb81856110b9565b935061110b8185602086016110c9565b611114816110d7565b840191505092915050565b5f8115159050919050565b6111338161111f565b82525050565b5f60a0820190508181035f83015261115181886110e7565b9050818103602083015261116581876110e7565b90506111746040830186611087565b6111816060830185611087565b61118e608083018461112a565b9695505050505050565b5f61ffff82169050919050565b6111ae81611198565b82525050565b5f60a0820190508181035f8301526111cc81886110e7565b905081810360208301526111e081876110e7565b90506111ef60408301866111a5565b6111fc6060830185611087565b611209608083018461112a565b9695505050505050565b5f73ffffffffffffffffffffffffffffffffffffffff82169050919050565b5f61123c82611213565b9050919050565b61124c81611232565b82525050565b5f6020820190506112655f830184611243565b92915050565b5f80fd5b5f80fd5b7f4e487b71000000000000000000000000000000000000000000000000000000005f52604160045260245ffd5b6112a9826110d7565b810181811067ffffffffffffffff821117156112c8576112c7611273565b5b80604052505050565b5f6112da611021565b90506112e682826112a0565b919050565b5f67ffffffffffffffff82111561130557611304611273565b5b61130e826110d7565b9050602081019050919050565b828183375f83830152505050565b5f61133b611336846112eb565b6112d1565b9050828152602081018484840111156113575761135661126f565b5b61136284828561131b565b509392505050565b5f82601f83011261137e5761137d61126b565b5b813561138e848260208601611329565b91505092915050565b6113a081611198565b81146113aa575f80fd5b50565b5f813590506113bb81611397565b92915050565b5f805f805f60a086880312156113da576113d961102a565b5b5f6113e788828901611048565b955050602086013567ffffffffffffffff8111156114085761140761102e565b5b6114148882890161136a565b945050604086013567ffffffffffffffff8111156114355761143461102e565b5b6114418882890161136a565b935050606061145288828901611048565b9250506080611463888289016113ad565b9150509295509295909350565b5f805f606084860312156114875761148661102a565b5b5f61149486828701611048565b93505060206114a586828701611048565b92505060406114b686828701611048565b9150509250925092565b5f67ffffffffffffffff8211156114da576114d9611273565b5b602082029050602081019050919050565b5f80fd5b5f6115016114fc846114c0565b6112d1565b90508083825260208201905060208402830185811115611524576115236114eb565b5b835b8181101561154d57806115398882611048565b845260208401935050602081019050611526565b5050509392505050565b5f82601f83011261156b5761156a61126b565b5b813561157b8482602086016114ef565b91505092915050565b5f602082840312156115995761159861102a565b5b5f82013567ffffffffffffffff8111156115b6576115b561102e565b5b6115c284828501611557565b91505092915050565b7f4e487b71000000000000000000000000000000000000000000000000000000005f52602260045260245ffd5b5f600282049050600182168061160f57607f821691505b602082108103611622576116216115cb565b5b50919050565b7f4f6e6c79206f776e65722063616e20706572666f726d207468697320616374695f8201527f6f6e000000000000000000000000000000000000000000000000000000000000602082015250565b5f6116826022836110b9565b915061168d82611628565b604082019050919050565b5f6020820190508181035f8301526116af81611676565b9050919050565b7f426f6f6b20646f6573206e6f74206578697374000000000000000000000000005f82015250565b5f6116ea6013836110b9565b91506116f5826116b6565b602082019050919050565b5f6020820190508181035f830152611717816116de565b9050919050565b7f4e487b71000000000000000000000000000000000000000000000000000000005f52603260045260245ffd5b7f4e487b71000000000000000000000000000000000000000000000000000000005f52601160045260245ffd5b5f61178282610f6a565b915061178d83610f6a565b92508282039050818111156117a5576117a461174b565b5b92915050565b7f4e487b71000000000000000000000000000000000000000000000000000000005f52603160045260245ffd5b7f43414e4e4f542041444420424f4f4b20495420414c52454144592045584953545f8201527f5300000000000000000000000000000000000000000000000000000000000000602082015250565b5f6118326021836110b9565b915061183d826117d8565b604082019050919050565b5f6020820190508181035f83015261185f81611826565b9050919050565b5f819050815f5260205f209050919050565b5f6020601f8301049050919050565b5f82821b905092915050565b5f600883026118c27fffffffffffffffffffffffffffffffffffffffffffffffffffffffffffffffff82611887565b6118cc8683611887565b95508019841693508086168417925050509392505050565b5f819050919050565b5f6119076119026118fd84610f6a565b6118e4565b610f6a565b9050919050565b5f819050919050565b611920836118ed565b61193461192c8261190e565b848454611893565b825550505050565b5f90565b61194861193c565b611953818484611917565b505050565b5b818110156119765761196b5f82611940565b600181019050611959565b5050565b601f8211156119bb5761198c81611866565b61199584611878565b810160208510156119a4578190505b6119b86119b085611878565b830182611958565b50505b505050565b5f82821c905092915050565b5f6119db5f19846008026119c0565b1980831691505092915050565b5f6119f383836119cc565b9150826002028217905092915050565b611a0c826110af565b67ffffffffffffffff811115611a2557611a24611273565b5b611a2f82546115f8565b611a3a82828561197a565b5f60209050601f831160018114611a6b575f8415611a59578287015190505b611a6385826119e8565b865550611aca565b601f198416611a7986611866565b5f5b82811015611aa057848901518255600182019150602085019450602081019050611a7b565b86831015611abd5784890151611ab9601f8916826119cc565b8355505b6001600288020188555050505b505050505050565b5f611aec611ae7611ae284611198565b6118e4565b610f6a565b9050919050565b611afc81611ad2565b82525050565b5f6080820190508181035f830152611b1a81876110e7565b90508181036020830152611b2e81866110e7565b9050611b3d6040830185611087565b611b4a6060830184611af3565b95945050505050565b7f5468697320626f6f6b206973206e6f7420617661696c61626c650000000000005f82015250565b5f611b87601a836110b9565b9150611b9282611b53565b602082019050919050565b5f6020820190508181035f830152611bb481611b7b565b9050919050565b7f4e6f7420656e6f7567682073746f636b20617661696c61626c650000000000005f82015250565b5f611bef601a836110b9565b9150611bfa82611bbb565b602082019050919050565b5f6020820190508181035f830152611c1c81611be3565b9050919050565b5f611c2d82610f6a565b9150611c3883610f6a565b9250828202611c4681610f6a565b91508282048414831517611c5d57611c5c61174b565b5b5092915050565b7f496e636f7272656374207061796d656e7420616d6f756e7400000000000000005f82015250565b5f611c986018836110b9565b9150611ca382611c64565b602082019050919050565b5f6020820190508181035f830152611cc581611c8c565b9050919050565b5f611cd682610f6a565b9150611ce183610f6a565b9250828201905080821115611cf957611cf861174b565b5b92915050565b5f604082019050611d125f830185611087565b611d1f6020830184611087565b939250505056fea26469706673582212204fd14790911ddaa1fb8ac9ea340dab34dd1bdf9842e56d383641d3c4e3155bd864736f6c634300081a0033",
					"opcodes": "PUSH1 0x80 PUSH1 0x40 MSTORE CALLVALUE DUP1 ISZERO PUSH1 0xE JUMPI PUSH0 DUP1 REVERT JUMPDEST POP CALLER PUSH0 DUP1 PUSH2 0x100 EXP DUP2 SLOAD DUP2 PUSH20 0xFFFFFFFFFFFFFFFFFFFFFFFFFFFFFFFFFFFFFFFF MUL NOT AND SWAP1 DUP4 PUSH20 0xFFFFFFFFFFFFFFFFFFFFFFFFFFFFFFFFFFFFFFFF AND MUL OR SWAP1 SSTORE POP PUSH2 0x1D5C DUP1 PUSH2 0x5B PUSH0 CODECOPY PUSH0 RETURN INVALID PUSH1 0x80 PUSH1 0x40 MSTORE PUSH1 0x4 CALLDATASIZE LT PUSH2 0x9B JUMPI PUSH0 CALLDATALOAD PUSH1 0xE0 SHR DUP1 PUSH4 0x8DA5CB5B GT PUSH2 0x63 JUMPI DUP1 PUSH4 0x8DA5CB5B EQ PUSH2 0x1AF JUMPI DUP1 PUSH4 0x9BD30883 EQ PUSH2 0x1D9 JUMPI DUP1 PUSH4 0xBEC0D799 EQ PUSH2 0x203 JUMPI DUP1 PUSH4 0xD0289085 EQ PUSH2 0x22B JUMPI DUP1 PUSH4 0xF346E2B7 EQ PUSH2 0x253 JUMPI DUP1 PUSH4 0xF98520DE EQ PUSH2 0x26F JUMPI PUSH2 0x9B JUMP JUMPDEST DUP1 PUSH4 0x354528E8 EQ PUSH2 0x9F JUMPI DUP1 PUSH4 0x513073B8 EQ PUSH2 0xC9 JUMPI DUP1 PUSH4 0x590791F2 EQ PUSH2 0x105 JUMPI DUP1 PUSH4 0x5AC3E19E EQ PUSH2 0x12F JUMPI DUP1 PUSH4 0x68744046 EQ PUSH2 0x16F JUMPI JUMPDEST PUSH0 DUP1 REVERT JUMPDEST CALLVALUE DUP1 ISZERO PUSH2 0xAA JUMPI PUSH0 DUP1 REVERT JUMPDEST POP PUSH2 0xB3 PUSH2 0x297 JUMP JUMPDEST PUSH1 0x40 MLOAD PUSH2 0xC0 SWAP2 SWAP1 PUSH2 0x1001 JUMP JUMPDEST PUSH1 0x40 MLOAD DUP1 SWAP2 SUB SWAP1 RETURN JUMPDEST CALLVALUE DUP1 ISZERO PUSH2 0xD4 JUMPI PUSH0 DUP1 REVERT JUMPDEST POP PUSH2 0xEF PUSH1 0x4 DUP1 CALLDATASIZE SUB DUP2 ADD SWAP1 PUSH2 0xEA SWAP2 SWAP1 PUSH2 0x105C JUMP JUMPDEST PUSH2 0x2ED JUMP JUMPDEST PUSH1 0x40 MLOAD PUSH2 0xFC SWAP2 SWAP1 PUSH2 0x1096 JUMP JUMPDEST PUSH1 0x40 MLOAD DUP1 SWAP2 SUB SWAP1 RETURN JUMPDEST CALLVALUE DUP1 ISZERO PUSH2 0x110 JUMPI PUSH0 DUP1 REVERT JUMPDEST POP PUSH2 0x119 PUSH2 0x30D JUMP JUMPDEST PUSH1 0x40 MLOAD PUSH2 0x126 SWAP2 SWAP1 PUSH2 0x1096 JUMP JUMPDEST PUSH1 0x40 MLOAD DUP1 SWAP2 SUB SWAP1 RETURN JUMPDEST CALLVALUE DUP1 ISZERO PUSH2 0x13A JUMPI PUSH0 DUP1 REVERT JUMPDEST POP PUSH2 0x155 PUSH1 0x4 DUP1 CALLDATASIZE SUB DUP2 ADD SWAP1 PUSH2 0x150 SWAP2 SWAP1 PUSH2 0x105C JUMP JUMPDEST PUSH2 0x34B JUMP JUMPDEST PUSH1 0x40 MLOAD PUSH2 0x166 SWAP6 SWAP5 SWAP4 SWAP3 SWAP2 SWAP1 PUSH2 0x1139 JUMP JUMPDEST PUSH1 0x40 MLOAD DUP1 SWAP2 SUB SWAP1 RETURN JUMPDEST CALLVALUE DUP1 ISZERO PUSH2 0x17A JUMPI PUSH0 DUP1 REVERT JUMPDEST POP PUSH2 0x195 PUSH1 0x4 DUP1 CALLDATASIZE SUB DUP2 ADD SWAP1 PUSH2 0x190 SWAP2 SWAP1 PUSH2 0x105C JUMP JUMPDEST PUSH2 0x505 JUMP JUMPDEST PUSH1 0x40 MLOAD PUSH2 0x1A6 SWAP6 SWAP5 SWAP4 SWAP3 SWAP2 SWAP1 PUSH2 0x11B4 JUMP JUMPDEST PUSH1 0x40 MLOAD DUP1 SWAP2 SUB SWAP1 RETURN JUMPDEST CALLVALUE DUP1 ISZERO PUSH2 0x1BA JUMPI PUSH0 DUP1 REVERT JUMPDEST POP PUSH2 0x1C3 PUSH2 0x65C JUMP JUMPDEST PUSH1 0x40 MLOAD PUSH2 0x1D0 SWAP2 SWAP1 PUSH2 0x1252 JUMP JUMPDEST PUSH1 0x40 MLOAD DUP1 SWAP2 SUB SWAP1 RETURN JUMPDEST CALLVALUE DUP1 ISZERO PUSH2 0x1E4 JUMPI PUSH0 DUP1 REVERT JUMPDEST POP PUSH2 0x1ED PUSH2 0x67F JUMP JUMPDEST PUSH1 0x40 MLOAD PUSH2 0x1FA SWAP2 SWAP1 PUSH2 0x1096 JUMP JUMPDEST PUSH1 0x40 MLOAD DUP1 SWAP2 SUB SWAP1 RETURN JUMPDEST CALLVALUE DUP1 ISZERO PUSH2 0x20E JUMPI PUSH0 DUP1 REVERT JUMPDEST POP PUSH2 0x229 PUSH1 0x4 DUP1 CALLDATASIZE SUB DUP2 ADD SWAP1 PUSH2 0x224 SWAP2 SWAP1 PUSH2 0x105C JUMP JUMPDEST PUSH2 0x688 JUMP JUMPDEST STOP JUMPDEST CALLVALUE DUP1 ISZERO PUSH2 0x236 JUMPI PUSH0 DUP1 REVERT JUMPDEST POP PUSH2 0x251 PUSH1 0x4 DUP1 CALLDATASIZE SUB DUP2 ADD SWAP1 PUSH2 0x24C SWAP2 SWAP1 PUSH2 0x13C1 JUMP JUMPDEST PUSH2 0x8C3 JUMP JUMPDEST STOP JUMPDEST PUSH2 0x26D PUSH1 0x4 DUP1 CALLDATASIZE SUB DUP2 ADD SWAP1 PUSH2 0x268 SWAP2 SWAP1 PUSH2 0x1470 JUMP JUMPDEST PUSH2 0xA4D JUMP JUMPDEST STOP JUMPDEST CALLVALUE DUP1 ISZERO PUSH2 0x27A JUMPI PUSH0 DUP1 REVERT JUMPDEST POP PUSH2 0x295 PUSH1 0x4 DUP1 CALLDATASIZE SUB DUP2 ADD SWAP1 PUSH2 0x290 SWAP2 SWAP1 PUSH2 0x1584 JUMP JUMPDEST PUSH2 0xC6C JUMP JUMPDEST STOP JUMPDEST PUSH1 0x60 PUSH1 0x3 DUP1 SLOAD DUP1 PUSH1 0x20 MUL PUSH1 0x20 ADD PUSH1 0x40 MLOAD SWAP1 DUP2 ADD PUSH1 0x40 MSTORE DUP1 SWAP3 SWAP2 SWAP1 DUP2 DUP2 MSTORE PUSH1 0x20 ADD DUP3 DUP1 SLOAD DUP1 ISZERO PUSH2 0x2E3 JUMPI PUSH1 0x20 MUL DUP3 ADD SWAP2 SWAP1 PUSH0 MSTORE PUSH1 0x20 PUSH0 KECCAK256 SWAP1 JUMPDEST DUP2 SLOAD DUP2 MSTORE PUSH1 0x20 ADD SWAP1 PUSH1 0x1 ADD SWAP1 DUP1 DUP4 GT PUSH2 0x2CF JUMPI JUMPDEST POP POP POP POP POP SWAP1 POP SWAP1 JUMP JUMPDEST PUSH1 0x3 DUP2 DUP2 SLOAD DUP2 LT PUSH2 0x2FC JUMPI PUSH0 DUP1 REVERT JUMPDEST SWAP1 PUSH0 MSTORE PUSH1 0x20 PUSH0 KECCAK256 ADD PUSH0 SWAP2 POP SWAP1 POP SLOAD DUP2 JUMP JUMPDEST PUSH0 DUP1 PUSH0 SWAP1 SLOAD SWAP1 PUSH2 0x100 EXP SWAP1 DIV PUSH20 0xFFFFFFFFFFFFFFFFFFFFFFFFFFFFFFFFFFFFFFFF AND PUSH20 0xFFFFFFFFFFFFFFFFFFFFFFFFFFFFFFFFFFFFFFFF AND BALANCE SWAP1 POP SWAP1 JUMP JUMPDEST PUSH1 0x60 DUP1 PUSH0 DUP1 PUSH0 DUP1 PUSH1 0x2 PUSH0 DUP9 DUP2 MSTORE PUSH1 0x20 ADD SWAP1 DUP2 MSTORE PUSH1 0x20 ADD PUSH0 KECCAK256 PUSH1 0x40 MLOAD DUP1 PUSH1 0xA0 ADD PUSH1 0x40 MSTORE SWAP1 DUP2 PUSH0 DUP3 ADD DUP1 SLOAD PUSH2 0x37D SWAP1 PUSH2 0x15F8 JUMP JUMPDEST DUP1 PUSH1 0x1F ADD PUSH1 0x20 DUP1 SWAP2 DIV MUL PUSH1 0x20 ADD PUSH1 0x40 MLOAD SWAP1 DUP2 ADD PUSH1 0x40 MSTORE DUP1 SWAP3 SWAP2 SWAP1 DUP2 DUP2 MSTORE PUSH1 0x20 ADD DUP3 DUP1 SLOAD PUSH2 0x3A9 SWAP1 PUSH2 0x15F8 JUMP JUMPDEST DUP1 ISZERO PUSH2 0x3F4 JUMPI DUP1 PUSH1 0x1F LT PUSH2 0x3CB JUMPI PUSH2 0x100 DUP1 DUP4 SLOAD DIV MUL DUP4 MSTORE SWAP2 PUSH1 0x20 ADD SWAP2 PUSH2 0x3F4 JUMP JUMPDEST DUP3 ADD SWAP2 SWAP1 PUSH0 MSTORE PUSH1 0x20 PUSH0 KECCAK256 SWAP1 JUMPDEST DUP2 SLOAD DUP2 MSTORE SWAP1 PUSH1 0x1 ADD SWAP1 PUSH1 0x20 ADD DUP1 DUP4 GT PUSH2 0x3D7 JUMPI DUP3 SWAP1 SUB PUSH1 0x1F AND DUP3 ADD SWAP2 JUMPDEST POP POP POP POP POP DUP2 MSTORE PUSH1 0x20 ADD PUSH1 0x1 DUP3 ADD DUP1 SLOAD PUSH2 0x40D SWAP1 PUSH2 0x15F8 JUMP JUMPDEST DUP1 PUSH1 0x1F ADD PUSH1 0x20 DUP1 SWAP2 DIV MUL PUSH1 0x20 ADD PUSH1 0x40 MLOAD SWAP1 DUP2 ADD PUSH1 0x40 MSTORE DUP1 SWAP3 SWAP2 SWAP1 DUP2 DUP2 MSTORE PUSH1 0x20 ADD DUP3 DUP1 SLOAD PUSH2 0x439 SWAP1 PUSH2 0x15F8 JUMP JUMPDEST DUP1 ISZERO PUSH2 0x484 JUMPI DUP1 PUSH1 0x1F LT PUSH2 0x45B JUMPI PUSH2 0x100 DUP1 DUP4 SLOAD DIV MUL DUP4 MSTORE SWAP2 PUSH1 0x20 ADD SWAP2 PUSH2 0x484 JUMP JUMPDEST DUP3 ADD SWAP2 SWAP1 PUSH0 MSTORE PUSH1 0x20 PUSH0 KECCAK256 SWAP1 JUMPDEST DUP2 SLOAD DUP2 MSTORE SWAP1 PUSH1 0x1 ADD SWAP1 PUSH1 0x20 ADD DUP1 DUP4 GT PUSH2 0x467 JUMPI DUP3 SWAP1 SUB PUSH1 0x1F AND DUP3 ADD SWAP2 JUMPDEST POP POP POP POP POP DUP2 MSTORE PUSH1 0x20 ADD PUSH1 0x2 DUP3 ADD PUSH0 SWAP1 SLOAD SWAP1 PUSH2 0x100 EXP SWAP1 DIV PUSH2 0xFFFF AND PUSH2 0xFFFF AND PUSH2 0xFFFF AND DUP2 MSTORE PUSH1 0x20 ADD PUSH1 0x3 DUP3 ADD SLOAD DUP2 MSTORE PUSH1 0x20 ADD PUSH1 0x4 DUP3 ADD PUSH0 SWAP1 SLOAD SWAP1 PUSH2 0x100 EXP SWAP1 DIV PUSH1 0xFF AND ISZERO ISZERO ISZERO ISZERO DUP2 MSTORE POP POP SWAP1 POP DUP1 PUSH0 ADD MLOAD DUP2 PUSH1 0x20 ADD MLOAD DUP3 PUSH1 0x40 ADD MLOAD DUP4 PUSH1 0x60 ADD MLOAD DUP5 PUSH1 0x80 ADD MLOAD DUP3 PUSH2 0xFFFF AND SWAP3 POP SWAP6 POP SWAP6 POP SWAP6 POP SWAP6 POP SWAP6 POP POP SWAP2 SWAP4 SWAP6 SWAP1 SWAP3 SWAP5 POP JUMP JUMPDEST PUSH1 0x2 PUSH1 0x20 MSTORE DUP1 PUSH0 MSTORE PUSH1 0x40 PUSH0 KECCAK256 PUSH0 SWAP2 POP SWAP1 POP DUP1 PUSH0 ADD DUP1 SLOAD PUSH2 0x524 SWAP1 PUSH2 0x15F8 JUMP JUMPDEST DUP1 PUSH1 0x1F ADD PUSH1 0x20 DUP1 SWAP2 DIV MUL PUSH1 0x20 ADD PUSH1 0x40 MLOAD SWAP1 DUP2 ADD PUSH1 0x40 MSTORE DUP1 SWAP3 SWAP2 SWAP1 DUP2 DUP2 MSTORE PUSH1 0x20 ADD DUP3 DUP1 SLOAD PUSH2 0x550 SWAP1 PUSH2 0x15F8 JUMP JUMPDEST DUP1 ISZERO PUSH2 0x59B JUMPI DUP1 PUSH1 0x1F LT PUSH2 0x572 JUMPI PUSH2 0x100 DUP1 DUP4 SLOAD DIV MUL DUP4 MSTORE SWAP2 PUSH1 0x20 ADD SWAP2 PUSH2 0x59B JUMP JUMPDEST DUP3 ADD SWAP2 SWAP1 PUSH0 MSTORE PUSH1 0x20 PUSH0 KECCAK256 SWAP1 JUMPDEST DUP2 SLOAD DUP2 MSTORE SWAP1 PUSH1 0x1 ADD SWAP1 PUSH1 0x20 ADD DUP1 DUP4 GT PUSH2 0x57E JUMPI DUP3 SWAP1 SUB PUSH1 0x1F AND DUP3 ADD SWAP2 JUMPDEST POP POP POP POP POP SWAP1 DUP1 PUSH1 0x1 ADD DUP1 SLOAD PUSH2 0x5B0 SWAP1 PUSH2 0x15F8 JUMP JUMPDEST DUP1 PUSH1 0x1F ADD PUSH1 0x20 DUP1 SWAP2 DIV MUL PUSH1 0x20 ADD PUSH1 0x40 MLOAD SWAP1 DUP2 ADD PUSH1 0x40 MSTORE DUP1 SWAP3 SWAP2 SWAP1 DUP2 DUP2 MSTORE PUSH1 0x20 ADD DUP3 DUP1 SLOAD PUSH2 0x5DC SWAP1 PUSH2 0x15F8 JUMP JUMPDEST DUP1 ISZERO PUSH2 0x627 JUMPI DUP1 PUSH1 0x1F LT PUSH2 0x5FE JUMPI PUSH2 0x100 DUP1 DUP4 SLOAD DIV MUL DUP4 MSTORE SWAP2 PUSH1 0x20 ADD SWAP2 PUSH2 0x627 JUMP JUMPDEST DUP3 ADD SWAP2 SWAP1 PUSH0 MSTORE PUSH1 0x20 PUSH0 KECCAK256 SWAP1 JUMPDEST DUP2 SLOAD DUP2 MSTORE SWAP1 PUSH1 0x1 ADD SWAP1 PUSH1 0x20 ADD DUP1 DUP4 GT PUSH2 0x60A JUMPI DUP3 SWAP1 SUB PUSH1 0x1F AND DUP3 ADD SWAP2 JUMPDEST POP POP POP POP POP SWAP1 DUP1 PUSH1 0x2 ADD PUSH0 SWAP1 SLOAD SWAP1 PUSH2 0x100 EXP SWAP1 DIV PUSH2 0xFFFF AND SWAP1 DUP1 PUSH1 0x3 ADD SLOAD SWAP1 DUP1 PUSH1 0x4 ADD PUSH0 SWAP1 SLOAD SWAP1 PUSH2 0x100 EXP SWAP1 DIV PUSH1 0xFF AND SWAP1 POP DUP6 JUMP JUMPDEST PUSH0 DUP1 SLOAD SWAP1 PUSH2 0x100 EXP SWAP1 DIV PUSH20 0xFFFFFFFFFFFFFFFFFFFFFFFFFFFFFFFFFFFFFFFF AND DUP2 JUMP JUMPDEST PUSH0 PUSH1 0x1 SLOAD SWAP1 POP SWAP1 JUMP JUMPDEST PUSH0 DUP1 SLOAD SWAP1 PUSH2 0x100 EXP SWAP1 DIV PUSH20 0xFFFFFFFFFFFFFFFFFFFFFFFFFFFFFFFFFFFFFFFF AND PUSH20 0xFFFFFFFFFFFFFFFFFFFFFFFFFFFFFFFFFFFFFFFF AND CALLER PUSH20 0xFFFFFFFFFFFFFFFFFFFFFFFFFFFFFFFFFFFFFFFF AND EQ PUSH2 0x715 JUMPI PUSH1 0x40 MLOAD PUSH32 0x8C379A000000000000000000000000000000000000000000000000000000000 DUP2 MSTORE PUSH1 0x4 ADD PUSH2 0x70C SWAP1 PUSH2 0x1698 JUMP JUMPDEST PUSH1 0x40 MLOAD DUP1 SWAP2 SUB SWAP1 REVERT JUMPDEST PUSH0 PUSH1 0x2 PUSH0 DUP4 DUP2 MSTORE PUSH1 0x20 ADD SWAP1 DUP2 MSTORE PUSH1 0x20 ADD PUSH0 KECCAK256 PUSH1 0x2 ADD PUSH0 SWAP1 SLOAD SWAP1 PUSH2 0x100 EXP SWAP1 DIV PUSH2 0xFFFF AND PUSH2 0xFFFF AND SUB PUSH2 0x77C JUMPI PUSH1 0x40 MLOAD PUSH32 0x8C379A000000000000000000000000000000000000000000000000000000000 DUP2 MSTORE PUSH1 0x4 ADD PUSH2 0x773 SWAP1 PUSH2 0x1700 JUMP JUMPDEST PUSH1 0x40 MLOAD DUP1 SWAP2 SUB SWAP1 REVERT JUMPDEST PUSH1 0x2 PUSH0 DUP3 DUP2 MSTORE PUSH1 0x20 ADD SWAP1 DUP2 MSTORE PUSH1 0x20 ADD PUSH0 KECCAK256 PUSH0 DUP1 DUP3 ADD PUSH0 PUSH2 0x79C SWAP2 SWAP1 PUSH2 0xEE9 JUMP JUMPDEST PUSH1 0x1 DUP3 ADD PUSH0 PUSH2 0x7AB SWAP2 SWAP1 PUSH2 0xEE9 JUMP JUMPDEST PUSH1 0x2 DUP3 ADD PUSH0 PUSH2 0x100 EXP DUP2 SLOAD SWAP1 PUSH2 0xFFFF MUL NOT AND SWAP1 SSTORE PUSH1 0x3 DUP3 ADD PUSH0 SWAP1 SSTORE PUSH1 0x4 DUP3 ADD PUSH0 PUSH2 0x100 EXP DUP2 SLOAD SWAP1 PUSH1 0xFF MUL NOT AND SWAP1 SSTORE POP POP PUSH0 JUMPDEST PUSH1 0x3 DUP1 SLOAD SWAP1 POP DUP2 LT ISZERO PUSH2 0x892 JUMPI DUP2 PUSH1 0x3 DUP3 DUP2 SLOAD DUP2 LT PUSH2 0x7FF JUMPI PUSH2 0x7FE PUSH2 0x171E JUMP JUMPDEST JUMPDEST SWAP1 PUSH0 MSTORE PUSH1 0x20 PUSH0 KECCAK256 ADD SLOAD SUB PUSH2 0x885 JUMPI PUSH1 0x3 PUSH1 0x1 PUSH1 0x3 DUP1 SLOAD SWAP1 POP PUSH2 0x821 SWAP2 SWAP1 PUSH2 0x1778 JUMP JUMPDEST DUP2 SLOAD DUP2 LT PUSH2 0x832 JUMPI PUSH2 0x831 PUSH2 0x171E JUMP JUMPDEST JUMPDEST SWAP1 PUSH0 MSTORE PUSH1 0x20 PUSH0 KECCAK256 ADD SLOAD PUSH1 0x3 DUP3 DUP2 SLOAD DUP2 LT PUSH2 0x84F JUMPI PUSH2 0x84E PUSH2 0x171E JUMP JUMPDEST JUMPDEST SWAP1 PUSH0 MSTORE PUSH1 0x20 PUSH0 KECCAK256 ADD DUP2 SWAP1 SSTORE POP PUSH1 0x3 DUP1 SLOAD DUP1 PUSH2 0x86D JUMPI PUSH2 0x86C PUSH2 0x17AB JUMP JUMPDEST JUMPDEST PUSH1 0x1 SWAP1 SUB DUP2 DUP2 SWAP1 PUSH0 MSTORE PUSH1 0x20 PUSH0 KECCAK256 ADD PUSH0 SWAP1 SSTORE SWAP1 SSTORE PUSH2 0x892 JUMP JUMPDEST DUP1 DUP1 PUSH1 0x1 ADD SWAP2 POP POP PUSH2 0x7DD JUMP JUMPDEST POP DUP1 PUSH32 0x3C5CE13264433BCF97E5D53C97AF4FC33800E8C9DD927F965B116D0018D7CDDF PUSH1 0x40 MLOAD PUSH1 0x40 MLOAD DUP1 SWAP2 SUB SWAP1 LOG2 POP JUMP JUMPDEST PUSH0 PUSH1 0x2 PUSH0 DUP8 DUP2 MSTORE PUSH1 0x20 ADD SWAP1 DUP2 MSTORE PUSH1 0x20 ADD PUSH0 KECCAK256 PUSH1 0x2 ADD PUSH0 SWAP1 SLOAD SWAP1 PUSH2 0x100 EXP SWAP1 DIV PUSH2 0xFFFF AND PUSH2 0xFFFF AND EQ PUSH2 0x92A JUMPI PUSH1 0x40 MLOAD PUSH32 0x8C379A000000000000000000000000000000000000000000000000000000000 DUP2 MSTORE PUSH1 0x4 ADD PUSH2 0x921 SWAP1 PUSH2 0x1848 JUMP JUMPDEST PUSH1 0x40 MLOAD DUP1 SWAP2 SUB SWAP1 REVERT JUMPDEST PUSH1 0x40 MLOAD DUP1 PUSH1 0xA0 ADD PUSH1 0x40 MSTORE DUP1 DUP6 DUP2 MSTORE PUSH1 0x20 ADD DUP5 DUP2 MSTORE PUSH1 0x20 ADD DUP3 PUSH2 0xFFFF AND DUP2 MSTORE PUSH1 0x20 ADD DUP4 DUP2 MSTORE PUSH1 0x20 ADD PUSH0 DUP5 GT ISZERO ISZERO DUP2 MSTORE POP PUSH1 0x2 PUSH0 DUP8 DUP2 MSTORE PUSH1 0x20 ADD SWAP1 DUP2 MSTORE PUSH1 0x20 ADD PUSH0 KECCAK256 PUSH0 DUP3 ADD MLOAD DUP2 PUSH0 ADD SWAP1 DUP2 PUSH2 0x97D SWAP2 SWAP1 PUSH2 0x1A03 JUMP JUMPDEST POP PUSH1 0x20 DUP3 ADD MLOAD DUP2 PUSH1 0x1 ADD SWAP1 DUP2 PUSH2 0x993 SWAP2 SWAP1 PUSH2 0x1A03 JUMP JUMPDEST POP PUSH1 0x40 DUP3 ADD MLOAD DUP2 PUSH1 0x2 ADD PUSH0 PUSH2 0x100 EXP DUP2 SLOAD DUP2 PUSH2 0xFFFF MUL NOT AND SWAP1 DUP4 PUSH2 0xFFFF AND MUL OR SWAP1 SSTORE POP PUSH1 0x60 DUP3 ADD MLOAD DUP2 PUSH1 0x3 ADD SSTORE PUSH1 0x80 DUP3 ADD MLOAD DUP2 PUSH1 0x4 ADD PUSH0 PUSH2 0x100 EXP DUP2 SLOAD DUP2 PUSH1 0xFF MUL NOT AND SWAP1 DUP4 ISZERO ISZERO MUL OR SWAP1 SSTORE POP SWAP1 POP POP PUSH1 0x3 DUP6 SWAP1 DUP1 PUSH1 0x1 DUP2 SLOAD ADD DUP1 DUP3 SSTORE DUP1 SWAP2 POP POP PUSH1 0x1 SWAP1 SUB SWAP1 PUSH0 MSTORE PUSH1 0x20 PUSH0 KECCAK256 ADD PUSH0 SWAP1 SWAP2 SWAP1 SWAP2 SWAP1 SWAP2 POP SSTORE DUP5 PUSH32 0x722C04650224F771C04EC5712C74689980B3DDB4EAA233CD8F9C72D7DA7FBE29 DUP6 DUP6 DUP6 DUP6 PUSH1 0x40 MLOAD PUSH2 0xA3E SWAP5 SWAP4 SWAP3 SWAP2 SWAP1 PUSH2 0x1B02 JUMP JUMPDEST PUSH1 0x40 MLOAD DUP1 SWAP2 SUB SWAP1 LOG2 POP POP POP POP POP JUMP JUMPDEST PUSH0 PUSH1 0x2 PUSH0 DUP6 DUP2 MSTORE PUSH1 0x20 ADD SWAP1 DUP2 MSTORE PUSH1 0x20 ADD PUSH0 KECCAK256 SWAP1 POP DUP1 PUSH1 0x4 ADD PUSH0 SWAP1 SLOAD SWAP1 PUSH2 0x100 EXP SWAP1 DIV PUSH1 0xFF AND PUSH2 0xAB1 JUMPI PUSH1 0x40 MLOAD PUSH32 0x8C379A000000000000000000000000000000000000000000000000000000000 DUP2 MSTORE PUSH1 0x4 ADD PUSH2 0xAA8 SWAP1 PUSH2 0x1B9D JUMP JUMPDEST PUSH1 0x40 MLOAD DUP1 SWAP2 SUB SWAP1 REVERT JUMPDEST DUP3 DUP2 PUSH1 0x3 ADD SLOAD LT ISZERO PUSH2 0xAF8 JUMPI PUSH1 0x40 MLOAD PUSH32 0x8C379A000000000000000000000000000000000000000000000000000000000 DUP2 MSTORE PUSH1 0x4 ADD PUSH2 0xAEF SWAP1 PUSH2 0x1C05 JUMP JUMPDEST PUSH1 0x40 MLOAD DUP1 SWAP2 SUB SWAP1 REVERT JUMPDEST DUP3 DUP2 PUSH1 0x2 ADD PUSH0 SWAP1 SLOAD SWAP1 PUSH2 0x100 EXP SWAP1 DIV PUSH2 0xFFFF AND PUSH2 0xFFFF AND PUSH2 0xB19 SWAP2 SWAP1 PUSH2 0x1C23 JUMP JUMPDEST DUP3 EQ PUSH2 0xB5A JUMPI PUSH1 0x40 MLOAD PUSH32 0x8C379A000000000000000000000000000000000000000000000000000000000 DUP2 MSTORE PUSH1 0x4 ADD PUSH2 0xB51 SWAP1 PUSH2 0x1CAE JUMP JUMPDEST PUSH1 0x40 MLOAD DUP1 SWAP2 SUB SWAP1 REVERT JUMPDEST DUP3 DUP2 PUSH1 0x3 ADD PUSH0 DUP3 DUP3 SLOAD PUSH2 0xB6D SWAP2 SWAP1 PUSH2 0x1778 JUMP JUMPDEST SWAP3 POP POP DUP2 SWAP1 SSTORE POP PUSH0 DUP2 PUSH1 0x3 ADD SLOAD SUB PUSH2 0xB9B JUMPI PUSH0 DUP2 PUSH1 0x4 ADD PUSH0 PUSH2 0x100 EXP DUP2 SLOAD DUP2 PUSH1 0xFF MUL NOT AND SWAP1 DUP4 ISZERO ISZERO MUL OR SWAP1 SSTORE POP JUMPDEST DUP3 PUSH1 0x1 PUSH0 DUP3 DUP3 SLOAD PUSH2 0xBAC SWAP2 SWAP1 PUSH2 0x1CCC JUMP JUMPDEST SWAP3 POP POP DUP2 SWAP1 SSTORE POP PUSH0 DUP1 SLOAD SWAP1 PUSH2 0x100 EXP SWAP1 DIV PUSH20 0xFFFFFFFFFFFFFFFFFFFFFFFFFFFFFFFFFFFFFFFF AND PUSH20 0xFFFFFFFFFFFFFFFFFFFFFFFFFFFFFFFFFFFFFFFF AND PUSH2 0x8FC CALLVALUE SWAP1 DUP2 ISZERO MUL SWAP1 PUSH1 0x40 MLOAD PUSH0 PUSH1 0x40 MLOAD DUP1 DUP4 SUB DUP2 DUP6 DUP9 DUP9 CALL SWAP4 POP POP POP POP ISZERO DUP1 ISZERO PUSH2 0xC15 JUMPI RETURNDATASIZE PUSH0 DUP1 RETURNDATACOPY RETURNDATASIZE PUSH0 REVERT JUMPDEST POP CALLER PUSH20 0xFFFFFFFFFFFFFFFFFFFFFFFFFFFFFFFFFFFFFFFF AND PUSH32 0x439C08B00222293C6073F3EE383214541A4A21ACA7DBB0A45963F86FA8E589F7 DUP6 DUP6 PUSH1 0x40 MLOAD PUSH2 0xC5E SWAP3 SWAP2 SWAP1 PUSH2 0x1CFF JUMP JUMPDEST PUSH1 0x40 MLOAD DUP1 SWAP2 SUB SWAP1 LOG2 POP POP POP POP JUMP JUMPDEST PUSH0 DUP1 SLOAD SWAP1 PUSH2 0x100 EXP SWAP1 DIV PUSH20 0xFFFFFFFFFFFFFFFFFFFFFFFFFFFFFFFFFFFFFFFF AND PUSH20 0xFFFFFFFFFFFFFFFFFFFFFFFFFFFFFFFFFFFFFFFF AND CALLER PUSH20 0xFFFFFFFFFFFFFFFFFFFFFFFFFFFFFFFFFFFFFFFF AND EQ PUSH2 0xCF9 JUMPI PUSH1 0x40 MLOAD PUSH32 0x8C379A000000000000000000000000000000000000000000000000000000000 DUP2 MSTORE PUSH1 0x4 ADD PUSH2 0xCF0 SWAP1 PUSH2 0x1698 JUMP JUMPDEST PUSH1 0x40 MLOAD DUP1 SWAP2 SUB SWAP1 REVERT JUMPDEST PUSH0 JUMPDEST DUP2 MLOAD DUP2 LT ISZERO PUSH2 0xEAE JUMPI PUSH0 DUP3 DUP3 DUP2 MLOAD DUP2 LT PUSH2 0xD18 JUMPI PUSH2 0xD17 PUSH2 0x171E JUMP JUMPDEST JUMPDEST PUSH1 0x20 MUL PUSH1 0x20 ADD ADD MLOAD SWAP1 POP PUSH0 PUSH1 0x2 PUSH0 DUP4 DUP2 MSTORE PUSH1 0x20 ADD SWAP1 DUP2 MSTORE PUSH1 0x20 ADD PUSH0 KECCAK256 PUSH1 0x2 ADD PUSH0 SWAP1 SLOAD SWAP1 PUSH2 0x100 EXP SWAP1 DIV PUSH2 0xFFFF AND PUSH2 0xFFFF AND SUB PUSH2 0xD89 JUMPI PUSH1 0x40 MLOAD PUSH32 0x8C379A000000000000000000000000000000000000000000000000000000000 DUP2 MSTORE PUSH1 0x4 ADD PUSH2 0xD80 SWAP1 PUSH2 0x1700 JUMP JUMPDEST PUSH1 0x40 MLOAD DUP1 SWAP2 SUB SWAP1 REVERT JUMPDEST PUSH1 0x2 PUSH0 DUP3 DUP2 MSTORE PUSH1 0x20 ADD SWAP1 DUP2 MSTORE PUSH1 0x20 ADD PUSH0 KECCAK256 PUSH0 DUP1 DUP3 ADD PUSH0 PUSH2 0xDA9 SWAP2 SWAP1 PUSH2 0xEE9 JUMP JUMPDEST PUSH1 0x1 DUP3 ADD PUSH0 PUSH2 0xDB8 SWAP2 SWAP1 PUSH2 0xEE9 JUMP JUMPDEST PUSH1 0x2 DUP3 ADD PUSH0 PUSH2 0x100 EXP DUP2 SLOAD SWAP1 PUSH2 0xFFFF MUL NOT AND SWAP1 SSTORE PUSH1 0x3 DUP3 ADD PUSH0 SWAP1 SSTORE PUSH1 0x4 DUP3 ADD PUSH0 PUSH2 0x100 EXP DUP2 SLOAD SWAP1 PUSH1 0xFF MUL NOT AND SWAP1 SSTORE POP POP PUSH0 JUMPDEST PUSH1 0x3 DUP1 SLOAD SWAP1 POP DUP2 LT ISZERO PUSH2 0xE9F JUMPI DUP2 PUSH1 0x3 DUP3 DUP2 SLOAD DUP2 LT PUSH2 0xE0C JUMPI PUSH2 0xE0B PUSH2 0x171E JUMP JUMPDEST JUMPDEST SWAP1 PUSH0 MSTORE PUSH1 0x20 PUSH0 KECCAK256 ADD SLOAD SUB PUSH2 0xE92 JUMPI PUSH1 0x3 PUSH1 0x1 PUSH1 0x3 DUP1 SLOAD SWAP1 POP PUSH2 0xE2E SWAP2 SWAP1 PUSH2 0x1778 JUMP JUMPDEST DUP2 SLOAD DUP2 LT PUSH2 0xE3F JUMPI PUSH2 0xE3E PUSH2 0x171E JUMP JUMPDEST JUMPDEST SWAP1 PUSH0 MSTORE PUSH1 0x20 PUSH0 KECCAK256 ADD SLOAD PUSH1 0x3 DUP3 DUP2 SLOAD DUP2 LT PUSH2 0xE5C JUMPI PUSH2 0xE5B PUSH2 0x171E JUMP JUMPDEST JUMPDEST SWAP1 PUSH0 MSTORE PUSH1 0x20 PUSH0 KECCAK256 ADD DUP2 SWAP1 SSTORE POP PUSH1 0x3 DUP1 SLOAD DUP1 PUSH2 0xE7A JUMPI PUSH2 0xE79 PUSH2 0x17AB JUMP JUMPDEST JUMPDEST PUSH1 0x1 SWAP1 SUB DUP2 DUP2 SWAP1 PUSH0 MSTORE PUSH1 0x20 PUSH0 KECCAK256 ADD PUSH0 SWAP1 SSTORE SWAP1 SSTORE PUSH2 0xE9F JUMP JUMPDEST DUP1 DUP1 PUSH1 0x1 ADD SWAP2 POP POP PUSH2 0xDEA JUMP JUMPDEST POP POP DUP1 DUP1 PUSH1 0x1 ADD SWAP2 POP POP PUSH2 0xCFB JUMP JUMPDEST POP PUSH32 0x7262BE1E48C30C363173FCB2FBF2DC2CB38D076DEE42CC37CDFBDF62AF5C3BED DUP2 PUSH1 0x40 MLOAD PUSH2 0xEDE SWAP2 SWAP1 PUSH2 0x1001 JUMP JUMPDEST PUSH1 0x40 MLOAD DUP1 SWAP2 SUB SWAP1 LOG1 POP JUMP JUMPDEST POP DUP1 SLOAD PUSH2 0xEF5 SWAP1 PUSH2 0x15F8 JUMP JUMPDEST PUSH0 DUP3 SSTORE DUP1 PUSH1 0x1F LT PUSH2 0xF06 JUMPI POP PUSH2 0xF23 JUMP JUMPDEST PUSH1 0x1F ADD PUSH1 0x20 SWAP1 DIV SWAP1 PUSH0 MSTORE PUSH1 0x20 PUSH0 KECCAK256 SWAP1 DUP2 ADD SWAP1 PUSH2 0xF22 SWAP2 SWAP1 PUSH2 0xF26 JUMP JUMPDEST JUMPDEST POP JUMP JUMPDEST JUMPDEST DUP1 DUP3 GT ISZERO PUSH2 0xF3D JUMPI PUSH0 DUP2 PUSH0 SWAP1 SSTORE POP PUSH1 0x1 ADD PUSH2 0xF27 JUMP JUMPDEST POP SWAP1 JUMP JUMPDEST PUSH0 DUP2 MLOAD SWAP1 POP SWAP2 SWAP1 POP JUMP JUMPDEST PUSH0 DUP3 DUP3 MSTORE PUSH1 0x20 DUP3 ADD SWAP1 POP SWAP3 SWAP2 POP POP JUMP JUMPDEST PUSH0 DUP2 SWAP1 POP PUSH1 0x20 DUP3 ADD SWAP1 POP SWAP2 SWAP1 POP JUMP JUMPDEST PUSH0 DUP2 SWAP1 POP SWAP2 SWAP1 POP JUMP JUMPDEST PUSH2 0xF7C DUP2 PUSH2 0xF6A JUMP JUMPDEST DUP3 MSTORE POP POP JUMP JUMPDEST PUSH0 PUSH2 0xF8D DUP4 DUP4 PUSH2 0xF73 JUMP JUMPDEST PUSH1 0x20 DUP4 ADD SWAP1 POP SWAP3 SWAP2 POP POP JUMP JUMPDEST PUSH0 PUSH1 0x20 DUP3 ADD SWAP1 POP SWAP2 SWAP1 POP JUMP JUMPDEST PUSH0 PUSH2 0xFAF DUP3 PUSH2 0xF41 JUMP JUMPDEST PUSH2 0xFB9 DUP2 DUP6 PUSH2 0xF4B JUMP JUMPDEST SWAP4 POP PUSH2 0xFC4 DUP4 PUSH2 0xF5B JUMP JUMPDEST DUP1 PUSH0 JUMPDEST DUP4 DUP2 LT ISZERO PUSH2 0xFF4 JUMPI DUP2 MLOAD PUSH2 0xFDB DUP9 DUP3 PUSH2 0xF82 JUMP JUMPDEST SWAP8 POP PUSH2 0xFE6 DUP4 PUSH2 0xF99 JUMP JUMPDEST SWAP3 POP POP PUSH1 0x1 DUP2 ADD SWAP1 POP PUSH2 0xFC7 JUMP JUMPDEST POP DUP6 SWAP4 POP POP POP POP SWAP3 SWAP2 POP POP JUMP JUMPDEST PUSH0 PUSH1 0x20 DUP3 ADD SWAP1 POP DUP2 DUP2 SUB PUSH0 DUP4 ADD MSTORE PUSH2 0x1019 DUP2 DUP5 PUSH2 0xFA5 JUMP JUMPDEST SWAP1 POP SWAP3 SWAP2 POP POP JUMP JUMPDEST PUSH0 PUSH1 0x40 MLOAD SWAP1 POP SWAP1 JUMP JUMPDEST PUSH0 DUP1 REVERT JUMPDEST PUSH0 DUP1 REVERT JUMPDEST PUSH2 0x103B DUP2 PUSH2 0xF6A JUMP JUMPDEST DUP2 EQ PUSH2 0x1045 JUMPI PUSH0 DUP1 REVERT JUMPDEST POP JUMP JUMPDEST PUSH0 DUP2 CALLDATALOAD SWAP1 POP PUSH2 0x1056 DUP2 PUSH2 0x1032 JUMP JUMPDEST SWAP3 SWAP2 POP POP JUMP JUMPDEST PUSH0 PUSH1 0x20 DUP3 DUP5 SUB SLT ISZERO PUSH2 0x1071 JUMPI PUSH2 0x1070 PUSH2 0x102A JUMP JUMPDEST JUMPDEST PUSH0 PUSH2 0x107E DUP5 DUP3 DUP6 ADD PUSH2 0x1048 JUMP JUMPDEST SWAP2 POP POP SWAP3 SWAP2 POP POP JUMP JUMPDEST PUSH2 0x1090 DUP2 PUSH2 0xF6A JUMP JUMPDEST DUP3 MSTORE POP POP JUMP JUMPDEST PUSH0 PUSH1 0x20 DUP3 ADD SWAP1 POP PUSH2 0x10A9 PUSH0 DUP4 ADD DUP5 PUSH2 0x1087 JUMP JUMPDEST SWAP3 SWAP2 POP POP JUMP JUMPDEST PUSH0 DUP2 MLOAD SWAP1 POP SWAP2 SWAP1 POP JUMP JUMPDEST PUSH0 DUP3 DUP3 MSTORE PUSH1 0x20 DUP3 ADD SWAP1 POP SWAP3 SWAP2 POP POP JUMP JUMPDEST DUP3 DUP2 DUP4 MCOPY PUSH0 DUP4 DUP4 ADD MSTORE POP POP POP JUMP JUMPDEST PUSH0 PUSH1 0x1F NOT PUSH1 0x1F DUP4 ADD AND SWAP1 POP SWAP2 SWAP1 POP JUMP JUMPDEST PUSH0 PUSH2 0x10F1 DUP3 PUSH2 0x10AF JUMP JUMPDEST PUSH2 0x10FB DUP2 DUP6 PUSH2 0x10B9 JUMP JUMPDEST SWAP4 POP PUSH2 0x110B DUP2 DUP6 PUSH1 0x20 DUP7 ADD PUSH2 0x10C9 JUMP JUMPDEST PUSH2 0x1114 DUP2 PUSH2 0x10D7 JUMP JUMPDEST DUP5 ADD SWAP2 POP POP SWAP3 SWAP2 POP POP JUMP JUMPDEST PUSH0 DUP2 ISZERO ISZERO SWAP1 POP SWAP2 SWAP1 POP JUMP JUMPDEST PUSH2 0x1133 DUP2 PUSH2 0x111F JUMP JUMPDEST DUP3 MSTORE POP POP JUMP JUMPDEST PUSH0 PUSH1 0xA0 DUP3 ADD SWAP1 POP DUP2 DUP2 SUB PUSH0 DUP4 ADD MSTORE PUSH2 0x1151 DUP2 DUP9 PUSH2 0x10E7 JUMP JUMPDEST SWAP1 POP DUP2 DUP2 SUB PUSH1 0x20 DUP4 ADD MSTORE PUSH2 0x1165 DUP2 DUP8 PUSH2 0x10E7 JUMP JUMPDEST SWAP1 POP PUSH2 0x1174 PUSH1 0x40 DUP4 ADD DUP7 PUSH2 0x1087 JUMP JUMPDEST PUSH2 0x1181 PUSH1 0x60 DUP4 ADD DUP6 PUSH2 0x1087 JUMP JUMPDEST PUSH2 0x118E PUSH1 0x80 DUP4 ADD DUP5 PUSH2 0x112A JUMP JUMPDEST SWAP7 SWAP6 POP POP POP POP POP POP JUMP JUMPDEST PUSH0 PUSH2 0xFFFF DUP3 AND SWAP1 POP SWAP2 SWAP1 POP JUMP JUMPDEST PUSH2 0x11AE DUP2 PUSH2 0x1198 JUMP JUMPDEST DUP3 MSTORE POP POP JUMP JUMPDEST PUSH0 PUSH1 0xA0 DUP3 ADD SWAP1 POP DUP2 DUP2 SUB PUSH0 DUP4 ADD MSTORE PUSH2 0x11CC DUP2 DUP9 PUSH2 0x10E7 JUMP JUMPDEST SWAP1 POP DUP2 DUP2 SUB PUSH1 0x20 DUP4 ADD MSTORE PUSH2 0x11E0 DUP2 DUP8 PUSH2 0x10E7 JUMP JUMPDEST SWAP1 POP PUSH2 0x11EF PUSH1 0x40 DUP4 ADD DUP7 PUSH2 0x11A5 JUMP JUMPDEST PUSH2 0x11FC PUSH1 0x60 DUP4 ADD DUP6 PUSH2 0x1087 JUMP JUMPDEST PUSH2 0x1209 PUSH1 0x80 DUP4 ADD DUP5 PUSH2 0x112A JUMP JUMPDEST SWAP7 SWAP6 POP POP POP POP POP POP JUMP JUMPDEST PUSH0 PUSH20 0xFFFFFFFFFFFFFFFFFFFFFFFFFFFFFFFFFFFFFFFF DUP3 AND SWAP1 POP SWAP2 SWAP1 POP JUMP JUMPDEST PUSH0 PUSH2 0x123C DUP3 PUSH2 0x1213 JUMP JUMPDEST SWAP1 POP SWAP2 SWAP1 POP JUMP JUMPDEST PUSH2 0x124C DUP2 PUSH2 0x1232 JUMP JUMPDEST DUP3 MSTORE POP POP JUMP JUMPDEST PUSH0 PUSH1 0x20 DUP3 ADD SWAP1 POP PUSH2 0x1265 PUSH0 DUP4 ADD DUP5 PUSH2 0x1243 JUMP JUMPDEST SWAP3 SWAP2 POP POP JUMP JUMPDEST PUSH0 DUP1 REVERT JUMPDEST PUSH0 DUP1 REVERT JUMPDEST PUSH32 0x4E487B7100000000000000000000000000000000000000000000000000000000 PUSH0 MSTORE PUSH1 0x41 PUSH1 0x4 MSTORE PUSH1 0x24 PUSH0 REVERT JUMPDEST PUSH2 0x12A9 DUP3 PUSH2 0x10D7 JUMP JUMPDEST DUP2 ADD DUP2 DUP2 LT PUSH8 0xFFFFFFFFFFFFFFFF DUP3 GT OR ISZERO PUSH2 0x12C8 JUMPI PUSH2 0x12C7 PUSH2 0x1273 JUMP JUMPDEST JUMPDEST DUP1 PUSH1 0x40 MSTORE POP POP POP JUMP JUMPDEST PUSH0 PUSH2 0x12DA PUSH2 0x1021 JUMP JUMPDEST SWAP1 POP PUSH2 0x12E6 DUP3 DUP3 PUSH2 0x12A0 JUMP JUMPDEST SWAP2 SWAP1 POP JUMP JUMPDEST PUSH0 PUSH8 0xFFFFFFFFFFFFFFFF DUP3 GT ISZERO PUSH2 0x1305 JUMPI PUSH2 0x1304 PUSH2 0x1273 JUMP JUMPDEST JUMPDEST PUSH2 0x130E DUP3 PUSH2 0x10D7 JUMP JUMPDEST SWAP1 POP PUSH1 0x20 DUP2 ADD SWAP1 POP SWAP2 SWAP1 POP JUMP JUMPDEST DUP3 DUP2 DUP4 CALLDATACOPY PUSH0 DUP4 DUP4 ADD MSTORE POP POP POP JUMP JUMPDEST PUSH0 PUSH2 0x133B PUSH2 0x1336 DUP5 PUSH2 0x12EB JUMP JUMPDEST PUSH2 0x12D1 JUMP JUMPDEST SWAP1 POP DUP3 DUP2 MSTORE PUSH1 0x20 DUP2 ADD DUP5 DUP5 DUP5 ADD GT ISZERO PUSH2 0x1357 JUMPI PUSH2 0x1356 PUSH2 0x126F JUMP JUMPDEST JUMPDEST PUSH2 0x1362 DUP5 DUP3 DUP6 PUSH2 0x131B JUMP JUMPDEST POP SWAP4 SWAP3 POP POP POP JUMP JUMPDEST PUSH0 DUP3 PUSH1 0x1F DUP4 ADD SLT PUSH2 0x137E JUMPI PUSH2 0x137D PUSH2 0x126B JUMP JUMPDEST JUMPDEST DUP2 CALLDATALOAD PUSH2 0x138E DUP5 DUP3 PUSH1 0x20 DUP7 ADD PUSH2 0x1329 JUMP JUMPDEST SWAP2 POP POP SWAP3 SWAP2 POP POP JUMP JUMPDEST PUSH2 0x13A0 DUP2 PUSH2 0x1198 JUMP JUMPDEST DUP2 EQ PUSH2 0x13AA JUMPI PUSH0 DUP1 REVERT JUMPDEST POP JUMP JUMPDEST PUSH0 DUP2 CALLDATALOAD SWAP1 POP PUSH2 0x13BB DUP2 PUSH2 0x1397 JUMP JUMPDEST SWAP3 SWAP2 POP POP JUMP JUMPDEST PUSH0 DUP1 PUSH0 DUP1 PUSH0 PUSH1 0xA0 DUP7 DUP9 SUB SLT ISZERO PUSH2 0x13DA JUMPI PUSH2 0x13D9 PUSH2 0x102A JUMP JUMPDEST JUMPDEST PUSH0 PUSH2 0x13E7 DUP9 DUP3 DUP10 ADD PUSH2 0x1048 JUMP JUMPDEST SWAP6 POP POP PUSH1 0x20 DUP7 ADD CALLDATALOAD PUSH8 0xFFFFFFFFFFFFFFFF DUP2 GT ISZERO PUSH2 0x1408 JUMPI PUSH2 0x1407 PUSH2 0x102E JUMP JUMPDEST JUMPDEST PUSH2 0x1414 DUP9 DUP3 DUP10 ADD PUSH2 0x136A JUMP JUMPDEST SWAP5 POP POP PUSH1 0x40 DUP7 ADD CALLDATALOAD PUSH8 0xFFFFFFFFFFFFFFFF DUP2 GT ISZERO PUSH2 0x1435 JUMPI PUSH2 0x1434 PUSH2 0x102E JUMP JUMPDEST JUMPDEST PUSH2 0x1441 DUP9 DUP3 DUP10 ADD PUSH2 0x136A JUMP JUMPDEST SWAP4 POP POP PUSH1 0x60 PUSH2 0x1452 DUP9 DUP3 DUP10 ADD PUSH2 0x1048 JUMP JUMPDEST SWAP3 POP POP PUSH1 0x80 PUSH2 0x1463 DUP9 DUP3 DUP10 ADD PUSH2 0x13AD JUMP JUMPDEST SWAP2 POP POP SWAP3 SWAP6 POP SWAP3 SWAP6 SWAP1 SWAP4 POP JUMP JUMPDEST PUSH0 DUP1 PUSH0 PUSH1 0x60 DUP5 DUP7 SUB SLT ISZERO PUSH2 0x1487 JUMPI PUSH2 0x1486 PUSH2 0x102A JUMP JUMPDEST JUMPDEST PUSH0 PUSH2 0x1494 DUP7 DUP3 DUP8 ADD PUSH2 0x1048 JUMP JUMPDEST SWAP4 POP POP PUSH1 0x20 PUSH2 0x14A5 DUP7 DUP3 DUP8 ADD PUSH2 0x1048 JUMP JUMPDEST SWAP3 POP POP PUSH1 0x40 PUSH2 0x14B6 DUP7 DUP3 DUP8 ADD PUSH2 0x1048 JUMP JUMPDEST SWAP2 POP POP SWAP3 POP SWAP3 POP SWAP3 JUMP JUMPDEST PUSH0 PUSH8 0xFFFFFFFFFFFFFFFF DUP3 GT ISZERO PUSH2 0x14DA JUMPI PUSH2 0x14D9 PUSH2 0x1273 JUMP JUMPDEST JUMPDEST PUSH1 0x20 DUP3 MUL SWAP1 POP PUSH1 0x20 DUP2 ADD SWAP1 POP SWAP2 SWAP1 POP JUMP JUMPDEST PUSH0 DUP1 REVERT JUMPDEST PUSH0 PUSH2 0x1501 PUSH2 0x14FC DUP5 PUSH2 0x14C0 JUMP JUMPDEST PUSH2 0x12D1 JUMP JUMPDEST SWAP1 POP DUP1 DUP4 DUP3 MSTORE PUSH1 0x20 DUP3 ADD SWAP1 POP PUSH1 0x20 DUP5 MUL DUP4 ADD DUP6 DUP2 GT ISZERO PUSH2 0x1524 JUMPI PUSH2 0x1523 PUSH2 0x14EB JUMP JUMPDEST JUMPDEST DUP4 JUMPDEST DUP2 DUP2 LT ISZERO PUSH2 0x154D JUMPI DUP1 PUSH2 0x1539 DUP9 DUP3 PUSH2 0x1048 JUMP JUMPDEST DUP5 MSTORE PUSH1 0x20 DUP5 ADD SWAP4 POP POP PUSH1 0x20 DUP2 ADD SWAP1 POP PUSH2 0x1526 JUMP JUMPDEST POP POP POP SWAP4 SWAP3 POP POP POP JUMP JUMPDEST PUSH0 DUP3 PUSH1 0x1F DUP4 ADD SLT PUSH2 0x156B JUMPI PUSH2 0x156A PUSH2 0x126B JUMP JUMPDEST JUMPDEST DUP2 CALLDATALOAD PUSH2 0x157B DUP5 DUP3 PUSH1 0x20 DUP7 ADD PUSH2 0x14EF JUMP JUMPDEST SWAP2 POP POP SWAP3 SWAP2 POP POP JUMP JUMPDEST PUSH0 PUSH1 0x20 DUP3 DUP5 SUB SLT ISZERO PUSH2 0x1599 JUMPI PUSH2 0x1598 PUSH2 0x102A JUMP JUMPDEST JUMPDEST PUSH0 DUP3 ADD CALLDATALOAD PUSH8 0xFFFFFFFFFFFFFFFF DUP2 GT ISZERO PUSH2 0x15B6 JUMPI PUSH2 0x15B5 PUSH2 0x102E JUMP JUMPDEST JUMPDEST PUSH2 0x15C2 DUP5 DUP3 DUP6 ADD PUSH2 0x1557 JUMP JUMPDEST SWAP2 POP POP SWAP3 SWAP2 POP POP JUMP JUMPDEST PUSH32 0x4E487B7100000000000000000000000000000000000000000000000000000000 PUSH0 MSTORE PUSH1 0x22 PUSH1 0x4 MSTORE PUSH1 0x24 PUSH0 REVERT JUMPDEST PUSH0 PUSH1 0x2 DUP3 DIV SWAP1 POP PUSH1 0x1 DUP3 AND DUP1 PUSH2 0x160F JUMPI PUSH1 0x7F DUP3 AND SWAP2 POP JUMPDEST PUSH1 0x20 DUP3 LT DUP2 SUB PUSH2 0x1622 JUMPI PUSH2 0x1621 PUSH2 0x15CB JUMP JUMPDEST JUMPDEST POP SWAP2 SWAP1 POP JUMP JUMPDEST PUSH32 0x4F6E6C79206F776E65722063616E20706572666F726D20746869732061637469 PUSH0 DUP3 ADD MSTORE PUSH32 0x6F6E000000000000000000000000000000000000000000000000000000000000 PUSH1 0x20 DUP3 ADD MSTORE POP JUMP JUMPDEST PUSH0 PUSH2 0x1682 PUSH1 0x22 DUP4 PUSH2 0x10B9 JUMP JUMPDEST SWAP2 POP PUSH2 0x168D DUP3 PUSH2 0x1628 JUMP JUMPDEST PUSH1 0x40 DUP3 ADD SWAP1 POP SWAP2 SWAP1 POP JUMP JUMPDEST PUSH0 PUSH1 0x20 DUP3 ADD SWAP1 POP DUP2 DUP2 SUB PUSH0 DUP4 ADD MSTORE PUSH2 0x16AF DUP2 PUSH2 0x1676 JUMP JUMPDEST SWAP1 POP SWAP2 SWAP1 POP JUMP JUMPDEST PUSH32 0x426F6F6B20646F6573206E6F7420657869737400000000000000000000000000 PUSH0 DUP3 ADD MSTORE POP JUMP JUMPDEST PUSH0 PUSH2 0x16EA PUSH1 0x13 DUP4 PUSH2 0x10B9 JUMP JUMPDEST SWAP2 POP PUSH2 0x16F5 DUP3 PUSH2 0x16B6 JUMP JUMPDEST PUSH1 0x20 DUP3 ADD SWAP1 POP SWAP2 SWAP1 POP JUMP JUMPDEST PUSH0 PUSH1 0x20 DUP3 ADD SWAP1 POP DUP2 DUP2 SUB PUSH0 DUP4 ADD MSTORE PUSH2 0x1717 DUP2 PUSH2 0x16DE JUMP JUMPDEST SWAP1 POP SWAP2 SWAP1 POP JUMP JUMPDEST PUSH32 0x4E487B7100000000000000000000000000000000000000000000000000000000 PUSH0 MSTORE PUSH1 0x32 PUSH1 0x4 MSTORE PUSH1 0x24 PUSH0 REVERT JUMPDEST PUSH32 0x4E487B7100000000000000000000000000000000000000000000000000000000 PUSH0 MSTORE PUSH1 0x11 PUSH1 0x4 MSTORE PUSH1 0x24 PUSH0 REVERT JUMPDEST PUSH0 PUSH2 0x1782 DUP3 PUSH2 0xF6A JUMP JUMPDEST SWAP2 POP PUSH2 0x178D DUP4 PUSH2 0xF6A JUMP JUMPDEST SWAP3 POP DUP3 DUP3 SUB SWAP1 POP DUP2 DUP2 GT ISZERO PUSH2 0x17A5 JUMPI PUSH2 0x17A4 PUSH2 0x174B JUMP JUMPDEST JUMPDEST SWAP3 SWAP2 POP POP JUMP JUMPDEST PUSH32 0x4E487B7100000000000000000000000000000000000000000000000000000000 PUSH0 MSTORE PUSH1 0x31 PUSH1 0x4 MSTORE PUSH1 0x24 PUSH0 REVERT JUMPDEST PUSH32 0x43414E4E4F542041444420424F4F4B20495420414C5245414459204558495354 PUSH0 DUP3 ADD MSTORE PUSH32 0x5300000000000000000000000000000000000000000000000000000000000000 PUSH1 0x20 DUP3 ADD MSTORE POP JUMP JUMPDEST PUSH0 PUSH2 0x1832 PUSH1 0x21 DUP4 PUSH2 0x10B9 JUMP JUMPDEST SWAP2 POP PUSH2 0x183D DUP3 PUSH2 0x17D8 JUMP JUMPDEST PUSH1 0x40 DUP3 ADD SWAP1 POP SWAP2 SWAP1 POP JUMP JUMPDEST PUSH0 PUSH1 0x20 DUP3 ADD SWAP1 POP DUP2 DUP2 SUB PUSH0 DUP4 ADD MSTORE PUSH2 0x185F DUP2 PUSH2 0x1826 JUMP JUMPDEST SWAP1 POP SWAP2 SWAP1 POP JUMP JUMPDEST PUSH0 DUP2 SWAP1 POP DUP2 PUSH0 MSTORE PUSH1 0x20 PUSH0 KECCAK256 SWAP1 POP SWAP2 SWAP1 POP JUMP JUMPDEST PUSH0 PUSH1 0x20 PUSH1 0x1F DUP4 ADD DIV SWAP1 POP SWAP2 SWAP1 POP JUMP JUMPDEST PUSH0 DUP3 DUP3 SHL SWAP1 POP SWAP3 SWAP2 POP POP JUMP JUMPDEST PUSH0 PUSH1 0x8 DUP4 MUL PUSH2 0x18C2 PUSH32 0xFFFFFFFFFFFFFFFFFFFFFFFFFFFFFFFFFFFFFFFFFFFFFFFFFFFFFFFFFFFFFFFF DUP3 PUSH2 0x1887 JUMP JUMPDEST PUSH2 0x18CC DUP7 DUP4 PUSH2 0x1887 JUMP JUMPDEST SWAP6 POP DUP1 NOT DUP5 AND SWAP4 POP DUP1 DUP7 AND DUP5 OR SWAP3 POP POP POP SWAP4 SWAP3 POP POP POP JUMP JUMPDEST PUSH0 DUP2 SWAP1 POP SWAP2 SWAP1 POP JUMP JUMPDEST PUSH0 PUSH2 0x1907 PUSH2 0x1902 PUSH2 0x18FD DUP5 PUSH2 0xF6A JUMP JUMPDEST PUSH2 0x18E4 JUMP JUMPDEST PUSH2 0xF6A JUMP JUMPDEST SWAP1 POP SWAP2 SWAP1 POP JUMP JUMPDEST PUSH0 DUP2 SWAP1 POP SWAP2 SWAP1 POP JUMP JUMPDEST PUSH2 0x1920 DUP4 PUSH2 0x18ED JUMP JUMPDEST PUSH2 0x1934 PUSH2 0x192C DUP3 PUSH2 0x190E JUMP JUMPDEST DUP5 DUP5 SLOAD PUSH2 0x1893 JUMP JUMPDEST DUP3 SSTORE POP POP POP POP JUMP JUMPDEST PUSH0 SWAP1 JUMP JUMPDEST PUSH2 0x1948 PUSH2 0x193C JUMP JUMPDEST PUSH2 0x1953 DUP2 DUP5 DUP5 PUSH2 0x1917 JUMP JUMPDEST POP POP POP JUMP JUMPDEST JUMPDEST DUP2 DUP2 LT ISZERO PUSH2 0x1976 JUMPI PUSH2 0x196B PUSH0 DUP3 PUSH2 0x1940 JUMP JUMPDEST PUSH1 0x1 DUP2 ADD SWAP1 POP PUSH2 0x1959 JUMP JUMPDEST POP POP JUMP JUMPDEST PUSH1 0x1F DUP3 GT ISZERO PUSH2 0x19BB JUMPI PUSH2 0x198C DUP2 PUSH2 0x1866 JUMP JUMPDEST PUSH2 0x1995 DUP5 PUSH2 0x1878 JUMP JUMPDEST DUP2 ADD PUSH1 0x20 DUP6 LT ISZERO PUSH2 0x19A4 JUMPI DUP2 SWAP1 POP JUMPDEST PUSH2 0x19B8 PUSH2 0x19B0 DUP6 PUSH2 0x1878 JUMP JUMPDEST DUP4 ADD DUP3 PUSH2 0x1958 JUMP JUMPDEST POP POP JUMPDEST POP POP POP JUMP JUMPDEST PUSH0 DUP3 DUP3 SHR SWAP1 POP SWAP3 SWAP2 POP POP JUMP JUMPDEST PUSH0 PUSH2 0x19DB PUSH0 NOT DUP5 PUSH1 0x8 MUL PUSH2 0x19C0 JUMP JUMPDEST NOT DUP1 DUP4 AND SWAP2 POP POP SWAP3 SWAP2 POP POP JUMP JUMPDEST PUSH0 PUSH2 0x19F3 DUP4 DUP4 PUSH2 0x19CC JUMP JUMPDEST SWAP2 POP DUP3 PUSH1 0x2 MUL DUP3 OR SWAP1 POP SWAP3 SWAP2 POP POP JUMP JUMPDEST PUSH2 0x1A0C DUP3 PUSH2 0x10AF JUMP JUMPDEST PUSH8 0xFFFFFFFFFFFFFFFF DUP2 GT ISZERO PUSH2 0x1A25 JUMPI PUSH2 0x1A24 PUSH2 0x1273 JUMP JUMPDEST JUMPDEST PUSH2 0x1A2F DUP3 SLOAD PUSH2 0x15F8 JUMP JUMPDEST PUSH2 0x1A3A DUP3 DUP3 DUP6 PUSH2 0x197A JUMP JUMPDEST PUSH0 PUSH1 0x20 SWAP1 POP PUSH1 0x1F DUP4 GT PUSH1 0x1 DUP2 EQ PUSH2 0x1A6B JUMPI PUSH0 DUP5 ISZERO PUSH2 0x1A59 JUMPI DUP3 DUP8 ADD MLOAD SWAP1 POP JUMPDEST PUSH2 0x1A63 DUP6 DUP3 PUSH2 0x19E8 JUMP JUMPDEST DUP7 SSTORE POP PUSH2 0x1ACA JUMP JUMPDEST PUSH1 0x1F NOT DUP5 AND PUSH2 0x1A79 DUP7 PUSH2 0x1866 JUMP JUMPDEST PUSH0 JUMPDEST DUP3 DUP2 LT ISZERO PUSH2 0x1AA0 JUMPI DUP5 DUP10 ADD MLOAD DUP3 SSTORE PUSH1 0x1 DUP3 ADD SWAP2 POP PUSH1 0x20 DUP6 ADD SWAP5 POP PUSH1 0x20 DUP2 ADD SWAP1 POP PUSH2 0x1A7B JUMP JUMPDEST DUP7 DUP4 LT ISZERO PUSH2 0x1ABD JUMPI DUP5 DUP10 ADD MLOAD PUSH2 0x1AB9 PUSH1 0x1F DUP10 AND DUP3 PUSH2 0x19CC JUMP JUMPDEST DUP4 SSTORE POP JUMPDEST PUSH1 0x1 PUSH1 0x2 DUP9 MUL ADD DUP9 SSTORE POP POP POP JUMPDEST POP POP POP POP POP POP JUMP JUMPDEST PUSH0 PUSH2 0x1AEC PUSH2 0x1AE7 PUSH2 0x1AE2 DUP5 PUSH2 0x1198 JUMP JUMPDEST PUSH2 0x18E4 JUMP JUMPDEST PUSH2 0xF6A JUMP JUMPDEST SWAP1 POP SWAP2 SWAP1 POP JUMP JUMPDEST PUSH2 0x1AFC DUP2 PUSH2 0x1AD2 JUMP JUMPDEST DUP3 MSTORE POP POP JUMP JUMPDEST PUSH0 PUSH1 0x80 DUP3 ADD SWAP1 POP DUP2 DUP2 SUB PUSH0 DUP4 ADD MSTORE PUSH2 0x1B1A DUP2 DUP8 PUSH2 0x10E7 JUMP JUMPDEST SWAP1 POP DUP2 DUP2 SUB PUSH1 0x20 DUP4 ADD MSTORE PUSH2 0x1B2E DUP2 DUP7 PUSH2 0x10E7 JUMP JUMPDEST SWAP1 POP PUSH2 0x1B3D PUSH1 0x40 DUP4 ADD DUP6 PUSH2 0x1087 JUMP JUMPDEST PUSH2 0x1B4A PUSH1 0x60 DUP4 ADD DUP5 PUSH2 0x1AF3 JUMP JUMPDEST SWAP6 SWAP5 POP POP POP POP POP JUMP JUMPDEST PUSH32 0x5468697320626F6F6B206973206E6F7420617661696C61626C65000000000000 PUSH0 DUP3 ADD MSTORE POP JUMP JUMPDEST PUSH0 PUSH2 0x1B87 PUSH1 0x1A DUP4 PUSH2 0x10B9 JUMP JUMPDEST SWAP2 POP PUSH2 0x1B92 DUP3 PUSH2 0x1B53 JUMP JUMPDEST PUSH1 0x20 DUP3 ADD SWAP1 POP SWAP2 SWAP1 POP JUMP JUMPDEST PUSH0 PUSH1 0x20 DUP3 ADD SWAP1 POP DUP2 DUP2 SUB PUSH0 DUP4 ADD MSTORE PUSH2 0x1BB4 DUP2 PUSH2 0x1B7B JUMP JUMPDEST SWAP1 POP SWAP2 SWAP1 POP JUMP JUMPDEST PUSH32 0x4E6F7420656E6F7567682073746F636B20617661696C61626C65000000000000 PUSH0 DUP3 ADD MSTORE POP JUMP JUMPDEST PUSH0 PUSH2 0x1BEF PUSH1 0x1A DUP4 PUSH2 0x10B9 JUMP JUMPDEST SWAP2 POP PUSH2 0x1BFA DUP3 PUSH2 0x1BBB JUMP JUMPDEST PUSH1 0x20 DUP3 ADD SWAP1 POP SWAP2 SWAP1 POP JUMP JUMPDEST PUSH0 PUSH1 0x20 DUP3 ADD SWAP1 POP DUP2 DUP2 SUB PUSH0 DUP4 ADD MSTORE PUSH2 0x1C1C DUP2 PUSH2 0x1BE3 JUMP JUMPDEST SWAP1 POP SWAP2 SWAP1 POP JUMP JUMPDEST PUSH0 PUSH2 0x1C2D DUP3 PUSH2 0xF6A JUMP JUMPDEST SWAP2 POP PUSH2 0x1C38 DUP4 PUSH2 0xF6A JUMP JUMPDEST SWAP3 POP DUP3 DUP3 MUL PUSH2 0x1C46 DUP2 PUSH2 0xF6A JUMP JUMPDEST SWAP2 POP DUP3 DUP3 DIV DUP5 EQ DUP4 ISZERO OR PUSH2 0x1C5D JUMPI PUSH2 0x1C5C PUSH2 0x174B JUMP JUMPDEST JUMPDEST POP SWAP3 SWAP2 POP POP JUMP JUMPDEST PUSH32 0x496E636F7272656374207061796D656E7420616D6F756E740000000000000000 PUSH0 DUP3 ADD MSTORE POP JUMP JUMPDEST PUSH0 PUSH2 0x1C98 PUSH1 0x18 DUP4 PUSH2 0x10B9 JUMP JUMPDEST SWAP2 POP PUSH2 0x1CA3 DUP3 PUSH2 0x1C64 JUMP JUMPDEST PUSH1 0x20 DUP3 ADD SWAP1 POP SWAP2 SWAP1 POP JUMP JUMPDEST PUSH0 PUSH1 0x20 DUP3 ADD SWAP1 POP DUP2 DUP2 SUB PUSH0 DUP4 ADD MSTORE PUSH2 0x1CC5 DUP2 PUSH2 0x1C8C JUMP JUMPDEST SWAP1 POP SWAP2 SWAP1 POP JUMP JUMPDEST PUSH0 PUSH2 0x1CD6 DUP3 PUSH2 0xF6A JUMP JUMPDEST SWAP2 POP PUSH2 0x1CE1 DUP4 PUSH2 0xF6A JUMP JUMPDEST SWAP3 POP DUP3 DUP3 ADD SWAP1 POP DUP1 DUP3 GT ISZERO PUSH2 0x1CF9 JUMPI PUSH2 0x1CF8 PUSH2 0x174B JUMP JUMPDEST JUMPDEST SWAP3 SWAP2 POP POP JUMP JUMPDEST PUSH0 PUSH1 0x40 DUP3 ADD SWAP1 POP PUSH2 0x1D12 PUSH0 DUP4 ADD DUP6 PUSH2 0x1087 JUMP JUMPDEST PUSH2 0x1D1F PUSH1 0x20 DUP4 ADD DUP5 PUSH2 0x1087 JUMP JUMPDEST SWAP4 SWAP3 POP POP POP JUMP INVALID LOG2 PUSH5 0x6970667358 0x22 SLT KECCAK256 0x4F 0xD1 SELFBALANCE SWAP1 SWAP2 SAR 0xDA LOG1 0xFB DUP11 0xC9 0xEA CALLVALUE 0xD 0xAB CALLVALUE 0xDD SHL 0xDF SWAP9 TIMESTAMP 0xE5 PUSH14 0x383641D3C4E3155BD864736F6C63 NUMBER STOP ADDMOD BYTE STOP CALLER "
				},
				"gasEstimates": {
					"creation": {
						"codeDepositCost": "1503200",
						"executionCost": "25831",
						"totalCost": "1529031"
					},
					"external": {
						"addBook(uint256,string,string,uint256,uint16)": "infinite",
						"bookIds(uint256)": "infinite",
						"books(uint256)": "infinite",
						"buyBook(uint256,uint256,uint256)": "infinite",
						"getAllBooks()": "infinite",
						"getBooks(uint256)": "infinite",
						"getOwnerBalance()": "5118",
						"getTotalBooksSold()": "2454",
						"owner()": "2505",
						"removeBook(uint256)": "infinite",
						"removeBooks(uint256[])": "infinite"
					}
				},
				"methodIdentifiers": {
					"addBook(uint256,string,string,uint256,uint16)": "d0289085",
					"bookIds(uint256)": "513073b8",
					"books(uint256)": "68744046",
					"buyBook(uint256,uint256,uint256)": "f346e2b7",
					"getAllBooks()": "354528e8",
					"getBooks(uint256)": "5ac3e19e",
					"getOwnerBalance()": "590791f2",
					"getTotalBooksSold()": "9bd30883",
					"owner()": "8da5cb5b",
					"removeBook(uint256)": "bec0d799",
					"removeBooks(uint256[])": "f98520de"
				}
			},
			"storageLayout": {
				"storage": [
					{
						"astId": 3,
						"contract": "contracts/Bookstore.sol:BookStore",
						"label": "owner",
						"offset": 0,
						"slot": "0",
						"type": "t_address"
					},
					{
						"astId": 5,
						"contract": "contracts/Bookstore.sol:BookStore",
						"label": "totalBooksSold",
						"offset": 0,
						"slot": "1",
						"type": "t_uint256"
					},
					{
						"astId": 30,
						"contract": "contracts/Bookstore.sol:BookStore",
						"label": "books",
						"offset": 0,
						"slot": "2",
						"type": "t_mapping(t_uint256,t_struct(Book)25_storage)"
					},
					{
						"astId": 33,
						"contract": "contracts/Bookstore.sol:BookStore",
						"label": "bookIds",
						"offset": 0,
						"slot": "3",
						"type": "t_array(t_uint256)dyn_storage"
					}
				],
				"types": {
					"t_address": {
						"encoding": "inplace",
						"label": "address",
						"numberOfBytes": "20"
					},
					"t_array(t_uint256)dyn_storage": {
						"base": "t_uint256",
						"encoding": "dynamic_array",
						"label": "uint256[]",
						"numberOfBytes": "32"
					},
					"t_bool": {
						"encoding": "inplace",
						"label": "bool",
						"numberOfBytes": "1"
					},
					"t_mapping(t_uint256,t_struct(Book)25_storage)": {
						"encoding": "mapping",
						"key": "t_uint256",
						"label": "mapping(uint256 => struct BookStore.Book)",
						"numberOfBytes": "32",
						"value": "t_struct(Book)25_storage"
					},
					"t_string_storage": {
						"encoding": "bytes",
						"label": "string",
						"numberOfBytes": "32"
					},
					"t_struct(Book)25_storage": {
						"encoding": "inplace",
						"label": "struct BookStore.Book",
						"members": [
							{
								"astId": 16,
								"contract": "contracts/Bookstore.sol:BookStore",
								"label": "title",
								"offset": 0,
								"slot": "0",
								"type": "t_string_storage"
							},
							{
								"astId": 18,
								"contract": "contracts/Bookstore.sol:BookStore",
								"label": "author",
								"offset": 0,
								"slot": "1",
								"type": "t_string_storage"
							},
							{
								"astId": 20,
								"contract": "contracts/Bookstore.sol:BookStore",
								"label": "price",
								"offset": 0,
								"slot": "2",
								"type": "t_uint16"
							},
							{
								"astId": 22,
								"contract": "contracts/Bookstore.sol:BookStore",
								"label": "stock",
								"offset": 0,
								"slot": "3",
								"type": "t_uint256"
							},
							{
								"astId": 24,
								"contract": "contracts/Bookstore.sol:BookStore",
								"label": "isAvailable",
								"offset": 0,
								"slot": "4",
								"type": "t_bool"
							}
						],
						"numberOfBytes": "160"
					},
					"t_uint16": {
						"encoding": "inplace",
						"label": "uint16",
						"numberOfBytes": "2"
					},
					"t_uint256": {
						"encoding": "inplace",
						"label": "uint256",
						"numberOfBytes": "32"
					}
				}
			},
			"userdoc": {
				"kind": "user",
				"methods": {},
				"version": 1
			}
		}
	}
}