{
	"contracts/libraries/library.sol": {
		"StringUtils": {
			"abi": [
				{
					"inputs": [
						{
							"internalType": "string",
							"name": "a",
							"type": "string"
						},
						{
							"internalType": "string",
							"name": "b",
							"type": "string"
						}
					],
					"name": "compare",
					"outputs": [
						{
							"internalType": "bool",
							"name": "",
							"type": "bool"
						}
					],
					"stateMutability": "pure",
					"type": "function"
				},
				{
					"inputs": [
						{
							"internalType": "string",
							"name": "a",
							"type": "string"
						},
						{
							"internalType": "string",
							"name": "b",
							"type": "string"
						}
					],
					"name": "concat",
					"outputs": [
						{
							"internalType": "string",
							"name": "",
							"type": "string"
						}
					],
					"stateMutability": "pure",
					"type": "function"
				}
			],
			"devdoc": {
				"kind": "dev",
				"methods": {},
				"version": 1
			},
			"evm": {
				"assembly": "    /* \"contracts/libraries/library.sol\":60:413  library StringUtils {... */\n  dataSize(sub_0)\n  dataOffset(sub_0)\n  0x0b\n  dup3\n  dup3\n  dup3\n  codecopy\n  dup1\n  mload\n  0x00\n  byte\n  0x73\n  eq\n  tag_1\n  jumpi\n  mstore(0x00, 0x4e487b7100000000000000000000000000000000000000000000000000000000)\n  mstore(0x04, 0x00)\n  revert(0x00, 0x24)\ntag_1:\n  mstore(0x00, address)\n  0x73\n  dup2\n  mstore8\n  dup3\n  dup2\n  return\nstop\n\nsub_0: assembly {\n        /* \"contracts/libraries/library.sol\":60:413  library StringUtils {... */\n      eq(address, deployTimeAddress())\n      mstore(0x40, 0x80)\n      jumpi(tag_1, lt(calldatasize, 0x04))\n      shr(0xe0, calldataload(0x00))\n      dup1\n      0x3a96fdd7\n      eq\n      tag_2\n      jumpi\n      dup1\n      0x89c19ddb\n      eq\n      tag_3\n      jumpi\n    tag_1:\n      0x00\n      dup1\n      revert\n        /* \"contracts/libraries/library.sol\":237:410  function compare(string memory a, string memory b) public pure returns (bool){... */\n    tag_2:\n      tag_4\n      0x04\n      dup1\n      calldatasize\n      sub\n      dup2\n      add\n      swap1\n      tag_5\n      swap2\n      swap1\n      tag_6\n      jump\t// in\n    tag_5:\n      tag_7\n      jump\t// in\n    tag_4:\n      mload(0x40)\n      tag_8\n      swap2\n      swap1\n      tag_9\n      jump\t// in\n    tag_8:\n      mload(0x40)\n      dup1\n      swap2\n      sub\n      swap1\n      return\n        /* \"contracts/libraries/library.sol\":87:229  function concat(string memory a, string memory b) public pure returns (string memory) {... */\n    tag_3:\n      tag_10\n      0x04\n      dup1\n      calldatasize\n      sub\n      dup2\n      add\n      swap1\n      tag_11\n      swap2\n      swap1\n      tag_6\n      jump\t// in\n    tag_11:\n      tag_12\n      jump\t// in\n    tag_10:\n      mload(0x40)\n      tag_13\n      swap2\n      swap1\n      tag_14\n      jump\t// in\n    tag_13:\n      mload(0x40)\n      dup1\n      swap2\n      sub\n      swap1\n      return\n        /* \"contracts/libraries/library.sol\":237:410  function compare(string memory a, string memory b) public pure returns (bool){... */\n    tag_7:\n        /* \"contracts/libraries/library.sol\":309:313  bool */\n      0x00\n        /* \"contracts/libraries/library.sol\":396:397  b */\n      dup2\n        /* \"contracts/libraries/library.sol\":399:400  a */\n      dup4\n        /* \"contracts/libraries/library.sol\":379:401  abi.encodePacked(b, a) */\n      add(0x20, mload(0x40))\n      tag_16\n      swap3\n      swap2\n      swap1\n      tag_17\n      jump\t// in\n    tag_16:\n      mload(0x40)\n      0x20\n      dup2\n      dup4\n      sub\n      sub\n      dup2\n      mstore\n      swap1\n      0x40\n      mstore\n        /* \"contracts/libraries/library.sol\":369:402  keccak256(abi.encodePacked(b, a)) */\n      dup1\n      mload\n      swap1\n      0x20\n      add\n      keccak256\n        /* \"contracts/libraries/library.sol\":359:360  a */\n      dup4\n        /* \"contracts/libraries/library.sol\":362:363  b */\n      dup4\n        /* \"contracts/libraries/library.sol\":342:364  abi.encodePacked(a, b) */\n      add(0x20, mload(0x40))\n      tag_18\n      swap3\n      swap2\n      swap1\n      tag_17\n      jump\t// in\n    tag_18:\n      mload(0x40)\n      0x20\n      dup2\n      dup4\n      sub\n      sub\n      dup2\n      mstore\n      swap1\n      0x40\n      mstore\n        /* \"contracts/libraries/library.sol\":332:365  keccak256(abi.encodePacked(a, b)) */\n      dup1\n      mload\n      swap1\n      0x20\n      add\n      keccak256\n        /* \"contracts/libraries/library.sol\":332:402  keccak256(abi.encodePacked(a, b)) == keccak256(abi.encodePacked(b, a)) */\n      eq\n        /* \"contracts/libraries/library.sol\":325:402  return keccak256(abi.encodePacked(a, b)) == keccak256(abi.encodePacked(b, a)) */\n      swap1\n      pop\n        /* \"contracts/libraries/library.sol\":237:410  function compare(string memory a, string memory b) public pure returns (bool){... */\n      swap3\n      swap2\n      pop\n      pop\n      jump\t// out\n        /* \"contracts/libraries/library.sol\":87:229  function concat(string memory a, string memory b) public pure returns (string memory) {... */\n    tag_12:\n        /* \"contracts/libraries/library.sol\":158:171  string memory */\n      0x60\n        /* \"contracts/libraries/library.sol\":215:216  a */\n      dup3\n        /* \"contracts/libraries/library.sol\":218:219  b */\n      dup3\n        /* \"contracts/libraries/library.sol\":198:220  abi.encodePacked(a, b) */\n      add(0x20, mload(0x40))\n      tag_20\n      swap3\n      swap2\n      swap1\n      tag_17\n      jump\t// in\n    tag_20:\n      mload(0x40)\n      0x20\n      dup2\n      dup4\n      sub\n      sub\n      dup2\n      mstore\n      swap1\n      0x40\n      mstore\n        /* \"contracts/libraries/library.sol\":184:221  return string(abi.encodePacked(a, b)) */\n      swap1\n      pop\n        /* \"contracts/libraries/library.sol\":87:229  function concat(string memory a, string memory b) public pure returns (string memory) {... */\n      swap3\n      swap2\n      pop\n      pop\n      jump\t// out\n        /* \"#utility.yul\":7:82   */\n    tag_21:\n        /* \"#utility.yul\":40:46   */\n      0x00\n        /* \"#utility.yul\":73:75   */\n      0x40\n        /* \"#utility.yul\":67:76   */\n      mload\n        /* \"#utility.yul\":57:76   */\n      swap1\n      pop\n        /* \"#utility.yul\":7:82   */\n      swap1\n      jump\t// out\n        /* \"#utility.yul\":88:205   */\n    tag_22:\n        /* \"#utility.yul\":197:198   */\n      0x00\n        /* \"#utility.yul\":194:195   */\n      dup1\n        /* \"#utility.yul\":187:199   */\n      revert\n        /* \"#utility.yul\":211:328   */\n    tag_23:\n        /* \"#utility.yul\":320:321   */\n      0x00\n        /* \"#utility.yul\":317:318   */\n      dup1\n        /* \"#utility.yul\":310:322   */\n      revert\n        /* \"#utility.yul\":334:451   */\n    tag_24:\n        /* \"#utility.yul\":443:444   */\n      0x00\n        /* \"#utility.yul\":440:441   */\n      dup1\n        /* \"#utility.yul\":433:445   */\n      revert\n        /* \"#utility.yul\":457:574   */\n    tag_25:\n        /* \"#utility.yul\":566:567   */\n      0x00\n        /* \"#utility.yul\":563:564   */\n      dup1\n        /* \"#utility.yul\":556:568   */\n      revert\n        /* \"#utility.yul\":580:682   */\n    tag_26:\n        /* \"#utility.yul\":621:627   */\n      0x00\n        /* \"#utility.yul\":672:674   */\n      0x1f\n        /* \"#utility.yul\":668:675   */\n      not\n        /* \"#utility.yul\":663:665   */\n      0x1f\n        /* \"#utility.yul\":656:661   */\n      dup4\n        /* \"#utility.yul\":652:666   */\n      add\n        /* \"#utility.yul\":648:676   */\n      and\n        /* \"#utility.yul\":638:676   */\n      swap1\n      pop\n        /* \"#utility.yul\":580:682   */\n      swap2\n      swap1\n      pop\n      jump\t// out\n        /* \"#utility.yul\":688:868   */\n    tag_27:\n        /* \"#utility.yul\":736:813   */\n      0x4e487b7100000000000000000000000000000000000000000000000000000000\n        /* \"#utility.yul\":733:734   */\n      0x00\n        /* \"#utility.yul\":726:814   */\n      mstore\n        /* \"#utility.yul\":833:837   */\n      0x41\n        /* \"#utility.yul\":830:831   */\n      0x04\n        /* \"#utility.yul\":823:838   */\n      mstore\n        /* \"#utility.yul\":857:861   */\n      0x24\n        /* \"#utility.yul\":854:855   */\n      0x00\n        /* \"#utility.yul\":847:862   */\n      revert\n        /* \"#utility.yul\":874:1155   */\n    tag_28:\n        /* \"#utility.yul\":957:984   */\n      tag_51\n        /* \"#utility.yul\":979:983   */\n      dup3\n        /* \"#utility.yul\":957:984   */\n      tag_26\n      jump\t// in\n    tag_51:\n        /* \"#utility.yul\":949:955   */\n      dup2\n        /* \"#utility.yul\":945:985   */\n      add\n        /* \"#utility.yul\":1087:1093   */\n      dup2\n        /* \"#utility.yul\":1075:1085   */\n      dup2\n        /* \"#utility.yul\":1072:1094   */\n      lt\n        /* \"#utility.yul\":1051:1069   */\n      0xffffffffffffffff\n        /* \"#utility.yul\":1039:1049   */\n      dup3\n        /* \"#utility.yul\":1036:1070   */\n      gt\n        /* \"#utility.yul\":1033:1095   */\n      or\n        /* \"#utility.yul\":1030:1118   */\n      iszero\n      tag_52\n      jumpi\n        /* \"#utility.yul\":1098:1116   */\n      tag_53\n      tag_27\n      jump\t// in\n    tag_53:\n        /* \"#utility.yul\":1030:1118   */\n    tag_52:\n        /* \"#utility.yul\":1138:1148   */\n      dup1\n        /* \"#utility.yul\":1134:1136   */\n      0x40\n        /* \"#utility.yul\":1127:1149   */\n      mstore\n        /* \"#utility.yul\":917:1155   */\n      pop\n        /* \"#utility.yul\":874:1155   */\n      pop\n      pop\n      jump\t// out\n        /* \"#utility.yul\":1161:1290   */\n    tag_29:\n        /* \"#utility.yul\":1195:1201   */\n      0x00\n        /* \"#utility.yul\":1222:1242   */\n      tag_55\n      tag_21\n      jump\t// in\n    tag_55:\n        /* \"#utility.yul\":1212:1242   */\n      swap1\n      pop\n        /* \"#utility.yul\":1251:1284   */\n      tag_56\n        /* \"#utility.yul\":1279:1283   */\n      dup3\n        /* \"#utility.yul\":1271:1277   */\n      dup3\n        /* \"#utility.yul\":1251:1284   */\n      tag_28\n      jump\t// in\n    tag_56:\n        /* \"#utility.yul\":1161:1290   */\n      swap2\n      swap1\n      pop\n      jump\t// out\n        /* \"#utility.yul\":1296:1604   */\n    tag_30:\n        /* \"#utility.yul\":1358:1362   */\n      0x00\n        /* \"#utility.yul\":1448:1466   */\n      0xffffffffffffffff\n        /* \"#utility.yul\":1440:1446   */\n      dup3\n        /* \"#utility.yul\":1437:1467   */\n      gt\n        /* \"#utility.yul\":1434:1490   */\n      iszero\n      tag_58\n      jumpi\n        /* \"#utility.yul\":1470:1488   */\n      tag_59\n      tag_27\n      jump\t// in\n    tag_59:\n        /* \"#utility.yul\":1434:1490   */\n    tag_58:\n        /* \"#utility.yul\":1508:1537   */\n      tag_60\n        /* \"#utility.yul\":1530:1536   */\n      dup3\n        /* \"#utility.yul\":1508:1537   */\n      tag_26\n      jump\t// in\n    tag_60:\n        /* \"#utility.yul\":1500:1537   */\n      swap1\n      pop\n        /* \"#utility.yul\":1592:1596   */\n      0x20\n        /* \"#utility.yul\":1586:1590   */\n      dup2\n        /* \"#utility.yul\":1582:1597   */\n      add\n        /* \"#utility.yul\":1574:1597   */\n      swap1\n      pop\n        /* \"#utility.yul\":1296:1604   */\n      swap2\n      swap1\n      pop\n      jump\t// out\n        /* \"#utility.yul\":1610:1758   */\n    tag_31:\n        /* \"#utility.yul\":1708:1714   */\n      dup3\n        /* \"#utility.yul\":1703:1706   */\n      dup2\n        /* \"#utility.yul\":1698:1701   */\n      dup4\n        /* \"#utility.yul\":1685:1715   */\n      calldatacopy\n        /* \"#utility.yul\":1749:1750   */\n      0x00\n        /* \"#utility.yul\":1740:1746   */\n      dup4\n        /* \"#utility.yul\":1735:1738   */\n      dup4\n        /* \"#utility.yul\":1731:1747   */\n      add\n        /* \"#utility.yul\":1724:1751   */\n      mstore\n        /* \"#utility.yul\":1610:1758   */\n      pop\n      pop\n      pop\n      jump\t// out\n        /* \"#utility.yul\":1764:2189   */\n    tag_32:\n        /* \"#utility.yul\":1842:1847   */\n      0x00\n        /* \"#utility.yul\":1867:1933   */\n      tag_63\n        /* \"#utility.yul\":1883:1932   */\n      tag_64\n        /* \"#utility.yul\":1925:1931   */\n      dup5\n        /* \"#utility.yul\":1883:1932   */\n      tag_30\n      jump\t// in\n    tag_64:\n        /* \"#utility.yul\":1867:1933   */\n      tag_29\n      jump\t// in\n    tag_63:\n        /* \"#utility.yul\":1858:1933   */\n      swap1\n      pop\n        /* \"#utility.yul\":1956:1962   */\n      dup3\n        /* \"#utility.yul\":1949:1954   */\n      dup2\n        /* \"#utility.yul\":1942:1963   */\n      mstore\n        /* \"#utility.yul\":1994:1998   */\n      0x20\n        /* \"#utility.yul\":1987:1992   */\n      dup2\n        /* \"#utility.yul\":1983:1999   */\n      add\n        /* \"#utility.yul\":2032:2035   */\n      dup5\n        /* \"#utility.yul\":2023:2029   */\n      dup5\n        /* \"#utility.yul\":2018:2021   */\n      dup5\n        /* \"#utility.yul\":2014:2030   */\n      add\n        /* \"#utility.yul\":2011:2036   */\n      gt\n        /* \"#utility.yul\":2008:2120   */\n      iszero\n      tag_65\n      jumpi\n        /* \"#utility.yul\":2039:2118   */\n      tag_66\n      tag_25\n      jump\t// in\n    tag_66:\n        /* \"#utility.yul\":2008:2120   */\n    tag_65:\n        /* \"#utility.yul\":2129:2183   */\n      tag_67\n        /* \"#utility.yul\":2176:2182   */\n      dup5\n        /* \"#utility.yul\":2171:2174   */\n      dup3\n        /* \"#utility.yul\":2166:2169   */\n      dup6\n        /* \"#utility.yul\":2129:2183   */\n      tag_31\n      jump\t// in\n    tag_67:\n        /* \"#utility.yul\":1848:2189   */\n      pop\n        /* \"#utility.yul\":1764:2189   */\n      swap4\n      swap3\n      pop\n      pop\n      pop\n      jump\t// out\n        /* \"#utility.yul\":2209:2549   */\n    tag_33:\n        /* \"#utility.yul\":2265:2270   */\n      0x00\n        /* \"#utility.yul\":2314:2317   */\n      dup3\n        /* \"#utility.yul\":2307:2311   */\n      0x1f\n        /* \"#utility.yul\":2299:2305   */\n      dup4\n        /* \"#utility.yul\":2295:2312   */\n      add\n        /* \"#utility.yul\":2291:2318   */\n      slt\n        /* \"#utility.yul\":2281:2403   */\n      tag_69\n      jumpi\n        /* \"#utility.yul\":2322:2401   */\n      tag_70\n      tag_24\n      jump\t// in\n    tag_70:\n        /* \"#utility.yul\":2281:2403   */\n    tag_69:\n        /* \"#utility.yul\":2439:2445   */\n      dup2\n        /* \"#utility.yul\":2426:2446   */\n      calldataload\n        /* \"#utility.yul\":2464:2543   */\n      tag_71\n        /* \"#utility.yul\":2539:2542   */\n      dup5\n        /* \"#utility.yul\":2531:2537   */\n      dup3\n        /* \"#utility.yul\":2524:2528   */\n      0x20\n        /* \"#utility.yul\":2516:2522   */\n      dup7\n        /* \"#utility.yul\":2512:2529   */\n      add\n        /* \"#utility.yul\":2464:2543   */\n      tag_32\n      jump\t// in\n    tag_71:\n        /* \"#utility.yul\":2455:2543   */\n      swap2\n      pop\n        /* \"#utility.yul\":2271:2549   */\n      pop\n        /* \"#utility.yul\":2209:2549   */\n      swap3\n      swap2\n      pop\n      pop\n      jump\t// out\n        /* \"#utility.yul\":2555:3389   */\n    tag_6:\n        /* \"#utility.yul\":2643:2649   */\n      0x00\n        /* \"#utility.yul\":2651:2657   */\n      dup1\n        /* \"#utility.yul\":2700:2702   */\n      0x40\n        /* \"#utility.yul\":2688:2697   */\n      dup4\n        /* \"#utility.yul\":2679:2686   */\n      dup6\n        /* \"#utility.yul\":2675:2698   */\n      sub\n        /* \"#utility.yul\":2671:2703   */\n      slt\n        /* \"#utility.yul\":2668:2787   */\n      iszero\n      tag_73\n      jumpi\n        /* \"#utility.yul\":2706:2785   */\n      tag_74\n      tag_22\n      jump\t// in\n    tag_74:\n        /* \"#utility.yul\":2668:2787   */\n    tag_73:\n        /* \"#utility.yul\":2854:2855   */\n      0x00\n        /* \"#utility.yul\":2843:2852   */\n      dup4\n        /* \"#utility.yul\":2839:2856   */\n      add\n        /* \"#utility.yul\":2826:2857   */\n      calldataload\n        /* \"#utility.yul\":2884:2902   */\n      0xffffffffffffffff\n        /* \"#utility.yul\":2876:2882   */\n      dup2\n        /* \"#utility.yul\":2873:2903   */\n      gt\n        /* \"#utility.yul\":2870:2987   */\n      iszero\n      tag_75\n      jumpi\n        /* \"#utility.yul\":2906:2985   */\n      tag_76\n      tag_23\n      jump\t// in\n    tag_76:\n        /* \"#utility.yul\":2870:2987   */\n    tag_75:\n        /* \"#utility.yul\":3011:3074   */\n      tag_77\n        /* \"#utility.yul\":3066:3073   */\n      dup6\n        /* \"#utility.yul\":3057:3063   */\n      dup3\n        /* \"#utility.yul\":3046:3055   */\n      dup7\n        /* \"#utility.yul\":3042:3064   */\n      add\n        /* \"#utility.yul\":3011:3074   */\n      tag_33\n      jump\t// in\n    tag_77:\n        /* \"#utility.yul\":3001:3074   */\n      swap3\n      pop\n        /* \"#utility.yul\":2797:3084   */\n      pop\n        /* \"#utility.yul\":3151:3153   */\n      0x20\n        /* \"#utility.yul\":3140:3149   */\n      dup4\n        /* \"#utility.yul\":3136:3154   */\n      add\n        /* \"#utility.yul\":3123:3155   */\n      calldataload\n        /* \"#utility.yul\":3182:3200   */\n      0xffffffffffffffff\n        /* \"#utility.yul\":3174:3180   */\n      dup2\n        /* \"#utility.yul\":3171:3201   */\n      gt\n        /* \"#utility.yul\":3168:3285   */\n      iszero\n      tag_78\n      jumpi\n        /* \"#utility.yul\":3204:3283   */\n      tag_79\n      tag_23\n      jump\t// in\n    tag_79:\n        /* \"#utility.yul\":3168:3285   */\n    tag_78:\n        /* \"#utility.yul\":3309:3372   */\n      tag_80\n        /* \"#utility.yul\":3364:3371   */\n      dup6\n        /* \"#utility.yul\":3355:3361   */\n      dup3\n        /* \"#utility.yul\":3344:3353   */\n      dup7\n        /* \"#utility.yul\":3340:3362   */\n      add\n        /* \"#utility.yul\":3309:3372   */\n      tag_33\n      jump\t// in\n    tag_80:\n        /* \"#utility.yul\":3299:3372   */\n      swap2\n      pop\n        /* \"#utility.yul\":3094:3382   */\n      pop\n        /* \"#utility.yul\":2555:3389   */\n      swap3\n      pop\n      swap3\n      swap1\n      pop\n      jump\t// out\n        /* \"#utility.yul\":3395:3485   */\n    tag_34:\n        /* \"#utility.yul\":3429:3436   */\n      0x00\n        /* \"#utility.yul\":3472:3477   */\n      dup2\n        /* \"#utility.yul\":3465:3478   */\n      iszero\n        /* \"#utility.yul\":3458:3479   */\n      iszero\n        /* \"#utility.yul\":3447:3479   */\n      swap1\n      pop\n        /* \"#utility.yul\":3395:3485   */\n      swap2\n      swap1\n      pop\n      jump\t// out\n        /* \"#utility.yul\":3491:3608   */\n    tag_35:\n        /* \"#utility.yul\":3580:3601   */\n      tag_83\n        /* \"#utility.yul\":3595:3600   */\n      dup2\n        /* \"#utility.yul\":3580:3601   */\n      tag_34\n      jump\t// in\n    tag_83:\n        /* \"#utility.yul\":3575:3578   */\n      dup3\n        /* \"#utility.yul\":3568:3602   */\n      mstore\n        /* \"#utility.yul\":3491:3608   */\n      pop\n      pop\n      jump\t// out\n        /* \"#utility.yul\":3614:3840   */\n    tag_9:\n        /* \"#utility.yul\":3709:3713   */\n      0x00\n        /* \"#utility.yul\":3747:3749   */\n      0x20\n        /* \"#utility.yul\":3736:3745   */\n      dup3\n        /* \"#utility.yul\":3732:3750   */\n      add\n        /* \"#utility.yul\":3724:3750   */\n      swap1\n      pop\n        /* \"#utility.yul\":3760:3833   */\n      tag_85\n        /* \"#utility.yul\":3830:3831   */\n      0x00\n        /* \"#utility.yul\":3819:3828   */\n      dup4\n        /* \"#utility.yul\":3815:3832   */\n      add\n        /* \"#utility.yul\":3806:3812   */\n      dup5\n        /* \"#utility.yul\":3760:3833   */\n      tag_35\n      jump\t// in\n    tag_85:\n        /* \"#utility.yul\":3614:3840   */\n      swap3\n      swap2\n      pop\n      pop\n      jump\t// out\n        /* \"#utility.yul\":3846:3945   */\n    tag_36:\n        /* \"#utility.yul\":3898:3904   */\n      0x00\n        /* \"#utility.yul\":3932:3937   */\n      dup2\n        /* \"#utility.yul\":3926:3938   */\n      mload\n        /* \"#utility.yul\":3916:3938   */\n      swap1\n      pop\n        /* \"#utility.yul\":3846:3945   */\n      swap2\n      swap1\n      pop\n      jump\t// out\n        /* \"#utility.yul\":3951:4128   */\n    tag_37:\n        /* \"#utility.yul\":4043:4054   */\n      0x00\n        /* \"#utility.yul\":4077:4083   */\n      dup3\n        /* \"#utility.yul\":4072:4075   */\n      dup3\n        /* \"#utility.yul\":4065:4084   */\n      mstore\n        /* \"#utility.yul\":4117:4121   */\n      0x20\n        /* \"#utility.yul\":4112:4115   */\n      dup3\n        /* \"#utility.yul\":4108:4122   */\n      add\n        /* \"#utility.yul\":4093:4122   */\n      swap1\n      pop\n        /* \"#utility.yul\":3951:4128   */\n      swap3\n      swap2\n      pop\n      pop\n      jump\t// out\n        /* \"#utility.yul\":4134:4273   */\n    tag_38:\n        /* \"#utility.yul\":4223:4229   */\n      dup3\n        /* \"#utility.yul\":4218:4221   */\n      dup2\n        /* \"#utility.yul\":4213:4216   */\n      dup4\n        /* \"#utility.yul\":4207:4230   */\n      mcopy\n        /* \"#utility.yul\":4264:4265   */\n      0x00\n        /* \"#utility.yul\":4255:4261   */\n      dup4\n        /* \"#utility.yul\":4250:4253   */\n      dup4\n        /* \"#utility.yul\":4246:4262   */\n      add\n        /* \"#utility.yul\":4239:4266   */\n      mstore\n        /* \"#utility.yul\":4134:4273   */\n      pop\n      pop\n      pop\n      jump\t// out\n        /* \"#utility.yul\":4279:4672   */\n    tag_39:\n        /* \"#utility.yul\":4375:4378   */\n      0x00\n        /* \"#utility.yul\":4403:4442   */\n      tag_90\n        /* \"#utility.yul\":4436:4441   */\n      dup3\n        /* \"#utility.yul\":4403:4442   */\n      tag_36\n      jump\t// in\n    tag_90:\n        /* \"#utility.yul\":4458:4537   */\n      tag_91\n        /* \"#utility.yul\":4530:4536   */\n      dup2\n        /* \"#utility.yul\":4525:4528   */\n      dup6\n        /* \"#utility.yul\":4458:4537   */\n      tag_37\n      jump\t// in\n    tag_91:\n        /* \"#utility.yul\":4451:4537   */\n      swap4\n      pop\n        /* \"#utility.yul\":4546:4611   */\n      tag_92\n        /* \"#utility.yul\":4604:4610   */\n      dup2\n        /* \"#utility.yul\":4599:4602   */\n      dup6\n        /* \"#utility.yul\":4592:4596   */\n      0x20\n        /* \"#utility.yul\":4585:4590   */\n      dup7\n        /* \"#utility.yul\":4581:4597   */\n      add\n        /* \"#utility.yul\":4546:4611   */\n      tag_38\n      jump\t// in\n    tag_92:\n        /* \"#utility.yul\":4636:4665   */\n      tag_93\n        /* \"#utility.yul\":4658:4664   */\n      dup2\n        /* \"#utility.yul\":4636:4665   */\n      tag_26\n      jump\t// in\n    tag_93:\n        /* \"#utility.yul\":4631:4634   */\n      dup5\n        /* \"#utility.yul\":4627:4666   */\n      add\n        /* \"#utility.yul\":4620:4666   */\n      swap2\n      pop\n        /* \"#utility.yul\":4379:4672   */\n      pop\n        /* \"#utility.yul\":4279:4672   */\n      swap3\n      swap2\n      pop\n      pop\n      jump\t// out\n        /* \"#utility.yul\":4678:5007   */\n    tag_14:\n        /* \"#utility.yul\":4799:4803   */\n      0x00\n        /* \"#utility.yul\":4837:4839   */\n      0x20\n        /* \"#utility.yul\":4826:4835   */\n      dup3\n        /* \"#utility.yul\":4822:4840   */\n      add\n        /* \"#utility.yul\":4814:4840   */\n      swap1\n      pop\n        /* \"#utility.yul\":4886:4895   */\n      dup2\n        /* \"#utility.yul\":4880:4884   */\n      dup2\n        /* \"#utility.yul\":4876:4896   */\n      sub\n        /* \"#utility.yul\":4872:4873   */\n      0x00\n        /* \"#utility.yul\":4861:4870   */\n      dup4\n        /* \"#utility.yul\":4857:4874   */\n      add\n        /* \"#utility.yul\":4850:4897   */\n      mstore\n        /* \"#utility.yul\":4914:5000   */\n      tag_95\n        /* \"#utility.yul\":4995:4999   */\n      dup2\n        /* \"#utility.yul\":4986:4992   */\n      dup5\n        /* \"#utility.yul\":4914:5000   */\n      tag_39\n      jump\t// in\n    tag_95:\n        /* \"#utility.yul\":4906:5000   */\n      swap1\n      pop\n        /* \"#utility.yul\":4678:5007   */\n      swap3\n      swap2\n      pop\n      pop\n      jump\t// out\n        /* \"#utility.yul\":5013:5161   */\n    tag_40:\n        /* \"#utility.yul\":5115:5126   */\n      0x00\n        /* \"#utility.yul\":5152:5155   */\n      dup2\n        /* \"#utility.yul\":5137:5155   */\n      swap1\n      pop\n        /* \"#utility.yul\":5013:5161   */\n      swap3\n      swap2\n      pop\n      pop\n      jump\t// out\n        /* \"#utility.yul\":5167:5557   */\n    tag_41:\n        /* \"#utility.yul\":5273:5276   */\n      0x00\n        /* \"#utility.yul\":5301:5340   */\n      tag_98\n        /* \"#utility.yul\":5334:5339   */\n      dup3\n        /* \"#utility.yul\":5301:5340   */\n      tag_36\n      jump\t// in\n    tag_98:\n        /* \"#utility.yul\":5356:5445   */\n      tag_99\n        /* \"#utility.yul\":5438:5444   */\n      dup2\n        /* \"#utility.yul\":5433:5436   */\n      dup6\n        /* \"#utility.yul\":5356:5445   */\n      tag_40\n      jump\t// in\n    tag_99:\n        /* \"#utility.yul\":5349:5445   */\n      swap4\n      pop\n        /* \"#utility.yul\":5454:5519   */\n      tag_100\n        /* \"#utility.yul\":5512:5518   */\n      dup2\n        /* \"#utility.yul\":5507:5510   */\n      dup6\n        /* \"#utility.yul\":5500:5504   */\n      0x20\n        /* \"#utility.yul\":5493:5498   */\n      dup7\n        /* \"#utility.yul\":5489:5505   */\n      add\n        /* \"#utility.yul\":5454:5519   */\n      tag_38\n      jump\t// in\n    tag_100:\n        /* \"#utility.yul\":5544:5550   */\n      dup1\n        /* \"#utility.yul\":5539:5542   */\n      dup5\n        /* \"#utility.yul\":5535:5551   */\n      add\n        /* \"#utility.yul\":5528:5551   */\n      swap2\n      pop\n        /* \"#utility.yul\":5277:5557   */\n      pop\n        /* \"#utility.yul\":5167:5557   */\n      swap3\n      swap2\n      pop\n      pop\n      jump\t// out\n        /* \"#utility.yul\":5563:5998   */\n    tag_17:\n        /* \"#utility.yul\":5743:5746   */\n      0x00\n        /* \"#utility.yul\":5765:5860   */\n      tag_102\n        /* \"#utility.yul\":5856:5859   */\n      dup3\n        /* \"#utility.yul\":5847:5853   */\n      dup6\n        /* \"#utility.yul\":5765:5860   */\n      tag_41\n      jump\t// in\n    tag_102:\n        /* \"#utility.yul\":5758:5860   */\n      swap2\n      pop\n        /* \"#utility.yul\":5877:5972   */\n      tag_103\n        /* \"#utility.yul\":5968:5971   */\n      dup3\n        /* \"#utility.yul\":5959:5965   */\n      dup5\n        /* \"#utility.yul\":5877:5972   */\n      tag_41\n      jump\t// in\n    tag_103:\n        /* \"#utility.yul\":5870:5972   */\n      swap2\n      pop\n        /* \"#utility.yul\":5989:5992   */\n      dup2\n        /* \"#utility.yul\":5982:5992   */\n      swap1\n      pop\n        /* \"#utility.yul\":5563:5998   */\n      swap4\n      swap3\n      pop\n      pop\n      pop\n      jump\t// out\n\n    auxdata: 0xa2646970667358221220b1e82d8e2d53f561adf177b105794dae1d79fd4a9e3407ab6ca98d41226e832d64736f6c634300081a0033\n}\n",
				"bytecode": {
					"linkReferences": {},
					"object": "61043461004d600b8282823980515f1a6073146041577f4e487b71000000000000000000000000000000000000000000000000000000005f525f60045260245ffd5b305f52607381538281f3fe730000000000000000000000000000000000000000301460806040526004361061003f575f3560e01c80633a96fdd71461004357806389c19ddb14610073575b5f80fd5b61005d60048036038101906100589190610278565b6100a3565b60405161006a9190610308565b60405180910390f35b61008d60048036038101906100889190610278565b6100ff565b60405161009a9190610381565b60405180910390f35b5f81836040516020016100b79291906103db565b6040516020818303038152906040528051906020012083836040516020016100e09291906103db565b6040516020818303038152906040528051906020012014905092915050565b606082826040516020016101149291906103db565b604051602081830303815290604052905092915050565b5f604051905090565b5f80fd5b5f80fd5b5f80fd5b5f80fd5b5f601f19601f8301169050919050565b7f4e487b71000000000000000000000000000000000000000000000000000000005f52604160045260245ffd5b61018a82610144565b810181811067ffffffffffffffff821117156101a9576101a8610154565b5b80604052505050565b5f6101bb61012b565b90506101c78282610181565b919050565b5f67ffffffffffffffff8211156101e6576101e5610154565b5b6101ef82610144565b9050602081019050919050565b828183375f83830152505050565b5f61021c610217846101cc565b6101b2565b90508281526020810184848401111561023857610237610140565b5b6102438482856101fc565b509392505050565b5f82601f83011261025f5761025e61013c565b5b813561026f84826020860161020a565b91505092915050565b5f806040838503121561028e5761028d610134565b5b5f83013567ffffffffffffffff8111156102ab576102aa610138565b5b6102b78582860161024b565b925050602083013567ffffffffffffffff8111156102d8576102d7610138565b5b6102e48582860161024b565b9150509250929050565b5f8115159050919050565b610302816102ee565b82525050565b5f60208201905061031b5f8301846102f9565b92915050565b5f81519050919050565b5f82825260208201905092915050565b8281835e5f83830152505050565b5f61035382610321565b61035d818561032b565b935061036d81856020860161033b565b61037681610144565b840191505092915050565b5f6020820190508181035f8301526103998184610349565b905092915050565b5f81905092915050565b5f6103b582610321565b6103bf81856103a1565b93506103cf81856020860161033b565b80840191505092915050565b5f6103e682856103ab565b91506103f282846103ab565b9150819050939250505056fea2646970667358221220b1e82d8e2d53f561adf177b105794dae1d79fd4a9e3407ab6ca98d41226e832d64736f6c634300081a0033",
					"opcodes": "PUSH2 0x434 PUSH2 0x4D PUSH1 0xB DUP3 DUP3 DUP3 CODECOPY DUP1 MLOAD PUSH0 BYTE PUSH1 0x73 EQ PUSH1 0x41 JUMPI PUSH32 0x4E487B7100000000000000000000000000000000000000000000000000000000 PUSH0 MSTORE PUSH0 PUSH1 0x4 MSTORE PUSH1 0x24 PUSH0 REVERT JUMPDEST ADDRESS PUSH0 MSTORE PUSH1 0x73 DUP2 MSTORE8 DUP3 DUP2 RETURN INVALID PUSH20 0x0 ADDRESS EQ PUSH1 0x80 PUSH1 0x40 MSTORE PUSH1 0x4 CALLDATASIZE LT PUSH2 0x3F JUMPI PUSH0 CALLDATALOAD PUSH1 0xE0 SHR DUP1 PUSH4 0x3A96FDD7 EQ PUSH2 0x43 JUMPI DUP1 PUSH4 0x89C19DDB EQ PUSH2 0x73 JUMPI JUMPDEST PUSH0 DUP1 REVERT JUMPDEST PUSH2 0x5D PUSH1 0x4 DUP1 CALLDATASIZE SUB DUP2 ADD SWAP1 PUSH2 0x58 SWAP2 SWAP1 PUSH2 0x278 JUMP JUMPDEST PUSH2 0xA3 JUMP JUMPDEST PUSH1 0x40 MLOAD PUSH2 0x6A SWAP2 SWAP1 PUSH2 0x308 JUMP JUMPDEST PUSH1 0x40 MLOAD DUP1 SWAP2 SUB SWAP1 RETURN JUMPDEST PUSH2 0x8D PUSH1 0x4 DUP1 CALLDATASIZE SUB DUP2 ADD SWAP1 PUSH2 0x88 SWAP2 SWAP1 PUSH2 0x278 JUMP JUMPDEST PUSH2 0xFF JUMP JUMPDEST PUSH1 0x40 MLOAD PUSH2 0x9A SWAP2 SWAP1 PUSH2 0x381 JUMP JUMPDEST PUSH1 0x40 MLOAD DUP1 SWAP2 SUB SWAP1 RETURN JUMPDEST PUSH0 DUP2 DUP4 PUSH1 0x40 MLOAD PUSH1 0x20 ADD PUSH2 0xB7 SWAP3 SWAP2 SWAP1 PUSH2 0x3DB JUMP JUMPDEST PUSH1 0x40 MLOAD PUSH1 0x20 DUP2 DUP4 SUB SUB DUP2 MSTORE SWAP1 PUSH1 0x40 MSTORE DUP1 MLOAD SWAP1 PUSH1 0x20 ADD KECCAK256 DUP4 DUP4 PUSH1 0x40 MLOAD PUSH1 0x20 ADD PUSH2 0xE0 SWAP3 SWAP2 SWAP1 PUSH2 0x3DB JUMP JUMPDEST PUSH1 0x40 MLOAD PUSH1 0x20 DUP2 DUP4 SUB SUB DUP2 MSTORE SWAP1 PUSH1 0x40 MSTORE DUP1 MLOAD SWAP1 PUSH1 0x20 ADD KECCAK256 EQ SWAP1 POP SWAP3 SWAP2 POP POP JUMP JUMPDEST PUSH1 0x60 DUP3 DUP3 PUSH1 0x40 MLOAD PUSH1 0x20 ADD PUSH2 0x114 SWAP3 SWAP2 SWAP1 PUSH2 0x3DB JUMP JUMPDEST PUSH1 0x40 MLOAD PUSH1 0x20 DUP2 DUP4 SUB SUB DUP2 MSTORE SWAP1 PUSH1 0x40 MSTORE SWAP1 POP SWAP3 SWAP2 POP POP JUMP JUMPDEST PUSH0 PUSH1 0x40 MLOAD SWAP1 POP SWAP1 JUMP JUMPDEST PUSH0 DUP1 REVERT JUMPDEST PUSH0 DUP1 REVERT JUMPDEST PUSH0 DUP1 REVERT JUMPDEST PUSH0 DUP1 REVERT JUMPDEST PUSH0 PUSH1 0x1F NOT PUSH1 0x1F DUP4 ADD AND SWAP1 POP SWAP2 SWAP1 POP JUMP JUMPDEST PUSH32 0x4E487B7100000000000000000000000000000000000000000000000000000000 PUSH0 MSTORE PUSH1 0x41 PUSH1 0x4 MSTORE PUSH1 0x24 PUSH0 REVERT JUMPDEST PUSH2 0x18A DUP3 PUSH2 0x144 JUMP JUMPDEST DUP2 ADD DUP2 DUP2 LT PUSH8 0xFFFFFFFFFFFFFFFF DUP3 GT OR ISZERO PUSH2 0x1A9 JUMPI PUSH2 0x1A8 PUSH2 0x154 JUMP JUMPDEST JUMPDEST DUP1 PUSH1 0x40 MSTORE POP POP POP JUMP JUMPDEST PUSH0 PUSH2 0x1BB PUSH2 0x12B JUMP JUMPDEST SWAP1 POP PUSH2 0x1C7 DUP3 DUP3 PUSH2 0x181 JUMP JUMPDEST SWAP2 SWAP1 POP JUMP JUMPDEST PUSH0 PUSH8 0xFFFFFFFFFFFFFFFF DUP3 GT ISZERO PUSH2 0x1E6 JUMPI PUSH2 0x1E5 PUSH2 0x154 JUMP JUMPDEST JUMPDEST PUSH2 0x1EF DUP3 PUSH2 0x144 JUMP JUMPDEST SWAP1 POP PUSH1 0x20 DUP2 ADD SWAP1 POP SWAP2 SWAP1 POP JUMP JUMPDEST DUP3 DUP2 DUP4 CALLDATACOPY PUSH0 DUP4 DUP4 ADD MSTORE POP POP POP JUMP JUMPDEST PUSH0 PUSH2 0x21C PUSH2 0x217 DUP5 PUSH2 0x1CC JUMP JUMPDEST PUSH2 0x1B2 JUMP JUMPDEST SWAP1 POP DUP3 DUP2 MSTORE PUSH1 0x20 DUP2 ADD DUP5 DUP5 DUP5 ADD GT ISZERO PUSH2 0x238 JUMPI PUSH2 0x237 PUSH2 0x140 JUMP JUMPDEST JUMPDEST PUSH2 0x243 DUP5 DUP3 DUP6 PUSH2 0x1FC JUMP JUMPDEST POP SWAP4 SWAP3 POP POP POP JUMP JUMPDEST PUSH0 DUP3 PUSH1 0x1F DUP4 ADD SLT PUSH2 0x25F JUMPI PUSH2 0x25E PUSH2 0x13C JUMP JUMPDEST JUMPDEST DUP2 CALLDATALOAD PUSH2 0x26F DUP5 DUP3 PUSH1 0x20 DUP7 ADD PUSH2 0x20A JUMP JUMPDEST SWAP2 POP POP SWAP3 SWAP2 POP POP JUMP JUMPDEST PUSH0 DUP1 PUSH1 0x40 DUP4 DUP6 SUB SLT ISZERO PUSH2 0x28E JUMPI PUSH2 0x28D PUSH2 0x134 JUMP JUMPDEST JUMPDEST PUSH0 DUP4 ADD CALLDATALOAD PUSH8 0xFFFFFFFFFFFFFFFF DUP2 GT ISZERO PUSH2 0x2AB JUMPI PUSH2 0x2AA PUSH2 0x138 JUMP JUMPDEST JUMPDEST PUSH2 0x2B7 DUP6 DUP3 DUP7 ADD PUSH2 0x24B JUMP JUMPDEST SWAP3 POP POP PUSH1 0x20 DUP4 ADD CALLDATALOAD PUSH8 0xFFFFFFFFFFFFFFFF DUP2 GT ISZERO PUSH2 0x2D8 JUMPI PUSH2 0x2D7 PUSH2 0x138 JUMP JUMPDEST JUMPDEST PUSH2 0x2E4 DUP6 DUP3 DUP7 ADD PUSH2 0x24B JUMP JUMPDEST SWAP2 POP POP SWAP3 POP SWAP3 SWAP1 POP JUMP JUMPDEST PUSH0 DUP2 ISZERO ISZERO SWAP1 POP SWAP2 SWAP1 POP JUMP JUMPDEST PUSH2 0x302 DUP2 PUSH2 0x2EE JUMP JUMPDEST DUP3 MSTORE POP POP JUMP JUMPDEST PUSH0 PUSH1 0x20 DUP3 ADD SWAP1 POP PUSH2 0x31B PUSH0 DUP4 ADD DUP5 PUSH2 0x2F9 JUMP JUMPDEST SWAP3 SWAP2 POP POP JUMP JUMPDEST PUSH0 DUP2 MLOAD SWAP1 POP SWAP2 SWAP1 POP JUMP JUMPDEST PUSH0 DUP3 DUP3 MSTORE PUSH1 0x20 DUP3 ADD SWAP1 POP SWAP3 SWAP2 POP POP JUMP JUMPDEST DUP3 DUP2 DUP4 MCOPY PUSH0 DUP4 DUP4 ADD MSTORE POP POP POP JUMP JUMPDEST PUSH0 PUSH2 0x353 DUP3 PUSH2 0x321 JUMP JUMPDEST PUSH2 0x35D DUP2 DUP6 PUSH2 0x32B JUMP JUMPDEST SWAP4 POP PUSH2 0x36D DUP2 DUP6 PUSH1 0x20 DUP7 ADD PUSH2 0x33B JUMP JUMPDEST PUSH2 0x376 DUP2 PUSH2 0x144 JUMP JUMPDEST DUP5 ADD SWAP2 POP POP SWAP3 SWAP2 POP POP JUMP JUMPDEST PUSH0 PUSH1 0x20 DUP3 ADD SWAP1 POP DUP2 DUP2 SUB PUSH0 DUP4 ADD MSTORE PUSH2 0x399 DUP2 DUP5 PUSH2 0x349 JUMP JUMPDEST SWAP1 POP SWAP3 SWAP2 POP POP JUMP JUMPDEST PUSH0 DUP2 SWAP1 POP SWAP3 SWAP2 POP POP JUMP JUMPDEST PUSH0 PUSH2 0x3B5 DUP3 PUSH2 0x321 JUMP JUMPDEST PUSH2 0x3BF DUP2 DUP6 PUSH2 0x3A1 JUMP JUMPDEST SWAP4 POP PUSH2 0x3CF DUP2 DUP6 PUSH1 0x20 DUP7 ADD PUSH2 0x33B JUMP JUMPDEST DUP1 DUP5 ADD SWAP2 POP POP SWAP3 SWAP2 POP POP JUMP JUMPDEST PUSH0 PUSH2 0x3E6 DUP3 DUP6 PUSH2 0x3AB JUMP JUMPDEST SWAP2 POP PUSH2 0x3F2 DUP3 DUP5 PUSH2 0x3AB JUMP JUMPDEST SWAP2 POP DUP2 SWAP1 POP SWAP4 SWAP3 POP POP POP JUMP INVALID LOG2 PUSH5 0x6970667358 0x22 SLT KECCAK256 0xB1 0xE8 0x2D DUP15 0x2D MSTORE8 CREATE2 PUSH2 0xADF1 PUSH24 0xB105794DAE1D79FD4A9E3407AB6CA98D41226E832D64736F PUSH13 0x634300081A0033000000000000 "
				},
				"gasEstimates": {
					"creation": {
						"codeDepositCost": "215200",
						"executionCost": "280",
						"totalCost": "215480"
					},
					"external": {
						"compare(string,string)": "infinite",
						"concat(string,string)": "infinite"
					}
				},
				"methodIdentifiers": {
					"compare(string,string)": "3a96fdd7",
					"concat(string,string)": "89c19ddb"
				}
			},
			"storageLayout": {
				"storage": [],
				"types": null
			},
			"userdoc": {
				"kind": "user",
				"methods": {},
				"version": 1
			}
		}
	}
}