{
	"contracts/IREC/IRECMarketplace.sol": {
		"IRECMarketplace": {
			"abi": [
				{
					"inputs": [
						{
							"internalType": "contract IERC20",
							"name": "_fractionToken",
							"type": "address"
						},
						{
							"internalType": "contract IERC721",
							"name": "_nftContract",
							"type": "address"
						}
					],
					"stateMutability": "nonpayable",
					"type": "constructor"
				},
				{
					"inputs": [
						{
							"internalType": "address",
							"name": "owner",
							"type": "address"
						}
					],
					"name": "OwnableInvalidOwner",
					"type": "error"
				},
				{
					"inputs": [
						{
							"internalType": "address",
							"name": "account",
							"type": "address"
						}
					],
					"name": "OwnableUnauthorizedAccount",
					"type": "error"
				},
				{
					"inputs": [],
					"name": "ReentrancyGuardReentrantCall",
					"type": "error"
				},
				{
					"anonymous": false,
					"inputs": [
						{
							"indexed": true,
							"internalType": "address",
							"name": "previousOwner",
							"type": "address"
						},
						{
							"indexed": true,
							"internalType": "address",
							"name": "newOwner",
							"type": "address"
						}
					],
					"name": "OwnershipTransferred",
					"type": "event"
				},
				{
					"anonymous": false,
					"inputs": [
						{
							"indexed": true,
							"internalType": "address",
							"name": "sellerAddress",
							"type": "address"
						},
						{
							"indexed": false,
							"internalType": "uint256",
							"name": "amount",
							"type": "uint256"
						},
						{
							"indexed": false,
							"internalType": "uint256",
							"name": "pricePerToken",
							"type": "uint256"
						}
					],
					"name": "TokenListed",
					"type": "event"
				},
				{
					"anonymous": false,
					"inputs": [
						{
							"indexed": true,
							"internalType": "address",
							"name": "from",
							"type": "address"
						},
						{
							"indexed": true,
							"internalType": "address",
							"name": "to",
							"type": "address"
						},
						{
							"indexed": false,
							"internalType": "uint256",
							"name": "amount",
							"type": "uint256"
						},
						{
							"indexed": false,
							"internalType": "uint256",
							"name": "price",
							"type": "uint256"
						}
					],
					"name": "TokenPurchased",
					"type": "event"
				},
				{
					"inputs": [
						{
							"internalType": "uint256",
							"name": "_pricePerToken",
							"type": "uint256"
						}
					],
					"name": "configureSale",
					"outputs": [],
					"stateMutability": "nonpayable",
					"type": "function"
				},
				{
					"inputs": [],
					"name": "depositReserveTokens",
					"outputs": [],
					"stateMutability": "nonpayable",
					"type": "function"
				},
				{
					"inputs": [],
					"name": "fractionToken",
					"outputs": [
						{
							"internalType": "contract IERC20",
							"name": "",
							"type": "address"
						}
					],
					"stateMutability": "view",
					"type": "function"
				},
				{
					"inputs": [
						{
							"internalType": "address",
							"name": "owner",
							"type": "address"
						}
					],
					"name": "getOwnershipPercentage",
					"outputs": [
						{
							"internalType": "uint256",
							"name": "",
							"type": "uint256"
						}
					],
					"stateMutability": "view",
					"type": "function"
				},
				{
					"inputs": [],
					"name": "getOwnershipTransfers",
					"outputs": [
						{
							"components": [
								{
									"internalType": "address",
									"name": "from",
									"type": "address"
								},
								{
									"internalType": "address",
									"name": "to",
									"type": "address"
								},
								{
									"internalType": "uint256",
									"name": "amount",
									"type": "uint256"
								},
								{
									"internalType": "uint32",
									"name": "timestampz",
									"type": "uint32"
								}
							],
							"internalType": "struct IRECMarketplace.Ownership[]",
							"name": "",
							"type": "tuple[]"
						}
					],
					"stateMutability": "view",
					"type": "function"
				},
				{
					"inputs": [
						{
							"internalType": "uint256",
							"name": "listingId",
							"type": "uint256"
						}
					],
					"name": "getTokenListing",
					"outputs": [
						{
							"components": [
								{
									"internalType": "address",
									"name": "seller",
									"type": "address"
								},
								{
									"internalType": "uint256",
									"name": "amount",
									"type": "uint256"
								},
								{
									"internalType": "uint256",
									"name": "pricePerToken",
									"type": "uint256"
								},
								{
									"internalType": "bool",
									"name": "active",
									"type": "bool"
								}
							],
							"internalType": "struct IRECMarketplace.Listing",
							"name": "",
							"type": "tuple"
						}
					],
					"stateMutability": "view",
					"type": "function"
				},
				{
					"inputs": [
						{
							"internalType": "uint256",
							"name": "_amount",
							"type": "uint256"
						},
						{
							"internalType": "uint256",
							"name": "_price",
							"type": "uint256"
						}
					],
					"name": "listToken",
					"outputs": [],
					"stateMutability": "nonpayable",
					"type": "function"
				},
				{
					"inputs": [],
					"name": "listingCount",
					"outputs": [
						{
							"internalType": "uint256",
							"name": "",
							"type": "uint256"
						}
					],
					"stateMutability": "view",
					"type": "function"
				},
				{
					"inputs": [
						{
							"internalType": "string",
							"name": "",
							"type": "string"
						},
						{
							"internalType": "uint256",
							"name": "",
							"type": "uint256"
						}
					],
					"name": "listings",
					"outputs": [
						{
							"internalType": "address",
							"name": "seller",
							"type": "address"
						},
						{
							"internalType": "uint256",
							"name": "amount",
							"type": "uint256"
						},
						{
							"internalType": "uint256",
							"name": "pricePerToken",
							"type": "uint256"
						},
						{
							"internalType": "bool",
							"name": "active",
							"type": "bool"
						}
					],
					"stateMutability": "view",
					"type": "function"
				},
				{
					"inputs": [],
					"name": "nftContract",
					"outputs": [
						{
							"internalType": "contract IERC721",
							"name": "",
							"type": "address"
						}
					],
					"stateMutability": "view",
					"type": "function"
				},
				{
					"inputs": [],
					"name": "owner",
					"outputs": [
						{
							"internalType": "address",
							"name": "",
							"type": "address"
						}
					],
					"stateMutability": "view",
					"type": "function"
				},
				{
					"inputs": [
						{
							"internalType": "string",
							"name": "",
							"type": "string"
						},
						{
							"internalType": "uint256",
							"name": "",
							"type": "uint256"
						}
					],
					"name": "ownerships",
					"outputs": [
						{
							"internalType": "address",
							"name": "from",
							"type": "address"
						},
						{
							"internalType": "address",
							"name": "to",
							"type": "address"
						},
						{
							"internalType": "uint256",
							"name": "amount",
							"type": "uint256"
						},
						{
							"internalType": "uint32",
							"name": "timestampz",
							"type": "uint32"
						}
					],
					"stateMutability": "view",
					"type": "function"
				},
				{
					"inputs": [
						{
							"internalType": "uint256",
							"name": "listingId",
							"type": "uint256"
						}
					],
					"name": "purchaseFromListing",
					"outputs": [],
					"stateMutability": "payable",
					"type": "function"
				},
				{
					"inputs": [
						{
							"internalType": "uint16",
							"name": "_amount",
							"type": "uint16"
						}
					],
					"name": "purchaseFromReserve",
					"outputs": [],
					"stateMutability": "payable",
					"type": "function"
				},
				{
					"inputs": [],
					"name": "renounceOwnership",
					"outputs": [],
					"stateMutability": "nonpayable",
					"type": "function"
				},
				{
					"inputs": [],
					"name": "saleActive",
					"outputs": [
						{
							"internalType": "bool",
							"name": "",
							"type": "bool"
						}
					],
					"stateMutability": "view",
					"type": "function"
				},
				{
					"inputs": [],
					"name": "salePrice",
					"outputs": [
						{
							"internalType": "uint256",
							"name": "",
							"type": "uint256"
						}
					],
					"stateMutability": "view",
					"type": "function"
				},
				{
					"inputs": [
						{
							"internalType": "address",
							"name": "newOwner",
							"type": "address"
						}
					],
					"name": "transferOwnership",
					"outputs": [],
					"stateMutability": "nonpayable",
					"type": "function"
				}
			],
			"devdoc": {
				"errors": {
					"OwnableInvalidOwner(address)": [
						{
							"details": "The owner is not a valid owner account. (eg. `address(0)`)"
						}
					],
					"OwnableUnauthorizedAccount(address)": [
						{
							"details": "The caller account is not authorized to perform an operation."
						}
					],
					"ReentrancyGuardReentrantCall()": [
						{
							"details": "Unauthorized reentrant call."
						}
					]
				},
				"kind": "dev",
				"methods": {
					"owner()": {
						"details": "Returns the address of the current owner."
					},
					"renounceOwnership()": {
						"details": "Leaves the contract without owner. It will not be possible to call `onlyOwner` functions. Can only be called by the current owner. NOTE: Renouncing ownership will leave the contract without an owner, thereby disabling any functionality that is only available to the owner."
					},
					"transferOwnership(address)": {
						"details": "Transfers ownership of the contract to a new account (`newOwner`). Can only be called by the current owner."
					}
				},
				"version": 1
			},
			"evm": {
				"assembly": "    /* \"contracts/IREC/IRECMarketplace.sol\":295:4830  contract IRECMarketplace is Ownable, ReentrancyGuard {... */\n  mstore(0x40, 0x80)\n    /* \"contracts/IREC/IRECMarketplace.sol\":594:598  true */\n  0x01\n    /* \"contracts/IREC/IRECMarketplace.sol\":569:598  bool public saleActive = true */\n  0x05\n  exp(0x0100, 0x00)\n  dup2\n  sload\n  dup2\n  0xff\n  mul\n  not\n  and\n  swap1\n  dup4\n  iszero\n  iszero\n  mul\n  or\n  swap1\n  sstore\n  pop\n    /* \"contracts/IREC/IRECMarketplace.sol\":1330:1520  constructor(... */\n  callvalue\n  dup1\n  iszero\n  tag_1\n  jumpi\n  0x00\n  dup1\n  revert\ntag_1:\n  pop\n  mload(0x40)\n  sub(codesize, bytecodeSize)\n  dup1\n  bytecodeSize\n  dup4\n  codecopy\n  dup2\n  dup2\n  add\n  0x40\n  mstore\n  dup2\n  add\n  swap1\n  tag_2\n  swap2\n  swap1\n  tag_3\n  jump\t// in\ntag_2:\n    /* \"contracts/IREC/IRECMarketplace.sol\":1422:1432  msg.sender */\n  caller\n    /* \"@openzeppelin/contracts/access/Ownable.sol\":1297:1298  0 */\n  0x00\n    /* \"@openzeppelin/contracts/access/Ownable.sol\":1273:1299  initialOwner == address(0) */\n  0xffffffffffffffffffffffffffffffffffffffff\n  and\n    /* \"@openzeppelin/contracts/access/Ownable.sol\":1273:1285  initialOwner */\n  dup2\n    /* \"@openzeppelin/contracts/access/Ownable.sol\":1273:1299  initialOwner == address(0) */\n  0xffffffffffffffffffffffffffffffffffffffff\n  and\n  sub\n    /* \"@openzeppelin/contracts/access/Ownable.sol\":1269:1364  if (initialOwner == address(0)) {... */\n  tag_8\n  jumpi\n    /* \"@openzeppelin/contracts/access/Ownable.sol\":1350:1351  0 */\n  0x00\n    /* \"@openzeppelin/contracts/access/Ownable.sol\":1322:1353  OwnableInvalidOwner(address(0)) */\n  mload(0x40)\n  0x1e4fbdf700000000000000000000000000000000000000000000000000000000\n  dup2\n  mstore\n  0x04\n  add\n  tag_9\n  swap2\n  swap1\n  tag_10\n  jump\t// in\ntag_9:\n  mload(0x40)\n  dup1\n  swap2\n  sub\n  swap1\n  revert\n    /* \"@openzeppelin/contracts/access/Ownable.sol\":1269:1364  if (initialOwner == address(0)) {... */\ntag_8:\n    /* \"@openzeppelin/contracts/access/Ownable.sol\":1373:1405  _transferOwnership(initialOwner) */\n  tag_11\n    /* \"@openzeppelin/contracts/access/Ownable.sol\":1392:1404  initialOwner */\n  dup2\n    /* \"@openzeppelin/contracts/access/Ownable.sol\":1373:1391  _transferOwnership */\n  shl(0x20, tag_12)\n    /* \"@openzeppelin/contracts/access/Ownable.sol\":1373:1405  _transferOwnership(initialOwner) */\n  0x20\n  shr\n  jump\t// in\ntag_11:\n    /* \"@openzeppelin/contracts/access/Ownable.sol\":1225:1412  constructor(address initialOwner) {... */\n  pop\n    /* \"@openzeppelin/contracts/utils/ReentrancyGuard.sol\":1857:1858  1 */\n  0x01\n    /* \"@openzeppelin/contracts/utils/ReentrancyGuard.sol\":2061:2068  _status */\n  dup1\n    /* \"@openzeppelin/contracts/utils/ReentrancyGuard.sol\":2061:2082  _status = NOT_ENTERED */\n  dup2\n  swap1\n  sstore\n  pop\n    /* \"contracts/IREC/IRECMarketplace.sol\":1461:1475  _fractionToken */\n  dup2\n    /* \"contracts/IREC/IRECMarketplace.sol\":1445:1458  fractionToken */\n  0x02\n  0x00\n    /* \"contracts/IREC/IRECMarketplace.sol\":1445:1475  fractionToken = _fractionToken */\n  0x0100\n  exp\n  dup2\n  sload\n  dup2\n  0xffffffffffffffffffffffffffffffffffffffff\n  mul\n  not\n  and\n  swap1\n  dup4\n  0xffffffffffffffffffffffffffffffffffffffff\n  and\n  mul\n  or\n  swap1\n  sstore\n  pop\n    /* \"contracts/IREC/IRECMarketplace.sol\":1500:1512  _nftContract */\n  dup1\n    /* \"contracts/IREC/IRECMarketplace.sol\":1486:1497  nftContract */\n  0x03\n  0x00\n    /* \"contracts/IREC/IRECMarketplace.sol\":1486:1512  nftContract = _nftContract */\n  0x0100\n  exp\n  dup2\n  sload\n  dup2\n  0xffffffffffffffffffffffffffffffffffffffff\n  mul\n  not\n  and\n  swap1\n  dup4\n  0xffffffffffffffffffffffffffffffffffffffff\n  and\n  mul\n  or\n  swap1\n  sstore\n  pop\n    /* \"contracts/IREC/IRECMarketplace.sol\":1330:1520  constructor(... */\n  pop\n  pop\n    /* \"contracts/IREC/IRECMarketplace.sol\":295:4830  contract IRECMarketplace is Ownable, ReentrancyGuard {... */\n  jump(tag_15)\n    /* \"@openzeppelin/contracts/access/Ownable.sol\":2912:3099  function _transferOwnership(address newOwner) internal virtual {... */\ntag_12:\n    /* \"@openzeppelin/contracts/access/Ownable.sol\":2985:3001  address oldOwner */\n  0x00\n    /* \"@openzeppelin/contracts/access/Ownable.sol\":3004:3010  _owner */\n  dup1\n  0x00\n  swap1\n  sload\n  swap1\n  0x0100\n  exp\n  swap1\n  div\n  0xffffffffffffffffffffffffffffffffffffffff\n  and\n    /* \"@openzeppelin/contracts/access/Ownable.sol\":2985:3010  address oldOwner = _owner */\n  swap1\n  pop\n    /* \"@openzeppelin/contracts/access/Ownable.sol\":3029:3037  newOwner */\n  dup2\n    /* \"@openzeppelin/contracts/access/Ownable.sol\":3020:3026  _owner */\n  0x00\n  dup1\n    /* \"@openzeppelin/contracts/access/Ownable.sol\":3020:3037  _owner = newOwner */\n  0x0100\n  exp\n  dup2\n  sload\n  dup2\n  0xffffffffffffffffffffffffffffffffffffffff\n  mul\n  not\n  and\n  swap1\n  dup4\n  0xffffffffffffffffffffffffffffffffffffffff\n  and\n  mul\n  or\n  swap1\n  sstore\n  pop\n    /* \"@openzeppelin/contracts/access/Ownable.sol\":3083:3091  newOwner */\n  dup2\n    /* \"@openzeppelin/contracts/access/Ownable.sol\":3052:3092  OwnershipTransferred(oldOwner, newOwner) */\n  0xffffffffffffffffffffffffffffffffffffffff\n  and\n    /* \"@openzeppelin/contracts/access/Ownable.sol\":3073:3081  oldOwner */\n  dup2\n    /* \"@openzeppelin/contracts/access/Ownable.sol\":3052:3092  OwnershipTransferred(oldOwner, newOwner) */\n  0xffffffffffffffffffffffffffffffffffffffff\n  and\n  0x8be0079c531659141344cd1fd0a4f28419497f9722a3daafe3b4186f6b6457e0\n  mload(0x40)\n  mload(0x40)\n  dup1\n  swap2\n  sub\n  swap1\n  log3\n    /* \"@openzeppelin/contracts/access/Ownable.sol\":2975:3099  {... */\n  pop\n    /* \"@openzeppelin/contracts/access/Ownable.sol\":2912:3099  function _transferOwnership(address newOwner) internal virtual {... */\n  pop\n  jump\t// out\n    /* \"#utility.yul\":88:205   */\ntag_18:\n    /* \"#utility.yul\":197:198   */\n  0x00\n    /* \"#utility.yul\":194:195   */\n  dup1\n    /* \"#utility.yul\":187:199   */\n  revert\n    /* \"#utility.yul\":334:460   */\ntag_20:\n    /* \"#utility.yul\":371:378   */\n  0x00\n    /* \"#utility.yul\":411:453   */\n  0xffffffffffffffffffffffffffffffffffffffff\n    /* \"#utility.yul\":404:409   */\n  dup3\n    /* \"#utility.yul\":400:454   */\n  and\n    /* \"#utility.yul\":389:454   */\n  swap1\n  pop\n    /* \"#utility.yul\":334:460   */\n  swap2\n  swap1\n  pop\n  jump\t// out\n    /* \"#utility.yul\":466:562   */\ntag_21:\n    /* \"#utility.yul\":503:510   */\n  0x00\n    /* \"#utility.yul\":532:556   */\n  tag_35\n    /* \"#utility.yul\":550:555   */\n  dup3\n    /* \"#utility.yul\":532:556   */\n  tag_20\n  jump\t// in\ntag_35:\n    /* \"#utility.yul\":521:556   */\n  swap1\n  pop\n    /* \"#utility.yul\":466:562   */\n  swap2\n  swap1\n  pop\n  jump\t// out\n    /* \"#utility.yul\":568:678   */\ntag_22:\n    /* \"#utility.yul\":619:626   */\n  0x00\n    /* \"#utility.yul\":648:672   */\n  tag_37\n    /* \"#utility.yul\":666:671   */\n  dup3\n    /* \"#utility.yul\":648:672   */\n  tag_21\n  jump\t// in\ntag_37:\n    /* \"#utility.yul\":637:672   */\n  swap1\n  pop\n    /* \"#utility.yul\":568:678   */\n  swap2\n  swap1\n  pop\n  jump\t// out\n    /* \"#utility.yul\":684:834   */\ntag_23:\n    /* \"#utility.yul\":771:809   */\n  tag_39\n    /* \"#utility.yul\":803:808   */\n  dup2\n    /* \"#utility.yul\":771:809   */\n  tag_22\n  jump\t// in\ntag_39:\n    /* \"#utility.yul\":764:769   */\n  dup2\n    /* \"#utility.yul\":761:810   */\n  eq\n    /* \"#utility.yul\":751:828   */\n  tag_40\n  jumpi\n    /* \"#utility.yul\":824:825   */\n  0x00\n    /* \"#utility.yul\":821:822   */\n  dup1\n    /* \"#utility.yul\":814:826   */\n  revert\n    /* \"#utility.yul\":751:828   */\ntag_40:\n    /* \"#utility.yul\":684:834   */\n  pop\n  jump\t// out\n    /* \"#utility.yul\":840:1011   */\ntag_24:\n    /* \"#utility.yul\":911:916   */\n  0x00\n    /* \"#utility.yul\":942:948   */\n  dup2\n    /* \"#utility.yul\":936:949   */\n  mload\n    /* \"#utility.yul\":927:949   */\n  swap1\n  pop\n    /* \"#utility.yul\":958:1005   */\n  tag_42\n    /* \"#utility.yul\":999:1004   */\n  dup2\n    /* \"#utility.yul\":958:1005   */\n  tag_23\n  jump\t// in\ntag_42:\n    /* \"#utility.yul\":840:1011   */\n  swap3\n  swap2\n  pop\n  pop\n  jump\t// out\n    /* \"#utility.yul\":1017:1128   */\ntag_25:\n    /* \"#utility.yul\":1069:1076   */\n  0x00\n    /* \"#utility.yul\":1098:1122   */\n  tag_44\n    /* \"#utility.yul\":1116:1121   */\n  dup3\n    /* \"#utility.yul\":1098:1122   */\n  tag_21\n  jump\t// in\ntag_44:\n    /* \"#utility.yul\":1087:1122   */\n  swap1\n  pop\n    /* \"#utility.yul\":1017:1128   */\n  swap2\n  swap1\n  pop\n  jump\t// out\n    /* \"#utility.yul\":1134:1286   */\ntag_26:\n    /* \"#utility.yul\":1222:1261   */\n  tag_46\n    /* \"#utility.yul\":1255:1260   */\n  dup2\n    /* \"#utility.yul\":1222:1261   */\n  tag_25\n  jump\t// in\ntag_46:\n    /* \"#utility.yul\":1215:1220   */\n  dup2\n    /* \"#utility.yul\":1212:1262   */\n  eq\n    /* \"#utility.yul\":1202:1280   */\n  tag_47\n  jumpi\n    /* \"#utility.yul\":1276:1277   */\n  0x00\n    /* \"#utility.yul\":1273:1274   */\n  dup1\n    /* \"#utility.yul\":1266:1278   */\n  revert\n    /* \"#utility.yul\":1202:1280   */\ntag_47:\n    /* \"#utility.yul\":1134:1286   */\n  pop\n  jump\t// out\n    /* \"#utility.yul\":1292:1465   */\ntag_27:\n    /* \"#utility.yul\":1364:1369   */\n  0x00\n    /* \"#utility.yul\":1395:1401   */\n  dup2\n    /* \"#utility.yul\":1389:1402   */\n  mload\n    /* \"#utility.yul\":1380:1402   */\n  swap1\n  pop\n    /* \"#utility.yul\":1411:1459   */\n  tag_49\n    /* \"#utility.yul\":1453:1458   */\n  dup2\n    /* \"#utility.yul\":1411:1459   */\n  tag_26\n  jump\t// in\ntag_49:\n    /* \"#utility.yul\":1292:1465   */\n  swap3\n  swap2\n  pop\n  pop\n  jump\t// out\n    /* \"#utility.yul\":1471:2036   */\ntag_3:\n    /* \"#utility.yul\":1579:1585   */\n  0x00\n    /* \"#utility.yul\":1587:1593   */\n  dup1\n    /* \"#utility.yul\":1636:1638   */\n  0x40\n    /* \"#utility.yul\":1624:1633   */\n  dup4\n    /* \"#utility.yul\":1615:1622   */\n  dup6\n    /* \"#utility.yul\":1611:1634   */\n  sub\n    /* \"#utility.yul\":1607:1639   */\n  slt\n    /* \"#utility.yul\":1604:1723   */\n  iszero\n  tag_51\n  jumpi\n    /* \"#utility.yul\":1642:1721   */\n  tag_52\n  tag_18\n  jump\t// in\ntag_52:\n    /* \"#utility.yul\":1604:1723   */\ntag_51:\n    /* \"#utility.yul\":1762:1763   */\n  0x00\n    /* \"#utility.yul\":1787:1865   */\n  tag_53\n    /* \"#utility.yul\":1857:1864   */\n  dup6\n    /* \"#utility.yul\":1848:1854   */\n  dup3\n    /* \"#utility.yul\":1837:1846   */\n  dup7\n    /* \"#utility.yul\":1833:1855   */\n  add\n    /* \"#utility.yul\":1787:1865   */\n  tag_24\n  jump\t// in\ntag_53:\n    /* \"#utility.yul\":1777:1865   */\n  swap3\n  pop\n    /* \"#utility.yul\":1733:1875   */\n  pop\n    /* \"#utility.yul\":1914:1916   */\n  0x20\n    /* \"#utility.yul\":1940:2019   */\n  tag_54\n    /* \"#utility.yul\":2011:2018   */\n  dup6\n    /* \"#utility.yul\":2002:2008   */\n  dup3\n    /* \"#utility.yul\":1991:2000   */\n  dup7\n    /* \"#utility.yul\":1987:2009   */\n  add\n    /* \"#utility.yul\":1940:2019   */\n  tag_27\n  jump\t// in\ntag_54:\n    /* \"#utility.yul\":1930:2019   */\n  swap2\n  pop\n    /* \"#utility.yul\":1885:2029   */\n  pop\n    /* \"#utility.yul\":1471:2036   */\n  swap3\n  pop\n  swap3\n  swap1\n  pop\n  jump\t// out\n    /* \"#utility.yul\":2042:2160   */\ntag_28:\n    /* \"#utility.yul\":2129:2153   */\n  tag_56\n    /* \"#utility.yul\":2147:2152   */\n  dup2\n    /* \"#utility.yul\":2129:2153   */\n  tag_21\n  jump\t// in\ntag_56:\n    /* \"#utility.yul\":2124:2127   */\n  dup3\n    /* \"#utility.yul\":2117:2154   */\n  mstore\n    /* \"#utility.yul\":2042:2160   */\n  pop\n  pop\n  jump\t// out\n    /* \"#utility.yul\":2166:2388   */\ntag_10:\n    /* \"#utility.yul\":2259:2263   */\n  0x00\n    /* \"#utility.yul\":2297:2299   */\n  0x20\n    /* \"#utility.yul\":2286:2295   */\n  dup3\n    /* \"#utility.yul\":2282:2300   */\n  add\n    /* \"#utility.yul\":2274:2300   */\n  swap1\n  pop\n    /* \"#utility.yul\":2310:2381   */\n  tag_58\n    /* \"#utility.yul\":2378:2379   */\n  0x00\n    /* \"#utility.yul\":2367:2376   */\n  dup4\n    /* \"#utility.yul\":2363:2380   */\n  add\n    /* \"#utility.yul\":2354:2360   */\n  dup5\n    /* \"#utility.yul\":2310:2381   */\n  tag_28\n  jump\t// in\ntag_58:\n    /* \"#utility.yul\":2166:2388   */\n  swap3\n  swap2\n  pop\n  pop\n  jump\t// out\n    /* \"contracts/IREC/IRECMarketplace.sol\":295:4830  contract IRECMarketplace is Ownable, ReentrancyGuard {... */\ntag_15:\n  dataSize(sub_0)\n  dup1\n  dataOffset(sub_0)\n  0x00\n  codecopy\n  0x00\n  return\nstop\n\nsub_0: assembly {\n        /* \"contracts/IREC/IRECMarketplace.sol\":295:4830  contract IRECMarketplace is Ownable, ReentrancyGuard {... */\n      mstore(0x40, 0x80)\n      jumpi(tag_1, lt(calldatasize, 0x04))\n      shr(0xe0, calldataload(0x00))\n      dup1\n      0x8da5cb5b\n      gt\n      tag_20\n      jumpi\n      dup1\n      0xb08a1adf\n      gt\n      tag_21\n      jumpi\n      dup1\n      0xb08a1adf\n      eq\n      tag_15\n      jumpi\n      dup1\n      0xca716b15\n      eq\n      tag_16\n      jumpi\n      dup1\n      0xd56d229d\n      eq\n      tag_17\n      jumpi\n      dup1\n      0xf2fde38b\n      eq\n      tag_18\n      jumpi\n      dup1\n      0xf51f96dd\n      eq\n      tag_19\n      jumpi\n      jump(tag_1)\n    tag_21:\n      dup1\n      0x8da5cb5b\n      eq\n      tag_11\n      jumpi\n      dup1\n      0x98792eec\n      eq\n      tag_12\n      jumpi\n      dup1\n      0xa2931fe8\n      eq\n      tag_13\n      jumpi\n      dup1\n      0xa9b07c26\n      eq\n      tag_14\n      jumpi\n      jump(tag_1)\n    tag_20:\n      dup1\n      0x665b3cc1\n      gt\n      tag_22\n      jumpi\n      dup1\n      0x665b3cc1\n      eq\n      tag_6\n      jumpi\n      dup1\n      0x68428a1b\n      eq\n      tag_7\n      jumpi\n      dup1\n      0x715018a6\n      eq\n      tag_8\n      jumpi\n      dup1\n      0x75c1631d\n      eq\n      tag_9\n      jumpi\n      dup1\n      0x8125e3ac\n      eq\n      tag_10\n      jumpi\n      jump(tag_1)\n    tag_22:\n      dup1\n      0x0299c6eb\n      eq\n      tag_2\n      jumpi\n      dup1\n      0x457dfc67\n      eq\n      tag_3\n      jumpi\n      dup1\n      0x4aee1de1\n      eq\n      tag_4\n      jumpi\n      dup1\n      0x640b29d5\n      eq\n      tag_5\n      jumpi\n    tag_1:\n      0x00\n      dup1\n      revert\n        /* \"contracts/IREC/IRECMarketplace.sol\":3655:4511  function purchaseFromListing(uint listingId) external payable nonReentrant {... */\n    tag_2:\n      tag_23\n      0x04\n      dup1\n      calldatasize\n      sub\n      dup2\n      add\n      swap1\n      tag_24\n      swap2\n      swap1\n      tag_25\n      jump\t// in\n    tag_24:\n      tag_26\n      jump\t// in\n    tag_23:\n      stop\n        /* \"contracts/IREC/IRECMarketplace.sol\":387:414  IERC20 public fractionToken */\n    tag_3:\n      callvalue\n      dup1\n      iszero\n      tag_27\n      jumpi\n      0x00\n      dup1\n      revert\n    tag_27:\n      pop\n      tag_28\n      tag_29\n      jump\t// in\n    tag_28:\n      mload(0x40)\n      tag_30\n      swap2\n      swap1\n      tag_31\n      jump\t// in\n    tag_30:\n      mload(0x40)\n      dup1\n      swap2\n      sub\n      swap1\n      return\n        /* \"contracts/IREC/IRECMarketplace.sol\":1819:1930  function configureSale(uint256 _pricePerToken) external onlyOwner {... */\n    tag_4:\n      callvalue\n      dup1\n      iszero\n      tag_32\n      jumpi\n      0x00\n      dup1\n      revert\n    tag_32:\n      pop\n      tag_33\n      0x04\n      dup1\n      calldatasize\n      sub\n      dup2\n      add\n      swap1\n      tag_34\n      swap2\n      swap1\n      tag_25\n      jump\t// in\n    tag_34:\n      tag_35\n      jump\t// in\n    tag_33:\n      stop\n        /* \"contracts/IREC/IRECMarketplace.sol\":2010:2175  function depositReserveTokens() external nonReentrant onlyOwner {... */\n    tag_5:\n      callvalue\n      dup1\n      iszero\n      tag_36\n      jumpi\n      0x00\n      dup1\n      revert\n    tag_36:\n      pop\n      tag_37\n      tag_38\n      jump\t// in\n    tag_37:\n      stop\n        /* \"contracts/IREC/IRECMarketplace.sol\":2227:2981  function purchaseFromReserve(uint16 _amount) external payable nonReentrant {... */\n    tag_6:\n      tag_39\n      0x04\n      dup1\n      calldatasize\n      sub\n      dup2\n      add\n      swap1\n      tag_40\n      swap2\n      swap1\n      tag_41\n      jump\t// in\n    tag_40:\n      tag_42\n      jump\t// in\n    tag_39:\n      stop\n        /* \"contracts/IREC/IRECMarketplace.sol\":569:598  bool public saleActive = true */\n    tag_7:\n      callvalue\n      dup1\n      iszero\n      tag_43\n      jumpi\n      0x00\n      dup1\n      revert\n    tag_43:\n      pop\n      tag_44\n      tag_45\n      jump\t// in\n    tag_44:\n      mload(0x40)\n      tag_46\n      swap2\n      swap1\n      tag_47\n      jump\t// in\n    tag_46:\n      mload(0x40)\n      dup1\n      swap2\n      sub\n      swap1\n      return\n        /* \"@openzeppelin/contracts/access/Ownable.sol\":2293:2394  function renounceOwnership() public virtual onlyOwner {... */\n    tag_8:\n      callvalue\n      dup1\n      iszero\n      tag_48\n      jumpi\n      0x00\n      dup1\n      revert\n    tag_48:\n      pop\n      tag_49\n      tag_50\n      jump\t// in\n    tag_49:\n      stop\n        /* \"contracts/IREC/IRECMarketplace.sol\":3019:3611  function listToken(uint256 _amount, uint _price) external nonReentrant {... */\n    tag_9:\n      callvalue\n      dup1\n      iszero\n      tag_51\n      jumpi\n      0x00\n      dup1\n      revert\n    tag_51:\n      pop\n      tag_52\n      0x04\n      dup1\n      calldatasize\n      sub\n      dup2\n      add\n      swap1\n      tag_53\n      swap2\n      swap1\n      tag_54\n      jump\t// in\n    tag_53:\n      tag_55\n      jump\t// in\n    tag_52:\n      stop\n        /* \"contracts/IREC/IRECMarketplace.sol\":4543:4662  function getOwnershipTransfers() public view returns (Ownership[] memory) {... */\n    tag_10:\n      callvalue\n      dup1\n      iszero\n      tag_56\n      jumpi\n      0x00\n      dup1\n      revert\n    tag_56:\n      pop\n      tag_57\n      tag_58\n      jump\t// in\n    tag_57:\n      mload(0x40)\n      tag_59\n      swap2\n      swap1\n      tag_60\n      jump\t// in\n    tag_59:\n      mload(0x40)\n      dup1\n      swap2\n      sub\n      swap1\n      return\n        /* \"@openzeppelin/contracts/access/Ownable.sol\":1638:1723  function owner() public view virtual returns (address) {... */\n    tag_11:\n      callvalue\n      dup1\n      iszero\n      tag_61\n      jumpi\n      0x00\n      dup1\n      revert\n    tag_61:\n      pop\n      tag_62\n      tag_63\n      jump\t// in\n    tag_62:\n      mload(0x40)\n      tag_64\n      swap2\n      swap1\n      tag_65\n      jump\t// in\n    tag_64:\n      mload(0x40)\n      dup1\n      swap2\n      sub\n      swap1\n      return\n        /* \"contracts/IREC/IRECMarketplace.sol\":4697:4827  function getTokenListing(uint listingId) public view returns(Listing memory) {... */\n    tag_12:\n      callvalue\n      dup1\n      iszero\n      tag_66\n      jumpi\n      0x00\n      dup1\n      revert\n    tag_66:\n      pop\n      tag_67\n      0x04\n      dup1\n      calldatasize\n      sub\n      dup2\n      add\n      swap1\n      tag_68\n      swap2\n      swap1\n      tag_25\n      jump\t// in\n    tag_68:\n      tag_69\n      jump\t// in\n    tag_67:\n      mload(0x40)\n      tag_70\n      swap2\n      swap1\n      tag_71\n      jump\t// in\n    tag_70:\n      mload(0x40)\n      dup1\n      swap2\n      sub\n      swap1\n      return\n        /* \"contracts/IREC/IRECMarketplace.sol\":1584:1779  function getOwnershipPercentage(address owner) public view returns (uint256) {... */\n    tag_13:\n      callvalue\n      dup1\n      iszero\n      tag_72\n      jumpi\n      0x00\n      dup1\n      revert\n    tag_72:\n      pop\n      tag_73\n      0x04\n      dup1\n      calldatasize\n      sub\n      dup2\n      add\n      swap1\n      tag_74\n      swap2\n      swap1\n      tag_75\n      jump\t// in\n    tag_74:\n      tag_76\n      jump\t// in\n    tag_73:\n      mload(0x40)\n      tag_77\n      swap2\n      swap1\n      tag_78\n      jump\t// in\n    tag_77:\n      mload(0x40)\n      dup1\n      swap2\n      sub\n      swap1\n      return\n        /* \"contracts/IREC/IRECMarketplace.sol\":1096:1120  uint public listingCount */\n    tag_14:\n      callvalue\n      dup1\n      iszero\n      tag_79\n      jumpi\n      0x00\n      dup1\n      revert\n    tag_79:\n      pop\n      tag_80\n      tag_81\n      jump\t// in\n    tag_80:\n      mload(0x40)\n      tag_82\n      swap2\n      swap1\n      tag_78\n      jump\t// in\n    tag_82:\n      mload(0x40)\n      dup1\n      swap2\n      sub\n      swap1\n      return\n        /* \"contracts/IREC/IRECMarketplace.sol\":768:817  mapping (string => Ownership[]) public ownerships */\n    tag_15:\n      callvalue\n      dup1\n      iszero\n      tag_83\n      jumpi\n      0x00\n      dup1\n      revert\n    tag_83:\n      pop\n      tag_84\n      0x04\n      dup1\n      calldatasize\n      sub\n      dup2\n      add\n      swap1\n      tag_85\n      swap2\n      swap1\n      tag_86\n      jump\t// in\n    tag_85:\n      tag_87\n      jump\t// in\n    tag_84:\n      mload(0x40)\n      tag_88\n      swap5\n      swap4\n      swap3\n      swap2\n      swap1\n      tag_89\n      jump\t// in\n    tag_88:\n      mload(0x40)\n      dup1\n      swap2\n      sub\n      swap1\n      return\n        /* \"contracts/IREC/IRECMarketplace.sol\":994:1053  mapping(string => mapping(uint => Listing)) public listings */\n    tag_16:\n      callvalue\n      dup1\n      iszero\n      tag_90\n      jumpi\n      0x00\n      dup1\n      revert\n    tag_90:\n      pop\n      tag_91\n      0x04\n      dup1\n      calldatasize\n      sub\n      dup2\n      add\n      swap1\n      tag_92\n      swap2\n      swap1\n      tag_86\n      jump\t// in\n    tag_92:\n      tag_93\n      jump\t// in\n    tag_91:\n      mload(0x40)\n      tag_94\n      swap5\n      swap4\n      swap3\n      swap2\n      swap1\n      tag_95\n      jump\t// in\n    tag_94:\n      mload(0x40)\n      dup1\n      swap2\n      sub\n      swap1\n      return\n        /* \"contracts/IREC/IRECMarketplace.sol\":421:447  IERC721 public nftContract */\n    tag_17:\n      callvalue\n      dup1\n      iszero\n      tag_96\n      jumpi\n      0x00\n      dup1\n      revert\n    tag_96:\n      pop\n      tag_97\n      tag_98\n      jump\t// in\n    tag_97:\n      mload(0x40)\n      tag_99\n      swap2\n      swap1\n      tag_100\n      jump\t// in\n    tag_99:\n      mload(0x40)\n      dup1\n      swap2\n      sub\n      swap1\n      return\n        /* \"@openzeppelin/contracts/access/Ownable.sol\":2543:2758  function transferOwnership(address newOwner) public virtual onlyOwner {... */\n    tag_18:\n      callvalue\n      dup1\n      iszero\n      tag_101\n      jumpi\n      0x00\n      dup1\n      revert\n    tag_101:\n      pop\n      tag_102\n      0x04\n      dup1\n      calldatasize\n      sub\n      dup2\n      add\n      swap1\n      tag_103\n      swap2\n      swap1\n      tag_75\n      jump\t// in\n    tag_103:\n      tag_104\n      jump\t// in\n    tag_102:\n      stop\n        /* \"contracts/IREC/IRECMarketplace.sol\":487:511  uint256 public salePrice */\n    tag_19:\n      callvalue\n      dup1\n      iszero\n      tag_105\n      jumpi\n      0x00\n      dup1\n      revert\n    tag_105:\n      pop\n      tag_106\n      tag_107\n      jump\t// in\n    tag_106:\n      mload(0x40)\n      tag_108\n      swap2\n      swap1\n      tag_78\n      jump\t// in\n    tag_108:\n      mload(0x40)\n      dup1\n      swap2\n      sub\n      swap1\n      return\n        /* \"contracts/IREC/IRECMarketplace.sol\":3655:4511  function purchaseFromListing(uint listingId) external payable nonReentrant {... */\n    tag_26:\n        /* \"@openzeppelin/contracts/utils/ReentrancyGuard.sol\":2500:2521  _nonReentrantBefore() */\n      tag_110\n        /* \"@openzeppelin/contracts/utils/ReentrancyGuard.sol\":2500:2519  _nonReentrantBefore */\n      tag_111\n        /* \"@openzeppelin/contracts/utils/ReentrancyGuard.sol\":2500:2521  _nonReentrantBefore() */\n      jump\t// in\n    tag_110:\n        /* \"contracts/IREC/IRECMarketplace.sol\":3741:3763  Listing memory listing */\n      0x00\n        /* \"contracts/IREC/IRECMarketplace.sol\":3766:3774  listings */\n      0x07\n        /* \"contracts/IREC/IRECMarketplace.sol\":3766:3782  listings['IREC'] */\n      mload(0x40)\n      tag_113\n      swap1\n      tag_114\n      jump\t// in\n    tag_113:\n      swap1\n      dup2\n      mstore\n      0x20\n      add\n      mload(0x40)\n      dup1\n      swap2\n      sub\n      swap1\n      keccak256\n        /* \"contracts/IREC/IRECMarketplace.sol\":3766:3793  listings['IREC'][listingId] */\n      0x00\n        /* \"contracts/IREC/IRECMarketplace.sol\":3783:3792  listingId */\n      dup4\n        /* \"contracts/IREC/IRECMarketplace.sol\":3766:3793  listings['IREC'][listingId] */\n      dup2\n      mstore\n      0x20\n      add\n      swap1\n      dup2\n      mstore\n      0x20\n      add\n      0x00\n      keccak256\n        /* \"contracts/IREC/IRECMarketplace.sol\":3741:3793  Listing memory listing = listings['IREC'][listingId] */\n      mload(0x40)\n      dup1\n      0x80\n      add\n      0x40\n      mstore\n      swap1\n      dup2\n      0x00\n      dup3\n      add\n      0x00\n      swap1\n      sload\n      swap1\n      0x0100\n      exp\n      swap1\n      div\n      0xffffffffffffffffffffffffffffffffffffffff\n      and\n      0xffffffffffffffffffffffffffffffffffffffff\n      and\n      0xffffffffffffffffffffffffffffffffffffffff\n      and\n      dup2\n      mstore\n      0x20\n      add\n      0x01\n      dup3\n      add\n      sload\n      dup2\n      mstore\n      0x20\n      add\n      0x02\n      dup3\n      add\n      sload\n      dup2\n      mstore\n      0x20\n      add\n      0x03\n      dup3\n      add\n      0x00\n      swap1\n      sload\n      swap1\n      0x0100\n      exp\n      swap1\n      div\n      0xff\n      and\n      iszero\n      iszero\n      iszero\n      iszero\n      dup2\n      mstore\n      pop\n      pop\n      swap1\n      pop\n        /* \"contracts/IREC/IRECMarketplace.sol\":3814:3821  listing */\n      dup1\n        /* \"contracts/IREC/IRECMarketplace.sol\":3814:3828  listing.active */\n      0x60\n      add\n      mload\n        /* \"contracts/IREC/IRECMarketplace.sol\":3806:3849  require(listing.active, \"Token not active\") */\n      tag_115\n      jumpi\n      mload(0x40)\n      0x08c379a000000000000000000000000000000000000000000000000000000000\n      dup2\n      mstore\n      0x04\n      add\n      tag_116\n      swap1\n      tag_117\n      jump\t// in\n    tag_116:\n      mload(0x40)\n      dup1\n      swap2\n      sub\n      swap1\n      revert\n    tag_115:\n        /* \"contracts/IREC/IRECMarketplace.sol\":3898:3905  listing */\n      dup1\n        /* \"contracts/IREC/IRECMarketplace.sol\":3898:3919  listing.pricePerToken */\n      0x40\n      add\n      mload\n        /* \"contracts/IREC/IRECMarketplace.sol\":3881:3888  listing */\n      dup2\n        /* \"contracts/IREC/IRECMarketplace.sol\":3881:3895  listing.amount */\n      0x20\n      add\n      mload\n        /* \"contracts/IREC/IRECMarketplace.sol\":3881:3919  listing.amount * listing.pricePerToken */\n      tag_118\n      swap2\n      swap1\n      tag_119\n      jump\t// in\n    tag_118:\n        /* \"contracts/IREC/IRECMarketplace.sol\":3868:3877  msg.value */\n      callvalue\n        /* \"contracts/IREC/IRECMarketplace.sol\":3868:3919  msg.value >= listing.amount * listing.pricePerToken */\n      lt\n      iszero\n        /* \"contracts/IREC/IRECMarketplace.sol\":3860:3945  require(msg.value >= listing.amount * listing.pricePerToken, \"Insufficient ETH sent\") */\n      tag_120\n      jumpi\n      mload(0x40)\n      0x08c379a000000000000000000000000000000000000000000000000000000000\n      dup2\n      mstore\n      0x04\n      add\n      tag_121\n      swap1\n      tag_122\n      jump\t// in\n    tag_121:\n      mload(0x40)\n      dup1\n      swap2\n      sub\n      swap1\n      revert\n    tag_120:\n        /* \"contracts/IREC/IRECMarketplace.sol\":3958:3968  ownerships */\n      0x06\n        /* \"contracts/IREC/IRECMarketplace.sol\":3958:3976  ownerships['IREC'] */\n      mload(0x40)\n      tag_123\n      swap1\n      tag_114\n      jump\t// in\n    tag_123:\n      swap1\n      dup2\n      mstore\n      0x20\n      add\n      mload(0x40)\n      dup1\n      swap2\n      sub\n      swap1\n      keccak256\n        /* \"contracts/IREC/IRECMarketplace.sol\":3982:4157  Ownership({... */\n      mload(0x40)\n      dup1\n      0x80\n      add\n      0x40\n      mstore\n      dup1\n        /* \"contracts/IREC/IRECMarketplace.sol\":4013:4020  listing */\n      dup4\n        /* \"contracts/IREC/IRECMarketplace.sol\":4013:4027  listing.seller */\n      0x00\n      add\n      mload\n        /* \"contracts/IREC/IRECMarketplace.sol\":3982:4157  Ownership({... */\n      0xffffffffffffffffffffffffffffffffffffffff\n      and\n      dup2\n      mstore\n      0x20\n      add\n        /* \"contracts/IREC/IRECMarketplace.sol\":4047:4057  msg.sender */\n      caller\n        /* \"contracts/IREC/IRECMarketplace.sol\":3982:4157  Ownership({... */\n      0xffffffffffffffffffffffffffffffffffffffff\n      and\n      dup2\n      mstore\n      0x20\n      add\n        /* \"contracts/IREC/IRECMarketplace.sol\":4081:4088  listing */\n      dup4\n        /* \"contracts/IREC/IRECMarketplace.sol\":4081:4095  listing.amount */\n      0x20\n      add\n      mload\n        /* \"contracts/IREC/IRECMarketplace.sol\":3982:4157  Ownership({... */\n      dup2\n      mstore\n      0x20\n      add\n        /* \"contracts/IREC/IRECMarketplace.sol\":4129:4144  block.timestamp */\n      timestamp\n        /* \"contracts/IREC/IRECMarketplace.sol\":3982:4157  Ownership({... */\n      0xffffffff\n      and\n      dup2\n      mstore\n      pop\n        /* \"contracts/IREC/IRECMarketplace.sol\":3958:4158  ownerships['IREC'].push(Ownership({... */\n      swap1\n      dup1\n      0x01\n      dup2\n      sload\n      add\n      dup1\n      dup3\n      sstore\n      dup1\n      swap2\n      pop\n      pop\n      0x01\n      swap1\n      sub\n      swap1\n      0x00\n      mstore\n      keccak256(0x00, 0x20)\n      swap1\n      0x04\n      mul\n      add\n      0x00\n      swap1\n      swap2\n      swap1\n      swap2\n      swap1\n      swap2\n      pop\n      0x00\n      dup3\n      add\n      mload\n      dup2\n      0x00\n      add\n      exp(0x0100, 0x00)\n      dup2\n      sload\n      dup2\n      0xffffffffffffffffffffffffffffffffffffffff\n      mul\n      not\n      and\n      swap1\n      dup4\n      0xffffffffffffffffffffffffffffffffffffffff\n      and\n      mul\n      or\n      swap1\n      sstore\n      pop\n      0x20\n      dup3\n      add\n      mload\n      dup2\n      0x01\n      add\n      exp(0x0100, 0x00)\n      dup2\n      sload\n      dup2\n      0xffffffffffffffffffffffffffffffffffffffff\n      mul\n      not\n      and\n      swap1\n      dup4\n      0xffffffffffffffffffffffffffffffffffffffff\n      and\n      mul\n      or\n      swap1\n      sstore\n      pop\n      0x40\n      dup3\n      add\n      mload\n      dup2\n      0x02\n      add\n      sstore\n      0x60\n      dup3\n      add\n      mload\n      dup2\n      0x03\n      add\n      exp(0x0100, 0x00)\n      dup2\n      sload\n      dup2\n      0xffffffff\n      mul\n      not\n      and\n      swap1\n      dup4\n      0xffffffff\n      and\n      mul\n      or\n      swap1\n      sstore\n      pop\n      pop\n      pop\n        /* \"contracts/IREC/IRECMarketplace.sol\":4221:4234  fractionToken */\n      0x02\n      0x00\n      swap1\n      sload\n      swap1\n      0x0100\n      exp\n      swap1\n      div\n      0xffffffffffffffffffffffffffffffffffffffff\n      and\n        /* \"contracts/IREC/IRECMarketplace.sol\":4221:4243  fractionToken.transfer */\n      0xffffffffffffffffffffffffffffffffffffffff\n      and\n      0xa9059cbb\n        /* \"contracts/IREC/IRECMarketplace.sol\":4244:4254  msg.sender */\n      caller\n        /* \"contracts/IREC/IRECMarketplace.sol\":4256:4263  listing */\n      dup4\n        /* \"contracts/IREC/IRECMarketplace.sol\":4256:4270  listing.amount */\n      0x20\n      add\n      mload\n        /* \"contracts/IREC/IRECMarketplace.sol\":4221:4271  fractionToken.transfer(msg.sender, listing.amount) */\n      mload(0x40)\n      dup4\n      0xffffffff\n      and\n      0xe0\n      shl\n      dup2\n      mstore\n      0x04\n      add\n      tag_125\n      swap3\n      swap2\n      swap1\n      tag_126\n      jump\t// in\n    tag_125:\n      0x20\n      mload(0x40)\n      dup1\n      dup4\n      sub\n      dup2\n      0x00\n      dup8\n      gas\n      call\n      iszero\n      dup1\n      iszero\n      tag_128\n      jumpi\n      returndatasize\n      0x00\n      dup1\n      returndatacopy\n      revert(0x00, returndatasize)\n    tag_128:\n      pop\n      pop\n      pop\n      pop\n      mload(0x40)\n      returndatasize\n      not(0x1f)\n      0x1f\n      dup3\n      add\n      and\n      dup3\n      add\n      dup1\n      0x40\n      mstore\n      pop\n      dup2\n      add\n      swap1\n      tag_129\n      swap2\n      swap1\n      tag_130\n      jump\t// in\n    tag_129:\n      pop\n        /* \"contracts/IREC/IRECMarketplace.sol\":4314:4321  listing */\n      dup1\n        /* \"contracts/IREC/IRECMarketplace.sol\":4314:4328  listing.seller */\n      0x00\n      add\n      mload\n        /* \"contracts/IREC/IRECMarketplace.sol\":4306:4338  payable(listing.seller).transfer */\n      0xffffffffffffffffffffffffffffffffffffffff\n      and\n        /* \"contracts/IREC/IRECMarketplace.sol\":4306:4349  payable(listing.seller).transfer(msg.value) */\n      0x08fc\n        /* \"contracts/IREC/IRECMarketplace.sol\":4339:4348  msg.value */\n      callvalue\n        /* \"contracts/IREC/IRECMarketplace.sol\":4306:4349  payable(listing.seller).transfer(msg.value) */\n      swap1\n      dup2\n      iszero\n      mul\n      swap1\n      mload(0x40)\n      0x00\n      mload(0x40)\n      dup1\n      dup4\n      sub\n      dup2\n      dup6\n      dup9\n      dup9\n      call\n      swap4\n      pop\n      pop\n      pop\n      pop\n      iszero\n      dup1\n      iszero\n      tag_132\n      jumpi\n      returndatasize\n      0x00\n      dup1\n      returndatacopy\n      revert(0x00, returndatasize)\n    tag_132:\n      pop\n        /* \"contracts/IREC/IRECMarketplace.sol\":4399:4404  false */\n      0x00\n        /* \"contracts/IREC/IRECMarketplace.sol\":4362:4370  listings */\n      0x07\n        /* \"contracts/IREC/IRECMarketplace.sol\":4362:4378  listings['IREC'] */\n      mload(0x40)\n      tag_133\n      swap1\n      tag_114\n      jump\t// in\n    tag_133:\n      swap1\n      dup2\n      mstore\n      0x20\n      add\n      mload(0x40)\n      dup1\n      swap2\n      sub\n      swap1\n      keccak256\n        /* \"contracts/IREC/IRECMarketplace.sol\":4362:4389  listings['IREC'][listingId] */\n      0x00\n        /* \"contracts/IREC/IRECMarketplace.sol\":4379:4388  listingId */\n      dup5\n        /* \"contracts/IREC/IRECMarketplace.sol\":4362:4389  listings['IREC'][listingId] */\n      dup2\n      mstore\n      0x20\n      add\n      swap1\n      dup2\n      mstore\n      0x20\n      add\n      0x00\n      keccak256\n        /* \"contracts/IREC/IRECMarketplace.sol\":4362:4396  listings['IREC'][listingId].active */\n      0x03\n      add\n      0x00\n        /* \"contracts/IREC/IRECMarketplace.sol\":4362:4404  listings['IREC'][listingId].active = false */\n      0x0100\n      exp\n      dup2\n      sload\n      dup2\n      0xff\n      mul\n      not\n      and\n      swap1\n      dup4\n      iszero\n      iszero\n      mul\n      or\n      swap1\n      sstore\n      pop\n        /* \"contracts/IREC/IRECMarketplace.sol\":4453:4463  msg.sender */\n      caller\n        /* \"contracts/IREC/IRECMarketplace.sol\":4422:4503  TokenPurchased(listing.seller, msg.sender, listing.amount, listing.pricePerToken) */\n      0xffffffffffffffffffffffffffffffffffffffff\n      and\n        /* \"contracts/IREC/IRECMarketplace.sol\":4437:4444  listing */\n      dup2\n        /* \"contracts/IREC/IRECMarketplace.sol\":4437:4451  listing.seller */\n      0x00\n      add\n      mload\n        /* \"contracts/IREC/IRECMarketplace.sol\":4422:4503  TokenPurchased(listing.seller, msg.sender, listing.amount, listing.pricePerToken) */\n      0xffffffffffffffffffffffffffffffffffffffff\n      and\n      0x8daf503382665d950e449b86172be5222275c90f4ddf69c29fdaa8237a562a6d\n        /* \"contracts/IREC/IRECMarketplace.sol\":4465:4472  listing */\n      dup4\n        /* \"contracts/IREC/IRECMarketplace.sol\":4465:4479  listing.amount */\n      0x20\n      add\n      mload\n        /* \"contracts/IREC/IRECMarketplace.sol\":4481:4488  listing */\n      dup5\n        /* \"contracts/IREC/IRECMarketplace.sol\":4481:4502  listing.pricePerToken */\n      0x40\n      add\n      mload\n        /* \"contracts/IREC/IRECMarketplace.sol\":4422:4503  TokenPurchased(listing.seller, msg.sender, listing.amount, listing.pricePerToken) */\n      mload(0x40)\n      tag_134\n      swap3\n      swap2\n      swap1\n      tag_135\n      jump\t// in\n    tag_134:\n      mload(0x40)\n      dup1\n      swap2\n      sub\n      swap1\n      log3\n        /* \"contracts/IREC/IRECMarketplace.sol\":3730:4511  {... */\n      pop\n        /* \"@openzeppelin/contracts/utils/ReentrancyGuard.sol\":2542:2562  _nonReentrantAfter() */\n      tag_136\n        /* \"@openzeppelin/contracts/utils/ReentrancyGuard.sol\":2542:2560  _nonReentrantAfter */\n      tag_137\n        /* \"@openzeppelin/contracts/utils/ReentrancyGuard.sol\":2542:2562  _nonReentrantAfter() */\n      jump\t// in\n    tag_136:\n        /* \"contracts/IREC/IRECMarketplace.sol\":3655:4511  function purchaseFromListing(uint listingId) external payable nonReentrant {... */\n      pop\n      jump\t// out\n        /* \"contracts/IREC/IRECMarketplace.sol\":387:414  IERC20 public fractionToken */\n    tag_29:\n      0x02\n      0x00\n      swap1\n      sload\n      swap1\n      0x0100\n      exp\n      swap1\n      div\n      0xffffffffffffffffffffffffffffffffffffffff\n      and\n      dup2\n      jump\t// out\n        /* \"contracts/IREC/IRECMarketplace.sol\":1819:1930  function configureSale(uint256 _pricePerToken) external onlyOwner {... */\n    tag_35:\n        /* \"@openzeppelin/contracts/access/Ownable.sol\":1531:1544  _checkOwner() */\n      tag_139\n        /* \"@openzeppelin/contracts/access/Ownable.sol\":1531:1542  _checkOwner */\n      tag_140\n        /* \"@openzeppelin/contracts/access/Ownable.sol\":1531:1544  _checkOwner() */\n      jump\t// in\n    tag_139:\n        /* \"contracts/IREC/IRECMarketplace.sol\":1908:1922  _pricePerToken */\n      dup1\n        /* \"contracts/IREC/IRECMarketplace.sol\":1896:1905  salePrice */\n      0x04\n        /* \"contracts/IREC/IRECMarketplace.sol\":1896:1922  salePrice = _pricePerToken */\n      dup2\n      swap1\n      sstore\n      pop\n        /* \"contracts/IREC/IRECMarketplace.sol\":1819:1930  function configureSale(uint256 _pricePerToken) external onlyOwner {... */\n      pop\n      jump\t// out\n        /* \"contracts/IREC/IRECMarketplace.sol\":2010:2175  function depositReserveTokens() external nonReentrant onlyOwner {... */\n    tag_38:\n        /* \"@openzeppelin/contracts/utils/ReentrancyGuard.sol\":2500:2521  _nonReentrantBefore() */\n      tag_143\n        /* \"@openzeppelin/contracts/utils/ReentrancyGuard.sol\":2500:2519  _nonReentrantBefore */\n      tag_111\n        /* \"@openzeppelin/contracts/utils/ReentrancyGuard.sol\":2500:2521  _nonReentrantBefore() */\n      jump\t// in\n    tag_143:\n        /* \"@openzeppelin/contracts/access/Ownable.sol\":1531:1544  _checkOwner() */\n      tag_145\n        /* \"@openzeppelin/contracts/access/Ownable.sol\":1531:1542  _checkOwner */\n      tag_140\n        /* \"@openzeppelin/contracts/access/Ownable.sol\":1531:1544  _checkOwner() */\n      jump\t// in\n    tag_145:\n        /* \"contracts/IREC/IRECMarketplace.sol\":2085:2098  fractionToken */\n      0x02\n      0x00\n      swap1\n      sload\n      swap1\n      0x0100\n      exp\n      swap1\n      div\n      0xffffffffffffffffffffffffffffffffffffffff\n      and\n        /* \"contracts/IREC/IRECMarketplace.sol\":2085:2111  fractionToken.transferFrom */\n      0xffffffffffffffffffffffffffffffffffffffff\n      and\n      0x23b872dd\n        /* \"contracts/IREC/IRECMarketplace.sol\":2112:2122  msg.sender */\n      caller\n        /* \"contracts/IREC/IRECMarketplace.sol\":2132:2136  this */\n      address\n        /* \"contracts/IREC/IRECMarketplace.sol\":2139:2152  fractionToken */\n      0x02\n      0x00\n      swap1\n      sload\n      swap1\n      0x0100\n      exp\n      swap1\n      div\n      0xffffffffffffffffffffffffffffffffffffffff\n      and\n        /* \"contracts/IREC/IRECMarketplace.sol\":2139:2164  fractionToken.totalSupply */\n      0xffffffffffffffffffffffffffffffffffffffff\n      and\n      0x18160ddd\n        /* \"contracts/IREC/IRECMarketplace.sol\":2139:2166  fractionToken.totalSupply() */\n      mload(0x40)\n      dup2\n      0xffffffff\n      and\n      0xe0\n      shl\n      dup2\n      mstore\n      0x04\n      add\n      0x20\n      mload(0x40)\n      dup1\n      dup4\n      sub\n      dup2\n      dup7\n      gas\n      staticcall\n      iszero\n      dup1\n      iszero\n      tag_148\n      jumpi\n      returndatasize\n      0x00\n      dup1\n      returndatacopy\n      revert(0x00, returndatasize)\n    tag_148:\n      pop\n      pop\n      pop\n      pop\n      mload(0x40)\n      returndatasize\n      not(0x1f)\n      0x1f\n      dup3\n      add\n      and\n      dup3\n      add\n      dup1\n      0x40\n      mstore\n      pop\n      dup2\n      add\n      swap1\n      tag_149\n      swap2\n      swap1\n      tag_150\n      jump\t// in\n    tag_149:\n        /* \"contracts/IREC/IRECMarketplace.sol\":2085:2167  fractionToken.transferFrom(msg.sender, address(this), fractionToken.totalSupply()) */\n      mload(0x40)\n      dup5\n      0xffffffff\n      and\n      0xe0\n      shl\n      dup2\n      mstore\n      0x04\n      add\n      tag_151\n      swap4\n      swap3\n      swap2\n      swap1\n      tag_152\n      jump\t// in\n    tag_151:\n      0x20\n      mload(0x40)\n      dup1\n      dup4\n      sub\n      dup2\n      0x00\n      dup8\n      gas\n      call\n      iszero\n      dup1\n      iszero\n      tag_154\n      jumpi\n      returndatasize\n      0x00\n      dup1\n      returndatacopy\n      revert(0x00, returndatasize)\n    tag_154:\n      pop\n      pop\n      pop\n      pop\n      mload(0x40)\n      returndatasize\n      not(0x1f)\n      0x1f\n      dup3\n      add\n      and\n      dup3\n      add\n      dup1\n      0x40\n      mstore\n      pop\n      dup2\n      add\n      swap1\n      tag_155\n      swap2\n      swap1\n      tag_130\n      jump\t// in\n    tag_155:\n      pop\n        /* \"@openzeppelin/contracts/utils/ReentrancyGuard.sol\":2542:2562  _nonReentrantAfter() */\n      tag_156\n        /* \"@openzeppelin/contracts/utils/ReentrancyGuard.sol\":2542:2560  _nonReentrantAfter */\n      tag_137\n        /* \"@openzeppelin/contracts/utils/ReentrancyGuard.sol\":2542:2562  _nonReentrantAfter() */\n      jump\t// in\n    tag_156:\n        /* \"contracts/IREC/IRECMarketplace.sol\":2010:2175  function depositReserveTokens() external nonReentrant onlyOwner {... */\n      jump\t// out\n        /* \"contracts/IREC/IRECMarketplace.sol\":2227:2981  function purchaseFromReserve(uint16 _amount) external payable nonReentrant {... */\n    tag_42:\n        /* \"@openzeppelin/contracts/utils/ReentrancyGuard.sol\":2500:2521  _nonReentrantBefore() */\n      tag_158\n        /* \"@openzeppelin/contracts/utils/ReentrancyGuard.sol\":2500:2519  _nonReentrantBefore */\n      tag_111\n        /* \"@openzeppelin/contracts/utils/ReentrancyGuard.sol\":2500:2521  _nonReentrantBefore() */\n      jump\t// in\n    tag_158:\n        /* \"contracts/IREC/IRECMarketplace.sol\":2321:2331  saleActive */\n      0x05\n      0x00\n      swap1\n      sload\n      swap1\n      0x0100\n      exp\n      swap1\n      div\n      0xff\n      and\n        /* \"contracts/IREC/IRECMarketplace.sol\":2313:2351  require(saleActive, \"Sale not active\") */\n      tag_160\n      jumpi\n      mload(0x40)\n      0x08c379a000000000000000000000000000000000000000000000000000000000\n      dup2\n      mstore\n      0x04\n      add\n      tag_161\n      swap1\n      tag_162\n      jump\t// in\n    tag_161:\n      mload(0x40)\n      dup1\n      swap2\n      sub\n      swap1\n      revert\n    tag_160:\n        /* \"contracts/IREC/IRECMarketplace.sol\":2382:2383  0 */\n      0x00\n        /* \"contracts/IREC/IRECMarketplace.sol\":2370:2379  msg.value */\n      callvalue\n        /* \"contracts/IREC/IRECMarketplace.sol\":2370:2383  msg.value > 0 */\n      gt\n        /* \"contracts/IREC/IRECMarketplace.sol\":2370:2419  msg.value > 0 && msg.value == salePrice * _amount */\n      dup1\n      iszero\n      tag_163\n      jumpi\n      pop\n        /* \"contracts/IREC/IRECMarketplace.sol\":2412:2419  _amount */\n      dup1\n        /* \"contracts/IREC/IRECMarketplace.sol\":2400:2419  salePrice * _amount */\n      0xffff\n      and\n        /* \"contracts/IREC/IRECMarketplace.sol\":2400:2409  salePrice */\n      sload(0x04)\n        /* \"contracts/IREC/IRECMarketplace.sol\":2400:2419  salePrice * _amount */\n      tag_164\n      swap2\n      swap1\n      tag_119\n      jump\t// in\n    tag_164:\n        /* \"contracts/IREC/IRECMarketplace.sol\":2387:2396  msg.value */\n      callvalue\n        /* \"contracts/IREC/IRECMarketplace.sol\":2387:2419  msg.value == salePrice * _amount */\n      eq\n        /* \"contracts/IREC/IRECMarketplace.sol\":2370:2419  msg.value > 0 && msg.value == salePrice * _amount */\n    tag_163:\n        /* \"contracts/IREC/IRECMarketplace.sol\":2362:2437  require(msg.value > 0 && msg.value == salePrice * _amount, \"Must send ETH\") */\n      tag_165\n      jumpi\n      mload(0x40)\n      0x08c379a000000000000000000000000000000000000000000000000000000000\n      dup2\n      mstore\n      0x04\n      add\n      tag_166\n      swap1\n      tag_167\n      jump\t// in\n    tag_166:\n      mload(0x40)\n      dup1\n      swap2\n      sub\n      swap1\n      revert\n    tag_165:\n        /* \"contracts/IREC/IRECMarketplace.sol\":2458:2477  uint256 tokenAmount */\n      0x00\n        /* \"contracts/IREC/IRECMarketplace.sol\":2492:2501  salePrice */\n      sload(0x04)\n        /* \"contracts/IREC/IRECMarketplace.sol\":2480:2489  msg.value */\n      callvalue\n        /* \"contracts/IREC/IRECMarketplace.sol\":2480:2501  msg.value / salePrice */\n      tag_168\n      swap2\n      swap1\n      tag_169\n      jump\t// in\n    tag_168:\n        /* \"contracts/IREC/IRECMarketplace.sol\":2458:2501  uint256 tokenAmount = msg.value / salePrice */\n      swap1\n      pop\n        /* \"contracts/IREC/IRECMarketplace.sol\":2534:2535  0 */\n      0x00\n        /* \"contracts/IREC/IRECMarketplace.sol\":2520:2531  tokenAmount */\n      dup2\n        /* \"contracts/IREC/IRECMarketplace.sol\":2520:2535  tokenAmount > 0 */\n      gt\n        /* \"contracts/IREC/IRECMarketplace.sol\":2512:2559  require(tokenAmount > 0, \"Not enough ETH sent\") */\n      tag_170\n      jumpi\n      mload(0x40)\n      0x08c379a000000000000000000000000000000000000000000000000000000000\n      dup2\n      mstore\n      0x04\n      add\n      tag_171\n      swap1\n      tag_172\n      jump\t// in\n    tag_171:\n      mload(0x40)\n      dup1\n      swap2\n      sub\n      swap1\n      revert\n    tag_170:\n        /* \"contracts/IREC/IRECMarketplace.sol\":2572:2582  ownerships */\n      0x06\n        /* \"contracts/IREC/IRECMarketplace.sol\":2572:2590  ownerships['IREC'] */\n      mload(0x40)\n      tag_173\n      swap1\n      tag_114\n      jump\t// in\n    tag_173:\n      swap1\n      dup2\n      mstore\n      0x20\n      add\n      mload(0x40)\n      dup1\n      swap2\n      sub\n      swap1\n      keccak256\n        /* \"contracts/IREC/IRECMarketplace.sol\":2596:2764  Ownership({... */\n      mload(0x40)\n      dup1\n      0x80\n      add\n      0x40\n      mstore\n      dup1\n        /* \"contracts/IREC/IRECMarketplace.sol\":2635:2639  this */\n      address\n        /* \"contracts/IREC/IRECMarketplace.sol\":2596:2764  Ownership({... */\n      0xffffffffffffffffffffffffffffffffffffffff\n      and\n      dup2\n      mstore\n      0x20\n      add\n        /* \"contracts/IREC/IRECMarketplace.sol\":2660:2670  msg.sender */\n      caller\n        /* \"contracts/IREC/IRECMarketplace.sol\":2596:2764  Ownership({... */\n      0xffffffffffffffffffffffffffffffffffffffff\n      and\n      dup2\n      mstore\n      0x20\n      add\n        /* \"contracts/IREC/IRECMarketplace.sol\":2695:2702  _amount */\n      dup5\n        /* \"contracts/IREC/IRECMarketplace.sol\":2596:2764  Ownership({... */\n      0xffff\n      and\n      dup2\n      mstore\n      0x20\n      add\n        /* \"contracts/IREC/IRECMarketplace.sol\":2736:2751  block.timestamp */\n      timestamp\n        /* \"contracts/IREC/IRECMarketplace.sol\":2596:2764  Ownership({... */\n      0xffffffff\n      and\n      dup2\n      mstore\n      pop\n        /* \"contracts/IREC/IRECMarketplace.sol\":2572:2765  ownerships['IREC'].push(Ownership({... */\n      swap1\n      dup1\n      0x01\n      dup2\n      sload\n      add\n      dup1\n      dup3\n      sstore\n      dup1\n      swap2\n      pop\n      pop\n      0x01\n      swap1\n      sub\n      swap1\n      0x00\n      mstore\n      keccak256(0x00, 0x20)\n      swap1\n      0x04\n      mul\n      add\n      0x00\n      swap1\n      swap2\n      swap1\n      swap2\n      swap1\n      swap2\n      pop\n      0x00\n      dup3\n      add\n      mload\n      dup2\n      0x00\n      add\n      exp(0x0100, 0x00)\n      dup2\n      sload\n      dup2\n      0xffffffffffffffffffffffffffffffffffffffff\n      mul\n      not\n      and\n      swap1\n      dup4\n      0xffffffffffffffffffffffffffffffffffffffff\n      and\n      mul\n      or\n      swap1\n      sstore\n      pop\n      0x20\n      dup3\n      add\n      mload\n      dup2\n      0x01\n      add\n      exp(0x0100, 0x00)\n      dup2\n      sload\n      dup2\n      0xffffffffffffffffffffffffffffffffffffffff\n      mul\n      not\n      and\n      swap1\n      dup4\n      0xffffffffffffffffffffffffffffffffffffffff\n      and\n      mul\n      or\n      swap1\n      sstore\n      pop\n      0x40\n      dup3\n      add\n      mload\n      dup2\n      0x02\n      add\n      sstore\n      0x60\n      dup3\n      add\n      mload\n      dup2\n      0x03\n      add\n      exp(0x0100, 0x00)\n      dup2\n      sload\n      dup2\n      0xffffffff\n      mul\n      not\n      and\n      swap1\n      dup4\n      0xffffffff\n      and\n      mul\n      or\n      swap1\n      sstore\n      pop\n      pop\n      pop\n        /* \"contracts/IREC/IRECMarketplace.sol\":2847:2860  fractionToken */\n      0x02\n      0x00\n      swap1\n      sload\n      swap1\n      0x0100\n      exp\n      swap1\n      div\n      0xffffffffffffffffffffffffffffffffffffffff\n      and\n        /* \"contracts/IREC/IRECMarketplace.sol\":2847:2869  fractionToken.transfer */\n      0xffffffffffffffffffffffffffffffffffffffff\n      and\n      0xa9059cbb\n        /* \"contracts/IREC/IRECMarketplace.sol\":2870:2880  msg.sender */\n      caller\n        /* \"contracts/IREC/IRECMarketplace.sol\":2882:2893  tokenAmount */\n      dup4\n        /* \"contracts/IREC/IRECMarketplace.sol\":2847:2894  fractionToken.transfer(msg.sender, tokenAmount) */\n      mload(0x40)\n      dup4\n      0xffffffff\n      and\n      0xe0\n      shl\n      dup2\n      mstore\n      0x04\n      add\n      tag_175\n      swap3\n      swap2\n      swap1\n      tag_126\n      jump\t// in\n    tag_175:\n      0x20\n      mload(0x40)\n      dup1\n      dup4\n      sub\n      dup2\n      0x00\n      dup8\n      gas\n      call\n      iszero\n      dup1\n      iszero\n      tag_177\n      jumpi\n      returndatasize\n      0x00\n      dup1\n      returndatacopy\n      revert(0x00, returndatasize)\n    tag_177:\n      pop\n      pop\n      pop\n      pop\n      mload(0x40)\n      returndatasize\n      not(0x1f)\n      0x1f\n      dup3\n      add\n      and\n      dup3\n      add\n      dup1\n      0x40\n      mstore\n      pop\n      dup2\n      add\n      swap1\n      tag_178\n      swap2\n      swap1\n      tag_130\n      jump\t// in\n    tag_178:\n      pop\n        /* \"contracts/IREC/IRECMarketplace.sol\":2942:2952  msg.sender */\n      caller\n        /* \"contracts/IREC/IRECMarketplace.sol\":2912:2973  TokenPurchased(address(this), msg.sender, _amount, salePrice) */\n      0xffffffffffffffffffffffffffffffffffffffff\n      and\n        /* \"contracts/IREC/IRECMarketplace.sol\":2935:2939  this */\n      address\n        /* \"contracts/IREC/IRECMarketplace.sol\":2912:2973  TokenPurchased(address(this), msg.sender, _amount, salePrice) */\n      0xffffffffffffffffffffffffffffffffffffffff\n      and\n      0x8daf503382665d950e449b86172be5222275c90f4ddf69c29fdaa8237a562a6d\n        /* \"contracts/IREC/IRECMarketplace.sol\":2954:2961  _amount */\n      dup5\n        /* \"contracts/IREC/IRECMarketplace.sol\":2963:2972  salePrice */\n      sload(0x04)\n        /* \"contracts/IREC/IRECMarketplace.sol\":2912:2973  TokenPurchased(address(this), msg.sender, _amount, salePrice) */\n      mload(0x40)\n      tag_179\n      swap3\n      swap2\n      swap1\n      tag_180\n      jump\t// in\n    tag_179:\n      mload(0x40)\n      dup1\n      swap2\n      sub\n      swap1\n      log3\n        /* \"contracts/IREC/IRECMarketplace.sol\":2302:2981  {... */\n      pop\n        /* \"@openzeppelin/contracts/utils/ReentrancyGuard.sol\":2542:2562  _nonReentrantAfter() */\n      tag_181\n        /* \"@openzeppelin/contracts/utils/ReentrancyGuard.sol\":2542:2560  _nonReentrantAfter */\n      tag_137\n        /* \"@openzeppelin/contracts/utils/ReentrancyGuard.sol\":2542:2562  _nonReentrantAfter() */\n      jump\t// in\n    tag_181:\n        /* \"contracts/IREC/IRECMarketplace.sol\":2227:2981  function purchaseFromReserve(uint16 _amount) external payable nonReentrant {... */\n      pop\n      jump\t// out\n        /* \"contracts/IREC/IRECMarketplace.sol\":569:598  bool public saleActive = true */\n    tag_45:\n      0x05\n      0x00\n      swap1\n      sload\n      swap1\n      0x0100\n      exp\n      swap1\n      div\n      0xff\n      and\n      dup2\n      jump\t// out\n        /* \"@openzeppelin/contracts/access/Ownable.sol\":2293:2394  function renounceOwnership() public virtual onlyOwner {... */\n    tag_50:\n        /* \"@openzeppelin/contracts/access/Ownable.sol\":1531:1544  _checkOwner() */\n      tag_183\n        /* \"@openzeppelin/contracts/access/Ownable.sol\":1531:1542  _checkOwner */\n      tag_140\n        /* \"@openzeppelin/contracts/access/Ownable.sol\":1531:1544  _checkOwner() */\n      jump\t// in\n    tag_183:\n        /* \"@openzeppelin/contracts/access/Ownable.sol\":2357:2387  _transferOwnership(address(0)) */\n      tag_185\n        /* \"@openzeppelin/contracts/access/Ownable.sol\":2384:2385  0 */\n      0x00\n        /* \"@openzeppelin/contracts/access/Ownable.sol\":2357:2375  _transferOwnership */\n      tag_186\n        /* \"@openzeppelin/contracts/access/Ownable.sol\":2357:2387  _transferOwnership(address(0)) */\n      jump\t// in\n    tag_185:\n        /* \"@openzeppelin/contracts/access/Ownable.sol\":2293:2394  function renounceOwnership() public virtual onlyOwner {... */\n      jump\t// out\n        /* \"contracts/IREC/IRECMarketplace.sol\":3019:3611  function listToken(uint256 _amount, uint _price) external nonReentrant {... */\n    tag_55:\n        /* \"@openzeppelin/contracts/utils/ReentrancyGuard.sol\":2500:2521  _nonReentrantBefore() */\n      tag_188\n        /* \"@openzeppelin/contracts/utils/ReentrancyGuard.sol\":2500:2519  _nonReentrantBefore */\n      tag_111\n        /* \"@openzeppelin/contracts/utils/ReentrancyGuard.sol\":2500:2521  _nonReentrantBefore() */\n      jump\t// in\n    tag_188:\n        /* \"contracts/IREC/IRECMarketplace.sol\":3148:3155  _amount */\n      dup2\n        /* \"contracts/IREC/IRECMarketplace.sol\":3109:3122  fractionToken */\n      0x02\n      0x00\n      swap1\n      sload\n      swap1\n      0x0100\n      exp\n      swap1\n      div\n      0xffffffffffffffffffffffffffffffffffffffff\n      and\n        /* \"contracts/IREC/IRECMarketplace.sol\":3109:3132  fractionToken.balanceOf */\n      0xffffffffffffffffffffffffffffffffffffffff\n      and\n      0x70a08231\n        /* \"contracts/IREC/IRECMarketplace.sol\":3133:3143  msg.sender */\n      caller\n        /* \"contracts/IREC/IRECMarketplace.sol\":3109:3144  fractionToken.balanceOf(msg.sender) */\n      mload(0x40)\n      dup3\n      0xffffffff\n      and\n      0xe0\n      shl\n      dup2\n      mstore\n      0x04\n      add\n      tag_190\n      swap2\n      swap1\n      tag_65\n      jump\t// in\n    tag_190:\n      0x20\n      mload(0x40)\n      dup1\n      dup4\n      sub\n      dup2\n      dup7\n      gas\n      staticcall\n      iszero\n      dup1\n      iszero\n      tag_192\n      jumpi\n      returndatasize\n      0x00\n      dup1\n      returndatacopy\n      revert(0x00, returndatasize)\n    tag_192:\n      pop\n      pop\n      pop\n      pop\n      mload(0x40)\n      returndatasize\n      not(0x1f)\n      0x1f\n      dup3\n      add\n      and\n      dup3\n      add\n      dup1\n      0x40\n      mstore\n      pop\n      dup2\n      add\n      swap1\n      tag_193\n      swap2\n      swap1\n      tag_150\n      jump\t// in\n    tag_193:\n        /* \"contracts/IREC/IRECMarketplace.sol\":3109:3155  fractionToken.balanceOf(msg.sender) >= _amount */\n      lt\n      iszero\n        /* \"contracts/IREC/IRECMarketplace.sol\":3101:3188  require(fractionToken.balanceOf(msg.sender) >= _amount, 'Insufficient Tokens To List!') */\n      tag_194\n      jumpi\n      mload(0x40)\n      0x08c379a000000000000000000000000000000000000000000000000000000000\n      dup2\n      mstore\n      0x04\n      add\n      tag_195\n      swap1\n      tag_196\n      jump\t// in\n    tag_195:\n      mload(0x40)\n      dup1\n      swap2\n      sub\n      swap1\n      revert\n    tag_194:\n        /* \"contracts/IREC/IRECMarketplace.sol\":3201:3213  listingCount */\n      0x08\n      0x00\n        /* \"contracts/IREC/IRECMarketplace.sol\":3201:3215  listingCount++ */\n      dup2\n      sload\n      dup1\n      swap3\n      swap2\n      swap1\n      tag_197\n      swap1\n      tag_198\n      jump\t// in\n    tag_197:\n      swap2\n      swap1\n      pop\n      sstore\n      pop\n        /* \"contracts/IREC/IRECMarketplace.sol\":3284:3432  Listing({... */\n      mload(0x40)\n      dup1\n      0x80\n      add\n      0x40\n      mstore\n      dup1\n        /* \"contracts/IREC/IRECMarketplace.sol\":3315:3325  msg.sender */\n      caller\n        /* \"contracts/IREC/IRECMarketplace.sol\":3284:3432  Listing({... */\n      0xffffffffffffffffffffffffffffffffffffffff\n      and\n      dup2\n      mstore\n      0x20\n      add\n        /* \"contracts/IREC/IRECMarketplace.sol\":3349:3356  _amount */\n      dup4\n        /* \"contracts/IREC/IRECMarketplace.sol\":3284:3432  Listing({... */\n      dup2\n      mstore\n      0x20\n      add\n        /* \"contracts/IREC/IRECMarketplace.sol\":3386:3392  _price */\n      dup3\n        /* \"contracts/IREC/IRECMarketplace.sol\":3284:3432  Listing({... */\n      dup2\n      mstore\n      0x20\n      add\n        /* \"contracts/IREC/IRECMarketplace.sol\":3416:3420  true */\n      0x01\n        /* \"contracts/IREC/IRECMarketplace.sol\":3284:3432  Listing({... */\n      iszero\n      iszero\n      dup2\n      mstore\n      pop\n        /* \"contracts/IREC/IRECMarketplace.sol\":3251:3259  listings */\n      0x07\n        /* \"contracts/IREC/IRECMarketplace.sol\":3251:3267  listings['IREC'] */\n      mload(0x40)\n      tag_199\n      swap1\n      tag_114\n      jump\t// in\n    tag_199:\n      swap1\n      dup2\n      mstore\n      0x20\n      add\n      mload(0x40)\n      dup1\n      swap2\n      sub\n      swap1\n      keccak256\n        /* \"contracts/IREC/IRECMarketplace.sol\":3251:3281  listings['IREC'][listingCount] */\n      0x00\n        /* \"contracts/IREC/IRECMarketplace.sol\":3268:3280  listingCount */\n      sload(0x08)\n        /* \"contracts/IREC/IRECMarketplace.sol\":3251:3281  listings['IREC'][listingCount] */\n      dup2\n      mstore\n      0x20\n      add\n      swap1\n      dup2\n      mstore\n      0x20\n      add\n      0x00\n      keccak256\n        /* \"contracts/IREC/IRECMarketplace.sol\":3251:3432  listings['IREC'][listingCount] = Listing({... */\n      0x00\n      dup3\n      add\n      mload\n      dup2\n      0x00\n      add\n      exp(0x0100, 0x00)\n      dup2\n      sload\n      dup2\n      0xffffffffffffffffffffffffffffffffffffffff\n      mul\n      not\n      and\n      swap1\n      dup4\n      0xffffffffffffffffffffffffffffffffffffffff\n      and\n      mul\n      or\n      swap1\n      sstore\n      pop\n      0x20\n      dup3\n      add\n      mload\n      dup2\n      0x01\n      add\n      sstore\n      0x40\n      dup3\n      add\n      mload\n      dup2\n      0x02\n      add\n      sstore\n      0x60\n      dup3\n      add\n      mload\n      dup2\n      0x03\n      add\n      exp(0x0100, 0x00)\n      dup2\n      sload\n      dup2\n      0xff\n      mul\n      not\n      and\n      swap1\n      dup4\n      iszero\n      iszero\n      mul\n      or\n      swap1\n      sstore\n      pop\n      swap1\n      pop\n      pop\n        /* \"contracts/IREC/IRECMarketplace.sol\":3483:3496  fractionToken */\n      0x02\n      0x00\n      swap1\n      sload\n      swap1\n      0x0100\n      exp\n      swap1\n      div\n      0xffffffffffffffffffffffffffffffffffffffff\n      and\n        /* \"contracts/IREC/IRECMarketplace.sol\":3483:3509  fractionToken.transferFrom */\n      0xffffffffffffffffffffffffffffffffffffffff\n      and\n      0x23b872dd\n        /* \"contracts/IREC/IRECMarketplace.sol\":3510:3520  msg.sender */\n      caller\n        /* \"contracts/IREC/IRECMarketplace.sol\":3530:3534  this */\n      address\n        /* \"contracts/IREC/IRECMarketplace.sol\":3537:3544  _amount */\n      dup6\n        /* \"contracts/IREC/IRECMarketplace.sol\":3483:3545  fractionToken.transferFrom(msg.sender, address(this), _amount) */\n      mload(0x40)\n      dup5\n      0xffffffff\n      and\n      0xe0\n      shl\n      dup2\n      mstore\n      0x04\n      add\n      tag_200\n      swap4\n      swap3\n      swap2\n      swap1\n      tag_152\n      jump\t// in\n    tag_200:\n      0x20\n      mload(0x40)\n      dup1\n      dup4\n      sub\n      dup2\n      0x00\n      dup8\n      gas\n      call\n      iszero\n      dup1\n      iszero\n      tag_202\n      jumpi\n      returndatasize\n      0x00\n      dup1\n      returndatacopy\n      revert(0x00, returndatasize)\n    tag_202:\n      pop\n      pop\n      pop\n      pop\n      mload(0x40)\n      returndatasize\n      not(0x1f)\n      0x1f\n      dup3\n      add\n      and\n      dup3\n      add\n      dup1\n      0x40\n      mstore\n      pop\n      dup2\n      add\n      swap1\n      tag_203\n      swap2\n      swap1\n      tag_130\n      jump\t// in\n    tag_203:\n      pop\n        /* \"contracts/IREC/IRECMarketplace.sol\":3575:3585  msg.sender */\n      caller\n        /* \"contracts/IREC/IRECMarketplace.sol\":3563:3603  TokenListed(msg.sender, _amount, _price) */\n      0xffffffffffffffffffffffffffffffffffffffff\n      and\n      0x5dc96537cbae524775a674b6a810d9a1ba04a9e279f172d156b352151394677a\n        /* \"contracts/IREC/IRECMarketplace.sol\":3587:3594  _amount */\n      dup4\n        /* \"contracts/IREC/IRECMarketplace.sol\":3596:3602  _price */\n      dup4\n        /* \"contracts/IREC/IRECMarketplace.sol\":3563:3603  TokenListed(msg.sender, _amount, _price) */\n      mload(0x40)\n      tag_204\n      swap3\n      swap2\n      swap1\n      tag_135\n      jump\t// in\n    tag_204:\n      mload(0x40)\n      dup1\n      swap2\n      sub\n      swap1\n      log2\n        /* \"@openzeppelin/contracts/utils/ReentrancyGuard.sol\":2542:2562  _nonReentrantAfter() */\n      tag_205\n        /* \"@openzeppelin/contracts/utils/ReentrancyGuard.sol\":2542:2560  _nonReentrantAfter */\n      tag_137\n        /* \"@openzeppelin/contracts/utils/ReentrancyGuard.sol\":2542:2562  _nonReentrantAfter() */\n      jump\t// in\n    tag_205:\n        /* \"contracts/IREC/IRECMarketplace.sol\":3019:3611  function listToken(uint256 _amount, uint _price) external nonReentrant {... */\n      pop\n      pop\n      jump\t// out\n        /* \"contracts/IREC/IRECMarketplace.sol\":4543:4662  function getOwnershipTransfers() public view returns (Ownership[] memory) {... */\n    tag_58:\n        /* \"contracts/IREC/IRECMarketplace.sol\":4597:4615  Ownership[] memory */\n      0x60\n        /* \"contracts/IREC/IRECMarketplace.sol\":4636:4646  ownerships */\n      0x06\n        /* \"contracts/IREC/IRECMarketplace.sol\":4636:4654  ownerships['IREC'] */\n      mload(0x40)\n      tag_207\n      swap1\n      tag_114\n      jump\t// in\n    tag_207:\n      swap1\n      dup2\n      mstore\n      0x20\n      add\n      mload(0x40)\n      dup1\n      swap2\n      sub\n      swap1\n      keccak256\n        /* \"contracts/IREC/IRECMarketplace.sol\":4628:4654  return  ownerships['IREC'] */\n      dup1\n      sload\n      dup1\n      0x20\n      mul\n      0x20\n      add\n      mload(0x40)\n      swap1\n      dup2\n      add\n      0x40\n      mstore\n      dup1\n      swap3\n      swap2\n      swap1\n      dup2\n      dup2\n      mstore\n      0x20\n      add\n      0x00\n      swap1\n    tag_208:\n      dup3\n      dup3\n      lt\n      iszero\n      tag_209\n      jumpi\n      dup4\n      dup3\n      swap1\n      0x00\n      mstore\n      keccak256(0x00, 0x20)\n      swap1\n      0x04\n      mul\n      add\n      mload(0x40)\n      dup1\n      0x80\n      add\n      0x40\n      mstore\n      swap1\n      dup2\n      0x00\n      dup3\n      add\n      0x00\n      swap1\n      sload\n      swap1\n      0x0100\n      exp\n      swap1\n      div\n      0xffffffffffffffffffffffffffffffffffffffff\n      and\n      0xffffffffffffffffffffffffffffffffffffffff\n      and\n      0xffffffffffffffffffffffffffffffffffffffff\n      and\n      dup2\n      mstore\n      0x20\n      add\n      0x01\n      dup3\n      add\n      0x00\n      swap1\n      sload\n      swap1\n      0x0100\n      exp\n      swap1\n      div\n      0xffffffffffffffffffffffffffffffffffffffff\n      and\n      0xffffffffffffffffffffffffffffffffffffffff\n      and\n      0xffffffffffffffffffffffffffffffffffffffff\n      and\n      dup2\n      mstore\n      0x20\n      add\n      0x02\n      dup3\n      add\n      sload\n      dup2\n      mstore\n      0x20\n      add\n      0x03\n      dup3\n      add\n      0x00\n      swap1\n      sload\n      swap1\n      0x0100\n      exp\n      swap1\n      div\n      0xffffffff\n      and\n      0xffffffff\n      and\n      0xffffffff\n      and\n      dup2\n      mstore\n      pop\n      pop\n      dup2\n      mstore\n      0x20\n      add\n      swap1\n      0x01\n      add\n      swap1\n      jump(tag_208)\n    tag_209:\n      pop\n      pop\n      pop\n      pop\n      swap1\n      pop\n        /* \"contracts/IREC/IRECMarketplace.sol\":4543:4662  function getOwnershipTransfers() public view returns (Ownership[] memory) {... */\n      swap1\n      jump\t// out\n        /* \"@openzeppelin/contracts/access/Ownable.sol\":1638:1723  function owner() public view virtual returns (address) {... */\n    tag_63:\n        /* \"@openzeppelin/contracts/access/Ownable.sol\":1684:1691  address */\n      0x00\n        /* \"@openzeppelin/contracts/access/Ownable.sol\":1710:1716  _owner */\n      dup1\n      0x00\n      swap1\n      sload\n      swap1\n      0x0100\n      exp\n      swap1\n      div\n      0xffffffffffffffffffffffffffffffffffffffff\n      and\n        /* \"@openzeppelin/contracts/access/Ownable.sol\":1703:1716  return _owner */\n      swap1\n      pop\n        /* \"@openzeppelin/contracts/access/Ownable.sol\":1638:1723  function owner() public view virtual returns (address) {... */\n      swap1\n      jump\t// out\n        /* \"contracts/IREC/IRECMarketplace.sol\":4697:4827  function getTokenListing(uint listingId) public view returns(Listing memory) {... */\n    tag_69:\n        /* \"contracts/IREC/IRECMarketplace.sol\":4758:4772  Listing memory */\n      tag_212\n      tag_213\n      jump\t// in\n    tag_212:\n        /* \"contracts/IREC/IRECMarketplace.sol\":4792:4800  listings */\n      0x07\n        /* \"contracts/IREC/IRECMarketplace.sol\":4792:4808  listings['IREC'] */\n      mload(0x40)\n      tag_215\n      swap1\n      tag_114\n      jump\t// in\n    tag_215:\n      swap1\n      dup2\n      mstore\n      0x20\n      add\n      mload(0x40)\n      dup1\n      swap2\n      sub\n      swap1\n      keccak256\n        /* \"contracts/IREC/IRECMarketplace.sol\":4792:4819  listings['IREC'][listingId] */\n      0x00\n        /* \"contracts/IREC/IRECMarketplace.sol\":4809:4818  listingId */\n      dup4\n        /* \"contracts/IREC/IRECMarketplace.sol\":4792:4819  listings['IREC'][listingId] */\n      dup2\n      mstore\n      0x20\n      add\n      swap1\n      dup2\n      mstore\n      0x20\n      add\n      0x00\n      keccak256\n        /* \"contracts/IREC/IRECMarketplace.sol\":4785:4819  return listings['IREC'][listingId] */\n      mload(0x40)\n      dup1\n      0x80\n      add\n      0x40\n      mstore\n      swap1\n      dup2\n      0x00\n      dup3\n      add\n      0x00\n      swap1\n      sload\n      swap1\n      0x0100\n      exp\n      swap1\n      div\n      0xffffffffffffffffffffffffffffffffffffffff\n      and\n      0xffffffffffffffffffffffffffffffffffffffff\n      and\n      0xffffffffffffffffffffffffffffffffffffffff\n      and\n      dup2\n      mstore\n      0x20\n      add\n      0x01\n      dup3\n      add\n      sload\n      dup2\n      mstore\n      0x20\n      add\n      0x02\n      dup3\n      add\n      sload\n      dup2\n      mstore\n      0x20\n      add\n      0x03\n      dup3\n      add\n      0x00\n      swap1\n      sload\n      swap1\n      0x0100\n      exp\n      swap1\n      div\n      0xff\n      and\n      iszero\n      iszero\n      iszero\n      iszero\n      dup2\n      mstore\n      pop\n      pop\n      swap1\n      pop\n        /* \"contracts/IREC/IRECMarketplace.sol\":4697:4827  function getTokenListing(uint listingId) public view returns(Listing memory) {... */\n      swap2\n      swap1\n      pop\n      jump\t// out\n        /* \"contracts/IREC/IRECMarketplace.sol\":1584:1779  function getOwnershipPercentage(address owner) public view returns (uint256) {... */\n    tag_76:\n        /* \"contracts/IREC/IRECMarketplace.sol\":1652:1659  uint256 */\n      0x00\n        /* \"contracts/IREC/IRECMarketplace.sol\":1722:1735  fractionToken */\n      0x02\n      0x00\n      swap1\n      sload\n      swap1\n      0x0100\n      exp\n      swap1\n      div\n      0xffffffffffffffffffffffffffffffffffffffff\n      and\n        /* \"contracts/IREC/IRECMarketplace.sol\":1722:1747  fractionToken.totalSupply */\n      0xffffffffffffffffffffffffffffffffffffffff\n      and\n      0x18160ddd\n        /* \"contracts/IREC/IRECMarketplace.sol\":1722:1749  fractionToken.totalSupply() */\n      mload(0x40)\n      dup2\n      0xffffffff\n      and\n      0xe0\n      shl\n      dup2\n      mstore\n      0x04\n      add\n      0x20\n      mload(0x40)\n      dup1\n      dup4\n      sub\n      dup2\n      dup7\n      gas\n      staticcall\n      iszero\n      dup1\n      iszero\n      tag_218\n      jumpi\n      returndatasize\n      0x00\n      dup1\n      returndatacopy\n      revert(0x00, returndatasize)\n    tag_218:\n      pop\n      pop\n      pop\n      pop\n      mload(0x40)\n      returndatasize\n      not(0x1f)\n      0x1f\n      dup3\n      add\n      and\n      dup3\n      add\n      dup1\n      0x40\n      mstore\n      pop\n      dup2\n      add\n      swap1\n      tag_219\n      swap2\n      swap1\n      tag_150\n      jump\t// in\n    tag_219:\n        /* \"contracts/IREC/IRECMarketplace.sol\":1713:1718  10000 */\n      0x2710\n        /* \"contracts/IREC/IRECMarketplace.sol\":1680:1693  fractionToken */\n      0x02\n      0x00\n      swap1\n      sload\n      swap1\n      0x0100\n      exp\n      swap1\n      div\n      0xffffffffffffffffffffffffffffffffffffffff\n      and\n        /* \"contracts/IREC/IRECMarketplace.sol\":1680:1703  fractionToken.balanceOf */\n      0xffffffffffffffffffffffffffffffffffffffff\n      and\n      0x70a08231\n        /* \"contracts/IREC/IRECMarketplace.sol\":1704:1709  owner */\n      dup6\n        /* \"contracts/IREC/IRECMarketplace.sol\":1680:1710  fractionToken.balanceOf(owner) */\n      mload(0x40)\n      dup3\n      0xffffffff\n      and\n      0xe0\n      shl\n      dup2\n      mstore\n      0x04\n      add\n      tag_220\n      swap2\n      swap1\n      tag_65\n      jump\t// in\n    tag_220:\n      0x20\n      mload(0x40)\n      dup1\n      dup4\n      sub\n      dup2\n      dup7\n      gas\n      staticcall\n      iszero\n      dup1\n      iszero\n      tag_222\n      jumpi\n      returndatasize\n      0x00\n      dup1\n      returndatacopy\n      revert(0x00, returndatasize)\n    tag_222:\n      pop\n      pop\n      pop\n      pop\n      mload(0x40)\n      returndatasize\n      not(0x1f)\n      0x1f\n      dup3\n      add\n      and\n      dup3\n      add\n      dup1\n      0x40\n      mstore\n      pop\n      dup2\n      add\n      swap1\n      tag_223\n      swap2\n      swap1\n      tag_150\n      jump\t// in\n    tag_223:\n        /* \"contracts/IREC/IRECMarketplace.sol\":1680:1718  fractionToken.balanceOf(owner) * 10000 */\n      tag_224\n      swap2\n      swap1\n      tag_119\n      jump\t// in\n    tag_224:\n        /* \"contracts/IREC/IRECMarketplace.sol\":1679:1749  (fractionToken.balanceOf(owner) * 10000) / fractionToken.totalSupply() */\n      tag_225\n      swap2\n      swap1\n      tag_169\n      jump\t// in\n    tag_225:\n        /* \"contracts/IREC/IRECMarketplace.sol\":1672:1749  return (fractionToken.balanceOf(owner) * 10000) / fractionToken.totalSupply() */\n      swap1\n      pop\n        /* \"contracts/IREC/IRECMarketplace.sol\":1584:1779  function getOwnershipPercentage(address owner) public view returns (uint256) {... */\n      swap2\n      swap1\n      pop\n      jump\t// out\n        /* \"contracts/IREC/IRECMarketplace.sol\":1096:1120  uint public listingCount */\n    tag_81:\n      sload(0x08)\n      dup2\n      jump\t// out\n        /* \"contracts/IREC/IRECMarketplace.sol\":768:817  mapping (string => Ownership[]) public ownerships */\n    tag_87:\n      0x06\n      dup3\n      dup1\n      mload\n      0x20\n      dup2\n      add\n      dup3\n      add\n      dup1\n      mload\n      dup5\n      dup3\n      mstore\n      0x20\n      dup4\n      add\n      0x20\n      dup6\n      add\n      keccak256\n      dup2\n      dup4\n      mstore\n      dup1\n      swap6\n      pop\n      pop\n      pop\n      pop\n      pop\n      pop\n      dup2\n      dup2\n      sload\n      dup2\n      lt\n      tag_226\n      jumpi\n      0x00\n      dup1\n      revert\n    tag_226:\n      swap1\n      0x00\n      mstore\n      keccak256(0x00, 0x20)\n      swap1\n      0x04\n      mul\n      add\n      0x00\n      swap2\n      pop\n      swap2\n      pop\n      pop\n      dup1\n      0x00\n      add\n      0x00\n      swap1\n      sload\n      swap1\n      0x0100\n      exp\n      swap1\n      div\n      0xffffffffffffffffffffffffffffffffffffffff\n      and\n      swap1\n      dup1\n      0x01\n      add\n      0x00\n      swap1\n      sload\n      swap1\n      0x0100\n      exp\n      swap1\n      div\n      0xffffffffffffffffffffffffffffffffffffffff\n      and\n      swap1\n      dup1\n      0x02\n      add\n      sload\n      swap1\n      dup1\n      0x03\n      add\n      0x00\n      swap1\n      sload\n      swap1\n      0x0100\n      exp\n      swap1\n      div\n      0xffffffff\n      and\n      swap1\n      pop\n      dup5\n      jump\t// out\n        /* \"contracts/IREC/IRECMarketplace.sol\":994:1053  mapping(string => mapping(uint => Listing)) public listings */\n    tag_93:\n      0x07\n      dup3\n      dup1\n      mload\n      0x20\n      dup2\n      add\n      dup3\n      add\n      dup1\n      mload\n      dup5\n      dup3\n      mstore\n      0x20\n      dup4\n      add\n      0x20\n      dup6\n      add\n      keccak256\n      dup2\n      dup4\n      mstore\n      dup1\n      swap6\n      pop\n      pop\n      pop\n      pop\n      pop\n      pop\n      0x20\n      mstore\n      dup1\n      0x00\n      mstore\n      keccak256(0x00, 0x40)\n      0x00\n      swap2\n      pop\n      swap2\n      pop\n      pop\n      dup1\n      0x00\n      add\n      0x00\n      swap1\n      sload\n      swap1\n      0x0100\n      exp\n      swap1\n      div\n      0xffffffffffffffffffffffffffffffffffffffff\n      and\n      swap1\n      dup1\n      0x01\n      add\n      sload\n      swap1\n      dup1\n      0x02\n      add\n      sload\n      swap1\n      dup1\n      0x03\n      add\n      0x00\n      swap1\n      sload\n      swap1\n      0x0100\n      exp\n      swap1\n      div\n      0xff\n      and\n      swap1\n      pop\n      dup5\n      jump\t// out\n        /* \"contracts/IREC/IRECMarketplace.sol\":421:447  IERC721 public nftContract */\n    tag_98:\n      0x03\n      0x00\n      swap1\n      sload\n      swap1\n      0x0100\n      exp\n      swap1\n      div\n      0xffffffffffffffffffffffffffffffffffffffff\n      and\n      dup2\n      jump\t// out\n        /* \"@openzeppelin/contracts/access/Ownable.sol\":2543:2758  function transferOwnership(address newOwner) public virtual onlyOwner {... */\n    tag_104:\n        /* \"@openzeppelin/contracts/access/Ownable.sol\":1531:1544  _checkOwner() */\n      tag_229\n        /* \"@openzeppelin/contracts/access/Ownable.sol\":1531:1542  _checkOwner */\n      tag_140\n        /* \"@openzeppelin/contracts/access/Ownable.sol\":1531:1544  _checkOwner() */\n      jump\t// in\n    tag_229:\n        /* \"@openzeppelin/contracts/access/Ownable.sol\":2647:2648  0 */\n      0x00\n        /* \"@openzeppelin/contracts/access/Ownable.sol\":2627:2649  newOwner == address(0) */\n      0xffffffffffffffffffffffffffffffffffffffff\n      and\n        /* \"@openzeppelin/contracts/access/Ownable.sol\":2627:2635  newOwner */\n      dup2\n        /* \"@openzeppelin/contracts/access/Ownable.sol\":2627:2649  newOwner == address(0) */\n      0xffffffffffffffffffffffffffffffffffffffff\n      and\n      sub\n        /* \"@openzeppelin/contracts/access/Ownable.sol\":2623:2714  if (newOwner == address(0)) {... */\n      tag_231\n      jumpi\n        /* \"@openzeppelin/contracts/access/Ownable.sol\":2700:2701  0 */\n      0x00\n        /* \"@openzeppelin/contracts/access/Ownable.sol\":2672:2703  OwnableInvalidOwner(address(0)) */\n      mload(0x40)\n      0x1e4fbdf700000000000000000000000000000000000000000000000000000000\n      dup2\n      mstore\n      0x04\n      add\n      tag_232\n      swap2\n      swap1\n      tag_65\n      jump\t// in\n    tag_232:\n      mload(0x40)\n      dup1\n      swap2\n      sub\n      swap1\n      revert\n        /* \"@openzeppelin/contracts/access/Ownable.sol\":2623:2714  if (newOwner == address(0)) {... */\n    tag_231:\n        /* \"@openzeppelin/contracts/access/Ownable.sol\":2723:2751  _transferOwnership(newOwner) */\n      tag_233\n        /* \"@openzeppelin/contracts/access/Ownable.sol\":2742:2750  newOwner */\n      dup2\n        /* \"@openzeppelin/contracts/access/Ownable.sol\":2723:2741  _transferOwnership */\n      tag_186\n        /* \"@openzeppelin/contracts/access/Ownable.sol\":2723:2751  _transferOwnership(newOwner) */\n      jump\t// in\n    tag_233:\n        /* \"@openzeppelin/contracts/access/Ownable.sol\":2543:2758  function transferOwnership(address newOwner) public virtual onlyOwner {... */\n      pop\n      jump\t// out\n        /* \"contracts/IREC/IRECMarketplace.sol\":487:511  uint256 public salePrice */\n    tag_107:\n      sload(0x04)\n      dup2\n      jump\t// out\n        /* \"@openzeppelin/contracts/utils/ReentrancyGuard.sol\":2575:2882  function _nonReentrantBefore() private {... */\n    tag_111:\n        /* \"@openzeppelin/contracts/utils/ReentrancyGuard.sol\":1899:1900  2 */\n      0x02\n        /* \"@openzeppelin/contracts/utils/ReentrancyGuard.sol\":2702:2709  _status */\n      sload(0x01)\n        /* \"@openzeppelin/contracts/utils/ReentrancyGuard.sol\":2702:2720  _status == ENTERED */\n      sub\n        /* \"@openzeppelin/contracts/utils/ReentrancyGuard.sol\":2698:2784  if (_status == ENTERED) {... */\n      tag_235\n      jumpi\n        /* \"@openzeppelin/contracts/utils/ReentrancyGuard.sol\":2743:2773  ReentrancyGuardReentrantCall() */\n      mload(0x40)\n      0x3ee5aeb500000000000000000000000000000000000000000000000000000000\n      dup2\n      mstore\n      0x04\n      add\n      mload(0x40)\n      dup1\n      swap2\n      sub\n      swap1\n      revert\n        /* \"@openzeppelin/contracts/utils/ReentrancyGuard.sol\":2698:2784  if (_status == ENTERED) {... */\n    tag_235:\n        /* \"@openzeppelin/contracts/utils/ReentrancyGuard.sol\":1899:1900  2 */\n      0x02\n        /* \"@openzeppelin/contracts/utils/ReentrancyGuard.sol\":2858:2865  _status */\n      0x01\n        /* \"@openzeppelin/contracts/utils/ReentrancyGuard.sol\":2858:2875  _status = ENTERED */\n      dup2\n      swap1\n      sstore\n      pop\n        /* \"@openzeppelin/contracts/utils/ReentrancyGuard.sol\":2575:2882  function _nonReentrantBefore() private {... */\n      jump\t// out\n        /* \"@openzeppelin/contracts/utils/ReentrancyGuard.sol\":2888:3096  function _nonReentrantAfter() private {... */\n    tag_137:\n        /* \"@openzeppelin/contracts/utils/ReentrancyGuard.sol\":1857:1858  1 */\n      0x01\n        /* \"@openzeppelin/contracts/utils/ReentrancyGuard.sol\":3068:3075  _status */\n      dup1\n        /* \"@openzeppelin/contracts/utils/ReentrancyGuard.sol\":3068:3089  _status = NOT_ENTERED */\n      dup2\n      swap1\n      sstore\n      pop\n        /* \"@openzeppelin/contracts/utils/ReentrancyGuard.sol\":2888:3096  function _nonReentrantAfter() private {... */\n      jump\t// out\n        /* \"@openzeppelin/contracts/access/Ownable.sol\":1796:1958  function _checkOwner() internal view virtual {... */\n    tag_140:\n        /* \"@openzeppelin/contracts/access/Ownable.sol\":1866:1878  _msgSender() */\n      tag_238\n        /* \"@openzeppelin/contracts/access/Ownable.sol\":1866:1876  _msgSender */\n      tag_239\n        /* \"@openzeppelin/contracts/access/Ownable.sol\":1866:1878  _msgSender() */\n      jump\t// in\n    tag_238:\n        /* \"@openzeppelin/contracts/access/Ownable.sol\":1855:1878  owner() != _msgSender() */\n      0xffffffffffffffffffffffffffffffffffffffff\n      and\n        /* \"@openzeppelin/contracts/access/Ownable.sol\":1855:1862  owner() */\n      tag_240\n        /* \"@openzeppelin/contracts/access/Ownable.sol\":1855:1860  owner */\n      tag_63\n        /* \"@openzeppelin/contracts/access/Ownable.sol\":1855:1862  owner() */\n      jump\t// in\n    tag_240:\n        /* \"@openzeppelin/contracts/access/Ownable.sol\":1855:1878  owner() != _msgSender() */\n      0xffffffffffffffffffffffffffffffffffffffff\n      and\n      eq\n        /* \"@openzeppelin/contracts/access/Ownable.sol\":1851:1952  if (owner() != _msgSender()) {... */\n      tag_241\n      jumpi\n        /* \"@openzeppelin/contracts/access/Ownable.sol\":1928:1940  _msgSender() */\n      tag_242\n        /* \"@openzeppelin/contracts/access/Ownable.sol\":1928:1938  _msgSender */\n      tag_239\n        /* \"@openzeppelin/contracts/access/Ownable.sol\":1928:1940  _msgSender() */\n      jump\t// in\n    tag_242:\n        /* \"@openzeppelin/contracts/access/Ownable.sol\":1901:1941  OwnableUnauthorizedAccount(_msgSender()) */\n      mload(0x40)\n      0x118cdaa700000000000000000000000000000000000000000000000000000000\n      dup2\n      mstore\n      0x04\n      add\n      tag_243\n      swap2\n      swap1\n      tag_65\n      jump\t// in\n    tag_243:\n      mload(0x40)\n      dup1\n      swap2\n      sub\n      swap1\n      revert\n        /* \"@openzeppelin/contracts/access/Ownable.sol\":1851:1952  if (owner() != _msgSender()) {... */\n    tag_241:\n        /* \"@openzeppelin/contracts/access/Ownable.sol\":1796:1958  function _checkOwner() internal view virtual {... */\n      jump\t// out\n        /* \"@openzeppelin/contracts/access/Ownable.sol\":2912:3099  function _transferOwnership(address newOwner) internal virtual {... */\n    tag_186:\n        /* \"@openzeppelin/contracts/access/Ownable.sol\":2985:3001  address oldOwner */\n      0x00\n        /* \"@openzeppelin/contracts/access/Ownable.sol\":3004:3010  _owner */\n      dup1\n      0x00\n      swap1\n      sload\n      swap1\n      0x0100\n      exp\n      swap1\n      div\n      0xffffffffffffffffffffffffffffffffffffffff\n      and\n        /* \"@openzeppelin/contracts/access/Ownable.sol\":2985:3010  address oldOwner = _owner */\n      swap1\n      pop\n        /* \"@openzeppelin/contracts/access/Ownable.sol\":3029:3037  newOwner */\n      dup2\n        /* \"@openzeppelin/contracts/access/Ownable.sol\":3020:3026  _owner */\n      0x00\n      dup1\n        /* \"@openzeppelin/contracts/access/Ownable.sol\":3020:3037  _owner = newOwner */\n      0x0100\n      exp\n      dup2\n      sload\n      dup2\n      0xffffffffffffffffffffffffffffffffffffffff\n      mul\n      not\n      and\n      swap1\n      dup4\n      0xffffffffffffffffffffffffffffffffffffffff\n      and\n      mul\n      or\n      swap1\n      sstore\n      pop\n        /* \"@openzeppelin/contracts/access/Ownable.sol\":3083:3091  newOwner */\n      dup2\n        /* \"@openzeppelin/contracts/access/Ownable.sol\":3052:3092  OwnershipTransferred(oldOwner, newOwner) */\n      0xffffffffffffffffffffffffffffffffffffffff\n      and\n        /* \"@openzeppelin/contracts/access/Ownable.sol\":3073:3081  oldOwner */\n      dup2\n        /* \"@openzeppelin/contracts/access/Ownable.sol\":3052:3092  OwnershipTransferred(oldOwner, newOwner) */\n      0xffffffffffffffffffffffffffffffffffffffff\n      and\n      0x8be0079c531659141344cd1fd0a4f28419497f9722a3daafe3b4186f6b6457e0\n      mload(0x40)\n      mload(0x40)\n      dup1\n      swap2\n      sub\n      swap1\n      log3\n        /* \"@openzeppelin/contracts/access/Ownable.sol\":2975:3099  {... */\n      pop\n        /* \"@openzeppelin/contracts/access/Ownable.sol\":2912:3099  function _transferOwnership(address newOwner) internal virtual {... */\n      pop\n      jump\t// out\n        /* \"@openzeppelin/contracts/utils/Context.sol\":656:752  function _msgSender() internal view virtual returns (address) {... */\n    tag_239:\n        /* \"@openzeppelin/contracts/utils/Context.sol\":709:716  address */\n      0x00\n        /* \"@openzeppelin/contracts/utils/Context.sol\":735:745  msg.sender */\n      caller\n        /* \"@openzeppelin/contracts/utils/Context.sol\":728:745  return msg.sender */\n      swap1\n      pop\n        /* \"@openzeppelin/contracts/utils/Context.sol\":656:752  function _msgSender() internal view virtual returns (address) {... */\n      swap1\n      jump\t// out\n    tag_213:\n      mload(0x40)\n      dup1\n      0x80\n      add\n      0x40\n      mstore\n      dup1\n      and(0xffffffffffffffffffffffffffffffffffffffff, 0x00)\n      dup2\n      mstore\n      0x20\n      add\n      0x00\n      dup2\n      mstore\n      0x20\n      add\n      0x00\n      dup2\n      mstore\n      0x20\n      add\n      iszero(iszero(0x00))\n      dup2\n      mstore\n      pop\n      swap1\n      jump\t// out\n        /* \"#utility.yul\":7:82   */\n    tag_246:\n        /* \"#utility.yul\":40:46   */\n      0x00\n        /* \"#utility.yul\":73:75   */\n      0x40\n        /* \"#utility.yul\":67:76   */\n      mload\n        /* \"#utility.yul\":57:76   */\n      swap1\n      pop\n        /* \"#utility.yul\":7:82   */\n      swap1\n      jump\t// out\n        /* \"#utility.yul\":88:205   */\n    tag_247:\n        /* \"#utility.yul\":197:198   */\n      0x00\n        /* \"#utility.yul\":194:195   */\n      dup1\n        /* \"#utility.yul\":187:199   */\n      revert\n        /* \"#utility.yul\":211:328   */\n    tag_248:\n        /* \"#utility.yul\":320:321   */\n      0x00\n        /* \"#utility.yul\":317:318   */\n      dup1\n        /* \"#utility.yul\":310:322   */\n      revert\n        /* \"#utility.yul\":334:411   */\n    tag_249:\n        /* \"#utility.yul\":371:378   */\n      0x00\n        /* \"#utility.yul\":400:405   */\n      dup2\n        /* \"#utility.yul\":389:405   */\n      swap1\n      pop\n        /* \"#utility.yul\":334:411   */\n      swap2\n      swap1\n      pop\n      jump\t// out\n        /* \"#utility.yul\":417:539   */\n    tag_250:\n        /* \"#utility.yul\":490:514   */\n      tag_323\n        /* \"#utility.yul\":508:513   */\n      dup2\n        /* \"#utility.yul\":490:514   */\n      tag_249\n      jump\t// in\n    tag_323:\n        /* \"#utility.yul\":483:488   */\n      dup2\n        /* \"#utility.yul\":480:515   */\n      eq\n        /* \"#utility.yul\":470:533   */\n      tag_324\n      jumpi\n        /* \"#utility.yul\":529:530   */\n      0x00\n        /* \"#utility.yul\":526:527   */\n      dup1\n        /* \"#utility.yul\":519:531   */\n      revert\n        /* \"#utility.yul\":470:533   */\n    tag_324:\n        /* \"#utility.yul\":417:539   */\n      pop\n      jump\t// out\n        /* \"#utility.yul\":545:684   */\n    tag_251:\n        /* \"#utility.yul\":591:596   */\n      0x00\n        /* \"#utility.yul\":629:635   */\n      dup2\n        /* \"#utility.yul\":616:636   */\n      calldataload\n        /* \"#utility.yul\":607:636   */\n      swap1\n      pop\n        /* \"#utility.yul\":645:678   */\n      tag_326\n        /* \"#utility.yul\":672:677   */\n      dup2\n        /* \"#utility.yul\":645:678   */\n      tag_250\n      jump\t// in\n    tag_326:\n        /* \"#utility.yul\":545:684   */\n      swap3\n      swap2\n      pop\n      pop\n      jump\t// out\n        /* \"#utility.yul\":690:1019   */\n    tag_25:\n        /* \"#utility.yul\":749:755   */\n      0x00\n        /* \"#utility.yul\":798:800   */\n      0x20\n        /* \"#utility.yul\":786:795   */\n      dup3\n        /* \"#utility.yul\":777:784   */\n      dup5\n        /* \"#utility.yul\":773:796   */\n      sub\n        /* \"#utility.yul\":769:801   */\n      slt\n        /* \"#utility.yul\":766:885   */\n      iszero\n      tag_328\n      jumpi\n        /* \"#utility.yul\":804:883   */\n      tag_329\n      tag_247\n      jump\t// in\n    tag_329:\n        /* \"#utility.yul\":766:885   */\n    tag_328:\n        /* \"#utility.yul\":924:925   */\n      0x00\n        /* \"#utility.yul\":949:1002   */\n      tag_330\n        /* \"#utility.yul\":994:1001   */\n      dup5\n        /* \"#utility.yul\":985:991   */\n      dup3\n        /* \"#utility.yul\":974:983   */\n      dup6\n        /* \"#utility.yul\":970:992   */\n      add\n        /* \"#utility.yul\":949:1002   */\n      tag_251\n      jump\t// in\n    tag_330:\n        /* \"#utility.yul\":939:1002   */\n      swap2\n      pop\n        /* \"#utility.yul\":895:1012   */\n      pop\n        /* \"#utility.yul\":690:1019   */\n      swap3\n      swap2\n      pop\n      pop\n      jump\t// out\n        /* \"#utility.yul\":1025:1151   */\n    tag_252:\n        /* \"#utility.yul\":1062:1069   */\n      0x00\n        /* \"#utility.yul\":1102:1144   */\n      0xffffffffffffffffffffffffffffffffffffffff\n        /* \"#utility.yul\":1095:1100   */\n      dup3\n        /* \"#utility.yul\":1091:1145   */\n      and\n        /* \"#utility.yul\":1080:1145   */\n      swap1\n      pop\n        /* \"#utility.yul\":1025:1151   */\n      swap2\n      swap1\n      pop\n      jump\t// out\n        /* \"#utility.yul\":1157:1217   */\n    tag_253:\n        /* \"#utility.yul\":1185:1188   */\n      0x00\n        /* \"#utility.yul\":1206:1211   */\n      dup2\n        /* \"#utility.yul\":1199:1211   */\n      swap1\n      pop\n        /* \"#utility.yul\":1157:1217   */\n      swap2\n      swap1\n      pop\n      jump\t// out\n        /* \"#utility.yul\":1223:1365   */\n    tag_254:\n        /* \"#utility.yul\":1273:1282   */\n      0x00\n        /* \"#utility.yul\":1306:1359   */\n      tag_334\n        /* \"#utility.yul\":1324:1358   */\n      tag_335\n        /* \"#utility.yul\":1333:1357   */\n      tag_336\n        /* \"#utility.yul\":1351:1356   */\n      dup5\n        /* \"#utility.yul\":1333:1357   */\n      tag_252\n      jump\t// in\n    tag_336:\n        /* \"#utility.yul\":1324:1358   */\n      tag_253\n      jump\t// in\n    tag_335:\n        /* \"#utility.yul\":1306:1359   */\n      tag_252\n      jump\t// in\n    tag_334:\n        /* \"#utility.yul\":1293:1359   */\n      swap1\n      pop\n        /* \"#utility.yul\":1223:1365   */\n      swap2\n      swap1\n      pop\n      jump\t// out\n        /* \"#utility.yul\":1371:1497   */\n    tag_255:\n        /* \"#utility.yul\":1421:1430   */\n      0x00\n        /* \"#utility.yul\":1454:1491   */\n      tag_338\n        /* \"#utility.yul\":1485:1490   */\n      dup3\n        /* \"#utility.yul\":1454:1491   */\n      tag_254\n      jump\t// in\n    tag_338:\n        /* \"#utility.yul\":1441:1491   */\n      swap1\n      pop\n        /* \"#utility.yul\":1371:1497   */\n      swap2\n      swap1\n      pop\n      jump\t// out\n        /* \"#utility.yul\":1503:1643   */\n    tag_256:\n        /* \"#utility.yul\":1567:1576   */\n      0x00\n        /* \"#utility.yul\":1600:1637   */\n      tag_340\n        /* \"#utility.yul\":1631:1636   */\n      dup3\n        /* \"#utility.yul\":1600:1637   */\n      tag_255\n      jump\t// in\n    tag_340:\n        /* \"#utility.yul\":1587:1637   */\n      swap1\n      pop\n        /* \"#utility.yul\":1503:1643   */\n      swap2\n      swap1\n      pop\n      jump\t// out\n        /* \"#utility.yul\":1649:1808   */\n    tag_257:\n        /* \"#utility.yul\":1750:1801   */\n      tag_342\n        /* \"#utility.yul\":1795:1800   */\n      dup2\n        /* \"#utility.yul\":1750:1801   */\n      tag_256\n      jump\t// in\n    tag_342:\n        /* \"#utility.yul\":1745:1748   */\n      dup3\n        /* \"#utility.yul\":1738:1802   */\n      mstore\n        /* \"#utility.yul\":1649:1808   */\n      pop\n      pop\n      jump\t// out\n        /* \"#utility.yul\":1814:2064   */\n    tag_31:\n        /* \"#utility.yul\":1921:1925   */\n      0x00\n        /* \"#utility.yul\":1959:1961   */\n      0x20\n        /* \"#utility.yul\":1948:1957   */\n      dup3\n        /* \"#utility.yul\":1944:1962   */\n      add\n        /* \"#utility.yul\":1936:1962   */\n      swap1\n      pop\n        /* \"#utility.yul\":1972:2057   */\n      tag_344\n        /* \"#utility.yul\":2054:2055   */\n      0x00\n        /* \"#utility.yul\":2043:2052   */\n      dup4\n        /* \"#utility.yul\":2039:2056   */\n      add\n        /* \"#utility.yul\":2030:2036   */\n      dup5\n        /* \"#utility.yul\":1972:2057   */\n      tag_257\n      jump\t// in\n    tag_344:\n        /* \"#utility.yul\":1814:2064   */\n      swap3\n      swap2\n      pop\n      pop\n      jump\t// out\n        /* \"#utility.yul\":2070:2159   */\n    tag_258:\n        /* \"#utility.yul\":2106:2113   */\n      0x00\n        /* \"#utility.yul\":2146:2152   */\n      0xffff\n        /* \"#utility.yul\":2139:2144   */\n      dup3\n        /* \"#utility.yul\":2135:2153   */\n      and\n        /* \"#utility.yul\":2124:2153   */\n      swap1\n      pop\n        /* \"#utility.yul\":2070:2159   */\n      swap2\n      swap1\n      pop\n      jump\t// out\n        /* \"#utility.yul\":2165:2285   */\n    tag_259:\n        /* \"#utility.yul\":2237:2260   */\n      tag_347\n        /* \"#utility.yul\":2254:2259   */\n      dup2\n        /* \"#utility.yul\":2237:2260   */\n      tag_258\n      jump\t// in\n    tag_347:\n        /* \"#utility.yul\":2230:2235   */\n      dup2\n        /* \"#utility.yul\":2227:2261   */\n      eq\n        /* \"#utility.yul\":2217:2279   */\n      tag_348\n      jumpi\n        /* \"#utility.yul\":2275:2276   */\n      0x00\n        /* \"#utility.yul\":2272:2273   */\n      dup1\n        /* \"#utility.yul\":2265:2277   */\n      revert\n        /* \"#utility.yul\":2217:2279   */\n    tag_348:\n        /* \"#utility.yul\":2165:2285   */\n      pop\n      jump\t// out\n        /* \"#utility.yul\":2291:2428   */\n    tag_260:\n        /* \"#utility.yul\":2336:2341   */\n      0x00\n        /* \"#utility.yul\":2374:2380   */\n      dup2\n        /* \"#utility.yul\":2361:2381   */\n      calldataload\n        /* \"#utility.yul\":2352:2381   */\n      swap1\n      pop\n        /* \"#utility.yul\":2390:2422   */\n      tag_350\n        /* \"#utility.yul\":2416:2421   */\n      dup2\n        /* \"#utility.yul\":2390:2422   */\n      tag_259\n      jump\t// in\n    tag_350:\n        /* \"#utility.yul\":2291:2428   */\n      swap3\n      swap2\n      pop\n      pop\n      jump\t// out\n        /* \"#utility.yul\":2434:2761   */\n    tag_41:\n        /* \"#utility.yul\":2492:2498   */\n      0x00\n        /* \"#utility.yul\":2541:2543   */\n      0x20\n        /* \"#utility.yul\":2529:2538   */\n      dup3\n        /* \"#utility.yul\":2520:2527   */\n      dup5\n        /* \"#utility.yul\":2516:2539   */\n      sub\n        /* \"#utility.yul\":2512:2544   */\n      slt\n        /* \"#utility.yul\":2509:2628   */\n      iszero\n      tag_352\n      jumpi\n        /* \"#utility.yul\":2547:2626   */\n      tag_353\n      tag_247\n      jump\t// in\n    tag_353:\n        /* \"#utility.yul\":2509:2628   */\n    tag_352:\n        /* \"#utility.yul\":2667:2668   */\n      0x00\n        /* \"#utility.yul\":2692:2744   */\n      tag_354\n        /* \"#utility.yul\":2736:2743   */\n      dup5\n        /* \"#utility.yul\":2727:2733   */\n      dup3\n        /* \"#utility.yul\":2716:2725   */\n      dup6\n        /* \"#utility.yul\":2712:2734   */\n      add\n        /* \"#utility.yul\":2692:2744   */\n      tag_260\n      jump\t// in\n    tag_354:\n        /* \"#utility.yul\":2682:2744   */\n      swap2\n      pop\n        /* \"#utility.yul\":2638:2754   */\n      pop\n        /* \"#utility.yul\":2434:2761   */\n      swap3\n      swap2\n      pop\n      pop\n      jump\t// out\n        /* \"#utility.yul\":2767:2857   */\n    tag_261:\n        /* \"#utility.yul\":2801:2808   */\n      0x00\n        /* \"#utility.yul\":2844:2849   */\n      dup2\n        /* \"#utility.yul\":2837:2850   */\n      iszero\n        /* \"#utility.yul\":2830:2851   */\n      iszero\n        /* \"#utility.yul\":2819:2851   */\n      swap1\n      pop\n        /* \"#utility.yul\":2767:2857   */\n      swap2\n      swap1\n      pop\n      jump\t// out\n        /* \"#utility.yul\":2863:2972   */\n    tag_262:\n        /* \"#utility.yul\":2944:2965   */\n      tag_357\n        /* \"#utility.yul\":2959:2964   */\n      dup2\n        /* \"#utility.yul\":2944:2965   */\n      tag_261\n      jump\t// in\n    tag_357:\n        /* \"#utility.yul\":2939:2942   */\n      dup3\n        /* \"#utility.yul\":2932:2966   */\n      mstore\n        /* \"#utility.yul\":2863:2972   */\n      pop\n      pop\n      jump\t// out\n        /* \"#utility.yul\":2978:3188   */\n    tag_47:\n        /* \"#utility.yul\":3065:3069   */\n      0x00\n        /* \"#utility.yul\":3103:3105   */\n      0x20\n        /* \"#utility.yul\":3092:3101   */\n      dup3\n        /* \"#utility.yul\":3088:3106   */\n      add\n        /* \"#utility.yul\":3080:3106   */\n      swap1\n      pop\n        /* \"#utility.yul\":3116:3181   */\n      tag_359\n        /* \"#utility.yul\":3178:3179   */\n      0x00\n        /* \"#utility.yul\":3167:3176   */\n      dup4\n        /* \"#utility.yul\":3163:3180   */\n      add\n        /* \"#utility.yul\":3154:3160   */\n      dup5\n        /* \"#utility.yul\":3116:3181   */\n      tag_262\n      jump\t// in\n    tag_359:\n        /* \"#utility.yul\":2978:3188   */\n      swap3\n      swap2\n      pop\n      pop\n      jump\t// out\n        /* \"#utility.yul\":3194:3668   */\n    tag_54:\n        /* \"#utility.yul\":3262:3268   */\n      0x00\n        /* \"#utility.yul\":3270:3276   */\n      dup1\n        /* \"#utility.yul\":3319:3321   */\n      0x40\n        /* \"#utility.yul\":3307:3316   */\n      dup4\n        /* \"#utility.yul\":3298:3305   */\n      dup6\n        /* \"#utility.yul\":3294:3317   */\n      sub\n        /* \"#utility.yul\":3290:3322   */\n      slt\n        /* \"#utility.yul\":3287:3406   */\n      iszero\n      tag_361\n      jumpi\n        /* \"#utility.yul\":3325:3404   */\n      tag_362\n      tag_247\n      jump\t// in\n    tag_362:\n        /* \"#utility.yul\":3287:3406   */\n    tag_361:\n        /* \"#utility.yul\":3445:3446   */\n      0x00\n        /* \"#utility.yul\":3470:3523   */\n      tag_363\n        /* \"#utility.yul\":3515:3522   */\n      dup6\n        /* \"#utility.yul\":3506:3512   */\n      dup3\n        /* \"#utility.yul\":3495:3504   */\n      dup7\n        /* \"#utility.yul\":3491:3513   */\n      add\n        /* \"#utility.yul\":3470:3523   */\n      tag_251\n      jump\t// in\n    tag_363:\n        /* \"#utility.yul\":3460:3523   */\n      swap3\n      pop\n        /* \"#utility.yul\":3416:3533   */\n      pop\n        /* \"#utility.yul\":3572:3574   */\n      0x20\n        /* \"#utility.yul\":3598:3651   */\n      tag_364\n        /* \"#utility.yul\":3643:3650   */\n      dup6\n        /* \"#utility.yul\":3634:3640   */\n      dup3\n        /* \"#utility.yul\":3623:3632   */\n      dup7\n        /* \"#utility.yul\":3619:3641   */\n      add\n        /* \"#utility.yul\":3598:3651   */\n      tag_251\n      jump\t// in\n    tag_364:\n        /* \"#utility.yul\":3588:3651   */\n      swap2\n      pop\n        /* \"#utility.yul\":3543:3661   */\n      pop\n        /* \"#utility.yul\":3194:3668   */\n      swap3\n      pop\n      swap3\n      swap1\n      pop\n      jump\t// out\n        /* \"#utility.yul\":3674:3814   */\n    tag_263:\n        /* \"#utility.yul\":3767:3773   */\n      0x00\n        /* \"#utility.yul\":3801:3806   */\n      dup2\n        /* \"#utility.yul\":3795:3807   */\n      mload\n        /* \"#utility.yul\":3785:3807   */\n      swap1\n      pop\n        /* \"#utility.yul\":3674:3814   */\n      swap2\n      swap1\n      pop\n      jump\t// out\n        /* \"#utility.yul\":3820:4030   */\n    tag_264:\n        /* \"#utility.yul\":3945:3956   */\n      0x00\n        /* \"#utility.yul\":3979:3985   */\n      dup3\n        /* \"#utility.yul\":3974:3977   */\n      dup3\n        /* \"#utility.yul\":3967:3986   */\n      mstore\n        /* \"#utility.yul\":4019:4023   */\n      0x20\n        /* \"#utility.yul\":4014:4017   */\n      dup3\n        /* \"#utility.yul\":4010:4024   */\n      add\n        /* \"#utility.yul\":3995:4024   */\n      swap1\n      pop\n        /* \"#utility.yul\":3820:4030   */\n      swap3\n      swap2\n      pop\n      pop\n      jump\t// out\n        /* \"#utility.yul\":4036:4194   */\n    tag_265:\n        /* \"#utility.yul\":4129:4133   */\n      0x00\n        /* \"#utility.yul\":4152:4155   */\n      dup2\n        /* \"#utility.yul\":4144:4155   */\n      swap1\n      pop\n        /* \"#utility.yul\":4182:4186   */\n      0x20\n        /* \"#utility.yul\":4177:4180   */\n      dup3\n        /* \"#utility.yul\":4173:4187   */\n      add\n        /* \"#utility.yul\":4165:4187   */\n      swap1\n      pop\n        /* \"#utility.yul\":4036:4194   */\n      swap2\n      swap1\n      pop\n      jump\t// out\n        /* \"#utility.yul\":4200:4296   */\n    tag_266:\n        /* \"#utility.yul\":4237:4244   */\n      0x00\n        /* \"#utility.yul\":4266:4290   */\n      tag_369\n        /* \"#utility.yul\":4284:4289   */\n      dup3\n        /* \"#utility.yul\":4266:4290   */\n      tag_252\n      jump\t// in\n    tag_369:\n        /* \"#utility.yul\":4255:4290   */\n      swap1\n      pop\n        /* \"#utility.yul\":4200:4296   */\n      swap2\n      swap1\n      pop\n      jump\t// out\n        /* \"#utility.yul\":4302:4410   */\n    tag_267:\n        /* \"#utility.yul\":4379:4403   */\n      tag_371\n        /* \"#utility.yul\":4397:4402   */\n      dup2\n        /* \"#utility.yul\":4379:4403   */\n      tag_266\n      jump\t// in\n    tag_371:\n        /* \"#utility.yul\":4374:4377   */\n      dup3\n        /* \"#utility.yul\":4367:4404   */\n      mstore\n        /* \"#utility.yul\":4302:4410   */\n      pop\n      pop\n      jump\t// out\n        /* \"#utility.yul\":4416:4524   */\n    tag_268:\n        /* \"#utility.yul\":4493:4517   */\n      tag_373\n        /* \"#utility.yul\":4511:4516   */\n      dup2\n        /* \"#utility.yul\":4493:4517   */\n      tag_249\n      jump\t// in\n    tag_373:\n        /* \"#utility.yul\":4488:4491   */\n      dup3\n        /* \"#utility.yul\":4481:4518   */\n      mstore\n        /* \"#utility.yul\":4416:4524   */\n      pop\n      pop\n      jump\t// out\n        /* \"#utility.yul\":4530:4623   */\n    tag_269:\n        /* \"#utility.yul\":4566:4573   */\n      0x00\n        /* \"#utility.yul\":4606:4616   */\n      0xffffffff\n        /* \"#utility.yul\":4599:4604   */\n      dup3\n        /* \"#utility.yul\":4595:4617   */\n      and\n        /* \"#utility.yul\":4584:4617   */\n      swap1\n      pop\n        /* \"#utility.yul\":4530:4623   */\n      swap2\n      swap1\n      pop\n      jump\t// out\n        /* \"#utility.yul\":4629:4734   */\n    tag_270:\n        /* \"#utility.yul\":4704:4727   */\n      tag_376\n        /* \"#utility.yul\":4721:4726   */\n      dup2\n        /* \"#utility.yul\":4704:4727   */\n      tag_269\n      jump\t// in\n    tag_376:\n        /* \"#utility.yul\":4699:4702   */\n      dup3\n        /* \"#utility.yul\":4692:4728   */\n      mstore\n        /* \"#utility.yul\":4629:4734   */\n      pop\n      pop\n      jump\t// out\n        /* \"#utility.yul\":4816:5667   */\n    tag_271:\n        /* \"#utility.yul\":4955:4959   */\n      0x80\n        /* \"#utility.yul\":4950:4953   */\n      dup3\n        /* \"#utility.yul\":4946:4960   */\n      add\n        /* \"#utility.yul\":5042:5046   */\n      0x00\n        /* \"#utility.yul\":5035:5040   */\n      dup3\n        /* \"#utility.yul\":5031:5047   */\n      add\n        /* \"#utility.yul\":5025:5048   */\n      mload\n        /* \"#utility.yul\":5061:5124   */\n      tag_378\n        /* \"#utility.yul\":5118:5122   */\n      0x00\n        /* \"#utility.yul\":5113:5116   */\n      dup6\n        /* \"#utility.yul\":5109:5123   */\n      add\n        /* \"#utility.yul\":5095:5107   */\n      dup3\n        /* \"#utility.yul\":5061:5124   */\n      tag_267\n      jump\t// in\n    tag_378:\n        /* \"#utility.yul\":4970:5134   */\n      pop\n        /* \"#utility.yul\":5214:5218   */\n      0x20\n        /* \"#utility.yul\":5207:5212   */\n      dup3\n        /* \"#utility.yul\":5203:5219   */\n      add\n        /* \"#utility.yul\":5197:5220   */\n      mload\n        /* \"#utility.yul\":5233:5296   */\n      tag_379\n        /* \"#utility.yul\":5290:5294   */\n      0x20\n        /* \"#utility.yul\":5285:5288   */\n      dup6\n        /* \"#utility.yul\":5281:5295   */\n      add\n        /* \"#utility.yul\":5267:5279   */\n      dup3\n        /* \"#utility.yul\":5233:5296   */\n      tag_267\n      jump\t// in\n    tag_379:\n        /* \"#utility.yul\":5144:5306   */\n      pop\n        /* \"#utility.yul\":5390:5394   */\n      0x40\n        /* \"#utility.yul\":5383:5388   */\n      dup3\n        /* \"#utility.yul\":5379:5395   */\n      add\n        /* \"#utility.yul\":5373:5396   */\n      mload\n        /* \"#utility.yul\":5409:5472   */\n      tag_380\n        /* \"#utility.yul\":5466:5470   */\n      0x40\n        /* \"#utility.yul\":5461:5464   */\n      dup6\n        /* \"#utility.yul\":5457:5471   */\n      add\n        /* \"#utility.yul\":5443:5455   */\n      dup3\n        /* \"#utility.yul\":5409:5472   */\n      tag_268\n      jump\t// in\n    tag_380:\n        /* \"#utility.yul\":5316:5482   */\n      pop\n        /* \"#utility.yul\":5570:5574   */\n      0x60\n        /* \"#utility.yul\":5563:5568   */\n      dup3\n        /* \"#utility.yul\":5559:5575   */\n      add\n        /* \"#utility.yul\":5553:5576   */\n      mload\n        /* \"#utility.yul\":5589:5650   */\n      tag_381\n        /* \"#utility.yul\":5644:5648   */\n      0x60\n        /* \"#utility.yul\":5639:5642   */\n      dup6\n        /* \"#utility.yul\":5635:5649   */\n      add\n        /* \"#utility.yul\":5621:5633   */\n      dup3\n        /* \"#utility.yul\":5589:5650   */\n      tag_270\n      jump\t// in\n    tag_381:\n        /* \"#utility.yul\":5492:5660   */\n      pop\n        /* \"#utility.yul\":4924:5667   */\n      pop\n        /* \"#utility.yul\":4816:5667   */\n      pop\n      pop\n      jump\t// out\n        /* \"#utility.yul\":5673:5956   */\n    tag_272:\n        /* \"#utility.yul\":5794:5804   */\n      0x00\n        /* \"#utility.yul\":5815:5913   */\n      tag_383\n        /* \"#utility.yul\":5909:5912   */\n      dup4\n        /* \"#utility.yul\":5901:5907   */\n      dup4\n        /* \"#utility.yul\":5815:5913   */\n      tag_271\n      jump\t// in\n    tag_383:\n        /* \"#utility.yul\":5945:5949   */\n      0x80\n        /* \"#utility.yul\":5940:5943   */\n      dup4\n        /* \"#utility.yul\":5936:5950   */\n      add\n        /* \"#utility.yul\":5922:5950   */\n      swap1\n      pop\n        /* \"#utility.yul\":5673:5956   */\n      swap3\n      swap2\n      pop\n      pop\n      jump\t// out\n        /* \"#utility.yul\":5962:6101   */\n    tag_273:\n        /* \"#utility.yul\":6058:6062   */\n      0x00\n        /* \"#utility.yul\":6090:6094   */\n      0x20\n        /* \"#utility.yul\":6085:6088   */\n      dup3\n        /* \"#utility.yul\":6081:6095   */\n      add\n        /* \"#utility.yul\":6073:6095   */\n      swap1\n      pop\n        /* \"#utility.yul\":5962:6101   */\n      swap2\n      swap1\n      pop\n      jump\t// out\n        /* \"#utility.yul\":6187:7127   */\n    tag_274:\n        /* \"#utility.yul\":6358:6361   */\n      0x00\n        /* \"#utility.yul\":6387:6467   */\n      tag_386\n        /* \"#utility.yul\":6461:6466   */\n      dup3\n        /* \"#utility.yul\":6387:6467   */\n      tag_263\n      jump\t// in\n    tag_386:\n        /* \"#utility.yul\":6483:6595   */\n      tag_387\n        /* \"#utility.yul\":6588:6594   */\n      dup2\n        /* \"#utility.yul\":6583:6586   */\n      dup6\n        /* \"#utility.yul\":6483:6595   */\n      tag_264\n      jump\t// in\n    tag_387:\n        /* \"#utility.yul\":6476:6595   */\n      swap4\n      pop\n        /* \"#utility.yul\":6619:6701   */\n      tag_388\n        /* \"#utility.yul\":6695:6700   */\n      dup4\n        /* \"#utility.yul\":6619:6701   */\n      tag_265\n      jump\t// in\n    tag_388:\n        /* \"#utility.yul\":6724:6731   */\n      dup1\n        /* \"#utility.yul\":6755:6756   */\n      0x00\n        /* \"#utility.yul\":6740:7102   */\n    tag_389:\n        /* \"#utility.yul\":6765:6771   */\n      dup4\n        /* \"#utility.yul\":6762:6763   */\n      dup2\n        /* \"#utility.yul\":6759:6772   */\n      lt\n        /* \"#utility.yul\":6740:7102   */\n      iszero\n      tag_391\n      jumpi\n        /* \"#utility.yul\":6841:6847   */\n      dup2\n        /* \"#utility.yul\":6835:6848   */\n      mload\n        /* \"#utility.yul\":6868:6983   */\n      tag_392\n        /* \"#utility.yul\":6979:6982   */\n      dup9\n        /* \"#utility.yul\":6964:6977   */\n      dup3\n        /* \"#utility.yul\":6868:6983   */\n      tag_272\n      jump\t// in\n    tag_392:\n        /* \"#utility.yul\":6861:6983   */\n      swap8\n      pop\n        /* \"#utility.yul\":7006:7092   */\n      tag_393\n        /* \"#utility.yul\":7085:7091   */\n      dup4\n        /* \"#utility.yul\":7006:7092   */\n      tag_273\n      jump\t// in\n    tag_393:\n        /* \"#utility.yul\":6996:7092   */\n      swap3\n      pop\n        /* \"#utility.yul\":6800:7102   */\n      pop\n        /* \"#utility.yul\":6787:6788   */\n      0x01\n        /* \"#utility.yul\":6784:6785   */\n      dup2\n        /* \"#utility.yul\":6780:6789   */\n      add\n        /* \"#utility.yul\":6775:6789   */\n      swap1\n      pop\n        /* \"#utility.yul\":6740:7102   */\n      jump(tag_389)\n    tag_391:\n        /* \"#utility.yul\":6744:6758   */\n      pop\n        /* \"#utility.yul\":7118:7121   */\n      dup6\n        /* \"#utility.yul\":7111:7121   */\n      swap4\n      pop\n        /* \"#utility.yul\":6363:7127   */\n      pop\n      pop\n      pop\n        /* \"#utility.yul\":6187:7127   */\n      swap3\n      swap2\n      pop\n      pop\n      jump\t// out\n        /* \"#utility.yul\":7133:7610   */\n    tag_60:\n        /* \"#utility.yul\":7328:7332   */\n      0x00\n        /* \"#utility.yul\":7366:7368   */\n      0x20\n        /* \"#utility.yul\":7355:7364   */\n      dup3\n        /* \"#utility.yul\":7351:7369   */\n      add\n        /* \"#utility.yul\":7343:7369   */\n      swap1\n      pop\n        /* \"#utility.yul\":7415:7424   */\n      dup2\n        /* \"#utility.yul\":7409:7413   */\n      dup2\n        /* \"#utility.yul\":7405:7425   */\n      sub\n        /* \"#utility.yul\":7401:7402   */\n      0x00\n        /* \"#utility.yul\":7390:7399   */\n      dup4\n        /* \"#utility.yul\":7386:7403   */\n      add\n        /* \"#utility.yul\":7379:7426   */\n      mstore\n        /* \"#utility.yul\":7443:7603   */\n      tag_395\n        /* \"#utility.yul\":7598:7602   */\n      dup2\n        /* \"#utility.yul\":7589:7595   */\n      dup5\n        /* \"#utility.yul\":7443:7603   */\n      tag_274\n      jump\t// in\n    tag_395:\n        /* \"#utility.yul\":7435:7603   */\n      swap1\n      pop\n        /* \"#utility.yul\":7133:7610   */\n      swap3\n      swap2\n      pop\n      pop\n      jump\t// out\n        /* \"#utility.yul\":7616:7734   */\n    tag_275:\n        /* \"#utility.yul\":7703:7727   */\n      tag_397\n        /* \"#utility.yul\":7721:7726   */\n      dup2\n        /* \"#utility.yul\":7703:7727   */\n      tag_266\n      jump\t// in\n    tag_397:\n        /* \"#utility.yul\":7698:7701   */\n      dup3\n        /* \"#utility.yul\":7691:7728   */\n      mstore\n        /* \"#utility.yul\":7616:7734   */\n      pop\n      pop\n      jump\t// out\n        /* \"#utility.yul\":7740:7962   */\n    tag_65:\n        /* \"#utility.yul\":7833:7837   */\n      0x00\n        /* \"#utility.yul\":7871:7873   */\n      0x20\n        /* \"#utility.yul\":7860:7869   */\n      dup3\n        /* \"#utility.yul\":7856:7874   */\n      add\n        /* \"#utility.yul\":7848:7874   */\n      swap1\n      pop\n        /* \"#utility.yul\":7884:7955   */\n      tag_399\n        /* \"#utility.yul\":7952:7953   */\n      0x00\n        /* \"#utility.yul\":7941:7950   */\n      dup4\n        /* \"#utility.yul\":7937:7954   */\n      add\n        /* \"#utility.yul\":7928:7934   */\n      dup5\n        /* \"#utility.yul\":7884:7955   */\n      tag_275\n      jump\t// in\n    tag_399:\n        /* \"#utility.yul\":7740:7962   */\n      swap3\n      swap2\n      pop\n      pop\n      jump\t// out\n        /* \"#utility.yul\":7968:8067   */\n    tag_276:\n        /* \"#utility.yul\":8039:8060   */\n      tag_401\n        /* \"#utility.yul\":8054:8059   */\n      dup2\n        /* \"#utility.yul\":8039:8060   */\n      tag_261\n      jump\t// in\n    tag_401:\n        /* \"#utility.yul\":8034:8037   */\n      dup3\n        /* \"#utility.yul\":8027:8061   */\n      mstore\n        /* \"#utility.yul\":7968:8067   */\n      pop\n      pop\n      jump\t// out\n        /* \"#utility.yul\":8145:9007   */\n    tag_277:\n        /* \"#utility.yul\":8290:8294   */\n      0x80\n        /* \"#utility.yul\":8285:8288   */\n      dup3\n        /* \"#utility.yul\":8281:8295   */\n      add\n        /* \"#utility.yul\":8379:8383   */\n      0x00\n        /* \"#utility.yul\":8372:8377   */\n      dup3\n        /* \"#utility.yul\":8368:8384   */\n      add\n        /* \"#utility.yul\":8362:8385   */\n      mload\n        /* \"#utility.yul\":8398:8461   */\n      tag_403\n        /* \"#utility.yul\":8455:8459   */\n      0x00\n        /* \"#utility.yul\":8450:8453   */\n      dup6\n        /* \"#utility.yul\":8446:8460   */\n      add\n        /* \"#utility.yul\":8432:8444   */\n      dup3\n        /* \"#utility.yul\":8398:8461   */\n      tag_267\n      jump\t// in\n    tag_403:\n        /* \"#utility.yul\":8305:8471   */\n      pop\n        /* \"#utility.yul\":8555:8559   */\n      0x20\n        /* \"#utility.yul\":8548:8553   */\n      dup3\n        /* \"#utility.yul\":8544:8560   */\n      add\n        /* \"#utility.yul\":8538:8561   */\n      mload\n        /* \"#utility.yul\":8574:8637   */\n      tag_404\n        /* \"#utility.yul\":8631:8635   */\n      0x20\n        /* \"#utility.yul\":8626:8629   */\n      dup6\n        /* \"#utility.yul\":8622:8636   */\n      add\n        /* \"#utility.yul\":8608:8620   */\n      dup3\n        /* \"#utility.yul\":8574:8637   */\n      tag_268\n      jump\t// in\n    tag_404:\n        /* \"#utility.yul\":8481:8647   */\n      pop\n        /* \"#utility.yul\":8738:8742   */\n      0x40\n        /* \"#utility.yul\":8731:8736   */\n      dup3\n        /* \"#utility.yul\":8727:8743   */\n      add\n        /* \"#utility.yul\":8721:8744   */\n      mload\n        /* \"#utility.yul\":8757:8820   */\n      tag_405\n        /* \"#utility.yul\":8814:8818   */\n      0x40\n        /* \"#utility.yul\":8809:8812   */\n      dup6\n        /* \"#utility.yul\":8805:8819   */\n      add\n        /* \"#utility.yul\":8791:8803   */\n      dup3\n        /* \"#utility.yul\":8757:8820   */\n      tag_268\n      jump\t// in\n    tag_405:\n        /* \"#utility.yul\":8657:8830   */\n      pop\n        /* \"#utility.yul\":8914:8918   */\n      0x60\n        /* \"#utility.yul\":8907:8912   */\n      dup3\n        /* \"#utility.yul\":8903:8919   */\n      add\n        /* \"#utility.yul\":8897:8920   */\n      mload\n        /* \"#utility.yul\":8933:8990   */\n      tag_406\n        /* \"#utility.yul\":8984:8988   */\n      0x60\n        /* \"#utility.yul\":8979:8982   */\n      dup6\n        /* \"#utility.yul\":8975:8989   */\n      add\n        /* \"#utility.yul\":8961:8973   */\n      dup3\n        /* \"#utility.yul\":8933:8990   */\n      tag_276\n      jump\t// in\n    tag_406:\n        /* \"#utility.yul\":8840:9000   */\n      pop\n        /* \"#utility.yul\":8259:9007   */\n      pop\n        /* \"#utility.yul\":8145:9007   */\n      pop\n      pop\n      jump\t// out\n        /* \"#utility.yul\":9013:9332   */\n    tag_71:\n        /* \"#utility.yul\":9154:9158   */\n      0x00\n        /* \"#utility.yul\":9192:9195   */\n      0x80\n        /* \"#utility.yul\":9181:9190   */\n      dup3\n        /* \"#utility.yul\":9177:9196   */\n      add\n        /* \"#utility.yul\":9169:9196   */\n      swap1\n      pop\n        /* \"#utility.yul\":9206:9325   */\n      tag_408\n        /* \"#utility.yul\":9322:9323   */\n      0x00\n        /* \"#utility.yul\":9311:9320   */\n      dup4\n        /* \"#utility.yul\":9307:9324   */\n      add\n        /* \"#utility.yul\":9298:9304   */\n      dup5\n        /* \"#utility.yul\":9206:9325   */\n      tag_277\n      jump\t// in\n    tag_408:\n        /* \"#utility.yul\":9013:9332   */\n      swap3\n      swap2\n      pop\n      pop\n      jump\t// out\n        /* \"#utility.yul\":9338:9460   */\n    tag_278:\n        /* \"#utility.yul\":9411:9435   */\n      tag_410\n        /* \"#utility.yul\":9429:9434   */\n      dup2\n        /* \"#utility.yul\":9411:9435   */\n      tag_266\n      jump\t// in\n    tag_410:\n        /* \"#utility.yul\":9404:9409   */\n      dup2\n        /* \"#utility.yul\":9401:9436   */\n      eq\n        /* \"#utility.yul\":9391:9454   */\n      tag_411\n      jumpi\n        /* \"#utility.yul\":9450:9451   */\n      0x00\n        /* \"#utility.yul\":9447:9448   */\n      dup1\n        /* \"#utility.yul\":9440:9452   */\n      revert\n        /* \"#utility.yul\":9391:9454   */\n    tag_411:\n        /* \"#utility.yul\":9338:9460   */\n      pop\n      jump\t// out\n        /* \"#utility.yul\":9466:9605   */\n    tag_279:\n        /* \"#utility.yul\":9512:9517   */\n      0x00\n        /* \"#utility.yul\":9550:9556   */\n      dup2\n        /* \"#utility.yul\":9537:9557   */\n      calldataload\n        /* \"#utility.yul\":9528:9557   */\n      swap1\n      pop\n        /* \"#utility.yul\":9566:9599   */\n      tag_413\n        /* \"#utility.yul\":9593:9598   */\n      dup2\n        /* \"#utility.yul\":9566:9599   */\n      tag_278\n      jump\t// in\n    tag_413:\n        /* \"#utility.yul\":9466:9605   */\n      swap3\n      swap2\n      pop\n      pop\n      jump\t// out\n        /* \"#utility.yul\":9611:9940   */\n    tag_75:\n        /* \"#utility.yul\":9670:9676   */\n      0x00\n        /* \"#utility.yul\":9719:9721   */\n      0x20\n        /* \"#utility.yul\":9707:9716   */\n      dup3\n        /* \"#utility.yul\":9698:9705   */\n      dup5\n        /* \"#utility.yul\":9694:9717   */\n      sub\n        /* \"#utility.yul\":9690:9722   */\n      slt\n        /* \"#utility.yul\":9687:9806   */\n      iszero\n      tag_415\n      jumpi\n        /* \"#utility.yul\":9725:9804   */\n      tag_416\n      tag_247\n      jump\t// in\n    tag_416:\n        /* \"#utility.yul\":9687:9806   */\n    tag_415:\n        /* \"#utility.yul\":9845:9846   */\n      0x00\n        /* \"#utility.yul\":9870:9923   */\n      tag_417\n        /* \"#utility.yul\":9915:9922   */\n      dup5\n        /* \"#utility.yul\":9906:9912   */\n      dup3\n        /* \"#utility.yul\":9895:9904   */\n      dup6\n        /* \"#utility.yul\":9891:9913   */\n      add\n        /* \"#utility.yul\":9870:9923   */\n      tag_279\n      jump\t// in\n    tag_417:\n        /* \"#utility.yul\":9860:9923   */\n      swap2\n      pop\n        /* \"#utility.yul\":9816:9933   */\n      pop\n        /* \"#utility.yul\":9611:9940   */\n      swap3\n      swap2\n      pop\n      pop\n      jump\t// out\n        /* \"#utility.yul\":9946:10064   */\n    tag_280:\n        /* \"#utility.yul\":10033:10057   */\n      tag_419\n        /* \"#utility.yul\":10051:10056   */\n      dup2\n        /* \"#utility.yul\":10033:10057   */\n      tag_249\n      jump\t// in\n    tag_419:\n        /* \"#utility.yul\":10028:10031   */\n      dup3\n        /* \"#utility.yul\":10021:10058   */\n      mstore\n        /* \"#utility.yul\":9946:10064   */\n      pop\n      pop\n      jump\t// out\n        /* \"#utility.yul\":10070:10292   */\n    tag_78:\n        /* \"#utility.yul\":10163:10167   */\n      0x00\n        /* \"#utility.yul\":10201:10203   */\n      0x20\n        /* \"#utility.yul\":10190:10199   */\n      dup3\n        /* \"#utility.yul\":10186:10204   */\n      add\n        /* \"#utility.yul\":10178:10204   */\n      swap1\n      pop\n        /* \"#utility.yul\":10214:10285   */\n      tag_421\n        /* \"#utility.yul\":10282:10283   */\n      0x00\n        /* \"#utility.yul\":10271:10280   */\n      dup4\n        /* \"#utility.yul\":10267:10284   */\n      add\n        /* \"#utility.yul\":10258:10264   */\n      dup5\n        /* \"#utility.yul\":10214:10285   */\n      tag_280\n      jump\t// in\n    tag_421:\n        /* \"#utility.yul\":10070:10292   */\n      swap3\n      swap2\n      pop\n      pop\n      jump\t// out\n        /* \"#utility.yul\":10298:10415   */\n    tag_281:\n        /* \"#utility.yul\":10407:10408   */\n      0x00\n        /* \"#utility.yul\":10404:10405   */\n      dup1\n        /* \"#utility.yul\":10397:10409   */\n      revert\n        /* \"#utility.yul\":10421:10538   */\n    tag_282:\n        /* \"#utility.yul\":10530:10531   */\n      0x00\n        /* \"#utility.yul\":10527:10528   */\n      dup1\n        /* \"#utility.yul\":10520:10532   */\n      revert\n        /* \"#utility.yul\":10544:10646   */\n    tag_283:\n        /* \"#utility.yul\":10585:10591   */\n      0x00\n        /* \"#utility.yul\":10636:10638   */\n      0x1f\n        /* \"#utility.yul\":10632:10639   */\n      not\n        /* \"#utility.yul\":10627:10629   */\n      0x1f\n        /* \"#utility.yul\":10620:10625   */\n      dup4\n        /* \"#utility.yul\":10616:10630   */\n      add\n        /* \"#utility.yul\":10612:10640   */\n      and\n        /* \"#utility.yul\":10602:10640   */\n      swap1\n      pop\n        /* \"#utility.yul\":10544:10646   */\n      swap2\n      swap1\n      pop\n      jump\t// out\n        /* \"#utility.yul\":10652:10832   */\n    tag_284:\n        /* \"#utility.yul\":10700:10777   */\n      0x4e487b7100000000000000000000000000000000000000000000000000000000\n        /* \"#utility.yul\":10697:10698   */\n      0x00\n        /* \"#utility.yul\":10690:10778   */\n      mstore\n        /* \"#utility.yul\":10797:10801   */\n      0x41\n        /* \"#utility.yul\":10794:10795   */\n      0x04\n        /* \"#utility.yul\":10787:10802   */\n      mstore\n        /* \"#utility.yul\":10821:10825   */\n      0x24\n        /* \"#utility.yul\":10818:10819   */\n      0x00\n        /* \"#utility.yul\":10811:10826   */\n      revert\n        /* \"#utility.yul\":10838:11119   */\n    tag_285:\n        /* \"#utility.yul\":10921:10948   */\n      tag_427\n        /* \"#utility.yul\":10943:10947   */\n      dup3\n        /* \"#utility.yul\":10921:10948   */\n      tag_283\n      jump\t// in\n    tag_427:\n        /* \"#utility.yul\":10913:10919   */\n      dup2\n        /* \"#utility.yul\":10909:10949   */\n      add\n        /* \"#utility.yul\":11051:11057   */\n      dup2\n        /* \"#utility.yul\":11039:11049   */\n      dup2\n        /* \"#utility.yul\":11036:11058   */\n      lt\n        /* \"#utility.yul\":11015:11033   */\n      0xffffffffffffffff\n        /* \"#utility.yul\":11003:11013   */\n      dup3\n        /* \"#utility.yul\":11000:11034   */\n      gt\n        /* \"#utility.yul\":10997:11059   */\n      or\n        /* \"#utility.yul\":10994:11082   */\n      iszero\n      tag_428\n      jumpi\n        /* \"#utility.yul\":11062:11080   */\n      tag_429\n      tag_284\n      jump\t// in\n    tag_429:\n        /* \"#utility.yul\":10994:11082   */\n    tag_428:\n        /* \"#utility.yul\":11102:11112   */\n      dup1\n        /* \"#utility.yul\":11098:11100   */\n      0x40\n        /* \"#utility.yul\":11091:11113   */\n      mstore\n        /* \"#utility.yul\":10881:11119   */\n      pop\n        /* \"#utility.yul\":10838:11119   */\n      pop\n      pop\n      jump\t// out\n        /* \"#utility.yul\":11125:11254   */\n    tag_286:\n        /* \"#utility.yul\":11159:11165   */\n      0x00\n        /* \"#utility.yul\":11186:11206   */\n      tag_431\n      tag_246\n      jump\t// in\n    tag_431:\n        /* \"#utility.yul\":11176:11206   */\n      swap1\n      pop\n        /* \"#utility.yul\":11215:11248   */\n      tag_432\n        /* \"#utility.yul\":11243:11247   */\n      dup3\n        /* \"#utility.yul\":11235:11241   */\n      dup3\n        /* \"#utility.yul\":11215:11248   */\n      tag_285\n      jump\t// in\n    tag_432:\n        /* \"#utility.yul\":11125:11254   */\n      swap2\n      swap1\n      pop\n      jump\t// out\n        /* \"#utility.yul\":11260:11568   */\n    tag_287:\n        /* \"#utility.yul\":11322:11326   */\n      0x00\n        /* \"#utility.yul\":11412:11430   */\n      0xffffffffffffffff\n        /* \"#utility.yul\":11404:11410   */\n      dup3\n        /* \"#utility.yul\":11401:11431   */\n      gt\n        /* \"#utility.yul\":11398:11454   */\n      iszero\n      tag_434\n      jumpi\n        /* \"#utility.yul\":11434:11452   */\n      tag_435\n      tag_284\n      jump\t// in\n    tag_435:\n        /* \"#utility.yul\":11398:11454   */\n    tag_434:\n        /* \"#utility.yul\":11472:11501   */\n      tag_436\n        /* \"#utility.yul\":11494:11500   */\n      dup3\n        /* \"#utility.yul\":11472:11501   */\n      tag_283\n      jump\t// in\n    tag_436:\n        /* \"#utility.yul\":11464:11501   */\n      swap1\n      pop\n        /* \"#utility.yul\":11556:11560   */\n      0x20\n        /* \"#utility.yul\":11550:11554   */\n      dup2\n        /* \"#utility.yul\":11546:11561   */\n      add\n        /* \"#utility.yul\":11538:11561   */\n      swap1\n      pop\n        /* \"#utility.yul\":11260:11568   */\n      swap2\n      swap1\n      pop\n      jump\t// out\n        /* \"#utility.yul\":11574:11722   */\n    tag_288:\n        /* \"#utility.yul\":11672:11678   */\n      dup3\n        /* \"#utility.yul\":11667:11670   */\n      dup2\n        /* \"#utility.yul\":11662:11665   */\n      dup4\n        /* \"#utility.yul\":11649:11679   */\n      calldatacopy\n        /* \"#utility.yul\":11713:11714   */\n      0x00\n        /* \"#utility.yul\":11704:11710   */\n      dup4\n        /* \"#utility.yul\":11699:11702   */\n      dup4\n        /* \"#utility.yul\":11695:11711   */\n      add\n        /* \"#utility.yul\":11688:11715   */\n      mstore\n        /* \"#utility.yul\":11574:11722   */\n      pop\n      pop\n      pop\n      jump\t// out\n        /* \"#utility.yul\":11728:12153   */\n    tag_289:\n        /* \"#utility.yul\":11806:11811   */\n      0x00\n        /* \"#utility.yul\":11831:11897   */\n      tag_439\n        /* \"#utility.yul\":11847:11896   */\n      tag_440\n        /* \"#utility.yul\":11889:11895   */\n      dup5\n        /* \"#utility.yul\":11847:11896   */\n      tag_287\n      jump\t// in\n    tag_440:\n        /* \"#utility.yul\":11831:11897   */\n      tag_286\n      jump\t// in\n    tag_439:\n        /* \"#utility.yul\":11822:11897   */\n      swap1\n      pop\n        /* \"#utility.yul\":11920:11926   */\n      dup3\n        /* \"#utility.yul\":11913:11918   */\n      dup2\n        /* \"#utility.yul\":11906:11927   */\n      mstore\n        /* \"#utility.yul\":11958:11962   */\n      0x20\n        /* \"#utility.yul\":11951:11956   */\n      dup2\n        /* \"#utility.yul\":11947:11963   */\n      add\n        /* \"#utility.yul\":11996:11999   */\n      dup5\n        /* \"#utility.yul\":11987:11993   */\n      dup5\n        /* \"#utility.yul\":11982:11985   */\n      dup5\n        /* \"#utility.yul\":11978:11994   */\n      add\n        /* \"#utility.yul\":11975:12000   */\n      gt\n        /* \"#utility.yul\":11972:12084   */\n      iszero\n      tag_441\n      jumpi\n        /* \"#utility.yul\":12003:12082   */\n      tag_442\n      tag_282\n      jump\t// in\n    tag_442:\n        /* \"#utility.yul\":11972:12084   */\n    tag_441:\n        /* \"#utility.yul\":12093:12147   */\n      tag_443\n        /* \"#utility.yul\":12140:12146   */\n      dup5\n        /* \"#utility.yul\":12135:12138   */\n      dup3\n        /* \"#utility.yul\":12130:12133   */\n      dup6\n        /* \"#utility.yul\":12093:12147   */\n      tag_288\n      jump\t// in\n    tag_443:\n        /* \"#utility.yul\":11812:12153   */\n      pop\n        /* \"#utility.yul\":11728:12153   */\n      swap4\n      swap3\n      pop\n      pop\n      pop\n      jump\t// out\n        /* \"#utility.yul\":12173:12513   */\n    tag_290:\n        /* \"#utility.yul\":12229:12234   */\n      0x00\n        /* \"#utility.yul\":12278:12281   */\n      dup3\n        /* \"#utility.yul\":12271:12275   */\n      0x1f\n        /* \"#utility.yul\":12263:12269   */\n      dup4\n        /* \"#utility.yul\":12259:12276   */\n      add\n        /* \"#utility.yul\":12255:12282   */\n      slt\n        /* \"#utility.yul\":12245:12367   */\n      tag_445\n      jumpi\n        /* \"#utility.yul\":12286:12365   */\n      tag_446\n      tag_281\n      jump\t// in\n    tag_446:\n        /* \"#utility.yul\":12245:12367   */\n    tag_445:\n        /* \"#utility.yul\":12403:12409   */\n      dup2\n        /* \"#utility.yul\":12390:12410   */\n      calldataload\n        /* \"#utility.yul\":12428:12507   */\n      tag_447\n        /* \"#utility.yul\":12503:12506   */\n      dup5\n        /* \"#utility.yul\":12495:12501   */\n      dup3\n        /* \"#utility.yul\":12488:12492   */\n      0x20\n        /* \"#utility.yul\":12480:12486   */\n      dup7\n        /* \"#utility.yul\":12476:12493   */\n      add\n        /* \"#utility.yul\":12428:12507   */\n      tag_289\n      jump\t// in\n    tag_447:\n        /* \"#utility.yul\":12419:12507   */\n      swap2\n      pop\n        /* \"#utility.yul\":12235:12513   */\n      pop\n        /* \"#utility.yul\":12173:12513   */\n      swap3\n      swap2\n      pop\n      pop\n      jump\t// out\n        /* \"#utility.yul\":12519:13173   */\n    tag_86:\n        /* \"#utility.yul\":12597:12603   */\n      0x00\n        /* \"#utility.yul\":12605:12611   */\n      dup1\n        /* \"#utility.yul\":12654:12656   */\n      0x40\n        /* \"#utility.yul\":12642:12651   */\n      dup4\n        /* \"#utility.yul\":12633:12640   */\n      dup6\n        /* \"#utility.yul\":12629:12652   */\n      sub\n        /* \"#utility.yul\":12625:12657   */\n      slt\n        /* \"#utility.yul\":12622:12741   */\n      iszero\n      tag_449\n      jumpi\n        /* \"#utility.yul\":12660:12739   */\n      tag_450\n      tag_247\n      jump\t// in\n    tag_450:\n        /* \"#utility.yul\":12622:12741   */\n    tag_449:\n        /* \"#utility.yul\":12808:12809   */\n      0x00\n        /* \"#utility.yul\":12797:12806   */\n      dup4\n        /* \"#utility.yul\":12793:12810   */\n      add\n        /* \"#utility.yul\":12780:12811   */\n      calldataload\n        /* \"#utility.yul\":12838:12856   */\n      0xffffffffffffffff\n        /* \"#utility.yul\":12830:12836   */\n      dup2\n        /* \"#utility.yul\":12827:12857   */\n      gt\n        /* \"#utility.yul\":12824:12941   */\n      iszero\n      tag_451\n      jumpi\n        /* \"#utility.yul\":12860:12939   */\n      tag_452\n      tag_248\n      jump\t// in\n    tag_452:\n        /* \"#utility.yul\":12824:12941   */\n    tag_451:\n        /* \"#utility.yul\":12965:13028   */\n      tag_453\n        /* \"#utility.yul\":13020:13027   */\n      dup6\n        /* \"#utility.yul\":13011:13017   */\n      dup3\n        /* \"#utility.yul\":13000:13009   */\n      dup7\n        /* \"#utility.yul\":12996:13018   */\n      add\n        /* \"#utility.yul\":12965:13028   */\n      tag_290\n      jump\t// in\n    tag_453:\n        /* \"#utility.yul\":12955:13028   */\n      swap3\n      pop\n        /* \"#utility.yul\":12751:13038   */\n      pop\n        /* \"#utility.yul\":13077:13079   */\n      0x20\n        /* \"#utility.yul\":13103:13156   */\n      tag_454\n        /* \"#utility.yul\":13148:13155   */\n      dup6\n        /* \"#utility.yul\":13139:13145   */\n      dup3\n        /* \"#utility.yul\":13128:13137   */\n      dup7\n        /* \"#utility.yul\":13124:13146   */\n      add\n        /* \"#utility.yul\":13103:13156   */\n      tag_251\n      jump\t// in\n    tag_454:\n        /* \"#utility.yul\":13093:13156   */\n      swap2\n      pop\n        /* \"#utility.yul\":13048:13166   */\n      pop\n        /* \"#utility.yul\":12519:13173   */\n      swap3\n      pop\n      swap3\n      swap1\n      pop\n      jump\t// out\n        /* \"#utility.yul\":13179:13294   */\n    tag_291:\n        /* \"#utility.yul\":13264:13287   */\n      tag_456\n        /* \"#utility.yul\":13281:13286   */\n      dup2\n        /* \"#utility.yul\":13264:13287   */\n      tag_269\n      jump\t// in\n    tag_456:\n        /* \"#utility.yul\":13259:13262   */\n      dup3\n        /* \"#utility.yul\":13252:13288   */\n      mstore\n        /* \"#utility.yul\":13179:13294   */\n      pop\n      pop\n      jump\t// out\n        /* \"#utility.yul\":13300:13849   */\n    tag_89:\n        /* \"#utility.yul\":13475:13479   */\n      0x00\n        /* \"#utility.yul\":13513:13516   */\n      0x80\n        /* \"#utility.yul\":13502:13511   */\n      dup3\n        /* \"#utility.yul\":13498:13517   */\n      add\n        /* \"#utility.yul\":13490:13517   */\n      swap1\n      pop\n        /* \"#utility.yul\":13527:13598   */\n      tag_458\n        /* \"#utility.yul\":13595:13596   */\n      0x00\n        /* \"#utility.yul\":13584:13593   */\n      dup4\n        /* \"#utility.yul\":13580:13597   */\n      add\n        /* \"#utility.yul\":13571:13577   */\n      dup8\n        /* \"#utility.yul\":13527:13598   */\n      tag_275\n      jump\t// in\n    tag_458:\n        /* \"#utility.yul\":13608:13680   */\n      tag_459\n        /* \"#utility.yul\":13676:13678   */\n      0x20\n        /* \"#utility.yul\":13665:13674   */\n      dup4\n        /* \"#utility.yul\":13661:13679   */\n      add\n        /* \"#utility.yul\":13652:13658   */\n      dup7\n        /* \"#utility.yul\":13608:13680   */\n      tag_275\n      jump\t// in\n    tag_459:\n        /* \"#utility.yul\":13690:13762   */\n      tag_460\n        /* \"#utility.yul\":13758:13760   */\n      0x40\n        /* \"#utility.yul\":13747:13756   */\n      dup4\n        /* \"#utility.yul\":13743:13761   */\n      add\n        /* \"#utility.yul\":13734:13740   */\n      dup6\n        /* \"#utility.yul\":13690:13762   */\n      tag_280\n      jump\t// in\n    tag_460:\n        /* \"#utility.yul\":13772:13842   */\n      tag_461\n        /* \"#utility.yul\":13838:13840   */\n      0x60\n        /* \"#utility.yul\":13827:13836   */\n      dup4\n        /* \"#utility.yul\":13823:13841   */\n      add\n        /* \"#utility.yul\":13814:13820   */\n      dup5\n        /* \"#utility.yul\":13772:13842   */\n      tag_291\n      jump\t// in\n    tag_461:\n        /* \"#utility.yul\":13300:13849   */\n      swap6\n      swap5\n      pop\n      pop\n      pop\n      pop\n      pop\n      jump\t// out\n        /* \"#utility.yul\":13855:14396   */\n    tag_95:\n        /* \"#utility.yul\":14026:14030   */\n      0x00\n        /* \"#utility.yul\":14064:14067   */\n      0x80\n        /* \"#utility.yul\":14053:14062   */\n      dup3\n        /* \"#utility.yul\":14049:14068   */\n      add\n        /* \"#utility.yul\":14041:14068   */\n      swap1\n      pop\n        /* \"#utility.yul\":14078:14149   */\n      tag_463\n        /* \"#utility.yul\":14146:14147   */\n      0x00\n        /* \"#utility.yul\":14135:14144   */\n      dup4\n        /* \"#utility.yul\":14131:14148   */\n      add\n        /* \"#utility.yul\":14122:14128   */\n      dup8\n        /* \"#utility.yul\":14078:14149   */\n      tag_275\n      jump\t// in\n    tag_463:\n        /* \"#utility.yul\":14159:14231   */\n      tag_464\n        /* \"#utility.yul\":14227:14229   */\n      0x20\n        /* \"#utility.yul\":14216:14225   */\n      dup4\n        /* \"#utility.yul\":14212:14230   */\n      add\n        /* \"#utility.yul\":14203:14209   */\n      dup7\n        /* \"#utility.yul\":14159:14231   */\n      tag_280\n      jump\t// in\n    tag_464:\n        /* \"#utility.yul\":14241:14313   */\n      tag_465\n        /* \"#utility.yul\":14309:14311   */\n      0x40\n        /* \"#utility.yul\":14298:14307   */\n      dup4\n        /* \"#utility.yul\":14294:14312   */\n      add\n        /* \"#utility.yul\":14285:14291   */\n      dup6\n        /* \"#utility.yul\":14241:14313   */\n      tag_280\n      jump\t// in\n    tag_465:\n        /* \"#utility.yul\":14323:14389   */\n      tag_466\n        /* \"#utility.yul\":14385:14387   */\n      0x60\n        /* \"#utility.yul\":14374:14383   */\n      dup4\n        /* \"#utility.yul\":14370:14388   */\n      add\n        /* \"#utility.yul\":14361:14367   */\n      dup5\n        /* \"#utility.yul\":14323:14389   */\n      tag_262\n      jump\t// in\n    tag_466:\n        /* \"#utility.yul\":13855:14396   */\n      swap6\n      swap5\n      pop\n      pop\n      pop\n      pop\n      pop\n      jump\t// out\n        /* \"#utility.yul\":14402:14543   */\n    tag_292:\n        /* \"#utility.yul\":14467:14476   */\n      0x00\n        /* \"#utility.yul\":14500:14537   */\n      tag_468\n        /* \"#utility.yul\":14531:14536   */\n      dup3\n        /* \"#utility.yul\":14500:14537   */\n      tag_255\n      jump\t// in\n    tag_468:\n        /* \"#utility.yul\":14487:14537   */\n      swap1\n      pop\n        /* \"#utility.yul\":14402:14543   */\n      swap2\n      swap1\n      pop\n      jump\t// out\n        /* \"#utility.yul\":14549:14710   */\n    tag_293:\n        /* \"#utility.yul\":14651:14703   */\n      tag_470\n        /* \"#utility.yul\":14697:14702   */\n      dup2\n        /* \"#utility.yul\":14651:14703   */\n      tag_292\n      jump\t// in\n    tag_470:\n        /* \"#utility.yul\":14646:14649   */\n      dup3\n        /* \"#utility.yul\":14639:14704   */\n      mstore\n        /* \"#utility.yul\":14549:14710   */\n      pop\n      pop\n      jump\t// out\n        /* \"#utility.yul\":14716:14968   */\n    tag_100:\n        /* \"#utility.yul\":14824:14828   */\n      0x00\n        /* \"#utility.yul\":14862:14864   */\n      0x20\n        /* \"#utility.yul\":14851:14860   */\n      dup3\n        /* \"#utility.yul\":14847:14865   */\n      add\n        /* \"#utility.yul\":14839:14865   */\n      swap1\n      pop\n        /* \"#utility.yul\":14875:14961   */\n      tag_472\n        /* \"#utility.yul\":14958:14959   */\n      0x00\n        /* \"#utility.yul\":14947:14956   */\n      dup4\n        /* \"#utility.yul\":14943:14960   */\n      add\n        /* \"#utility.yul\":14934:14940   */\n      dup5\n        /* \"#utility.yul\":14875:14961   */\n      tag_293\n      jump\t// in\n    tag_472:\n        /* \"#utility.yul\":14716:14968   */\n      swap3\n      swap2\n      pop\n      pop\n      jump\t// out\n        /* \"#utility.yul\":14974:15122   */\n    tag_294:\n        /* \"#utility.yul\":15076:15087   */\n      0x00\n        /* \"#utility.yul\":15113:15116   */\n      dup2\n        /* \"#utility.yul\":15098:15116   */\n      swap1\n      pop\n        /* \"#utility.yul\":14974:15122   */\n      swap3\n      swap2\n      pop\n      pop\n      jump\t// out\n        /* \"#utility.yul\":15128:15282   */\n    tag_295:\n        /* \"#utility.yul\":15268:15274   */\n      0x4952454300000000000000000000000000000000000000000000000000000000\n        /* \"#utility.yul\":15264:15265   */\n      0x00\n        /* \"#utility.yul\":15256:15262   */\n      dup3\n        /* \"#utility.yul\":15252:15266   */\n      add\n        /* \"#utility.yul\":15245:15275   */\n      mstore\n        /* \"#utility.yul\":15128:15282   */\n      pop\n      jump\t// out\n        /* \"#utility.yul\":15288:15688   */\n    tag_296:\n        /* \"#utility.yul\":15448:15451   */\n      0x00\n        /* \"#utility.yul\":15469:15553   */\n      tag_476\n        /* \"#utility.yul\":15551:15552   */\n      0x04\n        /* \"#utility.yul\":15546:15549   */\n      dup4\n        /* \"#utility.yul\":15469:15553   */\n      tag_294\n      jump\t// in\n    tag_476:\n        /* \"#utility.yul\":15462:15553   */\n      swap2\n      pop\n        /* \"#utility.yul\":15562:15655   */\n      tag_477\n        /* \"#utility.yul\":15651:15654   */\n      dup3\n        /* \"#utility.yul\":15562:15655   */\n      tag_295\n      jump\t// in\n    tag_477:\n        /* \"#utility.yul\":15680:15681   */\n      0x04\n        /* \"#utility.yul\":15675:15678   */\n      dup3\n        /* \"#utility.yul\":15671:15682   */\n      add\n        /* \"#utility.yul\":15664:15682   */\n      swap1\n      pop\n        /* \"#utility.yul\":15288:15688   */\n      swap2\n      swap1\n      pop\n      jump\t// out\n        /* \"#utility.yul\":15694:16075   */\n    tag_114:\n        /* \"#utility.yul\":15879:15882   */\n      0x00\n        /* \"#utility.yul\":15901:16049   */\n      tag_479\n        /* \"#utility.yul\":16045:16048   */\n      dup3\n        /* \"#utility.yul\":15901:16049   */\n      tag_296\n      jump\t// in\n    tag_479:\n        /* \"#utility.yul\":15894:16049   */\n      swap2\n      pop\n        /* \"#utility.yul\":16066:16069   */\n      dup2\n        /* \"#utility.yul\":16059:16069   */\n      swap1\n      pop\n        /* \"#utility.yul\":15694:16075   */\n      swap2\n      swap1\n      pop\n      jump\t// out\n        /* \"#utility.yul\":16081:16250   */\n    tag_297:\n        /* \"#utility.yul\":16165:16176   */\n      0x00\n        /* \"#utility.yul\":16199:16205   */\n      dup3\n        /* \"#utility.yul\":16194:16197   */\n      dup3\n        /* \"#utility.yul\":16187:16206   */\n      mstore\n        /* \"#utility.yul\":16239:16243   */\n      0x20\n        /* \"#utility.yul\":16234:16237   */\n      dup3\n        /* \"#utility.yul\":16230:16244   */\n      add\n        /* \"#utility.yul\":16215:16244   */\n      swap1\n      pop\n        /* \"#utility.yul\":16081:16250   */\n      swap3\n      swap2\n      pop\n      pop\n      jump\t// out\n        /* \"#utility.yul\":16256:16422   */\n    tag_298:\n        /* \"#utility.yul\":16396:16414   */\n      0x546f6b656e206e6f742061637469766500000000000000000000000000000000\n        /* \"#utility.yul\":16392:16393   */\n      0x00\n        /* \"#utility.yul\":16384:16390   */\n      dup3\n        /* \"#utility.yul\":16380:16394   */\n      add\n        /* \"#utility.yul\":16373:16415   */\n      mstore\n        /* \"#utility.yul\":16256:16422   */\n      pop\n      jump\t// out\n        /* \"#utility.yul\":16428:16794   */\n    tag_299:\n        /* \"#utility.yul\":16570:16573   */\n      0x00\n        /* \"#utility.yul\":16591:16658   */\n      tag_483\n        /* \"#utility.yul\":16655:16657   */\n      0x10\n        /* \"#utility.yul\":16650:16653   */\n      dup4\n        /* \"#utility.yul\":16591:16658   */\n      tag_297\n      jump\t// in\n    tag_483:\n        /* \"#utility.yul\":16584:16658   */\n      swap2\n      pop\n        /* \"#utility.yul\":16667:16760   */\n      tag_484\n        /* \"#utility.yul\":16756:16759   */\n      dup3\n        /* \"#utility.yul\":16667:16760   */\n      tag_298\n      jump\t// in\n    tag_484:\n        /* \"#utility.yul\":16785:16787   */\n      0x20\n        /* \"#utility.yul\":16780:16783   */\n      dup3\n        /* \"#utility.yul\":16776:16788   */\n      add\n        /* \"#utility.yul\":16769:16788   */\n      swap1\n      pop\n        /* \"#utility.yul\":16428:16794   */\n      swap2\n      swap1\n      pop\n      jump\t// out\n        /* \"#utility.yul\":16800:17219   */\n    tag_117:\n        /* \"#utility.yul\":16966:16970   */\n      0x00\n        /* \"#utility.yul\":17004:17006   */\n      0x20\n        /* \"#utility.yul\":16993:17002   */\n      dup3\n        /* \"#utility.yul\":16989:17007   */\n      add\n        /* \"#utility.yul\":16981:17007   */\n      swap1\n      pop\n        /* \"#utility.yul\":17053:17062   */\n      dup2\n        /* \"#utility.yul\":17047:17051   */\n      dup2\n        /* \"#utility.yul\":17043:17063   */\n      sub\n        /* \"#utility.yul\":17039:17040   */\n      0x00\n        /* \"#utility.yul\":17028:17037   */\n      dup4\n        /* \"#utility.yul\":17024:17041   */\n      add\n        /* \"#utility.yul\":17017:17064   */\n      mstore\n        /* \"#utility.yul\":17081:17212   */\n      tag_486\n        /* \"#utility.yul\":17207:17211   */\n      dup2\n        /* \"#utility.yul\":17081:17212   */\n      tag_299\n      jump\t// in\n    tag_486:\n        /* \"#utility.yul\":17073:17212   */\n      swap1\n      pop\n        /* \"#utility.yul\":16800:17219   */\n      swap2\n      swap1\n      pop\n      jump\t// out\n        /* \"#utility.yul\":17225:17405   */\n    tag_300:\n        /* \"#utility.yul\":17273:17350   */\n      0x4e487b7100000000000000000000000000000000000000000000000000000000\n        /* \"#utility.yul\":17270:17271   */\n      0x00\n        /* \"#utility.yul\":17263:17351   */\n      mstore\n        /* \"#utility.yul\":17370:17374   */\n      0x11\n        /* \"#utility.yul\":17367:17368   */\n      0x04\n        /* \"#utility.yul\":17360:17375   */\n      mstore\n        /* \"#utility.yul\":17394:17398   */\n      0x24\n        /* \"#utility.yul\":17391:17392   */\n      0x00\n        /* \"#utility.yul\":17384:17399   */\n      revert\n        /* \"#utility.yul\":17411:17821   */\n    tag_119:\n        /* \"#utility.yul\":17451:17458   */\n      0x00\n        /* \"#utility.yul\":17474:17494   */\n      tag_489\n        /* \"#utility.yul\":17492:17493   */\n      dup3\n        /* \"#utility.yul\":17474:17494   */\n      tag_249\n      jump\t// in\n    tag_489:\n        /* \"#utility.yul\":17469:17494   */\n      swap2\n      pop\n        /* \"#utility.yul\":17508:17528   */\n      tag_490\n        /* \"#utility.yul\":17526:17527   */\n      dup4\n        /* \"#utility.yul\":17508:17528   */\n      tag_249\n      jump\t// in\n    tag_490:\n        /* \"#utility.yul\":17503:17528   */\n      swap3\n      pop\n        /* \"#utility.yul\":17563:17564   */\n      dup3\n        /* \"#utility.yul\":17560:17561   */\n      dup3\n        /* \"#utility.yul\":17556:17565   */\n      mul\n        /* \"#utility.yul\":17585:17615   */\n      tag_491\n        /* \"#utility.yul\":17603:17614   */\n      dup2\n        /* \"#utility.yul\":17585:17615   */\n      tag_249\n      jump\t// in\n    tag_491:\n        /* \"#utility.yul\":17574:17615   */\n      swap2\n      pop\n        /* \"#utility.yul\":17764:17765   */\n      dup3\n        /* \"#utility.yul\":17755:17762   */\n      dup3\n        /* \"#utility.yul\":17751:17766   */\n      div\n        /* \"#utility.yul\":17748:17749   */\n      dup5\n        /* \"#utility.yul\":17745:17767   */\n      eq\n        /* \"#utility.yul\":17725:17726   */\n      dup4\n        /* \"#utility.yul\":17718:17727   */\n      iszero\n        /* \"#utility.yul\":17698:17781   */\n      or\n        /* \"#utility.yul\":17675:17814   */\n      tag_492\n      jumpi\n        /* \"#utility.yul\":17794:17812   */\n      tag_493\n      tag_300\n      jump\t// in\n    tag_493:\n        /* \"#utility.yul\":17675:17814   */\n    tag_492:\n        /* \"#utility.yul\":17459:17821   */\n      pop\n        /* \"#utility.yul\":17411:17821   */\n      swap3\n      swap2\n      pop\n      pop\n      jump\t// out\n        /* \"#utility.yul\":17827:17998   */\n    tag_301:\n        /* \"#utility.yul\":17967:17990   */\n      0x496e73756666696369656e74204554482073656e740000000000000000000000\n        /* \"#utility.yul\":17963:17964   */\n      0x00\n        /* \"#utility.yul\":17955:17961   */\n      dup3\n        /* \"#utility.yul\":17951:17965   */\n      add\n        /* \"#utility.yul\":17944:17991   */\n      mstore\n        /* \"#utility.yul\":17827:17998   */\n      pop\n      jump\t// out\n        /* \"#utility.yul\":18004:18370   */\n    tag_302:\n        /* \"#utility.yul\":18146:18149   */\n      0x00\n        /* \"#utility.yul\":18167:18234   */\n      tag_496\n        /* \"#utility.yul\":18231:18233   */\n      0x15\n        /* \"#utility.yul\":18226:18229   */\n      dup4\n        /* \"#utility.yul\":18167:18234   */\n      tag_297\n      jump\t// in\n    tag_496:\n        /* \"#utility.yul\":18160:18234   */\n      swap2\n      pop\n        /* \"#utility.yul\":18243:18336   */\n      tag_497\n        /* \"#utility.yul\":18332:18335   */\n      dup3\n        /* \"#utility.yul\":18243:18336   */\n      tag_301\n      jump\t// in\n    tag_497:\n        /* \"#utility.yul\":18361:18363   */\n      0x20\n        /* \"#utility.yul\":18356:18359   */\n      dup3\n        /* \"#utility.yul\":18352:18364   */\n      add\n        /* \"#utility.yul\":18345:18364   */\n      swap1\n      pop\n        /* \"#utility.yul\":18004:18370   */\n      swap2\n      swap1\n      pop\n      jump\t// out\n        /* \"#utility.yul\":18376:18795   */\n    tag_122:\n        /* \"#utility.yul\":18542:18546   */\n      0x00\n        /* \"#utility.yul\":18580:18582   */\n      0x20\n        /* \"#utility.yul\":18569:18578   */\n      dup3\n        /* \"#utility.yul\":18565:18583   */\n      add\n        /* \"#utility.yul\":18557:18583   */\n      swap1\n      pop\n        /* \"#utility.yul\":18629:18638   */\n      dup2\n        /* \"#utility.yul\":18623:18627   */\n      dup2\n        /* \"#utility.yul\":18619:18639   */\n      sub\n        /* \"#utility.yul\":18615:18616   */\n      0x00\n        /* \"#utility.yul\":18604:18613   */\n      dup4\n        /* \"#utility.yul\":18600:18617   */\n      add\n        /* \"#utility.yul\":18593:18640   */\n      mstore\n        /* \"#utility.yul\":18657:18788   */\n      tag_499\n        /* \"#utility.yul\":18783:18787   */\n      dup2\n        /* \"#utility.yul\":18657:18788   */\n      tag_302\n      jump\t// in\n    tag_499:\n        /* \"#utility.yul\":18649:18788   */\n      swap1\n      pop\n        /* \"#utility.yul\":18376:18795   */\n      swap2\n      swap1\n      pop\n      jump\t// out\n        /* \"#utility.yul\":18801:19133   */\n    tag_126:\n        /* \"#utility.yul\":18922:18926   */\n      0x00\n        /* \"#utility.yul\":18960:18962   */\n      0x40\n        /* \"#utility.yul\":18949:18958   */\n      dup3\n        /* \"#utility.yul\":18945:18963   */\n      add\n        /* \"#utility.yul\":18937:18963   */\n      swap1\n      pop\n        /* \"#utility.yul\":18973:19044   */\n      tag_501\n        /* \"#utility.yul\":19041:19042   */\n      0x00\n        /* \"#utility.yul\":19030:19039   */\n      dup4\n        /* \"#utility.yul\":19026:19043   */\n      add\n        /* \"#utility.yul\":19017:19023   */\n      dup6\n        /* \"#utility.yul\":18973:19044   */\n      tag_275\n      jump\t// in\n    tag_501:\n        /* \"#utility.yul\":19054:19126   */\n      tag_502\n        /* \"#utility.yul\":19122:19124   */\n      0x20\n        /* \"#utility.yul\":19111:19120   */\n      dup4\n        /* \"#utility.yul\":19107:19125   */\n      add\n        /* \"#utility.yul\":19098:19104   */\n      dup5\n        /* \"#utility.yul\":19054:19126   */\n      tag_280\n      jump\t// in\n    tag_502:\n        /* \"#utility.yul\":18801:19133   */\n      swap4\n      swap3\n      pop\n      pop\n      pop\n      jump\t// out\n        /* \"#utility.yul\":19139:19255   */\n    tag_303:\n        /* \"#utility.yul\":19209:19230   */\n      tag_504\n        /* \"#utility.yul\":19224:19229   */\n      dup2\n        /* \"#utility.yul\":19209:19230   */\n      tag_261\n      jump\t// in\n    tag_504:\n        /* \"#utility.yul\":19202:19207   */\n      dup2\n        /* \"#utility.yul\":19199:19231   */\n      eq\n        /* \"#utility.yul\":19189:19249   */\n      tag_505\n      jumpi\n        /* \"#utility.yul\":19245:19246   */\n      0x00\n        /* \"#utility.yul\":19242:19243   */\n      dup1\n        /* \"#utility.yul\":19235:19247   */\n      revert\n        /* \"#utility.yul\":19189:19249   */\n    tag_505:\n        /* \"#utility.yul\":19139:19255   */\n      pop\n      jump\t// out\n        /* \"#utility.yul\":19261:19398   */\n    tag_304:\n        /* \"#utility.yul\":19315:19320   */\n      0x00\n        /* \"#utility.yul\":19346:19352   */\n      dup2\n        /* \"#utility.yul\":19340:19353   */\n      mload\n        /* \"#utility.yul\":19331:19353   */\n      swap1\n      pop\n        /* \"#utility.yul\":19362:19392   */\n      tag_507\n        /* \"#utility.yul\":19386:19391   */\n      dup2\n        /* \"#utility.yul\":19362:19392   */\n      tag_303\n      jump\t// in\n    tag_507:\n        /* \"#utility.yul\":19261:19398   */\n      swap3\n      swap2\n      pop\n      pop\n      jump\t// out\n        /* \"#utility.yul\":19404:19749   */\n    tag_130:\n        /* \"#utility.yul\":19471:19477   */\n      0x00\n        /* \"#utility.yul\":19520:19522   */\n      0x20\n        /* \"#utility.yul\":19508:19517   */\n      dup3\n        /* \"#utility.yul\":19499:19506   */\n      dup5\n        /* \"#utility.yul\":19495:19518   */\n      sub\n        /* \"#utility.yul\":19491:19523   */\n      slt\n        /* \"#utility.yul\":19488:19607   */\n      iszero\n      tag_509\n      jumpi\n        /* \"#utility.yul\":19526:19605   */\n      tag_510\n      tag_247\n      jump\t// in\n    tag_510:\n        /* \"#utility.yul\":19488:19607   */\n    tag_509:\n        /* \"#utility.yul\":19646:19647   */\n      0x00\n        /* \"#utility.yul\":19671:19732   */\n      tag_511\n        /* \"#utility.yul\":19724:19731   */\n      dup5\n        /* \"#utility.yul\":19715:19721   */\n      dup3\n        /* \"#utility.yul\":19704:19713   */\n      dup6\n        /* \"#utility.yul\":19700:19722   */\n      add\n        /* \"#utility.yul\":19671:19732   */\n      tag_304\n      jump\t// in\n    tag_511:\n        /* \"#utility.yul\":19661:19732   */\n      swap2\n      pop\n        /* \"#utility.yul\":19617:19742   */\n      pop\n        /* \"#utility.yul\":19404:19749   */\n      swap3\n      swap2\n      pop\n      pop\n      jump\t// out\n        /* \"#utility.yul\":19755:20087   */\n    tag_135:\n        /* \"#utility.yul\":19876:19880   */\n      0x00\n        /* \"#utility.yul\":19914:19916   */\n      0x40\n        /* \"#utility.yul\":19903:19912   */\n      dup3\n        /* \"#utility.yul\":19899:19917   */\n      add\n        /* \"#utility.yul\":19891:19917   */\n      swap1\n      pop\n        /* \"#utility.yul\":19927:19998   */\n      tag_513\n        /* \"#utility.yul\":19995:19996   */\n      0x00\n        /* \"#utility.yul\":19984:19993   */\n      dup4\n        /* \"#utility.yul\":19980:19997   */\n      add\n        /* \"#utility.yul\":19971:19977   */\n      dup6\n        /* \"#utility.yul\":19927:19998   */\n      tag_280\n      jump\t// in\n    tag_513:\n        /* \"#utility.yul\":20008:20080   */\n      tag_514\n        /* \"#utility.yul\":20076:20078   */\n      0x20\n        /* \"#utility.yul\":20065:20074   */\n      dup4\n        /* \"#utility.yul\":20061:20079   */\n      add\n        /* \"#utility.yul\":20052:20058   */\n      dup5\n        /* \"#utility.yul\":20008:20080   */\n      tag_280\n      jump\t// in\n    tag_514:\n        /* \"#utility.yul\":19755:20087   */\n      swap4\n      swap3\n      pop\n      pop\n      pop\n      jump\t// out\n        /* \"#utility.yul\":20093:20236   */\n    tag_305:\n        /* \"#utility.yul\":20150:20155   */\n      0x00\n        /* \"#utility.yul\":20181:20187   */\n      dup2\n        /* \"#utility.yul\":20175:20188   */\n      mload\n        /* \"#utility.yul\":20166:20188   */\n      swap1\n      pop\n        /* \"#utility.yul\":20197:20230   */\n      tag_516\n        /* \"#utility.yul\":20224:20229   */\n      dup2\n        /* \"#utility.yul\":20197:20230   */\n      tag_250\n      jump\t// in\n    tag_516:\n        /* \"#utility.yul\":20093:20236   */\n      swap3\n      swap2\n      pop\n      pop\n      jump\t// out\n        /* \"#utility.yul\":20242:20593   */\n    tag_150:\n        /* \"#utility.yul\":20312:20318   */\n      0x00\n        /* \"#utility.yul\":20361:20363   */\n      0x20\n        /* \"#utility.yul\":20349:20358   */\n      dup3\n        /* \"#utility.yul\":20340:20347   */\n      dup5\n        /* \"#utility.yul\":20336:20359   */\n      sub\n        /* \"#utility.yul\":20332:20364   */\n      slt\n        /* \"#utility.yul\":20329:20448   */\n      iszero\n      tag_518\n      jumpi\n        /* \"#utility.yul\":20367:20446   */\n      tag_519\n      tag_247\n      jump\t// in\n    tag_519:\n        /* \"#utility.yul\":20329:20448   */\n    tag_518:\n        /* \"#utility.yul\":20487:20488   */\n      0x00\n        /* \"#utility.yul\":20512:20576   */\n      tag_520\n        /* \"#utility.yul\":20568:20575   */\n      dup5\n        /* \"#utility.yul\":20559:20565   */\n      dup3\n        /* \"#utility.yul\":20548:20557   */\n      dup6\n        /* \"#utility.yul\":20544:20566   */\n      add\n        /* \"#utility.yul\":20512:20576   */\n      tag_305\n      jump\t// in\n    tag_520:\n        /* \"#utility.yul\":20502:20576   */\n      swap2\n      pop\n        /* \"#utility.yul\":20458:20586   */\n      pop\n        /* \"#utility.yul\":20242:20593   */\n      swap3\n      swap2\n      pop\n      pop\n      jump\t// out\n        /* \"#utility.yul\":20599:21041   */\n    tag_152:\n        /* \"#utility.yul\":20748:20752   */\n      0x00\n        /* \"#utility.yul\":20786:20788   */\n      0x60\n        /* \"#utility.yul\":20775:20784   */\n      dup3\n        /* \"#utility.yul\":20771:20789   */\n      add\n        /* \"#utility.yul\":20763:20789   */\n      swap1\n      pop\n        /* \"#utility.yul\":20799:20870   */\n      tag_522\n        /* \"#utility.yul\":20867:20868   */\n      0x00\n        /* \"#utility.yul\":20856:20865   */\n      dup4\n        /* \"#utility.yul\":20852:20869   */\n      add\n        /* \"#utility.yul\":20843:20849   */\n      dup7\n        /* \"#utility.yul\":20799:20870   */\n      tag_275\n      jump\t// in\n    tag_522:\n        /* \"#utility.yul\":20880:20952   */\n      tag_523\n        /* \"#utility.yul\":20948:20950   */\n      0x20\n        /* \"#utility.yul\":20937:20946   */\n      dup4\n        /* \"#utility.yul\":20933:20951   */\n      add\n        /* \"#utility.yul\":20924:20930   */\n      dup6\n        /* \"#utility.yul\":20880:20952   */\n      tag_275\n      jump\t// in\n    tag_523:\n        /* \"#utility.yul\":20962:21034   */\n      tag_524\n        /* \"#utility.yul\":21030:21032   */\n      0x40\n        /* \"#utility.yul\":21019:21028   */\n      dup4\n        /* \"#utility.yul\":21015:21033   */\n      add\n        /* \"#utility.yul\":21006:21012   */\n      dup5\n        /* \"#utility.yul\":20962:21034   */\n      tag_280\n      jump\t// in\n    tag_524:\n        /* \"#utility.yul\":20599:21041   */\n      swap5\n      swap4\n      pop\n      pop\n      pop\n      pop\n      jump\t// out\n        /* \"#utility.yul\":21047:21212   */\n    tag_306:\n        /* \"#utility.yul\":21187:21204   */\n      0x53616c65206e6f74206163746976650000000000000000000000000000000000\n        /* \"#utility.yul\":21183:21184   */\n      0x00\n        /* \"#utility.yul\":21175:21181   */\n      dup3\n        /* \"#utility.yul\":21171:21185   */\n      add\n        /* \"#utility.yul\":21164:21205   */\n      mstore\n        /* \"#utility.yul\":21047:21212   */\n      pop\n      jump\t// out\n        /* \"#utility.yul\":21218:21584   */\n    tag_307:\n        /* \"#utility.yul\":21360:21363   */\n      0x00\n        /* \"#utility.yul\":21381:21448   */\n      tag_527\n        /* \"#utility.yul\":21445:21447   */\n      0x0f\n        /* \"#utility.yul\":21440:21443   */\n      dup4\n        /* \"#utility.yul\":21381:21448   */\n      tag_297\n      jump\t// in\n    tag_527:\n        /* \"#utility.yul\":21374:21448   */\n      swap2\n      pop\n        /* \"#utility.yul\":21457:21550   */\n      tag_528\n        /* \"#utility.yul\":21546:21549   */\n      dup3\n        /* \"#utility.yul\":21457:21550   */\n      tag_306\n      jump\t// in\n    tag_528:\n        /* \"#utility.yul\":21575:21577   */\n      0x20\n        /* \"#utility.yul\":21570:21573   */\n      dup3\n        /* \"#utility.yul\":21566:21578   */\n      add\n        /* \"#utility.yul\":21559:21578   */\n      swap1\n      pop\n        /* \"#utility.yul\":21218:21584   */\n      swap2\n      swap1\n      pop\n      jump\t// out\n        /* \"#utility.yul\":21590:22009   */\n    tag_162:\n        /* \"#utility.yul\":21756:21760   */\n      0x00\n        /* \"#utility.yul\":21794:21796   */\n      0x20\n        /* \"#utility.yul\":21783:21792   */\n      dup3\n        /* \"#utility.yul\":21779:21797   */\n      add\n        /* \"#utility.yul\":21771:21797   */\n      swap1\n      pop\n        /* \"#utility.yul\":21843:21852   */\n      dup2\n        /* \"#utility.yul\":21837:21841   */\n      dup2\n        /* \"#utility.yul\":21833:21853   */\n      sub\n        /* \"#utility.yul\":21829:21830   */\n      0x00\n        /* \"#utility.yul\":21818:21827   */\n      dup4\n        /* \"#utility.yul\":21814:21831   */\n      add\n        /* \"#utility.yul\":21807:21854   */\n      mstore\n        /* \"#utility.yul\":21871:22002   */\n      tag_530\n        /* \"#utility.yul\":21997:22001   */\n      dup2\n        /* \"#utility.yul\":21871:22002   */\n      tag_307\n      jump\t// in\n    tag_530:\n        /* \"#utility.yul\":21863:22002   */\n      swap1\n      pop\n        /* \"#utility.yul\":21590:22009   */\n      swap2\n      swap1\n      pop\n      jump\t// out\n        /* \"#utility.yul\":22015:22178   */\n    tag_308:\n        /* \"#utility.yul\":22155:22170   */\n      0x4d7573742073656e642045544800000000000000000000000000000000000000\n        /* \"#utility.yul\":22151:22152   */\n      0x00\n        /* \"#utility.yul\":22143:22149   */\n      dup3\n        /* \"#utility.yul\":22139:22153   */\n      add\n        /* \"#utility.yul\":22132:22171   */\n      mstore\n        /* \"#utility.yul\":22015:22178   */\n      pop\n      jump\t// out\n        /* \"#utility.yul\":22184:22550   */\n    tag_309:\n        /* \"#utility.yul\":22326:22329   */\n      0x00\n        /* \"#utility.yul\":22347:22414   */\n      tag_533\n        /* \"#utility.yul\":22411:22413   */\n      0x0d\n        /* \"#utility.yul\":22406:22409   */\n      dup4\n        /* \"#utility.yul\":22347:22414   */\n      tag_297\n      jump\t// in\n    tag_533:\n        /* \"#utility.yul\":22340:22414   */\n      swap2\n      pop\n        /* \"#utility.yul\":22423:22516   */\n      tag_534\n        /* \"#utility.yul\":22512:22515   */\n      dup3\n        /* \"#utility.yul\":22423:22516   */\n      tag_308\n      jump\t// in\n    tag_534:\n        /* \"#utility.yul\":22541:22543   */\n      0x20\n        /* \"#utility.yul\":22536:22539   */\n      dup3\n        /* \"#utility.yul\":22532:22544   */\n      add\n        /* \"#utility.yul\":22525:22544   */\n      swap1\n      pop\n        /* \"#utility.yul\":22184:22550   */\n      swap2\n      swap1\n      pop\n      jump\t// out\n        /* \"#utility.yul\":22556:22975   */\n    tag_167:\n        /* \"#utility.yul\":22722:22726   */\n      0x00\n        /* \"#utility.yul\":22760:22762   */\n      0x20\n        /* \"#utility.yul\":22749:22758   */\n      dup3\n        /* \"#utility.yul\":22745:22763   */\n      add\n        /* \"#utility.yul\":22737:22763   */\n      swap1\n      pop\n        /* \"#utility.yul\":22809:22818   */\n      dup2\n        /* \"#utility.yul\":22803:22807   */\n      dup2\n        /* \"#utility.yul\":22799:22819   */\n      sub\n        /* \"#utility.yul\":22795:22796   */\n      0x00\n        /* \"#utility.yul\":22784:22793   */\n      dup4\n        /* \"#utility.yul\":22780:22797   */\n      add\n        /* \"#utility.yul\":22773:22820   */\n      mstore\n        /* \"#utility.yul\":22837:22968   */\n      tag_536\n        /* \"#utility.yul\":22963:22967   */\n      dup2\n        /* \"#utility.yul\":22837:22968   */\n      tag_309\n      jump\t// in\n    tag_536:\n        /* \"#utility.yul\":22829:22968   */\n      swap1\n      pop\n        /* \"#utility.yul\":22556:22975   */\n      swap2\n      swap1\n      pop\n      jump\t// out\n        /* \"#utility.yul\":22981:23161   */\n    tag_310:\n        /* \"#utility.yul\":23029:23106   */\n      0x4e487b7100000000000000000000000000000000000000000000000000000000\n        /* \"#utility.yul\":23026:23027   */\n      0x00\n        /* \"#utility.yul\":23019:23107   */\n      mstore\n        /* \"#utility.yul\":23126:23130   */\n      0x12\n        /* \"#utility.yul\":23123:23124   */\n      0x04\n        /* \"#utility.yul\":23116:23131   */\n      mstore\n        /* \"#utility.yul\":23150:23154   */\n      0x24\n        /* \"#utility.yul\":23147:23148   */\n      0x00\n        /* \"#utility.yul\":23140:23155   */\n      revert\n        /* \"#utility.yul\":23167:23352   */\n    tag_169:\n        /* \"#utility.yul\":23207:23208   */\n      0x00\n        /* \"#utility.yul\":23224:23244   */\n      tag_539\n        /* \"#utility.yul\":23242:23243   */\n      dup3\n        /* \"#utility.yul\":23224:23244   */\n      tag_249\n      jump\t// in\n    tag_539:\n        /* \"#utility.yul\":23219:23244   */\n      swap2\n      pop\n        /* \"#utility.yul\":23258:23278   */\n      tag_540\n        /* \"#utility.yul\":23276:23277   */\n      dup4\n        /* \"#utility.yul\":23258:23278   */\n      tag_249\n      jump\t// in\n    tag_540:\n        /* \"#utility.yul\":23253:23278   */\n      swap3\n      pop\n        /* \"#utility.yul\":23297:23298   */\n      dup3\n        /* \"#utility.yul\":23287:23322   */\n      tag_541\n      jumpi\n        /* \"#utility.yul\":23302:23320   */\n      tag_542\n      tag_310\n      jump\t// in\n    tag_542:\n        /* \"#utility.yul\":23287:23322   */\n    tag_541:\n        /* \"#utility.yul\":23344:23345   */\n      dup3\n        /* \"#utility.yul\":23341:23342   */\n      dup3\n        /* \"#utility.yul\":23337:23346   */\n      div\n        /* \"#utility.yul\":23332:23346   */\n      swap1\n      pop\n        /* \"#utility.yul\":23167:23352   */\n      swap3\n      swap2\n      pop\n      pop\n      jump\t// out\n        /* \"#utility.yul\":23358:23527   */\n    tag_311:\n        /* \"#utility.yul\":23498:23519   */\n      0x4e6f7420656e6f756768204554482073656e7400000000000000000000000000\n        /* \"#utility.yul\":23494:23495   */\n      0x00\n        /* \"#utility.yul\":23486:23492   */\n      dup3\n        /* \"#utility.yul\":23482:23496   */\n      add\n        /* \"#utility.yul\":23475:23520   */\n      mstore\n        /* \"#utility.yul\":23358:23527   */\n      pop\n      jump\t// out\n        /* \"#utility.yul\":23533:23899   */\n    tag_312:\n        /* \"#utility.yul\":23675:23678   */\n      0x00\n        /* \"#utility.yul\":23696:23763   */\n      tag_545\n        /* \"#utility.yul\":23760:23762   */\n      0x13\n        /* \"#utility.yul\":23755:23758   */\n      dup4\n        /* \"#utility.yul\":23696:23763   */\n      tag_297\n      jump\t// in\n    tag_545:\n        /* \"#utility.yul\":23689:23763   */\n      swap2\n      pop\n        /* \"#utility.yul\":23772:23865   */\n      tag_546\n        /* \"#utility.yul\":23861:23864   */\n      dup3\n        /* \"#utility.yul\":23772:23865   */\n      tag_311\n      jump\t// in\n    tag_546:\n        /* \"#utility.yul\":23890:23892   */\n      0x20\n        /* \"#utility.yul\":23885:23888   */\n      dup3\n        /* \"#utility.yul\":23881:23893   */\n      add\n        /* \"#utility.yul\":23874:23893   */\n      swap1\n      pop\n        /* \"#utility.yul\":23533:23899   */\n      swap2\n      swap1\n      pop\n      jump\t// out\n        /* \"#utility.yul\":23905:24324   */\n    tag_172:\n        /* \"#utility.yul\":24071:24075   */\n      0x00\n        /* \"#utility.yul\":24109:24111   */\n      0x20\n        /* \"#utility.yul\":24098:24107   */\n      dup3\n        /* \"#utility.yul\":24094:24112   */\n      add\n        /* \"#utility.yul\":24086:24112   */\n      swap1\n      pop\n        /* \"#utility.yul\":24158:24167   */\n      dup2\n        /* \"#utility.yul\":24152:24156   */\n      dup2\n        /* \"#utility.yul\":24148:24168   */\n      sub\n        /* \"#utility.yul\":24144:24145   */\n      0x00\n        /* \"#utility.yul\":24133:24142   */\n      dup4\n        /* \"#utility.yul\":24129:24146   */\n      add\n        /* \"#utility.yul\":24122:24169   */\n      mstore\n        /* \"#utility.yul\":24186:24317   */\n      tag_548\n        /* \"#utility.yul\":24312:24316   */\n      dup2\n        /* \"#utility.yul\":24186:24317   */\n      tag_312\n      jump\t// in\n    tag_548:\n        /* \"#utility.yul\":24178:24317   */\n      swap1\n      pop\n        /* \"#utility.yul\":23905:24324   */\n      swap2\n      swap1\n      pop\n      jump\t// out\n        /* \"#utility.yul\":24330:24470   */\n    tag_313:\n        /* \"#utility.yul\":24379:24388   */\n      0x00\n        /* \"#utility.yul\":24412:24464   */\n      tag_550\n        /* \"#utility.yul\":24430:24463   */\n      tag_551\n        /* \"#utility.yul\":24439:24462   */\n      tag_552\n        /* \"#utility.yul\":24456:24461   */\n      dup5\n        /* \"#utility.yul\":24439:24462   */\n      tag_258\n      jump\t// in\n    tag_552:\n        /* \"#utility.yul\":24430:24463   */\n      tag_253\n      jump\t// in\n    tag_551:\n        /* \"#utility.yul\":24412:24464   */\n      tag_249\n      jump\t// in\n    tag_550:\n        /* \"#utility.yul\":24399:24464   */\n      swap1\n      pop\n        /* \"#utility.yul\":24330:24470   */\n      swap2\n      swap1\n      pop\n      jump\t// out\n        /* \"#utility.yul\":24476:24605   */\n    tag_314:\n        /* \"#utility.yul\":24562:24598   */\n      tag_554\n        /* \"#utility.yul\":24592:24597   */\n      dup2\n        /* \"#utility.yul\":24562:24598   */\n      tag_313\n      jump\t// in\n    tag_554:\n        /* \"#utility.yul\":24557:24560   */\n      dup3\n        /* \"#utility.yul\":24550:24599   */\n      mstore\n        /* \"#utility.yul\":24476:24605   */\n      pop\n      pop\n      jump\t// out\n        /* \"#utility.yul\":24611:24941   */\n    tag_180:\n        /* \"#utility.yul\":24731:24735   */\n      0x00\n        /* \"#utility.yul\":24769:24771   */\n      0x40\n        /* \"#utility.yul\":24758:24767   */\n      dup3\n        /* \"#utility.yul\":24754:24772   */\n      add\n        /* \"#utility.yul\":24746:24772   */\n      swap1\n      pop\n        /* \"#utility.yul\":24782:24852   */\n      tag_556\n        /* \"#utility.yul\":24849:24850   */\n      0x00\n        /* \"#utility.yul\":24838:24847   */\n      dup4\n        /* \"#utility.yul\":24834:24851   */\n      add\n        /* \"#utility.yul\":24825:24831   */\n      dup6\n        /* \"#utility.yul\":24782:24852   */\n      tag_314\n      jump\t// in\n    tag_556:\n        /* \"#utility.yul\":24862:24934   */\n      tag_557\n        /* \"#utility.yul\":24930:24932   */\n      0x20\n        /* \"#utility.yul\":24919:24928   */\n      dup4\n        /* \"#utility.yul\":24915:24933   */\n      add\n        /* \"#utility.yul\":24906:24912   */\n      dup5\n        /* \"#utility.yul\":24862:24934   */\n      tag_280\n      jump\t// in\n    tag_557:\n        /* \"#utility.yul\":24611:24941   */\n      swap4\n      swap3\n      pop\n      pop\n      pop\n      jump\t// out\n        /* \"#utility.yul\":24947:25125   */\n    tag_315:\n        /* \"#utility.yul\":25087:25117   */\n      0x496e73756666696369656e7420546f6b656e7320546f204c6973742100000000\n        /* \"#utility.yul\":25083:25084   */\n      0x00\n        /* \"#utility.yul\":25075:25081   */\n      dup3\n        /* \"#utility.yul\":25071:25085   */\n      add\n        /* \"#utility.yul\":25064:25118   */\n      mstore\n        /* \"#utility.yul\":24947:25125   */\n      pop\n      jump\t// out\n        /* \"#utility.yul\":25131:25497   */\n    tag_316:\n        /* \"#utility.yul\":25273:25276   */\n      0x00\n        /* \"#utility.yul\":25294:25361   */\n      tag_560\n        /* \"#utility.yul\":25358:25360   */\n      0x1c\n        /* \"#utility.yul\":25353:25356   */\n      dup4\n        /* \"#utility.yul\":25294:25361   */\n      tag_297\n      jump\t// in\n    tag_560:\n        /* \"#utility.yul\":25287:25361   */\n      swap2\n      pop\n        /* \"#utility.yul\":25370:25463   */\n      tag_561\n        /* \"#utility.yul\":25459:25462   */\n      dup3\n        /* \"#utility.yul\":25370:25463   */\n      tag_315\n      jump\t// in\n    tag_561:\n        /* \"#utility.yul\":25488:25490   */\n      0x20\n        /* \"#utility.yul\":25483:25486   */\n      dup3\n        /* \"#utility.yul\":25479:25491   */\n      add\n        /* \"#utility.yul\":25472:25491   */\n      swap1\n      pop\n        /* \"#utility.yul\":25131:25497   */\n      swap2\n      swap1\n      pop\n      jump\t// out\n        /* \"#utility.yul\":25503:25922   */\n    tag_196:\n        /* \"#utility.yul\":25669:25673   */\n      0x00\n        /* \"#utility.yul\":25707:25709   */\n      0x20\n        /* \"#utility.yul\":25696:25705   */\n      dup3\n        /* \"#utility.yul\":25692:25710   */\n      add\n        /* \"#utility.yul\":25684:25710   */\n      swap1\n      pop\n        /* \"#utility.yul\":25756:25765   */\n      dup2\n        /* \"#utility.yul\":25750:25754   */\n      dup2\n        /* \"#utility.yul\":25746:25766   */\n      sub\n        /* \"#utility.yul\":25742:25743   */\n      0x00\n        /* \"#utility.yul\":25731:25740   */\n      dup4\n        /* \"#utility.yul\":25727:25744   */\n      add\n        /* \"#utility.yul\":25720:25767   */\n      mstore\n        /* \"#utility.yul\":25784:25915   */\n      tag_563\n        /* \"#utility.yul\":25910:25914   */\n      dup2\n        /* \"#utility.yul\":25784:25915   */\n      tag_316\n      jump\t// in\n    tag_563:\n        /* \"#utility.yul\":25776:25915   */\n      swap1\n      pop\n        /* \"#utility.yul\":25503:25922   */\n      swap2\n      swap1\n      pop\n      jump\t// out\n        /* \"#utility.yul\":25928:26161   */\n    tag_198:\n        /* \"#utility.yul\":25967:25970   */\n      0x00\n        /* \"#utility.yul\":25990:26014   */\n      tag_565\n        /* \"#utility.yul\":26008:26013   */\n      dup3\n        /* \"#utility.yul\":25990:26014   */\n      tag_249\n      jump\t// in\n    tag_565:\n        /* \"#utility.yul\":25981:26014   */\n      swap2\n      pop\n        /* \"#utility.yul\":26036:26102   */\n      0xffffffffffffffffffffffffffffffffffffffffffffffffffffffffffffffff\n        /* \"#utility.yul\":26029:26034   */\n      dup3\n        /* \"#utility.yul\":26026:26103   */\n      sub\n        /* \"#utility.yul\":26023:26126   */\n      tag_566\n      jumpi\n        /* \"#utility.yul\":26106:26124   */\n      tag_567\n      tag_300\n      jump\t// in\n    tag_567:\n        /* \"#utility.yul\":26023:26126   */\n    tag_566:\n        /* \"#utility.yul\":26153:26154   */\n      0x01\n        /* \"#utility.yul\":26146:26151   */\n      dup3\n        /* \"#utility.yul\":26142:26155   */\n      add\n        /* \"#utility.yul\":26135:26155   */\n      swap1\n      pop\n        /* \"#utility.yul\":25928:26161   */\n      swap2\n      swap1\n      pop\n      jump\t// out\n\n    auxdata: 0xa2646970667358221220fab7953511c3f1df00ce9ce53c4ea0c1bf1d889cd06c114b81352f61d5f3d5f864736f6c634300081a0033\n}\n",
				"bytecode": {
					"linkReferences": {},
					"object": "6080604052600160055f6101000a81548160ff021916908315150217905550348015610029575f80fd5b50604051612717380380612717833981810160405281019061004b91906102c5565b335f73ffffffffffffffffffffffffffffffffffffffff168173ffffffffffffffffffffffffffffffffffffffff16036100bc575f6040517f1e4fbdf70000000000000000000000000000000000000000000000000000000081526004016100b39190610312565b60405180910390fd5b6100cb8161015a60201b60201c565b50600180819055508160025f6101000a81548173ffffffffffffffffffffffffffffffffffffffff021916908373ffffffffffffffffffffffffffffffffffffffff1602179055508060035f6101000a81548173ffffffffffffffffffffffffffffffffffffffff021916908373ffffffffffffffffffffffffffffffffffffffff160217905550505061032b565b5f805f9054906101000a900473ffffffffffffffffffffffffffffffffffffffff169050815f806101000a81548173ffffffffffffffffffffffffffffffffffffffff021916908373ffffffffffffffffffffffffffffffffffffffff1602179055508173ffffffffffffffffffffffffffffffffffffffff168173ffffffffffffffffffffffffffffffffffffffff167f8be0079c531659141344cd1fd0a4f28419497f9722a3daafe3b4186f6b6457e060405160405180910390a35050565b5f80fd5b5f73ffffffffffffffffffffffffffffffffffffffff82169050919050565b5f6102488261021f565b9050919050565b5f6102598261023e565b9050919050565b6102698161024f565b8114610273575f80fd5b50565b5f8151905061028481610260565b92915050565b5f6102948261023e565b9050919050565b6102a48161028a565b81146102ae575f80fd5b50565b5f815190506102bf8161029b565b92915050565b5f80604083850312156102db576102da61021b565b5b5f6102e885828601610276565b92505060206102f9858286016102b1565b9150509250929050565b61030c8161023e565b82525050565b5f6020820190506103255f830184610303565b92915050565b6123df806103385f395ff3fe608060405260043610610108575f3560e01c80638da5cb5b11610094578063b08a1adf11610063578063b08a1adf1461030a578063ca716b1514610349578063d56d229d14610388578063f2fde38b146103b2578063f51f96dd146103da57610108565b80638da5cb5b1461023e57806398792eec14610268578063a2931fe8146102a4578063a9b07c26146102e057610108565b8063665b3cc1116100db578063665b3cc11461019057806368428a1b146101ac578063715018a6146101d657806375c1631d146101ec5780638125e3ac1461021457610108565b80630299c6eb1461010c578063457dfc67146101285780634aee1de114610152578063640b29d51461017a575b5f80fd5b610126600480360381019061012191906117c4565b610404565b005b348015610133575f80fd5b5061013c610864565b6040516101499190611869565b60405180910390f35b34801561015d575f80fd5b50610178600480360381019061017391906117c4565b610889565b005b348015610185575f80fd5b5061018e61089b565b005b6101aa60048036038101906101a591906118b9565b6109e1565b005b3480156101b7575f80fd5b506101c0610d4f565b6040516101cd91906118fe565b60405180910390f35b3480156101e1575f80fd5b506101ea610d61565b005b3480156101f7575f80fd5b50610212600480360381019061020d9190611917565b610d74565b005b34801561021f575f80fd5b5061022861104a565b6040516102359190611a9d565b60405180910390f35b348015610249575f80fd5b50610252611198565b60405161025f9190611acc565b60405180910390f35b348015610273575f80fd5b5061028e600480360381019061028991906117c4565b6111bf565b60405161029b9190611b47565b60405180910390f35b3480156102af575f80fd5b506102ca60048036038101906102c59190611b8a565b611286565b6040516102d79190611bc4565b60405180910390f35b3480156102eb575f80fd5b506102f46113cc565b6040516103019190611bc4565b60405180910390f35b348015610315575f80fd5b50610330600480360381019061032b9190611d19565b6113d2565b6040516103409493929190611d82565b60405180910390f35b348015610354575f80fd5b5061036f600480360381019061036a9190611d19565b61147d565b60405161037f9493929190611dc5565b60405180910390f35b348015610393575f80fd5b5061039c6114f7565b6040516103a99190611e28565b60405180910390f35b3480156103bd575f80fd5b506103d860048036038101906103d39190611b8a565b61151c565b005b3480156103e5575f80fd5b506103ee6115a0565b6040516103fb9190611bc4565b60405180910390f35b61040c6115a6565b5f600760405161041b90611e95565b90815260200160405180910390205f8381526020019081526020015f206040518060800160405290815f82015f9054906101000a900473ffffffffffffffffffffffffffffffffffffffff1673ffffffffffffffffffffffffffffffffffffffff1673ffffffffffffffffffffffffffffffffffffffff1681526020016001820154815260200160028201548152602001600382015f9054906101000a900460ff1615151515815250509050806060015161050b576040517f08c379a000000000000000000000000000000000000000000000000000000000815260040161050290611f03565b60405180910390fd5b8060400151816020015161051f9190611f4e565b341015610561576040517f08c379a000000000000000000000000000000000000000000000000000000000815260040161055890611fd9565b60405180910390fd5b600660405161056f90611e95565b90815260200160405180910390206040518060800160405280835f015173ffffffffffffffffffffffffffffffffffffffff1681526020013373ffffffffffffffffffffffffffffffffffffffff168152602001836020015181526020014263ffffffff16815250908060018154018082558091505060019003905f5260205f2090600402015f909190919091505f820151815f015f6101000a81548173ffffffffffffffffffffffffffffffffffffffff021916908373ffffffffffffffffffffffffffffffffffffffff1602179055506020820151816001015f6101000a81548173ffffffffffffffffffffffffffffffffffffffff021916908373ffffffffffffffffffffffffffffffffffffffff160217905550604082015181600201556060820151816003015f6101000a81548163ffffffff021916908363ffffffff160217905550505060025f9054906101000a900473ffffffffffffffffffffffffffffffffffffffff1673ffffffffffffffffffffffffffffffffffffffff1663a9059cbb3383602001516040518363ffffffff1660e01b8152600401610719929190611ff7565b6020604051808303815f875af1158015610735573d5f803e3d5ffd5b505050506040513d601f19601f820116820180604052508101906107599190612048565b50805f015173ffffffffffffffffffffffffffffffffffffffff166108fc3490811502906040515f60405180830381858888f193505050501580156107a0573d5f803e3d5ffd5b505f60076040516107b090611e95565b90815260200160405180910390205f8481526020019081526020015f206003015f6101000a81548160ff0219169083151502179055503373ffffffffffffffffffffffffffffffffffffffff16815f015173ffffffffffffffffffffffffffffffffffffffff167f8daf503382665d950e449b86172be5222275c90f4ddf69c29fdaa8237a562a6d83602001518460400151604051610850929190612073565b60405180910390a3506108616115ec565b50565b60025f9054906101000a900473ffffffffffffffffffffffffffffffffffffffff1681565b6108916115f5565b8060048190555050565b6108a36115a6565b6108ab6115f5565b60025f9054906101000a900473ffffffffffffffffffffffffffffffffffffffff1673ffffffffffffffffffffffffffffffffffffffff166323b872dd333060025f9054906101000a900473ffffffffffffffffffffffffffffffffffffffff1673ffffffffffffffffffffffffffffffffffffffff166318160ddd6040518163ffffffff1660e01b8152600401602060405180830381865afa158015610954573d5f803e3d5ffd5b505050506040513d601f19601f8201168201806040525081019061097891906120ae565b6040518463ffffffff1660e01b8152600401610996939291906120d9565b6020604051808303815f875af11580156109b2573d5f803e3d5ffd5b505050506040513d601f19601f820116820180604052508101906109d69190612048565b506109df6115ec565b565b6109e96115a6565b60055f9054906101000a900460ff16610a37576040517f08c379a0000000000000000000000000000000000000000000000000000000008152600401610a2e90612158565b60405180910390fd5b5f34118015610a5657508061ffff16600454610a539190611f4e565b34145b610a95576040517f08c379a0000000000000000000000000000000000000000000000000000000008152600401610a8c906121c0565b60405180910390fd5b5f60045434610aa4919061220b565b90505f8111610ae8576040517f08c379a0000000000000000000000000000000000000000000000000000000008152600401610adf90612285565b60405180910390fd5b6006604051610af690611e95565b908152602001604051809103902060405180608001604052803073ffffffffffffffffffffffffffffffffffffffff1681526020013373ffffffffffffffffffffffffffffffffffffffff1681526020018461ffff1681526020014263ffffffff16815250908060018154018082558091505060019003905f5260205f2090600402015f909190919091505f820151815f015f6101000a81548173ffffffffffffffffffffffffffffffffffffffff021916908373ffffffffffffffffffffffffffffffffffffffff1602179055506020820151816001015f6101000a81548173ffffffffffffffffffffffffffffffffffffffff021916908373ffffffffffffffffffffffffffffffffffffffff160217905550604082015181600201556060820151816003015f6101000a81548163ffffffff021916908363ffffffff160217905550505060025f9054906101000a900473ffffffffffffffffffffffffffffffffffffffff1673ffffffffffffffffffffffffffffffffffffffff1663a9059cbb33836040518363ffffffff1660e01b8152600401610c99929190611ff7565b6020604051808303815f875af1158015610cb5573d5f803e3d5ffd5b505050506040513d601f19601f82011682018060405250810190610cd99190612048565b503373ffffffffffffffffffffffffffffffffffffffff163073ffffffffffffffffffffffffffffffffffffffff167f8daf503382665d950e449b86172be5222275c90f4ddf69c29fdaa8237a562a6d84600454604051610d3b9291906122d3565b60405180910390a350610d4c6115ec565b50565b60055f9054906101000a900460ff1681565b610d696115f5565b610d725f61167c565b565b610d7c6115a6565b8160025f9054906101000a900473ffffffffffffffffffffffffffffffffffffffff1673ffffffffffffffffffffffffffffffffffffffff166370a08231336040518263ffffffff1660e01b8152600401610dd79190611acc565b602060405180830381865afa158015610df2573d5f803e3d5ffd5b505050506040513d601f19601f82011682018060405250810190610e1691906120ae565b1015610e57576040517f08c379a0000000000000000000000000000000000000000000000000000000008152600401610e4e90612344565b60405180910390fd5b60085f815480929190610e6990612362565b919050555060405180608001604052803373ffffffffffffffffffffffffffffffffffffffff168152602001838152602001828152602001600115158152506007604051610eb690611e95565b90815260200160405180910390205f60085481526020019081526020015f205f820151815f015f6101000a81548173ffffffffffffffffffffffffffffffffffffffff021916908373ffffffffffffffffffffffffffffffffffffffff16021790555060208201518160010155604082015181600201556060820151816003015f6101000a81548160ff02191690831515021790555090505060025f9054906101000a900473ffffffffffffffffffffffffffffffffffffffff1673ffffffffffffffffffffffffffffffffffffffff166323b872dd3330856040518463ffffffff1660e01b8152600401610fad939291906120d9565b6020604051808303815f875af1158015610fc9573d5f803e3d5ffd5b505050506040513d601f19601f82011682018060405250810190610fed9190612048565b503373ffffffffffffffffffffffffffffffffffffffff167f5dc96537cbae524775a674b6a810d9a1ba04a9e279f172d156b352151394677a8383604051611036929190612073565b60405180910390a26110466115ec565b5050565b6060600660405161105a90611e95565b9081526020016040518091039020805480602002602001604051908101604052809291908181526020015f905b8282101561118f578382905f5260205f2090600402016040518060800160405290815f82015f9054906101000a900473ffffffffffffffffffffffffffffffffffffffff1673ffffffffffffffffffffffffffffffffffffffff1673ffffffffffffffffffffffffffffffffffffffff168152602001600182015f9054906101000a900473ffffffffffffffffffffffffffffffffffffffff1673ffffffffffffffffffffffffffffffffffffffff1673ffffffffffffffffffffffffffffffffffffffff16815260200160028201548152602001600382015f9054906101000a900463ffffffff1663ffffffff1663ffffffff168152505081526020019060010190611087565b50505050905090565b5f805f9054906101000a900473ffffffffffffffffffffffffffffffffffffffff16905090565b6111c7611744565b60076040516111d590611e95565b90815260200160405180910390205f8381526020019081526020015f206040518060800160405290815f82015f9054906101000a900473ffffffffffffffffffffffffffffffffffffffff1673ffffffffffffffffffffffffffffffffffffffff1673ffffffffffffffffffffffffffffffffffffffff1681526020016001820154815260200160028201548152602001600382015f9054906101000a900460ff1615151515815250509050919050565b5f60025f9054906101000a900473ffffffffffffffffffffffffffffffffffffffff1673ffffffffffffffffffffffffffffffffffffffff166318160ddd6040518163ffffffff1660e01b8152600401602060405180830381865afa1580156112f1573d5f803e3d5ffd5b505050506040513d601f19601f8201168201806040525081019061131591906120ae565b61271060025f9054906101000a900473ffffffffffffffffffffffffffffffffffffffff1673ffffffffffffffffffffffffffffffffffffffff166370a08231856040518263ffffffff1660e01b81526004016113729190611acc565b602060405180830381865afa15801561138d573d5f803e3d5ffd5b505050506040513d601f19601f820116820180604052508101906113b191906120ae565b6113bb9190611f4e565b6113c5919061220b565b9050919050565b60085481565b6006828051602081018201805184825260208301602085012081835280955050505050508181548110611403575f80fd5b905f5260205f2090600402015f9150915050805f015f9054906101000a900473ffffffffffffffffffffffffffffffffffffffff1690806001015f9054906101000a900473ffffffffffffffffffffffffffffffffffffffff1690806002015490806003015f9054906101000a900463ffffffff16905084565b600782805160208101820180518482526020830160208501208183528095505050505050602052805f5260405f205f9150915050805f015f9054906101000a900473ffffffffffffffffffffffffffffffffffffffff1690806001015490806002015490806003015f9054906101000a900460ff16905084565b60035f9054906101000a900473ffffffffffffffffffffffffffffffffffffffff1681565b6115246115f5565b5f73ffffffffffffffffffffffffffffffffffffffff168173ffffffffffffffffffffffffffffffffffffffff1603611594575f6040517f1e4fbdf700000000000000000000000000000000000000000000000000000000815260040161158b9190611acc565b60405180910390fd5b61159d8161167c565b50565b60045481565b6002600154036115e2576040517f3ee5aeb500000000000000000000000000000000000000000000000000000000815260040160405180910390fd5b6002600181905550565b60018081905550565b6115fd61173d565b73ffffffffffffffffffffffffffffffffffffffff1661161b611198565b73ffffffffffffffffffffffffffffffffffffffff161461167a5761163e61173d565b6040517f118cdaa70000000000000000000000000000000000000000000000000000000081526004016116719190611acc565b60405180910390fd5b565b5f805f9054906101000a900473ffffffffffffffffffffffffffffffffffffffff169050815f806101000a81548173ffffffffffffffffffffffffffffffffffffffff021916908373ffffffffffffffffffffffffffffffffffffffff1602179055508173ffffffffffffffffffffffffffffffffffffffff168173ffffffffffffffffffffffffffffffffffffffff167f8be0079c531659141344cd1fd0a4f28419497f9722a3daafe3b4186f6b6457e060405160405180910390a35050565b5f33905090565b60405180608001604052805f73ffffffffffffffffffffffffffffffffffffffff1681526020015f81526020015f81526020015f151581525090565b5f604051905090565b5f80fd5b5f80fd5b5f819050919050565b6117a381611791565b81146117ad575f80fd5b50565b5f813590506117be8161179a565b92915050565b5f602082840312156117d9576117d8611789565b5b5f6117e6848285016117b0565b91505092915050565b5f73ffffffffffffffffffffffffffffffffffffffff82169050919050565b5f819050919050565b5f61183161182c611827846117ef565b61180e565b6117ef565b9050919050565b5f61184282611817565b9050919050565b5f61185382611838565b9050919050565b61186381611849565b82525050565b5f60208201905061187c5f83018461185a565b92915050565b5f61ffff82169050919050565b61189881611882565b81146118a2575f80fd5b50565b5f813590506118b38161188f565b92915050565b5f602082840312156118ce576118cd611789565b5b5f6118db848285016118a5565b91505092915050565b5f8115159050919050565b6118f8816118e4565b82525050565b5f6020820190506119115f8301846118ef565b92915050565b5f806040838503121561192d5761192c611789565b5b5f61193a858286016117b0565b925050602061194b858286016117b0565b9150509250929050565b5f81519050919050565b5f82825260208201905092915050565b5f819050602082019050919050565b5f611988826117ef565b9050919050565b6119988161197e565b82525050565b6119a781611791565b82525050565b5f63ffffffff82169050919050565b6119c5816119ad565b82525050565b608082015f8201516119df5f85018261198f565b5060208201516119f2602085018261198f565b506040820151611a05604085018261199e565b506060820151611a1860608501826119bc565b50505050565b5f611a2983836119cb565b60808301905092915050565b5f602082019050919050565b5f611a4b82611955565b611a55818561195f565b9350611a608361196f565b805f5b83811015611a90578151611a778882611a1e565b9750611a8283611a35565b925050600181019050611a63565b5085935050505092915050565b5f6020820190508181035f830152611ab58184611a41565b905092915050565b611ac68161197e565b82525050565b5f602082019050611adf5f830184611abd565b92915050565b611aee816118e4565b82525050565b608082015f820151611b085f85018261198f565b506020820151611b1b602085018261199e565b506040820151611b2e604085018261199e565b506060820151611b416060850182611ae5565b50505050565b5f608082019050611b5a5f830184611af4565b92915050565b611b698161197e565b8114611b73575f80fd5b50565b5f81359050611b8481611b60565b92915050565b5f60208284031215611b9f57611b9e611789565b5b5f611bac84828501611b76565b91505092915050565b611bbe81611791565b82525050565b5f602082019050611bd75f830184611bb5565b92915050565b5f80fd5b5f80fd5b5f601f19601f8301169050919050565b7f4e487b71000000000000000000000000000000000000000000000000000000005f52604160045260245ffd5b611c2b82611be5565b810181811067ffffffffffffffff82111715611c4a57611c49611bf5565b5b80604052505050565b5f611c5c611780565b9050611c688282611c22565b919050565b5f67ffffffffffffffff821115611c8757611c86611bf5565b5b611c9082611be5565b9050602081019050919050565b828183375f83830152505050565b5f611cbd611cb884611c6d565b611c53565b905082815260208101848484011115611cd957611cd8611be1565b5b611ce4848285611c9d565b509392505050565b5f82601f830112611d0057611cff611bdd565b5b8135611d10848260208601611cab565b91505092915050565b5f8060408385031215611d2f57611d2e611789565b5b5f83013567ffffffffffffffff811115611d4c57611d4b61178d565b5b611d5885828601611cec565b9250506020611d69858286016117b0565b9150509250929050565b611d7c816119ad565b82525050565b5f608082019050611d955f830187611abd565b611da26020830186611abd565b611daf6040830185611bb5565b611dbc6060830184611d73565b95945050505050565b5f608082019050611dd85f830187611abd565b611de56020830186611bb5565b611df26040830185611bb5565b611dff60608301846118ef565b95945050505050565b5f611e1282611838565b9050919050565b611e2281611e08565b82525050565b5f602082019050611e3b5f830184611e19565b92915050565b5f81905092915050565b7f49524543000000000000000000000000000000000000000000000000000000005f82015250565b5f611e7f600483611e41565b9150611e8a82611e4b565b600482019050919050565b5f611e9f82611e73565b9150819050919050565b5f82825260208201905092915050565b7f546f6b656e206e6f7420616374697665000000000000000000000000000000005f82015250565b5f611eed601083611ea9565b9150611ef882611eb9565b602082019050919050565b5f6020820190508181035f830152611f1a81611ee1565b9050919050565b7f4e487b71000000000000000000000000000000000000000000000000000000005f52601160045260245ffd5b5f611f5882611791565b9150611f6383611791565b9250828202611f7181611791565b91508282048414831517611f8857611f87611f21565b5b5092915050565b7f496e73756666696369656e74204554482073656e7400000000000000000000005f82015250565b5f611fc3601583611ea9565b9150611fce82611f8f565b602082019050919050565b5f6020820190508181035f830152611ff081611fb7565b9050919050565b5f60408201905061200a5f830185611abd565b6120176020830184611bb5565b9392505050565b612027816118e4565b8114612031575f80fd5b50565b5f815190506120428161201e565b92915050565b5f6020828403121561205d5761205c611789565b5b5f61206a84828501612034565b91505092915050565b5f6040820190506120865f830185611bb5565b6120936020830184611bb5565b9392505050565b5f815190506120a88161179a565b92915050565b5f602082840312156120c3576120c2611789565b5b5f6120d08482850161209a565b91505092915050565b5f6060820190506120ec5f830186611abd565b6120f96020830185611abd565b6121066040830184611bb5565b949350505050565b7f53616c65206e6f742061637469766500000000000000000000000000000000005f82015250565b5f612142600f83611ea9565b915061214d8261210e565b602082019050919050565b5f6020820190508181035f83015261216f81612136565b9050919050565b7f4d7573742073656e6420455448000000000000000000000000000000000000005f82015250565b5f6121aa600d83611ea9565b91506121b582612176565b602082019050919050565b5f6020820190508181035f8301526121d78161219e565b9050919050565b7f4e487b71000000000000000000000000000000000000000000000000000000005f52601260045260245ffd5b5f61221582611791565b915061222083611791565b9250826122305761222f6121de565b5b828204905092915050565b7f4e6f7420656e6f756768204554482073656e74000000000000000000000000005f82015250565b5f61226f601383611ea9565b915061227a8261223b565b602082019050919050565b5f6020820190508181035f83015261229c81612263565b9050919050565b5f6122bd6122b86122b384611882565b61180e565b611791565b9050919050565b6122cd816122a3565b82525050565b5f6040820190506122e65f8301856122c4565b6122f36020830184611bb5565b9392505050565b7f496e73756666696369656e7420546f6b656e7320546f204c69737421000000005f82015250565b5f61232e601c83611ea9565b9150612339826122fa565b602082019050919050565b5f6020820190508181035f83015261235b81612322565b9050919050565b5f61236c82611791565b91507fffffffffffffffffffffffffffffffffffffffffffffffffffffffffffffffff820361239e5761239d611f21565b5b60018201905091905056fea2646970667358221220fab7953511c3f1df00ce9ce53c4ea0c1bf1d889cd06c114b81352f61d5f3d5f864736f6c634300081a0033",
					"opcodes": "PUSH1 0x80 PUSH1 0x40 MSTORE PUSH1 0x1 PUSH1 0x5 PUSH0 PUSH2 0x100 EXP DUP2 SLOAD DUP2 PUSH1 0xFF MUL NOT AND SWAP1 DUP4 ISZERO ISZERO MUL OR SWAP1 SSTORE POP CALLVALUE DUP1 ISZERO PUSH2 0x29 JUMPI PUSH0 DUP1 REVERT JUMPDEST POP PUSH1 0x40 MLOAD PUSH2 0x2717 CODESIZE SUB DUP1 PUSH2 0x2717 DUP4 CODECOPY DUP2 DUP2 ADD PUSH1 0x40 MSTORE DUP2 ADD SWAP1 PUSH2 0x4B SWAP2 SWAP1 PUSH2 0x2C5 JUMP JUMPDEST CALLER PUSH0 PUSH20 0xFFFFFFFFFFFFFFFFFFFFFFFFFFFFFFFFFFFFFFFF AND DUP2 PUSH20 0xFFFFFFFFFFFFFFFFFFFFFFFFFFFFFFFFFFFFFFFF AND SUB PUSH2 0xBC JUMPI PUSH0 PUSH1 0x40 MLOAD PUSH32 0x1E4FBDF700000000000000000000000000000000000000000000000000000000 DUP2 MSTORE PUSH1 0x4 ADD PUSH2 0xB3 SWAP2 SWAP1 PUSH2 0x312 JUMP JUMPDEST PUSH1 0x40 MLOAD DUP1 SWAP2 SUB SWAP1 REVERT JUMPDEST PUSH2 0xCB DUP2 PUSH2 0x15A PUSH1 0x20 SHL PUSH1 0x20 SHR JUMP JUMPDEST POP PUSH1 0x1 DUP1 DUP2 SWAP1 SSTORE POP DUP2 PUSH1 0x2 PUSH0 PUSH2 0x100 EXP DUP2 SLOAD DUP2 PUSH20 0xFFFFFFFFFFFFFFFFFFFFFFFFFFFFFFFFFFFFFFFF MUL NOT AND SWAP1 DUP4 PUSH20 0xFFFFFFFFFFFFFFFFFFFFFFFFFFFFFFFFFFFFFFFF AND MUL OR SWAP1 SSTORE POP DUP1 PUSH1 0x3 PUSH0 PUSH2 0x100 EXP DUP2 SLOAD DUP2 PUSH20 0xFFFFFFFFFFFFFFFFFFFFFFFFFFFFFFFFFFFFFFFF MUL NOT AND SWAP1 DUP4 PUSH20 0xFFFFFFFFFFFFFFFFFFFFFFFFFFFFFFFFFFFFFFFF AND MUL OR SWAP1 SSTORE POP POP POP PUSH2 0x32B JUMP JUMPDEST PUSH0 DUP1 PUSH0 SWAP1 SLOAD SWAP1 PUSH2 0x100 EXP SWAP1 DIV PUSH20 0xFFFFFFFFFFFFFFFFFFFFFFFFFFFFFFFFFFFFFFFF AND SWAP1 POP DUP2 PUSH0 DUP1 PUSH2 0x100 EXP DUP2 SLOAD DUP2 PUSH20 0xFFFFFFFFFFFFFFFFFFFFFFFFFFFFFFFFFFFFFFFF MUL NOT AND SWAP1 DUP4 PUSH20 0xFFFFFFFFFFFFFFFFFFFFFFFFFFFFFFFFFFFFFFFF AND MUL OR SWAP1 SSTORE POP DUP2 PUSH20 0xFFFFFFFFFFFFFFFFFFFFFFFFFFFFFFFFFFFFFFFF AND DUP2 PUSH20 0xFFFFFFFFFFFFFFFFFFFFFFFFFFFFFFFFFFFFFFFF AND PUSH32 0x8BE0079C531659141344CD1FD0A4F28419497F9722A3DAAFE3B4186F6B6457E0 PUSH1 0x40 MLOAD PUSH1 0x40 MLOAD DUP1 SWAP2 SUB SWAP1 LOG3 POP POP JUMP JUMPDEST PUSH0 DUP1 REVERT JUMPDEST PUSH0 PUSH20 0xFFFFFFFFFFFFFFFFFFFFFFFFFFFFFFFFFFFFFFFF DUP3 AND SWAP1 POP SWAP2 SWAP1 POP JUMP JUMPDEST PUSH0 PUSH2 0x248 DUP3 PUSH2 0x21F JUMP JUMPDEST SWAP1 POP SWAP2 SWAP1 POP JUMP JUMPDEST PUSH0 PUSH2 0x259 DUP3 PUSH2 0x23E JUMP JUMPDEST SWAP1 POP SWAP2 SWAP1 POP JUMP JUMPDEST PUSH2 0x269 DUP2 PUSH2 0x24F JUMP JUMPDEST DUP2 EQ PUSH2 0x273 JUMPI PUSH0 DUP1 REVERT JUMPDEST POP JUMP JUMPDEST PUSH0 DUP2 MLOAD SWAP1 POP PUSH2 0x284 DUP2 PUSH2 0x260 JUMP JUMPDEST SWAP3 SWAP2 POP POP JUMP JUMPDEST PUSH0 PUSH2 0x294 DUP3 PUSH2 0x23E JUMP JUMPDEST SWAP1 POP SWAP2 SWAP1 POP JUMP JUMPDEST PUSH2 0x2A4 DUP2 PUSH2 0x28A JUMP JUMPDEST DUP2 EQ PUSH2 0x2AE JUMPI PUSH0 DUP1 REVERT JUMPDEST POP JUMP JUMPDEST PUSH0 DUP2 MLOAD SWAP1 POP PUSH2 0x2BF DUP2 PUSH2 0x29B JUMP JUMPDEST SWAP3 SWAP2 POP POP JUMP JUMPDEST PUSH0 DUP1 PUSH1 0x40 DUP4 DUP6 SUB SLT ISZERO PUSH2 0x2DB JUMPI PUSH2 0x2DA PUSH2 0x21B JUMP JUMPDEST JUMPDEST PUSH0 PUSH2 0x2E8 DUP6 DUP3 DUP7 ADD PUSH2 0x276 JUMP JUMPDEST SWAP3 POP POP PUSH1 0x20 PUSH2 0x2F9 DUP6 DUP3 DUP7 ADD PUSH2 0x2B1 JUMP JUMPDEST SWAP2 POP POP SWAP3 POP SWAP3 SWAP1 POP JUMP JUMPDEST PUSH2 0x30C DUP2 PUSH2 0x23E JUMP JUMPDEST DUP3 MSTORE POP POP JUMP JUMPDEST PUSH0 PUSH1 0x20 DUP3 ADD SWAP1 POP PUSH2 0x325 PUSH0 DUP4 ADD DUP5 PUSH2 0x303 JUMP JUMPDEST SWAP3 SWAP2 POP POP JUMP JUMPDEST PUSH2 0x23DF DUP1 PUSH2 0x338 PUSH0 CODECOPY PUSH0 RETURN INVALID PUSH1 0x80 PUSH1 0x40 MSTORE PUSH1 0x4 CALLDATASIZE LT PUSH2 0x108 JUMPI PUSH0 CALLDATALOAD PUSH1 0xE0 SHR DUP1 PUSH4 0x8DA5CB5B GT PUSH2 0x94 JUMPI DUP1 PUSH4 0xB08A1ADF GT PUSH2 0x63 JUMPI DUP1 PUSH4 0xB08A1ADF EQ PUSH2 0x30A JUMPI DUP1 PUSH4 0xCA716B15 EQ PUSH2 0x349 JUMPI DUP1 PUSH4 0xD56D229D EQ PUSH2 0x388 JUMPI DUP1 PUSH4 0xF2FDE38B EQ PUSH2 0x3B2 JUMPI DUP1 PUSH4 0xF51F96DD EQ PUSH2 0x3DA JUMPI PUSH2 0x108 JUMP JUMPDEST DUP1 PUSH4 0x8DA5CB5B EQ PUSH2 0x23E JUMPI DUP1 PUSH4 0x98792EEC EQ PUSH2 0x268 JUMPI DUP1 PUSH4 0xA2931FE8 EQ PUSH2 0x2A4 JUMPI DUP1 PUSH4 0xA9B07C26 EQ PUSH2 0x2E0 JUMPI PUSH2 0x108 JUMP JUMPDEST DUP1 PUSH4 0x665B3CC1 GT PUSH2 0xDB JUMPI DUP1 PUSH4 0x665B3CC1 EQ PUSH2 0x190 JUMPI DUP1 PUSH4 0x68428A1B EQ PUSH2 0x1AC JUMPI DUP1 PUSH4 0x715018A6 EQ PUSH2 0x1D6 JUMPI DUP1 PUSH4 0x75C1631D EQ PUSH2 0x1EC JUMPI DUP1 PUSH4 0x8125E3AC EQ PUSH2 0x214 JUMPI PUSH2 0x108 JUMP JUMPDEST DUP1 PUSH4 0x299C6EB EQ PUSH2 0x10C JUMPI DUP1 PUSH4 0x457DFC67 EQ PUSH2 0x128 JUMPI DUP1 PUSH4 0x4AEE1DE1 EQ PUSH2 0x152 JUMPI DUP1 PUSH4 0x640B29D5 EQ PUSH2 0x17A JUMPI JUMPDEST PUSH0 DUP1 REVERT JUMPDEST PUSH2 0x126 PUSH1 0x4 DUP1 CALLDATASIZE SUB DUP2 ADD SWAP1 PUSH2 0x121 SWAP2 SWAP1 PUSH2 0x17C4 JUMP JUMPDEST PUSH2 0x404 JUMP JUMPDEST STOP JUMPDEST CALLVALUE DUP1 ISZERO PUSH2 0x133 JUMPI PUSH0 DUP1 REVERT JUMPDEST POP PUSH2 0x13C PUSH2 0x864 JUMP JUMPDEST PUSH1 0x40 MLOAD PUSH2 0x149 SWAP2 SWAP1 PUSH2 0x1869 JUMP JUMPDEST PUSH1 0x40 MLOAD DUP1 SWAP2 SUB SWAP1 RETURN JUMPDEST CALLVALUE DUP1 ISZERO PUSH2 0x15D JUMPI PUSH0 DUP1 REVERT JUMPDEST POP PUSH2 0x178 PUSH1 0x4 DUP1 CALLDATASIZE SUB DUP2 ADD SWAP1 PUSH2 0x173 SWAP2 SWAP1 PUSH2 0x17C4 JUMP JUMPDEST PUSH2 0x889 JUMP JUMPDEST STOP JUMPDEST CALLVALUE DUP1 ISZERO PUSH2 0x185 JUMPI PUSH0 DUP1 REVERT JUMPDEST POP PUSH2 0x18E PUSH2 0x89B JUMP JUMPDEST STOP JUMPDEST PUSH2 0x1AA PUSH1 0x4 DUP1 CALLDATASIZE SUB DUP2 ADD SWAP1 PUSH2 0x1A5 SWAP2 SWAP1 PUSH2 0x18B9 JUMP JUMPDEST PUSH2 0x9E1 JUMP JUMPDEST STOP JUMPDEST CALLVALUE DUP1 ISZERO PUSH2 0x1B7 JUMPI PUSH0 DUP1 REVERT JUMPDEST POP PUSH2 0x1C0 PUSH2 0xD4F JUMP JUMPDEST PUSH1 0x40 MLOAD PUSH2 0x1CD SWAP2 SWAP1 PUSH2 0x18FE JUMP JUMPDEST PUSH1 0x40 MLOAD DUP1 SWAP2 SUB SWAP1 RETURN JUMPDEST CALLVALUE DUP1 ISZERO PUSH2 0x1E1 JUMPI PUSH0 DUP1 REVERT JUMPDEST POP PUSH2 0x1EA PUSH2 0xD61 JUMP JUMPDEST STOP JUMPDEST CALLVALUE DUP1 ISZERO PUSH2 0x1F7 JUMPI PUSH0 DUP1 REVERT JUMPDEST POP PUSH2 0x212 PUSH1 0x4 DUP1 CALLDATASIZE SUB DUP2 ADD SWAP1 PUSH2 0x20D SWAP2 SWAP1 PUSH2 0x1917 JUMP JUMPDEST PUSH2 0xD74 JUMP JUMPDEST STOP JUMPDEST CALLVALUE DUP1 ISZERO PUSH2 0x21F JUMPI PUSH0 DUP1 REVERT JUMPDEST POP PUSH2 0x228 PUSH2 0x104A JUMP JUMPDEST PUSH1 0x40 MLOAD PUSH2 0x235 SWAP2 SWAP1 PUSH2 0x1A9D JUMP JUMPDEST PUSH1 0x40 MLOAD DUP1 SWAP2 SUB SWAP1 RETURN JUMPDEST CALLVALUE DUP1 ISZERO PUSH2 0x249 JUMPI PUSH0 DUP1 REVERT JUMPDEST POP PUSH2 0x252 PUSH2 0x1198 JUMP JUMPDEST PUSH1 0x40 MLOAD PUSH2 0x25F SWAP2 SWAP1 PUSH2 0x1ACC JUMP JUMPDEST PUSH1 0x40 MLOAD DUP1 SWAP2 SUB SWAP1 RETURN JUMPDEST CALLVALUE DUP1 ISZERO PUSH2 0x273 JUMPI PUSH0 DUP1 REVERT JUMPDEST POP PUSH2 0x28E PUSH1 0x4 DUP1 CALLDATASIZE SUB DUP2 ADD SWAP1 PUSH2 0x289 SWAP2 SWAP1 PUSH2 0x17C4 JUMP JUMPDEST PUSH2 0x11BF JUMP JUMPDEST PUSH1 0x40 MLOAD PUSH2 0x29B SWAP2 SWAP1 PUSH2 0x1B47 JUMP JUMPDEST PUSH1 0x40 MLOAD DUP1 SWAP2 SUB SWAP1 RETURN JUMPDEST CALLVALUE DUP1 ISZERO PUSH2 0x2AF JUMPI PUSH0 DUP1 REVERT JUMPDEST POP PUSH2 0x2CA PUSH1 0x4 DUP1 CALLDATASIZE SUB DUP2 ADD SWAP1 PUSH2 0x2C5 SWAP2 SWAP1 PUSH2 0x1B8A JUMP JUMPDEST PUSH2 0x1286 JUMP JUMPDEST PUSH1 0x40 MLOAD PUSH2 0x2D7 SWAP2 SWAP1 PUSH2 0x1BC4 JUMP JUMPDEST PUSH1 0x40 MLOAD DUP1 SWAP2 SUB SWAP1 RETURN JUMPDEST CALLVALUE DUP1 ISZERO PUSH2 0x2EB JUMPI PUSH0 DUP1 REVERT JUMPDEST POP PUSH2 0x2F4 PUSH2 0x13CC JUMP JUMPDEST PUSH1 0x40 MLOAD PUSH2 0x301 SWAP2 SWAP1 PUSH2 0x1BC4 JUMP JUMPDEST PUSH1 0x40 MLOAD DUP1 SWAP2 SUB SWAP1 RETURN JUMPDEST CALLVALUE DUP1 ISZERO PUSH2 0x315 JUMPI PUSH0 DUP1 REVERT JUMPDEST POP PUSH2 0x330 PUSH1 0x4 DUP1 CALLDATASIZE SUB DUP2 ADD SWAP1 PUSH2 0x32B SWAP2 SWAP1 PUSH2 0x1D19 JUMP JUMPDEST PUSH2 0x13D2 JUMP JUMPDEST PUSH1 0x40 MLOAD PUSH2 0x340 SWAP5 SWAP4 SWAP3 SWAP2 SWAP1 PUSH2 0x1D82 JUMP JUMPDEST PUSH1 0x40 MLOAD DUP1 SWAP2 SUB SWAP1 RETURN JUMPDEST CALLVALUE DUP1 ISZERO PUSH2 0x354 JUMPI PUSH0 DUP1 REVERT JUMPDEST POP PUSH2 0x36F PUSH1 0x4 DUP1 CALLDATASIZE SUB DUP2 ADD SWAP1 PUSH2 0x36A SWAP2 SWAP1 PUSH2 0x1D19 JUMP JUMPDEST PUSH2 0x147D JUMP JUMPDEST PUSH1 0x40 MLOAD PUSH2 0x37F SWAP5 SWAP4 SWAP3 SWAP2 SWAP1 PUSH2 0x1DC5 JUMP JUMPDEST PUSH1 0x40 MLOAD DUP1 SWAP2 SUB SWAP1 RETURN JUMPDEST CALLVALUE DUP1 ISZERO PUSH2 0x393 JUMPI PUSH0 DUP1 REVERT JUMPDEST POP PUSH2 0x39C PUSH2 0x14F7 JUMP JUMPDEST PUSH1 0x40 MLOAD PUSH2 0x3A9 SWAP2 SWAP1 PUSH2 0x1E28 JUMP JUMPDEST PUSH1 0x40 MLOAD DUP1 SWAP2 SUB SWAP1 RETURN JUMPDEST CALLVALUE DUP1 ISZERO PUSH2 0x3BD JUMPI PUSH0 DUP1 REVERT JUMPDEST POP PUSH2 0x3D8 PUSH1 0x4 DUP1 CALLDATASIZE SUB DUP2 ADD SWAP1 PUSH2 0x3D3 SWAP2 SWAP1 PUSH2 0x1B8A JUMP JUMPDEST PUSH2 0x151C JUMP JUMPDEST STOP JUMPDEST CALLVALUE DUP1 ISZERO PUSH2 0x3E5 JUMPI PUSH0 DUP1 REVERT JUMPDEST POP PUSH2 0x3EE PUSH2 0x15A0 JUMP JUMPDEST PUSH1 0x40 MLOAD PUSH2 0x3FB SWAP2 SWAP1 PUSH2 0x1BC4 JUMP JUMPDEST PUSH1 0x40 MLOAD DUP1 SWAP2 SUB SWAP1 RETURN JUMPDEST PUSH2 0x40C PUSH2 0x15A6 JUMP JUMPDEST PUSH0 PUSH1 0x7 PUSH1 0x40 MLOAD PUSH2 0x41B SWAP1 PUSH2 0x1E95 JUMP JUMPDEST SWAP1 DUP2 MSTORE PUSH1 0x20 ADD PUSH1 0x40 MLOAD DUP1 SWAP2 SUB SWAP1 KECCAK256 PUSH0 DUP4 DUP2 MSTORE PUSH1 0x20 ADD SWAP1 DUP2 MSTORE PUSH1 0x20 ADD PUSH0 KECCAK256 PUSH1 0x40 MLOAD DUP1 PUSH1 0x80 ADD PUSH1 0x40 MSTORE SWAP1 DUP2 PUSH0 DUP3 ADD PUSH0 SWAP1 SLOAD SWAP1 PUSH2 0x100 EXP SWAP1 DIV PUSH20 0xFFFFFFFFFFFFFFFFFFFFFFFFFFFFFFFFFFFFFFFF AND PUSH20 0xFFFFFFFFFFFFFFFFFFFFFFFFFFFFFFFFFFFFFFFF AND PUSH20 0xFFFFFFFFFFFFFFFFFFFFFFFFFFFFFFFFFFFFFFFF AND DUP2 MSTORE PUSH1 0x20 ADD PUSH1 0x1 DUP3 ADD SLOAD DUP2 MSTORE PUSH1 0x20 ADD PUSH1 0x2 DUP3 ADD SLOAD DUP2 MSTORE PUSH1 0x20 ADD PUSH1 0x3 DUP3 ADD PUSH0 SWAP1 SLOAD SWAP1 PUSH2 0x100 EXP SWAP1 DIV PUSH1 0xFF AND ISZERO ISZERO ISZERO ISZERO DUP2 MSTORE POP POP SWAP1 POP DUP1 PUSH1 0x60 ADD MLOAD PUSH2 0x50B JUMPI PUSH1 0x40 MLOAD PUSH32 0x8C379A000000000000000000000000000000000000000000000000000000000 DUP2 MSTORE PUSH1 0x4 ADD PUSH2 0x502 SWAP1 PUSH2 0x1F03 JUMP JUMPDEST PUSH1 0x40 MLOAD DUP1 SWAP2 SUB SWAP1 REVERT JUMPDEST DUP1 PUSH1 0x40 ADD MLOAD DUP2 PUSH1 0x20 ADD MLOAD PUSH2 0x51F SWAP2 SWAP1 PUSH2 0x1F4E JUMP JUMPDEST CALLVALUE LT ISZERO PUSH2 0x561 JUMPI PUSH1 0x40 MLOAD PUSH32 0x8C379A000000000000000000000000000000000000000000000000000000000 DUP2 MSTORE PUSH1 0x4 ADD PUSH2 0x558 SWAP1 PUSH2 0x1FD9 JUMP JUMPDEST PUSH1 0x40 MLOAD DUP1 SWAP2 SUB SWAP1 REVERT JUMPDEST PUSH1 0x6 PUSH1 0x40 MLOAD PUSH2 0x56F SWAP1 PUSH2 0x1E95 JUMP JUMPDEST SWAP1 DUP2 MSTORE PUSH1 0x20 ADD PUSH1 0x40 MLOAD DUP1 SWAP2 SUB SWAP1 KECCAK256 PUSH1 0x40 MLOAD DUP1 PUSH1 0x80 ADD PUSH1 0x40 MSTORE DUP1 DUP4 PUSH0 ADD MLOAD PUSH20 0xFFFFFFFFFFFFFFFFFFFFFFFFFFFFFFFFFFFFFFFF AND DUP2 MSTORE PUSH1 0x20 ADD CALLER PUSH20 0xFFFFFFFFFFFFFFFFFFFFFFFFFFFFFFFFFFFFFFFF AND DUP2 MSTORE PUSH1 0x20 ADD DUP4 PUSH1 0x20 ADD MLOAD DUP2 MSTORE PUSH1 0x20 ADD TIMESTAMP PUSH4 0xFFFFFFFF AND DUP2 MSTORE POP SWAP1 DUP1 PUSH1 0x1 DUP2 SLOAD ADD DUP1 DUP3 SSTORE DUP1 SWAP2 POP POP PUSH1 0x1 SWAP1 SUB SWAP1 PUSH0 MSTORE PUSH1 0x20 PUSH0 KECCAK256 SWAP1 PUSH1 0x4 MUL ADD PUSH0 SWAP1 SWAP2 SWAP1 SWAP2 SWAP1 SWAP2 POP PUSH0 DUP3 ADD MLOAD DUP2 PUSH0 ADD PUSH0 PUSH2 0x100 EXP DUP2 SLOAD DUP2 PUSH20 0xFFFFFFFFFFFFFFFFFFFFFFFFFFFFFFFFFFFFFFFF MUL NOT AND SWAP1 DUP4 PUSH20 0xFFFFFFFFFFFFFFFFFFFFFFFFFFFFFFFFFFFFFFFF AND MUL OR SWAP1 SSTORE POP PUSH1 0x20 DUP3 ADD MLOAD DUP2 PUSH1 0x1 ADD PUSH0 PUSH2 0x100 EXP DUP2 SLOAD DUP2 PUSH20 0xFFFFFFFFFFFFFFFFFFFFFFFFFFFFFFFFFFFFFFFF MUL NOT AND SWAP1 DUP4 PUSH20 0xFFFFFFFFFFFFFFFFFFFFFFFFFFFFFFFFFFFFFFFF AND MUL OR SWAP1 SSTORE POP PUSH1 0x40 DUP3 ADD MLOAD DUP2 PUSH1 0x2 ADD SSTORE PUSH1 0x60 DUP3 ADD MLOAD DUP2 PUSH1 0x3 ADD PUSH0 PUSH2 0x100 EXP DUP2 SLOAD DUP2 PUSH4 0xFFFFFFFF MUL NOT AND SWAP1 DUP4 PUSH4 0xFFFFFFFF AND MUL OR SWAP1 SSTORE POP POP POP PUSH1 0x2 PUSH0 SWAP1 SLOAD SWAP1 PUSH2 0x100 EXP SWAP1 DIV PUSH20 0xFFFFFFFFFFFFFFFFFFFFFFFFFFFFFFFFFFFFFFFF AND PUSH20 0xFFFFFFFFFFFFFFFFFFFFFFFFFFFFFFFFFFFFFFFF AND PUSH4 0xA9059CBB CALLER DUP4 PUSH1 0x20 ADD MLOAD PUSH1 0x40 MLOAD DUP4 PUSH4 0xFFFFFFFF AND PUSH1 0xE0 SHL DUP2 MSTORE PUSH1 0x4 ADD PUSH2 0x719 SWAP3 SWAP2 SWAP1 PUSH2 0x1FF7 JUMP JUMPDEST PUSH1 0x20 PUSH1 0x40 MLOAD DUP1 DUP4 SUB DUP2 PUSH0 DUP8 GAS CALL ISZERO DUP1 ISZERO PUSH2 0x735 JUMPI RETURNDATASIZE PUSH0 DUP1 RETURNDATACOPY RETURNDATASIZE PUSH0 REVERT JUMPDEST POP POP POP POP PUSH1 0x40 MLOAD RETURNDATASIZE PUSH1 0x1F NOT PUSH1 0x1F DUP3 ADD AND DUP3 ADD DUP1 PUSH1 0x40 MSTORE POP DUP2 ADD SWAP1 PUSH2 0x759 SWAP2 SWAP1 PUSH2 0x2048 JUMP JUMPDEST POP DUP1 PUSH0 ADD MLOAD PUSH20 0xFFFFFFFFFFFFFFFFFFFFFFFFFFFFFFFFFFFFFFFF AND PUSH2 0x8FC CALLVALUE SWAP1 DUP2 ISZERO MUL SWAP1 PUSH1 0x40 MLOAD PUSH0 PUSH1 0x40 MLOAD DUP1 DUP4 SUB DUP2 DUP6 DUP9 DUP9 CALL SWAP4 POP POP POP POP ISZERO DUP1 ISZERO PUSH2 0x7A0 JUMPI RETURNDATASIZE PUSH0 DUP1 RETURNDATACOPY RETURNDATASIZE PUSH0 REVERT JUMPDEST POP PUSH0 PUSH1 0x7 PUSH1 0x40 MLOAD PUSH2 0x7B0 SWAP1 PUSH2 0x1E95 JUMP JUMPDEST SWAP1 DUP2 MSTORE PUSH1 0x20 ADD PUSH1 0x40 MLOAD DUP1 SWAP2 SUB SWAP1 KECCAK256 PUSH0 DUP5 DUP2 MSTORE PUSH1 0x20 ADD SWAP1 DUP2 MSTORE PUSH1 0x20 ADD PUSH0 KECCAK256 PUSH1 0x3 ADD PUSH0 PUSH2 0x100 EXP DUP2 SLOAD DUP2 PUSH1 0xFF MUL NOT AND SWAP1 DUP4 ISZERO ISZERO MUL OR SWAP1 SSTORE POP CALLER PUSH20 0xFFFFFFFFFFFFFFFFFFFFFFFFFFFFFFFFFFFFFFFF AND DUP2 PUSH0 ADD MLOAD PUSH20 0xFFFFFFFFFFFFFFFFFFFFFFFFFFFFFFFFFFFFFFFF AND PUSH32 0x8DAF503382665D950E449B86172BE5222275C90F4DDF69C29FDAA8237A562A6D DUP4 PUSH1 0x20 ADD MLOAD DUP5 PUSH1 0x40 ADD MLOAD PUSH1 0x40 MLOAD PUSH2 0x850 SWAP3 SWAP2 SWAP1 PUSH2 0x2073 JUMP JUMPDEST PUSH1 0x40 MLOAD DUP1 SWAP2 SUB SWAP1 LOG3 POP PUSH2 0x861 PUSH2 0x15EC JUMP JUMPDEST POP JUMP JUMPDEST PUSH1 0x2 PUSH0 SWAP1 SLOAD SWAP1 PUSH2 0x100 EXP SWAP1 DIV PUSH20 0xFFFFFFFFFFFFFFFFFFFFFFFFFFFFFFFFFFFFFFFF AND DUP2 JUMP JUMPDEST PUSH2 0x891 PUSH2 0x15F5 JUMP JUMPDEST DUP1 PUSH1 0x4 DUP2 SWAP1 SSTORE POP POP JUMP JUMPDEST PUSH2 0x8A3 PUSH2 0x15A6 JUMP JUMPDEST PUSH2 0x8AB PUSH2 0x15F5 JUMP JUMPDEST PUSH1 0x2 PUSH0 SWAP1 SLOAD SWAP1 PUSH2 0x100 EXP SWAP1 DIV PUSH20 0xFFFFFFFFFFFFFFFFFFFFFFFFFFFFFFFFFFFFFFFF AND PUSH20 0xFFFFFFFFFFFFFFFFFFFFFFFFFFFFFFFFFFFFFFFF AND PUSH4 0x23B872DD CALLER ADDRESS PUSH1 0x2 PUSH0 SWAP1 SLOAD SWAP1 PUSH2 0x100 EXP SWAP1 DIV PUSH20 0xFFFFFFFFFFFFFFFFFFFFFFFFFFFFFFFFFFFFFFFF AND PUSH20 0xFFFFFFFFFFFFFFFFFFFFFFFFFFFFFFFFFFFFFFFF AND PUSH4 0x18160DDD PUSH1 0x40 MLOAD DUP2 PUSH4 0xFFFFFFFF AND PUSH1 0xE0 SHL DUP2 MSTORE PUSH1 0x4 ADD PUSH1 0x20 PUSH1 0x40 MLOAD DUP1 DUP4 SUB DUP2 DUP7 GAS STATICCALL ISZERO DUP1 ISZERO PUSH2 0x954 JUMPI RETURNDATASIZE PUSH0 DUP1 RETURNDATACOPY RETURNDATASIZE PUSH0 REVERT JUMPDEST POP POP POP POP PUSH1 0x40 MLOAD RETURNDATASIZE PUSH1 0x1F NOT PUSH1 0x1F DUP3 ADD AND DUP3 ADD DUP1 PUSH1 0x40 MSTORE POP DUP2 ADD SWAP1 PUSH2 0x978 SWAP2 SWAP1 PUSH2 0x20AE JUMP JUMPDEST PUSH1 0x40 MLOAD DUP5 PUSH4 0xFFFFFFFF AND PUSH1 0xE0 SHL DUP2 MSTORE PUSH1 0x4 ADD PUSH2 0x996 SWAP4 SWAP3 SWAP2 SWAP1 PUSH2 0x20D9 JUMP JUMPDEST PUSH1 0x20 PUSH1 0x40 MLOAD DUP1 DUP4 SUB DUP2 PUSH0 DUP8 GAS CALL ISZERO DUP1 ISZERO PUSH2 0x9B2 JUMPI RETURNDATASIZE PUSH0 DUP1 RETURNDATACOPY RETURNDATASIZE PUSH0 REVERT JUMPDEST POP POP POP POP PUSH1 0x40 MLOAD RETURNDATASIZE PUSH1 0x1F NOT PUSH1 0x1F DUP3 ADD AND DUP3 ADD DUP1 PUSH1 0x40 MSTORE POP DUP2 ADD SWAP1 PUSH2 0x9D6 SWAP2 SWAP1 PUSH2 0x2048 JUMP JUMPDEST POP PUSH2 0x9DF PUSH2 0x15EC JUMP JUMPDEST JUMP JUMPDEST PUSH2 0x9E9 PUSH2 0x15A6 JUMP JUMPDEST PUSH1 0x5 PUSH0 SWAP1 SLOAD SWAP1 PUSH2 0x100 EXP SWAP1 DIV PUSH1 0xFF AND PUSH2 0xA37 JUMPI PUSH1 0x40 MLOAD PUSH32 0x8C379A000000000000000000000000000000000000000000000000000000000 DUP2 MSTORE PUSH1 0x4 ADD PUSH2 0xA2E SWAP1 PUSH2 0x2158 JUMP JUMPDEST PUSH1 0x40 MLOAD DUP1 SWAP2 SUB SWAP1 REVERT JUMPDEST PUSH0 CALLVALUE GT DUP1 ISZERO PUSH2 0xA56 JUMPI POP DUP1 PUSH2 0xFFFF AND PUSH1 0x4 SLOAD PUSH2 0xA53 SWAP2 SWAP1 PUSH2 0x1F4E JUMP JUMPDEST CALLVALUE EQ JUMPDEST PUSH2 0xA95 JUMPI PUSH1 0x40 MLOAD PUSH32 0x8C379A000000000000000000000000000000000000000000000000000000000 DUP2 MSTORE PUSH1 0x4 ADD PUSH2 0xA8C SWAP1 PUSH2 0x21C0 JUMP JUMPDEST PUSH1 0x40 MLOAD DUP1 SWAP2 SUB SWAP1 REVERT JUMPDEST PUSH0 PUSH1 0x4 SLOAD CALLVALUE PUSH2 0xAA4 SWAP2 SWAP1 PUSH2 0x220B JUMP JUMPDEST SWAP1 POP PUSH0 DUP2 GT PUSH2 0xAE8 JUMPI PUSH1 0x40 MLOAD PUSH32 0x8C379A000000000000000000000000000000000000000000000000000000000 DUP2 MSTORE PUSH1 0x4 ADD PUSH2 0xADF SWAP1 PUSH2 0x2285 JUMP JUMPDEST PUSH1 0x40 MLOAD DUP1 SWAP2 SUB SWAP1 REVERT JUMPDEST PUSH1 0x6 PUSH1 0x40 MLOAD PUSH2 0xAF6 SWAP1 PUSH2 0x1E95 JUMP JUMPDEST SWAP1 DUP2 MSTORE PUSH1 0x20 ADD PUSH1 0x40 MLOAD DUP1 SWAP2 SUB SWAP1 KECCAK256 PUSH1 0x40 MLOAD DUP1 PUSH1 0x80 ADD PUSH1 0x40 MSTORE DUP1 ADDRESS PUSH20 0xFFFFFFFFFFFFFFFFFFFFFFFFFFFFFFFFFFFFFFFF AND DUP2 MSTORE PUSH1 0x20 ADD CALLER PUSH20 0xFFFFFFFFFFFFFFFFFFFFFFFFFFFFFFFFFFFFFFFF AND DUP2 MSTORE PUSH1 0x20 ADD DUP5 PUSH2 0xFFFF AND DUP2 MSTORE PUSH1 0x20 ADD TIMESTAMP PUSH4 0xFFFFFFFF AND DUP2 MSTORE POP SWAP1 DUP1 PUSH1 0x1 DUP2 SLOAD ADD DUP1 DUP3 SSTORE DUP1 SWAP2 POP POP PUSH1 0x1 SWAP1 SUB SWAP1 PUSH0 MSTORE PUSH1 0x20 PUSH0 KECCAK256 SWAP1 PUSH1 0x4 MUL ADD PUSH0 SWAP1 SWAP2 SWAP1 SWAP2 SWAP1 SWAP2 POP PUSH0 DUP3 ADD MLOAD DUP2 PUSH0 ADD PUSH0 PUSH2 0x100 EXP DUP2 SLOAD DUP2 PUSH20 0xFFFFFFFFFFFFFFFFFFFFFFFFFFFFFFFFFFFFFFFF MUL NOT AND SWAP1 DUP4 PUSH20 0xFFFFFFFFFFFFFFFFFFFFFFFFFFFFFFFFFFFFFFFF AND MUL OR SWAP1 SSTORE POP PUSH1 0x20 DUP3 ADD MLOAD DUP2 PUSH1 0x1 ADD PUSH0 PUSH2 0x100 EXP DUP2 SLOAD DUP2 PUSH20 0xFFFFFFFFFFFFFFFFFFFFFFFFFFFFFFFFFFFFFFFF MUL NOT AND SWAP1 DUP4 PUSH20 0xFFFFFFFFFFFFFFFFFFFFFFFFFFFFFFFFFFFFFFFF AND MUL OR SWAP1 SSTORE POP PUSH1 0x40 DUP3 ADD MLOAD DUP2 PUSH1 0x2 ADD SSTORE PUSH1 0x60 DUP3 ADD MLOAD DUP2 PUSH1 0x3 ADD PUSH0 PUSH2 0x100 EXP DUP2 SLOAD DUP2 PUSH4 0xFFFFFFFF MUL NOT AND SWAP1 DUP4 PUSH4 0xFFFFFFFF AND MUL OR SWAP1 SSTORE POP POP POP PUSH1 0x2 PUSH0 SWAP1 SLOAD SWAP1 PUSH2 0x100 EXP SWAP1 DIV PUSH20 0xFFFFFFFFFFFFFFFFFFFFFFFFFFFFFFFFFFFFFFFF AND PUSH20 0xFFFFFFFFFFFFFFFFFFFFFFFFFFFFFFFFFFFFFFFF AND PUSH4 0xA9059CBB CALLER DUP4 PUSH1 0x40 MLOAD DUP4 PUSH4 0xFFFFFFFF AND PUSH1 0xE0 SHL DUP2 MSTORE PUSH1 0x4 ADD PUSH2 0xC99 SWAP3 SWAP2 SWAP1 PUSH2 0x1FF7 JUMP JUMPDEST PUSH1 0x20 PUSH1 0x40 MLOAD DUP1 DUP4 SUB DUP2 PUSH0 DUP8 GAS CALL ISZERO DUP1 ISZERO PUSH2 0xCB5 JUMPI RETURNDATASIZE PUSH0 DUP1 RETURNDATACOPY RETURNDATASIZE PUSH0 REVERT JUMPDEST POP POP POP POP PUSH1 0x40 MLOAD RETURNDATASIZE PUSH1 0x1F NOT PUSH1 0x1F DUP3 ADD AND DUP3 ADD DUP1 PUSH1 0x40 MSTORE POP DUP2 ADD SWAP1 PUSH2 0xCD9 SWAP2 SWAP1 PUSH2 0x2048 JUMP JUMPDEST POP CALLER PUSH20 0xFFFFFFFFFFFFFFFFFFFFFFFFFFFFFFFFFFFFFFFF AND ADDRESS PUSH20 0xFFFFFFFFFFFFFFFFFFFFFFFFFFFFFFFFFFFFFFFF AND PUSH32 0x8DAF503382665D950E449B86172BE5222275C90F4DDF69C29FDAA8237A562A6D DUP5 PUSH1 0x4 SLOAD PUSH1 0x40 MLOAD PUSH2 0xD3B SWAP3 SWAP2 SWAP1 PUSH2 0x22D3 JUMP JUMPDEST PUSH1 0x40 MLOAD DUP1 SWAP2 SUB SWAP1 LOG3 POP PUSH2 0xD4C PUSH2 0x15EC JUMP JUMPDEST POP JUMP JUMPDEST PUSH1 0x5 PUSH0 SWAP1 SLOAD SWAP1 PUSH2 0x100 EXP SWAP1 DIV PUSH1 0xFF AND DUP2 JUMP JUMPDEST PUSH2 0xD69 PUSH2 0x15F5 JUMP JUMPDEST PUSH2 0xD72 PUSH0 PUSH2 0x167C JUMP JUMPDEST JUMP JUMPDEST PUSH2 0xD7C PUSH2 0x15A6 JUMP JUMPDEST DUP2 PUSH1 0x2 PUSH0 SWAP1 SLOAD SWAP1 PUSH2 0x100 EXP SWAP1 DIV PUSH20 0xFFFFFFFFFFFFFFFFFFFFFFFFFFFFFFFFFFFFFFFF AND PUSH20 0xFFFFFFFFFFFFFFFFFFFFFFFFFFFFFFFFFFFFFFFF AND PUSH4 0x70A08231 CALLER PUSH1 0x40 MLOAD DUP3 PUSH4 0xFFFFFFFF AND PUSH1 0xE0 SHL DUP2 MSTORE PUSH1 0x4 ADD PUSH2 0xDD7 SWAP2 SWAP1 PUSH2 0x1ACC JUMP JUMPDEST PUSH1 0x20 PUSH1 0x40 MLOAD DUP1 DUP4 SUB DUP2 DUP7 GAS STATICCALL ISZERO DUP1 ISZERO PUSH2 0xDF2 JUMPI RETURNDATASIZE PUSH0 DUP1 RETURNDATACOPY RETURNDATASIZE PUSH0 REVERT JUMPDEST POP POP POP POP PUSH1 0x40 MLOAD RETURNDATASIZE PUSH1 0x1F NOT PUSH1 0x1F DUP3 ADD AND DUP3 ADD DUP1 PUSH1 0x40 MSTORE POP DUP2 ADD SWAP1 PUSH2 0xE16 SWAP2 SWAP1 PUSH2 0x20AE JUMP JUMPDEST LT ISZERO PUSH2 0xE57 JUMPI PUSH1 0x40 MLOAD PUSH32 0x8C379A000000000000000000000000000000000000000000000000000000000 DUP2 MSTORE PUSH1 0x4 ADD PUSH2 0xE4E SWAP1 PUSH2 0x2344 JUMP JUMPDEST PUSH1 0x40 MLOAD DUP1 SWAP2 SUB SWAP1 REVERT JUMPDEST PUSH1 0x8 PUSH0 DUP2 SLOAD DUP1 SWAP3 SWAP2 SWAP1 PUSH2 0xE69 SWAP1 PUSH2 0x2362 JUMP JUMPDEST SWAP2 SWAP1 POP SSTORE POP PUSH1 0x40 MLOAD DUP1 PUSH1 0x80 ADD PUSH1 0x40 MSTORE DUP1 CALLER PUSH20 0xFFFFFFFFFFFFFFFFFFFFFFFFFFFFFFFFFFFFFFFF AND DUP2 MSTORE PUSH1 0x20 ADD DUP4 DUP2 MSTORE PUSH1 0x20 ADD DUP3 DUP2 MSTORE PUSH1 0x20 ADD PUSH1 0x1 ISZERO ISZERO DUP2 MSTORE POP PUSH1 0x7 PUSH1 0x40 MLOAD PUSH2 0xEB6 SWAP1 PUSH2 0x1E95 JUMP JUMPDEST SWAP1 DUP2 MSTORE PUSH1 0x20 ADD PUSH1 0x40 MLOAD DUP1 SWAP2 SUB SWAP1 KECCAK256 PUSH0 PUSH1 0x8 SLOAD DUP2 MSTORE PUSH1 0x20 ADD SWAP1 DUP2 MSTORE PUSH1 0x20 ADD PUSH0 KECCAK256 PUSH0 DUP3 ADD MLOAD DUP2 PUSH0 ADD PUSH0 PUSH2 0x100 EXP DUP2 SLOAD DUP2 PUSH20 0xFFFFFFFFFFFFFFFFFFFFFFFFFFFFFFFFFFFFFFFF MUL NOT AND SWAP1 DUP4 PUSH20 0xFFFFFFFFFFFFFFFFFFFFFFFFFFFFFFFFFFFFFFFF AND MUL OR SWAP1 SSTORE POP PUSH1 0x20 DUP3 ADD MLOAD DUP2 PUSH1 0x1 ADD SSTORE PUSH1 0x40 DUP3 ADD MLOAD DUP2 PUSH1 0x2 ADD SSTORE PUSH1 0x60 DUP3 ADD MLOAD DUP2 PUSH1 0x3 ADD PUSH0 PUSH2 0x100 EXP DUP2 SLOAD DUP2 PUSH1 0xFF MUL NOT AND SWAP1 DUP4 ISZERO ISZERO MUL OR SWAP1 SSTORE POP SWAP1 POP POP PUSH1 0x2 PUSH0 SWAP1 SLOAD SWAP1 PUSH2 0x100 EXP SWAP1 DIV PUSH20 0xFFFFFFFFFFFFFFFFFFFFFFFFFFFFFFFFFFFFFFFF AND PUSH20 0xFFFFFFFFFFFFFFFFFFFFFFFFFFFFFFFFFFFFFFFF AND PUSH4 0x23B872DD CALLER ADDRESS DUP6 PUSH1 0x40 MLOAD DUP5 PUSH4 0xFFFFFFFF AND PUSH1 0xE0 SHL DUP2 MSTORE PUSH1 0x4 ADD PUSH2 0xFAD SWAP4 SWAP3 SWAP2 SWAP1 PUSH2 0x20D9 JUMP JUMPDEST PUSH1 0x20 PUSH1 0x40 MLOAD DUP1 DUP4 SUB DUP2 PUSH0 DUP8 GAS CALL ISZERO DUP1 ISZERO PUSH2 0xFC9 JUMPI RETURNDATASIZE PUSH0 DUP1 RETURNDATACOPY RETURNDATASIZE PUSH0 REVERT JUMPDEST POP POP POP POP PUSH1 0x40 MLOAD RETURNDATASIZE PUSH1 0x1F NOT PUSH1 0x1F DUP3 ADD AND DUP3 ADD DUP1 PUSH1 0x40 MSTORE POP DUP2 ADD SWAP1 PUSH2 0xFED SWAP2 SWAP1 PUSH2 0x2048 JUMP JUMPDEST POP CALLER PUSH20 0xFFFFFFFFFFFFFFFFFFFFFFFFFFFFFFFFFFFFFFFF AND PUSH32 0x5DC96537CBAE524775A674B6A810D9A1BA04A9E279F172D156B352151394677A DUP4 DUP4 PUSH1 0x40 MLOAD PUSH2 0x1036 SWAP3 SWAP2 SWAP1 PUSH2 0x2073 JUMP JUMPDEST PUSH1 0x40 MLOAD DUP1 SWAP2 SUB SWAP1 LOG2 PUSH2 0x1046 PUSH2 0x15EC JUMP JUMPDEST POP POP JUMP JUMPDEST PUSH1 0x60 PUSH1 0x6 PUSH1 0x40 MLOAD PUSH2 0x105A SWAP1 PUSH2 0x1E95 JUMP JUMPDEST SWAP1 DUP2 MSTORE PUSH1 0x20 ADD PUSH1 0x40 MLOAD DUP1 SWAP2 SUB SWAP1 KECCAK256 DUP1 SLOAD DUP1 PUSH1 0x20 MUL PUSH1 0x20 ADD PUSH1 0x40 MLOAD SWAP1 DUP2 ADD PUSH1 0x40 MSTORE DUP1 SWAP3 SWAP2 SWAP1 DUP2 DUP2 MSTORE PUSH1 0x20 ADD PUSH0 SWAP1 JUMPDEST DUP3 DUP3 LT ISZERO PUSH2 0x118F JUMPI DUP4 DUP3 SWAP1 PUSH0 MSTORE PUSH1 0x20 PUSH0 KECCAK256 SWAP1 PUSH1 0x4 MUL ADD PUSH1 0x40 MLOAD DUP1 PUSH1 0x80 ADD PUSH1 0x40 MSTORE SWAP1 DUP2 PUSH0 DUP3 ADD PUSH0 SWAP1 SLOAD SWAP1 PUSH2 0x100 EXP SWAP1 DIV PUSH20 0xFFFFFFFFFFFFFFFFFFFFFFFFFFFFFFFFFFFFFFFF AND PUSH20 0xFFFFFFFFFFFFFFFFFFFFFFFFFFFFFFFFFFFFFFFF AND PUSH20 0xFFFFFFFFFFFFFFFFFFFFFFFFFFFFFFFFFFFFFFFF AND DUP2 MSTORE PUSH1 0x20 ADD PUSH1 0x1 DUP3 ADD PUSH0 SWAP1 SLOAD SWAP1 PUSH2 0x100 EXP SWAP1 DIV PUSH20 0xFFFFFFFFFFFFFFFFFFFFFFFFFFFFFFFFFFFFFFFF AND PUSH20 0xFFFFFFFFFFFFFFFFFFFFFFFFFFFFFFFFFFFFFFFF AND PUSH20 0xFFFFFFFFFFFFFFFFFFFFFFFFFFFFFFFFFFFFFFFF AND DUP2 MSTORE PUSH1 0x20 ADD PUSH1 0x2 DUP3 ADD SLOAD DUP2 MSTORE PUSH1 0x20 ADD PUSH1 0x3 DUP3 ADD PUSH0 SWAP1 SLOAD SWAP1 PUSH2 0x100 EXP SWAP1 DIV PUSH4 0xFFFFFFFF AND PUSH4 0xFFFFFFFF AND PUSH4 0xFFFFFFFF AND DUP2 MSTORE POP POP DUP2 MSTORE PUSH1 0x20 ADD SWAP1 PUSH1 0x1 ADD SWAP1 PUSH2 0x1087 JUMP JUMPDEST POP POP POP POP SWAP1 POP SWAP1 JUMP JUMPDEST PUSH0 DUP1 PUSH0 SWAP1 SLOAD SWAP1 PUSH2 0x100 EXP SWAP1 DIV PUSH20 0xFFFFFFFFFFFFFFFFFFFFFFFFFFFFFFFFFFFFFFFF AND SWAP1 POP SWAP1 JUMP JUMPDEST PUSH2 0x11C7 PUSH2 0x1744 JUMP JUMPDEST PUSH1 0x7 PUSH1 0x40 MLOAD PUSH2 0x11D5 SWAP1 PUSH2 0x1E95 JUMP JUMPDEST SWAP1 DUP2 MSTORE PUSH1 0x20 ADD PUSH1 0x40 MLOAD DUP1 SWAP2 SUB SWAP1 KECCAK256 PUSH0 DUP4 DUP2 MSTORE PUSH1 0x20 ADD SWAP1 DUP2 MSTORE PUSH1 0x20 ADD PUSH0 KECCAK256 PUSH1 0x40 MLOAD DUP1 PUSH1 0x80 ADD PUSH1 0x40 MSTORE SWAP1 DUP2 PUSH0 DUP3 ADD PUSH0 SWAP1 SLOAD SWAP1 PUSH2 0x100 EXP SWAP1 DIV PUSH20 0xFFFFFFFFFFFFFFFFFFFFFFFFFFFFFFFFFFFFFFFF AND PUSH20 0xFFFFFFFFFFFFFFFFFFFFFFFFFFFFFFFFFFFFFFFF AND PUSH20 0xFFFFFFFFFFFFFFFFFFFFFFFFFFFFFFFFFFFFFFFF AND DUP2 MSTORE PUSH1 0x20 ADD PUSH1 0x1 DUP3 ADD SLOAD DUP2 MSTORE PUSH1 0x20 ADD PUSH1 0x2 DUP3 ADD SLOAD DUP2 MSTORE PUSH1 0x20 ADD PUSH1 0x3 DUP3 ADD PUSH0 SWAP1 SLOAD SWAP1 PUSH2 0x100 EXP SWAP1 DIV PUSH1 0xFF AND ISZERO ISZERO ISZERO ISZERO DUP2 MSTORE POP POP SWAP1 POP SWAP2 SWAP1 POP JUMP JUMPDEST PUSH0 PUSH1 0x2 PUSH0 SWAP1 SLOAD SWAP1 PUSH2 0x100 EXP SWAP1 DIV PUSH20 0xFFFFFFFFFFFFFFFFFFFFFFFFFFFFFFFFFFFFFFFF AND PUSH20 0xFFFFFFFFFFFFFFFFFFFFFFFFFFFFFFFFFFFFFFFF AND PUSH4 0x18160DDD PUSH1 0x40 MLOAD DUP2 PUSH4 0xFFFFFFFF AND PUSH1 0xE0 SHL DUP2 MSTORE PUSH1 0x4 ADD PUSH1 0x20 PUSH1 0x40 MLOAD DUP1 DUP4 SUB DUP2 DUP7 GAS STATICCALL ISZERO DUP1 ISZERO PUSH2 0x12F1 JUMPI RETURNDATASIZE PUSH0 DUP1 RETURNDATACOPY RETURNDATASIZE PUSH0 REVERT JUMPDEST POP POP POP POP PUSH1 0x40 MLOAD RETURNDATASIZE PUSH1 0x1F NOT PUSH1 0x1F DUP3 ADD AND DUP3 ADD DUP1 PUSH1 0x40 MSTORE POP DUP2 ADD SWAP1 PUSH2 0x1315 SWAP2 SWAP1 PUSH2 0x20AE JUMP JUMPDEST PUSH2 0x2710 PUSH1 0x2 PUSH0 SWAP1 SLOAD SWAP1 PUSH2 0x100 EXP SWAP1 DIV PUSH20 0xFFFFFFFFFFFFFFFFFFFFFFFFFFFFFFFFFFFFFFFF AND PUSH20 0xFFFFFFFFFFFFFFFFFFFFFFFFFFFFFFFFFFFFFFFF AND PUSH4 0x70A08231 DUP6 PUSH1 0x40 MLOAD DUP3 PUSH4 0xFFFFFFFF AND PUSH1 0xE0 SHL DUP2 MSTORE PUSH1 0x4 ADD PUSH2 0x1372 SWAP2 SWAP1 PUSH2 0x1ACC JUMP JUMPDEST PUSH1 0x20 PUSH1 0x40 MLOAD DUP1 DUP4 SUB DUP2 DUP7 GAS STATICCALL ISZERO DUP1 ISZERO PUSH2 0x138D JUMPI RETURNDATASIZE PUSH0 DUP1 RETURNDATACOPY RETURNDATASIZE PUSH0 REVERT JUMPDEST POP POP POP POP PUSH1 0x40 MLOAD RETURNDATASIZE PUSH1 0x1F NOT PUSH1 0x1F DUP3 ADD AND DUP3 ADD DUP1 PUSH1 0x40 MSTORE POP DUP2 ADD SWAP1 PUSH2 0x13B1 SWAP2 SWAP1 PUSH2 0x20AE JUMP JUMPDEST PUSH2 0x13BB SWAP2 SWAP1 PUSH2 0x1F4E JUMP JUMPDEST PUSH2 0x13C5 SWAP2 SWAP1 PUSH2 0x220B JUMP JUMPDEST SWAP1 POP SWAP2 SWAP1 POP JUMP JUMPDEST PUSH1 0x8 SLOAD DUP2 JUMP JUMPDEST PUSH1 0x6 DUP3 DUP1 MLOAD PUSH1 0x20 DUP2 ADD DUP3 ADD DUP1 MLOAD DUP5 DUP3 MSTORE PUSH1 0x20 DUP4 ADD PUSH1 0x20 DUP6 ADD KECCAK256 DUP2 DUP4 MSTORE DUP1 SWAP6 POP POP POP POP POP POP DUP2 DUP2 SLOAD DUP2 LT PUSH2 0x1403 JUMPI PUSH0 DUP1 REVERT JUMPDEST SWAP1 PUSH0 MSTORE PUSH1 0x20 PUSH0 KECCAK256 SWAP1 PUSH1 0x4 MUL ADD PUSH0 SWAP2 POP SWAP2 POP POP DUP1 PUSH0 ADD PUSH0 SWAP1 SLOAD SWAP1 PUSH2 0x100 EXP SWAP1 DIV PUSH20 0xFFFFFFFFFFFFFFFFFFFFFFFFFFFFFFFFFFFFFFFF AND SWAP1 DUP1 PUSH1 0x1 ADD PUSH0 SWAP1 SLOAD SWAP1 PUSH2 0x100 EXP SWAP1 DIV PUSH20 0xFFFFFFFFFFFFFFFFFFFFFFFFFFFFFFFFFFFFFFFF AND SWAP1 DUP1 PUSH1 0x2 ADD SLOAD SWAP1 DUP1 PUSH1 0x3 ADD PUSH0 SWAP1 SLOAD SWAP1 PUSH2 0x100 EXP SWAP1 DIV PUSH4 0xFFFFFFFF AND SWAP1 POP DUP5 JUMP JUMPDEST PUSH1 0x7 DUP3 DUP1 MLOAD PUSH1 0x20 DUP2 ADD DUP3 ADD DUP1 MLOAD DUP5 DUP3 MSTORE PUSH1 0x20 DUP4 ADD PUSH1 0x20 DUP6 ADD KECCAK256 DUP2 DUP4 MSTORE DUP1 SWAP6 POP POP POP POP POP POP PUSH1 0x20 MSTORE DUP1 PUSH0 MSTORE PUSH1 0x40 PUSH0 KECCAK256 PUSH0 SWAP2 POP SWAP2 POP POP DUP1 PUSH0 ADD PUSH0 SWAP1 SLOAD SWAP1 PUSH2 0x100 EXP SWAP1 DIV PUSH20 0xFFFFFFFFFFFFFFFFFFFFFFFFFFFFFFFFFFFFFFFF AND SWAP1 DUP1 PUSH1 0x1 ADD SLOAD SWAP1 DUP1 PUSH1 0x2 ADD SLOAD SWAP1 DUP1 PUSH1 0x3 ADD PUSH0 SWAP1 SLOAD SWAP1 PUSH2 0x100 EXP SWAP1 DIV PUSH1 0xFF AND SWAP1 POP DUP5 JUMP JUMPDEST PUSH1 0x3 PUSH0 SWAP1 SLOAD SWAP1 PUSH2 0x100 EXP SWAP1 DIV PUSH20 0xFFFFFFFFFFFFFFFFFFFFFFFFFFFFFFFFFFFFFFFF AND DUP2 JUMP JUMPDEST PUSH2 0x1524 PUSH2 0x15F5 JUMP JUMPDEST PUSH0 PUSH20 0xFFFFFFFFFFFFFFFFFFFFFFFFFFFFFFFFFFFFFFFF AND DUP2 PUSH20 0xFFFFFFFFFFFFFFFFFFFFFFFFFFFFFFFFFFFFFFFF AND SUB PUSH2 0x1594 JUMPI PUSH0 PUSH1 0x40 MLOAD PUSH32 0x1E4FBDF700000000000000000000000000000000000000000000000000000000 DUP2 MSTORE PUSH1 0x4 ADD PUSH2 0x158B SWAP2 SWAP1 PUSH2 0x1ACC JUMP JUMPDEST PUSH1 0x40 MLOAD DUP1 SWAP2 SUB SWAP1 REVERT JUMPDEST PUSH2 0x159D DUP2 PUSH2 0x167C JUMP JUMPDEST POP JUMP JUMPDEST PUSH1 0x4 SLOAD DUP2 JUMP JUMPDEST PUSH1 0x2 PUSH1 0x1 SLOAD SUB PUSH2 0x15E2 JUMPI PUSH1 0x40 MLOAD PUSH32 0x3EE5AEB500000000000000000000000000000000000000000000000000000000 DUP2 MSTORE PUSH1 0x4 ADD PUSH1 0x40 MLOAD DUP1 SWAP2 SUB SWAP1 REVERT JUMPDEST PUSH1 0x2 PUSH1 0x1 DUP2 SWAP1 SSTORE POP JUMP JUMPDEST PUSH1 0x1 DUP1 DUP2 SWAP1 SSTORE POP JUMP JUMPDEST PUSH2 0x15FD PUSH2 0x173D JUMP JUMPDEST PUSH20 0xFFFFFFFFFFFFFFFFFFFFFFFFFFFFFFFFFFFFFFFF AND PUSH2 0x161B PUSH2 0x1198 JUMP JUMPDEST PUSH20 0xFFFFFFFFFFFFFFFFFFFFFFFFFFFFFFFFFFFFFFFF AND EQ PUSH2 0x167A JUMPI PUSH2 0x163E PUSH2 0x173D JUMP JUMPDEST PUSH1 0x40 MLOAD PUSH32 0x118CDAA700000000000000000000000000000000000000000000000000000000 DUP2 MSTORE PUSH1 0x4 ADD PUSH2 0x1671 SWAP2 SWAP1 PUSH2 0x1ACC JUMP JUMPDEST PUSH1 0x40 MLOAD DUP1 SWAP2 SUB SWAP1 REVERT JUMPDEST JUMP JUMPDEST PUSH0 DUP1 PUSH0 SWAP1 SLOAD SWAP1 PUSH2 0x100 EXP SWAP1 DIV PUSH20 0xFFFFFFFFFFFFFFFFFFFFFFFFFFFFFFFFFFFFFFFF AND SWAP1 POP DUP2 PUSH0 DUP1 PUSH2 0x100 EXP DUP2 SLOAD DUP2 PUSH20 0xFFFFFFFFFFFFFFFFFFFFFFFFFFFFFFFFFFFFFFFF MUL NOT AND SWAP1 DUP4 PUSH20 0xFFFFFFFFFFFFFFFFFFFFFFFFFFFFFFFFFFFFFFFF AND MUL OR SWAP1 SSTORE POP DUP2 PUSH20 0xFFFFFFFFFFFFFFFFFFFFFFFFFFFFFFFFFFFFFFFF AND DUP2 PUSH20 0xFFFFFFFFFFFFFFFFFFFFFFFFFFFFFFFFFFFFFFFF AND PUSH32 0x8BE0079C531659141344CD1FD0A4F28419497F9722A3DAAFE3B4186F6B6457E0 PUSH1 0x40 MLOAD PUSH1 0x40 MLOAD DUP1 SWAP2 SUB SWAP1 LOG3 POP POP JUMP JUMPDEST PUSH0 CALLER SWAP1 POP SWAP1 JUMP JUMPDEST PUSH1 0x40 MLOAD DUP1 PUSH1 0x80 ADD PUSH1 0x40 MSTORE DUP1 PUSH0 PUSH20 0xFFFFFFFFFFFFFFFFFFFFFFFFFFFFFFFFFFFFFFFF AND DUP2 MSTORE PUSH1 0x20 ADD PUSH0 DUP2 MSTORE PUSH1 0x20 ADD PUSH0 DUP2 MSTORE PUSH1 0x20 ADD PUSH0 ISZERO ISZERO DUP2 MSTORE POP SWAP1 JUMP JUMPDEST PUSH0 PUSH1 0x40 MLOAD SWAP1 POP SWAP1 JUMP JUMPDEST PUSH0 DUP1 REVERT JUMPDEST PUSH0 DUP1 REVERT JUMPDEST PUSH0 DUP2 SWAP1 POP SWAP2 SWAP1 POP JUMP JUMPDEST PUSH2 0x17A3 DUP2 PUSH2 0x1791 JUMP JUMPDEST DUP2 EQ PUSH2 0x17AD JUMPI PUSH0 DUP1 REVERT JUMPDEST POP JUMP JUMPDEST PUSH0 DUP2 CALLDATALOAD SWAP1 POP PUSH2 0x17BE DUP2 PUSH2 0x179A JUMP JUMPDEST SWAP3 SWAP2 POP POP JUMP JUMPDEST PUSH0 PUSH1 0x20 DUP3 DUP5 SUB SLT ISZERO PUSH2 0x17D9 JUMPI PUSH2 0x17D8 PUSH2 0x1789 JUMP JUMPDEST JUMPDEST PUSH0 PUSH2 0x17E6 DUP5 DUP3 DUP6 ADD PUSH2 0x17B0 JUMP JUMPDEST SWAP2 POP POP SWAP3 SWAP2 POP POP JUMP JUMPDEST PUSH0 PUSH20 0xFFFFFFFFFFFFFFFFFFFFFFFFFFFFFFFFFFFFFFFF DUP3 AND SWAP1 POP SWAP2 SWAP1 POP JUMP JUMPDEST PUSH0 DUP2 SWAP1 POP SWAP2 SWAP1 POP JUMP JUMPDEST PUSH0 PUSH2 0x1831 PUSH2 0x182C PUSH2 0x1827 DUP5 PUSH2 0x17EF JUMP JUMPDEST PUSH2 0x180E JUMP JUMPDEST PUSH2 0x17EF JUMP JUMPDEST SWAP1 POP SWAP2 SWAP1 POP JUMP JUMPDEST PUSH0 PUSH2 0x1842 DUP3 PUSH2 0x1817 JUMP JUMPDEST SWAP1 POP SWAP2 SWAP1 POP JUMP JUMPDEST PUSH0 PUSH2 0x1853 DUP3 PUSH2 0x1838 JUMP JUMPDEST SWAP1 POP SWAP2 SWAP1 POP JUMP JUMPDEST PUSH2 0x1863 DUP2 PUSH2 0x1849 JUMP JUMPDEST DUP3 MSTORE POP POP JUMP JUMPDEST PUSH0 PUSH1 0x20 DUP3 ADD SWAP1 POP PUSH2 0x187C PUSH0 DUP4 ADD DUP5 PUSH2 0x185A JUMP JUMPDEST SWAP3 SWAP2 POP POP JUMP JUMPDEST PUSH0 PUSH2 0xFFFF DUP3 AND SWAP1 POP SWAP2 SWAP1 POP JUMP JUMPDEST PUSH2 0x1898 DUP2 PUSH2 0x1882 JUMP JUMPDEST DUP2 EQ PUSH2 0x18A2 JUMPI PUSH0 DUP1 REVERT JUMPDEST POP JUMP JUMPDEST PUSH0 DUP2 CALLDATALOAD SWAP1 POP PUSH2 0x18B3 DUP2 PUSH2 0x188F JUMP JUMPDEST SWAP3 SWAP2 POP POP JUMP JUMPDEST PUSH0 PUSH1 0x20 DUP3 DUP5 SUB SLT ISZERO PUSH2 0x18CE JUMPI PUSH2 0x18CD PUSH2 0x1789 JUMP JUMPDEST JUMPDEST PUSH0 PUSH2 0x18DB DUP5 DUP3 DUP6 ADD PUSH2 0x18A5 JUMP JUMPDEST SWAP2 POP POP SWAP3 SWAP2 POP POP JUMP JUMPDEST PUSH0 DUP2 ISZERO ISZERO SWAP1 POP SWAP2 SWAP1 POP JUMP JUMPDEST PUSH2 0x18F8 DUP2 PUSH2 0x18E4 JUMP JUMPDEST DUP3 MSTORE POP POP JUMP JUMPDEST PUSH0 PUSH1 0x20 DUP3 ADD SWAP1 POP PUSH2 0x1911 PUSH0 DUP4 ADD DUP5 PUSH2 0x18EF JUMP JUMPDEST SWAP3 SWAP2 POP POP JUMP JUMPDEST PUSH0 DUP1 PUSH1 0x40 DUP4 DUP6 SUB SLT ISZERO PUSH2 0x192D JUMPI PUSH2 0x192C PUSH2 0x1789 JUMP JUMPDEST JUMPDEST PUSH0 PUSH2 0x193A DUP6 DUP3 DUP7 ADD PUSH2 0x17B0 JUMP JUMPDEST SWAP3 POP POP PUSH1 0x20 PUSH2 0x194B DUP6 DUP3 DUP7 ADD PUSH2 0x17B0 JUMP JUMPDEST SWAP2 POP POP SWAP3 POP SWAP3 SWAP1 POP JUMP JUMPDEST PUSH0 DUP2 MLOAD SWAP1 POP SWAP2 SWAP1 POP JUMP JUMPDEST PUSH0 DUP3 DUP3 MSTORE PUSH1 0x20 DUP3 ADD SWAP1 POP SWAP3 SWAP2 POP POP JUMP JUMPDEST PUSH0 DUP2 SWAP1 POP PUSH1 0x20 DUP3 ADD SWAP1 POP SWAP2 SWAP1 POP JUMP JUMPDEST PUSH0 PUSH2 0x1988 DUP3 PUSH2 0x17EF JUMP JUMPDEST SWAP1 POP SWAP2 SWAP1 POP JUMP JUMPDEST PUSH2 0x1998 DUP2 PUSH2 0x197E JUMP JUMPDEST DUP3 MSTORE POP POP JUMP JUMPDEST PUSH2 0x19A7 DUP2 PUSH2 0x1791 JUMP JUMPDEST DUP3 MSTORE POP POP JUMP JUMPDEST PUSH0 PUSH4 0xFFFFFFFF DUP3 AND SWAP1 POP SWAP2 SWAP1 POP JUMP JUMPDEST PUSH2 0x19C5 DUP2 PUSH2 0x19AD JUMP JUMPDEST DUP3 MSTORE POP POP JUMP JUMPDEST PUSH1 0x80 DUP3 ADD PUSH0 DUP3 ADD MLOAD PUSH2 0x19DF PUSH0 DUP6 ADD DUP3 PUSH2 0x198F JUMP JUMPDEST POP PUSH1 0x20 DUP3 ADD MLOAD PUSH2 0x19F2 PUSH1 0x20 DUP6 ADD DUP3 PUSH2 0x198F JUMP JUMPDEST POP PUSH1 0x40 DUP3 ADD MLOAD PUSH2 0x1A05 PUSH1 0x40 DUP6 ADD DUP3 PUSH2 0x199E JUMP JUMPDEST POP PUSH1 0x60 DUP3 ADD MLOAD PUSH2 0x1A18 PUSH1 0x60 DUP6 ADD DUP3 PUSH2 0x19BC JUMP JUMPDEST POP POP POP POP JUMP JUMPDEST PUSH0 PUSH2 0x1A29 DUP4 DUP4 PUSH2 0x19CB JUMP JUMPDEST PUSH1 0x80 DUP4 ADD SWAP1 POP SWAP3 SWAP2 POP POP JUMP JUMPDEST PUSH0 PUSH1 0x20 DUP3 ADD SWAP1 POP SWAP2 SWAP1 POP JUMP JUMPDEST PUSH0 PUSH2 0x1A4B DUP3 PUSH2 0x1955 JUMP JUMPDEST PUSH2 0x1A55 DUP2 DUP6 PUSH2 0x195F JUMP JUMPDEST SWAP4 POP PUSH2 0x1A60 DUP4 PUSH2 0x196F JUMP JUMPDEST DUP1 PUSH0 JUMPDEST DUP4 DUP2 LT ISZERO PUSH2 0x1A90 JUMPI DUP2 MLOAD PUSH2 0x1A77 DUP9 DUP3 PUSH2 0x1A1E JUMP JUMPDEST SWAP8 POP PUSH2 0x1A82 DUP4 PUSH2 0x1A35 JUMP JUMPDEST SWAP3 POP POP PUSH1 0x1 DUP2 ADD SWAP1 POP PUSH2 0x1A63 JUMP JUMPDEST POP DUP6 SWAP4 POP POP POP POP SWAP3 SWAP2 POP POP JUMP JUMPDEST PUSH0 PUSH1 0x20 DUP3 ADD SWAP1 POP DUP2 DUP2 SUB PUSH0 DUP4 ADD MSTORE PUSH2 0x1AB5 DUP2 DUP5 PUSH2 0x1A41 JUMP JUMPDEST SWAP1 POP SWAP3 SWAP2 POP POP JUMP JUMPDEST PUSH2 0x1AC6 DUP2 PUSH2 0x197E JUMP JUMPDEST DUP3 MSTORE POP POP JUMP JUMPDEST PUSH0 PUSH1 0x20 DUP3 ADD SWAP1 POP PUSH2 0x1ADF PUSH0 DUP4 ADD DUP5 PUSH2 0x1ABD JUMP JUMPDEST SWAP3 SWAP2 POP POP JUMP JUMPDEST PUSH2 0x1AEE DUP2 PUSH2 0x18E4 JUMP JUMPDEST DUP3 MSTORE POP POP JUMP JUMPDEST PUSH1 0x80 DUP3 ADD PUSH0 DUP3 ADD MLOAD PUSH2 0x1B08 PUSH0 DUP6 ADD DUP3 PUSH2 0x198F JUMP JUMPDEST POP PUSH1 0x20 DUP3 ADD MLOAD PUSH2 0x1B1B PUSH1 0x20 DUP6 ADD DUP3 PUSH2 0x199E JUMP JUMPDEST POP PUSH1 0x40 DUP3 ADD MLOAD PUSH2 0x1B2E PUSH1 0x40 DUP6 ADD DUP3 PUSH2 0x199E JUMP JUMPDEST POP PUSH1 0x60 DUP3 ADD MLOAD PUSH2 0x1B41 PUSH1 0x60 DUP6 ADD DUP3 PUSH2 0x1AE5 JUMP JUMPDEST POP POP POP POP JUMP JUMPDEST PUSH0 PUSH1 0x80 DUP3 ADD SWAP1 POP PUSH2 0x1B5A PUSH0 DUP4 ADD DUP5 PUSH2 0x1AF4 JUMP JUMPDEST SWAP3 SWAP2 POP POP JUMP JUMPDEST PUSH2 0x1B69 DUP2 PUSH2 0x197E JUMP JUMPDEST DUP2 EQ PUSH2 0x1B73 JUMPI PUSH0 DUP1 REVERT JUMPDEST POP JUMP JUMPDEST PUSH0 DUP2 CALLDATALOAD SWAP1 POP PUSH2 0x1B84 DUP2 PUSH2 0x1B60 JUMP JUMPDEST SWAP3 SWAP2 POP POP JUMP JUMPDEST PUSH0 PUSH1 0x20 DUP3 DUP5 SUB SLT ISZERO PUSH2 0x1B9F JUMPI PUSH2 0x1B9E PUSH2 0x1789 JUMP JUMPDEST JUMPDEST PUSH0 PUSH2 0x1BAC DUP5 DUP3 DUP6 ADD PUSH2 0x1B76 JUMP JUMPDEST SWAP2 POP POP SWAP3 SWAP2 POP POP JUMP JUMPDEST PUSH2 0x1BBE DUP2 PUSH2 0x1791 JUMP JUMPDEST DUP3 MSTORE POP POP JUMP JUMPDEST PUSH0 PUSH1 0x20 DUP3 ADD SWAP1 POP PUSH2 0x1BD7 PUSH0 DUP4 ADD DUP5 PUSH2 0x1BB5 JUMP JUMPDEST SWAP3 SWAP2 POP POP JUMP JUMPDEST PUSH0 DUP1 REVERT JUMPDEST PUSH0 DUP1 REVERT JUMPDEST PUSH0 PUSH1 0x1F NOT PUSH1 0x1F DUP4 ADD AND SWAP1 POP SWAP2 SWAP1 POP JUMP JUMPDEST PUSH32 0x4E487B7100000000000000000000000000000000000000000000000000000000 PUSH0 MSTORE PUSH1 0x41 PUSH1 0x4 MSTORE PUSH1 0x24 PUSH0 REVERT JUMPDEST PUSH2 0x1C2B DUP3 PUSH2 0x1BE5 JUMP JUMPDEST DUP2 ADD DUP2 DUP2 LT PUSH8 0xFFFFFFFFFFFFFFFF DUP3 GT OR ISZERO PUSH2 0x1C4A JUMPI PUSH2 0x1C49 PUSH2 0x1BF5 JUMP JUMPDEST JUMPDEST DUP1 PUSH1 0x40 MSTORE POP POP POP JUMP JUMPDEST PUSH0 PUSH2 0x1C5C PUSH2 0x1780 JUMP JUMPDEST SWAP1 POP PUSH2 0x1C68 DUP3 DUP3 PUSH2 0x1C22 JUMP JUMPDEST SWAP2 SWAP1 POP JUMP JUMPDEST PUSH0 PUSH8 0xFFFFFFFFFFFFFFFF DUP3 GT ISZERO PUSH2 0x1C87 JUMPI PUSH2 0x1C86 PUSH2 0x1BF5 JUMP JUMPDEST JUMPDEST PUSH2 0x1C90 DUP3 PUSH2 0x1BE5 JUMP JUMPDEST SWAP1 POP PUSH1 0x20 DUP2 ADD SWAP1 POP SWAP2 SWAP1 POP JUMP JUMPDEST DUP3 DUP2 DUP4 CALLDATACOPY PUSH0 DUP4 DUP4 ADD MSTORE POP POP POP JUMP JUMPDEST PUSH0 PUSH2 0x1CBD PUSH2 0x1CB8 DUP5 PUSH2 0x1C6D JUMP JUMPDEST PUSH2 0x1C53 JUMP JUMPDEST SWAP1 POP DUP3 DUP2 MSTORE PUSH1 0x20 DUP2 ADD DUP5 DUP5 DUP5 ADD GT ISZERO PUSH2 0x1CD9 JUMPI PUSH2 0x1CD8 PUSH2 0x1BE1 JUMP JUMPDEST JUMPDEST PUSH2 0x1CE4 DUP5 DUP3 DUP6 PUSH2 0x1C9D JUMP JUMPDEST POP SWAP4 SWAP3 POP POP POP JUMP JUMPDEST PUSH0 DUP3 PUSH1 0x1F DUP4 ADD SLT PUSH2 0x1D00 JUMPI PUSH2 0x1CFF PUSH2 0x1BDD JUMP JUMPDEST JUMPDEST DUP2 CALLDATALOAD PUSH2 0x1D10 DUP5 DUP3 PUSH1 0x20 DUP7 ADD PUSH2 0x1CAB JUMP JUMPDEST SWAP2 POP POP SWAP3 SWAP2 POP POP JUMP JUMPDEST PUSH0 DUP1 PUSH1 0x40 DUP4 DUP6 SUB SLT ISZERO PUSH2 0x1D2F JUMPI PUSH2 0x1D2E PUSH2 0x1789 JUMP JUMPDEST JUMPDEST PUSH0 DUP4 ADD CALLDATALOAD PUSH8 0xFFFFFFFFFFFFFFFF DUP2 GT ISZERO PUSH2 0x1D4C JUMPI PUSH2 0x1D4B PUSH2 0x178D JUMP JUMPDEST JUMPDEST PUSH2 0x1D58 DUP6 DUP3 DUP7 ADD PUSH2 0x1CEC JUMP JUMPDEST SWAP3 POP POP PUSH1 0x20 PUSH2 0x1D69 DUP6 DUP3 DUP7 ADD PUSH2 0x17B0 JUMP JUMPDEST SWAP2 POP POP SWAP3 POP SWAP3 SWAP1 POP JUMP JUMPDEST PUSH2 0x1D7C DUP2 PUSH2 0x19AD JUMP JUMPDEST DUP3 MSTORE POP POP JUMP JUMPDEST PUSH0 PUSH1 0x80 DUP3 ADD SWAP1 POP PUSH2 0x1D95 PUSH0 DUP4 ADD DUP8 PUSH2 0x1ABD JUMP JUMPDEST PUSH2 0x1DA2 PUSH1 0x20 DUP4 ADD DUP7 PUSH2 0x1ABD JUMP JUMPDEST PUSH2 0x1DAF PUSH1 0x40 DUP4 ADD DUP6 PUSH2 0x1BB5 JUMP JUMPDEST PUSH2 0x1DBC PUSH1 0x60 DUP4 ADD DUP5 PUSH2 0x1D73 JUMP JUMPDEST SWAP6 SWAP5 POP POP POP POP POP JUMP JUMPDEST PUSH0 PUSH1 0x80 DUP3 ADD SWAP1 POP PUSH2 0x1DD8 PUSH0 DUP4 ADD DUP8 PUSH2 0x1ABD JUMP JUMPDEST PUSH2 0x1DE5 PUSH1 0x20 DUP4 ADD DUP7 PUSH2 0x1BB5 JUMP JUMPDEST PUSH2 0x1DF2 PUSH1 0x40 DUP4 ADD DUP6 PUSH2 0x1BB5 JUMP JUMPDEST PUSH2 0x1DFF PUSH1 0x60 DUP4 ADD DUP5 PUSH2 0x18EF JUMP JUMPDEST SWAP6 SWAP5 POP POP POP POP POP JUMP JUMPDEST PUSH0 PUSH2 0x1E12 DUP3 PUSH2 0x1838 JUMP JUMPDEST SWAP1 POP SWAP2 SWAP1 POP JUMP JUMPDEST PUSH2 0x1E22 DUP2 PUSH2 0x1E08 JUMP JUMPDEST DUP3 MSTORE POP POP JUMP JUMPDEST PUSH0 PUSH1 0x20 DUP3 ADD SWAP1 POP PUSH2 0x1E3B PUSH0 DUP4 ADD DUP5 PUSH2 0x1E19 JUMP JUMPDEST SWAP3 SWAP2 POP POP JUMP JUMPDEST PUSH0 DUP2 SWAP1 POP SWAP3 SWAP2 POP POP JUMP JUMPDEST PUSH32 0x4952454300000000000000000000000000000000000000000000000000000000 PUSH0 DUP3 ADD MSTORE POP JUMP JUMPDEST PUSH0 PUSH2 0x1E7F PUSH1 0x4 DUP4 PUSH2 0x1E41 JUMP JUMPDEST SWAP2 POP PUSH2 0x1E8A DUP3 PUSH2 0x1E4B JUMP JUMPDEST PUSH1 0x4 DUP3 ADD SWAP1 POP SWAP2 SWAP1 POP JUMP JUMPDEST PUSH0 PUSH2 0x1E9F DUP3 PUSH2 0x1E73 JUMP JUMPDEST SWAP2 POP DUP2 SWAP1 POP SWAP2 SWAP1 POP JUMP JUMPDEST PUSH0 DUP3 DUP3 MSTORE PUSH1 0x20 DUP3 ADD SWAP1 POP SWAP3 SWAP2 POP POP JUMP JUMPDEST PUSH32 0x546F6B656E206E6F742061637469766500000000000000000000000000000000 PUSH0 DUP3 ADD MSTORE POP JUMP JUMPDEST PUSH0 PUSH2 0x1EED PUSH1 0x10 DUP4 PUSH2 0x1EA9 JUMP JUMPDEST SWAP2 POP PUSH2 0x1EF8 DUP3 PUSH2 0x1EB9 JUMP JUMPDEST PUSH1 0x20 DUP3 ADD SWAP1 POP SWAP2 SWAP1 POP JUMP JUMPDEST PUSH0 PUSH1 0x20 DUP3 ADD SWAP1 POP DUP2 DUP2 SUB PUSH0 DUP4 ADD MSTORE PUSH2 0x1F1A DUP2 PUSH2 0x1EE1 JUMP JUMPDEST SWAP1 POP SWAP2 SWAP1 POP JUMP JUMPDEST PUSH32 0x4E487B7100000000000000000000000000000000000000000000000000000000 PUSH0 MSTORE PUSH1 0x11 PUSH1 0x4 MSTORE PUSH1 0x24 PUSH0 REVERT JUMPDEST PUSH0 PUSH2 0x1F58 DUP3 PUSH2 0x1791 JUMP JUMPDEST SWAP2 POP PUSH2 0x1F63 DUP4 PUSH2 0x1791 JUMP JUMPDEST SWAP3 POP DUP3 DUP3 MUL PUSH2 0x1F71 DUP2 PUSH2 0x1791 JUMP JUMPDEST SWAP2 POP DUP3 DUP3 DIV DUP5 EQ DUP4 ISZERO OR PUSH2 0x1F88 JUMPI PUSH2 0x1F87 PUSH2 0x1F21 JUMP JUMPDEST JUMPDEST POP SWAP3 SWAP2 POP POP JUMP JUMPDEST PUSH32 0x496E73756666696369656E74204554482073656E740000000000000000000000 PUSH0 DUP3 ADD MSTORE POP JUMP JUMPDEST PUSH0 PUSH2 0x1FC3 PUSH1 0x15 DUP4 PUSH2 0x1EA9 JUMP JUMPDEST SWAP2 POP PUSH2 0x1FCE DUP3 PUSH2 0x1F8F JUMP JUMPDEST PUSH1 0x20 DUP3 ADD SWAP1 POP SWAP2 SWAP1 POP JUMP JUMPDEST PUSH0 PUSH1 0x20 DUP3 ADD SWAP1 POP DUP2 DUP2 SUB PUSH0 DUP4 ADD MSTORE PUSH2 0x1FF0 DUP2 PUSH2 0x1FB7 JUMP JUMPDEST SWAP1 POP SWAP2 SWAP1 POP JUMP JUMPDEST PUSH0 PUSH1 0x40 DUP3 ADD SWAP1 POP PUSH2 0x200A PUSH0 DUP4 ADD DUP6 PUSH2 0x1ABD JUMP JUMPDEST PUSH2 0x2017 PUSH1 0x20 DUP4 ADD DUP5 PUSH2 0x1BB5 JUMP JUMPDEST SWAP4 SWAP3 POP POP POP JUMP JUMPDEST PUSH2 0x2027 DUP2 PUSH2 0x18E4 JUMP JUMPDEST DUP2 EQ PUSH2 0x2031 JUMPI PUSH0 DUP1 REVERT JUMPDEST POP JUMP JUMPDEST PUSH0 DUP2 MLOAD SWAP1 POP PUSH2 0x2042 DUP2 PUSH2 0x201E JUMP JUMPDEST SWAP3 SWAP2 POP POP JUMP JUMPDEST PUSH0 PUSH1 0x20 DUP3 DUP5 SUB SLT ISZERO PUSH2 0x205D JUMPI PUSH2 0x205C PUSH2 0x1789 JUMP JUMPDEST JUMPDEST PUSH0 PUSH2 0x206A DUP5 DUP3 DUP6 ADD PUSH2 0x2034 JUMP JUMPDEST SWAP2 POP POP SWAP3 SWAP2 POP POP JUMP JUMPDEST PUSH0 PUSH1 0x40 DUP3 ADD SWAP1 POP PUSH2 0x2086 PUSH0 DUP4 ADD DUP6 PUSH2 0x1BB5 JUMP JUMPDEST PUSH2 0x2093 PUSH1 0x20 DUP4 ADD DUP5 PUSH2 0x1BB5 JUMP JUMPDEST SWAP4 SWAP3 POP POP POP JUMP JUMPDEST PUSH0 DUP2 MLOAD SWAP1 POP PUSH2 0x20A8 DUP2 PUSH2 0x179A JUMP JUMPDEST SWAP3 SWAP2 POP POP JUMP JUMPDEST PUSH0 PUSH1 0x20 DUP3 DUP5 SUB SLT ISZERO PUSH2 0x20C3 JUMPI PUSH2 0x20C2 PUSH2 0x1789 JUMP JUMPDEST JUMPDEST PUSH0 PUSH2 0x20D0 DUP5 DUP3 DUP6 ADD PUSH2 0x209A JUMP JUMPDEST SWAP2 POP POP SWAP3 SWAP2 POP POP JUMP JUMPDEST PUSH0 PUSH1 0x60 DUP3 ADD SWAP1 POP PUSH2 0x20EC PUSH0 DUP4 ADD DUP7 PUSH2 0x1ABD JUMP JUMPDEST PUSH2 0x20F9 PUSH1 0x20 DUP4 ADD DUP6 PUSH2 0x1ABD JUMP JUMPDEST PUSH2 0x2106 PUSH1 0x40 DUP4 ADD DUP5 PUSH2 0x1BB5 JUMP JUMPDEST SWAP5 SWAP4 POP POP POP POP JUMP JUMPDEST PUSH32 0x53616C65206E6F74206163746976650000000000000000000000000000000000 PUSH0 DUP3 ADD MSTORE POP JUMP JUMPDEST PUSH0 PUSH2 0x2142 PUSH1 0xF DUP4 PUSH2 0x1EA9 JUMP JUMPDEST SWAP2 POP PUSH2 0x214D DUP3 PUSH2 0x210E JUMP JUMPDEST PUSH1 0x20 DUP3 ADD SWAP1 POP SWAP2 SWAP1 POP JUMP JUMPDEST PUSH0 PUSH1 0x20 DUP3 ADD SWAP1 POP DUP2 DUP2 SUB PUSH0 DUP4 ADD MSTORE PUSH2 0x216F DUP2 PUSH2 0x2136 JUMP JUMPDEST SWAP1 POP SWAP2 SWAP1 POP JUMP JUMPDEST PUSH32 0x4D7573742073656E642045544800000000000000000000000000000000000000 PUSH0 DUP3 ADD MSTORE POP JUMP JUMPDEST PUSH0 PUSH2 0x21AA PUSH1 0xD DUP4 PUSH2 0x1EA9 JUMP JUMPDEST SWAP2 POP PUSH2 0x21B5 DUP3 PUSH2 0x2176 JUMP JUMPDEST PUSH1 0x20 DUP3 ADD SWAP1 POP SWAP2 SWAP1 POP JUMP JUMPDEST PUSH0 PUSH1 0x20 DUP3 ADD SWAP1 POP DUP2 DUP2 SUB PUSH0 DUP4 ADD MSTORE PUSH2 0x21D7 DUP2 PUSH2 0x219E JUMP JUMPDEST SWAP1 POP SWAP2 SWAP1 POP JUMP JUMPDEST PUSH32 0x4E487B7100000000000000000000000000000000000000000000000000000000 PUSH0 MSTORE PUSH1 0x12 PUSH1 0x4 MSTORE PUSH1 0x24 PUSH0 REVERT JUMPDEST PUSH0 PUSH2 0x2215 DUP3 PUSH2 0x1791 JUMP JUMPDEST SWAP2 POP PUSH2 0x2220 DUP4 PUSH2 0x1791 JUMP JUMPDEST SWAP3 POP DUP3 PUSH2 0x2230 JUMPI PUSH2 0x222F PUSH2 0x21DE JUMP JUMPDEST JUMPDEST DUP3 DUP3 DIV SWAP1 POP SWAP3 SWAP2 POP POP JUMP JUMPDEST PUSH32 0x4E6F7420656E6F756768204554482073656E7400000000000000000000000000 PUSH0 DUP3 ADD MSTORE POP JUMP JUMPDEST PUSH0 PUSH2 0x226F PUSH1 0x13 DUP4 PUSH2 0x1EA9 JUMP JUMPDEST SWAP2 POP PUSH2 0x227A DUP3 PUSH2 0x223B JUMP JUMPDEST PUSH1 0x20 DUP3 ADD SWAP1 POP SWAP2 SWAP1 POP JUMP JUMPDEST PUSH0 PUSH1 0x20 DUP3 ADD SWAP1 POP DUP2 DUP2 SUB PUSH0 DUP4 ADD MSTORE PUSH2 0x229C DUP2 PUSH2 0x2263 JUMP JUMPDEST SWAP1 POP SWAP2 SWAP1 POP JUMP JUMPDEST PUSH0 PUSH2 0x22BD PUSH2 0x22B8 PUSH2 0x22B3 DUP5 PUSH2 0x1882 JUMP JUMPDEST PUSH2 0x180E JUMP JUMPDEST PUSH2 0x1791 JUMP JUMPDEST SWAP1 POP SWAP2 SWAP1 POP JUMP JUMPDEST PUSH2 0x22CD DUP2 PUSH2 0x22A3 JUMP JUMPDEST DUP3 MSTORE POP POP JUMP JUMPDEST PUSH0 PUSH1 0x40 DUP3 ADD SWAP1 POP PUSH2 0x22E6 PUSH0 DUP4 ADD DUP6 PUSH2 0x22C4 JUMP JUMPDEST PUSH2 0x22F3 PUSH1 0x20 DUP4 ADD DUP5 PUSH2 0x1BB5 JUMP JUMPDEST SWAP4 SWAP3 POP POP POP JUMP JUMPDEST PUSH32 0x496E73756666696369656E7420546F6B656E7320546F204C6973742100000000 PUSH0 DUP3 ADD MSTORE POP JUMP JUMPDEST PUSH0 PUSH2 0x232E PUSH1 0x1C DUP4 PUSH2 0x1EA9 JUMP JUMPDEST SWAP2 POP PUSH2 0x2339 DUP3 PUSH2 0x22FA JUMP JUMPDEST PUSH1 0x20 DUP3 ADD SWAP1 POP SWAP2 SWAP1 POP JUMP JUMPDEST PUSH0 PUSH1 0x20 DUP3 ADD SWAP1 POP DUP2 DUP2 SUB PUSH0 DUP4 ADD MSTORE PUSH2 0x235B DUP2 PUSH2 0x2322 JUMP JUMPDEST SWAP1 POP SWAP2 SWAP1 POP JUMP JUMPDEST PUSH0 PUSH2 0x236C DUP3 PUSH2 0x1791 JUMP JUMPDEST SWAP2 POP PUSH32 0xFFFFFFFFFFFFFFFFFFFFFFFFFFFFFFFFFFFFFFFFFFFFFFFFFFFFFFFFFFFFFFFF DUP3 SUB PUSH2 0x239E JUMPI PUSH2 0x239D PUSH2 0x1F21 JUMP JUMPDEST JUMPDEST PUSH1 0x1 DUP3 ADD SWAP1 POP SWAP2 SWAP1 POP JUMP INVALID LOG2 PUSH5 0x6970667358 0x22 SLT KECCAK256 STATICCALL 0xB7 SWAP6 CALLDATALOAD GT 0xC3 CALL 0xDF STOP 0xCE SWAP13 0xE5 EXTCODECOPY 0x4E LOG0 0xC1 0xBF SAR DUP9 SWAP13 0xD0 PUSH13 0x114B81352F61D5F3D5F864736F PUSH13 0x634300081A0033000000000000 "
				},
				"gasEstimates": {
					"creation": {
						"codeDepositCost": "1836600",
						"executionCost": "infinite",
						"totalCost": "infinite"
					},
					"external": {
						"configureSale(uint256)": "infinite",
						"depositReserveTokens()": "infinite",
						"fractionToken()": "infinite",
						"getOwnershipPercentage(address)": "infinite",
						"getOwnershipTransfers()": "infinite",
						"getTokenListing(uint256)": "infinite",
						"listToken(uint256,uint256)": "infinite",
						"listingCount()": "2514",
						"listings(string,uint256)": "infinite",
						"nftContract()": "infinite",
						"owner()": "2538",
						"ownerships(string,uint256)": "infinite",
						"purchaseFromListing(uint256)": "infinite",
						"purchaseFromReserve(uint16)": "infinite",
						"renounceOwnership()": "infinite",
						"saleActive()": "2511",
						"salePrice()": "2535",
						"transferOwnership(address)": "infinite"
					}
				},
				"methodIdentifiers": {
					"configureSale(uint256)": "4aee1de1",
					"depositReserveTokens()": "640b29d5",
					"fractionToken()": "457dfc67",
					"getOwnershipPercentage(address)": "a2931fe8",
					"getOwnershipTransfers()": "8125e3ac",
					"getTokenListing(uint256)": "98792eec",
					"listToken(uint256,uint256)": "75c1631d",
					"listingCount()": "a9b07c26",
					"listings(string,uint256)": "ca716b15",
					"nftContract()": "d56d229d",
					"owner()": "8da5cb5b",
					"ownerships(string,uint256)": "b08a1adf",
					"purchaseFromListing(uint256)": "0299c6eb",
					"purchaseFromReserve(uint16)": "665b3cc1",
					"renounceOwnership()": "715018a6",
					"saleActive()": "68428a1b",
					"salePrice()": "f51f96dd",
					"transferOwnership(address)": "f2fde38b"
				}
			},
			"storageLayout": {
				"storage": [
					{
						"astId": 8,
						"contract": "contracts/IREC/IRECMarketplace.sol:IRECMarketplace",
						"label": "_owner",
						"offset": 0,
						"slot": "0",
						"type": "t_address"
					},
					{
						"astId": 383,
						"contract": "contracts/IREC/IRECMarketplace.sol:IRECMarketplace",
						"label": "_status",
						"offset": 0,
						"slot": "1",
						"type": "t_uint256"
					},
					{
						"astId": 466,
						"contract": "contracts/IREC/IRECMarketplace.sol:IRECMarketplace",
						"label": "fractionToken",
						"offset": 0,
						"slot": "2",
						"type": "t_contract(IERC20)225"
					},
					{
						"astId": 469,
						"contract": "contracts/IREC/IRECMarketplace.sol:IRECMarketplace",
						"label": "nftContract",
						"offset": 0,
						"slot": "3",
						"type": "t_contract(IERC721)342"
					},
					{
						"astId": 471,
						"contract": "contracts/IREC/IRECMarketplace.sol:IRECMarketplace",
						"label": "salePrice",
						"offset": 0,
						"slot": "4",
						"type": "t_uint256"
					},
					{
						"astId": 474,
						"contract": "contracts/IREC/IRECMarketplace.sol:IRECMarketplace",
						"label": "saleActive",
						"offset": 0,
						"slot": "5",
						"type": "t_bool"
					},
					{
						"astId": 489,
						"contract": "contracts/IREC/IRECMarketplace.sol:IRECMarketplace",
						"label": "ownerships",
						"offset": 0,
						"slot": "6",
						"type": "t_mapping(t_string_memory_ptr,t_array(t_struct(Ownership)483_storage)dyn_storage)"
					},
					{
						"astId": 505,
						"contract": "contracts/IREC/IRECMarketplace.sol:IRECMarketplace",
						"label": "listings",
						"offset": 0,
						"slot": "7",
						"type": "t_mapping(t_string_memory_ptr,t_mapping(t_uint256,t_struct(Listing)498_storage))"
					},
					{
						"astId": 507,
						"contract": "contracts/IREC/IRECMarketplace.sol:IRECMarketplace",
						"label": "listingCount",
						"offset": 0,
						"slot": "8",
						"type": "t_uint256"
					}
				],
				"types": {
					"t_address": {
						"encoding": "inplace",
						"label": "address",
						"numberOfBytes": "20"
					},
					"t_array(t_struct(Ownership)483_storage)dyn_storage": {
						"base": "t_struct(Ownership)483_storage",
						"encoding": "dynamic_array",
						"label": "struct IRECMarketplace.Ownership[]",
						"numberOfBytes": "32"
					},
					"t_bool": {
						"encoding": "inplace",
						"label": "bool",
						"numberOfBytes": "1"
					},
					"t_contract(IERC20)225": {
						"encoding": "inplace",
						"label": "contract IERC20",
						"numberOfBytes": "20"
					},
					"t_contract(IERC721)342": {
						"encoding": "inplace",
						"label": "contract IERC721",
						"numberOfBytes": "20"
					},
					"t_mapping(t_string_memory_ptr,t_array(t_struct(Ownership)483_storage)dyn_storage)": {
						"encoding": "mapping",
						"key": "t_string_memory_ptr",
						"label": "mapping(string => struct IRECMarketplace.Ownership[])",
						"numberOfBytes": "32",
						"value": "t_array(t_struct(Ownership)483_storage)dyn_storage"
					},
					"t_mapping(t_string_memory_ptr,t_mapping(t_uint256,t_struct(Listing)498_storage))": {
						"encoding": "mapping",
						"key": "t_string_memory_ptr",
						"label": "mapping(string => mapping(uint256 => struct IRECMarketplace.Listing))",
						"numberOfBytes": "32",
						"value": "t_mapping(t_uint256,t_struct(Listing)498_storage)"
					},
					"t_mapping(t_uint256,t_struct(Listing)498_storage)": {
						"encoding": "mapping",
						"key": "t_uint256",
						"label": "mapping(uint256 => struct IRECMarketplace.Listing)",
						"numberOfBytes": "32",
						"value": "t_struct(Listing)498_storage"
					},
					"t_string_memory_ptr": {
						"encoding": "bytes",
						"label": "string",
						"numberOfBytes": "32"
					},
					"t_struct(Listing)498_storage": {
						"encoding": "inplace",
						"label": "struct IRECMarketplace.Listing",
						"members": [
							{
								"astId": 491,
								"contract": "contracts/IREC/IRECMarketplace.sol:IRECMarketplace",
								"label": "seller",
								"offset": 0,
								"slot": "0",
								"type": "t_address"
							},
							{
								"astId": 493,
								"contract": "contracts/IREC/IRECMarketplace.sol:IRECMarketplace",
								"label": "amount",
								"offset": 0,
								"slot": "1",
								"type": "t_uint256"
							},
							{
								"astId": 495,
								"contract": "contracts/IREC/IRECMarketplace.sol:IRECMarketplace",
								"label": "pricePerToken",
								"offset": 0,
								"slot": "2",
								"type": "t_uint256"
							},
							{
								"astId": 497,
								"contract": "contracts/IREC/IRECMarketplace.sol:IRECMarketplace",
								"label": "active",
								"offset": 0,
								"slot": "3",
								"type": "t_bool"
							}
						],
						"numberOfBytes": "128"
					},
					"t_struct(Ownership)483_storage": {
						"encoding": "inplace",
						"label": "struct IRECMarketplace.Ownership",
						"members": [
							{
								"astId": 476,
								"contract": "contracts/IREC/IRECMarketplace.sol:IRECMarketplace",
								"label": "from",
								"offset": 0,
								"slot": "0",
								"type": "t_address"
							},
							{
								"astId": 478,
								"contract": "contracts/IREC/IRECMarketplace.sol:IRECMarketplace",
								"label": "to",
								"offset": 0,
								"slot": "1",
								"type": "t_address"
							},
							{
								"astId": 480,
								"contract": "contracts/IREC/IRECMarketplace.sol:IRECMarketplace",
								"label": "amount",
								"offset": 0,
								"slot": "2",
								"type": "t_uint256"
							},
							{
								"astId": 482,
								"contract": "contracts/IREC/IRECMarketplace.sol:IRECMarketplace",
								"label": "timestampz",
								"offset": 0,
								"slot": "3",
								"type": "t_uint32"
							}
						],
						"numberOfBytes": "128"
					},
					"t_uint256": {
						"encoding": "inplace",
						"label": "uint256",
						"numberOfBytes": "32"
					},
					"t_uint32": {
						"encoding": "inplace",
						"label": "uint32",
						"numberOfBytes": "4"
					}
				}
			},
			"userdoc": {
				"kind": "user",
				"methods": {},
				"version": 1
			}
		}
	}
}