{
	"contracts/IREC/IRECMarketplace.sol": {
		"IRECMarketplace": {
			"abi": [
				{
					"inputs": [
						{
							"internalType": "contract IERC20",
							"name": "_fractionToken",
							"type": "address"
						},
						{
							"internalType": "contract IERC721",
							"name": "_nftContract",
							"type": "address"
						}
					],
					"stateMutability": "nonpayable",
					"type": "constructor"
				},
				{
					"inputs": [
						{
							"internalType": "address",
							"name": "owner",
							"type": "address"
						}
					],
					"name": "OwnableInvalidOwner",
					"type": "error"
				},
				{
					"inputs": [
						{
							"internalType": "address",
							"name": "account",
							"type": "address"
						}
					],
					"name": "OwnableUnauthorizedAccount",
					"type": "error"
				},
				{
					"anonymous": false,
					"inputs": [
						{
							"indexed": true,
							"internalType": "address",
							"name": "previousOwner",
							"type": "address"
						},
						{
							"indexed": true,
							"internalType": "address",
							"name": "newOwner",
							"type": "address"
						}
					],
					"name": "OwnershipTransferred",
					"type": "event"
				},
				{
					"anonymous": false,
					"inputs": [
						{
							"indexed": true,
							"internalType": "address",
							"name": "sellerAddress",
							"type": "address"
						},
						{
							"indexed": false,
							"internalType": "uint256",
							"name": "amount",
							"type": "uint256"
						},
						{
							"indexed": false,
							"internalType": "uint256",
							"name": "pricePerToken",
							"type": "uint256"
						}
					],
					"name": "TokenListed",
					"type": "event"
				},
				{
					"anonymous": false,
					"inputs": [
						{
							"indexed": true,
							"internalType": "address",
							"name": "from",
							"type": "address"
						},
						{
							"indexed": true,
							"internalType": "address",
							"name": "to",
							"type": "address"
						},
						{
							"indexed": false,
							"internalType": "uint256",
							"name": "amount",
							"type": "uint256"
						},
						{
							"indexed": false,
							"internalType": "uint256",
							"name": "price",
							"type": "uint256"
						}
					],
					"name": "TokenPurchased",
					"type": "event"
				},
				{
					"inputs": [
						{
							"internalType": "uint256",
							"name": "_pricePerToken",
							"type": "uint256"
						}
					],
					"name": "configureSale",
					"outputs": [],
					"stateMutability": "nonpayable",
					"type": "function"
				},
				{
					"inputs": [],
					"name": "depositReserveTokens",
					"outputs": [],
					"stateMutability": "nonpayable",
					"type": "function"
				},
				{
					"inputs": [],
					"name": "fractionToken",
					"outputs": [
						{
							"internalType": "contract IERC20",
							"name": "",
							"type": "address"
						}
					],
					"stateMutability": "view",
					"type": "function"
				},
				{
					"inputs": [
						{
							"internalType": "address",
							"name": "owner",
							"type": "address"
						}
					],
					"name": "getOwnershipPercentage",
					"outputs": [
						{
							"internalType": "uint256",
							"name": "",
							"type": "uint256"
						}
					],
					"stateMutability": "view",
					"type": "function"
				},
				{
					"inputs": [],
					"name": "getOwnershipTransfers",
					"outputs": [
						{
							"components": [
								{
									"internalType": "address",
									"name": "from",
									"type": "address"
								},
								{
									"internalType": "address",
									"name": "to",
									"type": "address"
								},
								{
									"internalType": "uint256",
									"name": "amount",
									"type": "uint256"
								},
								{
									"internalType": "uint32",
									"name": "timestampz",
									"type": "uint32"
								}
							],
							"internalType": "struct IRECMarketplace.Ownership[]",
							"name": "",
							"type": "tuple[]"
						}
					],
					"stateMutability": "view",
					"type": "function"
				},
				{
					"inputs": [
						{
							"internalType": "uint256",
							"name": "listingId",
							"type": "uint256"
						}
					],
					"name": "getTokenListing",
					"outputs": [
						{
							"components": [
								{
									"internalType": "address",
									"name": "seller",
									"type": "address"
								},
								{
									"internalType": "uint256",
									"name": "amount",
									"type": "uint256"
								},
								{
									"internalType": "uint256",
									"name": "pricePerToken",
									"type": "uint256"
								},
								{
									"internalType": "bool",
									"name": "active",
									"type": "bool"
								}
							],
							"internalType": "struct IRECMarketplace.Listing",
							"name": "",
							"type": "tuple"
						}
					],
					"stateMutability": "view",
					"type": "function"
				},
				{
					"inputs": [
						{
							"internalType": "uint256",
							"name": "_amount",
							"type": "uint256"
						},
						{
							"internalType": "uint256",
							"name": "_price",
							"type": "uint256"
						}
					],
					"name": "listToken",
					"outputs": [],
					"stateMutability": "nonpayable",
					"type": "function"
				},
				{
					"inputs": [],
					"name": "listingCount",
					"outputs": [
						{
							"internalType": "uint256",
							"name": "",
							"type": "uint256"
						}
					],
					"stateMutability": "view",
					"type": "function"
				},
				{
					"inputs": [
						{
							"internalType": "string",
							"name": "",
							"type": "string"
						},
						{
							"internalType": "uint256",
							"name": "",
							"type": "uint256"
						}
					],
					"name": "listings",
					"outputs": [
						{
							"internalType": "address",
							"name": "seller",
							"type": "address"
						},
						{
							"internalType": "uint256",
							"name": "amount",
							"type": "uint256"
						},
						{
							"internalType": "uint256",
							"name": "pricePerToken",
							"type": "uint256"
						},
						{
							"internalType": "bool",
							"name": "active",
							"type": "bool"
						}
					],
					"stateMutability": "view",
					"type": "function"
				},
				{
					"inputs": [],
					"name": "nftContract",
					"outputs": [
						{
							"internalType": "contract IERC721",
							"name": "",
							"type": "address"
						}
					],
					"stateMutability": "view",
					"type": "function"
				},
				{
					"inputs": [],
					"name": "owner",
					"outputs": [
						{
							"internalType": "address",
							"name": "",
							"type": "address"
						}
					],
					"stateMutability": "view",
					"type": "function"
				},
				{
					"inputs": [
						{
							"internalType": "string",
							"name": "",
							"type": "string"
						},
						{
							"internalType": "uint256",
							"name": "",
							"type": "uint256"
						}
					],
					"name": "ownerships",
					"outputs": [
						{
							"internalType": "address",
							"name": "from",
							"type": "address"
						},
						{
							"internalType": "address",
							"name": "to",
							"type": "address"
						},
						{
							"internalType": "uint256",
							"name": "amount",
							"type": "uint256"
						},
						{
							"internalType": "uint32",
							"name": "timestampz",
							"type": "uint32"
						}
					],
					"stateMutability": "view",
					"type": "function"
				},
				{
					"inputs": [
						{
							"internalType": "uint256",
							"name": "listingId",
							"type": "uint256"
						}
					],
					"name": "purchaseFromListing",
					"outputs": [],
					"stateMutability": "payable",
					"type": "function"
				},
				{
					"inputs": [
						{
							"internalType": "uint16",
							"name": "_amount",
							"type": "uint16"
						}
					],
					"name": "purchaseFromReserve",
					"outputs": [],
					"stateMutability": "payable",
					"type": "function"
				},
				{
					"inputs": [],
					"name": "renounceOwnership",
					"outputs": [],
					"stateMutability": "nonpayable",
					"type": "function"
				},
				{
					"inputs": [],
					"name": "saleActive",
					"outputs": [
						{
							"internalType": "bool",
							"name": "",
							"type": "bool"
						}
					],
					"stateMutability": "view",
					"type": "function"
				},
				{
					"inputs": [],
					"name": "salePrice",
					"outputs": [
						{
							"internalType": "uint256",
							"name": "",
							"type": "uint256"
						}
					],
					"stateMutability": "view",
					"type": "function"
				},
				{
					"inputs": [
						{
							"internalType": "address",
							"name": "newOwner",
							"type": "address"
						}
					],
					"name": "transferOwnership",
					"outputs": [],
					"stateMutability": "nonpayable",
					"type": "function"
				}
			],
			"devdoc": {
				"errors": {
					"OwnableInvalidOwner(address)": [
						{
							"details": "The owner is not a valid owner account. (eg. `address(0)`)"
						}
					],
					"OwnableUnauthorizedAccount(address)": [
						{
							"details": "The caller account is not authorized to perform an operation."
						}
					]
				},
				"kind": "dev",
				"methods": {
					"owner()": {
						"details": "Returns the address of the current owner."
					},
					"renounceOwnership()": {
						"details": "Leaves the contract without owner. It will not be possible to call `onlyOwner` functions. Can only be called by the current owner. NOTE: Renouncing ownership will leave the contract without an owner, thereby disabling any functionality that is only available to the owner."
					},
					"transferOwnership(address)": {
						"details": "Transfers ownership of the contract to a new account (`newOwner`). Can only be called by the current owner."
					}
				},
				"version": 1
			},
			"evm": {
				"assembly": "    /* \"contracts/IREC/IRECMarketplace.sol\":234:4701  contract IRECMarketplace is Ownable {... */\n  mstore(0x40, 0x80)\n    /* \"contracts/IREC/IRECMarketplace.sol\":516:520  true */\n  0x01\n    /* \"contracts/IREC/IRECMarketplace.sol\":491:520  bool public saleActive = true */\n  0x04\n  exp(0x0100, 0x00)\n  dup2\n  sload\n  dup2\n  0xff\n  mul\n  not\n  and\n  swap1\n  dup4\n  iszero\n  iszero\n  mul\n  or\n  swap1\n  sstore\n  pop\n    /* \"contracts/IREC/IRECMarketplace.sol\":1252:1442  constructor(... */\n  callvalue\n  dup1\n  iszero\n  tag_1\n  jumpi\n  0x00\n  dup1\n  revert\ntag_1:\n  pop\n  mload(0x40)\n  sub(codesize, bytecodeSize)\n  dup1\n  bytecodeSize\n  dup4\n  codecopy\n  dup2\n  dup2\n  add\n  0x40\n  mstore\n  dup2\n  add\n  swap1\n  tag_2\n  swap2\n  swap1\n  tag_3\n  jump\t// in\ntag_2:\n    /* \"contracts/IREC/IRECMarketplace.sol\":1344:1354  msg.sender */\n  caller\n    /* \"@openzeppelin/contracts/access/Ownable.sol\":1297:1298  0 */\n  0x00\n    /* \"@openzeppelin/contracts/access/Ownable.sol\":1273:1299  initialOwner == address(0) */\n  0xffffffffffffffffffffffffffffffffffffffff\n  and\n    /* \"@openzeppelin/contracts/access/Ownable.sol\":1273:1285  initialOwner */\n  dup2\n    /* \"@openzeppelin/contracts/access/Ownable.sol\":1273:1299  initialOwner == address(0) */\n  0xffffffffffffffffffffffffffffffffffffffff\n  and\n  sub\n    /* \"@openzeppelin/contracts/access/Ownable.sol\":1269:1364  if (initialOwner == address(0)) {... */\n  tag_7\n  jumpi\n    /* \"@openzeppelin/contracts/access/Ownable.sol\":1350:1351  0 */\n  0x00\n    /* \"@openzeppelin/contracts/access/Ownable.sol\":1322:1353  OwnableInvalidOwner(address(0)) */\n  mload(0x40)\n  0x1e4fbdf700000000000000000000000000000000000000000000000000000000\n  dup2\n  mstore\n  0x04\n  add\n  tag_8\n  swap2\n  swap1\n  tag_9\n  jump\t// in\ntag_8:\n  mload(0x40)\n  dup1\n  swap2\n  sub\n  swap1\n  revert\n    /* \"@openzeppelin/contracts/access/Ownable.sol\":1269:1364  if (initialOwner == address(0)) {... */\ntag_7:\n    /* \"@openzeppelin/contracts/access/Ownable.sol\":1373:1405  _transferOwnership(initialOwner) */\n  tag_10\n    /* \"@openzeppelin/contracts/access/Ownable.sol\":1392:1404  initialOwner */\n  dup2\n    /* \"@openzeppelin/contracts/access/Ownable.sol\":1373:1391  _transferOwnership */\n  shl(0x20, tag_11)\n    /* \"@openzeppelin/contracts/access/Ownable.sol\":1373:1405  _transferOwnership(initialOwner) */\n  0x20\n  shr\n  jump\t// in\ntag_10:\n    /* \"@openzeppelin/contracts/access/Ownable.sol\":1225:1412  constructor(address initialOwner) {... */\n  pop\n    /* \"contracts/IREC/IRECMarketplace.sol\":1383:1397  _fractionToken */\n  dup2\n    /* \"contracts/IREC/IRECMarketplace.sol\":1367:1380  fractionToken */\n  0x01\n  0x00\n    /* \"contracts/IREC/IRECMarketplace.sol\":1367:1397  fractionToken = _fractionToken */\n  0x0100\n  exp\n  dup2\n  sload\n  dup2\n  0xffffffffffffffffffffffffffffffffffffffff\n  mul\n  not\n  and\n  swap1\n  dup4\n  0xffffffffffffffffffffffffffffffffffffffff\n  and\n  mul\n  or\n  swap1\n  sstore\n  pop\n    /* \"contracts/IREC/IRECMarketplace.sol\":1422:1434  _nftContract */\n  dup1\n    /* \"contracts/IREC/IRECMarketplace.sol\":1408:1419  nftContract */\n  0x02\n  0x00\n    /* \"contracts/IREC/IRECMarketplace.sol\":1408:1434  nftContract = _nftContract */\n  0x0100\n  exp\n  dup2\n  sload\n  dup2\n  0xffffffffffffffffffffffffffffffffffffffff\n  mul\n  not\n  and\n  swap1\n  dup4\n  0xffffffffffffffffffffffffffffffffffffffff\n  and\n  mul\n  or\n  swap1\n  sstore\n  pop\n    /* \"contracts/IREC/IRECMarketplace.sol\":1252:1442  constructor(... */\n  pop\n  pop\n    /* \"contracts/IREC/IRECMarketplace.sol\":234:4701  contract IRECMarketplace is Ownable {... */\n  jump(tag_13)\n    /* \"@openzeppelin/contracts/access/Ownable.sol\":2912:3099  function _transferOwnership(address newOwner) internal virtual {... */\ntag_11:\n    /* \"@openzeppelin/contracts/access/Ownable.sol\":2985:3001  address oldOwner */\n  0x00\n    /* \"@openzeppelin/contracts/access/Ownable.sol\":3004:3010  _owner */\n  dup1\n  0x00\n  swap1\n  sload\n  swap1\n  0x0100\n  exp\n  swap1\n  div\n  0xffffffffffffffffffffffffffffffffffffffff\n  and\n    /* \"@openzeppelin/contracts/access/Ownable.sol\":2985:3010  address oldOwner = _owner */\n  swap1\n  pop\n    /* \"@openzeppelin/contracts/access/Ownable.sol\":3029:3037  newOwner */\n  dup2\n    /* \"@openzeppelin/contracts/access/Ownable.sol\":3020:3026  _owner */\n  0x00\n  dup1\n    /* \"@openzeppelin/contracts/access/Ownable.sol\":3020:3037  _owner = newOwner */\n  0x0100\n  exp\n  dup2\n  sload\n  dup2\n  0xffffffffffffffffffffffffffffffffffffffff\n  mul\n  not\n  and\n  swap1\n  dup4\n  0xffffffffffffffffffffffffffffffffffffffff\n  and\n  mul\n  or\n  swap1\n  sstore\n  pop\n    /* \"@openzeppelin/contracts/access/Ownable.sol\":3083:3091  newOwner */\n  dup2\n    /* \"@openzeppelin/contracts/access/Ownable.sol\":3052:3092  OwnershipTransferred(oldOwner, newOwner) */\n  0xffffffffffffffffffffffffffffffffffffffff\n  and\n    /* \"@openzeppelin/contracts/access/Ownable.sol\":3073:3081  oldOwner */\n  dup2\n    /* \"@openzeppelin/contracts/access/Ownable.sol\":3052:3092  OwnershipTransferred(oldOwner, newOwner) */\n  0xffffffffffffffffffffffffffffffffffffffff\n  and\n  0x8be0079c531659141344cd1fd0a4f28419497f9722a3daafe3b4186f6b6457e0\n  mload(0x40)\n  mload(0x40)\n  dup1\n  swap2\n  sub\n  swap1\n  log3\n    /* \"@openzeppelin/contracts/access/Ownable.sol\":2975:3099  {... */\n  pop\n    /* \"@openzeppelin/contracts/access/Ownable.sol\":2912:3099  function _transferOwnership(address newOwner) internal virtual {... */\n  pop\n  jump\t// out\n    /* \"#utility.yul\":88:205   */\ntag_16:\n    /* \"#utility.yul\":197:198   */\n  0x00\n    /* \"#utility.yul\":194:195   */\n  dup1\n    /* \"#utility.yul\":187:199   */\n  revert\n    /* \"#utility.yul\":334:460   */\ntag_18:\n    /* \"#utility.yul\":371:378   */\n  0x00\n    /* \"#utility.yul\":411:453   */\n  0xffffffffffffffffffffffffffffffffffffffff\n    /* \"#utility.yul\":404:409   */\n  dup3\n    /* \"#utility.yul\":400:454   */\n  and\n    /* \"#utility.yul\":389:454   */\n  swap1\n  pop\n    /* \"#utility.yul\":334:460   */\n  swap2\n  swap1\n  pop\n  jump\t// out\n    /* \"#utility.yul\":466:562   */\ntag_19:\n    /* \"#utility.yul\":503:510   */\n  0x00\n    /* \"#utility.yul\":532:556   */\n  tag_33\n    /* \"#utility.yul\":550:555   */\n  dup3\n    /* \"#utility.yul\":532:556   */\n  tag_18\n  jump\t// in\ntag_33:\n    /* \"#utility.yul\":521:556   */\n  swap1\n  pop\n    /* \"#utility.yul\":466:562   */\n  swap2\n  swap1\n  pop\n  jump\t// out\n    /* \"#utility.yul\":568:678   */\ntag_20:\n    /* \"#utility.yul\":619:626   */\n  0x00\n    /* \"#utility.yul\":648:672   */\n  tag_35\n    /* \"#utility.yul\":666:671   */\n  dup3\n    /* \"#utility.yul\":648:672   */\n  tag_19\n  jump\t// in\ntag_35:\n    /* \"#utility.yul\":637:672   */\n  swap1\n  pop\n    /* \"#utility.yul\":568:678   */\n  swap2\n  swap1\n  pop\n  jump\t// out\n    /* \"#utility.yul\":684:834   */\ntag_21:\n    /* \"#utility.yul\":771:809   */\n  tag_37\n    /* \"#utility.yul\":803:808   */\n  dup2\n    /* \"#utility.yul\":771:809   */\n  tag_20\n  jump\t// in\ntag_37:\n    /* \"#utility.yul\":764:769   */\n  dup2\n    /* \"#utility.yul\":761:810   */\n  eq\n    /* \"#utility.yul\":751:828   */\n  tag_38\n  jumpi\n    /* \"#utility.yul\":824:825   */\n  0x00\n    /* \"#utility.yul\":821:822   */\n  dup1\n    /* \"#utility.yul\":814:826   */\n  revert\n    /* \"#utility.yul\":751:828   */\ntag_38:\n    /* \"#utility.yul\":684:834   */\n  pop\n  jump\t// out\n    /* \"#utility.yul\":840:1011   */\ntag_22:\n    /* \"#utility.yul\":911:916   */\n  0x00\n    /* \"#utility.yul\":942:948   */\n  dup2\n    /* \"#utility.yul\":936:949   */\n  mload\n    /* \"#utility.yul\":927:949   */\n  swap1\n  pop\n    /* \"#utility.yul\":958:1005   */\n  tag_40\n    /* \"#utility.yul\":999:1004   */\n  dup2\n    /* \"#utility.yul\":958:1005   */\n  tag_21\n  jump\t// in\ntag_40:\n    /* \"#utility.yul\":840:1011   */\n  swap3\n  swap2\n  pop\n  pop\n  jump\t// out\n    /* \"#utility.yul\":1017:1128   */\ntag_23:\n    /* \"#utility.yul\":1069:1076   */\n  0x00\n    /* \"#utility.yul\":1098:1122   */\n  tag_42\n    /* \"#utility.yul\":1116:1121   */\n  dup3\n    /* \"#utility.yul\":1098:1122   */\n  tag_19\n  jump\t// in\ntag_42:\n    /* \"#utility.yul\":1087:1122   */\n  swap1\n  pop\n    /* \"#utility.yul\":1017:1128   */\n  swap2\n  swap1\n  pop\n  jump\t// out\n    /* \"#utility.yul\":1134:1286   */\ntag_24:\n    /* \"#utility.yul\":1222:1261   */\n  tag_44\n    /* \"#utility.yul\":1255:1260   */\n  dup2\n    /* \"#utility.yul\":1222:1261   */\n  tag_23\n  jump\t// in\ntag_44:\n    /* \"#utility.yul\":1215:1220   */\n  dup2\n    /* \"#utility.yul\":1212:1262   */\n  eq\n    /* \"#utility.yul\":1202:1280   */\n  tag_45\n  jumpi\n    /* \"#utility.yul\":1276:1277   */\n  0x00\n    /* \"#utility.yul\":1273:1274   */\n  dup1\n    /* \"#utility.yul\":1266:1278   */\n  revert\n    /* \"#utility.yul\":1202:1280   */\ntag_45:\n    /* \"#utility.yul\":1134:1286   */\n  pop\n  jump\t// out\n    /* \"#utility.yul\":1292:1465   */\ntag_25:\n    /* \"#utility.yul\":1364:1369   */\n  0x00\n    /* \"#utility.yul\":1395:1401   */\n  dup2\n    /* \"#utility.yul\":1389:1402   */\n  mload\n    /* \"#utility.yul\":1380:1402   */\n  swap1\n  pop\n    /* \"#utility.yul\":1411:1459   */\n  tag_47\n    /* \"#utility.yul\":1453:1458   */\n  dup2\n    /* \"#utility.yul\":1411:1459   */\n  tag_24\n  jump\t// in\ntag_47:\n    /* \"#utility.yul\":1292:1465   */\n  swap3\n  swap2\n  pop\n  pop\n  jump\t// out\n    /* \"#utility.yul\":1471:2036   */\ntag_3:\n    /* \"#utility.yul\":1579:1585   */\n  0x00\n    /* \"#utility.yul\":1587:1593   */\n  dup1\n    /* \"#utility.yul\":1636:1638   */\n  0x40\n    /* \"#utility.yul\":1624:1633   */\n  dup4\n    /* \"#utility.yul\":1615:1622   */\n  dup6\n    /* \"#utility.yul\":1611:1634   */\n  sub\n    /* \"#utility.yul\":1607:1639   */\n  slt\n    /* \"#utility.yul\":1604:1723   */\n  iszero\n  tag_49\n  jumpi\n    /* \"#utility.yul\":1642:1721   */\n  tag_50\n  tag_16\n  jump\t// in\ntag_50:\n    /* \"#utility.yul\":1604:1723   */\ntag_49:\n    /* \"#utility.yul\":1762:1763   */\n  0x00\n    /* \"#utility.yul\":1787:1865   */\n  tag_51\n    /* \"#utility.yul\":1857:1864   */\n  dup6\n    /* \"#utility.yul\":1848:1854   */\n  dup3\n    /* \"#utility.yul\":1837:1846   */\n  dup7\n    /* \"#utility.yul\":1833:1855   */\n  add\n    /* \"#utility.yul\":1787:1865   */\n  tag_22\n  jump\t// in\ntag_51:\n    /* \"#utility.yul\":1777:1865   */\n  swap3\n  pop\n    /* \"#utility.yul\":1733:1875   */\n  pop\n    /* \"#utility.yul\":1914:1916   */\n  0x20\n    /* \"#utility.yul\":1940:2019   */\n  tag_52\n    /* \"#utility.yul\":2011:2018   */\n  dup6\n    /* \"#utility.yul\":2002:2008   */\n  dup3\n    /* \"#utility.yul\":1991:2000   */\n  dup7\n    /* \"#utility.yul\":1987:2009   */\n  add\n    /* \"#utility.yul\":1940:2019   */\n  tag_25\n  jump\t// in\ntag_52:\n    /* \"#utility.yul\":1930:2019   */\n  swap2\n  pop\n    /* \"#utility.yul\":1885:2029   */\n  pop\n    /* \"#utility.yul\":1471:2036   */\n  swap3\n  pop\n  swap3\n  swap1\n  pop\n  jump\t// out\n    /* \"#utility.yul\":2042:2160   */\ntag_26:\n    /* \"#utility.yul\":2129:2153   */\n  tag_54\n    /* \"#utility.yul\":2147:2152   */\n  dup2\n    /* \"#utility.yul\":2129:2153   */\n  tag_19\n  jump\t// in\ntag_54:\n    /* \"#utility.yul\":2124:2127   */\n  dup3\n    /* \"#utility.yul\":2117:2154   */\n  mstore\n    /* \"#utility.yul\":2042:2160   */\n  pop\n  pop\n  jump\t// out\n    /* \"#utility.yul\":2166:2388   */\ntag_9:\n    /* \"#utility.yul\":2259:2263   */\n  0x00\n    /* \"#utility.yul\":2297:2299   */\n  0x20\n    /* \"#utility.yul\":2286:2295   */\n  dup3\n    /* \"#utility.yul\":2282:2300   */\n  add\n    /* \"#utility.yul\":2274:2300   */\n  swap1\n  pop\n    /* \"#utility.yul\":2310:2381   */\n  tag_56\n    /* \"#utility.yul\":2378:2379   */\n  0x00\n    /* \"#utility.yul\":2367:2376   */\n  dup4\n    /* \"#utility.yul\":2363:2380   */\n  add\n    /* \"#utility.yul\":2354:2360   */\n  dup5\n    /* \"#utility.yul\":2310:2381   */\n  tag_26\n  jump\t// in\ntag_56:\n    /* \"#utility.yul\":2166:2388   */\n  swap3\n  swap2\n  pop\n  pop\n  jump\t// out\n    /* \"contracts/IREC/IRECMarketplace.sol\":234:4701  contract IRECMarketplace is Ownable {... */\ntag_13:\n  dataSize(sub_0)\n  dup1\n  dataOffset(sub_0)\n  0x00\n  codecopy\n  0x00\n  return\nstop\n\nsub_0: assembly {\n        /* \"contracts/IREC/IRECMarketplace.sol\":234:4701  contract IRECMarketplace is Ownable {... */\n      mstore(0x40, 0x80)\n      jumpi(tag_1, lt(calldatasize, 0x04))\n      shr(0xe0, calldataload(0x00))\n      dup1\n      0x8da5cb5b\n      gt\n      tag_20\n      jumpi\n      dup1\n      0xb08a1adf\n      gt\n      tag_21\n      jumpi\n      dup1\n      0xb08a1adf\n      eq\n      tag_15\n      jumpi\n      dup1\n      0xca716b15\n      eq\n      tag_16\n      jumpi\n      dup1\n      0xd56d229d\n      eq\n      tag_17\n      jumpi\n      dup1\n      0xf2fde38b\n      eq\n      tag_18\n      jumpi\n      dup1\n      0xf51f96dd\n      eq\n      tag_19\n      jumpi\n      jump(tag_1)\n    tag_21:\n      dup1\n      0x8da5cb5b\n      eq\n      tag_11\n      jumpi\n      dup1\n      0x98792eec\n      eq\n      tag_12\n      jumpi\n      dup1\n      0xa2931fe8\n      eq\n      tag_13\n      jumpi\n      dup1\n      0xa9b07c26\n      eq\n      tag_14\n      jumpi\n      jump(tag_1)\n    tag_20:\n      dup1\n      0x665b3cc1\n      gt\n      tag_22\n      jumpi\n      dup1\n      0x665b3cc1\n      eq\n      tag_6\n      jumpi\n      dup1\n      0x68428a1b\n      eq\n      tag_7\n      jumpi\n      dup1\n      0x715018a6\n      eq\n      tag_8\n      jumpi\n      dup1\n      0x75c1631d\n      eq\n      tag_9\n      jumpi\n      dup1\n      0x8125e3ac\n      eq\n      tag_10\n      jumpi\n      jump(tag_1)\n    tag_22:\n      dup1\n      0x0299c6eb\n      eq\n      tag_2\n      jumpi\n      dup1\n      0x457dfc67\n      eq\n      tag_3\n      jumpi\n      dup1\n      0x4aee1de1\n      eq\n      tag_4\n      jumpi\n      dup1\n      0x640b29d5\n      eq\n      tag_5\n      jumpi\n    tag_1:\n      0x00\n      dup1\n      revert\n        /* \"contracts/IREC/IRECMarketplace.sol\":3538:4382  function purchaseFromListing(uint listingId) external payable  {... */\n    tag_2:\n      tag_23\n      0x04\n      dup1\n      calldatasize\n      sub\n      dup2\n      add\n      swap1\n      tag_24\n      swap2\n      swap1\n      tag_25\n      jump\t// in\n    tag_24:\n      tag_26\n      jump\t// in\n    tag_23:\n      stop\n        /* \"contracts/IREC/IRECMarketplace.sol\":309:336  IERC20 public fractionToken */\n    tag_3:\n      callvalue\n      dup1\n      iszero\n      tag_27\n      jumpi\n      0x00\n      dup1\n      revert\n    tag_27:\n      pop\n      tag_28\n      tag_29\n      jump\t// in\n    tag_28:\n      mload(0x40)\n      tag_30\n      swap2\n      swap1\n      tag_31\n      jump\t// in\n    tag_30:\n      mload(0x40)\n      dup1\n      swap2\n      sub\n      swap1\n      return\n        /* \"contracts/IREC/IRECMarketplace.sol\":1741:1852  function configureSale(uint256 _pricePerToken) external onlyOwner {... */\n    tag_4:\n      callvalue\n      dup1\n      iszero\n      tag_32\n      jumpi\n      0x00\n      dup1\n      revert\n    tag_32:\n      pop\n      tag_33\n      0x04\n      dup1\n      calldatasize\n      sub\n      dup2\n      add\n      swap1\n      tag_34\n      swap2\n      swap1\n      tag_25\n      jump\t// in\n    tag_34:\n      tag_35\n      jump\t// in\n    tag_33:\n      stop\n        /* \"contracts/IREC/IRECMarketplace.sol\":1932:2084  function depositReserveTokens() external onlyOwner {... */\n    tag_5:\n      callvalue\n      dup1\n      iszero\n      tag_36\n      jumpi\n      0x00\n      dup1\n      revert\n    tag_36:\n      pop\n      tag_37\n      tag_38\n      jump\t// in\n    tag_37:\n      stop\n        /* \"contracts/IREC/IRECMarketplace.sol\":2136:2877  function purchaseFromReserve(uint16 _amount) external payable {... */\n    tag_6:\n      tag_39\n      0x04\n      dup1\n      calldatasize\n      sub\n      dup2\n      add\n      swap1\n      tag_40\n      swap2\n      swap1\n      tag_41\n      jump\t// in\n    tag_40:\n      tag_42\n      jump\t// in\n    tag_39:\n      stop\n        /* \"contracts/IREC/IRECMarketplace.sol\":491:520  bool public saleActive = true */\n    tag_7:\n      callvalue\n      dup1\n      iszero\n      tag_43\n      jumpi\n      0x00\n      dup1\n      revert\n    tag_43:\n      pop\n      tag_44\n      tag_45\n      jump\t// in\n    tag_44:\n      mload(0x40)\n      tag_46\n      swap2\n      swap1\n      tag_47\n      jump\t// in\n    tag_46:\n      mload(0x40)\n      dup1\n      swap2\n      sub\n      swap1\n      return\n        /* \"@openzeppelin/contracts/access/Ownable.sol\":2293:2394  function renounceOwnership() public virtual onlyOwner {... */\n    tag_8:\n      callvalue\n      dup1\n      iszero\n      tag_48\n      jumpi\n      0x00\n      dup1\n      revert\n    tag_48:\n      pop\n      tag_49\n      tag_50\n      jump\t// in\n    tag_49:\n      stop\n        /* \"contracts/IREC/IRECMarketplace.sol\":2915:3494  function listToken(uint256 _amount, uint _price) external {... */\n    tag_9:\n      callvalue\n      dup1\n      iszero\n      tag_51\n      jumpi\n      0x00\n      dup1\n      revert\n    tag_51:\n      pop\n      tag_52\n      0x04\n      dup1\n      calldatasize\n      sub\n      dup2\n      add\n      swap1\n      tag_53\n      swap2\n      swap1\n      tag_54\n      jump\t// in\n    tag_53:\n      tag_55\n      jump\t// in\n    tag_52:\n      stop\n        /* \"contracts/IREC/IRECMarketplace.sol\":4414:4533  function getOwnershipTransfers() public view returns (Ownership[] memory) {... */\n    tag_10:\n      callvalue\n      dup1\n      iszero\n      tag_56\n      jumpi\n      0x00\n      dup1\n      revert\n    tag_56:\n      pop\n      tag_57\n      tag_58\n      jump\t// in\n    tag_57:\n      mload(0x40)\n      tag_59\n      swap2\n      swap1\n      tag_60\n      jump\t// in\n    tag_59:\n      mload(0x40)\n      dup1\n      swap2\n      sub\n      swap1\n      return\n        /* \"@openzeppelin/contracts/access/Ownable.sol\":1638:1723  function owner() public view virtual returns (address) {... */\n    tag_11:\n      callvalue\n      dup1\n      iszero\n      tag_61\n      jumpi\n      0x00\n      dup1\n      revert\n    tag_61:\n      pop\n      tag_62\n      tag_63\n      jump\t// in\n    tag_62:\n      mload(0x40)\n      tag_64\n      swap2\n      swap1\n      tag_65\n      jump\t// in\n    tag_64:\n      mload(0x40)\n      dup1\n      swap2\n      sub\n      swap1\n      return\n        /* \"contracts/IREC/IRECMarketplace.sol\":4568:4698  function getTokenListing(uint listingId) public view returns(Listing memory) {... */\n    tag_12:\n      callvalue\n      dup1\n      iszero\n      tag_66\n      jumpi\n      0x00\n      dup1\n      revert\n    tag_66:\n      pop\n      tag_67\n      0x04\n      dup1\n      calldatasize\n      sub\n      dup2\n      add\n      swap1\n      tag_68\n      swap2\n      swap1\n      tag_25\n      jump\t// in\n    tag_68:\n      tag_69\n      jump\t// in\n    tag_67:\n      mload(0x40)\n      tag_70\n      swap2\n      swap1\n      tag_71\n      jump\t// in\n    tag_70:\n      mload(0x40)\n      dup1\n      swap2\n      sub\n      swap1\n      return\n        /* \"contracts/IREC/IRECMarketplace.sol\":1506:1701  function getOwnershipPercentage(address owner) public view returns (uint256) {... */\n    tag_13:\n      callvalue\n      dup1\n      iszero\n      tag_72\n      jumpi\n      0x00\n      dup1\n      revert\n    tag_72:\n      pop\n      tag_73\n      0x04\n      dup1\n      calldatasize\n      sub\n      dup2\n      add\n      swap1\n      tag_74\n      swap2\n      swap1\n      tag_75\n      jump\t// in\n    tag_74:\n      tag_76\n      jump\t// in\n    tag_73:\n      mload(0x40)\n      tag_77\n      swap2\n      swap1\n      tag_78\n      jump\t// in\n    tag_77:\n      mload(0x40)\n      dup1\n      swap2\n      sub\n      swap1\n      return\n        /* \"contracts/IREC/IRECMarketplace.sol\":1018:1042  uint public listingCount */\n    tag_14:\n      callvalue\n      dup1\n      iszero\n      tag_79\n      jumpi\n      0x00\n      dup1\n      revert\n    tag_79:\n      pop\n      tag_80\n      tag_81\n      jump\t// in\n    tag_80:\n      mload(0x40)\n      tag_82\n      swap2\n      swap1\n      tag_78\n      jump\t// in\n    tag_82:\n      mload(0x40)\n      dup1\n      swap2\n      sub\n      swap1\n      return\n        /* \"contracts/IREC/IRECMarketplace.sol\":690:739  mapping (string => Ownership[]) public ownerships */\n    tag_15:\n      callvalue\n      dup1\n      iszero\n      tag_83\n      jumpi\n      0x00\n      dup1\n      revert\n    tag_83:\n      pop\n      tag_84\n      0x04\n      dup1\n      calldatasize\n      sub\n      dup2\n      add\n      swap1\n      tag_85\n      swap2\n      swap1\n      tag_86\n      jump\t// in\n    tag_85:\n      tag_87\n      jump\t// in\n    tag_84:\n      mload(0x40)\n      tag_88\n      swap5\n      swap4\n      swap3\n      swap2\n      swap1\n      tag_89\n      jump\t// in\n    tag_88:\n      mload(0x40)\n      dup1\n      swap2\n      sub\n      swap1\n      return\n        /* \"contracts/IREC/IRECMarketplace.sol\":916:975  mapping(string => mapping(uint => Listing)) public listings */\n    tag_16:\n      callvalue\n      dup1\n      iszero\n      tag_90\n      jumpi\n      0x00\n      dup1\n      revert\n    tag_90:\n      pop\n      tag_91\n      0x04\n      dup1\n      calldatasize\n      sub\n      dup2\n      add\n      swap1\n      tag_92\n      swap2\n      swap1\n      tag_86\n      jump\t// in\n    tag_92:\n      tag_93\n      jump\t// in\n    tag_91:\n      mload(0x40)\n      tag_94\n      swap5\n      swap4\n      swap3\n      swap2\n      swap1\n      tag_95\n      jump\t// in\n    tag_94:\n      mload(0x40)\n      dup1\n      swap2\n      sub\n      swap1\n      return\n        /* \"contracts/IREC/IRECMarketplace.sol\":343:369  IERC721 public nftContract */\n    tag_17:\n      callvalue\n      dup1\n      iszero\n      tag_96\n      jumpi\n      0x00\n      dup1\n      revert\n    tag_96:\n      pop\n      tag_97\n      tag_98\n      jump\t// in\n    tag_97:\n      mload(0x40)\n      tag_99\n      swap2\n      swap1\n      tag_100\n      jump\t// in\n    tag_99:\n      mload(0x40)\n      dup1\n      swap2\n      sub\n      swap1\n      return\n        /* \"@openzeppelin/contracts/access/Ownable.sol\":2543:2758  function transferOwnership(address newOwner) public virtual onlyOwner {... */\n    tag_18:\n      callvalue\n      dup1\n      iszero\n      tag_101\n      jumpi\n      0x00\n      dup1\n      revert\n    tag_101:\n      pop\n      tag_102\n      0x04\n      dup1\n      calldatasize\n      sub\n      dup2\n      add\n      swap1\n      tag_103\n      swap2\n      swap1\n      tag_75\n      jump\t// in\n    tag_103:\n      tag_104\n      jump\t// in\n    tag_102:\n      stop\n        /* \"contracts/IREC/IRECMarketplace.sol\":409:433  uint256 public salePrice */\n    tag_19:\n      callvalue\n      dup1\n      iszero\n      tag_105\n      jumpi\n      0x00\n      dup1\n      revert\n    tag_105:\n      pop\n      tag_106\n      tag_107\n      jump\t// in\n    tag_106:\n      mload(0x40)\n      tag_108\n      swap2\n      swap1\n      tag_78\n      jump\t// in\n    tag_108:\n      mload(0x40)\n      dup1\n      swap2\n      sub\n      swap1\n      return\n        /* \"contracts/IREC/IRECMarketplace.sol\":3538:4382  function purchaseFromListing(uint listingId) external payable  {... */\n    tag_26:\n        /* \"contracts/IREC/IRECMarketplace.sol\":3612:3634  Listing memory listing */\n      0x00\n        /* \"contracts/IREC/IRECMarketplace.sol\":3637:3645  listings */\n      0x06\n        /* \"contracts/IREC/IRECMarketplace.sol\":3637:3653  listings['IREC'] */\n      mload(0x40)\n      tag_110\n      swap1\n      tag_111\n      jump\t// in\n    tag_110:\n      swap1\n      dup2\n      mstore\n      0x20\n      add\n      mload(0x40)\n      dup1\n      swap2\n      sub\n      swap1\n      keccak256\n        /* \"contracts/IREC/IRECMarketplace.sol\":3637:3664  listings['IREC'][listingId] */\n      0x00\n        /* \"contracts/IREC/IRECMarketplace.sol\":3654:3663  listingId */\n      dup4\n        /* \"contracts/IREC/IRECMarketplace.sol\":3637:3664  listings['IREC'][listingId] */\n      dup2\n      mstore\n      0x20\n      add\n      swap1\n      dup2\n      mstore\n      0x20\n      add\n      0x00\n      keccak256\n        /* \"contracts/IREC/IRECMarketplace.sol\":3612:3664  Listing memory listing = listings['IREC'][listingId] */\n      mload(0x40)\n      dup1\n      0x80\n      add\n      0x40\n      mstore\n      swap1\n      dup2\n      0x00\n      dup3\n      add\n      0x00\n      swap1\n      sload\n      swap1\n      0x0100\n      exp\n      swap1\n      div\n      0xffffffffffffffffffffffffffffffffffffffff\n      and\n      0xffffffffffffffffffffffffffffffffffffffff\n      and\n      0xffffffffffffffffffffffffffffffffffffffff\n      and\n      dup2\n      mstore\n      0x20\n      add\n      0x01\n      dup3\n      add\n      sload\n      dup2\n      mstore\n      0x20\n      add\n      0x02\n      dup3\n      add\n      sload\n      dup2\n      mstore\n      0x20\n      add\n      0x03\n      dup3\n      add\n      0x00\n      swap1\n      sload\n      swap1\n      0x0100\n      exp\n      swap1\n      div\n      0xff\n      and\n      iszero\n      iszero\n      iszero\n      iszero\n      dup2\n      mstore\n      pop\n      pop\n      swap1\n      pop\n        /* \"contracts/IREC/IRECMarketplace.sol\":3685:3692  listing */\n      dup1\n        /* \"contracts/IREC/IRECMarketplace.sol\":3685:3699  listing.active */\n      0x60\n      add\n      mload\n        /* \"contracts/IREC/IRECMarketplace.sol\":3677:3720  require(listing.active, \"Token not active\") */\n      tag_112\n      jumpi\n      mload(0x40)\n      0x08c379a000000000000000000000000000000000000000000000000000000000\n      dup2\n      mstore\n      0x04\n      add\n      tag_113\n      swap1\n      tag_114\n      jump\t// in\n    tag_113:\n      mload(0x40)\n      dup1\n      swap2\n      sub\n      swap1\n      revert\n    tag_112:\n        /* \"contracts/IREC/IRECMarketplace.sol\":3769:3776  listing */\n      dup1\n        /* \"contracts/IREC/IRECMarketplace.sol\":3769:3790  listing.pricePerToken */\n      0x40\n      add\n      mload\n        /* \"contracts/IREC/IRECMarketplace.sol\":3752:3759  listing */\n      dup2\n        /* \"contracts/IREC/IRECMarketplace.sol\":3752:3766  listing.amount */\n      0x20\n      add\n      mload\n        /* \"contracts/IREC/IRECMarketplace.sol\":3752:3790  listing.amount * listing.pricePerToken */\n      tag_115\n      swap2\n      swap1\n      tag_116\n      jump\t// in\n    tag_115:\n        /* \"contracts/IREC/IRECMarketplace.sol\":3739:3748  msg.value */\n      callvalue\n        /* \"contracts/IREC/IRECMarketplace.sol\":3739:3790  msg.value >= listing.amount * listing.pricePerToken */\n      lt\n      iszero\n        /* \"contracts/IREC/IRECMarketplace.sol\":3731:3816  require(msg.value >= listing.amount * listing.pricePerToken, \"Insufficient ETH sent\") */\n      tag_117\n      jumpi\n      mload(0x40)\n      0x08c379a000000000000000000000000000000000000000000000000000000000\n      dup2\n      mstore\n      0x04\n      add\n      tag_118\n      swap1\n      tag_119\n      jump\t// in\n    tag_118:\n      mload(0x40)\n      dup1\n      swap2\n      sub\n      swap1\n      revert\n    tag_117:\n        /* \"contracts/IREC/IRECMarketplace.sol\":3829:3839  ownerships */\n      0x05\n        /* \"contracts/IREC/IRECMarketplace.sol\":3829:3847  ownerships['IREC'] */\n      mload(0x40)\n      tag_120\n      swap1\n      tag_111\n      jump\t// in\n    tag_120:\n      swap1\n      dup2\n      mstore\n      0x20\n      add\n      mload(0x40)\n      dup1\n      swap2\n      sub\n      swap1\n      keccak256\n        /* \"contracts/IREC/IRECMarketplace.sol\":3853:4028  Ownership({... */\n      mload(0x40)\n      dup1\n      0x80\n      add\n      0x40\n      mstore\n      dup1\n        /* \"contracts/IREC/IRECMarketplace.sol\":3884:3891  listing */\n      dup4\n        /* \"contracts/IREC/IRECMarketplace.sol\":3884:3898  listing.seller */\n      0x00\n      add\n      mload\n        /* \"contracts/IREC/IRECMarketplace.sol\":3853:4028  Ownership({... */\n      0xffffffffffffffffffffffffffffffffffffffff\n      and\n      dup2\n      mstore\n      0x20\n      add\n        /* \"contracts/IREC/IRECMarketplace.sol\":3918:3928  msg.sender */\n      caller\n        /* \"contracts/IREC/IRECMarketplace.sol\":3853:4028  Ownership({... */\n      0xffffffffffffffffffffffffffffffffffffffff\n      and\n      dup2\n      mstore\n      0x20\n      add\n        /* \"contracts/IREC/IRECMarketplace.sol\":3952:3959  listing */\n      dup4\n        /* \"contracts/IREC/IRECMarketplace.sol\":3952:3966  listing.amount */\n      0x20\n      add\n      mload\n        /* \"contracts/IREC/IRECMarketplace.sol\":3853:4028  Ownership({... */\n      dup2\n      mstore\n      0x20\n      add\n        /* \"contracts/IREC/IRECMarketplace.sol\":4000:4015  block.timestamp */\n      timestamp\n        /* \"contracts/IREC/IRECMarketplace.sol\":3853:4028  Ownership({... */\n      0xffffffff\n      and\n      dup2\n      mstore\n      pop\n        /* \"contracts/IREC/IRECMarketplace.sol\":3829:4029  ownerships['IREC'].push(Ownership({... */\n      swap1\n      dup1\n      0x01\n      dup2\n      sload\n      add\n      dup1\n      dup3\n      sstore\n      dup1\n      swap2\n      pop\n      pop\n      0x01\n      swap1\n      sub\n      swap1\n      0x00\n      mstore\n      keccak256(0x00, 0x20)\n      swap1\n      0x04\n      mul\n      add\n      0x00\n      swap1\n      swap2\n      swap1\n      swap2\n      swap1\n      swap2\n      pop\n      0x00\n      dup3\n      add\n      mload\n      dup2\n      0x00\n      add\n      exp(0x0100, 0x00)\n      dup2\n      sload\n      dup2\n      0xffffffffffffffffffffffffffffffffffffffff\n      mul\n      not\n      and\n      swap1\n      dup4\n      0xffffffffffffffffffffffffffffffffffffffff\n      and\n      mul\n      or\n      swap1\n      sstore\n      pop\n      0x20\n      dup3\n      add\n      mload\n      dup2\n      0x01\n      add\n      exp(0x0100, 0x00)\n      dup2\n      sload\n      dup2\n      0xffffffffffffffffffffffffffffffffffffffff\n      mul\n      not\n      and\n      swap1\n      dup4\n      0xffffffffffffffffffffffffffffffffffffffff\n      and\n      mul\n      or\n      swap1\n      sstore\n      pop\n      0x40\n      dup3\n      add\n      mload\n      dup2\n      0x02\n      add\n      sstore\n      0x60\n      dup3\n      add\n      mload\n      dup2\n      0x03\n      add\n      exp(0x0100, 0x00)\n      dup2\n      sload\n      dup2\n      0xffffffff\n      mul\n      not\n      and\n      swap1\n      dup4\n      0xffffffff\n      and\n      mul\n      or\n      swap1\n      sstore\n      pop\n      pop\n      pop\n        /* \"contracts/IREC/IRECMarketplace.sol\":4092:4105  fractionToken */\n      0x01\n      0x00\n      swap1\n      sload\n      swap1\n      0x0100\n      exp\n      swap1\n      div\n      0xffffffffffffffffffffffffffffffffffffffff\n      and\n        /* \"contracts/IREC/IRECMarketplace.sol\":4092:4114  fractionToken.transfer */\n      0xffffffffffffffffffffffffffffffffffffffff\n      and\n      0xa9059cbb\n        /* \"contracts/IREC/IRECMarketplace.sol\":4115:4125  msg.sender */\n      caller\n        /* \"contracts/IREC/IRECMarketplace.sol\":4127:4134  listing */\n      dup4\n        /* \"contracts/IREC/IRECMarketplace.sol\":4127:4141  listing.amount */\n      0x20\n      add\n      mload\n        /* \"contracts/IREC/IRECMarketplace.sol\":4092:4142  fractionToken.transfer(msg.sender, listing.amount) */\n      mload(0x40)\n      dup4\n      0xffffffff\n      and\n      0xe0\n      shl\n      dup2\n      mstore\n      0x04\n      add\n      tag_122\n      swap3\n      swap2\n      swap1\n      tag_123\n      jump\t// in\n    tag_122:\n      0x20\n      mload(0x40)\n      dup1\n      dup4\n      sub\n      dup2\n      0x00\n      dup8\n      gas\n      call\n      iszero\n      dup1\n      iszero\n      tag_125\n      jumpi\n      returndatasize\n      0x00\n      dup1\n      returndatacopy\n      revert(0x00, returndatasize)\n    tag_125:\n      pop\n      pop\n      pop\n      pop\n      mload(0x40)\n      returndatasize\n      not(0x1f)\n      0x1f\n      dup3\n      add\n      and\n      dup3\n      add\n      dup1\n      0x40\n      mstore\n      pop\n      dup2\n      add\n      swap1\n      tag_126\n      swap2\n      swap1\n      tag_127\n      jump\t// in\n    tag_126:\n      pop\n        /* \"contracts/IREC/IRECMarketplace.sol\":4185:4192  listing */\n      dup1\n        /* \"contracts/IREC/IRECMarketplace.sol\":4185:4199  listing.seller */\n      0x00\n      add\n      mload\n        /* \"contracts/IREC/IRECMarketplace.sol\":4177:4209  payable(listing.seller).transfer */\n      0xffffffffffffffffffffffffffffffffffffffff\n      and\n        /* \"contracts/IREC/IRECMarketplace.sol\":4177:4220  payable(listing.seller).transfer(msg.value) */\n      0x08fc\n        /* \"contracts/IREC/IRECMarketplace.sol\":4210:4219  msg.value */\n      callvalue\n        /* \"contracts/IREC/IRECMarketplace.sol\":4177:4220  payable(listing.seller).transfer(msg.value) */\n      swap1\n      dup2\n      iszero\n      mul\n      swap1\n      mload(0x40)\n      0x00\n      mload(0x40)\n      dup1\n      dup4\n      sub\n      dup2\n      dup6\n      dup9\n      dup9\n      call\n      swap4\n      pop\n      pop\n      pop\n      pop\n      iszero\n      dup1\n      iszero\n      tag_129\n      jumpi\n      returndatasize\n      0x00\n      dup1\n      returndatacopy\n      revert(0x00, returndatasize)\n    tag_129:\n      pop\n        /* \"contracts/IREC/IRECMarketplace.sol\":4270:4275  false */\n      0x00\n        /* \"contracts/IREC/IRECMarketplace.sol\":4233:4241  listings */\n      0x06\n        /* \"contracts/IREC/IRECMarketplace.sol\":4233:4249  listings['IREC'] */\n      mload(0x40)\n      tag_130\n      swap1\n      tag_111\n      jump\t// in\n    tag_130:\n      swap1\n      dup2\n      mstore\n      0x20\n      add\n      mload(0x40)\n      dup1\n      swap2\n      sub\n      swap1\n      keccak256\n        /* \"contracts/IREC/IRECMarketplace.sol\":4233:4260  listings['IREC'][listingId] */\n      0x00\n        /* \"contracts/IREC/IRECMarketplace.sol\":4250:4259  listingId */\n      dup5\n        /* \"contracts/IREC/IRECMarketplace.sol\":4233:4260  listings['IREC'][listingId] */\n      dup2\n      mstore\n      0x20\n      add\n      swap1\n      dup2\n      mstore\n      0x20\n      add\n      0x00\n      keccak256\n        /* \"contracts/IREC/IRECMarketplace.sol\":4233:4267  listings['IREC'][listingId].active */\n      0x03\n      add\n      0x00\n        /* \"contracts/IREC/IRECMarketplace.sol\":4233:4275  listings['IREC'][listingId].active = false */\n      0x0100\n      exp\n      dup2\n      sload\n      dup2\n      0xff\n      mul\n      not\n      and\n      swap1\n      dup4\n      iszero\n      iszero\n      mul\n      or\n      swap1\n      sstore\n      pop\n        /* \"contracts/IREC/IRECMarketplace.sol\":4324:4334  msg.sender */\n      caller\n        /* \"contracts/IREC/IRECMarketplace.sol\":4293:4374  TokenPurchased(listing.seller, msg.sender, listing.amount, listing.pricePerToken) */\n      0xffffffffffffffffffffffffffffffffffffffff\n      and\n        /* \"contracts/IREC/IRECMarketplace.sol\":4308:4315  listing */\n      dup2\n        /* \"contracts/IREC/IRECMarketplace.sol\":4308:4322  listing.seller */\n      0x00\n      add\n      mload\n        /* \"contracts/IREC/IRECMarketplace.sol\":4293:4374  TokenPurchased(listing.seller, msg.sender, listing.amount, listing.pricePerToken) */\n      0xffffffffffffffffffffffffffffffffffffffff\n      and\n      0x8daf503382665d950e449b86172be5222275c90f4ddf69c29fdaa8237a562a6d\n        /* \"contracts/IREC/IRECMarketplace.sol\":4336:4343  listing */\n      dup4\n        /* \"contracts/IREC/IRECMarketplace.sol\":4336:4350  listing.amount */\n      0x20\n      add\n      mload\n        /* \"contracts/IREC/IRECMarketplace.sol\":4352:4359  listing */\n      dup5\n        /* \"contracts/IREC/IRECMarketplace.sol\":4352:4373  listing.pricePerToken */\n      0x40\n      add\n      mload\n        /* \"contracts/IREC/IRECMarketplace.sol\":4293:4374  TokenPurchased(listing.seller, msg.sender, listing.amount, listing.pricePerToken) */\n      mload(0x40)\n      tag_131\n      swap3\n      swap2\n      swap1\n      tag_132\n      jump\t// in\n    tag_131:\n      mload(0x40)\n      dup1\n      swap2\n      sub\n      swap1\n      log3\n        /* \"contracts/IREC/IRECMarketplace.sol\":3601:4382  {... */\n      pop\n        /* \"contracts/IREC/IRECMarketplace.sol\":3538:4382  function purchaseFromListing(uint listingId) external payable  {... */\n      pop\n      jump\t// out\n        /* \"contracts/IREC/IRECMarketplace.sol\":309:336  IERC20 public fractionToken */\n    tag_29:\n      0x01\n      0x00\n      swap1\n      sload\n      swap1\n      0x0100\n      exp\n      swap1\n      div\n      0xffffffffffffffffffffffffffffffffffffffff\n      and\n      dup2\n      jump\t// out\n        /* \"contracts/IREC/IRECMarketplace.sol\":1741:1852  function configureSale(uint256 _pricePerToken) external onlyOwner {... */\n    tag_35:\n        /* \"@openzeppelin/contracts/access/Ownable.sol\":1531:1544  _checkOwner() */\n      tag_134\n        /* \"@openzeppelin/contracts/access/Ownable.sol\":1531:1542  _checkOwner */\n      tag_135\n        /* \"@openzeppelin/contracts/access/Ownable.sol\":1531:1544  _checkOwner() */\n      jump\t// in\n    tag_134:\n        /* \"contracts/IREC/IRECMarketplace.sol\":1830:1844  _pricePerToken */\n      dup1\n        /* \"contracts/IREC/IRECMarketplace.sol\":1818:1827  salePrice */\n      0x03\n        /* \"contracts/IREC/IRECMarketplace.sol\":1818:1844  salePrice = _pricePerToken */\n      dup2\n      swap1\n      sstore\n      pop\n        /* \"contracts/IREC/IRECMarketplace.sol\":1741:1852  function configureSale(uint256 _pricePerToken) external onlyOwner {... */\n      pop\n      jump\t// out\n        /* \"contracts/IREC/IRECMarketplace.sol\":1932:2084  function depositReserveTokens() external onlyOwner {... */\n    tag_38:\n        /* \"@openzeppelin/contracts/access/Ownable.sol\":1531:1544  _checkOwner() */\n      tag_138\n        /* \"@openzeppelin/contracts/access/Ownable.sol\":1531:1542  _checkOwner */\n      tag_135\n        /* \"@openzeppelin/contracts/access/Ownable.sol\":1531:1544  _checkOwner() */\n      jump\t// in\n    tag_138:\n        /* \"contracts/IREC/IRECMarketplace.sol\":1994:2007  fractionToken */\n      0x01\n      0x00\n      swap1\n      sload\n      swap1\n      0x0100\n      exp\n      swap1\n      div\n      0xffffffffffffffffffffffffffffffffffffffff\n      and\n        /* \"contracts/IREC/IRECMarketplace.sol\":1994:2020  fractionToken.transferFrom */\n      0xffffffffffffffffffffffffffffffffffffffff\n      and\n      0x23b872dd\n        /* \"contracts/IREC/IRECMarketplace.sol\":2021:2031  msg.sender */\n      caller\n        /* \"contracts/IREC/IRECMarketplace.sol\":2041:2045  this */\n      address\n        /* \"contracts/IREC/IRECMarketplace.sol\":2048:2061  fractionToken */\n      0x01\n      0x00\n      swap1\n      sload\n      swap1\n      0x0100\n      exp\n      swap1\n      div\n      0xffffffffffffffffffffffffffffffffffffffff\n      and\n        /* \"contracts/IREC/IRECMarketplace.sol\":2048:2073  fractionToken.totalSupply */\n      0xffffffffffffffffffffffffffffffffffffffff\n      and\n      0x18160ddd\n        /* \"contracts/IREC/IRECMarketplace.sol\":2048:2075  fractionToken.totalSupply() */\n      mload(0x40)\n      dup2\n      0xffffffff\n      and\n      0xe0\n      shl\n      dup2\n      mstore\n      0x04\n      add\n      0x20\n      mload(0x40)\n      dup1\n      dup4\n      sub\n      dup2\n      dup7\n      gas\n      staticcall\n      iszero\n      dup1\n      iszero\n      tag_141\n      jumpi\n      returndatasize\n      0x00\n      dup1\n      returndatacopy\n      revert(0x00, returndatasize)\n    tag_141:\n      pop\n      pop\n      pop\n      pop\n      mload(0x40)\n      returndatasize\n      not(0x1f)\n      0x1f\n      dup3\n      add\n      and\n      dup3\n      add\n      dup1\n      0x40\n      mstore\n      pop\n      dup2\n      add\n      swap1\n      tag_142\n      swap2\n      swap1\n      tag_143\n      jump\t// in\n    tag_142:\n        /* \"contracts/IREC/IRECMarketplace.sol\":1994:2076  fractionToken.transferFrom(msg.sender, address(this), fractionToken.totalSupply()) */\n      mload(0x40)\n      dup5\n      0xffffffff\n      and\n      0xe0\n      shl\n      dup2\n      mstore\n      0x04\n      add\n      tag_144\n      swap4\n      swap3\n      swap2\n      swap1\n      tag_145\n      jump\t// in\n    tag_144:\n      0x20\n      mload(0x40)\n      dup1\n      dup4\n      sub\n      dup2\n      0x00\n      dup8\n      gas\n      call\n      iszero\n      dup1\n      iszero\n      tag_147\n      jumpi\n      returndatasize\n      0x00\n      dup1\n      returndatacopy\n      revert(0x00, returndatasize)\n    tag_147:\n      pop\n      pop\n      pop\n      pop\n      mload(0x40)\n      returndatasize\n      not(0x1f)\n      0x1f\n      dup3\n      add\n      and\n      dup3\n      add\n      dup1\n      0x40\n      mstore\n      pop\n      dup2\n      add\n      swap1\n      tag_148\n      swap2\n      swap1\n      tag_127\n      jump\t// in\n    tag_148:\n      pop\n        /* \"contracts/IREC/IRECMarketplace.sol\":1932:2084  function depositReserveTokens() external onlyOwner {... */\n      jump\t// out\n        /* \"contracts/IREC/IRECMarketplace.sol\":2136:2877  function purchaseFromReserve(uint16 _amount) external payable {... */\n    tag_42:\n        /* \"contracts/IREC/IRECMarketplace.sol\":2217:2227  saleActive */\n      0x04\n      0x00\n      swap1\n      sload\n      swap1\n      0x0100\n      exp\n      swap1\n      div\n      0xff\n      and\n        /* \"contracts/IREC/IRECMarketplace.sol\":2209:2247  require(saleActive, \"Sale not active\") */\n      tag_150\n      jumpi\n      mload(0x40)\n      0x08c379a000000000000000000000000000000000000000000000000000000000\n      dup2\n      mstore\n      0x04\n      add\n      tag_151\n      swap1\n      tag_152\n      jump\t// in\n    tag_151:\n      mload(0x40)\n      dup1\n      swap2\n      sub\n      swap1\n      revert\n    tag_150:\n        /* \"contracts/IREC/IRECMarketplace.sol\":2278:2279  0 */\n      0x00\n        /* \"contracts/IREC/IRECMarketplace.sol\":2266:2275  msg.value */\n      callvalue\n        /* \"contracts/IREC/IRECMarketplace.sol\":2266:2279  msg.value > 0 */\n      gt\n        /* \"contracts/IREC/IRECMarketplace.sol\":2266:2315  msg.value > 0 && msg.value == salePrice * _amount */\n      dup1\n      iszero\n      tag_153\n      jumpi\n      pop\n        /* \"contracts/IREC/IRECMarketplace.sol\":2308:2315  _amount */\n      dup1\n        /* \"contracts/IREC/IRECMarketplace.sol\":2296:2315  salePrice * _amount */\n      0xffff\n      and\n        /* \"contracts/IREC/IRECMarketplace.sol\":2296:2305  salePrice */\n      sload(0x03)\n        /* \"contracts/IREC/IRECMarketplace.sol\":2296:2315  salePrice * _amount */\n      tag_154\n      swap2\n      swap1\n      tag_116\n      jump\t// in\n    tag_154:\n        /* \"contracts/IREC/IRECMarketplace.sol\":2283:2292  msg.value */\n      callvalue\n        /* \"contracts/IREC/IRECMarketplace.sol\":2283:2315  msg.value == salePrice * _amount */\n      eq\n        /* \"contracts/IREC/IRECMarketplace.sol\":2266:2315  msg.value > 0 && msg.value == salePrice * _amount */\n    tag_153:\n        /* \"contracts/IREC/IRECMarketplace.sol\":2258:2333  require(msg.value > 0 && msg.value == salePrice * _amount, \"Must send ETH\") */\n      tag_155\n      jumpi\n      mload(0x40)\n      0x08c379a000000000000000000000000000000000000000000000000000000000\n      dup2\n      mstore\n      0x04\n      add\n      tag_156\n      swap1\n      tag_157\n      jump\t// in\n    tag_156:\n      mload(0x40)\n      dup1\n      swap2\n      sub\n      swap1\n      revert\n    tag_155:\n        /* \"contracts/IREC/IRECMarketplace.sol\":2354:2373  uint256 tokenAmount */\n      0x00\n        /* \"contracts/IREC/IRECMarketplace.sol\":2388:2397  salePrice */\n      sload(0x03)\n        /* \"contracts/IREC/IRECMarketplace.sol\":2376:2385  msg.value */\n      callvalue\n        /* \"contracts/IREC/IRECMarketplace.sol\":2376:2397  msg.value / salePrice */\n      tag_158\n      swap2\n      swap1\n      tag_159\n      jump\t// in\n    tag_158:\n        /* \"contracts/IREC/IRECMarketplace.sol\":2354:2397  uint256 tokenAmount = msg.value / salePrice */\n      swap1\n      pop\n        /* \"contracts/IREC/IRECMarketplace.sol\":2430:2431  0 */\n      0x00\n        /* \"contracts/IREC/IRECMarketplace.sol\":2416:2427  tokenAmount */\n      dup2\n        /* \"contracts/IREC/IRECMarketplace.sol\":2416:2431  tokenAmount > 0 */\n      gt\n        /* \"contracts/IREC/IRECMarketplace.sol\":2408:2455  require(tokenAmount > 0, \"Not enough ETH sent\") */\n      tag_160\n      jumpi\n      mload(0x40)\n      0x08c379a000000000000000000000000000000000000000000000000000000000\n      dup2\n      mstore\n      0x04\n      add\n      tag_161\n      swap1\n      tag_162\n      jump\t// in\n    tag_161:\n      mload(0x40)\n      dup1\n      swap2\n      sub\n      swap1\n      revert\n    tag_160:\n        /* \"contracts/IREC/IRECMarketplace.sol\":2468:2478  ownerships */\n      0x05\n        /* \"contracts/IREC/IRECMarketplace.sol\":2468:2486  ownerships['IREC'] */\n      mload(0x40)\n      tag_163\n      swap1\n      tag_111\n      jump\t// in\n    tag_163:\n      swap1\n      dup2\n      mstore\n      0x20\n      add\n      mload(0x40)\n      dup1\n      swap2\n      sub\n      swap1\n      keccak256\n        /* \"contracts/IREC/IRECMarketplace.sol\":2492:2660  Ownership({... */\n      mload(0x40)\n      dup1\n      0x80\n      add\n      0x40\n      mstore\n      dup1\n        /* \"contracts/IREC/IRECMarketplace.sol\":2531:2535  this */\n      address\n        /* \"contracts/IREC/IRECMarketplace.sol\":2492:2660  Ownership({... */\n      0xffffffffffffffffffffffffffffffffffffffff\n      and\n      dup2\n      mstore\n      0x20\n      add\n        /* \"contracts/IREC/IRECMarketplace.sol\":2556:2566  msg.sender */\n      caller\n        /* \"contracts/IREC/IRECMarketplace.sol\":2492:2660  Ownership({... */\n      0xffffffffffffffffffffffffffffffffffffffff\n      and\n      dup2\n      mstore\n      0x20\n      add\n        /* \"contracts/IREC/IRECMarketplace.sol\":2591:2598  _amount */\n      dup5\n        /* \"contracts/IREC/IRECMarketplace.sol\":2492:2660  Ownership({... */\n      0xffff\n      and\n      dup2\n      mstore\n      0x20\n      add\n        /* \"contracts/IREC/IRECMarketplace.sol\":2632:2647  block.timestamp */\n      timestamp\n        /* \"contracts/IREC/IRECMarketplace.sol\":2492:2660  Ownership({... */\n      0xffffffff\n      and\n      dup2\n      mstore\n      pop\n        /* \"contracts/IREC/IRECMarketplace.sol\":2468:2661  ownerships['IREC'].push(Ownership({... */\n      swap1\n      dup1\n      0x01\n      dup2\n      sload\n      add\n      dup1\n      dup3\n      sstore\n      dup1\n      swap2\n      pop\n      pop\n      0x01\n      swap1\n      sub\n      swap1\n      0x00\n      mstore\n      keccak256(0x00, 0x20)\n      swap1\n      0x04\n      mul\n      add\n      0x00\n      swap1\n      swap2\n      swap1\n      swap2\n      swap1\n      swap2\n      pop\n      0x00\n      dup3\n      add\n      mload\n      dup2\n      0x00\n      add\n      exp(0x0100, 0x00)\n      dup2\n      sload\n      dup2\n      0xffffffffffffffffffffffffffffffffffffffff\n      mul\n      not\n      and\n      swap1\n      dup4\n      0xffffffffffffffffffffffffffffffffffffffff\n      and\n      mul\n      or\n      swap1\n      sstore\n      pop\n      0x20\n      dup3\n      add\n      mload\n      dup2\n      0x01\n      add\n      exp(0x0100, 0x00)\n      dup2\n      sload\n      dup2\n      0xffffffffffffffffffffffffffffffffffffffff\n      mul\n      not\n      and\n      swap1\n      dup4\n      0xffffffffffffffffffffffffffffffffffffffff\n      and\n      mul\n      or\n      swap1\n      sstore\n      pop\n      0x40\n      dup3\n      add\n      mload\n      dup2\n      0x02\n      add\n      sstore\n      0x60\n      dup3\n      add\n      mload\n      dup2\n      0x03\n      add\n      exp(0x0100, 0x00)\n      dup2\n      sload\n      dup2\n      0xffffffff\n      mul\n      not\n      and\n      swap1\n      dup4\n      0xffffffff\n      and\n      mul\n      or\n      swap1\n      sstore\n      pop\n      pop\n      pop\n        /* \"contracts/IREC/IRECMarketplace.sol\":2743:2756  fractionToken */\n      0x01\n      0x00\n      swap1\n      sload\n      swap1\n      0x0100\n      exp\n      swap1\n      div\n      0xffffffffffffffffffffffffffffffffffffffff\n      and\n        /* \"contracts/IREC/IRECMarketplace.sol\":2743:2765  fractionToken.transfer */\n      0xffffffffffffffffffffffffffffffffffffffff\n      and\n      0xa9059cbb\n        /* \"contracts/IREC/IRECMarketplace.sol\":2766:2776  msg.sender */\n      caller\n        /* \"contracts/IREC/IRECMarketplace.sol\":2778:2789  tokenAmount */\n      dup4\n        /* \"contracts/IREC/IRECMarketplace.sol\":2743:2790  fractionToken.transfer(msg.sender, tokenAmount) */\n      mload(0x40)\n      dup4\n      0xffffffff\n      and\n      0xe0\n      shl\n      dup2\n      mstore\n      0x04\n      add\n      tag_165\n      swap3\n      swap2\n      swap1\n      tag_123\n      jump\t// in\n    tag_165:\n      0x20\n      mload(0x40)\n      dup1\n      dup4\n      sub\n      dup2\n      0x00\n      dup8\n      gas\n      call\n      iszero\n      dup1\n      iszero\n      tag_167\n      jumpi\n      returndatasize\n      0x00\n      dup1\n      returndatacopy\n      revert(0x00, returndatasize)\n    tag_167:\n      pop\n      pop\n      pop\n      pop\n      mload(0x40)\n      returndatasize\n      not(0x1f)\n      0x1f\n      dup3\n      add\n      and\n      dup3\n      add\n      dup1\n      0x40\n      mstore\n      pop\n      dup2\n      add\n      swap1\n      tag_168\n      swap2\n      swap1\n      tag_127\n      jump\t// in\n    tag_168:\n      pop\n        /* \"contracts/IREC/IRECMarketplace.sol\":2838:2848  msg.sender */\n      caller\n        /* \"contracts/IREC/IRECMarketplace.sol\":2808:2869  TokenPurchased(address(this), msg.sender, _amount, salePrice) */\n      0xffffffffffffffffffffffffffffffffffffffff\n      and\n        /* \"contracts/IREC/IRECMarketplace.sol\":2831:2835  this */\n      address\n        /* \"contracts/IREC/IRECMarketplace.sol\":2808:2869  TokenPurchased(address(this), msg.sender, _amount, salePrice) */\n      0xffffffffffffffffffffffffffffffffffffffff\n      and\n      0x8daf503382665d950e449b86172be5222275c90f4ddf69c29fdaa8237a562a6d\n        /* \"contracts/IREC/IRECMarketplace.sol\":2850:2857  _amount */\n      dup5\n        /* \"contracts/IREC/IRECMarketplace.sol\":2859:2868  salePrice */\n      sload(0x03)\n        /* \"contracts/IREC/IRECMarketplace.sol\":2808:2869  TokenPurchased(address(this), msg.sender, _amount, salePrice) */\n      mload(0x40)\n      tag_169\n      swap3\n      swap2\n      swap1\n      tag_170\n      jump\t// in\n    tag_169:\n      mload(0x40)\n      dup1\n      swap2\n      sub\n      swap1\n      log3\n        /* \"contracts/IREC/IRECMarketplace.sol\":2198:2877  {... */\n      pop\n        /* \"contracts/IREC/IRECMarketplace.sol\":2136:2877  function purchaseFromReserve(uint16 _amount) external payable {... */\n      pop\n      jump\t// out\n        /* \"contracts/IREC/IRECMarketplace.sol\":491:520  bool public saleActive = true */\n    tag_45:\n      0x04\n      0x00\n      swap1\n      sload\n      swap1\n      0x0100\n      exp\n      swap1\n      div\n      0xff\n      and\n      dup2\n      jump\t// out\n        /* \"@openzeppelin/contracts/access/Ownable.sol\":2293:2394  function renounceOwnership() public virtual onlyOwner {... */\n    tag_50:\n        /* \"@openzeppelin/contracts/access/Ownable.sol\":1531:1544  _checkOwner() */\n      tag_172\n        /* \"@openzeppelin/contracts/access/Ownable.sol\":1531:1542  _checkOwner */\n      tag_135\n        /* \"@openzeppelin/contracts/access/Ownable.sol\":1531:1544  _checkOwner() */\n      jump\t// in\n    tag_172:\n        /* \"@openzeppelin/contracts/access/Ownable.sol\":2357:2387  _transferOwnership(address(0)) */\n      tag_174\n        /* \"@openzeppelin/contracts/access/Ownable.sol\":2384:2385  0 */\n      0x00\n        /* \"@openzeppelin/contracts/access/Ownable.sol\":2357:2375  _transferOwnership */\n      tag_175\n        /* \"@openzeppelin/contracts/access/Ownable.sol\":2357:2387  _transferOwnership(address(0)) */\n      jump\t// in\n    tag_174:\n        /* \"@openzeppelin/contracts/access/Ownable.sol\":2293:2394  function renounceOwnership() public virtual onlyOwner {... */\n      jump\t// out\n        /* \"contracts/IREC/IRECMarketplace.sol\":2915:3494  function listToken(uint256 _amount, uint _price) external {... */\n    tag_55:\n        /* \"contracts/IREC/IRECMarketplace.sol\":3031:3038  _amount */\n      dup2\n        /* \"contracts/IREC/IRECMarketplace.sol\":2992:3005  fractionToken */\n      0x01\n      0x00\n      swap1\n      sload\n      swap1\n      0x0100\n      exp\n      swap1\n      div\n      0xffffffffffffffffffffffffffffffffffffffff\n      and\n        /* \"contracts/IREC/IRECMarketplace.sol\":2992:3015  fractionToken.balanceOf */\n      0xffffffffffffffffffffffffffffffffffffffff\n      and\n      0x70a08231\n        /* \"contracts/IREC/IRECMarketplace.sol\":3016:3026  msg.sender */\n      caller\n        /* \"contracts/IREC/IRECMarketplace.sol\":2992:3027  fractionToken.balanceOf(msg.sender) */\n      mload(0x40)\n      dup3\n      0xffffffff\n      and\n      0xe0\n      shl\n      dup2\n      mstore\n      0x04\n      add\n      tag_177\n      swap2\n      swap1\n      tag_65\n      jump\t// in\n    tag_177:\n      0x20\n      mload(0x40)\n      dup1\n      dup4\n      sub\n      dup2\n      dup7\n      gas\n      staticcall\n      iszero\n      dup1\n      iszero\n      tag_179\n      jumpi\n      returndatasize\n      0x00\n      dup1\n      returndatacopy\n      revert(0x00, returndatasize)\n    tag_179:\n      pop\n      pop\n      pop\n      pop\n      mload(0x40)\n      returndatasize\n      not(0x1f)\n      0x1f\n      dup3\n      add\n      and\n      dup3\n      add\n      dup1\n      0x40\n      mstore\n      pop\n      dup2\n      add\n      swap1\n      tag_180\n      swap2\n      swap1\n      tag_143\n      jump\t// in\n    tag_180:\n        /* \"contracts/IREC/IRECMarketplace.sol\":2992:3038  fractionToken.balanceOf(msg.sender) >= _amount */\n      lt\n      iszero\n        /* \"contracts/IREC/IRECMarketplace.sol\":2984:3071  require(fractionToken.balanceOf(msg.sender) >= _amount, 'Insufficient Tokens To List!') */\n      tag_181\n      jumpi\n      mload(0x40)\n      0x08c379a000000000000000000000000000000000000000000000000000000000\n      dup2\n      mstore\n      0x04\n      add\n      tag_182\n      swap1\n      tag_183\n      jump\t// in\n    tag_182:\n      mload(0x40)\n      dup1\n      swap2\n      sub\n      swap1\n      revert\n    tag_181:\n        /* \"contracts/IREC/IRECMarketplace.sol\":3084:3096  listingCount */\n      0x07\n      0x00\n        /* \"contracts/IREC/IRECMarketplace.sol\":3084:3098  listingCount++ */\n      dup2\n      sload\n      dup1\n      swap3\n      swap2\n      swap1\n      tag_184\n      swap1\n      tag_185\n      jump\t// in\n    tag_184:\n      swap2\n      swap1\n      pop\n      sstore\n      pop\n        /* \"contracts/IREC/IRECMarketplace.sol\":3167:3315  Listing({... */\n      mload(0x40)\n      dup1\n      0x80\n      add\n      0x40\n      mstore\n      dup1\n        /* \"contracts/IREC/IRECMarketplace.sol\":3198:3208  msg.sender */\n      caller\n        /* \"contracts/IREC/IRECMarketplace.sol\":3167:3315  Listing({... */\n      0xffffffffffffffffffffffffffffffffffffffff\n      and\n      dup2\n      mstore\n      0x20\n      add\n        /* \"contracts/IREC/IRECMarketplace.sol\":3232:3239  _amount */\n      dup4\n        /* \"contracts/IREC/IRECMarketplace.sol\":3167:3315  Listing({... */\n      dup2\n      mstore\n      0x20\n      add\n        /* \"contracts/IREC/IRECMarketplace.sol\":3269:3275  _price */\n      dup3\n        /* \"contracts/IREC/IRECMarketplace.sol\":3167:3315  Listing({... */\n      dup2\n      mstore\n      0x20\n      add\n        /* \"contracts/IREC/IRECMarketplace.sol\":3299:3303  true */\n      0x01\n        /* \"contracts/IREC/IRECMarketplace.sol\":3167:3315  Listing({... */\n      iszero\n      iszero\n      dup2\n      mstore\n      pop\n        /* \"contracts/IREC/IRECMarketplace.sol\":3134:3142  listings */\n      0x06\n        /* \"contracts/IREC/IRECMarketplace.sol\":3134:3150  listings['IREC'] */\n      mload(0x40)\n      tag_186\n      swap1\n      tag_111\n      jump\t// in\n    tag_186:\n      swap1\n      dup2\n      mstore\n      0x20\n      add\n      mload(0x40)\n      dup1\n      swap2\n      sub\n      swap1\n      keccak256\n        /* \"contracts/IREC/IRECMarketplace.sol\":3134:3164  listings['IREC'][listingCount] */\n      0x00\n        /* \"contracts/IREC/IRECMarketplace.sol\":3151:3163  listingCount */\n      sload(0x07)\n        /* \"contracts/IREC/IRECMarketplace.sol\":3134:3164  listings['IREC'][listingCount] */\n      dup2\n      mstore\n      0x20\n      add\n      swap1\n      dup2\n      mstore\n      0x20\n      add\n      0x00\n      keccak256\n        /* \"contracts/IREC/IRECMarketplace.sol\":3134:3315  listings['IREC'][listingCount] = Listing({... */\n      0x00\n      dup3\n      add\n      mload\n      dup2\n      0x00\n      add\n      exp(0x0100, 0x00)\n      dup2\n      sload\n      dup2\n      0xffffffffffffffffffffffffffffffffffffffff\n      mul\n      not\n      and\n      swap1\n      dup4\n      0xffffffffffffffffffffffffffffffffffffffff\n      and\n      mul\n      or\n      swap1\n      sstore\n      pop\n      0x20\n      dup3\n      add\n      mload\n      dup2\n      0x01\n      add\n      sstore\n      0x40\n      dup3\n      add\n      mload\n      dup2\n      0x02\n      add\n      sstore\n      0x60\n      dup3\n      add\n      mload\n      dup2\n      0x03\n      add\n      exp(0x0100, 0x00)\n      dup2\n      sload\n      dup2\n      0xff\n      mul\n      not\n      and\n      swap1\n      dup4\n      iszero\n      iszero\n      mul\n      or\n      swap1\n      sstore\n      pop\n      swap1\n      pop\n      pop\n        /* \"contracts/IREC/IRECMarketplace.sol\":3366:3379  fractionToken */\n      0x01\n      0x00\n      swap1\n      sload\n      swap1\n      0x0100\n      exp\n      swap1\n      div\n      0xffffffffffffffffffffffffffffffffffffffff\n      and\n        /* \"contracts/IREC/IRECMarketplace.sol\":3366:3392  fractionToken.transferFrom */\n      0xffffffffffffffffffffffffffffffffffffffff\n      and\n      0x23b872dd\n        /* \"contracts/IREC/IRECMarketplace.sol\":3393:3403  msg.sender */\n      caller\n        /* \"contracts/IREC/IRECMarketplace.sol\":3413:3417  this */\n      address\n        /* \"contracts/IREC/IRECMarketplace.sol\":3420:3427  _amount */\n      dup6\n        /* \"contracts/IREC/IRECMarketplace.sol\":3366:3428  fractionToken.transferFrom(msg.sender, address(this), _amount) */\n      mload(0x40)\n      dup5\n      0xffffffff\n      and\n      0xe0\n      shl\n      dup2\n      mstore\n      0x04\n      add\n      tag_187\n      swap4\n      swap3\n      swap2\n      swap1\n      tag_145\n      jump\t// in\n    tag_187:\n      0x20\n      mload(0x40)\n      dup1\n      dup4\n      sub\n      dup2\n      0x00\n      dup8\n      gas\n      call\n      iszero\n      dup1\n      iszero\n      tag_189\n      jumpi\n      returndatasize\n      0x00\n      dup1\n      returndatacopy\n      revert(0x00, returndatasize)\n    tag_189:\n      pop\n      pop\n      pop\n      pop\n      mload(0x40)\n      returndatasize\n      not(0x1f)\n      0x1f\n      dup3\n      add\n      and\n      dup3\n      add\n      dup1\n      0x40\n      mstore\n      pop\n      dup2\n      add\n      swap1\n      tag_190\n      swap2\n      swap1\n      tag_127\n      jump\t// in\n    tag_190:\n      pop\n        /* \"contracts/IREC/IRECMarketplace.sol\":3458:3468  msg.sender */\n      caller\n        /* \"contracts/IREC/IRECMarketplace.sol\":3446:3486  TokenListed(msg.sender, _amount, _price) */\n      0xffffffffffffffffffffffffffffffffffffffff\n      and\n      0x5dc96537cbae524775a674b6a810d9a1ba04a9e279f172d156b352151394677a\n        /* \"contracts/IREC/IRECMarketplace.sol\":3470:3477  _amount */\n      dup4\n        /* \"contracts/IREC/IRECMarketplace.sol\":3479:3485  _price */\n      dup4\n        /* \"contracts/IREC/IRECMarketplace.sol\":3446:3486  TokenListed(msg.sender, _amount, _price) */\n      mload(0x40)\n      tag_191\n      swap3\n      swap2\n      swap1\n      tag_132\n      jump\t// in\n    tag_191:\n      mload(0x40)\n      dup1\n      swap2\n      sub\n      swap1\n      log2\n        /* \"contracts/IREC/IRECMarketplace.sol\":2915:3494  function listToken(uint256 _amount, uint _price) external {... */\n      pop\n      pop\n      jump\t// out\n        /* \"contracts/IREC/IRECMarketplace.sol\":4414:4533  function getOwnershipTransfers() public view returns (Ownership[] memory) {... */\n    tag_58:\n        /* \"contracts/IREC/IRECMarketplace.sol\":4468:4486  Ownership[] memory */\n      0x60\n        /* \"contracts/IREC/IRECMarketplace.sol\":4507:4517  ownerships */\n      0x05\n        /* \"contracts/IREC/IRECMarketplace.sol\":4507:4525  ownerships['IREC'] */\n      mload(0x40)\n      tag_193\n      swap1\n      tag_111\n      jump\t// in\n    tag_193:\n      swap1\n      dup2\n      mstore\n      0x20\n      add\n      mload(0x40)\n      dup1\n      swap2\n      sub\n      swap1\n      keccak256\n        /* \"contracts/IREC/IRECMarketplace.sol\":4499:4525  return  ownerships['IREC'] */\n      dup1\n      sload\n      dup1\n      0x20\n      mul\n      0x20\n      add\n      mload(0x40)\n      swap1\n      dup2\n      add\n      0x40\n      mstore\n      dup1\n      swap3\n      swap2\n      swap1\n      dup2\n      dup2\n      mstore\n      0x20\n      add\n      0x00\n      swap1\n    tag_194:\n      dup3\n      dup3\n      lt\n      iszero\n      tag_195\n      jumpi\n      dup4\n      dup3\n      swap1\n      0x00\n      mstore\n      keccak256(0x00, 0x20)\n      swap1\n      0x04\n      mul\n      add\n      mload(0x40)\n      dup1\n      0x80\n      add\n      0x40\n      mstore\n      swap1\n      dup2\n      0x00\n      dup3\n      add\n      0x00\n      swap1\n      sload\n      swap1\n      0x0100\n      exp\n      swap1\n      div\n      0xffffffffffffffffffffffffffffffffffffffff\n      and\n      0xffffffffffffffffffffffffffffffffffffffff\n      and\n      0xffffffffffffffffffffffffffffffffffffffff\n      and\n      dup2\n      mstore\n      0x20\n      add\n      0x01\n      dup3\n      add\n      0x00\n      swap1\n      sload\n      swap1\n      0x0100\n      exp\n      swap1\n      div\n      0xffffffffffffffffffffffffffffffffffffffff\n      and\n      0xffffffffffffffffffffffffffffffffffffffff\n      and\n      0xffffffffffffffffffffffffffffffffffffffff\n      and\n      dup2\n      mstore\n      0x20\n      add\n      0x02\n      dup3\n      add\n      sload\n      dup2\n      mstore\n      0x20\n      add\n      0x03\n      dup3\n      add\n      0x00\n      swap1\n      sload\n      swap1\n      0x0100\n      exp\n      swap1\n      div\n      0xffffffff\n      and\n      0xffffffff\n      and\n      0xffffffff\n      and\n      dup2\n      mstore\n      pop\n      pop\n      dup2\n      mstore\n      0x20\n      add\n      swap1\n      0x01\n      add\n      swap1\n      jump(tag_194)\n    tag_195:\n      pop\n      pop\n      pop\n      pop\n      swap1\n      pop\n        /* \"contracts/IREC/IRECMarketplace.sol\":4414:4533  function getOwnershipTransfers() public view returns (Ownership[] memory) {... */\n      swap1\n      jump\t// out\n        /* \"@openzeppelin/contracts/access/Ownable.sol\":1638:1723  function owner() public view virtual returns (address) {... */\n    tag_63:\n        /* \"@openzeppelin/contracts/access/Ownable.sol\":1684:1691  address */\n      0x00\n        /* \"@openzeppelin/contracts/access/Ownable.sol\":1710:1716  _owner */\n      dup1\n      0x00\n      swap1\n      sload\n      swap1\n      0x0100\n      exp\n      swap1\n      div\n      0xffffffffffffffffffffffffffffffffffffffff\n      and\n        /* \"@openzeppelin/contracts/access/Ownable.sol\":1703:1716  return _owner */\n      swap1\n      pop\n        /* \"@openzeppelin/contracts/access/Ownable.sol\":1638:1723  function owner() public view virtual returns (address) {... */\n      swap1\n      jump\t// out\n        /* \"contracts/IREC/IRECMarketplace.sol\":4568:4698  function getTokenListing(uint listingId) public view returns(Listing memory) {... */\n    tag_69:\n        /* \"contracts/IREC/IRECMarketplace.sol\":4629:4643  Listing memory */\n      tag_198\n      tag_199\n      jump\t// in\n    tag_198:\n        /* \"contracts/IREC/IRECMarketplace.sol\":4663:4671  listings */\n      0x06\n        /* \"contracts/IREC/IRECMarketplace.sol\":4663:4679  listings['IREC'] */\n      mload(0x40)\n      tag_201\n      swap1\n      tag_111\n      jump\t// in\n    tag_201:\n      swap1\n      dup2\n      mstore\n      0x20\n      add\n      mload(0x40)\n      dup1\n      swap2\n      sub\n      swap1\n      keccak256\n        /* \"contracts/IREC/IRECMarketplace.sol\":4663:4690  listings['IREC'][listingId] */\n      0x00\n        /* \"contracts/IREC/IRECMarketplace.sol\":4680:4689  listingId */\n      dup4\n        /* \"contracts/IREC/IRECMarketplace.sol\":4663:4690  listings['IREC'][listingId] */\n      dup2\n      mstore\n      0x20\n      add\n      swap1\n      dup2\n      mstore\n      0x20\n      add\n      0x00\n      keccak256\n        /* \"contracts/IREC/IRECMarketplace.sol\":4656:4690  return listings['IREC'][listingId] */\n      mload(0x40)\n      dup1\n      0x80\n      add\n      0x40\n      mstore\n      swap1\n      dup2\n      0x00\n      dup3\n      add\n      0x00\n      swap1\n      sload\n      swap1\n      0x0100\n      exp\n      swap1\n      div\n      0xffffffffffffffffffffffffffffffffffffffff\n      and\n      0xffffffffffffffffffffffffffffffffffffffff\n      and\n      0xffffffffffffffffffffffffffffffffffffffff\n      and\n      dup2\n      mstore\n      0x20\n      add\n      0x01\n      dup3\n      add\n      sload\n      dup2\n      mstore\n      0x20\n      add\n      0x02\n      dup3\n      add\n      sload\n      dup2\n      mstore\n      0x20\n      add\n      0x03\n      dup3\n      add\n      0x00\n      swap1\n      sload\n      swap1\n      0x0100\n      exp\n      swap1\n      div\n      0xff\n      and\n      iszero\n      iszero\n      iszero\n      iszero\n      dup2\n      mstore\n      pop\n      pop\n      swap1\n      pop\n        /* \"contracts/IREC/IRECMarketplace.sol\":4568:4698  function getTokenListing(uint listingId) public view returns(Listing memory) {... */\n      swap2\n      swap1\n      pop\n      jump\t// out\n        /* \"contracts/IREC/IRECMarketplace.sol\":1506:1701  function getOwnershipPercentage(address owner) public view returns (uint256) {... */\n    tag_76:\n        /* \"contracts/IREC/IRECMarketplace.sol\":1574:1581  uint256 */\n      0x00\n        /* \"contracts/IREC/IRECMarketplace.sol\":1644:1657  fractionToken */\n      0x01\n      0x00\n      swap1\n      sload\n      swap1\n      0x0100\n      exp\n      swap1\n      div\n      0xffffffffffffffffffffffffffffffffffffffff\n      and\n        /* \"contracts/IREC/IRECMarketplace.sol\":1644:1669  fractionToken.totalSupply */\n      0xffffffffffffffffffffffffffffffffffffffff\n      and\n      0x18160ddd\n        /* \"contracts/IREC/IRECMarketplace.sol\":1644:1671  fractionToken.totalSupply() */\n      mload(0x40)\n      dup2\n      0xffffffff\n      and\n      0xe0\n      shl\n      dup2\n      mstore\n      0x04\n      add\n      0x20\n      mload(0x40)\n      dup1\n      dup4\n      sub\n      dup2\n      dup7\n      gas\n      staticcall\n      iszero\n      dup1\n      iszero\n      tag_204\n      jumpi\n      returndatasize\n      0x00\n      dup1\n      returndatacopy\n      revert(0x00, returndatasize)\n    tag_204:\n      pop\n      pop\n      pop\n      pop\n      mload(0x40)\n      returndatasize\n      not(0x1f)\n      0x1f\n      dup3\n      add\n      and\n      dup3\n      add\n      dup1\n      0x40\n      mstore\n      pop\n      dup2\n      add\n      swap1\n      tag_205\n      swap2\n      swap1\n      tag_143\n      jump\t// in\n    tag_205:\n        /* \"contracts/IREC/IRECMarketplace.sol\":1635:1640  10000 */\n      0x2710\n        /* \"contracts/IREC/IRECMarketplace.sol\":1602:1615  fractionToken */\n      0x01\n      0x00\n      swap1\n      sload\n      swap1\n      0x0100\n      exp\n      swap1\n      div\n      0xffffffffffffffffffffffffffffffffffffffff\n      and\n        /* \"contracts/IREC/IRECMarketplace.sol\":1602:1625  fractionToken.balanceOf */\n      0xffffffffffffffffffffffffffffffffffffffff\n      and\n      0x70a08231\n        /* \"contracts/IREC/IRECMarketplace.sol\":1626:1631  owner */\n      dup6\n        /* \"contracts/IREC/IRECMarketplace.sol\":1602:1632  fractionToken.balanceOf(owner) */\n      mload(0x40)\n      dup3\n      0xffffffff\n      and\n      0xe0\n      shl\n      dup2\n      mstore\n      0x04\n      add\n      tag_206\n      swap2\n      swap1\n      tag_65\n      jump\t// in\n    tag_206:\n      0x20\n      mload(0x40)\n      dup1\n      dup4\n      sub\n      dup2\n      dup7\n      gas\n      staticcall\n      iszero\n      dup1\n      iszero\n      tag_208\n      jumpi\n      returndatasize\n      0x00\n      dup1\n      returndatacopy\n      revert(0x00, returndatasize)\n    tag_208:\n      pop\n      pop\n      pop\n      pop\n      mload(0x40)\n      returndatasize\n      not(0x1f)\n      0x1f\n      dup3\n      add\n      and\n      dup3\n      add\n      dup1\n      0x40\n      mstore\n      pop\n      dup2\n      add\n      swap1\n      tag_209\n      swap2\n      swap1\n      tag_143\n      jump\t// in\n    tag_209:\n        /* \"contracts/IREC/IRECMarketplace.sol\":1602:1640  fractionToken.balanceOf(owner) * 10000 */\n      tag_210\n      swap2\n      swap1\n      tag_116\n      jump\t// in\n    tag_210:\n        /* \"contracts/IREC/IRECMarketplace.sol\":1601:1671  (fractionToken.balanceOf(owner) * 10000) / fractionToken.totalSupply() */\n      tag_211\n      swap2\n      swap1\n      tag_159\n      jump\t// in\n    tag_211:\n        /* \"contracts/IREC/IRECMarketplace.sol\":1594:1671  return (fractionToken.balanceOf(owner) * 10000) / fractionToken.totalSupply() */\n      swap1\n      pop\n        /* \"contracts/IREC/IRECMarketplace.sol\":1506:1701  function getOwnershipPercentage(address owner) public view returns (uint256) {... */\n      swap2\n      swap1\n      pop\n      jump\t// out\n        /* \"contracts/IREC/IRECMarketplace.sol\":1018:1042  uint public listingCount */\n    tag_81:\n      sload(0x07)\n      dup2\n      jump\t// out\n        /* \"contracts/IREC/IRECMarketplace.sol\":690:739  mapping (string => Ownership[]) public ownerships */\n    tag_87:\n      0x05\n      dup3\n      dup1\n      mload\n      0x20\n      dup2\n      add\n      dup3\n      add\n      dup1\n      mload\n      dup5\n      dup3\n      mstore\n      0x20\n      dup4\n      add\n      0x20\n      dup6\n      add\n      keccak256\n      dup2\n      dup4\n      mstore\n      dup1\n      swap6\n      pop\n      pop\n      pop\n      pop\n      pop\n      pop\n      dup2\n      dup2\n      sload\n      dup2\n      lt\n      tag_212\n      jumpi\n      0x00\n      dup1\n      revert\n    tag_212:\n      swap1\n      0x00\n      mstore\n      keccak256(0x00, 0x20)\n      swap1\n      0x04\n      mul\n      add\n      0x00\n      swap2\n      pop\n      swap2\n      pop\n      pop\n      dup1\n      0x00\n      add\n      0x00\n      swap1\n      sload\n      swap1\n      0x0100\n      exp\n      swap1\n      div\n      0xffffffffffffffffffffffffffffffffffffffff\n      and\n      swap1\n      dup1\n      0x01\n      add\n      0x00\n      swap1\n      sload\n      swap1\n      0x0100\n      exp\n      swap1\n      div\n      0xffffffffffffffffffffffffffffffffffffffff\n      and\n      swap1\n      dup1\n      0x02\n      add\n      sload\n      swap1\n      dup1\n      0x03\n      add\n      0x00\n      swap1\n      sload\n      swap1\n      0x0100\n      exp\n      swap1\n      div\n      0xffffffff\n      and\n      swap1\n      pop\n      dup5\n      jump\t// out\n        /* \"contracts/IREC/IRECMarketplace.sol\":916:975  mapping(string => mapping(uint => Listing)) public listings */\n    tag_93:\n      0x06\n      dup3\n      dup1\n      mload\n      0x20\n      dup2\n      add\n      dup3\n      add\n      dup1\n      mload\n      dup5\n      dup3\n      mstore\n      0x20\n      dup4\n      add\n      0x20\n      dup6\n      add\n      keccak256\n      dup2\n      dup4\n      mstore\n      dup1\n      swap6\n      pop\n      pop\n      pop\n      pop\n      pop\n      pop\n      0x20\n      mstore\n      dup1\n      0x00\n      mstore\n      keccak256(0x00, 0x40)\n      0x00\n      swap2\n      pop\n      swap2\n      pop\n      pop\n      dup1\n      0x00\n      add\n      0x00\n      swap1\n      sload\n      swap1\n      0x0100\n      exp\n      swap1\n      div\n      0xffffffffffffffffffffffffffffffffffffffff\n      and\n      swap1\n      dup1\n      0x01\n      add\n      sload\n      swap1\n      dup1\n      0x02\n      add\n      sload\n      swap1\n      dup1\n      0x03\n      add\n      0x00\n      swap1\n      sload\n      swap1\n      0x0100\n      exp\n      swap1\n      div\n      0xff\n      and\n      swap1\n      pop\n      dup5\n      jump\t// out\n        /* \"contracts/IREC/IRECMarketplace.sol\":343:369  IERC721 public nftContract */\n    tag_98:\n      0x02\n      0x00\n      swap1\n      sload\n      swap1\n      0x0100\n      exp\n      swap1\n      div\n      0xffffffffffffffffffffffffffffffffffffffff\n      and\n      dup2\n      jump\t// out\n        /* \"@openzeppelin/contracts/access/Ownable.sol\":2543:2758  function transferOwnership(address newOwner) public virtual onlyOwner {... */\n    tag_104:\n        /* \"@openzeppelin/contracts/access/Ownable.sol\":1531:1544  _checkOwner() */\n      tag_215\n        /* \"@openzeppelin/contracts/access/Ownable.sol\":1531:1542  _checkOwner */\n      tag_135\n        /* \"@openzeppelin/contracts/access/Ownable.sol\":1531:1544  _checkOwner() */\n      jump\t// in\n    tag_215:\n        /* \"@openzeppelin/contracts/access/Ownable.sol\":2647:2648  0 */\n      0x00\n        /* \"@openzeppelin/contracts/access/Ownable.sol\":2627:2649  newOwner == address(0) */\n      0xffffffffffffffffffffffffffffffffffffffff\n      and\n        /* \"@openzeppelin/contracts/access/Ownable.sol\":2627:2635  newOwner */\n      dup2\n        /* \"@openzeppelin/contracts/access/Ownable.sol\":2627:2649  newOwner == address(0) */\n      0xffffffffffffffffffffffffffffffffffffffff\n      and\n      sub\n        /* \"@openzeppelin/contracts/access/Ownable.sol\":2623:2714  if (newOwner == address(0)) {... */\n      tag_217\n      jumpi\n        /* \"@openzeppelin/contracts/access/Ownable.sol\":2700:2701  0 */\n      0x00\n        /* \"@openzeppelin/contracts/access/Ownable.sol\":2672:2703  OwnableInvalidOwner(address(0)) */\n      mload(0x40)\n      0x1e4fbdf700000000000000000000000000000000000000000000000000000000\n      dup2\n      mstore\n      0x04\n      add\n      tag_218\n      swap2\n      swap1\n      tag_65\n      jump\t// in\n    tag_218:\n      mload(0x40)\n      dup1\n      swap2\n      sub\n      swap1\n      revert\n        /* \"@openzeppelin/contracts/access/Ownable.sol\":2623:2714  if (newOwner == address(0)) {... */\n    tag_217:\n        /* \"@openzeppelin/contracts/access/Ownable.sol\":2723:2751  _transferOwnership(newOwner) */\n      tag_219\n        /* \"@openzeppelin/contracts/access/Ownable.sol\":2742:2750  newOwner */\n      dup2\n        /* \"@openzeppelin/contracts/access/Ownable.sol\":2723:2741  _transferOwnership */\n      tag_175\n        /* \"@openzeppelin/contracts/access/Ownable.sol\":2723:2751  _transferOwnership(newOwner) */\n      jump\t// in\n    tag_219:\n        /* \"@openzeppelin/contracts/access/Ownable.sol\":2543:2758  function transferOwnership(address newOwner) public virtual onlyOwner {... */\n      pop\n      jump\t// out\n        /* \"contracts/IREC/IRECMarketplace.sol\":409:433  uint256 public salePrice */\n    tag_107:\n      sload(0x03)\n      dup2\n      jump\t// out\n        /* \"@openzeppelin/contracts/access/Ownable.sol\":1796:1958  function _checkOwner() internal view virtual {... */\n    tag_135:\n        /* \"@openzeppelin/contracts/access/Ownable.sol\":1866:1878  _msgSender() */\n      tag_221\n        /* \"@openzeppelin/contracts/access/Ownable.sol\":1866:1876  _msgSender */\n      tag_222\n        /* \"@openzeppelin/contracts/access/Ownable.sol\":1866:1878  _msgSender() */\n      jump\t// in\n    tag_221:\n        /* \"@openzeppelin/contracts/access/Ownable.sol\":1855:1878  owner() != _msgSender() */\n      0xffffffffffffffffffffffffffffffffffffffff\n      and\n        /* \"@openzeppelin/contracts/access/Ownable.sol\":1855:1862  owner() */\n      tag_223\n        /* \"@openzeppelin/contracts/access/Ownable.sol\":1855:1860  owner */\n      tag_63\n        /* \"@openzeppelin/contracts/access/Ownable.sol\":1855:1862  owner() */\n      jump\t// in\n    tag_223:\n        /* \"@openzeppelin/contracts/access/Ownable.sol\":1855:1878  owner() != _msgSender() */\n      0xffffffffffffffffffffffffffffffffffffffff\n      and\n      eq\n        /* \"@openzeppelin/contracts/access/Ownable.sol\":1851:1952  if (owner() != _msgSender()) {... */\n      tag_224\n      jumpi\n        /* \"@openzeppelin/contracts/access/Ownable.sol\":1928:1940  _msgSender() */\n      tag_225\n        /* \"@openzeppelin/contracts/access/Ownable.sol\":1928:1938  _msgSender */\n      tag_222\n        /* \"@openzeppelin/contracts/access/Ownable.sol\":1928:1940  _msgSender() */\n      jump\t// in\n    tag_225:\n        /* \"@openzeppelin/contracts/access/Ownable.sol\":1901:1941  OwnableUnauthorizedAccount(_msgSender()) */\n      mload(0x40)\n      0x118cdaa700000000000000000000000000000000000000000000000000000000\n      dup2\n      mstore\n      0x04\n      add\n      tag_226\n      swap2\n      swap1\n      tag_65\n      jump\t// in\n    tag_226:\n      mload(0x40)\n      dup1\n      swap2\n      sub\n      swap1\n      revert\n        /* \"@openzeppelin/contracts/access/Ownable.sol\":1851:1952  if (owner() != _msgSender()) {... */\n    tag_224:\n        /* \"@openzeppelin/contracts/access/Ownable.sol\":1796:1958  function _checkOwner() internal view virtual {... */\n      jump\t// out\n        /* \"@openzeppelin/contracts/access/Ownable.sol\":2912:3099  function _transferOwnership(address newOwner) internal virtual {... */\n    tag_175:\n        /* \"@openzeppelin/contracts/access/Ownable.sol\":2985:3001  address oldOwner */\n      0x00\n        /* \"@openzeppelin/contracts/access/Ownable.sol\":3004:3010  _owner */\n      dup1\n      0x00\n      swap1\n      sload\n      swap1\n      0x0100\n      exp\n      swap1\n      div\n      0xffffffffffffffffffffffffffffffffffffffff\n      and\n        /* \"@openzeppelin/contracts/access/Ownable.sol\":2985:3010  address oldOwner = _owner */\n      swap1\n      pop\n        /* \"@openzeppelin/contracts/access/Ownable.sol\":3029:3037  newOwner */\n      dup2\n        /* \"@openzeppelin/contracts/access/Ownable.sol\":3020:3026  _owner */\n      0x00\n      dup1\n        /* \"@openzeppelin/contracts/access/Ownable.sol\":3020:3037  _owner = newOwner */\n      0x0100\n      exp\n      dup2\n      sload\n      dup2\n      0xffffffffffffffffffffffffffffffffffffffff\n      mul\n      not\n      and\n      swap1\n      dup4\n      0xffffffffffffffffffffffffffffffffffffffff\n      and\n      mul\n      or\n      swap1\n      sstore\n      pop\n        /* \"@openzeppelin/contracts/access/Ownable.sol\":3083:3091  newOwner */\n      dup2\n        /* \"@openzeppelin/contracts/access/Ownable.sol\":3052:3092  OwnershipTransferred(oldOwner, newOwner) */\n      0xffffffffffffffffffffffffffffffffffffffff\n      and\n        /* \"@openzeppelin/contracts/access/Ownable.sol\":3073:3081  oldOwner */\n      dup2\n        /* \"@openzeppelin/contracts/access/Ownable.sol\":3052:3092  OwnershipTransferred(oldOwner, newOwner) */\n      0xffffffffffffffffffffffffffffffffffffffff\n      and\n      0x8be0079c531659141344cd1fd0a4f28419497f9722a3daafe3b4186f6b6457e0\n      mload(0x40)\n      mload(0x40)\n      dup1\n      swap2\n      sub\n      swap1\n      log3\n        /* \"@openzeppelin/contracts/access/Ownable.sol\":2975:3099  {... */\n      pop\n        /* \"@openzeppelin/contracts/access/Ownable.sol\":2912:3099  function _transferOwnership(address newOwner) internal virtual {... */\n      pop\n      jump\t// out\n        /* \"@openzeppelin/contracts/utils/Context.sol\":656:752  function _msgSender() internal view virtual returns (address) {... */\n    tag_222:\n        /* \"@openzeppelin/contracts/utils/Context.sol\":709:716  address */\n      0x00\n        /* \"@openzeppelin/contracts/utils/Context.sol\":735:745  msg.sender */\n      caller\n        /* \"@openzeppelin/contracts/utils/Context.sol\":728:745  return msg.sender */\n      swap1\n      pop\n        /* \"@openzeppelin/contracts/utils/Context.sol\":656:752  function _msgSender() internal view virtual returns (address) {... */\n      swap1\n      jump\t// out\n    tag_199:\n      mload(0x40)\n      dup1\n      0x80\n      add\n      0x40\n      mstore\n      dup1\n      and(0xffffffffffffffffffffffffffffffffffffffff, 0x00)\n      dup2\n      mstore\n      0x20\n      add\n      0x00\n      dup2\n      mstore\n      0x20\n      add\n      0x00\n      dup2\n      mstore\n      0x20\n      add\n      iszero(iszero(0x00))\n      dup2\n      mstore\n      pop\n      swap1\n      jump\t// out\n        /* \"#utility.yul\":7:82   */\n    tag_229:\n        /* \"#utility.yul\":40:46   */\n      0x00\n        /* \"#utility.yul\":73:75   */\n      0x40\n        /* \"#utility.yul\":67:76   */\n      mload\n        /* \"#utility.yul\":57:76   */\n      swap1\n      pop\n        /* \"#utility.yul\":7:82   */\n      swap1\n      jump\t// out\n        /* \"#utility.yul\":88:205   */\n    tag_230:\n        /* \"#utility.yul\":197:198   */\n      0x00\n        /* \"#utility.yul\":194:195   */\n      dup1\n        /* \"#utility.yul\":187:199   */\n      revert\n        /* \"#utility.yul\":211:328   */\n    tag_231:\n        /* \"#utility.yul\":320:321   */\n      0x00\n        /* \"#utility.yul\":317:318   */\n      dup1\n        /* \"#utility.yul\":310:322   */\n      revert\n        /* \"#utility.yul\":334:411   */\n    tag_232:\n        /* \"#utility.yul\":371:378   */\n      0x00\n        /* \"#utility.yul\":400:405   */\n      dup2\n        /* \"#utility.yul\":389:405   */\n      swap1\n      pop\n        /* \"#utility.yul\":334:411   */\n      swap2\n      swap1\n      pop\n      jump\t// out\n        /* \"#utility.yul\":417:539   */\n    tag_233:\n        /* \"#utility.yul\":490:514   */\n      tag_306\n        /* \"#utility.yul\":508:513   */\n      dup2\n        /* \"#utility.yul\":490:514   */\n      tag_232\n      jump\t// in\n    tag_306:\n        /* \"#utility.yul\":483:488   */\n      dup2\n        /* \"#utility.yul\":480:515   */\n      eq\n        /* \"#utility.yul\":470:533   */\n      tag_307\n      jumpi\n        /* \"#utility.yul\":529:530   */\n      0x00\n        /* \"#utility.yul\":526:527   */\n      dup1\n        /* \"#utility.yul\":519:531   */\n      revert\n        /* \"#utility.yul\":470:533   */\n    tag_307:\n        /* \"#utility.yul\":417:539   */\n      pop\n      jump\t// out\n        /* \"#utility.yul\":545:684   */\n    tag_234:\n        /* \"#utility.yul\":591:596   */\n      0x00\n        /* \"#utility.yul\":629:635   */\n      dup2\n        /* \"#utility.yul\":616:636   */\n      calldataload\n        /* \"#utility.yul\":607:636   */\n      swap1\n      pop\n        /* \"#utility.yul\":645:678   */\n      tag_309\n        /* \"#utility.yul\":672:677   */\n      dup2\n        /* \"#utility.yul\":645:678   */\n      tag_233\n      jump\t// in\n    tag_309:\n        /* \"#utility.yul\":545:684   */\n      swap3\n      swap2\n      pop\n      pop\n      jump\t// out\n        /* \"#utility.yul\":690:1019   */\n    tag_25:\n        /* \"#utility.yul\":749:755   */\n      0x00\n        /* \"#utility.yul\":798:800   */\n      0x20\n        /* \"#utility.yul\":786:795   */\n      dup3\n        /* \"#utility.yul\":777:784   */\n      dup5\n        /* \"#utility.yul\":773:796   */\n      sub\n        /* \"#utility.yul\":769:801   */\n      slt\n        /* \"#utility.yul\":766:885   */\n      iszero\n      tag_311\n      jumpi\n        /* \"#utility.yul\":804:883   */\n      tag_312\n      tag_230\n      jump\t// in\n    tag_312:\n        /* \"#utility.yul\":766:885   */\n    tag_311:\n        /* \"#utility.yul\":924:925   */\n      0x00\n        /* \"#utility.yul\":949:1002   */\n      tag_313\n        /* \"#utility.yul\":994:1001   */\n      dup5\n        /* \"#utility.yul\":985:991   */\n      dup3\n        /* \"#utility.yul\":974:983   */\n      dup6\n        /* \"#utility.yul\":970:992   */\n      add\n        /* \"#utility.yul\":949:1002   */\n      tag_234\n      jump\t// in\n    tag_313:\n        /* \"#utility.yul\":939:1002   */\n      swap2\n      pop\n        /* \"#utility.yul\":895:1012   */\n      pop\n        /* \"#utility.yul\":690:1019   */\n      swap3\n      swap2\n      pop\n      pop\n      jump\t// out\n        /* \"#utility.yul\":1025:1151   */\n    tag_235:\n        /* \"#utility.yul\":1062:1069   */\n      0x00\n        /* \"#utility.yul\":1102:1144   */\n      0xffffffffffffffffffffffffffffffffffffffff\n        /* \"#utility.yul\":1095:1100   */\n      dup3\n        /* \"#utility.yul\":1091:1145   */\n      and\n        /* \"#utility.yul\":1080:1145   */\n      swap1\n      pop\n        /* \"#utility.yul\":1025:1151   */\n      swap2\n      swap1\n      pop\n      jump\t// out\n        /* \"#utility.yul\":1157:1217   */\n    tag_236:\n        /* \"#utility.yul\":1185:1188   */\n      0x00\n        /* \"#utility.yul\":1206:1211   */\n      dup2\n        /* \"#utility.yul\":1199:1211   */\n      swap1\n      pop\n        /* \"#utility.yul\":1157:1217   */\n      swap2\n      swap1\n      pop\n      jump\t// out\n        /* \"#utility.yul\":1223:1365   */\n    tag_237:\n        /* \"#utility.yul\":1273:1282   */\n      0x00\n        /* \"#utility.yul\":1306:1359   */\n      tag_317\n        /* \"#utility.yul\":1324:1358   */\n      tag_318\n        /* \"#utility.yul\":1333:1357   */\n      tag_319\n        /* \"#utility.yul\":1351:1356   */\n      dup5\n        /* \"#utility.yul\":1333:1357   */\n      tag_235\n      jump\t// in\n    tag_319:\n        /* \"#utility.yul\":1324:1358   */\n      tag_236\n      jump\t// in\n    tag_318:\n        /* \"#utility.yul\":1306:1359   */\n      tag_235\n      jump\t// in\n    tag_317:\n        /* \"#utility.yul\":1293:1359   */\n      swap1\n      pop\n        /* \"#utility.yul\":1223:1365   */\n      swap2\n      swap1\n      pop\n      jump\t// out\n        /* \"#utility.yul\":1371:1497   */\n    tag_238:\n        /* \"#utility.yul\":1421:1430   */\n      0x00\n        /* \"#utility.yul\":1454:1491   */\n      tag_321\n        /* \"#utility.yul\":1485:1490   */\n      dup3\n        /* \"#utility.yul\":1454:1491   */\n      tag_237\n      jump\t// in\n    tag_321:\n        /* \"#utility.yul\":1441:1491   */\n      swap1\n      pop\n        /* \"#utility.yul\":1371:1497   */\n      swap2\n      swap1\n      pop\n      jump\t// out\n        /* \"#utility.yul\":1503:1643   */\n    tag_239:\n        /* \"#utility.yul\":1567:1576   */\n      0x00\n        /* \"#utility.yul\":1600:1637   */\n      tag_323\n        /* \"#utility.yul\":1631:1636   */\n      dup3\n        /* \"#utility.yul\":1600:1637   */\n      tag_238\n      jump\t// in\n    tag_323:\n        /* \"#utility.yul\":1587:1637   */\n      swap1\n      pop\n        /* \"#utility.yul\":1503:1643   */\n      swap2\n      swap1\n      pop\n      jump\t// out\n        /* \"#utility.yul\":1649:1808   */\n    tag_240:\n        /* \"#utility.yul\":1750:1801   */\n      tag_325\n        /* \"#utility.yul\":1795:1800   */\n      dup2\n        /* \"#utility.yul\":1750:1801   */\n      tag_239\n      jump\t// in\n    tag_325:\n        /* \"#utility.yul\":1745:1748   */\n      dup3\n        /* \"#utility.yul\":1738:1802   */\n      mstore\n        /* \"#utility.yul\":1649:1808   */\n      pop\n      pop\n      jump\t// out\n        /* \"#utility.yul\":1814:2064   */\n    tag_31:\n        /* \"#utility.yul\":1921:1925   */\n      0x00\n        /* \"#utility.yul\":1959:1961   */\n      0x20\n        /* \"#utility.yul\":1948:1957   */\n      dup3\n        /* \"#utility.yul\":1944:1962   */\n      add\n        /* \"#utility.yul\":1936:1962   */\n      swap1\n      pop\n        /* \"#utility.yul\":1972:2057   */\n      tag_327\n        /* \"#utility.yul\":2054:2055   */\n      0x00\n        /* \"#utility.yul\":2043:2052   */\n      dup4\n        /* \"#utility.yul\":2039:2056   */\n      add\n        /* \"#utility.yul\":2030:2036   */\n      dup5\n        /* \"#utility.yul\":1972:2057   */\n      tag_240\n      jump\t// in\n    tag_327:\n        /* \"#utility.yul\":1814:2064   */\n      swap3\n      swap2\n      pop\n      pop\n      jump\t// out\n        /* \"#utility.yul\":2070:2159   */\n    tag_241:\n        /* \"#utility.yul\":2106:2113   */\n      0x00\n        /* \"#utility.yul\":2146:2152   */\n      0xffff\n        /* \"#utility.yul\":2139:2144   */\n      dup3\n        /* \"#utility.yul\":2135:2153   */\n      and\n        /* \"#utility.yul\":2124:2153   */\n      swap1\n      pop\n        /* \"#utility.yul\":2070:2159   */\n      swap2\n      swap1\n      pop\n      jump\t// out\n        /* \"#utility.yul\":2165:2285   */\n    tag_242:\n        /* \"#utility.yul\":2237:2260   */\n      tag_330\n        /* \"#utility.yul\":2254:2259   */\n      dup2\n        /* \"#utility.yul\":2237:2260   */\n      tag_241\n      jump\t// in\n    tag_330:\n        /* \"#utility.yul\":2230:2235   */\n      dup2\n        /* \"#utility.yul\":2227:2261   */\n      eq\n        /* \"#utility.yul\":2217:2279   */\n      tag_331\n      jumpi\n        /* \"#utility.yul\":2275:2276   */\n      0x00\n        /* \"#utility.yul\":2272:2273   */\n      dup1\n        /* \"#utility.yul\":2265:2277   */\n      revert\n        /* \"#utility.yul\":2217:2279   */\n    tag_331:\n        /* \"#utility.yul\":2165:2285   */\n      pop\n      jump\t// out\n        /* \"#utility.yul\":2291:2428   */\n    tag_243:\n        /* \"#utility.yul\":2336:2341   */\n      0x00\n        /* \"#utility.yul\":2374:2380   */\n      dup2\n        /* \"#utility.yul\":2361:2381   */\n      calldataload\n        /* \"#utility.yul\":2352:2381   */\n      swap1\n      pop\n        /* \"#utility.yul\":2390:2422   */\n      tag_333\n        /* \"#utility.yul\":2416:2421   */\n      dup2\n        /* \"#utility.yul\":2390:2422   */\n      tag_242\n      jump\t// in\n    tag_333:\n        /* \"#utility.yul\":2291:2428   */\n      swap3\n      swap2\n      pop\n      pop\n      jump\t// out\n        /* \"#utility.yul\":2434:2761   */\n    tag_41:\n        /* \"#utility.yul\":2492:2498   */\n      0x00\n        /* \"#utility.yul\":2541:2543   */\n      0x20\n        /* \"#utility.yul\":2529:2538   */\n      dup3\n        /* \"#utility.yul\":2520:2527   */\n      dup5\n        /* \"#utility.yul\":2516:2539   */\n      sub\n        /* \"#utility.yul\":2512:2544   */\n      slt\n        /* \"#utility.yul\":2509:2628   */\n      iszero\n      tag_335\n      jumpi\n        /* \"#utility.yul\":2547:2626   */\n      tag_336\n      tag_230\n      jump\t// in\n    tag_336:\n        /* \"#utility.yul\":2509:2628   */\n    tag_335:\n        /* \"#utility.yul\":2667:2668   */\n      0x00\n        /* \"#utility.yul\":2692:2744   */\n      tag_337\n        /* \"#utility.yul\":2736:2743   */\n      dup5\n        /* \"#utility.yul\":2727:2733   */\n      dup3\n        /* \"#utility.yul\":2716:2725   */\n      dup6\n        /* \"#utility.yul\":2712:2734   */\n      add\n        /* \"#utility.yul\":2692:2744   */\n      tag_243\n      jump\t// in\n    tag_337:\n        /* \"#utility.yul\":2682:2744   */\n      swap2\n      pop\n        /* \"#utility.yul\":2638:2754   */\n      pop\n        /* \"#utility.yul\":2434:2761   */\n      swap3\n      swap2\n      pop\n      pop\n      jump\t// out\n        /* \"#utility.yul\":2767:2857   */\n    tag_244:\n        /* \"#utility.yul\":2801:2808   */\n      0x00\n        /* \"#utility.yul\":2844:2849   */\n      dup2\n        /* \"#utility.yul\":2837:2850   */\n      iszero\n        /* \"#utility.yul\":2830:2851   */\n      iszero\n        /* \"#utility.yul\":2819:2851   */\n      swap1\n      pop\n        /* \"#utility.yul\":2767:2857   */\n      swap2\n      swap1\n      pop\n      jump\t// out\n        /* \"#utility.yul\":2863:2972   */\n    tag_245:\n        /* \"#utility.yul\":2944:2965   */\n      tag_340\n        /* \"#utility.yul\":2959:2964   */\n      dup2\n        /* \"#utility.yul\":2944:2965   */\n      tag_244\n      jump\t// in\n    tag_340:\n        /* \"#utility.yul\":2939:2942   */\n      dup3\n        /* \"#utility.yul\":2932:2966   */\n      mstore\n        /* \"#utility.yul\":2863:2972   */\n      pop\n      pop\n      jump\t// out\n        /* \"#utility.yul\":2978:3188   */\n    tag_47:\n        /* \"#utility.yul\":3065:3069   */\n      0x00\n        /* \"#utility.yul\":3103:3105   */\n      0x20\n        /* \"#utility.yul\":3092:3101   */\n      dup3\n        /* \"#utility.yul\":3088:3106   */\n      add\n        /* \"#utility.yul\":3080:3106   */\n      swap1\n      pop\n        /* \"#utility.yul\":3116:3181   */\n      tag_342\n        /* \"#utility.yul\":3178:3179   */\n      0x00\n        /* \"#utility.yul\":3167:3176   */\n      dup4\n        /* \"#utility.yul\":3163:3180   */\n      add\n        /* \"#utility.yul\":3154:3160   */\n      dup5\n        /* \"#utility.yul\":3116:3181   */\n      tag_245\n      jump\t// in\n    tag_342:\n        /* \"#utility.yul\":2978:3188   */\n      swap3\n      swap2\n      pop\n      pop\n      jump\t// out\n        /* \"#utility.yul\":3194:3668   */\n    tag_54:\n        /* \"#utility.yul\":3262:3268   */\n      0x00\n        /* \"#utility.yul\":3270:3276   */\n      dup1\n        /* \"#utility.yul\":3319:3321   */\n      0x40\n        /* \"#utility.yul\":3307:3316   */\n      dup4\n        /* \"#utility.yul\":3298:3305   */\n      dup6\n        /* \"#utility.yul\":3294:3317   */\n      sub\n        /* \"#utility.yul\":3290:3322   */\n      slt\n        /* \"#utility.yul\":3287:3406   */\n      iszero\n      tag_344\n      jumpi\n        /* \"#utility.yul\":3325:3404   */\n      tag_345\n      tag_230\n      jump\t// in\n    tag_345:\n        /* \"#utility.yul\":3287:3406   */\n    tag_344:\n        /* \"#utility.yul\":3445:3446   */\n      0x00\n        /* \"#utility.yul\":3470:3523   */\n      tag_346\n        /* \"#utility.yul\":3515:3522   */\n      dup6\n        /* \"#utility.yul\":3506:3512   */\n      dup3\n        /* \"#utility.yul\":3495:3504   */\n      dup7\n        /* \"#utility.yul\":3491:3513   */\n      add\n        /* \"#utility.yul\":3470:3523   */\n      tag_234\n      jump\t// in\n    tag_346:\n        /* \"#utility.yul\":3460:3523   */\n      swap3\n      pop\n        /* \"#utility.yul\":3416:3533   */\n      pop\n        /* \"#utility.yul\":3572:3574   */\n      0x20\n        /* \"#utility.yul\":3598:3651   */\n      tag_347\n        /* \"#utility.yul\":3643:3650   */\n      dup6\n        /* \"#utility.yul\":3634:3640   */\n      dup3\n        /* \"#utility.yul\":3623:3632   */\n      dup7\n        /* \"#utility.yul\":3619:3641   */\n      add\n        /* \"#utility.yul\":3598:3651   */\n      tag_234\n      jump\t// in\n    tag_347:\n        /* \"#utility.yul\":3588:3651   */\n      swap2\n      pop\n        /* \"#utility.yul\":3543:3661   */\n      pop\n        /* \"#utility.yul\":3194:3668   */\n      swap3\n      pop\n      swap3\n      swap1\n      pop\n      jump\t// out\n        /* \"#utility.yul\":3674:3814   */\n    tag_246:\n        /* \"#utility.yul\":3767:3773   */\n      0x00\n        /* \"#utility.yul\":3801:3806   */\n      dup2\n        /* \"#utility.yul\":3795:3807   */\n      mload\n        /* \"#utility.yul\":3785:3807   */\n      swap1\n      pop\n        /* \"#utility.yul\":3674:3814   */\n      swap2\n      swap1\n      pop\n      jump\t// out\n        /* \"#utility.yul\":3820:4030   */\n    tag_247:\n        /* \"#utility.yul\":3945:3956   */\n      0x00\n        /* \"#utility.yul\":3979:3985   */\n      dup3\n        /* \"#utility.yul\":3974:3977   */\n      dup3\n        /* \"#utility.yul\":3967:3986   */\n      mstore\n        /* \"#utility.yul\":4019:4023   */\n      0x20\n        /* \"#utility.yul\":4014:4017   */\n      dup3\n        /* \"#utility.yul\":4010:4024   */\n      add\n        /* \"#utility.yul\":3995:4024   */\n      swap1\n      pop\n        /* \"#utility.yul\":3820:4030   */\n      swap3\n      swap2\n      pop\n      pop\n      jump\t// out\n        /* \"#utility.yul\":4036:4194   */\n    tag_248:\n        /* \"#utility.yul\":4129:4133   */\n      0x00\n        /* \"#utility.yul\":4152:4155   */\n      dup2\n        /* \"#utility.yul\":4144:4155   */\n      swap1\n      pop\n        /* \"#utility.yul\":4182:4186   */\n      0x20\n        /* \"#utility.yul\":4177:4180   */\n      dup3\n        /* \"#utility.yul\":4173:4187   */\n      add\n        /* \"#utility.yul\":4165:4187   */\n      swap1\n      pop\n        /* \"#utility.yul\":4036:4194   */\n      swap2\n      swap1\n      pop\n      jump\t// out\n        /* \"#utility.yul\":4200:4296   */\n    tag_249:\n        /* \"#utility.yul\":4237:4244   */\n      0x00\n        /* \"#utility.yul\":4266:4290   */\n      tag_352\n        /* \"#utility.yul\":4284:4289   */\n      dup3\n        /* \"#utility.yul\":4266:4290   */\n      tag_235\n      jump\t// in\n    tag_352:\n        /* \"#utility.yul\":4255:4290   */\n      swap1\n      pop\n        /* \"#utility.yul\":4200:4296   */\n      swap2\n      swap1\n      pop\n      jump\t// out\n        /* \"#utility.yul\":4302:4410   */\n    tag_250:\n        /* \"#utility.yul\":4379:4403   */\n      tag_354\n        /* \"#utility.yul\":4397:4402   */\n      dup2\n        /* \"#utility.yul\":4379:4403   */\n      tag_249\n      jump\t// in\n    tag_354:\n        /* \"#utility.yul\":4374:4377   */\n      dup3\n        /* \"#utility.yul\":4367:4404   */\n      mstore\n        /* \"#utility.yul\":4302:4410   */\n      pop\n      pop\n      jump\t// out\n        /* \"#utility.yul\":4416:4524   */\n    tag_251:\n        /* \"#utility.yul\":4493:4517   */\n      tag_356\n        /* \"#utility.yul\":4511:4516   */\n      dup2\n        /* \"#utility.yul\":4493:4517   */\n      tag_232\n      jump\t// in\n    tag_356:\n        /* \"#utility.yul\":4488:4491   */\n      dup3\n        /* \"#utility.yul\":4481:4518   */\n      mstore\n        /* \"#utility.yul\":4416:4524   */\n      pop\n      pop\n      jump\t// out\n        /* \"#utility.yul\":4530:4623   */\n    tag_252:\n        /* \"#utility.yul\":4566:4573   */\n      0x00\n        /* \"#utility.yul\":4606:4616   */\n      0xffffffff\n        /* \"#utility.yul\":4599:4604   */\n      dup3\n        /* \"#utility.yul\":4595:4617   */\n      and\n        /* \"#utility.yul\":4584:4617   */\n      swap1\n      pop\n        /* \"#utility.yul\":4530:4623   */\n      swap2\n      swap1\n      pop\n      jump\t// out\n        /* \"#utility.yul\":4629:4734   */\n    tag_253:\n        /* \"#utility.yul\":4704:4727   */\n      tag_359\n        /* \"#utility.yul\":4721:4726   */\n      dup2\n        /* \"#utility.yul\":4704:4727   */\n      tag_252\n      jump\t// in\n    tag_359:\n        /* \"#utility.yul\":4699:4702   */\n      dup3\n        /* \"#utility.yul\":4692:4728   */\n      mstore\n        /* \"#utility.yul\":4629:4734   */\n      pop\n      pop\n      jump\t// out\n        /* \"#utility.yul\":4816:5667   */\n    tag_254:\n        /* \"#utility.yul\":4955:4959   */\n      0x80\n        /* \"#utility.yul\":4950:4953   */\n      dup3\n        /* \"#utility.yul\":4946:4960   */\n      add\n        /* \"#utility.yul\":5042:5046   */\n      0x00\n        /* \"#utility.yul\":5035:5040   */\n      dup3\n        /* \"#utility.yul\":5031:5047   */\n      add\n        /* \"#utility.yul\":5025:5048   */\n      mload\n        /* \"#utility.yul\":5061:5124   */\n      tag_361\n        /* \"#utility.yul\":5118:5122   */\n      0x00\n        /* \"#utility.yul\":5113:5116   */\n      dup6\n        /* \"#utility.yul\":5109:5123   */\n      add\n        /* \"#utility.yul\":5095:5107   */\n      dup3\n        /* \"#utility.yul\":5061:5124   */\n      tag_250\n      jump\t// in\n    tag_361:\n        /* \"#utility.yul\":4970:5134   */\n      pop\n        /* \"#utility.yul\":5214:5218   */\n      0x20\n        /* \"#utility.yul\":5207:5212   */\n      dup3\n        /* \"#utility.yul\":5203:5219   */\n      add\n        /* \"#utility.yul\":5197:5220   */\n      mload\n        /* \"#utility.yul\":5233:5296   */\n      tag_362\n        /* \"#utility.yul\":5290:5294   */\n      0x20\n        /* \"#utility.yul\":5285:5288   */\n      dup6\n        /* \"#utility.yul\":5281:5295   */\n      add\n        /* \"#utility.yul\":5267:5279   */\n      dup3\n        /* \"#utility.yul\":5233:5296   */\n      tag_250\n      jump\t// in\n    tag_362:\n        /* \"#utility.yul\":5144:5306   */\n      pop\n        /* \"#utility.yul\":5390:5394   */\n      0x40\n        /* \"#utility.yul\":5383:5388   */\n      dup3\n        /* \"#utility.yul\":5379:5395   */\n      add\n        /* \"#utility.yul\":5373:5396   */\n      mload\n        /* \"#utility.yul\":5409:5472   */\n      tag_363\n        /* \"#utility.yul\":5466:5470   */\n      0x40\n        /* \"#utility.yul\":5461:5464   */\n      dup6\n        /* \"#utility.yul\":5457:5471   */\n      add\n        /* \"#utility.yul\":5443:5455   */\n      dup3\n        /* \"#utility.yul\":5409:5472   */\n      tag_251\n      jump\t// in\n    tag_363:\n        /* \"#utility.yul\":5316:5482   */\n      pop\n        /* \"#utility.yul\":5570:5574   */\n      0x60\n        /* \"#utility.yul\":5563:5568   */\n      dup3\n        /* \"#utility.yul\":5559:5575   */\n      add\n        /* \"#utility.yul\":5553:5576   */\n      mload\n        /* \"#utility.yul\":5589:5650   */\n      tag_364\n        /* \"#utility.yul\":5644:5648   */\n      0x60\n        /* \"#utility.yul\":5639:5642   */\n      dup6\n        /* \"#utility.yul\":5635:5649   */\n      add\n        /* \"#utility.yul\":5621:5633   */\n      dup3\n        /* \"#utility.yul\":5589:5650   */\n      tag_253\n      jump\t// in\n    tag_364:\n        /* \"#utility.yul\":5492:5660   */\n      pop\n        /* \"#utility.yul\":4924:5667   */\n      pop\n        /* \"#utility.yul\":4816:5667   */\n      pop\n      pop\n      jump\t// out\n        /* \"#utility.yul\":5673:5956   */\n    tag_255:\n        /* \"#utility.yul\":5794:5804   */\n      0x00\n        /* \"#utility.yul\":5815:5913   */\n      tag_366\n        /* \"#utility.yul\":5909:5912   */\n      dup4\n        /* \"#utility.yul\":5901:5907   */\n      dup4\n        /* \"#utility.yul\":5815:5913   */\n      tag_254\n      jump\t// in\n    tag_366:\n        /* \"#utility.yul\":5945:5949   */\n      0x80\n        /* \"#utility.yul\":5940:5943   */\n      dup4\n        /* \"#utility.yul\":5936:5950   */\n      add\n        /* \"#utility.yul\":5922:5950   */\n      swap1\n      pop\n        /* \"#utility.yul\":5673:5956   */\n      swap3\n      swap2\n      pop\n      pop\n      jump\t// out\n        /* \"#utility.yul\":5962:6101   */\n    tag_256:\n        /* \"#utility.yul\":6058:6062   */\n      0x00\n        /* \"#utility.yul\":6090:6094   */\n      0x20\n        /* \"#utility.yul\":6085:6088   */\n      dup3\n        /* \"#utility.yul\":6081:6095   */\n      add\n        /* \"#utility.yul\":6073:6095   */\n      swap1\n      pop\n        /* \"#utility.yul\":5962:6101   */\n      swap2\n      swap1\n      pop\n      jump\t// out\n        /* \"#utility.yul\":6187:7127   */\n    tag_257:\n        /* \"#utility.yul\":6358:6361   */\n      0x00\n        /* \"#utility.yul\":6387:6467   */\n      tag_369\n        /* \"#utility.yul\":6461:6466   */\n      dup3\n        /* \"#utility.yul\":6387:6467   */\n      tag_246\n      jump\t// in\n    tag_369:\n        /* \"#utility.yul\":6483:6595   */\n      tag_370\n        /* \"#utility.yul\":6588:6594   */\n      dup2\n        /* \"#utility.yul\":6583:6586   */\n      dup6\n        /* \"#utility.yul\":6483:6595   */\n      tag_247\n      jump\t// in\n    tag_370:\n        /* \"#utility.yul\":6476:6595   */\n      swap4\n      pop\n        /* \"#utility.yul\":6619:6701   */\n      tag_371\n        /* \"#utility.yul\":6695:6700   */\n      dup4\n        /* \"#utility.yul\":6619:6701   */\n      tag_248\n      jump\t// in\n    tag_371:\n        /* \"#utility.yul\":6724:6731   */\n      dup1\n        /* \"#utility.yul\":6755:6756   */\n      0x00\n        /* \"#utility.yul\":6740:7102   */\n    tag_372:\n        /* \"#utility.yul\":6765:6771   */\n      dup4\n        /* \"#utility.yul\":6762:6763   */\n      dup2\n        /* \"#utility.yul\":6759:6772   */\n      lt\n        /* \"#utility.yul\":6740:7102   */\n      iszero\n      tag_374\n      jumpi\n        /* \"#utility.yul\":6841:6847   */\n      dup2\n        /* \"#utility.yul\":6835:6848   */\n      mload\n        /* \"#utility.yul\":6868:6983   */\n      tag_375\n        /* \"#utility.yul\":6979:6982   */\n      dup9\n        /* \"#utility.yul\":6964:6977   */\n      dup3\n        /* \"#utility.yul\":6868:6983   */\n      tag_255\n      jump\t// in\n    tag_375:\n        /* \"#utility.yul\":6861:6983   */\n      swap8\n      pop\n        /* \"#utility.yul\":7006:7092   */\n      tag_376\n        /* \"#utility.yul\":7085:7091   */\n      dup4\n        /* \"#utility.yul\":7006:7092   */\n      tag_256\n      jump\t// in\n    tag_376:\n        /* \"#utility.yul\":6996:7092   */\n      swap3\n      pop\n        /* \"#utility.yul\":6800:7102   */\n      pop\n        /* \"#utility.yul\":6787:6788   */\n      0x01\n        /* \"#utility.yul\":6784:6785   */\n      dup2\n        /* \"#utility.yul\":6780:6789   */\n      add\n        /* \"#utility.yul\":6775:6789   */\n      swap1\n      pop\n        /* \"#utility.yul\":6740:7102   */\n      jump(tag_372)\n    tag_374:\n        /* \"#utility.yul\":6744:6758   */\n      pop\n        /* \"#utility.yul\":7118:7121   */\n      dup6\n        /* \"#utility.yul\":7111:7121   */\n      swap4\n      pop\n        /* \"#utility.yul\":6363:7127   */\n      pop\n      pop\n      pop\n        /* \"#utility.yul\":6187:7127   */\n      swap3\n      swap2\n      pop\n      pop\n      jump\t// out\n        /* \"#utility.yul\":7133:7610   */\n    tag_60:\n        /* \"#utility.yul\":7328:7332   */\n      0x00\n        /* \"#utility.yul\":7366:7368   */\n      0x20\n        /* \"#utility.yul\":7355:7364   */\n      dup3\n        /* \"#utility.yul\":7351:7369   */\n      add\n        /* \"#utility.yul\":7343:7369   */\n      swap1\n      pop\n        /* \"#utility.yul\":7415:7424   */\n      dup2\n        /* \"#utility.yul\":7409:7413   */\n      dup2\n        /* \"#utility.yul\":7405:7425   */\n      sub\n        /* \"#utility.yul\":7401:7402   */\n      0x00\n        /* \"#utility.yul\":7390:7399   */\n      dup4\n        /* \"#utility.yul\":7386:7403   */\n      add\n        /* \"#utility.yul\":7379:7426   */\n      mstore\n        /* \"#utility.yul\":7443:7603   */\n      tag_378\n        /* \"#utility.yul\":7598:7602   */\n      dup2\n        /* \"#utility.yul\":7589:7595   */\n      dup5\n        /* \"#utility.yul\":7443:7603   */\n      tag_257\n      jump\t// in\n    tag_378:\n        /* \"#utility.yul\":7435:7603   */\n      swap1\n      pop\n        /* \"#utility.yul\":7133:7610   */\n      swap3\n      swap2\n      pop\n      pop\n      jump\t// out\n        /* \"#utility.yul\":7616:7734   */\n    tag_258:\n        /* \"#utility.yul\":7703:7727   */\n      tag_380\n        /* \"#utility.yul\":7721:7726   */\n      dup2\n        /* \"#utility.yul\":7703:7727   */\n      tag_249\n      jump\t// in\n    tag_380:\n        /* \"#utility.yul\":7698:7701   */\n      dup3\n        /* \"#utility.yul\":7691:7728   */\n      mstore\n        /* \"#utility.yul\":7616:7734   */\n      pop\n      pop\n      jump\t// out\n        /* \"#utility.yul\":7740:7962   */\n    tag_65:\n        /* \"#utility.yul\":7833:7837   */\n      0x00\n        /* \"#utility.yul\":7871:7873   */\n      0x20\n        /* \"#utility.yul\":7860:7869   */\n      dup3\n        /* \"#utility.yul\":7856:7874   */\n      add\n        /* \"#utility.yul\":7848:7874   */\n      swap1\n      pop\n        /* \"#utility.yul\":7884:7955   */\n      tag_382\n        /* \"#utility.yul\":7952:7953   */\n      0x00\n        /* \"#utility.yul\":7941:7950   */\n      dup4\n        /* \"#utility.yul\":7937:7954   */\n      add\n        /* \"#utility.yul\":7928:7934   */\n      dup5\n        /* \"#utility.yul\":7884:7955   */\n      tag_258\n      jump\t// in\n    tag_382:\n        /* \"#utility.yul\":7740:7962   */\n      swap3\n      swap2\n      pop\n      pop\n      jump\t// out\n        /* \"#utility.yul\":7968:8067   */\n    tag_259:\n        /* \"#utility.yul\":8039:8060   */\n      tag_384\n        /* \"#utility.yul\":8054:8059   */\n      dup2\n        /* \"#utility.yul\":8039:8060   */\n      tag_244\n      jump\t// in\n    tag_384:\n        /* \"#utility.yul\":8034:8037   */\n      dup3\n        /* \"#utility.yul\":8027:8061   */\n      mstore\n        /* \"#utility.yul\":7968:8067   */\n      pop\n      pop\n      jump\t// out\n        /* \"#utility.yul\":8145:9007   */\n    tag_260:\n        /* \"#utility.yul\":8290:8294   */\n      0x80\n        /* \"#utility.yul\":8285:8288   */\n      dup3\n        /* \"#utility.yul\":8281:8295   */\n      add\n        /* \"#utility.yul\":8379:8383   */\n      0x00\n        /* \"#utility.yul\":8372:8377   */\n      dup3\n        /* \"#utility.yul\":8368:8384   */\n      add\n        /* \"#utility.yul\":8362:8385   */\n      mload\n        /* \"#utility.yul\":8398:8461   */\n      tag_386\n        /* \"#utility.yul\":8455:8459   */\n      0x00\n        /* \"#utility.yul\":8450:8453   */\n      dup6\n        /* \"#utility.yul\":8446:8460   */\n      add\n        /* \"#utility.yul\":8432:8444   */\n      dup3\n        /* \"#utility.yul\":8398:8461   */\n      tag_250\n      jump\t// in\n    tag_386:\n        /* \"#utility.yul\":8305:8471   */\n      pop\n        /* \"#utility.yul\":8555:8559   */\n      0x20\n        /* \"#utility.yul\":8548:8553   */\n      dup3\n        /* \"#utility.yul\":8544:8560   */\n      add\n        /* \"#utility.yul\":8538:8561   */\n      mload\n        /* \"#utility.yul\":8574:8637   */\n      tag_387\n        /* \"#utility.yul\":8631:8635   */\n      0x20\n        /* \"#utility.yul\":8626:8629   */\n      dup6\n        /* \"#utility.yul\":8622:8636   */\n      add\n        /* \"#utility.yul\":8608:8620   */\n      dup3\n        /* \"#utility.yul\":8574:8637   */\n      tag_251\n      jump\t// in\n    tag_387:\n        /* \"#utility.yul\":8481:8647   */\n      pop\n        /* \"#utility.yul\":8738:8742   */\n      0x40\n        /* \"#utility.yul\":8731:8736   */\n      dup3\n        /* \"#utility.yul\":8727:8743   */\n      add\n        /* \"#utility.yul\":8721:8744   */\n      mload\n        /* \"#utility.yul\":8757:8820   */\n      tag_388\n        /* \"#utility.yul\":8814:8818   */\n      0x40\n        /* \"#utility.yul\":8809:8812   */\n      dup6\n        /* \"#utility.yul\":8805:8819   */\n      add\n        /* \"#utility.yul\":8791:8803   */\n      dup3\n        /* \"#utility.yul\":8757:8820   */\n      tag_251\n      jump\t// in\n    tag_388:\n        /* \"#utility.yul\":8657:8830   */\n      pop\n        /* \"#utility.yul\":8914:8918   */\n      0x60\n        /* \"#utility.yul\":8907:8912   */\n      dup3\n        /* \"#utility.yul\":8903:8919   */\n      add\n        /* \"#utility.yul\":8897:8920   */\n      mload\n        /* \"#utility.yul\":8933:8990   */\n      tag_389\n        /* \"#utility.yul\":8984:8988   */\n      0x60\n        /* \"#utility.yul\":8979:8982   */\n      dup6\n        /* \"#utility.yul\":8975:8989   */\n      add\n        /* \"#utility.yul\":8961:8973   */\n      dup3\n        /* \"#utility.yul\":8933:8990   */\n      tag_259\n      jump\t// in\n    tag_389:\n        /* \"#utility.yul\":8840:9000   */\n      pop\n        /* \"#utility.yul\":8259:9007   */\n      pop\n        /* \"#utility.yul\":8145:9007   */\n      pop\n      pop\n      jump\t// out\n        /* \"#utility.yul\":9013:9332   */\n    tag_71:\n        /* \"#utility.yul\":9154:9158   */\n      0x00\n        /* \"#utility.yul\":9192:9195   */\n      0x80\n        /* \"#utility.yul\":9181:9190   */\n      dup3\n        /* \"#utility.yul\":9177:9196   */\n      add\n        /* \"#utility.yul\":9169:9196   */\n      swap1\n      pop\n        /* \"#utility.yul\":9206:9325   */\n      tag_391\n        /* \"#utility.yul\":9322:9323   */\n      0x00\n        /* \"#utility.yul\":9311:9320   */\n      dup4\n        /* \"#utility.yul\":9307:9324   */\n      add\n        /* \"#utility.yul\":9298:9304   */\n      dup5\n        /* \"#utility.yul\":9206:9325   */\n      tag_260\n      jump\t// in\n    tag_391:\n        /* \"#utility.yul\":9013:9332   */\n      swap3\n      swap2\n      pop\n      pop\n      jump\t// out\n        /* \"#utility.yul\":9338:9460   */\n    tag_261:\n        /* \"#utility.yul\":9411:9435   */\n      tag_393\n        /* \"#utility.yul\":9429:9434   */\n      dup2\n        /* \"#utility.yul\":9411:9435   */\n      tag_249\n      jump\t// in\n    tag_393:\n        /* \"#utility.yul\":9404:9409   */\n      dup2\n        /* \"#utility.yul\":9401:9436   */\n      eq\n        /* \"#utility.yul\":9391:9454   */\n      tag_394\n      jumpi\n        /* \"#utility.yul\":9450:9451   */\n      0x00\n        /* \"#utility.yul\":9447:9448   */\n      dup1\n        /* \"#utility.yul\":9440:9452   */\n      revert\n        /* \"#utility.yul\":9391:9454   */\n    tag_394:\n        /* \"#utility.yul\":9338:9460   */\n      pop\n      jump\t// out\n        /* \"#utility.yul\":9466:9605   */\n    tag_262:\n        /* \"#utility.yul\":9512:9517   */\n      0x00\n        /* \"#utility.yul\":9550:9556   */\n      dup2\n        /* \"#utility.yul\":9537:9557   */\n      calldataload\n        /* \"#utility.yul\":9528:9557   */\n      swap1\n      pop\n        /* \"#utility.yul\":9566:9599   */\n      tag_396\n        /* \"#utility.yul\":9593:9598   */\n      dup2\n        /* \"#utility.yul\":9566:9599   */\n      tag_261\n      jump\t// in\n    tag_396:\n        /* \"#utility.yul\":9466:9605   */\n      swap3\n      swap2\n      pop\n      pop\n      jump\t// out\n        /* \"#utility.yul\":9611:9940   */\n    tag_75:\n        /* \"#utility.yul\":9670:9676   */\n      0x00\n        /* \"#utility.yul\":9719:9721   */\n      0x20\n        /* \"#utility.yul\":9707:9716   */\n      dup3\n        /* \"#utility.yul\":9698:9705   */\n      dup5\n        /* \"#utility.yul\":9694:9717   */\n      sub\n        /* \"#utility.yul\":9690:9722   */\n      slt\n        /* \"#utility.yul\":9687:9806   */\n      iszero\n      tag_398\n      jumpi\n        /* \"#utility.yul\":9725:9804   */\n      tag_399\n      tag_230\n      jump\t// in\n    tag_399:\n        /* \"#utility.yul\":9687:9806   */\n    tag_398:\n        /* \"#utility.yul\":9845:9846   */\n      0x00\n        /* \"#utility.yul\":9870:9923   */\n      tag_400\n        /* \"#utility.yul\":9915:9922   */\n      dup5\n        /* \"#utility.yul\":9906:9912   */\n      dup3\n        /* \"#utility.yul\":9895:9904   */\n      dup6\n        /* \"#utility.yul\":9891:9913   */\n      add\n        /* \"#utility.yul\":9870:9923   */\n      tag_262\n      jump\t// in\n    tag_400:\n        /* \"#utility.yul\":9860:9923   */\n      swap2\n      pop\n        /* \"#utility.yul\":9816:9933   */\n      pop\n        /* \"#utility.yul\":9611:9940   */\n      swap3\n      swap2\n      pop\n      pop\n      jump\t// out\n        /* \"#utility.yul\":9946:10064   */\n    tag_263:\n        /* \"#utility.yul\":10033:10057   */\n      tag_402\n        /* \"#utility.yul\":10051:10056   */\n      dup2\n        /* \"#utility.yul\":10033:10057   */\n      tag_232\n      jump\t// in\n    tag_402:\n        /* \"#utility.yul\":10028:10031   */\n      dup3\n        /* \"#utility.yul\":10021:10058   */\n      mstore\n        /* \"#utility.yul\":9946:10064   */\n      pop\n      pop\n      jump\t// out\n        /* \"#utility.yul\":10070:10292   */\n    tag_78:\n        /* \"#utility.yul\":10163:10167   */\n      0x00\n        /* \"#utility.yul\":10201:10203   */\n      0x20\n        /* \"#utility.yul\":10190:10199   */\n      dup3\n        /* \"#utility.yul\":10186:10204   */\n      add\n        /* \"#utility.yul\":10178:10204   */\n      swap1\n      pop\n        /* \"#utility.yul\":10214:10285   */\n      tag_404\n        /* \"#utility.yul\":10282:10283   */\n      0x00\n        /* \"#utility.yul\":10271:10280   */\n      dup4\n        /* \"#utility.yul\":10267:10284   */\n      add\n        /* \"#utility.yul\":10258:10264   */\n      dup5\n        /* \"#utility.yul\":10214:10285   */\n      tag_263\n      jump\t// in\n    tag_404:\n        /* \"#utility.yul\":10070:10292   */\n      swap3\n      swap2\n      pop\n      pop\n      jump\t// out\n        /* \"#utility.yul\":10298:10415   */\n    tag_264:\n        /* \"#utility.yul\":10407:10408   */\n      0x00\n        /* \"#utility.yul\":10404:10405   */\n      dup1\n        /* \"#utility.yul\":10397:10409   */\n      revert\n        /* \"#utility.yul\":10421:10538   */\n    tag_265:\n        /* \"#utility.yul\":10530:10531   */\n      0x00\n        /* \"#utility.yul\":10527:10528   */\n      dup1\n        /* \"#utility.yul\":10520:10532   */\n      revert\n        /* \"#utility.yul\":10544:10646   */\n    tag_266:\n        /* \"#utility.yul\":10585:10591   */\n      0x00\n        /* \"#utility.yul\":10636:10638   */\n      0x1f\n        /* \"#utility.yul\":10632:10639   */\n      not\n        /* \"#utility.yul\":10627:10629   */\n      0x1f\n        /* \"#utility.yul\":10620:10625   */\n      dup4\n        /* \"#utility.yul\":10616:10630   */\n      add\n        /* \"#utility.yul\":10612:10640   */\n      and\n        /* \"#utility.yul\":10602:10640   */\n      swap1\n      pop\n        /* \"#utility.yul\":10544:10646   */\n      swap2\n      swap1\n      pop\n      jump\t// out\n        /* \"#utility.yul\":10652:10832   */\n    tag_267:\n        /* \"#utility.yul\":10700:10777   */\n      0x4e487b7100000000000000000000000000000000000000000000000000000000\n        /* \"#utility.yul\":10697:10698   */\n      0x00\n        /* \"#utility.yul\":10690:10778   */\n      mstore\n        /* \"#utility.yul\":10797:10801   */\n      0x41\n        /* \"#utility.yul\":10794:10795   */\n      0x04\n        /* \"#utility.yul\":10787:10802   */\n      mstore\n        /* \"#utility.yul\":10821:10825   */\n      0x24\n        /* \"#utility.yul\":10818:10819   */\n      0x00\n        /* \"#utility.yul\":10811:10826   */\n      revert\n        /* \"#utility.yul\":10838:11119   */\n    tag_268:\n        /* \"#utility.yul\":10921:10948   */\n      tag_410\n        /* \"#utility.yul\":10943:10947   */\n      dup3\n        /* \"#utility.yul\":10921:10948   */\n      tag_266\n      jump\t// in\n    tag_410:\n        /* \"#utility.yul\":10913:10919   */\n      dup2\n        /* \"#utility.yul\":10909:10949   */\n      add\n        /* \"#utility.yul\":11051:11057   */\n      dup2\n        /* \"#utility.yul\":11039:11049   */\n      dup2\n        /* \"#utility.yul\":11036:11058   */\n      lt\n        /* \"#utility.yul\":11015:11033   */\n      0xffffffffffffffff\n        /* \"#utility.yul\":11003:11013   */\n      dup3\n        /* \"#utility.yul\":11000:11034   */\n      gt\n        /* \"#utility.yul\":10997:11059   */\n      or\n        /* \"#utility.yul\":10994:11082   */\n      iszero\n      tag_411\n      jumpi\n        /* \"#utility.yul\":11062:11080   */\n      tag_412\n      tag_267\n      jump\t// in\n    tag_412:\n        /* \"#utility.yul\":10994:11082   */\n    tag_411:\n        /* \"#utility.yul\":11102:11112   */\n      dup1\n        /* \"#utility.yul\":11098:11100   */\n      0x40\n        /* \"#utility.yul\":11091:11113   */\n      mstore\n        /* \"#utility.yul\":10881:11119   */\n      pop\n        /* \"#utility.yul\":10838:11119   */\n      pop\n      pop\n      jump\t// out\n        /* \"#utility.yul\":11125:11254   */\n    tag_269:\n        /* \"#utility.yul\":11159:11165   */\n      0x00\n        /* \"#utility.yul\":11186:11206   */\n      tag_414\n      tag_229\n      jump\t// in\n    tag_414:\n        /* \"#utility.yul\":11176:11206   */\n      swap1\n      pop\n        /* \"#utility.yul\":11215:11248   */\n      tag_415\n        /* \"#utility.yul\":11243:11247   */\n      dup3\n        /* \"#utility.yul\":11235:11241   */\n      dup3\n        /* \"#utility.yul\":11215:11248   */\n      tag_268\n      jump\t// in\n    tag_415:\n        /* \"#utility.yul\":11125:11254   */\n      swap2\n      swap1\n      pop\n      jump\t// out\n        /* \"#utility.yul\":11260:11568   */\n    tag_270:\n        /* \"#utility.yul\":11322:11326   */\n      0x00\n        /* \"#utility.yul\":11412:11430   */\n      0xffffffffffffffff\n        /* \"#utility.yul\":11404:11410   */\n      dup3\n        /* \"#utility.yul\":11401:11431   */\n      gt\n        /* \"#utility.yul\":11398:11454   */\n      iszero\n      tag_417\n      jumpi\n        /* \"#utility.yul\":11434:11452   */\n      tag_418\n      tag_267\n      jump\t// in\n    tag_418:\n        /* \"#utility.yul\":11398:11454   */\n    tag_417:\n        /* \"#utility.yul\":11472:11501   */\n      tag_419\n        /* \"#utility.yul\":11494:11500   */\n      dup3\n        /* \"#utility.yul\":11472:11501   */\n      tag_266\n      jump\t// in\n    tag_419:\n        /* \"#utility.yul\":11464:11501   */\n      swap1\n      pop\n        /* \"#utility.yul\":11556:11560   */\n      0x20\n        /* \"#utility.yul\":11550:11554   */\n      dup2\n        /* \"#utility.yul\":11546:11561   */\n      add\n        /* \"#utility.yul\":11538:11561   */\n      swap1\n      pop\n        /* \"#utility.yul\":11260:11568   */\n      swap2\n      swap1\n      pop\n      jump\t// out\n        /* \"#utility.yul\":11574:11722   */\n    tag_271:\n        /* \"#utility.yul\":11672:11678   */\n      dup3\n        /* \"#utility.yul\":11667:11670   */\n      dup2\n        /* \"#utility.yul\":11662:11665   */\n      dup4\n        /* \"#utility.yul\":11649:11679   */\n      calldatacopy\n        /* \"#utility.yul\":11713:11714   */\n      0x00\n        /* \"#utility.yul\":11704:11710   */\n      dup4\n        /* \"#utility.yul\":11699:11702   */\n      dup4\n        /* \"#utility.yul\":11695:11711   */\n      add\n        /* \"#utility.yul\":11688:11715   */\n      mstore\n        /* \"#utility.yul\":11574:11722   */\n      pop\n      pop\n      pop\n      jump\t// out\n        /* \"#utility.yul\":11728:12153   */\n    tag_272:\n        /* \"#utility.yul\":11806:11811   */\n      0x00\n        /* \"#utility.yul\":11831:11897   */\n      tag_422\n        /* \"#utility.yul\":11847:11896   */\n      tag_423\n        /* \"#utility.yul\":11889:11895   */\n      dup5\n        /* \"#utility.yul\":11847:11896   */\n      tag_270\n      jump\t// in\n    tag_423:\n        /* \"#utility.yul\":11831:11897   */\n      tag_269\n      jump\t// in\n    tag_422:\n        /* \"#utility.yul\":11822:11897   */\n      swap1\n      pop\n        /* \"#utility.yul\":11920:11926   */\n      dup3\n        /* \"#utility.yul\":11913:11918   */\n      dup2\n        /* \"#utility.yul\":11906:11927   */\n      mstore\n        /* \"#utility.yul\":11958:11962   */\n      0x20\n        /* \"#utility.yul\":11951:11956   */\n      dup2\n        /* \"#utility.yul\":11947:11963   */\n      add\n        /* \"#utility.yul\":11996:11999   */\n      dup5\n        /* \"#utility.yul\":11987:11993   */\n      dup5\n        /* \"#utility.yul\":11982:11985   */\n      dup5\n        /* \"#utility.yul\":11978:11994   */\n      add\n        /* \"#utility.yul\":11975:12000   */\n      gt\n        /* \"#utility.yul\":11972:12084   */\n      iszero\n      tag_424\n      jumpi\n        /* \"#utility.yul\":12003:12082   */\n      tag_425\n      tag_265\n      jump\t// in\n    tag_425:\n        /* \"#utility.yul\":11972:12084   */\n    tag_424:\n        /* \"#utility.yul\":12093:12147   */\n      tag_426\n        /* \"#utility.yul\":12140:12146   */\n      dup5\n        /* \"#utility.yul\":12135:12138   */\n      dup3\n        /* \"#utility.yul\":12130:12133   */\n      dup6\n        /* \"#utility.yul\":12093:12147   */\n      tag_271\n      jump\t// in\n    tag_426:\n        /* \"#utility.yul\":11812:12153   */\n      pop\n        /* \"#utility.yul\":11728:12153   */\n      swap4\n      swap3\n      pop\n      pop\n      pop\n      jump\t// out\n        /* \"#utility.yul\":12173:12513   */\n    tag_273:\n        /* \"#utility.yul\":12229:12234   */\n      0x00\n        /* \"#utility.yul\":12278:12281   */\n      dup3\n        /* \"#utility.yul\":12271:12275   */\n      0x1f\n        /* \"#utility.yul\":12263:12269   */\n      dup4\n        /* \"#utility.yul\":12259:12276   */\n      add\n        /* \"#utility.yul\":12255:12282   */\n      slt\n        /* \"#utility.yul\":12245:12367   */\n      tag_428\n      jumpi\n        /* \"#utility.yul\":12286:12365   */\n      tag_429\n      tag_264\n      jump\t// in\n    tag_429:\n        /* \"#utility.yul\":12245:12367   */\n    tag_428:\n        /* \"#utility.yul\":12403:12409   */\n      dup2\n        /* \"#utility.yul\":12390:12410   */\n      calldataload\n        /* \"#utility.yul\":12428:12507   */\n      tag_430\n        /* \"#utility.yul\":12503:12506   */\n      dup5\n        /* \"#utility.yul\":12495:12501   */\n      dup3\n        /* \"#utility.yul\":12488:12492   */\n      0x20\n        /* \"#utility.yul\":12480:12486   */\n      dup7\n        /* \"#utility.yul\":12476:12493   */\n      add\n        /* \"#utility.yul\":12428:12507   */\n      tag_272\n      jump\t// in\n    tag_430:\n        /* \"#utility.yul\":12419:12507   */\n      swap2\n      pop\n        /* \"#utility.yul\":12235:12513   */\n      pop\n        /* \"#utility.yul\":12173:12513   */\n      swap3\n      swap2\n      pop\n      pop\n      jump\t// out\n        /* \"#utility.yul\":12519:13173   */\n    tag_86:\n        /* \"#utility.yul\":12597:12603   */\n      0x00\n        /* \"#utility.yul\":12605:12611   */\n      dup1\n        /* \"#utility.yul\":12654:12656   */\n      0x40\n        /* \"#utility.yul\":12642:12651   */\n      dup4\n        /* \"#utility.yul\":12633:12640   */\n      dup6\n        /* \"#utility.yul\":12629:12652   */\n      sub\n        /* \"#utility.yul\":12625:12657   */\n      slt\n        /* \"#utility.yul\":12622:12741   */\n      iszero\n      tag_432\n      jumpi\n        /* \"#utility.yul\":12660:12739   */\n      tag_433\n      tag_230\n      jump\t// in\n    tag_433:\n        /* \"#utility.yul\":12622:12741   */\n    tag_432:\n        /* \"#utility.yul\":12808:12809   */\n      0x00\n        /* \"#utility.yul\":12797:12806   */\n      dup4\n        /* \"#utility.yul\":12793:12810   */\n      add\n        /* \"#utility.yul\":12780:12811   */\n      calldataload\n        /* \"#utility.yul\":12838:12856   */\n      0xffffffffffffffff\n        /* \"#utility.yul\":12830:12836   */\n      dup2\n        /* \"#utility.yul\":12827:12857   */\n      gt\n        /* \"#utility.yul\":12824:12941   */\n      iszero\n      tag_434\n      jumpi\n        /* \"#utility.yul\":12860:12939   */\n      tag_435\n      tag_231\n      jump\t// in\n    tag_435:\n        /* \"#utility.yul\":12824:12941   */\n    tag_434:\n        /* \"#utility.yul\":12965:13028   */\n      tag_436\n        /* \"#utility.yul\":13020:13027   */\n      dup6\n        /* \"#utility.yul\":13011:13017   */\n      dup3\n        /* \"#utility.yul\":13000:13009   */\n      dup7\n        /* \"#utility.yul\":12996:13018   */\n      add\n        /* \"#utility.yul\":12965:13028   */\n      tag_273\n      jump\t// in\n    tag_436:\n        /* \"#utility.yul\":12955:13028   */\n      swap3\n      pop\n        /* \"#utility.yul\":12751:13038   */\n      pop\n        /* \"#utility.yul\":13077:13079   */\n      0x20\n        /* \"#utility.yul\":13103:13156   */\n      tag_437\n        /* \"#utility.yul\":13148:13155   */\n      dup6\n        /* \"#utility.yul\":13139:13145   */\n      dup3\n        /* \"#utility.yul\":13128:13137   */\n      dup7\n        /* \"#utility.yul\":13124:13146   */\n      add\n        /* \"#utility.yul\":13103:13156   */\n      tag_234\n      jump\t// in\n    tag_437:\n        /* \"#utility.yul\":13093:13156   */\n      swap2\n      pop\n        /* \"#utility.yul\":13048:13166   */\n      pop\n        /* \"#utility.yul\":12519:13173   */\n      swap3\n      pop\n      swap3\n      swap1\n      pop\n      jump\t// out\n        /* \"#utility.yul\":13179:13294   */\n    tag_274:\n        /* \"#utility.yul\":13264:13287   */\n      tag_439\n        /* \"#utility.yul\":13281:13286   */\n      dup2\n        /* \"#utility.yul\":13264:13287   */\n      tag_252\n      jump\t// in\n    tag_439:\n        /* \"#utility.yul\":13259:13262   */\n      dup3\n        /* \"#utility.yul\":13252:13288   */\n      mstore\n        /* \"#utility.yul\":13179:13294   */\n      pop\n      pop\n      jump\t// out\n        /* \"#utility.yul\":13300:13849   */\n    tag_89:\n        /* \"#utility.yul\":13475:13479   */\n      0x00\n        /* \"#utility.yul\":13513:13516   */\n      0x80\n        /* \"#utility.yul\":13502:13511   */\n      dup3\n        /* \"#utility.yul\":13498:13517   */\n      add\n        /* \"#utility.yul\":13490:13517   */\n      swap1\n      pop\n        /* \"#utility.yul\":13527:13598   */\n      tag_441\n        /* \"#utility.yul\":13595:13596   */\n      0x00\n        /* \"#utility.yul\":13584:13593   */\n      dup4\n        /* \"#utility.yul\":13580:13597   */\n      add\n        /* \"#utility.yul\":13571:13577   */\n      dup8\n        /* \"#utility.yul\":13527:13598   */\n      tag_258\n      jump\t// in\n    tag_441:\n        /* \"#utility.yul\":13608:13680   */\n      tag_442\n        /* \"#utility.yul\":13676:13678   */\n      0x20\n        /* \"#utility.yul\":13665:13674   */\n      dup4\n        /* \"#utility.yul\":13661:13679   */\n      add\n        /* \"#utility.yul\":13652:13658   */\n      dup7\n        /* \"#utility.yul\":13608:13680   */\n      tag_258\n      jump\t// in\n    tag_442:\n        /* \"#utility.yul\":13690:13762   */\n      tag_443\n        /* \"#utility.yul\":13758:13760   */\n      0x40\n        /* \"#utility.yul\":13747:13756   */\n      dup4\n        /* \"#utility.yul\":13743:13761   */\n      add\n        /* \"#utility.yul\":13734:13740   */\n      dup6\n        /* \"#utility.yul\":13690:13762   */\n      tag_263\n      jump\t// in\n    tag_443:\n        /* \"#utility.yul\":13772:13842   */\n      tag_444\n        /* \"#utility.yul\":13838:13840   */\n      0x60\n        /* \"#utility.yul\":13827:13836   */\n      dup4\n        /* \"#utility.yul\":13823:13841   */\n      add\n        /* \"#utility.yul\":13814:13820   */\n      dup5\n        /* \"#utility.yul\":13772:13842   */\n      tag_274\n      jump\t// in\n    tag_444:\n        /* \"#utility.yul\":13300:13849   */\n      swap6\n      swap5\n      pop\n      pop\n      pop\n      pop\n      pop\n      jump\t// out\n        /* \"#utility.yul\":13855:14396   */\n    tag_95:\n        /* \"#utility.yul\":14026:14030   */\n      0x00\n        /* \"#utility.yul\":14064:14067   */\n      0x80\n        /* \"#utility.yul\":14053:14062   */\n      dup3\n        /* \"#utility.yul\":14049:14068   */\n      add\n        /* \"#utility.yul\":14041:14068   */\n      swap1\n      pop\n        /* \"#utility.yul\":14078:14149   */\n      tag_446\n        /* \"#utility.yul\":14146:14147   */\n      0x00\n        /* \"#utility.yul\":14135:14144   */\n      dup4\n        /* \"#utility.yul\":14131:14148   */\n      add\n        /* \"#utility.yul\":14122:14128   */\n      dup8\n        /* \"#utility.yul\":14078:14149   */\n      tag_258\n      jump\t// in\n    tag_446:\n        /* \"#utility.yul\":14159:14231   */\n      tag_447\n        /* \"#utility.yul\":14227:14229   */\n      0x20\n        /* \"#utility.yul\":14216:14225   */\n      dup4\n        /* \"#utility.yul\":14212:14230   */\n      add\n        /* \"#utility.yul\":14203:14209   */\n      dup7\n        /* \"#utility.yul\":14159:14231   */\n      tag_263\n      jump\t// in\n    tag_447:\n        /* \"#utility.yul\":14241:14313   */\n      tag_448\n        /* \"#utility.yul\":14309:14311   */\n      0x40\n        /* \"#utility.yul\":14298:14307   */\n      dup4\n        /* \"#utility.yul\":14294:14312   */\n      add\n        /* \"#utility.yul\":14285:14291   */\n      dup6\n        /* \"#utility.yul\":14241:14313   */\n      tag_263\n      jump\t// in\n    tag_448:\n        /* \"#utility.yul\":14323:14389   */\n      tag_449\n        /* \"#utility.yul\":14385:14387   */\n      0x60\n        /* \"#utility.yul\":14374:14383   */\n      dup4\n        /* \"#utility.yul\":14370:14388   */\n      add\n        /* \"#utility.yul\":14361:14367   */\n      dup5\n        /* \"#utility.yul\":14323:14389   */\n      tag_245\n      jump\t// in\n    tag_449:\n        /* \"#utility.yul\":13855:14396   */\n      swap6\n      swap5\n      pop\n      pop\n      pop\n      pop\n      pop\n      jump\t// out\n        /* \"#utility.yul\":14402:14543   */\n    tag_275:\n        /* \"#utility.yul\":14467:14476   */\n      0x00\n        /* \"#utility.yul\":14500:14537   */\n      tag_451\n        /* \"#utility.yul\":14531:14536   */\n      dup3\n        /* \"#utility.yul\":14500:14537   */\n      tag_238\n      jump\t// in\n    tag_451:\n        /* \"#utility.yul\":14487:14537   */\n      swap1\n      pop\n        /* \"#utility.yul\":14402:14543   */\n      swap2\n      swap1\n      pop\n      jump\t// out\n        /* \"#utility.yul\":14549:14710   */\n    tag_276:\n        /* \"#utility.yul\":14651:14703   */\n      tag_453\n        /* \"#utility.yul\":14697:14702   */\n      dup2\n        /* \"#utility.yul\":14651:14703   */\n      tag_275\n      jump\t// in\n    tag_453:\n        /* \"#utility.yul\":14646:14649   */\n      dup3\n        /* \"#utility.yul\":14639:14704   */\n      mstore\n        /* \"#utility.yul\":14549:14710   */\n      pop\n      pop\n      jump\t// out\n        /* \"#utility.yul\":14716:14968   */\n    tag_100:\n        /* \"#utility.yul\":14824:14828   */\n      0x00\n        /* \"#utility.yul\":14862:14864   */\n      0x20\n        /* \"#utility.yul\":14851:14860   */\n      dup3\n        /* \"#utility.yul\":14847:14865   */\n      add\n        /* \"#utility.yul\":14839:14865   */\n      swap1\n      pop\n        /* \"#utility.yul\":14875:14961   */\n      tag_455\n        /* \"#utility.yul\":14958:14959   */\n      0x00\n        /* \"#utility.yul\":14947:14956   */\n      dup4\n        /* \"#utility.yul\":14943:14960   */\n      add\n        /* \"#utility.yul\":14934:14940   */\n      dup5\n        /* \"#utility.yul\":14875:14961   */\n      tag_276\n      jump\t// in\n    tag_455:\n        /* \"#utility.yul\":14716:14968   */\n      swap3\n      swap2\n      pop\n      pop\n      jump\t// out\n        /* \"#utility.yul\":14974:15122   */\n    tag_277:\n        /* \"#utility.yul\":15076:15087   */\n      0x00\n        /* \"#utility.yul\":15113:15116   */\n      dup2\n        /* \"#utility.yul\":15098:15116   */\n      swap1\n      pop\n        /* \"#utility.yul\":14974:15122   */\n      swap3\n      swap2\n      pop\n      pop\n      jump\t// out\n        /* \"#utility.yul\":15128:15282   */\n    tag_278:\n        /* \"#utility.yul\":15268:15274   */\n      0x4952454300000000000000000000000000000000000000000000000000000000\n        /* \"#utility.yul\":15264:15265   */\n      0x00\n        /* \"#utility.yul\":15256:15262   */\n      dup3\n        /* \"#utility.yul\":15252:15266   */\n      add\n        /* \"#utility.yul\":15245:15275   */\n      mstore\n        /* \"#utility.yul\":15128:15282   */\n      pop\n      jump\t// out\n        /* \"#utility.yul\":15288:15688   */\n    tag_279:\n        /* \"#utility.yul\":15448:15451   */\n      0x00\n        /* \"#utility.yul\":15469:15553   */\n      tag_459\n        /* \"#utility.yul\":15551:15552   */\n      0x04\n        /* \"#utility.yul\":15546:15549   */\n      dup4\n        /* \"#utility.yul\":15469:15553   */\n      tag_277\n      jump\t// in\n    tag_459:\n        /* \"#utility.yul\":15462:15553   */\n      swap2\n      pop\n        /* \"#utility.yul\":15562:15655   */\n      tag_460\n        /* \"#utility.yul\":15651:15654   */\n      dup3\n        /* \"#utility.yul\":15562:15655   */\n      tag_278\n      jump\t// in\n    tag_460:\n        /* \"#utility.yul\":15680:15681   */\n      0x04\n        /* \"#utility.yul\":15675:15678   */\n      dup3\n        /* \"#utility.yul\":15671:15682   */\n      add\n        /* \"#utility.yul\":15664:15682   */\n      swap1\n      pop\n        /* \"#utility.yul\":15288:15688   */\n      swap2\n      swap1\n      pop\n      jump\t// out\n        /* \"#utility.yul\":15694:16075   */\n    tag_111:\n        /* \"#utility.yul\":15879:15882   */\n      0x00\n        /* \"#utility.yul\":15901:16049   */\n      tag_462\n        /* \"#utility.yul\":16045:16048   */\n      dup3\n        /* \"#utility.yul\":15901:16049   */\n      tag_279\n      jump\t// in\n    tag_462:\n        /* \"#utility.yul\":15894:16049   */\n      swap2\n      pop\n        /* \"#utility.yul\":16066:16069   */\n      dup2\n        /* \"#utility.yul\":16059:16069   */\n      swap1\n      pop\n        /* \"#utility.yul\":15694:16075   */\n      swap2\n      swap1\n      pop\n      jump\t// out\n        /* \"#utility.yul\":16081:16250   */\n    tag_280:\n        /* \"#utility.yul\":16165:16176   */\n      0x00\n        /* \"#utility.yul\":16199:16205   */\n      dup3\n        /* \"#utility.yul\":16194:16197   */\n      dup3\n        /* \"#utility.yul\":16187:16206   */\n      mstore\n        /* \"#utility.yul\":16239:16243   */\n      0x20\n        /* \"#utility.yul\":16234:16237   */\n      dup3\n        /* \"#utility.yul\":16230:16244   */\n      add\n        /* \"#utility.yul\":16215:16244   */\n      swap1\n      pop\n        /* \"#utility.yul\":16081:16250   */\n      swap3\n      swap2\n      pop\n      pop\n      jump\t// out\n        /* \"#utility.yul\":16256:16422   */\n    tag_281:\n        /* \"#utility.yul\":16396:16414   */\n      0x546f6b656e206e6f742061637469766500000000000000000000000000000000\n        /* \"#utility.yul\":16392:16393   */\n      0x00\n        /* \"#utility.yul\":16384:16390   */\n      dup3\n        /* \"#utility.yul\":16380:16394   */\n      add\n        /* \"#utility.yul\":16373:16415   */\n      mstore\n        /* \"#utility.yul\":16256:16422   */\n      pop\n      jump\t// out\n        /* \"#utility.yul\":16428:16794   */\n    tag_282:\n        /* \"#utility.yul\":16570:16573   */\n      0x00\n        /* \"#utility.yul\":16591:16658   */\n      tag_466\n        /* \"#utility.yul\":16655:16657   */\n      0x10\n        /* \"#utility.yul\":16650:16653   */\n      dup4\n        /* \"#utility.yul\":16591:16658   */\n      tag_280\n      jump\t// in\n    tag_466:\n        /* \"#utility.yul\":16584:16658   */\n      swap2\n      pop\n        /* \"#utility.yul\":16667:16760   */\n      tag_467\n        /* \"#utility.yul\":16756:16759   */\n      dup3\n        /* \"#utility.yul\":16667:16760   */\n      tag_281\n      jump\t// in\n    tag_467:\n        /* \"#utility.yul\":16785:16787   */\n      0x20\n        /* \"#utility.yul\":16780:16783   */\n      dup3\n        /* \"#utility.yul\":16776:16788   */\n      add\n        /* \"#utility.yul\":16769:16788   */\n      swap1\n      pop\n        /* \"#utility.yul\":16428:16794   */\n      swap2\n      swap1\n      pop\n      jump\t// out\n        /* \"#utility.yul\":16800:17219   */\n    tag_114:\n        /* \"#utility.yul\":16966:16970   */\n      0x00\n        /* \"#utility.yul\":17004:17006   */\n      0x20\n        /* \"#utility.yul\":16993:17002   */\n      dup3\n        /* \"#utility.yul\":16989:17007   */\n      add\n        /* \"#utility.yul\":16981:17007   */\n      swap1\n      pop\n        /* \"#utility.yul\":17053:17062   */\n      dup2\n        /* \"#utility.yul\":17047:17051   */\n      dup2\n        /* \"#utility.yul\":17043:17063   */\n      sub\n        /* \"#utility.yul\":17039:17040   */\n      0x00\n        /* \"#utility.yul\":17028:17037   */\n      dup4\n        /* \"#utility.yul\":17024:17041   */\n      add\n        /* \"#utility.yul\":17017:17064   */\n      mstore\n        /* \"#utility.yul\":17081:17212   */\n      tag_469\n        /* \"#utility.yul\":17207:17211   */\n      dup2\n        /* \"#utility.yul\":17081:17212   */\n      tag_282\n      jump\t// in\n    tag_469:\n        /* \"#utility.yul\":17073:17212   */\n      swap1\n      pop\n        /* \"#utility.yul\":16800:17219   */\n      swap2\n      swap1\n      pop\n      jump\t// out\n        /* \"#utility.yul\":17225:17405   */\n    tag_283:\n        /* \"#utility.yul\":17273:17350   */\n      0x4e487b7100000000000000000000000000000000000000000000000000000000\n        /* \"#utility.yul\":17270:17271   */\n      0x00\n        /* \"#utility.yul\":17263:17351   */\n      mstore\n        /* \"#utility.yul\":17370:17374   */\n      0x11\n        /* \"#utility.yul\":17367:17368   */\n      0x04\n        /* \"#utility.yul\":17360:17375   */\n      mstore\n        /* \"#utility.yul\":17394:17398   */\n      0x24\n        /* \"#utility.yul\":17391:17392   */\n      0x00\n        /* \"#utility.yul\":17384:17399   */\n      revert\n        /* \"#utility.yul\":17411:17821   */\n    tag_116:\n        /* \"#utility.yul\":17451:17458   */\n      0x00\n        /* \"#utility.yul\":17474:17494   */\n      tag_472\n        /* \"#utility.yul\":17492:17493   */\n      dup3\n        /* \"#utility.yul\":17474:17494   */\n      tag_232\n      jump\t// in\n    tag_472:\n        /* \"#utility.yul\":17469:17494   */\n      swap2\n      pop\n        /* \"#utility.yul\":17508:17528   */\n      tag_473\n        /* \"#utility.yul\":17526:17527   */\n      dup4\n        /* \"#utility.yul\":17508:17528   */\n      tag_232\n      jump\t// in\n    tag_473:\n        /* \"#utility.yul\":17503:17528   */\n      swap3\n      pop\n        /* \"#utility.yul\":17563:17564   */\n      dup3\n        /* \"#utility.yul\":17560:17561   */\n      dup3\n        /* \"#utility.yul\":17556:17565   */\n      mul\n        /* \"#utility.yul\":17585:17615   */\n      tag_474\n        /* \"#utility.yul\":17603:17614   */\n      dup2\n        /* \"#utility.yul\":17585:17615   */\n      tag_232\n      jump\t// in\n    tag_474:\n        /* \"#utility.yul\":17574:17615   */\n      swap2\n      pop\n        /* \"#utility.yul\":17764:17765   */\n      dup3\n        /* \"#utility.yul\":17755:17762   */\n      dup3\n        /* \"#utility.yul\":17751:17766   */\n      div\n        /* \"#utility.yul\":17748:17749   */\n      dup5\n        /* \"#utility.yul\":17745:17767   */\n      eq\n        /* \"#utility.yul\":17725:17726   */\n      dup4\n        /* \"#utility.yul\":17718:17727   */\n      iszero\n        /* \"#utility.yul\":17698:17781   */\n      or\n        /* \"#utility.yul\":17675:17814   */\n      tag_475\n      jumpi\n        /* \"#utility.yul\":17794:17812   */\n      tag_476\n      tag_283\n      jump\t// in\n    tag_476:\n        /* \"#utility.yul\":17675:17814   */\n    tag_475:\n        /* \"#utility.yul\":17459:17821   */\n      pop\n        /* \"#utility.yul\":17411:17821   */\n      swap3\n      swap2\n      pop\n      pop\n      jump\t// out\n        /* \"#utility.yul\":17827:17998   */\n    tag_284:\n        /* \"#utility.yul\":17967:17990   */\n      0x496e73756666696369656e74204554482073656e740000000000000000000000\n        /* \"#utility.yul\":17963:17964   */\n      0x00\n        /* \"#utility.yul\":17955:17961   */\n      dup3\n        /* \"#utility.yul\":17951:17965   */\n      add\n        /* \"#utility.yul\":17944:17991   */\n      mstore\n        /* \"#utility.yul\":17827:17998   */\n      pop\n      jump\t// out\n        /* \"#utility.yul\":18004:18370   */\n    tag_285:\n        /* \"#utility.yul\":18146:18149   */\n      0x00\n        /* \"#utility.yul\":18167:18234   */\n      tag_479\n        /* \"#utility.yul\":18231:18233   */\n      0x15\n        /* \"#utility.yul\":18226:18229   */\n      dup4\n        /* \"#utility.yul\":18167:18234   */\n      tag_280\n      jump\t// in\n    tag_479:\n        /* \"#utility.yul\":18160:18234   */\n      swap2\n      pop\n        /* \"#utility.yul\":18243:18336   */\n      tag_480\n        /* \"#utility.yul\":18332:18335   */\n      dup3\n        /* \"#utility.yul\":18243:18336   */\n      tag_284\n      jump\t// in\n    tag_480:\n        /* \"#utility.yul\":18361:18363   */\n      0x20\n        /* \"#utility.yul\":18356:18359   */\n      dup3\n        /* \"#utility.yul\":18352:18364   */\n      add\n        /* \"#utility.yul\":18345:18364   */\n      swap1\n      pop\n        /* \"#utility.yul\":18004:18370   */\n      swap2\n      swap1\n      pop\n      jump\t// out\n        /* \"#utility.yul\":18376:18795   */\n    tag_119:\n        /* \"#utility.yul\":18542:18546   */\n      0x00\n        /* \"#utility.yul\":18580:18582   */\n      0x20\n        /* \"#utility.yul\":18569:18578   */\n      dup3\n        /* \"#utility.yul\":18565:18583   */\n      add\n        /* \"#utility.yul\":18557:18583   */\n      swap1\n      pop\n        /* \"#utility.yul\":18629:18638   */\n      dup2\n        /* \"#utility.yul\":18623:18627   */\n      dup2\n        /* \"#utility.yul\":18619:18639   */\n      sub\n        /* \"#utility.yul\":18615:18616   */\n      0x00\n        /* \"#utility.yul\":18604:18613   */\n      dup4\n        /* \"#utility.yul\":18600:18617   */\n      add\n        /* \"#utility.yul\":18593:18640   */\n      mstore\n        /* \"#utility.yul\":18657:18788   */\n      tag_482\n        /* \"#utility.yul\":18783:18787   */\n      dup2\n        /* \"#utility.yul\":18657:18788   */\n      tag_285\n      jump\t// in\n    tag_482:\n        /* \"#utility.yul\":18649:18788   */\n      swap1\n      pop\n        /* \"#utility.yul\":18376:18795   */\n      swap2\n      swap1\n      pop\n      jump\t// out\n        /* \"#utility.yul\":18801:19133   */\n    tag_123:\n        /* \"#utility.yul\":18922:18926   */\n      0x00\n        /* \"#utility.yul\":18960:18962   */\n      0x40\n        /* \"#utility.yul\":18949:18958   */\n      dup3\n        /* \"#utility.yul\":18945:18963   */\n      add\n        /* \"#utility.yul\":18937:18963   */\n      swap1\n      pop\n        /* \"#utility.yul\":18973:19044   */\n      tag_484\n        /* \"#utility.yul\":19041:19042   */\n      0x00\n        /* \"#utility.yul\":19030:19039   */\n      dup4\n        /* \"#utility.yul\":19026:19043   */\n      add\n        /* \"#utility.yul\":19017:19023   */\n      dup6\n        /* \"#utility.yul\":18973:19044   */\n      tag_258\n      jump\t// in\n    tag_484:\n        /* \"#utility.yul\":19054:19126   */\n      tag_485\n        /* \"#utility.yul\":19122:19124   */\n      0x20\n        /* \"#utility.yul\":19111:19120   */\n      dup4\n        /* \"#utility.yul\":19107:19125   */\n      add\n        /* \"#utility.yul\":19098:19104   */\n      dup5\n        /* \"#utility.yul\":19054:19126   */\n      tag_263\n      jump\t// in\n    tag_485:\n        /* \"#utility.yul\":18801:19133   */\n      swap4\n      swap3\n      pop\n      pop\n      pop\n      jump\t// out\n        /* \"#utility.yul\":19139:19255   */\n    tag_286:\n        /* \"#utility.yul\":19209:19230   */\n      tag_487\n        /* \"#utility.yul\":19224:19229   */\n      dup2\n        /* \"#utility.yul\":19209:19230   */\n      tag_244\n      jump\t// in\n    tag_487:\n        /* \"#utility.yul\":19202:19207   */\n      dup2\n        /* \"#utility.yul\":19199:19231   */\n      eq\n        /* \"#utility.yul\":19189:19249   */\n      tag_488\n      jumpi\n        /* \"#utility.yul\":19245:19246   */\n      0x00\n        /* \"#utility.yul\":19242:19243   */\n      dup1\n        /* \"#utility.yul\":19235:19247   */\n      revert\n        /* \"#utility.yul\":19189:19249   */\n    tag_488:\n        /* \"#utility.yul\":19139:19255   */\n      pop\n      jump\t// out\n        /* \"#utility.yul\":19261:19398   */\n    tag_287:\n        /* \"#utility.yul\":19315:19320   */\n      0x00\n        /* \"#utility.yul\":19346:19352   */\n      dup2\n        /* \"#utility.yul\":19340:19353   */\n      mload\n        /* \"#utility.yul\":19331:19353   */\n      swap1\n      pop\n        /* \"#utility.yul\":19362:19392   */\n      tag_490\n        /* \"#utility.yul\":19386:19391   */\n      dup2\n        /* \"#utility.yul\":19362:19392   */\n      tag_286\n      jump\t// in\n    tag_490:\n        /* \"#utility.yul\":19261:19398   */\n      swap3\n      swap2\n      pop\n      pop\n      jump\t// out\n        /* \"#utility.yul\":19404:19749   */\n    tag_127:\n        /* \"#utility.yul\":19471:19477   */\n      0x00\n        /* \"#utility.yul\":19520:19522   */\n      0x20\n        /* \"#utility.yul\":19508:19517   */\n      dup3\n        /* \"#utility.yul\":19499:19506   */\n      dup5\n        /* \"#utility.yul\":19495:19518   */\n      sub\n        /* \"#utility.yul\":19491:19523   */\n      slt\n        /* \"#utility.yul\":19488:19607   */\n      iszero\n      tag_492\n      jumpi\n        /* \"#utility.yul\":19526:19605   */\n      tag_493\n      tag_230\n      jump\t// in\n    tag_493:\n        /* \"#utility.yul\":19488:19607   */\n    tag_492:\n        /* \"#utility.yul\":19646:19647   */\n      0x00\n        /* \"#utility.yul\":19671:19732   */\n      tag_494\n        /* \"#utility.yul\":19724:19731   */\n      dup5\n        /* \"#utility.yul\":19715:19721   */\n      dup3\n        /* \"#utility.yul\":19704:19713   */\n      dup6\n        /* \"#utility.yul\":19700:19722   */\n      add\n        /* \"#utility.yul\":19671:19732   */\n      tag_287\n      jump\t// in\n    tag_494:\n        /* \"#utility.yul\":19661:19732   */\n      swap2\n      pop\n        /* \"#utility.yul\":19617:19742   */\n      pop\n        /* \"#utility.yul\":19404:19749   */\n      swap3\n      swap2\n      pop\n      pop\n      jump\t// out\n        /* \"#utility.yul\":19755:20087   */\n    tag_132:\n        /* \"#utility.yul\":19876:19880   */\n      0x00\n        /* \"#utility.yul\":19914:19916   */\n      0x40\n        /* \"#utility.yul\":19903:19912   */\n      dup3\n        /* \"#utility.yul\":19899:19917   */\n      add\n        /* \"#utility.yul\":19891:19917   */\n      swap1\n      pop\n        /* \"#utility.yul\":19927:19998   */\n      tag_496\n        /* \"#utility.yul\":19995:19996   */\n      0x00\n        /* \"#utility.yul\":19984:19993   */\n      dup4\n        /* \"#utility.yul\":19980:19997   */\n      add\n        /* \"#utility.yul\":19971:19977   */\n      dup6\n        /* \"#utility.yul\":19927:19998   */\n      tag_263\n      jump\t// in\n    tag_496:\n        /* \"#utility.yul\":20008:20080   */\n      tag_497\n        /* \"#utility.yul\":20076:20078   */\n      0x20\n        /* \"#utility.yul\":20065:20074   */\n      dup4\n        /* \"#utility.yul\":20061:20079   */\n      add\n        /* \"#utility.yul\":20052:20058   */\n      dup5\n        /* \"#utility.yul\":20008:20080   */\n      tag_263\n      jump\t// in\n    tag_497:\n        /* \"#utility.yul\":19755:20087   */\n      swap4\n      swap3\n      pop\n      pop\n      pop\n      jump\t// out\n        /* \"#utility.yul\":20093:20236   */\n    tag_288:\n        /* \"#utility.yul\":20150:20155   */\n      0x00\n        /* \"#utility.yul\":20181:20187   */\n      dup2\n        /* \"#utility.yul\":20175:20188   */\n      mload\n        /* \"#utility.yul\":20166:20188   */\n      swap1\n      pop\n        /* \"#utility.yul\":20197:20230   */\n      tag_499\n        /* \"#utility.yul\":20224:20229   */\n      dup2\n        /* \"#utility.yul\":20197:20230   */\n      tag_233\n      jump\t// in\n    tag_499:\n        /* \"#utility.yul\":20093:20236   */\n      swap3\n      swap2\n      pop\n      pop\n      jump\t// out\n        /* \"#utility.yul\":20242:20593   */\n    tag_143:\n        /* \"#utility.yul\":20312:20318   */\n      0x00\n        /* \"#utility.yul\":20361:20363   */\n      0x20\n        /* \"#utility.yul\":20349:20358   */\n      dup3\n        /* \"#utility.yul\":20340:20347   */\n      dup5\n        /* \"#utility.yul\":20336:20359   */\n      sub\n        /* \"#utility.yul\":20332:20364   */\n      slt\n        /* \"#utility.yul\":20329:20448   */\n      iszero\n      tag_501\n      jumpi\n        /* \"#utility.yul\":20367:20446   */\n      tag_502\n      tag_230\n      jump\t// in\n    tag_502:\n        /* \"#utility.yul\":20329:20448   */\n    tag_501:\n        /* \"#utility.yul\":20487:20488   */\n      0x00\n        /* \"#utility.yul\":20512:20576   */\n      tag_503\n        /* \"#utility.yul\":20568:20575   */\n      dup5\n        /* \"#utility.yul\":20559:20565   */\n      dup3\n        /* \"#utility.yul\":20548:20557   */\n      dup6\n        /* \"#utility.yul\":20544:20566   */\n      add\n        /* \"#utility.yul\":20512:20576   */\n      tag_288\n      jump\t// in\n    tag_503:\n        /* \"#utility.yul\":20502:20576   */\n      swap2\n      pop\n        /* \"#utility.yul\":20458:20586   */\n      pop\n        /* \"#utility.yul\":20242:20593   */\n      swap3\n      swap2\n      pop\n      pop\n      jump\t// out\n        /* \"#utility.yul\":20599:21041   */\n    tag_145:\n        /* \"#utility.yul\":20748:20752   */\n      0x00\n        /* \"#utility.yul\":20786:20788   */\n      0x60\n        /* \"#utility.yul\":20775:20784   */\n      dup3\n        /* \"#utility.yul\":20771:20789   */\n      add\n        /* \"#utility.yul\":20763:20789   */\n      swap1\n      pop\n        /* \"#utility.yul\":20799:20870   */\n      tag_505\n        /* \"#utility.yul\":20867:20868   */\n      0x00\n        /* \"#utility.yul\":20856:20865   */\n      dup4\n        /* \"#utility.yul\":20852:20869   */\n      add\n        /* \"#utility.yul\":20843:20849   */\n      dup7\n        /* \"#utility.yul\":20799:20870   */\n      tag_258\n      jump\t// in\n    tag_505:\n        /* \"#utility.yul\":20880:20952   */\n      tag_506\n        /* \"#utility.yul\":20948:20950   */\n      0x20\n        /* \"#utility.yul\":20937:20946   */\n      dup4\n        /* \"#utility.yul\":20933:20951   */\n      add\n        /* \"#utility.yul\":20924:20930   */\n      dup6\n        /* \"#utility.yul\":20880:20952   */\n      tag_258\n      jump\t// in\n    tag_506:\n        /* \"#utility.yul\":20962:21034   */\n      tag_507\n        /* \"#utility.yul\":21030:21032   */\n      0x40\n        /* \"#utility.yul\":21019:21028   */\n      dup4\n        /* \"#utility.yul\":21015:21033   */\n      add\n        /* \"#utility.yul\":21006:21012   */\n      dup5\n        /* \"#utility.yul\":20962:21034   */\n      tag_263\n      jump\t// in\n    tag_507:\n        /* \"#utility.yul\":20599:21041   */\n      swap5\n      swap4\n      pop\n      pop\n      pop\n      pop\n      jump\t// out\n        /* \"#utility.yul\":21047:21212   */\n    tag_289:\n        /* \"#utility.yul\":21187:21204   */\n      0x53616c65206e6f74206163746976650000000000000000000000000000000000\n        /* \"#utility.yul\":21183:21184   */\n      0x00\n        /* \"#utility.yul\":21175:21181   */\n      dup3\n        /* \"#utility.yul\":21171:21185   */\n      add\n        /* \"#utility.yul\":21164:21205   */\n      mstore\n        /* \"#utility.yul\":21047:21212   */\n      pop\n      jump\t// out\n        /* \"#utility.yul\":21218:21584   */\n    tag_290:\n        /* \"#utility.yul\":21360:21363   */\n      0x00\n        /* \"#utility.yul\":21381:21448   */\n      tag_510\n        /* \"#utility.yul\":21445:21447   */\n      0x0f\n        /* \"#utility.yul\":21440:21443   */\n      dup4\n        /* \"#utility.yul\":21381:21448   */\n      tag_280\n      jump\t// in\n    tag_510:\n        /* \"#utility.yul\":21374:21448   */\n      swap2\n      pop\n        /* \"#utility.yul\":21457:21550   */\n      tag_511\n        /* \"#utility.yul\":21546:21549   */\n      dup3\n        /* \"#utility.yul\":21457:21550   */\n      tag_289\n      jump\t// in\n    tag_511:\n        /* \"#utility.yul\":21575:21577   */\n      0x20\n        /* \"#utility.yul\":21570:21573   */\n      dup3\n        /* \"#utility.yul\":21566:21578   */\n      add\n        /* \"#utility.yul\":21559:21578   */\n      swap1\n      pop\n        /* \"#utility.yul\":21218:21584   */\n      swap2\n      swap1\n      pop\n      jump\t// out\n        /* \"#utility.yul\":21590:22009   */\n    tag_152:\n        /* \"#utility.yul\":21756:21760   */\n      0x00\n        /* \"#utility.yul\":21794:21796   */\n      0x20\n        /* \"#utility.yul\":21783:21792   */\n      dup3\n        /* \"#utility.yul\":21779:21797   */\n      add\n        /* \"#utility.yul\":21771:21797   */\n      swap1\n      pop\n        /* \"#utility.yul\":21843:21852   */\n      dup2\n        /* \"#utility.yul\":21837:21841   */\n      dup2\n        /* \"#utility.yul\":21833:21853   */\n      sub\n        /* \"#utility.yul\":21829:21830   */\n      0x00\n        /* \"#utility.yul\":21818:21827   */\n      dup4\n        /* \"#utility.yul\":21814:21831   */\n      add\n        /* \"#utility.yul\":21807:21854   */\n      mstore\n        /* \"#utility.yul\":21871:22002   */\n      tag_513\n        /* \"#utility.yul\":21997:22001   */\n      dup2\n        /* \"#utility.yul\":21871:22002   */\n      tag_290\n      jump\t// in\n    tag_513:\n        /* \"#utility.yul\":21863:22002   */\n      swap1\n      pop\n        /* \"#utility.yul\":21590:22009   */\n      swap2\n      swap1\n      pop\n      jump\t// out\n        /* \"#utility.yul\":22015:22178   */\n    tag_291:\n        /* \"#utility.yul\":22155:22170   */\n      0x4d7573742073656e642045544800000000000000000000000000000000000000\n        /* \"#utility.yul\":22151:22152   */\n      0x00\n        /* \"#utility.yul\":22143:22149   */\n      dup3\n        /* \"#utility.yul\":22139:22153   */\n      add\n        /* \"#utility.yul\":22132:22171   */\n      mstore\n        /* \"#utility.yul\":22015:22178   */\n      pop\n      jump\t// out\n        /* \"#utility.yul\":22184:22550   */\n    tag_292:\n        /* \"#utility.yul\":22326:22329   */\n      0x00\n        /* \"#utility.yul\":22347:22414   */\n      tag_516\n        /* \"#utility.yul\":22411:22413   */\n      0x0d\n        /* \"#utility.yul\":22406:22409   */\n      dup4\n        /* \"#utility.yul\":22347:22414   */\n      tag_280\n      jump\t// in\n    tag_516:\n        /* \"#utility.yul\":22340:22414   */\n      swap2\n      pop\n        /* \"#utility.yul\":22423:22516   */\n      tag_517\n        /* \"#utility.yul\":22512:22515   */\n      dup3\n        /* \"#utility.yul\":22423:22516   */\n      tag_291\n      jump\t// in\n    tag_517:\n        /* \"#utility.yul\":22541:22543   */\n      0x20\n        /* \"#utility.yul\":22536:22539   */\n      dup3\n        /* \"#utility.yul\":22532:22544   */\n      add\n        /* \"#utility.yul\":22525:22544   */\n      swap1\n      pop\n        /* \"#utility.yul\":22184:22550   */\n      swap2\n      swap1\n      pop\n      jump\t// out\n        /* \"#utility.yul\":22556:22975   */\n    tag_157:\n        /* \"#utility.yul\":22722:22726   */\n      0x00\n        /* \"#utility.yul\":22760:22762   */\n      0x20\n        /* \"#utility.yul\":22749:22758   */\n      dup3\n        /* \"#utility.yul\":22745:22763   */\n      add\n        /* \"#utility.yul\":22737:22763   */\n      swap1\n      pop\n        /* \"#utility.yul\":22809:22818   */\n      dup2\n        /* \"#utility.yul\":22803:22807   */\n      dup2\n        /* \"#utility.yul\":22799:22819   */\n      sub\n        /* \"#utility.yul\":22795:22796   */\n      0x00\n        /* \"#utility.yul\":22784:22793   */\n      dup4\n        /* \"#utility.yul\":22780:22797   */\n      add\n        /* \"#utility.yul\":22773:22820   */\n      mstore\n        /* \"#utility.yul\":22837:22968   */\n      tag_519\n        /* \"#utility.yul\":22963:22967   */\n      dup2\n        /* \"#utility.yul\":22837:22968   */\n      tag_292\n      jump\t// in\n    tag_519:\n        /* \"#utility.yul\":22829:22968   */\n      swap1\n      pop\n        /* \"#utility.yul\":22556:22975   */\n      swap2\n      swap1\n      pop\n      jump\t// out\n        /* \"#utility.yul\":22981:23161   */\n    tag_293:\n        /* \"#utility.yul\":23029:23106   */\n      0x4e487b7100000000000000000000000000000000000000000000000000000000\n        /* \"#utility.yul\":23026:23027   */\n      0x00\n        /* \"#utility.yul\":23019:23107   */\n      mstore\n        /* \"#utility.yul\":23126:23130   */\n      0x12\n        /* \"#utility.yul\":23123:23124   */\n      0x04\n        /* \"#utility.yul\":23116:23131   */\n      mstore\n        /* \"#utility.yul\":23150:23154   */\n      0x24\n        /* \"#utility.yul\":23147:23148   */\n      0x00\n        /* \"#utility.yul\":23140:23155   */\n      revert\n        /* \"#utility.yul\":23167:23352   */\n    tag_159:\n        /* \"#utility.yul\":23207:23208   */\n      0x00\n        /* \"#utility.yul\":23224:23244   */\n      tag_522\n        /* \"#utility.yul\":23242:23243   */\n      dup3\n        /* \"#utility.yul\":23224:23244   */\n      tag_232\n      jump\t// in\n    tag_522:\n        /* \"#utility.yul\":23219:23244   */\n      swap2\n      pop\n        /* \"#utility.yul\":23258:23278   */\n      tag_523\n        /* \"#utility.yul\":23276:23277   */\n      dup4\n        /* \"#utility.yul\":23258:23278   */\n      tag_232\n      jump\t// in\n    tag_523:\n        /* \"#utility.yul\":23253:23278   */\n      swap3\n      pop\n        /* \"#utility.yul\":23297:23298   */\n      dup3\n        /* \"#utility.yul\":23287:23322   */\n      tag_524\n      jumpi\n        /* \"#utility.yul\":23302:23320   */\n      tag_525\n      tag_293\n      jump\t// in\n    tag_525:\n        /* \"#utility.yul\":23287:23322   */\n    tag_524:\n        /* \"#utility.yul\":23344:23345   */\n      dup3\n        /* \"#utility.yul\":23341:23342   */\n      dup3\n        /* \"#utility.yul\":23337:23346   */\n      div\n        /* \"#utility.yul\":23332:23346   */\n      swap1\n      pop\n        /* \"#utility.yul\":23167:23352   */\n      swap3\n      swap2\n      pop\n      pop\n      jump\t// out\n        /* \"#utility.yul\":23358:23527   */\n    tag_294:\n        /* \"#utility.yul\":23498:23519   */\n      0x4e6f7420656e6f756768204554482073656e7400000000000000000000000000\n        /* \"#utility.yul\":23494:23495   */\n      0x00\n        /* \"#utility.yul\":23486:23492   */\n      dup3\n        /* \"#utility.yul\":23482:23496   */\n      add\n        /* \"#utility.yul\":23475:23520   */\n      mstore\n        /* \"#utility.yul\":23358:23527   */\n      pop\n      jump\t// out\n        /* \"#utility.yul\":23533:23899   */\n    tag_295:\n        /* \"#utility.yul\":23675:23678   */\n      0x00\n        /* \"#utility.yul\":23696:23763   */\n      tag_528\n        /* \"#utility.yul\":23760:23762   */\n      0x13\n        /* \"#utility.yul\":23755:23758   */\n      dup4\n        /* \"#utility.yul\":23696:23763   */\n      tag_280\n      jump\t// in\n    tag_528:\n        /* \"#utility.yul\":23689:23763   */\n      swap2\n      pop\n        /* \"#utility.yul\":23772:23865   */\n      tag_529\n        /* \"#utility.yul\":23861:23864   */\n      dup3\n        /* \"#utility.yul\":23772:23865   */\n      tag_294\n      jump\t// in\n    tag_529:\n        /* \"#utility.yul\":23890:23892   */\n      0x20\n        /* \"#utility.yul\":23885:23888   */\n      dup3\n        /* \"#utility.yul\":23881:23893   */\n      add\n        /* \"#utility.yul\":23874:23893   */\n      swap1\n      pop\n        /* \"#utility.yul\":23533:23899   */\n      swap2\n      swap1\n      pop\n      jump\t// out\n        /* \"#utility.yul\":23905:24324   */\n    tag_162:\n        /* \"#utility.yul\":24071:24075   */\n      0x00\n        /* \"#utility.yul\":24109:24111   */\n      0x20\n        /* \"#utility.yul\":24098:24107   */\n      dup3\n        /* \"#utility.yul\":24094:24112   */\n      add\n        /* \"#utility.yul\":24086:24112   */\n      swap1\n      pop\n        /* \"#utility.yul\":24158:24167   */\n      dup2\n        /* \"#utility.yul\":24152:24156   */\n      dup2\n        /* \"#utility.yul\":24148:24168   */\n      sub\n        /* \"#utility.yul\":24144:24145   */\n      0x00\n        /* \"#utility.yul\":24133:24142   */\n      dup4\n        /* \"#utility.yul\":24129:24146   */\n      add\n        /* \"#utility.yul\":24122:24169   */\n      mstore\n        /* \"#utility.yul\":24186:24317   */\n      tag_531\n        /* \"#utility.yul\":24312:24316   */\n      dup2\n        /* \"#utility.yul\":24186:24317   */\n      tag_295\n      jump\t// in\n    tag_531:\n        /* \"#utility.yul\":24178:24317   */\n      swap1\n      pop\n        /* \"#utility.yul\":23905:24324   */\n      swap2\n      swap1\n      pop\n      jump\t// out\n        /* \"#utility.yul\":24330:24470   */\n    tag_296:\n        /* \"#utility.yul\":24379:24388   */\n      0x00\n        /* \"#utility.yul\":24412:24464   */\n      tag_533\n        /* \"#utility.yul\":24430:24463   */\n      tag_534\n        /* \"#utility.yul\":24439:24462   */\n      tag_535\n        /* \"#utility.yul\":24456:24461   */\n      dup5\n        /* \"#utility.yul\":24439:24462   */\n      tag_241\n      jump\t// in\n    tag_535:\n        /* \"#utility.yul\":24430:24463   */\n      tag_236\n      jump\t// in\n    tag_534:\n        /* \"#utility.yul\":24412:24464   */\n      tag_232\n      jump\t// in\n    tag_533:\n        /* \"#utility.yul\":24399:24464   */\n      swap1\n      pop\n        /* \"#utility.yul\":24330:24470   */\n      swap2\n      swap1\n      pop\n      jump\t// out\n        /* \"#utility.yul\":24476:24605   */\n    tag_297:\n        /* \"#utility.yul\":24562:24598   */\n      tag_537\n        /* \"#utility.yul\":24592:24597   */\n      dup2\n        /* \"#utility.yul\":24562:24598   */\n      tag_296\n      jump\t// in\n    tag_537:\n        /* \"#utility.yul\":24557:24560   */\n      dup3\n        /* \"#utility.yul\":24550:24599   */\n      mstore\n        /* \"#utility.yul\":24476:24605   */\n      pop\n      pop\n      jump\t// out\n        /* \"#utility.yul\":24611:24941   */\n    tag_170:\n        /* \"#utility.yul\":24731:24735   */\n      0x00\n        /* \"#utility.yul\":24769:24771   */\n      0x40\n        /* \"#utility.yul\":24758:24767   */\n      dup3\n        /* \"#utility.yul\":24754:24772   */\n      add\n        /* \"#utility.yul\":24746:24772   */\n      swap1\n      pop\n        /* \"#utility.yul\":24782:24852   */\n      tag_539\n        /* \"#utility.yul\":24849:24850   */\n      0x00\n        /* \"#utility.yul\":24838:24847   */\n      dup4\n        /* \"#utility.yul\":24834:24851   */\n      add\n        /* \"#utility.yul\":24825:24831   */\n      dup6\n        /* \"#utility.yul\":24782:24852   */\n      tag_297\n      jump\t// in\n    tag_539:\n        /* \"#utility.yul\":24862:24934   */\n      tag_540\n        /* \"#utility.yul\":24930:24932   */\n      0x20\n        /* \"#utility.yul\":24919:24928   */\n      dup4\n        /* \"#utility.yul\":24915:24933   */\n      add\n        /* \"#utility.yul\":24906:24912   */\n      dup5\n        /* \"#utility.yul\":24862:24934   */\n      tag_263\n      jump\t// in\n    tag_540:\n        /* \"#utility.yul\":24611:24941   */\n      swap4\n      swap3\n      pop\n      pop\n      pop\n      jump\t// out\n        /* \"#utility.yul\":24947:25125   */\n    tag_298:\n        /* \"#utility.yul\":25087:25117   */\n      0x496e73756666696369656e7420546f6b656e7320546f204c6973742100000000\n        /* \"#utility.yul\":25083:25084   */\n      0x00\n        /* \"#utility.yul\":25075:25081   */\n      dup3\n        /* \"#utility.yul\":25071:25085   */\n      add\n        /* \"#utility.yul\":25064:25118   */\n      mstore\n        /* \"#utility.yul\":24947:25125   */\n      pop\n      jump\t// out\n        /* \"#utility.yul\":25131:25497   */\n    tag_299:\n        /* \"#utility.yul\":25273:25276   */\n      0x00\n        /* \"#utility.yul\":25294:25361   */\n      tag_543\n        /* \"#utility.yul\":25358:25360   */\n      0x1c\n        /* \"#utility.yul\":25353:25356   */\n      dup4\n        /* \"#utility.yul\":25294:25361   */\n      tag_280\n      jump\t// in\n    tag_543:\n        /* \"#utility.yul\":25287:25361   */\n      swap2\n      pop\n        /* \"#utility.yul\":25370:25463   */\n      tag_544\n        /* \"#utility.yul\":25459:25462   */\n      dup3\n        /* \"#utility.yul\":25370:25463   */\n      tag_298\n      jump\t// in\n    tag_544:\n        /* \"#utility.yul\":25488:25490   */\n      0x20\n        /* \"#utility.yul\":25483:25486   */\n      dup3\n        /* \"#utility.yul\":25479:25491   */\n      add\n        /* \"#utility.yul\":25472:25491   */\n      swap1\n      pop\n        /* \"#utility.yul\":25131:25497   */\n      swap2\n      swap1\n      pop\n      jump\t// out\n        /* \"#utility.yul\":25503:25922   */\n    tag_183:\n        /* \"#utility.yul\":25669:25673   */\n      0x00\n        /* \"#utility.yul\":25707:25709   */\n      0x20\n        /* \"#utility.yul\":25696:25705   */\n      dup3\n        /* \"#utility.yul\":25692:25710   */\n      add\n        /* \"#utility.yul\":25684:25710   */\n      swap1\n      pop\n        /* \"#utility.yul\":25756:25765   */\n      dup2\n        /* \"#utility.yul\":25750:25754   */\n      dup2\n        /* \"#utility.yul\":25746:25766   */\n      sub\n        /* \"#utility.yul\":25742:25743   */\n      0x00\n        /* \"#utility.yul\":25731:25740   */\n      dup4\n        /* \"#utility.yul\":25727:25744   */\n      add\n        /* \"#utility.yul\":25720:25767   */\n      mstore\n        /* \"#utility.yul\":25784:25915   */\n      tag_546\n        /* \"#utility.yul\":25910:25914   */\n      dup2\n        /* \"#utility.yul\":25784:25915   */\n      tag_299\n      jump\t// in\n    tag_546:\n        /* \"#utility.yul\":25776:25915   */\n      swap1\n      pop\n        /* \"#utility.yul\":25503:25922   */\n      swap2\n      swap1\n      pop\n      jump\t// out\n        /* \"#utility.yul\":25928:26161   */\n    tag_185:\n        /* \"#utility.yul\":25967:25970   */\n      0x00\n        /* \"#utility.yul\":25990:26014   */\n      tag_548\n        /* \"#utility.yul\":26008:26013   */\n      dup3\n        /* \"#utility.yul\":25990:26014   */\n      tag_232\n      jump\t// in\n    tag_548:\n        /* \"#utility.yul\":25981:26014   */\n      swap2\n      pop\n        /* \"#utility.yul\":26036:26102   */\n      0xffffffffffffffffffffffffffffffffffffffffffffffffffffffffffffffff\n        /* \"#utility.yul\":26029:26034   */\n      dup3\n        /* \"#utility.yul\":26026:26103   */\n      sub\n        /* \"#utility.yul\":26023:26126   */\n      tag_549\n      jumpi\n        /* \"#utility.yul\":26106:26124   */\n      tag_550\n      tag_283\n      jump\t// in\n    tag_550:\n        /* \"#utility.yul\":26023:26126   */\n    tag_549:\n        /* \"#utility.yul\":26153:26154   */\n      0x01\n        /* \"#utility.yul\":26146:26151   */\n      dup3\n        /* \"#utility.yul\":26142:26155   */\n      add\n        /* \"#utility.yul\":26135:26155   */\n      swap1\n      pop\n        /* \"#utility.yul\":25928:26161   */\n      swap2\n      swap1\n      pop\n      jump\t// out\n\n    auxdata: 0xa26469706673582212209cebfe64576872486031a9ce1420c7ac1849dfe8db2a2117dfddc7b6e065bca564736f6c634300081a0033\n}\n",
				"bytecode": {
					"linkReferences": {},
					"object": "6080604052600160045f6101000a81548160ff021916908315150217905550348015610029575f80fd5b50604051612681380380612681833981810160405281019061004b91906102be565b335f73ffffffffffffffffffffffffffffffffffffffff168173ffffffffffffffffffffffffffffffffffffffff16036100bc575f6040517f1e4fbdf70000000000000000000000000000000000000000000000000000000081526004016100b3919061030b565b60405180910390fd5b6100cb8161015360201b60201c565b508160015f6101000a81548173ffffffffffffffffffffffffffffffffffffffff021916908373ffffffffffffffffffffffffffffffffffffffff1602179055508060025f6101000a81548173ffffffffffffffffffffffffffffffffffffffff021916908373ffffffffffffffffffffffffffffffffffffffff1602179055505050610324565b5f805f9054906101000a900473ffffffffffffffffffffffffffffffffffffffff169050815f806101000a81548173ffffffffffffffffffffffffffffffffffffffff021916908373ffffffffffffffffffffffffffffffffffffffff1602179055508173ffffffffffffffffffffffffffffffffffffffff168173ffffffffffffffffffffffffffffffffffffffff167f8be0079c531659141344cd1fd0a4f28419497f9722a3daafe3b4186f6b6457e060405160405180910390a35050565b5f80fd5b5f73ffffffffffffffffffffffffffffffffffffffff82169050919050565b5f61024182610218565b9050919050565b5f61025282610237565b9050919050565b61026281610248565b811461026c575f80fd5b50565b5f8151905061027d81610259565b92915050565b5f61028d82610237565b9050919050565b61029d81610283565b81146102a7575f80fd5b50565b5f815190506102b881610294565b92915050565b5f80604083850312156102d4576102d3610214565b5b5f6102e18582860161026f565b92505060206102f2858286016102aa565b9150509250929050565b61030581610237565b82525050565b5f60208201905061031e5f8301846102fc565b92915050565b612350806103315f395ff3fe608060405260043610610108575f3560e01c80638da5cb5b11610094578063b08a1adf11610063578063b08a1adf1461030a578063ca716b1514610349578063d56d229d14610388578063f2fde38b146103b2578063f51f96dd146103da57610108565b80638da5cb5b1461023e57806398792eec14610268578063a2931fe8146102a4578063a9b07c26146102e057610108565b8063665b3cc1116100db578063665b3cc11461019057806368428a1b146101ac578063715018a6146101d657806375c1631d146101ec5780638125e3ac1461021457610108565b80630299c6eb1461010c578063457dfc67146101285780634aee1de114610152578063640b29d51461017a575b5f80fd5b61012660048036038101906101219190611735565b610404565b005b348015610133575f80fd5b5061013c610854565b60405161014991906117da565b60405180910390f35b34801561015d575f80fd5b5061017860048036038101906101739190611735565b610879565b005b348015610185575f80fd5b5061018e61088b565b005b6101aa60048036038101906101a5919061182a565b6109c1565b005b3480156101b7575f80fd5b506101c0610d1f565b6040516101cd919061186f565b60405180910390f35b3480156101e1575f80fd5b506101ea610d31565b005b3480156101f7575f80fd5b50610212600480360381019061020d9190611888565b610d44565b005b34801561021f575f80fd5b5061022861100a565b6040516102359190611a0e565b60405180910390f35b348015610249575f80fd5b50610252611158565b60405161025f9190611a3d565b60405180910390f35b348015610273575f80fd5b5061028e60048036038101906102899190611735565b61117f565b60405161029b9190611ab8565b60405180910390f35b3480156102af575f80fd5b506102ca60048036038101906102c59190611afb565b611246565b6040516102d79190611b35565b60405180910390f35b3480156102eb575f80fd5b506102f461138c565b6040516103019190611b35565b60405180910390f35b348015610315575f80fd5b50610330600480360381019061032b9190611c8a565b611392565b6040516103409493929190611cf3565b60405180910390f35b348015610354575f80fd5b5061036f600480360381019061036a9190611c8a565b61143d565b60405161037f9493929190611d36565b60405180910390f35b348015610393575f80fd5b5061039c6114b7565b6040516103a99190611d99565b60405180910390f35b3480156103bd575f80fd5b506103d860048036038101906103d39190611afb565b6114dc565b005b3480156103e5575f80fd5b506103ee611560565b6040516103fb9190611b35565b60405180910390f35b5f600660405161041390611e06565b90815260200160405180910390205f8381526020019081526020015f206040518060800160405290815f82015f9054906101000a900473ffffffffffffffffffffffffffffffffffffffff1673ffffffffffffffffffffffffffffffffffffffff1673ffffffffffffffffffffffffffffffffffffffff1681526020016001820154815260200160028201548152602001600382015f9054906101000a900460ff16151515158152505090508060600151610503576040517f08c379a00000000000000000000000000000000000000000000000000000000081526004016104fa90611e74565b60405180910390fd5b806040015181602001516105179190611ebf565b341015610559576040517f08c379a000000000000000000000000000000000000000000000000000000000815260040161055090611f4a565b60405180910390fd5b600560405161056790611e06565b90815260200160405180910390206040518060800160405280835f015173ffffffffffffffffffffffffffffffffffffffff1681526020013373ffffffffffffffffffffffffffffffffffffffff168152602001836020015181526020014263ffffffff16815250908060018154018082558091505060019003905f5260205f2090600402015f909190919091505f820151815f015f6101000a81548173ffffffffffffffffffffffffffffffffffffffff021916908373ffffffffffffffffffffffffffffffffffffffff1602179055506020820151816001015f6101000a81548173ffffffffffffffffffffffffffffffffffffffff021916908373ffffffffffffffffffffffffffffffffffffffff160217905550604082015181600201556060820151816003015f6101000a81548163ffffffff021916908363ffffffff160217905550505060015f9054906101000a900473ffffffffffffffffffffffffffffffffffffffff1673ffffffffffffffffffffffffffffffffffffffff1663a9059cbb3383602001516040518363ffffffff1660e01b8152600401610711929190611f68565b6020604051808303815f875af115801561072d573d5f803e3d5ffd5b505050506040513d601f19601f820116820180604052508101906107519190611fb9565b50805f015173ffffffffffffffffffffffffffffffffffffffff166108fc3490811502906040515f60405180830381858888f19350505050158015610798573d5f803e3d5ffd5b505f60066040516107a890611e06565b90815260200160405180910390205f8481526020019081526020015f206003015f6101000a81548160ff0219169083151502179055503373ffffffffffffffffffffffffffffffffffffffff16815f015173ffffffffffffffffffffffffffffffffffffffff167f8daf503382665d950e449b86172be5222275c90f4ddf69c29fdaa8237a562a6d83602001518460400151604051610848929190611fe4565b60405180910390a35050565b60015f9054906101000a900473ffffffffffffffffffffffffffffffffffffffff1681565b610881611566565b8060038190555050565b610893611566565b60015f9054906101000a900473ffffffffffffffffffffffffffffffffffffffff1673ffffffffffffffffffffffffffffffffffffffff166323b872dd333060015f9054906101000a900473ffffffffffffffffffffffffffffffffffffffff1673ffffffffffffffffffffffffffffffffffffffff166318160ddd6040518163ffffffff1660e01b8152600401602060405180830381865afa15801561093c573d5f803e3d5ffd5b505050506040513d601f19601f82011682018060405250810190610960919061201f565b6040518463ffffffff1660e01b815260040161097e9392919061204a565b6020604051808303815f875af115801561099a573d5f803e3d5ffd5b505050506040513d601f19601f820116820180604052508101906109be9190611fb9565b50565b60045f9054906101000a900460ff16610a0f576040517f08c379a0000000000000000000000000000000000000000000000000000000008152600401610a06906120c9565b60405180910390fd5b5f34118015610a2e57508061ffff16600354610a2b9190611ebf565b34145b610a6d576040517f08c379a0000000000000000000000000000000000000000000000000000000008152600401610a6490612131565b60405180910390fd5b5f60035434610a7c919061217c565b90505f8111610ac0576040517f08c379a0000000000000000000000000000000000000000000000000000000008152600401610ab7906121f6565b60405180910390fd5b6005604051610ace90611e06565b908152602001604051809103902060405180608001604052803073ffffffffffffffffffffffffffffffffffffffff1681526020013373ffffffffffffffffffffffffffffffffffffffff1681526020018461ffff1681526020014263ffffffff16815250908060018154018082558091505060019003905f5260205f2090600402015f909190919091505f820151815f015f6101000a81548173ffffffffffffffffffffffffffffffffffffffff021916908373ffffffffffffffffffffffffffffffffffffffff1602179055506020820151816001015f6101000a81548173ffffffffffffffffffffffffffffffffffffffff021916908373ffffffffffffffffffffffffffffffffffffffff160217905550604082015181600201556060820151816003015f6101000a81548163ffffffff021916908363ffffffff160217905550505060015f9054906101000a900473ffffffffffffffffffffffffffffffffffffffff1673ffffffffffffffffffffffffffffffffffffffff1663a9059cbb33836040518363ffffffff1660e01b8152600401610c71929190611f68565b6020604051808303815f875af1158015610c8d573d5f803e3d5ffd5b505050506040513d601f19601f82011682018060405250810190610cb19190611fb9565b503373ffffffffffffffffffffffffffffffffffffffff163073ffffffffffffffffffffffffffffffffffffffff167f8daf503382665d950e449b86172be5222275c90f4ddf69c29fdaa8237a562a6d84600354604051610d13929190612244565b60405180910390a35050565b60045f9054906101000a900460ff1681565b610d39611566565b610d425f6115ed565b565b8160015f9054906101000a900473ffffffffffffffffffffffffffffffffffffffff1673ffffffffffffffffffffffffffffffffffffffff166370a08231336040518263ffffffff1660e01b8152600401610d9f9190611a3d565b602060405180830381865afa158015610dba573d5f803e3d5ffd5b505050506040513d601f19601f82011682018060405250810190610dde919061201f565b1015610e1f576040517f08c379a0000000000000000000000000000000000000000000000000000000008152600401610e16906122b5565b60405180910390fd5b60075f815480929190610e31906122d3565b919050555060405180608001604052803373ffffffffffffffffffffffffffffffffffffffff168152602001838152602001828152602001600115158152506006604051610e7e90611e06565b90815260200160405180910390205f60075481526020019081526020015f205f820151815f015f6101000a81548173ffffffffffffffffffffffffffffffffffffffff021916908373ffffffffffffffffffffffffffffffffffffffff16021790555060208201518160010155604082015181600201556060820151816003015f6101000a81548160ff02191690831515021790555090505060015f9054906101000a900473ffffffffffffffffffffffffffffffffffffffff1673ffffffffffffffffffffffffffffffffffffffff166323b872dd3330856040518463ffffffff1660e01b8152600401610f759392919061204a565b6020604051808303815f875af1158015610f91573d5f803e3d5ffd5b505050506040513d601f19601f82011682018060405250810190610fb59190611fb9565b503373ffffffffffffffffffffffffffffffffffffffff167f5dc96537cbae524775a674b6a810d9a1ba04a9e279f172d156b352151394677a8383604051610ffe929190611fe4565b60405180910390a25050565b6060600560405161101a90611e06565b9081526020016040518091039020805480602002602001604051908101604052809291908181526020015f905b8282101561114f578382905f5260205f2090600402016040518060800160405290815f82015f9054906101000a900473ffffffffffffffffffffffffffffffffffffffff1673ffffffffffffffffffffffffffffffffffffffff1673ffffffffffffffffffffffffffffffffffffffff168152602001600182015f9054906101000a900473ffffffffffffffffffffffffffffffffffffffff1673ffffffffffffffffffffffffffffffffffffffff1673ffffffffffffffffffffffffffffffffffffffff16815260200160028201548152602001600382015f9054906101000a900463ffffffff1663ffffffff1663ffffffff168152505081526020019060010190611047565b50505050905090565b5f805f9054906101000a900473ffffffffffffffffffffffffffffffffffffffff16905090565b6111876116b5565b600660405161119590611e06565b90815260200160405180910390205f8381526020019081526020015f206040518060800160405290815f82015f9054906101000a900473ffffffffffffffffffffffffffffffffffffffff1673ffffffffffffffffffffffffffffffffffffffff1673ffffffffffffffffffffffffffffffffffffffff1681526020016001820154815260200160028201548152602001600382015f9054906101000a900460ff1615151515815250509050919050565b5f60015f9054906101000a900473ffffffffffffffffffffffffffffffffffffffff1673ffffffffffffffffffffffffffffffffffffffff166318160ddd6040518163ffffffff1660e01b8152600401602060405180830381865afa1580156112b1573d5f803e3d5ffd5b505050506040513d601f19601f820116820180604052508101906112d5919061201f565b61271060015f9054906101000a900473ffffffffffffffffffffffffffffffffffffffff1673ffffffffffffffffffffffffffffffffffffffff166370a08231856040518263ffffffff1660e01b81526004016113329190611a3d565b602060405180830381865afa15801561134d573d5f803e3d5ffd5b505050506040513d601f19601f82011682018060405250810190611371919061201f565b61137b9190611ebf565b611385919061217c565b9050919050565b60075481565b60058280516020810182018051848252602083016020850120818352809550505050505081815481106113c3575f80fd5b905f5260205f2090600402015f9150915050805f015f9054906101000a900473ffffffffffffffffffffffffffffffffffffffff1690806001015f9054906101000a900473ffffffffffffffffffffffffffffffffffffffff1690806002015490806003015f9054906101000a900463ffffffff16905084565b600682805160208101820180518482526020830160208501208183528095505050505050602052805f5260405f205f9150915050805f015f9054906101000a900473ffffffffffffffffffffffffffffffffffffffff1690806001015490806002015490806003015f9054906101000a900460ff16905084565b60025f9054906101000a900473ffffffffffffffffffffffffffffffffffffffff1681565b6114e4611566565b5f73ffffffffffffffffffffffffffffffffffffffff168173ffffffffffffffffffffffffffffffffffffffff1603611554575f6040517f1e4fbdf700000000000000000000000000000000000000000000000000000000815260040161154b9190611a3d565b60405180910390fd5b61155d816115ed565b50565b60035481565b61156e6116ae565b73ffffffffffffffffffffffffffffffffffffffff1661158c611158565b73ffffffffffffffffffffffffffffffffffffffff16146115eb576115af6116ae565b6040517f118cdaa70000000000000000000000000000000000000000000000000000000081526004016115e29190611a3d565b60405180910390fd5b565b5f805f9054906101000a900473ffffffffffffffffffffffffffffffffffffffff169050815f806101000a81548173ffffffffffffffffffffffffffffffffffffffff021916908373ffffffffffffffffffffffffffffffffffffffff1602179055508173ffffffffffffffffffffffffffffffffffffffff168173ffffffffffffffffffffffffffffffffffffffff167f8be0079c531659141344cd1fd0a4f28419497f9722a3daafe3b4186f6b6457e060405160405180910390a35050565b5f33905090565b60405180608001604052805f73ffffffffffffffffffffffffffffffffffffffff1681526020015f81526020015f81526020015f151581525090565b5f604051905090565b5f80fd5b5f80fd5b5f819050919050565b61171481611702565b811461171e575f80fd5b50565b5f8135905061172f8161170b565b92915050565b5f6020828403121561174a576117496116fa565b5b5f61175784828501611721565b91505092915050565b5f73ffffffffffffffffffffffffffffffffffffffff82169050919050565b5f819050919050565b5f6117a261179d61179884611760565b61177f565b611760565b9050919050565b5f6117b382611788565b9050919050565b5f6117c4826117a9565b9050919050565b6117d4816117ba565b82525050565b5f6020820190506117ed5f8301846117cb565b92915050565b5f61ffff82169050919050565b611809816117f3565b8114611813575f80fd5b50565b5f8135905061182481611800565b92915050565b5f6020828403121561183f5761183e6116fa565b5b5f61184c84828501611816565b91505092915050565b5f8115159050919050565b61186981611855565b82525050565b5f6020820190506118825f830184611860565b92915050565b5f806040838503121561189e5761189d6116fa565b5b5f6118ab85828601611721565b92505060206118bc85828601611721565b9150509250929050565b5f81519050919050565b5f82825260208201905092915050565b5f819050602082019050919050565b5f6118f982611760565b9050919050565b611909816118ef565b82525050565b61191881611702565b82525050565b5f63ffffffff82169050919050565b6119368161191e565b82525050565b608082015f8201516119505f850182611900565b5060208201516119636020850182611900565b506040820151611976604085018261190f565b506060820151611989606085018261192d565b50505050565b5f61199a838361193c565b60808301905092915050565b5f602082019050919050565b5f6119bc826118c6565b6119c681856118d0565b93506119d1836118e0565b805f5b83811015611a015781516119e8888261198f565b97506119f3836119a6565b9250506001810190506119d4565b5085935050505092915050565b5f6020820190508181035f830152611a2681846119b2565b905092915050565b611a37816118ef565b82525050565b5f602082019050611a505f830184611a2e565b92915050565b611a5f81611855565b82525050565b608082015f820151611a795f850182611900565b506020820151611a8c602085018261190f565b506040820151611a9f604085018261190f565b506060820151611ab26060850182611a56565b50505050565b5f608082019050611acb5f830184611a65565b92915050565b611ada816118ef565b8114611ae4575f80fd5b50565b5f81359050611af581611ad1565b92915050565b5f60208284031215611b1057611b0f6116fa565b5b5f611b1d84828501611ae7565b91505092915050565b611b2f81611702565b82525050565b5f602082019050611b485f830184611b26565b92915050565b5f80fd5b5f80fd5b5f601f19601f8301169050919050565b7f4e487b71000000000000000000000000000000000000000000000000000000005f52604160045260245ffd5b611b9c82611b56565b810181811067ffffffffffffffff82111715611bbb57611bba611b66565b5b80604052505050565b5f611bcd6116f1565b9050611bd98282611b93565b919050565b5f67ffffffffffffffff821115611bf857611bf7611b66565b5b611c0182611b56565b9050602081019050919050565b828183375f83830152505050565b5f611c2e611c2984611bde565b611bc4565b905082815260208101848484011115611c4a57611c49611b52565b5b611c55848285611c0e565b509392505050565b5f82601f830112611c7157611c70611b4e565b5b8135611c81848260208601611c1c565b91505092915050565b5f8060408385031215611ca057611c9f6116fa565b5b5f83013567ffffffffffffffff811115611cbd57611cbc6116fe565b5b611cc985828601611c5d565b9250506020611cda85828601611721565b9150509250929050565b611ced8161191e565b82525050565b5f608082019050611d065f830187611a2e565b611d136020830186611a2e565b611d206040830185611b26565b611d2d6060830184611ce4565b95945050505050565b5f608082019050611d495f830187611a2e565b611d566020830186611b26565b611d636040830185611b26565b611d706060830184611860565b95945050505050565b5f611d83826117a9565b9050919050565b611d9381611d79565b82525050565b5f602082019050611dac5f830184611d8a565b92915050565b5f81905092915050565b7f49524543000000000000000000000000000000000000000000000000000000005f82015250565b5f611df0600483611db2565b9150611dfb82611dbc565b600482019050919050565b5f611e1082611de4565b9150819050919050565b5f82825260208201905092915050565b7f546f6b656e206e6f7420616374697665000000000000000000000000000000005f82015250565b5f611e5e601083611e1a565b9150611e6982611e2a565b602082019050919050565b5f6020820190508181035f830152611e8b81611e52565b9050919050565b7f4e487b71000000000000000000000000000000000000000000000000000000005f52601160045260245ffd5b5f611ec982611702565b9150611ed483611702565b9250828202611ee281611702565b91508282048414831517611ef957611ef8611e92565b5b5092915050565b7f496e73756666696369656e74204554482073656e7400000000000000000000005f82015250565b5f611f34601583611e1a565b9150611f3f82611f00565b602082019050919050565b5f6020820190508181035f830152611f6181611f28565b9050919050565b5f604082019050611f7b5f830185611a2e565b611f886020830184611b26565b9392505050565b611f9881611855565b8114611fa2575f80fd5b50565b5f81519050611fb381611f8f565b92915050565b5f60208284031215611fce57611fcd6116fa565b5b5f611fdb84828501611fa5565b91505092915050565b5f604082019050611ff75f830185611b26565b6120046020830184611b26565b9392505050565b5f815190506120198161170b565b92915050565b5f60208284031215612034576120336116fa565b5b5f6120418482850161200b565b91505092915050565b5f60608201905061205d5f830186611a2e565b61206a6020830185611a2e565b6120776040830184611b26565b949350505050565b7f53616c65206e6f742061637469766500000000000000000000000000000000005f82015250565b5f6120b3600f83611e1a565b91506120be8261207f565b602082019050919050565b5f6020820190508181035f8301526120e0816120a7565b9050919050565b7f4d7573742073656e6420455448000000000000000000000000000000000000005f82015250565b5f61211b600d83611e1a565b9150612126826120e7565b602082019050919050565b5f6020820190508181035f8301526121488161210f565b9050919050565b7f4e487b71000000000000000000000000000000000000000000000000000000005f52601260045260245ffd5b5f61218682611702565b915061219183611702565b9250826121a1576121a061214f565b5b828204905092915050565b7f4e6f7420656e6f756768204554482073656e74000000000000000000000000005f82015250565b5f6121e0601383611e1a565b91506121eb826121ac565b602082019050919050565b5f6020820190508181035f83015261220d816121d4565b9050919050565b5f61222e612229612224846117f3565b61177f565b611702565b9050919050565b61223e81612214565b82525050565b5f6040820190506122575f830185612235565b6122646020830184611b26565b9392505050565b7f496e73756666696369656e7420546f6b656e7320546f204c69737421000000005f82015250565b5f61229f601c83611e1a565b91506122aa8261226b565b602082019050919050565b5f6020820190508181035f8301526122cc81612293565b9050919050565b5f6122dd82611702565b91507fffffffffffffffffffffffffffffffffffffffffffffffffffffffffffffffff820361230f5761230e611e92565b5b60018201905091905056fea26469706673582212209cebfe64576872486031a9ce1420c7ac1849dfe8db2a2117dfddc7b6e065bca564736f6c634300081a0033",
					"opcodes": "PUSH1 0x80 PUSH1 0x40 MSTORE PUSH1 0x1 PUSH1 0x4 PUSH0 PUSH2 0x100 EXP DUP2 SLOAD DUP2 PUSH1 0xFF MUL NOT AND SWAP1 DUP4 ISZERO ISZERO MUL OR SWAP1 SSTORE POP CALLVALUE DUP1 ISZERO PUSH2 0x29 JUMPI PUSH0 DUP1 REVERT JUMPDEST POP PUSH1 0x40 MLOAD PUSH2 0x2681 CODESIZE SUB DUP1 PUSH2 0x2681 DUP4 CODECOPY DUP2 DUP2 ADD PUSH1 0x40 MSTORE DUP2 ADD SWAP1 PUSH2 0x4B SWAP2 SWAP1 PUSH2 0x2BE JUMP JUMPDEST CALLER PUSH0 PUSH20 0xFFFFFFFFFFFFFFFFFFFFFFFFFFFFFFFFFFFFFFFF AND DUP2 PUSH20 0xFFFFFFFFFFFFFFFFFFFFFFFFFFFFFFFFFFFFFFFF AND SUB PUSH2 0xBC JUMPI PUSH0 PUSH1 0x40 MLOAD PUSH32 0x1E4FBDF700000000000000000000000000000000000000000000000000000000 DUP2 MSTORE PUSH1 0x4 ADD PUSH2 0xB3 SWAP2 SWAP1 PUSH2 0x30B JUMP JUMPDEST PUSH1 0x40 MLOAD DUP1 SWAP2 SUB SWAP1 REVERT JUMPDEST PUSH2 0xCB DUP2 PUSH2 0x153 PUSH1 0x20 SHL PUSH1 0x20 SHR JUMP JUMPDEST POP DUP2 PUSH1 0x1 PUSH0 PUSH2 0x100 EXP DUP2 SLOAD DUP2 PUSH20 0xFFFFFFFFFFFFFFFFFFFFFFFFFFFFFFFFFFFFFFFF MUL NOT AND SWAP1 DUP4 PUSH20 0xFFFFFFFFFFFFFFFFFFFFFFFFFFFFFFFFFFFFFFFF AND MUL OR SWAP1 SSTORE POP DUP1 PUSH1 0x2 PUSH0 PUSH2 0x100 EXP DUP2 SLOAD DUP2 PUSH20 0xFFFFFFFFFFFFFFFFFFFFFFFFFFFFFFFFFFFFFFFF MUL NOT AND SWAP1 DUP4 PUSH20 0xFFFFFFFFFFFFFFFFFFFFFFFFFFFFFFFFFFFFFFFF AND MUL OR SWAP1 SSTORE POP POP POP PUSH2 0x324 JUMP JUMPDEST PUSH0 DUP1 PUSH0 SWAP1 SLOAD SWAP1 PUSH2 0x100 EXP SWAP1 DIV PUSH20 0xFFFFFFFFFFFFFFFFFFFFFFFFFFFFFFFFFFFFFFFF AND SWAP1 POP DUP2 PUSH0 DUP1 PUSH2 0x100 EXP DUP2 SLOAD DUP2 PUSH20 0xFFFFFFFFFFFFFFFFFFFFFFFFFFFFFFFFFFFFFFFF MUL NOT AND SWAP1 DUP4 PUSH20 0xFFFFFFFFFFFFFFFFFFFFFFFFFFFFFFFFFFFFFFFF AND MUL OR SWAP1 SSTORE POP DUP2 PUSH20 0xFFFFFFFFFFFFFFFFFFFFFFFFFFFFFFFFFFFFFFFF AND DUP2 PUSH20 0xFFFFFFFFFFFFFFFFFFFFFFFFFFFFFFFFFFFFFFFF AND PUSH32 0x8BE0079C531659141344CD1FD0A4F28419497F9722A3DAAFE3B4186F6B6457E0 PUSH1 0x40 MLOAD PUSH1 0x40 MLOAD DUP1 SWAP2 SUB SWAP1 LOG3 POP POP JUMP JUMPDEST PUSH0 DUP1 REVERT JUMPDEST PUSH0 PUSH20 0xFFFFFFFFFFFFFFFFFFFFFFFFFFFFFFFFFFFFFFFF DUP3 AND SWAP1 POP SWAP2 SWAP1 POP JUMP JUMPDEST PUSH0 PUSH2 0x241 DUP3 PUSH2 0x218 JUMP JUMPDEST SWAP1 POP SWAP2 SWAP1 POP JUMP JUMPDEST PUSH0 PUSH2 0x252 DUP3 PUSH2 0x237 JUMP JUMPDEST SWAP1 POP SWAP2 SWAP1 POP JUMP JUMPDEST PUSH2 0x262 DUP2 PUSH2 0x248 JUMP JUMPDEST DUP2 EQ PUSH2 0x26C JUMPI PUSH0 DUP1 REVERT JUMPDEST POP JUMP JUMPDEST PUSH0 DUP2 MLOAD SWAP1 POP PUSH2 0x27D DUP2 PUSH2 0x259 JUMP JUMPDEST SWAP3 SWAP2 POP POP JUMP JUMPDEST PUSH0 PUSH2 0x28D DUP3 PUSH2 0x237 JUMP JUMPDEST SWAP1 POP SWAP2 SWAP1 POP JUMP JUMPDEST PUSH2 0x29D DUP2 PUSH2 0x283 JUMP JUMPDEST DUP2 EQ PUSH2 0x2A7 JUMPI PUSH0 DUP1 REVERT JUMPDEST POP JUMP JUMPDEST PUSH0 DUP2 MLOAD SWAP1 POP PUSH2 0x2B8 DUP2 PUSH2 0x294 JUMP JUMPDEST SWAP3 SWAP2 POP POP JUMP JUMPDEST PUSH0 DUP1 PUSH1 0x40 DUP4 DUP6 SUB SLT ISZERO PUSH2 0x2D4 JUMPI PUSH2 0x2D3 PUSH2 0x214 JUMP JUMPDEST JUMPDEST PUSH0 PUSH2 0x2E1 DUP6 DUP3 DUP7 ADD PUSH2 0x26F JUMP JUMPDEST SWAP3 POP POP PUSH1 0x20 PUSH2 0x2F2 DUP6 DUP3 DUP7 ADD PUSH2 0x2AA JUMP JUMPDEST SWAP2 POP POP SWAP3 POP SWAP3 SWAP1 POP JUMP JUMPDEST PUSH2 0x305 DUP2 PUSH2 0x237 JUMP JUMPDEST DUP3 MSTORE POP POP JUMP JUMPDEST PUSH0 PUSH1 0x20 DUP3 ADD SWAP1 POP PUSH2 0x31E PUSH0 DUP4 ADD DUP5 PUSH2 0x2FC JUMP JUMPDEST SWAP3 SWAP2 POP POP JUMP JUMPDEST PUSH2 0x2350 DUP1 PUSH2 0x331 PUSH0 CODECOPY PUSH0 RETURN INVALID PUSH1 0x80 PUSH1 0x40 MSTORE PUSH1 0x4 CALLDATASIZE LT PUSH2 0x108 JUMPI PUSH0 CALLDATALOAD PUSH1 0xE0 SHR DUP1 PUSH4 0x8DA5CB5B GT PUSH2 0x94 JUMPI DUP1 PUSH4 0xB08A1ADF GT PUSH2 0x63 JUMPI DUP1 PUSH4 0xB08A1ADF EQ PUSH2 0x30A JUMPI DUP1 PUSH4 0xCA716B15 EQ PUSH2 0x349 JUMPI DUP1 PUSH4 0xD56D229D EQ PUSH2 0x388 JUMPI DUP1 PUSH4 0xF2FDE38B EQ PUSH2 0x3B2 JUMPI DUP1 PUSH4 0xF51F96DD EQ PUSH2 0x3DA JUMPI PUSH2 0x108 JUMP JUMPDEST DUP1 PUSH4 0x8DA5CB5B EQ PUSH2 0x23E JUMPI DUP1 PUSH4 0x98792EEC EQ PUSH2 0x268 JUMPI DUP1 PUSH4 0xA2931FE8 EQ PUSH2 0x2A4 JUMPI DUP1 PUSH4 0xA9B07C26 EQ PUSH2 0x2E0 JUMPI PUSH2 0x108 JUMP JUMPDEST DUP1 PUSH4 0x665B3CC1 GT PUSH2 0xDB JUMPI DUP1 PUSH4 0x665B3CC1 EQ PUSH2 0x190 JUMPI DUP1 PUSH4 0x68428A1B EQ PUSH2 0x1AC JUMPI DUP1 PUSH4 0x715018A6 EQ PUSH2 0x1D6 JUMPI DUP1 PUSH4 0x75C1631D EQ PUSH2 0x1EC JUMPI DUP1 PUSH4 0x8125E3AC EQ PUSH2 0x214 JUMPI PUSH2 0x108 JUMP JUMPDEST DUP1 PUSH4 0x299C6EB EQ PUSH2 0x10C JUMPI DUP1 PUSH4 0x457DFC67 EQ PUSH2 0x128 JUMPI DUP1 PUSH4 0x4AEE1DE1 EQ PUSH2 0x152 JUMPI DUP1 PUSH4 0x640B29D5 EQ PUSH2 0x17A JUMPI JUMPDEST PUSH0 DUP1 REVERT JUMPDEST PUSH2 0x126 PUSH1 0x4 DUP1 CALLDATASIZE SUB DUP2 ADD SWAP1 PUSH2 0x121 SWAP2 SWAP1 PUSH2 0x1735 JUMP JUMPDEST PUSH2 0x404 JUMP JUMPDEST STOP JUMPDEST CALLVALUE DUP1 ISZERO PUSH2 0x133 JUMPI PUSH0 DUP1 REVERT JUMPDEST POP PUSH2 0x13C PUSH2 0x854 JUMP JUMPDEST PUSH1 0x40 MLOAD PUSH2 0x149 SWAP2 SWAP1 PUSH2 0x17DA JUMP JUMPDEST PUSH1 0x40 MLOAD DUP1 SWAP2 SUB SWAP1 RETURN JUMPDEST CALLVALUE DUP1 ISZERO PUSH2 0x15D JUMPI PUSH0 DUP1 REVERT JUMPDEST POP PUSH2 0x178 PUSH1 0x4 DUP1 CALLDATASIZE SUB DUP2 ADD SWAP1 PUSH2 0x173 SWAP2 SWAP1 PUSH2 0x1735 JUMP JUMPDEST PUSH2 0x879 JUMP JUMPDEST STOP JUMPDEST CALLVALUE DUP1 ISZERO PUSH2 0x185 JUMPI PUSH0 DUP1 REVERT JUMPDEST POP PUSH2 0x18E PUSH2 0x88B JUMP JUMPDEST STOP JUMPDEST PUSH2 0x1AA PUSH1 0x4 DUP1 CALLDATASIZE SUB DUP2 ADD SWAP1 PUSH2 0x1A5 SWAP2 SWAP1 PUSH2 0x182A JUMP JUMPDEST PUSH2 0x9C1 JUMP JUMPDEST STOP JUMPDEST CALLVALUE DUP1 ISZERO PUSH2 0x1B7 JUMPI PUSH0 DUP1 REVERT JUMPDEST POP PUSH2 0x1C0 PUSH2 0xD1F JUMP JUMPDEST PUSH1 0x40 MLOAD PUSH2 0x1CD SWAP2 SWAP1 PUSH2 0x186F JUMP JUMPDEST PUSH1 0x40 MLOAD DUP1 SWAP2 SUB SWAP1 RETURN JUMPDEST CALLVALUE DUP1 ISZERO PUSH2 0x1E1 JUMPI PUSH0 DUP1 REVERT JUMPDEST POP PUSH2 0x1EA PUSH2 0xD31 JUMP JUMPDEST STOP JUMPDEST CALLVALUE DUP1 ISZERO PUSH2 0x1F7 JUMPI PUSH0 DUP1 REVERT JUMPDEST POP PUSH2 0x212 PUSH1 0x4 DUP1 CALLDATASIZE SUB DUP2 ADD SWAP1 PUSH2 0x20D SWAP2 SWAP1 PUSH2 0x1888 JUMP JUMPDEST PUSH2 0xD44 JUMP JUMPDEST STOP JUMPDEST CALLVALUE DUP1 ISZERO PUSH2 0x21F JUMPI PUSH0 DUP1 REVERT JUMPDEST POP PUSH2 0x228 PUSH2 0x100A JUMP JUMPDEST PUSH1 0x40 MLOAD PUSH2 0x235 SWAP2 SWAP1 PUSH2 0x1A0E JUMP JUMPDEST PUSH1 0x40 MLOAD DUP1 SWAP2 SUB SWAP1 RETURN JUMPDEST CALLVALUE DUP1 ISZERO PUSH2 0x249 JUMPI PUSH0 DUP1 REVERT JUMPDEST POP PUSH2 0x252 PUSH2 0x1158 JUMP JUMPDEST PUSH1 0x40 MLOAD PUSH2 0x25F SWAP2 SWAP1 PUSH2 0x1A3D JUMP JUMPDEST PUSH1 0x40 MLOAD DUP1 SWAP2 SUB SWAP1 RETURN JUMPDEST CALLVALUE DUP1 ISZERO PUSH2 0x273 JUMPI PUSH0 DUP1 REVERT JUMPDEST POP PUSH2 0x28E PUSH1 0x4 DUP1 CALLDATASIZE SUB DUP2 ADD SWAP1 PUSH2 0x289 SWAP2 SWAP1 PUSH2 0x1735 JUMP JUMPDEST PUSH2 0x117F JUMP JUMPDEST PUSH1 0x40 MLOAD PUSH2 0x29B SWAP2 SWAP1 PUSH2 0x1AB8 JUMP JUMPDEST PUSH1 0x40 MLOAD DUP1 SWAP2 SUB SWAP1 RETURN JUMPDEST CALLVALUE DUP1 ISZERO PUSH2 0x2AF JUMPI PUSH0 DUP1 REVERT JUMPDEST POP PUSH2 0x2CA PUSH1 0x4 DUP1 CALLDATASIZE SUB DUP2 ADD SWAP1 PUSH2 0x2C5 SWAP2 SWAP1 PUSH2 0x1AFB JUMP JUMPDEST PUSH2 0x1246 JUMP JUMPDEST PUSH1 0x40 MLOAD PUSH2 0x2D7 SWAP2 SWAP1 PUSH2 0x1B35 JUMP JUMPDEST PUSH1 0x40 MLOAD DUP1 SWAP2 SUB SWAP1 RETURN JUMPDEST CALLVALUE DUP1 ISZERO PUSH2 0x2EB JUMPI PUSH0 DUP1 REVERT JUMPDEST POP PUSH2 0x2F4 PUSH2 0x138C JUMP JUMPDEST PUSH1 0x40 MLOAD PUSH2 0x301 SWAP2 SWAP1 PUSH2 0x1B35 JUMP JUMPDEST PUSH1 0x40 MLOAD DUP1 SWAP2 SUB SWAP1 RETURN JUMPDEST CALLVALUE DUP1 ISZERO PUSH2 0x315 JUMPI PUSH0 DUP1 REVERT JUMPDEST POP PUSH2 0x330 PUSH1 0x4 DUP1 CALLDATASIZE SUB DUP2 ADD SWAP1 PUSH2 0x32B SWAP2 SWAP1 PUSH2 0x1C8A JUMP JUMPDEST PUSH2 0x1392 JUMP JUMPDEST PUSH1 0x40 MLOAD PUSH2 0x340 SWAP5 SWAP4 SWAP3 SWAP2 SWAP1 PUSH2 0x1CF3 JUMP JUMPDEST PUSH1 0x40 MLOAD DUP1 SWAP2 SUB SWAP1 RETURN JUMPDEST CALLVALUE DUP1 ISZERO PUSH2 0x354 JUMPI PUSH0 DUP1 REVERT JUMPDEST POP PUSH2 0x36F PUSH1 0x4 DUP1 CALLDATASIZE SUB DUP2 ADD SWAP1 PUSH2 0x36A SWAP2 SWAP1 PUSH2 0x1C8A JUMP JUMPDEST PUSH2 0x143D JUMP JUMPDEST PUSH1 0x40 MLOAD PUSH2 0x37F SWAP5 SWAP4 SWAP3 SWAP2 SWAP1 PUSH2 0x1D36 JUMP JUMPDEST PUSH1 0x40 MLOAD DUP1 SWAP2 SUB SWAP1 RETURN JUMPDEST CALLVALUE DUP1 ISZERO PUSH2 0x393 JUMPI PUSH0 DUP1 REVERT JUMPDEST POP PUSH2 0x39C PUSH2 0x14B7 JUMP JUMPDEST PUSH1 0x40 MLOAD PUSH2 0x3A9 SWAP2 SWAP1 PUSH2 0x1D99 JUMP JUMPDEST PUSH1 0x40 MLOAD DUP1 SWAP2 SUB SWAP1 RETURN JUMPDEST CALLVALUE DUP1 ISZERO PUSH2 0x3BD JUMPI PUSH0 DUP1 REVERT JUMPDEST POP PUSH2 0x3D8 PUSH1 0x4 DUP1 CALLDATASIZE SUB DUP2 ADD SWAP1 PUSH2 0x3D3 SWAP2 SWAP1 PUSH2 0x1AFB JUMP JUMPDEST PUSH2 0x14DC JUMP JUMPDEST STOP JUMPDEST CALLVALUE DUP1 ISZERO PUSH2 0x3E5 JUMPI PUSH0 DUP1 REVERT JUMPDEST POP PUSH2 0x3EE PUSH2 0x1560 JUMP JUMPDEST PUSH1 0x40 MLOAD PUSH2 0x3FB SWAP2 SWAP1 PUSH2 0x1B35 JUMP JUMPDEST PUSH1 0x40 MLOAD DUP1 SWAP2 SUB SWAP1 RETURN JUMPDEST PUSH0 PUSH1 0x6 PUSH1 0x40 MLOAD PUSH2 0x413 SWAP1 PUSH2 0x1E06 JUMP JUMPDEST SWAP1 DUP2 MSTORE PUSH1 0x20 ADD PUSH1 0x40 MLOAD DUP1 SWAP2 SUB SWAP1 KECCAK256 PUSH0 DUP4 DUP2 MSTORE PUSH1 0x20 ADD SWAP1 DUP2 MSTORE PUSH1 0x20 ADD PUSH0 KECCAK256 PUSH1 0x40 MLOAD DUP1 PUSH1 0x80 ADD PUSH1 0x40 MSTORE SWAP1 DUP2 PUSH0 DUP3 ADD PUSH0 SWAP1 SLOAD SWAP1 PUSH2 0x100 EXP SWAP1 DIV PUSH20 0xFFFFFFFFFFFFFFFFFFFFFFFFFFFFFFFFFFFFFFFF AND PUSH20 0xFFFFFFFFFFFFFFFFFFFFFFFFFFFFFFFFFFFFFFFF AND PUSH20 0xFFFFFFFFFFFFFFFFFFFFFFFFFFFFFFFFFFFFFFFF AND DUP2 MSTORE PUSH1 0x20 ADD PUSH1 0x1 DUP3 ADD SLOAD DUP2 MSTORE PUSH1 0x20 ADD PUSH1 0x2 DUP3 ADD SLOAD DUP2 MSTORE PUSH1 0x20 ADD PUSH1 0x3 DUP3 ADD PUSH0 SWAP1 SLOAD SWAP1 PUSH2 0x100 EXP SWAP1 DIV PUSH1 0xFF AND ISZERO ISZERO ISZERO ISZERO DUP2 MSTORE POP POP SWAP1 POP DUP1 PUSH1 0x60 ADD MLOAD PUSH2 0x503 JUMPI PUSH1 0x40 MLOAD PUSH32 0x8C379A000000000000000000000000000000000000000000000000000000000 DUP2 MSTORE PUSH1 0x4 ADD PUSH2 0x4FA SWAP1 PUSH2 0x1E74 JUMP JUMPDEST PUSH1 0x40 MLOAD DUP1 SWAP2 SUB SWAP1 REVERT JUMPDEST DUP1 PUSH1 0x40 ADD MLOAD DUP2 PUSH1 0x20 ADD MLOAD PUSH2 0x517 SWAP2 SWAP1 PUSH2 0x1EBF JUMP JUMPDEST CALLVALUE LT ISZERO PUSH2 0x559 JUMPI PUSH1 0x40 MLOAD PUSH32 0x8C379A000000000000000000000000000000000000000000000000000000000 DUP2 MSTORE PUSH1 0x4 ADD PUSH2 0x550 SWAP1 PUSH2 0x1F4A JUMP JUMPDEST PUSH1 0x40 MLOAD DUP1 SWAP2 SUB SWAP1 REVERT JUMPDEST PUSH1 0x5 PUSH1 0x40 MLOAD PUSH2 0x567 SWAP1 PUSH2 0x1E06 JUMP JUMPDEST SWAP1 DUP2 MSTORE PUSH1 0x20 ADD PUSH1 0x40 MLOAD DUP1 SWAP2 SUB SWAP1 KECCAK256 PUSH1 0x40 MLOAD DUP1 PUSH1 0x80 ADD PUSH1 0x40 MSTORE DUP1 DUP4 PUSH0 ADD MLOAD PUSH20 0xFFFFFFFFFFFFFFFFFFFFFFFFFFFFFFFFFFFFFFFF AND DUP2 MSTORE PUSH1 0x20 ADD CALLER PUSH20 0xFFFFFFFFFFFFFFFFFFFFFFFFFFFFFFFFFFFFFFFF AND DUP2 MSTORE PUSH1 0x20 ADD DUP4 PUSH1 0x20 ADD MLOAD DUP2 MSTORE PUSH1 0x20 ADD TIMESTAMP PUSH4 0xFFFFFFFF AND DUP2 MSTORE POP SWAP1 DUP1 PUSH1 0x1 DUP2 SLOAD ADD DUP1 DUP3 SSTORE DUP1 SWAP2 POP POP PUSH1 0x1 SWAP1 SUB SWAP1 PUSH0 MSTORE PUSH1 0x20 PUSH0 KECCAK256 SWAP1 PUSH1 0x4 MUL ADD PUSH0 SWAP1 SWAP2 SWAP1 SWAP2 SWAP1 SWAP2 POP PUSH0 DUP3 ADD MLOAD DUP2 PUSH0 ADD PUSH0 PUSH2 0x100 EXP DUP2 SLOAD DUP2 PUSH20 0xFFFFFFFFFFFFFFFFFFFFFFFFFFFFFFFFFFFFFFFF MUL NOT AND SWAP1 DUP4 PUSH20 0xFFFFFFFFFFFFFFFFFFFFFFFFFFFFFFFFFFFFFFFF AND MUL OR SWAP1 SSTORE POP PUSH1 0x20 DUP3 ADD MLOAD DUP2 PUSH1 0x1 ADD PUSH0 PUSH2 0x100 EXP DUP2 SLOAD DUP2 PUSH20 0xFFFFFFFFFFFFFFFFFFFFFFFFFFFFFFFFFFFFFFFF MUL NOT AND SWAP1 DUP4 PUSH20 0xFFFFFFFFFFFFFFFFFFFFFFFFFFFFFFFFFFFFFFFF AND MUL OR SWAP1 SSTORE POP PUSH1 0x40 DUP3 ADD MLOAD DUP2 PUSH1 0x2 ADD SSTORE PUSH1 0x60 DUP3 ADD MLOAD DUP2 PUSH1 0x3 ADD PUSH0 PUSH2 0x100 EXP DUP2 SLOAD DUP2 PUSH4 0xFFFFFFFF MUL NOT AND SWAP1 DUP4 PUSH4 0xFFFFFFFF AND MUL OR SWAP1 SSTORE POP POP POP PUSH1 0x1 PUSH0 SWAP1 SLOAD SWAP1 PUSH2 0x100 EXP SWAP1 DIV PUSH20 0xFFFFFFFFFFFFFFFFFFFFFFFFFFFFFFFFFFFFFFFF AND PUSH20 0xFFFFFFFFFFFFFFFFFFFFFFFFFFFFFFFFFFFFFFFF AND PUSH4 0xA9059CBB CALLER DUP4 PUSH1 0x20 ADD MLOAD PUSH1 0x40 MLOAD DUP4 PUSH4 0xFFFFFFFF AND PUSH1 0xE0 SHL DUP2 MSTORE PUSH1 0x4 ADD PUSH2 0x711 SWAP3 SWAP2 SWAP1 PUSH2 0x1F68 JUMP JUMPDEST PUSH1 0x20 PUSH1 0x40 MLOAD DUP1 DUP4 SUB DUP2 PUSH0 DUP8 GAS CALL ISZERO DUP1 ISZERO PUSH2 0x72D JUMPI RETURNDATASIZE PUSH0 DUP1 RETURNDATACOPY RETURNDATASIZE PUSH0 REVERT JUMPDEST POP POP POP POP PUSH1 0x40 MLOAD RETURNDATASIZE PUSH1 0x1F NOT PUSH1 0x1F DUP3 ADD AND DUP3 ADD DUP1 PUSH1 0x40 MSTORE POP DUP2 ADD SWAP1 PUSH2 0x751 SWAP2 SWAP1 PUSH2 0x1FB9 JUMP JUMPDEST POP DUP1 PUSH0 ADD MLOAD PUSH20 0xFFFFFFFFFFFFFFFFFFFFFFFFFFFFFFFFFFFFFFFF AND PUSH2 0x8FC CALLVALUE SWAP1 DUP2 ISZERO MUL SWAP1 PUSH1 0x40 MLOAD PUSH0 PUSH1 0x40 MLOAD DUP1 DUP4 SUB DUP2 DUP6 DUP9 DUP9 CALL SWAP4 POP POP POP POP ISZERO DUP1 ISZERO PUSH2 0x798 JUMPI RETURNDATASIZE PUSH0 DUP1 RETURNDATACOPY RETURNDATASIZE PUSH0 REVERT JUMPDEST POP PUSH0 PUSH1 0x6 PUSH1 0x40 MLOAD PUSH2 0x7A8 SWAP1 PUSH2 0x1E06 JUMP JUMPDEST SWAP1 DUP2 MSTORE PUSH1 0x20 ADD PUSH1 0x40 MLOAD DUP1 SWAP2 SUB SWAP1 KECCAK256 PUSH0 DUP5 DUP2 MSTORE PUSH1 0x20 ADD SWAP1 DUP2 MSTORE PUSH1 0x20 ADD PUSH0 KECCAK256 PUSH1 0x3 ADD PUSH0 PUSH2 0x100 EXP DUP2 SLOAD DUP2 PUSH1 0xFF MUL NOT AND SWAP1 DUP4 ISZERO ISZERO MUL OR SWAP1 SSTORE POP CALLER PUSH20 0xFFFFFFFFFFFFFFFFFFFFFFFFFFFFFFFFFFFFFFFF AND DUP2 PUSH0 ADD MLOAD PUSH20 0xFFFFFFFFFFFFFFFFFFFFFFFFFFFFFFFFFFFFFFFF AND PUSH32 0x8DAF503382665D950E449B86172BE5222275C90F4DDF69C29FDAA8237A562A6D DUP4 PUSH1 0x20 ADD MLOAD DUP5 PUSH1 0x40 ADD MLOAD PUSH1 0x40 MLOAD PUSH2 0x848 SWAP3 SWAP2 SWAP1 PUSH2 0x1FE4 JUMP JUMPDEST PUSH1 0x40 MLOAD DUP1 SWAP2 SUB SWAP1 LOG3 POP POP JUMP JUMPDEST PUSH1 0x1 PUSH0 SWAP1 SLOAD SWAP1 PUSH2 0x100 EXP SWAP1 DIV PUSH20 0xFFFFFFFFFFFFFFFFFFFFFFFFFFFFFFFFFFFFFFFF AND DUP2 JUMP JUMPDEST PUSH2 0x881 PUSH2 0x1566 JUMP JUMPDEST DUP1 PUSH1 0x3 DUP2 SWAP1 SSTORE POP POP JUMP JUMPDEST PUSH2 0x893 PUSH2 0x1566 JUMP JUMPDEST PUSH1 0x1 PUSH0 SWAP1 SLOAD SWAP1 PUSH2 0x100 EXP SWAP1 DIV PUSH20 0xFFFFFFFFFFFFFFFFFFFFFFFFFFFFFFFFFFFFFFFF AND PUSH20 0xFFFFFFFFFFFFFFFFFFFFFFFFFFFFFFFFFFFFFFFF AND PUSH4 0x23B872DD CALLER ADDRESS PUSH1 0x1 PUSH0 SWAP1 SLOAD SWAP1 PUSH2 0x100 EXP SWAP1 DIV PUSH20 0xFFFFFFFFFFFFFFFFFFFFFFFFFFFFFFFFFFFFFFFF AND PUSH20 0xFFFFFFFFFFFFFFFFFFFFFFFFFFFFFFFFFFFFFFFF AND PUSH4 0x18160DDD PUSH1 0x40 MLOAD DUP2 PUSH4 0xFFFFFFFF AND PUSH1 0xE0 SHL DUP2 MSTORE PUSH1 0x4 ADD PUSH1 0x20 PUSH1 0x40 MLOAD DUP1 DUP4 SUB DUP2 DUP7 GAS STATICCALL ISZERO DUP1 ISZERO PUSH2 0x93C JUMPI RETURNDATASIZE PUSH0 DUP1 RETURNDATACOPY RETURNDATASIZE PUSH0 REVERT JUMPDEST POP POP POP POP PUSH1 0x40 MLOAD RETURNDATASIZE PUSH1 0x1F NOT PUSH1 0x1F DUP3 ADD AND DUP3 ADD DUP1 PUSH1 0x40 MSTORE POP DUP2 ADD SWAP1 PUSH2 0x960 SWAP2 SWAP1 PUSH2 0x201F JUMP JUMPDEST PUSH1 0x40 MLOAD DUP5 PUSH4 0xFFFFFFFF AND PUSH1 0xE0 SHL DUP2 MSTORE PUSH1 0x4 ADD PUSH2 0x97E SWAP4 SWAP3 SWAP2 SWAP1 PUSH2 0x204A JUMP JUMPDEST PUSH1 0x20 PUSH1 0x40 MLOAD DUP1 DUP4 SUB DUP2 PUSH0 DUP8 GAS CALL ISZERO DUP1 ISZERO PUSH2 0x99A JUMPI RETURNDATASIZE PUSH0 DUP1 RETURNDATACOPY RETURNDATASIZE PUSH0 REVERT JUMPDEST POP POP POP POP PUSH1 0x40 MLOAD RETURNDATASIZE PUSH1 0x1F NOT PUSH1 0x1F DUP3 ADD AND DUP3 ADD DUP1 PUSH1 0x40 MSTORE POP DUP2 ADD SWAP1 PUSH2 0x9BE SWAP2 SWAP1 PUSH2 0x1FB9 JUMP JUMPDEST POP JUMP JUMPDEST PUSH1 0x4 PUSH0 SWAP1 SLOAD SWAP1 PUSH2 0x100 EXP SWAP1 DIV PUSH1 0xFF AND PUSH2 0xA0F JUMPI PUSH1 0x40 MLOAD PUSH32 0x8C379A000000000000000000000000000000000000000000000000000000000 DUP2 MSTORE PUSH1 0x4 ADD PUSH2 0xA06 SWAP1 PUSH2 0x20C9 JUMP JUMPDEST PUSH1 0x40 MLOAD DUP1 SWAP2 SUB SWAP1 REVERT JUMPDEST PUSH0 CALLVALUE GT DUP1 ISZERO PUSH2 0xA2E JUMPI POP DUP1 PUSH2 0xFFFF AND PUSH1 0x3 SLOAD PUSH2 0xA2B SWAP2 SWAP1 PUSH2 0x1EBF JUMP JUMPDEST CALLVALUE EQ JUMPDEST PUSH2 0xA6D JUMPI PUSH1 0x40 MLOAD PUSH32 0x8C379A000000000000000000000000000000000000000000000000000000000 DUP2 MSTORE PUSH1 0x4 ADD PUSH2 0xA64 SWAP1 PUSH2 0x2131 JUMP JUMPDEST PUSH1 0x40 MLOAD DUP1 SWAP2 SUB SWAP1 REVERT JUMPDEST PUSH0 PUSH1 0x3 SLOAD CALLVALUE PUSH2 0xA7C SWAP2 SWAP1 PUSH2 0x217C JUMP JUMPDEST SWAP1 POP PUSH0 DUP2 GT PUSH2 0xAC0 JUMPI PUSH1 0x40 MLOAD PUSH32 0x8C379A000000000000000000000000000000000000000000000000000000000 DUP2 MSTORE PUSH1 0x4 ADD PUSH2 0xAB7 SWAP1 PUSH2 0x21F6 JUMP JUMPDEST PUSH1 0x40 MLOAD DUP1 SWAP2 SUB SWAP1 REVERT JUMPDEST PUSH1 0x5 PUSH1 0x40 MLOAD PUSH2 0xACE SWAP1 PUSH2 0x1E06 JUMP JUMPDEST SWAP1 DUP2 MSTORE PUSH1 0x20 ADD PUSH1 0x40 MLOAD DUP1 SWAP2 SUB SWAP1 KECCAK256 PUSH1 0x40 MLOAD DUP1 PUSH1 0x80 ADD PUSH1 0x40 MSTORE DUP1 ADDRESS PUSH20 0xFFFFFFFFFFFFFFFFFFFFFFFFFFFFFFFFFFFFFFFF AND DUP2 MSTORE PUSH1 0x20 ADD CALLER PUSH20 0xFFFFFFFFFFFFFFFFFFFFFFFFFFFFFFFFFFFFFFFF AND DUP2 MSTORE PUSH1 0x20 ADD DUP5 PUSH2 0xFFFF AND DUP2 MSTORE PUSH1 0x20 ADD TIMESTAMP PUSH4 0xFFFFFFFF AND DUP2 MSTORE POP SWAP1 DUP1 PUSH1 0x1 DUP2 SLOAD ADD DUP1 DUP3 SSTORE DUP1 SWAP2 POP POP PUSH1 0x1 SWAP1 SUB SWAP1 PUSH0 MSTORE PUSH1 0x20 PUSH0 KECCAK256 SWAP1 PUSH1 0x4 MUL ADD PUSH0 SWAP1 SWAP2 SWAP1 SWAP2 SWAP1 SWAP2 POP PUSH0 DUP3 ADD MLOAD DUP2 PUSH0 ADD PUSH0 PUSH2 0x100 EXP DUP2 SLOAD DUP2 PUSH20 0xFFFFFFFFFFFFFFFFFFFFFFFFFFFFFFFFFFFFFFFF MUL NOT AND SWAP1 DUP4 PUSH20 0xFFFFFFFFFFFFFFFFFFFFFFFFFFFFFFFFFFFFFFFF AND MUL OR SWAP1 SSTORE POP PUSH1 0x20 DUP3 ADD MLOAD DUP2 PUSH1 0x1 ADD PUSH0 PUSH2 0x100 EXP DUP2 SLOAD DUP2 PUSH20 0xFFFFFFFFFFFFFFFFFFFFFFFFFFFFFFFFFFFFFFFF MUL NOT AND SWAP1 DUP4 PUSH20 0xFFFFFFFFFFFFFFFFFFFFFFFFFFFFFFFFFFFFFFFF AND MUL OR SWAP1 SSTORE POP PUSH1 0x40 DUP3 ADD MLOAD DUP2 PUSH1 0x2 ADD SSTORE PUSH1 0x60 DUP3 ADD MLOAD DUP2 PUSH1 0x3 ADD PUSH0 PUSH2 0x100 EXP DUP2 SLOAD DUP2 PUSH4 0xFFFFFFFF MUL NOT AND SWAP1 DUP4 PUSH4 0xFFFFFFFF AND MUL OR SWAP1 SSTORE POP POP POP PUSH1 0x1 PUSH0 SWAP1 SLOAD SWAP1 PUSH2 0x100 EXP SWAP1 DIV PUSH20 0xFFFFFFFFFFFFFFFFFFFFFFFFFFFFFFFFFFFFFFFF AND PUSH20 0xFFFFFFFFFFFFFFFFFFFFFFFFFFFFFFFFFFFFFFFF AND PUSH4 0xA9059CBB CALLER DUP4 PUSH1 0x40 MLOAD DUP4 PUSH4 0xFFFFFFFF AND PUSH1 0xE0 SHL DUP2 MSTORE PUSH1 0x4 ADD PUSH2 0xC71 SWAP3 SWAP2 SWAP1 PUSH2 0x1F68 JUMP JUMPDEST PUSH1 0x20 PUSH1 0x40 MLOAD DUP1 DUP4 SUB DUP2 PUSH0 DUP8 GAS CALL ISZERO DUP1 ISZERO PUSH2 0xC8D JUMPI RETURNDATASIZE PUSH0 DUP1 RETURNDATACOPY RETURNDATASIZE PUSH0 REVERT JUMPDEST POP POP POP POP PUSH1 0x40 MLOAD RETURNDATASIZE PUSH1 0x1F NOT PUSH1 0x1F DUP3 ADD AND DUP3 ADD DUP1 PUSH1 0x40 MSTORE POP DUP2 ADD SWAP1 PUSH2 0xCB1 SWAP2 SWAP1 PUSH2 0x1FB9 JUMP JUMPDEST POP CALLER PUSH20 0xFFFFFFFFFFFFFFFFFFFFFFFFFFFFFFFFFFFFFFFF AND ADDRESS PUSH20 0xFFFFFFFFFFFFFFFFFFFFFFFFFFFFFFFFFFFFFFFF AND PUSH32 0x8DAF503382665D950E449B86172BE5222275C90F4DDF69C29FDAA8237A562A6D DUP5 PUSH1 0x3 SLOAD PUSH1 0x40 MLOAD PUSH2 0xD13 SWAP3 SWAP2 SWAP1 PUSH2 0x2244 JUMP JUMPDEST PUSH1 0x40 MLOAD DUP1 SWAP2 SUB SWAP1 LOG3 POP POP JUMP JUMPDEST PUSH1 0x4 PUSH0 SWAP1 SLOAD SWAP1 PUSH2 0x100 EXP SWAP1 DIV PUSH1 0xFF AND DUP2 JUMP JUMPDEST PUSH2 0xD39 PUSH2 0x1566 JUMP JUMPDEST PUSH2 0xD42 PUSH0 PUSH2 0x15ED JUMP JUMPDEST JUMP JUMPDEST DUP2 PUSH1 0x1 PUSH0 SWAP1 SLOAD SWAP1 PUSH2 0x100 EXP SWAP1 DIV PUSH20 0xFFFFFFFFFFFFFFFFFFFFFFFFFFFFFFFFFFFFFFFF AND PUSH20 0xFFFFFFFFFFFFFFFFFFFFFFFFFFFFFFFFFFFFFFFF AND PUSH4 0x70A08231 CALLER PUSH1 0x40 MLOAD DUP3 PUSH4 0xFFFFFFFF AND PUSH1 0xE0 SHL DUP2 MSTORE PUSH1 0x4 ADD PUSH2 0xD9F SWAP2 SWAP1 PUSH2 0x1A3D JUMP JUMPDEST PUSH1 0x20 PUSH1 0x40 MLOAD DUP1 DUP4 SUB DUP2 DUP7 GAS STATICCALL ISZERO DUP1 ISZERO PUSH2 0xDBA JUMPI RETURNDATASIZE PUSH0 DUP1 RETURNDATACOPY RETURNDATASIZE PUSH0 REVERT JUMPDEST POP POP POP POP PUSH1 0x40 MLOAD RETURNDATASIZE PUSH1 0x1F NOT PUSH1 0x1F DUP3 ADD AND DUP3 ADD DUP1 PUSH1 0x40 MSTORE POP DUP2 ADD SWAP1 PUSH2 0xDDE SWAP2 SWAP1 PUSH2 0x201F JUMP JUMPDEST LT ISZERO PUSH2 0xE1F JUMPI PUSH1 0x40 MLOAD PUSH32 0x8C379A000000000000000000000000000000000000000000000000000000000 DUP2 MSTORE PUSH1 0x4 ADD PUSH2 0xE16 SWAP1 PUSH2 0x22B5 JUMP JUMPDEST PUSH1 0x40 MLOAD DUP1 SWAP2 SUB SWAP1 REVERT JUMPDEST PUSH1 0x7 PUSH0 DUP2 SLOAD DUP1 SWAP3 SWAP2 SWAP1 PUSH2 0xE31 SWAP1 PUSH2 0x22D3 JUMP JUMPDEST SWAP2 SWAP1 POP SSTORE POP PUSH1 0x40 MLOAD DUP1 PUSH1 0x80 ADD PUSH1 0x40 MSTORE DUP1 CALLER PUSH20 0xFFFFFFFFFFFFFFFFFFFFFFFFFFFFFFFFFFFFFFFF AND DUP2 MSTORE PUSH1 0x20 ADD DUP4 DUP2 MSTORE PUSH1 0x20 ADD DUP3 DUP2 MSTORE PUSH1 0x20 ADD PUSH1 0x1 ISZERO ISZERO DUP2 MSTORE POP PUSH1 0x6 PUSH1 0x40 MLOAD PUSH2 0xE7E SWAP1 PUSH2 0x1E06 JUMP JUMPDEST SWAP1 DUP2 MSTORE PUSH1 0x20 ADD PUSH1 0x40 MLOAD DUP1 SWAP2 SUB SWAP1 KECCAK256 PUSH0 PUSH1 0x7 SLOAD DUP2 MSTORE PUSH1 0x20 ADD SWAP1 DUP2 MSTORE PUSH1 0x20 ADD PUSH0 KECCAK256 PUSH0 DUP3 ADD MLOAD DUP2 PUSH0 ADD PUSH0 PUSH2 0x100 EXP DUP2 SLOAD DUP2 PUSH20 0xFFFFFFFFFFFFFFFFFFFFFFFFFFFFFFFFFFFFFFFF MUL NOT AND SWAP1 DUP4 PUSH20 0xFFFFFFFFFFFFFFFFFFFFFFFFFFFFFFFFFFFFFFFF AND MUL OR SWAP1 SSTORE POP PUSH1 0x20 DUP3 ADD MLOAD DUP2 PUSH1 0x1 ADD SSTORE PUSH1 0x40 DUP3 ADD MLOAD DUP2 PUSH1 0x2 ADD SSTORE PUSH1 0x60 DUP3 ADD MLOAD DUP2 PUSH1 0x3 ADD PUSH0 PUSH2 0x100 EXP DUP2 SLOAD DUP2 PUSH1 0xFF MUL NOT AND SWAP1 DUP4 ISZERO ISZERO MUL OR SWAP1 SSTORE POP SWAP1 POP POP PUSH1 0x1 PUSH0 SWAP1 SLOAD SWAP1 PUSH2 0x100 EXP SWAP1 DIV PUSH20 0xFFFFFFFFFFFFFFFFFFFFFFFFFFFFFFFFFFFFFFFF AND PUSH20 0xFFFFFFFFFFFFFFFFFFFFFFFFFFFFFFFFFFFFFFFF AND PUSH4 0x23B872DD CALLER ADDRESS DUP6 PUSH1 0x40 MLOAD DUP5 PUSH4 0xFFFFFFFF AND PUSH1 0xE0 SHL DUP2 MSTORE PUSH1 0x4 ADD PUSH2 0xF75 SWAP4 SWAP3 SWAP2 SWAP1 PUSH2 0x204A JUMP JUMPDEST PUSH1 0x20 PUSH1 0x40 MLOAD DUP1 DUP4 SUB DUP2 PUSH0 DUP8 GAS CALL ISZERO DUP1 ISZERO PUSH2 0xF91 JUMPI RETURNDATASIZE PUSH0 DUP1 RETURNDATACOPY RETURNDATASIZE PUSH0 REVERT JUMPDEST POP POP POP POP PUSH1 0x40 MLOAD RETURNDATASIZE PUSH1 0x1F NOT PUSH1 0x1F DUP3 ADD AND DUP3 ADD DUP1 PUSH1 0x40 MSTORE POP DUP2 ADD SWAP1 PUSH2 0xFB5 SWAP2 SWAP1 PUSH2 0x1FB9 JUMP JUMPDEST POP CALLER PUSH20 0xFFFFFFFFFFFFFFFFFFFFFFFFFFFFFFFFFFFFFFFF AND PUSH32 0x5DC96537CBAE524775A674B6A810D9A1BA04A9E279F172D156B352151394677A DUP4 DUP4 PUSH1 0x40 MLOAD PUSH2 0xFFE SWAP3 SWAP2 SWAP1 PUSH2 0x1FE4 JUMP JUMPDEST PUSH1 0x40 MLOAD DUP1 SWAP2 SUB SWAP1 LOG2 POP POP JUMP JUMPDEST PUSH1 0x60 PUSH1 0x5 PUSH1 0x40 MLOAD PUSH2 0x101A SWAP1 PUSH2 0x1E06 JUMP JUMPDEST SWAP1 DUP2 MSTORE PUSH1 0x20 ADD PUSH1 0x40 MLOAD DUP1 SWAP2 SUB SWAP1 KECCAK256 DUP1 SLOAD DUP1 PUSH1 0x20 MUL PUSH1 0x20 ADD PUSH1 0x40 MLOAD SWAP1 DUP2 ADD PUSH1 0x40 MSTORE DUP1 SWAP3 SWAP2 SWAP1 DUP2 DUP2 MSTORE PUSH1 0x20 ADD PUSH0 SWAP1 JUMPDEST DUP3 DUP3 LT ISZERO PUSH2 0x114F JUMPI DUP4 DUP3 SWAP1 PUSH0 MSTORE PUSH1 0x20 PUSH0 KECCAK256 SWAP1 PUSH1 0x4 MUL ADD PUSH1 0x40 MLOAD DUP1 PUSH1 0x80 ADD PUSH1 0x40 MSTORE SWAP1 DUP2 PUSH0 DUP3 ADD PUSH0 SWAP1 SLOAD SWAP1 PUSH2 0x100 EXP SWAP1 DIV PUSH20 0xFFFFFFFFFFFFFFFFFFFFFFFFFFFFFFFFFFFFFFFF AND PUSH20 0xFFFFFFFFFFFFFFFFFFFFFFFFFFFFFFFFFFFFFFFF AND PUSH20 0xFFFFFFFFFFFFFFFFFFFFFFFFFFFFFFFFFFFFFFFF AND DUP2 MSTORE PUSH1 0x20 ADD PUSH1 0x1 DUP3 ADD PUSH0 SWAP1 SLOAD SWAP1 PUSH2 0x100 EXP SWAP1 DIV PUSH20 0xFFFFFFFFFFFFFFFFFFFFFFFFFFFFFFFFFFFFFFFF AND PUSH20 0xFFFFFFFFFFFFFFFFFFFFFFFFFFFFFFFFFFFFFFFF AND PUSH20 0xFFFFFFFFFFFFFFFFFFFFFFFFFFFFFFFFFFFFFFFF AND DUP2 MSTORE PUSH1 0x20 ADD PUSH1 0x2 DUP3 ADD SLOAD DUP2 MSTORE PUSH1 0x20 ADD PUSH1 0x3 DUP3 ADD PUSH0 SWAP1 SLOAD SWAP1 PUSH2 0x100 EXP SWAP1 DIV PUSH4 0xFFFFFFFF AND PUSH4 0xFFFFFFFF AND PUSH4 0xFFFFFFFF AND DUP2 MSTORE POP POP DUP2 MSTORE PUSH1 0x20 ADD SWAP1 PUSH1 0x1 ADD SWAP1 PUSH2 0x1047 JUMP JUMPDEST POP POP POP POP SWAP1 POP SWAP1 JUMP JUMPDEST PUSH0 DUP1 PUSH0 SWAP1 SLOAD SWAP1 PUSH2 0x100 EXP SWAP1 DIV PUSH20 0xFFFFFFFFFFFFFFFFFFFFFFFFFFFFFFFFFFFFFFFF AND SWAP1 POP SWAP1 JUMP JUMPDEST PUSH2 0x1187 PUSH2 0x16B5 JUMP JUMPDEST PUSH1 0x6 PUSH1 0x40 MLOAD PUSH2 0x1195 SWAP1 PUSH2 0x1E06 JUMP JUMPDEST SWAP1 DUP2 MSTORE PUSH1 0x20 ADD PUSH1 0x40 MLOAD DUP1 SWAP2 SUB SWAP1 KECCAK256 PUSH0 DUP4 DUP2 MSTORE PUSH1 0x20 ADD SWAP1 DUP2 MSTORE PUSH1 0x20 ADD PUSH0 KECCAK256 PUSH1 0x40 MLOAD DUP1 PUSH1 0x80 ADD PUSH1 0x40 MSTORE SWAP1 DUP2 PUSH0 DUP3 ADD PUSH0 SWAP1 SLOAD SWAP1 PUSH2 0x100 EXP SWAP1 DIV PUSH20 0xFFFFFFFFFFFFFFFFFFFFFFFFFFFFFFFFFFFFFFFF AND PUSH20 0xFFFFFFFFFFFFFFFFFFFFFFFFFFFFFFFFFFFFFFFF AND PUSH20 0xFFFFFFFFFFFFFFFFFFFFFFFFFFFFFFFFFFFFFFFF AND DUP2 MSTORE PUSH1 0x20 ADD PUSH1 0x1 DUP3 ADD SLOAD DUP2 MSTORE PUSH1 0x20 ADD PUSH1 0x2 DUP3 ADD SLOAD DUP2 MSTORE PUSH1 0x20 ADD PUSH1 0x3 DUP3 ADD PUSH0 SWAP1 SLOAD SWAP1 PUSH2 0x100 EXP SWAP1 DIV PUSH1 0xFF AND ISZERO ISZERO ISZERO ISZERO DUP2 MSTORE POP POP SWAP1 POP SWAP2 SWAP1 POP JUMP JUMPDEST PUSH0 PUSH1 0x1 PUSH0 SWAP1 SLOAD SWAP1 PUSH2 0x100 EXP SWAP1 DIV PUSH20 0xFFFFFFFFFFFFFFFFFFFFFFFFFFFFFFFFFFFFFFFF AND PUSH20 0xFFFFFFFFFFFFFFFFFFFFFFFFFFFFFFFFFFFFFFFF AND PUSH4 0x18160DDD PUSH1 0x40 MLOAD DUP2 PUSH4 0xFFFFFFFF AND PUSH1 0xE0 SHL DUP2 MSTORE PUSH1 0x4 ADD PUSH1 0x20 PUSH1 0x40 MLOAD DUP1 DUP4 SUB DUP2 DUP7 GAS STATICCALL ISZERO DUP1 ISZERO PUSH2 0x12B1 JUMPI RETURNDATASIZE PUSH0 DUP1 RETURNDATACOPY RETURNDATASIZE PUSH0 REVERT JUMPDEST POP POP POP POP PUSH1 0x40 MLOAD RETURNDATASIZE PUSH1 0x1F NOT PUSH1 0x1F DUP3 ADD AND DUP3 ADD DUP1 PUSH1 0x40 MSTORE POP DUP2 ADD SWAP1 PUSH2 0x12D5 SWAP2 SWAP1 PUSH2 0x201F JUMP JUMPDEST PUSH2 0x2710 PUSH1 0x1 PUSH0 SWAP1 SLOAD SWAP1 PUSH2 0x100 EXP SWAP1 DIV PUSH20 0xFFFFFFFFFFFFFFFFFFFFFFFFFFFFFFFFFFFFFFFF AND PUSH20 0xFFFFFFFFFFFFFFFFFFFFFFFFFFFFFFFFFFFFFFFF AND PUSH4 0x70A08231 DUP6 PUSH1 0x40 MLOAD DUP3 PUSH4 0xFFFFFFFF AND PUSH1 0xE0 SHL DUP2 MSTORE PUSH1 0x4 ADD PUSH2 0x1332 SWAP2 SWAP1 PUSH2 0x1A3D JUMP JUMPDEST PUSH1 0x20 PUSH1 0x40 MLOAD DUP1 DUP4 SUB DUP2 DUP7 GAS STATICCALL ISZERO DUP1 ISZERO PUSH2 0x134D JUMPI RETURNDATASIZE PUSH0 DUP1 RETURNDATACOPY RETURNDATASIZE PUSH0 REVERT JUMPDEST POP POP POP POP PUSH1 0x40 MLOAD RETURNDATASIZE PUSH1 0x1F NOT PUSH1 0x1F DUP3 ADD AND DUP3 ADD DUP1 PUSH1 0x40 MSTORE POP DUP2 ADD SWAP1 PUSH2 0x1371 SWAP2 SWAP1 PUSH2 0x201F JUMP JUMPDEST PUSH2 0x137B SWAP2 SWAP1 PUSH2 0x1EBF JUMP JUMPDEST PUSH2 0x1385 SWAP2 SWAP1 PUSH2 0x217C JUMP JUMPDEST SWAP1 POP SWAP2 SWAP1 POP JUMP JUMPDEST PUSH1 0x7 SLOAD DUP2 JUMP JUMPDEST PUSH1 0x5 DUP3 DUP1 MLOAD PUSH1 0x20 DUP2 ADD DUP3 ADD DUP1 MLOAD DUP5 DUP3 MSTORE PUSH1 0x20 DUP4 ADD PUSH1 0x20 DUP6 ADD KECCAK256 DUP2 DUP4 MSTORE DUP1 SWAP6 POP POP POP POP POP POP DUP2 DUP2 SLOAD DUP2 LT PUSH2 0x13C3 JUMPI PUSH0 DUP1 REVERT JUMPDEST SWAP1 PUSH0 MSTORE PUSH1 0x20 PUSH0 KECCAK256 SWAP1 PUSH1 0x4 MUL ADD PUSH0 SWAP2 POP SWAP2 POP POP DUP1 PUSH0 ADD PUSH0 SWAP1 SLOAD SWAP1 PUSH2 0x100 EXP SWAP1 DIV PUSH20 0xFFFFFFFFFFFFFFFFFFFFFFFFFFFFFFFFFFFFFFFF AND SWAP1 DUP1 PUSH1 0x1 ADD PUSH0 SWAP1 SLOAD SWAP1 PUSH2 0x100 EXP SWAP1 DIV PUSH20 0xFFFFFFFFFFFFFFFFFFFFFFFFFFFFFFFFFFFFFFFF AND SWAP1 DUP1 PUSH1 0x2 ADD SLOAD SWAP1 DUP1 PUSH1 0x3 ADD PUSH0 SWAP1 SLOAD SWAP1 PUSH2 0x100 EXP SWAP1 DIV PUSH4 0xFFFFFFFF AND SWAP1 POP DUP5 JUMP JUMPDEST PUSH1 0x6 DUP3 DUP1 MLOAD PUSH1 0x20 DUP2 ADD DUP3 ADD DUP1 MLOAD DUP5 DUP3 MSTORE PUSH1 0x20 DUP4 ADD PUSH1 0x20 DUP6 ADD KECCAK256 DUP2 DUP4 MSTORE DUP1 SWAP6 POP POP POP POP POP POP PUSH1 0x20 MSTORE DUP1 PUSH0 MSTORE PUSH1 0x40 PUSH0 KECCAK256 PUSH0 SWAP2 POP SWAP2 POP POP DUP1 PUSH0 ADD PUSH0 SWAP1 SLOAD SWAP1 PUSH2 0x100 EXP SWAP1 DIV PUSH20 0xFFFFFFFFFFFFFFFFFFFFFFFFFFFFFFFFFFFFFFFF AND SWAP1 DUP1 PUSH1 0x1 ADD SLOAD SWAP1 DUP1 PUSH1 0x2 ADD SLOAD SWAP1 DUP1 PUSH1 0x3 ADD PUSH0 SWAP1 SLOAD SWAP1 PUSH2 0x100 EXP SWAP1 DIV PUSH1 0xFF AND SWAP1 POP DUP5 JUMP JUMPDEST PUSH1 0x2 PUSH0 SWAP1 SLOAD SWAP1 PUSH2 0x100 EXP SWAP1 DIV PUSH20 0xFFFFFFFFFFFFFFFFFFFFFFFFFFFFFFFFFFFFFFFF AND DUP2 JUMP JUMPDEST PUSH2 0x14E4 PUSH2 0x1566 JUMP JUMPDEST PUSH0 PUSH20 0xFFFFFFFFFFFFFFFFFFFFFFFFFFFFFFFFFFFFFFFF AND DUP2 PUSH20 0xFFFFFFFFFFFFFFFFFFFFFFFFFFFFFFFFFFFFFFFF AND SUB PUSH2 0x1554 JUMPI PUSH0 PUSH1 0x40 MLOAD PUSH32 0x1E4FBDF700000000000000000000000000000000000000000000000000000000 DUP2 MSTORE PUSH1 0x4 ADD PUSH2 0x154B SWAP2 SWAP1 PUSH2 0x1A3D JUMP JUMPDEST PUSH1 0x40 MLOAD DUP1 SWAP2 SUB SWAP1 REVERT JUMPDEST PUSH2 0x155D DUP2 PUSH2 0x15ED JUMP JUMPDEST POP JUMP JUMPDEST PUSH1 0x3 SLOAD DUP2 JUMP JUMPDEST PUSH2 0x156E PUSH2 0x16AE JUMP JUMPDEST PUSH20 0xFFFFFFFFFFFFFFFFFFFFFFFFFFFFFFFFFFFFFFFF AND PUSH2 0x158C PUSH2 0x1158 JUMP JUMPDEST PUSH20 0xFFFFFFFFFFFFFFFFFFFFFFFFFFFFFFFFFFFFFFFF AND EQ PUSH2 0x15EB JUMPI PUSH2 0x15AF PUSH2 0x16AE JUMP JUMPDEST PUSH1 0x40 MLOAD PUSH32 0x118CDAA700000000000000000000000000000000000000000000000000000000 DUP2 MSTORE PUSH1 0x4 ADD PUSH2 0x15E2 SWAP2 SWAP1 PUSH2 0x1A3D JUMP JUMPDEST PUSH1 0x40 MLOAD DUP1 SWAP2 SUB SWAP1 REVERT JUMPDEST JUMP JUMPDEST PUSH0 DUP1 PUSH0 SWAP1 SLOAD SWAP1 PUSH2 0x100 EXP SWAP1 DIV PUSH20 0xFFFFFFFFFFFFFFFFFFFFFFFFFFFFFFFFFFFFFFFF AND SWAP1 POP DUP2 PUSH0 DUP1 PUSH2 0x100 EXP DUP2 SLOAD DUP2 PUSH20 0xFFFFFFFFFFFFFFFFFFFFFFFFFFFFFFFFFFFFFFFF MUL NOT AND SWAP1 DUP4 PUSH20 0xFFFFFFFFFFFFFFFFFFFFFFFFFFFFFFFFFFFFFFFF AND MUL OR SWAP1 SSTORE POP DUP2 PUSH20 0xFFFFFFFFFFFFFFFFFFFFFFFFFFFFFFFFFFFFFFFF AND DUP2 PUSH20 0xFFFFFFFFFFFFFFFFFFFFFFFFFFFFFFFFFFFFFFFF AND PUSH32 0x8BE0079C531659141344CD1FD0A4F28419497F9722A3DAAFE3B4186F6B6457E0 PUSH1 0x40 MLOAD PUSH1 0x40 MLOAD DUP1 SWAP2 SUB SWAP1 LOG3 POP POP JUMP JUMPDEST PUSH0 CALLER SWAP1 POP SWAP1 JUMP JUMPDEST PUSH1 0x40 MLOAD DUP1 PUSH1 0x80 ADD PUSH1 0x40 MSTORE DUP1 PUSH0 PUSH20 0xFFFFFFFFFFFFFFFFFFFFFFFFFFFFFFFFFFFFFFFF AND DUP2 MSTORE PUSH1 0x20 ADD PUSH0 DUP2 MSTORE PUSH1 0x20 ADD PUSH0 DUP2 MSTORE PUSH1 0x20 ADD PUSH0 ISZERO ISZERO DUP2 MSTORE POP SWAP1 JUMP JUMPDEST PUSH0 PUSH1 0x40 MLOAD SWAP1 POP SWAP1 JUMP JUMPDEST PUSH0 DUP1 REVERT JUMPDEST PUSH0 DUP1 REVERT JUMPDEST PUSH0 DUP2 SWAP1 POP SWAP2 SWAP1 POP JUMP JUMPDEST PUSH2 0x1714 DUP2 PUSH2 0x1702 JUMP JUMPDEST DUP2 EQ PUSH2 0x171E JUMPI PUSH0 DUP1 REVERT JUMPDEST POP JUMP JUMPDEST PUSH0 DUP2 CALLDATALOAD SWAP1 POP PUSH2 0x172F DUP2 PUSH2 0x170B JUMP JUMPDEST SWAP3 SWAP2 POP POP JUMP JUMPDEST PUSH0 PUSH1 0x20 DUP3 DUP5 SUB SLT ISZERO PUSH2 0x174A JUMPI PUSH2 0x1749 PUSH2 0x16FA JUMP JUMPDEST JUMPDEST PUSH0 PUSH2 0x1757 DUP5 DUP3 DUP6 ADD PUSH2 0x1721 JUMP JUMPDEST SWAP2 POP POP SWAP3 SWAP2 POP POP JUMP JUMPDEST PUSH0 PUSH20 0xFFFFFFFFFFFFFFFFFFFFFFFFFFFFFFFFFFFFFFFF DUP3 AND SWAP1 POP SWAP2 SWAP1 POP JUMP JUMPDEST PUSH0 DUP2 SWAP1 POP SWAP2 SWAP1 POP JUMP JUMPDEST PUSH0 PUSH2 0x17A2 PUSH2 0x179D PUSH2 0x1798 DUP5 PUSH2 0x1760 JUMP JUMPDEST PUSH2 0x177F JUMP JUMPDEST PUSH2 0x1760 JUMP JUMPDEST SWAP1 POP SWAP2 SWAP1 POP JUMP JUMPDEST PUSH0 PUSH2 0x17B3 DUP3 PUSH2 0x1788 JUMP JUMPDEST SWAP1 POP SWAP2 SWAP1 POP JUMP JUMPDEST PUSH0 PUSH2 0x17C4 DUP3 PUSH2 0x17A9 JUMP JUMPDEST SWAP1 POP SWAP2 SWAP1 POP JUMP JUMPDEST PUSH2 0x17D4 DUP2 PUSH2 0x17BA JUMP JUMPDEST DUP3 MSTORE POP POP JUMP JUMPDEST PUSH0 PUSH1 0x20 DUP3 ADD SWAP1 POP PUSH2 0x17ED PUSH0 DUP4 ADD DUP5 PUSH2 0x17CB JUMP JUMPDEST SWAP3 SWAP2 POP POP JUMP JUMPDEST PUSH0 PUSH2 0xFFFF DUP3 AND SWAP1 POP SWAP2 SWAP1 POP JUMP JUMPDEST PUSH2 0x1809 DUP2 PUSH2 0x17F3 JUMP JUMPDEST DUP2 EQ PUSH2 0x1813 JUMPI PUSH0 DUP1 REVERT JUMPDEST POP JUMP JUMPDEST PUSH0 DUP2 CALLDATALOAD SWAP1 POP PUSH2 0x1824 DUP2 PUSH2 0x1800 JUMP JUMPDEST SWAP3 SWAP2 POP POP JUMP JUMPDEST PUSH0 PUSH1 0x20 DUP3 DUP5 SUB SLT ISZERO PUSH2 0x183F JUMPI PUSH2 0x183E PUSH2 0x16FA JUMP JUMPDEST JUMPDEST PUSH0 PUSH2 0x184C DUP5 DUP3 DUP6 ADD PUSH2 0x1816 JUMP JUMPDEST SWAP2 POP POP SWAP3 SWAP2 POP POP JUMP JUMPDEST PUSH0 DUP2 ISZERO ISZERO SWAP1 POP SWAP2 SWAP1 POP JUMP JUMPDEST PUSH2 0x1869 DUP2 PUSH2 0x1855 JUMP JUMPDEST DUP3 MSTORE POP POP JUMP JUMPDEST PUSH0 PUSH1 0x20 DUP3 ADD SWAP1 POP PUSH2 0x1882 PUSH0 DUP4 ADD DUP5 PUSH2 0x1860 JUMP JUMPDEST SWAP3 SWAP2 POP POP JUMP JUMPDEST PUSH0 DUP1 PUSH1 0x40 DUP4 DUP6 SUB SLT ISZERO PUSH2 0x189E JUMPI PUSH2 0x189D PUSH2 0x16FA JUMP JUMPDEST JUMPDEST PUSH0 PUSH2 0x18AB DUP6 DUP3 DUP7 ADD PUSH2 0x1721 JUMP JUMPDEST SWAP3 POP POP PUSH1 0x20 PUSH2 0x18BC DUP6 DUP3 DUP7 ADD PUSH2 0x1721 JUMP JUMPDEST SWAP2 POP POP SWAP3 POP SWAP3 SWAP1 POP JUMP JUMPDEST PUSH0 DUP2 MLOAD SWAP1 POP SWAP2 SWAP1 POP JUMP JUMPDEST PUSH0 DUP3 DUP3 MSTORE PUSH1 0x20 DUP3 ADD SWAP1 POP SWAP3 SWAP2 POP POP JUMP JUMPDEST PUSH0 DUP2 SWAP1 POP PUSH1 0x20 DUP3 ADD SWAP1 POP SWAP2 SWAP1 POP JUMP JUMPDEST PUSH0 PUSH2 0x18F9 DUP3 PUSH2 0x1760 JUMP JUMPDEST SWAP1 POP SWAP2 SWAP1 POP JUMP JUMPDEST PUSH2 0x1909 DUP2 PUSH2 0x18EF JUMP JUMPDEST DUP3 MSTORE POP POP JUMP JUMPDEST PUSH2 0x1918 DUP2 PUSH2 0x1702 JUMP JUMPDEST DUP3 MSTORE POP POP JUMP JUMPDEST PUSH0 PUSH4 0xFFFFFFFF DUP3 AND SWAP1 POP SWAP2 SWAP1 POP JUMP JUMPDEST PUSH2 0x1936 DUP2 PUSH2 0x191E JUMP JUMPDEST DUP3 MSTORE POP POP JUMP JUMPDEST PUSH1 0x80 DUP3 ADD PUSH0 DUP3 ADD MLOAD PUSH2 0x1950 PUSH0 DUP6 ADD DUP3 PUSH2 0x1900 JUMP JUMPDEST POP PUSH1 0x20 DUP3 ADD MLOAD PUSH2 0x1963 PUSH1 0x20 DUP6 ADD DUP3 PUSH2 0x1900 JUMP JUMPDEST POP PUSH1 0x40 DUP3 ADD MLOAD PUSH2 0x1976 PUSH1 0x40 DUP6 ADD DUP3 PUSH2 0x190F JUMP JUMPDEST POP PUSH1 0x60 DUP3 ADD MLOAD PUSH2 0x1989 PUSH1 0x60 DUP6 ADD DUP3 PUSH2 0x192D JUMP JUMPDEST POP POP POP POP JUMP JUMPDEST PUSH0 PUSH2 0x199A DUP4 DUP4 PUSH2 0x193C JUMP JUMPDEST PUSH1 0x80 DUP4 ADD SWAP1 POP SWAP3 SWAP2 POP POP JUMP JUMPDEST PUSH0 PUSH1 0x20 DUP3 ADD SWAP1 POP SWAP2 SWAP1 POP JUMP JUMPDEST PUSH0 PUSH2 0x19BC DUP3 PUSH2 0x18C6 JUMP JUMPDEST PUSH2 0x19C6 DUP2 DUP6 PUSH2 0x18D0 JUMP JUMPDEST SWAP4 POP PUSH2 0x19D1 DUP4 PUSH2 0x18E0 JUMP JUMPDEST DUP1 PUSH0 JUMPDEST DUP4 DUP2 LT ISZERO PUSH2 0x1A01 JUMPI DUP2 MLOAD PUSH2 0x19E8 DUP9 DUP3 PUSH2 0x198F JUMP JUMPDEST SWAP8 POP PUSH2 0x19F3 DUP4 PUSH2 0x19A6 JUMP JUMPDEST SWAP3 POP POP PUSH1 0x1 DUP2 ADD SWAP1 POP PUSH2 0x19D4 JUMP JUMPDEST POP DUP6 SWAP4 POP POP POP POP SWAP3 SWAP2 POP POP JUMP JUMPDEST PUSH0 PUSH1 0x20 DUP3 ADD SWAP1 POP DUP2 DUP2 SUB PUSH0 DUP4 ADD MSTORE PUSH2 0x1A26 DUP2 DUP5 PUSH2 0x19B2 JUMP JUMPDEST SWAP1 POP SWAP3 SWAP2 POP POP JUMP JUMPDEST PUSH2 0x1A37 DUP2 PUSH2 0x18EF JUMP JUMPDEST DUP3 MSTORE POP POP JUMP JUMPDEST PUSH0 PUSH1 0x20 DUP3 ADD SWAP1 POP PUSH2 0x1A50 PUSH0 DUP4 ADD DUP5 PUSH2 0x1A2E JUMP JUMPDEST SWAP3 SWAP2 POP POP JUMP JUMPDEST PUSH2 0x1A5F DUP2 PUSH2 0x1855 JUMP JUMPDEST DUP3 MSTORE POP POP JUMP JUMPDEST PUSH1 0x80 DUP3 ADD PUSH0 DUP3 ADD MLOAD PUSH2 0x1A79 PUSH0 DUP6 ADD DUP3 PUSH2 0x1900 JUMP JUMPDEST POP PUSH1 0x20 DUP3 ADD MLOAD PUSH2 0x1A8C PUSH1 0x20 DUP6 ADD DUP3 PUSH2 0x190F JUMP JUMPDEST POP PUSH1 0x40 DUP3 ADD MLOAD PUSH2 0x1A9F PUSH1 0x40 DUP6 ADD DUP3 PUSH2 0x190F JUMP JUMPDEST POP PUSH1 0x60 DUP3 ADD MLOAD PUSH2 0x1AB2 PUSH1 0x60 DUP6 ADD DUP3 PUSH2 0x1A56 JUMP JUMPDEST POP POP POP POP JUMP JUMPDEST PUSH0 PUSH1 0x80 DUP3 ADD SWAP1 POP PUSH2 0x1ACB PUSH0 DUP4 ADD DUP5 PUSH2 0x1A65 JUMP JUMPDEST SWAP3 SWAP2 POP POP JUMP JUMPDEST PUSH2 0x1ADA DUP2 PUSH2 0x18EF JUMP JUMPDEST DUP2 EQ PUSH2 0x1AE4 JUMPI PUSH0 DUP1 REVERT JUMPDEST POP JUMP JUMPDEST PUSH0 DUP2 CALLDATALOAD SWAP1 POP PUSH2 0x1AF5 DUP2 PUSH2 0x1AD1 JUMP JUMPDEST SWAP3 SWAP2 POP POP JUMP JUMPDEST PUSH0 PUSH1 0x20 DUP3 DUP5 SUB SLT ISZERO PUSH2 0x1B10 JUMPI PUSH2 0x1B0F PUSH2 0x16FA JUMP JUMPDEST JUMPDEST PUSH0 PUSH2 0x1B1D DUP5 DUP3 DUP6 ADD PUSH2 0x1AE7 JUMP JUMPDEST SWAP2 POP POP SWAP3 SWAP2 POP POP JUMP JUMPDEST PUSH2 0x1B2F DUP2 PUSH2 0x1702 JUMP JUMPDEST DUP3 MSTORE POP POP JUMP JUMPDEST PUSH0 PUSH1 0x20 DUP3 ADD SWAP1 POP PUSH2 0x1B48 PUSH0 DUP4 ADD DUP5 PUSH2 0x1B26 JUMP JUMPDEST SWAP3 SWAP2 POP POP JUMP JUMPDEST PUSH0 DUP1 REVERT JUMPDEST PUSH0 DUP1 REVERT JUMPDEST PUSH0 PUSH1 0x1F NOT PUSH1 0x1F DUP4 ADD AND SWAP1 POP SWAP2 SWAP1 POP JUMP JUMPDEST PUSH32 0x4E487B7100000000000000000000000000000000000000000000000000000000 PUSH0 MSTORE PUSH1 0x41 PUSH1 0x4 MSTORE PUSH1 0x24 PUSH0 REVERT JUMPDEST PUSH2 0x1B9C DUP3 PUSH2 0x1B56 JUMP JUMPDEST DUP2 ADD DUP2 DUP2 LT PUSH8 0xFFFFFFFFFFFFFFFF DUP3 GT OR ISZERO PUSH2 0x1BBB JUMPI PUSH2 0x1BBA PUSH2 0x1B66 JUMP JUMPDEST JUMPDEST DUP1 PUSH1 0x40 MSTORE POP POP POP JUMP JUMPDEST PUSH0 PUSH2 0x1BCD PUSH2 0x16F1 JUMP JUMPDEST SWAP1 POP PUSH2 0x1BD9 DUP3 DUP3 PUSH2 0x1B93 JUMP JUMPDEST SWAP2 SWAP1 POP JUMP JUMPDEST PUSH0 PUSH8 0xFFFFFFFFFFFFFFFF DUP3 GT ISZERO PUSH2 0x1BF8 JUMPI PUSH2 0x1BF7 PUSH2 0x1B66 JUMP JUMPDEST JUMPDEST PUSH2 0x1C01 DUP3 PUSH2 0x1B56 JUMP JUMPDEST SWAP1 POP PUSH1 0x20 DUP2 ADD SWAP1 POP SWAP2 SWAP1 POP JUMP JUMPDEST DUP3 DUP2 DUP4 CALLDATACOPY PUSH0 DUP4 DUP4 ADD MSTORE POP POP POP JUMP JUMPDEST PUSH0 PUSH2 0x1C2E PUSH2 0x1C29 DUP5 PUSH2 0x1BDE JUMP JUMPDEST PUSH2 0x1BC4 JUMP JUMPDEST SWAP1 POP DUP3 DUP2 MSTORE PUSH1 0x20 DUP2 ADD DUP5 DUP5 DUP5 ADD GT ISZERO PUSH2 0x1C4A JUMPI PUSH2 0x1C49 PUSH2 0x1B52 JUMP JUMPDEST JUMPDEST PUSH2 0x1C55 DUP5 DUP3 DUP6 PUSH2 0x1C0E JUMP JUMPDEST POP SWAP4 SWAP3 POP POP POP JUMP JUMPDEST PUSH0 DUP3 PUSH1 0x1F DUP4 ADD SLT PUSH2 0x1C71 JUMPI PUSH2 0x1C70 PUSH2 0x1B4E JUMP JUMPDEST JUMPDEST DUP2 CALLDATALOAD PUSH2 0x1C81 DUP5 DUP3 PUSH1 0x20 DUP7 ADD PUSH2 0x1C1C JUMP JUMPDEST SWAP2 POP POP SWAP3 SWAP2 POP POP JUMP JUMPDEST PUSH0 DUP1 PUSH1 0x40 DUP4 DUP6 SUB SLT ISZERO PUSH2 0x1CA0 JUMPI PUSH2 0x1C9F PUSH2 0x16FA JUMP JUMPDEST JUMPDEST PUSH0 DUP4 ADD CALLDATALOAD PUSH8 0xFFFFFFFFFFFFFFFF DUP2 GT ISZERO PUSH2 0x1CBD JUMPI PUSH2 0x1CBC PUSH2 0x16FE JUMP JUMPDEST JUMPDEST PUSH2 0x1CC9 DUP6 DUP3 DUP7 ADD PUSH2 0x1C5D JUMP JUMPDEST SWAP3 POP POP PUSH1 0x20 PUSH2 0x1CDA DUP6 DUP3 DUP7 ADD PUSH2 0x1721 JUMP JUMPDEST SWAP2 POP POP SWAP3 POP SWAP3 SWAP1 POP JUMP JUMPDEST PUSH2 0x1CED DUP2 PUSH2 0x191E JUMP JUMPDEST DUP3 MSTORE POP POP JUMP JUMPDEST PUSH0 PUSH1 0x80 DUP3 ADD SWAP1 POP PUSH2 0x1D06 PUSH0 DUP4 ADD DUP8 PUSH2 0x1A2E JUMP JUMPDEST PUSH2 0x1D13 PUSH1 0x20 DUP4 ADD DUP7 PUSH2 0x1A2E JUMP JUMPDEST PUSH2 0x1D20 PUSH1 0x40 DUP4 ADD DUP6 PUSH2 0x1B26 JUMP JUMPDEST PUSH2 0x1D2D PUSH1 0x60 DUP4 ADD DUP5 PUSH2 0x1CE4 JUMP JUMPDEST SWAP6 SWAP5 POP POP POP POP POP JUMP JUMPDEST PUSH0 PUSH1 0x80 DUP3 ADD SWAP1 POP PUSH2 0x1D49 PUSH0 DUP4 ADD DUP8 PUSH2 0x1A2E JUMP JUMPDEST PUSH2 0x1D56 PUSH1 0x20 DUP4 ADD DUP7 PUSH2 0x1B26 JUMP JUMPDEST PUSH2 0x1D63 PUSH1 0x40 DUP4 ADD DUP6 PUSH2 0x1B26 JUMP JUMPDEST PUSH2 0x1D70 PUSH1 0x60 DUP4 ADD DUP5 PUSH2 0x1860 JUMP JUMPDEST SWAP6 SWAP5 POP POP POP POP POP JUMP JUMPDEST PUSH0 PUSH2 0x1D83 DUP3 PUSH2 0x17A9 JUMP JUMPDEST SWAP1 POP SWAP2 SWAP1 POP JUMP JUMPDEST PUSH2 0x1D93 DUP2 PUSH2 0x1D79 JUMP JUMPDEST DUP3 MSTORE POP POP JUMP JUMPDEST PUSH0 PUSH1 0x20 DUP3 ADD SWAP1 POP PUSH2 0x1DAC PUSH0 DUP4 ADD DUP5 PUSH2 0x1D8A JUMP JUMPDEST SWAP3 SWAP2 POP POP JUMP JUMPDEST PUSH0 DUP2 SWAP1 POP SWAP3 SWAP2 POP POP JUMP JUMPDEST PUSH32 0x4952454300000000000000000000000000000000000000000000000000000000 PUSH0 DUP3 ADD MSTORE POP JUMP JUMPDEST PUSH0 PUSH2 0x1DF0 PUSH1 0x4 DUP4 PUSH2 0x1DB2 JUMP JUMPDEST SWAP2 POP PUSH2 0x1DFB DUP3 PUSH2 0x1DBC JUMP JUMPDEST PUSH1 0x4 DUP3 ADD SWAP1 POP SWAP2 SWAP1 POP JUMP JUMPDEST PUSH0 PUSH2 0x1E10 DUP3 PUSH2 0x1DE4 JUMP JUMPDEST SWAP2 POP DUP2 SWAP1 POP SWAP2 SWAP1 POP JUMP JUMPDEST PUSH0 DUP3 DUP3 MSTORE PUSH1 0x20 DUP3 ADD SWAP1 POP SWAP3 SWAP2 POP POP JUMP JUMPDEST PUSH32 0x546F6B656E206E6F742061637469766500000000000000000000000000000000 PUSH0 DUP3 ADD MSTORE POP JUMP JUMPDEST PUSH0 PUSH2 0x1E5E PUSH1 0x10 DUP4 PUSH2 0x1E1A JUMP JUMPDEST SWAP2 POP PUSH2 0x1E69 DUP3 PUSH2 0x1E2A JUMP JUMPDEST PUSH1 0x20 DUP3 ADD SWAP1 POP SWAP2 SWAP1 POP JUMP JUMPDEST PUSH0 PUSH1 0x20 DUP3 ADD SWAP1 POP DUP2 DUP2 SUB PUSH0 DUP4 ADD MSTORE PUSH2 0x1E8B DUP2 PUSH2 0x1E52 JUMP JUMPDEST SWAP1 POP SWAP2 SWAP1 POP JUMP JUMPDEST PUSH32 0x4E487B7100000000000000000000000000000000000000000000000000000000 PUSH0 MSTORE PUSH1 0x11 PUSH1 0x4 MSTORE PUSH1 0x24 PUSH0 REVERT JUMPDEST PUSH0 PUSH2 0x1EC9 DUP3 PUSH2 0x1702 JUMP JUMPDEST SWAP2 POP PUSH2 0x1ED4 DUP4 PUSH2 0x1702 JUMP JUMPDEST SWAP3 POP DUP3 DUP3 MUL PUSH2 0x1EE2 DUP2 PUSH2 0x1702 JUMP JUMPDEST SWAP2 POP DUP3 DUP3 DIV DUP5 EQ DUP4 ISZERO OR PUSH2 0x1EF9 JUMPI PUSH2 0x1EF8 PUSH2 0x1E92 JUMP JUMPDEST JUMPDEST POP SWAP3 SWAP2 POP POP JUMP JUMPDEST PUSH32 0x496E73756666696369656E74204554482073656E740000000000000000000000 PUSH0 DUP3 ADD MSTORE POP JUMP JUMPDEST PUSH0 PUSH2 0x1F34 PUSH1 0x15 DUP4 PUSH2 0x1E1A JUMP JUMPDEST SWAP2 POP PUSH2 0x1F3F DUP3 PUSH2 0x1F00 JUMP JUMPDEST PUSH1 0x20 DUP3 ADD SWAP1 POP SWAP2 SWAP1 POP JUMP JUMPDEST PUSH0 PUSH1 0x20 DUP3 ADD SWAP1 POP DUP2 DUP2 SUB PUSH0 DUP4 ADD MSTORE PUSH2 0x1F61 DUP2 PUSH2 0x1F28 JUMP JUMPDEST SWAP1 POP SWAP2 SWAP1 POP JUMP JUMPDEST PUSH0 PUSH1 0x40 DUP3 ADD SWAP1 POP PUSH2 0x1F7B PUSH0 DUP4 ADD DUP6 PUSH2 0x1A2E JUMP JUMPDEST PUSH2 0x1F88 PUSH1 0x20 DUP4 ADD DUP5 PUSH2 0x1B26 JUMP JUMPDEST SWAP4 SWAP3 POP POP POP JUMP JUMPDEST PUSH2 0x1F98 DUP2 PUSH2 0x1855 JUMP JUMPDEST DUP2 EQ PUSH2 0x1FA2 JUMPI PUSH0 DUP1 REVERT JUMPDEST POP JUMP JUMPDEST PUSH0 DUP2 MLOAD SWAP1 POP PUSH2 0x1FB3 DUP2 PUSH2 0x1F8F JUMP JUMPDEST SWAP3 SWAP2 POP POP JUMP JUMPDEST PUSH0 PUSH1 0x20 DUP3 DUP5 SUB SLT ISZERO PUSH2 0x1FCE JUMPI PUSH2 0x1FCD PUSH2 0x16FA JUMP JUMPDEST JUMPDEST PUSH0 PUSH2 0x1FDB DUP5 DUP3 DUP6 ADD PUSH2 0x1FA5 JUMP JUMPDEST SWAP2 POP POP SWAP3 SWAP2 POP POP JUMP JUMPDEST PUSH0 PUSH1 0x40 DUP3 ADD SWAP1 POP PUSH2 0x1FF7 PUSH0 DUP4 ADD DUP6 PUSH2 0x1B26 JUMP JUMPDEST PUSH2 0x2004 PUSH1 0x20 DUP4 ADD DUP5 PUSH2 0x1B26 JUMP JUMPDEST SWAP4 SWAP3 POP POP POP JUMP JUMPDEST PUSH0 DUP2 MLOAD SWAP1 POP PUSH2 0x2019 DUP2 PUSH2 0x170B JUMP JUMPDEST SWAP3 SWAP2 POP POP JUMP JUMPDEST PUSH0 PUSH1 0x20 DUP3 DUP5 SUB SLT ISZERO PUSH2 0x2034 JUMPI PUSH2 0x2033 PUSH2 0x16FA JUMP JUMPDEST JUMPDEST PUSH0 PUSH2 0x2041 DUP5 DUP3 DUP6 ADD PUSH2 0x200B JUMP JUMPDEST SWAP2 POP POP SWAP3 SWAP2 POP POP JUMP JUMPDEST PUSH0 PUSH1 0x60 DUP3 ADD SWAP1 POP PUSH2 0x205D PUSH0 DUP4 ADD DUP7 PUSH2 0x1A2E JUMP JUMPDEST PUSH2 0x206A PUSH1 0x20 DUP4 ADD DUP6 PUSH2 0x1A2E JUMP JUMPDEST PUSH2 0x2077 PUSH1 0x40 DUP4 ADD DUP5 PUSH2 0x1B26 JUMP JUMPDEST SWAP5 SWAP4 POP POP POP POP JUMP JUMPDEST PUSH32 0x53616C65206E6F74206163746976650000000000000000000000000000000000 PUSH0 DUP3 ADD MSTORE POP JUMP JUMPDEST PUSH0 PUSH2 0x20B3 PUSH1 0xF DUP4 PUSH2 0x1E1A JUMP JUMPDEST SWAP2 POP PUSH2 0x20BE DUP3 PUSH2 0x207F JUMP JUMPDEST PUSH1 0x20 DUP3 ADD SWAP1 POP SWAP2 SWAP1 POP JUMP JUMPDEST PUSH0 PUSH1 0x20 DUP3 ADD SWAP1 POP DUP2 DUP2 SUB PUSH0 DUP4 ADD MSTORE PUSH2 0x20E0 DUP2 PUSH2 0x20A7 JUMP JUMPDEST SWAP1 POP SWAP2 SWAP1 POP JUMP JUMPDEST PUSH32 0x4D7573742073656E642045544800000000000000000000000000000000000000 PUSH0 DUP3 ADD MSTORE POP JUMP JUMPDEST PUSH0 PUSH2 0x211B PUSH1 0xD DUP4 PUSH2 0x1E1A JUMP JUMPDEST SWAP2 POP PUSH2 0x2126 DUP3 PUSH2 0x20E7 JUMP JUMPDEST PUSH1 0x20 DUP3 ADD SWAP1 POP SWAP2 SWAP1 POP JUMP JUMPDEST PUSH0 PUSH1 0x20 DUP3 ADD SWAP1 POP DUP2 DUP2 SUB PUSH0 DUP4 ADD MSTORE PUSH2 0x2148 DUP2 PUSH2 0x210F JUMP JUMPDEST SWAP1 POP SWAP2 SWAP1 POP JUMP JUMPDEST PUSH32 0x4E487B7100000000000000000000000000000000000000000000000000000000 PUSH0 MSTORE PUSH1 0x12 PUSH1 0x4 MSTORE PUSH1 0x24 PUSH0 REVERT JUMPDEST PUSH0 PUSH2 0x2186 DUP3 PUSH2 0x1702 JUMP JUMPDEST SWAP2 POP PUSH2 0x2191 DUP4 PUSH2 0x1702 JUMP JUMPDEST SWAP3 POP DUP3 PUSH2 0x21A1 JUMPI PUSH2 0x21A0 PUSH2 0x214F JUMP JUMPDEST JUMPDEST DUP3 DUP3 DIV SWAP1 POP SWAP3 SWAP2 POP POP JUMP JUMPDEST PUSH32 0x4E6F7420656E6F756768204554482073656E7400000000000000000000000000 PUSH0 DUP3 ADD MSTORE POP JUMP JUMPDEST PUSH0 PUSH2 0x21E0 PUSH1 0x13 DUP4 PUSH2 0x1E1A JUMP JUMPDEST SWAP2 POP PUSH2 0x21EB DUP3 PUSH2 0x21AC JUMP JUMPDEST PUSH1 0x20 DUP3 ADD SWAP1 POP SWAP2 SWAP1 POP JUMP JUMPDEST PUSH0 PUSH1 0x20 DUP3 ADD SWAP1 POP DUP2 DUP2 SUB PUSH0 DUP4 ADD MSTORE PUSH2 0x220D DUP2 PUSH2 0x21D4 JUMP JUMPDEST SWAP1 POP SWAP2 SWAP1 POP JUMP JUMPDEST PUSH0 PUSH2 0x222E PUSH2 0x2229 PUSH2 0x2224 DUP5 PUSH2 0x17F3 JUMP JUMPDEST PUSH2 0x177F JUMP JUMPDEST PUSH2 0x1702 JUMP JUMPDEST SWAP1 POP SWAP2 SWAP1 POP JUMP JUMPDEST PUSH2 0x223E DUP2 PUSH2 0x2214 JUMP JUMPDEST DUP3 MSTORE POP POP JUMP JUMPDEST PUSH0 PUSH1 0x40 DUP3 ADD SWAP1 POP PUSH2 0x2257 PUSH0 DUP4 ADD DUP6 PUSH2 0x2235 JUMP JUMPDEST PUSH2 0x2264 PUSH1 0x20 DUP4 ADD DUP5 PUSH2 0x1B26 JUMP JUMPDEST SWAP4 SWAP3 POP POP POP JUMP JUMPDEST PUSH32 0x496E73756666696369656E7420546F6B656E7320546F204C6973742100000000 PUSH0 DUP3 ADD MSTORE POP JUMP JUMPDEST PUSH0 PUSH2 0x229F PUSH1 0x1C DUP4 PUSH2 0x1E1A JUMP JUMPDEST SWAP2 POP PUSH2 0x22AA DUP3 PUSH2 0x226B JUMP JUMPDEST PUSH1 0x20 DUP3 ADD SWAP1 POP SWAP2 SWAP1 POP JUMP JUMPDEST PUSH0 PUSH1 0x20 DUP3 ADD SWAP1 POP DUP2 DUP2 SUB PUSH0 DUP4 ADD MSTORE PUSH2 0x22CC DUP2 PUSH2 0x2293 JUMP JUMPDEST SWAP1 POP SWAP2 SWAP1 POP JUMP JUMPDEST PUSH0 PUSH2 0x22DD DUP3 PUSH2 0x1702 JUMP JUMPDEST SWAP2 POP PUSH32 0xFFFFFFFFFFFFFFFFFFFFFFFFFFFFFFFFFFFFFFFFFFFFFFFFFFFFFFFFFFFFFFFF DUP3 SUB PUSH2 0x230F JUMPI PUSH2 0x230E PUSH2 0x1E92 JUMP JUMPDEST JUMPDEST PUSH1 0x1 DUP3 ADD SWAP1 POP SWAP2 SWAP1 POP JUMP INVALID LOG2 PUSH5 0x6970667358 0x22 SLT KECCAK256 SWAP13 0xEB INVALID PUSH5 0x5768724860 BALANCE 0xA9 0xCE EQ KECCAK256 0xC7 0xAC XOR BLOBHASH 0xDF 0xE8 0xDB 0x2A 0x21 OR 0xDF 0xDD 0xC7 0xB6 0xE0 PUSH6 0xBCA564736F6C PUSH4 0x4300081A STOP CALLER "
				},
				"gasEstimates": {
					"creation": {
						"codeDepositCost": "1808000",
						"executionCost": "infinite",
						"totalCost": "infinite"
					},
					"external": {
						"configureSale(uint256)": "infinite",
						"depositReserveTokens()": "infinite",
						"fractionToken()": "infinite",
						"getOwnershipPercentage(address)": "infinite",
						"getOwnershipTransfers()": "infinite",
						"getTokenListing(uint256)": "infinite",
						"listToken(uint256,uint256)": "infinite",
						"listingCount()": "2514",
						"listings(string,uint256)": "infinite",
						"nftContract()": "infinite",
						"owner()": "2538",
						"ownerships(string,uint256)": "infinite",
						"purchaseFromListing(uint256)": "infinite",
						"purchaseFromReserve(uint16)": "infinite",
						"renounceOwnership()": "infinite",
						"saleActive()": "2511",
						"salePrice()": "2535",
						"transferOwnership(address)": "infinite"
					}
				},
				"methodIdentifiers": {
					"configureSale(uint256)": "4aee1de1",
					"depositReserveTokens()": "640b29d5",
					"fractionToken()": "457dfc67",
					"getOwnershipPercentage(address)": "a2931fe8",
					"getOwnershipTransfers()": "8125e3ac",
					"getTokenListing(uint256)": "98792eec",
					"listToken(uint256,uint256)": "75c1631d",
					"listingCount()": "a9b07c26",
					"listings(string,uint256)": "ca716b15",
					"nftContract()": "d56d229d",
					"owner()": "8da5cb5b",
					"ownerships(string,uint256)": "b08a1adf",
					"purchaseFromListing(uint256)": "0299c6eb",
					"purchaseFromReserve(uint16)": "665b3cc1",
					"renounceOwnership()": "715018a6",
					"saleActive()": "68428a1b",
					"salePrice()": "f51f96dd",
					"transferOwnership(address)": "f2fde38b"
				}
			},
			"storageLayout": {
				"storage": [
					{
						"astId": 8,
						"contract": "contracts/IREC/IRECMarketplace.sol:IRECMarketplace",
						"label": "_owner",
						"offset": 0,
						"slot": "0",
						"type": "t_address"
					},
					{
						"astId": 394,
						"contract": "contracts/IREC/IRECMarketplace.sol:IRECMarketplace",
						"label": "fractionToken",
						"offset": 0,
						"slot": "1",
						"type": "t_contract(IERC20)225"
					},
					{
						"astId": 397,
						"contract": "contracts/IREC/IRECMarketplace.sol:IRECMarketplace",
						"label": "nftContract",
						"offset": 0,
						"slot": "2",
						"type": "t_contract(IERC721)342"
					},
					{
						"astId": 399,
						"contract": "contracts/IREC/IRECMarketplace.sol:IRECMarketplace",
						"label": "salePrice",
						"offset": 0,
						"slot": "3",
						"type": "t_uint256"
					},
					{
						"astId": 402,
						"contract": "contracts/IREC/IRECMarketplace.sol:IRECMarketplace",
						"label": "saleActive",
						"offset": 0,
						"slot": "4",
						"type": "t_bool"
					},
					{
						"astId": 417,
						"contract": "contracts/IREC/IRECMarketplace.sol:IRECMarketplace",
						"label": "ownerships",
						"offset": 0,
						"slot": "5",
						"type": "t_mapping(t_string_memory_ptr,t_array(t_struct(Ownership)411_storage)dyn_storage)"
					},
					{
						"astId": 433,
						"contract": "contracts/IREC/IRECMarketplace.sol:IRECMarketplace",
						"label": "listings",
						"offset": 0,
						"slot": "6",
						"type": "t_mapping(t_string_memory_ptr,t_mapping(t_uint256,t_struct(Listing)426_storage))"
					},
					{
						"astId": 435,
						"contract": "contracts/IREC/IRECMarketplace.sol:IRECMarketplace",
						"label": "listingCount",
						"offset": 0,
						"slot": "7",
						"type": "t_uint256"
					}
				],
				"types": {
					"t_address": {
						"encoding": "inplace",
						"label": "address",
						"numberOfBytes": "20"
					},
					"t_array(t_struct(Ownership)411_storage)dyn_storage": {
						"base": "t_struct(Ownership)411_storage",
						"encoding": "dynamic_array",
						"label": "struct IRECMarketplace.Ownership[]",
						"numberOfBytes": "32"
					},
					"t_bool": {
						"encoding": "inplace",
						"label": "bool",
						"numberOfBytes": "1"
					},
					"t_contract(IERC20)225": {
						"encoding": "inplace",
						"label": "contract IERC20",
						"numberOfBytes": "20"
					},
					"t_contract(IERC721)342": {
						"encoding": "inplace",
						"label": "contract IERC721",
						"numberOfBytes": "20"
					},
					"t_mapping(t_string_memory_ptr,t_array(t_struct(Ownership)411_storage)dyn_storage)": {
						"encoding": "mapping",
						"key": "t_string_memory_ptr",
						"label": "mapping(string => struct IRECMarketplace.Ownership[])",
						"numberOfBytes": "32",
						"value": "t_array(t_struct(Ownership)411_storage)dyn_storage"
					},
					"t_mapping(t_string_memory_ptr,t_mapping(t_uint256,t_struct(Listing)426_storage))": {
						"encoding": "mapping",
						"key": "t_string_memory_ptr",
						"label": "mapping(string => mapping(uint256 => struct IRECMarketplace.Listing))",
						"numberOfBytes": "32",
						"value": "t_mapping(t_uint256,t_struct(Listing)426_storage)"
					},
					"t_mapping(t_uint256,t_struct(Listing)426_storage)": {
						"encoding": "mapping",
						"key": "t_uint256",
						"label": "mapping(uint256 => struct IRECMarketplace.Listing)",
						"numberOfBytes": "32",
						"value": "t_struct(Listing)426_storage"
					},
					"t_string_memory_ptr": {
						"encoding": "bytes",
						"label": "string",
						"numberOfBytes": "32"
					},
					"t_struct(Listing)426_storage": {
						"encoding": "inplace",
						"label": "struct IRECMarketplace.Listing",
						"members": [
							{
								"astId": 419,
								"contract": "contracts/IREC/IRECMarketplace.sol:IRECMarketplace",
								"label": "seller",
								"offset": 0,
								"slot": "0",
								"type": "t_address"
							},
							{
								"astId": 421,
								"contract": "contracts/IREC/IRECMarketplace.sol:IRECMarketplace",
								"label": "amount",
								"offset": 0,
								"slot": "1",
								"type": "t_uint256"
							},
							{
								"astId": 423,
								"contract": "contracts/IREC/IRECMarketplace.sol:IRECMarketplace",
								"label": "pricePerToken",
								"offset": 0,
								"slot": "2",
								"type": "t_uint256"
							},
							{
								"astId": 425,
								"contract": "contracts/IREC/IRECMarketplace.sol:IRECMarketplace",
								"label": "active",
								"offset": 0,
								"slot": "3",
								"type": "t_bool"
							}
						],
						"numberOfBytes": "128"
					},
					"t_struct(Ownership)411_storage": {
						"encoding": "inplace",
						"label": "struct IRECMarketplace.Ownership",
						"members": [
							{
								"astId": 404,
								"contract": "contracts/IREC/IRECMarketplace.sol:IRECMarketplace",
								"label": "from",
								"offset": 0,
								"slot": "0",
								"type": "t_address"
							},
							{
								"astId": 406,
								"contract": "contracts/IREC/IRECMarketplace.sol:IRECMarketplace",
								"label": "to",
								"offset": 0,
								"slot": "1",
								"type": "t_address"
							},
							{
								"astId": 408,
								"contract": "contracts/IREC/IRECMarketplace.sol:IRECMarketplace",
								"label": "amount",
								"offset": 0,
								"slot": "2",
								"type": "t_uint256"
							},
							{
								"astId": 410,
								"contract": "contracts/IREC/IRECMarketplace.sol:IRECMarketplace",
								"label": "timestampz",
								"offset": 0,
								"slot": "3",
								"type": "t_uint32"
							}
						],
						"numberOfBytes": "128"
					},
					"t_uint256": {
						"encoding": "inplace",
						"label": "uint256",
						"numberOfBytes": "32"
					},
					"t_uint32": {
						"encoding": "inplace",
						"label": "uint32",
						"numberOfBytes": "4"
					}
				}
			},
			"userdoc": {
				"kind": "user",
				"methods": {},
				"version": 1
			}
		}
	}
}