{
	"data": {
		"bytecode": {
			"linkReferences": {},
			"object": "608060405234801561000f575f80fd5b50604051612ddd380380612ddd833981810160405281019061003191906102fd565b338383815f908161004291906105ae565b50806001908161005291906105ae565b5050505f73ffffffffffffffffffffffffffffffffffffffff168173ffffffffffffffffffffffffffffffffffffffff16036100c5575f6040517f1e4fbdf70000000000000000000000000000000000000000000000000000000081526004016100bc91906106bc565b60405180910390fd5b6100d4816100ed60201b60201c565b5080600990816100e491906105ae565b505050506106d5565b5f60075f9054906101000a900473ffffffffffffffffffffffffffffffffffffffff1690508160075f6101000a81548173ffffffffffffffffffffffffffffffffffffffff021916908373ffffffffffffffffffffffffffffffffffffffff1602179055508173ffffffffffffffffffffffffffffffffffffffff168173ffffffffffffffffffffffffffffffffffffffff167f8be0079c531659141344cd1fd0a4f28419497f9722a3daafe3b4186f6b6457e060405160405180910390a35050565b5f604051905090565b5f80fd5b5f80fd5b5f80fd5b5f80fd5b5f601f19601f8301169050919050565b7f4e487b71000000000000000000000000000000000000000000000000000000005f52604160045260245ffd5b61020f826101c9565b810181811067ffffffffffffffff8211171561022e5761022d6101d9565b5b80604052505050565b5f6102406101b0565b905061024c8282610206565b919050565b5f67ffffffffffffffff82111561026b5761026a6101d9565b5b610274826101c9565b9050602081019050919050565b8281835e5f83830152505050565b5f6102a161029c84610251565b610237565b9050828152602081018484840111156102bd576102bc6101c5565b5b6102c8848285610281565b509392505050565b5f82601f8301126102e4576102e36101c1565b5b81516102f484826020860161028f565b91505092915050565b5f805f60608486031215610314576103136101b9565b5b5f84015167ffffffffffffffff811115610331576103306101bd565b5b61033d868287016102d0565b935050602084015167ffffffffffffffff81111561035e5761035d6101bd565b5b61036a868287016102d0565b925050604084015167ffffffffffffffff81111561038b5761038a6101bd565b5b610397868287016102d0565b9150509250925092565b5f81519050919050565b7f4e487b71000000000000000000000000000000000000000000000000000000005f52602260045260245ffd5b5f60028204905060018216806103ef57607f821691505b602082108103610402576104016103ab565b5b50919050565b5f819050815f5260205f209050919050565b5f6020601f8301049050919050565b5f82821b905092915050565b5f600883026104647fffffffffffffffffffffffffffffffffffffffffffffffffffffffffffffffff82610429565b61046e8683610429565b95508019841693508086168417925050509392505050565b5f819050919050565b5f819050919050565b5f6104b26104ad6104a884610486565b61048f565b610486565b9050919050565b5f819050919050565b6104cb83610498565b6104df6104d7826104b9565b848454610435565b825550505050565b5f90565b6104f36104e7565b6104fe8184846104c2565b505050565b5b81811015610521576105165f826104eb565b600181019050610504565b5050565b601f8211156105665761053781610408565b6105408461041a565b8101602085101561054f578190505b61056361055b8561041a565b830182610503565b50505b505050565b5f82821c905092915050565b5f6105865f198460080261056b565b1980831691505092915050565b5f61059e8383610577565b9150826002028217905092915050565b6105b7826103a1565b67ffffffffffffffff8111156105d0576105cf6101d9565b5b6105da82546103d8565b6105e5828285610525565b5f60209050601f831160018114610616575f8415610604578287015190505b61060e8582610593565b865550610675565b601f19841661062486610408565b5f5b8281101561064b57848901518255600182019150602085019450602081019050610626565b868310156106685784890151610664601f891682610577565b8355505b6001600288020188555050505b505050505050565b5f73ffffffffffffffffffffffffffffffffffffffff82169050919050565b5f6106a68261067d565b9050919050565b6106b68161069c565b82525050565b5f6020820190506106cf5f8301846106ad565b92915050565b6126fb806106e25f395ff3fe608060405234801561000f575f80fd5b506004361061011f575f3560e01c806370a08231116100ab578063b88d4fde1161006f578063b88d4fde146102ef578063c87b56dd1461030b578063d8c34fd11461033b578063e985e9c514610359578063f2fde38b146103895761011f565b806370a082311461025d578063715018a61461028d5780638da5cb5b1461029757806395d89b41146102b5578063a22cb465146102d35761011f565b806323b872dd116100f257806323b872dd146101bd57806340d097c3146101d957806342842e0e146101f557806355f804b3146102115780636352211e1461022d5761011f565b806301ffc9a71461012357806306fdde0314610153578063081812fc14610171578063095ea7b3146101a1575b5f80fd5b61013d60048036038101906101389190611bf5565b6103a5565b60405161014a9190611c3a565b60405180910390f35b61015b6103b6565b6040516101689190611cc3565b60405180910390f35b61018b60048036038101906101869190611d16565b610445565b6040516101989190611d80565b60405180910390f35b6101bb60048036038101906101b69190611dc3565b610460565b005b6101d760048036038101906101d29190611e01565b610476565b005b6101f360048036038101906101ee9190611e51565b610575565b005b61020f600480360381019061020a9190611e01565b610630565b005b61022b60048036038101906102269190611fa8565b61064f565b005b61024760048036038101906102429190611d16565b61066a565b6040516102549190611d80565b60405180910390f35b61027760048036038101906102729190611e51565b61067b565b6040516102849190611ffe565b60405180910390f35b610295610731565b005b61029f610744565b6040516102ac9190611d80565b60405180910390f35b6102bd61076c565b6040516102ca9190611cc3565b60405180910390f35b6102ed60048036038101906102e89190612041565b6107fc565b005b6103096004803603810190610304919061211d565b610812565b005b61032560048036038101906103209190611d16565b610837565b6040516103329190611cc3565b60405180910390f35b610343610849565b6040516103509190611ffe565b60405180910390f35b610373600480360381019061036e919061219d565b610852565b6040516103809190611c3a565b60405180910390f35b6103a3600480360381019061039e9190611e51565b6108e0565b005b5f6103af82610964565b9050919050565b60605f80546103c490612208565b80601f01602080910402602001604051908101604052809291908181526020018280546103f090612208565b801561043b5780601f106104125761010080835404028352916020019161043b565b820191905f5260205f20905b81548152906001019060200180831161041e57829003601f168201915b5050505050905090565b5f61044f826109c4565b5061045982610a4a565b9050919050565b610472828261046d610a83565b610a8a565b5050565b5f73ffffffffffffffffffffffffffffffffffffffff168273ffffffffffffffffffffffffffffffffffffffff16036104e6575f6040517f64a0ae920000000000000000000000000000000000000000000000000000000081526004016104dd9190611d80565b60405180910390fd5b5f6104f983836104f4610a83565b610a9c565b90508373ffffffffffffffffffffffffffffffffffffffff168173ffffffffffffffffffffffffffffffffffffffff161461056f578382826040517f64283d7b00000000000000000000000000000000000000000000000000000000815260040161056693929190612238565b60405180910390fd5b50505050565b61057d610ca7565b5f610586610849565b9050610590610d2e565b61059a8282610d49565b61062c81600980546105ab90612208565b80601f01602080910402602001604051908101604052809291908181526020018280546105d790612208565b80156106225780601f106105f957610100808354040283529160200191610622565b820191905f5260205f20905b81548152906001019060200180831161060557829003601f168201915b5050505050610d66565b5050565b61064a83838360405180602001604052805f815250610812565b505050565b610657610ca7565b8060099081610666919061240a565b5050565b5f610674826109c4565b9050919050565b5f8073ffffffffffffffffffffffffffffffffffffffff168273ffffffffffffffffffffffffffffffffffffffff16036106ec575f6040517f89c62b640000000000000000000000000000000000000000000000000000000081526004016106e39190611d80565b60405180910390fd5b60035f8373ffffffffffffffffffffffffffffffffffffffff1673ffffffffffffffffffffffffffffffffffffffff1681526020019081526020015f20549050919050565b610739610ca7565b6107425f610dc0565b565b5f60075f9054906101000a900473ffffffffffffffffffffffffffffffffffffffff16905090565b60606001805461077b90612208565b80601f01602080910402602001604051908101604052809291908181526020018280546107a790612208565b80156107f25780601f106107c9576101008083540402835291602001916107f2565b820191905f5260205f20905b8154815290600101906020018083116107d557829003601f168201915b5050505050905090565b61080e610807610a83565b8383610e83565b5050565b61081d848484610476565b610831610828610a83565b85858585610fec565b50505050565b606061084282611198565b9050919050565b5f600854905090565b5f60055f8473ffffffffffffffffffffffffffffffffffffffff1673ffffffffffffffffffffffffffffffffffffffff1681526020019081526020015f205f8373ffffffffffffffffffffffffffffffffffffffff1673ffffffffffffffffffffffffffffffffffffffff1681526020019081526020015f205f9054906101000a900460ff16905092915050565b6108e8610ca7565b5f73ffffffffffffffffffffffffffffffffffffffff168173ffffffffffffffffffffffffffffffffffffffff1603610958575f6040517f1e4fbdf700000000000000000000000000000000000000000000000000000000815260040161094f9190611d80565b60405180910390fd5b61096181610dc0565b50565b5f634906490660e01b7bffffffffffffffffffffffffffffffffffffffffffffffffffffffff1916827bffffffffffffffffffffffffffffffffffffffffffffffffffffffff191614806109bd57506109bc826112a3565b5b9050919050565b5f806109cf83611384565b90505f73ffffffffffffffffffffffffffffffffffffffff168173ffffffffffffffffffffffffffffffffffffffff1603610a4157826040517f7e273289000000000000000000000000000000000000000000000000000000008152600401610a389190611ffe565b60405180910390fd5b80915050919050565b5f60045f8381526020019081526020015f205f9054906101000a900473ffffffffffffffffffffffffffffffffffffffff169050919050565b5f33905090565b610a9783838360016113bd565b505050565b5f80610aa784611384565b90505f73ffffffffffffffffffffffffffffffffffffffff168373ffffffffffffffffffffffffffffffffffffffff1614610ae857610ae781848661157c565b5b5f73ffffffffffffffffffffffffffffffffffffffff168173ffffffffffffffffffffffffffffffffffffffff1614610b7357610b275f855f806113bd565b600160035f8373ffffffffffffffffffffffffffffffffffffffff1673ffffffffffffffffffffffffffffffffffffffff1681526020019081526020015f205f82825403925050819055505b5f73ffffffffffffffffffffffffffffffffffffffff168573ffffffffffffffffffffffffffffffffffffffff1614610bf257600160035f8773ffffffffffffffffffffffffffffffffffffffff1673ffffffffffffffffffffffffffffffffffffffff1681526020019081526020015f205f82825401925050819055505b8460025f8681526020019081526020015f205f6101000a81548173ffffffffffffffffffffffffffffffffffffffff021916908373ffffffffffffffffffffffffffffffffffffffff160217905550838573ffffffffffffffffffffffffffffffffffffffff168273ffffffffffffffffffffffffffffffffffffffff167fddf252ad1be2c89b69c2b068fc378daa952ba7f163c4a11628f55a4df523b3ef60405160405180910390a4809150509392505050565b610caf610a83565b73ffffffffffffffffffffffffffffffffffffffff16610ccd610744565b73ffffffffffffffffffffffffffffffffffffffff1614610d2c57610cf0610a83565b6040517f118cdaa7000000000000000000000000000000000000000000000000000000008152600401610d239190611d80565b60405180910390fd5b565b600160085f828254610d409190612506565b92505081905550565b610d62828260405180602001604052805f81525061163f565b5050565b8060065f8481526020019081526020015f209081610d84919061240a565b507ff8e1a15aba9398e019f0b49df1a4fde98ee17ae345cb5f6b5e2c27f5033e8ce782604051610db49190611ffe565b60405180910390a15050565b5f60075f9054906101000a900473ffffffffffffffffffffffffffffffffffffffff1690508160075f6101000a81548173ffffffffffffffffffffffffffffffffffffffff021916908373ffffffffffffffffffffffffffffffffffffffff1602179055508173ffffffffffffffffffffffffffffffffffffffff168173ffffffffffffffffffffffffffffffffffffffff167f8be0079c531659141344cd1fd0a4f28419497f9722a3daafe3b4186f6b6457e060405160405180910390a35050565b5f73ffffffffffffffffffffffffffffffffffffffff168273ffffffffffffffffffffffffffffffffffffffff1603610ef357816040517f5b08ba18000000000000000000000000000000000000000000000000000000008152600401610eea9190611d80565b60405180910390fd5b8060055f8573ffffffffffffffffffffffffffffffffffffffff1673ffffffffffffffffffffffffffffffffffffffff1681526020019081526020015f205f8473ffffffffffffffffffffffffffffffffffffffff1673ffffffffffffffffffffffffffffffffffffffff1681526020019081526020015f205f6101000a81548160ff0219169083151502179055508173ffffffffffffffffffffffffffffffffffffffff168373ffffffffffffffffffffffffffffffffffffffff167f17307eab39ab6107e8899845ad3d59bd9653f200f220920489ca2b5937696c3183604051610fdf9190611c3a565b60405180910390a3505050565b5f8373ffffffffffffffffffffffffffffffffffffffff163b1115611191578273ffffffffffffffffffffffffffffffffffffffff1663150b7a02868685856040518563ffffffff1660e01b815260040161104a949392919061258b565b6020604051808303815f875af192505050801561108557506040513d601f19601f8201168201806040525081019061108291906125e9565b60015b611106573d805f81146110b3576040519150601f19603f3d011682016040523d82523d5f602084013e6110b8565b606091505b505f8151036110fe57836040517f64a0ae920000000000000000000000000000000000000000000000000000000081526004016110f59190611d80565b60405180910390fd5b805181602001fd5b63150b7a0260e01b7bffffffffffffffffffffffffffffffffffffffffffffffffffffffff1916817bffffffffffffffffffffffffffffffffffffffffffffffffffffffff19161461118f57836040517f64a0ae920000000000000000000000000000000000000000000000000000000081526004016111869190611d80565b60405180910390fd5b505b5050505050565b60606111a3826109c4565b505f60065f8481526020019081526020015f2080546111c190612208565b80601f01602080910402602001604051908101604052809291908181526020018280546111ed90612208565b80156112385780601f1061120f57610100808354040283529160200191611238565b820191905f5260205f20905b81548152906001019060200180831161121b57829003601f168201915b505050505090505f611248611662565b90505f81510361125c57819250505061129e565b5f8251111561129057808260405160200161127892919061264e565b6040516020818303038152906040529250505061129e565b611299846116f2565b925050505b919050565b5f7f80ac58cd000000000000000000000000000000000000000000000000000000007bffffffffffffffffffffffffffffffffffffffffffffffffffffffff1916827bffffffffffffffffffffffffffffffffffffffffffffffffffffffff1916148061136d57507f5b5e139f000000000000000000000000000000000000000000000000000000007bffffffffffffffffffffffffffffffffffffffffffffffffffffffff1916827bffffffffffffffffffffffffffffffffffffffffffffffffffffffff1916145b8061137d575061137c82611758565b5b9050919050565b5f60025f8381526020019081526020015f205f9054906101000a900473ffffffffffffffffffffffffffffffffffffffff169050919050565b80806113f557505f73ffffffffffffffffffffffffffffffffffffffff168273ffffffffffffffffffffffffffffffffffffffff1614155b15611527575f611404846109c4565b90505f73ffffffffffffffffffffffffffffffffffffffff168373ffffffffffffffffffffffffffffffffffffffff161415801561146e57508273ffffffffffffffffffffffffffffffffffffffff168173ffffffffffffffffffffffffffffffffffffffff1614155b8015611481575061147f8184610852565b155b156114c357826040517fa9fbf51f0000000000000000000000000000000000000000000000000000000081526004016114ba9190611d80565b60405180910390fd5b811561152557838573ffffffffffffffffffffffffffffffffffffffff168273ffffffffffffffffffffffffffffffffffffffff167f8c5be1e5ebec7d5bd14f71427d1e84f3dd0314c0f7b2291e5b200ac8c7c3b92560405160405180910390a45b505b8360045f8581526020019081526020015f205f6101000a81548173ffffffffffffffffffffffffffffffffffffffff021916908373ffffffffffffffffffffffffffffffffffffffff16021790555050505050565b6115878383836117c1565b61163a575f73ffffffffffffffffffffffffffffffffffffffff168373ffffffffffffffffffffffffffffffffffffffff16036115fb57806040517f7e2732890000000000000000000000000000000000000000000000000000000081526004016115f29190611ffe565b60405180910390fd5b81816040517f177e802f000000000000000000000000000000000000000000000000000000008152600401611631929190612671565b60405180910390fd5b505050565b6116498383611881565b61165d611654610a83565b5f858585610fec565b505050565b60606009805461167190612208565b80601f016020809104026020016040519081016040528092919081815260200182805461169d90612208565b80156116e85780601f106116bf576101008083540402835291602001916116e8565b820191905f5260205f20905b8154815290600101906020018083116116cb57829003601f168201915b5050505050905090565b60606116fd826109c4565b505f611707611662565b90505f8151116117255760405180602001604052805f815250611750565b8061172f84611974565b60405160200161174092919061264e565b6040516020818303038152906040525b915050919050565b5f7f01ffc9a7000000000000000000000000000000000000000000000000000000007bffffffffffffffffffffffffffffffffffffffffffffffffffffffff1916827bffffffffffffffffffffffffffffffffffffffffffffffffffffffff1916149050919050565b5f8073ffffffffffffffffffffffffffffffffffffffff168373ffffffffffffffffffffffffffffffffffffffff161415801561187857508273ffffffffffffffffffffffffffffffffffffffff168473ffffffffffffffffffffffffffffffffffffffff16148061183957506118388484610852565b5b8061187757508273ffffffffffffffffffffffffffffffffffffffff1661185f83610a4a565b73ffffffffffffffffffffffffffffffffffffffff16145b5b90509392505050565b5f73ffffffffffffffffffffffffffffffffffffffff168273ffffffffffffffffffffffffffffffffffffffff16036118f1575f6040517f64a0ae920000000000000000000000000000000000000000000000000000000081526004016118e89190611d80565b60405180910390fd5b5f6118fd83835f610a9c565b90505f73ffffffffffffffffffffffffffffffffffffffff168173ffffffffffffffffffffffffffffffffffffffff161461196f575f6040517f73c6ac6e0000000000000000000000000000000000000000000000000000000081526004016119669190611d80565b60405180910390fd5b505050565b60605f600161198284611a3e565b0190505f8167ffffffffffffffff8111156119a05761199f611e84565b5b6040519080825280601f01601f1916602001820160405280156119d25781602001600182028036833780820191505090505b5090505f82602001820190505b600115611a33578080600190039150507f3031323334353637383961626364656600000000000000000000000000000000600a86061a8153600a8581611a2857611a27612698565b5b0494505f85036119df575b819350505050919050565b5f805f90507a184f03e93ff9f4daa797ed6e38ed64bf6a1f0100000000000000008310611a9a577a184f03e93ff9f4daa797ed6e38ed64bf6a1f0100000000000000008381611a9057611a8f612698565b5b0492506040810190505b6d04ee2d6d415b85acef81000000008310611ad7576d04ee2d6d415b85acef81000000008381611acd57611acc612698565b5b0492506020810190505b662386f26fc100008310611b0657662386f26fc100008381611afc57611afb612698565b5b0492506010810190505b6305f5e1008310611b2f576305f5e1008381611b2557611b24612698565b5b0492506008810190505b6127108310611b54576127108381611b4a57611b49612698565b5b0492506004810190505b60648310611b775760648381611b6d57611b6c612698565b5b0492506002810190505b600a8310611b86576001810190505b80915050919050565b5f604051905090565b5f80fd5b5f80fd5b5f7fffffffff0000000000000000000000000000000000000000000000000000000082169050919050565b611bd481611ba0565b8114611bde575f80fd5b50565b5f81359050611bef81611bcb565b92915050565b5f60208284031215611c0a57611c09611b98565b5b5f611c1784828501611be1565b91505092915050565b5f8115159050919050565b611c3481611c20565b82525050565b5f602082019050611c4d5f830184611c2b565b92915050565b5f81519050919050565b5f82825260208201905092915050565b8281835e5f83830152505050565b5f601f19601f8301169050919050565b5f611c9582611c53565b611c9f8185611c5d565b9350611caf818560208601611c6d565b611cb881611c7b565b840191505092915050565b5f6020820190508181035f830152611cdb8184611c8b565b905092915050565b5f819050919050565b611cf581611ce3565b8114611cff575f80fd5b50565b5f81359050611d1081611cec565b92915050565b5f60208284031215611d2b57611d2a611b98565b5b5f611d3884828501611d02565b91505092915050565b5f73ffffffffffffffffffffffffffffffffffffffff82169050919050565b5f611d6a82611d41565b9050919050565b611d7a81611d60565b82525050565b5f602082019050611d935f830184611d71565b92915050565b611da281611d60565b8114611dac575f80fd5b50565b5f81359050611dbd81611d99565b92915050565b5f8060408385031215611dd957611dd8611b98565b5b5f611de685828601611daf565b9250506020611df785828601611d02565b9150509250929050565b5f805f60608486031215611e1857611e17611b98565b5b5f611e2586828701611daf565b9350506020611e3686828701611daf565b9250506040611e4786828701611d02565b9150509250925092565b5f60208284031215611e6657611e65611b98565b5b5f611e7384828501611daf565b91505092915050565b5f80fd5b5f80fd5b7f4e487b71000000000000000000000000000000000000000000000000000000005f52604160045260245ffd5b611eba82611c7b565b810181811067ffffffffffffffff82111715611ed957611ed8611e84565b5b80604052505050565b5f611eeb611b8f565b9050611ef78282611eb1565b919050565b5f67ffffffffffffffff821115611f1657611f15611e84565b5b611f1f82611c7b565b9050602081019050919050565b828183375f83830152505050565b5f611f4c611f4784611efc565b611ee2565b905082815260208101848484011115611f6857611f67611e80565b5b611f73848285611f2c565b509392505050565b5f82601f830112611f8f57611f8e611e7c565b5b8135611f9f848260208601611f3a565b91505092915050565b5f60208284031215611fbd57611fbc611b98565b5b5f82013567ffffffffffffffff811115611fda57611fd9611b9c565b5b611fe684828501611f7b565b91505092915050565b611ff881611ce3565b82525050565b5f6020820190506120115f830184611fef565b92915050565b61202081611c20565b811461202a575f80fd5b50565b5f8135905061203b81612017565b92915050565b5f806040838503121561205757612056611b98565b5b5f61206485828601611daf565b92505060206120758582860161202d565b9150509250929050565b5f67ffffffffffffffff82111561209957612098611e84565b5b6120a282611c7b565b9050602081019050919050565b5f6120c16120bc8461207f565b611ee2565b9050828152602081018484840111156120dd576120dc611e80565b5b6120e8848285611f2c565b509392505050565b5f82601f83011261210457612103611e7c565b5b81356121148482602086016120af565b91505092915050565b5f805f806080858703121561213557612134611b98565b5b5f61214287828801611daf565b945050602061215387828801611daf565b935050604061216487828801611d02565b925050606085013567ffffffffffffffff81111561218557612184611b9c565b5b612191878288016120f0565b91505092959194509250565b5f80604083850312156121b3576121b2611b98565b5b5f6121c085828601611daf565b92505060206121d185828601611daf565b9150509250929050565b7f4e487b71000000000000000000000000000000000000000000000000000000005f52602260045260245ffd5b5f600282049050600182168061221f57607f821691505b602082108103612232576122316121db565b5b50919050565b5f60608201905061224b5f830186611d71565b6122586020830185611fef565b6122656040830184611d71565b949350505050565b5f819050815f5260205f209050919050565b5f6020601f8301049050919050565b5f82821b905092915050565b5f600883026122c97fffffffffffffffffffffffffffffffffffffffffffffffffffffffffffffffff8261228e565b6122d3868361228e565b95508019841693508086168417925050509392505050565b5f819050919050565b5f61230e61230961230484611ce3565b6122eb565b611ce3565b9050919050565b5f819050919050565b612327836122f4565b61233b61233382612315565b84845461229a565b825550505050565b5f90565b61234f612343565b61235a81848461231e565b505050565b5b8181101561237d576123725f82612347565b600181019050612360565b5050565b601f8211156123c2576123938161226d565b61239c8461227f565b810160208510156123ab578190505b6123bf6123b78561227f565b83018261235f565b50505b505050565b5f82821c905092915050565b5f6123e25f19846008026123c7565b1980831691505092915050565b5f6123fa83836123d3565b9150826002028217905092915050565b61241382611c53565b67ffffffffffffffff81111561242c5761242b611e84565b5b6124368254612208565b612441828285612381565b5f60209050601f831160018114612472575f8415612460578287015190505b61246a85826123ef565b8655506124d1565b601f1984166124808661226d565b5f5b828110156124a757848901518255600182019150602085019450602081019050612482565b868310156124c457848901516124c0601f8916826123d3565b8355505b6001600288020188555050505b505050505050565b7f4e487b71000000000000000000000000000000000000000000000000000000005f52601160045260245ffd5b5f61251082611ce3565b915061251b83611ce3565b9250828201905080821115612533576125326124d9565b5b92915050565b5f81519050919050565b5f82825260208201905092915050565b5f61255d82612539565b6125678185612543565b9350612577818560208601611c6d565b61258081611c7b565b840191505092915050565b5f60808201905061259e5f830187611d71565b6125ab6020830186611d71565b6125b86040830185611fef565b81810360608301526125ca8184612553565b905095945050505050565b5f815190506125e381611bcb565b92915050565b5f602082840312156125fe576125fd611b98565b5b5f61260b848285016125d5565b91505092915050565b5f81905092915050565b5f61262882611c53565b6126328185612614565b9350612642818560208601611c6d565b80840191505092915050565b5f612659828561261e565b9150612665828461261e565b91508190509392505050565b5f6040820190506126845f830185611d71565b6126916020830184611fef565b9392505050565b7f4e487b71000000000000000000000000000000000000000000000000000000005f52601260045260245ffdfea2646970667358221220284a89bc0e77ea38c191745693e3796d27ee71dc6ffdc4da6d515b68bdeec6de64736f6c634300081a0033",
			"opcodes": "PUSH1 0x80 PUSH1 0x40 MSTORE CALLVALUE DUP1 ISZERO PUSH2 0xF JUMPI PUSH0 DUP1 REVERT JUMPDEST POP PUSH1 0x40 MLOAD PUSH2 0x2DDD CODESIZE SUB DUP1 PUSH2 0x2DDD DUP4 CODECOPY DUP2 DUP2 ADD PUSH1 0x40 MSTORE DUP2 ADD SWAP1 PUSH2 0x31 SWAP2 SWAP1 PUSH2 0x2FD JUMP JUMPDEST CALLER DUP4 DUP4 DUP2 PUSH0 SWAP1 DUP2 PUSH2 0x42 SWAP2 SWAP1 PUSH2 0x5AE JUMP JUMPDEST POP DUP1 PUSH1 0x1 SWAP1 DUP2 PUSH2 0x52 SWAP2 SWAP1 PUSH2 0x5AE JUMP JUMPDEST POP POP POP PUSH0 PUSH20 0xFFFFFFFFFFFFFFFFFFFFFFFFFFFFFFFFFFFFFFFF AND DUP2 PUSH20 0xFFFFFFFFFFFFFFFFFFFFFFFFFFFFFFFFFFFFFFFF AND SUB PUSH2 0xC5 JUMPI PUSH0 PUSH1 0x40 MLOAD PUSH32 0x1E4FBDF700000000000000000000000000000000000000000000000000000000 DUP2 MSTORE PUSH1 0x4 ADD PUSH2 0xBC SWAP2 SWAP1 PUSH2 0x6BC JUMP JUMPDEST PUSH1 0x40 MLOAD DUP1 SWAP2 SUB SWAP1 REVERT JUMPDEST PUSH2 0xD4 DUP2 PUSH2 0xED PUSH1 0x20 SHL PUSH1 0x20 SHR JUMP JUMPDEST POP DUP1 PUSH1 0x9 SWAP1 DUP2 PUSH2 0xE4 SWAP2 SWAP1 PUSH2 0x5AE JUMP JUMPDEST POP POP POP POP PUSH2 0x6D5 JUMP JUMPDEST PUSH0 PUSH1 0x7 PUSH0 SWAP1 SLOAD SWAP1 PUSH2 0x100 EXP SWAP1 DIV PUSH20 0xFFFFFFFFFFFFFFFFFFFFFFFFFFFFFFFFFFFFFFFF AND SWAP1 POP DUP2 PUSH1 0x7 PUSH0 PUSH2 0x100 EXP DUP2 SLOAD DUP2 PUSH20 0xFFFFFFFFFFFFFFFFFFFFFFFFFFFFFFFFFFFFFFFF MUL NOT AND SWAP1 DUP4 PUSH20 0xFFFFFFFFFFFFFFFFFFFFFFFFFFFFFFFFFFFFFFFF AND MUL OR SWAP1 SSTORE POP DUP2 PUSH20 0xFFFFFFFFFFFFFFFFFFFFFFFFFFFFFFFFFFFFFFFF AND DUP2 PUSH20 0xFFFFFFFFFFFFFFFFFFFFFFFFFFFFFFFFFFFFFFFF AND PUSH32 0x8BE0079C531659141344CD1FD0A4F28419497F9722A3DAAFE3B4186F6B6457E0 PUSH1 0x40 MLOAD PUSH1 0x40 MLOAD DUP1 SWAP2 SUB SWAP1 LOG3 POP POP JUMP JUMPDEST PUSH0 PUSH1 0x40 MLOAD SWAP1 POP SWAP1 JUMP JUMPDEST PUSH0 DUP1 REVERT JUMPDEST PUSH0 DUP1 REVERT JUMPDEST PUSH0 DUP1 REVERT JUMPDEST PUSH0 DUP1 REVERT JUMPDEST PUSH0 PUSH1 0x1F NOT PUSH1 0x1F DUP4 ADD AND SWAP1 POP SWAP2 SWAP1 POP JUMP JUMPDEST PUSH32 0x4E487B7100000000000000000000000000000000000000000000000000000000 PUSH0 MSTORE PUSH1 0x41 PUSH1 0x4 MSTORE PUSH1 0x24 PUSH0 REVERT JUMPDEST PUSH2 0x20F DUP3 PUSH2 0x1C9 JUMP JUMPDEST DUP2 ADD DUP2 DUP2 LT PUSH8 0xFFFFFFFFFFFFFFFF DUP3 GT OR ISZERO PUSH2 0x22E JUMPI PUSH2 0x22D PUSH2 0x1D9 JUMP JUMPDEST JUMPDEST DUP1 PUSH1 0x40 MSTORE POP POP POP JUMP JUMPDEST PUSH0 PUSH2 0x240 PUSH2 0x1B0 JUMP JUMPDEST SWAP1 POP PUSH2 0x24C DUP3 DUP3 PUSH2 0x206 JUMP JUMPDEST SWAP2 SWAP1 POP JUMP JUMPDEST PUSH0 PUSH8 0xFFFFFFFFFFFFFFFF DUP3 GT ISZERO PUSH2 0x26B JUMPI PUSH2 0x26A PUSH2 0x1D9 JUMP JUMPDEST JUMPDEST PUSH2 0x274 DUP3 PUSH2 0x1C9 JUMP JUMPDEST SWAP1 POP PUSH1 0x20 DUP2 ADD SWAP1 POP SWAP2 SWAP1 POP JUMP JUMPDEST DUP3 DUP2 DUP4 MCOPY PUSH0 DUP4 DUP4 ADD MSTORE POP POP POP JUMP JUMPDEST PUSH0 PUSH2 0x2A1 PUSH2 0x29C DUP5 PUSH2 0x251 JUMP JUMPDEST PUSH2 0x237 JUMP JUMPDEST SWAP1 POP DUP3 DUP2 MSTORE PUSH1 0x20 DUP2 ADD DUP5 DUP5 DUP5 ADD GT ISZERO PUSH2 0x2BD JUMPI PUSH2 0x2BC PUSH2 0x1C5 JUMP JUMPDEST JUMPDEST PUSH2 0x2C8 DUP5 DUP3 DUP6 PUSH2 0x281 JUMP JUMPDEST POP SWAP4 SWAP3 POP POP POP JUMP JUMPDEST PUSH0 DUP3 PUSH1 0x1F DUP4 ADD SLT PUSH2 0x2E4 JUMPI PUSH2 0x2E3 PUSH2 0x1C1 JUMP JUMPDEST JUMPDEST DUP2 MLOAD PUSH2 0x2F4 DUP5 DUP3 PUSH1 0x20 DUP7 ADD PUSH2 0x28F JUMP JUMPDEST SWAP2 POP POP SWAP3 SWAP2 POP POP JUMP JUMPDEST PUSH0 DUP1 PUSH0 PUSH1 0x60 DUP5 DUP7 SUB SLT ISZERO PUSH2 0x314 JUMPI PUSH2 0x313 PUSH2 0x1B9 JUMP JUMPDEST JUMPDEST PUSH0 DUP5 ADD MLOAD PUSH8 0xFFFFFFFFFFFFFFFF DUP2 GT ISZERO PUSH2 0x331 JUMPI PUSH2 0x330 PUSH2 0x1BD JUMP JUMPDEST JUMPDEST PUSH2 0x33D DUP7 DUP3 DUP8 ADD PUSH2 0x2D0 JUMP JUMPDEST SWAP4 POP POP PUSH1 0x20 DUP5 ADD MLOAD PUSH8 0xFFFFFFFFFFFFFFFF DUP2 GT ISZERO PUSH2 0x35E JUMPI PUSH2 0x35D PUSH2 0x1BD JUMP JUMPDEST JUMPDEST PUSH2 0x36A DUP7 DUP3 DUP8 ADD PUSH2 0x2D0 JUMP JUMPDEST SWAP3 POP POP PUSH1 0x40 DUP5 ADD MLOAD PUSH8 0xFFFFFFFFFFFFFFFF DUP2 GT ISZERO PUSH2 0x38B JUMPI PUSH2 0x38A PUSH2 0x1BD JUMP JUMPDEST JUMPDEST PUSH2 0x397 DUP7 DUP3 DUP8 ADD PUSH2 0x2D0 JUMP JUMPDEST SWAP2 POP POP SWAP3 POP SWAP3 POP SWAP3 JUMP JUMPDEST PUSH0 DUP2 MLOAD SWAP1 POP SWAP2 SWAP1 POP JUMP JUMPDEST PUSH32 0x4E487B7100000000000000000000000000000000000000000000000000000000 PUSH0 MSTORE PUSH1 0x22 PUSH1 0x4 MSTORE PUSH1 0x24 PUSH0 REVERT JUMPDEST PUSH0 PUSH1 0x2 DUP3 DIV SWAP1 POP PUSH1 0x1 DUP3 AND DUP1 PUSH2 0x3EF JUMPI PUSH1 0x7F DUP3 AND SWAP2 POP JUMPDEST PUSH1 0x20 DUP3 LT DUP2 SUB PUSH2 0x402 JUMPI PUSH2 0x401 PUSH2 0x3AB JUMP JUMPDEST JUMPDEST POP SWAP2 SWAP1 POP JUMP JUMPDEST PUSH0 DUP2 SWAP1 POP DUP2 PUSH0 MSTORE PUSH1 0x20 PUSH0 KECCAK256 SWAP1 POP SWAP2 SWAP1 POP JUMP JUMPDEST PUSH0 PUSH1 0x20 PUSH1 0x1F DUP4 ADD DIV SWAP1 POP SWAP2 SWAP1 POP JUMP JUMPDEST PUSH0 DUP3 DUP3 SHL SWAP1 POP SWAP3 SWAP2 POP POP JUMP JUMPDEST PUSH0 PUSH1 0x8 DUP4 MUL PUSH2 0x464 PUSH32 0xFFFFFFFFFFFFFFFFFFFFFFFFFFFFFFFFFFFFFFFFFFFFFFFFFFFFFFFFFFFFFFFF DUP3 PUSH2 0x429 JUMP JUMPDEST PUSH2 0x46E DUP7 DUP4 PUSH2 0x429 JUMP JUMPDEST SWAP6 POP DUP1 NOT DUP5 AND SWAP4 POP DUP1 DUP7 AND DUP5 OR SWAP3 POP POP POP SWAP4 SWAP3 POP POP POP JUMP JUMPDEST PUSH0 DUP2 SWAP1 POP SWAP2 SWAP1 POP JUMP JUMPDEST PUSH0 DUP2 SWAP1 POP SWAP2 SWAP1 POP JUMP JUMPDEST PUSH0 PUSH2 0x4B2 PUSH2 0x4AD PUSH2 0x4A8 DUP5 PUSH2 0x486 JUMP JUMPDEST PUSH2 0x48F JUMP JUMPDEST PUSH2 0x486 JUMP JUMPDEST SWAP1 POP SWAP2 SWAP1 POP JUMP JUMPDEST PUSH0 DUP2 SWAP1 POP SWAP2 SWAP1 POP JUMP JUMPDEST PUSH2 0x4CB DUP4 PUSH2 0x498 JUMP JUMPDEST PUSH2 0x4DF PUSH2 0x4D7 DUP3 PUSH2 0x4B9 JUMP JUMPDEST DUP5 DUP5 SLOAD PUSH2 0x435 JUMP JUMPDEST DUP3 SSTORE POP POP POP POP JUMP JUMPDEST PUSH0 SWAP1 JUMP JUMPDEST PUSH2 0x4F3 PUSH2 0x4E7 JUMP JUMPDEST PUSH2 0x4FE DUP2 DUP5 DUP5 PUSH2 0x4C2 JUMP JUMPDEST POP POP POP JUMP JUMPDEST JUMPDEST DUP2 DUP2 LT ISZERO PUSH2 0x521 JUMPI PUSH2 0x516 PUSH0 DUP3 PUSH2 0x4EB JUMP JUMPDEST PUSH1 0x1 DUP2 ADD SWAP1 POP PUSH2 0x504 JUMP JUMPDEST POP POP JUMP JUMPDEST PUSH1 0x1F DUP3 GT ISZERO PUSH2 0x566 JUMPI PUSH2 0x537 DUP2 PUSH2 0x408 JUMP JUMPDEST PUSH2 0x540 DUP5 PUSH2 0x41A JUMP JUMPDEST DUP2 ADD PUSH1 0x20 DUP6 LT ISZERO PUSH2 0x54F JUMPI DUP2 SWAP1 POP JUMPDEST PUSH2 0x563 PUSH2 0x55B DUP6 PUSH2 0x41A JUMP JUMPDEST DUP4 ADD DUP3 PUSH2 0x503 JUMP JUMPDEST POP POP JUMPDEST POP POP POP JUMP JUMPDEST PUSH0 DUP3 DUP3 SHR SWAP1 POP SWAP3 SWAP2 POP POP JUMP JUMPDEST PUSH0 PUSH2 0x586 PUSH0 NOT DUP5 PUSH1 0x8 MUL PUSH2 0x56B JUMP JUMPDEST NOT DUP1 DUP4 AND SWAP2 POP POP SWAP3 SWAP2 POP POP JUMP JUMPDEST PUSH0 PUSH2 0x59E DUP4 DUP4 PUSH2 0x577 JUMP JUMPDEST SWAP2 POP DUP3 PUSH1 0x2 MUL DUP3 OR SWAP1 POP SWAP3 SWAP2 POP POP JUMP JUMPDEST PUSH2 0x5B7 DUP3 PUSH2 0x3A1 JUMP JUMPDEST PUSH8 0xFFFFFFFFFFFFFFFF DUP2 GT ISZERO PUSH2 0x5D0 JUMPI PUSH2 0x5CF PUSH2 0x1D9 JUMP JUMPDEST JUMPDEST PUSH2 0x5DA DUP3 SLOAD PUSH2 0x3D8 JUMP JUMPDEST PUSH2 0x5E5 DUP3 DUP3 DUP6 PUSH2 0x525 JUMP JUMPDEST PUSH0 PUSH1 0x20 SWAP1 POP PUSH1 0x1F DUP4 GT PUSH1 0x1 DUP2 EQ PUSH2 0x616 JUMPI PUSH0 DUP5 ISZERO PUSH2 0x604 JUMPI DUP3 DUP8 ADD MLOAD SWAP1 POP JUMPDEST PUSH2 0x60E DUP6 DUP3 PUSH2 0x593 JUMP JUMPDEST DUP7 SSTORE POP PUSH2 0x675 JUMP JUMPDEST PUSH1 0x1F NOT DUP5 AND PUSH2 0x624 DUP7 PUSH2 0x408 JUMP JUMPDEST PUSH0 JUMPDEST DUP3 DUP2 LT ISZERO PUSH2 0x64B JUMPI DUP5 DUP10 ADD MLOAD DUP3 SSTORE PUSH1 0x1 DUP3 ADD SWAP2 POP PUSH1 0x20 DUP6 ADD SWAP5 POP PUSH1 0x20 DUP2 ADD SWAP1 POP PUSH2 0x626 JUMP JUMPDEST DUP7 DUP4 LT ISZERO PUSH2 0x668 JUMPI DUP5 DUP10 ADD MLOAD PUSH2 0x664 PUSH1 0x1F DUP10 AND DUP3 PUSH2 0x577 JUMP JUMPDEST DUP4 SSTORE POP JUMPDEST PUSH1 0x1 PUSH1 0x2 DUP9 MUL ADD DUP9 SSTORE POP POP POP JUMPDEST POP POP POP POP POP POP JUMP JUMPDEST PUSH0 PUSH20 0xFFFFFFFFFFFFFFFFFFFFFFFFFFFFFFFFFFFFFFFF DUP3 AND SWAP1 POP SWAP2 SWAP1 POP JUMP JUMPDEST PUSH0 PUSH2 0x6A6 DUP3 PUSH2 0x67D JUMP JUMPDEST SWAP1 POP SWAP2 SWAP1 POP JUMP JUMPDEST PUSH2 0x6B6 DUP2 PUSH2 0x69C JUMP JUMPDEST DUP3 MSTORE POP POP JUMP JUMPDEST PUSH0 PUSH1 0x20 DUP3 ADD SWAP1 POP PUSH2 0x6CF PUSH0 DUP4 ADD DUP5 PUSH2 0x6AD JUMP JUMPDEST SWAP3 SWAP2 POP POP JUMP JUMPDEST PUSH2 0x26FB DUP1 PUSH2 0x6E2 PUSH0 CODECOPY PUSH0 RETURN INVALID PUSH1 0x80 PUSH1 0x40 MSTORE CALLVALUE DUP1 ISZERO PUSH2 0xF JUMPI PUSH0 DUP1 REVERT JUMPDEST POP PUSH1 0x4 CALLDATASIZE LT PUSH2 0x11F JUMPI PUSH0 CALLDATALOAD PUSH1 0xE0 SHR DUP1 PUSH4 0x70A08231 GT PUSH2 0xAB JUMPI DUP1 PUSH4 0xB88D4FDE GT PUSH2 0x6F JUMPI DUP1 PUSH4 0xB88D4FDE EQ PUSH2 0x2EF JUMPI DUP1 PUSH4 0xC87B56DD EQ PUSH2 0x30B JUMPI DUP1 PUSH4 0xD8C34FD1 EQ PUSH2 0x33B JUMPI DUP1 PUSH4 0xE985E9C5 EQ PUSH2 0x359 JUMPI DUP1 PUSH4 0xF2FDE38B EQ PUSH2 0x389 JUMPI PUSH2 0x11F JUMP JUMPDEST DUP1 PUSH4 0x70A08231 EQ PUSH2 0x25D JUMPI DUP1 PUSH4 0x715018A6 EQ PUSH2 0x28D JUMPI DUP1 PUSH4 0x8DA5CB5B EQ PUSH2 0x297 JUMPI DUP1 PUSH4 0x95D89B41 EQ PUSH2 0x2B5 JUMPI DUP1 PUSH4 0xA22CB465 EQ PUSH2 0x2D3 JUMPI PUSH2 0x11F JUMP JUMPDEST DUP1 PUSH4 0x23B872DD GT PUSH2 0xF2 JUMPI DUP1 PUSH4 0x23B872DD EQ PUSH2 0x1BD JUMPI DUP1 PUSH4 0x40D097C3 EQ PUSH2 0x1D9 JUMPI DUP1 PUSH4 0x42842E0E EQ PUSH2 0x1F5 JUMPI DUP1 PUSH4 0x55F804B3 EQ PUSH2 0x211 JUMPI DUP1 PUSH4 0x6352211E EQ PUSH2 0x22D JUMPI PUSH2 0x11F JUMP JUMPDEST DUP1 PUSH4 0x1FFC9A7 EQ PUSH2 0x123 JUMPI DUP1 PUSH4 0x6FDDE03 EQ PUSH2 0x153 JUMPI DUP1 PUSH4 0x81812FC EQ PUSH2 0x171 JUMPI DUP1 PUSH4 0x95EA7B3 EQ PUSH2 0x1A1 JUMPI JUMPDEST PUSH0 DUP1 REVERT JUMPDEST PUSH2 0x13D PUSH1 0x4 DUP1 CALLDATASIZE SUB DUP2 ADD SWAP1 PUSH2 0x138 SWAP2 SWAP1 PUSH2 0x1BF5 JUMP JUMPDEST PUSH2 0x3A5 JUMP JUMPDEST PUSH1 0x40 MLOAD PUSH2 0x14A SWAP2 SWAP1 PUSH2 0x1C3A JUMP JUMPDEST PUSH1 0x40 MLOAD DUP1 SWAP2 SUB SWAP1 RETURN JUMPDEST PUSH2 0x15B PUSH2 0x3B6 JUMP JUMPDEST PUSH1 0x40 MLOAD PUSH2 0x168 SWAP2 SWAP1 PUSH2 0x1CC3 JUMP JUMPDEST PUSH1 0x40 MLOAD DUP1 SWAP2 SUB SWAP1 RETURN JUMPDEST PUSH2 0x18B PUSH1 0x4 DUP1 CALLDATASIZE SUB DUP2 ADD SWAP1 PUSH2 0x186 SWAP2 SWAP1 PUSH2 0x1D16 JUMP JUMPDEST PUSH2 0x445 JUMP JUMPDEST PUSH1 0x40 MLOAD PUSH2 0x198 SWAP2 SWAP1 PUSH2 0x1D80 JUMP JUMPDEST PUSH1 0x40 MLOAD DUP1 SWAP2 SUB SWAP1 RETURN JUMPDEST PUSH2 0x1BB PUSH1 0x4 DUP1 CALLDATASIZE SUB DUP2 ADD SWAP1 PUSH2 0x1B6 SWAP2 SWAP1 PUSH2 0x1DC3 JUMP JUMPDEST PUSH2 0x460 JUMP JUMPDEST STOP JUMPDEST PUSH2 0x1D7 PUSH1 0x4 DUP1 CALLDATASIZE SUB DUP2 ADD SWAP1 PUSH2 0x1D2 SWAP2 SWAP1 PUSH2 0x1E01 JUMP JUMPDEST PUSH2 0x476 JUMP JUMPDEST STOP JUMPDEST PUSH2 0x1F3 PUSH1 0x4 DUP1 CALLDATASIZE SUB DUP2 ADD SWAP1 PUSH2 0x1EE SWAP2 SWAP1 PUSH2 0x1E51 JUMP JUMPDEST PUSH2 0x575 JUMP JUMPDEST STOP JUMPDEST PUSH2 0x20F PUSH1 0x4 DUP1 CALLDATASIZE SUB DUP2 ADD SWAP1 PUSH2 0x20A SWAP2 SWAP1 PUSH2 0x1E01 JUMP JUMPDEST PUSH2 0x630 JUMP JUMPDEST STOP JUMPDEST PUSH2 0x22B PUSH1 0x4 DUP1 CALLDATASIZE SUB DUP2 ADD SWAP1 PUSH2 0x226 SWAP2 SWAP1 PUSH2 0x1FA8 JUMP JUMPDEST PUSH2 0x64F JUMP JUMPDEST STOP JUMPDEST PUSH2 0x247 PUSH1 0x4 DUP1 CALLDATASIZE SUB DUP2 ADD SWAP1 PUSH2 0x242 SWAP2 SWAP1 PUSH2 0x1D16 JUMP JUMPDEST PUSH2 0x66A JUMP JUMPDEST PUSH1 0x40 MLOAD PUSH2 0x254 SWAP2 SWAP1 PUSH2 0x1D80 JUMP JUMPDEST PUSH1 0x40 MLOAD DUP1 SWAP2 SUB SWAP1 RETURN JUMPDEST PUSH2 0x277 PUSH1 0x4 DUP1 CALLDATASIZE SUB DUP2 ADD SWAP1 PUSH2 0x272 SWAP2 SWAP1 PUSH2 0x1E51 JUMP JUMPDEST PUSH2 0x67B JUMP JUMPDEST PUSH1 0x40 MLOAD PUSH2 0x284 SWAP2 SWAP1 PUSH2 0x1FFE JUMP JUMPDEST PUSH1 0x40 MLOAD DUP1 SWAP2 SUB SWAP1 RETURN JUMPDEST PUSH2 0x295 PUSH2 0x731 JUMP JUMPDEST STOP JUMPDEST PUSH2 0x29F PUSH2 0x744 JUMP JUMPDEST PUSH1 0x40 MLOAD PUSH2 0x2AC SWAP2 SWAP1 PUSH2 0x1D80 JUMP JUMPDEST PUSH1 0x40 MLOAD DUP1 SWAP2 SUB SWAP1 RETURN JUMPDEST PUSH2 0x2BD PUSH2 0x76C JUMP JUMPDEST PUSH1 0x40 MLOAD PUSH2 0x2CA SWAP2 SWAP1 PUSH2 0x1CC3 JUMP JUMPDEST PUSH1 0x40 MLOAD DUP1 SWAP2 SUB SWAP1 RETURN JUMPDEST PUSH2 0x2ED PUSH1 0x4 DUP1 CALLDATASIZE SUB DUP2 ADD SWAP1 PUSH2 0x2E8 SWAP2 SWAP1 PUSH2 0x2041 JUMP JUMPDEST PUSH2 0x7FC JUMP JUMPDEST STOP JUMPDEST PUSH2 0x309 PUSH1 0x4 DUP1 CALLDATASIZE SUB DUP2 ADD SWAP1 PUSH2 0x304 SWAP2 SWAP1 PUSH2 0x211D JUMP JUMPDEST PUSH2 0x812 JUMP JUMPDEST STOP JUMPDEST PUSH2 0x325 PUSH1 0x4 DUP1 CALLDATASIZE SUB DUP2 ADD SWAP1 PUSH2 0x320 SWAP2 SWAP1 PUSH2 0x1D16 JUMP JUMPDEST PUSH2 0x837 JUMP JUMPDEST PUSH1 0x40 MLOAD PUSH2 0x332 SWAP2 SWAP1 PUSH2 0x1CC3 JUMP JUMPDEST PUSH1 0x40 MLOAD DUP1 SWAP2 SUB SWAP1 RETURN JUMPDEST PUSH2 0x343 PUSH2 0x849 JUMP JUMPDEST PUSH1 0x40 MLOAD PUSH2 0x350 SWAP2 SWAP1 PUSH2 0x1FFE JUMP JUMPDEST PUSH1 0x40 MLOAD DUP1 SWAP2 SUB SWAP1 RETURN JUMPDEST PUSH2 0x373 PUSH1 0x4 DUP1 CALLDATASIZE SUB DUP2 ADD SWAP1 PUSH2 0x36E SWAP2 SWAP1 PUSH2 0x219D JUMP JUMPDEST PUSH2 0x852 JUMP JUMPDEST PUSH1 0x40 MLOAD PUSH2 0x380 SWAP2 SWAP1 PUSH2 0x1C3A JUMP JUMPDEST PUSH1 0x40 MLOAD DUP1 SWAP2 SUB SWAP1 RETURN JUMPDEST PUSH2 0x3A3 PUSH1 0x4 DUP1 CALLDATASIZE SUB DUP2 ADD SWAP1 PUSH2 0x39E SWAP2 SWAP1 PUSH2 0x1E51 JUMP JUMPDEST PUSH2 0x8E0 JUMP JUMPDEST STOP JUMPDEST PUSH0 PUSH2 0x3AF DUP3 PUSH2 0x964 JUMP JUMPDEST SWAP1 POP SWAP2 SWAP1 POP JUMP JUMPDEST PUSH1 0x60 PUSH0 DUP1 SLOAD PUSH2 0x3C4 SWAP1 PUSH2 0x2208 JUMP JUMPDEST DUP1 PUSH1 0x1F ADD PUSH1 0x20 DUP1 SWAP2 DIV MUL PUSH1 0x20 ADD PUSH1 0x40 MLOAD SWAP1 DUP2 ADD PUSH1 0x40 MSTORE DUP1 SWAP3 SWAP2 SWAP1 DUP2 DUP2 MSTORE PUSH1 0x20 ADD DUP3 DUP1 SLOAD PUSH2 0x3F0 SWAP1 PUSH2 0x2208 JUMP JUMPDEST DUP1 ISZERO PUSH2 0x43B JUMPI DUP1 PUSH1 0x1F LT PUSH2 0x412 JUMPI PUSH2 0x100 DUP1 DUP4 SLOAD DIV MUL DUP4 MSTORE SWAP2 PUSH1 0x20 ADD SWAP2 PUSH2 0x43B JUMP JUMPDEST DUP3 ADD SWAP2 SWAP1 PUSH0 MSTORE PUSH1 0x20 PUSH0 KECCAK256 SWAP1 JUMPDEST DUP2 SLOAD DUP2 MSTORE SWAP1 PUSH1 0x1 ADD SWAP1 PUSH1 0x20 ADD DUP1 DUP4 GT PUSH2 0x41E JUMPI DUP3 SWAP1 SUB PUSH1 0x1F AND DUP3 ADD SWAP2 JUMPDEST POP POP POP POP POP SWAP1 POP SWAP1 JUMP JUMPDEST PUSH0 PUSH2 0x44F DUP3 PUSH2 0x9C4 JUMP JUMPDEST POP PUSH2 0x459 DUP3 PUSH2 0xA4A JUMP JUMPDEST SWAP1 POP SWAP2 SWAP1 POP JUMP JUMPDEST PUSH2 0x472 DUP3 DUP3 PUSH2 0x46D PUSH2 0xA83 JUMP JUMPDEST PUSH2 0xA8A JUMP JUMPDEST POP POP JUMP JUMPDEST PUSH0 PUSH20 0xFFFFFFFFFFFFFFFFFFFFFFFFFFFFFFFFFFFFFFFF AND DUP3 PUSH20 0xFFFFFFFFFFFFFFFFFFFFFFFFFFFFFFFFFFFFFFFF AND SUB PUSH2 0x4E6 JUMPI PUSH0 PUSH1 0x40 MLOAD PUSH32 0x64A0AE9200000000000000000000000000000000000000000000000000000000 DUP2 MSTORE PUSH1 0x4 ADD PUSH2 0x4DD SWAP2 SWAP1 PUSH2 0x1D80 JUMP JUMPDEST PUSH1 0x40 MLOAD DUP1 SWAP2 SUB SWAP1 REVERT JUMPDEST PUSH0 PUSH2 0x4F9 DUP4 DUP4 PUSH2 0x4F4 PUSH2 0xA83 JUMP JUMPDEST PUSH2 0xA9C JUMP JUMPDEST SWAP1 POP DUP4 PUSH20 0xFFFFFFFFFFFFFFFFFFFFFFFFFFFFFFFFFFFFFFFF AND DUP2 PUSH20 0xFFFFFFFFFFFFFFFFFFFFFFFFFFFFFFFFFFFFFFFF AND EQ PUSH2 0x56F JUMPI DUP4 DUP3 DUP3 PUSH1 0x40 MLOAD PUSH32 0x64283D7B00000000000000000000000000000000000000000000000000000000 DUP2 MSTORE PUSH1 0x4 ADD PUSH2 0x566 SWAP4 SWAP3 SWAP2 SWAP1 PUSH2 0x2238 JUMP JUMPDEST PUSH1 0x40 MLOAD DUP1 SWAP2 SUB SWAP1 REVERT JUMPDEST POP POP POP POP JUMP JUMPDEST PUSH2 0x57D PUSH2 0xCA7 JUMP JUMPDEST PUSH0 PUSH2 0x586 PUSH2 0x849 JUMP JUMPDEST SWAP1 POP PUSH2 0x590 PUSH2 0xD2E JUMP JUMPDEST PUSH2 0x59A DUP3 DUP3 PUSH2 0xD49 JUMP JUMPDEST PUSH2 0x62C DUP2 PUSH1 0x9 DUP1 SLOAD PUSH2 0x5AB SWAP1 PUSH2 0x2208 JUMP JUMPDEST DUP1 PUSH1 0x1F ADD PUSH1 0x20 DUP1 SWAP2 DIV MUL PUSH1 0x20 ADD PUSH1 0x40 MLOAD SWAP1 DUP2 ADD PUSH1 0x40 MSTORE DUP1 SWAP3 SWAP2 SWAP1 DUP2 DUP2 MSTORE PUSH1 0x20 ADD DUP3 DUP1 SLOAD PUSH2 0x5D7 SWAP1 PUSH2 0x2208 JUMP JUMPDEST DUP1 ISZERO PUSH2 0x622 JUMPI DUP1 PUSH1 0x1F LT PUSH2 0x5F9 JUMPI PUSH2 0x100 DUP1 DUP4 SLOAD DIV MUL DUP4 MSTORE SWAP2 PUSH1 0x20 ADD SWAP2 PUSH2 0x622 JUMP JUMPDEST DUP3 ADD SWAP2 SWAP1 PUSH0 MSTORE PUSH1 0x20 PUSH0 KECCAK256 SWAP1 JUMPDEST DUP2 SLOAD DUP2 MSTORE SWAP1 PUSH1 0x1 ADD SWAP1 PUSH1 0x20 ADD DUP1 DUP4 GT PUSH2 0x605 JUMPI DUP3 SWAP1 SUB PUSH1 0x1F AND DUP3 ADD SWAP2 JUMPDEST POP POP POP POP POP PUSH2 0xD66 JUMP JUMPDEST POP POP JUMP JUMPDEST PUSH2 0x64A DUP4 DUP4 DUP4 PUSH1 0x40 MLOAD DUP1 PUSH1 0x20 ADD PUSH1 0x40 MSTORE DUP1 PUSH0 DUP2 MSTORE POP PUSH2 0x812 JUMP JUMPDEST POP POP POP JUMP JUMPDEST PUSH2 0x657 PUSH2 0xCA7 JUMP JUMPDEST DUP1 PUSH1 0x9 SWAP1 DUP2 PUSH2 0x666 SWAP2 SWAP1 PUSH2 0x240A JUMP JUMPDEST POP POP JUMP JUMPDEST PUSH0 PUSH2 0x674 DUP3 PUSH2 0x9C4 JUMP JUMPDEST SWAP1 POP SWAP2 SWAP1 POP JUMP JUMPDEST PUSH0 DUP1 PUSH20 0xFFFFFFFFFFFFFFFFFFFFFFFFFFFFFFFFFFFFFFFF AND DUP3 PUSH20 0xFFFFFFFFFFFFFFFFFFFFFFFFFFFFFFFFFFFFFFFF AND SUB PUSH2 0x6EC JUMPI PUSH0 PUSH1 0x40 MLOAD PUSH32 0x89C62B6400000000000000000000000000000000000000000000000000000000 DUP2 MSTORE PUSH1 0x4 ADD PUSH2 0x6E3 SWAP2 SWAP1 PUSH2 0x1D80 JUMP JUMPDEST PUSH1 0x40 MLOAD DUP1 SWAP2 SUB SWAP1 REVERT JUMPDEST PUSH1 0x3 PUSH0 DUP4 PUSH20 0xFFFFFFFFFFFFFFFFFFFFFFFFFFFFFFFFFFFFFFFF AND PUSH20 0xFFFFFFFFFFFFFFFFFFFFFFFFFFFFFFFFFFFFFFFF AND DUP2 MSTORE PUSH1 0x20 ADD SWAP1 DUP2 MSTORE PUSH1 0x20 ADD PUSH0 KECCAK256 SLOAD SWAP1 POP SWAP2 SWAP1 POP JUMP JUMPDEST PUSH2 0x739 PUSH2 0xCA7 JUMP JUMPDEST PUSH2 0x742 PUSH0 PUSH2 0xDC0 JUMP JUMPDEST JUMP JUMPDEST PUSH0 PUSH1 0x7 PUSH0 SWAP1 SLOAD SWAP1 PUSH2 0x100 EXP SWAP1 DIV PUSH20 0xFFFFFFFFFFFFFFFFFFFFFFFFFFFFFFFFFFFFFFFF AND SWAP1 POP SWAP1 JUMP JUMPDEST PUSH1 0x60 PUSH1 0x1 DUP1 SLOAD PUSH2 0x77B SWAP1 PUSH2 0x2208 JUMP JUMPDEST DUP1 PUSH1 0x1F ADD PUSH1 0x20 DUP1 SWAP2 DIV MUL PUSH1 0x20 ADD PUSH1 0x40 MLOAD SWAP1 DUP2 ADD PUSH1 0x40 MSTORE DUP1 SWAP3 SWAP2 SWAP1 DUP2 DUP2 MSTORE PUSH1 0x20 ADD DUP3 DUP1 SLOAD PUSH2 0x7A7 SWAP1 PUSH2 0x2208 JUMP JUMPDEST DUP1 ISZERO PUSH2 0x7F2 JUMPI DUP1 PUSH1 0x1F LT PUSH2 0x7C9 JUMPI PUSH2 0x100 DUP1 DUP4 SLOAD DIV MUL DUP4 MSTORE SWAP2 PUSH1 0x20 ADD SWAP2 PUSH2 0x7F2 JUMP JUMPDEST DUP3 ADD SWAP2 SWAP1 PUSH0 MSTORE PUSH1 0x20 PUSH0 KECCAK256 SWAP1 JUMPDEST DUP2 SLOAD DUP2 MSTORE SWAP1 PUSH1 0x1 ADD SWAP1 PUSH1 0x20 ADD DUP1 DUP4 GT PUSH2 0x7D5 JUMPI DUP3 SWAP1 SUB PUSH1 0x1F AND DUP3 ADD SWAP2 JUMPDEST POP POP POP POP POP SWAP1 POP SWAP1 JUMP JUMPDEST PUSH2 0x80E PUSH2 0x807 PUSH2 0xA83 JUMP JUMPDEST DUP4 DUP4 PUSH2 0xE83 JUMP JUMPDEST POP POP JUMP JUMPDEST PUSH2 0x81D DUP5 DUP5 DUP5 PUSH2 0x476 JUMP JUMPDEST PUSH2 0x831 PUSH2 0x828 PUSH2 0xA83 JUMP JUMPDEST DUP6 DUP6 DUP6 DUP6 PUSH2 0xFEC JUMP JUMPDEST POP POP POP POP JUMP JUMPDEST PUSH1 0x60 PUSH2 0x842 DUP3 PUSH2 0x1198 JUMP JUMPDEST SWAP1 POP SWAP2 SWAP1 POP JUMP JUMPDEST PUSH0 PUSH1 0x8 SLOAD SWAP1 POP SWAP1 JUMP JUMPDEST PUSH0 PUSH1 0x5 PUSH0 DUP5 PUSH20 0xFFFFFFFFFFFFFFFFFFFFFFFFFFFFFFFFFFFFFFFF AND PUSH20 0xFFFFFFFFFFFFFFFFFFFFFFFFFFFFFFFFFFFFFFFF AND DUP2 MSTORE PUSH1 0x20 ADD SWAP1 DUP2 MSTORE PUSH1 0x20 ADD PUSH0 KECCAK256 PUSH0 DUP4 PUSH20 0xFFFFFFFFFFFFFFFFFFFFFFFFFFFFFFFFFFFFFFFF AND PUSH20 0xFFFFFFFFFFFFFFFFFFFFFFFFFFFFFFFFFFFFFFFF AND DUP2 MSTORE PUSH1 0x20 ADD SWAP1 DUP2 MSTORE PUSH1 0x20 ADD PUSH0 KECCAK256 PUSH0 SWAP1 SLOAD SWAP1 PUSH2 0x100 EXP SWAP1 DIV PUSH1 0xFF AND SWAP1 POP SWAP3 SWAP2 POP POP JUMP JUMPDEST PUSH2 0x8E8 PUSH2 0xCA7 JUMP JUMPDEST PUSH0 PUSH20 0xFFFFFFFFFFFFFFFFFFFFFFFFFFFFFFFFFFFFFFFF AND DUP2 PUSH20 0xFFFFFFFFFFFFFFFFFFFFFFFFFFFFFFFFFFFFFFFF AND SUB PUSH2 0x958 JUMPI PUSH0 PUSH1 0x40 MLOAD PUSH32 0x1E4FBDF700000000000000000000000000000000000000000000000000000000 DUP2 MSTORE PUSH1 0x4 ADD PUSH2 0x94F SWAP2 SWAP1 PUSH2 0x1D80 JUMP JUMPDEST PUSH1 0x40 MLOAD DUP1 SWAP2 SUB SWAP1 REVERT JUMPDEST PUSH2 0x961 DUP2 PUSH2 0xDC0 JUMP JUMPDEST POP JUMP JUMPDEST PUSH0 PUSH4 0x49064906 PUSH1 0xE0 SHL PUSH28 0xFFFFFFFFFFFFFFFFFFFFFFFFFFFFFFFFFFFFFFFFFFFFFFFFFFFFFFFF NOT AND DUP3 PUSH28 0xFFFFFFFFFFFFFFFFFFFFFFFFFFFFFFFFFFFFFFFFFFFFFFFFFFFFFFFF NOT AND EQ DUP1 PUSH2 0x9BD JUMPI POP PUSH2 0x9BC DUP3 PUSH2 0x12A3 JUMP JUMPDEST JUMPDEST SWAP1 POP SWAP2 SWAP1 POP JUMP JUMPDEST PUSH0 DUP1 PUSH2 0x9CF DUP4 PUSH2 0x1384 JUMP JUMPDEST SWAP1 POP PUSH0 PUSH20 0xFFFFFFFFFFFFFFFFFFFFFFFFFFFFFFFFFFFFFFFF AND DUP2 PUSH20 0xFFFFFFFFFFFFFFFFFFFFFFFFFFFFFFFFFFFFFFFF AND SUB PUSH2 0xA41 JUMPI DUP3 PUSH1 0x40 MLOAD PUSH32 0x7E27328900000000000000000000000000000000000000000000000000000000 DUP2 MSTORE PUSH1 0x4 ADD PUSH2 0xA38 SWAP2 SWAP1 PUSH2 0x1FFE JUMP JUMPDEST PUSH1 0x40 MLOAD DUP1 SWAP2 SUB SWAP1 REVERT JUMPDEST DUP1 SWAP2 POP POP SWAP2 SWAP1 POP JUMP JUMPDEST PUSH0 PUSH1 0x4 PUSH0 DUP4 DUP2 MSTORE PUSH1 0x20 ADD SWAP1 DUP2 MSTORE PUSH1 0x20 ADD PUSH0 KECCAK256 PUSH0 SWAP1 SLOAD SWAP1 PUSH2 0x100 EXP SWAP1 DIV PUSH20 0xFFFFFFFFFFFFFFFFFFFFFFFFFFFFFFFFFFFFFFFF AND SWAP1 POP SWAP2 SWAP1 POP JUMP JUMPDEST PUSH0 CALLER SWAP1 POP SWAP1 JUMP JUMPDEST PUSH2 0xA97 DUP4 DUP4 DUP4 PUSH1 0x1 PUSH2 0x13BD JUMP JUMPDEST POP POP POP JUMP JUMPDEST PUSH0 DUP1 PUSH2 0xAA7 DUP5 PUSH2 0x1384 JUMP JUMPDEST SWAP1 POP PUSH0 PUSH20 0xFFFFFFFFFFFFFFFFFFFFFFFFFFFFFFFFFFFFFFFF AND DUP4 PUSH20 0xFFFFFFFFFFFFFFFFFFFFFFFFFFFFFFFFFFFFFFFF AND EQ PUSH2 0xAE8 JUMPI PUSH2 0xAE7 DUP2 DUP5 DUP7 PUSH2 0x157C JUMP JUMPDEST JUMPDEST PUSH0 PUSH20 0xFFFFFFFFFFFFFFFFFFFFFFFFFFFFFFFFFFFFFFFF AND DUP2 PUSH20 0xFFFFFFFFFFFFFFFFFFFFFFFFFFFFFFFFFFFFFFFF AND EQ PUSH2 0xB73 JUMPI PUSH2 0xB27 PUSH0 DUP6 PUSH0 DUP1 PUSH2 0x13BD JUMP JUMPDEST PUSH1 0x1 PUSH1 0x3 PUSH0 DUP4 PUSH20 0xFFFFFFFFFFFFFFFFFFFFFFFFFFFFFFFFFFFFFFFF AND PUSH20 0xFFFFFFFFFFFFFFFFFFFFFFFFFFFFFFFFFFFFFFFF AND DUP2 MSTORE PUSH1 0x20 ADD SWAP1 DUP2 MSTORE PUSH1 0x20 ADD PUSH0 KECCAK256 PUSH0 DUP3 DUP3 SLOAD SUB SWAP3 POP POP DUP2 SWAP1 SSTORE POP JUMPDEST PUSH0 PUSH20 0xFFFFFFFFFFFFFFFFFFFFFFFFFFFFFFFFFFFFFFFF AND DUP6 PUSH20 0xFFFFFFFFFFFFFFFFFFFFFFFFFFFFFFFFFFFFFFFF AND EQ PUSH2 0xBF2 JUMPI PUSH1 0x1 PUSH1 0x3 PUSH0 DUP8 PUSH20 0xFFFFFFFFFFFFFFFFFFFFFFFFFFFFFFFFFFFFFFFF AND PUSH20 0xFFFFFFFFFFFFFFFFFFFFFFFFFFFFFFFFFFFFFFFF AND DUP2 MSTORE PUSH1 0x20 ADD SWAP1 DUP2 MSTORE PUSH1 0x20 ADD PUSH0 KECCAK256 PUSH0 DUP3 DUP3 SLOAD ADD SWAP3 POP POP DUP2 SWAP1 SSTORE POP JUMPDEST DUP5 PUSH1 0x2 PUSH0 DUP7 DUP2 MSTORE PUSH1 0x20 ADD SWAP1 DUP2 MSTORE PUSH1 0x20 ADD PUSH0 KECCAK256 PUSH0 PUSH2 0x100 EXP DUP2 SLOAD DUP2 PUSH20 0xFFFFFFFFFFFFFFFFFFFFFFFFFFFFFFFFFFFFFFFF MUL NOT AND SWAP1 DUP4 PUSH20 0xFFFFFFFFFFFFFFFFFFFFFFFFFFFFFFFFFFFFFFFF AND MUL OR SWAP1 SSTORE POP DUP4 DUP6 PUSH20 0xFFFFFFFFFFFFFFFFFFFFFFFFFFFFFFFFFFFFFFFF AND DUP3 PUSH20 0xFFFFFFFFFFFFFFFFFFFFFFFFFFFFFFFFFFFFFFFF AND PUSH32 0xDDF252AD1BE2C89B69C2B068FC378DAA952BA7F163C4A11628F55A4DF523B3EF PUSH1 0x40 MLOAD PUSH1 0x40 MLOAD DUP1 SWAP2 SUB SWAP1 LOG4 DUP1 SWAP2 POP POP SWAP4 SWAP3 POP POP POP JUMP JUMPDEST PUSH2 0xCAF PUSH2 0xA83 JUMP JUMPDEST PUSH20 0xFFFFFFFFFFFFFFFFFFFFFFFFFFFFFFFFFFFFFFFF AND PUSH2 0xCCD PUSH2 0x744 JUMP JUMPDEST PUSH20 0xFFFFFFFFFFFFFFFFFFFFFFFFFFFFFFFFFFFFFFFF AND EQ PUSH2 0xD2C JUMPI PUSH2 0xCF0 PUSH2 0xA83 JUMP JUMPDEST PUSH1 0x40 MLOAD PUSH32 0x118CDAA700000000000000000000000000000000000000000000000000000000 DUP2 MSTORE PUSH1 0x4 ADD PUSH2 0xD23 SWAP2 SWAP1 PUSH2 0x1D80 JUMP JUMPDEST PUSH1 0x40 MLOAD DUP1 SWAP2 SUB SWAP1 REVERT JUMPDEST JUMP JUMPDEST PUSH1 0x1 PUSH1 0x8 PUSH0 DUP3 DUP3 SLOAD PUSH2 0xD40 SWAP2 SWAP1 PUSH2 0x2506 JUMP JUMPDEST SWAP3 POP POP DUP2 SWAP1 SSTORE POP JUMP JUMPDEST PUSH2 0xD62 DUP3 DUP3 PUSH1 0x40 MLOAD DUP1 PUSH1 0x20 ADD PUSH1 0x40 MSTORE DUP1 PUSH0 DUP2 MSTORE POP PUSH2 0x163F JUMP JUMPDEST POP POP JUMP JUMPDEST DUP1 PUSH1 0x6 PUSH0 DUP5 DUP2 MSTORE PUSH1 0x20 ADD SWAP1 DUP2 MSTORE PUSH1 0x20 ADD PUSH0 KECCAK256 SWAP1 DUP2 PUSH2 0xD84 SWAP2 SWAP1 PUSH2 0x240A JUMP JUMPDEST POP PUSH32 0xF8E1A15ABA9398E019F0B49DF1A4FDE98EE17AE345CB5F6B5E2C27F5033E8CE7 DUP3 PUSH1 0x40 MLOAD PUSH2 0xDB4 SWAP2 SWAP1 PUSH2 0x1FFE JUMP JUMPDEST PUSH1 0x40 MLOAD DUP1 SWAP2 SUB SWAP1 LOG1 POP POP JUMP JUMPDEST PUSH0 PUSH1 0x7 PUSH0 SWAP1 SLOAD SWAP1 PUSH2 0x100 EXP SWAP1 DIV PUSH20 0xFFFFFFFFFFFFFFFFFFFFFFFFFFFFFFFFFFFFFFFF AND SWAP1 POP DUP2 PUSH1 0x7 PUSH0 PUSH2 0x100 EXP DUP2 SLOAD DUP2 PUSH20 0xFFFFFFFFFFFFFFFFFFFFFFFFFFFFFFFFFFFFFFFF MUL NOT AND SWAP1 DUP4 PUSH20 0xFFFFFFFFFFFFFFFFFFFFFFFFFFFFFFFFFFFFFFFF AND MUL OR SWAP1 SSTORE POP DUP2 PUSH20 0xFFFFFFFFFFFFFFFFFFFFFFFFFFFFFFFFFFFFFFFF AND DUP2 PUSH20 0xFFFFFFFFFFFFFFFFFFFFFFFFFFFFFFFFFFFFFFFF AND PUSH32 0x8BE0079C531659141344CD1FD0A4F28419497F9722A3DAAFE3B4186F6B6457E0 PUSH1 0x40 MLOAD PUSH1 0x40 MLOAD DUP1 SWAP2 SUB SWAP1 LOG3 POP POP JUMP JUMPDEST PUSH0 PUSH20 0xFFFFFFFFFFFFFFFFFFFFFFFFFFFFFFFFFFFFFFFF AND DUP3 PUSH20 0xFFFFFFFFFFFFFFFFFFFFFFFFFFFFFFFFFFFFFFFF AND SUB PUSH2 0xEF3 JUMPI DUP2 PUSH1 0x40 MLOAD PUSH32 0x5B08BA1800000000000000000000000000000000000000000000000000000000 DUP2 MSTORE PUSH1 0x4 ADD PUSH2 0xEEA SWAP2 SWAP1 PUSH2 0x1D80 JUMP JUMPDEST PUSH1 0x40 MLOAD DUP1 SWAP2 SUB SWAP1 REVERT JUMPDEST DUP1 PUSH1 0x5 PUSH0 DUP6 PUSH20 0xFFFFFFFFFFFFFFFFFFFFFFFFFFFFFFFFFFFFFFFF AND PUSH20 0xFFFFFFFFFFFFFFFFFFFFFFFFFFFFFFFFFFFFFFFF AND DUP2 MSTORE PUSH1 0x20 ADD SWAP1 DUP2 MSTORE PUSH1 0x20 ADD PUSH0 KECCAK256 PUSH0 DUP5 PUSH20 0xFFFFFFFFFFFFFFFFFFFFFFFFFFFFFFFFFFFFFFFF AND PUSH20 0xFFFFFFFFFFFFFFFFFFFFFFFFFFFFFFFFFFFFFFFF AND DUP2 MSTORE PUSH1 0x20 ADD SWAP1 DUP2 MSTORE PUSH1 0x20 ADD PUSH0 KECCAK256 PUSH0 PUSH2 0x100 EXP DUP2 SLOAD DUP2 PUSH1 0xFF MUL NOT AND SWAP1 DUP4 ISZERO ISZERO MUL OR SWAP1 SSTORE POP DUP2 PUSH20 0xFFFFFFFFFFFFFFFFFFFFFFFFFFFFFFFFFFFFFFFF AND DUP4 PUSH20 0xFFFFFFFFFFFFFFFFFFFFFFFFFFFFFFFFFFFFFFFF AND PUSH32 0x17307EAB39AB6107E8899845AD3D59BD9653F200F220920489CA2B5937696C31 DUP4 PUSH1 0x40 MLOAD PUSH2 0xFDF SWAP2 SWAP1 PUSH2 0x1C3A JUMP JUMPDEST PUSH1 0x40 MLOAD DUP1 SWAP2 SUB SWAP1 LOG3 POP POP POP JUMP JUMPDEST PUSH0 DUP4 PUSH20 0xFFFFFFFFFFFFFFFFFFFFFFFFFFFFFFFFFFFFFFFF AND EXTCODESIZE GT ISZERO PUSH2 0x1191 JUMPI DUP3 PUSH20 0xFFFFFFFFFFFFFFFFFFFFFFFFFFFFFFFFFFFFFFFF AND PUSH4 0x150B7A02 DUP7 DUP7 DUP6 DUP6 PUSH1 0x40 MLOAD DUP6 PUSH4 0xFFFFFFFF AND PUSH1 0xE0 SHL DUP2 MSTORE PUSH1 0x4 ADD PUSH2 0x104A SWAP5 SWAP4 SWAP3 SWAP2 SWAP1 PUSH2 0x258B JUMP JUMPDEST PUSH1 0x20 PUSH1 0x40 MLOAD DUP1 DUP4 SUB DUP2 PUSH0 DUP8 GAS CALL SWAP3 POP POP POP DUP1 ISZERO PUSH2 0x1085 JUMPI POP PUSH1 0x40 MLOAD RETURNDATASIZE PUSH1 0x1F NOT PUSH1 0x1F DUP3 ADD AND DUP3 ADD DUP1 PUSH1 0x40 MSTORE POP DUP2 ADD SWAP1 PUSH2 0x1082 SWAP2 SWAP1 PUSH2 0x25E9 JUMP JUMPDEST PUSH1 0x1 JUMPDEST PUSH2 0x1106 JUMPI RETURNDATASIZE DUP1 PUSH0 DUP2 EQ PUSH2 0x10B3 JUMPI PUSH1 0x40 MLOAD SWAP2 POP PUSH1 0x1F NOT PUSH1 0x3F RETURNDATASIZE ADD AND DUP3 ADD PUSH1 0x40 MSTORE RETURNDATASIZE DUP3 MSTORE RETURNDATASIZE PUSH0 PUSH1 0x20 DUP5 ADD RETURNDATACOPY PUSH2 0x10B8 JUMP JUMPDEST PUSH1 0x60 SWAP2 POP JUMPDEST POP PUSH0 DUP2 MLOAD SUB PUSH2 0x10FE JUMPI DUP4 PUSH1 0x40 MLOAD PUSH32 0x64A0AE9200000000000000000000000000000000000000000000000000000000 DUP2 MSTORE PUSH1 0x4 ADD PUSH2 0x10F5 SWAP2 SWAP1 PUSH2 0x1D80 JUMP JUMPDEST PUSH1 0x40 MLOAD DUP1 SWAP2 SUB SWAP1 REVERT JUMPDEST DUP1 MLOAD DUP2 PUSH1 0x20 ADD REVERT JUMPDEST PUSH4 0x150B7A02 PUSH1 0xE0 SHL PUSH28 0xFFFFFFFFFFFFFFFFFFFFFFFFFFFFFFFFFFFFFFFFFFFFFFFFFFFFFFFF NOT AND DUP2 PUSH28 0xFFFFFFFFFFFFFFFFFFFFFFFFFFFFFFFFFFFFFFFFFFFFFFFFFFFFFFFF NOT AND EQ PUSH2 0x118F JUMPI DUP4 PUSH1 0x40 MLOAD PUSH32 0x64A0AE9200000000000000000000000000000000000000000000000000000000 DUP2 MSTORE PUSH1 0x4 ADD PUSH2 0x1186 SWAP2 SWAP1 PUSH2 0x1D80 JUMP JUMPDEST PUSH1 0x40 MLOAD DUP1 SWAP2 SUB SWAP1 REVERT JUMPDEST POP JUMPDEST POP POP POP POP POP JUMP JUMPDEST PUSH1 0x60 PUSH2 0x11A3 DUP3 PUSH2 0x9C4 JUMP JUMPDEST POP PUSH0 PUSH1 0x6 PUSH0 DUP5 DUP2 MSTORE PUSH1 0x20 ADD SWAP1 DUP2 MSTORE PUSH1 0x20 ADD PUSH0 KECCAK256 DUP1 SLOAD PUSH2 0x11C1 SWAP1 PUSH2 0x2208 JUMP JUMPDEST DUP1 PUSH1 0x1F ADD PUSH1 0x20 DUP1 SWAP2 DIV MUL PUSH1 0x20 ADD PUSH1 0x40 MLOAD SWAP1 DUP2 ADD PUSH1 0x40 MSTORE DUP1 SWAP3 SWAP2 SWAP1 DUP2 DUP2 MSTORE PUSH1 0x20 ADD DUP3 DUP1 SLOAD PUSH2 0x11ED SWAP1 PUSH2 0x2208 JUMP JUMPDEST DUP1 ISZERO PUSH2 0x1238 JUMPI DUP1 PUSH1 0x1F LT PUSH2 0x120F JUMPI PUSH2 0x100 DUP1 DUP4 SLOAD DIV MUL DUP4 MSTORE SWAP2 PUSH1 0x20 ADD SWAP2 PUSH2 0x1238 JUMP JUMPDEST DUP3 ADD SWAP2 SWAP1 PUSH0 MSTORE PUSH1 0x20 PUSH0 KECCAK256 SWAP1 JUMPDEST DUP2 SLOAD DUP2 MSTORE SWAP1 PUSH1 0x1 ADD SWAP1 PUSH1 0x20 ADD DUP1 DUP4 GT PUSH2 0x121B JUMPI DUP3 SWAP1 SUB PUSH1 0x1F AND DUP3 ADD SWAP2 JUMPDEST POP POP POP POP POP SWAP1 POP PUSH0 PUSH2 0x1248 PUSH2 0x1662 JUMP JUMPDEST SWAP1 POP PUSH0 DUP2 MLOAD SUB PUSH2 0x125C JUMPI DUP2 SWAP3 POP POP POP PUSH2 0x129E JUMP JUMPDEST PUSH0 DUP3 MLOAD GT ISZERO PUSH2 0x1290 JUMPI DUP1 DUP3 PUSH1 0x40 MLOAD PUSH1 0x20 ADD PUSH2 0x1278 SWAP3 SWAP2 SWAP1 PUSH2 0x264E JUMP JUMPDEST PUSH1 0x40 MLOAD PUSH1 0x20 DUP2 DUP4 SUB SUB DUP2 MSTORE SWAP1 PUSH1 0x40 MSTORE SWAP3 POP POP POP PUSH2 0x129E JUMP JUMPDEST PUSH2 0x1299 DUP5 PUSH2 0x16F2 JUMP JUMPDEST SWAP3 POP POP POP JUMPDEST SWAP2 SWAP1 POP JUMP JUMPDEST PUSH0 PUSH32 0x80AC58CD00000000000000000000000000000000000000000000000000000000 PUSH28 0xFFFFFFFFFFFFFFFFFFFFFFFFFFFFFFFFFFFFFFFFFFFFFFFFFFFFFFFF NOT AND DUP3 PUSH28 0xFFFFFFFFFFFFFFFFFFFFFFFFFFFFFFFFFFFFFFFFFFFFFFFFFFFFFFFF NOT AND EQ DUP1 PUSH2 0x136D JUMPI POP PUSH32 0x5B5E139F00000000000000000000000000000000000000000000000000000000 PUSH28 0xFFFFFFFFFFFFFFFFFFFFFFFFFFFFFFFFFFFFFFFFFFFFFFFFFFFFFFFF NOT AND DUP3 PUSH28 0xFFFFFFFFFFFFFFFFFFFFFFFFFFFFFFFFFFFFFFFFFFFFFFFFFFFFFFFF NOT AND EQ JUMPDEST DUP1 PUSH2 0x137D JUMPI POP PUSH2 0x137C DUP3 PUSH2 0x1758 JUMP JUMPDEST JUMPDEST SWAP1 POP SWAP2 SWAP1 POP JUMP JUMPDEST PUSH0 PUSH1 0x2 PUSH0 DUP4 DUP2 MSTORE PUSH1 0x20 ADD SWAP1 DUP2 MSTORE PUSH1 0x20 ADD PUSH0 KECCAK256 PUSH0 SWAP1 SLOAD SWAP1 PUSH2 0x100 EXP SWAP1 DIV PUSH20 0xFFFFFFFFFFFFFFFFFFFFFFFFFFFFFFFFFFFFFFFF AND SWAP1 POP SWAP2 SWAP1 POP JUMP JUMPDEST DUP1 DUP1 PUSH2 0x13F5 JUMPI POP PUSH0 PUSH20 0xFFFFFFFFFFFFFFFFFFFFFFFFFFFFFFFFFFFFFFFF AND DUP3 PUSH20 0xFFFFFFFFFFFFFFFFFFFFFFFFFFFFFFFFFFFFFFFF AND EQ ISZERO JUMPDEST ISZERO PUSH2 0x1527 JUMPI PUSH0 PUSH2 0x1404 DUP5 PUSH2 0x9C4 JUMP JUMPDEST SWAP1 POP PUSH0 PUSH20 0xFFFFFFFFFFFFFFFFFFFFFFFFFFFFFFFFFFFFFFFF AND DUP4 PUSH20 0xFFFFFFFFFFFFFFFFFFFFFFFFFFFFFFFFFFFFFFFF AND EQ ISZERO DUP1 ISZERO PUSH2 0x146E JUMPI POP DUP3 PUSH20 0xFFFFFFFFFFFFFFFFFFFFFFFFFFFFFFFFFFFFFFFF AND DUP2 PUSH20 0xFFFFFFFFFFFFFFFFFFFFFFFFFFFFFFFFFFFFFFFF AND EQ ISZERO JUMPDEST DUP1 ISZERO PUSH2 0x1481 JUMPI POP PUSH2 0x147F DUP2 DUP5 PUSH2 0x852 JUMP JUMPDEST ISZERO JUMPDEST ISZERO PUSH2 0x14C3 JUMPI DUP3 PUSH1 0x40 MLOAD PUSH32 0xA9FBF51F00000000000000000000000000000000000000000000000000000000 DUP2 MSTORE PUSH1 0x4 ADD PUSH2 0x14BA SWAP2 SWAP1 PUSH2 0x1D80 JUMP JUMPDEST PUSH1 0x40 MLOAD DUP1 SWAP2 SUB SWAP1 REVERT JUMPDEST DUP2 ISZERO PUSH2 0x1525 JUMPI DUP4 DUP6 PUSH20 0xFFFFFFFFFFFFFFFFFFFFFFFFFFFFFFFFFFFFFFFF AND DUP3 PUSH20 0xFFFFFFFFFFFFFFFFFFFFFFFFFFFFFFFFFFFFFFFF AND PUSH32 0x8C5BE1E5EBEC7D5BD14F71427D1E84F3DD0314C0F7B2291E5B200AC8C7C3B925 PUSH1 0x40 MLOAD PUSH1 0x40 MLOAD DUP1 SWAP2 SUB SWAP1 LOG4 JUMPDEST POP JUMPDEST DUP4 PUSH1 0x4 PUSH0 DUP6 DUP2 MSTORE PUSH1 0x20 ADD SWAP1 DUP2 MSTORE PUSH1 0x20 ADD PUSH0 KECCAK256 PUSH0 PUSH2 0x100 EXP DUP2 SLOAD DUP2 PUSH20 0xFFFFFFFFFFFFFFFFFFFFFFFFFFFFFFFFFFFFFFFF MUL NOT AND SWAP1 DUP4 PUSH20 0xFFFFFFFFFFFFFFFFFFFFFFFFFFFFFFFFFFFFFFFF AND MUL OR SWAP1 SSTORE POP POP POP POP POP JUMP JUMPDEST PUSH2 0x1587 DUP4 DUP4 DUP4 PUSH2 0x17C1 JUMP JUMPDEST PUSH2 0x163A JUMPI PUSH0 PUSH20 0xFFFFFFFFFFFFFFFFFFFFFFFFFFFFFFFFFFFFFFFF AND DUP4 PUSH20 0xFFFFFFFFFFFFFFFFFFFFFFFFFFFFFFFFFFFFFFFF AND SUB PUSH2 0x15FB JUMPI DUP1 PUSH1 0x40 MLOAD PUSH32 0x7E27328900000000000000000000000000000000000000000000000000000000 DUP2 MSTORE PUSH1 0x4 ADD PUSH2 0x15F2 SWAP2 SWAP1 PUSH2 0x1FFE JUMP JUMPDEST PUSH1 0x40 MLOAD DUP1 SWAP2 SUB SWAP1 REVERT JUMPDEST DUP2 DUP2 PUSH1 0x40 MLOAD PUSH32 0x177E802F00000000000000000000000000000000000000000000000000000000 DUP2 MSTORE PUSH1 0x4 ADD PUSH2 0x1631 SWAP3 SWAP2 SWAP1 PUSH2 0x2671 JUMP JUMPDEST PUSH1 0x40 MLOAD DUP1 SWAP2 SUB SWAP1 REVERT JUMPDEST POP POP POP JUMP JUMPDEST PUSH2 0x1649 DUP4 DUP4 PUSH2 0x1881 JUMP JUMPDEST PUSH2 0x165D PUSH2 0x1654 PUSH2 0xA83 JUMP JUMPDEST PUSH0 DUP6 DUP6 DUP6 PUSH2 0xFEC JUMP JUMPDEST POP POP POP JUMP JUMPDEST PUSH1 0x60 PUSH1 0x9 DUP1 SLOAD PUSH2 0x1671 SWAP1 PUSH2 0x2208 JUMP JUMPDEST DUP1 PUSH1 0x1F ADD PUSH1 0x20 DUP1 SWAP2 DIV MUL PUSH1 0x20 ADD PUSH1 0x40 MLOAD SWAP1 DUP2 ADD PUSH1 0x40 MSTORE DUP1 SWAP3 SWAP2 SWAP1 DUP2 DUP2 MSTORE PUSH1 0x20 ADD DUP3 DUP1 SLOAD PUSH2 0x169D SWAP1 PUSH2 0x2208 JUMP JUMPDEST DUP1 ISZERO PUSH2 0x16E8 JUMPI DUP1 PUSH1 0x1F LT PUSH2 0x16BF JUMPI PUSH2 0x100 DUP1 DUP4 SLOAD DIV MUL DUP4 MSTORE SWAP2 PUSH1 0x20 ADD SWAP2 PUSH2 0x16E8 JUMP JUMPDEST DUP3 ADD SWAP2 SWAP1 PUSH0 MSTORE PUSH1 0x20 PUSH0 KECCAK256 SWAP1 JUMPDEST DUP2 SLOAD DUP2 MSTORE SWAP1 PUSH1 0x1 ADD SWAP1 PUSH1 0x20 ADD DUP1 DUP4 GT PUSH2 0x16CB JUMPI DUP3 SWAP1 SUB PUSH1 0x1F AND DUP3 ADD SWAP2 JUMPDEST POP POP POP POP POP SWAP1 POP SWAP1 JUMP JUMPDEST PUSH1 0x60 PUSH2 0x16FD DUP3 PUSH2 0x9C4 JUMP JUMPDEST POP PUSH0 PUSH2 0x1707 PUSH2 0x1662 JUMP JUMPDEST SWAP1 POP PUSH0 DUP2 MLOAD GT PUSH2 0x1725 JUMPI PUSH1 0x40 MLOAD DUP1 PUSH1 0x20 ADD PUSH1 0x40 MSTORE DUP1 PUSH0 DUP2 MSTORE POP PUSH2 0x1750 JUMP JUMPDEST DUP1 PUSH2 0x172F DUP5 PUSH2 0x1974 JUMP JUMPDEST PUSH1 0x40 MLOAD PUSH1 0x20 ADD PUSH2 0x1740 SWAP3 SWAP2 SWAP1 PUSH2 0x264E JUMP JUMPDEST PUSH1 0x40 MLOAD PUSH1 0x20 DUP2 DUP4 SUB SUB DUP2 MSTORE SWAP1 PUSH1 0x40 MSTORE JUMPDEST SWAP2 POP POP SWAP2 SWAP1 POP JUMP JUMPDEST PUSH0 PUSH32 0x1FFC9A700000000000000000000000000000000000000000000000000000000 PUSH28 0xFFFFFFFFFFFFFFFFFFFFFFFFFFFFFFFFFFFFFFFFFFFFFFFFFFFFFFFF NOT AND DUP3 PUSH28 0xFFFFFFFFFFFFFFFFFFFFFFFFFFFFFFFFFFFFFFFFFFFFFFFFFFFFFFFF NOT AND EQ SWAP1 POP SWAP2 SWAP1 POP JUMP JUMPDEST PUSH0 DUP1 PUSH20 0xFFFFFFFFFFFFFFFFFFFFFFFFFFFFFFFFFFFFFFFF AND DUP4 PUSH20 0xFFFFFFFFFFFFFFFFFFFFFFFFFFFFFFFFFFFFFFFF AND EQ ISZERO DUP1 ISZERO PUSH2 0x1878 JUMPI POP DUP3 PUSH20 0xFFFFFFFFFFFFFFFFFFFFFFFFFFFFFFFFFFFFFFFF AND DUP5 PUSH20 0xFFFFFFFFFFFFFFFFFFFFFFFFFFFFFFFFFFFFFFFF AND EQ DUP1 PUSH2 0x1839 JUMPI POP PUSH2 0x1838 DUP5 DUP5 PUSH2 0x852 JUMP JUMPDEST JUMPDEST DUP1 PUSH2 0x1877 JUMPI POP DUP3 PUSH20 0xFFFFFFFFFFFFFFFFFFFFFFFFFFFFFFFFFFFFFFFF AND PUSH2 0x185F DUP4 PUSH2 0xA4A JUMP JUMPDEST PUSH20 0xFFFFFFFFFFFFFFFFFFFFFFFFFFFFFFFFFFFFFFFF AND EQ JUMPDEST JUMPDEST SWAP1 POP SWAP4 SWAP3 POP POP POP JUMP JUMPDEST PUSH0 PUSH20 0xFFFFFFFFFFFFFFFFFFFFFFFFFFFFFFFFFFFFFFFF AND DUP3 PUSH20 0xFFFFFFFFFFFFFFFFFFFFFFFFFFFFFFFFFFFFFFFF AND SUB PUSH2 0x18F1 JUMPI PUSH0 PUSH1 0x40 MLOAD PUSH32 0x64A0AE9200000000000000000000000000000000000000000000000000000000 DUP2 MSTORE PUSH1 0x4 ADD PUSH2 0x18E8 SWAP2 SWAP1 PUSH2 0x1D80 JUMP JUMPDEST PUSH1 0x40 MLOAD DUP1 SWAP2 SUB SWAP1 REVERT JUMPDEST PUSH0 PUSH2 0x18FD DUP4 DUP4 PUSH0 PUSH2 0xA9C JUMP JUMPDEST SWAP1 POP PUSH0 PUSH20 0xFFFFFFFFFFFFFFFFFFFFFFFFFFFFFFFFFFFFFFFF AND DUP2 PUSH20 0xFFFFFFFFFFFFFFFFFFFFFFFFFFFFFFFFFFFFFFFF AND EQ PUSH2 0x196F JUMPI PUSH0 PUSH1 0x40 MLOAD PUSH32 0x73C6AC6E00000000000000000000000000000000000000000000000000000000 DUP2 MSTORE PUSH1 0x4 ADD PUSH2 0x1966 SWAP2 SWAP1 PUSH2 0x1D80 JUMP JUMPDEST PUSH1 0x40 MLOAD DUP1 SWAP2 SUB SWAP1 REVERT JUMPDEST POP POP POP JUMP JUMPDEST PUSH1 0x60 PUSH0 PUSH1 0x1 PUSH2 0x1982 DUP5 PUSH2 0x1A3E JUMP JUMPDEST ADD SWAP1 POP PUSH0 DUP2 PUSH8 0xFFFFFFFFFFFFFFFF DUP2 GT ISZERO PUSH2 0x19A0 JUMPI PUSH2 0x199F PUSH2 0x1E84 JUMP JUMPDEST JUMPDEST PUSH1 0x40 MLOAD SWAP1 DUP1 DUP3 MSTORE DUP1 PUSH1 0x1F ADD PUSH1 0x1F NOT AND PUSH1 0x20 ADD DUP3 ADD PUSH1 0x40 MSTORE DUP1 ISZERO PUSH2 0x19D2 JUMPI DUP2 PUSH1 0x20 ADD PUSH1 0x1 DUP3 MUL DUP1 CALLDATASIZE DUP4 CALLDATACOPY DUP1 DUP3 ADD SWAP2 POP POP SWAP1 POP JUMPDEST POP SWAP1 POP PUSH0 DUP3 PUSH1 0x20 ADD DUP3 ADD SWAP1 POP JUMPDEST PUSH1 0x1 ISZERO PUSH2 0x1A33 JUMPI DUP1 DUP1 PUSH1 0x1 SWAP1 SUB SWAP2 POP POP PUSH32 0x3031323334353637383961626364656600000000000000000000000000000000 PUSH1 0xA DUP7 MOD BYTE DUP2 MSTORE8 PUSH1 0xA DUP6 DUP2 PUSH2 0x1A28 JUMPI PUSH2 0x1A27 PUSH2 0x2698 JUMP JUMPDEST JUMPDEST DIV SWAP5 POP PUSH0 DUP6 SUB PUSH2 0x19DF JUMPI JUMPDEST DUP2 SWAP4 POP POP POP POP SWAP2 SWAP1 POP JUMP JUMPDEST PUSH0 DUP1 PUSH0 SWAP1 POP PUSH27 0x184F03E93FF9F4DAA797ED6E38ED64BF6A1F010000000000000000 DUP4 LT PUSH2 0x1A9A JUMPI PUSH27 0x184F03E93FF9F4DAA797ED6E38ED64BF6A1F010000000000000000 DUP4 DUP2 PUSH2 0x1A90 JUMPI PUSH2 0x1A8F PUSH2 0x2698 JUMP JUMPDEST JUMPDEST DIV SWAP3 POP PUSH1 0x40 DUP2 ADD SWAP1 POP JUMPDEST PUSH14 0x4EE2D6D415B85ACEF8100000000 DUP4 LT PUSH2 0x1AD7 JUMPI PUSH14 0x4EE2D6D415B85ACEF8100000000 DUP4 DUP2 PUSH2 0x1ACD JUMPI PUSH2 0x1ACC PUSH2 0x2698 JUMP JUMPDEST JUMPDEST DIV SWAP3 POP PUSH1 0x20 DUP2 ADD SWAP1 POP JUMPDEST PUSH7 0x2386F26FC10000 DUP4 LT PUSH2 0x1B06 JUMPI PUSH7 0x2386F26FC10000 DUP4 DUP2 PUSH2 0x1AFC JUMPI PUSH2 0x1AFB PUSH2 0x2698 JUMP JUMPDEST JUMPDEST DIV SWAP3 POP PUSH1 0x10 DUP2 ADD SWAP1 POP JUMPDEST PUSH4 0x5F5E100 DUP4 LT PUSH2 0x1B2F JUMPI PUSH4 0x5F5E100 DUP4 DUP2 PUSH2 0x1B25 JUMPI PUSH2 0x1B24 PUSH2 0x2698 JUMP JUMPDEST JUMPDEST DIV SWAP3 POP PUSH1 0x8 DUP2 ADD SWAP1 POP JUMPDEST PUSH2 0x2710 DUP4 LT PUSH2 0x1B54 JUMPI PUSH2 0x2710 DUP4 DUP2 PUSH2 0x1B4A JUMPI PUSH2 0x1B49 PUSH2 0x2698 JUMP JUMPDEST JUMPDEST DIV SWAP3 POP PUSH1 0x4 DUP2 ADD SWAP1 POP JUMPDEST PUSH1 0x64 DUP4 LT PUSH2 0x1B77 JUMPI PUSH1 0x64 DUP4 DUP2 PUSH2 0x1B6D JUMPI PUSH2 0x1B6C PUSH2 0x2698 JUMP JUMPDEST JUMPDEST DIV SWAP3 POP PUSH1 0x2 DUP2 ADD SWAP1 POP JUMPDEST PUSH1 0xA DUP4 LT PUSH2 0x1B86 JUMPI PUSH1 0x1 DUP2 ADD SWAP1 POP JUMPDEST DUP1 SWAP2 POP POP SWAP2 SWAP1 POP JUMP JUMPDEST PUSH0 PUSH1 0x40 MLOAD SWAP1 POP SWAP1 JUMP JUMPDEST PUSH0 DUP1 REVERT JUMPDEST PUSH0 DUP1 REVERT JUMPDEST PUSH0 PUSH32 0xFFFFFFFF00000000000000000000000000000000000000000000000000000000 DUP3 AND SWAP1 POP SWAP2 SWAP1 POP JUMP JUMPDEST PUSH2 0x1BD4 DUP2 PUSH2 0x1BA0 JUMP JUMPDEST DUP2 EQ PUSH2 0x1BDE JUMPI PUSH0 DUP1 REVERT JUMPDEST POP JUMP JUMPDEST PUSH0 DUP2 CALLDATALOAD SWAP1 POP PUSH2 0x1BEF DUP2 PUSH2 0x1BCB JUMP JUMPDEST SWAP3 SWAP2 POP POP JUMP JUMPDEST PUSH0 PUSH1 0x20 DUP3 DUP5 SUB SLT ISZERO PUSH2 0x1C0A JUMPI PUSH2 0x1C09 PUSH2 0x1B98 JUMP JUMPDEST JUMPDEST PUSH0 PUSH2 0x1C17 DUP5 DUP3 DUP6 ADD PUSH2 0x1BE1 JUMP JUMPDEST SWAP2 POP POP SWAP3 SWAP2 POP POP JUMP JUMPDEST PUSH0 DUP2 ISZERO ISZERO SWAP1 POP SWAP2 SWAP1 POP JUMP JUMPDEST PUSH2 0x1C34 DUP2 PUSH2 0x1C20 JUMP JUMPDEST DUP3 MSTORE POP POP JUMP JUMPDEST PUSH0 PUSH1 0x20 DUP3 ADD SWAP1 POP PUSH2 0x1C4D PUSH0 DUP4 ADD DUP5 PUSH2 0x1C2B JUMP JUMPDEST SWAP3 SWAP2 POP POP JUMP JUMPDEST PUSH0 DUP2 MLOAD SWAP1 POP SWAP2 SWAP1 POP JUMP JUMPDEST PUSH0 DUP3 DUP3 MSTORE PUSH1 0x20 DUP3 ADD SWAP1 POP SWAP3 SWAP2 POP POP JUMP JUMPDEST DUP3 DUP2 DUP4 MCOPY PUSH0 DUP4 DUP4 ADD MSTORE POP POP POP JUMP JUMPDEST PUSH0 PUSH1 0x1F NOT PUSH1 0x1F DUP4 ADD AND SWAP1 POP SWAP2 SWAP1 POP JUMP JUMPDEST PUSH0 PUSH2 0x1C95 DUP3 PUSH2 0x1C53 JUMP JUMPDEST PUSH2 0x1C9F DUP2 DUP6 PUSH2 0x1C5D JUMP JUMPDEST SWAP4 POP PUSH2 0x1CAF DUP2 DUP6 PUSH1 0x20 DUP7 ADD PUSH2 0x1C6D JUMP JUMPDEST PUSH2 0x1CB8 DUP2 PUSH2 0x1C7B JUMP JUMPDEST DUP5 ADD SWAP2 POP POP SWAP3 SWAP2 POP POP JUMP JUMPDEST PUSH0 PUSH1 0x20 DUP3 ADD SWAP1 POP DUP2 DUP2 SUB PUSH0 DUP4 ADD MSTORE PUSH2 0x1CDB DUP2 DUP5 PUSH2 0x1C8B JUMP JUMPDEST SWAP1 POP SWAP3 SWAP2 POP POP JUMP JUMPDEST PUSH0 DUP2 SWAP1 POP SWAP2 SWAP1 POP JUMP JUMPDEST PUSH2 0x1CF5 DUP2 PUSH2 0x1CE3 JUMP JUMPDEST DUP2 EQ PUSH2 0x1CFF JUMPI PUSH0 DUP1 REVERT JUMPDEST POP JUMP JUMPDEST PUSH0 DUP2 CALLDATALOAD SWAP1 POP PUSH2 0x1D10 DUP2 PUSH2 0x1CEC JUMP JUMPDEST SWAP3 SWAP2 POP POP JUMP JUMPDEST PUSH0 PUSH1 0x20 DUP3 DUP5 SUB SLT ISZERO PUSH2 0x1D2B JUMPI PUSH2 0x1D2A PUSH2 0x1B98 JUMP JUMPDEST JUMPDEST PUSH0 PUSH2 0x1D38 DUP5 DUP3 DUP6 ADD PUSH2 0x1D02 JUMP JUMPDEST SWAP2 POP POP SWAP3 SWAP2 POP POP JUMP JUMPDEST PUSH0 PUSH20 0xFFFFFFFFFFFFFFFFFFFFFFFFFFFFFFFFFFFFFFFF DUP3 AND SWAP1 POP SWAP2 SWAP1 POP JUMP JUMPDEST PUSH0 PUSH2 0x1D6A DUP3 PUSH2 0x1D41 JUMP JUMPDEST SWAP1 POP SWAP2 SWAP1 POP JUMP JUMPDEST PUSH2 0x1D7A DUP2 PUSH2 0x1D60 JUMP JUMPDEST DUP3 MSTORE POP POP JUMP JUMPDEST PUSH0 PUSH1 0x20 DUP3 ADD SWAP1 POP PUSH2 0x1D93 PUSH0 DUP4 ADD DUP5 PUSH2 0x1D71 JUMP JUMPDEST SWAP3 SWAP2 POP POP JUMP JUMPDEST PUSH2 0x1DA2 DUP2 PUSH2 0x1D60 JUMP JUMPDEST DUP2 EQ PUSH2 0x1DAC JUMPI PUSH0 DUP1 REVERT JUMPDEST POP JUMP JUMPDEST PUSH0 DUP2 CALLDATALOAD SWAP1 POP PUSH2 0x1DBD DUP2 PUSH2 0x1D99 JUMP JUMPDEST SWAP3 SWAP2 POP POP JUMP JUMPDEST PUSH0 DUP1 PUSH1 0x40 DUP4 DUP6 SUB SLT ISZERO PUSH2 0x1DD9 JUMPI PUSH2 0x1DD8 PUSH2 0x1B98 JUMP JUMPDEST JUMPDEST PUSH0 PUSH2 0x1DE6 DUP6 DUP3 DUP7 ADD PUSH2 0x1DAF JUMP JUMPDEST SWAP3 POP POP PUSH1 0x20 PUSH2 0x1DF7 DUP6 DUP3 DUP7 ADD PUSH2 0x1D02 JUMP JUMPDEST SWAP2 POP POP SWAP3 POP SWAP3 SWAP1 POP JUMP JUMPDEST PUSH0 DUP1 PUSH0 PUSH1 0x60 DUP5 DUP7 SUB SLT ISZERO PUSH2 0x1E18 JUMPI PUSH2 0x1E17 PUSH2 0x1B98 JUMP JUMPDEST JUMPDEST PUSH0 PUSH2 0x1E25 DUP7 DUP3 DUP8 ADD PUSH2 0x1DAF JUMP JUMPDEST SWAP4 POP POP PUSH1 0x20 PUSH2 0x1E36 DUP7 DUP3 DUP8 ADD PUSH2 0x1DAF JUMP JUMPDEST SWAP3 POP POP PUSH1 0x40 PUSH2 0x1E47 DUP7 DUP3 DUP8 ADD PUSH2 0x1D02 JUMP JUMPDEST SWAP2 POP POP SWAP3 POP SWAP3 POP SWAP3 JUMP JUMPDEST PUSH0 PUSH1 0x20 DUP3 DUP5 SUB SLT ISZERO PUSH2 0x1E66 JUMPI PUSH2 0x1E65 PUSH2 0x1B98 JUMP JUMPDEST JUMPDEST PUSH0 PUSH2 0x1E73 DUP5 DUP3 DUP6 ADD PUSH2 0x1DAF JUMP JUMPDEST SWAP2 POP POP SWAP3 SWAP2 POP POP JUMP JUMPDEST PUSH0 DUP1 REVERT JUMPDEST PUSH0 DUP1 REVERT JUMPDEST PUSH32 0x4E487B7100000000000000000000000000000000000000000000000000000000 PUSH0 MSTORE PUSH1 0x41 PUSH1 0x4 MSTORE PUSH1 0x24 PUSH0 REVERT JUMPDEST PUSH2 0x1EBA DUP3 PUSH2 0x1C7B JUMP JUMPDEST DUP2 ADD DUP2 DUP2 LT PUSH8 0xFFFFFFFFFFFFFFFF DUP3 GT OR ISZERO PUSH2 0x1ED9 JUMPI PUSH2 0x1ED8 PUSH2 0x1E84 JUMP JUMPDEST JUMPDEST DUP1 PUSH1 0x40 MSTORE POP POP POP JUMP JUMPDEST PUSH0 PUSH2 0x1EEB PUSH2 0x1B8F JUMP JUMPDEST SWAP1 POP PUSH2 0x1EF7 DUP3 DUP3 PUSH2 0x1EB1 JUMP JUMPDEST SWAP2 SWAP1 POP JUMP JUMPDEST PUSH0 PUSH8 0xFFFFFFFFFFFFFFFF DUP3 GT ISZERO PUSH2 0x1F16 JUMPI PUSH2 0x1F15 PUSH2 0x1E84 JUMP JUMPDEST JUMPDEST PUSH2 0x1F1F DUP3 PUSH2 0x1C7B JUMP JUMPDEST SWAP1 POP PUSH1 0x20 DUP2 ADD SWAP1 POP SWAP2 SWAP1 POP JUMP JUMPDEST DUP3 DUP2 DUP4 CALLDATACOPY PUSH0 DUP4 DUP4 ADD MSTORE POP POP POP JUMP JUMPDEST PUSH0 PUSH2 0x1F4C PUSH2 0x1F47 DUP5 PUSH2 0x1EFC JUMP JUMPDEST PUSH2 0x1EE2 JUMP JUMPDEST SWAP1 POP DUP3 DUP2 MSTORE PUSH1 0x20 DUP2 ADD DUP5 DUP5 DUP5 ADD GT ISZERO PUSH2 0x1F68 JUMPI PUSH2 0x1F67 PUSH2 0x1E80 JUMP JUMPDEST JUMPDEST PUSH2 0x1F73 DUP5 DUP3 DUP6 PUSH2 0x1F2C JUMP JUMPDEST POP SWAP4 SWAP3 POP POP POP JUMP JUMPDEST PUSH0 DUP3 PUSH1 0x1F DUP4 ADD SLT PUSH2 0x1F8F JUMPI PUSH2 0x1F8E PUSH2 0x1E7C JUMP JUMPDEST JUMPDEST DUP2 CALLDATALOAD PUSH2 0x1F9F DUP5 DUP3 PUSH1 0x20 DUP7 ADD PUSH2 0x1F3A JUMP JUMPDEST SWAP2 POP POP SWAP3 SWAP2 POP POP JUMP JUMPDEST PUSH0 PUSH1 0x20 DUP3 DUP5 SUB SLT ISZERO PUSH2 0x1FBD JUMPI PUSH2 0x1FBC PUSH2 0x1B98 JUMP JUMPDEST JUMPDEST PUSH0 DUP3 ADD CALLDATALOAD PUSH8 0xFFFFFFFFFFFFFFFF DUP2 GT ISZERO PUSH2 0x1FDA JUMPI PUSH2 0x1FD9 PUSH2 0x1B9C JUMP JUMPDEST JUMPDEST PUSH2 0x1FE6 DUP5 DUP3 DUP6 ADD PUSH2 0x1F7B JUMP JUMPDEST SWAP2 POP POP SWAP3 SWAP2 POP POP JUMP JUMPDEST PUSH2 0x1FF8 DUP2 PUSH2 0x1CE3 JUMP JUMPDEST DUP3 MSTORE POP POP JUMP JUMPDEST PUSH0 PUSH1 0x20 DUP3 ADD SWAP1 POP PUSH2 0x2011 PUSH0 DUP4 ADD DUP5 PUSH2 0x1FEF JUMP JUMPDEST SWAP3 SWAP2 POP POP JUMP JUMPDEST PUSH2 0x2020 DUP2 PUSH2 0x1C20 JUMP JUMPDEST DUP2 EQ PUSH2 0x202A JUMPI PUSH0 DUP1 REVERT JUMPDEST POP JUMP JUMPDEST PUSH0 DUP2 CALLDATALOAD SWAP1 POP PUSH2 0x203B DUP2 PUSH2 0x2017 JUMP JUMPDEST SWAP3 SWAP2 POP POP JUMP JUMPDEST PUSH0 DUP1 PUSH1 0x40 DUP4 DUP6 SUB SLT ISZERO PUSH2 0x2057 JUMPI PUSH2 0x2056 PUSH2 0x1B98 JUMP JUMPDEST JUMPDEST PUSH0 PUSH2 0x2064 DUP6 DUP3 DUP7 ADD PUSH2 0x1DAF JUMP JUMPDEST SWAP3 POP POP PUSH1 0x20 PUSH2 0x2075 DUP6 DUP3 DUP7 ADD PUSH2 0x202D JUMP JUMPDEST SWAP2 POP POP SWAP3 POP SWAP3 SWAP1 POP JUMP JUMPDEST PUSH0 PUSH8 0xFFFFFFFFFFFFFFFF DUP3 GT ISZERO PUSH2 0x2099 JUMPI PUSH2 0x2098 PUSH2 0x1E84 JUMP JUMPDEST JUMPDEST PUSH2 0x20A2 DUP3 PUSH2 0x1C7B JUMP JUMPDEST SWAP1 POP PUSH1 0x20 DUP2 ADD SWAP1 POP SWAP2 SWAP1 POP JUMP JUMPDEST PUSH0 PUSH2 0x20C1 PUSH2 0x20BC DUP5 PUSH2 0x207F JUMP JUMPDEST PUSH2 0x1EE2 JUMP JUMPDEST SWAP1 POP DUP3 DUP2 MSTORE PUSH1 0x20 DUP2 ADD DUP5 DUP5 DUP5 ADD GT ISZERO PUSH2 0x20DD JUMPI PUSH2 0x20DC PUSH2 0x1E80 JUMP JUMPDEST JUMPDEST PUSH2 0x20E8 DUP5 DUP3 DUP6 PUSH2 0x1F2C JUMP JUMPDEST POP SWAP4 SWAP3 POP POP POP JUMP JUMPDEST PUSH0 DUP3 PUSH1 0x1F DUP4 ADD SLT PUSH2 0x2104 JUMPI PUSH2 0x2103 PUSH2 0x1E7C JUMP JUMPDEST JUMPDEST DUP2 CALLDATALOAD PUSH2 0x2114 DUP5 DUP3 PUSH1 0x20 DUP7 ADD PUSH2 0x20AF JUMP JUMPDEST SWAP2 POP POP SWAP3 SWAP2 POP POP JUMP JUMPDEST PUSH0 DUP1 PUSH0 DUP1 PUSH1 0x80 DUP6 DUP8 SUB SLT ISZERO PUSH2 0x2135 JUMPI PUSH2 0x2134 PUSH2 0x1B98 JUMP JUMPDEST JUMPDEST PUSH0 PUSH2 0x2142 DUP8 DUP3 DUP9 ADD PUSH2 0x1DAF JUMP JUMPDEST SWAP5 POP POP PUSH1 0x20 PUSH2 0x2153 DUP8 DUP3 DUP9 ADD PUSH2 0x1DAF JUMP JUMPDEST SWAP4 POP POP PUSH1 0x40 PUSH2 0x2164 DUP8 DUP3 DUP9 ADD PUSH2 0x1D02 JUMP JUMPDEST SWAP3 POP POP PUSH1 0x60 DUP6 ADD CALLDATALOAD PUSH8 0xFFFFFFFFFFFFFFFF DUP2 GT ISZERO PUSH2 0x2185 JUMPI PUSH2 0x2184 PUSH2 0x1B9C JUMP JUMPDEST JUMPDEST PUSH2 0x2191 DUP8 DUP3 DUP9 ADD PUSH2 0x20F0 JUMP JUMPDEST SWAP2 POP POP SWAP3 SWAP6 SWAP2 SWAP5 POP SWAP3 POP JUMP JUMPDEST PUSH0 DUP1 PUSH1 0x40 DUP4 DUP6 SUB SLT ISZERO PUSH2 0x21B3 JUMPI PUSH2 0x21B2 PUSH2 0x1B98 JUMP JUMPDEST JUMPDEST PUSH0 PUSH2 0x21C0 DUP6 DUP3 DUP7 ADD PUSH2 0x1DAF JUMP JUMPDEST SWAP3 POP POP PUSH1 0x20 PUSH2 0x21D1 DUP6 DUP3 DUP7 ADD PUSH2 0x1DAF JUMP JUMPDEST SWAP2 POP POP SWAP3 POP SWAP3 SWAP1 POP JUMP JUMPDEST PUSH32 0x4E487B7100000000000000000000000000000000000000000000000000000000 PUSH0 MSTORE PUSH1 0x22 PUSH1 0x4 MSTORE PUSH1 0x24 PUSH0 REVERT JUMPDEST PUSH0 PUSH1 0x2 DUP3 DIV SWAP1 POP PUSH1 0x1 DUP3 AND DUP1 PUSH2 0x221F JUMPI PUSH1 0x7F DUP3 AND SWAP2 POP JUMPDEST PUSH1 0x20 DUP3 LT DUP2 SUB PUSH2 0x2232 JUMPI PUSH2 0x2231 PUSH2 0x21DB JUMP JUMPDEST JUMPDEST POP SWAP2 SWAP1 POP JUMP JUMPDEST PUSH0 PUSH1 0x60 DUP3 ADD SWAP1 POP PUSH2 0x224B PUSH0 DUP4 ADD DUP7 PUSH2 0x1D71 JUMP JUMPDEST PUSH2 0x2258 PUSH1 0x20 DUP4 ADD DUP6 PUSH2 0x1FEF JUMP JUMPDEST PUSH2 0x2265 PUSH1 0x40 DUP4 ADD DUP5 PUSH2 0x1D71 JUMP JUMPDEST SWAP5 SWAP4 POP POP POP POP JUMP JUMPDEST PUSH0 DUP2 SWAP1 POP DUP2 PUSH0 MSTORE PUSH1 0x20 PUSH0 KECCAK256 SWAP1 POP SWAP2 SWAP1 POP JUMP JUMPDEST PUSH0 PUSH1 0x20 PUSH1 0x1F DUP4 ADD DIV SWAP1 POP SWAP2 SWAP1 POP JUMP JUMPDEST PUSH0 DUP3 DUP3 SHL SWAP1 POP SWAP3 SWAP2 POP POP JUMP JUMPDEST PUSH0 PUSH1 0x8 DUP4 MUL PUSH2 0x22C9 PUSH32 0xFFFFFFFFFFFFFFFFFFFFFFFFFFFFFFFFFFFFFFFFFFFFFFFFFFFFFFFFFFFFFFFF DUP3 PUSH2 0x228E JUMP JUMPDEST PUSH2 0x22D3 DUP7 DUP4 PUSH2 0x228E JUMP JUMPDEST SWAP6 POP DUP1 NOT DUP5 AND SWAP4 POP DUP1 DUP7 AND DUP5 OR SWAP3 POP POP POP SWAP4 SWAP3 POP POP POP JUMP JUMPDEST PUSH0 DUP2 SWAP1 POP SWAP2 SWAP1 POP JUMP JUMPDEST PUSH0 PUSH2 0x230E PUSH2 0x2309 PUSH2 0x2304 DUP5 PUSH2 0x1CE3 JUMP JUMPDEST PUSH2 0x22EB JUMP JUMPDEST PUSH2 0x1CE3 JUMP JUMPDEST SWAP1 POP SWAP2 SWAP1 POP JUMP JUMPDEST PUSH0 DUP2 SWAP1 POP SWAP2 SWAP1 POP JUMP JUMPDEST PUSH2 0x2327 DUP4 PUSH2 0x22F4 JUMP JUMPDEST PUSH2 0x233B PUSH2 0x2333 DUP3 PUSH2 0x2315 JUMP JUMPDEST DUP5 DUP5 SLOAD PUSH2 0x229A JUMP JUMPDEST DUP3 SSTORE POP POP POP POP JUMP JUMPDEST PUSH0 SWAP1 JUMP JUMPDEST PUSH2 0x234F PUSH2 0x2343 JUMP JUMPDEST PUSH2 0x235A DUP2 DUP5 DUP5 PUSH2 0x231E JUMP JUMPDEST POP POP POP JUMP JUMPDEST JUMPDEST DUP2 DUP2 LT ISZERO PUSH2 0x237D JUMPI PUSH2 0x2372 PUSH0 DUP3 PUSH2 0x2347 JUMP JUMPDEST PUSH1 0x1 DUP2 ADD SWAP1 POP PUSH2 0x2360 JUMP JUMPDEST POP POP JUMP JUMPDEST PUSH1 0x1F DUP3 GT ISZERO PUSH2 0x23C2 JUMPI PUSH2 0x2393 DUP2 PUSH2 0x226D JUMP JUMPDEST PUSH2 0x239C DUP5 PUSH2 0x227F JUMP JUMPDEST DUP2 ADD PUSH1 0x20 DUP6 LT ISZERO PUSH2 0x23AB JUMPI DUP2 SWAP1 POP JUMPDEST PUSH2 0x23BF PUSH2 0x23B7 DUP6 PUSH2 0x227F JUMP JUMPDEST DUP4 ADD DUP3 PUSH2 0x235F JUMP JUMPDEST POP POP JUMPDEST POP POP POP JUMP JUMPDEST PUSH0 DUP3 DUP3 SHR SWAP1 POP SWAP3 SWAP2 POP POP JUMP JUMPDEST PUSH0 PUSH2 0x23E2 PUSH0 NOT DUP5 PUSH1 0x8 MUL PUSH2 0x23C7 JUMP JUMPDEST NOT DUP1 DUP4 AND SWAP2 POP POP SWAP3 SWAP2 POP POP JUMP JUMPDEST PUSH0 PUSH2 0x23FA DUP4 DUP4 PUSH2 0x23D3 JUMP JUMPDEST SWAP2 POP DUP3 PUSH1 0x2 MUL DUP3 OR SWAP1 POP SWAP3 SWAP2 POP POP JUMP JUMPDEST PUSH2 0x2413 DUP3 PUSH2 0x1C53 JUMP JUMPDEST PUSH8 0xFFFFFFFFFFFFFFFF DUP2 GT ISZERO PUSH2 0x242C JUMPI PUSH2 0x242B PUSH2 0x1E84 JUMP JUMPDEST JUMPDEST PUSH2 0x2436 DUP3 SLOAD PUSH2 0x2208 JUMP JUMPDEST PUSH2 0x2441 DUP3 DUP3 DUP6 PUSH2 0x2381 JUMP JUMPDEST PUSH0 PUSH1 0x20 SWAP1 POP PUSH1 0x1F DUP4 GT PUSH1 0x1 DUP2 EQ PUSH2 0x2472 JUMPI PUSH0 DUP5 ISZERO PUSH2 0x2460 JUMPI DUP3 DUP8 ADD MLOAD SWAP1 POP JUMPDEST PUSH2 0x246A DUP6 DUP3 PUSH2 0x23EF JUMP JUMPDEST DUP7 SSTORE POP PUSH2 0x24D1 JUMP JUMPDEST PUSH1 0x1F NOT DUP5 AND PUSH2 0x2480 DUP7 PUSH2 0x226D JUMP JUMPDEST PUSH0 JUMPDEST DUP3 DUP2 LT ISZERO PUSH2 0x24A7 JUMPI DUP5 DUP10 ADD MLOAD DUP3 SSTORE PUSH1 0x1 DUP3 ADD SWAP2 POP PUSH1 0x20 DUP6 ADD SWAP5 POP PUSH1 0x20 DUP2 ADD SWAP1 POP PUSH2 0x2482 JUMP JUMPDEST DUP7 DUP4 LT ISZERO PUSH2 0x24C4 JUMPI DUP5 DUP10 ADD MLOAD PUSH2 0x24C0 PUSH1 0x1F DUP10 AND DUP3 PUSH2 0x23D3 JUMP JUMPDEST DUP4 SSTORE POP JUMPDEST PUSH1 0x1 PUSH1 0x2 DUP9 MUL ADD DUP9 SSTORE POP POP POP JUMPDEST POP POP POP POP POP POP JUMP JUMPDEST PUSH32 0x4E487B7100000000000000000000000000000000000000000000000000000000 PUSH0 MSTORE PUSH1 0x11 PUSH1 0x4 MSTORE PUSH1 0x24 PUSH0 REVERT JUMPDEST PUSH0 PUSH2 0x2510 DUP3 PUSH2 0x1CE3 JUMP JUMPDEST SWAP2 POP PUSH2 0x251B DUP4 PUSH2 0x1CE3 JUMP JUMPDEST SWAP3 POP DUP3 DUP3 ADD SWAP1 POP DUP1 DUP3 GT ISZERO PUSH2 0x2533 JUMPI PUSH2 0x2532 PUSH2 0x24D9 JUMP JUMPDEST JUMPDEST SWAP3 SWAP2 POP POP JUMP JUMPDEST PUSH0 DUP2 MLOAD SWAP1 POP SWAP2 SWAP1 POP JUMP JUMPDEST PUSH0 DUP3 DUP3 MSTORE PUSH1 0x20 DUP3 ADD SWAP1 POP SWAP3 SWAP2 POP POP JUMP JUMPDEST PUSH0 PUSH2 0x255D DUP3 PUSH2 0x2539 JUMP JUMPDEST PUSH2 0x2567 DUP2 DUP6 PUSH2 0x2543 JUMP JUMPDEST SWAP4 POP PUSH2 0x2577 DUP2 DUP6 PUSH1 0x20 DUP7 ADD PUSH2 0x1C6D JUMP JUMPDEST PUSH2 0x2580 DUP2 PUSH2 0x1C7B JUMP JUMPDEST DUP5 ADD SWAP2 POP POP SWAP3 SWAP2 POP POP JUMP JUMPDEST PUSH0 PUSH1 0x80 DUP3 ADD SWAP1 POP PUSH2 0x259E PUSH0 DUP4 ADD DUP8 PUSH2 0x1D71 JUMP JUMPDEST PUSH2 0x25AB PUSH1 0x20 DUP4 ADD DUP7 PUSH2 0x1D71 JUMP JUMPDEST PUSH2 0x25B8 PUSH1 0x40 DUP4 ADD DUP6 PUSH2 0x1FEF JUMP JUMPDEST DUP2 DUP2 SUB PUSH1 0x60 DUP4 ADD MSTORE PUSH2 0x25CA DUP2 DUP5 PUSH2 0x2553 JUMP JUMPDEST SWAP1 POP SWAP6 SWAP5 POP POP POP POP POP JUMP JUMPDEST PUSH0 DUP2 MLOAD SWAP1 POP PUSH2 0x25E3 DUP2 PUSH2 0x1BCB JUMP JUMPDEST SWAP3 SWAP2 POP POP JUMP JUMPDEST PUSH0 PUSH1 0x20 DUP3 DUP5 SUB SLT ISZERO PUSH2 0x25FE JUMPI PUSH2 0x25FD PUSH2 0x1B98 JUMP JUMPDEST JUMPDEST PUSH0 PUSH2 0x260B DUP5 DUP3 DUP6 ADD PUSH2 0x25D5 JUMP JUMPDEST SWAP2 POP POP SWAP3 SWAP2 POP POP JUMP JUMPDEST PUSH0 DUP2 SWAP1 POP SWAP3 SWAP2 POP POP JUMP JUMPDEST PUSH0 PUSH2 0x2628 DUP3 PUSH2 0x1C53 JUMP JUMPDEST PUSH2 0x2632 DUP2 DUP6 PUSH2 0x2614 JUMP JUMPDEST SWAP4 POP PUSH2 0x2642 DUP2 DUP6 PUSH1 0x20 DUP7 ADD PUSH2 0x1C6D JUMP JUMPDEST DUP1 DUP5 ADD SWAP2 POP POP SWAP3 SWAP2 POP POP JUMP JUMPDEST PUSH0 PUSH2 0x2659 DUP3 DUP6 PUSH2 0x261E JUMP JUMPDEST SWAP2 POP PUSH2 0x2665 DUP3 DUP5 PUSH2 0x261E JUMP JUMPDEST SWAP2 POP DUP2 SWAP1 POP SWAP4 SWAP3 POP POP POP JUMP JUMPDEST PUSH0 PUSH1 0x40 DUP3 ADD SWAP1 POP PUSH2 0x2684 PUSH0 DUP4 ADD DUP6 PUSH2 0x1D71 JUMP JUMPDEST PUSH2 0x2691 PUSH1 0x20 DUP4 ADD DUP5 PUSH2 0x1FEF JUMP JUMPDEST SWAP4 SWAP3 POP POP POP JUMP JUMPDEST PUSH32 0x4E487B7100000000000000000000000000000000000000000000000000000000 PUSH0 MSTORE PUSH1 0x12 PUSH1 0x4 MSTORE PUSH1 0x24 PUSH0 REVERT INVALID LOG2 PUSH5 0x6970667358 0x22 SLT KECCAK256 0x28 BLOBBASEFEE DUP10 0xBC 0xE PUSH24 0xEA38C191745693E3796D27EE71DC6FFDC4DA6D515B68BDEE 0xC6 0xDE PUSH5 0x736F6C6343 STOP ADDMOD BYTE STOP CALLER "
		},
		"gasEstimates": {
			"creation": {
				"codeDepositCost": "1995800",
				"executionCost": "infinite",
				"totalCost": "infinite"
			},
			"external": {
				"approve(address,uint256)": "infinite",
				"balanceOf(address)": "infinite",
				"getApproved(uint256)": "infinite",
				"getTokenIdCount()": "2498",
				"isApprovedForAll(address,address)": "infinite",
				"name()": "infinite",
				"owner()": "2582",
				"ownerOf(uint256)": "infinite",
				"renounceOwnership()": "infinite",
				"safeMint(address)": "infinite",
				"safeTransferFrom(address,address,uint256)": "infinite",
				"safeTransferFrom(address,address,uint256,bytes)": "infinite",
				"setApprovalForAll(address,bool)": "infinite",
				"setBaseURI(string)": "infinite",
				"supportsInterface(bytes4)": "923",
				"symbol()": "infinite",
				"tokenURI(uint256)": "infinite",
				"transferFrom(address,address,uint256)": "infinite",
				"transferOwnership(address)": "infinite"
			},
			"internal": {
				"_baseURI()": "infinite",
				"increment()": "infinite"
			}
		},
		"methodIdentifiers": {
			"approve(address,uint256)": "095ea7b3",
			"balanceOf(address)": "70a08231",
			"getApproved(uint256)": "081812fc",
			"getTokenIdCount()": "d8c34fd1",
			"isApprovedForAll(address,address)": "e985e9c5",
			"name()": "06fdde03",
			"owner()": "8da5cb5b",
			"ownerOf(uint256)": "6352211e",
			"renounceOwnership()": "715018a6",
			"safeMint(address)": "40d097c3",
			"safeTransferFrom(address,address,uint256)": "42842e0e",
			"safeTransferFrom(address,address,uint256,bytes)": "b88d4fde",
			"setApprovalForAll(address,bool)": "a22cb465",
			"setBaseURI(string)": "55f804b3",
			"supportsInterface(bytes4)": "01ffc9a7",
			"symbol()": "95d89b41",
			"tokenURI(uint256)": "c87b56dd",
			"transferFrom(address,address,uint256)": "23b872dd",
			"transferOwnership(address)": "f2fde38b"
		}
	},
	"abi": [
		{
			"inputs": [
				{
					"internalType": "string",
					"name": "name",
					"type": "string"
				},
				{
					"internalType": "string",
					"name": "symbol",
					"type": "string"
				},
				{
					"internalType": "string",
					"name": "baseTokenURI",
					"type": "string"
				}
			],
			"stateMutability": "nonpayable",
			"type": "constructor"
		},
		{
			"inputs": [
				{
					"internalType": "address",
					"name": "sender",
					"type": "address"
				},
				{
					"internalType": "uint256",
					"name": "tokenId",
					"type": "uint256"
				},
				{
					"internalType": "address",
					"name": "owner",
					"type": "address"
				}
			],
			"name": "ERC721IncorrectOwner",
			"type": "error"
		},
		{
			"inputs": [
				{
					"internalType": "address",
					"name": "operator",
					"type": "address"
				},
				{
					"internalType": "uint256",
					"name": "tokenId",
					"type": "uint256"
				}
			],
			"name": "ERC721InsufficientApproval",
			"type": "error"
		},
		{
			"inputs": [
				{
					"internalType": "address",
					"name": "approver",
					"type": "address"
				}
			],
			"name": "ERC721InvalidApprover",
			"type": "error"
		},
		{
			"inputs": [
				{
					"internalType": "address",
					"name": "operator",
					"type": "address"
				}
			],
			"name": "ERC721InvalidOperator",
			"type": "error"
		},
		{
			"inputs": [
				{
					"internalType": "address",
					"name": "owner",
					"type": "address"
				}
			],
			"name": "ERC721InvalidOwner",
			"type": "error"
		},
		{
			"inputs": [
				{
					"internalType": "address",
					"name": "receiver",
					"type": "address"
				}
			],
			"name": "ERC721InvalidReceiver",
			"type": "error"
		},
		{
			"inputs": [
				{
					"internalType": "address",
					"name": "sender",
					"type": "address"
				}
			],
			"name": "ERC721InvalidSender",
			"type": "error"
		},
		{
			"inputs": [
				{
					"internalType": "uint256",
					"name": "tokenId",
					"type": "uint256"
				}
			],
			"name": "ERC721NonexistentToken",
			"type": "error"
		},
		{
			"inputs": [
				{
					"internalType": "address",
					"name": "owner",
					"type": "address"
				}
			],
			"name": "OwnableInvalidOwner",
			"type": "error"
		},
		{
			"inputs": [
				{
					"internalType": "address",
					"name": "account",
					"type": "address"
				}
			],
			"name": "OwnableUnauthorizedAccount",
			"type": "error"
		},
		{
			"anonymous": false,
			"inputs": [
				{
					"indexed": true,
					"internalType": "address",
					"name": "owner",
					"type": "address"
				},
				{
					"indexed": true,
					"internalType": "address",
					"name": "approved",
					"type": "address"
				},
				{
					"indexed": true,
					"internalType": "uint256",
					"name": "tokenId",
					"type": "uint256"
				}
			],
			"name": "Approval",
			"type": "event"
		},
		{
			"anonymous": false,
			"inputs": [
				{
					"indexed": true,
					"internalType": "address",
					"name": "owner",
					"type": "address"
				},
				{
					"indexed": true,
					"internalType": "address",
					"name": "operator",
					"type": "address"
				},
				{
					"indexed": false,
					"internalType": "bool",
					"name": "approved",
					"type": "bool"
				}
			],
			"name": "ApprovalForAll",
			"type": "event"
		},
		{
			"anonymous": false,
			"inputs": [
				{
					"indexed": false,
					"internalType": "uint256",
					"name": "_fromTokenId",
					"type": "uint256"
				},
				{
					"indexed": false,
					"internalType": "uint256",
					"name": "_toTokenId",
					"type": "uint256"
				}
			],
			"name": "BatchMetadataUpdate",
			"type": "event"
		},
		{
			"anonymous": false,
			"inputs": [
				{
					"indexed": false,
					"internalType": "uint256",
					"name": "_tokenId",
					"type": "uint256"
				}
			],
			"name": "MetadataUpdate",
			"type": "event"
		},
		{
			"anonymous": false,
			"inputs": [
				{
					"indexed": true,
					"internalType": "address",
					"name": "previousOwner",
					"type": "address"
				},
				{
					"indexed": true,
					"internalType": "address",
					"name": "newOwner",
					"type": "address"
				}
			],
			"name": "OwnershipTransferred",
			"type": "event"
		},
		{
			"anonymous": false,
			"inputs": [
				{
					"indexed": true,
					"internalType": "address",
					"name": "from",
					"type": "address"
				},
				{
					"indexed": true,
					"internalType": "address",
					"name": "to",
					"type": "address"
				},
				{
					"indexed": true,
					"internalType": "uint256",
					"name": "tokenId",
					"type": "uint256"
				}
			],
			"name": "Transfer",
			"type": "event"
		},
		{
			"inputs": [
				{
					"internalType": "address",
					"name": "to",
					"type": "address"
				},
				{
					"internalType": "uint256",
					"name": "tokenId",
					"type": "uint256"
				}
			],
			"name": "approve",
			"outputs": [],
			"stateMutability": "nonpayable",
			"type": "function"
		},
		{
			"inputs": [
				{
					"internalType": "address",
					"name": "owner",
					"type": "address"
				}
			],
			"name": "balanceOf",
			"outputs": [
				{
					"internalType": "uint256",
					"name": "",
					"type": "uint256"
				}
			],
			"stateMutability": "view",
			"type": "function"
		},
		{
			"inputs": [
				{
					"internalType": "uint256",
					"name": "tokenId",
					"type": "uint256"
				}
			],
			"name": "getApproved",
			"outputs": [
				{
					"internalType": "address",
					"name": "",
					"type": "address"
				}
			],
			"stateMutability": "view",
			"type": "function"
		},
		{
			"inputs": [],
			"name": "getTokenIdCount",
			"outputs": [
				{
					"internalType": "uint256",
					"name": "",
					"type": "uint256"
				}
			],
			"stateMutability": "view",
			"type": "function"
		},
		{
			"inputs": [
				{
					"internalType": "address",
					"name": "owner",
					"type": "address"
				},
				{
					"internalType": "address",
					"name": "operator",
					"type": "address"
				}
			],
			"name": "isApprovedForAll",
			"outputs": [
				{
					"internalType": "bool",
					"name": "",
					"type": "bool"
				}
			],
			"stateMutability": "view",
			"type": "function"
		},
		{
			"inputs": [],
			"name": "name",
			"outputs": [
				{
					"internalType": "string",
					"name": "",
					"type": "string"
				}
			],
			"stateMutability": "view",
			"type": "function"
		},
		{
			"inputs": [],
			"name": "owner",
			"outputs": [
				{
					"internalType": "address",
					"name": "",
					"type": "address"
				}
			],
			"stateMutability": "view",
			"type": "function"
		},
		{
			"inputs": [
				{
					"internalType": "uint256",
					"name": "tokenId",
					"type": "uint256"
				}
			],
			"name": "ownerOf",
			"outputs": [
				{
					"internalType": "address",
					"name": "",
					"type": "address"
				}
			],
			"stateMutability": "view",
			"type": "function"
		},
		{
			"inputs": [],
			"name": "renounceOwnership",
			"outputs": [],
			"stateMutability": "nonpayable",
			"type": "function"
		},
		{
			"inputs": [
				{
					"internalType": "address",
					"name": "to",
					"type": "address"
				}
			],
			"name": "safeMint",
			"outputs": [],
			"stateMutability": "nonpayable",
			"type": "function"
		},
		{
			"inputs": [
				{
					"internalType": "address",
					"name": "from",
					"type": "address"
				},
				{
					"internalType": "address",
					"name": "to",
					"type": "address"
				},
				{
					"internalType": "uint256",
					"name": "tokenId",
					"type": "uint256"
				}
			],
			"name": "safeTransferFrom",
			"outputs": [],
			"stateMutability": "nonpayable",
			"type": "function"
		},
		{
			"inputs": [
				{
					"internalType": "address",
					"name": "from",
					"type": "address"
				},
				{
					"internalType": "address",
					"name": "to",
					"type": "address"
				},
				{
					"internalType": "uint256",
					"name": "tokenId",
					"type": "uint256"
				},
				{
					"internalType": "bytes",
					"name": "data",
					"type": "bytes"
				}
			],
			"name": "safeTransferFrom",
			"outputs": [],
			"stateMutability": "nonpayable",
			"type": "function"
		},
		{
			"inputs": [
				{
					"internalType": "address",
					"name": "operator",
					"type": "address"
				},
				{
					"internalType": "bool",
					"name": "approved",
					"type": "bool"
				}
			],
			"name": "setApprovalForAll",
			"outputs": [],
			"stateMutability": "nonpayable",
			"type": "function"
		},
		{
			"inputs": [
				{
					"internalType": "string",
					"name": "baseURI",
					"type": "string"
				}
			],
			"name": "setBaseURI",
			"outputs": [],
			"stateMutability": "nonpayable",
			"type": "function"
		},
		{
			"inputs": [
				{
					"internalType": "bytes4",
					"name": "interfaceId",
					"type": "bytes4"
				}
			],
			"name": "supportsInterface",
			"outputs": [
				{
					"internalType": "bool",
					"name": "",
					"type": "bool"
				}
			],
			"stateMutability": "view",
			"type": "function"
		},
		{
			"inputs": [],
			"name": "symbol",
			"outputs": [
				{
					"internalType": "string",
					"name": "",
					"type": "string"
				}
			],
			"stateMutability": "view",
			"type": "function"
		},
		{
			"inputs": [
				{
					"internalType": "uint256",
					"name": "tokenId",
					"type": "uint256"
				}
			],
			"name": "tokenURI",
			"outputs": [
				{
					"internalType": "string",
					"name": "",
					"type": "string"
				}
			],
			"stateMutability": "view",
			"type": "function"
		},
		{
			"inputs": [
				{
					"internalType": "address",
					"name": "from",
					"type": "address"
				},
				{
					"internalType": "address",
					"name": "to",
					"type": "address"
				},
				{
					"internalType": "uint256",
					"name": "tokenId",
					"type": "uint256"
				}
			],
			"name": "transferFrom",
			"outputs": [],
			"stateMutability": "nonpayable",
			"type": "function"
		},
		{
			"inputs": [
				{
					"internalType": "address",
					"name": "newOwner",
					"type": "address"
				}
			],
			"name": "transferOwnership",
			"outputs": [],
			"stateMutability": "nonpayable",
			"type": "function"
		}
	]
}